{"contracts/ReputationSystem.sol":{"ReputationSystem":{"abi":[{"inputs":[],"stateMutability":"nonpayable","type":"constructor"},{"inputs":[],"name":"ActiveElectionExists","type":"error"},{"inputs":[],"name":"ElectionExpired","type":"error"},{"inputs":[],"name":"ElectionNotActive","type":"error"},{"inputs":[],"name":"InvalidCandidate","type":"error"},{"inputs":[],"name":"MemberAlreadyVoted","type":"error"},{"inputs":[],"name":"MemberIdOrWalletInvalid","type":"error"},{"inputs":[],"name":"NoCandidates","type":"error"},{"inputs":[],"name":"UnauthorizedCaller","type":"error"},{"inputs":[],"name":"WalletAlreadyVinculated","type":"error"},{"anonymous":false,"inputs":[{"indexed":true,"internalType":"address","name":"caller","type":"address"},{"indexed":false,"internalType":"bool","name":"authorized","type":"bool"}],"name":"AuthorizedCallerUpdated","type":"event"},{"anonymous":false,"inputs":[{"indexed":true,"internalType":"uint32","name":"electionId","type":"uint32"},{"indexed":true,"internalType":"uint32","name":"candidateId","type":"uint32"}],"name":"CandidateAdded","type":"event"},{"anonymous":false,"inputs":[{"indexed":true,"internalType":"uint32","name":"electionId","type":"uint32"},{"indexed":true,"internalType":"uint32","name":"winnerId","type":"uint32"},{"indexed":false,"internalType":"int32","name":"winningVotes","type":"int32"}],"name":"ElectionClosed","type":"event"},{"anonymous":false,"inputs":[{"indexed":true,"internalType":"uint32","name":"electionId","type":"uint32"},{"indexed":true,"internalType":"uint32","name":"candidateId","type":"uint32"},{"indexed":false,"internalType":"uint256","name":"startTime","type":"uint256"},{"indexed":false,"internalType":"uint256","name":"endTime","type":"uint256"}],"name":"ElectionOpened","type":"event"},{"anonymous":false,"inputs":[{"indexed":true,"internalType":"uint32","name":"memberId","type":"uint32"},{"indexed":true,"internalType":"address","name":"wallet","type":"address"},{"indexed":false,"internalType":"uint256","name":"timestamp","type":"uint256"}],"name":"MemberToWalletVinculation","type":"event"},{"anonymous":false,"inputs":[{"indexed":true,"internalType":"address","name":"previousOwner","type":"address"},{"indexed":true,"internalType":"address","name":"newOwner","type":"address"}],"name":"OwnershipTransferred","type":"event"},{"anonymous":false,"inputs":[{"indexed":true,"internalType":"uint32","name":"memberId","type":"uint32"},{"indexed":false,"internalType":"int32","name":"points","type":"int32"},{"indexed":false,"internalType":"bool","name":"increase","type":"bool"},{"indexed":false,"internalType":"int32","name":"newReputation","type":"int32"},{"indexed":false,"internalType":"uint256","name":"timestamp","type":"uint256"}],"name":"ReputationChanged","type":"event"},{"anonymous":false,"inputs":[{"indexed":true,"internalType":"uint32","name":"electionId","type":"uint32"},{"indexed":true,"internalType":"uint32","name":"winnerId","type":"uint32"},{"indexed":false,"internalType":"int32","name":"winningVotes","type":"int32"}],"name":"UnbeatableMajorityReached","type":"event"},{"anonymous":false,"inputs":[{"indexed":true,"internalType":"uint32","name":"electionId","type":"uint32"},{"indexed":true,"internalType":"uint32","name":"candidateId","type":"uint32"},{"indexed":true,"internalType":"uint32","name":"memberId","type":"uint32"},{"indexed":false,"internalType":"int32","name":"voteWeight","type":"int32"}],"name":"VoteCast","type":"event"},{"inputs":[],"name":"REPUTATION_GAIN_BY_COVERING_LOAN","outputs":[{"internalType":"int32","name":"","type":"int32"}],"stateMutability":"view","type":"function"},{"inputs":[],"name":"REPUTATION_GAIN_BY_REPAYNG_DEBT","outputs":[{"internalType":"int32","name":"","type":"int32"}],"stateMutability":"view","type":"function"},{"inputs":[],"name":"REPUTATION_LOSS_BY_DEBT_NOT_PAYD","outputs":[{"internalType":"int32","name":"","type":"int32"}],"stateMutability":"view","type":"function"},{"inputs":[{"internalType":"uint32","name":"electionId","type":"uint32"},{"internalType":"uint32","name":"candidateId","type":"uint32"}],"name":"addCandidate","outputs":[],"stateMutability":"nonpayable","type":"function"},{"inputs":[{"internalType":"address","name":"","type":"address"}],"name":"authorizedCallers","outputs":[{"internalType":"bool","name":"","type":"bool"}],"stateMutability":"view","type":"function"},{"inputs":[{"internalType":"uint32","name":"electionId","type":"uint32"}],"name":"checkUnbeatableMajority","outputs":[{"internalType":"bool","name":"isUnbeatable","type":"bool"},{"internalType":"uint32","name":"leadingCandidate","type":"uint32"},{"internalType":"int32","name":"leadingVotes","type":"int32"},{"internalType":"uint32","name":"secondCandidate","type":"uint32"},{"internalType":"int32","name":"secondVotes","type":"int32"}],"stateMutability":"view","type":"function"},{"inputs":[{"internalType":"uint32","name":"electionId","type":"uint32"}],"name":"closeElection","outputs":[],"stateMutability":"nonpayable","type":"function"},{"inputs":[{"internalType":"uint256","name":"","type":"uint256"}],"name":"elections","outputs":[{"internalType":"uint32","name":"id","type":"uint32"},{"internalType":"uint256","name":"startTime","type":"uint256"},{"internalType":"uint256","name":"endTime","type":"uint256"},{"internalType":"bool","name":"active","type":"bool"},{"internalType":"uint32","name":"winnerId","type":"uint32"},{"internalType":"int32","name":"winningVotes","type":"int32"},{"internalType":"int32","name":"totalVotesCast","type":"int32"},{"internalType":"int32","name":"potentialRemainingVotes","type":"int32"}],"stateMutability":"view","type":"function"},{"inputs":[{"internalType":"uint32","name":"candidateId","type":"uint32"}],"name":"getCandidateVotes","outputs":[{"internalType":"int32","name":"","type":"int32"}],"stateMutability":"view","type":"function"},{"inputs":[],"name":"getCurrentElectionId","outputs":[{"internalType":"int32","name":"","type":"int32"}],"stateMutability":"view","type":"function"},{"inputs":[{"internalType":"uint32","name":"electionId","type":"uint32"}],"name":"getElectionInfo","outputs":[{"internalType":"uint32","name":"id","type":"uint32"},{"internalType":"uint32[]","name":"candidates","type":"uint32[]"},{"internalType":"uint256","name":"startTime","type":"uint256"},{"internalType":"uint256","name":"endTime","type":"uint256"},{"internalType":"bool","name":"active","type":"bool"},{"internalType":"uint32","name":"winnerId","type":"uint32"},{"internalType":"int32","name":"winningVotes","type":"int32"},{"internalType":"int32","name":"totalVotesCast","type":"int32"}],"stateMutability":"view","type":"function"},{"inputs":[{"internalType":"address","name":"wallet","type":"address"}],"name":"getMemberId","outputs":[{"internalType":"uint32","name":"","type":"uint32"}],"stateMutability":"view","type":"function"},{"inputs":[{"internalType":"uint32","name":"memberId","type":"uint32"}],"name":"getReputation","outputs":[{"internalType":"int32","name":"","type":"int32"}],"stateMutability":"view","type":"function"},{"inputs":[{"internalType":"uint32","name":"electionId","type":"uint32"},{"internalType":"uint32","name":"memberId","type":"uint32"}],"name":"hasMemberVoted","outputs":[{"internalType":"bool","name":"","type":"bool"}],"stateMutability":"view","type":"function"},{"inputs":[{"internalType":"uint32","name":"","type":"uint32"},{"internalType":"uint32","name":"","type":"uint32"}],"name":"hasVotedInElection","outputs":[{"internalType":"bool","name":"","type":"bool"}],"stateMutability":"view","type":"function"},{"inputs":[{"internalType":"uint32","name":"","type":"uint32"}],"name":"isModerator","outputs":[{"internalType":"bool","name":"","type":"bool"}],"stateMutability":"view","type":"function"},{"inputs":[{"internalType":"address","name":"wallet","type":"address"}],"name":"isWalletVinculated","outputs":[{"internalType":"bool","name":"","type":"bool"}],"stateMutability":"view","type":"function"},{"inputs":[{"internalType":"uint32","name":"","type":"uint32"}],"name":"moderatorVotesReceived","outputs":[{"internalType":"int32","name":"","type":"int32"}],"stateMutability":"view","type":"function"},{"inputs":[{"internalType":"uint32","name":"candidateId","type":"uint32"}],"name":"openElection","outputs":[],"stateMutability":"nonpayable","type":"function"},{"inputs":[],"name":"owner","outputs":[{"internalType":"address","name":"","type":"address"}],"stateMutability":"view","type":"function"},{"inputs":[],"name":"renounceOwnership","outputs":[],"stateMutability":"nonpayable","type":"function"},{"inputs":[{"internalType":"uint32","name":"memberId","type":"uint32"},{"internalType":"int32","name":"points","type":"int32"},{"internalType":"bool","name":"increase","type":"bool"}],"name":"reputationChange","outputs":[],"stateMutability":"nonpayable","type":"function"},{"inputs":[{"internalType":"address","name":"caller","type":"address"},{"internalType":"bool","name":"authorized","type":"bool"}],"name":"setAuthorizedCaller","outputs":[],"stateMutability":"nonpayable","type":"function"},{"inputs":[{"internalType":"address","name":"newOwner","type":"address"}],"name":"transferOwnership","outputs":[],"stateMutability":"nonpayable","type":"function"},{"inputs":[{"internalType":"uint32","name":"memberId","type":"uint32"},{"internalType":"address","name":"wallet","type":"address"}],"name":"vinculationMemberToWallet","outputs":[],"stateMutability":"nonpayable","type":"function"},{"inputs":[{"internalType":"uint32","name":"electionId","type":"uint32"},{"internalType":"uint32","name":"candidateId","type":"uint32"},{"internalType":"uint32","name":"memberId","type":"uint32"}],"name":"voteForModerator","outputs":[],"stateMutability":"nonpayable","type":"function"}],"evm":{"bytecode":{"linkReferences":{},"object":"608060405234801561001057600080fd5b50600160005561001f3361003e565b336000908152600260205260409020805460ff19166001179055610090565b600180546001600160a01b038381166001600160a01b0319831681179093556040519116919082907f8be0079c531659141344cd1fd0a4f28419497f9722a3daafe3b4186f6b6457e090600090a35050565b611cf78061009f6000396000f3fe608060405234801561001057600080fd5b506004361061018e5760003560e01c806370574c4b116100de578063a5118bf111610097578063c269014b11610071578063c269014b14610470578063d5be8c4a146104b4578063f2fde38b146104bc578063fe2b536b146104cf57600080fd5b8063a5118bf114610417578063b1cc1f8f1461041f578063b3f8df401461044257600080fd5b806370574c4b1461036c578063715018a61461039557806381db22841461039d5780638249dea6146103c65780638450a681146103d95780638da5cb5b146103fc57600080fd5b80634b45e00f1161014b578063536fff6c11610125578063536fff6c146102a5578063598a562a146102c85780635d090176146102f95780635e6fef011461030c57600080fd5b80634b45e00f146102645780634e5ecf1314610277578063533dfa351461029257600080fd5b80631f7f505c1461019357806321bb31e4146101bb578063232775c3146101d0578063244ad967146101f7578063315f77601461020a578063454bbd2914610251575b600080fd5b6101a66101a13660046119bd565b6104d7565b60405190151581526020015b60405180910390f35b6101ce6101c9366004611a07565b610504565b005b6101e36101de366004611a31565b6105e3565b6040516101b2989796959493929190611a53565b6101ce610205366004611af2565b610728565b61021d610218366004611a31565b610a3d565b60408051951515865263ffffffff9485166020870152600393840b90860152921660608401520b608082015260a0016101b2565b6101ce61025f366004611b45565b610b06565b6101ce610272366004611a31565b610b6d565b61027f600181565b60405160039190910b81526020016101b2565b6101ce6102a0366004611b6f565b610d95565b6101a66102b3366004611bb1565b60026020526000908152604090205460ff1681565b6101a66102d6366004611bb1565b6001600160a01b031660009081526003602052604090205463ffffffff16151590565b6101ce6103073660046119bd565b610edc565b61031f61031a366004611bcc565b611005565b6040805163ffffffff998a1681526020810198909852870195909552921515606086015294166080840152600393840b60a0840152830b60c083015290910b60e0820152610100016101b2565b61027f61037a366004611a31565b63ffffffff1660009081526006602052604090205460030b90565b6101ce611074565b61027f6103ab366004611a31565b63ffffffff1660009081526004602052604090205460030b90565b6101ce6103d4366004611a31565b611088565b61027f6103e7366004611a31565b60066020526000908152604090205460030b81565b6001546040516001600160a01b0390911681526020016101b2565b61027f600381565b6101a661042d366004611a31565b60056020526000908152604090205460ff1681565b6101a66104503660046119bd565b600760209081526000928352604080842090915290825290205460ff1681565b61049f61047e366004611bb1565b6001600160a01b031660009081526003602052604090205463ffffffff1690565b60405163ffffffff90911681526020016101b2565b61027f600281565b6101ce6104ca366004611bb1565b611383565b61027f611401565b63ffffffff80831660009081526007602090815260408083209385168352929052205460ff165b92915050565b818163ffffffff8216158061052057506001600160a01b038116155b1561053e57604051630cff23e760e01b815260040160405180910390fd5b6001600160a01b03811660009081526003602052604090205463ffffffff161561057b576040516377030a8760e11b815260040160405180910390fd5b6001600160a01b038316600081815260036020908152604091829020805463ffffffff191663ffffffff891690811790915591514281527f605181a3cca1307ae9b2df54d6592ddf8f82c3570c6938f36d61cd23b6b57a8d910160405180910390a350505050565b60006060600080600080600080886009805490508163ffffffff161061061c57604051638744898560e01b815260040160405180910390fd5b600060098b63ffffffff168154811061063757610637611be5565b600091825260209182902060059091020180546002820154600380840154600485015460018601805460408051828b0281018b0190915281815297995063ffffffff9687169891979596939560ff841695610100850490951694600160281b8504810b94600160481b9004900b929091899183018282801561070457602002820191906000526020600020906000905b82829054906101000a900463ffffffff1663ffffffff16815260200190600401906020826003010492830192600103820291508084116106c75790505b50505050509650995099509950995099509950995099505050919395975091939597565b803363ffffffff8216158061075e57506001600160a01b03811660009081526003602052604090205463ffffffff838116911614155b1561077c57604051630cff23e760e01b815260040160405180910390fd5b600954859063ffffffff8216106107a657604051638744898560e01b815260040160405180910390fd5b85600060098263ffffffff16815481106107c2576107c2611be5565b9060005260206000209060050201905080600301544211806107e95750600481015460ff16155b1561080757604051638744898560e01b815260040160405180910390fd5b600060098963ffffffff168154811061082257610822611be5565b6000918252602080832063ffffffff808e168552600783526040808620918d16865292529220546005909102909101915060ff16156108735760405162b14d3b60e61b815260040160405180910390fd5b6000805b60018301548110156108e3578963ffffffff1683600101828154811061089f5761089f611be5565b6000918252602090912060088204015460079091166004026101000a900463ffffffff16036108d157600191506108e3565b806108db81611c11565b915050610877565b50806109025760405163e66ea08f60e01b815260040160405180910390fd5b63ffffffff881660009081526004602052604081205460030b90811215610927575060005b63ffffffff808c1660009081526007602090815260408083208d851684528252808320805460ff19166001179055928d16825260069052908120805483929061097490849060030b611c2a565b92506101000a81548163ffffffff021916908360030b63ffffffff160217905550808360040160098282829054906101000a900460030b6109b59190611c2a565b92506101000a81548163ffffffff021916908360030b63ffffffff1602179055506109e08b8a61146e565b604051600382900b815263ffffffff808b16918c8216918e16907f01918cd6e2704e854c925442ca2caa9ef7187126224a112077220e8316519d669060200160405180910390a4610a308b611502565b5050505050505050505050565b6000806000806000856009805490508163ffffffff1610610a7157604051638744898560e01b815260040160405180910390fd5b600060098863ffffffff1681548110610a8c57610a8c611be5565b90600052602060002090600502019050600281600101805490501015610ac45760008060008060009650965096509650965050610afc565b610acd8861166b565b600485015493995091975095509350610af090600160681b900460030b84611c2a565b60030b8560030b139650505b5091939590929450565b610b0e6117c4565b6001600160a01b038216600081815260026020908152604091829020805460ff191685151590811790915591519182527fad857fa38c9319cb80848f1ef2f924383b90297eb5d71755738ff037d100faa1910160405180910390a25050565b600954819063ffffffff821610610b9757604051638744898560e01b815260040160405180910390fd5b610b9f6117c4565b600060098363ffffffff1681548110610bba57610bba611be5565b60009182526020909120600590910201600481015490915060ff16610bf257604051638744898560e01b815260040160405180910390fd5b6001810154600003610c1757604051633941064160e21b815260040160405180910390fd5b60048101805460ff19169055600181018054600091908290610c3b57610c3b611be5565b6000918252602080832060088304015460079092166004026101000a90910463ffffffff16808352600690915260409091205490915060030b60015b6001840154811015610cfc576000846001018281548110610c9a57610c9a611be5565b6000918252602080832060088304015460079092166004026101000a90910463ffffffff168083526006909152604090912054909150600390810b9084900b811315610ce7578194508093505b50508080610cf490611c11565b915050610c77565b5063ffffffff8281166000818152600560209081526040918290208054600160ff1990911617905560048701805468ffffffffffffffff001916610100850268ffffffff0000000000191617600160281b878716021790559051600385900b815291928816917f2b056a7f2ae4dfec88dc5458429e82a178c97e5019b817058ae7dcd455da9e8591015b60405180910390a35050505050565b3360009081526002602052604090205460ff16610dc557604051635c427cd960e01b815260040160405180910390fd5b823363ffffffff82161580610dfb57506001600160a01b03811660009081526003602052604090205463ffffffff838116911614155b15610e1957604051630cff23e760e01b815260040160405180910390fd5b63ffffffff851660009081526004602052604081205460030b908415610e4a57610e438683611c2a565b9050610e57565b610e548683611c51565b90505b63ffffffff878116600081815260046020908152604091829020805463ffffffff191694861694909417909355805160038a810b8252891515948201949094529284900b90830152426060830152907f72194f756300fff6bfc1d45660da70048be350dc1aad864b9280fa75c3ff696c9060800160405180910390a250505050505050565b600954829063ffffffff821610610f0657604051638744898560e01b815260040160405180910390fd5b82600060098263ffffffff1681548110610f2257610f22611be5565b906000526020600020906005020190508060030154421180610f495750600481015460ff16155b15610f6757604051638744898560e01b815260040160405180910390fd5b600060098663ffffffff1681548110610f8257610f82611be5565b6000918252602080832060059290920290910160018181018054918201815584529183206008830401805460079093166004026101000a63ffffffff818102199094168a85169182021790915560405191945092918916917f2497edd456da400fdf8e24a5943faebba37fc1a396be5ff9ef6105aede63e26b91a3505050505050565b6009818154811061101557600080fd5b600091825260209091206005909102018054600282015460038084015460049094015463ffffffff938416955091939260ff831692610100810490911691600160281b8204810b91600160481b8104820b91600160681b909104900b88565b61107c6117c4565b611086600061181e565b565b600954158015906110cc5750600980546110a490600190611c78565b815481106110b4576110b4611be5565b600091825260209091206004600590920201015460ff165b156110ea5760405163eca8873760e01b815260040160405180910390fd5b604080516101208101825260008082526060602083018190529282018190529181018290526080810182905260a0810182905260c0810182905260e081018290526101008101919091526008805463ffffffff1690600061114a83611c8b565b82546101009290920a63ffffffff81810219909316918316021790915516815260408051600180825281830190925290602080830190803683375050506020820181905280518391906000906111a2576111a2611be5565b63ffffffff9092166020928302919091019091015242604082018190526111cc9062278d00611cae565b606082015260016080820152600060e08201526111e7611870565b60030b6101008201526009805460018101825560009190915281517f6e1540171b6c0c960b71a7020d9f60077f6af931a8bbf590da0223dacf75c7af6005909202918201805463ffffffff191663ffffffff9092169190911781556020808401518051859461127c937f6e1540171b6c0c960b71a7020d9f60077f6af931a8bbf590da0223dacf75c7b09091019201906118e0565b506040828101516002830155606080840151600384015560808401516004909301805460a086015160c087015160e08801516101009889015164ffffffffff1990941697151564ffffffff0019169790971763ffffffff928316909802979097176cffffffffffffffff00000000001916600160281b978216979097026cffffffff000000000000000000191696909617600160481b958716959095029490941763ffffffff60681b1916600160681b948616949094029390931790925583518482015192850151825193845260208401528584169316917f4610b24bbfb857173e063b234e3a2475409bf5921c3f541f435eb016c5aad89f910160405180910390a35050565b61138b6117c4565b6001600160a01b0381166113f55760405162461bcd60e51b815260206004820152602660248201527f4f776e61626c653a206e6577206f776e657220697320746865207a65726f206160448201526564647265737360d01b60648201526084015b60405180910390fd5b6113fe8161181e565b50565b6009546000908103611414575060001990565b600980546000919061142890600190611c78565b8154811061143857611438611be5565b60009182526020909120600590910201600481015490915060ff1661145f57600019611468565b805463ffffffff165b91505090565b600060098363ffffffff168154811061148957611489611be5565b6000918252602080832063ffffffff8616845260049091526040832054600590920201925060030b908113156114fc57600482018054829190600d906114da908490600160681b900460030b611c51565b92506101000a81548163ffffffff021916908360030b63ffffffff1602179055505b50505050565b600060098263ffffffff168154811061151d5761151d611be5565b90600052602060002090600502019050600281600101805490501015611541575050565b600080600061154f8561166b565b935050925092508263ffffffff1660000361156b575050505050565b600484015461158490600160681b900460030b82611c2a565b60030b8260030b13156116645760048401805468ffffffffffffffffff191661010063ffffffff86811691820268ffffffff0000000000191692909217600160281b8684160217909255600082815260056020908152604091829020805460ff191660011790559051600386900b8152918816917f6fb21c4c14810ceb320306eda3d07c6738412088c17a66604afe100ae599b182910160405180910390a3604051600383900b815263ffffffff80851691908716907f2b056a7f2ae4dfec88dc5458429e82a178c97e5019b817058ae7dcd455da9e8590602001610d86565b5050505050565b600080600080600060098663ffffffff168154811061168c5761168c611be5565b9060005260206000209060050201905080600101805490506000036116bf576000806000809450945094509450506117bd565b806001016000815481106116d5576116d5611be5565b6000918252602080832060088304015460079092166004026101000a90910463ffffffff168083526006909152604082205490965060030b9450925082915060015b60018201548110156117ba57600082600101828154811061173a5761173a611be5565b6000918252602080832060088304015460079092166004026101000a90910463ffffffff168083526006909152604090912054909150600390810b9087900b8113156117905790969095909450925085856117a5565b8460030b8160030b13156117a5578195508094505b505080806117b290611c11565b915050611717565b50505b9193509193565b6001546001600160a01b031633146110865760405162461bcd60e51b815260206004820181905260248201527f4f776e61626c653a2063616c6c6572206973206e6f7420746865206f776e657260448201526064016113ec565b600180546001600160a01b038381166001600160a01b0319831681179093556040519116919082907f8be0079c531659141344cd1fd0a4f28419497f9722a3daafe3b4186f6b6457e090600090a35050565b60008060015b63ffffffff818116116118da5763ffffffff811660009081526004602052604081205460030b13156118c85763ffffffff81166000908152600460205260409020546118c59060030b83611c2a565b91505b806118d281611c8b565b915050611876565b50919050565b8280548282559060005260206000209060070160089004810192821561197f5791602002820160005b8382111561194d57835183826101000a81548163ffffffff021916908363ffffffff1602179055509260200192600401602081600301049283019260010302611909565b801561197d5782816101000a81549063ffffffff021916905560040160208160030104928301926001030261194d565b505b5061198b92915061198f565b5090565b5b8082111561198b5760008155600101611990565b803563ffffffff811681146119b857600080fd5b919050565b600080604083850312156119d057600080fd5b6119d9836119a4565b91506119e7602084016119a4565b90509250929050565b80356001600160a01b03811681146119b857600080fd5b60008060408385031215611a1a57600080fd5b611a23836119a4565b91506119e7602084016119f0565b600060208284031215611a4357600080fd5b611a4c826119a4565b9392505050565b63ffffffff898116825261010060208084018290528a519184018290526000926101208501928c83019290855b81811015611a9e578451841686529482019493820193600101611a80565b505050505060408301899052606083018890528615156080840152905063ffffffff851660a0830152611ad660c083018560030b9052565b611ae560e083018460030b9052565b9998505050505050505050565b600080600060608486031215611b0757600080fd5b611b10846119a4565b9250611b1e602085016119a4565b9150611b2c604085016119a4565b90509250925092565b803580151581146119b857600080fd5b60008060408385031215611b5857600080fd5b611b61836119f0565b91506119e760208401611b35565b600080600060608486031215611b8457600080fd5b611b8d846119a4565b925060208401358060030b8114611ba357600080fd5b9150611b2c60408501611b35565b600060208284031215611bc357600080fd5b611a4c826119f0565b600060208284031215611bde57600080fd5b5035919050565b634e487b7160e01b600052603260045260246000fd5b634e487b7160e01b600052601160045260246000fd5b600060018201611c2357611c23611bfb565b5060010190565b600381810b9083900b01637fffffff8113637fffffff19821217156104fe576104fe611bfb565b600382810b9082900b03637fffffff198112637fffffff821317156104fe576104fe611bfb565b818103818111156104fe576104fe611bfb565b600063ffffffff808316818103611ca457611ca4611bfb565b6001019392505050565b808201808211156104fe576104fe611bfb56fea2646970667358221220bd2e27443978714762e6d4f61c8d5e14d89900146ae99378d6074c8d3ccfb28964736f6c63430008130033","opcodes":"PUSH1 0x80 PUSH1 0x40 MSTORE CALLVALUE DUP1 ISZERO PUSH2 0x10 JUMPI PUSH1 0x0 DUP1 REVERT JUMPDEST POP PUSH1 0x1 PUSH1 0x0 SSTORE PUSH2 0x1F CALLER PUSH2 0x3E JUMP JUMPDEST CALLER PUSH1 0x0 SWAP1 DUP2 MSTORE PUSH1 0x2 PUSH1 0x20 MSTORE PUSH1 0x40 SWAP1 KECCAK256 DUP1 SLOAD PUSH1 0xFF NOT AND PUSH1 0x1 OR SWAP1 SSTORE PUSH2 0x90 JUMP JUMPDEST PUSH1 0x1 DUP1 SLOAD PUSH1 0x1 PUSH1 0x1 PUSH1 0xA0 SHL SUB DUP4 DUP2 AND PUSH1 0x1 PUSH1 0x1 PUSH1 0xA0 SHL SUB NOT DUP4 AND DUP2 OR SWAP1 SWAP4 SSTORE PUSH1 0x40 MLOAD SWAP2 AND SWAP2 SWAP1 DUP3 SWAP1 PUSH32 0x8BE0079C531659141344CD1FD0A4F28419497F9722A3DAAFE3B4186F6B6457E0 SWAP1 PUSH1 0x0 SWAP1 LOG3 POP POP JUMP JUMPDEST PUSH2 0x1CF7 DUP1 PUSH2 0x9F PUSH1 0x0 CODECOPY PUSH1 0x0 RETURN INVALID PUSH1 0x80 PUSH1 0x40 MSTORE CALLVALUE DUP1 ISZERO PUSH2 0x10 JUMPI PUSH1 0x0 DUP1 REVERT JUMPDEST POP PUSH1 0x4 CALLDATASIZE LT PUSH2 0x18E JUMPI PUSH1 0x0 CALLDATALOAD PUSH1 0xE0 SHR DUP1 PUSH4 0x70574C4B GT PUSH2 0xDE JUMPI DUP1 PUSH4 0xA5118BF1 GT PUSH2 0x97 JUMPI DUP1 PUSH4 0xC269014B GT PUSH2 0x71 JUMPI DUP1 PUSH4 0xC269014B EQ PUSH2 0x470 JUMPI DUP1 PUSH4 0xD5BE8C4A EQ PUSH2 0x4B4 JUMPI DUP1 PUSH4 0xF2FDE38B EQ PUSH2 0x4BC JUMPI DUP1 PUSH4 0xFE2B536B EQ PUSH2 0x4CF JUMPI PUSH1 0x0 DUP1 REVERT JUMPDEST DUP1 PUSH4 0xA5118BF1 EQ PUSH2 0x417 JUMPI DUP1 PUSH4 0xB1CC1F8F EQ PUSH2 0x41F JUMPI DUP1 PUSH4 0xB3F8DF40 EQ PUSH2 0x442 JUMPI PUSH1 0x0 DUP1 REVERT JUMPDEST DUP1 PUSH4 0x70574C4B EQ PUSH2 0x36C JUMPI DUP1 PUSH4 0x715018A6 EQ PUSH2 0x395 JUMPI DUP1 PUSH4 0x81DB2284 EQ PUSH2 0x39D JUMPI DUP1 PUSH4 0x8249DEA6 EQ PUSH2 0x3C6 JUMPI DUP1 PUSH4 0x8450A681 EQ PUSH2 0x3D9 JUMPI DUP1 PUSH4 0x8DA5CB5B EQ PUSH2 0x3FC JUMPI PUSH1 0x0 DUP1 REVERT JUMPDEST DUP1 PUSH4 0x4B45E00F GT PUSH2 0x14B JUMPI DUP1 PUSH4 0x536FFF6C GT PUSH2 0x125 JUMPI DUP1 PUSH4 0x536FFF6C EQ PUSH2 0x2A5 JUMPI DUP1 PUSH4 0x598A562A EQ PUSH2 0x2C8 JUMPI DUP1 PUSH4 0x5D090176 EQ PUSH2 0x2F9 JUMPI DUP1 PUSH4 0x5E6FEF01 EQ PUSH2 0x30C JUMPI PUSH1 0x0 DUP1 REVERT JUMPDEST DUP1 PUSH4 0x4B45E00F EQ PUSH2 0x264 JUMPI DUP1 PUSH4 0x4E5ECF13 EQ PUSH2 0x277 JUMPI DUP1 PUSH4 0x533DFA35 EQ PUSH2 0x292 JUMPI PUSH1 0x0 DUP1 REVERT JUMPDEST DUP1 PUSH4 0x1F7F505C EQ PUSH2 0x193 JUMPI DUP1 PUSH4 0x21BB31E4 EQ PUSH2 0x1BB JUMPI DUP1 PUSH4 0x232775C3 EQ PUSH2 0x1D0 JUMPI DUP1 PUSH4 0x244AD967 EQ PUSH2 0x1F7 JUMPI DUP1 PUSH4 0x315F7760 EQ PUSH2 0x20A JUMPI DUP1 PUSH4 0x454BBD29 EQ PUSH2 0x251 JUMPI JUMPDEST PUSH1 0x0 DUP1 REVERT JUMPDEST PUSH2 0x1A6 PUSH2 0x1A1 CALLDATASIZE PUSH1 0x4 PUSH2 0x19BD JUMP JUMPDEST PUSH2 0x4D7 JUMP JUMPDEST PUSH1 0x40 MLOAD SWAP1 ISZERO ISZERO DUP2 MSTORE PUSH1 0x20 ADD JUMPDEST PUSH1 0x40 MLOAD DUP1 SWAP2 SUB SWAP1 RETURN JUMPDEST PUSH2 0x1CE PUSH2 0x1C9 CALLDATASIZE PUSH1 0x4 PUSH2 0x1A07 JUMP JUMPDEST PUSH2 0x504 JUMP JUMPDEST STOP JUMPDEST PUSH2 0x1E3 PUSH2 0x1DE CALLDATASIZE PUSH1 0x4 PUSH2 0x1A31 JUMP JUMPDEST PUSH2 0x5E3 JUMP JUMPDEST PUSH1 0x40 MLOAD PUSH2 0x1B2 SWAP9 SWAP8 SWAP7 SWAP6 SWAP5 SWAP4 SWAP3 SWAP2 SWAP1 PUSH2 0x1A53 JUMP JUMPDEST PUSH2 0x1CE PUSH2 0x205 CALLDATASIZE PUSH1 0x4 PUSH2 0x1AF2 JUMP JUMPDEST PUSH2 0x728 JUMP JUMPDEST PUSH2 0x21D PUSH2 0x218 CALLDATASIZE PUSH1 0x4 PUSH2 0x1A31 JUMP JUMPDEST PUSH2 0xA3D JUMP JUMPDEST PUSH1 0x40 DUP1 MLOAD SWAP6 ISZERO ISZERO DUP7 MSTORE PUSH4 0xFFFFFFFF SWAP5 DUP6 AND PUSH1 0x20 DUP8 ADD MSTORE PUSH1 0x3 SWAP4 DUP5 SIGNEXTEND SWAP1 DUP7 ADD MSTORE SWAP3 AND PUSH1 0x60 DUP5 ADD MSTORE SIGNEXTEND PUSH1 0x80 DUP3 ADD MSTORE PUSH1 0xA0 ADD PUSH2 0x1B2 JUMP JUMPDEST PUSH2 0x1CE PUSH2 0x25F CALLDATASIZE PUSH1 0x4 PUSH2 0x1B45 JUMP JUMPDEST PUSH2 0xB06 JUMP JUMPDEST PUSH2 0x1CE PUSH2 0x272 CALLDATASIZE PUSH1 0x4 PUSH2 0x1A31 JUMP JUMPDEST PUSH2 0xB6D JUMP JUMPDEST PUSH2 0x27F PUSH1 0x1 DUP2 JUMP JUMPDEST PUSH1 0x40 MLOAD PUSH1 0x3 SWAP2 SWAP1 SWAP2 SIGNEXTEND DUP2 MSTORE PUSH1 0x20 ADD PUSH2 0x1B2 JUMP JUMPDEST PUSH2 0x1CE PUSH2 0x2A0 CALLDATASIZE PUSH1 0x4 PUSH2 0x1B6F JUMP JUMPDEST PUSH2 0xD95 JUMP JUMPDEST PUSH2 0x1A6 PUSH2 0x2B3 CALLDATASIZE PUSH1 0x4 PUSH2 0x1BB1 JUMP JUMPDEST PUSH1 0x2 PUSH1 0x20 MSTORE PUSH1 0x0 SWAP1 DUP2 MSTORE PUSH1 0x40 SWAP1 KECCAK256 SLOAD PUSH1 0xFF AND DUP2 JUMP JUMPDEST PUSH2 0x1A6 PUSH2 0x2D6 CALLDATASIZE PUSH1 0x4 PUSH2 0x1BB1 JUMP JUMPDEST PUSH1 0x1 PUSH1 0x1 PUSH1 0xA0 SHL SUB AND PUSH1 0x0 SWAP1 DUP2 MSTORE PUSH1 0x3 PUSH1 0x20 MSTORE PUSH1 0x40 SWAP1 KECCAK256 SLOAD PUSH4 0xFFFFFFFF AND ISZERO ISZERO SWAP1 JUMP JUMPDEST PUSH2 0x1CE PUSH2 0x307 CALLDATASIZE PUSH1 0x4 PUSH2 0x19BD JUMP JUMPDEST PUSH2 0xEDC JUMP JUMPDEST PUSH2 0x31F PUSH2 0x31A CALLDATASIZE PUSH1 0x4 PUSH2 0x1BCC JUMP JUMPDEST PUSH2 0x1005 JUMP JUMPDEST PUSH1 0x40 DUP1 MLOAD PUSH4 0xFFFFFFFF SWAP10 DUP11 AND DUP2 MSTORE PUSH1 0x20 DUP2 ADD SWAP9 SWAP1 SWAP9 MSTORE DUP8 ADD SWAP6 SWAP1 SWAP6 MSTORE SWAP3 ISZERO ISZERO PUSH1 0x60 DUP7 ADD MSTORE SWAP5 AND PUSH1 0x80 DUP5 ADD MSTORE PUSH1 0x3 SWAP4 DUP5 SIGNEXTEND PUSH1 0xA0 DUP5 ADD MSTORE DUP4 SIGNEXTEND PUSH1 0xC0 DUP4 ADD MSTORE SWAP1 SWAP2 SIGNEXTEND PUSH1 0xE0 DUP3 ADD MSTORE PUSH2 0x100 ADD PUSH2 0x1B2 JUMP JUMPDEST PUSH2 0x27F PUSH2 0x37A CALLDATASIZE PUSH1 0x4 PUSH2 0x1A31 JUMP JUMPDEST PUSH4 0xFFFFFFFF AND PUSH1 0x0 SWAP1 DUP2 MSTORE PUSH1 0x6 PUSH1 0x20 MSTORE PUSH1 0x40 SWAP1 KECCAK256 SLOAD PUSH1 0x3 SIGNEXTEND SWAP1 JUMP JUMPDEST PUSH2 0x1CE PUSH2 0x1074 JUMP JUMPDEST PUSH2 0x27F PUSH2 0x3AB CALLDATASIZE PUSH1 0x4 PUSH2 0x1A31 JUMP JUMPDEST PUSH4 0xFFFFFFFF AND PUSH1 0x0 SWAP1 DUP2 MSTORE PUSH1 0x4 PUSH1 0x20 MSTORE PUSH1 0x40 SWAP1 KECCAK256 SLOAD PUSH1 0x3 SIGNEXTEND SWAP1 JUMP JUMPDEST PUSH2 0x1CE PUSH2 0x3D4 CALLDATASIZE PUSH1 0x4 PUSH2 0x1A31 JUMP JUMPDEST PUSH2 0x1088 JUMP JUMPDEST PUSH2 0x27F PUSH2 0x3E7 CALLDATASIZE PUSH1 0x4 PUSH2 0x1A31 JUMP JUMPDEST PUSH1 0x6 PUSH1 0x20 MSTORE PUSH1 0x0 SWAP1 DUP2 MSTORE PUSH1 0x40 SWAP1 KECCAK256 SLOAD PUSH1 0x3 SIGNEXTEND DUP2 JUMP JUMPDEST PUSH1 0x1 SLOAD PUSH1 0x40 MLOAD PUSH1 0x1 PUSH1 0x1 PUSH1 0xA0 SHL SUB SWAP1 SWAP2 AND DUP2 MSTORE PUSH1 0x20 ADD PUSH2 0x1B2 JUMP JUMPDEST PUSH2 0x27F PUSH1 0x3 DUP2 JUMP JUMPDEST PUSH2 0x1A6 PUSH2 0x42D CALLDATASIZE PUSH1 0x4 PUSH2 0x1A31 JUMP JUMPDEST PUSH1 0x5 PUSH1 0x20 MSTORE PUSH1 0x0 SWAP1 DUP2 MSTORE PUSH1 0x40 SWAP1 KECCAK256 SLOAD PUSH1 0xFF AND DUP2 JUMP JUMPDEST PUSH2 0x1A6 PUSH2 0x450 CALLDATASIZE PUSH1 0x4 PUSH2 0x19BD JUMP JUMPDEST PUSH1 0x7 PUSH1 0x20 SWAP1 DUP2 MSTORE PUSH1 0x0 SWAP3 DUP4 MSTORE PUSH1 0x40 DUP1 DUP5 KECCAK256 SWAP1 SWAP2 MSTORE SWAP1 DUP3 MSTORE SWAP1 KECCAK256 SLOAD PUSH1 0xFF AND DUP2 JUMP JUMPDEST PUSH2 0x49F PUSH2 0x47E CALLDATASIZE PUSH1 0x4 PUSH2 0x1BB1 JUMP JUMPDEST PUSH1 0x1 PUSH1 0x1 PUSH1 0xA0 SHL SUB AND PUSH1 0x0 SWAP1 DUP2 MSTORE PUSH1 0x3 PUSH1 0x20 MSTORE PUSH1 0x40 SWAP1 KECCAK256 SLOAD PUSH4 0xFFFFFFFF AND SWAP1 JUMP JUMPDEST PUSH1 0x40 MLOAD PUSH4 0xFFFFFFFF SWAP1 SWAP2 AND DUP2 MSTORE PUSH1 0x20 ADD PUSH2 0x1B2 JUMP JUMPDEST PUSH2 0x27F PUSH1 0x2 DUP2 JUMP JUMPDEST PUSH2 0x1CE PUSH2 0x4CA CALLDATASIZE PUSH1 0x4 PUSH2 0x1BB1 JUMP JUMPDEST PUSH2 0x1383 JUMP JUMPDEST PUSH2 0x27F PUSH2 0x1401 JUMP JUMPDEST PUSH4 0xFFFFFFFF DUP1 DUP4 AND PUSH1 0x0 SWAP1 DUP2 MSTORE PUSH1 0x7 PUSH1 0x20 SWAP1 DUP2 MSTORE PUSH1 0x40 DUP1 DUP4 KECCAK256 SWAP4 DUP6 AND DUP4 MSTORE SWAP3 SWAP1 MSTORE KECCAK256 SLOAD PUSH1 0xFF AND JUMPDEST SWAP3 SWAP2 POP POP JUMP JUMPDEST DUP2 DUP2 PUSH4 0xFFFFFFFF DUP3 AND ISZERO DUP1 PUSH2 0x520 JUMPI POP PUSH1 0x1 PUSH1 0x1 PUSH1 0xA0 SHL SUB DUP2 AND ISZERO JUMPDEST ISZERO PUSH2 0x53E JUMPI PUSH1 0x40 MLOAD PUSH4 0xCFF23E7 PUSH1 0xE0 SHL DUP2 MSTORE PUSH1 0x4 ADD PUSH1 0x40 MLOAD DUP1 SWAP2 SUB SWAP1 REVERT JUMPDEST PUSH1 0x1 PUSH1 0x1 PUSH1 0xA0 SHL SUB DUP2 AND PUSH1 0x0 SWAP1 DUP2 MSTORE PUSH1 0x3 PUSH1 0x20 MSTORE PUSH1 0x40 SWAP1 KECCAK256 SLOAD PUSH4 0xFFFFFFFF AND ISZERO PUSH2 0x57B JUMPI PUSH1 0x40 MLOAD PUSH4 0x77030A87 PUSH1 0xE1 SHL DUP2 MSTORE PUSH1 0x4 ADD PUSH1 0x40 MLOAD DUP1 SWAP2 SUB SWAP1 REVERT JUMPDEST PUSH1 0x1 PUSH1 0x1 PUSH1 0xA0 SHL SUB DUP4 AND PUSH1 0x0 DUP2 DUP2 MSTORE PUSH1 0x3 PUSH1 0x20 SWAP1 DUP2 MSTORE PUSH1 0x40 SWAP2 DUP3 SWAP1 KECCAK256 DUP1 SLOAD PUSH4 0xFFFFFFFF NOT AND PUSH4 0xFFFFFFFF DUP10 AND SWAP1 DUP2 OR SWAP1 SWAP2 SSTORE SWAP2 MLOAD TIMESTAMP DUP2 MSTORE PUSH32 0x605181A3CCA1307AE9B2DF54D6592DDF8F82C3570C6938F36D61CD23B6B57A8D SWAP2 ADD PUSH1 0x40 MLOAD DUP1 SWAP2 SUB SWAP1 LOG3 POP POP POP POP JUMP JUMPDEST PUSH1 0x0 PUSH1 0x60 PUSH1 0x0 DUP1 PUSH1 0x0 DUP1 PUSH1 0x0 DUP1 DUP9 PUSH1 0x9 DUP1 SLOAD SWAP1 POP DUP2 PUSH4 0xFFFFFFFF AND LT PUSH2 0x61C JUMPI PUSH1 0x40 MLOAD PUSH4 0x87448985 PUSH1 0xE0 SHL DUP2 MSTORE PUSH1 0x4 ADD PUSH1 0x40 MLOAD DUP1 SWAP2 SUB SWAP1 REVERT JUMPDEST PUSH1 0x0 PUSH1 0x9 DUP12 PUSH4 0xFFFFFFFF AND DUP2 SLOAD DUP2 LT PUSH2 0x637 JUMPI PUSH2 0x637 PUSH2 0x1BE5 JUMP JUMPDEST PUSH1 0x0 SWAP2 DUP3 MSTORE PUSH1 0x20 SWAP2 DUP3 SWAP1 KECCAK256 PUSH1 0x5 SWAP1 SWAP2 MUL ADD DUP1 SLOAD PUSH1 0x2 DUP3 ADD SLOAD PUSH1 0x3 DUP1 DUP5 ADD SLOAD PUSH1 0x4 DUP6 ADD SLOAD PUSH1 0x1 DUP7 ADD DUP1 SLOAD PUSH1 0x40 DUP1 MLOAD DUP3 DUP12 MUL DUP2 ADD DUP12 ADD SWAP1 SWAP2 MSTORE DUP2 DUP2 MSTORE SWAP8 SWAP10 POP PUSH4 0xFFFFFFFF SWAP7 DUP8 AND SWAP9 SWAP2 SWAP8 SWAP6 SWAP7 SWAP4 SWAP6 PUSH1 0xFF DUP5 AND SWAP6 PUSH2 0x100 DUP6 DIV SWAP1 SWAP6 AND SWAP5 PUSH1 0x1 PUSH1 0x28 SHL DUP6 DIV DUP2 SIGNEXTEND SWAP5 PUSH1 0x1 PUSH1 0x48 SHL SWAP1 DIV SWAP1 SIGNEXTEND SWAP3 SWAP1 SWAP2 DUP10 SWAP2 DUP4 ADD DUP3 DUP3 DUP1 ISZERO PUSH2 0x704 JUMPI PUSH1 0x20 MUL DUP3 ADD SWAP2 SWAP1 PUSH1 0x0 MSTORE PUSH1 0x20 PUSH1 0x0 KECCAK256 SWAP1 PUSH1 0x0 SWAP1 JUMPDEST DUP3 DUP3 SWAP1 SLOAD SWAP1 PUSH2 0x100 EXP SWAP1 DIV PUSH4 0xFFFFFFFF AND PUSH4 0xFFFFFFFF AND DUP2 MSTORE PUSH1 0x20 ADD SWAP1 PUSH1 0x4 ADD SWAP1 PUSH1 0x20 DUP3 PUSH1 0x3 ADD DIV SWAP3 DUP4 ADD SWAP3 PUSH1 0x1 SUB DUP3 MUL SWAP2 POP DUP1 DUP5 GT PUSH2 0x6C7 JUMPI SWAP1 POP JUMPDEST POP POP POP POP POP SWAP7 POP SWAP10 POP SWAP10 POP SWAP10 POP SWAP10 POP SWAP10 POP SWAP10 POP SWAP10 POP SWAP10 POP POP POP SWAP2 SWAP4 SWAP6 SWAP8 POP SWAP2 SWAP4 SWAP6 SWAP8 JUMP JUMPDEST DUP1 CALLER PUSH4 0xFFFFFFFF DUP3 AND ISZERO DUP1 PUSH2 0x75E JUMPI POP PUSH1 0x1 PUSH1 0x1 PUSH1 0xA0 SHL SUB DUP2 AND PUSH1 0x0 SWAP1 DUP2 MSTORE PUSH1 0x3 PUSH1 0x20 MSTORE PUSH1 0x40 SWAP1 KECCAK256 SLOAD PUSH4 0xFFFFFFFF DUP4 DUP2 AND SWAP2 AND EQ ISZERO JUMPDEST ISZERO PUSH2 0x77C JUMPI PUSH1 0x40 MLOAD PUSH4 0xCFF23E7 PUSH1 0xE0 SHL DUP2 MSTORE PUSH1 0x4 ADD PUSH1 0x40 MLOAD DUP1 SWAP2 SUB SWAP1 REVERT JUMPDEST PUSH1 0x9 SLOAD DUP6 SWAP1 PUSH4 0xFFFFFFFF DUP3 AND LT PUSH2 0x7A6 JUMPI PUSH1 0x40 MLOAD PUSH4 0x87448985 PUSH1 0xE0 SHL DUP2 MSTORE PUSH1 0x4 ADD PUSH1 0x40 MLOAD DUP1 SWAP2 SUB SWAP1 REVERT JUMPDEST DUP6 PUSH1 0x0 PUSH1 0x9 DUP3 PUSH4 0xFFFFFFFF AND DUP2 SLOAD DUP2 LT PUSH2 0x7C2 JUMPI PUSH2 0x7C2 PUSH2 0x1BE5 JUMP JUMPDEST SWAP1 PUSH1 0x0 MSTORE PUSH1 0x20 PUSH1 0x0 KECCAK256 SWAP1 PUSH1 0x5 MUL ADD SWAP1 POP DUP1 PUSH1 0x3 ADD SLOAD TIMESTAMP GT DUP1 PUSH2 0x7E9 JUMPI POP PUSH1 0x4 DUP2 ADD SLOAD PUSH1 0xFF AND ISZERO JUMPDEST ISZERO PUSH2 0x807 JUMPI PUSH1 0x40 MLOAD PUSH4 0x87448985 PUSH1 0xE0 SHL DUP2 MSTORE PUSH1 0x4 ADD PUSH1 0x40 MLOAD DUP1 SWAP2 SUB SWAP1 REVERT JUMPDEST PUSH1 0x0 PUSH1 0x9 DUP10 PUSH4 0xFFFFFFFF AND DUP2 SLOAD DUP2 LT PUSH2 0x822 JUMPI PUSH2 0x822 PUSH2 0x1BE5 JUMP JUMPDEST PUSH1 0x0 SWAP2 DUP3 MSTORE PUSH1 0x20 DUP1 DUP4 KECCAK256 PUSH4 0xFFFFFFFF DUP1 DUP15 AND DUP6 MSTORE PUSH1 0x7 DUP4 MSTORE PUSH1 0x40 DUP1 DUP7 KECCAK256 SWAP2 DUP14 AND DUP7 MSTORE SWAP3 MSTORE SWAP3 KECCAK256 SLOAD PUSH1 0x5 SWAP1 SWAP2 MUL SWAP1 SWAP2 ADD SWAP2 POP PUSH1 0xFF AND ISZERO PUSH2 0x873 JUMPI PUSH1 0x40 MLOAD PUSH3 0xB14D3B PUSH1 0xE6 SHL DUP2 MSTORE PUSH1 0x4 ADD PUSH1 0x40 MLOAD DUP1 SWAP2 SUB SWAP1 REVERT JUMPDEST PUSH1 0x0 DUP1 JUMPDEST PUSH1 0x1 DUP4 ADD SLOAD DUP2 LT ISZERO PUSH2 0x8E3 JUMPI DUP10 PUSH4 0xFFFFFFFF AND DUP4 PUSH1 0x1 ADD DUP3 DUP2 SLOAD DUP2 LT PUSH2 0x89F JUMPI PUSH2 0x89F PUSH2 0x1BE5 JUMP JUMPDEST PUSH1 0x0 SWAP2 DUP3 MSTORE PUSH1 0x20 SWAP1 SWAP2 KECCAK256 PUSH1 0x8 DUP3 DIV ADD SLOAD PUSH1 0x7 SWAP1 SWAP2 AND PUSH1 0x4 MUL PUSH2 0x100 EXP SWAP1 DIV PUSH4 0xFFFFFFFF AND SUB PUSH2 0x8D1 JUMPI PUSH1 0x1 SWAP2 POP PUSH2 0x8E3 JUMP JUMPDEST DUP1 PUSH2 0x8DB DUP2 PUSH2 0x1C11 JUMP JUMPDEST SWAP2 POP POP PUSH2 0x877 JUMP JUMPDEST POP DUP1 PUSH2 0x902 JUMPI PUSH1 0x40 MLOAD PUSH4 0xE66EA08F PUSH1 0xE0 SHL DUP2 MSTORE PUSH1 0x4 ADD PUSH1 0x40 MLOAD DUP1 SWAP2 SUB SWAP1 REVERT JUMPDEST PUSH4 0xFFFFFFFF DUP9 AND PUSH1 0x0 SWAP1 DUP2 MSTORE PUSH1 0x4 PUSH1 0x20 MSTORE PUSH1 0x40 DUP2 KECCAK256 SLOAD PUSH1 0x3 SIGNEXTEND SWAP1 DUP2 SLT ISZERO PUSH2 0x927 JUMPI POP PUSH1 0x0 JUMPDEST PUSH4 0xFFFFFFFF DUP1 DUP13 AND PUSH1 0x0 SWAP1 DUP2 MSTORE PUSH1 0x7 PUSH1 0x20 SWAP1 DUP2 MSTORE PUSH1 0x40 DUP1 DUP4 KECCAK256 DUP14 DUP6 AND DUP5 MSTORE DUP3 MSTORE DUP1 DUP4 KECCAK256 DUP1 SLOAD PUSH1 0xFF NOT AND PUSH1 0x1 OR SWAP1 SSTORE SWAP3 DUP14 AND DUP3 MSTORE PUSH1 0x6 SWAP1 MSTORE SWAP1 DUP2 KECCAK256 DUP1 SLOAD DUP4 SWAP3 SWAP1 PUSH2 0x974 SWAP1 DUP5 SWAP1 PUSH1 0x3 SIGNEXTEND PUSH2 0x1C2A JUMP JUMPDEST SWAP3 POP PUSH2 0x100 EXP DUP2 SLOAD DUP2 PUSH4 0xFFFFFFFF MUL NOT AND SWAP1 DUP4 PUSH1 0x3 SIGNEXTEND PUSH4 0xFFFFFFFF AND MUL OR SWAP1 SSTORE POP DUP1 DUP4 PUSH1 0x4 ADD PUSH1 0x9 DUP3 DUP3 DUP3 SWAP1 SLOAD SWAP1 PUSH2 0x100 EXP SWAP1 DIV PUSH1 0x3 SIGNEXTEND PUSH2 0x9B5 SWAP2 SWAP1 PUSH2 0x1C2A JUMP JUMPDEST SWAP3 POP PUSH2 0x100 EXP DUP2 SLOAD DUP2 PUSH4 0xFFFFFFFF MUL NOT AND SWAP1 DUP4 PUSH1 0x3 SIGNEXTEND PUSH4 0xFFFFFFFF AND MUL OR SWAP1 SSTORE POP PUSH2 0x9E0 DUP12 DUP11 PUSH2 0x146E JUMP JUMPDEST PUSH1 0x40 MLOAD PUSH1 0x3 DUP3 SWAP1 SIGNEXTEND DUP2 MSTORE PUSH4 0xFFFFFFFF DUP1 DUP12 AND SWAP2 DUP13 DUP3 AND SWAP2 DUP15 AND SWAP1 PUSH32 0x1918CD6E2704E854C925442CA2CAA9EF7187126224A112077220E8316519D66 SWAP1 PUSH1 0x20 ADD PUSH1 0x40 MLOAD DUP1 SWAP2 SUB SWAP1 LOG4 PUSH2 0xA30 DUP12 PUSH2 0x1502 JUMP JUMPDEST POP POP POP POP POP POP POP POP POP POP POP JUMP JUMPDEST PUSH1 0x0 DUP1 PUSH1 0x0 DUP1 PUSH1 0x0 DUP6 PUSH1 0x9 DUP1 SLOAD SWAP1 POP DUP2 PUSH4 0xFFFFFFFF AND LT PUSH2 0xA71 JUMPI PUSH1 0x40 MLOAD PUSH4 0x87448985 PUSH1 0xE0 SHL DUP2 MSTORE PUSH1 0x4 ADD PUSH1 0x40 MLOAD DUP1 SWAP2 SUB SWAP1 REVERT JUMPDEST PUSH1 0x0 PUSH1 0x9 DUP9 PUSH4 0xFFFFFFFF AND DUP2 SLOAD DUP2 LT PUSH2 0xA8C JUMPI PUSH2 0xA8C PUSH2 0x1BE5 JUMP JUMPDEST SWAP1 PUSH1 0x0 MSTORE PUSH1 0x20 PUSH1 0x0 KECCAK256 SWAP1 PUSH1 0x5 MUL ADD SWAP1 POP PUSH1 0x2 DUP2 PUSH1 0x1 ADD DUP1 SLOAD SWAP1 POP LT ISZERO PUSH2 0xAC4 JUMPI PUSH1 0x0 DUP1 PUSH1 0x0 DUP1 PUSH1 0x0 SWAP7 POP SWAP7 POP SWAP7 POP SWAP7 POP SWAP7 POP POP PUSH2 0xAFC JUMP JUMPDEST PUSH2 0xACD DUP9 PUSH2 0x166B JUMP JUMPDEST PUSH1 0x4 DUP6 ADD SLOAD SWAP4 SWAP10 POP SWAP2 SWAP8 POP SWAP6 POP SWAP4 POP PUSH2 0xAF0 SWAP1 PUSH1 0x1 PUSH1 0x68 SHL SWAP1 DIV PUSH1 0x3 SIGNEXTEND DUP5 PUSH2 0x1C2A JUMP JUMPDEST PUSH1 0x3 SIGNEXTEND DUP6 PUSH1 0x3 SIGNEXTEND SGT SWAP7 POP POP JUMPDEST POP SWAP2 SWAP4 SWAP6 SWAP1 SWAP3 SWAP5 POP JUMP JUMPDEST PUSH2 0xB0E PUSH2 0x17C4 JUMP JUMPDEST PUSH1 0x1 PUSH1 0x1 PUSH1 0xA0 SHL SUB DUP3 AND PUSH1 0x0 DUP2 DUP2 MSTORE PUSH1 0x2 PUSH1 0x20 SWAP1 DUP2 MSTORE PUSH1 0x40 SWAP2 DUP3 SWAP1 KECCAK256 DUP1 SLOAD PUSH1 0xFF NOT AND DUP6 ISZERO ISZERO SWAP1 DUP2 OR SWAP1 SWAP2 SSTORE SWAP2 MLOAD SWAP2 DUP3 MSTORE PUSH32 0xAD857FA38C9319CB80848F1EF2F924383B90297EB5D71755738FF037D100FAA1 SWAP2 ADD PUSH1 0x40 MLOAD DUP1 SWAP2 SUB SWAP1 LOG2 POP POP JUMP JUMPDEST PUSH1 0x9 SLOAD DUP2 SWAP1 PUSH4 0xFFFFFFFF DUP3 AND LT PUSH2 0xB97 JUMPI PUSH1 0x40 MLOAD PUSH4 0x87448985 PUSH1 0xE0 SHL DUP2 MSTORE PUSH1 0x4 ADD PUSH1 0x40 MLOAD DUP1 SWAP2 SUB SWAP1 REVERT JUMPDEST PUSH2 0xB9F PUSH2 0x17C4 JUMP JUMPDEST PUSH1 0x0 PUSH1 0x9 DUP4 PUSH4 0xFFFFFFFF AND DUP2 SLOAD DUP2 LT PUSH2 0xBBA JUMPI PUSH2 0xBBA PUSH2 0x1BE5 JUMP JUMPDEST PUSH1 0x0 SWAP2 DUP3 MSTORE PUSH1 0x20 SWAP1 SWAP2 KECCAK256 PUSH1 0x5 SWAP1 SWAP2 MUL ADD PUSH1 0x4 DUP2 ADD SLOAD SWAP1 SWAP2 POP PUSH1 0xFF AND PUSH2 0xBF2 JUMPI PUSH1 0x40 MLOAD PUSH4 0x87448985 PUSH1 0xE0 SHL DUP2 MSTORE PUSH1 0x4 ADD PUSH1 0x40 MLOAD DUP1 SWAP2 SUB SWAP1 REVERT JUMPDEST PUSH1 0x1 DUP2 ADD SLOAD PUSH1 0x0 SUB PUSH2 0xC17 JUMPI PUSH1 0x40 MLOAD PUSH4 0x39410641 PUSH1 0xE2 SHL DUP2 MSTORE PUSH1 0x4 ADD PUSH1 0x40 MLOAD DUP1 SWAP2 SUB SWAP1 REVERT JUMPDEST PUSH1 0x4 DUP2 ADD DUP1 SLOAD PUSH1 0xFF NOT AND SWAP1 SSTORE PUSH1 0x1 DUP2 ADD DUP1 SLOAD PUSH1 0x0 SWAP2 SWAP1 DUP3 SWAP1 PUSH2 0xC3B JUMPI PUSH2 0xC3B PUSH2 0x1BE5 JUMP JUMPDEST PUSH1 0x0 SWAP2 DUP3 MSTORE PUSH1 0x20 DUP1 DUP4 KECCAK256 PUSH1 0x8 DUP4 DIV ADD SLOAD PUSH1 0x7 SWAP1 SWAP3 AND PUSH1 0x4 MUL PUSH2 0x100 EXP SWAP1 SWAP2 DIV PUSH4 0xFFFFFFFF AND DUP1 DUP4 MSTORE PUSH1 0x6 SWAP1 SWAP2 MSTORE PUSH1 0x40 SWAP1 SWAP2 KECCAK256 SLOAD SWAP1 SWAP2 POP PUSH1 0x3 SIGNEXTEND PUSH1 0x1 JUMPDEST PUSH1 0x1 DUP5 ADD SLOAD DUP2 LT ISZERO PUSH2 0xCFC JUMPI PUSH1 0x0 DUP5 PUSH1 0x1 ADD DUP3 DUP2 SLOAD DUP2 LT PUSH2 0xC9A JUMPI PUSH2 0xC9A PUSH2 0x1BE5 JUMP JUMPDEST PUSH1 0x0 SWAP2 DUP3 MSTORE PUSH1 0x20 DUP1 DUP4 KECCAK256 PUSH1 0x8 DUP4 DIV ADD SLOAD PUSH1 0x7 SWAP1 SWAP3 AND PUSH1 0x4 MUL PUSH2 0x100 EXP SWAP1 SWAP2 DIV PUSH4 0xFFFFFFFF AND DUP1 DUP4 MSTORE PUSH1 0x6 SWAP1 SWAP2 MSTORE PUSH1 0x40 SWAP1 SWAP2 KECCAK256 SLOAD SWAP1 SWAP2 POP PUSH1 0x3 SWAP1 DUP2 SIGNEXTEND SWAP1 DUP5 SWAP1 SIGNEXTEND DUP2 SGT ISZERO PUSH2 0xCE7 JUMPI DUP2 SWAP5 POP DUP1 SWAP4 POP JUMPDEST POP POP DUP1 DUP1 PUSH2 0xCF4 SWAP1 PUSH2 0x1C11 JUMP JUMPDEST SWAP2 POP POP PUSH2 0xC77 JUMP JUMPDEST POP PUSH4 0xFFFFFFFF DUP3 DUP2 AND PUSH1 0x0 DUP2 DUP2 MSTORE PUSH1 0x5 PUSH1 0x20 SWAP1 DUP2 MSTORE PUSH1 0x40 SWAP2 DUP3 SWAP1 KECCAK256 DUP1 SLOAD PUSH1 0x1 PUSH1 0xFF NOT SWAP1 SWAP2 AND OR SWAP1 SSTORE PUSH1 0x4 DUP8 ADD DUP1 SLOAD PUSH9 0xFFFFFFFFFFFFFFFF00 NOT AND PUSH2 0x100 DUP6 MUL PUSH9 0xFFFFFFFF0000000000 NOT AND OR PUSH1 0x1 PUSH1 0x28 SHL DUP8 DUP8 AND MUL OR SWAP1 SSTORE SWAP1 MLOAD PUSH1 0x3 DUP6 SWAP1 SIGNEXTEND DUP2 MSTORE SWAP2 SWAP3 DUP9 AND SWAP2 PUSH32 0x2B056A7F2AE4DFEC88DC5458429E82A178C97E5019B817058AE7DCD455DA9E85 SWAP2 ADD JUMPDEST PUSH1 0x40 MLOAD DUP1 SWAP2 SUB SWAP1 LOG3 POP POP POP POP POP JUMP JUMPDEST CALLER PUSH1 0x0 SWAP1 DUP2 MSTORE PUSH1 0x2 PUSH1 0x20 MSTORE PUSH1 0x40 SWAP1 KECCAK256 SLOAD PUSH1 0xFF AND PUSH2 0xDC5 JUMPI PUSH1 0x40 MLOAD PUSH4 0x5C427CD9 PUSH1 0xE0 SHL DUP2 MSTORE PUSH1 0x4 ADD PUSH1 0x40 MLOAD DUP1 SWAP2 SUB SWAP1 REVERT JUMPDEST DUP3 CALLER PUSH4 0xFFFFFFFF DUP3 AND ISZERO DUP1 PUSH2 0xDFB JUMPI POP PUSH1 0x1 PUSH1 0x1 PUSH1 0xA0 SHL SUB DUP2 AND PUSH1 0x0 SWAP1 DUP2 MSTORE PUSH1 0x3 PUSH1 0x20 MSTORE PUSH1 0x40 SWAP1 KECCAK256 SLOAD PUSH4 0xFFFFFFFF DUP4 DUP2 AND SWAP2 AND EQ ISZERO JUMPDEST ISZERO PUSH2 0xE19 JUMPI PUSH1 0x40 MLOAD PUSH4 0xCFF23E7 PUSH1 0xE0 SHL DUP2 MSTORE PUSH1 0x4 ADD PUSH1 0x40 MLOAD DUP1 SWAP2 SUB SWAP1 REVERT JUMPDEST PUSH4 0xFFFFFFFF DUP6 AND PUSH1 0x0 SWAP1 DUP2 MSTORE PUSH1 0x4 PUSH1 0x20 MSTORE PUSH1 0x40 DUP2 KECCAK256 SLOAD PUSH1 0x3 SIGNEXTEND SWAP1 DUP5 ISZERO PUSH2 0xE4A JUMPI PUSH2 0xE43 DUP7 DUP4 PUSH2 0x1C2A JUMP JUMPDEST SWAP1 POP PUSH2 0xE57 JUMP JUMPDEST PUSH2 0xE54 DUP7 DUP4 PUSH2 0x1C51 JUMP JUMPDEST SWAP1 POP JUMPDEST PUSH4 0xFFFFFFFF DUP8 DUP2 AND PUSH1 0x0 DUP2 DUP2 MSTORE PUSH1 0x4 PUSH1 0x20 SWAP1 DUP2 MSTORE PUSH1 0x40 SWAP2 DUP3 SWAP1 KECCAK256 DUP1 SLOAD PUSH4 0xFFFFFFFF NOT AND SWAP5 DUP7 AND SWAP5 SWAP1 SWAP5 OR SWAP1 SWAP4 SSTORE DUP1 MLOAD PUSH1 0x3 DUP11 DUP2 SIGNEXTEND DUP3 MSTORE DUP10 ISZERO ISZERO SWAP5 DUP3 ADD SWAP5 SWAP1 SWAP5 MSTORE SWAP3 DUP5 SWAP1 SIGNEXTEND SWAP1 DUP4 ADD MSTORE TIMESTAMP PUSH1 0x60 DUP4 ADD MSTORE SWAP1 PUSH32 0x72194F756300FFF6BFC1D45660DA70048BE350DC1AAD864B9280FA75C3FF696C SWAP1 PUSH1 0x80 ADD PUSH1 0x40 MLOAD DUP1 SWAP2 SUB SWAP1 LOG2 POP POP POP POP POP POP POP JUMP JUMPDEST PUSH1 0x9 SLOAD DUP3 SWAP1 PUSH4 0xFFFFFFFF DUP3 AND LT PUSH2 0xF06 JUMPI PUSH1 0x40 MLOAD PUSH4 0x87448985 PUSH1 0xE0 SHL DUP2 MSTORE PUSH1 0x4 ADD PUSH1 0x40 MLOAD DUP1 SWAP2 SUB SWAP1 REVERT JUMPDEST DUP3 PUSH1 0x0 PUSH1 0x9 DUP3 PUSH4 0xFFFFFFFF AND DUP2 SLOAD DUP2 LT PUSH2 0xF22 JUMPI PUSH2 0xF22 PUSH2 0x1BE5 JUMP JUMPDEST SWAP1 PUSH1 0x0 MSTORE PUSH1 0x20 PUSH1 0x0 KECCAK256 SWAP1 PUSH1 0x5 MUL ADD SWAP1 POP DUP1 PUSH1 0x3 ADD SLOAD TIMESTAMP GT DUP1 PUSH2 0xF49 JUMPI POP PUSH1 0x4 DUP2 ADD SLOAD PUSH1 0xFF AND ISZERO JUMPDEST ISZERO PUSH2 0xF67 JUMPI PUSH1 0x40 MLOAD PUSH4 0x87448985 PUSH1 0xE0 SHL DUP2 MSTORE PUSH1 0x4 ADD PUSH1 0x40 MLOAD DUP1 SWAP2 SUB SWAP1 REVERT JUMPDEST PUSH1 0x0 PUSH1 0x9 DUP7 PUSH4 0xFFFFFFFF AND DUP2 SLOAD DUP2 LT PUSH2 0xF82 JUMPI PUSH2 0xF82 PUSH2 0x1BE5 JUMP JUMPDEST PUSH1 0x0 SWAP2 DUP3 MSTORE PUSH1 0x20 DUP1 DUP4 KECCAK256 PUSH1 0x5 SWAP3 SWAP1 SWAP3 MUL SWAP1 SWAP2 ADD PUSH1 0x1 DUP2 DUP2 ADD DUP1 SLOAD SWAP2 DUP3 ADD DUP2 SSTORE DUP5 MSTORE SWAP2 DUP4 KECCAK256 PUSH1 0x8 DUP4 DIV ADD DUP1 SLOAD PUSH1 0x7 SWAP1 SWAP4 AND PUSH1 0x4 MUL PUSH2 0x100 EXP PUSH4 0xFFFFFFFF DUP2 DUP2 MUL NOT SWAP1 SWAP5 AND DUP11 DUP6 AND SWAP2 DUP3 MUL OR SWAP1 SWAP2 SSTORE PUSH1 0x40 MLOAD SWAP2 SWAP5 POP SWAP3 SWAP2 DUP10 AND SWAP2 PUSH32 0x2497EDD456DA400FDF8E24A5943FAEBBA37FC1A396BE5FF9EF6105AEDE63E26B SWAP2 LOG3 POP POP POP POP POP POP JUMP JUMPDEST PUSH1 0x9 DUP2 DUP2 SLOAD DUP2 LT PUSH2 0x1015 JUMPI PUSH1 0x0 DUP1 REVERT JUMPDEST PUSH1 0x0 SWAP2 DUP3 MSTORE PUSH1 0x20 SWAP1 SWAP2 KECCAK256 PUSH1 0x5 SWAP1 SWAP2 MUL ADD DUP1 SLOAD PUSH1 0x2 DUP3 ADD SLOAD PUSH1 0x3 DUP1 DUP5 ADD SLOAD PUSH1 0x4 SWAP1 SWAP5 ADD SLOAD PUSH4 0xFFFFFFFF SWAP4 DUP5 AND SWAP6 POP SWAP2 SWAP4 SWAP3 PUSH1 0xFF DUP4 AND SWAP3 PUSH2 0x100 DUP2 DIV SWAP1 SWAP2 AND SWAP2 PUSH1 0x1 PUSH1 0x28 SHL DUP3 DIV DUP2 SIGNEXTEND SWAP2 PUSH1 0x1 PUSH1 0x48 SHL DUP2 DIV DUP3 SIGNEXTEND SWAP2 PUSH1 0x1 PUSH1 0x68 SHL SWAP1 SWAP2 DIV SWAP1 SIGNEXTEND DUP9 JUMP JUMPDEST PUSH2 0x107C PUSH2 0x17C4 JUMP JUMPDEST PUSH2 0x1086 PUSH1 0x0 PUSH2 0x181E JUMP JUMPDEST JUMP JUMPDEST PUSH1 0x9 SLOAD ISZERO DUP1 ISZERO SWAP1 PUSH2 0x10CC JUMPI POP PUSH1 0x9 DUP1 SLOAD PUSH2 0x10A4 SWAP1 PUSH1 0x1 SWAP1 PUSH2 0x1C78 JUMP JUMPDEST DUP2 SLOAD DUP2 LT PUSH2 0x10B4 JUMPI PUSH2 0x10B4 PUSH2 0x1BE5 JUMP JUMPDEST PUSH1 0x0 SWAP2 DUP3 MSTORE PUSH1 0x20 SWAP1 SWAP2 KECCAK256 PUSH1 0x4 PUSH1 0x5 SWAP1 SWAP3 MUL ADD ADD SLOAD PUSH1 0xFF AND JUMPDEST ISZERO PUSH2 0x10EA JUMPI PUSH1 0x40 MLOAD PUSH4 0xECA88737 PUSH1 0xE0 SHL DUP2 MSTORE PUSH1 0x4 ADD PUSH1 0x40 MLOAD DUP1 SWAP2 SUB SWAP1 REVERT JUMPDEST PUSH1 0x40 DUP1 MLOAD PUSH2 0x120 DUP2 ADD DUP3 MSTORE PUSH1 0x0 DUP1 DUP3 MSTORE PUSH1 0x60 PUSH1 0x20 DUP4 ADD DUP2 SWAP1 MSTORE SWAP3 DUP3 ADD DUP2 SWAP1 MSTORE SWAP2 DUP2 ADD DUP3 SWAP1 MSTORE PUSH1 0x80 DUP2 ADD DUP3 SWAP1 MSTORE PUSH1 0xA0 DUP2 ADD DUP3 SWAP1 MSTORE PUSH1 0xC0 DUP2 ADD DUP3 SWAP1 MSTORE PUSH1 0xE0 DUP2 ADD DUP3 SWAP1 MSTORE PUSH2 0x100 DUP2 ADD SWAP2 SWAP1 SWAP2 MSTORE PUSH1 0x8 DUP1 SLOAD PUSH4 0xFFFFFFFF AND SWAP1 PUSH1 0x0 PUSH2 0x114A DUP4 PUSH2 0x1C8B JUMP JUMPDEST DUP3 SLOAD PUSH2 0x100 SWAP3 SWAP1 SWAP3 EXP PUSH4 0xFFFFFFFF DUP2 DUP2 MUL NOT SWAP1 SWAP4 AND SWAP2 DUP4 AND MUL OR SWAP1 SWAP2 SSTORE AND DUP2 MSTORE PUSH1 0x40 DUP1 MLOAD PUSH1 0x1 DUP1 DUP3 MSTORE DUP2 DUP4 ADD SWAP1 SWAP3 MSTORE SWAP1 PUSH1 0x20 DUP1 DUP4 ADD SWAP1 DUP1 CALLDATASIZE DUP4 CALLDATACOPY POP POP POP PUSH1 0x20 DUP3 ADD DUP2 SWAP1 MSTORE DUP1 MLOAD DUP4 SWAP2 SWAP1 PUSH1 0x0 SWAP1 PUSH2 0x11A2 JUMPI PUSH2 0x11A2 PUSH2 0x1BE5 JUMP JUMPDEST PUSH4 0xFFFFFFFF SWAP1 SWAP3 AND PUSH1 0x20 SWAP3 DUP4 MUL SWAP2 SWAP1 SWAP2 ADD SWAP1 SWAP2 ADD MSTORE TIMESTAMP PUSH1 0x40 DUP3 ADD DUP2 SWAP1 MSTORE PUSH2 0x11CC SWAP1 PUSH3 0x278D00 PUSH2 0x1CAE JUMP JUMPDEST PUSH1 0x60 DUP3 ADD MSTORE PUSH1 0x1 PUSH1 0x80 DUP3 ADD MSTORE PUSH1 0x0 PUSH1 0xE0 DUP3 ADD MSTORE PUSH2 0x11E7 PUSH2 0x1870 JUMP JUMPDEST PUSH1 0x3 SIGNEXTEND PUSH2 0x100 DUP3 ADD MSTORE PUSH1 0x9 DUP1 SLOAD PUSH1 0x1 DUP2 ADD DUP3 SSTORE PUSH1 0x0 SWAP2 SWAP1 SWAP2 MSTORE DUP2 MLOAD PUSH32 0x6E1540171B6C0C960B71A7020D9F60077F6AF931A8BBF590DA0223DACF75C7AF PUSH1 0x5 SWAP1 SWAP3 MUL SWAP2 DUP3 ADD DUP1 SLOAD PUSH4 0xFFFFFFFF NOT AND PUSH4 0xFFFFFFFF SWAP1 SWAP3 AND SWAP2 SWAP1 SWAP2 OR DUP2 SSTORE PUSH1 0x20 DUP1 DUP5 ADD MLOAD DUP1 MLOAD DUP6 SWAP5 PUSH2 0x127C SWAP4 PUSH32 0x6E1540171B6C0C960B71A7020D9F60077F6AF931A8BBF590DA0223DACF75C7B0 SWAP1 SWAP2 ADD SWAP3 ADD SWAP1 PUSH2 0x18E0 JUMP JUMPDEST POP PUSH1 0x40 DUP3 DUP2 ADD MLOAD PUSH1 0x2 DUP4 ADD SSTORE PUSH1 0x60 DUP1 DUP5 ADD MLOAD PUSH1 0x3 DUP5 ADD SSTORE PUSH1 0x80 DUP5 ADD MLOAD PUSH1 0x4 SWAP1 SWAP4 ADD DUP1 SLOAD PUSH1 0xA0 DUP7 ADD MLOAD PUSH1 0xC0 DUP8 ADD MLOAD PUSH1 0xE0 DUP9 ADD MLOAD PUSH2 0x100 SWAP9 DUP10 ADD MLOAD PUSH5 0xFFFFFFFFFF NOT SWAP1 SWAP5 AND SWAP8 ISZERO ISZERO PUSH5 0xFFFFFFFF00 NOT AND SWAP8 SWAP1 SWAP8 OR PUSH4 0xFFFFFFFF SWAP3 DUP4 AND SWAP1 SWAP9 MUL SWAP8 SWAP1 SWAP8 OR PUSH13 0xFFFFFFFFFFFFFFFF0000000000 NOT AND PUSH1 0x1 PUSH1 0x28 SHL SWAP8 DUP3 AND SWAP8 SWAP1 SWAP8 MUL PUSH13 0xFFFFFFFF000000000000000000 NOT AND SWAP7 SWAP1 SWAP7 OR PUSH1 0x1 PUSH1 0x48 SHL SWAP6 DUP8 AND SWAP6 SWAP1 SWAP6 MUL SWAP5 SWAP1 SWAP5 OR PUSH4 0xFFFFFFFF PUSH1 0x68 SHL NOT AND PUSH1 0x1 PUSH1 0x68 SHL SWAP5 DUP7 AND SWAP5 SWAP1 SWAP5 MUL SWAP4 SWAP1 SWAP4 OR SWAP1 SWAP3 SSTORE DUP4 MLOAD DUP5 DUP3 ADD MLOAD SWAP3 DUP6 ADD MLOAD DUP3 MLOAD SWAP4 DUP5 MSTORE PUSH1 0x20 DUP5 ADD MSTORE DUP6 DUP5 AND SWAP4 AND SWAP2 PUSH32 0x4610B24BBFB857173E063B234E3A2475409BF5921C3F541F435EB016C5AAD89F SWAP2 ADD PUSH1 0x40 MLOAD DUP1 SWAP2 SUB SWAP1 LOG3 POP POP JUMP JUMPDEST PUSH2 0x138B PUSH2 0x17C4 JUMP JUMPDEST PUSH1 0x1 PUSH1 0x1 PUSH1 0xA0 SHL SUB DUP2 AND PUSH2 0x13F5 JUMPI PUSH1 0x40 MLOAD PUSH3 0x461BCD PUSH1 0xE5 SHL DUP2 MSTORE PUSH1 0x20 PUSH1 0x4 DUP3 ADD MSTORE PUSH1 0x26 PUSH1 0x24 DUP3 ADD MSTORE PUSH32 0x4F776E61626C653A206E6577206F776E657220697320746865207A65726F2061 PUSH1 0x44 DUP3 ADD MSTORE PUSH6 0x646472657373 PUSH1 0xD0 SHL PUSH1 0x64 DUP3 ADD MSTORE PUSH1 0x84 ADD JUMPDEST PUSH1 0x40 MLOAD DUP1 SWAP2 SUB SWAP1 REVERT JUMPDEST PUSH2 0x13FE DUP2 PUSH2 0x181E JUMP JUMPDEST POP JUMP JUMPDEST PUSH1 0x9 SLOAD PUSH1 0x0 SWAP1 DUP2 SUB PUSH2 0x1414 JUMPI POP PUSH1 0x0 NOT SWAP1 JUMP JUMPDEST PUSH1 0x9 DUP1 SLOAD PUSH1 0x0 SWAP2 SWAP1 PUSH2 0x1428 SWAP1 PUSH1 0x1 SWAP1 PUSH2 0x1C78 JUMP JUMPDEST DUP2 SLOAD DUP2 LT PUSH2 0x1438 JUMPI PUSH2 0x1438 PUSH2 0x1BE5 JUMP JUMPDEST PUSH1 0x0 SWAP2 DUP3 MSTORE PUSH1 0x20 SWAP1 SWAP2 KECCAK256 PUSH1 0x5 SWAP1 SWAP2 MUL ADD PUSH1 0x4 DUP2 ADD SLOAD SWAP1 SWAP2 POP PUSH1 0xFF AND PUSH2 0x145F JUMPI PUSH1 0x0 NOT PUSH2 0x1468 JUMP JUMPDEST DUP1 SLOAD PUSH4 0xFFFFFFFF AND JUMPDEST SWAP2 POP POP SWAP1 JUMP JUMPDEST PUSH1 0x0 PUSH1 0x9 DUP4 PUSH4 0xFFFFFFFF AND DUP2 SLOAD DUP2 LT PUSH2 0x1489 JUMPI PUSH2 0x1489 PUSH2 0x1BE5 JUMP JUMPDEST PUSH1 0x0 SWAP2 DUP3 MSTORE PUSH1 0x20 DUP1 DUP4 KECCAK256 PUSH4 0xFFFFFFFF DUP7 AND DUP5 MSTORE PUSH1 0x4 SWAP1 SWAP2 MSTORE PUSH1 0x40 DUP4 KECCAK256 SLOAD PUSH1 0x5 SWAP1 SWAP3 MUL ADD SWAP3 POP PUSH1 0x3 SIGNEXTEND SWAP1 DUP2 SGT ISZERO PUSH2 0x14FC JUMPI PUSH1 0x4 DUP3 ADD DUP1 SLOAD DUP3 SWAP2 SWAP1 PUSH1 0xD SWAP1 PUSH2 0x14DA SWAP1 DUP5 SWAP1 PUSH1 0x1 PUSH1 0x68 SHL SWAP1 DIV PUSH1 0x3 SIGNEXTEND PUSH2 0x1C51 JUMP JUMPDEST SWAP3 POP PUSH2 0x100 EXP DUP2 SLOAD DUP2 PUSH4 0xFFFFFFFF MUL NOT AND SWAP1 DUP4 PUSH1 0x3 SIGNEXTEND PUSH4 0xFFFFFFFF AND MUL OR SWAP1 SSTORE POP JUMPDEST POP POP POP POP JUMP JUMPDEST PUSH1 0x0 PUSH1 0x9 DUP3 PUSH4 0xFFFFFFFF AND DUP2 SLOAD DUP2 LT PUSH2 0x151D JUMPI PUSH2 0x151D PUSH2 0x1BE5 JUMP JUMPDEST SWAP1 PUSH1 0x0 MSTORE PUSH1 0x20 PUSH1 0x0 KECCAK256 SWAP1 PUSH1 0x5 MUL ADD SWAP1 POP PUSH1 0x2 DUP2 PUSH1 0x1 ADD DUP1 SLOAD SWAP1 POP LT ISZERO PUSH2 0x1541 JUMPI POP POP JUMP JUMPDEST PUSH1 0x0 DUP1 PUSH1 0x0 PUSH2 0x154F DUP6 PUSH2 0x166B JUMP JUMPDEST SWAP4 POP POP SWAP3 POP SWAP3 POP DUP3 PUSH4 0xFFFFFFFF AND PUSH1 0x0 SUB PUSH2 0x156B JUMPI POP POP POP POP POP JUMP JUMPDEST PUSH1 0x4 DUP5 ADD SLOAD PUSH2 0x1584 SWAP1 PUSH1 0x1 PUSH1 0x68 SHL SWAP1 DIV PUSH1 0x3 SIGNEXTEND DUP3 PUSH2 0x1C2A JUMP JUMPDEST PUSH1 0x3 SIGNEXTEND DUP3 PUSH1 0x3 SIGNEXTEND SGT ISZERO PUSH2 0x1664 JUMPI PUSH1 0x4 DUP5 ADD DUP1 SLOAD PUSH9 0xFFFFFFFFFFFFFFFFFF NOT AND PUSH2 0x100 PUSH4 0xFFFFFFFF DUP7 DUP2 AND SWAP2 DUP3 MUL PUSH9 0xFFFFFFFF0000000000 NOT AND SWAP3 SWAP1 SWAP3 OR PUSH1 0x1 PUSH1 0x28 SHL DUP7 DUP5 AND MUL OR SWAP1 SWAP3 SSTORE PUSH1 0x0 DUP3 DUP2 MSTORE PUSH1 0x5 PUSH1 0x20 SWAP1 DUP2 MSTORE PUSH1 0x40 SWAP2 DUP3 SWAP1 KECCAK256 DUP1 SLOAD PUSH1 0xFF NOT AND PUSH1 0x1 OR SWAP1 SSTORE SWAP1 MLOAD PUSH1 0x3 DUP7 SWAP1 SIGNEXTEND DUP2 MSTORE SWAP2 DUP9 AND SWAP2 PUSH32 0x6FB21C4C14810CEB320306EDA3D07C6738412088C17A66604AFE100AE599B182 SWAP2 ADD PUSH1 0x40 MLOAD DUP1 SWAP2 SUB SWAP1 LOG3 PUSH1 0x40 MLOAD PUSH1 0x3 DUP4 SWAP1 SIGNEXTEND DUP2 MSTORE PUSH4 0xFFFFFFFF DUP1 DUP6 AND SWAP2 SWAP1 DUP8 AND SWAP1 PUSH32 0x2B056A7F2AE4DFEC88DC5458429E82A178C97E5019B817058AE7DCD455DA9E85 SWAP1 PUSH1 0x20 ADD PUSH2 0xD86 JUMP JUMPDEST POP POP POP POP POP JUMP JUMPDEST PUSH1 0x0 DUP1 PUSH1 0x0 DUP1 PUSH1 0x0 PUSH1 0x9 DUP7 PUSH4 0xFFFFFFFF AND DUP2 SLOAD DUP2 LT PUSH2 0x168C JUMPI PUSH2 0x168C PUSH2 0x1BE5 JUMP JUMPDEST SWAP1 PUSH1 0x0 MSTORE PUSH1 0x20 PUSH1 0x0 KECCAK256 SWAP1 PUSH1 0x5 MUL ADD SWAP1 POP DUP1 PUSH1 0x1 ADD DUP1 SLOAD SWAP1 POP PUSH1 0x0 SUB PUSH2 0x16BF JUMPI PUSH1 0x0 DUP1 PUSH1 0x0 DUP1 SWAP5 POP SWAP5 POP SWAP5 POP SWAP5 POP POP PUSH2 0x17BD JUMP JUMPDEST DUP1 PUSH1 0x1 ADD PUSH1 0x0 DUP2 SLOAD DUP2 LT PUSH2 0x16D5 JUMPI PUSH2 0x16D5 PUSH2 0x1BE5 JUMP JUMPDEST PUSH1 0x0 SWAP2 DUP3 MSTORE PUSH1 0x20 DUP1 DUP4 KECCAK256 PUSH1 0x8 DUP4 DIV ADD SLOAD PUSH1 0x7 SWAP1 SWAP3 AND PUSH1 0x4 MUL PUSH2 0x100 EXP SWAP1 SWAP2 DIV PUSH4 0xFFFFFFFF AND DUP1 DUP4 MSTORE PUSH1 0x6 SWAP1 SWAP2 MSTORE PUSH1 0x40 DUP3 KECCAK256 SLOAD SWAP1 SWAP7 POP PUSH1 0x3 SIGNEXTEND SWAP5 POP SWAP3 POP DUP3 SWAP2 POP PUSH1 0x1 JUMPDEST PUSH1 0x1 DUP3 ADD SLOAD DUP2 LT ISZERO PUSH2 0x17BA JUMPI PUSH1 0x0 DUP3 PUSH1 0x1 ADD DUP3 DUP2 SLOAD DUP2 LT PUSH2 0x173A JUMPI PUSH2 0x173A PUSH2 0x1BE5 JUMP JUMPDEST PUSH1 0x0 SWAP2 DUP3 MSTORE PUSH1 0x20 DUP1 DUP4 KECCAK256 PUSH1 0x8 DUP4 DIV ADD SLOAD PUSH1 0x7 SWAP1 SWAP3 AND PUSH1 0x4 MUL PUSH2 0x100 EXP SWAP1 SWAP2 DIV PUSH4 0xFFFFFFFF AND DUP1 DUP4 MSTORE PUSH1 0x6 SWAP1 SWAP2 MSTORE PUSH1 0x40 SWAP1 SWAP2 KECCAK256 SLOAD SWAP1 SWAP2 POP PUSH1 0x3 SWAP1 DUP2 SIGNEXTEND SWAP1 DUP8 SWAP1 SIGNEXTEND DUP2 SGT ISZERO PUSH2 0x1790 JUMPI SWAP1 SWAP7 SWAP1 SWAP6 SWAP1 SWAP5 POP SWAP3 POP DUP6 DUP6 PUSH2 0x17A5 JUMP JUMPDEST DUP5 PUSH1 0x3 SIGNEXTEND DUP2 PUSH1 0x3 SIGNEXTEND SGT ISZERO PUSH2 0x17A5 JUMPI DUP2 SWAP6 POP DUP1 SWAP5 POP JUMPDEST POP POP DUP1 DUP1 PUSH2 0x17B2 SWAP1 PUSH2 0x1C11 JUMP JUMPDEST SWAP2 POP POP PUSH2 0x1717 JUMP JUMPDEST POP POP JUMPDEST SWAP2 SWAP4 POP SWAP2 SWAP4 JUMP JUMPDEST PUSH1 0x1 SLOAD PUSH1 0x1 PUSH1 0x1 PUSH1 0xA0 SHL SUB AND CALLER EQ PUSH2 0x1086 JUMPI PUSH1 0x40 MLOAD PUSH3 0x461BCD PUSH1 0xE5 SHL DUP2 MSTORE PUSH1 0x20 PUSH1 0x4 DUP3 ADD DUP2 SWAP1 MSTORE PUSH1 0x24 DUP3 ADD MSTORE PUSH32 0x4F776E61626C653A2063616C6C6572206973206E6F7420746865206F776E6572 PUSH1 0x44 DUP3 ADD MSTORE PUSH1 0x64 ADD PUSH2 0x13EC JUMP JUMPDEST PUSH1 0x1 DUP1 SLOAD PUSH1 0x1 PUSH1 0x1 PUSH1 0xA0 SHL SUB DUP4 DUP2 AND PUSH1 0x1 PUSH1 0x1 PUSH1 0xA0 SHL SUB NOT DUP4 AND DUP2 OR SWAP1 SWAP4 SSTORE PUSH1 0x40 MLOAD SWAP2 AND SWAP2 SWAP1 DUP3 SWAP1 PUSH32 0x8BE0079C531659141344CD1FD0A4F28419497F9722A3DAAFE3B4186F6B6457E0 SWAP1 PUSH1 0x0 SWAP1 LOG3 POP POP JUMP JUMPDEST PUSH1 0x0 DUP1 PUSH1 0x1 JUMPDEST PUSH4 0xFFFFFFFF DUP2 DUP2 AND GT PUSH2 0x18DA JUMPI PUSH4 0xFFFFFFFF DUP2 AND PUSH1 0x0 SWAP1 DUP2 MSTORE PUSH1 0x4 PUSH1 0x20 MSTORE PUSH1 0x40 DUP2 KECCAK256 SLOAD PUSH1 0x3 SIGNEXTEND SGT ISZERO PUSH2 0x18C8 JUMPI PUSH4 0xFFFFFFFF DUP2 AND PUSH1 0x0 SWAP1 DUP2 MSTORE PUSH1 0x4 PUSH1 0x20 MSTORE PUSH1 0x40 SWAP1 KECCAK256 SLOAD PUSH2 0x18C5 SWAP1 PUSH1 0x3 SIGNEXTEND DUP4 PUSH2 0x1C2A JUMP JUMPDEST SWAP2 POP JUMPDEST DUP1 PUSH2 0x18D2 DUP2 PUSH2 0x1C8B JUMP JUMPDEST SWAP2 POP POP PUSH2 0x1876 JUMP JUMPDEST POP SWAP2 SWAP1 POP JUMP JUMPDEST DUP3 DUP1 SLOAD DUP3 DUP3 SSTORE SWAP1 PUSH1 0x0 MSTORE PUSH1 0x20 PUSH1 0x0 KECCAK256 SWAP1 PUSH1 0x7 ADD PUSH1 0x8 SWAP1 DIV DUP2 ADD SWAP3 DUP3 ISZERO PUSH2 0x197F JUMPI SWAP2 PUSH1 0x20 MUL DUP3 ADD PUSH1 0x0 JUMPDEST DUP4 DUP3 GT ISZERO PUSH2 0x194D JUMPI DUP4 MLOAD DUP4 DUP3 PUSH2 0x100 EXP DUP2 SLOAD DUP2 PUSH4 0xFFFFFFFF MUL NOT AND SWAP1 DUP4 PUSH4 0xFFFFFFFF AND MUL OR SWAP1 SSTORE POP SWAP3 PUSH1 0x20 ADD SWAP3 PUSH1 0x4 ADD PUSH1 0x20 DUP2 PUSH1 0x3 ADD DIV SWAP3 DUP4 ADD SWAP3 PUSH1 0x1 SUB MUL PUSH2 0x1909 JUMP JUMPDEST DUP1 ISZERO PUSH2 0x197D JUMPI DUP3 DUP2 PUSH2 0x100 EXP DUP2 SLOAD SWAP1 PUSH4 0xFFFFFFFF MUL NOT AND SWAP1 SSTORE PUSH1 0x4 ADD PUSH1 0x20 DUP2 PUSH1 0x3 ADD DIV SWAP3 DUP4 ADD SWAP3 PUSH1 0x1 SUB MUL PUSH2 0x194D JUMP JUMPDEST POP JUMPDEST POP PUSH2 0x198B SWAP3 SWAP2 POP PUSH2 0x198F JUMP JUMPDEST POP SWAP1 JUMP JUMPDEST JUMPDEST DUP1 DUP3 GT ISZERO PUSH2 0x198B JUMPI PUSH1 0x0 DUP2 SSTORE PUSH1 0x1 ADD PUSH2 0x1990 JUMP JUMPDEST DUP1 CALLDATALOAD PUSH4 0xFFFFFFFF DUP2 AND DUP2 EQ PUSH2 0x19B8 JUMPI PUSH1 0x0 DUP1 REVERT JUMPDEST SWAP2 SWAP1 POP JUMP JUMPDEST PUSH1 0x0 DUP1 PUSH1 0x40 DUP4 DUP6 SUB SLT ISZERO PUSH2 0x19D0 JUMPI PUSH1 0x0 DUP1 REVERT JUMPDEST PUSH2 0x19D9 DUP4 PUSH2 0x19A4 JUMP JUMPDEST SWAP2 POP PUSH2 0x19E7 PUSH1 0x20 DUP5 ADD PUSH2 0x19A4 JUMP JUMPDEST SWAP1 POP SWAP3 POP SWAP3 SWAP1 POP JUMP JUMPDEST DUP1 CALLDATALOAD PUSH1 0x1 PUSH1 0x1 PUSH1 0xA0 SHL SUB DUP2 AND DUP2 EQ PUSH2 0x19B8 JUMPI PUSH1 0x0 DUP1 REVERT JUMPDEST PUSH1 0x0 DUP1 PUSH1 0x40 DUP4 DUP6 SUB SLT ISZERO PUSH2 0x1A1A JUMPI PUSH1 0x0 DUP1 REVERT JUMPDEST PUSH2 0x1A23 DUP4 PUSH2 0x19A4 JUMP JUMPDEST SWAP2 POP PUSH2 0x19E7 PUSH1 0x20 DUP5 ADD PUSH2 0x19F0 JUMP JUMPDEST PUSH1 0x0 PUSH1 0x20 DUP3 DUP5 SUB SLT ISZERO PUSH2 0x1A43 JUMPI PUSH1 0x0 DUP1 REVERT JUMPDEST PUSH2 0x1A4C DUP3 PUSH2 0x19A4 JUMP JUMPDEST SWAP4 SWAP3 POP POP POP JUMP JUMPDEST PUSH4 0xFFFFFFFF DUP10 DUP2 AND DUP3 MSTORE PUSH2 0x100 PUSH1 0x20 DUP1 DUP5 ADD DUP3 SWAP1 MSTORE DUP11 MLOAD SWAP2 DUP5 ADD DUP3 SWAP1 MSTORE PUSH1 0x0 SWAP3 PUSH2 0x120 DUP6 ADD SWAP3 DUP13 DUP4 ADD SWAP3 SWAP1 DUP6 JUMPDEST DUP2 DUP2 LT ISZERO PUSH2 0x1A9E JUMPI DUP5 MLOAD DUP5 AND DUP7 MSTORE SWAP5 DUP3 ADD SWAP5 SWAP4 DUP3 ADD SWAP4 PUSH1 0x1 ADD PUSH2 0x1A80 JUMP JUMPDEST POP POP POP POP POP PUSH1 0x40 DUP4 ADD DUP10 SWAP1 MSTORE PUSH1 0x60 DUP4 ADD DUP9 SWAP1 MSTORE DUP7 ISZERO ISZERO PUSH1 0x80 DUP5 ADD MSTORE SWAP1 POP PUSH4 0xFFFFFFFF DUP6 AND PUSH1 0xA0 DUP4 ADD MSTORE PUSH2 0x1AD6 PUSH1 0xC0 DUP4 ADD DUP6 PUSH1 0x3 SIGNEXTEND SWAP1 MSTORE JUMP JUMPDEST PUSH2 0x1AE5 PUSH1 0xE0 DUP4 ADD DUP5 PUSH1 0x3 SIGNEXTEND SWAP1 MSTORE JUMP JUMPDEST SWAP10 SWAP9 POP POP POP POP POP POP POP POP POP JUMP JUMPDEST PUSH1 0x0 DUP1 PUSH1 0x0 PUSH1 0x60 DUP5 DUP7 SUB SLT ISZERO PUSH2 0x1B07 JUMPI PUSH1 0x0 DUP1 REVERT JUMPDEST PUSH2 0x1B10 DUP5 PUSH2 0x19A4 JUMP JUMPDEST SWAP3 POP PUSH2 0x1B1E PUSH1 0x20 DUP6 ADD PUSH2 0x19A4 JUMP JUMPDEST SWAP2 POP PUSH2 0x1B2C PUSH1 0x40 DUP6 ADD PUSH2 0x19A4 JUMP JUMPDEST SWAP1 POP SWAP3 POP SWAP3 POP SWAP3 JUMP JUMPDEST DUP1 CALLDATALOAD DUP1 ISZERO ISZERO DUP2 EQ PUSH2 0x19B8 JUMPI PUSH1 0x0 DUP1 REVERT JUMPDEST PUSH1 0x0 DUP1 PUSH1 0x40 DUP4 DUP6 SUB SLT ISZERO PUSH2 0x1B58 JUMPI PUSH1 0x0 DUP1 REVERT JUMPDEST PUSH2 0x1B61 DUP4 PUSH2 0x19F0 JUMP JUMPDEST SWAP2 POP PUSH2 0x19E7 PUSH1 0x20 DUP5 ADD PUSH2 0x1B35 JUMP JUMPDEST PUSH1 0x0 DUP1 PUSH1 0x0 PUSH1 0x60 DUP5 DUP7 SUB SLT ISZERO PUSH2 0x1B84 JUMPI PUSH1 0x0 DUP1 REVERT JUMPDEST PUSH2 0x1B8D DUP5 PUSH2 0x19A4 JUMP JUMPDEST SWAP3 POP PUSH1 0x20 DUP5 ADD CALLDATALOAD DUP1 PUSH1 0x3 SIGNEXTEND DUP2 EQ PUSH2 0x1BA3 JUMPI PUSH1 0x0 DUP1 REVERT JUMPDEST SWAP2 POP PUSH2 0x1B2C PUSH1 0x40 DUP6 ADD PUSH2 0x1B35 JUMP JUMPDEST PUSH1 0x0 PUSH1 0x20 DUP3 DUP5 SUB SLT ISZERO PUSH2 0x1BC3 JUMPI PUSH1 0x0 DUP1 REVERT JUMPDEST PUSH2 0x1A4C DUP3 PUSH2 0x19F0 JUMP JUMPDEST PUSH1 0x0 PUSH1 0x20 DUP3 DUP5 SUB SLT ISZERO PUSH2 0x1BDE JUMPI PUSH1 0x0 DUP1 REVERT JUMPDEST POP CALLDATALOAD SWAP2 SWAP1 POP JUMP JUMPDEST PUSH4 0x4E487B71 PUSH1 0xE0 SHL PUSH1 0x0 MSTORE PUSH1 0x32 PUSH1 0x4 MSTORE PUSH1 0x24 PUSH1 0x0 REVERT JUMPDEST PUSH4 0x4E487B71 PUSH1 0xE0 SHL PUSH1 0x0 MSTORE PUSH1 0x11 PUSH1 0x4 MSTORE PUSH1 0x24 PUSH1 0x0 REVERT JUMPDEST PUSH1 0x0 PUSH1 0x1 DUP3 ADD PUSH2 0x1C23 JUMPI PUSH2 0x1C23 PUSH2 0x1BFB JUMP JUMPDEST POP PUSH1 0x1 ADD SWAP1 JUMP JUMPDEST PUSH1 0x3 DUP2 DUP2 SIGNEXTEND SWAP1 DUP4 SWAP1 SIGNEXTEND ADD PUSH4 0x7FFFFFFF DUP2 SGT PUSH4 0x7FFFFFFF NOT DUP3 SLT OR ISZERO PUSH2 0x4FE JUMPI PUSH2 0x4FE PUSH2 0x1BFB JUMP JUMPDEST PUSH1 0x3 DUP3 DUP2 SIGNEXTEND SWAP1 DUP3 SWAP1 SIGNEXTEND SUB PUSH4 0x7FFFFFFF NOT DUP2 SLT PUSH4 0x7FFFFFFF DUP3 SGT OR ISZERO PUSH2 0x4FE JUMPI PUSH2 0x4FE PUSH2 0x1BFB JUMP JUMPDEST DUP2 DUP2 SUB DUP2 DUP2 GT ISZERO PUSH2 0x4FE JUMPI PUSH2 0x4FE PUSH2 0x1BFB JUMP JUMPDEST PUSH1 0x0 PUSH4 0xFFFFFFFF DUP1 DUP4 AND DUP2 DUP2 SUB PUSH2 0x1CA4 JUMPI PUSH2 0x1CA4 PUSH2 0x1BFB JUMP JUMPDEST PUSH1 0x1 ADD SWAP4 SWAP3 POP POP POP JUMP JUMPDEST DUP1 DUP3 ADD DUP1 DUP3 GT ISZERO PUSH2 0x4FE JUMPI PUSH2 0x4FE PUSH2 0x1BFB JUMP INVALID LOG2 PUSH5 0x6970667358 0x22 SLT KECCAK256 0xBD 0x2E 0x27 PREVRANDAO CODECOPY PUSH25 0x714762E6D4F61C8D5E14D89900146AE99378D6074C8D3CCFB2 DUP10 PUSH5 0x736F6C6343 STOP ADDMOD SGT STOP CALLER "},"methodIdentifiers":{"REPUTATION_GAIN_BY_COVERING_LOAN()":"d5be8c4a","REPUTATION_GAIN_BY_REPAYNG_DEBT()":"4e5ecf13","REPUTATION_LOSS_BY_DEBT_NOT_PAYD()":"a5118bf1","addCandidate(uint32,uint32)":"5d090176","authorizedCallers(address)":"536fff6c","checkUnbeatableMajority(uint32)":"315f7760","closeElection(uint32)":"4b45e00f","elections(uint256)":"5e6fef01","getCandidateVotes(uint32)":"70574c4b","getCurrentElectionId()":"fe2b536b","getElectionInfo(uint32)":"232775c3","getMemberId(address)":"c269014b","getReputation(uint32)":"81db2284","hasMemberVoted(uint32,uint32)":"1f7f505c","hasVotedInElection(uint32,uint32)":"b3f8df40","isModerator(uint32)":"b1cc1f8f","isWalletVinculated(address)":"598a562a","moderatorVotesReceived(uint32)":"8450a681","openElection(uint32)":"8249dea6","owner()":"8da5cb5b","renounceOwnership()":"715018a6","reputationChange(uint32,int32,bool)":"533dfa35","setAuthorizedCaller(address,bool)":"454bbd29","transferOwnership(address)":"f2fde38b","vinculationMemberToWallet(uint32,address)":"21bb31e4","voteForModerator(uint32,uint32,uint32)":"244ad967"}}}}}