{"contracts/LoanMachine.sol":{"LoanMachine":{"abi":[{"inputs":[{"internalType":"address","name":"_usdtToken","type":"address"},{"internalType":"address","name":"_reputationSystem","type":"address"}],"stateMutability":"nonpayable","type":"constructor"},{"inputs":[],"name":"BorrowNotExpired","type":"error"},{"inputs":[],"name":"ExcessiveDonation","type":"error"},{"inputs":[],"name":"InsufficientDonationBalance","type":"error"},{"inputs":[],"name":"InsufficientFunds","type":"error"},{"inputs":[],"name":"InsufficientWithdrawableBalance","type":"error"},{"inputs":[],"name":"InvalidAmount","type":"error"},{"inputs":[],"name":"InvalidCoveragePercentage","type":"error"},{"inputs":[],"name":"InvalidParcelsCount","type":"error"},{"inputs":[],"name":"LoanNotAvailable","type":"error"},{"inputs":[],"name":"MaxLoanRequisitionPendingReached","type":"error"},{"inputs":[],"name":"MemberIdOrWalletInvalid","type":"error"},{"inputs":[],"name":"MinimumDonationRequired","type":"error"},{"inputs":[],"name":"MinimumPercentageCover","type":"error"},{"inputs":[],"name":"NoActiveBorrowing","type":"error"},{"inputs":[],"name":"OverCoverage","type":"error"},{"inputs":[],"name":"ParcelAlreadyPaid","type":"error"},{"inputs":[],"name":"RepaymentExceedsBorrowed","type":"error"},{"inputs":[],"name":"TokenTransferFailed","type":"error"},{"inputs":[],"name":"WalletAlreadyVinculated","type":"error"},{"anonymous":false,"inputs":[{"indexed":false,"internalType":"uint256","name":"total","type":"uint256"}],"name":"AvailableBalanceUpdated","type":"event"},{"anonymous":false,"inputs":[{"indexed":true,"internalType":"address","name":"borrower","type":"address"}],"name":"BorrowLimitReached","type":"event"},{"anonymous":false,"inputs":[{"indexed":true,"internalType":"address","name":"borrower","type":"address"},{"indexed":false,"internalType":"uint256","name":"amount","type":"uint256"},{"indexed":false,"internalType":"uint256","name":"totalBorrowing","type":"uint256"}],"name":"Borrowed","type":"event"},{"anonymous":false,"inputs":[{"indexed":true,"internalType":"address","name":"borrower","type":"address"},{"indexed":false,"internalType":"enum DebtTracker.DebtStatus","name":"newStatus","type":"uint8"}],"name":"BorrowerStatusUpdated","type":"event"},{"anonymous":false,"inputs":[{"indexed":true,"internalType":"address","name":"borrower","type":"address"}],"name":"DebtorAdded","type":"event"},{"anonymous":false,"inputs":[{"indexed":true,"internalType":"address","name":"borrower","type":"address"}],"name":"DebtorRemoved","type":"event"},{"anonymous":false,"inputs":[{"indexed":true,"internalType":"address","name":"donor","type":"address"},{"indexed":false,"internalType":"uint256","name":"amount","type":"uint256"},{"indexed":false,"internalType":"uint256","name":"totalDonation","type":"uint256"}],"name":"Donated","type":"event"},{"anonymous":false,"inputs":[{"indexed":true,"internalType":"uint256","name":"requisitionId","type":"uint256"},{"indexed":true,"internalType":"address","name":"lender","type":"address"},{"indexed":false,"internalType":"uint256","name":"amount","type":"uint256"}],"name":"LenderRepaid","type":"event"},{"anonymous":false,"inputs":[{"indexed":true,"internalType":"uint256","name":"requisitionId","type":"uint256"}],"name":"LoanCompleted","type":"event"},{"anonymous":false,"inputs":[{"indexed":true,"internalType":"address","name":"walletAddress","type":"address"},{"indexed":true,"internalType":"uint256","name":"requisitionId","type":"uint256"},{"indexed":false,"internalType":"enum ILoanMachine.ContractStatus","name":"status","type":"uint8"},{"indexed":false,"internalType":"uint32","name":"parcelsPending","type":"uint32"},{"indexed":false,"internalType":"uint256","name":"parcelsValues","type":"uint256"},{"indexed":false,"internalType":"uint256[]","name":"paymentDates","type":"uint256[]"}],"name":"LoanContractGenerated","type":"event"},{"anonymous":false,"inputs":[{"indexed":true,"internalType":"uint256","name":"requisitionId","type":"uint256"},{"indexed":true,"internalType":"address","name":"lender","type":"address"},{"indexed":false,"internalType":"uint256","name":"coverageAmount","type":"uint256"}],"name":"LoanCovered","type":"event"},{"anonymous":false,"inputs":[{"indexed":true,"internalType":"uint256","name":"requisitionId","type":"uint256"}],"name":"LoanFunded","type":"event"},{"anonymous":false,"inputs":[{"indexed":true,"internalType":"uint256","name":"requisitionId","type":"uint256"},{"indexed":true,"internalType":"address","name":"borrower","type":"address"},{"indexed":false,"internalType":"uint256","name":"amount","type":"uint256"},{"indexed":false,"internalType":"uint32","name":"parcelsCount","type":"uint32"}],"name":"LoanRequisitionCreated","type":"event"},{"anonymous":false,"inputs":[{"indexed":false,"internalType":"uint256","name":"timestamp","type":"uint256"}],"name":"MonthlyUpdateTriggered","type":"event"},{"anonymous":false,"inputs":[{"indexed":true,"internalType":"address","name":"borrower","type":"address"}],"name":"NewBorrower","type":"event"},{"anonymous":false,"inputs":[{"indexed":true,"internalType":"address","name":"donor","type":"address"}],"name":"NewDonor","type":"event"},{"anonymous":false,"inputs":[{"indexed":true,"internalType":"uint256","name":"requisitionId","type":"uint256"},{"indexed":false,"internalType":"uint256","name":"parcelsRemaining","type":"uint256"}],"name":"ParcelPaid","type":"event"},{"anonymous":false,"inputs":[{"indexed":true,"internalType":"address","name":"borrower","type":"address"},{"indexed":false,"internalType":"uint256","name":"amount","type":"uint256"},{"indexed":false,"internalType":"uint256","name":"remainingDebt","type":"uint256"}],"name":"Repaid","type":"event"},{"anonymous":false,"inputs":[{"indexed":false,"internalType":"uint256","name":"total","type":"uint256"}],"name":"TotalBorrowedUpdated","type":"event"},{"anonymous":false,"inputs":[{"indexed":false,"internalType":"uint256","name":"total","type":"uint256"}],"name":"TotalDonationsUpdated","type":"event"},{"anonymous":false,"inputs":[{"indexed":true,"internalType":"address","name":"donor","type":"address"},{"indexed":false,"internalType":"uint256","name":"amount","type":"uint256"},{"indexed":false,"internalType":"uint256","name":"donations","type":"uint256"}],"name":"Withdrawn","type":"event"},{"inputs":[{"internalType":"address[]","name":"borrowers","type":"address[]"}],"name":"batchUpdateDebtStatus","outputs":[],"stateMutability":"nonpayable","type":"function"},{"inputs":[{"internalType":"address","name":"","type":"address"},{"internalType":"uint256","name":"","type":"uint256"}],"name":"borrowerRequisitions","outputs":[{"internalType":"uint256","name":"","type":"uint256"}],"stateMutability":"view","type":"function"},{"inputs":[{"internalType":"uint256","name":"requisitionId","type":"uint256"},{"internalType":"address","name":"borrower","type":"address"}],"name":"canPayRequisition","outputs":[{"internalType":"bool","name":"","type":"bool"}],"stateMutability":"view","type":"function"},{"inputs":[{"internalType":"address","name":"_user","type":"address"},{"internalType":"uint256","name":"_amount","type":"uint256"}],"name":"canUserBorrow","outputs":[{"internalType":"bool","name":"","type":"bool"}],"stateMutability":"view","type":"function"},{"inputs":[{"internalType":"uint256","name":"requisitionId","type":"uint256"},{"internalType":"uint32","name":"coveragePercentage","type":"uint32"},{"internalType":"uint32","name":"memberId","type":"uint32"}],"name":"coverLoan","outputs":[],"stateMutability":"nonpayable","type":"function"},{"inputs":[{"internalType":"uint256","name":"amount","type":"uint256"},{"internalType":"uint32","name":"minimumCoverage","type":"uint32"},{"internalType":"uint256","name":"durationDays","type":"uint256"},{"internalType":"uint32","name":"parcelscount","type":"uint32"},{"internalType":"uint32","name":"memberId","type":"uint32"}],"name":"createLoanRequisition","outputs":[{"internalType":"uint256","name":"","type":"uint256"}],"stateMutability":"nonpayable","type":"function"},{"inputs":[{"internalType":"uint256","name":"amount","type":"uint256"},{"internalType":"uint32","name":"memberId","type":"uint32"}],"name":"donate","outputs":[],"stateMutability":"nonpayable","type":"function"},{"inputs":[{"internalType":"address","name":"borrower","type":"address"}],"name":"getActiveLoans","outputs":[{"components":[{"internalType":"address","name":"walletAddress","type":"address"},{"internalType":"uint256","name":"requisitionId","type":"uint256"},{"internalType":"enum ILoanMachine.ContractStatus","name":"status","type":"uint8"},{"internalType":"uint32","name":"parcelsCount","type":"uint32"},{"internalType":"uint32","name":"parcelsPending","type":"uint32"},{"internalType":"uint256","name":"parcelsValues","type":"uint256"},{"internalType":"uint256[]","name":"paymentDates","type":"uint256[]"},{"internalType":"uint256[]","name":"parcelsAmounts","type":"uint256[]"}],"internalType":"struct ILoanMachine.LoanContract[]","name":"activeLoans","type":"tuple[]"},{"internalType":"uint256[]","name":"requisitionIds","type":"uint256[]"}],"stateMutability":"view","type":"function"},{"inputs":[{"internalType":"address","name":"user","type":"address"}],"name":"getAllowance","outputs":[{"internalType":"uint256","name":"","type":"uint256"}],"stateMutability":"view","type":"function"},{"inputs":[],"name":"getAvailableBalance","outputs":[{"internalType":"uint256","name":"","type":"uint256"}],"stateMutability":"view","type":"function"},{"inputs":[],"name":"getAvailableBorrowAmount","outputs":[{"internalType":"uint256","name":"","type":"uint256"}],"stateMutability":"view","type":"function"},{"inputs":[{"internalType":"address","name":"borrower","type":"address"}],"name":"getBorrowerDebtStatus","outputs":[{"internalType":"enum DebtTracker.DebtStatus","name":"","type":"uint8"}],"stateMutability":"view","type":"function"},{"inputs":[{"internalType":"address","name":"borrower","type":"address"}],"name":"getBorrowerRequisitions","outputs":[{"internalType":"uint256[]","name":"","type":"uint256[]"}],"stateMutability":"view","type":"function"},{"inputs":[],"name":"getBorrowersWithDebt","outputs":[{"internalType":"address[]","name":"","type":"address[]"}],"stateMutability":"view","type":"function"},{"inputs":[],"name":"getBorrowersWithoutDebt","outputs":[{"internalType":"address[]","name":"","type":"address[]"}],"stateMutability":"view","type":"function"},{"inputs":[{"internalType":"address","name":"_user","type":"address"}],"name":"getBorrowing","outputs":[{"internalType":"uint256","name":"","type":"uint256"}],"stateMutability":"view","type":"function"},{"inputs":[],"name":"getContractBalance","outputs":[{"internalType":"uint256","name":"","type":"uint256"}],"stateMutability":"view","type":"function"},{"inputs":[{"internalType":"uint256","name":"requisitionId","type":"uint256"}],"name":"getCoveringLenders","outputs":[{"internalType":"address[]","name":"","type":"address[]"}],"stateMutability":"view","type":"function"},{"inputs":[{"internalType":"address","name":"_user","type":"address"}],"name":"getDonation","outputs":[{"internalType":"uint256","name":"","type":"uint256"}],"stateMutability":"view","type":"function"},{"inputs":[{"internalType":"address","name":"lender","type":"address"}],"name":"getDonationsInCoverage","outputs":[{"internalType":"uint256","name":"","type":"uint256"}],"stateMutability":"view","type":"function"},{"inputs":[{"internalType":"address","name":"_user","type":"address"}],"name":"getLastBorrowTime","outputs":[{"internalType":"uint256","name":"","type":"uint256"}],"stateMutability":"view","type":"function"},{"inputs":[{"internalType":"uint256","name":"requisitionId","type":"uint256"},{"internalType":"address","name":"lender","type":"address"}],"name":"getLenderCoverage","outputs":[{"internalType":"uint256","name":"","type":"uint256"}],"stateMutability":"view","type":"function"},{"inputs":[{"internalType":"uint256","name":"requisitionId","type":"uint256"}],"name":"getLoanContract","outputs":[{"components":[{"internalType":"address","name":"walletAddress","type":"address"},{"internalType":"uint256","name":"requisitionId","type":"uint256"},{"internalType":"enum ILoanMachine.ContractStatus","name":"status","type":"uint8"},{"internalType":"uint32","name":"parcelsCount","type":"uint32"},{"internalType":"uint32","name":"parcelsPending","type":"uint32"},{"internalType":"uint256","name":"parcelsValues","type":"uint256"},{"internalType":"uint256[]","name":"paymentDates","type":"uint256[]"},{"internalType":"uint256[]","name":"parcelsAmounts","type":"uint256[]"}],"internalType":"struct ILoanMachine.LoanContract","name":"","type":"tuple"}],"stateMutability":"view","type":"function"},{"inputs":[{"internalType":"address","name":"wallet","type":"address"}],"name":"getMemberId","outputs":[{"internalType":"uint32","name":"","type":"uint32"}],"stateMutability":"view","type":"function"},{"inputs":[{"internalType":"uint256","name":"requisitionId","type":"uint256"}],"name":"getNextPaymentAmount","outputs":[{"internalType":"uint256","name":"paymentAmount","type":"uint256"},{"internalType":"bool","name":"canPay","type":"bool"}],"stateMutability":"view","type":"function"},{"inputs":[{"internalType":"uint256","name":"requisitionId","type":"uint256"}],"name":"getPaymentDates","outputs":[{"internalType":"uint256[]","name":"","type":"uint256[]"}],"stateMutability":"view","type":"function"},{"inputs":[{"internalType":"uint256","name":"requisitionId","type":"uint256"}],"name":"getRepaymentSummary","outputs":[{"internalType":"uint256","name":"totalRemainingDebt","type":"uint256"},{"internalType":"uint256","name":"nextPaymentAmount","type":"uint256"},{"internalType":"uint256","name":"parcelsRemaining","type":"uint256"},{"internalType":"uint256","name":"totalParcels","type":"uint256"},{"internalType":"bool","name":"isActive","type":"bool"}],"stateMutability":"view","type":"function"},{"inputs":[{"internalType":"uint32","name":"memberId","type":"uint32"}],"name":"getReputation","outputs":[{"internalType":"int32","name":"","type":"int32"}],"stateMutability":"view","type":"function"},{"inputs":[{"internalType":"uint256","name":"requisitionId","type":"uint256"}],"name":"getRequisitionInfo","outputs":[{"components":[{"internalType":"uint256","name":"requisitionId","type":"uint256"},{"internalType":"address","name":"borrower","type":"address"},{"internalType":"uint256","name":"amount","type":"uint256"},{"internalType":"uint32","name":"minimumCoverage","type":"uint32"},{"internalType":"uint32","name":"currentCoverage","type":"uint32"},{"internalType":"enum ILoanMachine.BorrowStatus","name":"status","type":"uint8"},{"internalType":"uint256","name":"durationDays","type":"uint256"},{"internalType":"uint256","name":"creationTime","type":"uint256"},{"internalType":"address[]","name":"coveringLenders","type":"address[]"},{"internalType":"uint32","name":"parcelsCount","type":"uint32"}],"internalType":"struct ILoanMachine.RequisitionInfo","name":"","type":"tuple"}],"stateMutability":"view","type":"function"},{"inputs":[],"name":"getTotalBorrowed","outputs":[{"internalType":"uint256","name":"","type":"uint256"}],"stateMutability":"view","type":"function"},{"inputs":[],"name":"getTotalDonations","outputs":[{"internalType":"uint256","name":"","type":"uint256"}],"stateMutability":"view","type":"function"},{"inputs":[],"name":"getUSDTBalance","outputs":[{"internalType":"uint256","name":"","type":"uint256"}],"stateMutability":"view","type":"function"},{"inputs":[{"internalType":"address","name":"user","type":"address"}],"name":"getWithdrawableBalance","outputs":[{"internalType":"uint256","name":"","type":"uint256"}],"stateMutability":"view","type":"function"},{"inputs":[{"internalType":"address","name":"borrower","type":"address"}],"name":"hasActiveDebt","outputs":[{"internalType":"bool","name":"","type":"bool"}],"stateMutability":"view","type":"function"},{"inputs":[{"internalType":"address","name":"borrower","type":"address"}],"name":"hasOverdueDebt","outputs":[{"internalType":"bool","name":"","type":"bool"}],"stateMutability":"view","type":"function"},{"inputs":[{"internalType":"address","name":"wallet","type":"address"}],"name":"isWalletVinculated","outputs":[{"internalType":"bool","name":"","type":"bool"}],"stateMutability":"view","type":"function"},{"inputs":[{"internalType":"uint256","name":"","type":"uint256"}],"name":"loanContracts","outputs":[{"internalType":"address","name":"walletAddress","type":"address"},{"internalType":"uint256","name":"requisitionId","type":"uint256"},{"internalType":"enum ILoanMachine.ContractStatus","name":"status","type":"uint8"},{"internalType":"uint32","name":"parcelsCount","type":"uint32"},{"internalType":"uint32","name":"parcelsPending","type":"uint32"},{"internalType":"uint256","name":"parcelsValues","type":"uint256"}],"stateMutability":"view","type":"function"},{"inputs":[],"name":"nextMonthlyUpdate","outputs":[{"internalType":"uint256","name":"","type":"uint256"}],"stateMutability":"view","type":"function"},{"inputs":[{"internalType":"uint256","name":"requisitionId","type":"uint256"},{"internalType":"uint256","name":"amount","type":"uint256"},{"internalType":"uint32","name":"memberId","type":"uint32"}],"name":"repay","outputs":[],"stateMutability":"nonpayable","type":"function"},{"inputs":[],"name":"reputationSystem","outputs":[{"internalType":"contract ReputationSystem","name":"","type":"address"}],"stateMutability":"view","type":"function"},{"inputs":[],"name":"requisitionCounter","outputs":[{"internalType":"uint256","name":"","type":"uint256"}],"stateMutability":"view","type":"function"},{"inputs":[],"name":"shouldTriggerUpdate","outputs":[{"internalType":"bool","name":"","type":"bool"}],"stateMutability":"view","type":"function"},{"inputs":[],"name":"triggerMonthlyUpdate","outputs":[],"stateMutability":"nonpayable","type":"function"},{"inputs":[{"internalType":"address","name":"borrower","type":"address"}],"name":"updateBorrowerDebtStatus","outputs":[],"stateMutability":"nonpayable","type":"function"},{"inputs":[],"name":"usdtToken","outputs":[{"internalType":"address","name":"","type":"address"}],"stateMutability":"view","type":"function"},{"inputs":[{"internalType":"uint32","name":"memberId","type":"uint32"},{"internalType":"address","name":"wallet","type":"address"}],"name":"vinculationMemberToWallet","outputs":[],"stateMutability":"nonpayable","type":"function"},{"inputs":[{"internalType":"uint256","name":"amount","type":"uint256"},{"internalType":"uint32","name":"memberId","type":"uint32"}],"name":"withdraw","outputs":[],"stateMutability":"nonpayable","type":"function"}],"evm":{"bytecode":{"linkReferences":{"contracts/libraries/DebtTracker.sol":{"DebtTracker":[{"length":20,"start":846},{"length":20,"start":1028},{"length":20,"start":2218},{"length":20,"start":3956},{"length":20,"start":4563},{"length":20,"start":4955},{"length":20,"start":5340},{"length":20,"start":5985},{"length":20,"start":7600},{"length":20,"start":7994},{"length":20,"start":8311},{"length":20,"start":9198},{"length":20,"start":10698},{"length":20,"start":11510}]}},"object":"60a034620000cf57601f6200351e38819003918201601f19168301916001600160401b03831184841017620000d4578084926040948552833981010312620000cf576200005a60206200005283620000ea565b9201620000ea565b6001600081905560809290925281546001600160a01b0319166001600160a01b0390911617905562278d006008554260075560405161341e908162000100823960805181818161083b01528181610dad01528181610ed001528181611368015281816117800152818161200a0152612e390152f35b600080fd5b634e487b7160e01b600052604160045260246000fd5b51906001600160a01b0382168203620000cf5756fe6080604052600436101561001257600080fd5b60003560e01c8063016c704f14612b985780630307c4a114612b7a57806303d1a1a1146129055780630bc218531461289d578063182d94b5146126735780631b70ba3e146124cb57806321bb31e414612459578063232869fa146123db578063291c31a714611dcf5780632b31c0221461231e5780633403c25d146122a9578063383ab2ef14612260578063410a1d32146122265780634e51c7df146121db578063598a562a146121795780636145d1b714611f175780636509a71014611eeb578063657eb03114611eb15780636587eda114611e885780636f9fb98a14611554578063777c658f14611e6a5780637910340014611e0d5780637d52437a14611dd4578063809dab6a14611dcf57806381db228414611d49578063827cc0e514611d0f578063830efd3b14611c83578063843592d314611c5857806384ddf5ea14611c3a5780638a914a6314611bf75780639059f9ca146115bc5780639730872a146115595780639785fac81461155457806397c33519146114815780639e93201114611429578063a7af694714611397578063a98ad46c14611352578063adceb101146112d0578063b9f0fec414611240578063be5eb58014611206578063c269014b14611167578063ccdce44e14611098578063e276392414610e14578063eb5a662e14610d66578063ecb18b3414610370578063f0853e1d146102bf5763f947a8a91461022157600080fd5b346102a65760003660031901126102a657604051636ecf807360e11b81526002600482015260208160248173__$8a3883123a2a1b05b37447bdbb3fdcf5d3$__5af480156102b35760009061027c575b602090604051908152f35b506020813d82116102ab575b8161029560209383612f29565b810103126102a65760209051610271565b600080fd5b3d9150610288565b6040513d6000823e3d90fd5b346102a6576020806003193601126102a6576102d9612c8a565b6040516315ffae5b60e21b8152600260048201526001600160a01b039091166024820152818160448173__$8a3883123a2a1b05b37447bdbb3fdcf5d3$__5af49081156102b35760009161033a575b506040519061033681612cb6565b8152f35b90508181813d8311610369575b6103518183612f29565b810103126102a6575160038110156102a65782610328565b503d610347565b346102a65760603660031901126102a657610389612db5565b63ffffffff610396612ddb565b169081158015610d05575b610cf35763ffffffff8116158015610ce3575b610cd157600963ffffffff82161115610cbf576103cf612ff5565b600435600052601160205260406000209160038301805460ff8160401c166006811015610ca9578015159081610c9d575b50610c8b5761041d60649163ffffffff8087169160201c1661309c565b11610c795761043663ffffffff84166002860154613102565b93670de0b6b3a764000094858102958187041490151715610a0d5768056bc75e2d630fffff8501809511610a0d5733600052600b60205268056bc75e2d63100000850460406000205410610c675733600052600b60205260406000206104a868056bc75e2d6310000087048254612fe8565b905533600052601460205260406000206104ce68056bc75e2d631000008704825461309c565b9055815463ffffffff851663ffffffff8260201c160163ffffffff8111610a0d5767ffffffff000000009060201b169067ffffffff0000000019161782556007810190336000528160205260406000205415610c25575b5033600052602052604060002061054868056bc75e2d631000008604825461309c565b9055805463ffffffff811663ffffffff8260201c161015600014610c0c57506802000000000000000060ff60401b19825416179055806000526015602052604060002063ffffffff19815416905560043560005260166020526040600020601160205260406000209060018060a01b036001830154166bffffffffffffffffffffffff60a01b825416178155600435600182015563ffffffff6002808301549360ff19851682850155600881019464ffffffff00865460081b169064ffffffffff1916178285015561063e838654168386019068ffffffff000000000082549160281b169068ffffffff00000000001916179055565b01549254169161064e8382613115565b8315610bf65761065d84613137565b9160005b858110610bb8575050600383015560005b8363ffffffff821610610b695750815460028301546003840154604051926001600160a01b03169163ffffffff9060ff81166106ad81612cb6565b855260281c1660208401526040830152608060608301527f5215406e88f26eed4728b9cdfc5d85cea75799101cb9387b528451e6e0878dec60043592806106fa608082016004890161317d565b0390a360005b838110610b4457505050506004356000526011602052604060002060018060a01b036001820154169081600052600a60205260ff6040600020541615610aaa575b600360028201918254600c60205261075f604060002091825461309c565b905561076e8354600f5461309c565b600f5561077e8354601054612fe8565b60105583600052600d60205242604060002055016803000000000000000060ff60401b1982541617905573__$8a3883123a2a1b05b37447bdbb3fdcf5d3$__803b156102a65760006064916040519283809263e63dd53160e01b8252600260048301528760248301526303d1a1a13060201b1760401b60448301525af480156102b357610a9b575b50805460405163a9059cbb60e01b81526001600160a01b038416600482015260248101919091526020818060448101038160007f00000000000000000000000000000000000000000000000000000000000000006001600160a01b03165af19081156102b357600091610a6c575b5015610a5a5760407feae9cfbc77fdd40ca899f36b608256063b2bc9d8178b0220f7ad513e178d6730915483600052600c602052816000205482519182526020820152a27f17f13fd3f7c4712af33f1770ebcb822dd20a2dbc00850eab48d786623d97b9596020600f54604051908152a16000805160206133c98339815191526020601054604051908152a16004357f9e71d2fb732e68272b7e74ecfd14638673c1d77e19a5d390a3ffff054d57c44b600080a25b600154604051636adf462560e11b81526001600160a01b0390911692602082600481875afa9182156102b357600092610a23575b5063ffffffff1660030b9060030b028060030b908103610a0d57823b156102a657606460009283600a95604051968795869463533dfa3560e01b865260048601520560030b6024840152600160448401525af180156102b3576109fe575b5068056bc75e2d631000006040519104815233907f86b47e6e6c03d769c0bc5ffd06c682ea7d07089576d59230ec18ff64e71bffe7602060043592a36001600055005b610a0790612edb565b816109bb565b634e487b7160e01b600052601160045260246000fd5b63ffffffff919250610a4c9060203d602011610a53575b610a448183612f29565b810190613083565b919061095d565b503d610a3a565b60405163022e258160e11b8152600490fd5b610a8e915060203d602011610a94575b610a868183612f29565b810190612f4b565b86610874565b503d610a7c565b610aa490612edb565b85610806565b600954600160401b811015610b2e576001810180600955811015610b18577f6e1540171b6c0c960b71a7020d9f60077f6af931a8bbf590da0223dacf75c7af0180546001600160a01b031916831790556000828152600a60205260409020805460ff19166001179055610741565b634e487b7160e01b600052603260045260246000fd5b634e487b7160e01b600052604160045260246000fd5b80610b5f610b55610b649385613169565b51600586016130b8565b6130a9565b610700565b63ffffffff610b77826130ed565b169062278d009180830292830403610a0d57610ba4610b9b63ffffffff934261309c565b600486016130b8565b1663ffffffff8114610a0d57600101610672565b858206811015610be7576001830190818411610a0d57610be291610bdc8287613169565b526130a9565b610661565b8083610bdc610be29387613169565b634e487b7160e01b600052601260045260246000fd5b68ff00000000000000001916600160401b179055610929565b6006018054600160401b811015610b2e57610c4591600182018155612ec3565b81546001600160a01b0360039290921b91821b19163390911b17905585610525565b604051630391acf160e61b8152600490fd5b60405163955f95ad60e01b8152600490fd5b6040516380b9cb0960e01b8152600490fd5b60019150141586610400565b634e487b7160e01b600052602160045260246000fd5b60405163f556155f60e01b8152600490fd5b60405163d1e95ed560e01b8152600490fd5b50606463ffffffff8216116103b4565b604051630cff23e760e01b8152600490fd5b50600154604051632cc52b1560e11b815233600482015290602090829060249082906001600160a01b03165afa9081156102b357600091610d48575b50156103a1565b610d60915060203d8111610a9457610a868183612f29565b83610d41565b346102a6576020806003193601126102a657604481610d83612c8a565b604051636eb1769f60e11b81526001600160a01b03918216600482015230602482015292839182907f0000000000000000000000000000000000000000000000000000000000000000165afa9081156102b357600091610de7575b50604051908152f35b90508181813d8311610e0d575b610dfe8183612f29565b810103126102a6575182610dde565b503d610df4565b346102a65760403660031901126102a65760043563ffffffff610e35612db5565b16158015611037575b610cf357801561102557610e50612ff5565b604051630c47ab3d60e21b8152602090818180610e703060048301612f63565b038173__$8a3883123a2a1b05b37447bdbb3fdcf5d3$__5af480156102b357611008575b50624c4b408211610ff6576040516323b872dd60e01b815233600482015230602482015260448101839052818160648160006001600160a01b037f0000000000000000000000000000000000000000000000000000000000000000165af19081156102b357600091610fd9575b5015610a5a576000805160206133c98339815191529033600052600b815260406000207fdc6e73d4b36e22ab95945bd8833a5af96c950eb29d8d75c4aecffc987637aaab82825495808701845580600e54019081600e558060105401948560105554604051918252838201527f4928895ba6723e8e27b15f32e4c3054a1b6c7f8c03f133558d6fa42b3928d14c60403392a2604051908152a1604051908152a115610fae575b6001600055005b337f072dafb6aabe3f02118bc607efbeaaa104d6b2009720c7b130f24ba418689c4b600080a2610fa7565b610ff09150823d8411610a9457610a868183612f29565b83610f01565b6040516330fdf8db60e11b8152600490fd5b61101e90823d8411610a9457610a868183612f29565b5082610e94565b60405163162908e360e11b8152600490fd5b50600154604051632cc52b1560e11b815233600482015290602090829060249082906001600160a01b03165afa9081156102b35760009161107a575b5015610e3e565b611092915060203d8111610a9457610a868183612f29565b82611073565b346102a65760003660031901126102a6576110b1612ff5565b604051630c47ab3d60e21b8152602081806110cf3060048301612f63565b038173__$8a3883123a2a1b05b37447bdbb3fdcf5d3$__5af49081156102b357600091611149575b5015611104576001600055005b60405162461bcd60e51b815260206004820152601a60248201527f4d6f6e74686c7920757064617465206e6f7420647565207965740000000000006044820152606490fd5b611161915060203d8111610a9457610a868183612f29565b816110f7565b346102a6576020806003193601126102a657611181612c8a565b60015460405163c269014b60e01b81526001600160a01b03928316600482015291839183916024918391165afa9081156102b3576000916111cc575b5063ffffffff60405191168152f35b90508181813d83116111ff575b6111e38183612f29565b810103126102a6575163ffffffff811681036102a657826111bd565b503d6111d9565b346102a65760203660031901126102a6576001600160a01b03611227612c8a565b16600052600c6020526020604060002054604051908152f35b346102a65760203660031901126102a657611259612c8a565b73__$8a3883123a2a1b05b37447bdbb3fdcf5d3$__90813b156102a6576040805163e63dd53160e01b8152600260048201526001600160a01b0390921660248301523060201b6303d1a1a117901b604482015290600090829060649082905af480156102b3576112c557005b6112ce90612edb565b005b346102a65760403660031901126102a65760206112eb612ca0565b6004356000526016825260406000209060018060a01b03808354169116149081611338575b81611321575b506040519015158152f35b63ffffffff91506002015460281c16151582611316565b905060ff60028201541661134b81612cb6565b1590611310565b346102a65760003660031901126102a6576040517f00000000000000000000000000000000000000000000000000000000000000006001600160a01b03168152602090f35b346102a65760203660031901126102a6576113b0612c8a565b604051632de5e9bf60e01b8152600260048201526001600160a01b03909116602482015260208160448173__$8a3883123a2a1b05b37447bdbb3fdcf5d3$__5af480156102b35760209160009161140c57506040519015158152f35b6114239150823d8111610a9457610a868183612f29565b82611316565b346102a65760403660031901126102a657611442612c8a565b6001600160a01b03166000908152601360205260409020805460243591908210156102a65760209161147391612ec3565b90546040519160031b1c8152f35b346102a65760403660031901126102a65761149a612c8a565b6024358015159081611547575b5080611510575b806114c1575b6020906040519015158152f35b506001600160a01b03166000818152600d602052604090205462093a808101908110610a0d57421180156114f9575b602091506114b4565b50600052600c6020526020604060002054156114f0565b506001600160a01b0381166000908152600b6020526040902054620f42401115806114ae5750600c602052604060002054156114ae565b90506010541015826114a7565b612e0c565b346102a65760203660031901126102a6576001600160a01b0361157a612c8a565b1660005260136020526115b861159d6115a460406000206040519283809261317d565b0382612f29565b604051918291602083526020830190612cc0565b0390f35b346102a65760603660031901126102a657602480359063ffffffff600435816115e3612ddb565b169283158015611b97575b610cf357816000526020906016825260406000209533600052600c835260406000205415611b855786546001600160a01b0397903390891603611b85576002015460ff811661163c81612cb6565b611b855760281c851615611b8557611652612ff5565b604051630c47ab3d60e21b815273__$8a3883123a2a1b05b37447bdbb3fdcf5d3$__908481806116853060048301612f63565b0381855af480156102b357611b68575b5081156110255784600052601684526040600020906002820197885488808260281c169160081c1603888111611a6c576116d29060048501612ec3565b905460039491851b1c421115611aca578a600154169160405163a5118bf160e01b81528881600481875afa9081156102b357600091611aad575b50833b156102a657606460009283604051968794859363533dfa3560e01b855260048501528a0b8c8401528160448401525af19182156102b3578492611a9e575b505b01548303611025576040516323b872dd60e01b815233600482015230602482015260448101849052858160648160007f00000000000000000000000000000000000000000000000000000000000000008f165af19081156102b357600091611a81575b5015610a5a5796959633600052600c855260406000206117d3848254612fe8565b90556117e183600f54612fe8565b600f556117f08360105461309c565b60105585600052601185526040600020906002820154946000986007600685019401995b84548110156118df57808d61182c6118639388612ec3565b905490891b1c16806000528c8b528b6118538b61184e6040600020548d613102565b613115565b8c81611868575b505050506130a9565b611814565b7fe3e6ae1e05f069d410556743894aacbb190c1431962422ebe8fcc642a467dd16918460005260148252604060002080548083116118d7575b826118ab91612fe8565b905584600052600b825260406000206118c582825461309c565b9055604051908152a38e8b818c61185a565b9150816118a1565b508888918c8833600052600c8552604060002054604051918252858201527f1b8cd61ed43bec7c6bdad3a18ffee613f99c853d16c50678d248d879e1b4343860403392a280825460281c16837f406356ef25520b09e2ef87c5225167b4161ea4ab691e9434d6ee29eafcc83fc286604051848152a27f17f13fd3f7c4712af33f1770ebcb822dd20a2dbc00850eab48d786623d97b95985600f54604051908152a16000805160206133c983398151915285601054604051908152a160001901818111611a6c57825468ffffffff0000000000191660289190911b68ffffffff0000000000161782558154908160281c1615611a36575b505050823b156102a65760646000926303d1a1a194604051958694859363e63dd53160e01b855260026004860152339085015230901b1760401b60448301525af480156102b357611a27576001600055005b611a3090612edb565b80610fa7565b60ff191660021790557f02ca5489b37dd363d1302bac719e8ee40e540ffbe8c12253570fea63e11cad71600080a28380806119d5565b85634e487b7160e01b60005260116004526000fd5b611a989150863d8811610a9457610a868183612f29565b8a6117b2565b611aa790612edb565b8b61174d565b611ac49150893d8b11610a5357610a448183612f29565b8d61170c565b8a6001541691604051634e5ecf1360e01b81528881600481875afa9081156102b357600091611b4b575b50833b156102a657606460009283604051968794859363533dfa3560e01b855260048501528a0b8c840152600160448401525af19182156102b3578492611b3c575b5061174f565b611b4590612edb565b8b611b36565b611b629150893d8b11610a5357610a448183612f29565b8d611af4565b611b7e90853d8711610a9457610a868183612f29565b5088611695565b604051630b5ab5bf60e41b8152600490fd5b50600154604051632cc52b1560e11b8152336004820152906020908290849082906001600160a01b03165afa9081156102b357600091611bd9575b50156115ee565b611bf1915060203d8111610a9457610a868183612f29565b86611bd2565b346102a65760203660031901126102a65760043560005260116020526115b8611c26600660406000200161336e565b604051918291602083526020830190612d78565b346102a65760003660031901126102a6576020601254604051908152f35b346102a65760203660031901126102a6576020611c7b611c76612c8a565b61304b565b604051908152f35b346102a65760003660031901126102a65760405163404b48bf60e01b81526002600482015260008160248173__$8a3883123a2a1b05b37447bdbb3fdcf5d3$__5af480156102b3576115b891600091611cec575b50604051918291602083526020830190612d78565b611d0991503d806000833e611d018183612f29565b8101906131ba565b82611cd7565b346102a65760203660031901126102a6576001600160a01b03611d30612c8a565b1660005260146020526020604060002054604051908152f35b346102a65760203660031901126102a657611d62612dc8565b600154604051632076c8a160e21b815263ffffffff929092166004830152602090829060249082906001600160a01b03165afa80156102b357602091600091611db2575b506040519060030b8152f35b611dc99150823d8111610a5357610a448183612f29565b82611da6565b612dee565b346102a65760203660031901126102a65760043560005260166020526115b861159d6115a460046040600020016040519283809261317d565b346102a65760003660031901126102a65760405163f28e2c2f60e01b81526002600482015260208160248173__$8a3883123a2a1b05b37447bdbb3fdcf5d3$__5af480156102b35760209160009161140c57506040519015158152f35b346102a65760003660031901126102a6576020600e54604051908152f35b346102a65760003660031901126102a6576001546040516001600160a01b039091168152602090f35b346102a65760203660031901126102a6576001600160a01b03611ed2612c8a565b16600052600d6020526020604060002054604051908152f35b346102a65760203660031901126102a6576040611f0960043561331c565b825191825215156020820152f35b346102a65760403660031901126102a65760043563ffffffff611f38612db5565b16158015612118575b610cf357801561102557611f53612ff5565b604051630c47ab3d60e21b8152602090818180611f733060048301612f63565b038173__$8a3883123a2a1b05b37447bdbb3fdcf5d3$__5af480156102b3576120fb575b50611fa13361304b565b82116120e95733600052600b81526040600020611fbf838254612fe8565b9055611fcd82600e54612fe8565b600e55611fdc82601054612fe8565b60105560405163a9059cbb60e01b815233600482015260248101839052818160448160006001600160a01b037f0000000000000000000000000000000000000000000000000000000000000000165af19081156102b3576000916120cc575b5015610a5a576000805160206133c98339815191529133600052600b8252604060002054604051918252828201527f92ccf450a286a957af52509bc1c9939d1a6a481783e142e41e2499f0bb66ebc660403392a27fdc6e73d4b36e22ab95945bd8833a5af96c950eb29d8d75c4aecffc987637aaab81600e54604051908152a1601054604051908152a16001600055005b6120e39150823d8411610a9457610a868183612f29565b8361203b565b6040516302c6f54760e21b8152600490fd5b61211190823d8411610a9457610a868183612f29565b5082611f97565b50600154604051632cc52b1560e11b815233600482015290602090829060249082906001600160a01b03165afa9081156102b35760009161215b575b5015611f41565b612173915060203d8111610a9457610a868183612f29565b82612154565b346102a65760203660031901126102a657612192612c8a565b600154604051632cc52b1560e11b81526001600160a01b0392831660048201529160209183916024918391165afa80156102b35760209160009161140c57506040519015158152f35b346102a65760403660031901126102a6576121f4612ca0565b600435600052601160205260076040600020019060018060a01b03166000526020526020604060002054604051908152f35b346102a65760203660031901126102a6576001600160a01b03612247612c8a565b16600052600b6020526020604060002054604051908152f35b346102a65760203660031901126102a657612279613244565b5060043560005260166020526115b86122956040600020613281565b604051918291602083526020830190612cf4565b346102a65760203660031901126102a6576122c2612c8a565b604051630b79b0a160e21b8152600260048201526001600160a01b03909116602482015260208160448173__$8a3883123a2a1b05b37447bdbb3fdcf5d3$__5af480156102b35760209160009161140c57506040519015158152f35b346102a65760203660031901126102a657600435600052601660205260a06040600020601160205260406000209060028101549160ff831661235f81612cb6565b15806123c9575b156123b157600363ffffffff809460281c169201549260086123888585613102565b949392015416906001925b60405194855260208501526040840152606083015215156080820152f35b600801546000925082915063ffffffff168180612393565b5063ffffffff8360281c161515612366565b346102a65760203660031901126102a657600435600052601660205260c0604060002060018060a01b0381541690600181015490600281015490600360ff831691015492604051948552602085015261243381612cb6565b604084015263ffffffff90818160081c16606085015260281c16608083015260a0820152f35b346102a65760403660031901126102a657612472612dc8565b61247a612ca0565b6001549091906001600160a01b03908116803b156102a6576000928360449263ffffffff94604051978896879563086ecc7960e21b87521660048601521660248401525af180156102b3576112c557005b346102a65760203660031901126102a65760006101206040516124ed81612eef565b8281528260208201528260408201528260608201528260808201528260a08201528260c08201528260e0820152606061010082015201526004356000526011602052604060002080549060018060a01b0360018201541690600281015460038201549160ff8360401c169163ffffffff60048301549460058401549282600886015416976040519961257e8b612eef565b8a5260208a01526040890152818116606089015260201c1660808701526006831015610ca9576125c09360069360a088015260c087015260e08601520161336e565b61010083015261012082015260405190602082528051602083015260018060a01b0360208201511660408301526040810151606083015263ffffffff606082015116608083015263ffffffff60808201511660a083015260a0810151906006821015610ca957829160c083015260c081015160e083015260e081015161010083015261010081015163ffffffff610120612667610140938483880152610160870190612d78565b93015116908301520390f35b346102a65760a03660031901126102a65760043561268f612db5565b906064359063ffffffff918281168091036102a657608435928084168094036102a657836000526020946015865260038260406000205416101561288b578415801561282c575b610cf35783156110255781169060468211801590612822575b610cd157600183108015612818575b6128065760105484116127f45760125494612718866130a9565b601255856000526011875260406000209260018401336bffffffffffffffffffffffff60a01b825416179055856002850155600384019068ffffffffffffffffff19825416179055604435600484015542600584015585600884019363ffffffff1994868682541617905555336000526013875261279a8660406000206130b8565b600052601586526040600020918254916127b58184166130ed565b16911617905560405191825283820152817fde3b47cf7da95a3cc41b86cf8717ead8d56a76ee1590481c5c4dc4d8804c40c460403393a3604051908152f35b60405163356680b760e01b8152600490fd5b60405163524eff2760e01b8152600490fd5b50600c83116126fe565b50606482116126ef565b50600154604051632cc52b1560e11b8152336004820152908790829060249082906001600160a01b03165afa9081156102b35760009161286e575b50156126d6565b6128859150873d8911610a9457610a868183612f29565b87612867565b604051635aad290f60e01b8152600490fd5b346102a65760003660031901126102a657604051637fd5e70b60e01b81526002600482015260008160248173__$8a3883123a2a1b05b37447bdbb3fdcf5d3$__5af480156102b3576115b891600091611cec5750604051918291602083526020830190612d78565b346102a6576020806003193601126102a6576001600160a01b039081612929612c8a565b1691826000526013825260406000206000936000918054925b838110612aea57506129538661311f565b956129616040519788612f29565b808752601f196129708261311f565b0160005b818110612acf57505061298690613137565b9360009260005b858110612a0d57888888604051928391604083019360408452825180955260608401948160608260051b8701019401956000905b8282106129dd57505050836115b8949550830390850152612cc0565b91939550919384806129fb600193605f198c82030186528a51612cf4565b980192019201879593919694926129c1565b612a1a81859a999a612ec3565b9054600391821b1c60005260168a52604060002083858254161480612ab7575b80612aa1575b612a58575b5050612a50906130a9565b97969761298d565b95612a9991612a6a612a509498613281565b612a74838d613169565b52612a7f828c613169565b50612a8a8888612ec3565b9054911b1c610bdc828b613169565b94908a612a45565b5063ffffffff600282015460281c161515612a40565b5060ff600282015416612ac981612cb6565b15612a3a565b96809897612adb613244565b82828b01015201979697612974565b612af78183989798612ec3565b90549060031b1c6000526016875260406000208386825416149081612b60575b81612b49575b50612b34575b612b2c906130a9565b959495612942565b94612b41612b2c916130a9565b959050612b23565b63ffffffff91506002015460281c16151588612b1d565b905060ff600282015416612b7381612cb6565b1590612b17565b346102a65760003660031901126102a6576020600f54604051908152f35b346102a65760203660031901126102a65767ffffffffffffffff6004358181116102a657366023820112156102a65780600401359182116102a6576024600591368285851b830101116102a6573060201b6303d1a1a11760401b939273__$8a3883123a2a1b05b37447bdbb3fdcf5d3$__9160005b858110612c1657005b80831b82018501356001600160a01b03811691908290036102a657843b156102a6576040519163e63dd53160e01b83526002600484015286830152876044830152600082606481885af49182156102b357612c7692612c7b575b506130a9565b612c0d565b612c8490612edb565b88612c70565b600435906001600160a01b03821682036102a657565b602435906001600160a01b03821682036102a657565b60031115610ca957565b90815180825260208080930193019160005b828110612ce0575050505090565b835185529381019392810192600101612cd2565b80516001600160a01b03168252602080820151908301526040810151612d759290612d1e81612cb6565b604082015263ffffffff806060840151166060830152608083015116608082015260a082015160a082015260e0612d6460c08401516101008060c0860152840190612cc0565b9201519060e0818403910152612cc0565b90565b90815180825260208080930193019160005b828110612d98575050505090565b83516001600160a01b031685529381019392810192600101612d8a565b6024359063ffffffff821682036102a657565b6004359063ffffffff821682036102a657565b6044359063ffffffff821682036102a657565b346102a65760003660031901126102a6576020601054604051908152f35b346102a657600080600319360112612ec0576040516370a0823160e01b81523060048201526020816024817f00000000000000000000000000000000000000000000000000000000000000006001600160a01b03165afa908115612eb5578291612e7c575b602082604051908152f35b90506020813d8211612ead575b81612e9660209383612f29565b81010312612ea957602091505138612e71565b5080fd5b3d9150612e89565b6040513d84823e3d90fd5b80fd5b8054821015610b185760005260206000200190600090565b67ffffffffffffffff8111610b2e57604052565b610140810190811067ffffffffffffffff821117610b2e57604052565b610100810190811067ffffffffffffffff821117610b2e57604052565b90601f8019910116810190811067ffffffffffffffff821117610b2e57604052565b908160209103126102a6575180151581036102a65790565b919091606081019260028252602093606085840152600954809152608083019060096000527f6e1540171b6c0c960b71a7020d9f60077f6af931a8bbf590da0223dacf75c7af9060005b87828210612fcb5750505050931b6303d1a1a117604090811b910152565b83546001600160a01b031685529093019260019283019201612fad565b91908203918211610a0d57565b600260005414613006576002600055565b60405162461bcd60e51b815260206004820152601f60248201527f5265656e7472616e637947756172643a207265656e7472616e742063616c6c006044820152606490fd5b60018060a01b0316600052600b602052604060002054601460205260406000205480821161307a575050600090565b612d7591612fe8565b908160209103126102a657518060030b81036102a65790565b91908201809211610a0d57565b6000198114610a0d5760010190565b8054600160401b811015610b2e576130d591600182018155612ec3565b819291549060031b91821b91600019901b1916179055565b90600163ffffffff80931601918211610a0d57565b81810292918115918404141715610a0d57565b8115610bf6570490565b67ffffffffffffffff8111610b2e5760051b60200190565b906131418261311f565b61314e6040519182612f29565b828152809261315f601f199161311f565b0190602036910137565b8051821015610b185760209160051b010190565b90815480825260208092019260005281600020916000905b8282106131a3575050505090565b835485529384019360019384019390910190613195565b60209081818403126102a65780519067ffffffffffffffff82116102a657019180601f840112156102a65782516131f08161311f565b936131fe6040519586612f29565b818552838086019260051b8201019283116102a6578301905b828210613225575050505090565b81516001600160a01b03811681036102a6578152908301908301613217565b6040519061325182612f0c565b606060e0836000808252806020830152806040830152808483015280608083015260a08201528260c08201520152565b90600560e060405161329281612f0c565b613318819560018060a01b03815416835260018101546020840152600281015460ff81166132bf81612cb6565b604085015263ffffffff90818160081c16606086015260281c166080840152600381015460a08401526040516132fc8161159d816004860161317d565b60c0840152613311604051809681930161317d565b0384612f29565b0152565b60005260166020526040600020600281015460ff811661333b81612cb6565b15908161335b575b506133515750600090600090565b6003015490600190565b63ffffffff915060281c16151538613343565b9060405191828154918282526020928383019160005283600020936000905b8282106133a5575050506133a392500383612f29565b565b85546001600160a01b03168452600195860195889550938101939091019061338d56fe8b094cca6f83d49402ce208cc0c224b76625ffc58636df56ae28024e704c5868a2646970667358221220756412ce8919e06b9dd210635bba5722af5c6566aacd76b4e7b9776b76ba705464736f6c63430008130033","opcodes":"PUSH1 0xA0 CALLVALUE PUSH3 0xCF JUMPI PUSH1 0x1F PUSH3 0x351E CODESIZE DUP2 SWAP1 SUB SWAP2 DUP3 ADD PUSH1 0x1F NOT AND DUP4 ADD SWAP2 PUSH1 0x1 PUSH1 0x1 PUSH1 0x40 SHL SUB DUP4 GT DUP5 DUP5 LT OR PUSH3 0xD4 JUMPI DUP1 DUP5 SWAP3 PUSH1 0x40 SWAP5 DUP6 MSTORE DUP4 CODECOPY DUP2 ADD SUB SLT PUSH3 0xCF JUMPI PUSH3 0x5A PUSH1 0x20 PUSH3 0x52 DUP4 PUSH3 0xEA JUMP JUMPDEST SWAP3 ADD PUSH3 0xEA JUMP JUMPDEST PUSH1 0x1 PUSH1 0x0 DUP2 SWAP1 SSTORE PUSH1 0x80 SWAP3 SWAP1 SWAP3 MSTORE DUP2 SLOAD PUSH1 0x1 PUSH1 0x1 PUSH1 0xA0 SHL SUB NOT AND PUSH1 0x1 PUSH1 0x1 PUSH1 0xA0 SHL SUB SWAP1 SWAP2 AND OR SWAP1 SSTORE PUSH3 0x278D00 PUSH1 0x8 SSTORE TIMESTAMP PUSH1 0x7 SSTORE PUSH1 0x40 MLOAD PUSH2 0x341E SWAP1 DUP2 PUSH3 0x100 DUP3 CODECOPY PUSH1 0x80 MLOAD DUP2 DUP2 DUP2 PUSH2 0x83B ADD MSTORE DUP2 DUP2 PUSH2 0xDAD ADD MSTORE DUP2 DUP2 PUSH2 0xED0 ADD MSTORE DUP2 DUP2 PUSH2 0x1368 ADD MSTORE DUP2 DUP2 PUSH2 0x1780 ADD MSTORE DUP2 DUP2 PUSH2 0x200A ADD MSTORE PUSH2 0x2E39 ADD MSTORE RETURN JUMPDEST PUSH1 0x0 DUP1 REVERT JUMPDEST PUSH4 0x4E487B71 PUSH1 0xE0 SHL PUSH1 0x0 MSTORE PUSH1 0x41 PUSH1 0x4 MSTORE PUSH1 0x24 PUSH1 0x0 REVERT JUMPDEST MLOAD SWAP1 PUSH1 0x1 PUSH1 0x1 PUSH1 0xA0 SHL SUB DUP3 AND DUP3 SUB PUSH3 0xCF JUMPI JUMP INVALID PUSH1 0x80 PUSH1 0x40 MSTORE PUSH1 0x4 CALLDATASIZE LT ISZERO PUSH2 0x12 JUMPI PUSH1 0x0 DUP1 REVERT JUMPDEST PUSH1 0x0 CALLDATALOAD PUSH1 0xE0 SHR DUP1 PUSH4 0x16C704F EQ PUSH2 0x2B98 JUMPI DUP1 PUSH4 0x307C4A1 EQ PUSH2 0x2B7A JUMPI DUP1 PUSH4 0x3D1A1A1 EQ PUSH2 0x2905 JUMPI DUP1 PUSH4 0xBC21853 EQ PUSH2 0x289D JUMPI DUP1 PUSH4 0x182D94B5 EQ PUSH2 0x2673 JUMPI DUP1 PUSH4 0x1B70BA3E EQ PUSH2 0x24CB JUMPI DUP1 PUSH4 0x21BB31E4 EQ PUSH2 0x2459 JUMPI DUP1 PUSH4 0x232869FA EQ PUSH2 0x23DB JUMPI DUP1 PUSH4 0x291C31A7 EQ PUSH2 0x1DCF JUMPI DUP1 PUSH4 0x2B31C022 EQ PUSH2 0x231E JUMPI DUP1 PUSH4 0x3403C25D EQ PUSH2 0x22A9 JUMPI DUP1 PUSH4 0x383AB2EF EQ PUSH2 0x2260 JUMPI DUP1 PUSH4 0x410A1D32 EQ PUSH2 0x2226 JUMPI DUP1 PUSH4 0x4E51C7DF EQ PUSH2 0x21DB JUMPI DUP1 PUSH4 0x598A562A EQ PUSH2 0x2179 JUMPI DUP1 PUSH4 0x6145D1B7 EQ PUSH2 0x1F17 JUMPI DUP1 PUSH4 0x6509A710 EQ PUSH2 0x1EEB JUMPI DUP1 PUSH4 0x657EB031 EQ PUSH2 0x1EB1 JUMPI DUP1 PUSH4 0x6587EDA1 EQ PUSH2 0x1E88 JUMPI DUP1 PUSH4 0x6F9FB98A EQ PUSH2 0x1554 JUMPI DUP1 PUSH4 0x777C658F EQ PUSH2 0x1E6A JUMPI DUP1 PUSH4 0x79103400 EQ PUSH2 0x1E0D JUMPI DUP1 PUSH4 0x7D52437A EQ PUSH2 0x1DD4 JUMPI DUP1 PUSH4 0x809DAB6A EQ PUSH2 0x1DCF JUMPI DUP1 PUSH4 0x81DB2284 EQ PUSH2 0x1D49 JUMPI DUP1 PUSH4 0x827CC0E5 EQ PUSH2 0x1D0F JUMPI DUP1 PUSH4 0x830EFD3B EQ PUSH2 0x1C83 JUMPI DUP1 PUSH4 0x843592D3 EQ PUSH2 0x1C58 JUMPI DUP1 PUSH4 0x84DDF5EA EQ PUSH2 0x1C3A JUMPI DUP1 PUSH4 0x8A914A63 EQ PUSH2 0x1BF7 JUMPI DUP1 PUSH4 0x9059F9CA EQ PUSH2 0x15BC JUMPI DUP1 PUSH4 0x9730872A EQ PUSH2 0x1559 JUMPI DUP1 PUSH4 0x9785FAC8 EQ PUSH2 0x1554 JUMPI DUP1 PUSH4 0x97C33519 EQ PUSH2 0x1481 JUMPI DUP1 PUSH4 0x9E932011 EQ PUSH2 0x1429 JUMPI DUP1 PUSH4 0xA7AF6947 EQ PUSH2 0x1397 JUMPI DUP1 PUSH4 0xA98AD46C EQ PUSH2 0x1352 JUMPI DUP1 PUSH4 0xADCEB101 EQ PUSH2 0x12D0 JUMPI DUP1 PUSH4 0xB9F0FEC4 EQ PUSH2 0x1240 JUMPI DUP1 PUSH4 0xBE5EB580 EQ PUSH2 0x1206 JUMPI DUP1 PUSH4 0xC269014B EQ PUSH2 0x1167 JUMPI DUP1 PUSH4 0xCCDCE44E EQ PUSH2 0x1098 JUMPI DUP1 PUSH4 0xE2763924 EQ PUSH2 0xE14 JUMPI DUP1 PUSH4 0xEB5A662E EQ PUSH2 0xD66 JUMPI DUP1 PUSH4 0xECB18B34 EQ PUSH2 0x370 JUMPI DUP1 PUSH4 0xF0853E1D EQ PUSH2 0x2BF JUMPI PUSH4 0xF947A8A9 EQ PUSH2 0x221 JUMPI PUSH1 0x0 DUP1 REVERT JUMPDEST CALLVALUE PUSH2 0x2A6 JUMPI PUSH1 0x0 CALLDATASIZE PUSH1 0x3 NOT ADD SLT PUSH2 0x2A6 JUMPI PUSH1 0x40 MLOAD PUSH4 0x6ECF8073 PUSH1 0xE1 SHL DUP2 MSTORE PUSH1 0x2 PUSH1 0x4 DUP3 ADD MSTORE PUSH1 0x20 DUP2 PUSH1 0x24 DUP2 PUSH20 0x0 GAS DELEGATECALL DUP1 ISZERO PUSH2 0x2B3 JUMPI PUSH1 0x0 SWAP1 PUSH2 0x27C JUMPI JUMPDEST PUSH1 0x20 SWAP1 PUSH1 0x40 MLOAD SWAP1 DUP2 MSTORE RETURN JUMPDEST POP PUSH1 0x20 DUP2 RETURNDATASIZE DUP3 GT PUSH2 0x2AB JUMPI JUMPDEST DUP2 PUSH2 0x295 PUSH1 0x20 SWAP4 DUP4 PUSH2 0x2F29 JUMP JUMPDEST DUP2 ADD SUB SLT PUSH2 0x2A6 JUMPI PUSH1 0x20 SWAP1 MLOAD PUSH2 0x271 JUMP JUMPDEST PUSH1 0x0 DUP1 REVERT JUMPDEST RETURNDATASIZE SWAP2 POP PUSH2 0x288 JUMP JUMPDEST PUSH1 0x40 MLOAD RETURNDATASIZE PUSH1 0x0 DUP3 RETURNDATACOPY RETURNDATASIZE SWAP1 REVERT JUMPDEST CALLVALUE PUSH2 0x2A6 JUMPI PUSH1 0x20 DUP1 PUSH1 0x3 NOT CALLDATASIZE ADD SLT PUSH2 0x2A6 JUMPI PUSH2 0x2D9 PUSH2 0x2C8A JUMP JUMPDEST PUSH1 0x40 MLOAD PUSH4 0x15FFAE5B PUSH1 0xE2 SHL DUP2 MSTORE PUSH1 0x2 PUSH1 0x4 DUP3 ADD MSTORE PUSH1 0x1 PUSH1 0x1 PUSH1 0xA0 SHL SUB SWAP1 SWAP2 AND PUSH1 0x24 DUP3 ADD MSTORE DUP2 DUP2 PUSH1 0x44 DUP2 PUSH20 0x0 GAS DELEGATECALL SWAP1 DUP2 ISZERO PUSH2 0x2B3 JUMPI PUSH1 0x0 SWAP2 PUSH2 0x33A JUMPI JUMPDEST POP PUSH1 0x40 MLOAD SWAP1 PUSH2 0x336 DUP2 PUSH2 0x2CB6 JUMP JUMPDEST DUP2 MSTORE RETURN JUMPDEST SWAP1 POP DUP2 DUP2 DUP2 RETURNDATASIZE DUP4 GT PUSH2 0x369 JUMPI JUMPDEST PUSH2 0x351 DUP2 DUP4 PUSH2 0x2F29 JUMP JUMPDEST DUP2 ADD SUB SLT PUSH2 0x2A6 JUMPI MLOAD PUSH1 0x3 DUP2 LT ISZERO PUSH2 0x2A6 JUMPI DUP3 PUSH2 0x328 JUMP JUMPDEST POP RETURNDATASIZE PUSH2 0x347 JUMP JUMPDEST CALLVALUE PUSH2 0x2A6 JUMPI PUSH1 0x60 CALLDATASIZE PUSH1 0x3 NOT ADD SLT PUSH2 0x2A6 JUMPI PUSH2 0x389 PUSH2 0x2DB5 JUMP JUMPDEST PUSH4 0xFFFFFFFF PUSH2 0x396 PUSH2 0x2DDB JUMP JUMPDEST AND SWAP1 DUP2 ISZERO DUP1 ISZERO PUSH2 0xD05 JUMPI JUMPDEST PUSH2 0xCF3 JUMPI PUSH4 0xFFFFFFFF DUP2 AND ISZERO DUP1 ISZERO PUSH2 0xCE3 JUMPI JUMPDEST PUSH2 0xCD1 JUMPI PUSH1 0x9 PUSH4 0xFFFFFFFF DUP3 AND GT ISZERO PUSH2 0xCBF JUMPI PUSH2 0x3CF PUSH2 0x2FF5 JUMP JUMPDEST PUSH1 0x4 CALLDATALOAD PUSH1 0x0 MSTORE PUSH1 0x11 PUSH1 0x20 MSTORE PUSH1 0x40 PUSH1 0x0 KECCAK256 SWAP2 PUSH1 0x3 DUP4 ADD DUP1 SLOAD PUSH1 0xFF DUP2 PUSH1 0x40 SHR AND PUSH1 0x6 DUP2 LT ISZERO PUSH2 0xCA9 JUMPI DUP1 ISZERO ISZERO SWAP1 DUP2 PUSH2 0xC9D JUMPI JUMPDEST POP PUSH2 0xC8B JUMPI PUSH2 0x41D PUSH1 0x64 SWAP2 PUSH4 0xFFFFFFFF DUP1 DUP8 AND SWAP2 PUSH1 0x20 SHR AND PUSH2 0x309C JUMP JUMPDEST GT PUSH2 0xC79 JUMPI PUSH2 0x436 PUSH4 0xFFFFFFFF DUP5 AND PUSH1 0x2 DUP7 ADD SLOAD PUSH2 0x3102 JUMP JUMPDEST SWAP4 PUSH8 0xDE0B6B3A7640000 SWAP5 DUP6 DUP2 MUL SWAP6 DUP2 DUP8 DIV EQ SWAP1 ISZERO OR ISZERO PUSH2 0xA0D JUMPI PUSH9 0x56BC75E2D630FFFFF DUP6 ADD DUP1 SWAP6 GT PUSH2 0xA0D JUMPI CALLER PUSH1 0x0 MSTORE PUSH1 0xB PUSH1 0x20 MSTORE PUSH9 0x56BC75E2D63100000 DUP6 DIV PUSH1 0x40 PUSH1 0x0 KECCAK256 SLOAD LT PUSH2 0xC67 JUMPI CALLER PUSH1 0x0 MSTORE PUSH1 0xB PUSH1 0x20 MSTORE PUSH1 0x40 PUSH1 0x0 KECCAK256 PUSH2 0x4A8 PUSH9 0x56BC75E2D63100000 DUP8 DIV DUP3 SLOAD PUSH2 0x2FE8 JUMP JUMPDEST SWAP1 SSTORE CALLER PUSH1 0x0 MSTORE PUSH1 0x14 PUSH1 0x20 MSTORE PUSH1 0x40 PUSH1 0x0 KECCAK256 PUSH2 0x4CE PUSH9 0x56BC75E2D63100000 DUP8 DIV DUP3 SLOAD PUSH2 0x309C JUMP JUMPDEST SWAP1 SSTORE DUP2 SLOAD PUSH4 0xFFFFFFFF DUP6 AND PUSH4 0xFFFFFFFF DUP3 PUSH1 0x20 SHR AND ADD PUSH4 0xFFFFFFFF DUP2 GT PUSH2 0xA0D JUMPI PUSH8 0xFFFFFFFF00000000 SWAP1 PUSH1 0x20 SHL AND SWAP1 PUSH8 0xFFFFFFFF00000000 NOT AND OR DUP3 SSTORE PUSH1 0x7 DUP2 ADD SWAP1 CALLER PUSH1 0x0 MSTORE DUP2 PUSH1 0x20 MSTORE PUSH1 0x40 PUSH1 0x0 KECCAK256 SLOAD ISZERO PUSH2 0xC25 JUMPI JUMPDEST POP CALLER PUSH1 0x0 MSTORE PUSH1 0x20 MSTORE PUSH1 0x40 PUSH1 0x0 KECCAK256 PUSH2 0x548 PUSH9 0x56BC75E2D63100000 DUP7 DIV DUP3 SLOAD PUSH2 0x309C JUMP JUMPDEST SWAP1 SSTORE DUP1 SLOAD PUSH4 0xFFFFFFFF DUP2 AND PUSH4 0xFFFFFFFF DUP3 PUSH1 0x20 SHR AND LT ISZERO PUSH1 0x0 EQ PUSH2 0xC0C JUMPI POP PUSH9 0x20000000000000000 PUSH1 0xFF PUSH1 0x40 SHL NOT DUP3 SLOAD AND OR SWAP1 SSTORE DUP1 PUSH1 0x0 MSTORE PUSH1 0x15 PUSH1 0x20 MSTORE PUSH1 0x40 PUSH1 0x0 KECCAK256 PUSH4 0xFFFFFFFF NOT DUP2 SLOAD AND SWAP1 SSTORE PUSH1 0x4 CALLDATALOAD PUSH1 0x0 MSTORE PUSH1 0x16 PUSH1 0x20 MSTORE PUSH1 0x40 PUSH1 0x0 KECCAK256 PUSH1 0x11 PUSH1 0x20 MSTORE PUSH1 0x40 PUSH1 0x0 KECCAK256 SWAP1 PUSH1 0x1 DUP1 PUSH1 0xA0 SHL SUB PUSH1 0x1 DUP4 ADD SLOAD AND PUSH12 0xFFFFFFFFFFFFFFFFFFFFFFFF PUSH1 0xA0 SHL DUP3 SLOAD AND OR DUP2 SSTORE PUSH1 0x4 CALLDATALOAD PUSH1 0x1 DUP3 ADD SSTORE PUSH4 0xFFFFFFFF PUSH1 0x2 DUP1 DUP4 ADD SLOAD SWAP4 PUSH1 0xFF NOT DUP6 AND DUP3 DUP6 ADD SSTORE PUSH1 0x8 DUP2 ADD SWAP5 PUSH5 0xFFFFFFFF00 DUP7 SLOAD PUSH1 0x8 SHL AND SWAP1 PUSH5 0xFFFFFFFFFF NOT AND OR DUP3 DUP6 ADD SSTORE PUSH2 0x63E DUP4 DUP7 SLOAD AND DUP4 DUP7 ADD SWAP1 PUSH9 0xFFFFFFFF0000000000 DUP3 SLOAD SWAP2 PUSH1 0x28 SHL AND SWAP1 PUSH9 0xFFFFFFFF0000000000 NOT AND OR SWAP1 SSTORE JUMP JUMPDEST ADD SLOAD SWAP3 SLOAD AND SWAP2 PUSH2 0x64E DUP4 DUP3 PUSH2 0x3115 JUMP JUMPDEST DUP4 ISZERO PUSH2 0xBF6 JUMPI PUSH2 0x65D DUP5 PUSH2 0x3137 JUMP JUMPDEST SWAP2 PUSH1 0x0 JUMPDEST DUP6 DUP2 LT PUSH2 0xBB8 JUMPI POP POP PUSH1 0x3 DUP4 ADD SSTORE PUSH1 0x0 JUMPDEST DUP4 PUSH4 0xFFFFFFFF DUP3 AND LT PUSH2 0xB69 JUMPI POP DUP2 SLOAD PUSH1 0x2 DUP4 ADD SLOAD PUSH1 0x3 DUP5 ADD SLOAD PUSH1 0x40 MLOAD SWAP3 PUSH1 0x1 PUSH1 0x1 PUSH1 0xA0 SHL SUB AND SWAP2 PUSH4 0xFFFFFFFF SWAP1 PUSH1 0xFF DUP2 AND PUSH2 0x6AD DUP2 PUSH2 0x2CB6 JUMP JUMPDEST DUP6 MSTORE PUSH1 0x28 SHR AND PUSH1 0x20 DUP5 ADD MSTORE PUSH1 0x40 DUP4 ADD MSTORE PUSH1 0x80 PUSH1 0x60 DUP4 ADD MSTORE PUSH32 0x5215406E88F26EED4728B9CDFC5D85CEA75799101CB9387B528451E6E0878DEC PUSH1 0x4 CALLDATALOAD SWAP3 DUP1 PUSH2 0x6FA PUSH1 0x80 DUP3 ADD PUSH1 0x4 DUP10 ADD PUSH2 0x317D JUMP JUMPDEST SUB SWAP1 LOG3 PUSH1 0x0 JUMPDEST DUP4 DUP2 LT PUSH2 0xB44 JUMPI POP POP POP POP PUSH1 0x4 CALLDATALOAD PUSH1 0x0 MSTORE PUSH1 0x11 PUSH1 0x20 MSTORE PUSH1 0x40 PUSH1 0x0 KECCAK256 PUSH1 0x1 DUP1 PUSH1 0xA0 SHL SUB PUSH1 0x1 DUP3 ADD SLOAD AND SWAP1 DUP2 PUSH1 0x0 MSTORE PUSH1 0xA PUSH1 0x20 MSTORE PUSH1 0xFF PUSH1 0x40 PUSH1 0x0 KECCAK256 SLOAD AND ISZERO PUSH2 0xAAA JUMPI JUMPDEST PUSH1 0x3 PUSH1 0x2 DUP3 ADD SWAP2 DUP3 SLOAD PUSH1 0xC PUSH1 0x20 MSTORE PUSH2 0x75F PUSH1 0x40 PUSH1 0x0 KECCAK256 SWAP2 DUP3 SLOAD PUSH2 0x309C JUMP JUMPDEST SWAP1 SSTORE PUSH2 0x76E DUP4 SLOAD PUSH1 0xF SLOAD PUSH2 0x309C JUMP JUMPDEST PUSH1 0xF SSTORE PUSH2 0x77E DUP4 SLOAD PUSH1 0x10 SLOAD PUSH2 0x2FE8 JUMP JUMPDEST PUSH1 0x10 SSTORE DUP4 PUSH1 0x0 MSTORE PUSH1 0xD PUSH1 0x20 MSTORE TIMESTAMP PUSH1 0x40 PUSH1 0x0 KECCAK256 SSTORE ADD PUSH9 0x30000000000000000 PUSH1 0xFF PUSH1 0x40 SHL NOT DUP3 SLOAD AND OR SWAP1 SSTORE PUSH20 0x0 DUP1 EXTCODESIZE ISZERO PUSH2 0x2A6 JUMPI PUSH1 0x0 PUSH1 0x64 SWAP2 PUSH1 0x40 MLOAD SWAP3 DUP4 DUP1 SWAP3 PUSH4 0xE63DD531 PUSH1 0xE0 SHL DUP3 MSTORE PUSH1 0x2 PUSH1 0x4 DUP4 ADD MSTORE DUP8 PUSH1 0x24 DUP4 ADD MSTORE PUSH4 0x3D1A1A1 ADDRESS PUSH1 0x20 SHL OR PUSH1 0x40 SHL PUSH1 0x44 DUP4 ADD MSTORE GAS DELEGATECALL DUP1 ISZERO PUSH2 0x2B3 JUMPI PUSH2 0xA9B JUMPI JUMPDEST POP DUP1 SLOAD PUSH1 0x40 MLOAD PUSH4 0xA9059CBB PUSH1 0xE0 SHL DUP2 MSTORE PUSH1 0x1 PUSH1 0x1 PUSH1 0xA0 SHL SUB DUP5 AND PUSH1 0x4 DUP3 ADD MSTORE PUSH1 0x24 DUP2 ADD SWAP2 SWAP1 SWAP2 MSTORE PUSH1 0x20 DUP2 DUP1 PUSH1 0x44 DUP2 ADD SUB DUP2 PUSH1 0x0 PUSH32 0x0 PUSH1 0x1 PUSH1 0x1 PUSH1 0xA0 SHL SUB AND GAS CALL SWAP1 DUP2 ISZERO PUSH2 0x2B3 JUMPI PUSH1 0x0 SWAP2 PUSH2 0xA6C JUMPI JUMPDEST POP ISZERO PUSH2 0xA5A JUMPI PUSH1 0x40 PUSH32 0xEAE9CFBC77FDD40CA899F36B608256063B2BC9D8178B0220F7AD513E178D6730 SWAP2 SLOAD DUP4 PUSH1 0x0 MSTORE PUSH1 0xC PUSH1 0x20 MSTORE DUP2 PUSH1 0x0 KECCAK256 SLOAD DUP3 MLOAD SWAP2 DUP3 MSTORE PUSH1 0x20 DUP3 ADD MSTORE LOG2 PUSH32 0x17F13FD3F7C4712AF33F1770EBCB822DD20A2DBC00850EAB48D786623D97B959 PUSH1 0x20 PUSH1 0xF SLOAD PUSH1 0x40 MLOAD SWAP1 DUP2 MSTORE LOG1 PUSH1 0x0 DUP1 MLOAD PUSH1 0x20 PUSH2 0x33C9 DUP4 CODECOPY DUP2 MLOAD SWAP2 MSTORE PUSH1 0x20 PUSH1 0x10 SLOAD PUSH1 0x40 MLOAD SWAP1 DUP2 MSTORE LOG1 PUSH1 0x4 CALLDATALOAD PUSH32 0x9E71D2FB732E68272B7E74ECFD14638673C1D77E19A5D390A3FFFF054D57C44B PUSH1 0x0 DUP1 LOG2 JUMPDEST PUSH1 0x1 SLOAD PUSH1 0x40 MLOAD PUSH4 0x6ADF4625 PUSH1 0xE1 SHL DUP2 MSTORE PUSH1 0x1 PUSH1 0x1 PUSH1 0xA0 SHL SUB SWAP1 SWAP2 AND SWAP3 PUSH1 0x20 DUP3 PUSH1 0x4 DUP2 DUP8 GAS STATICCALL SWAP2 DUP3 ISZERO PUSH2 0x2B3 JUMPI PUSH1 0x0 SWAP3 PUSH2 0xA23 JUMPI JUMPDEST POP PUSH4 0xFFFFFFFF AND PUSH1 0x3 SIGNEXTEND SWAP1 PUSH1 0x3 SIGNEXTEND MUL DUP1 PUSH1 0x3 SIGNEXTEND SWAP1 DUP2 SUB PUSH2 0xA0D JUMPI DUP3 EXTCODESIZE ISZERO PUSH2 0x2A6 JUMPI PUSH1 0x64 PUSH1 0x0 SWAP3 DUP4 PUSH1 0xA SWAP6 PUSH1 0x40 MLOAD SWAP7 DUP8 SWAP6 DUP7 SWAP5 PUSH4 0x533DFA35 PUSH1 0xE0 SHL DUP7 MSTORE PUSH1 0x4 DUP7 ADD MSTORE SDIV PUSH1 0x3 SIGNEXTEND PUSH1 0x24 DUP5 ADD MSTORE PUSH1 0x1 PUSH1 0x44 DUP5 ADD MSTORE GAS CALL DUP1 ISZERO PUSH2 0x2B3 JUMPI PUSH2 0x9FE JUMPI JUMPDEST POP PUSH9 0x56BC75E2D63100000 PUSH1 0x40 MLOAD SWAP2 DIV DUP2 MSTORE CALLER SWAP1 PUSH32 0x86B47E6E6C03D769C0BC5FFD06C682EA7D07089576D59230EC18FF64E71BFFE7 PUSH1 0x20 PUSH1 0x4 CALLDATALOAD SWAP3 LOG3 PUSH1 0x1 PUSH1 0x0 SSTORE STOP JUMPDEST PUSH2 0xA07 SWAP1 PUSH2 0x2EDB JUMP JUMPDEST DUP2 PUSH2 0x9BB JUMP JUMPDEST PUSH4 0x4E487B71 PUSH1 0xE0 SHL PUSH1 0x0 MSTORE PUSH1 0x11 PUSH1 0x4 MSTORE PUSH1 0x24 PUSH1 0x0 REVERT JUMPDEST PUSH4 0xFFFFFFFF SWAP2 SWAP3 POP PUSH2 0xA4C SWAP1 PUSH1 0x20 RETURNDATASIZE PUSH1 0x20 GT PUSH2 0xA53 JUMPI JUMPDEST PUSH2 0xA44 DUP2 DUP4 PUSH2 0x2F29 JUMP JUMPDEST DUP2 ADD SWAP1 PUSH2 0x3083 JUMP JUMPDEST SWAP2 SWAP1 PUSH2 0x95D JUMP JUMPDEST POP RETURNDATASIZE PUSH2 0xA3A JUMP JUMPDEST PUSH1 0x40 MLOAD PUSH4 0x22E2581 PUSH1 0xE1 SHL DUP2 MSTORE PUSH1 0x4 SWAP1 REVERT JUMPDEST PUSH2 0xA8E SWAP2 POP PUSH1 0x20 RETURNDATASIZE PUSH1 0x20 GT PUSH2 0xA94 JUMPI JUMPDEST PUSH2 0xA86 DUP2 DUP4 PUSH2 0x2F29 JUMP JUMPDEST DUP2 ADD SWAP1 PUSH2 0x2F4B JUMP JUMPDEST DUP7 PUSH2 0x874 JUMP JUMPDEST POP RETURNDATASIZE PUSH2 0xA7C JUMP JUMPDEST PUSH2 0xAA4 SWAP1 PUSH2 0x2EDB JUMP JUMPDEST DUP6 PUSH2 0x806 JUMP JUMPDEST PUSH1 0x9 SLOAD PUSH1 0x1 PUSH1 0x40 SHL DUP2 LT ISZERO PUSH2 0xB2E JUMPI PUSH1 0x1 DUP2 ADD DUP1 PUSH1 0x9 SSTORE DUP2 LT ISZERO PUSH2 0xB18 JUMPI PUSH32 0x6E1540171B6C0C960B71A7020D9F60077F6AF931A8BBF590DA0223DACF75C7AF ADD DUP1 SLOAD PUSH1 0x1 PUSH1 0x1 PUSH1 0xA0 SHL SUB NOT AND DUP4 OR SWAP1 SSTORE PUSH1 0x0 DUP3 DUP2 MSTORE PUSH1 0xA PUSH1 0x20 MSTORE PUSH1 0x40 SWAP1 KECCAK256 DUP1 SLOAD PUSH1 0xFF NOT AND PUSH1 0x1 OR SWAP1 SSTORE PUSH2 0x741 JUMP JUMPDEST PUSH4 0x4E487B71 PUSH1 0xE0 SHL PUSH1 0x0 MSTORE PUSH1 0x32 PUSH1 0x4 MSTORE PUSH1 0x24 PUSH1 0x0 REVERT JUMPDEST PUSH4 0x4E487B71 PUSH1 0xE0 SHL PUSH1 0x0 MSTORE PUSH1 0x41 PUSH1 0x4 MSTORE PUSH1 0x24 PUSH1 0x0 REVERT JUMPDEST DUP1 PUSH2 0xB5F PUSH2 0xB55 PUSH2 0xB64 SWAP4 DUP6 PUSH2 0x3169 JUMP JUMPDEST MLOAD PUSH1 0x5 DUP7 ADD PUSH2 0x30B8 JUMP JUMPDEST PUSH2 0x30A9 JUMP JUMPDEST PUSH2 0x700 JUMP JUMPDEST PUSH4 0xFFFFFFFF PUSH2 0xB77 DUP3 PUSH2 0x30ED JUMP JUMPDEST AND SWAP1 PUSH3 0x278D00 SWAP2 DUP1 DUP4 MUL SWAP3 DUP4 DIV SUB PUSH2 0xA0D JUMPI PUSH2 0xBA4 PUSH2 0xB9B PUSH4 0xFFFFFFFF SWAP4 TIMESTAMP PUSH2 0x309C JUMP JUMPDEST PUSH1 0x4 DUP7 ADD PUSH2 0x30B8 JUMP JUMPDEST AND PUSH4 0xFFFFFFFF DUP2 EQ PUSH2 0xA0D JUMPI PUSH1 0x1 ADD PUSH2 0x672 JUMP JUMPDEST DUP6 DUP3 MOD DUP2 LT ISZERO PUSH2 0xBE7 JUMPI PUSH1 0x1 DUP4 ADD SWAP1 DUP2 DUP5 GT PUSH2 0xA0D JUMPI PUSH2 0xBE2 SWAP2 PUSH2 0xBDC DUP3 DUP8 PUSH2 0x3169 JUMP JUMPDEST MSTORE PUSH2 0x30A9 JUMP JUMPDEST PUSH2 0x661 JUMP JUMPDEST DUP1 DUP4 PUSH2 0xBDC PUSH2 0xBE2 SWAP4 DUP8 PUSH2 0x3169 JUMP JUMPDEST PUSH4 0x4E487B71 PUSH1 0xE0 SHL PUSH1 0x0 MSTORE PUSH1 0x12 PUSH1 0x4 MSTORE PUSH1 0x24 PUSH1 0x0 REVERT JUMPDEST PUSH9 0xFF0000000000000000 NOT AND PUSH1 0x1 PUSH1 0x40 SHL OR SWAP1 SSTORE PUSH2 0x929 JUMP JUMPDEST PUSH1 0x6 ADD DUP1 SLOAD PUSH1 0x1 PUSH1 0x40 SHL DUP2 LT ISZERO PUSH2 0xB2E JUMPI PUSH2 0xC45 SWAP2 PUSH1 0x1 DUP3 ADD DUP2 SSTORE PUSH2 0x2EC3 JUMP JUMPDEST DUP2 SLOAD PUSH1 0x1 PUSH1 0x1 PUSH1 0xA0 SHL SUB PUSH1 0x3 SWAP3 SWAP1 SWAP3 SHL SWAP2 DUP3 SHL NOT AND CALLER SWAP1 SWAP2 SHL OR SWAP1 SSTORE DUP6 PUSH2 0x525 JUMP JUMPDEST PUSH1 0x40 MLOAD PUSH4 0x391ACF1 PUSH1 0xE6 SHL DUP2 MSTORE PUSH1 0x4 SWAP1 REVERT JUMPDEST PUSH1 0x40 MLOAD PUSH4 0x955F95AD PUSH1 0xE0 SHL DUP2 MSTORE PUSH1 0x4 SWAP1 REVERT JUMPDEST PUSH1 0x40 MLOAD PUSH4 0x80B9CB09 PUSH1 0xE0 SHL DUP2 MSTORE PUSH1 0x4 SWAP1 REVERT JUMPDEST PUSH1 0x1 SWAP2 POP EQ ISZERO DUP7 PUSH2 0x400 JUMP JUMPDEST PUSH4 0x4E487B71 PUSH1 0xE0 SHL PUSH1 0x0 MSTORE PUSH1 0x21 PUSH1 0x4 MSTORE PUSH1 0x24 PUSH1 0x0 REVERT JUMPDEST PUSH1 0x40 MLOAD PUSH4 0xF556155F PUSH1 0xE0 SHL DUP2 MSTORE PUSH1 0x4 SWAP1 REVERT JUMPDEST PUSH1 0x40 MLOAD PUSH4 0xD1E95ED5 PUSH1 0xE0 SHL DUP2 MSTORE PUSH1 0x4 SWAP1 REVERT JUMPDEST POP PUSH1 0x64 PUSH4 0xFFFFFFFF DUP3 AND GT PUSH2 0x3B4 JUMP JUMPDEST PUSH1 0x40 MLOAD PUSH4 0xCFF23E7 PUSH1 0xE0 SHL DUP2 MSTORE PUSH1 0x4 SWAP1 REVERT JUMPDEST POP PUSH1 0x1 SLOAD PUSH1 0x40 MLOAD PUSH4 0x2CC52B15 PUSH1 0xE1 SHL DUP2 MSTORE CALLER PUSH1 0x4 DUP3 ADD MSTORE SWAP1 PUSH1 0x20 SWAP1 DUP3 SWAP1 PUSH1 0x24 SWAP1 DUP3 SWAP1 PUSH1 0x1 PUSH1 0x1 PUSH1 0xA0 SHL SUB AND GAS STATICCALL SWAP1 DUP2 ISZERO PUSH2 0x2B3 JUMPI PUSH1 0x0 SWAP2 PUSH2 0xD48 JUMPI JUMPDEST POP ISZERO PUSH2 0x3A1 JUMP JUMPDEST PUSH2 0xD60 SWAP2 POP PUSH1 0x20 RETURNDATASIZE DUP2 GT PUSH2 0xA94 JUMPI PUSH2 0xA86 DUP2 DUP4 PUSH2 0x2F29 JUMP JUMPDEST DUP4 PUSH2 0xD41 JUMP JUMPDEST CALLVALUE PUSH2 0x2A6 JUMPI PUSH1 0x20 DUP1 PUSH1 0x3 NOT CALLDATASIZE ADD SLT PUSH2 0x2A6 JUMPI PUSH1 0x44 DUP2 PUSH2 0xD83 PUSH2 0x2C8A JUMP JUMPDEST PUSH1 0x40 MLOAD PUSH4 0x6EB1769F PUSH1 0xE1 SHL DUP2 MSTORE PUSH1 0x1 PUSH1 0x1 PUSH1 0xA0 SHL SUB SWAP2 DUP3 AND PUSH1 0x4 DUP3 ADD MSTORE ADDRESS PUSH1 0x24 DUP3 ADD MSTORE SWAP3 DUP4 SWAP2 DUP3 SWAP1 PUSH32 0x0 AND GAS STATICCALL SWAP1 DUP2 ISZERO PUSH2 0x2B3 JUMPI PUSH1 0x0 SWAP2 PUSH2 0xDE7 JUMPI JUMPDEST POP PUSH1 0x40 MLOAD SWAP1 DUP2 MSTORE RETURN JUMPDEST SWAP1 POP DUP2 DUP2 DUP2 RETURNDATASIZE DUP4 GT PUSH2 0xE0D JUMPI JUMPDEST PUSH2 0xDFE DUP2 DUP4 PUSH2 0x2F29 JUMP JUMPDEST DUP2 ADD SUB SLT PUSH2 0x2A6 JUMPI MLOAD DUP3 PUSH2 0xDDE JUMP JUMPDEST POP RETURNDATASIZE PUSH2 0xDF4 JUMP JUMPDEST CALLVALUE PUSH2 0x2A6 JUMPI PUSH1 0x40 CALLDATASIZE PUSH1 0x3 NOT ADD SLT PUSH2 0x2A6 JUMPI PUSH1 0x4 CALLDATALOAD PUSH4 0xFFFFFFFF PUSH2 0xE35 PUSH2 0x2DB5 JUMP JUMPDEST AND ISZERO DUP1 ISZERO PUSH2 0x1037 JUMPI JUMPDEST PUSH2 0xCF3 JUMPI DUP1 ISZERO PUSH2 0x1025 JUMPI PUSH2 0xE50 PUSH2 0x2FF5 JUMP JUMPDEST PUSH1 0x40 MLOAD PUSH4 0xC47AB3D PUSH1 0xE2 SHL DUP2 MSTORE PUSH1 0x20 SWAP1 DUP2 DUP2 DUP1 PUSH2 0xE70 ADDRESS PUSH1 0x4 DUP4 ADD PUSH2 0x2F63 JUMP JUMPDEST SUB DUP2 PUSH20 0x0 GAS DELEGATECALL DUP1 ISZERO PUSH2 0x2B3 JUMPI PUSH2 0x1008 JUMPI JUMPDEST POP PUSH3 0x4C4B40 DUP3 GT PUSH2 0xFF6 JUMPI PUSH1 0x40 MLOAD PUSH4 0x23B872DD PUSH1 0xE0 SHL DUP2 MSTORE CALLER PUSH1 0x4 DUP3 ADD MSTORE ADDRESS PUSH1 0x24 DUP3 ADD MSTORE PUSH1 0x44 DUP2 ADD DUP4 SWAP1 MSTORE DUP2 DUP2 PUSH1 0x64 DUP2 PUSH1 0x0 PUSH1 0x1 PUSH1 0x1 PUSH1 0xA0 SHL SUB PUSH32 0x0 AND GAS CALL SWAP1 DUP2 ISZERO PUSH2 0x2B3 JUMPI PUSH1 0x0 SWAP2 PUSH2 0xFD9 JUMPI JUMPDEST POP ISZERO PUSH2 0xA5A JUMPI PUSH1 0x0 DUP1 MLOAD PUSH1 0x20 PUSH2 0x33C9 DUP4 CODECOPY DUP2 MLOAD SWAP2 MSTORE SWAP1 CALLER PUSH1 0x0 MSTORE PUSH1 0xB DUP2 MSTORE PUSH1 0x40 PUSH1 0x0 KECCAK256 PUSH32 0xDC6E73D4B36E22AB95945BD8833A5AF96C950EB29D8D75C4AECFFC987637AAAB DUP3 DUP3 SLOAD SWAP6 DUP1 DUP8 ADD DUP5 SSTORE DUP1 PUSH1 0xE SLOAD ADD SWAP1 DUP2 PUSH1 0xE SSTORE DUP1 PUSH1 0x10 SLOAD ADD SWAP5 DUP6 PUSH1 0x10 SSTORE SLOAD PUSH1 0x40 MLOAD SWAP2 DUP3 MSTORE DUP4 DUP3 ADD MSTORE PUSH32 0x4928895BA6723E8E27B15F32E4C3054A1B6C7F8C03F133558D6FA42B3928D14C PUSH1 0x40 CALLER SWAP3 LOG2 PUSH1 0x40 MLOAD SWAP1 DUP2 MSTORE LOG1 PUSH1 0x40 MLOAD SWAP1 DUP2 MSTORE LOG1 ISZERO PUSH2 0xFAE JUMPI JUMPDEST PUSH1 0x1 PUSH1 0x0 SSTORE STOP JUMPDEST CALLER PUSH32 0x72DAFB6AABE3F02118BC607EFBEAAA104D6B2009720C7B130F24BA418689C4B PUSH1 0x0 DUP1 LOG2 PUSH2 0xFA7 JUMP JUMPDEST PUSH2 0xFF0 SWAP2 POP DUP3 RETURNDATASIZE DUP5 GT PUSH2 0xA94 JUMPI PUSH2 0xA86 DUP2 DUP4 PUSH2 0x2F29 JUMP JUMPDEST DUP4 PUSH2 0xF01 JUMP JUMPDEST PUSH1 0x40 MLOAD PUSH4 0x30FDF8DB PUSH1 0xE1 SHL DUP2 MSTORE PUSH1 0x4 SWAP1 REVERT JUMPDEST PUSH2 0x101E SWAP1 DUP3 RETURNDATASIZE DUP5 GT PUSH2 0xA94 JUMPI PUSH2 0xA86 DUP2 DUP4 PUSH2 0x2F29 JUMP JUMPDEST POP DUP3 PUSH2 0xE94 JUMP JUMPDEST PUSH1 0x40 MLOAD PUSH4 0x162908E3 PUSH1 0xE1 SHL DUP2 MSTORE PUSH1 0x4 SWAP1 REVERT JUMPDEST POP PUSH1 0x1 SLOAD PUSH1 0x40 MLOAD PUSH4 0x2CC52B15 PUSH1 0xE1 SHL DUP2 MSTORE CALLER PUSH1 0x4 DUP3 ADD MSTORE SWAP1 PUSH1 0x20 SWAP1 DUP3 SWAP1 PUSH1 0x24 SWAP1 DUP3 SWAP1 PUSH1 0x1 PUSH1 0x1 PUSH1 0xA0 SHL SUB AND GAS STATICCALL SWAP1 DUP2 ISZERO PUSH2 0x2B3 JUMPI PUSH1 0x0 SWAP2 PUSH2 0x107A JUMPI JUMPDEST POP ISZERO PUSH2 0xE3E JUMP JUMPDEST PUSH2 0x1092 SWAP2 POP PUSH1 0x20 RETURNDATASIZE DUP2 GT PUSH2 0xA94 JUMPI PUSH2 0xA86 DUP2 DUP4 PUSH2 0x2F29 JUMP JUMPDEST DUP3 PUSH2 0x1073 JUMP JUMPDEST CALLVALUE PUSH2 0x2A6 JUMPI PUSH1 0x0 CALLDATASIZE PUSH1 0x3 NOT ADD SLT PUSH2 0x2A6 JUMPI PUSH2 0x10B1 PUSH2 0x2FF5 JUMP JUMPDEST PUSH1 0x40 MLOAD PUSH4 0xC47AB3D PUSH1 0xE2 SHL DUP2 MSTORE PUSH1 0x20 DUP2 DUP1 PUSH2 0x10CF ADDRESS PUSH1 0x4 DUP4 ADD PUSH2 0x2F63 JUMP JUMPDEST SUB DUP2 PUSH20 0x0 GAS DELEGATECALL SWAP1 DUP2 ISZERO PUSH2 0x2B3 JUMPI PUSH1 0x0 SWAP2 PUSH2 0x1149 JUMPI JUMPDEST POP ISZERO PUSH2 0x1104 JUMPI PUSH1 0x1 PUSH1 0x0 SSTORE STOP JUMPDEST PUSH1 0x40 MLOAD PUSH3 0x461BCD PUSH1 0xE5 SHL DUP2 MSTORE PUSH1 0x20 PUSH1 0x4 DUP3 ADD MSTORE PUSH1 0x1A PUSH1 0x24 DUP3 ADD MSTORE PUSH32 0x4D6F6E74686C7920757064617465206E6F742064756520796574000000000000 PUSH1 0x44 DUP3 ADD MSTORE PUSH1 0x64 SWAP1 REVERT JUMPDEST PUSH2 0x1161 SWAP2 POP PUSH1 0x20 RETURNDATASIZE DUP2 GT PUSH2 0xA94 JUMPI PUSH2 0xA86 DUP2 DUP4 PUSH2 0x2F29 JUMP JUMPDEST DUP2 PUSH2 0x10F7 JUMP JUMPDEST CALLVALUE PUSH2 0x2A6 JUMPI PUSH1 0x20 DUP1 PUSH1 0x3 NOT CALLDATASIZE ADD SLT PUSH2 0x2A6 JUMPI PUSH2 0x1181 PUSH2 0x2C8A JUMP JUMPDEST PUSH1 0x1 SLOAD PUSH1 0x40 MLOAD PUSH4 0xC269014B PUSH1 0xE0 SHL DUP2 MSTORE PUSH1 0x1 PUSH1 0x1 PUSH1 0xA0 SHL SUB SWAP3 DUP4 AND PUSH1 0x4 DUP3 ADD MSTORE SWAP2 DUP4 SWAP2 DUP4 SWAP2 PUSH1 0x24 SWAP2 DUP4 SWAP2 AND GAS STATICCALL SWAP1 DUP2 ISZERO PUSH2 0x2B3 JUMPI PUSH1 0x0 SWAP2 PUSH2 0x11CC JUMPI JUMPDEST POP PUSH4 0xFFFFFFFF PUSH1 0x40 MLOAD SWAP2 AND DUP2 MSTORE RETURN JUMPDEST SWAP1 POP DUP2 DUP2 DUP2 RETURNDATASIZE DUP4 GT PUSH2 0x11FF JUMPI JUMPDEST PUSH2 0x11E3 DUP2 DUP4 PUSH2 0x2F29 JUMP JUMPDEST DUP2 ADD SUB SLT PUSH2 0x2A6 JUMPI MLOAD PUSH4 0xFFFFFFFF DUP2 AND DUP2 SUB PUSH2 0x2A6 JUMPI DUP3 PUSH2 0x11BD JUMP JUMPDEST POP RETURNDATASIZE PUSH2 0x11D9 JUMP JUMPDEST CALLVALUE PUSH2 0x2A6 JUMPI PUSH1 0x20 CALLDATASIZE PUSH1 0x3 NOT ADD SLT PUSH2 0x2A6 JUMPI PUSH1 0x1 PUSH1 0x1 PUSH1 0xA0 SHL SUB PUSH2 0x1227 PUSH2 0x2C8A JUMP JUMPDEST AND PUSH1 0x0 MSTORE PUSH1 0xC PUSH1 0x20 MSTORE PUSH1 0x20 PUSH1 0x40 PUSH1 0x0 KECCAK256 SLOAD PUSH1 0x40 MLOAD SWAP1 DUP2 MSTORE RETURN JUMPDEST CALLVALUE PUSH2 0x2A6 JUMPI PUSH1 0x20 CALLDATASIZE PUSH1 0x3 NOT ADD SLT PUSH2 0x2A6 JUMPI PUSH2 0x1259 PUSH2 0x2C8A JUMP JUMPDEST PUSH20 0x0 SWAP1 DUP2 EXTCODESIZE ISZERO PUSH2 0x2A6 JUMPI PUSH1 0x40 DUP1 MLOAD PUSH4 0xE63DD531 PUSH1 0xE0 SHL DUP2 MSTORE PUSH1 0x2 PUSH1 0x4 DUP3 ADD MSTORE PUSH1 0x1 PUSH1 0x1 PUSH1 0xA0 SHL SUB SWAP1 SWAP3 AND PUSH1 0x24 DUP4 ADD MSTORE ADDRESS PUSH1 0x20 SHL PUSH4 0x3D1A1A1 OR SWAP1 SHL PUSH1 0x44 DUP3 ADD MSTORE SWAP1 PUSH1 0x0 SWAP1 DUP3 SWAP1 PUSH1 0x64 SWAP1 DUP3 SWAP1 GAS DELEGATECALL DUP1 ISZERO PUSH2 0x2B3 JUMPI PUSH2 0x12C5 JUMPI STOP JUMPDEST PUSH2 0x12CE SWAP1 PUSH2 0x2EDB JUMP JUMPDEST STOP JUMPDEST CALLVALUE PUSH2 0x2A6 JUMPI PUSH1 0x40 CALLDATASIZE PUSH1 0x3 NOT ADD SLT PUSH2 0x2A6 JUMPI PUSH1 0x20 PUSH2 0x12EB PUSH2 0x2CA0 JUMP JUMPDEST PUSH1 0x4 CALLDATALOAD PUSH1 0x0 MSTORE PUSH1 0x16 DUP3 MSTORE PUSH1 0x40 PUSH1 0x0 KECCAK256 SWAP1 PUSH1 0x1 DUP1 PUSH1 0xA0 SHL SUB DUP1 DUP4 SLOAD AND SWAP2 AND EQ SWAP1 DUP2 PUSH2 0x1338 JUMPI JUMPDEST DUP2 PUSH2 0x1321 JUMPI JUMPDEST POP PUSH1 0x40 MLOAD SWAP1 ISZERO ISZERO DUP2 MSTORE RETURN JUMPDEST PUSH4 0xFFFFFFFF SWAP2 POP PUSH1 0x2 ADD SLOAD PUSH1 0x28 SHR AND ISZERO ISZERO DUP3 PUSH2 0x1316 JUMP JUMPDEST SWAP1 POP PUSH1 0xFF PUSH1 0x2 DUP3 ADD SLOAD AND PUSH2 0x134B DUP2 PUSH2 0x2CB6 JUMP JUMPDEST ISZERO SWAP1 PUSH2 0x1310 JUMP JUMPDEST CALLVALUE PUSH2 0x2A6 JUMPI PUSH1 0x0 CALLDATASIZE PUSH1 0x3 NOT ADD SLT PUSH2 0x2A6 JUMPI PUSH1 0x40 MLOAD PUSH32 0x0 PUSH1 0x1 PUSH1 0x1 PUSH1 0xA0 SHL SUB AND DUP2 MSTORE PUSH1 0x20 SWAP1 RETURN JUMPDEST CALLVALUE PUSH2 0x2A6 JUMPI PUSH1 0x20 CALLDATASIZE PUSH1 0x3 NOT ADD SLT PUSH2 0x2A6 JUMPI PUSH2 0x13B0 PUSH2 0x2C8A JUMP JUMPDEST PUSH1 0x40 MLOAD PUSH4 0x2DE5E9BF PUSH1 0xE0 SHL DUP2 MSTORE PUSH1 0x2 PUSH1 0x4 DUP3 ADD MSTORE PUSH1 0x1 PUSH1 0x1 PUSH1 0xA0 SHL SUB SWAP1 SWAP2 AND PUSH1 0x24 DUP3 ADD MSTORE PUSH1 0x20 DUP2 PUSH1 0x44 DUP2 PUSH20 0x0 GAS DELEGATECALL DUP1 ISZERO PUSH2 0x2B3 JUMPI PUSH1 0x20 SWAP2 PUSH1 0x0 SWAP2 PUSH2 0x140C JUMPI POP PUSH1 0x40 MLOAD SWAP1 ISZERO ISZERO DUP2 MSTORE RETURN JUMPDEST PUSH2 0x1423 SWAP2 POP DUP3 RETURNDATASIZE DUP2 GT PUSH2 0xA94 JUMPI PUSH2 0xA86 DUP2 DUP4 PUSH2 0x2F29 JUMP JUMPDEST DUP3 PUSH2 0x1316 JUMP JUMPDEST CALLVALUE PUSH2 0x2A6 JUMPI PUSH1 0x40 CALLDATASIZE PUSH1 0x3 NOT ADD SLT PUSH2 0x2A6 JUMPI PUSH2 0x1442 PUSH2 0x2C8A JUMP JUMPDEST PUSH1 0x1 PUSH1 0x1 PUSH1 0xA0 SHL SUB AND PUSH1 0x0 SWAP1 DUP2 MSTORE PUSH1 0x13 PUSH1 0x20 MSTORE PUSH1 0x40 SWAP1 KECCAK256 DUP1 SLOAD PUSH1 0x24 CALLDATALOAD SWAP2 SWAP1 DUP3 LT ISZERO PUSH2 0x2A6 JUMPI PUSH1 0x20 SWAP2 PUSH2 0x1473 SWAP2 PUSH2 0x2EC3 JUMP JUMPDEST SWAP1 SLOAD PUSH1 0x40 MLOAD SWAP2 PUSH1 0x3 SHL SHR DUP2 MSTORE RETURN JUMPDEST CALLVALUE PUSH2 0x2A6 JUMPI PUSH1 0x40 CALLDATASIZE PUSH1 0x3 NOT ADD SLT PUSH2 0x2A6 JUMPI PUSH2 0x149A PUSH2 0x2C8A JUMP JUMPDEST PUSH1 0x24 CALLDATALOAD DUP1 ISZERO ISZERO SWAP1 DUP2 PUSH2 0x1547 JUMPI JUMPDEST POP DUP1 PUSH2 0x1510 JUMPI JUMPDEST DUP1 PUSH2 0x14C1 JUMPI JUMPDEST PUSH1 0x20 SWAP1 PUSH1 0x40 MLOAD SWAP1 ISZERO ISZERO DUP2 MSTORE RETURN JUMPDEST POP PUSH1 0x1 PUSH1 0x1 PUSH1 0xA0 SHL SUB AND PUSH1 0x0 DUP2 DUP2 MSTORE PUSH1 0xD PUSH1 0x20 MSTORE PUSH1 0x40 SWAP1 KECCAK256 SLOAD PUSH3 0x93A80 DUP2 ADD SWAP1 DUP2 LT PUSH2 0xA0D JUMPI TIMESTAMP GT DUP1 ISZERO PUSH2 0x14F9 JUMPI JUMPDEST PUSH1 0x20 SWAP2 POP PUSH2 0x14B4 JUMP JUMPDEST POP PUSH1 0x0 MSTORE PUSH1 0xC PUSH1 0x20 MSTORE PUSH1 0x20 PUSH1 0x40 PUSH1 0x0 KECCAK256 SLOAD ISZERO PUSH2 0x14F0 JUMP JUMPDEST POP PUSH1 0x1 PUSH1 0x1 PUSH1 0xA0 SHL SUB DUP2 AND PUSH1 0x0 SWAP1 DUP2 MSTORE PUSH1 0xB PUSH1 0x20 MSTORE PUSH1 0x40 SWAP1 KECCAK256 SLOAD PUSH3 0xF4240 GT ISZERO DUP1 PUSH2 0x14AE JUMPI POP PUSH1 0xC PUSH1 0x20 MSTORE PUSH1 0x40 PUSH1 0x0 KECCAK256 SLOAD ISZERO PUSH2 0x14AE JUMP JUMPDEST SWAP1 POP PUSH1 0x10 SLOAD LT ISZERO DUP3 PUSH2 0x14A7 JUMP JUMPDEST PUSH2 0x2E0C JUMP JUMPDEST CALLVALUE PUSH2 0x2A6 JUMPI PUSH1 0x20 CALLDATASIZE PUSH1 0x3 NOT ADD SLT PUSH2 0x2A6 JUMPI PUSH1 0x1 PUSH1 0x1 PUSH1 0xA0 SHL SUB PUSH2 0x157A PUSH2 0x2C8A JUMP JUMPDEST AND PUSH1 0x0 MSTORE PUSH1 0x13 PUSH1 0x20 MSTORE PUSH2 0x15B8 PUSH2 0x159D PUSH2 0x15A4 PUSH1 0x40 PUSH1 0x0 KECCAK256 PUSH1 0x40 MLOAD SWAP3 DUP4 DUP1 SWAP3 PUSH2 0x317D JUMP JUMPDEST SUB DUP3 PUSH2 0x2F29 JUMP JUMPDEST PUSH1 0x40 MLOAD SWAP2 DUP3 SWAP2 PUSH1 0x20 DUP4 MSTORE PUSH1 0x20 DUP4 ADD SWAP1 PUSH2 0x2CC0 JUMP JUMPDEST SUB SWAP1 RETURN JUMPDEST CALLVALUE PUSH2 0x2A6 JUMPI PUSH1 0x60 CALLDATASIZE PUSH1 0x3 NOT ADD SLT PUSH2 0x2A6 JUMPI PUSH1 0x24 DUP1 CALLDATALOAD SWAP1 PUSH4 0xFFFFFFFF PUSH1 0x4 CALLDATALOAD DUP2 PUSH2 0x15E3 PUSH2 0x2DDB JUMP JUMPDEST AND SWAP3 DUP4 ISZERO DUP1 ISZERO PUSH2 0x1B97 JUMPI JUMPDEST PUSH2 0xCF3 JUMPI DUP2 PUSH1 0x0 MSTORE PUSH1 0x20 SWAP1 PUSH1 0x16 DUP3 MSTORE PUSH1 0x40 PUSH1 0x0 KECCAK256 SWAP6 CALLER PUSH1 0x0 MSTORE PUSH1 0xC DUP4 MSTORE PUSH1 0x40 PUSH1 0x0 KECCAK256 SLOAD ISZERO PUSH2 0x1B85 JUMPI DUP7 SLOAD PUSH1 0x1 PUSH1 0x1 PUSH1 0xA0 SHL SUB SWAP8 SWAP1 CALLER SWAP1 DUP10 AND SUB PUSH2 0x1B85 JUMPI PUSH1 0x2 ADD SLOAD PUSH1 0xFF DUP2 AND PUSH2 0x163C DUP2 PUSH2 0x2CB6 JUMP JUMPDEST PUSH2 0x1B85 JUMPI PUSH1 0x28 SHR DUP6 AND ISZERO PUSH2 0x1B85 JUMPI PUSH2 0x1652 PUSH2 0x2FF5 JUMP JUMPDEST PUSH1 0x40 MLOAD PUSH4 0xC47AB3D PUSH1 0xE2 SHL DUP2 MSTORE PUSH20 0x0 SWAP1 DUP5 DUP2 DUP1 PUSH2 0x1685 ADDRESS PUSH1 0x4 DUP4 ADD PUSH2 0x2F63 JUMP JUMPDEST SUB DUP2 DUP6 GAS DELEGATECALL DUP1 ISZERO PUSH2 0x2B3 JUMPI PUSH2 0x1B68 JUMPI JUMPDEST POP DUP2 ISZERO PUSH2 0x1025 JUMPI DUP5 PUSH1 0x0 MSTORE PUSH1 0x16 DUP5 MSTORE PUSH1 0x40 PUSH1 0x0 KECCAK256 SWAP1 PUSH1 0x2 DUP3 ADD SWAP8 DUP9 SLOAD DUP9 DUP1 DUP3 PUSH1 0x28 SHR AND SWAP2 PUSH1 0x8 SHR AND SUB DUP9 DUP2 GT PUSH2 0x1A6C JUMPI PUSH2 0x16D2 SWAP1 PUSH1 0x4 DUP6 ADD PUSH2 0x2EC3 JUMP JUMPDEST SWAP1 SLOAD PUSH1 0x3 SWAP5 SWAP2 DUP6 SHL SHR TIMESTAMP GT ISZERO PUSH2 0x1ACA JUMPI DUP11 PUSH1 0x1 SLOAD AND SWAP2 PUSH1 0x40 MLOAD PUSH4 0xA5118BF1 PUSH1 0xE0 SHL DUP2 MSTORE DUP9 DUP2 PUSH1 0x4 DUP2 DUP8 GAS STATICCALL SWAP1 DUP2 ISZERO PUSH2 0x2B3 JUMPI PUSH1 0x0 SWAP2 PUSH2 0x1AAD JUMPI JUMPDEST POP DUP4 EXTCODESIZE ISZERO PUSH2 0x2A6 JUMPI PUSH1 0x64 PUSH1 0x0 SWAP3 DUP4 PUSH1 0x40 MLOAD SWAP7 DUP8 SWAP5 DUP6 SWAP4 PUSH4 0x533DFA35 PUSH1 0xE0 SHL DUP6 MSTORE PUSH1 0x4 DUP6 ADD MSTORE DUP11 SIGNEXTEND DUP13 DUP5 ADD MSTORE DUP2 PUSH1 0x44 DUP5 ADD MSTORE GAS CALL SWAP2 DUP3 ISZERO PUSH2 0x2B3 JUMPI DUP5 SWAP3 PUSH2 0x1A9E JUMPI JUMPDEST POP JUMPDEST ADD SLOAD DUP4 SUB PUSH2 0x1025 JUMPI PUSH1 0x40 MLOAD PUSH4 0x23B872DD PUSH1 0xE0 SHL DUP2 MSTORE CALLER PUSH1 0x4 DUP3 ADD MSTORE ADDRESS PUSH1 0x24 DUP3 ADD MSTORE PUSH1 0x44 DUP2 ADD DUP5 SWAP1 MSTORE DUP6 DUP2 PUSH1 0x64 DUP2 PUSH1 0x0 PUSH32 0x0 DUP16 AND GAS CALL SWAP1 DUP2 ISZERO PUSH2 0x2B3 JUMPI PUSH1 0x0 SWAP2 PUSH2 0x1A81 JUMPI JUMPDEST POP ISZERO PUSH2 0xA5A JUMPI SWAP7 SWAP6 SWAP7 CALLER PUSH1 0x0 MSTORE PUSH1 0xC DUP6 MSTORE PUSH1 0x40 PUSH1 0x0 KECCAK256 PUSH2 0x17D3 DUP5 DUP3 SLOAD PUSH2 0x2FE8 JUMP JUMPDEST SWAP1 SSTORE PUSH2 0x17E1 DUP4 PUSH1 0xF SLOAD PUSH2 0x2FE8 JUMP JUMPDEST PUSH1 0xF SSTORE PUSH2 0x17F0 DUP4 PUSH1 0x10 SLOAD PUSH2 0x309C JUMP JUMPDEST PUSH1 0x10 SSTORE DUP6 PUSH1 0x0 MSTORE PUSH1 0x11 DUP6 MSTORE PUSH1 0x40 PUSH1 0x0 KECCAK256 SWAP1 PUSH1 0x2 DUP3 ADD SLOAD SWAP5 PUSH1 0x0 SWAP9 PUSH1 0x7 PUSH1 0x6 DUP6 ADD SWAP5 ADD SWAP10 JUMPDEST DUP5 SLOAD DUP2 LT ISZERO PUSH2 0x18DF JUMPI DUP1 DUP14 PUSH2 0x182C PUSH2 0x1863 SWAP4 DUP9 PUSH2 0x2EC3 JUMP JUMPDEST SWAP1 SLOAD SWAP1 DUP10 SHL SHR AND DUP1 PUSH1 0x0 MSTORE DUP13 DUP12 MSTORE DUP12 PUSH2 0x1853 DUP12 PUSH2 0x184E PUSH1 0x40 PUSH1 0x0 KECCAK256 SLOAD DUP14 PUSH2 0x3102 JUMP JUMPDEST PUSH2 0x3115 JUMP JUMPDEST DUP13 DUP2 PUSH2 0x1868 JUMPI JUMPDEST POP POP POP POP PUSH2 0x30A9 JUMP JUMPDEST PUSH2 0x1814 JUMP JUMPDEST PUSH32 0xE3E6AE1E05F069D410556743894AACBB190C1431962422EBE8FCC642A467DD16 SWAP2 DUP5 PUSH1 0x0 MSTORE PUSH1 0x14 DUP3 MSTORE PUSH1 0x40 PUSH1 0x0 KECCAK256 DUP1 SLOAD DUP1 DUP4 GT PUSH2 0x18D7 JUMPI JUMPDEST DUP3 PUSH2 0x18AB SWAP2 PUSH2 0x2FE8 JUMP JUMPDEST SWAP1 SSTORE DUP5 PUSH1 0x0 MSTORE PUSH1 0xB DUP3 MSTORE PUSH1 0x40 PUSH1 0x0 KECCAK256 PUSH2 0x18C5 DUP3 DUP3 SLOAD PUSH2 0x309C JUMP JUMPDEST SWAP1 SSTORE PUSH1 0x40 MLOAD SWAP1 DUP2 MSTORE LOG3 DUP15 DUP12 DUP2 DUP13 PUSH2 0x185A JUMP JUMPDEST SWAP2 POP DUP2 PUSH2 0x18A1 JUMP JUMPDEST POP DUP9 DUP9 SWAP2 DUP13 DUP9 CALLER PUSH1 0x0 MSTORE PUSH1 0xC DUP6 MSTORE PUSH1 0x40 PUSH1 0x0 KECCAK256 SLOAD PUSH1 0x40 MLOAD SWAP2 DUP3 MSTORE DUP6 DUP3 ADD MSTORE PUSH32 0x1B8CD61ED43BEC7C6BDAD3A18FFEE613F99C853D16C50678D248D879E1B43438 PUSH1 0x40 CALLER SWAP3 LOG2 DUP1 DUP3 SLOAD PUSH1 0x28 SHR AND DUP4 PUSH32 0x406356EF25520B09E2EF87C5225167B4161EA4AB691E9434D6EE29EAFCC83FC2 DUP7 PUSH1 0x40 MLOAD DUP5 DUP2 MSTORE LOG2 PUSH32 0x17F13FD3F7C4712AF33F1770EBCB822DD20A2DBC00850EAB48D786623D97B959 DUP6 PUSH1 0xF SLOAD PUSH1 0x40 MLOAD SWAP1 DUP2 MSTORE LOG1 PUSH1 0x0 DUP1 MLOAD PUSH1 0x20 PUSH2 0x33C9 DUP4 CODECOPY DUP2 MLOAD SWAP2 MSTORE DUP6 PUSH1 0x10 SLOAD PUSH1 0x40 MLOAD SWAP1 DUP2 MSTORE LOG1 PUSH1 0x0 NOT ADD DUP2 DUP2 GT PUSH2 0x1A6C JUMPI DUP3 SLOAD PUSH9 0xFFFFFFFF0000000000 NOT AND PUSH1 0x28 SWAP2 SWAP1 SWAP2 SHL PUSH9 0xFFFFFFFF0000000000 AND OR DUP3 SSTORE DUP2 SLOAD SWAP1 DUP2 PUSH1 0x28 SHR AND ISZERO PUSH2 0x1A36 JUMPI JUMPDEST POP POP POP DUP3 EXTCODESIZE ISZERO PUSH2 0x2A6 JUMPI PUSH1 0x64 PUSH1 0x0 SWAP3 PUSH4 0x3D1A1A1 SWAP5 PUSH1 0x40 MLOAD SWAP6 DUP7 SWAP5 DUP6 SWAP4 PUSH4 0xE63DD531 PUSH1 0xE0 SHL DUP6 MSTORE PUSH1 0x2 PUSH1 0x4 DUP7 ADD MSTORE CALLER SWAP1 DUP6 ADD MSTORE ADDRESS SWAP1 SHL OR PUSH1 0x40 SHL PUSH1 0x44 DUP4 ADD MSTORE GAS DELEGATECALL DUP1 ISZERO PUSH2 0x2B3 JUMPI PUSH2 0x1A27 JUMPI PUSH1 0x1 PUSH1 0x0 SSTORE STOP JUMPDEST PUSH2 0x1A30 SWAP1 PUSH2 0x2EDB JUMP JUMPDEST DUP1 PUSH2 0xFA7 JUMP JUMPDEST PUSH1 0xFF NOT AND PUSH1 0x2 OR SWAP1 SSTORE PUSH32 0x2CA5489B37DD363D1302BAC719E8EE40E540FFBE8C12253570FEA63E11CAD71 PUSH1 0x0 DUP1 LOG2 DUP4 DUP1 DUP1 PUSH2 0x19D5 JUMP JUMPDEST DUP6 PUSH4 0x4E487B71 PUSH1 0xE0 SHL PUSH1 0x0 MSTORE PUSH1 0x11 PUSH1 0x4 MSTORE PUSH1 0x0 REVERT JUMPDEST PUSH2 0x1A98 SWAP2 POP DUP7 RETURNDATASIZE DUP9 GT PUSH2 0xA94 JUMPI PUSH2 0xA86 DUP2 DUP4 PUSH2 0x2F29 JUMP JUMPDEST DUP11 PUSH2 0x17B2 JUMP JUMPDEST PUSH2 0x1AA7 SWAP1 PUSH2 0x2EDB JUMP JUMPDEST DUP12 PUSH2 0x174D JUMP JUMPDEST PUSH2 0x1AC4 SWAP2 POP DUP10 RETURNDATASIZE DUP12 GT PUSH2 0xA53 JUMPI PUSH2 0xA44 DUP2 DUP4 PUSH2 0x2F29 JUMP JUMPDEST DUP14 PUSH2 0x170C JUMP JUMPDEST DUP11 PUSH1 0x1 SLOAD AND SWAP2 PUSH1 0x40 MLOAD PUSH4 0x4E5ECF13 PUSH1 0xE0 SHL DUP2 MSTORE DUP9 DUP2 PUSH1 0x4 DUP2 DUP8 GAS STATICCALL SWAP1 DUP2 ISZERO PUSH2 0x2B3 JUMPI PUSH1 0x0 SWAP2 PUSH2 0x1B4B JUMPI JUMPDEST POP DUP4 EXTCODESIZE ISZERO PUSH2 0x2A6 JUMPI PUSH1 0x64 PUSH1 0x0 SWAP3 DUP4 PUSH1 0x40 MLOAD SWAP7 DUP8 SWAP5 DUP6 SWAP4 PUSH4 0x533DFA35 PUSH1 0xE0 SHL DUP6 MSTORE PUSH1 0x4 DUP6 ADD MSTORE DUP11 SIGNEXTEND DUP13 DUP5 ADD MSTORE PUSH1 0x1 PUSH1 0x44 DUP5 ADD MSTORE GAS CALL SWAP2 DUP3 ISZERO PUSH2 0x2B3 JUMPI DUP5 SWAP3 PUSH2 0x1B3C JUMPI JUMPDEST POP PUSH2 0x174F JUMP JUMPDEST PUSH2 0x1B45 SWAP1 PUSH2 0x2EDB JUMP JUMPDEST DUP12 PUSH2 0x1B36 JUMP JUMPDEST PUSH2 0x1B62 SWAP2 POP DUP10 RETURNDATASIZE DUP12 GT PUSH2 0xA53 JUMPI PUSH2 0xA44 DUP2 DUP4 PUSH2 0x2F29 JUMP JUMPDEST DUP14 PUSH2 0x1AF4 JUMP JUMPDEST PUSH2 0x1B7E SWAP1 DUP6 RETURNDATASIZE DUP8 GT PUSH2 0xA94 JUMPI PUSH2 0xA86 DUP2 DUP4 PUSH2 0x2F29 JUMP JUMPDEST POP DUP9 PUSH2 0x1695 JUMP JUMPDEST PUSH1 0x40 MLOAD PUSH4 0xB5AB5BF PUSH1 0xE4 SHL DUP2 MSTORE PUSH1 0x4 SWAP1 REVERT JUMPDEST POP PUSH1 0x1 SLOAD PUSH1 0x40 MLOAD PUSH4 0x2CC52B15 PUSH1 0xE1 SHL DUP2 MSTORE CALLER PUSH1 0x4 DUP3 ADD MSTORE SWAP1 PUSH1 0x20 SWAP1 DUP3 SWAP1 DUP5 SWAP1 DUP3 SWAP1 PUSH1 0x1 PUSH1 0x1 PUSH1 0xA0 SHL SUB AND GAS STATICCALL SWAP1 DUP2 ISZERO PUSH2 0x2B3 JUMPI PUSH1 0x0 SWAP2 PUSH2 0x1BD9 JUMPI JUMPDEST POP ISZERO PUSH2 0x15EE JUMP JUMPDEST PUSH2 0x1BF1 SWAP2 POP PUSH1 0x20 RETURNDATASIZE DUP2 GT PUSH2 0xA94 JUMPI PUSH2 0xA86 DUP2 DUP4 PUSH2 0x2F29 JUMP JUMPDEST DUP7 PUSH2 0x1BD2 JUMP JUMPDEST CALLVALUE PUSH2 0x2A6 JUMPI PUSH1 0x20 CALLDATASIZE PUSH1 0x3 NOT ADD SLT PUSH2 0x2A6 JUMPI PUSH1 0x4 CALLDATALOAD PUSH1 0x0 MSTORE PUSH1 0x11 PUSH1 0x20 MSTORE PUSH2 0x15B8 PUSH2 0x1C26 PUSH1 0x6 PUSH1 0x40 PUSH1 0x0 KECCAK256 ADD PUSH2 0x336E JUMP JUMPDEST PUSH1 0x40 MLOAD SWAP2 DUP3 SWAP2 PUSH1 0x20 DUP4 MSTORE PUSH1 0x20 DUP4 ADD SWAP1 PUSH2 0x2D78 JUMP JUMPDEST CALLVALUE PUSH2 0x2A6 JUMPI PUSH1 0x0 CALLDATASIZE PUSH1 0x3 NOT ADD SLT PUSH2 0x2A6 JUMPI PUSH1 0x20 PUSH1 0x12 SLOAD PUSH1 0x40 MLOAD SWAP1 DUP2 MSTORE RETURN JUMPDEST CALLVALUE PUSH2 0x2A6 JUMPI PUSH1 0x20 CALLDATASIZE PUSH1 0x3 NOT ADD SLT PUSH2 0x2A6 JUMPI PUSH1 0x20 PUSH2 0x1C7B PUSH2 0x1C76 PUSH2 0x2C8A JUMP JUMPDEST PUSH2 0x304B JUMP JUMPDEST PUSH1 0x40 MLOAD SWAP1 DUP2 MSTORE RETURN JUMPDEST CALLVALUE PUSH2 0x2A6 JUMPI PUSH1 0x0 CALLDATASIZE PUSH1 0x3 NOT ADD SLT PUSH2 0x2A6 JUMPI PUSH1 0x40 MLOAD PUSH4 0x404B48BF PUSH1 0xE0 SHL DUP2 MSTORE PUSH1 0x2 PUSH1 0x4 DUP3 ADD MSTORE PUSH1 0x0 DUP2 PUSH1 0x24 DUP2 PUSH20 0x0 GAS DELEGATECALL DUP1 ISZERO PUSH2 0x2B3 JUMPI PUSH2 0x15B8 SWAP2 PUSH1 0x0 SWAP2 PUSH2 0x1CEC JUMPI JUMPDEST POP PUSH1 0x40 MLOAD SWAP2 DUP3 SWAP2 PUSH1 0x20 DUP4 MSTORE PUSH1 0x20 DUP4 ADD SWAP1 PUSH2 0x2D78 JUMP JUMPDEST PUSH2 0x1D09 SWAP2 POP RETURNDATASIZE DUP1 PUSH1 0x0 DUP4 RETURNDATACOPY PUSH2 0x1D01 DUP2 DUP4 PUSH2 0x2F29 JUMP JUMPDEST DUP2 ADD SWAP1 PUSH2 0x31BA JUMP JUMPDEST DUP3 PUSH2 0x1CD7 JUMP JUMPDEST CALLVALUE PUSH2 0x2A6 JUMPI PUSH1 0x20 CALLDATASIZE PUSH1 0x3 NOT ADD SLT PUSH2 0x2A6 JUMPI PUSH1 0x1 PUSH1 0x1 PUSH1 0xA0 SHL SUB PUSH2 0x1D30 PUSH2 0x2C8A JUMP JUMPDEST AND PUSH1 0x0 MSTORE PUSH1 0x14 PUSH1 0x20 MSTORE PUSH1 0x20 PUSH1 0x40 PUSH1 0x0 KECCAK256 SLOAD PUSH1 0x40 MLOAD SWAP1 DUP2 MSTORE RETURN JUMPDEST CALLVALUE PUSH2 0x2A6 JUMPI PUSH1 0x20 CALLDATASIZE PUSH1 0x3 NOT ADD SLT PUSH2 0x2A6 JUMPI PUSH2 0x1D62 PUSH2 0x2DC8 JUMP JUMPDEST PUSH1 0x1 SLOAD PUSH1 0x40 MLOAD PUSH4 0x2076C8A1 PUSH1 0xE2 SHL DUP2 MSTORE PUSH4 0xFFFFFFFF SWAP3 SWAP1 SWAP3 AND PUSH1 0x4 DUP4 ADD MSTORE PUSH1 0x20 SWAP1 DUP3 SWAP1 PUSH1 0x24 SWAP1 DUP3 SWAP1 PUSH1 0x1 PUSH1 0x1 PUSH1 0xA0 SHL SUB AND GAS STATICCALL DUP1 ISZERO PUSH2 0x2B3 JUMPI PUSH1 0x20 SWAP2 PUSH1 0x0 SWAP2 PUSH2 0x1DB2 JUMPI JUMPDEST POP PUSH1 0x40 MLOAD SWAP1 PUSH1 0x3 SIGNEXTEND DUP2 MSTORE RETURN JUMPDEST PUSH2 0x1DC9 SWAP2 POP DUP3 RETURNDATASIZE DUP2 GT PUSH2 0xA53 JUMPI PUSH2 0xA44 DUP2 DUP4 PUSH2 0x2F29 JUMP JUMPDEST DUP3 PUSH2 0x1DA6 JUMP JUMPDEST PUSH2 0x2DEE JUMP JUMPDEST CALLVALUE PUSH2 0x2A6 JUMPI PUSH1 0x20 CALLDATASIZE PUSH1 0x3 NOT ADD SLT PUSH2 0x2A6 JUMPI PUSH1 0x4 CALLDATALOAD PUSH1 0x0 MSTORE PUSH1 0x16 PUSH1 0x20 MSTORE PUSH2 0x15B8 PUSH2 0x159D PUSH2 0x15A4 PUSH1 0x4 PUSH1 0x40 PUSH1 0x0 KECCAK256 ADD PUSH1 0x40 MLOAD SWAP3 DUP4 DUP1 SWAP3 PUSH2 0x317D JUMP JUMPDEST CALLVALUE PUSH2 0x2A6 JUMPI PUSH1 0x0 CALLDATASIZE PUSH1 0x3 NOT ADD SLT PUSH2 0x2A6 JUMPI PUSH1 0x40 MLOAD PUSH4 0xF28E2C2F PUSH1 0xE0 SHL DUP2 MSTORE PUSH1 0x2 PUSH1 0x4 DUP3 ADD MSTORE PUSH1 0x20 DUP2 PUSH1 0x24 DUP2 PUSH20 0x0 GAS DELEGATECALL DUP1 ISZERO PUSH2 0x2B3 JUMPI PUSH1 0x20 SWAP2 PUSH1 0x0 SWAP2 PUSH2 0x140C JUMPI POP PUSH1 0x40 MLOAD SWAP1 ISZERO ISZERO DUP2 MSTORE RETURN JUMPDEST CALLVALUE PUSH2 0x2A6 JUMPI PUSH1 0x0 CALLDATASIZE PUSH1 0x3 NOT ADD SLT PUSH2 0x2A6 JUMPI PUSH1 0x20 PUSH1 0xE SLOAD PUSH1 0x40 MLOAD SWAP1 DUP2 MSTORE RETURN JUMPDEST CALLVALUE PUSH2 0x2A6 JUMPI PUSH1 0x0 CALLDATASIZE PUSH1 0x3 NOT ADD SLT PUSH2 0x2A6 JUMPI PUSH1 0x1 SLOAD PUSH1 0x40 MLOAD PUSH1 0x1 PUSH1 0x1 PUSH1 0xA0 SHL SUB SWAP1 SWAP2 AND DUP2 MSTORE PUSH1 0x20 SWAP1 RETURN JUMPDEST CALLVALUE PUSH2 0x2A6 JUMPI PUSH1 0x20 CALLDATASIZE PUSH1 0x3 NOT ADD SLT PUSH2 0x2A6 JUMPI PUSH1 0x1 PUSH1 0x1 PUSH1 0xA0 SHL SUB PUSH2 0x1ED2 PUSH2 0x2C8A JUMP JUMPDEST AND PUSH1 0x0 MSTORE PUSH1 0xD PUSH1 0x20 MSTORE PUSH1 0x20 PUSH1 0x40 PUSH1 0x0 KECCAK256 SLOAD PUSH1 0x40 MLOAD SWAP1 DUP2 MSTORE RETURN JUMPDEST CALLVALUE PUSH2 0x2A6 JUMPI PUSH1 0x20 CALLDATASIZE PUSH1 0x3 NOT ADD SLT PUSH2 0x2A6 JUMPI PUSH1 0x40 PUSH2 0x1F09 PUSH1 0x4 CALLDATALOAD PUSH2 0x331C JUMP JUMPDEST DUP3 MLOAD SWAP2 DUP3 MSTORE ISZERO ISZERO PUSH1 0x20 DUP3 ADD MSTORE RETURN JUMPDEST CALLVALUE PUSH2 0x2A6 JUMPI PUSH1 0x40 CALLDATASIZE PUSH1 0x3 NOT ADD SLT PUSH2 0x2A6 JUMPI PUSH1 0x4 CALLDATALOAD PUSH4 0xFFFFFFFF PUSH2 0x1F38 PUSH2 0x2DB5 JUMP JUMPDEST AND ISZERO DUP1 ISZERO PUSH2 0x2118 JUMPI JUMPDEST PUSH2 0xCF3 JUMPI DUP1 ISZERO PUSH2 0x1025 JUMPI PUSH2 0x1F53 PUSH2 0x2FF5 JUMP JUMPDEST PUSH1 0x40 MLOAD PUSH4 0xC47AB3D PUSH1 0xE2 SHL DUP2 MSTORE PUSH1 0x20 SWAP1 DUP2 DUP2 DUP1 PUSH2 0x1F73 ADDRESS PUSH1 0x4 DUP4 ADD PUSH2 0x2F63 JUMP JUMPDEST SUB DUP2 PUSH20 0x0 GAS DELEGATECALL DUP1 ISZERO PUSH2 0x2B3 JUMPI PUSH2 0x20FB JUMPI JUMPDEST POP PUSH2 0x1FA1 CALLER PUSH2 0x304B JUMP JUMPDEST DUP3 GT PUSH2 0x20E9 JUMPI CALLER PUSH1 0x0 MSTORE PUSH1 0xB DUP2 MSTORE PUSH1 0x40 PUSH1 0x0 KECCAK256 PUSH2 0x1FBF DUP4 DUP3 SLOAD PUSH2 0x2FE8 JUMP JUMPDEST SWAP1 SSTORE PUSH2 0x1FCD DUP3 PUSH1 0xE SLOAD PUSH2 0x2FE8 JUMP JUMPDEST PUSH1 0xE SSTORE PUSH2 0x1FDC DUP3 PUSH1 0x10 SLOAD PUSH2 0x2FE8 JUMP JUMPDEST PUSH1 0x10 SSTORE PUSH1 0x40 MLOAD PUSH4 0xA9059CBB PUSH1 0xE0 SHL DUP2 MSTORE CALLER PUSH1 0x4 DUP3 ADD MSTORE PUSH1 0x24 DUP2 ADD DUP4 SWAP1 MSTORE DUP2 DUP2 PUSH1 0x44 DUP2 PUSH1 0x0 PUSH1 0x1 PUSH1 0x1 PUSH1 0xA0 SHL SUB PUSH32 0x0 AND GAS CALL SWAP1 DUP2 ISZERO PUSH2 0x2B3 JUMPI PUSH1 0x0 SWAP2 PUSH2 0x20CC JUMPI JUMPDEST POP ISZERO PUSH2 0xA5A JUMPI PUSH1 0x0 DUP1 MLOAD PUSH1 0x20 PUSH2 0x33C9 DUP4 CODECOPY DUP2 MLOAD SWAP2 MSTORE SWAP2 CALLER PUSH1 0x0 MSTORE PUSH1 0xB DUP3 MSTORE PUSH1 0x40 PUSH1 0x0 KECCAK256 SLOAD PUSH1 0x40 MLOAD SWAP2 DUP3 MSTORE DUP3 DUP3 ADD MSTORE PUSH32 0x92CCF450A286A957AF52509BC1C9939D1A6A481783E142E41E2499F0BB66EBC6 PUSH1 0x40 CALLER SWAP3 LOG2 PUSH32 0xDC6E73D4B36E22AB95945BD8833A5AF96C950EB29D8D75C4AECFFC987637AAAB DUP2 PUSH1 0xE SLOAD PUSH1 0x40 MLOAD SWAP1 DUP2 MSTORE LOG1 PUSH1 0x10 SLOAD PUSH1 0x40 MLOAD SWAP1 DUP2 MSTORE LOG1 PUSH1 0x1 PUSH1 0x0 SSTORE STOP JUMPDEST PUSH2 0x20E3 SWAP2 POP DUP3 RETURNDATASIZE DUP5 GT PUSH2 0xA94 JUMPI PUSH2 0xA86 DUP2 DUP4 PUSH2 0x2F29 JUMP JUMPDEST DUP4 PUSH2 0x203B JUMP JUMPDEST PUSH1 0x40 MLOAD PUSH4 0x2C6F547 PUSH1 0xE2 SHL DUP2 MSTORE PUSH1 0x4 SWAP1 REVERT JUMPDEST PUSH2 0x2111 SWAP1 DUP3 RETURNDATASIZE DUP5 GT PUSH2 0xA94 JUMPI PUSH2 0xA86 DUP2 DUP4 PUSH2 0x2F29 JUMP JUMPDEST POP DUP3 PUSH2 0x1F97 JUMP JUMPDEST POP PUSH1 0x1 SLOAD PUSH1 0x40 MLOAD PUSH4 0x2CC52B15 PUSH1 0xE1 SHL DUP2 MSTORE CALLER PUSH1 0x4 DUP3 ADD MSTORE SWAP1 PUSH1 0x20 SWAP1 DUP3 SWAP1 PUSH1 0x24 SWAP1 DUP3 SWAP1 PUSH1 0x1 PUSH1 0x1 PUSH1 0xA0 SHL SUB AND GAS STATICCALL SWAP1 DUP2 ISZERO PUSH2 0x2B3 JUMPI PUSH1 0x0 SWAP2 PUSH2 0x215B JUMPI JUMPDEST POP ISZERO PUSH2 0x1F41 JUMP JUMPDEST PUSH2 0x2173 SWAP2 POP PUSH1 0x20 RETURNDATASIZE DUP2 GT PUSH2 0xA94 JUMPI PUSH2 0xA86 DUP2 DUP4 PUSH2 0x2F29 JUMP JUMPDEST DUP3 PUSH2 0x2154 JUMP JUMPDEST CALLVALUE PUSH2 0x2A6 JUMPI PUSH1 0x20 CALLDATASIZE PUSH1 0x3 NOT ADD SLT PUSH2 0x2A6 JUMPI PUSH2 0x2192 PUSH2 0x2C8A JUMP JUMPDEST PUSH1 0x1 SLOAD PUSH1 0x40 MLOAD PUSH4 0x2CC52B15 PUSH1 0xE1 SHL DUP2 MSTORE PUSH1 0x1 PUSH1 0x1 PUSH1 0xA0 SHL SUB SWAP3 DUP4 AND PUSH1 0x4 DUP3 ADD MSTORE SWAP2 PUSH1 0x20 SWAP2 DUP4 SWAP2 PUSH1 0x24 SWAP2 DUP4 SWAP2 AND GAS STATICCALL DUP1 ISZERO PUSH2 0x2B3 JUMPI PUSH1 0x20 SWAP2 PUSH1 0x0 SWAP2 PUSH2 0x140C JUMPI POP PUSH1 0x40 MLOAD SWAP1 ISZERO ISZERO DUP2 MSTORE RETURN JUMPDEST CALLVALUE PUSH2 0x2A6 JUMPI PUSH1 0x40 CALLDATASIZE PUSH1 0x3 NOT ADD SLT PUSH2 0x2A6 JUMPI PUSH2 0x21F4 PUSH2 0x2CA0 JUMP JUMPDEST PUSH1 0x4 CALLDATALOAD PUSH1 0x0 MSTORE PUSH1 0x11 PUSH1 0x20 MSTORE PUSH1 0x7 PUSH1 0x40 PUSH1 0x0 KECCAK256 ADD SWAP1 PUSH1 0x1 DUP1 PUSH1 0xA0 SHL SUB AND PUSH1 0x0 MSTORE PUSH1 0x20 MSTORE PUSH1 0x20 PUSH1 0x40 PUSH1 0x0 KECCAK256 SLOAD PUSH1 0x40 MLOAD SWAP1 DUP2 MSTORE RETURN JUMPDEST CALLVALUE PUSH2 0x2A6 JUMPI PUSH1 0x20 CALLDATASIZE PUSH1 0x3 NOT ADD SLT PUSH2 0x2A6 JUMPI PUSH1 0x1 PUSH1 0x1 PUSH1 0xA0 SHL SUB PUSH2 0x2247 PUSH2 0x2C8A JUMP JUMPDEST AND PUSH1 0x0 MSTORE PUSH1 0xB PUSH1 0x20 MSTORE PUSH1 0x20 PUSH1 0x40 PUSH1 0x0 KECCAK256 SLOAD PUSH1 0x40 MLOAD SWAP1 DUP2 MSTORE RETURN JUMPDEST CALLVALUE PUSH2 0x2A6 JUMPI PUSH1 0x20 CALLDATASIZE PUSH1 0x3 NOT ADD SLT PUSH2 0x2A6 JUMPI PUSH2 0x2279 PUSH2 0x3244 JUMP JUMPDEST POP PUSH1 0x4 CALLDATALOAD PUSH1 0x0 MSTORE PUSH1 0x16 PUSH1 0x20 MSTORE PUSH2 0x15B8 PUSH2 0x2295 PUSH1 0x40 PUSH1 0x0 KECCAK256 PUSH2 0x3281 JUMP JUMPDEST PUSH1 0x40 MLOAD SWAP2 DUP3 SWAP2 PUSH1 0x20 DUP4 MSTORE PUSH1 0x20 DUP4 ADD SWAP1 PUSH2 0x2CF4 JUMP JUMPDEST CALLVALUE PUSH2 0x2A6 JUMPI PUSH1 0x20 CALLDATASIZE PUSH1 0x3 NOT ADD SLT PUSH2 0x2A6 JUMPI PUSH2 0x22C2 PUSH2 0x2C8A JUMP JUMPDEST PUSH1 0x40 MLOAD PUSH4 0xB79B0A1 PUSH1 0xE2 SHL DUP2 MSTORE PUSH1 0x2 PUSH1 0x4 DUP3 ADD MSTORE PUSH1 0x1 PUSH1 0x1 PUSH1 0xA0 SHL SUB SWAP1 SWAP2 AND PUSH1 0x24 DUP3 ADD MSTORE PUSH1 0x20 DUP2 PUSH1 0x44 DUP2 PUSH20 0x0 GAS DELEGATECALL DUP1 ISZERO PUSH2 0x2B3 JUMPI PUSH1 0x20 SWAP2 PUSH1 0x0 SWAP2 PUSH2 0x140C JUMPI POP PUSH1 0x40 MLOAD SWAP1 ISZERO ISZERO DUP2 MSTORE RETURN JUMPDEST CALLVALUE PUSH2 0x2A6 JUMPI PUSH1 0x20 CALLDATASIZE PUSH1 0x3 NOT ADD SLT PUSH2 0x2A6 JUMPI PUSH1 0x4 CALLDATALOAD PUSH1 0x0 MSTORE PUSH1 0x16 PUSH1 0x20 MSTORE PUSH1 0xA0 PUSH1 0x40 PUSH1 0x0 KECCAK256 PUSH1 0x11 PUSH1 0x20 MSTORE PUSH1 0x40 PUSH1 0x0 KECCAK256 SWAP1 PUSH1 0x2 DUP2 ADD SLOAD SWAP2 PUSH1 0xFF DUP4 AND PUSH2 0x235F DUP2 PUSH2 0x2CB6 JUMP JUMPDEST ISZERO DUP1 PUSH2 0x23C9 JUMPI JUMPDEST ISZERO PUSH2 0x23B1 JUMPI PUSH1 0x3 PUSH4 0xFFFFFFFF DUP1 SWAP5 PUSH1 0x28 SHR AND SWAP3 ADD SLOAD SWAP3 PUSH1 0x8 PUSH2 0x2388 DUP6 DUP6 PUSH2 0x3102 JUMP JUMPDEST SWAP5 SWAP4 SWAP3 ADD SLOAD AND SWAP1 PUSH1 0x1 SWAP3 JUMPDEST PUSH1 0x40 MLOAD SWAP5 DUP6 MSTORE PUSH1 0x20 DUP6 ADD MSTORE PUSH1 0x40 DUP5 ADD MSTORE PUSH1 0x60 DUP4 ADD MSTORE ISZERO ISZERO PUSH1 0x80 DUP3 ADD MSTORE RETURN JUMPDEST PUSH1 0x8 ADD SLOAD PUSH1 0x0 SWAP3 POP DUP3 SWAP2 POP PUSH4 0xFFFFFFFF AND DUP2 DUP1 PUSH2 0x2393 JUMP JUMPDEST POP PUSH4 0xFFFFFFFF DUP4 PUSH1 0x28 SHR AND ISZERO ISZERO PUSH2 0x2366 JUMP JUMPDEST CALLVALUE PUSH2 0x2A6 JUMPI PUSH1 0x20 CALLDATASIZE PUSH1 0x3 NOT ADD SLT PUSH2 0x2A6 JUMPI PUSH1 0x4 CALLDATALOAD PUSH1 0x0 MSTORE PUSH1 0x16 PUSH1 0x20 MSTORE PUSH1 0xC0 PUSH1 0x40 PUSH1 0x0 KECCAK256 PUSH1 0x1 DUP1 PUSH1 0xA0 SHL SUB DUP2 SLOAD AND SWAP1 PUSH1 0x1 DUP2 ADD SLOAD SWAP1 PUSH1 0x2 DUP2 ADD SLOAD SWAP1 PUSH1 0x3 PUSH1 0xFF DUP4 AND SWAP2 ADD SLOAD SWAP3 PUSH1 0x40 MLOAD SWAP5 DUP6 MSTORE PUSH1 0x20 DUP6 ADD MSTORE PUSH2 0x2433 DUP2 PUSH2 0x2CB6 JUMP JUMPDEST PUSH1 0x40 DUP5 ADD MSTORE PUSH4 0xFFFFFFFF SWAP1 DUP2 DUP2 PUSH1 0x8 SHR AND PUSH1 0x60 DUP6 ADD MSTORE PUSH1 0x28 SHR AND PUSH1 0x80 DUP4 ADD MSTORE PUSH1 0xA0 DUP3 ADD MSTORE RETURN JUMPDEST CALLVALUE PUSH2 0x2A6 JUMPI PUSH1 0x40 CALLDATASIZE PUSH1 0x3 NOT ADD SLT PUSH2 0x2A6 JUMPI PUSH2 0x2472 PUSH2 0x2DC8 JUMP JUMPDEST PUSH2 0x247A PUSH2 0x2CA0 JUMP JUMPDEST PUSH1 0x1 SLOAD SWAP1 SWAP2 SWAP1 PUSH1 0x1 PUSH1 0x1 PUSH1 0xA0 SHL SUB SWAP1 DUP2 AND DUP1 EXTCODESIZE ISZERO PUSH2 0x2A6 JUMPI PUSH1 0x0 SWAP3 DUP4 PUSH1 0x44 SWAP3 PUSH4 0xFFFFFFFF SWAP5 PUSH1 0x40 MLOAD SWAP8 DUP9 SWAP7 DUP8 SWAP6 PUSH4 0x86ECC79 PUSH1 0xE2 SHL DUP8 MSTORE AND PUSH1 0x4 DUP7 ADD MSTORE AND PUSH1 0x24 DUP5 ADD MSTORE GAS CALL DUP1 ISZERO PUSH2 0x2B3 JUMPI PUSH2 0x12C5 JUMPI STOP JUMPDEST CALLVALUE PUSH2 0x2A6 JUMPI PUSH1 0x20 CALLDATASIZE PUSH1 0x3 NOT ADD SLT PUSH2 0x2A6 JUMPI PUSH1 0x0 PUSH2 0x120 PUSH1 0x40 MLOAD PUSH2 0x24ED DUP2 PUSH2 0x2EEF JUMP JUMPDEST DUP3 DUP2 MSTORE DUP3 PUSH1 0x20 DUP3 ADD MSTORE DUP3 PUSH1 0x40 DUP3 ADD MSTORE DUP3 PUSH1 0x60 DUP3 ADD MSTORE DUP3 PUSH1 0x80 DUP3 ADD MSTORE DUP3 PUSH1 0xA0 DUP3 ADD MSTORE DUP3 PUSH1 0xC0 DUP3 ADD MSTORE DUP3 PUSH1 0xE0 DUP3 ADD MSTORE PUSH1 0x60 PUSH2 0x100 DUP3 ADD MSTORE ADD MSTORE PUSH1 0x4 CALLDATALOAD PUSH1 0x0 MSTORE PUSH1 0x11 PUSH1 0x20 MSTORE PUSH1 0x40 PUSH1 0x0 KECCAK256 DUP1 SLOAD SWAP1 PUSH1 0x1 DUP1 PUSH1 0xA0 SHL SUB PUSH1 0x1 DUP3 ADD SLOAD AND SWAP1 PUSH1 0x2 DUP2 ADD SLOAD PUSH1 0x3 DUP3 ADD SLOAD SWAP2 PUSH1 0xFF DUP4 PUSH1 0x40 SHR AND SWAP2 PUSH4 0xFFFFFFFF PUSH1 0x4 DUP4 ADD SLOAD SWAP5 PUSH1 0x5 DUP5 ADD SLOAD SWAP3 DUP3 PUSH1 0x8 DUP7 ADD SLOAD AND SWAP8 PUSH1 0x40 MLOAD SWAP10 PUSH2 0x257E DUP12 PUSH2 0x2EEF JUMP JUMPDEST DUP11 MSTORE PUSH1 0x20 DUP11 ADD MSTORE PUSH1 0x40 DUP10 ADD MSTORE DUP2 DUP2 AND PUSH1 0x60 DUP10 ADD MSTORE PUSH1 0x20 SHR AND PUSH1 0x80 DUP8 ADD MSTORE PUSH1 0x6 DUP4 LT ISZERO PUSH2 0xCA9 JUMPI PUSH2 0x25C0 SWAP4 PUSH1 0x6 SWAP4 PUSH1 0xA0 DUP9 ADD MSTORE PUSH1 0xC0 DUP8 ADD MSTORE PUSH1 0xE0 DUP7 ADD MSTORE ADD PUSH2 0x336E JUMP JUMPDEST PUSH2 0x100 DUP4 ADD MSTORE PUSH2 0x120 DUP3 ADD MSTORE PUSH1 0x40 MLOAD SWAP1 PUSH1 0x20 DUP3 MSTORE DUP1 MLOAD PUSH1 0x20 DUP4 ADD MSTORE PUSH1 0x1 DUP1 PUSH1 0xA0 SHL SUB PUSH1 0x20 DUP3 ADD MLOAD AND PUSH1 0x40 DUP4 ADD MSTORE PUSH1 0x40 DUP2 ADD MLOAD PUSH1 0x60 DUP4 ADD MSTORE PUSH4 0xFFFFFFFF PUSH1 0x60 DUP3 ADD MLOAD AND PUSH1 0x80 DUP4 ADD MSTORE PUSH4 0xFFFFFFFF PUSH1 0x80 DUP3 ADD MLOAD AND PUSH1 0xA0 DUP4 ADD MSTORE PUSH1 0xA0 DUP2 ADD MLOAD SWAP1 PUSH1 0x6 DUP3 LT ISZERO PUSH2 0xCA9 JUMPI DUP3 SWAP2 PUSH1 0xC0 DUP4 ADD MSTORE PUSH1 0xC0 DUP2 ADD MLOAD PUSH1 0xE0 DUP4 ADD MSTORE PUSH1 0xE0 DUP2 ADD MLOAD PUSH2 0x100 DUP4 ADD MSTORE PUSH2 0x100 DUP2 ADD MLOAD PUSH4 0xFFFFFFFF PUSH2 0x120 PUSH2 0x2667 PUSH2 0x140 SWAP4 DUP5 DUP4 DUP9 ADD MSTORE PUSH2 0x160 DUP8 ADD SWAP1 PUSH2 0x2D78 JUMP JUMPDEST SWAP4 ADD MLOAD AND SWAP1 DUP4 ADD MSTORE SUB SWAP1 RETURN JUMPDEST CALLVALUE PUSH2 0x2A6 JUMPI PUSH1 0xA0 CALLDATASIZE PUSH1 0x3 NOT ADD SLT PUSH2 0x2A6 JUMPI PUSH1 0x4 CALLDATALOAD PUSH2 0x268F PUSH2 0x2DB5 JUMP JUMPDEST SWAP1 PUSH1 0x64 CALLDATALOAD SWAP1 PUSH4 0xFFFFFFFF SWAP2 DUP3 DUP2 AND DUP1 SWAP2 SUB PUSH2 0x2A6 JUMPI PUSH1 0x84 CALLDATALOAD SWAP3 DUP1 DUP5 AND DUP1 SWAP5 SUB PUSH2 0x2A6 JUMPI DUP4 PUSH1 0x0 MSTORE PUSH1 0x20 SWAP5 PUSH1 0x15 DUP7 MSTORE PUSH1 0x3 DUP3 PUSH1 0x40 PUSH1 0x0 KECCAK256 SLOAD AND LT ISZERO PUSH2 0x288B JUMPI DUP5 ISZERO DUP1 ISZERO PUSH2 0x282C JUMPI JUMPDEST PUSH2 0xCF3 JUMPI DUP4 ISZERO PUSH2 0x1025 JUMPI DUP2 AND SWAP1 PUSH1 0x46 DUP3 GT DUP1 ISZERO SWAP1 PUSH2 0x2822 JUMPI JUMPDEST PUSH2 0xCD1 JUMPI PUSH1 0x1 DUP4 LT DUP1 ISZERO PUSH2 0x2818 JUMPI JUMPDEST PUSH2 0x2806 JUMPI PUSH1 0x10 SLOAD DUP5 GT PUSH2 0x27F4 JUMPI PUSH1 0x12 SLOAD SWAP5 PUSH2 0x2718 DUP7 PUSH2 0x30A9 JUMP JUMPDEST PUSH1 0x12 SSTORE DUP6 PUSH1 0x0 MSTORE PUSH1 0x11 DUP8 MSTORE PUSH1 0x40 PUSH1 0x0 KECCAK256 SWAP3 PUSH1 0x1 DUP5 ADD CALLER PUSH12 0xFFFFFFFFFFFFFFFFFFFFFFFF PUSH1 0xA0 SHL DUP3 SLOAD AND OR SWAP1 SSTORE DUP6 PUSH1 0x2 DUP6 ADD SSTORE PUSH1 0x3 DUP5 ADD SWAP1 PUSH9 0xFFFFFFFFFFFFFFFFFF NOT DUP3 SLOAD AND OR SWAP1 SSTORE PUSH1 0x44 CALLDATALOAD PUSH1 0x4 DUP5 ADD SSTORE TIMESTAMP PUSH1 0x5 DUP5 ADD SSTORE DUP6 PUSH1 0x8 DUP5 ADD SWAP4 PUSH4 0xFFFFFFFF NOT SWAP5 DUP7 DUP7 DUP3 SLOAD AND OR SWAP1 SSTORE SSTORE CALLER PUSH1 0x0 MSTORE PUSH1 0x13 DUP8 MSTORE PUSH2 0x279A DUP7 PUSH1 0x40 PUSH1 0x0 KECCAK256 PUSH2 0x30B8 JUMP JUMPDEST PUSH1 0x0 MSTORE PUSH1 0x15 DUP7 MSTORE PUSH1 0x40 PUSH1 0x0 KECCAK256 SWAP2 DUP3 SLOAD SWAP2 PUSH2 0x27B5 DUP2 DUP5 AND PUSH2 0x30ED JUMP JUMPDEST AND SWAP2 AND OR SWAP1 SSTORE PUSH1 0x40 MLOAD SWAP2 DUP3 MSTORE DUP4 DUP3 ADD MSTORE DUP2 PUSH32 0xDE3B47CF7DA95A3CC41B86CF8717EAD8D56A76EE1590481C5C4DC4D8804C40C4 PUSH1 0x40 CALLER SWAP4 LOG3 PUSH1 0x40 MLOAD SWAP1 DUP2 MSTORE RETURN JUMPDEST PUSH1 0x40 MLOAD PUSH4 0x356680B7 PUSH1 0xE0 SHL DUP2 MSTORE PUSH1 0x4 SWAP1 REVERT JUMPDEST PUSH1 0x40 MLOAD PUSH4 0x524EFF27 PUSH1 0xE0 SHL DUP2 MSTORE PUSH1 0x4 SWAP1 REVERT JUMPDEST POP PUSH1 0xC DUP4 GT PUSH2 0x26FE JUMP JUMPDEST POP PUSH1 0x64 DUP3 GT PUSH2 0x26EF JUMP JUMPDEST POP PUSH1 0x1 SLOAD PUSH1 0x40 MLOAD PUSH4 0x2CC52B15 PUSH1 0xE1 SHL DUP2 MSTORE CALLER PUSH1 0x4 DUP3 ADD MSTORE SWAP1 DUP8 SWAP1 DUP3 SWAP1 PUSH1 0x24 SWAP1 DUP3 SWAP1 PUSH1 0x1 PUSH1 0x1 PUSH1 0xA0 SHL SUB AND GAS STATICCALL SWAP1 DUP2 ISZERO PUSH2 0x2B3 JUMPI PUSH1 0x0 SWAP2 PUSH2 0x286E JUMPI JUMPDEST POP ISZERO PUSH2 0x26D6 JUMP JUMPDEST PUSH2 0x2885 SWAP2 POP DUP8 RETURNDATASIZE DUP10 GT PUSH2 0xA94 JUMPI PUSH2 0xA86 DUP2 DUP4 PUSH2 0x2F29 JUMP JUMPDEST DUP8 PUSH2 0x2867 JUMP JUMPDEST PUSH1 0x40 MLOAD PUSH4 0x5AAD290F PUSH1 0xE0 SHL DUP2 MSTORE PUSH1 0x4 SWAP1 REVERT JUMPDEST CALLVALUE PUSH2 0x2A6 JUMPI PUSH1 0x0 CALLDATASIZE PUSH1 0x3 NOT ADD SLT PUSH2 0x2A6 JUMPI PUSH1 0x40 MLOAD PUSH4 0x7FD5E70B PUSH1 0xE0 SHL DUP2 MSTORE PUSH1 0x2 PUSH1 0x4 DUP3 ADD MSTORE PUSH1 0x0 DUP2 PUSH1 0x24 DUP2 PUSH20 0x0 GAS DELEGATECALL DUP1 ISZERO PUSH2 0x2B3 JUMPI PUSH2 0x15B8 SWAP2 PUSH1 0x0 SWAP2 PUSH2 0x1CEC JUMPI POP PUSH1 0x40 MLOAD SWAP2 DUP3 SWAP2 PUSH1 0x20 DUP4 MSTORE PUSH1 0x20 DUP4 ADD SWAP1 PUSH2 0x2D78 JUMP JUMPDEST CALLVALUE PUSH2 0x2A6 JUMPI PUSH1 0x20 DUP1 PUSH1 0x3 NOT CALLDATASIZE ADD SLT PUSH2 0x2A6 JUMPI PUSH1 0x1 PUSH1 0x1 PUSH1 0xA0 SHL SUB SWAP1 DUP2 PUSH2 0x2929 PUSH2 0x2C8A JUMP JUMPDEST AND SWAP2 DUP3 PUSH1 0x0 MSTORE PUSH1 0x13 DUP3 MSTORE PUSH1 0x40 PUSH1 0x0 KECCAK256 PUSH1 0x0 SWAP4 PUSH1 0x0 SWAP2 DUP1 SLOAD SWAP3 JUMPDEST DUP4 DUP2 LT PUSH2 0x2AEA JUMPI POP PUSH2 0x2953 DUP7 PUSH2 0x311F JUMP JUMPDEST SWAP6 PUSH2 0x2961 PUSH1 0x40 MLOAD SWAP8 DUP9 PUSH2 0x2F29 JUMP JUMPDEST DUP1 DUP8 MSTORE PUSH1 0x1F NOT PUSH2 0x2970 DUP3 PUSH2 0x311F JUMP JUMPDEST ADD PUSH1 0x0 JUMPDEST DUP2 DUP2 LT PUSH2 0x2ACF JUMPI POP POP PUSH2 0x2986 SWAP1 PUSH2 0x3137 JUMP JUMPDEST SWAP4 PUSH1 0x0 SWAP3 PUSH1 0x0 JUMPDEST DUP6 DUP2 LT PUSH2 0x2A0D JUMPI DUP9 DUP9 DUP9 PUSH1 0x40 MLOAD SWAP3 DUP4 SWAP2 PUSH1 0x40 DUP4 ADD SWAP4 PUSH1 0x40 DUP5 MSTORE DUP3 MLOAD DUP1 SWAP6 MSTORE PUSH1 0x60 DUP5 ADD SWAP5 DUP2 PUSH1 0x60 DUP3 PUSH1 0x5 SHL DUP8 ADD ADD SWAP5 ADD SWAP6 PUSH1 0x0 SWAP1 JUMPDEST DUP3 DUP3 LT PUSH2 0x29DD JUMPI POP POP POP DUP4 PUSH2 0x15B8 SWAP5 SWAP6 POP DUP4 SUB SWAP1 DUP6 ADD MSTORE PUSH2 0x2CC0 JUMP JUMPDEST SWAP2 SWAP4 SWAP6 POP SWAP2 SWAP4 DUP5 DUP1 PUSH2 0x29FB PUSH1 0x1 SWAP4 PUSH1 0x5F NOT DUP13 DUP3 SUB ADD DUP7 MSTORE DUP11 MLOAD PUSH2 0x2CF4 JUMP JUMPDEST SWAP9 ADD SWAP3 ADD SWAP3 ADD DUP8 SWAP6 SWAP4 SWAP2 SWAP7 SWAP5 SWAP3 PUSH2 0x29C1 JUMP JUMPDEST PUSH2 0x2A1A DUP2 DUP6 SWAP11 SWAP10 SWAP11 PUSH2 0x2EC3 JUMP JUMPDEST SWAP1 SLOAD PUSH1 0x3 SWAP2 DUP3 SHL SHR PUSH1 0x0 MSTORE PUSH1 0x16 DUP11 MSTORE PUSH1 0x40 PUSH1 0x0 KECCAK256 DUP4 DUP6 DUP3 SLOAD AND EQ DUP1 PUSH2 0x2AB7 JUMPI JUMPDEST DUP1 PUSH2 0x2AA1 JUMPI JUMPDEST PUSH2 0x2A58 JUMPI JUMPDEST POP POP PUSH2 0x2A50 SWAP1 PUSH2 0x30A9 JUMP JUMPDEST SWAP8 SWAP7 SWAP8 PUSH2 0x298D JUMP JUMPDEST SWAP6 PUSH2 0x2A99 SWAP2 PUSH2 0x2A6A PUSH2 0x2A50 SWAP5 SWAP9 PUSH2 0x3281 JUMP JUMPDEST PUSH2 0x2A74 DUP4 DUP14 PUSH2 0x3169 JUMP JUMPDEST MSTORE PUSH2 0x2A7F DUP3 DUP13 PUSH2 0x3169 JUMP JUMPDEST POP PUSH2 0x2A8A DUP9 DUP9 PUSH2 0x2EC3 JUMP JUMPDEST SWAP1 SLOAD SWAP2 SHL SHR PUSH2 0xBDC DUP3 DUP12 PUSH2 0x3169 JUMP JUMPDEST SWAP5 SWAP1 DUP11 PUSH2 0x2A45 JUMP JUMPDEST POP PUSH4 0xFFFFFFFF PUSH1 0x2 DUP3 ADD SLOAD PUSH1 0x28 SHR AND ISZERO ISZERO PUSH2 0x2A40 JUMP JUMPDEST POP PUSH1 0xFF PUSH1 0x2 DUP3 ADD SLOAD AND PUSH2 0x2AC9 DUP2 PUSH2 0x2CB6 JUMP JUMPDEST ISZERO PUSH2 0x2A3A JUMP JUMPDEST SWAP7 DUP1 SWAP9 SWAP8 PUSH2 0x2ADB PUSH2 0x3244 JUMP JUMPDEST DUP3 DUP3 DUP12 ADD ADD MSTORE ADD SWAP8 SWAP7 SWAP8 PUSH2 0x2974 JUMP JUMPDEST PUSH2 0x2AF7 DUP2 DUP4 SWAP9 SWAP8 SWAP9 PUSH2 0x2EC3 JUMP JUMPDEST SWAP1 SLOAD SWAP1 PUSH1 0x3 SHL SHR PUSH1 0x0 MSTORE PUSH1 0x16 DUP8 MSTORE PUSH1 0x40 PUSH1 0x0 KECCAK256 DUP4 DUP7 DUP3 SLOAD AND EQ SWAP1 DUP2 PUSH2 0x2B60 JUMPI JUMPDEST DUP2 PUSH2 0x2B49 JUMPI JUMPDEST POP PUSH2 0x2B34 JUMPI JUMPDEST PUSH2 0x2B2C SWAP1 PUSH2 0x30A9 JUMP JUMPDEST SWAP6 SWAP5 SWAP6 PUSH2 0x2942 JUMP JUMPDEST SWAP5 PUSH2 0x2B41 PUSH2 0x2B2C SWAP2 PUSH2 0x30A9 JUMP JUMPDEST SWAP6 SWAP1 POP PUSH2 0x2B23 JUMP JUMPDEST PUSH4 0xFFFFFFFF SWAP2 POP PUSH1 0x2 ADD SLOAD PUSH1 0x28 SHR AND ISZERO ISZERO DUP9 PUSH2 0x2B1D JUMP JUMPDEST SWAP1 POP PUSH1 0xFF PUSH1 0x2 DUP3 ADD SLOAD AND PUSH2 0x2B73 DUP2 PUSH2 0x2CB6 JUMP JUMPDEST ISZERO SWAP1 PUSH2 0x2B17 JUMP JUMPDEST CALLVALUE PUSH2 0x2A6 JUMPI PUSH1 0x0 CALLDATASIZE PUSH1 0x3 NOT ADD SLT PUSH2 0x2A6 JUMPI PUSH1 0x20 PUSH1 0xF SLOAD PUSH1 0x40 MLOAD SWAP1 DUP2 MSTORE RETURN JUMPDEST CALLVALUE PUSH2 0x2A6 JUMPI PUSH1 0x20 CALLDATASIZE PUSH1 0x3 NOT ADD SLT PUSH2 0x2A6 JUMPI PUSH8 0xFFFFFFFFFFFFFFFF PUSH1 0x4 CALLDATALOAD DUP2 DUP2 GT PUSH2 0x2A6 JUMPI CALLDATASIZE PUSH1 0x23 DUP3 ADD SLT ISZERO PUSH2 0x2A6 JUMPI DUP1 PUSH1 0x4 ADD CALLDATALOAD SWAP2 DUP3 GT PUSH2 0x2A6 JUMPI PUSH1 0x24 PUSH1 0x5 SWAP2 CALLDATASIZE DUP3 DUP6 DUP6 SHL DUP4 ADD ADD GT PUSH2 0x2A6 JUMPI ADDRESS PUSH1 0x20 SHL PUSH4 0x3D1A1A1 OR PUSH1 0x40 SHL SWAP4 SWAP3 PUSH20 0x0 SWAP2 PUSH1 0x0 JUMPDEST DUP6 DUP2 LT PUSH2 0x2C16 JUMPI STOP JUMPDEST DUP1 DUP4 SHL DUP3 ADD DUP6 ADD CALLDATALOAD PUSH1 0x1 PUSH1 0x1 PUSH1 0xA0 SHL SUB DUP2 AND SWAP2 SWAP1 DUP3 SWAP1 SUB PUSH2 0x2A6 JUMPI DUP5 EXTCODESIZE ISZERO PUSH2 0x2A6 JUMPI PUSH1 0x40 MLOAD SWAP2 PUSH4 0xE63DD531 PUSH1 0xE0 SHL DUP4 MSTORE PUSH1 0x2 PUSH1 0x4 DUP5 ADD MSTORE DUP7 DUP4 ADD MSTORE DUP8 PUSH1 0x44 DUP4 ADD MSTORE PUSH1 0x0 DUP3 PUSH1 0x64 DUP2 DUP9 GAS DELEGATECALL SWAP2 DUP3 ISZERO PUSH2 0x2B3 JUMPI PUSH2 0x2C76 SWAP3 PUSH2 0x2C7B JUMPI JUMPDEST POP PUSH2 0x30A9 JUMP JUMPDEST PUSH2 0x2C0D JUMP JUMPDEST PUSH2 0x2C84 SWAP1 PUSH2 0x2EDB JUMP JUMPDEST DUP9 PUSH2 0x2C70 JUMP JUMPDEST PUSH1 0x4 CALLDATALOAD SWAP1 PUSH1 0x1 PUSH1 0x1 PUSH1 0xA0 SHL SUB DUP3 AND DUP3 SUB PUSH2 0x2A6 JUMPI JUMP JUMPDEST PUSH1 0x24 CALLDATALOAD SWAP1 PUSH1 0x1 PUSH1 0x1 PUSH1 0xA0 SHL SUB DUP3 AND DUP3 SUB PUSH2 0x2A6 JUMPI JUMP JUMPDEST PUSH1 0x3 GT ISZERO PUSH2 0xCA9 JUMPI JUMP JUMPDEST SWAP1 DUP2 MLOAD DUP1 DUP3 MSTORE PUSH1 0x20 DUP1 DUP1 SWAP4 ADD SWAP4 ADD SWAP2 PUSH1 0x0 JUMPDEST DUP3 DUP2 LT PUSH2 0x2CE0 JUMPI POP POP POP POP SWAP1 JUMP JUMPDEST DUP4 MLOAD DUP6 MSTORE SWAP4 DUP2 ADD SWAP4 SWAP3 DUP2 ADD SWAP3 PUSH1 0x1 ADD PUSH2 0x2CD2 JUMP JUMPDEST DUP1 MLOAD PUSH1 0x1 PUSH1 0x1 PUSH1 0xA0 SHL SUB AND DUP3 MSTORE PUSH1 0x20 DUP1 DUP3 ADD MLOAD SWAP1 DUP4 ADD MSTORE PUSH1 0x40 DUP2 ADD MLOAD PUSH2 0x2D75 SWAP3 SWAP1 PUSH2 0x2D1E DUP2 PUSH2 0x2CB6 JUMP JUMPDEST PUSH1 0x40 DUP3 ADD MSTORE PUSH4 0xFFFFFFFF DUP1 PUSH1 0x60 DUP5 ADD MLOAD AND PUSH1 0x60 DUP4 ADD MSTORE PUSH1 0x80 DUP4 ADD MLOAD AND PUSH1 0x80 DUP3 ADD MSTORE PUSH1 0xA0 DUP3 ADD MLOAD PUSH1 0xA0 DUP3 ADD MSTORE PUSH1 0xE0 PUSH2 0x2D64 PUSH1 0xC0 DUP5 ADD MLOAD PUSH2 0x100 DUP1 PUSH1 0xC0 DUP7 ADD MSTORE DUP5 ADD SWAP1 PUSH2 0x2CC0 JUMP JUMPDEST SWAP3 ADD MLOAD SWAP1 PUSH1 0xE0 DUP2 DUP5 SUB SWAP2 ADD MSTORE PUSH2 0x2CC0 JUMP JUMPDEST SWAP1 JUMP JUMPDEST SWAP1 DUP2 MLOAD DUP1 DUP3 MSTORE PUSH1 0x20 DUP1 DUP1 SWAP4 ADD SWAP4 ADD SWAP2 PUSH1 0x0 JUMPDEST DUP3 DUP2 LT PUSH2 0x2D98 JUMPI POP POP POP POP SWAP1 JUMP JUMPDEST DUP4 MLOAD PUSH1 0x1 PUSH1 0x1 PUSH1 0xA0 SHL SUB AND DUP6 MSTORE SWAP4 DUP2 ADD SWAP4 SWAP3 DUP2 ADD SWAP3 PUSH1 0x1 ADD PUSH2 0x2D8A JUMP JUMPDEST PUSH1 0x24 CALLDATALOAD SWAP1 PUSH4 0xFFFFFFFF DUP3 AND DUP3 SUB PUSH2 0x2A6 JUMPI JUMP JUMPDEST PUSH1 0x4 CALLDATALOAD SWAP1 PUSH4 0xFFFFFFFF DUP3 AND DUP3 SUB PUSH2 0x2A6 JUMPI JUMP JUMPDEST PUSH1 0x44 CALLDATALOAD SWAP1 PUSH4 0xFFFFFFFF DUP3 AND DUP3 SUB PUSH2 0x2A6 JUMPI JUMP JUMPDEST CALLVALUE PUSH2 0x2A6 JUMPI PUSH1 0x0 CALLDATASIZE PUSH1 0x3 NOT ADD SLT PUSH2 0x2A6 JUMPI PUSH1 0x20 PUSH1 0x10 SLOAD PUSH1 0x40 MLOAD SWAP1 DUP2 MSTORE RETURN JUMPDEST CALLVALUE PUSH2 0x2A6 JUMPI PUSH1 0x0 DUP1 PUSH1 0x3 NOT CALLDATASIZE ADD SLT PUSH2 0x2EC0 JUMPI PUSH1 0x40 MLOAD PUSH4 0x70A08231 PUSH1 0xE0 SHL DUP2 MSTORE ADDRESS PUSH1 0x4 DUP3 ADD MSTORE PUSH1 0x20 DUP2 PUSH1 0x24 DUP2 PUSH32 0x0 PUSH1 0x1 PUSH1 0x1 PUSH1 0xA0 SHL SUB AND GAS STATICCALL SWAP1 DUP2 ISZERO PUSH2 0x2EB5 JUMPI DUP3 SWAP2 PUSH2 0x2E7C JUMPI JUMPDEST PUSH1 0x20 DUP3 PUSH1 0x40 MLOAD SWAP1 DUP2 MSTORE RETURN JUMPDEST SWAP1 POP PUSH1 0x20 DUP2 RETURNDATASIZE DUP3 GT PUSH2 0x2EAD JUMPI JUMPDEST DUP2 PUSH2 0x2E96 PUSH1 0x20 SWAP4 DUP4 PUSH2 0x2F29 JUMP JUMPDEST DUP2 ADD SUB SLT PUSH2 0x2EA9 JUMPI PUSH1 0x20 SWAP2 POP MLOAD CODESIZE PUSH2 0x2E71 JUMP JUMPDEST POP DUP1 REVERT JUMPDEST RETURNDATASIZE SWAP2 POP PUSH2 0x2E89 JUMP JUMPDEST PUSH1 0x40 MLOAD RETURNDATASIZE DUP5 DUP3 RETURNDATACOPY RETURNDATASIZE SWAP1 REVERT JUMPDEST DUP1 REVERT JUMPDEST DUP1 SLOAD DUP3 LT ISZERO PUSH2 0xB18 JUMPI PUSH1 0x0 MSTORE PUSH1 0x20 PUSH1 0x0 KECCAK256 ADD SWAP1 PUSH1 0x0 SWAP1 JUMP JUMPDEST PUSH8 0xFFFFFFFFFFFFFFFF DUP2 GT PUSH2 0xB2E JUMPI PUSH1 0x40 MSTORE JUMP JUMPDEST PUSH2 0x140 DUP2 ADD SWAP1 DUP2 LT PUSH8 0xFFFFFFFFFFFFFFFF DUP3 GT OR PUSH2 0xB2E JUMPI PUSH1 0x40 MSTORE JUMP JUMPDEST PUSH2 0x100 DUP2 ADD SWAP1 DUP2 LT PUSH8 0xFFFFFFFFFFFFFFFF DUP3 GT OR PUSH2 0xB2E JUMPI PUSH1 0x40 MSTORE JUMP JUMPDEST SWAP1 PUSH1 0x1F DUP1 NOT SWAP2 ADD AND DUP2 ADD SWAP1 DUP2 LT PUSH8 0xFFFFFFFFFFFFFFFF DUP3 GT OR PUSH2 0xB2E JUMPI PUSH1 0x40 MSTORE JUMP JUMPDEST SWAP1 DUP2 PUSH1 0x20 SWAP2 SUB SLT PUSH2 0x2A6 JUMPI MLOAD DUP1 ISZERO ISZERO DUP2 SUB PUSH2 0x2A6 JUMPI SWAP1 JUMP JUMPDEST SWAP2 SWAP1 SWAP2 PUSH1 0x60 DUP2 ADD SWAP3 PUSH1 0x2 DUP3 MSTORE PUSH1 0x20 SWAP4 PUSH1 0x60 DUP6 DUP5 ADD MSTORE PUSH1 0x9 SLOAD DUP1 SWAP2 MSTORE PUSH1 0x80 DUP4 ADD SWAP1 PUSH1 0x9 PUSH1 0x0 MSTORE PUSH32 0x6E1540171B6C0C960B71A7020D9F60077F6AF931A8BBF590DA0223DACF75C7AF SWAP1 PUSH1 0x0 JUMPDEST DUP8 DUP3 DUP3 LT PUSH2 0x2FCB JUMPI POP POP POP POP SWAP4 SHL PUSH4 0x3D1A1A1 OR PUSH1 0x40 SWAP1 DUP2 SHL SWAP2 ADD MSTORE JUMP JUMPDEST DUP4 SLOAD PUSH1 0x1 PUSH1 0x1 PUSH1 0xA0 SHL SUB AND DUP6 MSTORE SWAP1 SWAP4 ADD SWAP3 PUSH1 0x1 SWAP3 DUP4 ADD SWAP3 ADD PUSH2 0x2FAD JUMP JUMPDEST SWAP2 SWAP1 DUP3 SUB SWAP2 DUP3 GT PUSH2 0xA0D JUMPI JUMP JUMPDEST PUSH1 0x2 PUSH1 0x0 SLOAD EQ PUSH2 0x3006 JUMPI PUSH1 0x2 PUSH1 0x0 SSTORE JUMP JUMPDEST PUSH1 0x40 MLOAD PUSH3 0x461BCD PUSH1 0xE5 SHL DUP2 MSTORE PUSH1 0x20 PUSH1 0x4 DUP3 ADD MSTORE PUSH1 0x1F PUSH1 0x24 DUP3 ADD MSTORE PUSH32 0x5265656E7472616E637947756172643A207265656E7472616E742063616C6C00 PUSH1 0x44 DUP3 ADD MSTORE PUSH1 0x64 SWAP1 REVERT JUMPDEST PUSH1 0x1 DUP1 PUSH1 0xA0 SHL SUB AND PUSH1 0x0 MSTORE PUSH1 0xB PUSH1 0x20 MSTORE PUSH1 0x40 PUSH1 0x0 KECCAK256 SLOAD PUSH1 0x14 PUSH1 0x20 MSTORE PUSH1 0x40 PUSH1 0x0 KECCAK256 SLOAD DUP1 DUP3 GT PUSH2 0x307A JUMPI POP POP PUSH1 0x0 SWAP1 JUMP JUMPDEST PUSH2 0x2D75 SWAP2 PUSH2 0x2FE8 JUMP JUMPDEST SWAP1 DUP2 PUSH1 0x20 SWAP2 SUB SLT PUSH2 0x2A6 JUMPI MLOAD DUP1 PUSH1 0x3 SIGNEXTEND DUP2 SUB PUSH2 0x2A6 JUMPI SWAP1 JUMP JUMPDEST SWAP2 SWAP1 DUP3 ADD DUP1 SWAP3 GT PUSH2 0xA0D JUMPI JUMP JUMPDEST PUSH1 0x0 NOT DUP2 EQ PUSH2 0xA0D JUMPI PUSH1 0x1 ADD SWAP1 JUMP JUMPDEST DUP1 SLOAD PUSH1 0x1 PUSH1 0x40 SHL DUP2 LT ISZERO PUSH2 0xB2E JUMPI PUSH2 0x30D5 SWAP2 PUSH1 0x1 DUP3 ADD DUP2 SSTORE PUSH2 0x2EC3 JUMP JUMPDEST DUP2 SWAP3 SWAP2 SLOAD SWAP1 PUSH1 0x3 SHL SWAP2 DUP3 SHL SWAP2 PUSH1 0x0 NOT SWAP1 SHL NOT AND OR SWAP1 SSTORE JUMP JUMPDEST SWAP1 PUSH1 0x1 PUSH4 0xFFFFFFFF DUP1 SWAP4 AND ADD SWAP2 DUP3 GT PUSH2 0xA0D JUMPI JUMP JUMPDEST DUP2 DUP2 MUL SWAP3 SWAP2 DUP2 ISZERO SWAP2 DUP5 DIV EQ OR ISZERO PUSH2 0xA0D JUMPI JUMP JUMPDEST DUP2 ISZERO PUSH2 0xBF6 JUMPI DIV SWAP1 JUMP JUMPDEST PUSH8 0xFFFFFFFFFFFFFFFF DUP2 GT PUSH2 0xB2E JUMPI PUSH1 0x5 SHL PUSH1 0x20 ADD SWAP1 JUMP JUMPDEST SWAP1 PUSH2 0x3141 DUP3 PUSH2 0x311F JUMP JUMPDEST PUSH2 0x314E PUSH1 0x40 MLOAD SWAP2 DUP3 PUSH2 0x2F29 JUMP JUMPDEST DUP3 DUP2 MSTORE DUP1 SWAP3 PUSH2 0x315F PUSH1 0x1F NOT SWAP2 PUSH2 0x311F JUMP JUMPDEST ADD SWAP1 PUSH1 0x20 CALLDATASIZE SWAP2 ADD CALLDATACOPY JUMP JUMPDEST DUP1 MLOAD DUP3 LT ISZERO PUSH2 0xB18 JUMPI PUSH1 0x20 SWAP2 PUSH1 0x5 SHL ADD ADD SWAP1 JUMP JUMPDEST SWAP1 DUP2 SLOAD DUP1 DUP3 MSTORE PUSH1 0x20 DUP1 SWAP3 ADD SWAP3 PUSH1 0x0 MSTORE DUP2 PUSH1 0x0 KECCAK256 SWAP2 PUSH1 0x0 SWAP1 JUMPDEST DUP3 DUP3 LT PUSH2 0x31A3 JUMPI POP POP POP POP SWAP1 JUMP JUMPDEST DUP4 SLOAD DUP6 MSTORE SWAP4 DUP5 ADD SWAP4 PUSH1 0x1 SWAP4 DUP5 ADD SWAP4 SWAP1 SWAP2 ADD SWAP1 PUSH2 0x3195 JUMP JUMPDEST PUSH1 0x20 SWAP1 DUP2 DUP2 DUP5 SUB SLT PUSH2 0x2A6 JUMPI DUP1 MLOAD SWAP1 PUSH8 0xFFFFFFFFFFFFFFFF DUP3 GT PUSH2 0x2A6 JUMPI ADD SWAP2 DUP1 PUSH1 0x1F DUP5 ADD SLT ISZERO PUSH2 0x2A6 JUMPI DUP3 MLOAD PUSH2 0x31F0 DUP2 PUSH2 0x311F JUMP JUMPDEST SWAP4 PUSH2 0x31FE PUSH1 0x40 MLOAD SWAP6 DUP7 PUSH2 0x2F29 JUMP JUMPDEST DUP2 DUP6 MSTORE DUP4 DUP1 DUP7 ADD SWAP3 PUSH1 0x5 SHL DUP3 ADD ADD SWAP3 DUP4 GT PUSH2 0x2A6 JUMPI DUP4 ADD SWAP1 JUMPDEST DUP3 DUP3 LT PUSH2 0x3225 JUMPI POP POP POP POP SWAP1 JUMP JUMPDEST DUP2 MLOAD PUSH1 0x1 PUSH1 0x1 PUSH1 0xA0 SHL SUB DUP2 AND DUP2 SUB PUSH2 0x2A6 JUMPI DUP2 MSTORE SWAP1 DUP4 ADD SWAP1 DUP4 ADD PUSH2 0x3217 JUMP JUMPDEST PUSH1 0x40 MLOAD SWAP1 PUSH2 0x3251 DUP3 PUSH2 0x2F0C JUMP JUMPDEST PUSH1 0x60 PUSH1 0xE0 DUP4 PUSH1 0x0 DUP1 DUP3 MSTORE DUP1 PUSH1 0x20 DUP4 ADD MSTORE DUP1 PUSH1 0x40 DUP4 ADD MSTORE DUP1 DUP5 DUP4 ADD MSTORE DUP1 PUSH1 0x80 DUP4 ADD MSTORE PUSH1 0xA0 DUP3 ADD MSTORE DUP3 PUSH1 0xC0 DUP3 ADD MSTORE ADD MSTORE JUMP JUMPDEST SWAP1 PUSH1 0x5 PUSH1 0xE0 PUSH1 0x40 MLOAD PUSH2 0x3292 DUP2 PUSH2 0x2F0C JUMP JUMPDEST PUSH2 0x3318 DUP2 SWAP6 PUSH1 0x1 DUP1 PUSH1 0xA0 SHL SUB DUP2 SLOAD AND DUP4 MSTORE PUSH1 0x1 DUP2 ADD SLOAD PUSH1 0x20 DUP5 ADD MSTORE PUSH1 0x2 DUP2 ADD SLOAD PUSH1 0xFF DUP2 AND PUSH2 0x32BF DUP2 PUSH2 0x2CB6 JUMP JUMPDEST PUSH1 0x40 DUP6 ADD MSTORE PUSH4 0xFFFFFFFF SWAP1 DUP2 DUP2 PUSH1 0x8 SHR AND PUSH1 0x60 DUP7 ADD MSTORE PUSH1 0x28 SHR AND PUSH1 0x80 DUP5 ADD MSTORE PUSH1 0x3 DUP2 ADD SLOAD PUSH1 0xA0 DUP5 ADD MSTORE PUSH1 0x40 MLOAD PUSH2 0x32FC DUP2 PUSH2 0x159D DUP2 PUSH1 0x4 DUP7 ADD PUSH2 0x317D JUMP JUMPDEST PUSH1 0xC0 DUP5 ADD MSTORE PUSH2 0x3311 PUSH1 0x40 MLOAD DUP1 SWAP7 DUP2 SWAP4 ADD PUSH2 0x317D JUMP JUMPDEST SUB DUP5 PUSH2 0x2F29 JUMP JUMPDEST ADD MSTORE JUMP JUMPDEST PUSH1 0x0 MSTORE PUSH1 0x16 PUSH1 0x20 MSTORE PUSH1 0x40 PUSH1 0x0 KECCAK256 PUSH1 0x2 DUP2 ADD SLOAD PUSH1 0xFF DUP2 AND PUSH2 0x333B DUP2 PUSH2 0x2CB6 JUMP JUMPDEST ISZERO SWAP1 DUP2 PUSH2 0x335B JUMPI JUMPDEST POP PUSH2 0x3351 JUMPI POP PUSH1 0x0 SWAP1 PUSH1 0x0 SWAP1 JUMP JUMPDEST PUSH1 0x3 ADD SLOAD SWAP1 PUSH1 0x1 SWAP1 JUMP JUMPDEST PUSH4 0xFFFFFFFF SWAP2 POP PUSH1 0x28 SHR AND ISZERO ISZERO CODESIZE PUSH2 0x3343 JUMP JUMPDEST SWAP1 PUSH1 0x40 MLOAD SWAP2 DUP3 DUP2 SLOAD SWAP2 DUP3 DUP3 MSTORE PUSH1 0x20 SWAP3 DUP4 DUP4 ADD SWAP2 PUSH1 0x0 MSTORE DUP4 PUSH1 0x0 KECCAK256 SWAP4 PUSH1 0x0 SWAP1 JUMPDEST DUP3 DUP3 LT PUSH2 0x33A5 JUMPI POP POP POP PUSH2 0x33A3 SWAP3 POP SUB DUP4 PUSH2 0x2F29 JUMP JUMPDEST JUMP JUMPDEST DUP6 SLOAD PUSH1 0x1 PUSH1 0x1 PUSH1 0xA0 SHL SUB AND DUP5 MSTORE PUSH1 0x1 SWAP6 DUP7 ADD SWAP6 DUP9 SWAP6 POP SWAP4 DUP2 ADD SWAP4 SWAP1 SWAP2 ADD SWAP1 PUSH2 0x338D JUMP INVALID DUP12 MULMOD 0x4C 0xCA PUSH16 0x83D49402CE208CC0C224B76625FFC586 CALLDATASIZE 0xDF JUMP 0xAE 0x28 MUL 0x4E PUSH17 0x4C5868A2646970667358221220756412CE DUP10 NOT 0xE0 PUSH12 0x9DD210635BBA5722AF5C6566 0xAA 0xCD PUSH23 0xB4E7B9776B76BA705464736F6C63430008130033000000 "},"methodIdentifiers":{"batchUpdateDebtStatus(address[])":"016c704f","borrowerRequisitions(address,uint256)":"9e932011","canPayRequisition(uint256,address)":"adceb101","canUserBorrow(address,uint256)":"97c33519","coverLoan(uint256,uint32,uint32)":"ecb18b34","createLoanRequisition(uint256,uint32,uint256,uint32,uint32)":"182d94b5","donate(uint256,uint32)":"e2763924","getActiveLoans(address)":"03d1a1a1","getAllowance(address)":"eb5a662e","getAvailableBalance()":"809dab6a","getAvailableBorrowAmount()":"291c31a7","getBorrowerDebtStatus(address)":"f0853e1d","getBorrowerRequisitions(address)":"9730872a","getBorrowersWithDebt()":"0bc21853","getBorrowersWithoutDebt()":"830efd3b","getBorrowing(address)":"be5eb580","getContractBalance()":"6f9fb98a","getCoveringLenders(uint256)":"8a914a63","getDonation(address)":"410a1d32","getDonationsInCoverage(address)":"827cc0e5","getLastBorrowTime(address)":"657eb031","getLenderCoverage(uint256,address)":"4e51c7df","getLoanContract(uint256)":"383ab2ef","getMemberId(address)":"c269014b","getNextPaymentAmount(uint256)":"6509a710","getPaymentDates(uint256)":"7d52437a","getRepaymentSummary(uint256)":"2b31c022","getReputation(uint32)":"81db2284","getRequisitionInfo(uint256)":"1b70ba3e","getTotalBorrowed()":"0307c4a1","getTotalDonations()":"777c658f","getUSDTBalance()":"9785fac8","getWithdrawableBalance(address)":"843592d3","hasActiveDebt(address)":"3403c25d","hasOverdueDebt(address)":"a7af6947","isWalletVinculated(address)":"598a562a","loanContracts(uint256)":"232869fa","nextMonthlyUpdate()":"f947a8a9","repay(uint256,uint256,uint32)":"9059f9ca","reputationSystem()":"6587eda1","requisitionCounter()":"84ddf5ea","shouldTriggerUpdate()":"79103400","triggerMonthlyUpdate()":"ccdce44e","updateBorrowerDebtStatus(address)":"b9f0fec4","usdtToken()":"a98ad46c","vinculationMemberToWallet(uint32,address)":"21bb31e4","withdraw(uint256,uint32)":"6145d1b7"}}}}}