{"contracts/LoanMachine.sol":{"LoanMachine":{"abi":[{"inputs":[{"internalType":"address","name":"_usdtToken","type":"address"},{"internalType":"address","name":"_reputationSystem","type":"address"}],"stateMutability":"nonpayable","type":"constructor"},{"inputs":[],"name":"BorrowNotExpired","type":"error"},{"inputs":[],"name":"ExcessiveDonation","type":"error"},{"inputs":[],"name":"InsufficientDonationBalance","type":"error"},{"inputs":[],"name":"InsufficientFunds","type":"error"},{"inputs":[],"name":"InsufficientWithdrawableBalance","type":"error"},{"inputs":[],"name":"InvalidAmount","type":"error"},{"inputs":[],"name":"InvalidCoveragePercentage","type":"error"},{"inputs":[],"name":"InvalidParcelsCount","type":"error"},{"inputs":[],"name":"LoanNotAvailable","type":"error"},{"inputs":[],"name":"MaxLoanRequisitionPendingReached","type":"error"},{"inputs":[],"name":"MemberIdOrWalletInvalid","type":"error"},{"inputs":[],"name":"MinimumDonationRequired","type":"error"},{"inputs":[],"name":"MinimumPercentageCover","type":"error"},{"inputs":[],"name":"NoActiveBorrowing","type":"error"},{"inputs":[],"name":"OverCoverage","type":"error"},{"inputs":[],"name":"ParcelAlreadyPaid","type":"error"},{"inputs":[],"name":"RepaymentExceedsBorrowed","type":"error"},{"inputs":[],"name":"TokenTransferFailed","type":"error"},{"inputs":[],"name":"WalletAlreadyVinculated","type":"error"},{"anonymous":false,"inputs":[{"indexed":false,"internalType":"uint256","name":"total","type":"uint256"}],"name":"AvailableBalanceUpdated","type":"event"},{"anonymous":false,"inputs":[{"indexed":true,"internalType":"address","name":"borrower","type":"address"}],"name":"BorrowLimitReached","type":"event"},{"anonymous":false,"inputs":[{"indexed":true,"internalType":"address","name":"borrower","type":"address"},{"indexed":false,"internalType":"uint256","name":"amount","type":"uint256"},{"indexed":false,"internalType":"uint256","name":"totalBorrowing","type":"uint256"}],"name":"Borrowed","type":"event"},{"anonymous":false,"inputs":[{"indexed":true,"internalType":"address","name":"borrower","type":"address"},{"indexed":false,"internalType":"enum DebtTracker.DebtStatus","name":"newStatus","type":"uint8"}],"name":"BorrowerStatusUpdated","type":"event"},{"anonymous":false,"inputs":[{"indexed":true,"internalType":"address","name":"borrower","type":"address"}],"name":"DebtorAdded","type":"event"},{"anonymous":false,"inputs":[{"indexed":true,"internalType":"address","name":"borrower","type":"address"}],"name":"DebtorRemoved","type":"event"},{"anonymous":false,"inputs":[{"indexed":true,"internalType":"address","name":"donor","type":"address"},{"indexed":false,"internalType":"uint256","name":"amount","type":"uint256"},{"indexed":false,"internalType":"uint256","name":"totalDonation","type":"uint256"}],"name":"Donated","type":"event"},{"anonymous":false,"inputs":[{"indexed":true,"internalType":"uint256","name":"requisitionId","type":"uint256"},{"indexed":true,"internalType":"address","name":"lender","type":"address"},{"indexed":false,"internalType":"uint256","name":"amount","type":"uint256"}],"name":"LenderRepaid","type":"event"},{"anonymous":false,"inputs":[{"indexed":true,"internalType":"uint256","name":"requisitionId","type":"uint256"}],"name":"LoanCompleted","type":"event"},{"anonymous":false,"inputs":[{"indexed":true,"internalType":"address","name":"walletAddress","type":"address"},{"indexed":true,"internalType":"uint256","name":"requisitionId","type":"uint256"},{"indexed":false,"internalType":"enum ILoanMachine.ContractStatus","name":"status","type":"uint8"},{"indexed":false,"internalType":"uint32","name":"parcelsPending","type":"uint32"},{"indexed":false,"internalType":"uint256","name":"parcelsValues","type":"uint256"},{"indexed":false,"internalType":"uint256[]","name":"paymentDates","type":"uint256[]"}],"name":"LoanContractGenerated","type":"event"},{"anonymous":false,"inputs":[{"indexed":true,"internalType":"uint256","name":"requisitionId","type":"uint256"},{"indexed":true,"internalType":"address","name":"lender","type":"address"},{"indexed":false,"internalType":"uint256","name":"coverageAmount","type":"uint256"}],"name":"LoanCovered","type":"event"},{"anonymous":false,"inputs":[{"indexed":true,"internalType":"uint256","name":"requisitionId","type":"uint256"}],"name":"LoanFunded","type":"event"},{"anonymous":false,"inputs":[{"indexed":true,"internalType":"uint256","name":"requisitionId","type":"uint256"},{"indexed":true,"internalType":"address","name":"borrower","type":"address"},{"indexed":false,"internalType":"uint256","name":"amount","type":"uint256"},{"indexed":false,"internalType":"uint32","name":"parcelsCount","type":"uint32"}],"name":"LoanRequisitionCreated","type":"event"},{"anonymous":false,"inputs":[{"indexed":false,"internalType":"uint256","name":"timestamp","type":"uint256"}],"name":"MonthlyUpdateTriggered","type":"event"},{"anonymous":false,"inputs":[{"indexed":true,"internalType":"address","name":"borrower","type":"address"}],"name":"NewBorrower","type":"event"},{"anonymous":false,"inputs":[{"indexed":true,"internalType":"address","name":"donor","type":"address"}],"name":"NewDonor","type":"event"},{"anonymous":false,"inputs":[{"indexed":true,"internalType":"uint256","name":"requisitionId","type":"uint256"},{"indexed":false,"internalType":"uint256","name":"parcelsRemaining","type":"uint256"}],"name":"ParcelPaid","type":"event"},{"anonymous":false,"inputs":[{"indexed":true,"internalType":"address","name":"borrower","type":"address"},{"indexed":false,"internalType":"uint256","name":"amount","type":"uint256"},{"indexed":false,"internalType":"uint256","name":"remainingDebt","type":"uint256"}],"name":"Repaid","type":"event"},{"anonymous":false,"inputs":[{"indexed":false,"internalType":"uint256","name":"total","type":"uint256"}],"name":"TotalBorrowedUpdated","type":"event"},{"anonymous":false,"inputs":[{"indexed":false,"internalType":"uint256","name":"total","type":"uint256"}],"name":"TotalDonationsUpdated","type":"event"},{"anonymous":false,"inputs":[{"indexed":true,"internalType":"address","name":"donor","type":"address"},{"indexed":false,"internalType":"uint256","name":"amount","type":"uint256"},{"indexed":false,"internalType":"uint256","name":"donations","type":"uint256"}],"name":"Withdrawn","type":"event"},{"inputs":[{"internalType":"address[]","name":"borrowers","type":"address[]"}],"name":"batchUpdateDebtStatus","outputs":[],"stateMutability":"nonpayable","type":"function"},{"inputs":[{"internalType":"address","name":"","type":"address"},{"internalType":"uint256","name":"","type":"uint256"}],"name":"borrowerRequisitions","outputs":[{"internalType":"uint256","name":"","type":"uint256"}],"stateMutability":"view","type":"function"},{"inputs":[{"internalType":"uint256","name":"requisitionId","type":"uint256"},{"internalType":"address","name":"borrower","type":"address"}],"name":"canPayRequisition","outputs":[{"internalType":"bool","name":"","type":"bool"}],"stateMutability":"view","type":"function"},{"inputs":[{"internalType":"address","name":"_user","type":"address"},{"internalType":"uint256","name":"_amount","type":"uint256"}],"name":"canUserBorrow","outputs":[{"internalType":"bool","name":"","type":"bool"}],"stateMutability":"view","type":"function"},{"inputs":[{"internalType":"uint256","name":"requisitionId","type":"uint256"},{"internalType":"uint32","name":"coveragePercentage","type":"uint32"},{"internalType":"uint32","name":"memberId","type":"uint32"}],"name":"coverLoan","outputs":[],"stateMutability":"nonpayable","type":"function"},{"inputs":[{"internalType":"uint256","name":"amount","type":"uint256"},{"internalType":"uint32","name":"minimumCoverage","type":"uint32"},{"internalType":"uint256","name":"durationDays","type":"uint256"},{"internalType":"uint32","name":"parcelscount","type":"uint32"},{"internalType":"uint32","name":"memberId","type":"uint32"}],"name":"createLoanRequisition","outputs":[{"internalType":"uint256","name":"","type":"uint256"}],"stateMutability":"nonpayable","type":"function"},{"inputs":[{"internalType":"uint256","name":"amount","type":"uint256"},{"internalType":"uint32","name":"memberId","type":"uint32"}],"name":"donate","outputs":[],"stateMutability":"nonpayable","type":"function"},{"inputs":[{"internalType":"address","name":"borrower","type":"address"}],"name":"getActiveLoans","outputs":[{"components":[{"internalType":"address","name":"walletAddress","type":"address"},{"internalType":"uint256","name":"requisitionId","type":"uint256"},{"internalType":"enum ILoanMachine.ContractStatus","name":"status","type":"uint8"},{"internalType":"uint32","name":"parcelsCount","type":"uint32"},{"internalType":"uint32","name":"parcelsPending","type":"uint32"},{"internalType":"uint256","name":"parcelsValues","type":"uint256"},{"internalType":"uint256[]","name":"paymentDates","type":"uint256[]"}],"internalType":"struct ILoanMachine.LoanContract[]","name":"activeLoans","type":"tuple[]"},{"internalType":"uint256[]","name":"requisitionIds","type":"uint256[]"}],"stateMutability":"view","type":"function"},{"inputs":[{"internalType":"address","name":"user","type":"address"}],"name":"getAllowance","outputs":[{"internalType":"uint256","name":"","type":"uint256"}],"stateMutability":"view","type":"function"},{"inputs":[],"name":"getAvailableBalance","outputs":[{"internalType":"uint256","name":"","type":"uint256"}],"stateMutability":"view","type":"function"},{"inputs":[],"name":"getAvailableBorrowAmount","outputs":[{"internalType":"uint256","name":"","type":"uint256"}],"stateMutability":"view","type":"function"},{"inputs":[{"internalType":"address","name":"borrower","type":"address"}],"name":"getBorrowerDebtStatus","outputs":[{"internalType":"enum DebtTracker.DebtStatus","name":"","type":"uint8"}],"stateMutability":"view","type":"function"},{"inputs":[{"internalType":"address","name":"borrower","type":"address"}],"name":"getBorrowerRequisitions","outputs":[{"internalType":"uint256[]","name":"","type":"uint256[]"}],"stateMutability":"view","type":"function"},{"inputs":[],"name":"getBorrowersWithDebt","outputs":[{"internalType":"address[]","name":"","type":"address[]"}],"stateMutability":"view","type":"function"},{"inputs":[],"name":"getBorrowersWithoutDebt","outputs":[{"internalType":"address[]","name":"","type":"address[]"}],"stateMutability":"view","type":"function"},{"inputs":[{"internalType":"address","name":"_user","type":"address"}],"name":"getBorrowing","outputs":[{"internalType":"uint256","name":"","type":"uint256"}],"stateMutability":"view","type":"function"},{"inputs":[],"name":"getContractBalance","outputs":[{"internalType":"uint256","name":"","type":"uint256"}],"stateMutability":"view","type":"function"},{"inputs":[{"internalType":"uint256","name":"requisitionId","type":"uint256"}],"name":"getCoveringLenders","outputs":[{"internalType":"address[]","name":"","type":"address[]"}],"stateMutability":"view","type":"function"},{"inputs":[{"internalType":"address","name":"_user","type":"address"}],"name":"getDonation","outputs":[{"internalType":"uint256","name":"","type":"uint256"}],"stateMutability":"view","type":"function"},{"inputs":[{"internalType":"address","name":"lender","type":"address"}],"name":"getDonationsInCoverage","outputs":[{"internalType":"uint256","name":"","type":"uint256"}],"stateMutability":"view","type":"function"},{"inputs":[{"internalType":"address","name":"_user","type":"address"}],"name":"getLastBorrowTime","outputs":[{"internalType":"uint256","name":"","type":"uint256"}],"stateMutability":"view","type":"function"},{"inputs":[{"internalType":"uint256","name":"requisitionId","type":"uint256"},{"internalType":"address","name":"lender","type":"address"}],"name":"getLenderCoverage","outputs":[{"internalType":"uint256","name":"","type":"uint256"}],"stateMutability":"view","type":"function"},{"inputs":[{"internalType":"uint256","name":"requisitionId","type":"uint256"}],"name":"getLoanContract","outputs":[{"components":[{"internalType":"address","name":"walletAddress","type":"address"},{"internalType":"uint256","name":"requisitionId","type":"uint256"},{"internalType":"enum ILoanMachine.ContractStatus","name":"status","type":"uint8"},{"internalType":"uint32","name":"parcelsCount","type":"uint32"},{"internalType":"uint32","name":"parcelsPending","type":"uint32"},{"internalType":"uint256","name":"parcelsValues","type":"uint256"},{"internalType":"uint256[]","name":"paymentDates","type":"uint256[]"}],"internalType":"struct ILoanMachine.LoanContract","name":"","type":"tuple"}],"stateMutability":"view","type":"function"},{"inputs":[{"internalType":"address","name":"wallet","type":"address"}],"name":"getMemberId","outputs":[{"internalType":"uint32","name":"","type":"uint32"}],"stateMutability":"view","type":"function"},{"inputs":[{"internalType":"uint256","name":"requisitionId","type":"uint256"}],"name":"getNextPaymentAmount","outputs":[{"internalType":"uint256","name":"paymentAmount","type":"uint256"},{"internalType":"bool","name":"canPay","type":"bool"}],"stateMutability":"view","type":"function"},{"inputs":[{"internalType":"uint256","name":"requisitionId","type":"uint256"}],"name":"getPaymentDates","outputs":[{"internalType":"uint256[]","name":"","type":"uint256[]"}],"stateMutability":"view","type":"function"},{"inputs":[{"internalType":"uint256","name":"requisitionId","type":"uint256"}],"name":"getRepaymentSummary","outputs":[{"internalType":"uint256","name":"totalRemainingDebt","type":"uint256"},{"internalType":"uint256","name":"nextPaymentAmount","type":"uint256"},{"internalType":"uint256","name":"parcelsRemaining","type":"uint256"},{"internalType":"uint256","name":"totalParcels","type":"uint256"},{"internalType":"bool","name":"isActive","type":"bool"}],"stateMutability":"view","type":"function"},{"inputs":[{"internalType":"uint32","name":"memberId","type":"uint32"}],"name":"getReputation","outputs":[{"internalType":"int32","name":"","type":"int32"}],"stateMutability":"view","type":"function"},{"inputs":[{"internalType":"uint256","name":"requisitionId","type":"uint256"}],"name":"getRequisitionInfo","outputs":[{"components":[{"internalType":"uint256","name":"requisitionId","type":"uint256"},{"internalType":"address","name":"borrower","type":"address"},{"internalType":"uint256","name":"amount","type":"uint256"},{"internalType":"uint32","name":"minimumCoverage","type":"uint32"},{"internalType":"uint32","name":"currentCoverage","type":"uint32"},{"internalType":"enum ILoanMachine.BorrowStatus","name":"status","type":"uint8"},{"internalType":"uint256","name":"durationDays","type":"uint256"},{"internalType":"uint256","name":"creationTime","type":"uint256"},{"internalType":"address[]","name":"coveringLenders","type":"address[]"},{"internalType":"uint32","name":"parcelsCount","type":"uint32"}],"internalType":"struct ILoanMachine.RequisitionInfo","name":"","type":"tuple"}],"stateMutability":"view","type":"function"},{"inputs":[],"name":"getTotalBorrowed","outputs":[{"internalType":"uint256","name":"","type":"uint256"}],"stateMutability":"view","type":"function"},{"inputs":[],"name":"getTotalDonations","outputs":[{"internalType":"uint256","name":"","type":"uint256"}],"stateMutability":"view","type":"function"},{"inputs":[],"name":"getUSDTBalance","outputs":[{"internalType":"uint256","name":"","type":"uint256"}],"stateMutability":"view","type":"function"},{"inputs":[{"internalType":"address","name":"user","type":"address"}],"name":"getWithdrawableBalance","outputs":[{"internalType":"uint256","name":"","type":"uint256"}],"stateMutability":"view","type":"function"},{"inputs":[{"internalType":"address","name":"borrower","type":"address"}],"name":"hasActiveDebt","outputs":[{"internalType":"bool","name":"","type":"bool"}],"stateMutability":"view","type":"function"},{"inputs":[{"internalType":"address","name":"borrower","type":"address"}],"name":"hasOverdueDebt","outputs":[{"internalType":"bool","name":"","type":"bool"}],"stateMutability":"view","type":"function"},{"inputs":[{"internalType":"address","name":"wallet","type":"address"}],"name":"isWalletVinculated","outputs":[{"internalType":"bool","name":"","type":"bool"}],"stateMutability":"view","type":"function"},{"inputs":[{"internalType":"uint256","name":"","type":"uint256"}],"name":"loanContracts","outputs":[{"internalType":"address","name":"walletAddress","type":"address"},{"internalType":"uint256","name":"requisitionId","type":"uint256"},{"internalType":"enum ILoanMachine.ContractStatus","name":"status","type":"uint8"},{"internalType":"uint32","name":"parcelsCount","type":"uint32"},{"internalType":"uint32","name":"parcelsPending","type":"uint32"},{"internalType":"uint256","name":"parcelsValues","type":"uint256"}],"stateMutability":"view","type":"function"},{"inputs":[],"name":"nextMonthlyUpdate","outputs":[{"internalType":"uint256","name":"","type":"uint256"}],"stateMutability":"view","type":"function"},{"inputs":[{"internalType":"uint256","name":"requisitionId","type":"uint256"},{"internalType":"uint256","name":"amount","type":"uint256"},{"internalType":"uint32","name":"memberId","type":"uint32"}],"name":"repay","outputs":[],"stateMutability":"nonpayable","type":"function"},{"inputs":[],"name":"reputationSystem","outputs":[{"internalType":"contract ReputationSystem","name":"","type":"address"}],"stateMutability":"view","type":"function"},{"inputs":[],"name":"requisitionCounter","outputs":[{"internalType":"uint256","name":"","type":"uint256"}],"stateMutability":"view","type":"function"},{"inputs":[],"name":"shouldTriggerUpdate","outputs":[{"internalType":"bool","name":"","type":"bool"}],"stateMutability":"view","type":"function"},{"inputs":[],"name":"triggerMonthlyUpdate","outputs":[],"stateMutability":"nonpayable","type":"function"},{"inputs":[{"internalType":"address","name":"borrower","type":"address"}],"name":"updateBorrowerDebtStatus","outputs":[],"stateMutability":"nonpayable","type":"function"},{"inputs":[],"name":"usdtToken","outputs":[{"internalType":"address","name":"","type":"address"}],"stateMutability":"view","type":"function"},{"inputs":[{"internalType":"uint32","name":"memberId","type":"uint32"},{"internalType":"address","name":"wallet","type":"address"}],"name":"vinculationMemberToWallet","outputs":[],"stateMutability":"nonpayable","type":"function"},{"inputs":[{"internalType":"uint256","name":"amount","type":"uint256"},{"internalType":"uint32","name":"memberId","type":"uint32"}],"name":"withdraw","outputs":[],"stateMutability":"nonpayable","type":"function"}],"evm":{"bytecode":{"linkReferences":{"contracts/libraries/DebtTracker.sol":{"DebtTracker":[{"length":20,"start":846},{"length":20,"start":1028},{"length":20,"start":2199},{"length":20,"start":3816},{"length":20,"start":4423},{"length":20,"start":4815},{"length":20,"start":5200},{"length":20,"start":5845},{"length":20,"start":7460},{"length":20,"start":7854},{"length":20,"start":8171},{"length":20,"start":9058},{"length":20,"start":10558},{"length":20,"start":11406}]}},"object":"60a034620000cf57601f6200349238819003918201601f19168301916001600160401b03831184841017620000d4578084926040948552833981010312620000cf576200005a60206200005283620000ea565b9201620000ea565b6001600081905560809290925281546001600160a01b0319166001600160a01b0390911617905562278d0060085542600755604051613392908162000100823960805181818161082801528181610d2101528181610e44015281816112dc015281816116f401528181611f7e0152612de60152f35b600080fd5b634e487b7160e01b600052604160045260246000fd5b51906001600160a01b0382168203620000cf5756fe6080604052600436101561001257600080fd5b60003560e01c8063016c704f14612b305780630307c4a114612b1257806303d1a1a1146128795780630bc2185314612811578063182d94b5146125e75780631b70ba3e1461243f57806321bb31e4146123cd578063232869fa1461234f578063291c31a714611d435780632b31c022146122925780633403c25d1461221d578063383ab2ef146121d4578063410a1d321461219a5780634e51c7df1461214f578063598a562a146120ed5780636145d1b714611e8b5780636509a71014611e5f578063657eb03114611e255780636587eda114611dfc5780636f9fb98a146114c8578063777c658f14611dde5780637910340014611d815780637d52437a14611d48578063809dab6a14611d4357806381db228414611cbd578063827cc0e514611c83578063830efd3b14611bf7578063843592d314611bcc57806384ddf5ea14611bae5780638a914a6314611b6b5780639059f9ca146115305780639730872a146114cd5780639785fac8146114c857806397c33519146113f55780639e9320111461139d578063a7af69471461130b578063a98ad46c146112c6578063adceb10114611244578063b9f0fec4146111b4578063be5eb5801461117a578063c269014b146110db578063ccdce44e1461100c578063e276392414610d88578063eb5a662e14610cda578063ecb18b3414610370578063f0853e1d146102bf5763f947a8a91461022157600080fd5b346102a65760003660031901126102a657604051636ecf807360e11b81526002600482015260208160248173__$8a3883123a2a1b05b37447bdbb3fdcf5d3$__5af480156102b35760009061027c575b602090604051908152f35b506020813d82116102ab575b8161029560209383612ed5565b810103126102a65760209051610271565b600080fd5b3d9150610288565b6040513d6000823e3d90fd5b346102a6576020806003193601126102a6576102d9612c22565b6040516315ffae5b60e21b8152600260048201526001600160a01b039091166024820152818160448173__$8a3883123a2a1b05b37447bdbb3fdcf5d3$__5af49081156102b35760009161033a575b506040519061033681612c4e565b8152f35b90508181813d8311610369575b6103518183612ed5565b810103126102a6575160038110156102a65782610328565b503d610347565b346102a65760603660031901126102a657610389612d62565b63ffffffff610396612d88565b169081158015610c79575b610c675763ffffffff8116158015610c57575b610c4557600963ffffffff82161115610c33576103cf612fa1565b600435600052601160205260406000209160038301805460ff8160401c166006811015610c1d578015159081610c11575b50610bff5761041d60649163ffffffff8087169160201c1661304b565b11610bed5761043663ffffffff841660028601546130b1565b93670de0b6b3a7640000948581029581870414901517156109fa5768056bc75e2d630fffff85018095116109fa5733600052600b60205268056bc75e2d63100000850460406000205410610bdb5733600052600b60205260406000206104a868056bc75e2d6310000087048254612f94565b905533600052601460205260406000206104ce68056bc75e2d631000008704825461304b565b9055815463ffffffff851663ffffffff8260201c160163ffffffff81116109fa5767ffffffff000000009060201b169067ffffffff0000000019161782556007810190336000528160205260406000205415610b99575b5033600052602052604060002061054868056bc75e2d631000008604825461304b565b9055805463ffffffff811663ffffffff8260201c161015600014610b8057506802000000000000000060ff60401b19825416179055806000526015602052604060002063ffffffff19815416905560043560005260166020526040600020601160205261064b604060002060018060a01b036001820154166bffffffffffffffffffffffff60a01b845416178355600435600184015563ffffffff6002808501549260ff19841682870155600881019364ffffffff00855460081b169064ffffffffff19161782870155610640838554168388019068ffffffff000000000082549160281b169068ffffffff00000000001916179055565b0154915416906130c4565b6003820155600435600052601160205263ffffffff6008604060002001541660005b8163ffffffff821610610b3157505060018060a01b038154167f5215406e88f26eed4728b9cdfc5d85cea75799101cb9387b528451e6e0878dec600283015460ff81169063ffffffff600386015491604051936106c981612c4e565b845260281c166020830152604082015260806060820152806106f56004359560046080840191016130e4565b0390a36004356000526011602052604060002060018060a01b036001820154169081600052600a60205260ff6040600020541615610a97575b600360028201918254600c60205261074c604060002091825461304b565b905561075b8354600f5461304b565b600f5561076b8354601054612f94565b60105583600052600d60205242604060002055016803000000000000000060ff60401b1982541617905573__$8a3883123a2a1b05b37447bdbb3fdcf5d3$__803b156102a65760006064916040519283809263e63dd53160e01b8252600260048301528760248301526303d1a1a13060201b1760401b60448301525af480156102b357610a88575b50805460405163a9059cbb60e01b81526001600160a01b038416600482015260248101919091526020818060448101038160007f00000000000000000000000000000000000000000000000000000000000000006001600160a01b03165af19081156102b357600091610a59575b5015610a475760407feae9cfbc77fdd40ca899f36b608256063b2bc9d8178b0220f7ad513e178d6730915483600052600c602052816000205482519182526020820152a27f17f13fd3f7c4712af33f1770ebcb822dd20a2dbc00850eab48d786623d97b9596020600f54604051908152a160008051602061333d8339815191526020601054604051908152a16004357f9e71d2fb732e68272b7e74ecfd14638673c1d77e19a5d390a3ffff054d57c44b600080a25b600154604051636adf462560e11b81526001600160a01b0390911692602082600481875afa9182156102b357600092610a10575b5063ffffffff1660030b9060030b028060030b9081036109fa57823b156102a657606460009283600a95604051968795869463533dfa3560e01b865260048601520560030b6024840152600160448401525af180156102b3576109eb575b5068056bc75e2d631000006040519104815233907f86b47e6e6c03d769c0bc5ffd06c682ea7d07089576d59230ec18ff64e71bffe7602060043592a36001600055005b6109f490612e88565b816109a8565b634e487b7160e01b600052601160045260246000fd5b63ffffffff919250610a399060203d602011610a40575b610a318183612ed5565b810190613032565b919061094a565b503d610a27565b60405163022e258160e11b8152600490fd5b610a7b915060203d602011610a81575b610a738183612ed5565b810190612ef7565b86610861565b503d610a69565b610a9190612e88565b856107f3565b600954600160401b811015610b1b576001810180600955811015610b05577f6e1540171b6c0c960b71a7020d9f60077f6af931a8bbf590da0223dacf75c7af0180546001600160a01b031916831790556000828152600a60205260409020805460ff1916600117905561072e565b634e487b7160e01b600052603260045260246000fd5b634e487b7160e01b600052604160045260246000fd5b63ffffffff610b3f8261309c565b169062278d0091808302928304036109fa57610b6c610b6363ffffffff934261304b565b60048601613067565b1663ffffffff81146109fa5760010161066d565b68ff00000000000000001916600160401b179055610916565b6006018054600160401b811015610b1b57610bb991600182018155612e70565b81546001600160a01b0360039290921b91821b19163390911b17905585610525565b604051630391acf160e61b8152600490fd5b60405163955f95ad60e01b8152600490fd5b6040516380b9cb0960e01b8152600490fd5b60019150141586610400565b634e487b7160e01b600052602160045260246000fd5b60405163f556155f60e01b8152600490fd5b60405163d1e95ed560e01b8152600490fd5b50606463ffffffff8216116103b4565b604051630cff23e760e01b8152600490fd5b50600154604051632cc52b1560e11b815233600482015290602090829060249082906001600160a01b03165afa9081156102b357600091610cbc575b50156103a1565b610cd4915060203d8111610a8157610a738183612ed5565b83610cb5565b346102a6576020806003193601126102a657604481610cf7612c22565b604051636eb1769f60e11b81526001600160a01b03918216600482015230602482015292839182907f0000000000000000000000000000000000000000000000000000000000000000165afa9081156102b357600091610d5b575b50604051908152f35b90508181813d8311610d81575b610d728183612ed5565b810103126102a6575182610d52565b503d610d68565b346102a65760403660031901126102a65760043563ffffffff610da9612d62565b16158015610fab575b610c67578015610f9957610dc4612fa1565b604051630c47ab3d60e21b8152602090818180610de43060048301612f0f565b038173__$8a3883123a2a1b05b37447bdbb3fdcf5d3$__5af480156102b357610f7c575b50624c4b408211610f6a576040516323b872dd60e01b815233600482015230602482015260448101839052818160648160006001600160a01b037f0000000000000000000000000000000000000000000000000000000000000000165af19081156102b357600091610f4d575b5015610a475760008051602061333d8339815191529033600052600b815260406000207fdc6e73d4b36e22ab95945bd8833a5af96c950eb29d8d75c4aecffc987637aaab82825495808701845580600e54019081600e558060105401948560105554604051918252838201527f4928895ba6723e8e27b15f32e4c3054a1b6c7f8c03f133558d6fa42b3928d14c60403392a2604051908152a1604051908152a115610f22575b6001600055005b337f072dafb6aabe3f02118bc607efbeaaa104d6b2009720c7b130f24ba418689c4b600080a2610f1b565b610f649150823d8411610a8157610a738183612ed5565b83610e75565b6040516330fdf8db60e11b8152600490fd5b610f9290823d8411610a8157610a738183612ed5565b5082610e08565b60405163162908e360e11b8152600490fd5b50600154604051632cc52b1560e11b815233600482015290602090829060249082906001600160a01b03165afa9081156102b357600091610fee575b5015610db2565b611006915060203d8111610a8157610a738183612ed5565b82610fe7565b346102a65760003660031901126102a657611025612fa1565b604051630c47ab3d60e21b8152602081806110433060048301612f0f565b038173__$8a3883123a2a1b05b37447bdbb3fdcf5d3$__5af49081156102b3576000916110bd575b5015611078576001600055005b60405162461bcd60e51b815260206004820152601a60248201527f4d6f6e74686c7920757064617465206e6f7420647565207965740000000000006044820152606490fd5b6110d5915060203d8111610a8157610a738183612ed5565b8161106b565b346102a6576020806003193601126102a6576110f5612c22565b60015460405163c269014b60e01b81526001600160a01b03928316600482015291839183916024918391165afa9081156102b357600091611140575b5063ffffffff60405191168152f35b90508181813d8311611173575b6111578183612ed5565b810103126102a6575163ffffffff811681036102a65782611131565b503d61114d565b346102a65760203660031901126102a6576001600160a01b0361119b612c22565b16600052600c6020526020604060002054604051908152f35b346102a65760203660031901126102a6576111cd612c22565b73__$8a3883123a2a1b05b37447bdbb3fdcf5d3$__90813b156102a6576040805163e63dd53160e01b8152600260048201526001600160a01b0390921660248301523060201b6303d1a1a117901b604482015290600090829060649082905af480156102b35761123957005b61124290612e88565b005b346102a65760403660031901126102a657602061125f612c38565b6004356000526016825260406000209060018060a01b038083541691161490816112ac575b81611295575b506040519015158152f35b63ffffffff91506002015460281c1615158261128a565b905060ff6002820154166112bf81612c4e565b1590611284565b346102a65760003660031901126102a6576040517f00000000000000000000000000000000000000000000000000000000000000006001600160a01b03168152602090f35b346102a65760203660031901126102a657611324612c22565b604051632de5e9bf60e01b8152600260048201526001600160a01b03909116602482015260208160448173__$8a3883123a2a1b05b37447bdbb3fdcf5d3$__5af480156102b35760209160009161138057506040519015158152f35b6113979150823d8111610a8157610a738183612ed5565b8261128a565b346102a65760403660031901126102a6576113b6612c22565b6001600160a01b03166000908152601360205260409020805460243591908210156102a6576020916113e791612e70565b90546040519160031b1c8152f35b346102a65760403660031901126102a65761140e612c22565b60243580151590816114bb575b5080611484575b80611435575b6020906040519015158152f35b506001600160a01b03166000818152600d602052604090205462093a8081019081106109fa574211801561146d575b60209150611428565b50600052600c602052602060406000205415611464565b506001600160a01b0381166000908152600b6020526040902054620f42401115806114225750600c60205260406000205415611422565b905060105410158261141b565b612db9565b346102a65760203660031901126102a6576001600160a01b036114ee612c22565b16600052601360205261152c6115116115186040600020604051928380926130e4565b0382612ed5565b604051918291602083526020830190612cf1565b0390f35b346102a65760603660031901126102a657602480359063ffffffff60043581611557612d88565b169283158015611b0b575b610c6757816000526020906016825260406000209533600052600c835260406000205415611af95786546001600160a01b0397903390891603611af9576002015460ff81166115b081612c4e565b611af95760281c851615611af9576115c6612fa1565b604051630c47ab3d60e21b815273__$8a3883123a2a1b05b37447bdbb3fdcf5d3$__908481806115f93060048301612f0f565b0381855af480156102b357611adc575b508115610f995784600052601684526040600020906002820197885488808260281c169160081c16038881116119e0576116469060048501612e70565b905460039491851b1c421115611a3e578a600154169160405163a5118bf160e01b81528881600481875afa9081156102b357600091611a21575b50833b156102a657606460009283604051968794859363533dfa3560e01b855260048501528a0b8c8401528160448401525af19182156102b3578492611a12575b505b01548303610f99576040516323b872dd60e01b815233600482015230602482015260448101849052858160648160007f00000000000000000000000000000000000000000000000000000000000000008f165af19081156102b3576000916119f5575b5015610a475796959633600052600c85526040600020611747848254612f94565b905561175583600f54612f94565b600f556117648360105461304b565b60105585600052601185526040600020906002820154946000986007600685019401995b845481101561185357808d6117a06117d79388612e70565b905490891b1c16806000528c8b528b6117c78b6117c26040600020548d6130b1565b6130c4565b8c816117dc575b50505050613058565b611788565b7fe3e6ae1e05f069d410556743894aacbb190c1431962422ebe8fcc642a467dd169184600052601482526040600020805480831161184b575b8261181f91612f94565b905584600052600b8252604060002061183982825461304b565b9055604051908152a38e8b818c6117ce565b915081611815565b508888918c8833600052600c8552604060002054604051918252858201527f1b8cd61ed43bec7c6bdad3a18ffee613f99c853d16c50678d248d879e1b4343860403392a280825460281c16837f406356ef25520b09e2ef87c5225167b4161ea4ab691e9434d6ee29eafcc83fc286604051848152a27f17f13fd3f7c4712af33f1770ebcb822dd20a2dbc00850eab48d786623d97b95985600f54604051908152a160008051602061333d83398151915285601054604051908152a1600019018181116119e057825468ffffffff0000000000191660289190911b68ffffffff0000000000161782558154908160281c16156119aa575b505050823b156102a65760646000926303d1a1a194604051958694859363e63dd53160e01b855260026004860152339085015230901b1760401b60448301525af480156102b35761199b576001600055005b6119a490612e88565b80610f1b565b60ff191660021790557f02ca5489b37dd363d1302bac719e8ee40e540ffbe8c12253570fea63e11cad71600080a2838080611949565b85634e487b7160e01b60005260116004526000fd5b611a0c9150863d8811610a8157610a738183612ed5565b8a611726565b611a1b90612e88565b8b6116c1565b611a389150893d8b11610a4057610a318183612ed5565b8d611680565b8a6001541691604051634e5ecf1360e01b81528881600481875afa9081156102b357600091611abf575b50833b156102a657606460009283604051968794859363533dfa3560e01b855260048501528a0b8c840152600160448401525af19182156102b3578492611ab0575b506116c3565b611ab990612e88565b8b611aaa565b611ad69150893d8b11610a4057610a318183612ed5565b8d611a68565b611af290853d8711610a8157610a738183612ed5565b5088611609565b604051630b5ab5bf60e41b8152600490fd5b50600154604051632cc52b1560e11b8152336004820152906020908290849082906001600160a01b03165afa9081156102b357600091611b4d575b5015611562565b611b65915060203d8111610a8157610a738183612ed5565b86611b46565b346102a65760203660031901126102a657600435600052601160205261152c611b9a60066040600020016132e2565b604051918291602083526020830190612d25565b346102a65760003660031901126102a6576020601254604051908152f35b346102a65760203660031901126102a6576020611bef611bea612c22565b612ff7565b604051908152f35b346102a65760003660031901126102a65760405163404b48bf60e01b81526002600482015260008160248173__$8a3883123a2a1b05b37447bdbb3fdcf5d3$__5af480156102b35761152c91600091611c60575b50604051918291602083526020830190612d25565b611c7d91503d806000833e611c758183612ed5565b810190613139565b82611c4b565b346102a65760203660031901126102a6576001600160a01b03611ca4612c22565b1660005260146020526020604060002054604051908152f35b346102a65760203660031901126102a657611cd6612d75565b600154604051632076c8a160e21b815263ffffffff929092166004830152602090829060249082906001600160a01b03165afa80156102b357602091600091611d26575b506040519060030b8152f35b611d3d9150823d8111610a4057610a318183612ed5565b82611d1a565b612d9b565b346102a65760203660031901126102a657600435600052601660205261152c6115116115186004604060002001604051928380926130e4565b346102a65760003660031901126102a65760405163f28e2c2f60e01b81526002600482015260208160248173__$8a3883123a2a1b05b37447bdbb3fdcf5d3$__5af480156102b35760209160009161138057506040519015158152f35b346102a65760003660031901126102a6576020600e54604051908152f35b346102a65760003660031901126102a6576001546040516001600160a01b039091168152602090f35b346102a65760203660031901126102a6576001600160a01b03611e46612c22565b16600052600d6020526020604060002054604051908152f35b346102a65760203660031901126102a6576040611e7d600435613290565b825191825215156020820152f35b346102a65760403660031901126102a65760043563ffffffff611eac612d62565b1615801561208c575b610c67578015610f9957611ec7612fa1565b604051630c47ab3d60e21b8152602090818180611ee73060048301612f0f565b038173__$8a3883123a2a1b05b37447bdbb3fdcf5d3$__5af480156102b35761206f575b50611f1533612ff7565b821161205d5733600052600b81526040600020611f33838254612f94565b9055611f4182600e54612f94565b600e55611f5082601054612f94565b60105560405163a9059cbb60e01b815233600482015260248101839052818160448160006001600160a01b037f0000000000000000000000000000000000000000000000000000000000000000165af19081156102b357600091612040575b5015610a475760008051602061333d8339815191529133600052600b8252604060002054604051918252828201527f92ccf450a286a957af52509bc1c9939d1a6a481783e142e41e2499f0bb66ebc660403392a27fdc6e73d4b36e22ab95945bd8833a5af96c950eb29d8d75c4aecffc987637aaab81600e54604051908152a1601054604051908152a16001600055005b6120579150823d8411610a8157610a738183612ed5565b83611faf565b6040516302c6f54760e21b8152600490fd5b61208590823d8411610a8157610a738183612ed5565b5082611f0b565b50600154604051632cc52b1560e11b815233600482015290602090829060249082906001600160a01b03165afa9081156102b3576000916120cf575b5015611eb5565b6120e7915060203d8111610a8157610a738183612ed5565b826120c8565b346102a65760203660031901126102a657612106612c22565b600154604051632cc52b1560e11b81526001600160a01b0392831660048201529160209183916024918391165afa80156102b35760209160009161138057506040519015158152f35b346102a65760403660031901126102a657612168612c38565b600435600052601160205260076040600020019060018060a01b03166000526020526020604060002054604051908152f35b346102a65760203660031901126102a6576001600160a01b036121bb612c22565b16600052600b6020526020604060002054604051908152f35b346102a65760203660031901126102a6576121ed6131c3565b50600435600052601660205261152c612209604060002061320e565b604051918291602083526020830190612c58565b346102a65760203660031901126102a657612236612c22565b604051630b79b0a160e21b8152600260048201526001600160a01b03909116602482015260208160448173__$8a3883123a2a1b05b37447bdbb3fdcf5d3$__5af480156102b35760209160009161138057506040519015158152f35b346102a65760203660031901126102a657600435600052601660205260a06040600020601160205260406000209060028101549160ff83166122d381612c4e565b158061233d575b1561232557600363ffffffff809460281c169201549260086122fc85856130b1565b949392015416906001925b60405194855260208501526040840152606083015215156080820152f35b600801546000925082915063ffffffff168180612307565b5063ffffffff8360281c1615156122da565b346102a65760203660031901126102a657600435600052601660205260c0604060002060018060a01b0381541690600181015490600281015490600360ff83169101549260405194855260208501526123a781612c4e565b604084015263ffffffff90818160081c16606085015260281c16608083015260a0820152f35b346102a65760403660031901126102a6576123e6612d75565b6123ee612c38565b6001549091906001600160a01b03908116803b156102a6576000928360449263ffffffff94604051978896879563086ecc7960e21b87521660048601521660248401525af180156102b35761123957005b346102a65760203660031901126102a657600061012060405161246181612e9c565b8281528260208201528260408201528260608201528260808201528260a08201528260c08201528260e0820152606061010082015201526004356000526011602052604060002080549060018060a01b0360018201541690600281015460038201549160ff8360401c169163ffffffff6004830154946005840154928260088601541697604051996124f28b612e9c565b8a5260208a01526040890152818116606089015260201c1660808701526006831015610c1d576125349360069360a088015260c087015260e0860152016132e2565b61010083015261012082015260405190602082528051602083015260018060a01b0360208201511660408301526040810151606083015263ffffffff606082015116608083015263ffffffff60808201511660a083015260a0810151906006821015610c1d57829160c083015260c081015160e083015260e081015161010083015261010081015163ffffffff6101206125db610140938483880152610160870190612d25565b93015116908301520390f35b346102a65760a03660031901126102a657600435612603612d62565b906064359063ffffffff918281168091036102a657608435928084168094036102a65783600052602094601586526003826040600020541610156127ff57841580156127a0575b610c67578315610f995781169060468211801590612796575b610c455760018310801561278c575b61277a576010548411612768576012549461268c86613058565b601255856000526011875260406000209260018401336bffffffffffffffffffffffff60a01b825416179055856002850155600384019068ffffffffffffffffff19825416179055604435600484015542600584015585600884019363ffffffff1994868682541617905555336000526013875261270e866040600020613067565b6000526015865260406000209182549161272981841661309c565b16911617905560405191825283820152817fde3b47cf7da95a3cc41b86cf8717ead8d56a76ee1590481c5c4dc4d8804c40c460403393a3604051908152f35b60405163356680b760e01b8152600490fd5b60405163524eff2760e01b8152600490fd5b50600c8311612672565b5060648211612663565b50600154604051632cc52b1560e11b8152336004820152908790829060249082906001600160a01b03165afa9081156102b3576000916127e2575b501561264a565b6127f99150873d8911610a8157610a738183612ed5565b876127db565b604051635aad290f60e01b8152600490fd5b346102a65760003660031901126102a657604051637fd5e70b60e01b81526002600482015260008160248173__$8a3883123a2a1b05b37447bdbb3fdcf5d3$__5af480156102b35761152c91600091611c605750604051918291602083526020830190612d25565b346102a6576020806003193601126102a6576001600160a01b03908161289d612c22565b16806000526013825260406000206000916000918054925b838110612a8257506128c684613121565b956128d46040519788612ed5565b848752601f19806128e487613121565b0160005b818110612a675750506129136128fd87613121565b9661290b6040519889612ed5565b808852613121565b01368787013760009260005b85811061299f57888888604051928391604083019360408452825180955260608401948160608260051b8701019401956000905b82821061296f575050508361152c949550830390850152612cf1565b919395509193848061298d600193605f198c82030186528a51612c58565b98019201920187959391969492612953565b6129ac81859a999a612e70565b9054600391821b1c60005260168a52604060002083858254161480612a4f575b80612a39575b6129ea575b50506129e290613058565b97969761291f565b95612a31916129fc6129e2949861320e565b612a06838d6131fa565b52612a11828c6131fa565b50612a1c8888612e70565b9054911b1c612a2b828b6131fa565b52613058565b94908a6129d7565b5063ffffffff600282015460281c1615156129d2565b5060ff600282015416612a6181612c4e565b156129cc565b97809998612a736131c3565b82828c010152019897986128e8565b612a8f8183989798612e70565b90549060031b1c6000526016875260406000208387825416149081612af8575b81612ae1575b50612acc575b612ac490613058565b9594956128b5565b93612ad9612ac491613058565b949050612abb565b63ffffffff91506002015460281c16151588612ab5565b905060ff600282015416612b0b81612c4e565b1590612aaf565b346102a65760003660031901126102a6576020600f54604051908152f35b346102a65760203660031901126102a65767ffffffffffffffff6004358181116102a657366023820112156102a65780600401359182116102a6576024600591368285851b830101116102a6573060201b6303d1a1a11760401b939273__$8a3883123a2a1b05b37447bdbb3fdcf5d3$__9160005b858110612bae57005b80831b82018501356001600160a01b03811691908290036102a657843b156102a6576040519163e63dd53160e01b83526002600484015286830152876044830152600082606481885af49182156102b357612c0e92612c13575b50613058565b612ba5565b612c1c90612e88565b88612c08565b600435906001600160a01b03821682036102a657565b602435906001600160a01b03821682036102a657565b60031115610c1d57565b80516001600160a01b03168252602080820151818401526040820151909160e084019183916101009160c09190612c8e81612c4e565b604088015263ffffffff806060830151166060890152608082015116608088015260a081015160a088015201519460e060c082015285518094520193019160005b828110612cdd575050505090565b835185529381019392810192600101612ccf565b90815180825260208080930193019160005b828110612d11575050505090565b835185529381019392810192600101612d03565b90815180825260208080930193019160005b828110612d45575050505090565b83516001600160a01b031685529381019392810192600101612d37565b6024359063ffffffff821682036102a657565b6004359063ffffffff821682036102a657565b6044359063ffffffff821682036102a657565b346102a65760003660031901126102a6576020601054604051908152f35b346102a657600080600319360112612e6d576040516370a0823160e01b81523060048201526020816024817f00000000000000000000000000000000000000000000000000000000000000006001600160a01b03165afa908115612e62578291612e29575b602082604051908152f35b90506020813d8211612e5a575b81612e4360209383612ed5565b81010312612e5657602091505138612e1e565b5080fd5b3d9150612e36565b6040513d84823e3d90fd5b80fd5b8054821015610b055760005260206000200190600090565b67ffffffffffffffff8111610b1b57604052565b610140810190811067ffffffffffffffff821117610b1b57604052565b60e0810190811067ffffffffffffffff821117610b1b57604052565b90601f8019910116810190811067ffffffffffffffff821117610b1b57604052565b908160209103126102a6575180151581036102a65790565b919091606081019260028252602093606085840152600954809152608083019060096000527f6e1540171b6c0c960b71a7020d9f60077f6af931a8bbf590da0223dacf75c7af9060005b87828210612f775750505050931b6303d1a1a117604090811b910152565b83546001600160a01b031685529093019260019283019201612f59565b919082039182116109fa57565b600260005414612fb2576002600055565b60405162461bcd60e51b815260206004820152601f60248201527f5265656e7472616e637947756172643a207265656e7472616e742063616c6c006044820152606490fd5b60018060a01b0316600052600b6020526040600020546014602052604060002054808211613026575050600090565b61302f91612f94565b90565b908160209103126102a657518060030b81036102a65790565b919082018092116109fa57565b60001981146109fa5760010190565b8054600160401b811015610b1b5761308491600182018155612e70565b819291549060031b91821b91600019901b1916179055565b90600163ffffffff809316019182116109fa57565b818102929181159184041417156109fa57565b81156130ce570490565b634e487b7160e01b600052601260045260246000fd5b90815480825260208092019260005281600020916000905b82821061310a575050505090565b8354855293840193600193840193909101906130fc565b67ffffffffffffffff8111610b1b5760051b60200190565b60209081818403126102a65780519067ffffffffffffffff82116102a657019180601f840112156102a657825161316f81613121565b9361317d6040519586612ed5565b818552838086019260051b8201019283116102a6578301905b8282106131a4575050505090565b81516001600160a01b03811681036102a6578152908301908301613196565b604051906131d082612eb9565b606060c0836000808252806020830152806040830152808483015280608083015260a08201520152565b8051821015610b055760209160051b010190565b90600460c060405161321f81612eb9565b61328c819560018060a01b03815416835260018101546020840152600281015460ff811661324c81612c4e565b604085015263ffffffff90818160081c16606086015260281c166080840152600381015460a084015261328560405180968193016130e4565b0384612ed5565b0152565b60005260166020526040600020600281015460ff81166132af81612c4e565b1590816132cf575b506132c55750600090600090565b6003015490600190565b63ffffffff915060281c161515386132b7565b9060405191828154918282526020928383019160005283600020936000905b8282106133195750505061331792500383612ed5565b565b85546001600160a01b03168452600195860195889550938101939091019061330156fe8b094cca6f83d49402ce208cc0c224b76625ffc58636df56ae28024e704c5868a2646970667358221220e877051e1e918a285c13bc4922c5fa585203c611623b2e1a1d3144e5b125a93a64736f6c63430008130033","opcodes":"PUSH1 0xA0 CALLVALUE PUSH3 0xCF JUMPI PUSH1 0x1F PUSH3 0x3492 CODESIZE DUP2 SWAP1 SUB SWAP2 DUP3 ADD PUSH1 0x1F NOT AND DUP4 ADD SWAP2 PUSH1 0x1 PUSH1 0x1 PUSH1 0x40 SHL SUB DUP4 GT DUP5 DUP5 LT OR PUSH3 0xD4 JUMPI DUP1 DUP5 SWAP3 PUSH1 0x40 SWAP5 DUP6 MSTORE DUP4 CODECOPY DUP2 ADD SUB SLT PUSH3 0xCF JUMPI PUSH3 0x5A PUSH1 0x20 PUSH3 0x52 DUP4 PUSH3 0xEA JUMP JUMPDEST SWAP3 ADD PUSH3 0xEA JUMP JUMPDEST PUSH1 0x1 PUSH1 0x0 DUP2 SWAP1 SSTORE PUSH1 0x80 SWAP3 SWAP1 SWAP3 MSTORE DUP2 SLOAD PUSH1 0x1 PUSH1 0x1 PUSH1 0xA0 SHL SUB NOT AND PUSH1 0x1 PUSH1 0x1 PUSH1 0xA0 SHL SUB SWAP1 SWAP2 AND OR SWAP1 SSTORE PUSH3 0x278D00 PUSH1 0x8 SSTORE TIMESTAMP PUSH1 0x7 SSTORE PUSH1 0x40 MLOAD PUSH2 0x3392 SWAP1 DUP2 PUSH3 0x100 DUP3 CODECOPY PUSH1 0x80 MLOAD DUP2 DUP2 DUP2 PUSH2 0x828 ADD MSTORE DUP2 DUP2 PUSH2 0xD21 ADD MSTORE DUP2 DUP2 PUSH2 0xE44 ADD MSTORE DUP2 DUP2 PUSH2 0x12DC ADD MSTORE DUP2 DUP2 PUSH2 0x16F4 ADD MSTORE DUP2 DUP2 PUSH2 0x1F7E ADD MSTORE PUSH2 0x2DE6 ADD MSTORE RETURN JUMPDEST PUSH1 0x0 DUP1 REVERT JUMPDEST PUSH4 0x4E487B71 PUSH1 0xE0 SHL PUSH1 0x0 MSTORE PUSH1 0x41 PUSH1 0x4 MSTORE PUSH1 0x24 PUSH1 0x0 REVERT JUMPDEST MLOAD SWAP1 PUSH1 0x1 PUSH1 0x1 PUSH1 0xA0 SHL SUB DUP3 AND DUP3 SUB PUSH3 0xCF JUMPI JUMP INVALID PUSH1 0x80 PUSH1 0x40 MSTORE PUSH1 0x4 CALLDATASIZE LT ISZERO PUSH2 0x12 JUMPI PUSH1 0x0 DUP1 REVERT JUMPDEST PUSH1 0x0 CALLDATALOAD PUSH1 0xE0 SHR DUP1 PUSH4 0x16C704F EQ PUSH2 0x2B30 JUMPI DUP1 PUSH4 0x307C4A1 EQ PUSH2 0x2B12 JUMPI DUP1 PUSH4 0x3D1A1A1 EQ PUSH2 0x2879 JUMPI DUP1 PUSH4 0xBC21853 EQ PUSH2 0x2811 JUMPI DUP1 PUSH4 0x182D94B5 EQ PUSH2 0x25E7 JUMPI DUP1 PUSH4 0x1B70BA3E EQ PUSH2 0x243F JUMPI DUP1 PUSH4 0x21BB31E4 EQ PUSH2 0x23CD JUMPI DUP1 PUSH4 0x232869FA EQ PUSH2 0x234F JUMPI DUP1 PUSH4 0x291C31A7 EQ PUSH2 0x1D43 JUMPI DUP1 PUSH4 0x2B31C022 EQ PUSH2 0x2292 JUMPI DUP1 PUSH4 0x3403C25D EQ PUSH2 0x221D JUMPI DUP1 PUSH4 0x383AB2EF EQ PUSH2 0x21D4 JUMPI DUP1 PUSH4 0x410A1D32 EQ PUSH2 0x219A JUMPI DUP1 PUSH4 0x4E51C7DF EQ PUSH2 0x214F JUMPI DUP1 PUSH4 0x598A562A EQ PUSH2 0x20ED JUMPI DUP1 PUSH4 0x6145D1B7 EQ PUSH2 0x1E8B JUMPI DUP1 PUSH4 0x6509A710 EQ PUSH2 0x1E5F JUMPI DUP1 PUSH4 0x657EB031 EQ PUSH2 0x1E25 JUMPI DUP1 PUSH4 0x6587EDA1 EQ PUSH2 0x1DFC JUMPI DUP1 PUSH4 0x6F9FB98A EQ PUSH2 0x14C8 JUMPI DUP1 PUSH4 0x777C658F EQ PUSH2 0x1DDE JUMPI DUP1 PUSH4 0x79103400 EQ PUSH2 0x1D81 JUMPI DUP1 PUSH4 0x7D52437A EQ PUSH2 0x1D48 JUMPI DUP1 PUSH4 0x809DAB6A EQ PUSH2 0x1D43 JUMPI DUP1 PUSH4 0x81DB2284 EQ PUSH2 0x1CBD JUMPI DUP1 PUSH4 0x827CC0E5 EQ PUSH2 0x1C83 JUMPI DUP1 PUSH4 0x830EFD3B EQ PUSH2 0x1BF7 JUMPI DUP1 PUSH4 0x843592D3 EQ PUSH2 0x1BCC JUMPI DUP1 PUSH4 0x84DDF5EA EQ PUSH2 0x1BAE JUMPI DUP1 PUSH4 0x8A914A63 EQ PUSH2 0x1B6B JUMPI DUP1 PUSH4 0x9059F9CA EQ PUSH2 0x1530 JUMPI DUP1 PUSH4 0x9730872A EQ PUSH2 0x14CD JUMPI DUP1 PUSH4 0x9785FAC8 EQ PUSH2 0x14C8 JUMPI DUP1 PUSH4 0x97C33519 EQ PUSH2 0x13F5 JUMPI DUP1 PUSH4 0x9E932011 EQ PUSH2 0x139D JUMPI DUP1 PUSH4 0xA7AF6947 EQ PUSH2 0x130B JUMPI DUP1 PUSH4 0xA98AD46C EQ PUSH2 0x12C6 JUMPI DUP1 PUSH4 0xADCEB101 EQ PUSH2 0x1244 JUMPI DUP1 PUSH4 0xB9F0FEC4 EQ PUSH2 0x11B4 JUMPI DUP1 PUSH4 0xBE5EB580 EQ PUSH2 0x117A JUMPI DUP1 PUSH4 0xC269014B EQ PUSH2 0x10DB JUMPI DUP1 PUSH4 0xCCDCE44E EQ PUSH2 0x100C JUMPI DUP1 PUSH4 0xE2763924 EQ PUSH2 0xD88 JUMPI DUP1 PUSH4 0xEB5A662E EQ PUSH2 0xCDA JUMPI DUP1 PUSH4 0xECB18B34 EQ PUSH2 0x370 JUMPI DUP1 PUSH4 0xF0853E1D EQ PUSH2 0x2BF JUMPI PUSH4 0xF947A8A9 EQ PUSH2 0x221 JUMPI PUSH1 0x0 DUP1 REVERT JUMPDEST CALLVALUE PUSH2 0x2A6 JUMPI PUSH1 0x0 CALLDATASIZE PUSH1 0x3 NOT ADD SLT PUSH2 0x2A6 JUMPI PUSH1 0x40 MLOAD PUSH4 0x6ECF8073 PUSH1 0xE1 SHL DUP2 MSTORE PUSH1 0x2 PUSH1 0x4 DUP3 ADD MSTORE PUSH1 0x20 DUP2 PUSH1 0x24 DUP2 PUSH20 0x0 GAS DELEGATECALL DUP1 ISZERO PUSH2 0x2B3 JUMPI PUSH1 0x0 SWAP1 PUSH2 0x27C JUMPI JUMPDEST PUSH1 0x20 SWAP1 PUSH1 0x40 MLOAD SWAP1 DUP2 MSTORE RETURN JUMPDEST POP PUSH1 0x20 DUP2 RETURNDATASIZE DUP3 GT PUSH2 0x2AB JUMPI JUMPDEST DUP2 PUSH2 0x295 PUSH1 0x20 SWAP4 DUP4 PUSH2 0x2ED5 JUMP JUMPDEST DUP2 ADD SUB SLT PUSH2 0x2A6 JUMPI PUSH1 0x20 SWAP1 MLOAD PUSH2 0x271 JUMP JUMPDEST PUSH1 0x0 DUP1 REVERT JUMPDEST RETURNDATASIZE SWAP2 POP PUSH2 0x288 JUMP JUMPDEST PUSH1 0x40 MLOAD RETURNDATASIZE PUSH1 0x0 DUP3 RETURNDATACOPY RETURNDATASIZE SWAP1 REVERT JUMPDEST CALLVALUE PUSH2 0x2A6 JUMPI PUSH1 0x20 DUP1 PUSH1 0x3 NOT CALLDATASIZE ADD SLT PUSH2 0x2A6 JUMPI PUSH2 0x2D9 PUSH2 0x2C22 JUMP JUMPDEST PUSH1 0x40 MLOAD PUSH4 0x15FFAE5B PUSH1 0xE2 SHL DUP2 MSTORE PUSH1 0x2 PUSH1 0x4 DUP3 ADD MSTORE PUSH1 0x1 PUSH1 0x1 PUSH1 0xA0 SHL SUB SWAP1 SWAP2 AND PUSH1 0x24 DUP3 ADD MSTORE DUP2 DUP2 PUSH1 0x44 DUP2 PUSH20 0x0 GAS DELEGATECALL SWAP1 DUP2 ISZERO PUSH2 0x2B3 JUMPI PUSH1 0x0 SWAP2 PUSH2 0x33A JUMPI JUMPDEST POP PUSH1 0x40 MLOAD SWAP1 PUSH2 0x336 DUP2 PUSH2 0x2C4E JUMP JUMPDEST DUP2 MSTORE RETURN JUMPDEST SWAP1 POP DUP2 DUP2 DUP2 RETURNDATASIZE DUP4 GT PUSH2 0x369 JUMPI JUMPDEST PUSH2 0x351 DUP2 DUP4 PUSH2 0x2ED5 JUMP JUMPDEST DUP2 ADD SUB SLT PUSH2 0x2A6 JUMPI MLOAD PUSH1 0x3 DUP2 LT ISZERO PUSH2 0x2A6 JUMPI DUP3 PUSH2 0x328 JUMP JUMPDEST POP RETURNDATASIZE PUSH2 0x347 JUMP JUMPDEST CALLVALUE PUSH2 0x2A6 JUMPI PUSH1 0x60 CALLDATASIZE PUSH1 0x3 NOT ADD SLT PUSH2 0x2A6 JUMPI PUSH2 0x389 PUSH2 0x2D62 JUMP JUMPDEST PUSH4 0xFFFFFFFF PUSH2 0x396 PUSH2 0x2D88 JUMP JUMPDEST AND SWAP1 DUP2 ISZERO DUP1 ISZERO PUSH2 0xC79 JUMPI JUMPDEST PUSH2 0xC67 JUMPI PUSH4 0xFFFFFFFF DUP2 AND ISZERO DUP1 ISZERO PUSH2 0xC57 JUMPI JUMPDEST PUSH2 0xC45 JUMPI PUSH1 0x9 PUSH4 0xFFFFFFFF DUP3 AND GT ISZERO PUSH2 0xC33 JUMPI PUSH2 0x3CF PUSH2 0x2FA1 JUMP JUMPDEST PUSH1 0x4 CALLDATALOAD PUSH1 0x0 MSTORE PUSH1 0x11 PUSH1 0x20 MSTORE PUSH1 0x40 PUSH1 0x0 KECCAK256 SWAP2 PUSH1 0x3 DUP4 ADD DUP1 SLOAD PUSH1 0xFF DUP2 PUSH1 0x40 SHR AND PUSH1 0x6 DUP2 LT ISZERO PUSH2 0xC1D JUMPI DUP1 ISZERO ISZERO SWAP1 DUP2 PUSH2 0xC11 JUMPI JUMPDEST POP PUSH2 0xBFF JUMPI PUSH2 0x41D PUSH1 0x64 SWAP2 PUSH4 0xFFFFFFFF DUP1 DUP8 AND SWAP2 PUSH1 0x20 SHR AND PUSH2 0x304B JUMP JUMPDEST GT PUSH2 0xBED JUMPI PUSH2 0x436 PUSH4 0xFFFFFFFF DUP5 AND PUSH1 0x2 DUP7 ADD SLOAD PUSH2 0x30B1 JUMP JUMPDEST SWAP4 PUSH8 0xDE0B6B3A7640000 SWAP5 DUP6 DUP2 MUL SWAP6 DUP2 DUP8 DIV EQ SWAP1 ISZERO OR ISZERO PUSH2 0x9FA JUMPI PUSH9 0x56BC75E2D630FFFFF DUP6 ADD DUP1 SWAP6 GT PUSH2 0x9FA JUMPI CALLER PUSH1 0x0 MSTORE PUSH1 0xB PUSH1 0x20 MSTORE PUSH9 0x56BC75E2D63100000 DUP6 DIV PUSH1 0x40 PUSH1 0x0 KECCAK256 SLOAD LT PUSH2 0xBDB JUMPI CALLER PUSH1 0x0 MSTORE PUSH1 0xB PUSH1 0x20 MSTORE PUSH1 0x40 PUSH1 0x0 KECCAK256 PUSH2 0x4A8 PUSH9 0x56BC75E2D63100000 DUP8 DIV DUP3 SLOAD PUSH2 0x2F94 JUMP JUMPDEST SWAP1 SSTORE CALLER PUSH1 0x0 MSTORE PUSH1 0x14 PUSH1 0x20 MSTORE PUSH1 0x40 PUSH1 0x0 KECCAK256 PUSH2 0x4CE PUSH9 0x56BC75E2D63100000 DUP8 DIV DUP3 SLOAD PUSH2 0x304B JUMP JUMPDEST SWAP1 SSTORE DUP2 SLOAD PUSH4 0xFFFFFFFF DUP6 AND PUSH4 0xFFFFFFFF DUP3 PUSH1 0x20 SHR AND ADD PUSH4 0xFFFFFFFF DUP2 GT PUSH2 0x9FA JUMPI PUSH8 0xFFFFFFFF00000000 SWAP1 PUSH1 0x20 SHL AND SWAP1 PUSH8 0xFFFFFFFF00000000 NOT AND OR DUP3 SSTORE PUSH1 0x7 DUP2 ADD SWAP1 CALLER PUSH1 0x0 MSTORE DUP2 PUSH1 0x20 MSTORE PUSH1 0x40 PUSH1 0x0 KECCAK256 SLOAD ISZERO PUSH2 0xB99 JUMPI JUMPDEST POP CALLER PUSH1 0x0 MSTORE PUSH1 0x20 MSTORE PUSH1 0x40 PUSH1 0x0 KECCAK256 PUSH2 0x548 PUSH9 0x56BC75E2D63100000 DUP7 DIV DUP3 SLOAD PUSH2 0x304B JUMP JUMPDEST SWAP1 SSTORE DUP1 SLOAD PUSH4 0xFFFFFFFF DUP2 AND PUSH4 0xFFFFFFFF DUP3 PUSH1 0x20 SHR AND LT ISZERO PUSH1 0x0 EQ PUSH2 0xB80 JUMPI POP PUSH9 0x20000000000000000 PUSH1 0xFF PUSH1 0x40 SHL NOT DUP3 SLOAD AND OR SWAP1 SSTORE DUP1 PUSH1 0x0 MSTORE PUSH1 0x15 PUSH1 0x20 MSTORE PUSH1 0x40 PUSH1 0x0 KECCAK256 PUSH4 0xFFFFFFFF NOT DUP2 SLOAD AND SWAP1 SSTORE PUSH1 0x4 CALLDATALOAD PUSH1 0x0 MSTORE PUSH1 0x16 PUSH1 0x20 MSTORE PUSH1 0x40 PUSH1 0x0 KECCAK256 PUSH1 0x11 PUSH1 0x20 MSTORE PUSH2 0x64B PUSH1 0x40 PUSH1 0x0 KECCAK256 PUSH1 0x1 DUP1 PUSH1 0xA0 SHL SUB PUSH1 0x1 DUP3 ADD SLOAD AND PUSH12 0xFFFFFFFFFFFFFFFFFFFFFFFF PUSH1 0xA0 SHL DUP5 SLOAD AND OR DUP4 SSTORE PUSH1 0x4 CALLDATALOAD PUSH1 0x1 DUP5 ADD SSTORE PUSH4 0xFFFFFFFF PUSH1 0x2 DUP1 DUP6 ADD SLOAD SWAP3 PUSH1 0xFF NOT DUP5 AND DUP3 DUP8 ADD SSTORE PUSH1 0x8 DUP2 ADD SWAP4 PUSH5 0xFFFFFFFF00 DUP6 SLOAD PUSH1 0x8 SHL AND SWAP1 PUSH5 0xFFFFFFFFFF NOT AND OR DUP3 DUP8 ADD SSTORE PUSH2 0x640 DUP4 DUP6 SLOAD AND DUP4 DUP9 ADD SWAP1 PUSH9 0xFFFFFFFF0000000000 DUP3 SLOAD SWAP2 PUSH1 0x28 SHL AND SWAP1 PUSH9 0xFFFFFFFF0000000000 NOT AND OR SWAP1 SSTORE JUMP JUMPDEST ADD SLOAD SWAP2 SLOAD AND SWAP1 PUSH2 0x30C4 JUMP JUMPDEST PUSH1 0x3 DUP3 ADD SSTORE PUSH1 0x4 CALLDATALOAD PUSH1 0x0 MSTORE PUSH1 0x11 PUSH1 0x20 MSTORE PUSH4 0xFFFFFFFF PUSH1 0x8 PUSH1 0x40 PUSH1 0x0 KECCAK256 ADD SLOAD AND PUSH1 0x0 JUMPDEST DUP2 PUSH4 0xFFFFFFFF DUP3 AND LT PUSH2 0xB31 JUMPI POP POP PUSH1 0x1 DUP1 PUSH1 0xA0 SHL SUB DUP2 SLOAD AND PUSH32 0x5215406E88F26EED4728B9CDFC5D85CEA75799101CB9387B528451E6E0878DEC PUSH1 0x2 DUP4 ADD SLOAD PUSH1 0xFF DUP2 AND SWAP1 PUSH4 0xFFFFFFFF PUSH1 0x3 DUP7 ADD SLOAD SWAP2 PUSH1 0x40 MLOAD SWAP4 PUSH2 0x6C9 DUP2 PUSH2 0x2C4E JUMP JUMPDEST DUP5 MSTORE PUSH1 0x28 SHR AND PUSH1 0x20 DUP4 ADD MSTORE PUSH1 0x40 DUP3 ADD MSTORE PUSH1 0x80 PUSH1 0x60 DUP3 ADD MSTORE DUP1 PUSH2 0x6F5 PUSH1 0x4 CALLDATALOAD SWAP6 PUSH1 0x4 PUSH1 0x80 DUP5 ADD SWAP2 ADD PUSH2 0x30E4 JUMP JUMPDEST SUB SWAP1 LOG3 PUSH1 0x4 CALLDATALOAD PUSH1 0x0 MSTORE PUSH1 0x11 PUSH1 0x20 MSTORE PUSH1 0x40 PUSH1 0x0 KECCAK256 PUSH1 0x1 DUP1 PUSH1 0xA0 SHL SUB PUSH1 0x1 DUP3 ADD SLOAD AND SWAP1 DUP2 PUSH1 0x0 MSTORE PUSH1 0xA PUSH1 0x20 MSTORE PUSH1 0xFF PUSH1 0x40 PUSH1 0x0 KECCAK256 SLOAD AND ISZERO PUSH2 0xA97 JUMPI JUMPDEST PUSH1 0x3 PUSH1 0x2 DUP3 ADD SWAP2 DUP3 SLOAD PUSH1 0xC PUSH1 0x20 MSTORE PUSH2 0x74C PUSH1 0x40 PUSH1 0x0 KECCAK256 SWAP2 DUP3 SLOAD PUSH2 0x304B JUMP JUMPDEST SWAP1 SSTORE PUSH2 0x75B DUP4 SLOAD PUSH1 0xF SLOAD PUSH2 0x304B JUMP JUMPDEST PUSH1 0xF SSTORE PUSH2 0x76B DUP4 SLOAD PUSH1 0x10 SLOAD PUSH2 0x2F94 JUMP JUMPDEST PUSH1 0x10 SSTORE DUP4 PUSH1 0x0 MSTORE PUSH1 0xD PUSH1 0x20 MSTORE TIMESTAMP PUSH1 0x40 PUSH1 0x0 KECCAK256 SSTORE ADD PUSH9 0x30000000000000000 PUSH1 0xFF PUSH1 0x40 SHL NOT DUP3 SLOAD AND OR SWAP1 SSTORE PUSH20 0x0 DUP1 EXTCODESIZE ISZERO PUSH2 0x2A6 JUMPI PUSH1 0x0 PUSH1 0x64 SWAP2 PUSH1 0x40 MLOAD SWAP3 DUP4 DUP1 SWAP3 PUSH4 0xE63DD531 PUSH1 0xE0 SHL DUP3 MSTORE PUSH1 0x2 PUSH1 0x4 DUP4 ADD MSTORE DUP8 PUSH1 0x24 DUP4 ADD MSTORE PUSH4 0x3D1A1A1 ADDRESS PUSH1 0x20 SHL OR PUSH1 0x40 SHL PUSH1 0x44 DUP4 ADD MSTORE GAS DELEGATECALL DUP1 ISZERO PUSH2 0x2B3 JUMPI PUSH2 0xA88 JUMPI JUMPDEST POP DUP1 SLOAD PUSH1 0x40 MLOAD PUSH4 0xA9059CBB PUSH1 0xE0 SHL DUP2 MSTORE PUSH1 0x1 PUSH1 0x1 PUSH1 0xA0 SHL SUB DUP5 AND PUSH1 0x4 DUP3 ADD MSTORE PUSH1 0x24 DUP2 ADD SWAP2 SWAP1 SWAP2 MSTORE PUSH1 0x20 DUP2 DUP1 PUSH1 0x44 DUP2 ADD SUB DUP2 PUSH1 0x0 PUSH32 0x0 PUSH1 0x1 PUSH1 0x1 PUSH1 0xA0 SHL SUB AND GAS CALL SWAP1 DUP2 ISZERO PUSH2 0x2B3 JUMPI PUSH1 0x0 SWAP2 PUSH2 0xA59 JUMPI JUMPDEST POP ISZERO PUSH2 0xA47 JUMPI PUSH1 0x40 PUSH32 0xEAE9CFBC77FDD40CA899F36B608256063B2BC9D8178B0220F7AD513E178D6730 SWAP2 SLOAD DUP4 PUSH1 0x0 MSTORE PUSH1 0xC PUSH1 0x20 MSTORE DUP2 PUSH1 0x0 KECCAK256 SLOAD DUP3 MLOAD SWAP2 DUP3 MSTORE PUSH1 0x20 DUP3 ADD MSTORE LOG2 PUSH32 0x17F13FD3F7C4712AF33F1770EBCB822DD20A2DBC00850EAB48D786623D97B959 PUSH1 0x20 PUSH1 0xF SLOAD PUSH1 0x40 MLOAD SWAP1 DUP2 MSTORE LOG1 PUSH1 0x0 DUP1 MLOAD PUSH1 0x20 PUSH2 0x333D DUP4 CODECOPY DUP2 MLOAD SWAP2 MSTORE PUSH1 0x20 PUSH1 0x10 SLOAD PUSH1 0x40 MLOAD SWAP1 DUP2 MSTORE LOG1 PUSH1 0x4 CALLDATALOAD PUSH32 0x9E71D2FB732E68272B7E74ECFD14638673C1D77E19A5D390A3FFFF054D57C44B PUSH1 0x0 DUP1 LOG2 JUMPDEST PUSH1 0x1 SLOAD PUSH1 0x40 MLOAD PUSH4 0x6ADF4625 PUSH1 0xE1 SHL DUP2 MSTORE PUSH1 0x1 PUSH1 0x1 PUSH1 0xA0 SHL SUB SWAP1 SWAP2 AND SWAP3 PUSH1 0x20 DUP3 PUSH1 0x4 DUP2 DUP8 GAS STATICCALL SWAP2 DUP3 ISZERO PUSH2 0x2B3 JUMPI PUSH1 0x0 SWAP3 PUSH2 0xA10 JUMPI JUMPDEST POP PUSH4 0xFFFFFFFF AND PUSH1 0x3 SIGNEXTEND SWAP1 PUSH1 0x3 SIGNEXTEND MUL DUP1 PUSH1 0x3 SIGNEXTEND SWAP1 DUP2 SUB PUSH2 0x9FA JUMPI DUP3 EXTCODESIZE ISZERO PUSH2 0x2A6 JUMPI PUSH1 0x64 PUSH1 0x0 SWAP3 DUP4 PUSH1 0xA SWAP6 PUSH1 0x40 MLOAD SWAP7 DUP8 SWAP6 DUP7 SWAP5 PUSH4 0x533DFA35 PUSH1 0xE0 SHL DUP7 MSTORE PUSH1 0x4 DUP7 ADD MSTORE SDIV PUSH1 0x3 SIGNEXTEND PUSH1 0x24 DUP5 ADD MSTORE PUSH1 0x1 PUSH1 0x44 DUP5 ADD MSTORE GAS CALL DUP1 ISZERO PUSH2 0x2B3 JUMPI PUSH2 0x9EB JUMPI JUMPDEST POP PUSH9 0x56BC75E2D63100000 PUSH1 0x40 MLOAD SWAP2 DIV DUP2 MSTORE CALLER SWAP1 PUSH32 0x86B47E6E6C03D769C0BC5FFD06C682EA7D07089576D59230EC18FF64E71BFFE7 PUSH1 0x20 PUSH1 0x4 CALLDATALOAD SWAP3 LOG3 PUSH1 0x1 PUSH1 0x0 SSTORE STOP JUMPDEST PUSH2 0x9F4 SWAP1 PUSH2 0x2E88 JUMP JUMPDEST DUP2 PUSH2 0x9A8 JUMP JUMPDEST PUSH4 0x4E487B71 PUSH1 0xE0 SHL PUSH1 0x0 MSTORE PUSH1 0x11 PUSH1 0x4 MSTORE PUSH1 0x24 PUSH1 0x0 REVERT JUMPDEST PUSH4 0xFFFFFFFF SWAP2 SWAP3 POP PUSH2 0xA39 SWAP1 PUSH1 0x20 RETURNDATASIZE PUSH1 0x20 GT PUSH2 0xA40 JUMPI JUMPDEST PUSH2 0xA31 DUP2 DUP4 PUSH2 0x2ED5 JUMP JUMPDEST DUP2 ADD SWAP1 PUSH2 0x3032 JUMP JUMPDEST SWAP2 SWAP1 PUSH2 0x94A JUMP JUMPDEST POP RETURNDATASIZE PUSH2 0xA27 JUMP JUMPDEST PUSH1 0x40 MLOAD PUSH4 0x22E2581 PUSH1 0xE1 SHL DUP2 MSTORE PUSH1 0x4 SWAP1 REVERT JUMPDEST PUSH2 0xA7B SWAP2 POP PUSH1 0x20 RETURNDATASIZE PUSH1 0x20 GT PUSH2 0xA81 JUMPI JUMPDEST PUSH2 0xA73 DUP2 DUP4 PUSH2 0x2ED5 JUMP JUMPDEST DUP2 ADD SWAP1 PUSH2 0x2EF7 JUMP JUMPDEST DUP7 PUSH2 0x861 JUMP JUMPDEST POP RETURNDATASIZE PUSH2 0xA69 JUMP JUMPDEST PUSH2 0xA91 SWAP1 PUSH2 0x2E88 JUMP JUMPDEST DUP6 PUSH2 0x7F3 JUMP JUMPDEST PUSH1 0x9 SLOAD PUSH1 0x1 PUSH1 0x40 SHL DUP2 LT ISZERO PUSH2 0xB1B JUMPI PUSH1 0x1 DUP2 ADD DUP1 PUSH1 0x9 SSTORE DUP2 LT ISZERO PUSH2 0xB05 JUMPI PUSH32 0x6E1540171B6C0C960B71A7020D9F60077F6AF931A8BBF590DA0223DACF75C7AF ADD DUP1 SLOAD PUSH1 0x1 PUSH1 0x1 PUSH1 0xA0 SHL SUB NOT AND DUP4 OR SWAP1 SSTORE PUSH1 0x0 DUP3 DUP2 MSTORE PUSH1 0xA PUSH1 0x20 MSTORE PUSH1 0x40 SWAP1 KECCAK256 DUP1 SLOAD PUSH1 0xFF NOT AND PUSH1 0x1 OR SWAP1 SSTORE PUSH2 0x72E JUMP JUMPDEST PUSH4 0x4E487B71 PUSH1 0xE0 SHL PUSH1 0x0 MSTORE PUSH1 0x32 PUSH1 0x4 MSTORE PUSH1 0x24 PUSH1 0x0 REVERT JUMPDEST PUSH4 0x4E487B71 PUSH1 0xE0 SHL PUSH1 0x0 MSTORE PUSH1 0x41 PUSH1 0x4 MSTORE PUSH1 0x24 PUSH1 0x0 REVERT JUMPDEST PUSH4 0xFFFFFFFF PUSH2 0xB3F DUP3 PUSH2 0x309C JUMP JUMPDEST AND SWAP1 PUSH3 0x278D00 SWAP2 DUP1 DUP4 MUL SWAP3 DUP4 DIV SUB PUSH2 0x9FA JUMPI PUSH2 0xB6C PUSH2 0xB63 PUSH4 0xFFFFFFFF SWAP4 TIMESTAMP PUSH2 0x304B JUMP JUMPDEST PUSH1 0x4 DUP7 ADD PUSH2 0x3067 JUMP JUMPDEST AND PUSH4 0xFFFFFFFF DUP2 EQ PUSH2 0x9FA JUMPI PUSH1 0x1 ADD PUSH2 0x66D JUMP JUMPDEST PUSH9 0xFF0000000000000000 NOT AND PUSH1 0x1 PUSH1 0x40 SHL OR SWAP1 SSTORE PUSH2 0x916 JUMP JUMPDEST PUSH1 0x6 ADD DUP1 SLOAD PUSH1 0x1 PUSH1 0x40 SHL DUP2 LT ISZERO PUSH2 0xB1B JUMPI PUSH2 0xBB9 SWAP2 PUSH1 0x1 DUP3 ADD DUP2 SSTORE PUSH2 0x2E70 JUMP JUMPDEST DUP2 SLOAD PUSH1 0x1 PUSH1 0x1 PUSH1 0xA0 SHL SUB PUSH1 0x3 SWAP3 SWAP1 SWAP3 SHL SWAP2 DUP3 SHL NOT AND CALLER SWAP1 SWAP2 SHL OR SWAP1 SSTORE DUP6 PUSH2 0x525 JUMP JUMPDEST PUSH1 0x40 MLOAD PUSH4 0x391ACF1 PUSH1 0xE6 SHL DUP2 MSTORE PUSH1 0x4 SWAP1 REVERT JUMPDEST PUSH1 0x40 MLOAD PUSH4 0x955F95AD PUSH1 0xE0 SHL DUP2 MSTORE PUSH1 0x4 SWAP1 REVERT JUMPDEST PUSH1 0x40 MLOAD PUSH4 0x80B9CB09 PUSH1 0xE0 SHL DUP2 MSTORE PUSH1 0x4 SWAP1 REVERT JUMPDEST PUSH1 0x1 SWAP2 POP EQ ISZERO DUP7 PUSH2 0x400 JUMP JUMPDEST PUSH4 0x4E487B71 PUSH1 0xE0 SHL PUSH1 0x0 MSTORE PUSH1 0x21 PUSH1 0x4 MSTORE PUSH1 0x24 PUSH1 0x0 REVERT JUMPDEST PUSH1 0x40 MLOAD PUSH4 0xF556155F PUSH1 0xE0 SHL DUP2 MSTORE PUSH1 0x4 SWAP1 REVERT JUMPDEST PUSH1 0x40 MLOAD PUSH4 0xD1E95ED5 PUSH1 0xE0 SHL DUP2 MSTORE PUSH1 0x4 SWAP1 REVERT JUMPDEST POP PUSH1 0x64 PUSH4 0xFFFFFFFF DUP3 AND GT PUSH2 0x3B4 JUMP JUMPDEST PUSH1 0x40 MLOAD PUSH4 0xCFF23E7 PUSH1 0xE0 SHL DUP2 MSTORE PUSH1 0x4 SWAP1 REVERT JUMPDEST POP PUSH1 0x1 SLOAD PUSH1 0x40 MLOAD PUSH4 0x2CC52B15 PUSH1 0xE1 SHL DUP2 MSTORE CALLER PUSH1 0x4 DUP3 ADD MSTORE SWAP1 PUSH1 0x20 SWAP1 DUP3 SWAP1 PUSH1 0x24 SWAP1 DUP3 SWAP1 PUSH1 0x1 PUSH1 0x1 PUSH1 0xA0 SHL SUB AND GAS STATICCALL SWAP1 DUP2 ISZERO PUSH2 0x2B3 JUMPI PUSH1 0x0 SWAP2 PUSH2 0xCBC JUMPI JUMPDEST POP ISZERO PUSH2 0x3A1 JUMP JUMPDEST PUSH2 0xCD4 SWAP2 POP PUSH1 0x20 RETURNDATASIZE DUP2 GT PUSH2 0xA81 JUMPI PUSH2 0xA73 DUP2 DUP4 PUSH2 0x2ED5 JUMP JUMPDEST DUP4 PUSH2 0xCB5 JUMP JUMPDEST CALLVALUE PUSH2 0x2A6 JUMPI PUSH1 0x20 DUP1 PUSH1 0x3 NOT CALLDATASIZE ADD SLT PUSH2 0x2A6 JUMPI PUSH1 0x44 DUP2 PUSH2 0xCF7 PUSH2 0x2C22 JUMP JUMPDEST PUSH1 0x40 MLOAD PUSH4 0x6EB1769F PUSH1 0xE1 SHL DUP2 MSTORE PUSH1 0x1 PUSH1 0x1 PUSH1 0xA0 SHL SUB SWAP2 DUP3 AND PUSH1 0x4 DUP3 ADD MSTORE ADDRESS PUSH1 0x24 DUP3 ADD MSTORE SWAP3 DUP4 SWAP2 DUP3 SWAP1 PUSH32 0x0 AND GAS STATICCALL SWAP1 DUP2 ISZERO PUSH2 0x2B3 JUMPI PUSH1 0x0 SWAP2 PUSH2 0xD5B JUMPI JUMPDEST POP PUSH1 0x40 MLOAD SWAP1 DUP2 MSTORE RETURN JUMPDEST SWAP1 POP DUP2 DUP2 DUP2 RETURNDATASIZE DUP4 GT PUSH2 0xD81 JUMPI JUMPDEST PUSH2 0xD72 DUP2 DUP4 PUSH2 0x2ED5 JUMP JUMPDEST DUP2 ADD SUB SLT PUSH2 0x2A6 JUMPI MLOAD DUP3 PUSH2 0xD52 JUMP JUMPDEST POP RETURNDATASIZE PUSH2 0xD68 JUMP JUMPDEST CALLVALUE PUSH2 0x2A6 JUMPI PUSH1 0x40 CALLDATASIZE PUSH1 0x3 NOT ADD SLT PUSH2 0x2A6 JUMPI PUSH1 0x4 CALLDATALOAD PUSH4 0xFFFFFFFF PUSH2 0xDA9 PUSH2 0x2D62 JUMP JUMPDEST AND ISZERO DUP1 ISZERO PUSH2 0xFAB JUMPI JUMPDEST PUSH2 0xC67 JUMPI DUP1 ISZERO PUSH2 0xF99 JUMPI PUSH2 0xDC4 PUSH2 0x2FA1 JUMP JUMPDEST PUSH1 0x40 MLOAD PUSH4 0xC47AB3D PUSH1 0xE2 SHL DUP2 MSTORE PUSH1 0x20 SWAP1 DUP2 DUP2 DUP1 PUSH2 0xDE4 ADDRESS PUSH1 0x4 DUP4 ADD PUSH2 0x2F0F JUMP JUMPDEST SUB DUP2 PUSH20 0x0 GAS DELEGATECALL DUP1 ISZERO PUSH2 0x2B3 JUMPI PUSH2 0xF7C JUMPI JUMPDEST POP PUSH3 0x4C4B40 DUP3 GT PUSH2 0xF6A JUMPI PUSH1 0x40 MLOAD PUSH4 0x23B872DD PUSH1 0xE0 SHL DUP2 MSTORE CALLER PUSH1 0x4 DUP3 ADD MSTORE ADDRESS PUSH1 0x24 DUP3 ADD MSTORE PUSH1 0x44 DUP2 ADD DUP4 SWAP1 MSTORE DUP2 DUP2 PUSH1 0x64 DUP2 PUSH1 0x0 PUSH1 0x1 PUSH1 0x1 PUSH1 0xA0 SHL SUB PUSH32 0x0 AND GAS CALL SWAP1 DUP2 ISZERO PUSH2 0x2B3 JUMPI PUSH1 0x0 SWAP2 PUSH2 0xF4D JUMPI JUMPDEST POP ISZERO PUSH2 0xA47 JUMPI PUSH1 0x0 DUP1 MLOAD PUSH1 0x20 PUSH2 0x333D DUP4 CODECOPY DUP2 MLOAD SWAP2 MSTORE SWAP1 CALLER PUSH1 0x0 MSTORE PUSH1 0xB DUP2 MSTORE PUSH1 0x40 PUSH1 0x0 KECCAK256 PUSH32 0xDC6E73D4B36E22AB95945BD8833A5AF96C950EB29D8D75C4AECFFC987637AAAB DUP3 DUP3 SLOAD SWAP6 DUP1 DUP8 ADD DUP5 SSTORE DUP1 PUSH1 0xE SLOAD ADD SWAP1 DUP2 PUSH1 0xE SSTORE DUP1 PUSH1 0x10 SLOAD ADD SWAP5 DUP6 PUSH1 0x10 SSTORE SLOAD PUSH1 0x40 MLOAD SWAP2 DUP3 MSTORE DUP4 DUP3 ADD MSTORE PUSH32 0x4928895BA6723E8E27B15F32E4C3054A1B6C7F8C03F133558D6FA42B3928D14C PUSH1 0x40 CALLER SWAP3 LOG2 PUSH1 0x40 MLOAD SWAP1 DUP2 MSTORE LOG1 PUSH1 0x40 MLOAD SWAP1 DUP2 MSTORE LOG1 ISZERO PUSH2 0xF22 JUMPI JUMPDEST PUSH1 0x1 PUSH1 0x0 SSTORE STOP JUMPDEST CALLER PUSH32 0x72DAFB6AABE3F02118BC607EFBEAAA104D6B2009720C7B130F24BA418689C4B PUSH1 0x0 DUP1 LOG2 PUSH2 0xF1B JUMP JUMPDEST PUSH2 0xF64 SWAP2 POP DUP3 RETURNDATASIZE DUP5 GT PUSH2 0xA81 JUMPI PUSH2 0xA73 DUP2 DUP4 PUSH2 0x2ED5 JUMP JUMPDEST DUP4 PUSH2 0xE75 JUMP JUMPDEST PUSH1 0x40 MLOAD PUSH4 0x30FDF8DB PUSH1 0xE1 SHL DUP2 MSTORE PUSH1 0x4 SWAP1 REVERT JUMPDEST PUSH2 0xF92 SWAP1 DUP3 RETURNDATASIZE DUP5 GT PUSH2 0xA81 JUMPI PUSH2 0xA73 DUP2 DUP4 PUSH2 0x2ED5 JUMP JUMPDEST POP DUP3 PUSH2 0xE08 JUMP JUMPDEST PUSH1 0x40 MLOAD PUSH4 0x162908E3 PUSH1 0xE1 SHL DUP2 MSTORE PUSH1 0x4 SWAP1 REVERT JUMPDEST POP PUSH1 0x1 SLOAD PUSH1 0x40 MLOAD PUSH4 0x2CC52B15 PUSH1 0xE1 SHL DUP2 MSTORE CALLER PUSH1 0x4 DUP3 ADD MSTORE SWAP1 PUSH1 0x20 SWAP1 DUP3 SWAP1 PUSH1 0x24 SWAP1 DUP3 SWAP1 PUSH1 0x1 PUSH1 0x1 PUSH1 0xA0 SHL SUB AND GAS STATICCALL SWAP1 DUP2 ISZERO PUSH2 0x2B3 JUMPI PUSH1 0x0 SWAP2 PUSH2 0xFEE JUMPI JUMPDEST POP ISZERO PUSH2 0xDB2 JUMP JUMPDEST PUSH2 0x1006 SWAP2 POP PUSH1 0x20 RETURNDATASIZE DUP2 GT PUSH2 0xA81 JUMPI PUSH2 0xA73 DUP2 DUP4 PUSH2 0x2ED5 JUMP JUMPDEST DUP3 PUSH2 0xFE7 JUMP JUMPDEST CALLVALUE PUSH2 0x2A6 JUMPI PUSH1 0x0 CALLDATASIZE PUSH1 0x3 NOT ADD SLT PUSH2 0x2A6 JUMPI PUSH2 0x1025 PUSH2 0x2FA1 JUMP JUMPDEST PUSH1 0x40 MLOAD PUSH4 0xC47AB3D PUSH1 0xE2 SHL DUP2 MSTORE PUSH1 0x20 DUP2 DUP1 PUSH2 0x1043 ADDRESS PUSH1 0x4 DUP4 ADD PUSH2 0x2F0F JUMP JUMPDEST SUB DUP2 PUSH20 0x0 GAS DELEGATECALL SWAP1 DUP2 ISZERO PUSH2 0x2B3 JUMPI PUSH1 0x0 SWAP2 PUSH2 0x10BD JUMPI JUMPDEST POP ISZERO PUSH2 0x1078 JUMPI PUSH1 0x1 PUSH1 0x0 SSTORE STOP JUMPDEST PUSH1 0x40 MLOAD PUSH3 0x461BCD PUSH1 0xE5 SHL DUP2 MSTORE PUSH1 0x20 PUSH1 0x4 DUP3 ADD MSTORE PUSH1 0x1A PUSH1 0x24 DUP3 ADD MSTORE PUSH32 0x4D6F6E74686C7920757064617465206E6F742064756520796574000000000000 PUSH1 0x44 DUP3 ADD MSTORE PUSH1 0x64 SWAP1 REVERT JUMPDEST PUSH2 0x10D5 SWAP2 POP PUSH1 0x20 RETURNDATASIZE DUP2 GT PUSH2 0xA81 JUMPI PUSH2 0xA73 DUP2 DUP4 PUSH2 0x2ED5 JUMP JUMPDEST DUP2 PUSH2 0x106B JUMP JUMPDEST CALLVALUE PUSH2 0x2A6 JUMPI PUSH1 0x20 DUP1 PUSH1 0x3 NOT CALLDATASIZE ADD SLT PUSH2 0x2A6 JUMPI PUSH2 0x10F5 PUSH2 0x2C22 JUMP JUMPDEST PUSH1 0x1 SLOAD PUSH1 0x40 MLOAD PUSH4 0xC269014B PUSH1 0xE0 SHL DUP2 MSTORE PUSH1 0x1 PUSH1 0x1 PUSH1 0xA0 SHL SUB SWAP3 DUP4 AND PUSH1 0x4 DUP3 ADD MSTORE SWAP2 DUP4 SWAP2 DUP4 SWAP2 PUSH1 0x24 SWAP2 DUP4 SWAP2 AND GAS STATICCALL SWAP1 DUP2 ISZERO PUSH2 0x2B3 JUMPI PUSH1 0x0 SWAP2 PUSH2 0x1140 JUMPI JUMPDEST POP PUSH4 0xFFFFFFFF PUSH1 0x40 MLOAD SWAP2 AND DUP2 MSTORE RETURN JUMPDEST SWAP1 POP DUP2 DUP2 DUP2 RETURNDATASIZE DUP4 GT PUSH2 0x1173 JUMPI JUMPDEST PUSH2 0x1157 DUP2 DUP4 PUSH2 0x2ED5 JUMP JUMPDEST DUP2 ADD SUB SLT PUSH2 0x2A6 JUMPI MLOAD PUSH4 0xFFFFFFFF DUP2 AND DUP2 SUB PUSH2 0x2A6 JUMPI DUP3 PUSH2 0x1131 JUMP JUMPDEST POP RETURNDATASIZE PUSH2 0x114D JUMP JUMPDEST CALLVALUE PUSH2 0x2A6 JUMPI PUSH1 0x20 CALLDATASIZE PUSH1 0x3 NOT ADD SLT PUSH2 0x2A6 JUMPI PUSH1 0x1 PUSH1 0x1 PUSH1 0xA0 SHL SUB PUSH2 0x119B PUSH2 0x2C22 JUMP JUMPDEST AND PUSH1 0x0 MSTORE PUSH1 0xC PUSH1 0x20 MSTORE PUSH1 0x20 PUSH1 0x40 PUSH1 0x0 KECCAK256 SLOAD PUSH1 0x40 MLOAD SWAP1 DUP2 MSTORE RETURN JUMPDEST CALLVALUE PUSH2 0x2A6 JUMPI PUSH1 0x20 CALLDATASIZE PUSH1 0x3 NOT ADD SLT PUSH2 0x2A6 JUMPI PUSH2 0x11CD PUSH2 0x2C22 JUMP JUMPDEST PUSH20 0x0 SWAP1 DUP2 EXTCODESIZE ISZERO PUSH2 0x2A6 JUMPI PUSH1 0x40 DUP1 MLOAD PUSH4 0xE63DD531 PUSH1 0xE0 SHL DUP2 MSTORE PUSH1 0x2 PUSH1 0x4 DUP3 ADD MSTORE PUSH1 0x1 PUSH1 0x1 PUSH1 0xA0 SHL SUB SWAP1 SWAP3 AND PUSH1 0x24 DUP4 ADD MSTORE ADDRESS PUSH1 0x20 SHL PUSH4 0x3D1A1A1 OR SWAP1 SHL PUSH1 0x44 DUP3 ADD MSTORE SWAP1 PUSH1 0x0 SWAP1 DUP3 SWAP1 PUSH1 0x64 SWAP1 DUP3 SWAP1 GAS DELEGATECALL DUP1 ISZERO PUSH2 0x2B3 JUMPI PUSH2 0x1239 JUMPI STOP JUMPDEST PUSH2 0x1242 SWAP1 PUSH2 0x2E88 JUMP JUMPDEST STOP JUMPDEST CALLVALUE PUSH2 0x2A6 JUMPI PUSH1 0x40 CALLDATASIZE PUSH1 0x3 NOT ADD SLT PUSH2 0x2A6 JUMPI PUSH1 0x20 PUSH2 0x125F PUSH2 0x2C38 JUMP JUMPDEST PUSH1 0x4 CALLDATALOAD PUSH1 0x0 MSTORE PUSH1 0x16 DUP3 MSTORE PUSH1 0x40 PUSH1 0x0 KECCAK256 SWAP1 PUSH1 0x1 DUP1 PUSH1 0xA0 SHL SUB DUP1 DUP4 SLOAD AND SWAP2 AND EQ SWAP1 DUP2 PUSH2 0x12AC JUMPI JUMPDEST DUP2 PUSH2 0x1295 JUMPI JUMPDEST POP PUSH1 0x40 MLOAD SWAP1 ISZERO ISZERO DUP2 MSTORE RETURN JUMPDEST PUSH4 0xFFFFFFFF SWAP2 POP PUSH1 0x2 ADD SLOAD PUSH1 0x28 SHR AND ISZERO ISZERO DUP3 PUSH2 0x128A JUMP JUMPDEST SWAP1 POP PUSH1 0xFF PUSH1 0x2 DUP3 ADD SLOAD AND PUSH2 0x12BF DUP2 PUSH2 0x2C4E JUMP JUMPDEST ISZERO SWAP1 PUSH2 0x1284 JUMP JUMPDEST CALLVALUE PUSH2 0x2A6 JUMPI PUSH1 0x0 CALLDATASIZE PUSH1 0x3 NOT ADD SLT PUSH2 0x2A6 JUMPI PUSH1 0x40 MLOAD PUSH32 0x0 PUSH1 0x1 PUSH1 0x1 PUSH1 0xA0 SHL SUB AND DUP2 MSTORE PUSH1 0x20 SWAP1 RETURN JUMPDEST CALLVALUE PUSH2 0x2A6 JUMPI PUSH1 0x20 CALLDATASIZE PUSH1 0x3 NOT ADD SLT PUSH2 0x2A6 JUMPI PUSH2 0x1324 PUSH2 0x2C22 JUMP JUMPDEST PUSH1 0x40 MLOAD PUSH4 0x2DE5E9BF PUSH1 0xE0 SHL DUP2 MSTORE PUSH1 0x2 PUSH1 0x4 DUP3 ADD MSTORE PUSH1 0x1 PUSH1 0x1 PUSH1 0xA0 SHL SUB SWAP1 SWAP2 AND PUSH1 0x24 DUP3 ADD MSTORE PUSH1 0x20 DUP2 PUSH1 0x44 DUP2 PUSH20 0x0 GAS DELEGATECALL DUP1 ISZERO PUSH2 0x2B3 JUMPI PUSH1 0x20 SWAP2 PUSH1 0x0 SWAP2 PUSH2 0x1380 JUMPI POP PUSH1 0x40 MLOAD SWAP1 ISZERO ISZERO DUP2 MSTORE RETURN JUMPDEST PUSH2 0x1397 SWAP2 POP DUP3 RETURNDATASIZE DUP2 GT PUSH2 0xA81 JUMPI PUSH2 0xA73 DUP2 DUP4 PUSH2 0x2ED5 JUMP JUMPDEST DUP3 PUSH2 0x128A JUMP JUMPDEST CALLVALUE PUSH2 0x2A6 JUMPI PUSH1 0x40 CALLDATASIZE PUSH1 0x3 NOT ADD SLT PUSH2 0x2A6 JUMPI PUSH2 0x13B6 PUSH2 0x2C22 JUMP JUMPDEST PUSH1 0x1 PUSH1 0x1 PUSH1 0xA0 SHL SUB AND PUSH1 0x0 SWAP1 DUP2 MSTORE PUSH1 0x13 PUSH1 0x20 MSTORE PUSH1 0x40 SWAP1 KECCAK256 DUP1 SLOAD PUSH1 0x24 CALLDATALOAD SWAP2 SWAP1 DUP3 LT ISZERO PUSH2 0x2A6 JUMPI PUSH1 0x20 SWAP2 PUSH2 0x13E7 SWAP2 PUSH2 0x2E70 JUMP JUMPDEST SWAP1 SLOAD PUSH1 0x40 MLOAD SWAP2 PUSH1 0x3 SHL SHR DUP2 MSTORE RETURN JUMPDEST CALLVALUE PUSH2 0x2A6 JUMPI PUSH1 0x40 CALLDATASIZE PUSH1 0x3 NOT ADD SLT PUSH2 0x2A6 JUMPI PUSH2 0x140E PUSH2 0x2C22 JUMP JUMPDEST PUSH1 0x24 CALLDATALOAD DUP1 ISZERO ISZERO SWAP1 DUP2 PUSH2 0x14BB JUMPI JUMPDEST POP DUP1 PUSH2 0x1484 JUMPI JUMPDEST DUP1 PUSH2 0x1435 JUMPI JUMPDEST PUSH1 0x20 SWAP1 PUSH1 0x40 MLOAD SWAP1 ISZERO ISZERO DUP2 MSTORE RETURN JUMPDEST POP PUSH1 0x1 PUSH1 0x1 PUSH1 0xA0 SHL SUB AND PUSH1 0x0 DUP2 DUP2 MSTORE PUSH1 0xD PUSH1 0x20 MSTORE PUSH1 0x40 SWAP1 KECCAK256 SLOAD PUSH3 0x93A80 DUP2 ADD SWAP1 DUP2 LT PUSH2 0x9FA JUMPI TIMESTAMP GT DUP1 ISZERO PUSH2 0x146D JUMPI JUMPDEST PUSH1 0x20 SWAP2 POP PUSH2 0x1428 JUMP JUMPDEST POP PUSH1 0x0 MSTORE PUSH1 0xC PUSH1 0x20 MSTORE PUSH1 0x20 PUSH1 0x40 PUSH1 0x0 KECCAK256 SLOAD ISZERO PUSH2 0x1464 JUMP JUMPDEST POP PUSH1 0x1 PUSH1 0x1 PUSH1 0xA0 SHL SUB DUP2 AND PUSH1 0x0 SWAP1 DUP2 MSTORE PUSH1 0xB PUSH1 0x20 MSTORE PUSH1 0x40 SWAP1 KECCAK256 SLOAD PUSH3 0xF4240 GT ISZERO DUP1 PUSH2 0x1422 JUMPI POP PUSH1 0xC PUSH1 0x20 MSTORE PUSH1 0x40 PUSH1 0x0 KECCAK256 SLOAD ISZERO PUSH2 0x1422 JUMP JUMPDEST SWAP1 POP PUSH1 0x10 SLOAD LT ISZERO DUP3 PUSH2 0x141B JUMP JUMPDEST PUSH2 0x2DB9 JUMP JUMPDEST CALLVALUE PUSH2 0x2A6 JUMPI PUSH1 0x20 CALLDATASIZE PUSH1 0x3 NOT ADD SLT PUSH2 0x2A6 JUMPI PUSH1 0x1 PUSH1 0x1 PUSH1 0xA0 SHL SUB PUSH2 0x14EE PUSH2 0x2C22 JUMP JUMPDEST AND PUSH1 0x0 MSTORE PUSH1 0x13 PUSH1 0x20 MSTORE PUSH2 0x152C PUSH2 0x1511 PUSH2 0x1518 PUSH1 0x40 PUSH1 0x0 KECCAK256 PUSH1 0x40 MLOAD SWAP3 DUP4 DUP1 SWAP3 PUSH2 0x30E4 JUMP JUMPDEST SUB DUP3 PUSH2 0x2ED5 JUMP JUMPDEST PUSH1 0x40 MLOAD SWAP2 DUP3 SWAP2 PUSH1 0x20 DUP4 MSTORE PUSH1 0x20 DUP4 ADD SWAP1 PUSH2 0x2CF1 JUMP JUMPDEST SUB SWAP1 RETURN JUMPDEST CALLVALUE PUSH2 0x2A6 JUMPI PUSH1 0x60 CALLDATASIZE PUSH1 0x3 NOT ADD SLT PUSH2 0x2A6 JUMPI PUSH1 0x24 DUP1 CALLDATALOAD SWAP1 PUSH4 0xFFFFFFFF PUSH1 0x4 CALLDATALOAD DUP2 PUSH2 0x1557 PUSH2 0x2D88 JUMP JUMPDEST AND SWAP3 DUP4 ISZERO DUP1 ISZERO PUSH2 0x1B0B JUMPI JUMPDEST PUSH2 0xC67 JUMPI DUP2 PUSH1 0x0 MSTORE PUSH1 0x20 SWAP1 PUSH1 0x16 DUP3 MSTORE PUSH1 0x40 PUSH1 0x0 KECCAK256 SWAP6 CALLER PUSH1 0x0 MSTORE PUSH1 0xC DUP4 MSTORE PUSH1 0x40 PUSH1 0x0 KECCAK256 SLOAD ISZERO PUSH2 0x1AF9 JUMPI DUP7 SLOAD PUSH1 0x1 PUSH1 0x1 PUSH1 0xA0 SHL SUB SWAP8 SWAP1 CALLER SWAP1 DUP10 AND SUB PUSH2 0x1AF9 JUMPI PUSH1 0x2 ADD SLOAD PUSH1 0xFF DUP2 AND PUSH2 0x15B0 DUP2 PUSH2 0x2C4E JUMP JUMPDEST PUSH2 0x1AF9 JUMPI PUSH1 0x28 SHR DUP6 AND ISZERO PUSH2 0x1AF9 JUMPI PUSH2 0x15C6 PUSH2 0x2FA1 JUMP JUMPDEST PUSH1 0x40 MLOAD PUSH4 0xC47AB3D PUSH1 0xE2 SHL DUP2 MSTORE PUSH20 0x0 SWAP1 DUP5 DUP2 DUP1 PUSH2 0x15F9 ADDRESS PUSH1 0x4 DUP4 ADD PUSH2 0x2F0F JUMP JUMPDEST SUB DUP2 DUP6 GAS DELEGATECALL DUP1 ISZERO PUSH2 0x2B3 JUMPI PUSH2 0x1ADC JUMPI JUMPDEST POP DUP2 ISZERO PUSH2 0xF99 JUMPI DUP5 PUSH1 0x0 MSTORE PUSH1 0x16 DUP5 MSTORE PUSH1 0x40 PUSH1 0x0 KECCAK256 SWAP1 PUSH1 0x2 DUP3 ADD SWAP8 DUP9 SLOAD DUP9 DUP1 DUP3 PUSH1 0x28 SHR AND SWAP2 PUSH1 0x8 SHR AND SUB DUP9 DUP2 GT PUSH2 0x19E0 JUMPI PUSH2 0x1646 SWAP1 PUSH1 0x4 DUP6 ADD PUSH2 0x2E70 JUMP JUMPDEST SWAP1 SLOAD PUSH1 0x3 SWAP5 SWAP2 DUP6 SHL SHR TIMESTAMP GT ISZERO PUSH2 0x1A3E JUMPI DUP11 PUSH1 0x1 SLOAD AND SWAP2 PUSH1 0x40 MLOAD PUSH4 0xA5118BF1 PUSH1 0xE0 SHL DUP2 MSTORE DUP9 DUP2 PUSH1 0x4 DUP2 DUP8 GAS STATICCALL SWAP1 DUP2 ISZERO PUSH2 0x2B3 JUMPI PUSH1 0x0 SWAP2 PUSH2 0x1A21 JUMPI JUMPDEST POP DUP4 EXTCODESIZE ISZERO PUSH2 0x2A6 JUMPI PUSH1 0x64 PUSH1 0x0 SWAP3 DUP4 PUSH1 0x40 MLOAD SWAP7 DUP8 SWAP5 DUP6 SWAP4 PUSH4 0x533DFA35 PUSH1 0xE0 SHL DUP6 MSTORE PUSH1 0x4 DUP6 ADD MSTORE DUP11 SIGNEXTEND DUP13 DUP5 ADD MSTORE DUP2 PUSH1 0x44 DUP5 ADD MSTORE GAS CALL SWAP2 DUP3 ISZERO PUSH2 0x2B3 JUMPI DUP5 SWAP3 PUSH2 0x1A12 JUMPI JUMPDEST POP JUMPDEST ADD SLOAD DUP4 SUB PUSH2 0xF99 JUMPI PUSH1 0x40 MLOAD PUSH4 0x23B872DD PUSH1 0xE0 SHL DUP2 MSTORE CALLER PUSH1 0x4 DUP3 ADD MSTORE ADDRESS PUSH1 0x24 DUP3 ADD MSTORE PUSH1 0x44 DUP2 ADD DUP5 SWAP1 MSTORE DUP6 DUP2 PUSH1 0x64 DUP2 PUSH1 0x0 PUSH32 0x0 DUP16 AND GAS CALL SWAP1 DUP2 ISZERO PUSH2 0x2B3 JUMPI PUSH1 0x0 SWAP2 PUSH2 0x19F5 JUMPI JUMPDEST POP ISZERO PUSH2 0xA47 JUMPI SWAP7 SWAP6 SWAP7 CALLER PUSH1 0x0 MSTORE PUSH1 0xC DUP6 MSTORE PUSH1 0x40 PUSH1 0x0 KECCAK256 PUSH2 0x1747 DUP5 DUP3 SLOAD PUSH2 0x2F94 JUMP JUMPDEST SWAP1 SSTORE PUSH2 0x1755 DUP4 PUSH1 0xF SLOAD PUSH2 0x2F94 JUMP JUMPDEST PUSH1 0xF SSTORE PUSH2 0x1764 DUP4 PUSH1 0x10 SLOAD PUSH2 0x304B JUMP JUMPDEST PUSH1 0x10 SSTORE DUP6 PUSH1 0x0 MSTORE PUSH1 0x11 DUP6 MSTORE PUSH1 0x40 PUSH1 0x0 KECCAK256 SWAP1 PUSH1 0x2 DUP3 ADD SLOAD SWAP5 PUSH1 0x0 SWAP9 PUSH1 0x7 PUSH1 0x6 DUP6 ADD SWAP5 ADD SWAP10 JUMPDEST DUP5 SLOAD DUP2 LT ISZERO PUSH2 0x1853 JUMPI DUP1 DUP14 PUSH2 0x17A0 PUSH2 0x17D7 SWAP4 DUP9 PUSH2 0x2E70 JUMP JUMPDEST SWAP1 SLOAD SWAP1 DUP10 SHL SHR AND DUP1 PUSH1 0x0 MSTORE DUP13 DUP12 MSTORE DUP12 PUSH2 0x17C7 DUP12 PUSH2 0x17C2 PUSH1 0x40 PUSH1 0x0 KECCAK256 SLOAD DUP14 PUSH2 0x30B1 JUMP JUMPDEST PUSH2 0x30C4 JUMP JUMPDEST DUP13 DUP2 PUSH2 0x17DC JUMPI JUMPDEST POP POP POP POP PUSH2 0x3058 JUMP JUMPDEST PUSH2 0x1788 JUMP JUMPDEST PUSH32 0xE3E6AE1E05F069D410556743894AACBB190C1431962422EBE8FCC642A467DD16 SWAP2 DUP5 PUSH1 0x0 MSTORE PUSH1 0x14 DUP3 MSTORE PUSH1 0x40 PUSH1 0x0 KECCAK256 DUP1 SLOAD DUP1 DUP4 GT PUSH2 0x184B JUMPI JUMPDEST DUP3 PUSH2 0x181F SWAP2 PUSH2 0x2F94 JUMP JUMPDEST SWAP1 SSTORE DUP5 PUSH1 0x0 MSTORE PUSH1 0xB DUP3 MSTORE PUSH1 0x40 PUSH1 0x0 KECCAK256 PUSH2 0x1839 DUP3 DUP3 SLOAD PUSH2 0x304B JUMP JUMPDEST SWAP1 SSTORE PUSH1 0x40 MLOAD SWAP1 DUP2 MSTORE LOG3 DUP15 DUP12 DUP2 DUP13 PUSH2 0x17CE JUMP JUMPDEST SWAP2 POP DUP2 PUSH2 0x1815 JUMP JUMPDEST POP DUP9 DUP9 SWAP2 DUP13 DUP9 CALLER PUSH1 0x0 MSTORE PUSH1 0xC DUP6 MSTORE PUSH1 0x40 PUSH1 0x0 KECCAK256 SLOAD PUSH1 0x40 MLOAD SWAP2 DUP3 MSTORE DUP6 DUP3 ADD MSTORE PUSH32 0x1B8CD61ED43BEC7C6BDAD3A18FFEE613F99C853D16C50678D248D879E1B43438 PUSH1 0x40 CALLER SWAP3 LOG2 DUP1 DUP3 SLOAD PUSH1 0x28 SHR AND DUP4 PUSH32 0x406356EF25520B09E2EF87C5225167B4161EA4AB691E9434D6EE29EAFCC83FC2 DUP7 PUSH1 0x40 MLOAD DUP5 DUP2 MSTORE LOG2 PUSH32 0x17F13FD3F7C4712AF33F1770EBCB822DD20A2DBC00850EAB48D786623D97B959 DUP6 PUSH1 0xF SLOAD PUSH1 0x40 MLOAD SWAP1 DUP2 MSTORE LOG1 PUSH1 0x0 DUP1 MLOAD PUSH1 0x20 PUSH2 0x333D DUP4 CODECOPY DUP2 MLOAD SWAP2 MSTORE DUP6 PUSH1 0x10 SLOAD PUSH1 0x40 MLOAD SWAP1 DUP2 MSTORE LOG1 PUSH1 0x0 NOT ADD DUP2 DUP2 GT PUSH2 0x19E0 JUMPI DUP3 SLOAD PUSH9 0xFFFFFFFF0000000000 NOT AND PUSH1 0x28 SWAP2 SWAP1 SWAP2 SHL PUSH9 0xFFFFFFFF0000000000 AND OR DUP3 SSTORE DUP2 SLOAD SWAP1 DUP2 PUSH1 0x28 SHR AND ISZERO PUSH2 0x19AA JUMPI JUMPDEST POP POP POP DUP3 EXTCODESIZE ISZERO PUSH2 0x2A6 JUMPI PUSH1 0x64 PUSH1 0x0 SWAP3 PUSH4 0x3D1A1A1 SWAP5 PUSH1 0x40 MLOAD SWAP6 DUP7 SWAP5 DUP6 SWAP4 PUSH4 0xE63DD531 PUSH1 0xE0 SHL DUP6 MSTORE PUSH1 0x2 PUSH1 0x4 DUP7 ADD MSTORE CALLER SWAP1 DUP6 ADD MSTORE ADDRESS SWAP1 SHL OR PUSH1 0x40 SHL PUSH1 0x44 DUP4 ADD MSTORE GAS DELEGATECALL DUP1 ISZERO PUSH2 0x2B3 JUMPI PUSH2 0x199B JUMPI PUSH1 0x1 PUSH1 0x0 SSTORE STOP JUMPDEST PUSH2 0x19A4 SWAP1 PUSH2 0x2E88 JUMP JUMPDEST DUP1 PUSH2 0xF1B JUMP JUMPDEST PUSH1 0xFF NOT AND PUSH1 0x2 OR SWAP1 SSTORE PUSH32 0x2CA5489B37DD363D1302BAC719E8EE40E540FFBE8C12253570FEA63E11CAD71 PUSH1 0x0 DUP1 LOG2 DUP4 DUP1 DUP1 PUSH2 0x1949 JUMP JUMPDEST DUP6 PUSH4 0x4E487B71 PUSH1 0xE0 SHL PUSH1 0x0 MSTORE PUSH1 0x11 PUSH1 0x4 MSTORE PUSH1 0x0 REVERT JUMPDEST PUSH2 0x1A0C SWAP2 POP DUP7 RETURNDATASIZE DUP9 GT PUSH2 0xA81 JUMPI PUSH2 0xA73 DUP2 DUP4 PUSH2 0x2ED5 JUMP JUMPDEST DUP11 PUSH2 0x1726 JUMP JUMPDEST PUSH2 0x1A1B SWAP1 PUSH2 0x2E88 JUMP JUMPDEST DUP12 PUSH2 0x16C1 JUMP JUMPDEST PUSH2 0x1A38 SWAP2 POP DUP10 RETURNDATASIZE DUP12 GT PUSH2 0xA40 JUMPI PUSH2 0xA31 DUP2 DUP4 PUSH2 0x2ED5 JUMP JUMPDEST DUP14 PUSH2 0x1680 JUMP JUMPDEST DUP11 PUSH1 0x1 SLOAD AND SWAP2 PUSH1 0x40 MLOAD PUSH4 0x4E5ECF13 PUSH1 0xE0 SHL DUP2 MSTORE DUP9 DUP2 PUSH1 0x4 DUP2 DUP8 GAS STATICCALL SWAP1 DUP2 ISZERO PUSH2 0x2B3 JUMPI PUSH1 0x0 SWAP2 PUSH2 0x1ABF JUMPI JUMPDEST POP DUP4 EXTCODESIZE ISZERO PUSH2 0x2A6 JUMPI PUSH1 0x64 PUSH1 0x0 SWAP3 DUP4 PUSH1 0x40 MLOAD SWAP7 DUP8 SWAP5 DUP6 SWAP4 PUSH4 0x533DFA35 PUSH1 0xE0 SHL DUP6 MSTORE PUSH1 0x4 DUP6 ADD MSTORE DUP11 SIGNEXTEND DUP13 DUP5 ADD MSTORE PUSH1 0x1 PUSH1 0x44 DUP5 ADD MSTORE GAS CALL SWAP2 DUP3 ISZERO PUSH2 0x2B3 JUMPI DUP5 SWAP3 PUSH2 0x1AB0 JUMPI JUMPDEST POP PUSH2 0x16C3 JUMP JUMPDEST PUSH2 0x1AB9 SWAP1 PUSH2 0x2E88 JUMP JUMPDEST DUP12 PUSH2 0x1AAA JUMP JUMPDEST PUSH2 0x1AD6 SWAP2 POP DUP10 RETURNDATASIZE DUP12 GT PUSH2 0xA40 JUMPI PUSH2 0xA31 DUP2 DUP4 PUSH2 0x2ED5 JUMP JUMPDEST DUP14 PUSH2 0x1A68 JUMP JUMPDEST PUSH2 0x1AF2 SWAP1 DUP6 RETURNDATASIZE DUP8 GT PUSH2 0xA81 JUMPI PUSH2 0xA73 DUP2 DUP4 PUSH2 0x2ED5 JUMP JUMPDEST POP DUP9 PUSH2 0x1609 JUMP JUMPDEST PUSH1 0x40 MLOAD PUSH4 0xB5AB5BF PUSH1 0xE4 SHL DUP2 MSTORE PUSH1 0x4 SWAP1 REVERT JUMPDEST POP PUSH1 0x1 SLOAD PUSH1 0x40 MLOAD PUSH4 0x2CC52B15 PUSH1 0xE1 SHL DUP2 MSTORE CALLER PUSH1 0x4 DUP3 ADD MSTORE SWAP1 PUSH1 0x20 SWAP1 DUP3 SWAP1 DUP5 SWAP1 DUP3 SWAP1 PUSH1 0x1 PUSH1 0x1 PUSH1 0xA0 SHL SUB AND GAS STATICCALL SWAP1 DUP2 ISZERO PUSH2 0x2B3 JUMPI PUSH1 0x0 SWAP2 PUSH2 0x1B4D JUMPI JUMPDEST POP ISZERO PUSH2 0x1562 JUMP JUMPDEST PUSH2 0x1B65 SWAP2 POP PUSH1 0x20 RETURNDATASIZE DUP2 GT PUSH2 0xA81 JUMPI PUSH2 0xA73 DUP2 DUP4 PUSH2 0x2ED5 JUMP JUMPDEST DUP7 PUSH2 0x1B46 JUMP JUMPDEST CALLVALUE PUSH2 0x2A6 JUMPI PUSH1 0x20 CALLDATASIZE PUSH1 0x3 NOT ADD SLT PUSH2 0x2A6 JUMPI PUSH1 0x4 CALLDATALOAD PUSH1 0x0 MSTORE PUSH1 0x11 PUSH1 0x20 MSTORE PUSH2 0x152C PUSH2 0x1B9A PUSH1 0x6 PUSH1 0x40 PUSH1 0x0 KECCAK256 ADD PUSH2 0x32E2 JUMP JUMPDEST PUSH1 0x40 MLOAD SWAP2 DUP3 SWAP2 PUSH1 0x20 DUP4 MSTORE PUSH1 0x20 DUP4 ADD SWAP1 PUSH2 0x2D25 JUMP JUMPDEST CALLVALUE PUSH2 0x2A6 JUMPI PUSH1 0x0 CALLDATASIZE PUSH1 0x3 NOT ADD SLT PUSH2 0x2A6 JUMPI PUSH1 0x20 PUSH1 0x12 SLOAD PUSH1 0x40 MLOAD SWAP1 DUP2 MSTORE RETURN JUMPDEST CALLVALUE PUSH2 0x2A6 JUMPI PUSH1 0x20 CALLDATASIZE PUSH1 0x3 NOT ADD SLT PUSH2 0x2A6 JUMPI PUSH1 0x20 PUSH2 0x1BEF PUSH2 0x1BEA PUSH2 0x2C22 JUMP JUMPDEST PUSH2 0x2FF7 JUMP JUMPDEST PUSH1 0x40 MLOAD SWAP1 DUP2 MSTORE RETURN JUMPDEST CALLVALUE PUSH2 0x2A6 JUMPI PUSH1 0x0 CALLDATASIZE PUSH1 0x3 NOT ADD SLT PUSH2 0x2A6 JUMPI PUSH1 0x40 MLOAD PUSH4 0x404B48BF PUSH1 0xE0 SHL DUP2 MSTORE PUSH1 0x2 PUSH1 0x4 DUP3 ADD MSTORE PUSH1 0x0 DUP2 PUSH1 0x24 DUP2 PUSH20 0x0 GAS DELEGATECALL DUP1 ISZERO PUSH2 0x2B3 JUMPI PUSH2 0x152C SWAP2 PUSH1 0x0 SWAP2 PUSH2 0x1C60 JUMPI JUMPDEST POP PUSH1 0x40 MLOAD SWAP2 DUP3 SWAP2 PUSH1 0x20 DUP4 MSTORE PUSH1 0x20 DUP4 ADD SWAP1 PUSH2 0x2D25 JUMP JUMPDEST PUSH2 0x1C7D SWAP2 POP RETURNDATASIZE DUP1 PUSH1 0x0 DUP4 RETURNDATACOPY PUSH2 0x1C75 DUP2 DUP4 PUSH2 0x2ED5 JUMP JUMPDEST DUP2 ADD SWAP1 PUSH2 0x3139 JUMP JUMPDEST DUP3 PUSH2 0x1C4B JUMP JUMPDEST CALLVALUE PUSH2 0x2A6 JUMPI PUSH1 0x20 CALLDATASIZE PUSH1 0x3 NOT ADD SLT PUSH2 0x2A6 JUMPI PUSH1 0x1 PUSH1 0x1 PUSH1 0xA0 SHL SUB PUSH2 0x1CA4 PUSH2 0x2C22 JUMP JUMPDEST AND PUSH1 0x0 MSTORE PUSH1 0x14 PUSH1 0x20 MSTORE PUSH1 0x20 PUSH1 0x40 PUSH1 0x0 KECCAK256 SLOAD PUSH1 0x40 MLOAD SWAP1 DUP2 MSTORE RETURN JUMPDEST CALLVALUE PUSH2 0x2A6 JUMPI PUSH1 0x20 CALLDATASIZE PUSH1 0x3 NOT ADD SLT PUSH2 0x2A6 JUMPI PUSH2 0x1CD6 PUSH2 0x2D75 JUMP JUMPDEST PUSH1 0x1 SLOAD PUSH1 0x40 MLOAD PUSH4 0x2076C8A1 PUSH1 0xE2 SHL DUP2 MSTORE PUSH4 0xFFFFFFFF SWAP3 SWAP1 SWAP3 AND PUSH1 0x4 DUP4 ADD MSTORE PUSH1 0x20 SWAP1 DUP3 SWAP1 PUSH1 0x24 SWAP1 DUP3 SWAP1 PUSH1 0x1 PUSH1 0x1 PUSH1 0xA0 SHL SUB AND GAS STATICCALL DUP1 ISZERO PUSH2 0x2B3 JUMPI PUSH1 0x20 SWAP2 PUSH1 0x0 SWAP2 PUSH2 0x1D26 JUMPI JUMPDEST POP PUSH1 0x40 MLOAD SWAP1 PUSH1 0x3 SIGNEXTEND DUP2 MSTORE RETURN JUMPDEST PUSH2 0x1D3D SWAP2 POP DUP3 RETURNDATASIZE DUP2 GT PUSH2 0xA40 JUMPI PUSH2 0xA31 DUP2 DUP4 PUSH2 0x2ED5 JUMP JUMPDEST DUP3 PUSH2 0x1D1A JUMP JUMPDEST PUSH2 0x2D9B JUMP JUMPDEST CALLVALUE PUSH2 0x2A6 JUMPI PUSH1 0x20 CALLDATASIZE PUSH1 0x3 NOT ADD SLT PUSH2 0x2A6 JUMPI PUSH1 0x4 CALLDATALOAD PUSH1 0x0 MSTORE PUSH1 0x16 PUSH1 0x20 MSTORE PUSH2 0x152C PUSH2 0x1511 PUSH2 0x1518 PUSH1 0x4 PUSH1 0x40 PUSH1 0x0 KECCAK256 ADD PUSH1 0x40 MLOAD SWAP3 DUP4 DUP1 SWAP3 PUSH2 0x30E4 JUMP JUMPDEST CALLVALUE PUSH2 0x2A6 JUMPI PUSH1 0x0 CALLDATASIZE PUSH1 0x3 NOT ADD SLT PUSH2 0x2A6 JUMPI PUSH1 0x40 MLOAD PUSH4 0xF28E2C2F PUSH1 0xE0 SHL DUP2 MSTORE PUSH1 0x2 PUSH1 0x4 DUP3 ADD MSTORE PUSH1 0x20 DUP2 PUSH1 0x24 DUP2 PUSH20 0x0 GAS DELEGATECALL DUP1 ISZERO PUSH2 0x2B3 JUMPI PUSH1 0x20 SWAP2 PUSH1 0x0 SWAP2 PUSH2 0x1380 JUMPI POP PUSH1 0x40 MLOAD SWAP1 ISZERO ISZERO DUP2 MSTORE RETURN JUMPDEST CALLVALUE PUSH2 0x2A6 JUMPI PUSH1 0x0 CALLDATASIZE PUSH1 0x3 NOT ADD SLT PUSH2 0x2A6 JUMPI PUSH1 0x20 PUSH1 0xE SLOAD PUSH1 0x40 MLOAD SWAP1 DUP2 MSTORE RETURN JUMPDEST CALLVALUE PUSH2 0x2A6 JUMPI PUSH1 0x0 CALLDATASIZE PUSH1 0x3 NOT ADD SLT PUSH2 0x2A6 JUMPI PUSH1 0x1 SLOAD PUSH1 0x40 MLOAD PUSH1 0x1 PUSH1 0x1 PUSH1 0xA0 SHL SUB SWAP1 SWAP2 AND DUP2 MSTORE PUSH1 0x20 SWAP1 RETURN JUMPDEST CALLVALUE PUSH2 0x2A6 JUMPI PUSH1 0x20 CALLDATASIZE PUSH1 0x3 NOT ADD SLT PUSH2 0x2A6 JUMPI PUSH1 0x1 PUSH1 0x1 PUSH1 0xA0 SHL SUB PUSH2 0x1E46 PUSH2 0x2C22 JUMP JUMPDEST AND PUSH1 0x0 MSTORE PUSH1 0xD PUSH1 0x20 MSTORE PUSH1 0x20 PUSH1 0x40 PUSH1 0x0 KECCAK256 SLOAD PUSH1 0x40 MLOAD SWAP1 DUP2 MSTORE RETURN JUMPDEST CALLVALUE PUSH2 0x2A6 JUMPI PUSH1 0x20 CALLDATASIZE PUSH1 0x3 NOT ADD SLT PUSH2 0x2A6 JUMPI PUSH1 0x40 PUSH2 0x1E7D PUSH1 0x4 CALLDATALOAD PUSH2 0x3290 JUMP JUMPDEST DUP3 MLOAD SWAP2 DUP3 MSTORE ISZERO ISZERO PUSH1 0x20 DUP3 ADD MSTORE RETURN JUMPDEST CALLVALUE PUSH2 0x2A6 JUMPI PUSH1 0x40 CALLDATASIZE PUSH1 0x3 NOT ADD SLT PUSH2 0x2A6 JUMPI PUSH1 0x4 CALLDATALOAD PUSH4 0xFFFFFFFF PUSH2 0x1EAC PUSH2 0x2D62 JUMP JUMPDEST AND ISZERO DUP1 ISZERO PUSH2 0x208C JUMPI JUMPDEST PUSH2 0xC67 JUMPI DUP1 ISZERO PUSH2 0xF99 JUMPI PUSH2 0x1EC7 PUSH2 0x2FA1 JUMP JUMPDEST PUSH1 0x40 MLOAD PUSH4 0xC47AB3D PUSH1 0xE2 SHL DUP2 MSTORE PUSH1 0x20 SWAP1 DUP2 DUP2 DUP1 PUSH2 0x1EE7 ADDRESS PUSH1 0x4 DUP4 ADD PUSH2 0x2F0F JUMP JUMPDEST SUB DUP2 PUSH20 0x0 GAS DELEGATECALL DUP1 ISZERO PUSH2 0x2B3 JUMPI PUSH2 0x206F JUMPI JUMPDEST POP PUSH2 0x1F15 CALLER PUSH2 0x2FF7 JUMP JUMPDEST DUP3 GT PUSH2 0x205D JUMPI CALLER PUSH1 0x0 MSTORE PUSH1 0xB DUP2 MSTORE PUSH1 0x40 PUSH1 0x0 KECCAK256 PUSH2 0x1F33 DUP4 DUP3 SLOAD PUSH2 0x2F94 JUMP JUMPDEST SWAP1 SSTORE PUSH2 0x1F41 DUP3 PUSH1 0xE SLOAD PUSH2 0x2F94 JUMP JUMPDEST PUSH1 0xE SSTORE PUSH2 0x1F50 DUP3 PUSH1 0x10 SLOAD PUSH2 0x2F94 JUMP JUMPDEST PUSH1 0x10 SSTORE PUSH1 0x40 MLOAD PUSH4 0xA9059CBB PUSH1 0xE0 SHL DUP2 MSTORE CALLER PUSH1 0x4 DUP3 ADD MSTORE PUSH1 0x24 DUP2 ADD DUP4 SWAP1 MSTORE DUP2 DUP2 PUSH1 0x44 DUP2 PUSH1 0x0 PUSH1 0x1 PUSH1 0x1 PUSH1 0xA0 SHL SUB PUSH32 0x0 AND GAS CALL SWAP1 DUP2 ISZERO PUSH2 0x2B3 JUMPI PUSH1 0x0 SWAP2 PUSH2 0x2040 JUMPI JUMPDEST POP ISZERO PUSH2 0xA47 JUMPI PUSH1 0x0 DUP1 MLOAD PUSH1 0x20 PUSH2 0x333D DUP4 CODECOPY DUP2 MLOAD SWAP2 MSTORE SWAP2 CALLER PUSH1 0x0 MSTORE PUSH1 0xB DUP3 MSTORE PUSH1 0x40 PUSH1 0x0 KECCAK256 SLOAD PUSH1 0x40 MLOAD SWAP2 DUP3 MSTORE DUP3 DUP3 ADD MSTORE PUSH32 0x92CCF450A286A957AF52509BC1C9939D1A6A481783E142E41E2499F0BB66EBC6 PUSH1 0x40 CALLER SWAP3 LOG2 PUSH32 0xDC6E73D4B36E22AB95945BD8833A5AF96C950EB29D8D75C4AECFFC987637AAAB DUP2 PUSH1 0xE SLOAD PUSH1 0x40 MLOAD SWAP1 DUP2 MSTORE LOG1 PUSH1 0x10 SLOAD PUSH1 0x40 MLOAD SWAP1 DUP2 MSTORE LOG1 PUSH1 0x1 PUSH1 0x0 SSTORE STOP JUMPDEST PUSH2 0x2057 SWAP2 POP DUP3 RETURNDATASIZE DUP5 GT PUSH2 0xA81 JUMPI PUSH2 0xA73 DUP2 DUP4 PUSH2 0x2ED5 JUMP JUMPDEST DUP4 PUSH2 0x1FAF JUMP JUMPDEST PUSH1 0x40 MLOAD PUSH4 0x2C6F547 PUSH1 0xE2 SHL DUP2 MSTORE PUSH1 0x4 SWAP1 REVERT JUMPDEST PUSH2 0x2085 SWAP1 DUP3 RETURNDATASIZE DUP5 GT PUSH2 0xA81 JUMPI PUSH2 0xA73 DUP2 DUP4 PUSH2 0x2ED5 JUMP JUMPDEST POP DUP3 PUSH2 0x1F0B JUMP JUMPDEST POP PUSH1 0x1 SLOAD PUSH1 0x40 MLOAD PUSH4 0x2CC52B15 PUSH1 0xE1 SHL DUP2 MSTORE CALLER PUSH1 0x4 DUP3 ADD MSTORE SWAP1 PUSH1 0x20 SWAP1 DUP3 SWAP1 PUSH1 0x24 SWAP1 DUP3 SWAP1 PUSH1 0x1 PUSH1 0x1 PUSH1 0xA0 SHL SUB AND GAS STATICCALL SWAP1 DUP2 ISZERO PUSH2 0x2B3 JUMPI PUSH1 0x0 SWAP2 PUSH2 0x20CF JUMPI JUMPDEST POP ISZERO PUSH2 0x1EB5 JUMP JUMPDEST PUSH2 0x20E7 SWAP2 POP PUSH1 0x20 RETURNDATASIZE DUP2 GT PUSH2 0xA81 JUMPI PUSH2 0xA73 DUP2 DUP4 PUSH2 0x2ED5 JUMP JUMPDEST DUP3 PUSH2 0x20C8 JUMP JUMPDEST CALLVALUE PUSH2 0x2A6 JUMPI PUSH1 0x20 CALLDATASIZE PUSH1 0x3 NOT ADD SLT PUSH2 0x2A6 JUMPI PUSH2 0x2106 PUSH2 0x2C22 JUMP JUMPDEST PUSH1 0x1 SLOAD PUSH1 0x40 MLOAD PUSH4 0x2CC52B15 PUSH1 0xE1 SHL DUP2 MSTORE PUSH1 0x1 PUSH1 0x1 PUSH1 0xA0 SHL SUB SWAP3 DUP4 AND PUSH1 0x4 DUP3 ADD MSTORE SWAP2 PUSH1 0x20 SWAP2 DUP4 SWAP2 PUSH1 0x24 SWAP2 DUP4 SWAP2 AND GAS STATICCALL DUP1 ISZERO PUSH2 0x2B3 JUMPI PUSH1 0x20 SWAP2 PUSH1 0x0 SWAP2 PUSH2 0x1380 JUMPI POP PUSH1 0x40 MLOAD SWAP1 ISZERO ISZERO DUP2 MSTORE RETURN JUMPDEST CALLVALUE PUSH2 0x2A6 JUMPI PUSH1 0x40 CALLDATASIZE PUSH1 0x3 NOT ADD SLT PUSH2 0x2A6 JUMPI PUSH2 0x2168 PUSH2 0x2C38 JUMP JUMPDEST PUSH1 0x4 CALLDATALOAD PUSH1 0x0 MSTORE PUSH1 0x11 PUSH1 0x20 MSTORE PUSH1 0x7 PUSH1 0x40 PUSH1 0x0 KECCAK256 ADD SWAP1 PUSH1 0x1 DUP1 PUSH1 0xA0 SHL SUB AND PUSH1 0x0 MSTORE PUSH1 0x20 MSTORE PUSH1 0x20 PUSH1 0x40 PUSH1 0x0 KECCAK256 SLOAD PUSH1 0x40 MLOAD SWAP1 DUP2 MSTORE RETURN JUMPDEST CALLVALUE PUSH2 0x2A6 JUMPI PUSH1 0x20 CALLDATASIZE PUSH1 0x3 NOT ADD SLT PUSH2 0x2A6 JUMPI PUSH1 0x1 PUSH1 0x1 PUSH1 0xA0 SHL SUB PUSH2 0x21BB PUSH2 0x2C22 JUMP JUMPDEST AND PUSH1 0x0 MSTORE PUSH1 0xB PUSH1 0x20 MSTORE PUSH1 0x20 PUSH1 0x40 PUSH1 0x0 KECCAK256 SLOAD PUSH1 0x40 MLOAD SWAP1 DUP2 MSTORE RETURN JUMPDEST CALLVALUE PUSH2 0x2A6 JUMPI PUSH1 0x20 CALLDATASIZE PUSH1 0x3 NOT ADD SLT PUSH2 0x2A6 JUMPI PUSH2 0x21ED PUSH2 0x31C3 JUMP JUMPDEST POP PUSH1 0x4 CALLDATALOAD PUSH1 0x0 MSTORE PUSH1 0x16 PUSH1 0x20 MSTORE PUSH2 0x152C PUSH2 0x2209 PUSH1 0x40 PUSH1 0x0 KECCAK256 PUSH2 0x320E JUMP JUMPDEST PUSH1 0x40 MLOAD SWAP2 DUP3 SWAP2 PUSH1 0x20 DUP4 MSTORE PUSH1 0x20 DUP4 ADD SWAP1 PUSH2 0x2C58 JUMP JUMPDEST CALLVALUE PUSH2 0x2A6 JUMPI PUSH1 0x20 CALLDATASIZE PUSH1 0x3 NOT ADD SLT PUSH2 0x2A6 JUMPI PUSH2 0x2236 PUSH2 0x2C22 JUMP JUMPDEST PUSH1 0x40 MLOAD PUSH4 0xB79B0A1 PUSH1 0xE2 SHL DUP2 MSTORE PUSH1 0x2 PUSH1 0x4 DUP3 ADD MSTORE PUSH1 0x1 PUSH1 0x1 PUSH1 0xA0 SHL SUB SWAP1 SWAP2 AND PUSH1 0x24 DUP3 ADD MSTORE PUSH1 0x20 DUP2 PUSH1 0x44 DUP2 PUSH20 0x0 GAS DELEGATECALL DUP1 ISZERO PUSH2 0x2B3 JUMPI PUSH1 0x20 SWAP2 PUSH1 0x0 SWAP2 PUSH2 0x1380 JUMPI POP PUSH1 0x40 MLOAD SWAP1 ISZERO ISZERO DUP2 MSTORE RETURN JUMPDEST CALLVALUE PUSH2 0x2A6 JUMPI PUSH1 0x20 CALLDATASIZE PUSH1 0x3 NOT ADD SLT PUSH2 0x2A6 JUMPI PUSH1 0x4 CALLDATALOAD PUSH1 0x0 MSTORE PUSH1 0x16 PUSH1 0x20 MSTORE PUSH1 0xA0 PUSH1 0x40 PUSH1 0x0 KECCAK256 PUSH1 0x11 PUSH1 0x20 MSTORE PUSH1 0x40 PUSH1 0x0 KECCAK256 SWAP1 PUSH1 0x2 DUP2 ADD SLOAD SWAP2 PUSH1 0xFF DUP4 AND PUSH2 0x22D3 DUP2 PUSH2 0x2C4E JUMP JUMPDEST ISZERO DUP1 PUSH2 0x233D JUMPI JUMPDEST ISZERO PUSH2 0x2325 JUMPI PUSH1 0x3 PUSH4 0xFFFFFFFF DUP1 SWAP5 PUSH1 0x28 SHR AND SWAP3 ADD SLOAD SWAP3 PUSH1 0x8 PUSH2 0x22FC DUP6 DUP6 PUSH2 0x30B1 JUMP JUMPDEST SWAP5 SWAP4 SWAP3 ADD SLOAD AND SWAP1 PUSH1 0x1 SWAP3 JUMPDEST PUSH1 0x40 MLOAD SWAP5 DUP6 MSTORE PUSH1 0x20 DUP6 ADD MSTORE PUSH1 0x40 DUP5 ADD MSTORE PUSH1 0x60 DUP4 ADD MSTORE ISZERO ISZERO PUSH1 0x80 DUP3 ADD MSTORE RETURN JUMPDEST PUSH1 0x8 ADD SLOAD PUSH1 0x0 SWAP3 POP DUP3 SWAP2 POP PUSH4 0xFFFFFFFF AND DUP2 DUP1 PUSH2 0x2307 JUMP JUMPDEST POP PUSH4 0xFFFFFFFF DUP4 PUSH1 0x28 SHR AND ISZERO ISZERO PUSH2 0x22DA JUMP JUMPDEST CALLVALUE PUSH2 0x2A6 JUMPI PUSH1 0x20 CALLDATASIZE PUSH1 0x3 NOT ADD SLT PUSH2 0x2A6 JUMPI PUSH1 0x4 CALLDATALOAD PUSH1 0x0 MSTORE PUSH1 0x16 PUSH1 0x20 MSTORE PUSH1 0xC0 PUSH1 0x40 PUSH1 0x0 KECCAK256 PUSH1 0x1 DUP1 PUSH1 0xA0 SHL SUB DUP2 SLOAD AND SWAP1 PUSH1 0x1 DUP2 ADD SLOAD SWAP1 PUSH1 0x2 DUP2 ADD SLOAD SWAP1 PUSH1 0x3 PUSH1 0xFF DUP4 AND SWAP2 ADD SLOAD SWAP3 PUSH1 0x40 MLOAD SWAP5 DUP6 MSTORE PUSH1 0x20 DUP6 ADD MSTORE PUSH2 0x23A7 DUP2 PUSH2 0x2C4E JUMP JUMPDEST PUSH1 0x40 DUP5 ADD MSTORE PUSH4 0xFFFFFFFF SWAP1 DUP2 DUP2 PUSH1 0x8 SHR AND PUSH1 0x60 DUP6 ADD MSTORE PUSH1 0x28 SHR AND PUSH1 0x80 DUP4 ADD MSTORE PUSH1 0xA0 DUP3 ADD MSTORE RETURN JUMPDEST CALLVALUE PUSH2 0x2A6 JUMPI PUSH1 0x40 CALLDATASIZE PUSH1 0x3 NOT ADD SLT PUSH2 0x2A6 JUMPI PUSH2 0x23E6 PUSH2 0x2D75 JUMP JUMPDEST PUSH2 0x23EE PUSH2 0x2C38 JUMP JUMPDEST PUSH1 0x1 SLOAD SWAP1 SWAP2 SWAP1 PUSH1 0x1 PUSH1 0x1 PUSH1 0xA0 SHL SUB SWAP1 DUP2 AND DUP1 EXTCODESIZE ISZERO PUSH2 0x2A6 JUMPI PUSH1 0x0 SWAP3 DUP4 PUSH1 0x44 SWAP3 PUSH4 0xFFFFFFFF SWAP5 PUSH1 0x40 MLOAD SWAP8 DUP9 SWAP7 DUP8 SWAP6 PUSH4 0x86ECC79 PUSH1 0xE2 SHL DUP8 MSTORE AND PUSH1 0x4 DUP7 ADD MSTORE AND PUSH1 0x24 DUP5 ADD MSTORE GAS CALL DUP1 ISZERO PUSH2 0x2B3 JUMPI PUSH2 0x1239 JUMPI STOP JUMPDEST CALLVALUE PUSH2 0x2A6 JUMPI PUSH1 0x20 CALLDATASIZE PUSH1 0x3 NOT ADD SLT PUSH2 0x2A6 JUMPI PUSH1 0x0 PUSH2 0x120 PUSH1 0x40 MLOAD PUSH2 0x2461 DUP2 PUSH2 0x2E9C JUMP JUMPDEST DUP3 DUP2 MSTORE DUP3 PUSH1 0x20 DUP3 ADD MSTORE DUP3 PUSH1 0x40 DUP3 ADD MSTORE DUP3 PUSH1 0x60 DUP3 ADD MSTORE DUP3 PUSH1 0x80 DUP3 ADD MSTORE DUP3 PUSH1 0xA0 DUP3 ADD MSTORE DUP3 PUSH1 0xC0 DUP3 ADD MSTORE DUP3 PUSH1 0xE0 DUP3 ADD MSTORE PUSH1 0x60 PUSH2 0x100 DUP3 ADD MSTORE ADD MSTORE PUSH1 0x4 CALLDATALOAD PUSH1 0x0 MSTORE PUSH1 0x11 PUSH1 0x20 MSTORE PUSH1 0x40 PUSH1 0x0 KECCAK256 DUP1 SLOAD SWAP1 PUSH1 0x1 DUP1 PUSH1 0xA0 SHL SUB PUSH1 0x1 DUP3 ADD SLOAD AND SWAP1 PUSH1 0x2 DUP2 ADD SLOAD PUSH1 0x3 DUP3 ADD SLOAD SWAP2 PUSH1 0xFF DUP4 PUSH1 0x40 SHR AND SWAP2 PUSH4 0xFFFFFFFF PUSH1 0x4 DUP4 ADD SLOAD SWAP5 PUSH1 0x5 DUP5 ADD SLOAD SWAP3 DUP3 PUSH1 0x8 DUP7 ADD SLOAD AND SWAP8 PUSH1 0x40 MLOAD SWAP10 PUSH2 0x24F2 DUP12 PUSH2 0x2E9C JUMP JUMPDEST DUP11 MSTORE PUSH1 0x20 DUP11 ADD MSTORE PUSH1 0x40 DUP10 ADD MSTORE DUP2 DUP2 AND PUSH1 0x60 DUP10 ADD MSTORE PUSH1 0x20 SHR AND PUSH1 0x80 DUP8 ADD MSTORE PUSH1 0x6 DUP4 LT ISZERO PUSH2 0xC1D JUMPI PUSH2 0x2534 SWAP4 PUSH1 0x6 SWAP4 PUSH1 0xA0 DUP9 ADD MSTORE PUSH1 0xC0 DUP8 ADD MSTORE PUSH1 0xE0 DUP7 ADD MSTORE ADD PUSH2 0x32E2 JUMP JUMPDEST PUSH2 0x100 DUP4 ADD MSTORE PUSH2 0x120 DUP3 ADD MSTORE PUSH1 0x40 MLOAD SWAP1 PUSH1 0x20 DUP3 MSTORE DUP1 MLOAD PUSH1 0x20 DUP4 ADD MSTORE PUSH1 0x1 DUP1 PUSH1 0xA0 SHL SUB PUSH1 0x20 DUP3 ADD MLOAD AND PUSH1 0x40 DUP4 ADD MSTORE PUSH1 0x40 DUP2 ADD MLOAD PUSH1 0x60 DUP4 ADD MSTORE PUSH4 0xFFFFFFFF PUSH1 0x60 DUP3 ADD MLOAD AND PUSH1 0x80 DUP4 ADD MSTORE PUSH4 0xFFFFFFFF PUSH1 0x80 DUP3 ADD MLOAD AND PUSH1 0xA0 DUP4 ADD MSTORE PUSH1 0xA0 DUP2 ADD MLOAD SWAP1 PUSH1 0x6 DUP3 LT ISZERO PUSH2 0xC1D JUMPI DUP3 SWAP2 PUSH1 0xC0 DUP4 ADD MSTORE PUSH1 0xC0 DUP2 ADD MLOAD PUSH1 0xE0 DUP4 ADD MSTORE PUSH1 0xE0 DUP2 ADD MLOAD PUSH2 0x100 DUP4 ADD MSTORE PUSH2 0x100 DUP2 ADD MLOAD PUSH4 0xFFFFFFFF PUSH2 0x120 PUSH2 0x25DB PUSH2 0x140 SWAP4 DUP5 DUP4 DUP9 ADD MSTORE PUSH2 0x160 DUP8 ADD SWAP1 PUSH2 0x2D25 JUMP JUMPDEST SWAP4 ADD MLOAD AND SWAP1 DUP4 ADD MSTORE SUB SWAP1 RETURN JUMPDEST CALLVALUE PUSH2 0x2A6 JUMPI PUSH1 0xA0 CALLDATASIZE PUSH1 0x3 NOT ADD SLT PUSH2 0x2A6 JUMPI PUSH1 0x4 CALLDATALOAD PUSH2 0x2603 PUSH2 0x2D62 JUMP JUMPDEST SWAP1 PUSH1 0x64 CALLDATALOAD SWAP1 PUSH4 0xFFFFFFFF SWAP2 DUP3 DUP2 AND DUP1 SWAP2 SUB PUSH2 0x2A6 JUMPI PUSH1 0x84 CALLDATALOAD SWAP3 DUP1 DUP5 AND DUP1 SWAP5 SUB PUSH2 0x2A6 JUMPI DUP4 PUSH1 0x0 MSTORE PUSH1 0x20 SWAP5 PUSH1 0x15 DUP7 MSTORE PUSH1 0x3 DUP3 PUSH1 0x40 PUSH1 0x0 KECCAK256 SLOAD AND LT ISZERO PUSH2 0x27FF JUMPI DUP5 ISZERO DUP1 ISZERO PUSH2 0x27A0 JUMPI JUMPDEST PUSH2 0xC67 JUMPI DUP4 ISZERO PUSH2 0xF99 JUMPI DUP2 AND SWAP1 PUSH1 0x46 DUP3 GT DUP1 ISZERO SWAP1 PUSH2 0x2796 JUMPI JUMPDEST PUSH2 0xC45 JUMPI PUSH1 0x1 DUP4 LT DUP1 ISZERO PUSH2 0x278C JUMPI JUMPDEST PUSH2 0x277A JUMPI PUSH1 0x10 SLOAD DUP5 GT PUSH2 0x2768 JUMPI PUSH1 0x12 SLOAD SWAP5 PUSH2 0x268C DUP7 PUSH2 0x3058 JUMP JUMPDEST PUSH1 0x12 SSTORE DUP6 PUSH1 0x0 MSTORE PUSH1 0x11 DUP8 MSTORE PUSH1 0x40 PUSH1 0x0 KECCAK256 SWAP3 PUSH1 0x1 DUP5 ADD CALLER PUSH12 0xFFFFFFFFFFFFFFFFFFFFFFFF PUSH1 0xA0 SHL DUP3 SLOAD AND OR SWAP1 SSTORE DUP6 PUSH1 0x2 DUP6 ADD SSTORE PUSH1 0x3 DUP5 ADD SWAP1 PUSH9 0xFFFFFFFFFFFFFFFFFF NOT DUP3 SLOAD AND OR SWAP1 SSTORE PUSH1 0x44 CALLDATALOAD PUSH1 0x4 DUP5 ADD SSTORE TIMESTAMP PUSH1 0x5 DUP5 ADD SSTORE DUP6 PUSH1 0x8 DUP5 ADD SWAP4 PUSH4 0xFFFFFFFF NOT SWAP5 DUP7 DUP7 DUP3 SLOAD AND OR SWAP1 SSTORE SSTORE CALLER PUSH1 0x0 MSTORE PUSH1 0x13 DUP8 MSTORE PUSH2 0x270E DUP7 PUSH1 0x40 PUSH1 0x0 KECCAK256 PUSH2 0x3067 JUMP JUMPDEST PUSH1 0x0 MSTORE PUSH1 0x15 DUP7 MSTORE PUSH1 0x40 PUSH1 0x0 KECCAK256 SWAP2 DUP3 SLOAD SWAP2 PUSH2 0x2729 DUP2 DUP5 AND PUSH2 0x309C JUMP JUMPDEST AND SWAP2 AND OR SWAP1 SSTORE PUSH1 0x40 MLOAD SWAP2 DUP3 MSTORE DUP4 DUP3 ADD MSTORE DUP2 PUSH32 0xDE3B47CF7DA95A3CC41B86CF8717EAD8D56A76EE1590481C5C4DC4D8804C40C4 PUSH1 0x40 CALLER SWAP4 LOG3 PUSH1 0x40 MLOAD SWAP1 DUP2 MSTORE RETURN JUMPDEST PUSH1 0x40 MLOAD PUSH4 0x356680B7 PUSH1 0xE0 SHL DUP2 MSTORE PUSH1 0x4 SWAP1 REVERT JUMPDEST PUSH1 0x40 MLOAD PUSH4 0x524EFF27 PUSH1 0xE0 SHL DUP2 MSTORE PUSH1 0x4 SWAP1 REVERT JUMPDEST POP PUSH1 0xC DUP4 GT PUSH2 0x2672 JUMP JUMPDEST POP PUSH1 0x64 DUP3 GT PUSH2 0x2663 JUMP JUMPDEST POP PUSH1 0x1 SLOAD PUSH1 0x40 MLOAD PUSH4 0x2CC52B15 PUSH1 0xE1 SHL DUP2 MSTORE CALLER PUSH1 0x4 DUP3 ADD MSTORE SWAP1 DUP8 SWAP1 DUP3 SWAP1 PUSH1 0x24 SWAP1 DUP3 SWAP1 PUSH1 0x1 PUSH1 0x1 PUSH1 0xA0 SHL SUB AND GAS STATICCALL SWAP1 DUP2 ISZERO PUSH2 0x2B3 JUMPI PUSH1 0x0 SWAP2 PUSH2 0x27E2 JUMPI JUMPDEST POP ISZERO PUSH2 0x264A JUMP JUMPDEST PUSH2 0x27F9 SWAP2 POP DUP8 RETURNDATASIZE DUP10 GT PUSH2 0xA81 JUMPI PUSH2 0xA73 DUP2 DUP4 PUSH2 0x2ED5 JUMP JUMPDEST DUP8 PUSH2 0x27DB JUMP JUMPDEST PUSH1 0x40 MLOAD PUSH4 0x5AAD290F PUSH1 0xE0 SHL DUP2 MSTORE PUSH1 0x4 SWAP1 REVERT JUMPDEST CALLVALUE PUSH2 0x2A6 JUMPI PUSH1 0x0 CALLDATASIZE PUSH1 0x3 NOT ADD SLT PUSH2 0x2A6 JUMPI PUSH1 0x40 MLOAD PUSH4 0x7FD5E70B PUSH1 0xE0 SHL DUP2 MSTORE PUSH1 0x2 PUSH1 0x4 DUP3 ADD MSTORE PUSH1 0x0 DUP2 PUSH1 0x24 DUP2 PUSH20 0x0 GAS DELEGATECALL DUP1 ISZERO PUSH2 0x2B3 JUMPI PUSH2 0x152C SWAP2 PUSH1 0x0 SWAP2 PUSH2 0x1C60 JUMPI POP PUSH1 0x40 MLOAD SWAP2 DUP3 SWAP2 PUSH1 0x20 DUP4 MSTORE PUSH1 0x20 DUP4 ADD SWAP1 PUSH2 0x2D25 JUMP JUMPDEST CALLVALUE PUSH2 0x2A6 JUMPI PUSH1 0x20 DUP1 PUSH1 0x3 NOT CALLDATASIZE ADD SLT PUSH2 0x2A6 JUMPI PUSH1 0x1 PUSH1 0x1 PUSH1 0xA0 SHL SUB SWAP1 DUP2 PUSH2 0x289D PUSH2 0x2C22 JUMP JUMPDEST AND DUP1 PUSH1 0x0 MSTORE PUSH1 0x13 DUP3 MSTORE PUSH1 0x40 PUSH1 0x0 KECCAK256 PUSH1 0x0 SWAP2 PUSH1 0x0 SWAP2 DUP1 SLOAD SWAP3 JUMPDEST DUP4 DUP2 LT PUSH2 0x2A82 JUMPI POP PUSH2 0x28C6 DUP5 PUSH2 0x3121 JUMP JUMPDEST SWAP6 PUSH2 0x28D4 PUSH1 0x40 MLOAD SWAP8 DUP9 PUSH2 0x2ED5 JUMP JUMPDEST DUP5 DUP8 MSTORE PUSH1 0x1F NOT DUP1 PUSH2 0x28E4 DUP8 PUSH2 0x3121 JUMP JUMPDEST ADD PUSH1 0x0 JUMPDEST DUP2 DUP2 LT PUSH2 0x2A67 JUMPI POP POP PUSH2 0x2913 PUSH2 0x28FD DUP8 PUSH2 0x3121 JUMP JUMPDEST SWAP7 PUSH2 0x290B PUSH1 0x40 MLOAD SWAP9 DUP10 PUSH2 0x2ED5 JUMP JUMPDEST DUP1 DUP9 MSTORE PUSH2 0x3121 JUMP JUMPDEST ADD CALLDATASIZE DUP8 DUP8 ADD CALLDATACOPY PUSH1 0x0 SWAP3 PUSH1 0x0 JUMPDEST DUP6 DUP2 LT PUSH2 0x299F JUMPI DUP9 DUP9 DUP9 PUSH1 0x40 MLOAD SWAP3 DUP4 SWAP2 PUSH1 0x40 DUP4 ADD SWAP4 PUSH1 0x40 DUP5 MSTORE DUP3 MLOAD DUP1 SWAP6 MSTORE PUSH1 0x60 DUP5 ADD SWAP5 DUP2 PUSH1 0x60 DUP3 PUSH1 0x5 SHL DUP8 ADD ADD SWAP5 ADD SWAP6 PUSH1 0x0 SWAP1 JUMPDEST DUP3 DUP3 LT PUSH2 0x296F JUMPI POP POP POP DUP4 PUSH2 0x152C SWAP5 SWAP6 POP DUP4 SUB SWAP1 DUP6 ADD MSTORE PUSH2 0x2CF1 JUMP JUMPDEST SWAP2 SWAP4 SWAP6 POP SWAP2 SWAP4 DUP5 DUP1 PUSH2 0x298D PUSH1 0x1 SWAP4 PUSH1 0x5F NOT DUP13 DUP3 SUB ADD DUP7 MSTORE DUP11 MLOAD PUSH2 0x2C58 JUMP JUMPDEST SWAP9 ADD SWAP3 ADD SWAP3 ADD DUP8 SWAP6 SWAP4 SWAP2 SWAP7 SWAP5 SWAP3 PUSH2 0x2953 JUMP JUMPDEST PUSH2 0x29AC DUP2 DUP6 SWAP11 SWAP10 SWAP11 PUSH2 0x2E70 JUMP JUMPDEST SWAP1 SLOAD PUSH1 0x3 SWAP2 DUP3 SHL SHR PUSH1 0x0 MSTORE PUSH1 0x16 DUP11 MSTORE PUSH1 0x40 PUSH1 0x0 KECCAK256 DUP4 DUP6 DUP3 SLOAD AND EQ DUP1 PUSH2 0x2A4F JUMPI JUMPDEST DUP1 PUSH2 0x2A39 JUMPI JUMPDEST PUSH2 0x29EA JUMPI JUMPDEST POP POP PUSH2 0x29E2 SWAP1 PUSH2 0x3058 JUMP JUMPDEST SWAP8 SWAP7 SWAP8 PUSH2 0x291F JUMP JUMPDEST SWAP6 PUSH2 0x2A31 SWAP2 PUSH2 0x29FC PUSH2 0x29E2 SWAP5 SWAP9 PUSH2 0x320E JUMP JUMPDEST PUSH2 0x2A06 DUP4 DUP14 PUSH2 0x31FA JUMP JUMPDEST MSTORE PUSH2 0x2A11 DUP3 DUP13 PUSH2 0x31FA JUMP JUMPDEST POP PUSH2 0x2A1C DUP9 DUP9 PUSH2 0x2E70 JUMP JUMPDEST SWAP1 SLOAD SWAP2 SHL SHR PUSH2 0x2A2B DUP3 DUP12 PUSH2 0x31FA JUMP JUMPDEST MSTORE PUSH2 0x3058 JUMP JUMPDEST SWAP5 SWAP1 DUP11 PUSH2 0x29D7 JUMP JUMPDEST POP PUSH4 0xFFFFFFFF PUSH1 0x2 DUP3 ADD SLOAD PUSH1 0x28 SHR AND ISZERO ISZERO PUSH2 0x29D2 JUMP JUMPDEST POP PUSH1 0xFF PUSH1 0x2 DUP3 ADD SLOAD AND PUSH2 0x2A61 DUP2 PUSH2 0x2C4E JUMP JUMPDEST ISZERO PUSH2 0x29CC JUMP JUMPDEST SWAP8 DUP1 SWAP10 SWAP9 PUSH2 0x2A73 PUSH2 0x31C3 JUMP JUMPDEST DUP3 DUP3 DUP13 ADD ADD MSTORE ADD SWAP9 SWAP8 SWAP9 PUSH2 0x28E8 JUMP JUMPDEST PUSH2 0x2A8F DUP2 DUP4 SWAP9 SWAP8 SWAP9 PUSH2 0x2E70 JUMP JUMPDEST SWAP1 SLOAD SWAP1 PUSH1 0x3 SHL SHR PUSH1 0x0 MSTORE PUSH1 0x16 DUP8 MSTORE PUSH1 0x40 PUSH1 0x0 KECCAK256 DUP4 DUP8 DUP3 SLOAD AND EQ SWAP1 DUP2 PUSH2 0x2AF8 JUMPI JUMPDEST DUP2 PUSH2 0x2AE1 JUMPI JUMPDEST POP PUSH2 0x2ACC JUMPI JUMPDEST PUSH2 0x2AC4 SWAP1 PUSH2 0x3058 JUMP JUMPDEST SWAP6 SWAP5 SWAP6 PUSH2 0x28B5 JUMP JUMPDEST SWAP4 PUSH2 0x2AD9 PUSH2 0x2AC4 SWAP2 PUSH2 0x3058 JUMP JUMPDEST SWAP5 SWAP1 POP PUSH2 0x2ABB JUMP JUMPDEST PUSH4 0xFFFFFFFF SWAP2 POP PUSH1 0x2 ADD SLOAD PUSH1 0x28 SHR AND ISZERO ISZERO DUP9 PUSH2 0x2AB5 JUMP JUMPDEST SWAP1 POP PUSH1 0xFF PUSH1 0x2 DUP3 ADD SLOAD AND PUSH2 0x2B0B DUP2 PUSH2 0x2C4E JUMP JUMPDEST ISZERO SWAP1 PUSH2 0x2AAF JUMP JUMPDEST CALLVALUE PUSH2 0x2A6 JUMPI PUSH1 0x0 CALLDATASIZE PUSH1 0x3 NOT ADD SLT PUSH2 0x2A6 JUMPI PUSH1 0x20 PUSH1 0xF SLOAD PUSH1 0x40 MLOAD SWAP1 DUP2 MSTORE RETURN JUMPDEST CALLVALUE PUSH2 0x2A6 JUMPI PUSH1 0x20 CALLDATASIZE PUSH1 0x3 NOT ADD SLT PUSH2 0x2A6 JUMPI PUSH8 0xFFFFFFFFFFFFFFFF PUSH1 0x4 CALLDATALOAD DUP2 DUP2 GT PUSH2 0x2A6 JUMPI CALLDATASIZE PUSH1 0x23 DUP3 ADD SLT ISZERO PUSH2 0x2A6 JUMPI DUP1 PUSH1 0x4 ADD CALLDATALOAD SWAP2 DUP3 GT PUSH2 0x2A6 JUMPI PUSH1 0x24 PUSH1 0x5 SWAP2 CALLDATASIZE DUP3 DUP6 DUP6 SHL DUP4 ADD ADD GT PUSH2 0x2A6 JUMPI ADDRESS PUSH1 0x20 SHL PUSH4 0x3D1A1A1 OR PUSH1 0x40 SHL SWAP4 SWAP3 PUSH20 0x0 SWAP2 PUSH1 0x0 JUMPDEST DUP6 DUP2 LT PUSH2 0x2BAE JUMPI STOP JUMPDEST DUP1 DUP4 SHL DUP3 ADD DUP6 ADD CALLDATALOAD PUSH1 0x1 PUSH1 0x1 PUSH1 0xA0 SHL SUB DUP2 AND SWAP2 SWAP1 DUP3 SWAP1 SUB PUSH2 0x2A6 JUMPI DUP5 EXTCODESIZE ISZERO PUSH2 0x2A6 JUMPI PUSH1 0x40 MLOAD SWAP2 PUSH4 0xE63DD531 PUSH1 0xE0 SHL DUP4 MSTORE PUSH1 0x2 PUSH1 0x4 DUP5 ADD MSTORE DUP7 DUP4 ADD MSTORE DUP8 PUSH1 0x44 DUP4 ADD MSTORE PUSH1 0x0 DUP3 PUSH1 0x64 DUP2 DUP9 GAS DELEGATECALL SWAP2 DUP3 ISZERO PUSH2 0x2B3 JUMPI PUSH2 0x2C0E SWAP3 PUSH2 0x2C13 JUMPI JUMPDEST POP PUSH2 0x3058 JUMP JUMPDEST PUSH2 0x2BA5 JUMP JUMPDEST PUSH2 0x2C1C SWAP1 PUSH2 0x2E88 JUMP JUMPDEST DUP9 PUSH2 0x2C08 JUMP JUMPDEST PUSH1 0x4 CALLDATALOAD SWAP1 PUSH1 0x1 PUSH1 0x1 PUSH1 0xA0 SHL SUB DUP3 AND DUP3 SUB PUSH2 0x2A6 JUMPI JUMP JUMPDEST PUSH1 0x24 CALLDATALOAD SWAP1 PUSH1 0x1 PUSH1 0x1 PUSH1 0xA0 SHL SUB DUP3 AND DUP3 SUB PUSH2 0x2A6 JUMPI JUMP JUMPDEST PUSH1 0x3 GT ISZERO PUSH2 0xC1D JUMPI JUMP JUMPDEST DUP1 MLOAD PUSH1 0x1 PUSH1 0x1 PUSH1 0xA0 SHL SUB AND DUP3 MSTORE PUSH1 0x20 DUP1 DUP3 ADD MLOAD DUP2 DUP5 ADD MSTORE PUSH1 0x40 DUP3 ADD MLOAD SWAP1 SWAP2 PUSH1 0xE0 DUP5 ADD SWAP2 DUP4 SWAP2 PUSH2 0x100 SWAP2 PUSH1 0xC0 SWAP2 SWAP1 PUSH2 0x2C8E DUP2 PUSH2 0x2C4E JUMP JUMPDEST PUSH1 0x40 DUP9 ADD MSTORE PUSH4 0xFFFFFFFF DUP1 PUSH1 0x60 DUP4 ADD MLOAD AND PUSH1 0x60 DUP10 ADD MSTORE PUSH1 0x80 DUP3 ADD MLOAD AND PUSH1 0x80 DUP9 ADD MSTORE PUSH1 0xA0 DUP2 ADD MLOAD PUSH1 0xA0 DUP9 ADD MSTORE ADD MLOAD SWAP5 PUSH1 0xE0 PUSH1 0xC0 DUP3 ADD MSTORE DUP6 MLOAD DUP1 SWAP5 MSTORE ADD SWAP4 ADD SWAP2 PUSH1 0x0 JUMPDEST DUP3 DUP2 LT PUSH2 0x2CDD JUMPI POP POP POP POP SWAP1 JUMP JUMPDEST DUP4 MLOAD DUP6 MSTORE SWAP4 DUP2 ADD SWAP4 SWAP3 DUP2 ADD SWAP3 PUSH1 0x1 ADD PUSH2 0x2CCF JUMP JUMPDEST SWAP1 DUP2 MLOAD DUP1 DUP3 MSTORE PUSH1 0x20 DUP1 DUP1 SWAP4 ADD SWAP4 ADD SWAP2 PUSH1 0x0 JUMPDEST DUP3 DUP2 LT PUSH2 0x2D11 JUMPI POP POP POP POP SWAP1 JUMP JUMPDEST DUP4 MLOAD DUP6 MSTORE SWAP4 DUP2 ADD SWAP4 SWAP3 DUP2 ADD SWAP3 PUSH1 0x1 ADD PUSH2 0x2D03 JUMP JUMPDEST SWAP1 DUP2 MLOAD DUP1 DUP3 MSTORE PUSH1 0x20 DUP1 DUP1 SWAP4 ADD SWAP4 ADD SWAP2 PUSH1 0x0 JUMPDEST DUP3 DUP2 LT PUSH2 0x2D45 JUMPI POP POP POP POP SWAP1 JUMP JUMPDEST DUP4 MLOAD PUSH1 0x1 PUSH1 0x1 PUSH1 0xA0 SHL SUB AND DUP6 MSTORE SWAP4 DUP2 ADD SWAP4 SWAP3 DUP2 ADD SWAP3 PUSH1 0x1 ADD PUSH2 0x2D37 JUMP JUMPDEST PUSH1 0x24 CALLDATALOAD SWAP1 PUSH4 0xFFFFFFFF DUP3 AND DUP3 SUB PUSH2 0x2A6 JUMPI JUMP JUMPDEST PUSH1 0x4 CALLDATALOAD SWAP1 PUSH4 0xFFFFFFFF DUP3 AND DUP3 SUB PUSH2 0x2A6 JUMPI JUMP JUMPDEST PUSH1 0x44 CALLDATALOAD SWAP1 PUSH4 0xFFFFFFFF DUP3 AND DUP3 SUB PUSH2 0x2A6 JUMPI JUMP JUMPDEST CALLVALUE PUSH2 0x2A6 JUMPI PUSH1 0x0 CALLDATASIZE PUSH1 0x3 NOT ADD SLT PUSH2 0x2A6 JUMPI PUSH1 0x20 PUSH1 0x10 SLOAD PUSH1 0x40 MLOAD SWAP1 DUP2 MSTORE RETURN JUMPDEST CALLVALUE PUSH2 0x2A6 JUMPI PUSH1 0x0 DUP1 PUSH1 0x3 NOT CALLDATASIZE ADD SLT PUSH2 0x2E6D JUMPI PUSH1 0x40 MLOAD PUSH4 0x70A08231 PUSH1 0xE0 SHL DUP2 MSTORE ADDRESS PUSH1 0x4 DUP3 ADD MSTORE PUSH1 0x20 DUP2 PUSH1 0x24 DUP2 PUSH32 0x0 PUSH1 0x1 PUSH1 0x1 PUSH1 0xA0 SHL SUB AND GAS STATICCALL SWAP1 DUP2 ISZERO PUSH2 0x2E62 JUMPI DUP3 SWAP2 PUSH2 0x2E29 JUMPI JUMPDEST PUSH1 0x20 DUP3 PUSH1 0x40 MLOAD SWAP1 DUP2 MSTORE RETURN JUMPDEST SWAP1 POP PUSH1 0x20 DUP2 RETURNDATASIZE DUP3 GT PUSH2 0x2E5A JUMPI JUMPDEST DUP2 PUSH2 0x2E43 PUSH1 0x20 SWAP4 DUP4 PUSH2 0x2ED5 JUMP JUMPDEST DUP2 ADD SUB SLT PUSH2 0x2E56 JUMPI PUSH1 0x20 SWAP2 POP MLOAD CODESIZE PUSH2 0x2E1E JUMP JUMPDEST POP DUP1 REVERT JUMPDEST RETURNDATASIZE SWAP2 POP PUSH2 0x2E36 JUMP JUMPDEST PUSH1 0x40 MLOAD RETURNDATASIZE DUP5 DUP3 RETURNDATACOPY RETURNDATASIZE SWAP1 REVERT JUMPDEST DUP1 REVERT JUMPDEST DUP1 SLOAD DUP3 LT ISZERO PUSH2 0xB05 JUMPI PUSH1 0x0 MSTORE PUSH1 0x20 PUSH1 0x0 KECCAK256 ADD SWAP1 PUSH1 0x0 SWAP1 JUMP JUMPDEST PUSH8 0xFFFFFFFFFFFFFFFF DUP2 GT PUSH2 0xB1B JUMPI PUSH1 0x40 MSTORE JUMP JUMPDEST PUSH2 0x140 DUP2 ADD SWAP1 DUP2 LT PUSH8 0xFFFFFFFFFFFFFFFF DUP3 GT OR PUSH2 0xB1B JUMPI PUSH1 0x40 MSTORE JUMP JUMPDEST PUSH1 0xE0 DUP2 ADD SWAP1 DUP2 LT PUSH8 0xFFFFFFFFFFFFFFFF DUP3 GT OR PUSH2 0xB1B JUMPI PUSH1 0x40 MSTORE JUMP JUMPDEST SWAP1 PUSH1 0x1F DUP1 NOT SWAP2 ADD AND DUP2 ADD SWAP1 DUP2 LT PUSH8 0xFFFFFFFFFFFFFFFF DUP3 GT OR PUSH2 0xB1B JUMPI PUSH1 0x40 MSTORE JUMP JUMPDEST SWAP1 DUP2 PUSH1 0x20 SWAP2 SUB SLT PUSH2 0x2A6 JUMPI MLOAD DUP1 ISZERO ISZERO DUP2 SUB PUSH2 0x2A6 JUMPI SWAP1 JUMP JUMPDEST SWAP2 SWAP1 SWAP2 PUSH1 0x60 DUP2 ADD SWAP3 PUSH1 0x2 DUP3 MSTORE PUSH1 0x20 SWAP4 PUSH1 0x60 DUP6 DUP5 ADD MSTORE PUSH1 0x9 SLOAD DUP1 SWAP2 MSTORE PUSH1 0x80 DUP4 ADD SWAP1 PUSH1 0x9 PUSH1 0x0 MSTORE PUSH32 0x6E1540171B6C0C960B71A7020D9F60077F6AF931A8BBF590DA0223DACF75C7AF SWAP1 PUSH1 0x0 JUMPDEST DUP8 DUP3 DUP3 LT PUSH2 0x2F77 JUMPI POP POP POP POP SWAP4 SHL PUSH4 0x3D1A1A1 OR PUSH1 0x40 SWAP1 DUP2 SHL SWAP2 ADD MSTORE JUMP JUMPDEST DUP4 SLOAD PUSH1 0x1 PUSH1 0x1 PUSH1 0xA0 SHL SUB AND DUP6 MSTORE SWAP1 SWAP4 ADD SWAP3 PUSH1 0x1 SWAP3 DUP4 ADD SWAP3 ADD PUSH2 0x2F59 JUMP JUMPDEST SWAP2 SWAP1 DUP3 SUB SWAP2 DUP3 GT PUSH2 0x9FA JUMPI JUMP JUMPDEST PUSH1 0x2 PUSH1 0x0 SLOAD EQ PUSH2 0x2FB2 JUMPI PUSH1 0x2 PUSH1 0x0 SSTORE JUMP JUMPDEST PUSH1 0x40 MLOAD PUSH3 0x461BCD PUSH1 0xE5 SHL DUP2 MSTORE PUSH1 0x20 PUSH1 0x4 DUP3 ADD MSTORE PUSH1 0x1F PUSH1 0x24 DUP3 ADD MSTORE PUSH32 0x5265656E7472616E637947756172643A207265656E7472616E742063616C6C00 PUSH1 0x44 DUP3 ADD MSTORE PUSH1 0x64 SWAP1 REVERT JUMPDEST PUSH1 0x1 DUP1 PUSH1 0xA0 SHL SUB AND PUSH1 0x0 MSTORE PUSH1 0xB PUSH1 0x20 MSTORE PUSH1 0x40 PUSH1 0x0 KECCAK256 SLOAD PUSH1 0x14 PUSH1 0x20 MSTORE PUSH1 0x40 PUSH1 0x0 KECCAK256 SLOAD DUP1 DUP3 GT PUSH2 0x3026 JUMPI POP POP PUSH1 0x0 SWAP1 JUMP JUMPDEST PUSH2 0x302F SWAP2 PUSH2 0x2F94 JUMP JUMPDEST SWAP1 JUMP JUMPDEST SWAP1 DUP2 PUSH1 0x20 SWAP2 SUB SLT PUSH2 0x2A6 JUMPI MLOAD DUP1 PUSH1 0x3 SIGNEXTEND DUP2 SUB PUSH2 0x2A6 JUMPI SWAP1 JUMP JUMPDEST SWAP2 SWAP1 DUP3 ADD DUP1 SWAP3 GT PUSH2 0x9FA JUMPI JUMP JUMPDEST PUSH1 0x0 NOT DUP2 EQ PUSH2 0x9FA JUMPI PUSH1 0x1 ADD SWAP1 JUMP JUMPDEST DUP1 SLOAD PUSH1 0x1 PUSH1 0x40 SHL DUP2 LT ISZERO PUSH2 0xB1B JUMPI PUSH2 0x3084 SWAP2 PUSH1 0x1 DUP3 ADD DUP2 SSTORE PUSH2 0x2E70 JUMP JUMPDEST DUP2 SWAP3 SWAP2 SLOAD SWAP1 PUSH1 0x3 SHL SWAP2 DUP3 SHL SWAP2 PUSH1 0x0 NOT SWAP1 SHL NOT AND OR SWAP1 SSTORE JUMP JUMPDEST SWAP1 PUSH1 0x1 PUSH4 0xFFFFFFFF DUP1 SWAP4 AND ADD SWAP2 DUP3 GT PUSH2 0x9FA JUMPI JUMP JUMPDEST DUP2 DUP2 MUL SWAP3 SWAP2 DUP2 ISZERO SWAP2 DUP5 DIV EQ OR ISZERO PUSH2 0x9FA JUMPI JUMP JUMPDEST DUP2 ISZERO PUSH2 0x30CE JUMPI DIV SWAP1 JUMP JUMPDEST PUSH4 0x4E487B71 PUSH1 0xE0 SHL PUSH1 0x0 MSTORE PUSH1 0x12 PUSH1 0x4 MSTORE PUSH1 0x24 PUSH1 0x0 REVERT JUMPDEST SWAP1 DUP2 SLOAD DUP1 DUP3 MSTORE PUSH1 0x20 DUP1 SWAP3 ADD SWAP3 PUSH1 0x0 MSTORE DUP2 PUSH1 0x0 KECCAK256 SWAP2 PUSH1 0x0 SWAP1 JUMPDEST DUP3 DUP3 LT PUSH2 0x310A JUMPI POP POP POP POP SWAP1 JUMP JUMPDEST DUP4 SLOAD DUP6 MSTORE SWAP4 DUP5 ADD SWAP4 PUSH1 0x1 SWAP4 DUP5 ADD SWAP4 SWAP1 SWAP2 ADD SWAP1 PUSH2 0x30FC JUMP JUMPDEST PUSH8 0xFFFFFFFFFFFFFFFF DUP2 GT PUSH2 0xB1B JUMPI PUSH1 0x5 SHL PUSH1 0x20 ADD SWAP1 JUMP JUMPDEST PUSH1 0x20 SWAP1 DUP2 DUP2 DUP5 SUB SLT PUSH2 0x2A6 JUMPI DUP1 MLOAD SWAP1 PUSH8 0xFFFFFFFFFFFFFFFF DUP3 GT PUSH2 0x2A6 JUMPI ADD SWAP2 DUP1 PUSH1 0x1F DUP5 ADD SLT ISZERO PUSH2 0x2A6 JUMPI DUP3 MLOAD PUSH2 0x316F DUP2 PUSH2 0x3121 JUMP JUMPDEST SWAP4 PUSH2 0x317D PUSH1 0x40 MLOAD SWAP6 DUP7 PUSH2 0x2ED5 JUMP JUMPDEST DUP2 DUP6 MSTORE DUP4 DUP1 DUP7 ADD SWAP3 PUSH1 0x5 SHL DUP3 ADD ADD SWAP3 DUP4 GT PUSH2 0x2A6 JUMPI DUP4 ADD SWAP1 JUMPDEST DUP3 DUP3 LT PUSH2 0x31A4 JUMPI POP POP POP POP SWAP1 JUMP JUMPDEST DUP2 MLOAD PUSH1 0x1 PUSH1 0x1 PUSH1 0xA0 SHL SUB DUP2 AND DUP2 SUB PUSH2 0x2A6 JUMPI DUP2 MSTORE SWAP1 DUP4 ADD SWAP1 DUP4 ADD PUSH2 0x3196 JUMP JUMPDEST PUSH1 0x40 MLOAD SWAP1 PUSH2 0x31D0 DUP3 PUSH2 0x2EB9 JUMP JUMPDEST PUSH1 0x60 PUSH1 0xC0 DUP4 PUSH1 0x0 DUP1 DUP3 MSTORE DUP1 PUSH1 0x20 DUP4 ADD MSTORE DUP1 PUSH1 0x40 DUP4 ADD MSTORE DUP1 DUP5 DUP4 ADD MSTORE DUP1 PUSH1 0x80 DUP4 ADD MSTORE PUSH1 0xA0 DUP3 ADD MSTORE ADD MSTORE JUMP JUMPDEST DUP1 MLOAD DUP3 LT ISZERO PUSH2 0xB05 JUMPI PUSH1 0x20 SWAP2 PUSH1 0x5 SHL ADD ADD SWAP1 JUMP JUMPDEST SWAP1 PUSH1 0x4 PUSH1 0xC0 PUSH1 0x40 MLOAD PUSH2 0x321F DUP2 PUSH2 0x2EB9 JUMP JUMPDEST PUSH2 0x328C DUP2 SWAP6 PUSH1 0x1 DUP1 PUSH1 0xA0 SHL SUB DUP2 SLOAD AND DUP4 MSTORE PUSH1 0x1 DUP2 ADD SLOAD PUSH1 0x20 DUP5 ADD MSTORE PUSH1 0x2 DUP2 ADD SLOAD PUSH1 0xFF DUP2 AND PUSH2 0x324C DUP2 PUSH2 0x2C4E JUMP JUMPDEST PUSH1 0x40 DUP6 ADD MSTORE PUSH4 0xFFFFFFFF SWAP1 DUP2 DUP2 PUSH1 0x8 SHR AND PUSH1 0x60 DUP7 ADD MSTORE PUSH1 0x28 SHR AND PUSH1 0x80 DUP5 ADD MSTORE PUSH1 0x3 DUP2 ADD SLOAD PUSH1 0xA0 DUP5 ADD MSTORE PUSH2 0x3285 PUSH1 0x40 MLOAD DUP1 SWAP7 DUP2 SWAP4 ADD PUSH2 0x30E4 JUMP JUMPDEST SUB DUP5 PUSH2 0x2ED5 JUMP JUMPDEST ADD MSTORE JUMP JUMPDEST PUSH1 0x0 MSTORE PUSH1 0x16 PUSH1 0x20 MSTORE PUSH1 0x40 PUSH1 0x0 KECCAK256 PUSH1 0x2 DUP2 ADD SLOAD PUSH1 0xFF DUP2 AND PUSH2 0x32AF DUP2 PUSH2 0x2C4E JUMP JUMPDEST ISZERO SWAP1 DUP2 PUSH2 0x32CF JUMPI JUMPDEST POP PUSH2 0x32C5 JUMPI POP PUSH1 0x0 SWAP1 PUSH1 0x0 SWAP1 JUMP JUMPDEST PUSH1 0x3 ADD SLOAD SWAP1 PUSH1 0x1 SWAP1 JUMP JUMPDEST PUSH4 0xFFFFFFFF SWAP2 POP PUSH1 0x28 SHR AND ISZERO ISZERO CODESIZE PUSH2 0x32B7 JUMP JUMPDEST SWAP1 PUSH1 0x40 MLOAD SWAP2 DUP3 DUP2 SLOAD SWAP2 DUP3 DUP3 MSTORE PUSH1 0x20 SWAP3 DUP4 DUP4 ADD SWAP2 PUSH1 0x0 MSTORE DUP4 PUSH1 0x0 KECCAK256 SWAP4 PUSH1 0x0 SWAP1 JUMPDEST DUP3 DUP3 LT PUSH2 0x3319 JUMPI POP POP POP PUSH2 0x3317 SWAP3 POP SUB DUP4 PUSH2 0x2ED5 JUMP JUMPDEST JUMP JUMPDEST DUP6 SLOAD PUSH1 0x1 PUSH1 0x1 PUSH1 0xA0 SHL SUB AND DUP5 MSTORE PUSH1 0x1 SWAP6 DUP7 ADD SWAP6 DUP9 SWAP6 POP SWAP4 DUP2 ADD SWAP4 SWAP1 SWAP2 ADD SWAP1 PUSH2 0x3301 JUMP INVALID DUP12 MULMOD 0x4C 0xCA PUSH16 0x83D49402CE208CC0C224B76625FFC586 CALLDATASIZE 0xDF JUMP 0xAE 0x28 MUL 0x4E PUSH17 0x4C5868A2646970667358221220E877051E 0x1E SWAP2 DUP11 0x28 0x5C SGT 0xBC 0x49 0x22 0xC5 STATICCALL PC MSTORE SUB 0xC6 GT PUSH3 0x3B2E1A SAR BALANCE PREVRANDAO 0xE5 0xB1 0x25 0xA9 GASPRICE PUSH5 0x736F6C6343 STOP ADDMOD SGT STOP CALLER "},"methodIdentifiers":{"batchUpdateDebtStatus(address[])":"016c704f","borrowerRequisitions(address,uint256)":"9e932011","canPayRequisition(uint256,address)":"adceb101","canUserBorrow(address,uint256)":"97c33519","coverLoan(uint256,uint32,uint32)":"ecb18b34","createLoanRequisition(uint256,uint32,uint256,uint32,uint32)":"182d94b5","donate(uint256,uint32)":"e2763924","getActiveLoans(address)":"03d1a1a1","getAllowance(address)":"eb5a662e","getAvailableBalance()":"809dab6a","getAvailableBorrowAmount()":"291c31a7","getBorrowerDebtStatus(address)":"f0853e1d","getBorrowerRequisitions(address)":"9730872a","getBorrowersWithDebt()":"0bc21853","getBorrowersWithoutDebt()":"830efd3b","getBorrowing(address)":"be5eb580","getContractBalance()":"6f9fb98a","getCoveringLenders(uint256)":"8a914a63","getDonation(address)":"410a1d32","getDonationsInCoverage(address)":"827cc0e5","getLastBorrowTime(address)":"657eb031","getLenderCoverage(uint256,address)":"4e51c7df","getLoanContract(uint256)":"383ab2ef","getMemberId(address)":"c269014b","getNextPaymentAmount(uint256)":"6509a710","getPaymentDates(uint256)":"7d52437a","getRepaymentSummary(uint256)":"2b31c022","getReputation(uint32)":"81db2284","getRequisitionInfo(uint256)":"1b70ba3e","getTotalBorrowed()":"0307c4a1","getTotalDonations()":"777c658f","getUSDTBalance()":"9785fac8","getWithdrawableBalance(address)":"843592d3","hasActiveDebt(address)":"3403c25d","hasOverdueDebt(address)":"a7af6947","isWalletVinculated(address)":"598a562a","loanContracts(uint256)":"232869fa","nextMonthlyUpdate()":"f947a8a9","repay(uint256,uint256,uint32)":"9059f9ca","reputationSystem()":"6587eda1","requisitionCounter()":"84ddf5ea","shouldTriggerUpdate()":"79103400","triggerMonthlyUpdate()":"ccdce44e","updateBorrowerDebtStatus(address)":"b9f0fec4","usdtToken()":"a98ad46c","vinculationMemberToWallet(uint32,address)":"21bb31e4","withdraw(uint256,uint32)":"6145d1b7"}}}}}