{"contracts/LoanMachine.sol":{"LoanMachine":{"abi":[{"inputs":[{"internalType":"address","name":"_usdtToken","type":"address"},{"internalType":"address","name":"_reputationSystem","type":"address"}],"stateMutability":"nonpayable","type":"constructor"},{"inputs":[],"name":"BorrowNotExpired","type":"error"},{"inputs":[],"name":"ExcessiveDonation","type":"error"},{"inputs":[],"name":"InsufficientDonationBalance","type":"error"},{"inputs":[],"name":"InsufficientFunds","type":"error"},{"inputs":[],"name":"InsufficientWithdrawableBalance","type":"error"},{"inputs":[],"name":"InvalidAmount","type":"error"},{"inputs":[],"name":"InvalidCoveragePercentage","type":"error"},{"inputs":[],"name":"InvalidParcelsCount","type":"error"},{"inputs":[],"name":"LoanNotAvailable","type":"error"},{"inputs":[],"name":"MaxLoanRequisitionPendingReached","type":"error"},{"inputs":[],"name":"MemberIdOrWalletInvalid","type":"error"},{"inputs":[],"name":"MinimumDonationRequired","type":"error"},{"inputs":[],"name":"MinimumPercentageCover","type":"error"},{"inputs":[],"name":"NoActiveBorrowing","type":"error"},{"inputs":[],"name":"OverCoverage","type":"error"},{"inputs":[],"name":"ParcelAlreadyPaid","type":"error"},{"inputs":[],"name":"RepaymentExceedsBorrowed","type":"error"},{"inputs":[],"name":"TokenTransferFailed","type":"error"},{"inputs":[],"name":"WalletAlreadyVinculated","type":"error"},{"anonymous":false,"inputs":[{"indexed":false,"internalType":"uint256","name":"total","type":"uint256"}],"name":"AvailableBalanceUpdated","type":"event"},{"anonymous":false,"inputs":[{"indexed":true,"internalType":"address","name":"borrower","type":"address"}],"name":"BorrowLimitReached","type":"event"},{"anonymous":false,"inputs":[{"indexed":true,"internalType":"address","name":"borrower","type":"address"},{"indexed":false,"internalType":"uint256","name":"amount","type":"uint256"},{"indexed":false,"internalType":"uint256","name":"totalBorrowing","type":"uint256"}],"name":"Borrowed","type":"event"},{"anonymous":false,"inputs":[{"indexed":true,"internalType":"address","name":"borrower","type":"address"},{"indexed":false,"internalType":"enum DebtTracker.DebtStatus","name":"newStatus","type":"uint8"}],"name":"BorrowerStatusUpdated","type":"event"},{"anonymous":false,"inputs":[{"indexed":true,"internalType":"address","name":"borrower","type":"address"}],"name":"DebtorAdded","type":"event"},{"anonymous":false,"inputs":[{"indexed":true,"internalType":"address","name":"borrower","type":"address"}],"name":"DebtorRemoved","type":"event"},{"anonymous":false,"inputs":[{"indexed":true,"internalType":"address","name":"donor","type":"address"},{"indexed":false,"internalType":"uint256","name":"amount","type":"uint256"},{"indexed":false,"internalType":"uint256","name":"totalDonation","type":"uint256"}],"name":"Donated","type":"event"},{"anonymous":false,"inputs":[{"indexed":true,"internalType":"uint256","name":"requisitionId","type":"uint256"},{"indexed":true,"internalType":"address","name":"lender","type":"address"},{"indexed":false,"internalType":"uint256","name":"amount","type":"uint256"}],"name":"LenderRepaid","type":"event"},{"anonymous":false,"inputs":[{"indexed":true,"internalType":"uint256","name":"requisitionId","type":"uint256"}],"name":"LoanCompleted","type":"event"},{"anonymous":false,"inputs":[{"indexed":true,"internalType":"address","name":"walletAddress","type":"address"},{"indexed":true,"internalType":"uint256","name":"requisitionId","type":"uint256"},{"indexed":false,"internalType":"enum ILoanMachine.ContractStatus","name":"status","type":"uint8"},{"indexed":false,"internalType":"uint32","name":"parcelsPending","type":"uint32"},{"indexed":false,"internalType":"uint256","name":"parcelsValues","type":"uint256"},{"indexed":false,"internalType":"uint256[]","name":"paymentDates","type":"uint256[]"},{"indexed":false,"internalType":"uint256","name":"creationTime","type":"uint256"}],"name":"LoanContractGenerated","type":"event"},{"anonymous":false,"inputs":[{"indexed":true,"internalType":"uint256","name":"requisitionId","type":"uint256"},{"indexed":true,"internalType":"address","name":"lender","type":"address"},{"indexed":false,"internalType":"uint256","name":"coverageAmount","type":"uint256"}],"name":"LoanCovered","type":"event"},{"anonymous":false,"inputs":[{"indexed":true,"internalType":"uint256","name":"requisitionId","type":"uint256"}],"name":"LoanFunded","type":"event"},{"anonymous":false,"inputs":[{"indexed":true,"internalType":"uint256","name":"requisitionId","type":"uint256"},{"indexed":true,"internalType":"address","name":"borrower","type":"address"},{"indexed":false,"internalType":"uint256","name":"amount","type":"uint256"},{"indexed":false,"internalType":"uint32","name":"parcelsCount","type":"uint32"}],"name":"LoanRequisitionCreated","type":"event"},{"anonymous":false,"inputs":[{"indexed":false,"internalType":"uint256","name":"timestamp","type":"uint256"}],"name":"MonthlyUpdateTriggered","type":"event"},{"anonymous":false,"inputs":[{"indexed":true,"internalType":"address","name":"borrower","type":"address"}],"name":"NewBorrower","type":"event"},{"anonymous":false,"inputs":[{"indexed":true,"internalType":"address","name":"donor","type":"address"}],"name":"NewDonor","type":"event"},{"anonymous":false,"inputs":[{"indexed":true,"internalType":"uint256","name":"requisitionId","type":"uint256"},{"indexed":false,"internalType":"uint256","name":"parcelsRemaining","type":"uint256"}],"name":"ParcelPaid","type":"event"},{"anonymous":false,"inputs":[{"indexed":true,"internalType":"address","name":"borrower","type":"address"},{"indexed":false,"internalType":"uint256","name":"amount","type":"uint256"},{"indexed":false,"internalType":"uint256","name":"remainingDebt","type":"uint256"}],"name":"Repaid","type":"event"},{"anonymous":false,"inputs":[{"indexed":false,"internalType":"uint256","name":"total","type":"uint256"}],"name":"TotalBorrowedUpdated","type":"event"},{"anonymous":false,"inputs":[{"indexed":false,"internalType":"uint256","name":"total","type":"uint256"}],"name":"TotalDonationsUpdated","type":"event"},{"anonymous":false,"inputs":[{"indexed":true,"internalType":"address","name":"donor","type":"address"},{"indexed":false,"internalType":"uint256","name":"amount","type":"uint256"},{"indexed":false,"internalType":"uint256","name":"donations","type":"uint256"}],"name":"Withdrawn","type":"event"},{"inputs":[{"internalType":"address[]","name":"borrowers","type":"address[]"}],"name":"batchUpdateDebtStatus","outputs":[],"stateMutability":"nonpayable","type":"function"},{"inputs":[{"internalType":"address","name":"","type":"address"},{"internalType":"uint256","name":"","type":"uint256"}],"name":"borrowerRequisitions","outputs":[{"internalType":"uint256","name":"","type":"uint256"}],"stateMutability":"view","type":"function"},{"inputs":[{"internalType":"uint256","name":"requisitionId","type":"uint256"},{"internalType":"address","name":"borrower","type":"address"}],"name":"canPayRequisition","outputs":[{"internalType":"bool","name":"","type":"bool"}],"stateMutability":"view","type":"function"},{"inputs":[{"internalType":"address","name":"_user","type":"address"},{"internalType":"uint256","name":"_amount","type":"uint256"}],"name":"canUserBorrow","outputs":[{"internalType":"bool","name":"","type":"bool"}],"stateMutability":"view","type":"function"},{"inputs":[{"internalType":"uint256","name":"requisitionId","type":"uint256"},{"internalType":"uint32","name":"coveragePercentage","type":"uint32"},{"internalType":"uint32","name":"memberId","type":"uint32"}],"name":"coverLoan","outputs":[],"stateMutability":"nonpayable","type":"function"},{"inputs":[{"internalType":"uint256","name":"amount","type":"uint256"},{"internalType":"uint32","name":"minimumCoverage","type":"uint32"},{"internalType":"uint32","name":"parcelscount","type":"uint32"},{"internalType":"uint32","name":"memberId","type":"uint32"}],"name":"createLoanRequisition","outputs":[{"internalType":"uint256","name":"","type":"uint256"}],"stateMutability":"nonpayable","type":"function"},{"inputs":[{"internalType":"uint256","name":"amount","type":"uint256"},{"internalType":"uint32","name":"memberId","type":"uint32"}],"name":"donate","outputs":[],"stateMutability":"nonpayable","type":"function"},{"inputs":[{"internalType":"address","name":"borrower","type":"address"}],"name":"getActiveLoans","outputs":[{"components":[{"internalType":"address","name":"walletAddress","type":"address"},{"internalType":"uint256","name":"requisitionId","type":"uint256"},{"internalType":"enum ILoanMachine.ContractStatus","name":"status","type":"uint8"},{"internalType":"uint32","name":"parcelsCount","type":"uint32"},{"internalType":"uint32","name":"parcelsPending","type":"uint32"},{"internalType":"uint256","name":"parcelsValues","type":"uint256"},{"internalType":"uint256[]","name":"paymentDates","type":"uint256[]"},{"internalType":"uint256[]","name":"parcelsAmounts","type":"uint256[]"},{"internalType":"uint256","name":"creationTime","type":"uint256"}],"internalType":"struct ILoanMachine.LoanContract[]","name":"activeLoans","type":"tuple[]"},{"internalType":"uint256[]","name":"requisitionIds","type":"uint256[]"}],"stateMutability":"view","type":"function"},{"inputs":[{"internalType":"address","name":"user","type":"address"}],"name":"getAllowance","outputs":[{"internalType":"uint256","name":"","type":"uint256"}],"stateMutability":"view","type":"function"},{"inputs":[],"name":"getAvailableBalance","outputs":[{"internalType":"uint256","name":"","type":"uint256"}],"stateMutability":"view","type":"function"},{"inputs":[],"name":"getAvailableBorrowAmount","outputs":[{"internalType":"uint256","name":"","type":"uint256"}],"stateMutability":"view","type":"function"},{"inputs":[{"internalType":"address","name":"borrower","type":"address"}],"name":"getBorrowerDebtStatus","outputs":[{"internalType":"enum DebtTracker.DebtStatus","name":"","type":"uint8"}],"stateMutability":"view","type":"function"},{"inputs":[{"internalType":"address","name":"borrower","type":"address"}],"name":"getBorrowerRequisitions","outputs":[{"internalType":"uint256[]","name":"","type":"uint256[]"}],"stateMutability":"view","type":"function"},{"inputs":[],"name":"getBorrowersWithDebt","outputs":[{"internalType":"address[]","name":"","type":"address[]"}],"stateMutability":"view","type":"function"},{"inputs":[],"name":"getBorrowersWithoutDebt","outputs":[{"internalType":"address[]","name":"","type":"address[]"}],"stateMutability":"view","type":"function"},{"inputs":[{"internalType":"address","name":"_user","type":"address"}],"name":"getBorrowing","outputs":[{"internalType":"uint256","name":"","type":"uint256"}],"stateMutability":"view","type":"function"},{"inputs":[],"name":"getContractBalance","outputs":[{"internalType":"uint256","name":"","type":"uint256"}],"stateMutability":"view","type":"function"},{"inputs":[{"internalType":"uint256","name":"requisitionId","type":"uint256"}],"name":"getCoveringLenders","outputs":[{"internalType":"address[]","name":"","type":"address[]"}],"stateMutability":"view","type":"function"},{"inputs":[{"internalType":"address","name":"_user","type":"address"}],"name":"getDonation","outputs":[{"internalType":"uint256","name":"","type":"uint256"}],"stateMutability":"view","type":"function"},{"inputs":[{"internalType":"address","name":"lender","type":"address"}],"name":"getDonationsInCoverage","outputs":[{"internalType":"uint256","name":"","type":"uint256"}],"stateMutability":"view","type":"function"},{"inputs":[{"internalType":"address","name":"_user","type":"address"}],"name":"getLastBorrowTime","outputs":[{"internalType":"uint256","name":"","type":"uint256"}],"stateMutability":"view","type":"function"},{"inputs":[{"internalType":"uint256","name":"requisitionId","type":"uint256"},{"internalType":"address","name":"lender","type":"address"}],"name":"getLenderCoverage","outputs":[{"internalType":"uint256","name":"","type":"uint256"}],"stateMutability":"view","type":"function"},{"inputs":[{"internalType":"uint256","name":"requisitionId","type":"uint256"}],"name":"getLoanContract","outputs":[{"components":[{"internalType":"address","name":"walletAddress","type":"address"},{"internalType":"uint256","name":"requisitionId","type":"uint256"},{"internalType":"enum ILoanMachine.ContractStatus","name":"status","type":"uint8"},{"internalType":"uint32","name":"parcelsCount","type":"uint32"},{"internalType":"uint32","name":"parcelsPending","type":"uint32"},{"internalType":"uint256","name":"parcelsValues","type":"uint256"},{"internalType":"uint256[]","name":"paymentDates","type":"uint256[]"},{"internalType":"uint256[]","name":"parcelsAmounts","type":"uint256[]"},{"internalType":"uint256","name":"creationTime","type":"uint256"}],"internalType":"struct ILoanMachine.LoanContract","name":"","type":"tuple"}],"stateMutability":"view","type":"function"},{"inputs":[{"internalType":"address","name":"wallet","type":"address"}],"name":"getMemberId","outputs":[{"internalType":"uint32","name":"","type":"uint32"}],"stateMutability":"view","type":"function"},{"inputs":[{"internalType":"uint256","name":"requisitionId","type":"uint256"}],"name":"getNextPaymentAmount","outputs":[{"internalType":"uint256","name":"paymentAmount","type":"uint256"},{"internalType":"bool","name":"canPay","type":"bool"}],"stateMutability":"view","type":"function"},{"inputs":[{"internalType":"uint256","name":"requisitionId","type":"uint256"}],"name":"getPaymentDates","outputs":[{"internalType":"uint256[]","name":"","type":"uint256[]"}],"stateMutability":"view","type":"function"},{"inputs":[{"internalType":"uint256","name":"requisitionId","type":"uint256"}],"name":"getRepaymentSummary","outputs":[{"internalType":"uint256","name":"totalRemainingDebt","type":"uint256"},{"internalType":"uint256","name":"nextPaymentAmount","type":"uint256"},{"internalType":"uint256","name":"parcelsRemaining","type":"uint256"},{"internalType":"uint256","name":"totalParcels","type":"uint256"},{"internalType":"bool","name":"isActive","type":"bool"}],"stateMutability":"view","type":"function"},{"inputs":[{"internalType":"uint32","name":"memberId","type":"uint32"}],"name":"getReputation","outputs":[{"internalType":"int32","name":"","type":"int32"}],"stateMutability":"view","type":"function"},{"inputs":[{"internalType":"uint256","name":"requisitionId","type":"uint256"}],"name":"getRequisitionInfo","outputs":[{"components":[{"internalType":"uint256","name":"requisitionId","type":"uint256"},{"internalType":"address","name":"borrower","type":"address"},{"internalType":"uint256","name":"amount","type":"uint256"},{"internalType":"uint32","name":"minimumCoverage","type":"uint32"},{"internalType":"uint32","name":"currentCoverage","type":"uint32"},{"internalType":"enum ILoanMachine.BorrowStatus","name":"status","type":"uint8"},{"internalType":"uint256","name":"creationTime","type":"uint256"},{"internalType":"address[]","name":"coveringLenders","type":"address[]"},{"internalType":"uint32","name":"parcelsCount","type":"uint32"}],"internalType":"struct ILoanMachine.RequisitionInfo","name":"","type":"tuple"}],"stateMutability":"view","type":"function"},{"inputs":[],"name":"getTotalBorrowed","outputs":[{"internalType":"uint256","name":"","type":"uint256"}],"stateMutability":"view","type":"function"},{"inputs":[],"name":"getTotalDonations","outputs":[{"internalType":"uint256","name":"","type":"uint256"}],"stateMutability":"view","type":"function"},{"inputs":[],"name":"getUSDTBalance","outputs":[{"internalType":"uint256","name":"","type":"uint256"}],"stateMutability":"view","type":"function"},{"inputs":[{"internalType":"address","name":"user","type":"address"}],"name":"getWithdrawableBalance","outputs":[{"internalType":"uint256","name":"","type":"uint256"}],"stateMutability":"view","type":"function"},{"inputs":[{"internalType":"address","name":"borrower","type":"address"}],"name":"hasActiveDebt","outputs":[{"internalType":"bool","name":"","type":"bool"}],"stateMutability":"view","type":"function"},{"inputs":[{"internalType":"address","name":"borrower","type":"address"}],"name":"hasOverdueDebt","outputs":[{"internalType":"bool","name":"","type":"bool"}],"stateMutability":"view","type":"function"},{"inputs":[{"internalType":"address","name":"wallet","type":"address"}],"name":"isWalletVinculated","outputs":[{"internalType":"bool","name":"","type":"bool"}],"stateMutability":"view","type":"function"},{"inputs":[{"internalType":"uint256","name":"","type":"uint256"}],"name":"loanContracts","outputs":[{"internalType":"address","name":"walletAddress","type":"address"},{"internalType":"uint256","name":"requisitionId","type":"uint256"},{"internalType":"enum ILoanMachine.ContractStatus","name":"status","type":"uint8"},{"internalType":"uint32","name":"parcelsCount","type":"uint32"},{"internalType":"uint32","name":"parcelsPending","type":"uint32"},{"internalType":"uint256","name":"parcelsValues","type":"uint256"},{"internalType":"uint256","name":"creationTime","type":"uint256"}],"stateMutability":"view","type":"function"},{"inputs":[],"name":"nextMonthlyUpdate","outputs":[{"internalType":"uint256","name":"","type":"uint256"}],"stateMutability":"view","type":"function"},{"inputs":[{"internalType":"uint256","name":"requisitionId","type":"uint256"},{"internalType":"uint256","name":"amount","type":"uint256"},{"internalType":"uint32","name":"memberId","type":"uint32"}],"name":"repay","outputs":[],"stateMutability":"nonpayable","type":"function"},{"inputs":[],"name":"reputationSystem","outputs":[{"internalType":"contract ReputationSystem","name":"","type":"address"}],"stateMutability":"view","type":"function"},{"inputs":[],"name":"requisitionCounter","outputs":[{"internalType":"uint256","name":"","type":"uint256"}],"stateMutability":"view","type":"function"},{"inputs":[],"name":"shouldTriggerUpdate","outputs":[{"internalType":"bool","name":"","type":"bool"}],"stateMutability":"view","type":"function"},{"inputs":[],"name":"triggerMonthlyUpdate","outputs":[],"stateMutability":"nonpayable","type":"function"},{"inputs":[{"internalType":"address","name":"borrower","type":"address"}],"name":"updateBorrowerDebtStatus","outputs":[],"stateMutability":"nonpayable","type":"function"},{"inputs":[],"name":"usdtToken","outputs":[{"internalType":"address","name":"","type":"address"}],"stateMutability":"view","type":"function"},{"inputs":[{"internalType":"uint32","name":"memberId","type":"uint32"},{"internalType":"address","name":"wallet","type":"address"}],"name":"vinculationMemberToWallet","outputs":[],"stateMutability":"nonpayable","type":"function"},{"inputs":[{"internalType":"uint256","name":"amount","type":"uint256"},{"internalType":"uint32","name":"memberId","type":"uint32"}],"name":"withdraw","outputs":[],"stateMutability":"nonpayable","type":"function"}],"evm":{"bytecode":{"linkReferences":{"contracts/libraries/DebtTracker.sol":{"DebtTracker":[{"length":20,"start":846},{"length":20,"start":1028},{"length":20,"start":2261},{"length":20,"start":3999},{"length":20,"start":4578},{"length":20,"start":4970},{"length":20,"start":5355},{"length":20,"start":5996},{"length":20,"start":7611},{"length":20,"start":8005},{"length":20,"start":8322},{"length":20,"start":9209},{"length":20,"start":10753},{"length":20,"start":11565}]}},"object":"60a034620000cf57601f6200356338819003918201601f19168301916001600160401b03831184841017620000d4578084926040948552833981010312620000cf576200005a60206200005283620000ea565b9201620000ea565b6001600081905560809290925281546001600160a01b0319166001600160a01b0390911617905562278d0060085542600755604051613463908162000100823960805181818161086601528181610dd801528181610ef1015281816113770152818161178b015281816120150152612e7b0152f35b600080fd5b634e487b7160e01b600052604160045260246000fd5b51906001600160a01b0382168203620000cf5756fe6080604052600436101561001257600080fd5b60003560e01c8063016c704f14612bcf5780630307c4a114612bb157806303d1a1a11461293c5780630bc21853146128d45780631766ec87146126695780631b70ba3e146124df57806321bb31e41461246d578063232869fa146123e6578063291c31a714611dda5780632b31c022146123295780633403c25d146122b4578063383ab2ef1461226b578063410a1d32146122315780634e51c7df146121e6578063598a562a146121845780636145d1b714611f225780636509a71014611ef6578063657eb03114611ebc5780636587eda114611e935780636f9fb98a1461155f578063777c658f14611e755780637910340014611e185780637d52437a14611ddf578063809dab6a14611dda57806381db228414611d54578063827cc0e514611d1a578063830efd3b14611c8e578063843592d314611c6357806384ddf5ea14611c455780638a914a6314611c025780639059f9ca146115c75780639730872a146115645780639785fac81461155f57806397c33519146114905780639e93201114611438578063a7af6947146113a6578063a98ad46c14611361578063adceb101146112df578063b9f0fec41461124f578063be5eb58014611215578063c269014b14611176578063ccdce44e146110a7578063e276392414610e3f578063eb5a662e14610d91578063ecb18b3414610370578063f0853e1d146102bf5763f947a8a91461022157600080fd5b346102a65760003660031901126102a657604051636ecf807360e11b81526002600482015260208160248173__$8a3883123a2a1b05b37447bdbb3fdcf5d3$__5af480156102b35760009061027c575b602090604051908152f35b506020813d82116102ab575b8161029560209383612f4e565b810103126102a65760209051610271565b600080fd5b3d9150610288565b6040513d6000823e3d90fd5b346102a6576020806003193601126102a6576102d9612cc1565b6040516315ffae5b60e21b8152600260048201526001600160a01b039091166024820152818160448173__$8a3883123a2a1b05b37447bdbb3fdcf5d3$__5af49081156102b35760009161033a575b506040519061033681612ced565b8152f35b90508181813d8311610369575b6103518183612f4e565b810103126102a6575160038110156102a65782610328565b503d610347565b346102a65760603660031901126102a657610389612df7565b63ffffffff610396612e0a565b169081158015610d30575b610d1e5763ffffffff8116158015610d0e575b610cfc57600963ffffffff82161115610cea576103cf61301a565b600435600052601160205260406000209160038301805460ff8160401c166006811015610cd4578015159081610cc8575b50610cb65761041d60649163ffffffff8087169160201c166130d4565b11610ca45761043663ffffffff8416600286015461313a565b93670de0b6b3a764000094858102958187041490151715610a385768056bc75e2d630fffff8501809511610a385733600052600b60205268056bc75e2d63100000850460406000205410610c925733600052600b60205260406000206104a868056bc75e2d631000008704825461300d565b905533600052601460205260406000206104ce68056bc75e2d63100000870482546130d4565b9055815463ffffffff851663ffffffff8260201c160163ffffffff8111610a385767ffffffff000000009060201b169067ffffffff0000000019161782556007810190336000528160205260406000205415610c50575b5033600052602052604060002061054868056bc75e2d63100000860482546130d4565b9055805463ffffffff811663ffffffff8260201c161015600014610c3757506802000000000000000060ff60401b19825416179055806000526015602052604060002063ffffffff19815416905560043560005260176020526040600020601160205260406000209060018060a01b036001830154166bffffffffffffffffffffffff60a01b825416178155600435600182015563ffffffff6002808301549360ff19851682850155600881019464ffffffff00865460081b169064ffffffffff1916178285015561063e838654168386019068ffffffff000000000082549160281b169068ffffffff00000000001916179055565b426006850155015492541691610654838261314d565b8315610c21576106638461316f565b9160005b858110610be3575050600383015560005b8363ffffffff821610610b94575060018060a01b03825416600052601660205260043560406000205560018060a01b038254166002830154907f55939e2a4adb2163c21eb3bb2c850e8e82136aed8a9e5971f705f1188d05865e60ff8316600386015463ffffffff600688015495604051936106f381612ced565b845260281c166020830152604082015260a0606082015261071a60a08201600488016131b5565b93608082015280600435940390a360005b838110610b6f57505050506004356000526011602052604060002060018060a01b036001820154169081600052600a60205260ff6040600020541615610ad5575b600360028201918254600c60205261078a60406000209182546130d4565b90556107998354600f546130d4565b600f556107a9835460105461300d565b60105583600052600d60205242604060002055016803000000000000000060ff60401b1982541617905573__$8a3883123a2a1b05b37447bdbb3fdcf5d3$__803b156102a65760006064916040519283809263e63dd53160e01b8252600260048301528760248301526303d1a1a13060201b1760401b60448301525af480156102b357610ac6575b50805460405163a9059cbb60e01b81526001600160a01b038416600482015260248101919091526020818060448101038160007f00000000000000000000000000000000000000000000000000000000000000006001600160a01b03165af19081156102b357600091610a97575b5015610a855760407feae9cfbc77fdd40ca899f36b608256063b2bc9d8178b0220f7ad513e178d6730915483600052600c602052816000205482519182526020820152a27f17f13fd3f7c4712af33f1770ebcb822dd20a2dbc00850eab48d786623d97b9596020600f54604051908152a160008051602061340e8339815191526020601054604051908152a16004357f9e71d2fb732e68272b7e74ecfd14638673c1d77e19a5d390a3ffff054d57c44b600080a25b600154604051636adf462560e11b81526001600160a01b0390911692602082600481875afa9182156102b357600092610a4e575b5063ffffffff1660030b9060030b028060030b908103610a3857823b156102a657606460009283600a95604051968795869463533dfa3560e01b865260048601520560030b6024840152600160448401525af180156102b357610a29575b5068056bc75e2d631000006040519104815233907f86b47e6e6c03d769c0bc5ffd06c682ea7d07089576d59230ec18ff64e71bffe7602060043592a36001600055005b610a3290612f1d565b816109e6565b634e487b7160e01b600052601160045260246000fd5b63ffffffff919250610a779060203d602011610a7e575b610a6f8183612f4e565b8101906130ab565b9190610988565b503d610a65565b60405163022e258160e11b8152600490fd5b610ab9915060203d602011610abf575b610ab18183612f4e565b810190612f70565b8661089f565b503d610aa7565b610acf90612f1d565b85610831565b600954600160401b811015610b59576001810180600955811015610b43577f6e1540171b6c0c960b71a7020d9f60077f6af931a8bbf590da0223dacf75c7af0180546001600160a01b031916831790556000828152600a60205260409020805460ff1916600117905561076c565b634e487b7160e01b600052603260045260246000fd5b634e487b7160e01b600052604160045260246000fd5b80610b8a610b80610b8f93856131a1565b51600586016130f0565b6130e1565b61072b565b63ffffffff610ba282613125565b169062278d009180830292830403610a3857610bcf610bc663ffffffff93426130d4565b600486016130f0565b1663ffffffff8114610a3857600101610678565b858206811015610c12576001830190818411610a3857610c0d91610c0782876131a1565b526130e1565b610667565b8083610c07610c0d93876131a1565b634e487b7160e01b600052601260045260246000fd5b68ff00000000000000001916600160401b179055610954565b6006018054600160401b811015610b5957610c7091600182018155612f05565b81546001600160a01b0360039290921b91821b19163390911b17905585610525565b604051630391acf160e61b8152600490fd5b60405163955f95ad60e01b8152600490fd5b6040516380b9cb0960e01b8152600490fd5b60019150141586610400565b634e487b7160e01b600052602160045260246000fd5b60405163f556155f60e01b8152600490fd5b60405163d1e95ed560e01b8152600490fd5b50606463ffffffff8216116103b4565b604051630cff23e760e01b8152600490fd5b50600154604051632cc52b1560e11b815233600482015290602090829060249082906001600160a01b03165afa9081156102b357600091610d73575b50156103a1565b610d8b915060203d8111610abf57610ab18183612f4e565b83610d6c565b346102a6576020806003193601126102a657604481610dae612cc1565b604051636eb1769f60e11b81526001600160a01b03918216600482015230602482015292839182907f0000000000000000000000000000000000000000000000000000000000000000165afa9081156102b357600091610e12575b50604051908152f35b90508181813d8311610e38575b610e298183612f4e565b810103126102a6575182610e09565b503d610e1f565b346102a65760403660031901126102a65760043563ffffffff610e60612df7565b16158015611046575b610d1e57801561103457610e7b61301a565b604051630c47ab3d60e21b8152602090818180610e9b3060048301612f88565b038173__$8a3883123a2a1b05b37447bdbb3fdcf5d3$__5af480156102b357611017575b506040516323b872dd60e01b815233600482015230602482015260448101839052818160648160006001600160a01b037f0000000000000000000000000000000000000000000000000000000000000000165af19081156102b357600091610ffa575b5015610a855760008051602061340e8339815191529033600052600b815260406000207fdc6e73d4b36e22ab95945bd8833a5af96c950eb29d8d75c4aecffc987637aaab82825495808701845580600e54019081600e558060105401948560105554604051918252838201527f4928895ba6723e8e27b15f32e4c3054a1b6c7f8c03f133558d6fa42b3928d14c60403392a2604051908152a1604051908152a115610fcf575b6001600055005b337f072dafb6aabe3f02118bc607efbeaaa104d6b2009720c7b130f24ba418689c4b600080a2610fc8565b6110119150823d8411610abf57610ab18183612f4e565b83610f22565b61102d90823d8411610abf57610ab18183612f4e565b5082610ebf565b60405163162908e360e11b8152600490fd5b50600154604051632cc52b1560e11b815233600482015290602090829060249082906001600160a01b03165afa9081156102b357600091611089575b5015610e69565b6110a1915060203d8111610abf57610ab18183612f4e565b82611082565b346102a65760003660031901126102a6576110c061301a565b604051630c47ab3d60e21b8152602081806110de3060048301612f88565b038173__$8a3883123a2a1b05b37447bdbb3fdcf5d3$__5af49081156102b357600091611158575b5015611113576001600055005b60405162461bcd60e51b815260206004820152601a60248201527f4d6f6e74686c7920757064617465206e6f7420647565207965740000000000006044820152606490fd5b611170915060203d8111610abf57610ab18183612f4e565b81611106565b346102a6576020806003193601126102a657611190612cc1565b60015460405163c269014b60e01b81526001600160a01b03928316600482015291839183916024918391165afa9081156102b3576000916111db575b5063ffffffff60405191168152f35b90508181813d831161120e575b6111f28183612f4e565b810103126102a6575163ffffffff811681036102a657826111cc565b503d6111e8565b346102a65760203660031901126102a6576001600160a01b03611236612cc1565b16600052600c6020526020604060002054604051908152f35b346102a65760203660031901126102a657611268612cc1565b73__$8a3883123a2a1b05b37447bdbb3fdcf5d3$__90813b156102a6576040805163e63dd53160e01b8152600260048201526001600160a01b0390921660248301523060201b6303d1a1a117901b604482015290600090829060649082905af480156102b3576112d457005b6112dd90612f1d565b005b346102a65760403660031901126102a65760206112fa612cd7565b6004356000526017825260406000209060018060a01b03808354169116149081611347575b81611330575b506040519015158152f35b63ffffffff91506002015460281c16151582611325565b905060ff60028201541661135a81612ced565b159061131f565b346102a65760003660031901126102a6576040517f00000000000000000000000000000000000000000000000000000000000000006001600160a01b03168152602090f35b346102a65760203660031901126102a6576113bf612cc1565b604051632de5e9bf60e01b8152600260048201526001600160a01b03909116602482015260208160448173__$8a3883123a2a1b05b37447bdbb3fdcf5d3$__5af480156102b35760209160009161141b57506040519015158152f35b6114329150823d8111610abf57610ab18183612f4e565b82611325565b346102a65760403660031901126102a657611451612cc1565b6001600160a01b03166000908152601360205260409020805460243591908210156102a65760209161148291612f05565b90546040519160031b1c8152f35b346102a65760403660031901126102a6576114a9612cc1565b6024358015159081611552575b508061151b575b806114d0575b6020906040519015158152f35b506001600160a01b03166000818152600d60205260409020546114f2906130c4565b42118015611504575b602091506114c3565b50600052600c6020526020604060002054156114fb565b506001600160a01b0381166000908152600b6020526040902054620f42401115806114bd5750600c602052604060002054156114bd565b90506010541015826114b6565b612e4e565b346102a65760203660031901126102a6576001600160a01b03611585612cc1565b1660005260136020526115c36115a86115af6040600020604051928380926131b5565b0382612f4e565b604051918291602083526020830190612cf7565b0390f35b346102a65760603660031901126102a657602480359063ffffffff600435816115ee612e0a565b169283158015611ba2575b610d1e57816000526020906017825260406000209533600052600c835260406000205415611b905786546001600160a01b0397903390891603611b90576002015460ff811661164781612ced565b611b905760281c851615611b905761165d61301a565b604051630c47ab3d60e21b815273__$8a3883123a2a1b05b37447bdbb3fdcf5d3$__908481806116903060048301612f88565b0381855af480156102b357611b73575b5081156110345784600052601784526040600020906002820197885488808260281c169160081c1603888111611a77576116dd9060048501612f05565b905460039491851b1c421115611ad5578a600154169160405163a5118bf160e01b81528881600481875afa9081156102b357600091611ab8575b50833b156102a657606460009283604051968794859363533dfa3560e01b855260048501528a0b8c8401528160448401525af19182156102b3578492611aa9575b505b01548303611034576040516323b872dd60e01b815233600482015230602482015260448101849052858160648160007f00000000000000000000000000000000000000000000000000000000000000008f165af19081156102b357600091611a8c575b5015610a855796959633600052600c855260406000206117de84825461300d565b90556117ec83600f5461300d565b600f556117fb836010546130d4565b60105585600052601185526040600020906002820154946000986007600685019401995b84548110156118ea57808d61183761186e9388612f05565b905490891b1c16806000528c8b528b61185e8b6118596040600020548d61313a565b61314d565b8c81611873575b505050506130e1565b61181f565b7fe3e6ae1e05f069d410556743894aacbb190c1431962422ebe8fcc642a467dd16918460005260148252604060002080548083116118e2575b826118b69161300d565b905584600052600b825260406000206118d08282546130d4565b9055604051908152a38e8b818c611865565b9150816118ac565b508888918c8833600052600c8552604060002054604051918252858201527f1b8cd61ed43bec7c6bdad3a18ffee613f99c853d16c50678d248d879e1b4343860403392a280825460281c16837f406356ef25520b09e2ef87c5225167b4161ea4ab691e9434d6ee29eafcc83fc286604051848152a27f17f13fd3f7c4712af33f1770ebcb822dd20a2dbc00850eab48d786623d97b95985600f54604051908152a160008051602061340e83398151915285601054604051908152a160001901818111611a7757825468ffffffff0000000000191660289190911b68ffffffff0000000000161782558154908160281c1615611a41575b505050823b156102a65760646000926303d1a1a194604051958694859363e63dd53160e01b855260026004860152339085015230901b1760401b60448301525af480156102b357611a32576001600055005b611a3b90612f1d565b80610fc8565b60ff191660021790557f02ca5489b37dd363d1302bac719e8ee40e540ffbe8c12253570fea63e11cad71600080a28380806119e0565b85634e487b7160e01b60005260116004526000fd5b611aa39150863d8811610abf57610ab18183612f4e565b8a6117bd565b611ab290612f1d565b8b611758565b611acf9150893d8b11610a7e57610a6f8183612f4e565b8d611717565b8a6001541691604051634e5ecf1360e01b81528881600481875afa9081156102b357600091611b56575b50833b156102a657606460009283604051968794859363533dfa3560e01b855260048501528a0b8c840152600160448401525af19182156102b3578492611b47575b5061175a565b611b5090612f1d565b8b611b41565b611b6d9150893d8b11610a7e57610a6f8183612f4e565b8d611aff565b611b8990853d8711610abf57610ab18183612f4e565b50886116a0565b604051630b5ab5bf60e41b8152600490fd5b50600154604051632cc52b1560e11b8152336004820152906020908290849082906001600160a01b03165afa9081156102b357600091611be4575b50156115f9565b611bfc915060203d8111610abf57610ab18183612f4e565b86611bdd565b346102a65760203660031901126102a65760043560005260116020526115c3611c3160066040600020016133b3565b604051918291602083526020830190612dba565b346102a65760003660031901126102a6576020601254604051908152f35b346102a65760203660031901126102a6576020611c86611c81612cc1565b613070565b604051908152f35b346102a65760003660031901126102a65760405163404b48bf60e01b81526002600482015260008160248173__$8a3883123a2a1b05b37447bdbb3fdcf5d3$__5af480156102b3576115c391600091611cf7575b50604051918291602083526020830190612dba565b611d1491503d806000833e611d0c8183612f4e565b8101906131f2565b82611ce2565b346102a65760203660031901126102a6576001600160a01b03611d3b612cc1565b1660005260146020526020604060002054604051908152f35b346102a65760203660031901126102a657611d6d612e1d565b600154604051632076c8a160e21b815263ffffffff929092166004830152602090829060249082906001600160a01b03165afa80156102b357602091600091611dbd575b506040519060030b8152f35b611dd49150823d8111610a7e57610a6f8183612f4e565b82611db1565b612e30565b346102a65760203660031901126102a65760043560005260176020526115c36115a86115af6004604060002001604051928380926131b5565b346102a65760003660031901126102a65760405163f28e2c2f60e01b81526002600482015260208160248173__$8a3883123a2a1b05b37447bdbb3fdcf5d3$__5af480156102b35760209160009161141b57506040519015158152f35b346102a65760003660031901126102a6576020600e54604051908152f35b346102a65760003660031901126102a6576001546040516001600160a01b039091168152602090f35b346102a65760203660031901126102a6576001600160a01b03611edd612cc1565b16600052600d6020526020604060002054604051908152f35b346102a65760203660031901126102a6576040611f14600435613361565b825191825215156020820152f35b346102a65760403660031901126102a65760043563ffffffff611f43612df7565b16158015612123575b610d1e57801561103457611f5e61301a565b604051630c47ab3d60e21b8152602090818180611f7e3060048301612f88565b038173__$8a3883123a2a1b05b37447bdbb3fdcf5d3$__5af480156102b357612106575b50611fac33613070565b82116120f45733600052600b81526040600020611fca83825461300d565b9055611fd882600e5461300d565b600e55611fe78260105461300d565b60105560405163a9059cbb60e01b815233600482015260248101839052818160448160006001600160a01b037f0000000000000000000000000000000000000000000000000000000000000000165af19081156102b3576000916120d7575b5015610a855760008051602061340e8339815191529133600052600b8252604060002054604051918252828201527f92ccf450a286a957af52509bc1c9939d1a6a481783e142e41e2499f0bb66ebc660403392a27fdc6e73d4b36e22ab95945bd8833a5af96c950eb29d8d75c4aecffc987637aaab81600e54604051908152a1601054604051908152a16001600055005b6120ee9150823d8411610abf57610ab18183612f4e565b83612046565b6040516302c6f54760e21b8152600490fd5b61211c90823d8411610abf57610ab18183612f4e565b5082611fa2565b50600154604051632cc52b1560e11b815233600482015290602090829060249082906001600160a01b03165afa9081156102b357600091612166575b5015611f4c565b61217e915060203d8111610abf57610ab18183612f4e565b8261215f565b346102a65760203660031901126102a65761219d612cc1565b600154604051632cc52b1560e11b81526001600160a01b0392831660048201529160209183916024918391165afa80156102b35760209160009161141b57506040519015158152f35b346102a65760403660031901126102a6576121ff612cd7565b600435600052601160205260076040600020019060018060a01b03166000526020526020604060002054604051908152f35b346102a65760203660031901126102a6576001600160a01b03612252612cc1565b16600052600b6020526020604060002054604051908152f35b346102a65760203660031901126102a65761228461327c565b5060043560005260176020526115c36122a060406000206132c3565b604051918291602083526020830190612d2b565b346102a65760203660031901126102a6576122cd612cc1565b604051630b79b0a160e21b8152600260048201526001600160a01b03909116602482015260208160448173__$8a3883123a2a1b05b37447bdbb3fdcf5d3$__5af480156102b35760209160009161141b57506040519015158152f35b346102a65760203660031901126102a657600435600052601760205260a06040600020601160205260406000209060028101549160ff831661236a81612ced565b15806123d4575b156123bc57600363ffffffff809460281c16920154926008612393858561313a565b949392015416906001925b60405194855260208501526040840152606083015215156080820152f35b600801546000925082915063ffffffff16818061239e565b5063ffffffff8360281c161515612371565b346102a65760203660031901126102a657600435600052601760205260e0604060002060018060a01b0381541690600181015490600281015460ff81166006600384015493015493604051958652602086015261244281612ced565b604085015263ffffffff90818160081c16606086015260281c16608084015260a083015260c0820152f35b346102a65760403660031901126102a657612486612e1d565b61248e612cd7565b6001549091906001600160a01b03908116803b156102a6576000928360449263ffffffff94604051978896879563086ecc7960e21b87521660048601521660248401525af180156102b3576112d457005b346102a65760203660031901126102a657600061010060405161250181612f31565b8281528260208201528260408201528260608201528260808201528260a08201528260c0820152606060e082015201526004356000526011602052604060002080549060018060a01b036001820154169060028101549060038101549063ffffffff60ff8360401c16926005830154948260088501541696604051986125868a612f31565b895260208901526040880152818116606088015260201c1660808601526006821015610cd4576125c39260069260a087015260c0860152016133b3565b60e083015261010082015260405190602082528051602083015260018060a01b0360208201511660408301526040810151606083015263ffffffff606082015116608083015263ffffffff60808201511660a083015260a0810151906006821015610cd457829160c083015260c081015160e083015260e081015163ffffffff61010061265d610120938483880152610140870190612dba565b93015116908301520390f35b346102a65760803660031901126102a657600435612685612df7565b9061268e612e0a565b906064359163ffffffff908184168094036102a65783600052602094601586526003836040600020541610156128c25784158015612863575b610d1e5783156110345782169060468211801590612859575b610cfc5782169160018310801561284f575b61283d57601054841161282b573360005260168652604060002054806127f5575b5060125494612721866130e1565b601255856000526011875260406000209260018401336bffffffffffffffffffffffff60a01b825416179055856002850155600384019068ffffffffffffffffff1982541617905542600584015585600884019363ffffffff1994868682541617905555336000526013875261279b8660406000206130f0565b600052601586526040600020918254916127b6818416613125565b16911617905560405191825283820152817fde3b47cf7da95a3cc41b86cf8717ead8d56a76ee1590481c5c4dc4d8804c40c460403393a3604051908152f35b6000526017865261280d6006604060002001546130c4565b42106128195786612713565b60405163c6061c8560e01b8152600490fd5b60405163356680b760e01b8152600490fd5b60405163524eff2760e01b8152600490fd5b50600c83116126f2565b50606482116126e0565b50600154604051632cc52b1560e11b8152336004820152908790829060249082906001600160a01b03165afa9081156102b3576000916128a5575b50156126c7565b6128bc9150873d8911610abf57610ab18183612f4e565b8761289e565b604051635aad290f60e01b8152600490fd5b346102a65760003660031901126102a657604051637fd5e70b60e01b81526002600482015260008160248173__$8a3883123a2a1b05b37447bdbb3fdcf5d3$__5af480156102b3576115c391600091611cf75750604051918291602083526020830190612dba565b346102a6576020806003193601126102a6576001600160a01b039081612960612cc1565b1691826000526013825260406000206000936000918054925b838110612b21575061298a86613157565b956129986040519788612f4e565b808752601f196129a782613157565b0160005b818110612b065750506129bd9061316f565b9360009260005b858110612a4457888888604051928391604083019360408452825180955260608401948160608260051b8701019401956000905b828210612a1457505050836115c3949550830390850152612cf7565b9193955091938480612a32600193605f198c82030186528a51612d2b565b980192019201879593919694926129f8565b612a5181859a999a612f05565b9054600391821b1c60005260178a52604060002083858254161480612aee575b80612ad8575b612a8f575b5050612a87906130e1565b9796976129c4565b95612ad091612aa1612a8794986132c3565b612aab838d6131a1565b52612ab6828c6131a1565b50612ac18888612f05565b9054911b1c610c07828b6131a1565b94908a612a7c565b5063ffffffff600282015460281c161515612a77565b5060ff600282015416612b0081612ced565b15612a71565b96809897612b1261327c565b82828b010152019796976129ab565b612b2e8183989798612f05565b90549060031b1c6000526017875260406000208386825416149081612b97575b81612b80575b50612b6b575b612b63906130e1565b959495612979565b94612b78612b63916130e1565b959050612b5a565b63ffffffff91506002015460281c16151588612b54565b905060ff600282015416612baa81612ced565b1590612b4e565b346102a65760003660031901126102a6576020600f54604051908152f35b346102a65760203660031901126102a65767ffffffffffffffff6004358181116102a657366023820112156102a65780600401359182116102a6576024600591368285851b830101116102a6573060201b6303d1a1a11760401b939273__$8a3883123a2a1b05b37447bdbb3fdcf5d3$__9160005b858110612c4d57005b80831b82018501356001600160a01b03811691908290036102a657843b156102a6576040519163e63dd53160e01b83526002600484015286830152876044830152600082606481885af49182156102b357612cad92612cb2575b506130e1565b612c44565b612cbb90612f1d565b88612ca7565b600435906001600160a01b03821682036102a657565b602435906001600160a01b03821682036102a657565b60031115610cd457565b90815180825260208080930193019160005b828110612d17575050505090565b835185529381019392810192600101612d09565b80516001600160a01b03168252602080820151908301526040810151909190612d5381612ced565b604082015263ffffffff806060840151166060830152608083015116608082015260a082015160a0820152612dac612d9a60c08401516101208060c0860152840190612cf7565b60e084015183820360e0850152612cf7565b916101008091015191015290565b90815180825260208080930193019160005b828110612dda575050505090565b83516001600160a01b031685529381019392810192600101612dcc565b6024359063ffffffff821682036102a657565b6044359063ffffffff821682036102a657565b6004359063ffffffff821682036102a657565b346102a65760003660031901126102a6576020601054604051908152f35b346102a657600080600319360112612f02576040516370a0823160e01b81523060048201526020816024817f00000000000000000000000000000000000000000000000000000000000000006001600160a01b03165afa908115612ef7578291612ebe575b602082604051908152f35b90506020813d8211612eef575b81612ed860209383612f4e565b81010312612eeb57602091505138612eb3565b5080fd5b3d9150612ecb565b6040513d84823e3d90fd5b80fd5b8054821015610b435760005260206000200190600090565b67ffffffffffffffff8111610b5957604052565b610120810190811067ffffffffffffffff821117610b5957604052565b90601f8019910116810190811067ffffffffffffffff821117610b5957604052565b908160209103126102a6575180151581036102a65790565b919091606081019260028252602093606085840152600954809152608083019060096000527f6e1540171b6c0c960b71a7020d9f60077f6af931a8bbf590da0223dacf75c7af9060005b87828210612ff05750505050931b6303d1a1a117604090811b910152565b83546001600160a01b031685529093019260019283019201612fd2565b91908203918211610a3857565b60026000541461302b576002600055565b60405162461bcd60e51b815260206004820152601f60248201527f5265656e7472616e637947756172643a207265656e7472616e742063616c6c006044820152606490fd5b60018060a01b0316600052600b602052604060002054601460205260406000205480821161309f575050600090565b6130a89161300d565b90565b908160209103126102a657518060030b81036102a65790565b9062278d008201809211610a3857565b91908201809211610a3857565b6000198114610a385760010190565b8054600160401b811015610b595761310d91600182018155612f05565b819291549060031b91821b91600019901b1916179055565b90600163ffffffff80931601918211610a3857565b81810292918115918404141715610a3857565b8115610c21570490565b67ffffffffffffffff8111610b595760051b60200190565b9061317982613157565b6131866040519182612f4e565b8281528092613197601f1991613157565b0190602036910137565b8051821015610b435760209160051b010190565b90815480825260208092019260005281600020916000905b8282106131db575050505090565b8354855293840193600193840193909101906131cd565b60209081818403126102a65780519067ffffffffffffffff82116102a657019180601f840112156102a657825161322881613157565b936132366040519586612f4e565b818552838086019260051b8201019283116102a6578301905b82821061325d575050505090565b81516001600160a01b03811681036102a657815290830190830161324f565b6040519061328982612f31565b816101006000918281528260208201528260408201528260608201528260808201528260a0820152606060c0820152606060e08201520152565b906040516132d081612f31565b6101006006829460018060a01b03815416845260018101546020850152600281015460ff81166132ff81612ced565b604086015263ffffffff90818160081c16606087015260281c166080850152600381015460a085015260405161333c816115a881600486016131b5565b60c0850152604051613355816115a881600586016131b5565b60e08501520154910152565b60005260176020526040600020600281015460ff811661338081612ced565b1590816133a0575b506133965750600090600090565b6003015490600190565b63ffffffff915060281c16151538613388565b9060405191828154918282526020928383019160005283600020936000905b8282106133ea575050506133e892500383612f4e565b565b85546001600160a01b0316845260019586019588955093810193909101906133d256fe8b094cca6f83d49402ce208cc0c224b76625ffc58636df56ae28024e704c5868a26469706673582212201570de022f1adb4aa0062924850ce1eaf5fd07026bced57fb0e1a1eaea22204264736f6c63430008130033","opcodes":"PUSH1 0xA0 CALLVALUE PUSH3 0xCF JUMPI PUSH1 0x1F PUSH3 0x3563 CODESIZE DUP2 SWAP1 SUB SWAP2 DUP3 ADD PUSH1 0x1F NOT AND DUP4 ADD SWAP2 PUSH1 0x1 PUSH1 0x1 PUSH1 0x40 SHL SUB DUP4 GT DUP5 DUP5 LT OR PUSH3 0xD4 JUMPI DUP1 DUP5 SWAP3 PUSH1 0x40 SWAP5 DUP6 MSTORE DUP4 CODECOPY DUP2 ADD SUB SLT PUSH3 0xCF JUMPI PUSH3 0x5A PUSH1 0x20 PUSH3 0x52 DUP4 PUSH3 0xEA JUMP JUMPDEST SWAP3 ADD PUSH3 0xEA JUMP JUMPDEST PUSH1 0x1 PUSH1 0x0 DUP2 SWAP1 SSTORE PUSH1 0x80 SWAP3 SWAP1 SWAP3 MSTORE DUP2 SLOAD PUSH1 0x1 PUSH1 0x1 PUSH1 0xA0 SHL SUB NOT AND PUSH1 0x1 PUSH1 0x1 PUSH1 0xA0 SHL SUB SWAP1 SWAP2 AND OR SWAP1 SSTORE PUSH3 0x278D00 PUSH1 0x8 SSTORE TIMESTAMP PUSH1 0x7 SSTORE PUSH1 0x40 MLOAD PUSH2 0x3463 SWAP1 DUP2 PUSH3 0x100 DUP3 CODECOPY PUSH1 0x80 MLOAD DUP2 DUP2 DUP2 PUSH2 0x866 ADD MSTORE DUP2 DUP2 PUSH2 0xDD8 ADD MSTORE DUP2 DUP2 PUSH2 0xEF1 ADD MSTORE DUP2 DUP2 PUSH2 0x1377 ADD MSTORE DUP2 DUP2 PUSH2 0x178B ADD MSTORE DUP2 DUP2 PUSH2 0x2015 ADD MSTORE PUSH2 0x2E7B ADD MSTORE RETURN JUMPDEST PUSH1 0x0 DUP1 REVERT JUMPDEST PUSH4 0x4E487B71 PUSH1 0xE0 SHL PUSH1 0x0 MSTORE PUSH1 0x41 PUSH1 0x4 MSTORE PUSH1 0x24 PUSH1 0x0 REVERT JUMPDEST MLOAD SWAP1 PUSH1 0x1 PUSH1 0x1 PUSH1 0xA0 SHL SUB DUP3 AND DUP3 SUB PUSH3 0xCF JUMPI JUMP INVALID PUSH1 0x80 PUSH1 0x40 MSTORE PUSH1 0x4 CALLDATASIZE LT ISZERO PUSH2 0x12 JUMPI PUSH1 0x0 DUP1 REVERT JUMPDEST PUSH1 0x0 CALLDATALOAD PUSH1 0xE0 SHR DUP1 PUSH4 0x16C704F EQ PUSH2 0x2BCF JUMPI DUP1 PUSH4 0x307C4A1 EQ PUSH2 0x2BB1 JUMPI DUP1 PUSH4 0x3D1A1A1 EQ PUSH2 0x293C JUMPI DUP1 PUSH4 0xBC21853 EQ PUSH2 0x28D4 JUMPI DUP1 PUSH4 0x1766EC87 EQ PUSH2 0x2669 JUMPI DUP1 PUSH4 0x1B70BA3E EQ PUSH2 0x24DF JUMPI DUP1 PUSH4 0x21BB31E4 EQ PUSH2 0x246D JUMPI DUP1 PUSH4 0x232869FA EQ PUSH2 0x23E6 JUMPI DUP1 PUSH4 0x291C31A7 EQ PUSH2 0x1DDA JUMPI DUP1 PUSH4 0x2B31C022 EQ PUSH2 0x2329 JUMPI DUP1 PUSH4 0x3403C25D EQ PUSH2 0x22B4 JUMPI DUP1 PUSH4 0x383AB2EF EQ PUSH2 0x226B JUMPI DUP1 PUSH4 0x410A1D32 EQ PUSH2 0x2231 JUMPI DUP1 PUSH4 0x4E51C7DF EQ PUSH2 0x21E6 JUMPI DUP1 PUSH4 0x598A562A EQ PUSH2 0x2184 JUMPI DUP1 PUSH4 0x6145D1B7 EQ PUSH2 0x1F22 JUMPI DUP1 PUSH4 0x6509A710 EQ PUSH2 0x1EF6 JUMPI DUP1 PUSH4 0x657EB031 EQ PUSH2 0x1EBC JUMPI DUP1 PUSH4 0x6587EDA1 EQ PUSH2 0x1E93 JUMPI DUP1 PUSH4 0x6F9FB98A EQ PUSH2 0x155F JUMPI DUP1 PUSH4 0x777C658F EQ PUSH2 0x1E75 JUMPI DUP1 PUSH4 0x79103400 EQ PUSH2 0x1E18 JUMPI DUP1 PUSH4 0x7D52437A EQ PUSH2 0x1DDF JUMPI DUP1 PUSH4 0x809DAB6A EQ PUSH2 0x1DDA JUMPI DUP1 PUSH4 0x81DB2284 EQ PUSH2 0x1D54 JUMPI DUP1 PUSH4 0x827CC0E5 EQ PUSH2 0x1D1A JUMPI DUP1 PUSH4 0x830EFD3B EQ PUSH2 0x1C8E JUMPI DUP1 PUSH4 0x843592D3 EQ PUSH2 0x1C63 JUMPI DUP1 PUSH4 0x84DDF5EA EQ PUSH2 0x1C45 JUMPI DUP1 PUSH4 0x8A914A63 EQ PUSH2 0x1C02 JUMPI DUP1 PUSH4 0x9059F9CA EQ PUSH2 0x15C7 JUMPI DUP1 PUSH4 0x9730872A EQ PUSH2 0x1564 JUMPI DUP1 PUSH4 0x9785FAC8 EQ PUSH2 0x155F JUMPI DUP1 PUSH4 0x97C33519 EQ PUSH2 0x1490 JUMPI DUP1 PUSH4 0x9E932011 EQ PUSH2 0x1438 JUMPI DUP1 PUSH4 0xA7AF6947 EQ PUSH2 0x13A6 JUMPI DUP1 PUSH4 0xA98AD46C EQ PUSH2 0x1361 JUMPI DUP1 PUSH4 0xADCEB101 EQ PUSH2 0x12DF JUMPI DUP1 PUSH4 0xB9F0FEC4 EQ PUSH2 0x124F JUMPI DUP1 PUSH4 0xBE5EB580 EQ PUSH2 0x1215 JUMPI DUP1 PUSH4 0xC269014B EQ PUSH2 0x1176 JUMPI DUP1 PUSH4 0xCCDCE44E EQ PUSH2 0x10A7 JUMPI DUP1 PUSH4 0xE2763924 EQ PUSH2 0xE3F JUMPI DUP1 PUSH4 0xEB5A662E EQ PUSH2 0xD91 JUMPI DUP1 PUSH4 0xECB18B34 EQ PUSH2 0x370 JUMPI DUP1 PUSH4 0xF0853E1D EQ PUSH2 0x2BF JUMPI PUSH4 0xF947A8A9 EQ PUSH2 0x221 JUMPI PUSH1 0x0 DUP1 REVERT JUMPDEST CALLVALUE PUSH2 0x2A6 JUMPI PUSH1 0x0 CALLDATASIZE PUSH1 0x3 NOT ADD SLT PUSH2 0x2A6 JUMPI PUSH1 0x40 MLOAD PUSH4 0x6ECF8073 PUSH1 0xE1 SHL DUP2 MSTORE PUSH1 0x2 PUSH1 0x4 DUP3 ADD MSTORE PUSH1 0x20 DUP2 PUSH1 0x24 DUP2 PUSH20 0x0 GAS DELEGATECALL DUP1 ISZERO PUSH2 0x2B3 JUMPI PUSH1 0x0 SWAP1 PUSH2 0x27C JUMPI JUMPDEST PUSH1 0x20 SWAP1 PUSH1 0x40 MLOAD SWAP1 DUP2 MSTORE RETURN JUMPDEST POP PUSH1 0x20 DUP2 RETURNDATASIZE DUP3 GT PUSH2 0x2AB JUMPI JUMPDEST DUP2 PUSH2 0x295 PUSH1 0x20 SWAP4 DUP4 PUSH2 0x2F4E JUMP JUMPDEST DUP2 ADD SUB SLT PUSH2 0x2A6 JUMPI PUSH1 0x20 SWAP1 MLOAD PUSH2 0x271 JUMP JUMPDEST PUSH1 0x0 DUP1 REVERT JUMPDEST RETURNDATASIZE SWAP2 POP PUSH2 0x288 JUMP JUMPDEST PUSH1 0x40 MLOAD RETURNDATASIZE PUSH1 0x0 DUP3 RETURNDATACOPY RETURNDATASIZE SWAP1 REVERT JUMPDEST CALLVALUE PUSH2 0x2A6 JUMPI PUSH1 0x20 DUP1 PUSH1 0x3 NOT CALLDATASIZE ADD SLT PUSH2 0x2A6 JUMPI PUSH2 0x2D9 PUSH2 0x2CC1 JUMP JUMPDEST PUSH1 0x40 MLOAD PUSH4 0x15FFAE5B PUSH1 0xE2 SHL DUP2 MSTORE PUSH1 0x2 PUSH1 0x4 DUP3 ADD MSTORE PUSH1 0x1 PUSH1 0x1 PUSH1 0xA0 SHL SUB SWAP1 SWAP2 AND PUSH1 0x24 DUP3 ADD MSTORE DUP2 DUP2 PUSH1 0x44 DUP2 PUSH20 0x0 GAS DELEGATECALL SWAP1 DUP2 ISZERO PUSH2 0x2B3 JUMPI PUSH1 0x0 SWAP2 PUSH2 0x33A JUMPI JUMPDEST POP PUSH1 0x40 MLOAD SWAP1 PUSH2 0x336 DUP2 PUSH2 0x2CED JUMP JUMPDEST DUP2 MSTORE RETURN JUMPDEST SWAP1 POP DUP2 DUP2 DUP2 RETURNDATASIZE DUP4 GT PUSH2 0x369 JUMPI JUMPDEST PUSH2 0x351 DUP2 DUP4 PUSH2 0x2F4E JUMP JUMPDEST DUP2 ADD SUB SLT PUSH2 0x2A6 JUMPI MLOAD PUSH1 0x3 DUP2 LT ISZERO PUSH2 0x2A6 JUMPI DUP3 PUSH2 0x328 JUMP JUMPDEST POP RETURNDATASIZE PUSH2 0x347 JUMP JUMPDEST CALLVALUE PUSH2 0x2A6 JUMPI PUSH1 0x60 CALLDATASIZE PUSH1 0x3 NOT ADD SLT PUSH2 0x2A6 JUMPI PUSH2 0x389 PUSH2 0x2DF7 JUMP JUMPDEST PUSH4 0xFFFFFFFF PUSH2 0x396 PUSH2 0x2E0A JUMP JUMPDEST AND SWAP1 DUP2 ISZERO DUP1 ISZERO PUSH2 0xD30 JUMPI JUMPDEST PUSH2 0xD1E JUMPI PUSH4 0xFFFFFFFF DUP2 AND ISZERO DUP1 ISZERO PUSH2 0xD0E JUMPI JUMPDEST PUSH2 0xCFC JUMPI PUSH1 0x9 PUSH4 0xFFFFFFFF DUP3 AND GT ISZERO PUSH2 0xCEA JUMPI PUSH2 0x3CF PUSH2 0x301A JUMP JUMPDEST PUSH1 0x4 CALLDATALOAD PUSH1 0x0 MSTORE PUSH1 0x11 PUSH1 0x20 MSTORE PUSH1 0x40 PUSH1 0x0 KECCAK256 SWAP2 PUSH1 0x3 DUP4 ADD DUP1 SLOAD PUSH1 0xFF DUP2 PUSH1 0x40 SHR AND PUSH1 0x6 DUP2 LT ISZERO PUSH2 0xCD4 JUMPI DUP1 ISZERO ISZERO SWAP1 DUP2 PUSH2 0xCC8 JUMPI JUMPDEST POP PUSH2 0xCB6 JUMPI PUSH2 0x41D PUSH1 0x64 SWAP2 PUSH4 0xFFFFFFFF DUP1 DUP8 AND SWAP2 PUSH1 0x20 SHR AND PUSH2 0x30D4 JUMP JUMPDEST GT PUSH2 0xCA4 JUMPI PUSH2 0x436 PUSH4 0xFFFFFFFF DUP5 AND PUSH1 0x2 DUP7 ADD SLOAD PUSH2 0x313A JUMP JUMPDEST SWAP4 PUSH8 0xDE0B6B3A7640000 SWAP5 DUP6 DUP2 MUL SWAP6 DUP2 DUP8 DIV EQ SWAP1 ISZERO OR ISZERO PUSH2 0xA38 JUMPI PUSH9 0x56BC75E2D630FFFFF DUP6 ADD DUP1 SWAP6 GT PUSH2 0xA38 JUMPI CALLER PUSH1 0x0 MSTORE PUSH1 0xB PUSH1 0x20 MSTORE PUSH9 0x56BC75E2D63100000 DUP6 DIV PUSH1 0x40 PUSH1 0x0 KECCAK256 SLOAD LT PUSH2 0xC92 JUMPI CALLER PUSH1 0x0 MSTORE PUSH1 0xB PUSH1 0x20 MSTORE PUSH1 0x40 PUSH1 0x0 KECCAK256 PUSH2 0x4A8 PUSH9 0x56BC75E2D63100000 DUP8 DIV DUP3 SLOAD PUSH2 0x300D JUMP JUMPDEST SWAP1 SSTORE CALLER PUSH1 0x0 MSTORE PUSH1 0x14 PUSH1 0x20 MSTORE PUSH1 0x40 PUSH1 0x0 KECCAK256 PUSH2 0x4CE PUSH9 0x56BC75E2D63100000 DUP8 DIV DUP3 SLOAD PUSH2 0x30D4 JUMP JUMPDEST SWAP1 SSTORE DUP2 SLOAD PUSH4 0xFFFFFFFF DUP6 AND PUSH4 0xFFFFFFFF DUP3 PUSH1 0x20 SHR AND ADD PUSH4 0xFFFFFFFF DUP2 GT PUSH2 0xA38 JUMPI PUSH8 0xFFFFFFFF00000000 SWAP1 PUSH1 0x20 SHL AND SWAP1 PUSH8 0xFFFFFFFF00000000 NOT AND OR DUP3 SSTORE PUSH1 0x7 DUP2 ADD SWAP1 CALLER PUSH1 0x0 MSTORE DUP2 PUSH1 0x20 MSTORE PUSH1 0x40 PUSH1 0x0 KECCAK256 SLOAD ISZERO PUSH2 0xC50 JUMPI JUMPDEST POP CALLER PUSH1 0x0 MSTORE PUSH1 0x20 MSTORE PUSH1 0x40 PUSH1 0x0 KECCAK256 PUSH2 0x548 PUSH9 0x56BC75E2D63100000 DUP7 DIV DUP3 SLOAD PUSH2 0x30D4 JUMP JUMPDEST SWAP1 SSTORE DUP1 SLOAD PUSH4 0xFFFFFFFF DUP2 AND PUSH4 0xFFFFFFFF DUP3 PUSH1 0x20 SHR AND LT ISZERO PUSH1 0x0 EQ PUSH2 0xC37 JUMPI POP PUSH9 0x20000000000000000 PUSH1 0xFF PUSH1 0x40 SHL NOT DUP3 SLOAD AND OR SWAP1 SSTORE DUP1 PUSH1 0x0 MSTORE PUSH1 0x15 PUSH1 0x20 MSTORE PUSH1 0x40 PUSH1 0x0 KECCAK256 PUSH4 0xFFFFFFFF NOT DUP2 SLOAD AND SWAP1 SSTORE PUSH1 0x4 CALLDATALOAD PUSH1 0x0 MSTORE PUSH1 0x17 PUSH1 0x20 MSTORE PUSH1 0x40 PUSH1 0x0 KECCAK256 PUSH1 0x11 PUSH1 0x20 MSTORE PUSH1 0x40 PUSH1 0x0 KECCAK256 SWAP1 PUSH1 0x1 DUP1 PUSH1 0xA0 SHL SUB PUSH1 0x1 DUP4 ADD SLOAD AND PUSH12 0xFFFFFFFFFFFFFFFFFFFFFFFF PUSH1 0xA0 SHL DUP3 SLOAD AND OR DUP2 SSTORE PUSH1 0x4 CALLDATALOAD PUSH1 0x1 DUP3 ADD SSTORE PUSH4 0xFFFFFFFF PUSH1 0x2 DUP1 DUP4 ADD SLOAD SWAP4 PUSH1 0xFF NOT DUP6 AND DUP3 DUP6 ADD SSTORE PUSH1 0x8 DUP2 ADD SWAP5 PUSH5 0xFFFFFFFF00 DUP7 SLOAD PUSH1 0x8 SHL AND SWAP1 PUSH5 0xFFFFFFFFFF NOT AND OR DUP3 DUP6 ADD SSTORE PUSH2 0x63E DUP4 DUP7 SLOAD AND DUP4 DUP7 ADD SWAP1 PUSH9 0xFFFFFFFF0000000000 DUP3 SLOAD SWAP2 PUSH1 0x28 SHL AND SWAP1 PUSH9 0xFFFFFFFF0000000000 NOT AND OR SWAP1 SSTORE JUMP JUMPDEST TIMESTAMP PUSH1 0x6 DUP6 ADD SSTORE ADD SLOAD SWAP3 SLOAD AND SWAP2 PUSH2 0x654 DUP4 DUP3 PUSH2 0x314D JUMP JUMPDEST DUP4 ISZERO PUSH2 0xC21 JUMPI PUSH2 0x663 DUP5 PUSH2 0x316F JUMP JUMPDEST SWAP2 PUSH1 0x0 JUMPDEST DUP6 DUP2 LT PUSH2 0xBE3 JUMPI POP POP PUSH1 0x3 DUP4 ADD SSTORE PUSH1 0x0 JUMPDEST DUP4 PUSH4 0xFFFFFFFF DUP3 AND LT PUSH2 0xB94 JUMPI POP PUSH1 0x1 DUP1 PUSH1 0xA0 SHL SUB DUP3 SLOAD AND PUSH1 0x0 MSTORE PUSH1 0x16 PUSH1 0x20 MSTORE PUSH1 0x4 CALLDATALOAD PUSH1 0x40 PUSH1 0x0 KECCAK256 SSTORE PUSH1 0x1 DUP1 PUSH1 0xA0 SHL SUB DUP3 SLOAD AND PUSH1 0x2 DUP4 ADD SLOAD SWAP1 PUSH32 0x55939E2A4ADB2163C21EB3BB2C850E8E82136AED8A9E5971F705F1188D05865E PUSH1 0xFF DUP4 AND PUSH1 0x3 DUP7 ADD SLOAD PUSH4 0xFFFFFFFF PUSH1 0x6 DUP9 ADD SLOAD SWAP6 PUSH1 0x40 MLOAD SWAP4 PUSH2 0x6F3 DUP2 PUSH2 0x2CED JUMP JUMPDEST DUP5 MSTORE PUSH1 0x28 SHR AND PUSH1 0x20 DUP4 ADD MSTORE PUSH1 0x40 DUP3 ADD MSTORE PUSH1 0xA0 PUSH1 0x60 DUP3 ADD MSTORE PUSH2 0x71A PUSH1 0xA0 DUP3 ADD PUSH1 0x4 DUP9 ADD PUSH2 0x31B5 JUMP JUMPDEST SWAP4 PUSH1 0x80 DUP3 ADD MSTORE DUP1 PUSH1 0x4 CALLDATALOAD SWAP5 SUB SWAP1 LOG3 PUSH1 0x0 JUMPDEST DUP4 DUP2 LT PUSH2 0xB6F JUMPI POP POP POP POP PUSH1 0x4 CALLDATALOAD PUSH1 0x0 MSTORE PUSH1 0x11 PUSH1 0x20 MSTORE PUSH1 0x40 PUSH1 0x0 KECCAK256 PUSH1 0x1 DUP1 PUSH1 0xA0 SHL SUB PUSH1 0x1 DUP3 ADD SLOAD AND SWAP1 DUP2 PUSH1 0x0 MSTORE PUSH1 0xA PUSH1 0x20 MSTORE PUSH1 0xFF PUSH1 0x40 PUSH1 0x0 KECCAK256 SLOAD AND ISZERO PUSH2 0xAD5 JUMPI JUMPDEST PUSH1 0x3 PUSH1 0x2 DUP3 ADD SWAP2 DUP3 SLOAD PUSH1 0xC PUSH1 0x20 MSTORE PUSH2 0x78A PUSH1 0x40 PUSH1 0x0 KECCAK256 SWAP2 DUP3 SLOAD PUSH2 0x30D4 JUMP JUMPDEST SWAP1 SSTORE PUSH2 0x799 DUP4 SLOAD PUSH1 0xF SLOAD PUSH2 0x30D4 JUMP JUMPDEST PUSH1 0xF SSTORE PUSH2 0x7A9 DUP4 SLOAD PUSH1 0x10 SLOAD PUSH2 0x300D JUMP JUMPDEST PUSH1 0x10 SSTORE DUP4 PUSH1 0x0 MSTORE PUSH1 0xD PUSH1 0x20 MSTORE TIMESTAMP PUSH1 0x40 PUSH1 0x0 KECCAK256 SSTORE ADD PUSH9 0x30000000000000000 PUSH1 0xFF PUSH1 0x40 SHL NOT DUP3 SLOAD AND OR SWAP1 SSTORE PUSH20 0x0 DUP1 EXTCODESIZE ISZERO PUSH2 0x2A6 JUMPI PUSH1 0x0 PUSH1 0x64 SWAP2 PUSH1 0x40 MLOAD SWAP3 DUP4 DUP1 SWAP3 PUSH4 0xE63DD531 PUSH1 0xE0 SHL DUP3 MSTORE PUSH1 0x2 PUSH1 0x4 DUP4 ADD MSTORE DUP8 PUSH1 0x24 DUP4 ADD MSTORE PUSH4 0x3D1A1A1 ADDRESS PUSH1 0x20 SHL OR PUSH1 0x40 SHL PUSH1 0x44 DUP4 ADD MSTORE GAS DELEGATECALL DUP1 ISZERO PUSH2 0x2B3 JUMPI PUSH2 0xAC6 JUMPI JUMPDEST POP DUP1 SLOAD PUSH1 0x40 MLOAD PUSH4 0xA9059CBB PUSH1 0xE0 SHL DUP2 MSTORE PUSH1 0x1 PUSH1 0x1 PUSH1 0xA0 SHL SUB DUP5 AND PUSH1 0x4 DUP3 ADD MSTORE PUSH1 0x24 DUP2 ADD SWAP2 SWAP1 SWAP2 MSTORE PUSH1 0x20 DUP2 DUP1 PUSH1 0x44 DUP2 ADD SUB DUP2 PUSH1 0x0 PUSH32 0x0 PUSH1 0x1 PUSH1 0x1 PUSH1 0xA0 SHL SUB AND GAS CALL SWAP1 DUP2 ISZERO PUSH2 0x2B3 JUMPI PUSH1 0x0 SWAP2 PUSH2 0xA97 JUMPI JUMPDEST POP ISZERO PUSH2 0xA85 JUMPI PUSH1 0x40 PUSH32 0xEAE9CFBC77FDD40CA899F36B608256063B2BC9D8178B0220F7AD513E178D6730 SWAP2 SLOAD DUP4 PUSH1 0x0 MSTORE PUSH1 0xC PUSH1 0x20 MSTORE DUP2 PUSH1 0x0 KECCAK256 SLOAD DUP3 MLOAD SWAP2 DUP3 MSTORE PUSH1 0x20 DUP3 ADD MSTORE LOG2 PUSH32 0x17F13FD3F7C4712AF33F1770EBCB822DD20A2DBC00850EAB48D786623D97B959 PUSH1 0x20 PUSH1 0xF SLOAD PUSH1 0x40 MLOAD SWAP1 DUP2 MSTORE LOG1 PUSH1 0x0 DUP1 MLOAD PUSH1 0x20 PUSH2 0x340E DUP4 CODECOPY DUP2 MLOAD SWAP2 MSTORE PUSH1 0x20 PUSH1 0x10 SLOAD PUSH1 0x40 MLOAD SWAP1 DUP2 MSTORE LOG1 PUSH1 0x4 CALLDATALOAD PUSH32 0x9E71D2FB732E68272B7E74ECFD14638673C1D77E19A5D390A3FFFF054D57C44B PUSH1 0x0 DUP1 LOG2 JUMPDEST PUSH1 0x1 SLOAD PUSH1 0x40 MLOAD PUSH4 0x6ADF4625 PUSH1 0xE1 SHL DUP2 MSTORE PUSH1 0x1 PUSH1 0x1 PUSH1 0xA0 SHL SUB SWAP1 SWAP2 AND SWAP3 PUSH1 0x20 DUP3 PUSH1 0x4 DUP2 DUP8 GAS STATICCALL SWAP2 DUP3 ISZERO PUSH2 0x2B3 JUMPI PUSH1 0x0 SWAP3 PUSH2 0xA4E JUMPI JUMPDEST POP PUSH4 0xFFFFFFFF AND PUSH1 0x3 SIGNEXTEND SWAP1 PUSH1 0x3 SIGNEXTEND MUL DUP1 PUSH1 0x3 SIGNEXTEND SWAP1 DUP2 SUB PUSH2 0xA38 JUMPI DUP3 EXTCODESIZE ISZERO PUSH2 0x2A6 JUMPI PUSH1 0x64 PUSH1 0x0 SWAP3 DUP4 PUSH1 0xA SWAP6 PUSH1 0x40 MLOAD SWAP7 DUP8 SWAP6 DUP7 SWAP5 PUSH4 0x533DFA35 PUSH1 0xE0 SHL DUP7 MSTORE PUSH1 0x4 DUP7 ADD MSTORE SDIV PUSH1 0x3 SIGNEXTEND PUSH1 0x24 DUP5 ADD MSTORE PUSH1 0x1 PUSH1 0x44 DUP5 ADD MSTORE GAS CALL DUP1 ISZERO PUSH2 0x2B3 JUMPI PUSH2 0xA29 JUMPI JUMPDEST POP PUSH9 0x56BC75E2D63100000 PUSH1 0x40 MLOAD SWAP2 DIV DUP2 MSTORE CALLER SWAP1 PUSH32 0x86B47E6E6C03D769C0BC5FFD06C682EA7D07089576D59230EC18FF64E71BFFE7 PUSH1 0x20 PUSH1 0x4 CALLDATALOAD SWAP3 LOG3 PUSH1 0x1 PUSH1 0x0 SSTORE STOP JUMPDEST PUSH2 0xA32 SWAP1 PUSH2 0x2F1D JUMP JUMPDEST DUP2 PUSH2 0x9E6 JUMP JUMPDEST PUSH4 0x4E487B71 PUSH1 0xE0 SHL PUSH1 0x0 MSTORE PUSH1 0x11 PUSH1 0x4 MSTORE PUSH1 0x24 PUSH1 0x0 REVERT JUMPDEST PUSH4 0xFFFFFFFF SWAP2 SWAP3 POP PUSH2 0xA77 SWAP1 PUSH1 0x20 RETURNDATASIZE PUSH1 0x20 GT PUSH2 0xA7E JUMPI JUMPDEST PUSH2 0xA6F DUP2 DUP4 PUSH2 0x2F4E JUMP JUMPDEST DUP2 ADD SWAP1 PUSH2 0x30AB JUMP JUMPDEST SWAP2 SWAP1 PUSH2 0x988 JUMP JUMPDEST POP RETURNDATASIZE PUSH2 0xA65 JUMP JUMPDEST PUSH1 0x40 MLOAD PUSH4 0x22E2581 PUSH1 0xE1 SHL DUP2 MSTORE PUSH1 0x4 SWAP1 REVERT JUMPDEST PUSH2 0xAB9 SWAP2 POP PUSH1 0x20 RETURNDATASIZE PUSH1 0x20 GT PUSH2 0xABF JUMPI JUMPDEST PUSH2 0xAB1 DUP2 DUP4 PUSH2 0x2F4E JUMP JUMPDEST DUP2 ADD SWAP1 PUSH2 0x2F70 JUMP JUMPDEST DUP7 PUSH2 0x89F JUMP JUMPDEST POP RETURNDATASIZE PUSH2 0xAA7 JUMP JUMPDEST PUSH2 0xACF SWAP1 PUSH2 0x2F1D JUMP JUMPDEST DUP6 PUSH2 0x831 JUMP JUMPDEST PUSH1 0x9 SLOAD PUSH1 0x1 PUSH1 0x40 SHL DUP2 LT ISZERO PUSH2 0xB59 JUMPI PUSH1 0x1 DUP2 ADD DUP1 PUSH1 0x9 SSTORE DUP2 LT ISZERO PUSH2 0xB43 JUMPI PUSH32 0x6E1540171B6C0C960B71A7020D9F60077F6AF931A8BBF590DA0223DACF75C7AF ADD DUP1 SLOAD PUSH1 0x1 PUSH1 0x1 PUSH1 0xA0 SHL SUB NOT AND DUP4 OR SWAP1 SSTORE PUSH1 0x0 DUP3 DUP2 MSTORE PUSH1 0xA PUSH1 0x20 MSTORE PUSH1 0x40 SWAP1 KECCAK256 DUP1 SLOAD PUSH1 0xFF NOT AND PUSH1 0x1 OR SWAP1 SSTORE PUSH2 0x76C JUMP JUMPDEST PUSH4 0x4E487B71 PUSH1 0xE0 SHL PUSH1 0x0 MSTORE PUSH1 0x32 PUSH1 0x4 MSTORE PUSH1 0x24 PUSH1 0x0 REVERT JUMPDEST PUSH4 0x4E487B71 PUSH1 0xE0 SHL PUSH1 0x0 MSTORE PUSH1 0x41 PUSH1 0x4 MSTORE PUSH1 0x24 PUSH1 0x0 REVERT JUMPDEST DUP1 PUSH2 0xB8A PUSH2 0xB80 PUSH2 0xB8F SWAP4 DUP6 PUSH2 0x31A1 JUMP JUMPDEST MLOAD PUSH1 0x5 DUP7 ADD PUSH2 0x30F0 JUMP JUMPDEST PUSH2 0x30E1 JUMP JUMPDEST PUSH2 0x72B JUMP JUMPDEST PUSH4 0xFFFFFFFF PUSH2 0xBA2 DUP3 PUSH2 0x3125 JUMP JUMPDEST AND SWAP1 PUSH3 0x278D00 SWAP2 DUP1 DUP4 MUL SWAP3 DUP4 DIV SUB PUSH2 0xA38 JUMPI PUSH2 0xBCF PUSH2 0xBC6 PUSH4 0xFFFFFFFF SWAP4 TIMESTAMP PUSH2 0x30D4 JUMP JUMPDEST PUSH1 0x4 DUP7 ADD PUSH2 0x30F0 JUMP JUMPDEST AND PUSH4 0xFFFFFFFF DUP2 EQ PUSH2 0xA38 JUMPI PUSH1 0x1 ADD PUSH2 0x678 JUMP JUMPDEST DUP6 DUP3 MOD DUP2 LT ISZERO PUSH2 0xC12 JUMPI PUSH1 0x1 DUP4 ADD SWAP1 DUP2 DUP5 GT PUSH2 0xA38 JUMPI PUSH2 0xC0D SWAP2 PUSH2 0xC07 DUP3 DUP8 PUSH2 0x31A1 JUMP JUMPDEST MSTORE PUSH2 0x30E1 JUMP JUMPDEST PUSH2 0x667 JUMP JUMPDEST DUP1 DUP4 PUSH2 0xC07 PUSH2 0xC0D SWAP4 DUP8 PUSH2 0x31A1 JUMP JUMPDEST PUSH4 0x4E487B71 PUSH1 0xE0 SHL PUSH1 0x0 MSTORE PUSH1 0x12 PUSH1 0x4 MSTORE PUSH1 0x24 PUSH1 0x0 REVERT JUMPDEST PUSH9 0xFF0000000000000000 NOT AND PUSH1 0x1 PUSH1 0x40 SHL OR SWAP1 SSTORE PUSH2 0x954 JUMP JUMPDEST PUSH1 0x6 ADD DUP1 SLOAD PUSH1 0x1 PUSH1 0x40 SHL DUP2 LT ISZERO PUSH2 0xB59 JUMPI PUSH2 0xC70 SWAP2 PUSH1 0x1 DUP3 ADD DUP2 SSTORE PUSH2 0x2F05 JUMP JUMPDEST DUP2 SLOAD PUSH1 0x1 PUSH1 0x1 PUSH1 0xA0 SHL SUB PUSH1 0x3 SWAP3 SWAP1 SWAP3 SHL SWAP2 DUP3 SHL NOT AND CALLER SWAP1 SWAP2 SHL OR SWAP1 SSTORE DUP6 PUSH2 0x525 JUMP JUMPDEST PUSH1 0x40 MLOAD PUSH4 0x391ACF1 PUSH1 0xE6 SHL DUP2 MSTORE PUSH1 0x4 SWAP1 REVERT JUMPDEST PUSH1 0x40 MLOAD PUSH4 0x955F95AD PUSH1 0xE0 SHL DUP2 MSTORE PUSH1 0x4 SWAP1 REVERT JUMPDEST PUSH1 0x40 MLOAD PUSH4 0x80B9CB09 PUSH1 0xE0 SHL DUP2 MSTORE PUSH1 0x4 SWAP1 REVERT JUMPDEST PUSH1 0x1 SWAP2 POP EQ ISZERO DUP7 PUSH2 0x400 JUMP JUMPDEST PUSH4 0x4E487B71 PUSH1 0xE0 SHL PUSH1 0x0 MSTORE PUSH1 0x21 PUSH1 0x4 MSTORE PUSH1 0x24 PUSH1 0x0 REVERT JUMPDEST PUSH1 0x40 MLOAD PUSH4 0xF556155F PUSH1 0xE0 SHL DUP2 MSTORE PUSH1 0x4 SWAP1 REVERT JUMPDEST PUSH1 0x40 MLOAD PUSH4 0xD1E95ED5 PUSH1 0xE0 SHL DUP2 MSTORE PUSH1 0x4 SWAP1 REVERT JUMPDEST POP PUSH1 0x64 PUSH4 0xFFFFFFFF DUP3 AND GT PUSH2 0x3B4 JUMP JUMPDEST PUSH1 0x40 MLOAD PUSH4 0xCFF23E7 PUSH1 0xE0 SHL DUP2 MSTORE PUSH1 0x4 SWAP1 REVERT JUMPDEST POP PUSH1 0x1 SLOAD PUSH1 0x40 MLOAD PUSH4 0x2CC52B15 PUSH1 0xE1 SHL DUP2 MSTORE CALLER PUSH1 0x4 DUP3 ADD MSTORE SWAP1 PUSH1 0x20 SWAP1 DUP3 SWAP1 PUSH1 0x24 SWAP1 DUP3 SWAP1 PUSH1 0x1 PUSH1 0x1 PUSH1 0xA0 SHL SUB AND GAS STATICCALL SWAP1 DUP2 ISZERO PUSH2 0x2B3 JUMPI PUSH1 0x0 SWAP2 PUSH2 0xD73 JUMPI JUMPDEST POP ISZERO PUSH2 0x3A1 JUMP JUMPDEST PUSH2 0xD8B SWAP2 POP PUSH1 0x20 RETURNDATASIZE DUP2 GT PUSH2 0xABF JUMPI PUSH2 0xAB1 DUP2 DUP4 PUSH2 0x2F4E JUMP JUMPDEST DUP4 PUSH2 0xD6C JUMP JUMPDEST CALLVALUE PUSH2 0x2A6 JUMPI PUSH1 0x20 DUP1 PUSH1 0x3 NOT CALLDATASIZE ADD SLT PUSH2 0x2A6 JUMPI PUSH1 0x44 DUP2 PUSH2 0xDAE PUSH2 0x2CC1 JUMP JUMPDEST PUSH1 0x40 MLOAD PUSH4 0x6EB1769F PUSH1 0xE1 SHL DUP2 MSTORE PUSH1 0x1 PUSH1 0x1 PUSH1 0xA0 SHL SUB SWAP2 DUP3 AND PUSH1 0x4 DUP3 ADD MSTORE ADDRESS PUSH1 0x24 DUP3 ADD MSTORE SWAP3 DUP4 SWAP2 DUP3 SWAP1 PUSH32 0x0 AND GAS STATICCALL SWAP1 DUP2 ISZERO PUSH2 0x2B3 JUMPI PUSH1 0x0 SWAP2 PUSH2 0xE12 JUMPI JUMPDEST POP PUSH1 0x40 MLOAD SWAP1 DUP2 MSTORE RETURN JUMPDEST SWAP1 POP DUP2 DUP2 DUP2 RETURNDATASIZE DUP4 GT PUSH2 0xE38 JUMPI JUMPDEST PUSH2 0xE29 DUP2 DUP4 PUSH2 0x2F4E JUMP JUMPDEST DUP2 ADD SUB SLT PUSH2 0x2A6 JUMPI MLOAD DUP3 PUSH2 0xE09 JUMP JUMPDEST POP RETURNDATASIZE PUSH2 0xE1F JUMP JUMPDEST CALLVALUE PUSH2 0x2A6 JUMPI PUSH1 0x40 CALLDATASIZE PUSH1 0x3 NOT ADD SLT PUSH2 0x2A6 JUMPI PUSH1 0x4 CALLDATALOAD PUSH4 0xFFFFFFFF PUSH2 0xE60 PUSH2 0x2DF7 JUMP JUMPDEST AND ISZERO DUP1 ISZERO PUSH2 0x1046 JUMPI JUMPDEST PUSH2 0xD1E JUMPI DUP1 ISZERO PUSH2 0x1034 JUMPI PUSH2 0xE7B PUSH2 0x301A JUMP JUMPDEST PUSH1 0x40 MLOAD PUSH4 0xC47AB3D PUSH1 0xE2 SHL DUP2 MSTORE PUSH1 0x20 SWAP1 DUP2 DUP2 DUP1 PUSH2 0xE9B ADDRESS PUSH1 0x4 DUP4 ADD PUSH2 0x2F88 JUMP JUMPDEST SUB DUP2 PUSH20 0x0 GAS DELEGATECALL DUP1 ISZERO PUSH2 0x2B3 JUMPI PUSH2 0x1017 JUMPI JUMPDEST POP PUSH1 0x40 MLOAD PUSH4 0x23B872DD PUSH1 0xE0 SHL DUP2 MSTORE CALLER PUSH1 0x4 DUP3 ADD MSTORE ADDRESS PUSH1 0x24 DUP3 ADD MSTORE PUSH1 0x44 DUP2 ADD DUP4 SWAP1 MSTORE DUP2 DUP2 PUSH1 0x64 DUP2 PUSH1 0x0 PUSH1 0x1 PUSH1 0x1 PUSH1 0xA0 SHL SUB PUSH32 0x0 AND GAS CALL SWAP1 DUP2 ISZERO PUSH2 0x2B3 JUMPI PUSH1 0x0 SWAP2 PUSH2 0xFFA JUMPI JUMPDEST POP ISZERO PUSH2 0xA85 JUMPI PUSH1 0x0 DUP1 MLOAD PUSH1 0x20 PUSH2 0x340E DUP4 CODECOPY DUP2 MLOAD SWAP2 MSTORE SWAP1 CALLER PUSH1 0x0 MSTORE PUSH1 0xB DUP2 MSTORE PUSH1 0x40 PUSH1 0x0 KECCAK256 PUSH32 0xDC6E73D4B36E22AB95945BD8833A5AF96C950EB29D8D75C4AECFFC987637AAAB DUP3 DUP3 SLOAD SWAP6 DUP1 DUP8 ADD DUP5 SSTORE DUP1 PUSH1 0xE SLOAD ADD SWAP1 DUP2 PUSH1 0xE SSTORE DUP1 PUSH1 0x10 SLOAD ADD SWAP5 DUP6 PUSH1 0x10 SSTORE SLOAD PUSH1 0x40 MLOAD SWAP2 DUP3 MSTORE DUP4 DUP3 ADD MSTORE PUSH32 0x4928895BA6723E8E27B15F32E4C3054A1B6C7F8C03F133558D6FA42B3928D14C PUSH1 0x40 CALLER SWAP3 LOG2 PUSH1 0x40 MLOAD SWAP1 DUP2 MSTORE LOG1 PUSH1 0x40 MLOAD SWAP1 DUP2 MSTORE LOG1 ISZERO PUSH2 0xFCF JUMPI JUMPDEST PUSH1 0x1 PUSH1 0x0 SSTORE STOP JUMPDEST CALLER PUSH32 0x72DAFB6AABE3F02118BC607EFBEAAA104D6B2009720C7B130F24BA418689C4B PUSH1 0x0 DUP1 LOG2 PUSH2 0xFC8 JUMP JUMPDEST PUSH2 0x1011 SWAP2 POP DUP3 RETURNDATASIZE DUP5 GT PUSH2 0xABF JUMPI PUSH2 0xAB1 DUP2 DUP4 PUSH2 0x2F4E JUMP JUMPDEST DUP4 PUSH2 0xF22 JUMP JUMPDEST PUSH2 0x102D SWAP1 DUP3 RETURNDATASIZE DUP5 GT PUSH2 0xABF JUMPI PUSH2 0xAB1 DUP2 DUP4 PUSH2 0x2F4E JUMP JUMPDEST POP DUP3 PUSH2 0xEBF JUMP JUMPDEST PUSH1 0x40 MLOAD PUSH4 0x162908E3 PUSH1 0xE1 SHL DUP2 MSTORE PUSH1 0x4 SWAP1 REVERT JUMPDEST POP PUSH1 0x1 SLOAD PUSH1 0x40 MLOAD PUSH4 0x2CC52B15 PUSH1 0xE1 SHL DUP2 MSTORE CALLER PUSH1 0x4 DUP3 ADD MSTORE SWAP1 PUSH1 0x20 SWAP1 DUP3 SWAP1 PUSH1 0x24 SWAP1 DUP3 SWAP1 PUSH1 0x1 PUSH1 0x1 PUSH1 0xA0 SHL SUB AND GAS STATICCALL SWAP1 DUP2 ISZERO PUSH2 0x2B3 JUMPI PUSH1 0x0 SWAP2 PUSH2 0x1089 JUMPI JUMPDEST POP ISZERO PUSH2 0xE69 JUMP JUMPDEST PUSH2 0x10A1 SWAP2 POP PUSH1 0x20 RETURNDATASIZE DUP2 GT PUSH2 0xABF JUMPI PUSH2 0xAB1 DUP2 DUP4 PUSH2 0x2F4E JUMP JUMPDEST DUP3 PUSH2 0x1082 JUMP JUMPDEST CALLVALUE PUSH2 0x2A6 JUMPI PUSH1 0x0 CALLDATASIZE PUSH1 0x3 NOT ADD SLT PUSH2 0x2A6 JUMPI PUSH2 0x10C0 PUSH2 0x301A JUMP JUMPDEST PUSH1 0x40 MLOAD PUSH4 0xC47AB3D PUSH1 0xE2 SHL DUP2 MSTORE PUSH1 0x20 DUP2 DUP1 PUSH2 0x10DE ADDRESS PUSH1 0x4 DUP4 ADD PUSH2 0x2F88 JUMP JUMPDEST SUB DUP2 PUSH20 0x0 GAS DELEGATECALL SWAP1 DUP2 ISZERO PUSH2 0x2B3 JUMPI PUSH1 0x0 SWAP2 PUSH2 0x1158 JUMPI JUMPDEST POP ISZERO PUSH2 0x1113 JUMPI PUSH1 0x1 PUSH1 0x0 SSTORE STOP JUMPDEST PUSH1 0x40 MLOAD PUSH3 0x461BCD PUSH1 0xE5 SHL DUP2 MSTORE PUSH1 0x20 PUSH1 0x4 DUP3 ADD MSTORE PUSH1 0x1A PUSH1 0x24 DUP3 ADD MSTORE PUSH32 0x4D6F6E74686C7920757064617465206E6F742064756520796574000000000000 PUSH1 0x44 DUP3 ADD MSTORE PUSH1 0x64 SWAP1 REVERT JUMPDEST PUSH2 0x1170 SWAP2 POP PUSH1 0x20 RETURNDATASIZE DUP2 GT PUSH2 0xABF JUMPI PUSH2 0xAB1 DUP2 DUP4 PUSH2 0x2F4E JUMP JUMPDEST DUP2 PUSH2 0x1106 JUMP JUMPDEST CALLVALUE PUSH2 0x2A6 JUMPI PUSH1 0x20 DUP1 PUSH1 0x3 NOT CALLDATASIZE ADD SLT PUSH2 0x2A6 JUMPI PUSH2 0x1190 PUSH2 0x2CC1 JUMP JUMPDEST PUSH1 0x1 SLOAD PUSH1 0x40 MLOAD PUSH4 0xC269014B PUSH1 0xE0 SHL DUP2 MSTORE PUSH1 0x1 PUSH1 0x1 PUSH1 0xA0 SHL SUB SWAP3 DUP4 AND PUSH1 0x4 DUP3 ADD MSTORE SWAP2 DUP4 SWAP2 DUP4 SWAP2 PUSH1 0x24 SWAP2 DUP4 SWAP2 AND GAS STATICCALL SWAP1 DUP2 ISZERO PUSH2 0x2B3 JUMPI PUSH1 0x0 SWAP2 PUSH2 0x11DB JUMPI JUMPDEST POP PUSH4 0xFFFFFFFF PUSH1 0x40 MLOAD SWAP2 AND DUP2 MSTORE RETURN JUMPDEST SWAP1 POP DUP2 DUP2 DUP2 RETURNDATASIZE DUP4 GT PUSH2 0x120E JUMPI JUMPDEST PUSH2 0x11F2 DUP2 DUP4 PUSH2 0x2F4E JUMP JUMPDEST DUP2 ADD SUB SLT PUSH2 0x2A6 JUMPI MLOAD PUSH4 0xFFFFFFFF DUP2 AND DUP2 SUB PUSH2 0x2A6 JUMPI DUP3 PUSH2 0x11CC JUMP JUMPDEST POP RETURNDATASIZE PUSH2 0x11E8 JUMP JUMPDEST CALLVALUE PUSH2 0x2A6 JUMPI PUSH1 0x20 CALLDATASIZE PUSH1 0x3 NOT ADD SLT PUSH2 0x2A6 JUMPI PUSH1 0x1 PUSH1 0x1 PUSH1 0xA0 SHL SUB PUSH2 0x1236 PUSH2 0x2CC1 JUMP JUMPDEST AND PUSH1 0x0 MSTORE PUSH1 0xC PUSH1 0x20 MSTORE PUSH1 0x20 PUSH1 0x40 PUSH1 0x0 KECCAK256 SLOAD PUSH1 0x40 MLOAD SWAP1 DUP2 MSTORE RETURN JUMPDEST CALLVALUE PUSH2 0x2A6 JUMPI PUSH1 0x20 CALLDATASIZE PUSH1 0x3 NOT ADD SLT PUSH2 0x2A6 JUMPI PUSH2 0x1268 PUSH2 0x2CC1 JUMP JUMPDEST PUSH20 0x0 SWAP1 DUP2 EXTCODESIZE ISZERO PUSH2 0x2A6 JUMPI PUSH1 0x40 DUP1 MLOAD PUSH4 0xE63DD531 PUSH1 0xE0 SHL DUP2 MSTORE PUSH1 0x2 PUSH1 0x4 DUP3 ADD MSTORE PUSH1 0x1 PUSH1 0x1 PUSH1 0xA0 SHL SUB SWAP1 SWAP3 AND PUSH1 0x24 DUP4 ADD MSTORE ADDRESS PUSH1 0x20 SHL PUSH4 0x3D1A1A1 OR SWAP1 SHL PUSH1 0x44 DUP3 ADD MSTORE SWAP1 PUSH1 0x0 SWAP1 DUP3 SWAP1 PUSH1 0x64 SWAP1 DUP3 SWAP1 GAS DELEGATECALL DUP1 ISZERO PUSH2 0x2B3 JUMPI PUSH2 0x12D4 JUMPI STOP JUMPDEST PUSH2 0x12DD SWAP1 PUSH2 0x2F1D JUMP JUMPDEST STOP JUMPDEST CALLVALUE PUSH2 0x2A6 JUMPI PUSH1 0x40 CALLDATASIZE PUSH1 0x3 NOT ADD SLT PUSH2 0x2A6 JUMPI PUSH1 0x20 PUSH2 0x12FA PUSH2 0x2CD7 JUMP JUMPDEST PUSH1 0x4 CALLDATALOAD PUSH1 0x0 MSTORE PUSH1 0x17 DUP3 MSTORE PUSH1 0x40 PUSH1 0x0 KECCAK256 SWAP1 PUSH1 0x1 DUP1 PUSH1 0xA0 SHL SUB DUP1 DUP4 SLOAD AND SWAP2 AND EQ SWAP1 DUP2 PUSH2 0x1347 JUMPI JUMPDEST DUP2 PUSH2 0x1330 JUMPI JUMPDEST POP PUSH1 0x40 MLOAD SWAP1 ISZERO ISZERO DUP2 MSTORE RETURN JUMPDEST PUSH4 0xFFFFFFFF SWAP2 POP PUSH1 0x2 ADD SLOAD PUSH1 0x28 SHR AND ISZERO ISZERO DUP3 PUSH2 0x1325 JUMP JUMPDEST SWAP1 POP PUSH1 0xFF PUSH1 0x2 DUP3 ADD SLOAD AND PUSH2 0x135A DUP2 PUSH2 0x2CED JUMP JUMPDEST ISZERO SWAP1 PUSH2 0x131F JUMP JUMPDEST CALLVALUE PUSH2 0x2A6 JUMPI PUSH1 0x0 CALLDATASIZE PUSH1 0x3 NOT ADD SLT PUSH2 0x2A6 JUMPI PUSH1 0x40 MLOAD PUSH32 0x0 PUSH1 0x1 PUSH1 0x1 PUSH1 0xA0 SHL SUB AND DUP2 MSTORE PUSH1 0x20 SWAP1 RETURN JUMPDEST CALLVALUE PUSH2 0x2A6 JUMPI PUSH1 0x20 CALLDATASIZE PUSH1 0x3 NOT ADD SLT PUSH2 0x2A6 JUMPI PUSH2 0x13BF PUSH2 0x2CC1 JUMP JUMPDEST PUSH1 0x40 MLOAD PUSH4 0x2DE5E9BF PUSH1 0xE0 SHL DUP2 MSTORE PUSH1 0x2 PUSH1 0x4 DUP3 ADD MSTORE PUSH1 0x1 PUSH1 0x1 PUSH1 0xA0 SHL SUB SWAP1 SWAP2 AND PUSH1 0x24 DUP3 ADD MSTORE PUSH1 0x20 DUP2 PUSH1 0x44 DUP2 PUSH20 0x0 GAS DELEGATECALL DUP1 ISZERO PUSH2 0x2B3 JUMPI PUSH1 0x20 SWAP2 PUSH1 0x0 SWAP2 PUSH2 0x141B JUMPI POP PUSH1 0x40 MLOAD SWAP1 ISZERO ISZERO DUP2 MSTORE RETURN JUMPDEST PUSH2 0x1432 SWAP2 POP DUP3 RETURNDATASIZE DUP2 GT PUSH2 0xABF JUMPI PUSH2 0xAB1 DUP2 DUP4 PUSH2 0x2F4E JUMP JUMPDEST DUP3 PUSH2 0x1325 JUMP JUMPDEST CALLVALUE PUSH2 0x2A6 JUMPI PUSH1 0x40 CALLDATASIZE PUSH1 0x3 NOT ADD SLT PUSH2 0x2A6 JUMPI PUSH2 0x1451 PUSH2 0x2CC1 JUMP JUMPDEST PUSH1 0x1 PUSH1 0x1 PUSH1 0xA0 SHL SUB AND PUSH1 0x0 SWAP1 DUP2 MSTORE PUSH1 0x13 PUSH1 0x20 MSTORE PUSH1 0x40 SWAP1 KECCAK256 DUP1 SLOAD PUSH1 0x24 CALLDATALOAD SWAP2 SWAP1 DUP3 LT ISZERO PUSH2 0x2A6 JUMPI PUSH1 0x20 SWAP2 PUSH2 0x1482 SWAP2 PUSH2 0x2F05 JUMP JUMPDEST SWAP1 SLOAD PUSH1 0x40 MLOAD SWAP2 PUSH1 0x3 SHL SHR DUP2 MSTORE RETURN JUMPDEST CALLVALUE PUSH2 0x2A6 JUMPI PUSH1 0x40 CALLDATASIZE PUSH1 0x3 NOT ADD SLT PUSH2 0x2A6 JUMPI PUSH2 0x14A9 PUSH2 0x2CC1 JUMP JUMPDEST PUSH1 0x24 CALLDATALOAD DUP1 ISZERO ISZERO SWAP1 DUP2 PUSH2 0x1552 JUMPI JUMPDEST POP DUP1 PUSH2 0x151B JUMPI JUMPDEST DUP1 PUSH2 0x14D0 JUMPI JUMPDEST PUSH1 0x20 SWAP1 PUSH1 0x40 MLOAD SWAP1 ISZERO ISZERO DUP2 MSTORE RETURN JUMPDEST POP PUSH1 0x1 PUSH1 0x1 PUSH1 0xA0 SHL SUB AND PUSH1 0x0 DUP2 DUP2 MSTORE PUSH1 0xD PUSH1 0x20 MSTORE PUSH1 0x40 SWAP1 KECCAK256 SLOAD PUSH2 0x14F2 SWAP1 PUSH2 0x30C4 JUMP JUMPDEST TIMESTAMP GT DUP1 ISZERO PUSH2 0x1504 JUMPI JUMPDEST PUSH1 0x20 SWAP2 POP PUSH2 0x14C3 JUMP JUMPDEST POP PUSH1 0x0 MSTORE PUSH1 0xC PUSH1 0x20 MSTORE PUSH1 0x20 PUSH1 0x40 PUSH1 0x0 KECCAK256 SLOAD ISZERO PUSH2 0x14FB JUMP JUMPDEST POP PUSH1 0x1 PUSH1 0x1 PUSH1 0xA0 SHL SUB DUP2 AND PUSH1 0x0 SWAP1 DUP2 MSTORE PUSH1 0xB PUSH1 0x20 MSTORE PUSH1 0x40 SWAP1 KECCAK256 SLOAD PUSH3 0xF4240 GT ISZERO DUP1 PUSH2 0x14BD JUMPI POP PUSH1 0xC PUSH1 0x20 MSTORE PUSH1 0x40 PUSH1 0x0 KECCAK256 SLOAD ISZERO PUSH2 0x14BD JUMP JUMPDEST SWAP1 POP PUSH1 0x10 SLOAD LT ISZERO DUP3 PUSH2 0x14B6 JUMP JUMPDEST PUSH2 0x2E4E JUMP JUMPDEST CALLVALUE PUSH2 0x2A6 JUMPI PUSH1 0x20 CALLDATASIZE PUSH1 0x3 NOT ADD SLT PUSH2 0x2A6 JUMPI PUSH1 0x1 PUSH1 0x1 PUSH1 0xA0 SHL SUB PUSH2 0x1585 PUSH2 0x2CC1 JUMP JUMPDEST AND PUSH1 0x0 MSTORE PUSH1 0x13 PUSH1 0x20 MSTORE PUSH2 0x15C3 PUSH2 0x15A8 PUSH2 0x15AF PUSH1 0x40 PUSH1 0x0 KECCAK256 PUSH1 0x40 MLOAD SWAP3 DUP4 DUP1 SWAP3 PUSH2 0x31B5 JUMP JUMPDEST SUB DUP3 PUSH2 0x2F4E JUMP JUMPDEST PUSH1 0x40 MLOAD SWAP2 DUP3 SWAP2 PUSH1 0x20 DUP4 MSTORE PUSH1 0x20 DUP4 ADD SWAP1 PUSH2 0x2CF7 JUMP JUMPDEST SUB SWAP1 RETURN JUMPDEST CALLVALUE PUSH2 0x2A6 JUMPI PUSH1 0x60 CALLDATASIZE PUSH1 0x3 NOT ADD SLT PUSH2 0x2A6 JUMPI PUSH1 0x24 DUP1 CALLDATALOAD SWAP1 PUSH4 0xFFFFFFFF PUSH1 0x4 CALLDATALOAD DUP2 PUSH2 0x15EE PUSH2 0x2E0A JUMP JUMPDEST AND SWAP3 DUP4 ISZERO DUP1 ISZERO PUSH2 0x1BA2 JUMPI JUMPDEST PUSH2 0xD1E JUMPI DUP2 PUSH1 0x0 MSTORE PUSH1 0x20 SWAP1 PUSH1 0x17 DUP3 MSTORE PUSH1 0x40 PUSH1 0x0 KECCAK256 SWAP6 CALLER PUSH1 0x0 MSTORE PUSH1 0xC DUP4 MSTORE PUSH1 0x40 PUSH1 0x0 KECCAK256 SLOAD ISZERO PUSH2 0x1B90 JUMPI DUP7 SLOAD PUSH1 0x1 PUSH1 0x1 PUSH1 0xA0 SHL SUB SWAP8 SWAP1 CALLER SWAP1 DUP10 AND SUB PUSH2 0x1B90 JUMPI PUSH1 0x2 ADD SLOAD PUSH1 0xFF DUP2 AND PUSH2 0x1647 DUP2 PUSH2 0x2CED JUMP JUMPDEST PUSH2 0x1B90 JUMPI PUSH1 0x28 SHR DUP6 AND ISZERO PUSH2 0x1B90 JUMPI PUSH2 0x165D PUSH2 0x301A JUMP JUMPDEST PUSH1 0x40 MLOAD PUSH4 0xC47AB3D PUSH1 0xE2 SHL DUP2 MSTORE PUSH20 0x0 SWAP1 DUP5 DUP2 DUP1 PUSH2 0x1690 ADDRESS PUSH1 0x4 DUP4 ADD PUSH2 0x2F88 JUMP JUMPDEST SUB DUP2 DUP6 GAS DELEGATECALL DUP1 ISZERO PUSH2 0x2B3 JUMPI PUSH2 0x1B73 JUMPI JUMPDEST POP DUP2 ISZERO PUSH2 0x1034 JUMPI DUP5 PUSH1 0x0 MSTORE PUSH1 0x17 DUP5 MSTORE PUSH1 0x40 PUSH1 0x0 KECCAK256 SWAP1 PUSH1 0x2 DUP3 ADD SWAP8 DUP9 SLOAD DUP9 DUP1 DUP3 PUSH1 0x28 SHR AND SWAP2 PUSH1 0x8 SHR AND SUB DUP9 DUP2 GT PUSH2 0x1A77 JUMPI PUSH2 0x16DD SWAP1 PUSH1 0x4 DUP6 ADD PUSH2 0x2F05 JUMP JUMPDEST SWAP1 SLOAD PUSH1 0x3 SWAP5 SWAP2 DUP6 SHL SHR TIMESTAMP GT ISZERO PUSH2 0x1AD5 JUMPI DUP11 PUSH1 0x1 SLOAD AND SWAP2 PUSH1 0x40 MLOAD PUSH4 0xA5118BF1 PUSH1 0xE0 SHL DUP2 MSTORE DUP9 DUP2 PUSH1 0x4 DUP2 DUP8 GAS STATICCALL SWAP1 DUP2 ISZERO PUSH2 0x2B3 JUMPI PUSH1 0x0 SWAP2 PUSH2 0x1AB8 JUMPI JUMPDEST POP DUP4 EXTCODESIZE ISZERO PUSH2 0x2A6 JUMPI PUSH1 0x64 PUSH1 0x0 SWAP3 DUP4 PUSH1 0x40 MLOAD SWAP7 DUP8 SWAP5 DUP6 SWAP4 PUSH4 0x533DFA35 PUSH1 0xE0 SHL DUP6 MSTORE PUSH1 0x4 DUP6 ADD MSTORE DUP11 SIGNEXTEND DUP13 DUP5 ADD MSTORE DUP2 PUSH1 0x44 DUP5 ADD MSTORE GAS CALL SWAP2 DUP3 ISZERO PUSH2 0x2B3 JUMPI DUP5 SWAP3 PUSH2 0x1AA9 JUMPI JUMPDEST POP JUMPDEST ADD SLOAD DUP4 SUB PUSH2 0x1034 JUMPI PUSH1 0x40 MLOAD PUSH4 0x23B872DD PUSH1 0xE0 SHL DUP2 MSTORE CALLER PUSH1 0x4 DUP3 ADD MSTORE ADDRESS PUSH1 0x24 DUP3 ADD MSTORE PUSH1 0x44 DUP2 ADD DUP5 SWAP1 MSTORE DUP6 DUP2 PUSH1 0x64 DUP2 PUSH1 0x0 PUSH32 0x0 DUP16 AND GAS CALL SWAP1 DUP2 ISZERO PUSH2 0x2B3 JUMPI PUSH1 0x0 SWAP2 PUSH2 0x1A8C JUMPI JUMPDEST POP ISZERO PUSH2 0xA85 JUMPI SWAP7 SWAP6 SWAP7 CALLER PUSH1 0x0 MSTORE PUSH1 0xC DUP6 MSTORE PUSH1 0x40 PUSH1 0x0 KECCAK256 PUSH2 0x17DE DUP5 DUP3 SLOAD PUSH2 0x300D JUMP JUMPDEST SWAP1 SSTORE PUSH2 0x17EC DUP4 PUSH1 0xF SLOAD PUSH2 0x300D JUMP JUMPDEST PUSH1 0xF SSTORE PUSH2 0x17FB DUP4 PUSH1 0x10 SLOAD PUSH2 0x30D4 JUMP JUMPDEST PUSH1 0x10 SSTORE DUP6 PUSH1 0x0 MSTORE PUSH1 0x11 DUP6 MSTORE PUSH1 0x40 PUSH1 0x0 KECCAK256 SWAP1 PUSH1 0x2 DUP3 ADD SLOAD SWAP5 PUSH1 0x0 SWAP9 PUSH1 0x7 PUSH1 0x6 DUP6 ADD SWAP5 ADD SWAP10 JUMPDEST DUP5 SLOAD DUP2 LT ISZERO PUSH2 0x18EA JUMPI DUP1 DUP14 PUSH2 0x1837 PUSH2 0x186E SWAP4 DUP9 PUSH2 0x2F05 JUMP JUMPDEST SWAP1 SLOAD SWAP1 DUP10 SHL SHR AND DUP1 PUSH1 0x0 MSTORE DUP13 DUP12 MSTORE DUP12 PUSH2 0x185E DUP12 PUSH2 0x1859 PUSH1 0x40 PUSH1 0x0 KECCAK256 SLOAD DUP14 PUSH2 0x313A JUMP JUMPDEST PUSH2 0x314D JUMP JUMPDEST DUP13 DUP2 PUSH2 0x1873 JUMPI JUMPDEST POP POP POP POP PUSH2 0x30E1 JUMP JUMPDEST PUSH2 0x181F JUMP JUMPDEST PUSH32 0xE3E6AE1E05F069D410556743894AACBB190C1431962422EBE8FCC642A467DD16 SWAP2 DUP5 PUSH1 0x0 MSTORE PUSH1 0x14 DUP3 MSTORE PUSH1 0x40 PUSH1 0x0 KECCAK256 DUP1 SLOAD DUP1 DUP4 GT PUSH2 0x18E2 JUMPI JUMPDEST DUP3 PUSH2 0x18B6 SWAP2 PUSH2 0x300D JUMP JUMPDEST SWAP1 SSTORE DUP5 PUSH1 0x0 MSTORE PUSH1 0xB DUP3 MSTORE PUSH1 0x40 PUSH1 0x0 KECCAK256 PUSH2 0x18D0 DUP3 DUP3 SLOAD PUSH2 0x30D4 JUMP JUMPDEST SWAP1 SSTORE PUSH1 0x40 MLOAD SWAP1 DUP2 MSTORE LOG3 DUP15 DUP12 DUP2 DUP13 PUSH2 0x1865 JUMP JUMPDEST SWAP2 POP DUP2 PUSH2 0x18AC JUMP JUMPDEST POP DUP9 DUP9 SWAP2 DUP13 DUP9 CALLER PUSH1 0x0 MSTORE PUSH1 0xC DUP6 MSTORE PUSH1 0x40 PUSH1 0x0 KECCAK256 SLOAD PUSH1 0x40 MLOAD SWAP2 DUP3 MSTORE DUP6 DUP3 ADD MSTORE PUSH32 0x1B8CD61ED43BEC7C6BDAD3A18FFEE613F99C853D16C50678D248D879E1B43438 PUSH1 0x40 CALLER SWAP3 LOG2 DUP1 DUP3 SLOAD PUSH1 0x28 SHR AND DUP4 PUSH32 0x406356EF25520B09E2EF87C5225167B4161EA4AB691E9434D6EE29EAFCC83FC2 DUP7 PUSH1 0x40 MLOAD DUP5 DUP2 MSTORE LOG2 PUSH32 0x17F13FD3F7C4712AF33F1770EBCB822DD20A2DBC00850EAB48D786623D97B959 DUP6 PUSH1 0xF SLOAD PUSH1 0x40 MLOAD SWAP1 DUP2 MSTORE LOG1 PUSH1 0x0 DUP1 MLOAD PUSH1 0x20 PUSH2 0x340E DUP4 CODECOPY DUP2 MLOAD SWAP2 MSTORE DUP6 PUSH1 0x10 SLOAD PUSH1 0x40 MLOAD SWAP1 DUP2 MSTORE LOG1 PUSH1 0x0 NOT ADD DUP2 DUP2 GT PUSH2 0x1A77 JUMPI DUP3 SLOAD PUSH9 0xFFFFFFFF0000000000 NOT AND PUSH1 0x28 SWAP2 SWAP1 SWAP2 SHL PUSH9 0xFFFFFFFF0000000000 AND OR DUP3 SSTORE DUP2 SLOAD SWAP1 DUP2 PUSH1 0x28 SHR AND ISZERO PUSH2 0x1A41 JUMPI JUMPDEST POP POP POP DUP3 EXTCODESIZE ISZERO PUSH2 0x2A6 JUMPI PUSH1 0x64 PUSH1 0x0 SWAP3 PUSH4 0x3D1A1A1 SWAP5 PUSH1 0x40 MLOAD SWAP6 DUP7 SWAP5 DUP6 SWAP4 PUSH4 0xE63DD531 PUSH1 0xE0 SHL DUP6 MSTORE PUSH1 0x2 PUSH1 0x4 DUP7 ADD MSTORE CALLER SWAP1 DUP6 ADD MSTORE ADDRESS SWAP1 SHL OR PUSH1 0x40 SHL PUSH1 0x44 DUP4 ADD MSTORE GAS DELEGATECALL DUP1 ISZERO PUSH2 0x2B3 JUMPI PUSH2 0x1A32 JUMPI PUSH1 0x1 PUSH1 0x0 SSTORE STOP JUMPDEST PUSH2 0x1A3B SWAP1 PUSH2 0x2F1D JUMP JUMPDEST DUP1 PUSH2 0xFC8 JUMP JUMPDEST PUSH1 0xFF NOT AND PUSH1 0x2 OR SWAP1 SSTORE PUSH32 0x2CA5489B37DD363D1302BAC719E8EE40E540FFBE8C12253570FEA63E11CAD71 PUSH1 0x0 DUP1 LOG2 DUP4 DUP1 DUP1 PUSH2 0x19E0 JUMP JUMPDEST DUP6 PUSH4 0x4E487B71 PUSH1 0xE0 SHL PUSH1 0x0 MSTORE PUSH1 0x11 PUSH1 0x4 MSTORE PUSH1 0x0 REVERT JUMPDEST PUSH2 0x1AA3 SWAP2 POP DUP7 RETURNDATASIZE DUP9 GT PUSH2 0xABF JUMPI PUSH2 0xAB1 DUP2 DUP4 PUSH2 0x2F4E JUMP JUMPDEST DUP11 PUSH2 0x17BD JUMP JUMPDEST PUSH2 0x1AB2 SWAP1 PUSH2 0x2F1D JUMP JUMPDEST DUP12 PUSH2 0x1758 JUMP JUMPDEST PUSH2 0x1ACF SWAP2 POP DUP10 RETURNDATASIZE DUP12 GT PUSH2 0xA7E JUMPI PUSH2 0xA6F DUP2 DUP4 PUSH2 0x2F4E JUMP JUMPDEST DUP14 PUSH2 0x1717 JUMP JUMPDEST DUP11 PUSH1 0x1 SLOAD AND SWAP2 PUSH1 0x40 MLOAD PUSH4 0x4E5ECF13 PUSH1 0xE0 SHL DUP2 MSTORE DUP9 DUP2 PUSH1 0x4 DUP2 DUP8 GAS STATICCALL SWAP1 DUP2 ISZERO PUSH2 0x2B3 JUMPI PUSH1 0x0 SWAP2 PUSH2 0x1B56 JUMPI JUMPDEST POP DUP4 EXTCODESIZE ISZERO PUSH2 0x2A6 JUMPI PUSH1 0x64 PUSH1 0x0 SWAP3 DUP4 PUSH1 0x40 MLOAD SWAP7 DUP8 SWAP5 DUP6 SWAP4 PUSH4 0x533DFA35 PUSH1 0xE0 SHL DUP6 MSTORE PUSH1 0x4 DUP6 ADD MSTORE DUP11 SIGNEXTEND DUP13 DUP5 ADD MSTORE PUSH1 0x1 PUSH1 0x44 DUP5 ADD MSTORE GAS CALL SWAP2 DUP3 ISZERO PUSH2 0x2B3 JUMPI DUP5 SWAP3 PUSH2 0x1B47 JUMPI JUMPDEST POP PUSH2 0x175A JUMP JUMPDEST PUSH2 0x1B50 SWAP1 PUSH2 0x2F1D JUMP JUMPDEST DUP12 PUSH2 0x1B41 JUMP JUMPDEST PUSH2 0x1B6D SWAP2 POP DUP10 RETURNDATASIZE DUP12 GT PUSH2 0xA7E JUMPI PUSH2 0xA6F DUP2 DUP4 PUSH2 0x2F4E JUMP JUMPDEST DUP14 PUSH2 0x1AFF JUMP JUMPDEST PUSH2 0x1B89 SWAP1 DUP6 RETURNDATASIZE DUP8 GT PUSH2 0xABF JUMPI PUSH2 0xAB1 DUP2 DUP4 PUSH2 0x2F4E JUMP JUMPDEST POP DUP9 PUSH2 0x16A0 JUMP JUMPDEST PUSH1 0x40 MLOAD PUSH4 0xB5AB5BF PUSH1 0xE4 SHL DUP2 MSTORE PUSH1 0x4 SWAP1 REVERT JUMPDEST POP PUSH1 0x1 SLOAD PUSH1 0x40 MLOAD PUSH4 0x2CC52B15 PUSH1 0xE1 SHL DUP2 MSTORE CALLER PUSH1 0x4 DUP3 ADD MSTORE SWAP1 PUSH1 0x20 SWAP1 DUP3 SWAP1 DUP5 SWAP1 DUP3 SWAP1 PUSH1 0x1 PUSH1 0x1 PUSH1 0xA0 SHL SUB AND GAS STATICCALL SWAP1 DUP2 ISZERO PUSH2 0x2B3 JUMPI PUSH1 0x0 SWAP2 PUSH2 0x1BE4 JUMPI JUMPDEST POP ISZERO PUSH2 0x15F9 JUMP JUMPDEST PUSH2 0x1BFC SWAP2 POP PUSH1 0x20 RETURNDATASIZE DUP2 GT PUSH2 0xABF JUMPI PUSH2 0xAB1 DUP2 DUP4 PUSH2 0x2F4E JUMP JUMPDEST DUP7 PUSH2 0x1BDD JUMP JUMPDEST CALLVALUE PUSH2 0x2A6 JUMPI PUSH1 0x20 CALLDATASIZE PUSH1 0x3 NOT ADD SLT PUSH2 0x2A6 JUMPI PUSH1 0x4 CALLDATALOAD PUSH1 0x0 MSTORE PUSH1 0x11 PUSH1 0x20 MSTORE PUSH2 0x15C3 PUSH2 0x1C31 PUSH1 0x6 PUSH1 0x40 PUSH1 0x0 KECCAK256 ADD PUSH2 0x33B3 JUMP JUMPDEST PUSH1 0x40 MLOAD SWAP2 DUP3 SWAP2 PUSH1 0x20 DUP4 MSTORE PUSH1 0x20 DUP4 ADD SWAP1 PUSH2 0x2DBA JUMP JUMPDEST CALLVALUE PUSH2 0x2A6 JUMPI PUSH1 0x0 CALLDATASIZE PUSH1 0x3 NOT ADD SLT PUSH2 0x2A6 JUMPI PUSH1 0x20 PUSH1 0x12 SLOAD PUSH1 0x40 MLOAD SWAP1 DUP2 MSTORE RETURN JUMPDEST CALLVALUE PUSH2 0x2A6 JUMPI PUSH1 0x20 CALLDATASIZE PUSH1 0x3 NOT ADD SLT PUSH2 0x2A6 JUMPI PUSH1 0x20 PUSH2 0x1C86 PUSH2 0x1C81 PUSH2 0x2CC1 JUMP JUMPDEST PUSH2 0x3070 JUMP JUMPDEST PUSH1 0x40 MLOAD SWAP1 DUP2 MSTORE RETURN JUMPDEST CALLVALUE PUSH2 0x2A6 JUMPI PUSH1 0x0 CALLDATASIZE PUSH1 0x3 NOT ADD SLT PUSH2 0x2A6 JUMPI PUSH1 0x40 MLOAD PUSH4 0x404B48BF PUSH1 0xE0 SHL DUP2 MSTORE PUSH1 0x2 PUSH1 0x4 DUP3 ADD MSTORE PUSH1 0x0 DUP2 PUSH1 0x24 DUP2 PUSH20 0x0 GAS DELEGATECALL DUP1 ISZERO PUSH2 0x2B3 JUMPI PUSH2 0x15C3 SWAP2 PUSH1 0x0 SWAP2 PUSH2 0x1CF7 JUMPI JUMPDEST POP PUSH1 0x40 MLOAD SWAP2 DUP3 SWAP2 PUSH1 0x20 DUP4 MSTORE PUSH1 0x20 DUP4 ADD SWAP1 PUSH2 0x2DBA JUMP JUMPDEST PUSH2 0x1D14 SWAP2 POP RETURNDATASIZE DUP1 PUSH1 0x0 DUP4 RETURNDATACOPY PUSH2 0x1D0C DUP2 DUP4 PUSH2 0x2F4E JUMP JUMPDEST DUP2 ADD SWAP1 PUSH2 0x31F2 JUMP JUMPDEST DUP3 PUSH2 0x1CE2 JUMP JUMPDEST CALLVALUE PUSH2 0x2A6 JUMPI PUSH1 0x20 CALLDATASIZE PUSH1 0x3 NOT ADD SLT PUSH2 0x2A6 JUMPI PUSH1 0x1 PUSH1 0x1 PUSH1 0xA0 SHL SUB PUSH2 0x1D3B PUSH2 0x2CC1 JUMP JUMPDEST AND PUSH1 0x0 MSTORE PUSH1 0x14 PUSH1 0x20 MSTORE PUSH1 0x20 PUSH1 0x40 PUSH1 0x0 KECCAK256 SLOAD PUSH1 0x40 MLOAD SWAP1 DUP2 MSTORE RETURN JUMPDEST CALLVALUE PUSH2 0x2A6 JUMPI PUSH1 0x20 CALLDATASIZE PUSH1 0x3 NOT ADD SLT PUSH2 0x2A6 JUMPI PUSH2 0x1D6D PUSH2 0x2E1D JUMP JUMPDEST PUSH1 0x1 SLOAD PUSH1 0x40 MLOAD PUSH4 0x2076C8A1 PUSH1 0xE2 SHL DUP2 MSTORE PUSH4 0xFFFFFFFF SWAP3 SWAP1 SWAP3 AND PUSH1 0x4 DUP4 ADD MSTORE PUSH1 0x20 SWAP1 DUP3 SWAP1 PUSH1 0x24 SWAP1 DUP3 SWAP1 PUSH1 0x1 PUSH1 0x1 PUSH1 0xA0 SHL SUB AND GAS STATICCALL DUP1 ISZERO PUSH2 0x2B3 JUMPI PUSH1 0x20 SWAP2 PUSH1 0x0 SWAP2 PUSH2 0x1DBD JUMPI JUMPDEST POP PUSH1 0x40 MLOAD SWAP1 PUSH1 0x3 SIGNEXTEND DUP2 MSTORE RETURN JUMPDEST PUSH2 0x1DD4 SWAP2 POP DUP3 RETURNDATASIZE DUP2 GT PUSH2 0xA7E JUMPI PUSH2 0xA6F DUP2 DUP4 PUSH2 0x2F4E JUMP JUMPDEST DUP3 PUSH2 0x1DB1 JUMP JUMPDEST PUSH2 0x2E30 JUMP JUMPDEST CALLVALUE PUSH2 0x2A6 JUMPI PUSH1 0x20 CALLDATASIZE PUSH1 0x3 NOT ADD SLT PUSH2 0x2A6 JUMPI PUSH1 0x4 CALLDATALOAD PUSH1 0x0 MSTORE PUSH1 0x17 PUSH1 0x20 MSTORE PUSH2 0x15C3 PUSH2 0x15A8 PUSH2 0x15AF PUSH1 0x4 PUSH1 0x40 PUSH1 0x0 KECCAK256 ADD PUSH1 0x40 MLOAD SWAP3 DUP4 DUP1 SWAP3 PUSH2 0x31B5 JUMP JUMPDEST CALLVALUE PUSH2 0x2A6 JUMPI PUSH1 0x0 CALLDATASIZE PUSH1 0x3 NOT ADD SLT PUSH2 0x2A6 JUMPI PUSH1 0x40 MLOAD PUSH4 0xF28E2C2F PUSH1 0xE0 SHL DUP2 MSTORE PUSH1 0x2 PUSH1 0x4 DUP3 ADD MSTORE PUSH1 0x20 DUP2 PUSH1 0x24 DUP2 PUSH20 0x0 GAS DELEGATECALL DUP1 ISZERO PUSH2 0x2B3 JUMPI PUSH1 0x20 SWAP2 PUSH1 0x0 SWAP2 PUSH2 0x141B JUMPI POP PUSH1 0x40 MLOAD SWAP1 ISZERO ISZERO DUP2 MSTORE RETURN JUMPDEST CALLVALUE PUSH2 0x2A6 JUMPI PUSH1 0x0 CALLDATASIZE PUSH1 0x3 NOT ADD SLT PUSH2 0x2A6 JUMPI PUSH1 0x20 PUSH1 0xE SLOAD PUSH1 0x40 MLOAD SWAP1 DUP2 MSTORE RETURN JUMPDEST CALLVALUE PUSH2 0x2A6 JUMPI PUSH1 0x0 CALLDATASIZE PUSH1 0x3 NOT ADD SLT PUSH2 0x2A6 JUMPI PUSH1 0x1 SLOAD PUSH1 0x40 MLOAD PUSH1 0x1 PUSH1 0x1 PUSH1 0xA0 SHL SUB SWAP1 SWAP2 AND DUP2 MSTORE PUSH1 0x20 SWAP1 RETURN JUMPDEST CALLVALUE PUSH2 0x2A6 JUMPI PUSH1 0x20 CALLDATASIZE PUSH1 0x3 NOT ADD SLT PUSH2 0x2A6 JUMPI PUSH1 0x1 PUSH1 0x1 PUSH1 0xA0 SHL SUB PUSH2 0x1EDD PUSH2 0x2CC1 JUMP JUMPDEST AND PUSH1 0x0 MSTORE PUSH1 0xD PUSH1 0x20 MSTORE PUSH1 0x20 PUSH1 0x40 PUSH1 0x0 KECCAK256 SLOAD PUSH1 0x40 MLOAD SWAP1 DUP2 MSTORE RETURN JUMPDEST CALLVALUE PUSH2 0x2A6 JUMPI PUSH1 0x20 CALLDATASIZE PUSH1 0x3 NOT ADD SLT PUSH2 0x2A6 JUMPI PUSH1 0x40 PUSH2 0x1F14 PUSH1 0x4 CALLDATALOAD PUSH2 0x3361 JUMP JUMPDEST DUP3 MLOAD SWAP2 DUP3 MSTORE ISZERO ISZERO PUSH1 0x20 DUP3 ADD MSTORE RETURN JUMPDEST CALLVALUE PUSH2 0x2A6 JUMPI PUSH1 0x40 CALLDATASIZE PUSH1 0x3 NOT ADD SLT PUSH2 0x2A6 JUMPI PUSH1 0x4 CALLDATALOAD PUSH4 0xFFFFFFFF PUSH2 0x1F43 PUSH2 0x2DF7 JUMP JUMPDEST AND ISZERO DUP1 ISZERO PUSH2 0x2123 JUMPI JUMPDEST PUSH2 0xD1E JUMPI DUP1 ISZERO PUSH2 0x1034 JUMPI PUSH2 0x1F5E PUSH2 0x301A JUMP JUMPDEST PUSH1 0x40 MLOAD PUSH4 0xC47AB3D PUSH1 0xE2 SHL DUP2 MSTORE PUSH1 0x20 SWAP1 DUP2 DUP2 DUP1 PUSH2 0x1F7E ADDRESS PUSH1 0x4 DUP4 ADD PUSH2 0x2F88 JUMP JUMPDEST SUB DUP2 PUSH20 0x0 GAS DELEGATECALL DUP1 ISZERO PUSH2 0x2B3 JUMPI PUSH2 0x2106 JUMPI JUMPDEST POP PUSH2 0x1FAC CALLER PUSH2 0x3070 JUMP JUMPDEST DUP3 GT PUSH2 0x20F4 JUMPI CALLER PUSH1 0x0 MSTORE PUSH1 0xB DUP2 MSTORE PUSH1 0x40 PUSH1 0x0 KECCAK256 PUSH2 0x1FCA DUP4 DUP3 SLOAD PUSH2 0x300D JUMP JUMPDEST SWAP1 SSTORE PUSH2 0x1FD8 DUP3 PUSH1 0xE SLOAD PUSH2 0x300D JUMP JUMPDEST PUSH1 0xE SSTORE PUSH2 0x1FE7 DUP3 PUSH1 0x10 SLOAD PUSH2 0x300D JUMP JUMPDEST PUSH1 0x10 SSTORE PUSH1 0x40 MLOAD PUSH4 0xA9059CBB PUSH1 0xE0 SHL DUP2 MSTORE CALLER PUSH1 0x4 DUP3 ADD MSTORE PUSH1 0x24 DUP2 ADD DUP4 SWAP1 MSTORE DUP2 DUP2 PUSH1 0x44 DUP2 PUSH1 0x0 PUSH1 0x1 PUSH1 0x1 PUSH1 0xA0 SHL SUB PUSH32 0x0 AND GAS CALL SWAP1 DUP2 ISZERO PUSH2 0x2B3 JUMPI PUSH1 0x0 SWAP2 PUSH2 0x20D7 JUMPI JUMPDEST POP ISZERO PUSH2 0xA85 JUMPI PUSH1 0x0 DUP1 MLOAD PUSH1 0x20 PUSH2 0x340E DUP4 CODECOPY DUP2 MLOAD SWAP2 MSTORE SWAP2 CALLER PUSH1 0x0 MSTORE PUSH1 0xB DUP3 MSTORE PUSH1 0x40 PUSH1 0x0 KECCAK256 SLOAD PUSH1 0x40 MLOAD SWAP2 DUP3 MSTORE DUP3 DUP3 ADD MSTORE PUSH32 0x92CCF450A286A957AF52509BC1C9939D1A6A481783E142E41E2499F0BB66EBC6 PUSH1 0x40 CALLER SWAP3 LOG2 PUSH32 0xDC6E73D4B36E22AB95945BD8833A5AF96C950EB29D8D75C4AECFFC987637AAAB DUP2 PUSH1 0xE SLOAD PUSH1 0x40 MLOAD SWAP1 DUP2 MSTORE LOG1 PUSH1 0x10 SLOAD PUSH1 0x40 MLOAD SWAP1 DUP2 MSTORE LOG1 PUSH1 0x1 PUSH1 0x0 SSTORE STOP JUMPDEST PUSH2 0x20EE SWAP2 POP DUP3 RETURNDATASIZE DUP5 GT PUSH2 0xABF JUMPI PUSH2 0xAB1 DUP2 DUP4 PUSH2 0x2F4E JUMP JUMPDEST DUP4 PUSH2 0x2046 JUMP JUMPDEST PUSH1 0x40 MLOAD PUSH4 0x2C6F547 PUSH1 0xE2 SHL DUP2 MSTORE PUSH1 0x4 SWAP1 REVERT JUMPDEST PUSH2 0x211C SWAP1 DUP3 RETURNDATASIZE DUP5 GT PUSH2 0xABF JUMPI PUSH2 0xAB1 DUP2 DUP4 PUSH2 0x2F4E JUMP JUMPDEST POP DUP3 PUSH2 0x1FA2 JUMP JUMPDEST POP PUSH1 0x1 SLOAD PUSH1 0x40 MLOAD PUSH4 0x2CC52B15 PUSH1 0xE1 SHL DUP2 MSTORE CALLER PUSH1 0x4 DUP3 ADD MSTORE SWAP1 PUSH1 0x20 SWAP1 DUP3 SWAP1 PUSH1 0x24 SWAP1 DUP3 SWAP1 PUSH1 0x1 PUSH1 0x1 PUSH1 0xA0 SHL SUB AND GAS STATICCALL SWAP1 DUP2 ISZERO PUSH2 0x2B3 JUMPI PUSH1 0x0 SWAP2 PUSH2 0x2166 JUMPI JUMPDEST POP ISZERO PUSH2 0x1F4C JUMP JUMPDEST PUSH2 0x217E SWAP2 POP PUSH1 0x20 RETURNDATASIZE DUP2 GT PUSH2 0xABF JUMPI PUSH2 0xAB1 DUP2 DUP4 PUSH2 0x2F4E JUMP JUMPDEST DUP3 PUSH2 0x215F JUMP JUMPDEST CALLVALUE PUSH2 0x2A6 JUMPI PUSH1 0x20 CALLDATASIZE PUSH1 0x3 NOT ADD SLT PUSH2 0x2A6 JUMPI PUSH2 0x219D PUSH2 0x2CC1 JUMP JUMPDEST PUSH1 0x1 SLOAD PUSH1 0x40 MLOAD PUSH4 0x2CC52B15 PUSH1 0xE1 SHL DUP2 MSTORE PUSH1 0x1 PUSH1 0x1 PUSH1 0xA0 SHL SUB SWAP3 DUP4 AND PUSH1 0x4 DUP3 ADD MSTORE SWAP2 PUSH1 0x20 SWAP2 DUP4 SWAP2 PUSH1 0x24 SWAP2 DUP4 SWAP2 AND GAS STATICCALL DUP1 ISZERO PUSH2 0x2B3 JUMPI PUSH1 0x20 SWAP2 PUSH1 0x0 SWAP2 PUSH2 0x141B JUMPI POP PUSH1 0x40 MLOAD SWAP1 ISZERO ISZERO DUP2 MSTORE RETURN JUMPDEST CALLVALUE PUSH2 0x2A6 JUMPI PUSH1 0x40 CALLDATASIZE PUSH1 0x3 NOT ADD SLT PUSH2 0x2A6 JUMPI PUSH2 0x21FF PUSH2 0x2CD7 JUMP JUMPDEST PUSH1 0x4 CALLDATALOAD PUSH1 0x0 MSTORE PUSH1 0x11 PUSH1 0x20 MSTORE PUSH1 0x7 PUSH1 0x40 PUSH1 0x0 KECCAK256 ADD SWAP1 PUSH1 0x1 DUP1 PUSH1 0xA0 SHL SUB AND PUSH1 0x0 MSTORE PUSH1 0x20 MSTORE PUSH1 0x20 PUSH1 0x40 PUSH1 0x0 KECCAK256 SLOAD PUSH1 0x40 MLOAD SWAP1 DUP2 MSTORE RETURN JUMPDEST CALLVALUE PUSH2 0x2A6 JUMPI PUSH1 0x20 CALLDATASIZE PUSH1 0x3 NOT ADD SLT PUSH2 0x2A6 JUMPI PUSH1 0x1 PUSH1 0x1 PUSH1 0xA0 SHL SUB PUSH2 0x2252 PUSH2 0x2CC1 JUMP JUMPDEST AND PUSH1 0x0 MSTORE PUSH1 0xB PUSH1 0x20 MSTORE PUSH1 0x20 PUSH1 0x40 PUSH1 0x0 KECCAK256 SLOAD PUSH1 0x40 MLOAD SWAP1 DUP2 MSTORE RETURN JUMPDEST CALLVALUE PUSH2 0x2A6 JUMPI PUSH1 0x20 CALLDATASIZE PUSH1 0x3 NOT ADD SLT PUSH2 0x2A6 JUMPI PUSH2 0x2284 PUSH2 0x327C JUMP JUMPDEST POP PUSH1 0x4 CALLDATALOAD PUSH1 0x0 MSTORE PUSH1 0x17 PUSH1 0x20 MSTORE PUSH2 0x15C3 PUSH2 0x22A0 PUSH1 0x40 PUSH1 0x0 KECCAK256 PUSH2 0x32C3 JUMP JUMPDEST PUSH1 0x40 MLOAD SWAP2 DUP3 SWAP2 PUSH1 0x20 DUP4 MSTORE PUSH1 0x20 DUP4 ADD SWAP1 PUSH2 0x2D2B JUMP JUMPDEST CALLVALUE PUSH2 0x2A6 JUMPI PUSH1 0x20 CALLDATASIZE PUSH1 0x3 NOT ADD SLT PUSH2 0x2A6 JUMPI PUSH2 0x22CD PUSH2 0x2CC1 JUMP JUMPDEST PUSH1 0x40 MLOAD PUSH4 0xB79B0A1 PUSH1 0xE2 SHL DUP2 MSTORE PUSH1 0x2 PUSH1 0x4 DUP3 ADD MSTORE PUSH1 0x1 PUSH1 0x1 PUSH1 0xA0 SHL SUB SWAP1 SWAP2 AND PUSH1 0x24 DUP3 ADD MSTORE PUSH1 0x20 DUP2 PUSH1 0x44 DUP2 PUSH20 0x0 GAS DELEGATECALL DUP1 ISZERO PUSH2 0x2B3 JUMPI PUSH1 0x20 SWAP2 PUSH1 0x0 SWAP2 PUSH2 0x141B JUMPI POP PUSH1 0x40 MLOAD SWAP1 ISZERO ISZERO DUP2 MSTORE RETURN JUMPDEST CALLVALUE PUSH2 0x2A6 JUMPI PUSH1 0x20 CALLDATASIZE PUSH1 0x3 NOT ADD SLT PUSH2 0x2A6 JUMPI PUSH1 0x4 CALLDATALOAD PUSH1 0x0 MSTORE PUSH1 0x17 PUSH1 0x20 MSTORE PUSH1 0xA0 PUSH1 0x40 PUSH1 0x0 KECCAK256 PUSH1 0x11 PUSH1 0x20 MSTORE PUSH1 0x40 PUSH1 0x0 KECCAK256 SWAP1 PUSH1 0x2 DUP2 ADD SLOAD SWAP2 PUSH1 0xFF DUP4 AND PUSH2 0x236A DUP2 PUSH2 0x2CED JUMP JUMPDEST ISZERO DUP1 PUSH2 0x23D4 JUMPI JUMPDEST ISZERO PUSH2 0x23BC JUMPI PUSH1 0x3 PUSH4 0xFFFFFFFF DUP1 SWAP5 PUSH1 0x28 SHR AND SWAP3 ADD SLOAD SWAP3 PUSH1 0x8 PUSH2 0x2393 DUP6 DUP6 PUSH2 0x313A JUMP JUMPDEST SWAP5 SWAP4 SWAP3 ADD SLOAD AND SWAP1 PUSH1 0x1 SWAP3 JUMPDEST PUSH1 0x40 MLOAD SWAP5 DUP6 MSTORE PUSH1 0x20 DUP6 ADD MSTORE PUSH1 0x40 DUP5 ADD MSTORE PUSH1 0x60 DUP4 ADD MSTORE ISZERO ISZERO PUSH1 0x80 DUP3 ADD MSTORE RETURN JUMPDEST PUSH1 0x8 ADD SLOAD PUSH1 0x0 SWAP3 POP DUP3 SWAP2 POP PUSH4 0xFFFFFFFF AND DUP2 DUP1 PUSH2 0x239E JUMP JUMPDEST POP PUSH4 0xFFFFFFFF DUP4 PUSH1 0x28 SHR AND ISZERO ISZERO PUSH2 0x2371 JUMP JUMPDEST CALLVALUE PUSH2 0x2A6 JUMPI PUSH1 0x20 CALLDATASIZE PUSH1 0x3 NOT ADD SLT PUSH2 0x2A6 JUMPI PUSH1 0x4 CALLDATALOAD PUSH1 0x0 MSTORE PUSH1 0x17 PUSH1 0x20 MSTORE PUSH1 0xE0 PUSH1 0x40 PUSH1 0x0 KECCAK256 PUSH1 0x1 DUP1 PUSH1 0xA0 SHL SUB DUP2 SLOAD AND SWAP1 PUSH1 0x1 DUP2 ADD SLOAD SWAP1 PUSH1 0x2 DUP2 ADD SLOAD PUSH1 0xFF DUP2 AND PUSH1 0x6 PUSH1 0x3 DUP5 ADD SLOAD SWAP4 ADD SLOAD SWAP4 PUSH1 0x40 MLOAD SWAP6 DUP7 MSTORE PUSH1 0x20 DUP7 ADD MSTORE PUSH2 0x2442 DUP2 PUSH2 0x2CED JUMP JUMPDEST PUSH1 0x40 DUP6 ADD MSTORE PUSH4 0xFFFFFFFF SWAP1 DUP2 DUP2 PUSH1 0x8 SHR AND PUSH1 0x60 DUP7 ADD MSTORE PUSH1 0x28 SHR AND PUSH1 0x80 DUP5 ADD MSTORE PUSH1 0xA0 DUP4 ADD MSTORE PUSH1 0xC0 DUP3 ADD MSTORE RETURN JUMPDEST CALLVALUE PUSH2 0x2A6 JUMPI PUSH1 0x40 CALLDATASIZE PUSH1 0x3 NOT ADD SLT PUSH2 0x2A6 JUMPI PUSH2 0x2486 PUSH2 0x2E1D JUMP JUMPDEST PUSH2 0x248E PUSH2 0x2CD7 JUMP JUMPDEST PUSH1 0x1 SLOAD SWAP1 SWAP2 SWAP1 PUSH1 0x1 PUSH1 0x1 PUSH1 0xA0 SHL SUB SWAP1 DUP2 AND DUP1 EXTCODESIZE ISZERO PUSH2 0x2A6 JUMPI PUSH1 0x0 SWAP3 DUP4 PUSH1 0x44 SWAP3 PUSH4 0xFFFFFFFF SWAP5 PUSH1 0x40 MLOAD SWAP8 DUP9 SWAP7 DUP8 SWAP6 PUSH4 0x86ECC79 PUSH1 0xE2 SHL DUP8 MSTORE AND PUSH1 0x4 DUP7 ADD MSTORE AND PUSH1 0x24 DUP5 ADD MSTORE GAS CALL DUP1 ISZERO PUSH2 0x2B3 JUMPI PUSH2 0x12D4 JUMPI STOP JUMPDEST CALLVALUE PUSH2 0x2A6 JUMPI PUSH1 0x20 CALLDATASIZE PUSH1 0x3 NOT ADD SLT PUSH2 0x2A6 JUMPI PUSH1 0x0 PUSH2 0x100 PUSH1 0x40 MLOAD PUSH2 0x2501 DUP2 PUSH2 0x2F31 JUMP JUMPDEST DUP3 DUP2 MSTORE DUP3 PUSH1 0x20 DUP3 ADD MSTORE DUP3 PUSH1 0x40 DUP3 ADD MSTORE DUP3 PUSH1 0x60 DUP3 ADD MSTORE DUP3 PUSH1 0x80 DUP3 ADD MSTORE DUP3 PUSH1 0xA0 DUP3 ADD MSTORE DUP3 PUSH1 0xC0 DUP3 ADD MSTORE PUSH1 0x60 PUSH1 0xE0 DUP3 ADD MSTORE ADD MSTORE PUSH1 0x4 CALLDATALOAD PUSH1 0x0 MSTORE PUSH1 0x11 PUSH1 0x20 MSTORE PUSH1 0x40 PUSH1 0x0 KECCAK256 DUP1 SLOAD SWAP1 PUSH1 0x1 DUP1 PUSH1 0xA0 SHL SUB PUSH1 0x1 DUP3 ADD SLOAD AND SWAP1 PUSH1 0x2 DUP2 ADD SLOAD SWAP1 PUSH1 0x3 DUP2 ADD SLOAD SWAP1 PUSH4 0xFFFFFFFF PUSH1 0xFF DUP4 PUSH1 0x40 SHR AND SWAP3 PUSH1 0x5 DUP4 ADD SLOAD SWAP5 DUP3 PUSH1 0x8 DUP6 ADD SLOAD AND SWAP7 PUSH1 0x40 MLOAD SWAP9 PUSH2 0x2586 DUP11 PUSH2 0x2F31 JUMP JUMPDEST DUP10 MSTORE PUSH1 0x20 DUP10 ADD MSTORE PUSH1 0x40 DUP9 ADD MSTORE DUP2 DUP2 AND PUSH1 0x60 DUP9 ADD MSTORE PUSH1 0x20 SHR AND PUSH1 0x80 DUP7 ADD MSTORE PUSH1 0x6 DUP3 LT ISZERO PUSH2 0xCD4 JUMPI PUSH2 0x25C3 SWAP3 PUSH1 0x6 SWAP3 PUSH1 0xA0 DUP8 ADD MSTORE PUSH1 0xC0 DUP7 ADD MSTORE ADD PUSH2 0x33B3 JUMP JUMPDEST PUSH1 0xE0 DUP4 ADD MSTORE PUSH2 0x100 DUP3 ADD MSTORE PUSH1 0x40 MLOAD SWAP1 PUSH1 0x20 DUP3 MSTORE DUP1 MLOAD PUSH1 0x20 DUP4 ADD MSTORE PUSH1 0x1 DUP1 PUSH1 0xA0 SHL SUB PUSH1 0x20 DUP3 ADD MLOAD AND PUSH1 0x40 DUP4 ADD MSTORE PUSH1 0x40 DUP2 ADD MLOAD PUSH1 0x60 DUP4 ADD MSTORE PUSH4 0xFFFFFFFF PUSH1 0x60 DUP3 ADD MLOAD AND PUSH1 0x80 DUP4 ADD MSTORE PUSH4 0xFFFFFFFF PUSH1 0x80 DUP3 ADD MLOAD AND PUSH1 0xA0 DUP4 ADD MSTORE PUSH1 0xA0 DUP2 ADD MLOAD SWAP1 PUSH1 0x6 DUP3 LT ISZERO PUSH2 0xCD4 JUMPI DUP3 SWAP2 PUSH1 0xC0 DUP4 ADD MSTORE PUSH1 0xC0 DUP2 ADD MLOAD PUSH1 0xE0 DUP4 ADD MSTORE PUSH1 0xE0 DUP2 ADD MLOAD PUSH4 0xFFFFFFFF PUSH2 0x100 PUSH2 0x265D PUSH2 0x120 SWAP4 DUP5 DUP4 DUP9 ADD MSTORE PUSH2 0x140 DUP8 ADD SWAP1 PUSH2 0x2DBA JUMP JUMPDEST SWAP4 ADD MLOAD AND SWAP1 DUP4 ADD MSTORE SUB SWAP1 RETURN JUMPDEST CALLVALUE PUSH2 0x2A6 JUMPI PUSH1 0x80 CALLDATASIZE PUSH1 0x3 NOT ADD SLT PUSH2 0x2A6 JUMPI PUSH1 0x4 CALLDATALOAD PUSH2 0x2685 PUSH2 0x2DF7 JUMP JUMPDEST SWAP1 PUSH2 0x268E PUSH2 0x2E0A JUMP JUMPDEST SWAP1 PUSH1 0x64 CALLDATALOAD SWAP2 PUSH4 0xFFFFFFFF SWAP1 DUP2 DUP5 AND DUP1 SWAP5 SUB PUSH2 0x2A6 JUMPI DUP4 PUSH1 0x0 MSTORE PUSH1 0x20 SWAP5 PUSH1 0x15 DUP7 MSTORE PUSH1 0x3 DUP4 PUSH1 0x40 PUSH1 0x0 KECCAK256 SLOAD AND LT ISZERO PUSH2 0x28C2 JUMPI DUP5 ISZERO DUP1 ISZERO PUSH2 0x2863 JUMPI JUMPDEST PUSH2 0xD1E JUMPI DUP4 ISZERO PUSH2 0x1034 JUMPI DUP3 AND SWAP1 PUSH1 0x46 DUP3 GT DUP1 ISZERO SWAP1 PUSH2 0x2859 JUMPI JUMPDEST PUSH2 0xCFC JUMPI DUP3 AND SWAP2 PUSH1 0x1 DUP4 LT DUP1 ISZERO PUSH2 0x284F JUMPI JUMPDEST PUSH2 0x283D JUMPI PUSH1 0x10 SLOAD DUP5 GT PUSH2 0x282B JUMPI CALLER PUSH1 0x0 MSTORE PUSH1 0x16 DUP7 MSTORE PUSH1 0x40 PUSH1 0x0 KECCAK256 SLOAD DUP1 PUSH2 0x27F5 JUMPI JUMPDEST POP PUSH1 0x12 SLOAD SWAP5 PUSH2 0x2721 DUP7 PUSH2 0x30E1 JUMP JUMPDEST PUSH1 0x12 SSTORE DUP6 PUSH1 0x0 MSTORE PUSH1 0x11 DUP8 MSTORE PUSH1 0x40 PUSH1 0x0 KECCAK256 SWAP3 PUSH1 0x1 DUP5 ADD CALLER PUSH12 0xFFFFFFFFFFFFFFFFFFFFFFFF PUSH1 0xA0 SHL DUP3 SLOAD AND OR SWAP1 SSTORE DUP6 PUSH1 0x2 DUP6 ADD SSTORE PUSH1 0x3 DUP5 ADD SWAP1 PUSH9 0xFFFFFFFFFFFFFFFFFF NOT DUP3 SLOAD AND OR SWAP1 SSTORE TIMESTAMP PUSH1 0x5 DUP5 ADD SSTORE DUP6 PUSH1 0x8 DUP5 ADD SWAP4 PUSH4 0xFFFFFFFF NOT SWAP5 DUP7 DUP7 DUP3 SLOAD AND OR SWAP1 SSTORE SSTORE CALLER PUSH1 0x0 MSTORE PUSH1 0x13 DUP8 MSTORE PUSH2 0x279B DUP7 PUSH1 0x40 PUSH1 0x0 KECCAK256 PUSH2 0x30F0 JUMP JUMPDEST PUSH1 0x0 MSTORE PUSH1 0x15 DUP7 MSTORE PUSH1 0x40 PUSH1 0x0 KECCAK256 SWAP2 DUP3 SLOAD SWAP2 PUSH2 0x27B6 DUP2 DUP5 AND PUSH2 0x3125 JUMP JUMPDEST AND SWAP2 AND OR SWAP1 SSTORE PUSH1 0x40 MLOAD SWAP2 DUP3 MSTORE DUP4 DUP3 ADD MSTORE DUP2 PUSH32 0xDE3B47CF7DA95A3CC41B86CF8717EAD8D56A76EE1590481C5C4DC4D8804C40C4 PUSH1 0x40 CALLER SWAP4 LOG3 PUSH1 0x40 MLOAD SWAP1 DUP2 MSTORE RETURN JUMPDEST PUSH1 0x0 MSTORE PUSH1 0x17 DUP7 MSTORE PUSH2 0x280D PUSH1 0x6 PUSH1 0x40 PUSH1 0x0 KECCAK256 ADD SLOAD PUSH2 0x30C4 JUMP JUMPDEST TIMESTAMP LT PUSH2 0x2819 JUMPI DUP7 PUSH2 0x2713 JUMP JUMPDEST PUSH1 0x40 MLOAD PUSH4 0xC6061C85 PUSH1 0xE0 SHL DUP2 MSTORE PUSH1 0x4 SWAP1 REVERT JUMPDEST PUSH1 0x40 MLOAD PUSH4 0x356680B7 PUSH1 0xE0 SHL DUP2 MSTORE PUSH1 0x4 SWAP1 REVERT JUMPDEST PUSH1 0x40 MLOAD PUSH4 0x524EFF27 PUSH1 0xE0 SHL DUP2 MSTORE PUSH1 0x4 SWAP1 REVERT JUMPDEST POP PUSH1 0xC DUP4 GT PUSH2 0x26F2 JUMP JUMPDEST POP PUSH1 0x64 DUP3 GT PUSH2 0x26E0 JUMP JUMPDEST POP PUSH1 0x1 SLOAD PUSH1 0x40 MLOAD PUSH4 0x2CC52B15 PUSH1 0xE1 SHL DUP2 MSTORE CALLER PUSH1 0x4 DUP3 ADD MSTORE SWAP1 DUP8 SWAP1 DUP3 SWAP1 PUSH1 0x24 SWAP1 DUP3 SWAP1 PUSH1 0x1 PUSH1 0x1 PUSH1 0xA0 SHL SUB AND GAS STATICCALL SWAP1 DUP2 ISZERO PUSH2 0x2B3 JUMPI PUSH1 0x0 SWAP2 PUSH2 0x28A5 JUMPI JUMPDEST POP ISZERO PUSH2 0x26C7 JUMP JUMPDEST PUSH2 0x28BC SWAP2 POP DUP8 RETURNDATASIZE DUP10 GT PUSH2 0xABF JUMPI PUSH2 0xAB1 DUP2 DUP4 PUSH2 0x2F4E JUMP JUMPDEST DUP8 PUSH2 0x289E JUMP JUMPDEST PUSH1 0x40 MLOAD PUSH4 0x5AAD290F PUSH1 0xE0 SHL DUP2 MSTORE PUSH1 0x4 SWAP1 REVERT JUMPDEST CALLVALUE PUSH2 0x2A6 JUMPI PUSH1 0x0 CALLDATASIZE PUSH1 0x3 NOT ADD SLT PUSH2 0x2A6 JUMPI PUSH1 0x40 MLOAD PUSH4 0x7FD5E70B PUSH1 0xE0 SHL DUP2 MSTORE PUSH1 0x2 PUSH1 0x4 DUP3 ADD MSTORE PUSH1 0x0 DUP2 PUSH1 0x24 DUP2 PUSH20 0x0 GAS DELEGATECALL DUP1 ISZERO PUSH2 0x2B3 JUMPI PUSH2 0x15C3 SWAP2 PUSH1 0x0 SWAP2 PUSH2 0x1CF7 JUMPI POP PUSH1 0x40 MLOAD SWAP2 DUP3 SWAP2 PUSH1 0x20 DUP4 MSTORE PUSH1 0x20 DUP4 ADD SWAP1 PUSH2 0x2DBA JUMP JUMPDEST CALLVALUE PUSH2 0x2A6 JUMPI PUSH1 0x20 DUP1 PUSH1 0x3 NOT CALLDATASIZE ADD SLT PUSH2 0x2A6 JUMPI PUSH1 0x1 PUSH1 0x1 PUSH1 0xA0 SHL SUB SWAP1 DUP2 PUSH2 0x2960 PUSH2 0x2CC1 JUMP JUMPDEST AND SWAP2 DUP3 PUSH1 0x0 MSTORE PUSH1 0x13 DUP3 MSTORE PUSH1 0x40 PUSH1 0x0 KECCAK256 PUSH1 0x0 SWAP4 PUSH1 0x0 SWAP2 DUP1 SLOAD SWAP3 JUMPDEST DUP4 DUP2 LT PUSH2 0x2B21 JUMPI POP PUSH2 0x298A DUP7 PUSH2 0x3157 JUMP JUMPDEST SWAP6 PUSH2 0x2998 PUSH1 0x40 MLOAD SWAP8 DUP9 PUSH2 0x2F4E JUMP JUMPDEST DUP1 DUP8 MSTORE PUSH1 0x1F NOT PUSH2 0x29A7 DUP3 PUSH2 0x3157 JUMP JUMPDEST ADD PUSH1 0x0 JUMPDEST DUP2 DUP2 LT PUSH2 0x2B06 JUMPI POP POP PUSH2 0x29BD SWAP1 PUSH2 0x316F JUMP JUMPDEST SWAP4 PUSH1 0x0 SWAP3 PUSH1 0x0 JUMPDEST DUP6 DUP2 LT PUSH2 0x2A44 JUMPI DUP9 DUP9 DUP9 PUSH1 0x40 MLOAD SWAP3 DUP4 SWAP2 PUSH1 0x40 DUP4 ADD SWAP4 PUSH1 0x40 DUP5 MSTORE DUP3 MLOAD DUP1 SWAP6 MSTORE PUSH1 0x60 DUP5 ADD SWAP5 DUP2 PUSH1 0x60 DUP3 PUSH1 0x5 SHL DUP8 ADD ADD SWAP5 ADD SWAP6 PUSH1 0x0 SWAP1 JUMPDEST DUP3 DUP3 LT PUSH2 0x2A14 JUMPI POP POP POP DUP4 PUSH2 0x15C3 SWAP5 SWAP6 POP DUP4 SUB SWAP1 DUP6 ADD MSTORE PUSH2 0x2CF7 JUMP JUMPDEST SWAP2 SWAP4 SWAP6 POP SWAP2 SWAP4 DUP5 DUP1 PUSH2 0x2A32 PUSH1 0x1 SWAP4 PUSH1 0x5F NOT DUP13 DUP3 SUB ADD DUP7 MSTORE DUP11 MLOAD PUSH2 0x2D2B JUMP JUMPDEST SWAP9 ADD SWAP3 ADD SWAP3 ADD DUP8 SWAP6 SWAP4 SWAP2 SWAP7 SWAP5 SWAP3 PUSH2 0x29F8 JUMP JUMPDEST PUSH2 0x2A51 DUP2 DUP6 SWAP11 SWAP10 SWAP11 PUSH2 0x2F05 JUMP JUMPDEST SWAP1 SLOAD PUSH1 0x3 SWAP2 DUP3 SHL SHR PUSH1 0x0 MSTORE PUSH1 0x17 DUP11 MSTORE PUSH1 0x40 PUSH1 0x0 KECCAK256 DUP4 DUP6 DUP3 SLOAD AND EQ DUP1 PUSH2 0x2AEE JUMPI JUMPDEST DUP1 PUSH2 0x2AD8 JUMPI JUMPDEST PUSH2 0x2A8F JUMPI JUMPDEST POP POP PUSH2 0x2A87 SWAP1 PUSH2 0x30E1 JUMP JUMPDEST SWAP8 SWAP7 SWAP8 PUSH2 0x29C4 JUMP JUMPDEST SWAP6 PUSH2 0x2AD0 SWAP2 PUSH2 0x2AA1 PUSH2 0x2A87 SWAP5 SWAP9 PUSH2 0x32C3 JUMP JUMPDEST PUSH2 0x2AAB DUP4 DUP14 PUSH2 0x31A1 JUMP JUMPDEST MSTORE PUSH2 0x2AB6 DUP3 DUP13 PUSH2 0x31A1 JUMP JUMPDEST POP PUSH2 0x2AC1 DUP9 DUP9 PUSH2 0x2F05 JUMP JUMPDEST SWAP1 SLOAD SWAP2 SHL SHR PUSH2 0xC07 DUP3 DUP12 PUSH2 0x31A1 JUMP JUMPDEST SWAP5 SWAP1 DUP11 PUSH2 0x2A7C JUMP JUMPDEST POP PUSH4 0xFFFFFFFF PUSH1 0x2 DUP3 ADD SLOAD PUSH1 0x28 SHR AND ISZERO ISZERO PUSH2 0x2A77 JUMP JUMPDEST POP PUSH1 0xFF PUSH1 0x2 DUP3 ADD SLOAD AND PUSH2 0x2B00 DUP2 PUSH2 0x2CED JUMP JUMPDEST ISZERO PUSH2 0x2A71 JUMP JUMPDEST SWAP7 DUP1 SWAP9 SWAP8 PUSH2 0x2B12 PUSH2 0x327C JUMP JUMPDEST DUP3 DUP3 DUP12 ADD ADD MSTORE ADD SWAP8 SWAP7 SWAP8 PUSH2 0x29AB JUMP JUMPDEST PUSH2 0x2B2E DUP2 DUP4 SWAP9 SWAP8 SWAP9 PUSH2 0x2F05 JUMP JUMPDEST SWAP1 SLOAD SWAP1 PUSH1 0x3 SHL SHR PUSH1 0x0 MSTORE PUSH1 0x17 DUP8 MSTORE PUSH1 0x40 PUSH1 0x0 KECCAK256 DUP4 DUP7 DUP3 SLOAD AND EQ SWAP1 DUP2 PUSH2 0x2B97 JUMPI JUMPDEST DUP2 PUSH2 0x2B80 JUMPI JUMPDEST POP PUSH2 0x2B6B JUMPI JUMPDEST PUSH2 0x2B63 SWAP1 PUSH2 0x30E1 JUMP JUMPDEST SWAP6 SWAP5 SWAP6 PUSH2 0x2979 JUMP JUMPDEST SWAP5 PUSH2 0x2B78 PUSH2 0x2B63 SWAP2 PUSH2 0x30E1 JUMP JUMPDEST SWAP6 SWAP1 POP PUSH2 0x2B5A JUMP JUMPDEST PUSH4 0xFFFFFFFF SWAP2 POP PUSH1 0x2 ADD SLOAD PUSH1 0x28 SHR AND ISZERO ISZERO DUP9 PUSH2 0x2B54 JUMP JUMPDEST SWAP1 POP PUSH1 0xFF PUSH1 0x2 DUP3 ADD SLOAD AND PUSH2 0x2BAA DUP2 PUSH2 0x2CED JUMP JUMPDEST ISZERO SWAP1 PUSH2 0x2B4E JUMP JUMPDEST CALLVALUE PUSH2 0x2A6 JUMPI PUSH1 0x0 CALLDATASIZE PUSH1 0x3 NOT ADD SLT PUSH2 0x2A6 JUMPI PUSH1 0x20 PUSH1 0xF SLOAD PUSH1 0x40 MLOAD SWAP1 DUP2 MSTORE RETURN JUMPDEST CALLVALUE PUSH2 0x2A6 JUMPI PUSH1 0x20 CALLDATASIZE PUSH1 0x3 NOT ADD SLT PUSH2 0x2A6 JUMPI PUSH8 0xFFFFFFFFFFFFFFFF PUSH1 0x4 CALLDATALOAD DUP2 DUP2 GT PUSH2 0x2A6 JUMPI CALLDATASIZE PUSH1 0x23 DUP3 ADD SLT ISZERO PUSH2 0x2A6 JUMPI DUP1 PUSH1 0x4 ADD CALLDATALOAD SWAP2 DUP3 GT PUSH2 0x2A6 JUMPI PUSH1 0x24 PUSH1 0x5 SWAP2 CALLDATASIZE DUP3 DUP6 DUP6 SHL DUP4 ADD ADD GT PUSH2 0x2A6 JUMPI ADDRESS PUSH1 0x20 SHL PUSH4 0x3D1A1A1 OR PUSH1 0x40 SHL SWAP4 SWAP3 PUSH20 0x0 SWAP2 PUSH1 0x0 JUMPDEST DUP6 DUP2 LT PUSH2 0x2C4D JUMPI STOP JUMPDEST DUP1 DUP4 SHL DUP3 ADD DUP6 ADD CALLDATALOAD PUSH1 0x1 PUSH1 0x1 PUSH1 0xA0 SHL SUB DUP2 AND SWAP2 SWAP1 DUP3 SWAP1 SUB PUSH2 0x2A6 JUMPI DUP5 EXTCODESIZE ISZERO PUSH2 0x2A6 JUMPI PUSH1 0x40 MLOAD SWAP2 PUSH4 0xE63DD531 PUSH1 0xE0 SHL DUP4 MSTORE PUSH1 0x2 PUSH1 0x4 DUP5 ADD MSTORE DUP7 DUP4 ADD MSTORE DUP8 PUSH1 0x44 DUP4 ADD MSTORE PUSH1 0x0 DUP3 PUSH1 0x64 DUP2 DUP9 GAS DELEGATECALL SWAP2 DUP3 ISZERO PUSH2 0x2B3 JUMPI PUSH2 0x2CAD SWAP3 PUSH2 0x2CB2 JUMPI JUMPDEST POP PUSH2 0x30E1 JUMP JUMPDEST PUSH2 0x2C44 JUMP JUMPDEST PUSH2 0x2CBB SWAP1 PUSH2 0x2F1D JUMP JUMPDEST DUP9 PUSH2 0x2CA7 JUMP JUMPDEST PUSH1 0x4 CALLDATALOAD SWAP1 PUSH1 0x1 PUSH1 0x1 PUSH1 0xA0 SHL SUB DUP3 AND DUP3 SUB PUSH2 0x2A6 JUMPI JUMP JUMPDEST PUSH1 0x24 CALLDATALOAD SWAP1 PUSH1 0x1 PUSH1 0x1 PUSH1 0xA0 SHL SUB DUP3 AND DUP3 SUB PUSH2 0x2A6 JUMPI JUMP JUMPDEST PUSH1 0x3 GT ISZERO PUSH2 0xCD4 JUMPI JUMP JUMPDEST SWAP1 DUP2 MLOAD DUP1 DUP3 MSTORE PUSH1 0x20 DUP1 DUP1 SWAP4 ADD SWAP4 ADD SWAP2 PUSH1 0x0 JUMPDEST DUP3 DUP2 LT PUSH2 0x2D17 JUMPI POP POP POP POP SWAP1 JUMP JUMPDEST DUP4 MLOAD DUP6 MSTORE SWAP4 DUP2 ADD SWAP4 SWAP3 DUP2 ADD SWAP3 PUSH1 0x1 ADD PUSH2 0x2D09 JUMP JUMPDEST DUP1 MLOAD PUSH1 0x1 PUSH1 0x1 PUSH1 0xA0 SHL SUB AND DUP3 MSTORE PUSH1 0x20 DUP1 DUP3 ADD MLOAD SWAP1 DUP4 ADD MSTORE PUSH1 0x40 DUP2 ADD MLOAD SWAP1 SWAP2 SWAP1 PUSH2 0x2D53 DUP2 PUSH2 0x2CED JUMP JUMPDEST PUSH1 0x40 DUP3 ADD MSTORE PUSH4 0xFFFFFFFF DUP1 PUSH1 0x60 DUP5 ADD MLOAD AND PUSH1 0x60 DUP4 ADD MSTORE PUSH1 0x80 DUP4 ADD MLOAD AND PUSH1 0x80 DUP3 ADD MSTORE PUSH1 0xA0 DUP3 ADD MLOAD PUSH1 0xA0 DUP3 ADD MSTORE PUSH2 0x2DAC PUSH2 0x2D9A PUSH1 0xC0 DUP5 ADD MLOAD PUSH2 0x120 DUP1 PUSH1 0xC0 DUP7 ADD MSTORE DUP5 ADD SWAP1 PUSH2 0x2CF7 JUMP JUMPDEST PUSH1 0xE0 DUP5 ADD MLOAD DUP4 DUP3 SUB PUSH1 0xE0 DUP6 ADD MSTORE PUSH2 0x2CF7 JUMP JUMPDEST SWAP2 PUSH2 0x100 DUP1 SWAP2 ADD MLOAD SWAP2 ADD MSTORE SWAP1 JUMP JUMPDEST SWAP1 DUP2 MLOAD DUP1 DUP3 MSTORE PUSH1 0x20 DUP1 DUP1 SWAP4 ADD SWAP4 ADD SWAP2 PUSH1 0x0 JUMPDEST DUP3 DUP2 LT PUSH2 0x2DDA JUMPI POP POP POP POP SWAP1 JUMP JUMPDEST DUP4 MLOAD PUSH1 0x1 PUSH1 0x1 PUSH1 0xA0 SHL SUB AND DUP6 MSTORE SWAP4 DUP2 ADD SWAP4 SWAP3 DUP2 ADD SWAP3 PUSH1 0x1 ADD PUSH2 0x2DCC JUMP JUMPDEST PUSH1 0x24 CALLDATALOAD SWAP1 PUSH4 0xFFFFFFFF DUP3 AND DUP3 SUB PUSH2 0x2A6 JUMPI JUMP JUMPDEST PUSH1 0x44 CALLDATALOAD SWAP1 PUSH4 0xFFFFFFFF DUP3 AND DUP3 SUB PUSH2 0x2A6 JUMPI JUMP JUMPDEST PUSH1 0x4 CALLDATALOAD SWAP1 PUSH4 0xFFFFFFFF DUP3 AND DUP3 SUB PUSH2 0x2A6 JUMPI JUMP JUMPDEST CALLVALUE PUSH2 0x2A6 JUMPI PUSH1 0x0 CALLDATASIZE PUSH1 0x3 NOT ADD SLT PUSH2 0x2A6 JUMPI PUSH1 0x20 PUSH1 0x10 SLOAD PUSH1 0x40 MLOAD SWAP1 DUP2 MSTORE RETURN JUMPDEST CALLVALUE PUSH2 0x2A6 JUMPI PUSH1 0x0 DUP1 PUSH1 0x3 NOT CALLDATASIZE ADD SLT PUSH2 0x2F02 JUMPI PUSH1 0x40 MLOAD PUSH4 0x70A08231 PUSH1 0xE0 SHL DUP2 MSTORE ADDRESS PUSH1 0x4 DUP3 ADD MSTORE PUSH1 0x20 DUP2 PUSH1 0x24 DUP2 PUSH32 0x0 PUSH1 0x1 PUSH1 0x1 PUSH1 0xA0 SHL SUB AND GAS STATICCALL SWAP1 DUP2 ISZERO PUSH2 0x2EF7 JUMPI DUP3 SWAP2 PUSH2 0x2EBE JUMPI JUMPDEST PUSH1 0x20 DUP3 PUSH1 0x40 MLOAD SWAP1 DUP2 MSTORE RETURN JUMPDEST SWAP1 POP PUSH1 0x20 DUP2 RETURNDATASIZE DUP3 GT PUSH2 0x2EEF JUMPI JUMPDEST DUP2 PUSH2 0x2ED8 PUSH1 0x20 SWAP4 DUP4 PUSH2 0x2F4E JUMP JUMPDEST DUP2 ADD SUB SLT PUSH2 0x2EEB JUMPI PUSH1 0x20 SWAP2 POP MLOAD CODESIZE PUSH2 0x2EB3 JUMP JUMPDEST POP DUP1 REVERT JUMPDEST RETURNDATASIZE SWAP2 POP PUSH2 0x2ECB JUMP JUMPDEST PUSH1 0x40 MLOAD RETURNDATASIZE DUP5 DUP3 RETURNDATACOPY RETURNDATASIZE SWAP1 REVERT JUMPDEST DUP1 REVERT JUMPDEST DUP1 SLOAD DUP3 LT ISZERO PUSH2 0xB43 JUMPI PUSH1 0x0 MSTORE PUSH1 0x20 PUSH1 0x0 KECCAK256 ADD SWAP1 PUSH1 0x0 SWAP1 JUMP JUMPDEST PUSH8 0xFFFFFFFFFFFFFFFF DUP2 GT PUSH2 0xB59 JUMPI PUSH1 0x40 MSTORE JUMP JUMPDEST PUSH2 0x120 DUP2 ADD SWAP1 DUP2 LT PUSH8 0xFFFFFFFFFFFFFFFF DUP3 GT OR PUSH2 0xB59 JUMPI PUSH1 0x40 MSTORE JUMP JUMPDEST SWAP1 PUSH1 0x1F DUP1 NOT SWAP2 ADD AND DUP2 ADD SWAP1 DUP2 LT PUSH8 0xFFFFFFFFFFFFFFFF DUP3 GT OR PUSH2 0xB59 JUMPI PUSH1 0x40 MSTORE JUMP JUMPDEST SWAP1 DUP2 PUSH1 0x20 SWAP2 SUB SLT PUSH2 0x2A6 JUMPI MLOAD DUP1 ISZERO ISZERO DUP2 SUB PUSH2 0x2A6 JUMPI SWAP1 JUMP JUMPDEST SWAP2 SWAP1 SWAP2 PUSH1 0x60 DUP2 ADD SWAP3 PUSH1 0x2 DUP3 MSTORE PUSH1 0x20 SWAP4 PUSH1 0x60 DUP6 DUP5 ADD MSTORE PUSH1 0x9 SLOAD DUP1 SWAP2 MSTORE PUSH1 0x80 DUP4 ADD SWAP1 PUSH1 0x9 PUSH1 0x0 MSTORE PUSH32 0x6E1540171B6C0C960B71A7020D9F60077F6AF931A8BBF590DA0223DACF75C7AF SWAP1 PUSH1 0x0 JUMPDEST DUP8 DUP3 DUP3 LT PUSH2 0x2FF0 JUMPI POP POP POP POP SWAP4 SHL PUSH4 0x3D1A1A1 OR PUSH1 0x40 SWAP1 DUP2 SHL SWAP2 ADD MSTORE JUMP JUMPDEST DUP4 SLOAD PUSH1 0x1 PUSH1 0x1 PUSH1 0xA0 SHL SUB AND DUP6 MSTORE SWAP1 SWAP4 ADD SWAP3 PUSH1 0x1 SWAP3 DUP4 ADD SWAP3 ADD PUSH2 0x2FD2 JUMP JUMPDEST SWAP2 SWAP1 DUP3 SUB SWAP2 DUP3 GT PUSH2 0xA38 JUMPI JUMP JUMPDEST PUSH1 0x2 PUSH1 0x0 SLOAD EQ PUSH2 0x302B JUMPI PUSH1 0x2 PUSH1 0x0 SSTORE JUMP JUMPDEST PUSH1 0x40 MLOAD PUSH3 0x461BCD PUSH1 0xE5 SHL DUP2 MSTORE PUSH1 0x20 PUSH1 0x4 DUP3 ADD MSTORE PUSH1 0x1F PUSH1 0x24 DUP3 ADD MSTORE PUSH32 0x5265656E7472616E637947756172643A207265656E7472616E742063616C6C00 PUSH1 0x44 DUP3 ADD MSTORE PUSH1 0x64 SWAP1 REVERT JUMPDEST PUSH1 0x1 DUP1 PUSH1 0xA0 SHL SUB AND PUSH1 0x0 MSTORE PUSH1 0xB PUSH1 0x20 MSTORE PUSH1 0x40 PUSH1 0x0 KECCAK256 SLOAD PUSH1 0x14 PUSH1 0x20 MSTORE PUSH1 0x40 PUSH1 0x0 KECCAK256 SLOAD DUP1 DUP3 GT PUSH2 0x309F JUMPI POP POP PUSH1 0x0 SWAP1 JUMP JUMPDEST PUSH2 0x30A8 SWAP2 PUSH2 0x300D JUMP JUMPDEST SWAP1 JUMP JUMPDEST SWAP1 DUP2 PUSH1 0x20 SWAP2 SUB SLT PUSH2 0x2A6 JUMPI MLOAD DUP1 PUSH1 0x3 SIGNEXTEND DUP2 SUB PUSH2 0x2A6 JUMPI SWAP1 JUMP JUMPDEST SWAP1 PUSH3 0x278D00 DUP3 ADD DUP1 SWAP3 GT PUSH2 0xA38 JUMPI JUMP JUMPDEST SWAP2 SWAP1 DUP3 ADD DUP1 SWAP3 GT PUSH2 0xA38 JUMPI JUMP JUMPDEST PUSH1 0x0 NOT DUP2 EQ PUSH2 0xA38 JUMPI PUSH1 0x1 ADD SWAP1 JUMP JUMPDEST DUP1 SLOAD PUSH1 0x1 PUSH1 0x40 SHL DUP2 LT ISZERO PUSH2 0xB59 JUMPI PUSH2 0x310D SWAP2 PUSH1 0x1 DUP3 ADD DUP2 SSTORE PUSH2 0x2F05 JUMP JUMPDEST DUP2 SWAP3 SWAP2 SLOAD SWAP1 PUSH1 0x3 SHL SWAP2 DUP3 SHL SWAP2 PUSH1 0x0 NOT SWAP1 SHL NOT AND OR SWAP1 SSTORE JUMP JUMPDEST SWAP1 PUSH1 0x1 PUSH4 0xFFFFFFFF DUP1 SWAP4 AND ADD SWAP2 DUP3 GT PUSH2 0xA38 JUMPI JUMP JUMPDEST DUP2 DUP2 MUL SWAP3 SWAP2 DUP2 ISZERO SWAP2 DUP5 DIV EQ OR ISZERO PUSH2 0xA38 JUMPI JUMP JUMPDEST DUP2 ISZERO PUSH2 0xC21 JUMPI DIV SWAP1 JUMP JUMPDEST PUSH8 0xFFFFFFFFFFFFFFFF DUP2 GT PUSH2 0xB59 JUMPI PUSH1 0x5 SHL PUSH1 0x20 ADD SWAP1 JUMP JUMPDEST SWAP1 PUSH2 0x3179 DUP3 PUSH2 0x3157 JUMP JUMPDEST PUSH2 0x3186 PUSH1 0x40 MLOAD SWAP2 DUP3 PUSH2 0x2F4E JUMP JUMPDEST DUP3 DUP2 MSTORE DUP1 SWAP3 PUSH2 0x3197 PUSH1 0x1F NOT SWAP2 PUSH2 0x3157 JUMP JUMPDEST ADD SWAP1 PUSH1 0x20 CALLDATASIZE SWAP2 ADD CALLDATACOPY JUMP JUMPDEST DUP1 MLOAD DUP3 LT ISZERO PUSH2 0xB43 JUMPI PUSH1 0x20 SWAP2 PUSH1 0x5 SHL ADD ADD SWAP1 JUMP JUMPDEST SWAP1 DUP2 SLOAD DUP1 DUP3 MSTORE PUSH1 0x20 DUP1 SWAP3 ADD SWAP3 PUSH1 0x0 MSTORE DUP2 PUSH1 0x0 KECCAK256 SWAP2 PUSH1 0x0 SWAP1 JUMPDEST DUP3 DUP3 LT PUSH2 0x31DB JUMPI POP POP POP POP SWAP1 JUMP JUMPDEST DUP4 SLOAD DUP6 MSTORE SWAP4 DUP5 ADD SWAP4 PUSH1 0x1 SWAP4 DUP5 ADD SWAP4 SWAP1 SWAP2 ADD SWAP1 PUSH2 0x31CD JUMP JUMPDEST PUSH1 0x20 SWAP1 DUP2 DUP2 DUP5 SUB SLT PUSH2 0x2A6 JUMPI DUP1 MLOAD SWAP1 PUSH8 0xFFFFFFFFFFFFFFFF DUP3 GT PUSH2 0x2A6 JUMPI ADD SWAP2 DUP1 PUSH1 0x1F DUP5 ADD SLT ISZERO PUSH2 0x2A6 JUMPI DUP3 MLOAD PUSH2 0x3228 DUP2 PUSH2 0x3157 JUMP JUMPDEST SWAP4 PUSH2 0x3236 PUSH1 0x40 MLOAD SWAP6 DUP7 PUSH2 0x2F4E JUMP JUMPDEST DUP2 DUP6 MSTORE DUP4 DUP1 DUP7 ADD SWAP3 PUSH1 0x5 SHL DUP3 ADD ADD SWAP3 DUP4 GT PUSH2 0x2A6 JUMPI DUP4 ADD SWAP1 JUMPDEST DUP3 DUP3 LT PUSH2 0x325D JUMPI POP POP POP POP SWAP1 JUMP JUMPDEST DUP2 MLOAD PUSH1 0x1 PUSH1 0x1 PUSH1 0xA0 SHL SUB DUP2 AND DUP2 SUB PUSH2 0x2A6 JUMPI DUP2 MSTORE SWAP1 DUP4 ADD SWAP1 DUP4 ADD PUSH2 0x324F JUMP JUMPDEST PUSH1 0x40 MLOAD SWAP1 PUSH2 0x3289 DUP3 PUSH2 0x2F31 JUMP JUMPDEST DUP2 PUSH2 0x100 PUSH1 0x0 SWAP2 DUP3 DUP2 MSTORE DUP3 PUSH1 0x20 DUP3 ADD MSTORE DUP3 PUSH1 0x40 DUP3 ADD MSTORE DUP3 PUSH1 0x60 DUP3 ADD MSTORE DUP3 PUSH1 0x80 DUP3 ADD MSTORE DUP3 PUSH1 0xA0 DUP3 ADD MSTORE PUSH1 0x60 PUSH1 0xC0 DUP3 ADD MSTORE PUSH1 0x60 PUSH1 0xE0 DUP3 ADD MSTORE ADD MSTORE JUMP JUMPDEST SWAP1 PUSH1 0x40 MLOAD PUSH2 0x32D0 DUP2 PUSH2 0x2F31 JUMP JUMPDEST PUSH2 0x100 PUSH1 0x6 DUP3 SWAP5 PUSH1 0x1 DUP1 PUSH1 0xA0 SHL SUB DUP2 SLOAD AND DUP5 MSTORE PUSH1 0x1 DUP2 ADD SLOAD PUSH1 0x20 DUP6 ADD MSTORE PUSH1 0x2 DUP2 ADD SLOAD PUSH1 0xFF DUP2 AND PUSH2 0x32FF DUP2 PUSH2 0x2CED JUMP JUMPDEST PUSH1 0x40 DUP7 ADD MSTORE PUSH4 0xFFFFFFFF SWAP1 DUP2 DUP2 PUSH1 0x8 SHR AND PUSH1 0x60 DUP8 ADD MSTORE PUSH1 0x28 SHR AND PUSH1 0x80 DUP6 ADD MSTORE PUSH1 0x3 DUP2 ADD SLOAD PUSH1 0xA0 DUP6 ADD MSTORE PUSH1 0x40 MLOAD PUSH2 0x333C DUP2 PUSH2 0x15A8 DUP2 PUSH1 0x4 DUP7 ADD PUSH2 0x31B5 JUMP JUMPDEST PUSH1 0xC0 DUP6 ADD MSTORE PUSH1 0x40 MLOAD PUSH2 0x3355 DUP2 PUSH2 0x15A8 DUP2 PUSH1 0x5 DUP7 ADD PUSH2 0x31B5 JUMP JUMPDEST PUSH1 0xE0 DUP6 ADD MSTORE ADD SLOAD SWAP2 ADD MSTORE JUMP JUMPDEST PUSH1 0x0 MSTORE PUSH1 0x17 PUSH1 0x20 MSTORE PUSH1 0x40 PUSH1 0x0 KECCAK256 PUSH1 0x2 DUP2 ADD SLOAD PUSH1 0xFF DUP2 AND PUSH2 0x3380 DUP2 PUSH2 0x2CED JUMP JUMPDEST ISZERO SWAP1 DUP2 PUSH2 0x33A0 JUMPI JUMPDEST POP PUSH2 0x3396 JUMPI POP PUSH1 0x0 SWAP1 PUSH1 0x0 SWAP1 JUMP JUMPDEST PUSH1 0x3 ADD SLOAD SWAP1 PUSH1 0x1 SWAP1 JUMP JUMPDEST PUSH4 0xFFFFFFFF SWAP2 POP PUSH1 0x28 SHR AND ISZERO ISZERO CODESIZE PUSH2 0x3388 JUMP JUMPDEST SWAP1 PUSH1 0x40 MLOAD SWAP2 DUP3 DUP2 SLOAD SWAP2 DUP3 DUP3 MSTORE PUSH1 0x20 SWAP3 DUP4 DUP4 ADD SWAP2 PUSH1 0x0 MSTORE DUP4 PUSH1 0x0 KECCAK256 SWAP4 PUSH1 0x0 SWAP1 JUMPDEST DUP3 DUP3 LT PUSH2 0x33EA JUMPI POP POP POP PUSH2 0x33E8 SWAP3 POP SUB DUP4 PUSH2 0x2F4E JUMP JUMPDEST JUMP JUMPDEST DUP6 SLOAD PUSH1 0x1 PUSH1 0x1 PUSH1 0xA0 SHL SUB AND DUP5 MSTORE PUSH1 0x1 SWAP6 DUP7 ADD SWAP6 DUP9 SWAP6 POP SWAP4 DUP2 ADD SWAP4 SWAP1 SWAP2 ADD SWAP1 PUSH2 0x33D2 JUMP INVALID DUP12 MULMOD 0x4C 0xCA PUSH16 0x83D49402CE208CC0C224B76625FFC586 CALLDATASIZE 0xDF JUMP 0xAE 0x28 MUL 0x4E PUSH17 0x4C5868A26469706673582212201570DE02 0x2F BYTE 0xDB 0x4A LOG0 MOD 0x29 0x24 DUP6 0xC 0xE1 0xEA CREATE2 REVERT SMOD MUL PUSH12 0xCED57FB0E1A1EAEA22204264 PUSH20 0x6F6C634300081300330000000000000000000000 "},"methodIdentifiers":{"batchUpdateDebtStatus(address[])":"016c704f","borrowerRequisitions(address,uint256)":"9e932011","canPayRequisition(uint256,address)":"adceb101","canUserBorrow(address,uint256)":"97c33519","coverLoan(uint256,uint32,uint32)":"ecb18b34","createLoanRequisition(uint256,uint32,uint32,uint32)":"1766ec87","donate(uint256,uint32)":"e2763924","getActiveLoans(address)":"03d1a1a1","getAllowance(address)":"eb5a662e","getAvailableBalance()":"809dab6a","getAvailableBorrowAmount()":"291c31a7","getBorrowerDebtStatus(address)":"f0853e1d","getBorrowerRequisitions(address)":"9730872a","getBorrowersWithDebt()":"0bc21853","getBorrowersWithoutDebt()":"830efd3b","getBorrowing(address)":"be5eb580","getContractBalance()":"6f9fb98a","getCoveringLenders(uint256)":"8a914a63","getDonation(address)":"410a1d32","getDonationsInCoverage(address)":"827cc0e5","getLastBorrowTime(address)":"657eb031","getLenderCoverage(uint256,address)":"4e51c7df","getLoanContract(uint256)":"383ab2ef","getMemberId(address)":"c269014b","getNextPaymentAmount(uint256)":"6509a710","getPaymentDates(uint256)":"7d52437a","getRepaymentSummary(uint256)":"2b31c022","getReputation(uint32)":"81db2284","getRequisitionInfo(uint256)":"1b70ba3e","getTotalBorrowed()":"0307c4a1","getTotalDonations()":"777c658f","getUSDTBalance()":"9785fac8","getWithdrawableBalance(address)":"843592d3","hasActiveDebt(address)":"3403c25d","hasOverdueDebt(address)":"a7af6947","isWalletVinculated(address)":"598a562a","loanContracts(uint256)":"232869fa","nextMonthlyUpdate()":"f947a8a9","repay(uint256,uint256,uint32)":"9059f9ca","reputationSystem()":"6587eda1","requisitionCounter()":"84ddf5ea","shouldTriggerUpdate()":"79103400","triggerMonthlyUpdate()":"ccdce44e","updateBorrowerDebtStatus(address)":"b9f0fec4","usdtToken()":"a98ad46c","vinculationMemberToWallet(uint32,address)":"21bb31e4","withdraw(uint256,uint32)":"6145d1b7"}}}}}