{"contracts/libraries/DebtTracker.sol":{"DebtTracker":{"abi":[{"anonymous":false,"inputs":[{"indexed":true,"internalType":"address","name":"borrower","type":"address"},{"indexed":false,"internalType":"enum DebtTracker.DebtStatus","name":"newStatus","type":"uint8"}],"name":"BorrowerStatusUpdated","type":"event"},{"anonymous":false,"inputs":[{"indexed":true,"internalType":"address","name":"borrower","type":"address"}],"name":"DebtorAdded","type":"event"},{"anonymous":false,"inputs":[{"indexed":true,"internalType":"address","name":"borrower","type":"address"}],"name":"DebtorRemoved","type":"event"},{"anonymous":false,"inputs":[{"indexed":false,"internalType":"uint256","name":"timestamp","type":"uint256"}],"name":"MonthlyUpdateTriggered","type":"event"},{"inputs":[],"name":"MONTHLY_INTERVAL","outputs":[{"internalType":"uint256","name":"","type":"uint256"}],"stateMutability":"view","type":"function"}],"evm":{"bytecode":{"linkReferences":{},"object":"6080806040523461001c57610b9e90816100228239308160090152f35b600080fdfe60806040818152307f0000000000000000000000000000000000000000000000000000000000000000146004928336101561003957600080fd5b600091823560e01c9182632de5e9bf14610318575081632de6c284146102ab578163311eacf4146101f4578163404b48bf146101d55781634ecc68a7146101bc57816357feb96c1461017a5781637fd5e70b1461014c578163dd9f00e61461011f578163e63dd531146100e7575063f28e2c2f146100b657600080fd5b60203660031901126100e457506100da6020923560066005820154910154906105e0565b4210159051908152f35b80fd5b84915061011b57606036600319011261011b576101189061010661036e565b9061010f6103d9565b92909135610467565b80f35b5080fd5b505060203660031901126100e457506101456020923560066005820154910154906105e0565b9051908152f35b505060203660031901126100e4575061016b6001610176933501610b10565b905191829182610400565b0390f35b505091816003193601126101b8576020926101b69160ff9184916001600160a01b036101a461036e565b16825235865220541691518092610444565bf35b8280fd5b82848160031936011261011b576020905162278d008152f35b505060203660031901126100e4575061016b6002610176933501610b10565b848484926101b85760603660031901126101b8576024359167ffffffffffffffff83116102a757366023840112156102a7578281013590610234826103c1565b9161024184519384610389565b80835260209560248785019260051b8701019536871161011b57602401915b86831061028857878661027f87876102766103d9565b92909135610603565b90519015158152f35b82356001600160a01b03811681036101b8578152918701918701610260565b8380fd5b5050908060031936011261011b576001600160a01b036102c961036e565b168252823560205260ff818320541691600383101561030557602060018414838582156102fa575b50519015158152f35b6002149150836102f1565b634e487b7160e01b815260218452602490fd5b939150508060031936011261011b5760ff906001600160a01b0361033a61036e565b16835284356020528220541692600384101561035b57602083600286148152f35b634e487b7160e01b825260219052602490fd5b602435906001600160a01b038216820361038457565b600080fd5b90601f8019910116810190811067ffffffffffffffff8211176103ab57604052565b634e487b7160e01b600052604160045260246000fd5b67ffffffffffffffff81116103ab5760051b60200190565b6044359067ffffffffffffffff19821682036103845763ffffffff8260601c9260401c1690565b6020908160408183019282815285518094520193019160005b828110610427575050505090565b83516001600160a01b031685529381019392810192600101610419565b9060038210156104515752565b634e487b7160e01b600052602160045260246000fd5b929060018060a01b0381169361048f6000938685528260205260ff604086205416958461074a565b9160038310156105cc5760038510156105cc578285036104b2575b505050505050565b85847f74474166642c7551f5ab27bfe49f70acc6f515092266255e0aae5d132dabe3dc968260209752848752604082209060ff19918281541660ff891617905515600014610582576105078460028701610a56565b8561053457505050600261051b9201610a0d565b6105286040518092610444565ba23880808080806104aa565b909193806105687f83b30666fcea7d20aac3f4372746ec0477066686e5a7b8b20c8318fa51e85d6195600160039401610a0d565b8584520186526001604083209182541617905580a261051b565b61058f8460018701610a56565b82825260038501875260408220818154169055827f3ae064561bca6637dc100aff898741fce872fe7510b7555334b772a1448e5d478380a2610507565b634e487b7160e01b84526021600452602484fd5b919082018092116105ed57565b634e487b7160e01b600052601160045260246000fd5b919091600581019261061b84546006840154906105e0565b42101561062c575050505050600090565b909192939460005b825181101561066a576106659061066088876001600160a01b0361065885896106b1565b511688610467565b6106a2565b610634565b5094505050504290557f75f2c32a502b8cfcaa1b5255446605b2c98d65eabbd522d338828e3ade01c4346020604051428152a1600190565b60001981146105ed5760010190565b80518210156106c55760209160051b010190565b634e487b7160e01b600052603260045260246000fd5b519063ffffffff8216820361038457565b81601f8201121561038457805191610703836103c1565b926107116040519485610389565b808452602092838086019260051b820101928311610384578301905b82821061073b575050505090565b8151815290830190830161072d565b906040908151938492839260e092831b845260018060a01b0390816004971687860152600095869160249687915afa9687156109eb578597610828575b5050505083511561082157815b8451811015610817576107a781866106b1565b5163ffffffff80608083015116806107cb575b5050506107c6906106a2565b610794565b8160608401511603918183116108055760c001516107ec92909116906106b1565b5142116107fb573880806107ba565b5050505050600290565b634e487b7160e01b8652601187528486fd5b5050505050600190565b5091505090565b9091929396503d8086833e61083d8183610389565b81019280828503126109e75781519267ffffffffffffffff938481116109e35783019085601f830112156109e357815190610877826103c1565b976108848551998a610389565b82895260209485808b019460051b860101948986116109df57868101945b8686106108d457505050505050508101519182116108d0576108c59291016106ec565b509238808080610787565b8480fd5b85518a81116109db57610120908301808d03601f190182136109d7578451918083018d8111848210176109c05786528a82015188811681036109bb578352858201518b84015260608083015160038110156109b5578785015260809061093b8285016106db565b9085015260a09061094d8285016106db565b9085015260c09081840151908501528d888401519081116109b5578f8d610976928601016106ec565b90840152610100918d838201519081116109b557918f916109a08e979593888098968401016106ec565b8a8501520151908201528152019501946108a2565b50508f80fd5b508f80fd5b5050634e487b7160e01b8f52505060418e52508d8cfd5b8e80fd5b8d80fd5b8b80fd5b8780fd5b8580fd5b82513d87823e3d90fd5b80548210156106c55760005260206000200190600090565b90815491680100000000000000008310156103ab5782610a35916001610a54950181556109f5565b90919082549060031b9160018060a01b03809116831b921b1916179055565b565b6000915b81549283811015610b0a57610a6f81846109f5565b90546003956001600160a01b0392909190871b1c821684831614610aa2575050610a9b919293506106a2565b9190610a5a565b909250600019918282019182116105ed57610a3584610ac4610ad294886109f5565b905490891b1c1691866109f5565b82548015610af4570192610ae684846109f5565b81939154921b1b1916905555565b634e487b7160e01b600052603160045260246000fd5b50505050565b9060405191828154918282526020928383019160005283600020936000905b828210610b4557505050610a5492500383610389565b85546001600160a01b031684526001958601958895509381019390910190610b2f56fea2646970667358221220857d7e9a1d72b7b7e038ef2aa4a0626c1c556d003be5e8afeac64348c447b55c64736f6c63430008130033","opcodes":"PUSH1 0x80 DUP1 PUSH1 0x40 MSTORE CALLVALUE PUSH2 0x1C JUMPI PUSH2 0xB9E SWAP1 DUP2 PUSH2 0x22 DUP3 CODECOPY ADDRESS DUP2 PUSH1 0x9 ADD MSTORE RETURN JUMPDEST PUSH1 0x0 DUP1 REVERT INVALID PUSH1 0x80 PUSH1 0x40 DUP2 DUP2 MSTORE ADDRESS PUSH32 0x0 EQ PUSH1 0x4 SWAP3 DUP4 CALLDATASIZE LT ISZERO PUSH2 0x39 JUMPI PUSH1 0x0 DUP1 REVERT JUMPDEST PUSH1 0x0 SWAP2 DUP3 CALLDATALOAD PUSH1 0xE0 SHR SWAP2 DUP3 PUSH4 0x2DE5E9BF EQ PUSH2 0x318 JUMPI POP DUP2 PUSH4 0x2DE6C284 EQ PUSH2 0x2AB JUMPI DUP2 PUSH4 0x311EACF4 EQ PUSH2 0x1F4 JUMPI DUP2 PUSH4 0x404B48BF EQ PUSH2 0x1D5 JUMPI DUP2 PUSH4 0x4ECC68A7 EQ PUSH2 0x1BC JUMPI DUP2 PUSH4 0x57FEB96C EQ PUSH2 0x17A JUMPI DUP2 PUSH4 0x7FD5E70B EQ PUSH2 0x14C JUMPI DUP2 PUSH4 0xDD9F00E6 EQ PUSH2 0x11F JUMPI DUP2 PUSH4 0xE63DD531 EQ PUSH2 0xE7 JUMPI POP PUSH4 0xF28E2C2F EQ PUSH2 0xB6 JUMPI PUSH1 0x0 DUP1 REVERT JUMPDEST PUSH1 0x20 CALLDATASIZE PUSH1 0x3 NOT ADD SLT PUSH2 0xE4 JUMPI POP PUSH2 0xDA PUSH1 0x20 SWAP3 CALLDATALOAD PUSH1 0x6 PUSH1 0x5 DUP3 ADD SLOAD SWAP2 ADD SLOAD SWAP1 PUSH2 0x5E0 JUMP JUMPDEST TIMESTAMP LT ISZERO SWAP1 MLOAD SWAP1 DUP2 MSTORE RETURN JUMPDEST DUP1 REVERT JUMPDEST DUP5 SWAP2 POP PUSH2 0x11B JUMPI PUSH1 0x60 CALLDATASIZE PUSH1 0x3 NOT ADD SLT PUSH2 0x11B JUMPI PUSH2 0x118 SWAP1 PUSH2 0x106 PUSH2 0x36E JUMP JUMPDEST SWAP1 PUSH2 0x10F PUSH2 0x3D9 JUMP JUMPDEST SWAP3 SWAP1 SWAP2 CALLDATALOAD PUSH2 0x467 JUMP JUMPDEST DUP1 RETURN JUMPDEST POP DUP1 REVERT JUMPDEST POP POP PUSH1 0x20 CALLDATASIZE PUSH1 0x3 NOT ADD SLT PUSH2 0xE4 JUMPI POP PUSH2 0x145 PUSH1 0x20 SWAP3 CALLDATALOAD PUSH1 0x6 PUSH1 0x5 DUP3 ADD SLOAD SWAP2 ADD SLOAD SWAP1 PUSH2 0x5E0 JUMP JUMPDEST SWAP1 MLOAD SWAP1 DUP2 MSTORE RETURN JUMPDEST POP POP PUSH1 0x20 CALLDATASIZE PUSH1 0x3 NOT ADD SLT PUSH2 0xE4 JUMPI POP PUSH2 0x16B PUSH1 0x1 PUSH2 0x176 SWAP4 CALLDATALOAD ADD PUSH2 0xB10 JUMP JUMPDEST SWAP1 MLOAD SWAP2 DUP3 SWAP2 DUP3 PUSH2 0x400 JUMP JUMPDEST SUB SWAP1 RETURN JUMPDEST POP POP SWAP2 DUP2 PUSH1 0x3 NOT CALLDATASIZE ADD SLT PUSH2 0x1B8 JUMPI PUSH1 0x20 SWAP3 PUSH2 0x1B6 SWAP2 PUSH1 0xFF SWAP2 DUP5 SWAP2 PUSH1 0x1 PUSH1 0x1 PUSH1 0xA0 SHL SUB PUSH2 0x1A4 PUSH2 0x36E JUMP JUMPDEST AND DUP3 MSTORE CALLDATALOAD DUP7 MSTORE KECCAK256 SLOAD AND SWAP2 MLOAD DUP1 SWAP3 PUSH2 0x444 JUMP JUMPDEST RETURN JUMPDEST DUP3 DUP1 REVERT JUMPDEST DUP3 DUP5 DUP2 PUSH1 0x3 NOT CALLDATASIZE ADD SLT PUSH2 0x11B JUMPI PUSH1 0x20 SWAP1 MLOAD PUSH3 0x278D00 DUP2 MSTORE RETURN JUMPDEST POP POP PUSH1 0x20 CALLDATASIZE PUSH1 0x3 NOT ADD SLT PUSH2 0xE4 JUMPI POP PUSH2 0x16B PUSH1 0x2 PUSH2 0x176 SWAP4 CALLDATALOAD ADD PUSH2 0xB10 JUMP JUMPDEST DUP5 DUP5 DUP5 SWAP3 PUSH2 0x1B8 JUMPI PUSH1 0x60 CALLDATASIZE PUSH1 0x3 NOT ADD SLT PUSH2 0x1B8 JUMPI PUSH1 0x24 CALLDATALOAD SWAP2 PUSH8 0xFFFFFFFFFFFFFFFF DUP4 GT PUSH2 0x2A7 JUMPI CALLDATASIZE PUSH1 0x23 DUP5 ADD SLT ISZERO PUSH2 0x2A7 JUMPI DUP3 DUP2 ADD CALLDATALOAD SWAP1 PUSH2 0x234 DUP3 PUSH2 0x3C1 JUMP JUMPDEST SWAP2 PUSH2 0x241 DUP5 MLOAD SWAP4 DUP5 PUSH2 0x389 JUMP JUMPDEST DUP1 DUP4 MSTORE PUSH1 0x20 SWAP6 PUSH1 0x24 DUP8 DUP6 ADD SWAP3 PUSH1 0x5 SHL DUP8 ADD ADD SWAP6 CALLDATASIZE DUP8 GT PUSH2 0x11B JUMPI PUSH1 0x24 ADD SWAP2 JUMPDEST DUP7 DUP4 LT PUSH2 0x288 JUMPI DUP8 DUP7 PUSH2 0x27F DUP8 DUP8 PUSH2 0x276 PUSH2 0x3D9 JUMP JUMPDEST SWAP3 SWAP1 SWAP2 CALLDATALOAD PUSH2 0x603 JUMP JUMPDEST SWAP1 MLOAD SWAP1 ISZERO ISZERO DUP2 MSTORE RETURN JUMPDEST DUP3 CALLDATALOAD PUSH1 0x1 PUSH1 0x1 PUSH1 0xA0 SHL SUB DUP2 AND DUP2 SUB PUSH2 0x1B8 JUMPI DUP2 MSTORE SWAP2 DUP8 ADD SWAP2 DUP8 ADD PUSH2 0x260 JUMP JUMPDEST DUP4 DUP1 REVERT JUMPDEST POP POP SWAP1 DUP1 PUSH1 0x3 NOT CALLDATASIZE ADD SLT PUSH2 0x11B JUMPI PUSH1 0x1 PUSH1 0x1 PUSH1 0xA0 SHL SUB PUSH2 0x2C9 PUSH2 0x36E JUMP JUMPDEST AND DUP3 MSTORE DUP3 CALLDATALOAD PUSH1 0x20 MSTORE PUSH1 0xFF DUP2 DUP4 KECCAK256 SLOAD AND SWAP2 PUSH1 0x3 DUP4 LT ISZERO PUSH2 0x305 JUMPI PUSH1 0x20 PUSH1 0x1 DUP5 EQ DUP4 DUP6 DUP3 ISZERO PUSH2 0x2FA JUMPI JUMPDEST POP MLOAD SWAP1 ISZERO ISZERO DUP2 MSTORE RETURN JUMPDEST PUSH1 0x2 EQ SWAP2 POP DUP4 PUSH2 0x2F1 JUMP JUMPDEST PUSH4 0x4E487B71 PUSH1 0xE0 SHL DUP2 MSTORE PUSH1 0x21 DUP5 MSTORE PUSH1 0x24 SWAP1 REVERT JUMPDEST SWAP4 SWAP2 POP POP DUP1 PUSH1 0x3 NOT CALLDATASIZE ADD SLT PUSH2 0x11B JUMPI PUSH1 0xFF SWAP1 PUSH1 0x1 PUSH1 0x1 PUSH1 0xA0 SHL SUB PUSH2 0x33A PUSH2 0x36E JUMP JUMPDEST AND DUP4 MSTORE DUP5 CALLDATALOAD PUSH1 0x20 MSTORE DUP3 KECCAK256 SLOAD AND SWAP3 PUSH1 0x3 DUP5 LT ISZERO PUSH2 0x35B JUMPI PUSH1 0x20 DUP4 PUSH1 0x2 DUP7 EQ DUP2 MSTORE RETURN JUMPDEST PUSH4 0x4E487B71 PUSH1 0xE0 SHL DUP3 MSTORE PUSH1 0x21 SWAP1 MSTORE PUSH1 0x24 SWAP1 REVERT JUMPDEST PUSH1 0x24 CALLDATALOAD SWAP1 PUSH1 0x1 PUSH1 0x1 PUSH1 0xA0 SHL SUB DUP3 AND DUP3 SUB PUSH2 0x384 JUMPI JUMP JUMPDEST PUSH1 0x0 DUP1 REVERT JUMPDEST SWAP1 PUSH1 0x1F DUP1 NOT SWAP2 ADD AND DUP2 ADD SWAP1 DUP2 LT PUSH8 0xFFFFFFFFFFFFFFFF DUP3 GT OR PUSH2 0x3AB JUMPI PUSH1 0x40 MSTORE JUMP JUMPDEST PUSH4 0x4E487B71 PUSH1 0xE0 SHL PUSH1 0x0 MSTORE PUSH1 0x41 PUSH1 0x4 MSTORE PUSH1 0x24 PUSH1 0x0 REVERT JUMPDEST PUSH8 0xFFFFFFFFFFFFFFFF DUP2 GT PUSH2 0x3AB JUMPI PUSH1 0x5 SHL PUSH1 0x20 ADD SWAP1 JUMP JUMPDEST PUSH1 0x44 CALLDATALOAD SWAP1 PUSH8 0xFFFFFFFFFFFFFFFF NOT DUP3 AND DUP3 SUB PUSH2 0x384 JUMPI PUSH4 0xFFFFFFFF DUP3 PUSH1 0x60 SHR SWAP3 PUSH1 0x40 SHR AND SWAP1 JUMP JUMPDEST PUSH1 0x20 SWAP1 DUP2 PUSH1 0x40 DUP2 DUP4 ADD SWAP3 DUP3 DUP2 MSTORE DUP6 MLOAD DUP1 SWAP5 MSTORE ADD SWAP4 ADD SWAP2 PUSH1 0x0 JUMPDEST DUP3 DUP2 LT PUSH2 0x427 JUMPI POP POP POP POP SWAP1 JUMP JUMPDEST DUP4 MLOAD PUSH1 0x1 PUSH1 0x1 PUSH1 0xA0 SHL SUB AND DUP6 MSTORE SWAP4 DUP2 ADD SWAP4 SWAP3 DUP2 ADD SWAP3 PUSH1 0x1 ADD PUSH2 0x419 JUMP JUMPDEST SWAP1 PUSH1 0x3 DUP3 LT ISZERO PUSH2 0x451 JUMPI MSTORE JUMP JUMPDEST PUSH4 0x4E487B71 PUSH1 0xE0 SHL PUSH1 0x0 MSTORE PUSH1 0x21 PUSH1 0x4 MSTORE PUSH1 0x24 PUSH1 0x0 REVERT JUMPDEST SWAP3 SWAP1 PUSH1 0x1 DUP1 PUSH1 0xA0 SHL SUB DUP2 AND SWAP4 PUSH2 0x48F PUSH1 0x0 SWAP4 DUP7 DUP6 MSTORE DUP3 PUSH1 0x20 MSTORE PUSH1 0xFF PUSH1 0x40 DUP7 KECCAK256 SLOAD AND SWAP6 DUP5 PUSH2 0x74A JUMP JUMPDEST SWAP2 PUSH1 0x3 DUP4 LT ISZERO PUSH2 0x5CC JUMPI PUSH1 0x3 DUP6 LT ISZERO PUSH2 0x5CC JUMPI DUP3 DUP6 SUB PUSH2 0x4B2 JUMPI JUMPDEST POP POP POP POP POP POP JUMP JUMPDEST DUP6 DUP5 PUSH32 0x74474166642C7551F5AB27BFE49F70ACC6F515092266255E0AAE5D132DABE3DC SWAP7 DUP3 PUSH1 0x20 SWAP8 MSTORE DUP5 DUP8 MSTORE PUSH1 0x40 DUP3 KECCAK256 SWAP1 PUSH1 0xFF NOT SWAP2 DUP3 DUP2 SLOAD AND PUSH1 0xFF DUP10 AND OR SWAP1 SSTORE ISZERO PUSH1 0x0 EQ PUSH2 0x582 JUMPI PUSH2 0x507 DUP5 PUSH1 0x2 DUP8 ADD PUSH2 0xA56 JUMP JUMPDEST DUP6 PUSH2 0x534 JUMPI POP POP POP PUSH1 0x2 PUSH2 0x51B SWAP3 ADD PUSH2 0xA0D JUMP JUMPDEST PUSH2 0x528 PUSH1 0x40 MLOAD DUP1 SWAP3 PUSH2 0x444 JUMP JUMPDEST LOG2 CODESIZE DUP1 DUP1 DUP1 DUP1 DUP1 PUSH2 0x4AA JUMP JUMPDEST SWAP1 SWAP2 SWAP4 DUP1 PUSH2 0x568 PUSH32 0x83B30666FCEA7D20AAC3F4372746EC0477066686E5A7B8B20C8318FA51E85D61 SWAP6 PUSH1 0x1 PUSH1 0x3 SWAP5 ADD PUSH2 0xA0D JUMP JUMPDEST DUP6 DUP5 MSTORE ADD DUP7 MSTORE PUSH1 0x1 PUSH1 0x40 DUP4 KECCAK256 SWAP2 DUP3 SLOAD AND OR SWAP1 SSTORE DUP1 LOG2 PUSH2 0x51B JUMP JUMPDEST PUSH2 0x58F DUP5 PUSH1 0x1 DUP8 ADD PUSH2 0xA56 JUMP JUMPDEST DUP3 DUP3 MSTORE PUSH1 0x3 DUP6 ADD DUP8 MSTORE PUSH1 0x40 DUP3 KECCAK256 DUP2 DUP2 SLOAD AND SWAP1 SSTORE DUP3 PUSH32 0x3AE064561BCA6637DC100AFF898741FCE872FE7510B7555334B772A1448E5D47 DUP4 DUP1 LOG2 PUSH2 0x507 JUMP JUMPDEST PUSH4 0x4E487B71 PUSH1 0xE0 SHL DUP5 MSTORE PUSH1 0x21 PUSH1 0x4 MSTORE PUSH1 0x24 DUP5 REVERT JUMPDEST SWAP2 SWAP1 DUP3 ADD DUP1 SWAP3 GT PUSH2 0x5ED JUMPI JUMP JUMPDEST PUSH4 0x4E487B71 PUSH1 0xE0 SHL PUSH1 0x0 MSTORE PUSH1 0x11 PUSH1 0x4 MSTORE PUSH1 0x24 PUSH1 0x0 REVERT JUMPDEST SWAP2 SWAP1 SWAP2 PUSH1 0x5 DUP2 ADD SWAP3 PUSH2 0x61B DUP5 SLOAD PUSH1 0x6 DUP5 ADD SLOAD SWAP1 PUSH2 0x5E0 JUMP JUMPDEST TIMESTAMP LT ISZERO PUSH2 0x62C JUMPI POP POP POP POP POP PUSH1 0x0 SWAP1 JUMP JUMPDEST SWAP1 SWAP2 SWAP3 SWAP4 SWAP5 PUSH1 0x0 JUMPDEST DUP3 MLOAD DUP2 LT ISZERO PUSH2 0x66A JUMPI PUSH2 0x665 SWAP1 PUSH2 0x660 DUP9 DUP8 PUSH1 0x1 PUSH1 0x1 PUSH1 0xA0 SHL SUB PUSH2 0x658 DUP6 DUP10 PUSH2 0x6B1 JUMP JUMPDEST MLOAD AND DUP9 PUSH2 0x467 JUMP JUMPDEST PUSH2 0x6A2 JUMP JUMPDEST PUSH2 0x634 JUMP JUMPDEST POP SWAP5 POP POP POP POP TIMESTAMP SWAP1 SSTORE PUSH32 0x75F2C32A502B8CFCAA1B5255446605B2C98D65EABBD522D338828E3ADE01C434 PUSH1 0x20 PUSH1 0x40 MLOAD TIMESTAMP DUP2 MSTORE LOG1 PUSH1 0x1 SWAP1 JUMP JUMPDEST PUSH1 0x0 NOT DUP2 EQ PUSH2 0x5ED JUMPI PUSH1 0x1 ADD SWAP1 JUMP JUMPDEST DUP1 MLOAD DUP3 LT ISZERO PUSH2 0x6C5 JUMPI PUSH1 0x20 SWAP2 PUSH1 0x5 SHL ADD ADD SWAP1 JUMP JUMPDEST PUSH4 0x4E487B71 PUSH1 0xE0 SHL PUSH1 0x0 MSTORE PUSH1 0x32 PUSH1 0x4 MSTORE PUSH1 0x24 PUSH1 0x0 REVERT JUMPDEST MLOAD SWAP1 PUSH4 0xFFFFFFFF DUP3 AND DUP3 SUB PUSH2 0x384 JUMPI JUMP JUMPDEST DUP2 PUSH1 0x1F DUP3 ADD SLT ISZERO PUSH2 0x384 JUMPI DUP1 MLOAD SWAP2 PUSH2 0x703 DUP4 PUSH2 0x3C1 JUMP JUMPDEST SWAP3 PUSH2 0x711 PUSH1 0x40 MLOAD SWAP5 DUP6 PUSH2 0x389 JUMP JUMPDEST DUP1 DUP5 MSTORE PUSH1 0x20 SWAP3 DUP4 DUP1 DUP7 ADD SWAP3 PUSH1 0x5 SHL DUP3 ADD ADD SWAP3 DUP4 GT PUSH2 0x384 JUMPI DUP4 ADD SWAP1 JUMPDEST DUP3 DUP3 LT PUSH2 0x73B JUMPI POP POP POP POP SWAP1 JUMP JUMPDEST DUP2 MLOAD DUP2 MSTORE SWAP1 DUP4 ADD SWAP1 DUP4 ADD PUSH2 0x72D JUMP JUMPDEST SWAP1 PUSH1 0x40 SWAP1 DUP2 MLOAD SWAP4 DUP5 SWAP3 DUP4 SWAP3 PUSH1 0xE0 SWAP3 DUP4 SHL DUP5 MSTORE PUSH1 0x1 DUP1 PUSH1 0xA0 SHL SUB SWAP1 DUP2 PUSH1 0x4 SWAP8 AND DUP8 DUP7 ADD MSTORE PUSH1 0x0 SWAP6 DUP7 SWAP2 PUSH1 0x24 SWAP7 DUP8 SWAP2 GAS STATICCALL SWAP7 DUP8 ISZERO PUSH2 0x9EB JUMPI DUP6 SWAP8 PUSH2 0x828 JUMPI JUMPDEST POP POP POP POP DUP4 MLOAD ISZERO PUSH2 0x821 JUMPI DUP2 JUMPDEST DUP5 MLOAD DUP2 LT ISZERO PUSH2 0x817 JUMPI PUSH2 0x7A7 DUP2 DUP7 PUSH2 0x6B1 JUMP JUMPDEST MLOAD PUSH4 0xFFFFFFFF DUP1 PUSH1 0x80 DUP4 ADD MLOAD AND DUP1 PUSH2 0x7CB JUMPI JUMPDEST POP POP POP PUSH2 0x7C6 SWAP1 PUSH2 0x6A2 JUMP JUMPDEST PUSH2 0x794 JUMP JUMPDEST DUP2 PUSH1 0x60 DUP5 ADD MLOAD AND SUB SWAP2 DUP2 DUP4 GT PUSH2 0x805 JUMPI PUSH1 0xC0 ADD MLOAD PUSH2 0x7EC SWAP3 SWAP1 SWAP2 AND SWAP1 PUSH2 0x6B1 JUMP JUMPDEST MLOAD TIMESTAMP GT PUSH2 0x7FB JUMPI CODESIZE DUP1 DUP1 PUSH2 0x7BA JUMP JUMPDEST POP POP POP POP POP PUSH1 0x2 SWAP1 JUMP JUMPDEST PUSH4 0x4E487B71 PUSH1 0xE0 SHL DUP7 MSTORE PUSH1 0x11 DUP8 MSTORE DUP5 DUP7 REVERT JUMPDEST POP POP POP POP POP PUSH1 0x1 SWAP1 JUMP JUMPDEST POP SWAP2 POP POP SWAP1 JUMP JUMPDEST SWAP1 SWAP2 SWAP3 SWAP4 SWAP7 POP RETURNDATASIZE DUP1 DUP7 DUP4 RETURNDATACOPY PUSH2 0x83D DUP2 DUP4 PUSH2 0x389 JUMP JUMPDEST DUP2 ADD SWAP3 DUP1 DUP3 DUP6 SUB SLT PUSH2 0x9E7 JUMPI DUP2 MLOAD SWAP3 PUSH8 0xFFFFFFFFFFFFFFFF SWAP4 DUP5 DUP2 GT PUSH2 0x9E3 JUMPI DUP4 ADD SWAP1 DUP6 PUSH1 0x1F DUP4 ADD SLT ISZERO PUSH2 0x9E3 JUMPI DUP2 MLOAD SWAP1 PUSH2 0x877 DUP3 PUSH2 0x3C1 JUMP JUMPDEST SWAP8 PUSH2 0x884 DUP6 MLOAD SWAP10 DUP11 PUSH2 0x389 JUMP JUMPDEST DUP3 DUP10 MSTORE PUSH1 0x20 SWAP5 DUP6 DUP1 DUP12 ADD SWAP5 PUSH1 0x5 SHL DUP7 ADD ADD SWAP5 DUP10 DUP7 GT PUSH2 0x9DF JUMPI DUP7 DUP2 ADD SWAP5 JUMPDEST DUP7 DUP7 LT PUSH2 0x8D4 JUMPI POP POP POP POP POP POP POP DUP2 ADD MLOAD SWAP2 DUP3 GT PUSH2 0x8D0 JUMPI PUSH2 0x8C5 SWAP3 SWAP2 ADD PUSH2 0x6EC JUMP JUMPDEST POP SWAP3 CODESIZE DUP1 DUP1 DUP1 PUSH2 0x787 JUMP JUMPDEST DUP5 DUP1 REVERT JUMPDEST DUP6 MLOAD DUP11 DUP2 GT PUSH2 0x9DB JUMPI PUSH2 0x120 SWAP1 DUP4 ADD DUP1 DUP14 SUB PUSH1 0x1F NOT ADD DUP3 SGT PUSH2 0x9D7 JUMPI DUP5 MLOAD SWAP2 DUP1 DUP4 ADD DUP14 DUP2 GT DUP5 DUP3 LT OR PUSH2 0x9C0 JUMPI DUP7 MSTORE DUP11 DUP3 ADD MLOAD DUP9 DUP2 AND DUP2 SUB PUSH2 0x9BB JUMPI DUP4 MSTORE DUP6 DUP3 ADD MLOAD DUP12 DUP5 ADD MSTORE PUSH1 0x60 DUP1 DUP4 ADD MLOAD PUSH1 0x3 DUP2 LT ISZERO PUSH2 0x9B5 JUMPI DUP8 DUP6 ADD MSTORE PUSH1 0x80 SWAP1 PUSH2 0x93B DUP3 DUP6 ADD PUSH2 0x6DB JUMP JUMPDEST SWAP1 DUP6 ADD MSTORE PUSH1 0xA0 SWAP1 PUSH2 0x94D DUP3 DUP6 ADD PUSH2 0x6DB JUMP JUMPDEST SWAP1 DUP6 ADD MSTORE PUSH1 0xC0 SWAP1 DUP2 DUP5 ADD MLOAD SWAP1 DUP6 ADD MSTORE DUP14 DUP9 DUP5 ADD MLOAD SWAP1 DUP2 GT PUSH2 0x9B5 JUMPI DUP16 DUP14 PUSH2 0x976 SWAP3 DUP7 ADD ADD PUSH2 0x6EC JUMP JUMPDEST SWAP1 DUP5 ADD MSTORE PUSH2 0x100 SWAP2 DUP14 DUP4 DUP3 ADD MLOAD SWAP1 DUP2 GT PUSH2 0x9B5 JUMPI SWAP2 DUP16 SWAP2 PUSH2 0x9A0 DUP15 SWAP8 SWAP6 SWAP4 DUP9 DUP1 SWAP9 SWAP7 DUP5 ADD ADD PUSH2 0x6EC JUMP JUMPDEST DUP11 DUP6 ADD MSTORE ADD MLOAD SWAP1 DUP3 ADD MSTORE DUP2 MSTORE ADD SWAP6 ADD SWAP5 PUSH2 0x8A2 JUMP JUMPDEST POP POP DUP16 DUP1 REVERT JUMPDEST POP DUP16 DUP1 REVERT JUMPDEST POP POP PUSH4 0x4E487B71 PUSH1 0xE0 SHL DUP16 MSTORE POP POP PUSH1 0x41 DUP15 MSTORE POP DUP14 DUP13 REVERT JUMPDEST DUP15 DUP1 REVERT JUMPDEST DUP14 DUP1 REVERT JUMPDEST DUP12 DUP1 REVERT JUMPDEST DUP8 DUP1 REVERT JUMPDEST DUP6 DUP1 REVERT JUMPDEST DUP3 MLOAD RETURNDATASIZE DUP8 DUP3 RETURNDATACOPY RETURNDATASIZE SWAP1 REVERT JUMPDEST DUP1 SLOAD DUP3 LT ISZERO PUSH2 0x6C5 JUMPI PUSH1 0x0 MSTORE PUSH1 0x20 PUSH1 0x0 KECCAK256 ADD SWAP1 PUSH1 0x0 SWAP1 JUMP JUMPDEST SWAP1 DUP2 SLOAD SWAP2 PUSH9 0x10000000000000000 DUP4 LT ISZERO PUSH2 0x3AB JUMPI DUP3 PUSH2 0xA35 SWAP2 PUSH1 0x1 PUSH2 0xA54 SWAP6 ADD DUP2 SSTORE PUSH2 0x9F5 JUMP JUMPDEST SWAP1 SWAP2 SWAP1 DUP3 SLOAD SWAP1 PUSH1 0x3 SHL SWAP2 PUSH1 0x1 DUP1 PUSH1 0xA0 SHL SUB DUP1 SWAP2 AND DUP4 SHL SWAP3 SHL NOT AND OR SWAP1 SSTORE JUMP JUMPDEST JUMP JUMPDEST PUSH1 0x0 SWAP2 JUMPDEST DUP2 SLOAD SWAP3 DUP4 DUP2 LT ISZERO PUSH2 0xB0A JUMPI PUSH2 0xA6F DUP2 DUP5 PUSH2 0x9F5 JUMP JUMPDEST SWAP1 SLOAD PUSH1 0x3 SWAP6 PUSH1 0x1 PUSH1 0x1 PUSH1 0xA0 SHL SUB SWAP3 SWAP1 SWAP2 SWAP1 DUP8 SHL SHR DUP3 AND DUP5 DUP4 AND EQ PUSH2 0xAA2 JUMPI POP POP PUSH2 0xA9B SWAP2 SWAP3 SWAP4 POP PUSH2 0x6A2 JUMP JUMPDEST SWAP2 SWAP1 PUSH2 0xA5A JUMP JUMPDEST SWAP1 SWAP3 POP PUSH1 0x0 NOT SWAP2 DUP3 DUP3 ADD SWAP2 DUP3 GT PUSH2 0x5ED JUMPI PUSH2 0xA35 DUP5 PUSH2 0xAC4 PUSH2 0xAD2 SWAP5 DUP9 PUSH2 0x9F5 JUMP JUMPDEST SWAP1 SLOAD SWAP1 DUP10 SHL SHR AND SWAP2 DUP7 PUSH2 0x9F5 JUMP JUMPDEST DUP3 SLOAD DUP1 ISZERO PUSH2 0xAF4 JUMPI ADD SWAP3 PUSH2 0xAE6 DUP5 DUP5 PUSH2 0x9F5 JUMP JUMPDEST DUP2 SWAP4 SWAP2 SLOAD SWAP3 SHL SHL NOT AND SWAP1 SSTORE SSTORE JUMP JUMPDEST PUSH4 0x4E487B71 PUSH1 0xE0 SHL PUSH1 0x0 MSTORE PUSH1 0x31 PUSH1 0x4 MSTORE PUSH1 0x24 PUSH1 0x0 REVERT JUMPDEST POP POP POP POP JUMP JUMPDEST SWAP1 PUSH1 0x40 MLOAD SWAP2 DUP3 DUP2 SLOAD SWAP2 DUP3 DUP3 MSTORE PUSH1 0x20 SWAP3 DUP4 DUP4 ADD SWAP2 PUSH1 0x0 MSTORE DUP4 PUSH1 0x0 KECCAK256 SWAP4 PUSH1 0x0 SWAP1 JUMPDEST DUP3 DUP3 LT PUSH2 0xB45 JUMPI POP POP POP PUSH2 0xA54 SWAP3 POP SUB DUP4 PUSH2 0x389 JUMP JUMPDEST DUP6 SLOAD PUSH1 0x1 PUSH1 0x1 PUSH1 0xA0 SHL SUB AND DUP5 MSTORE PUSH1 0x1 SWAP6 DUP7 ADD SWAP6 DUP9 SWAP6 POP SWAP4 DUP2 ADD SWAP4 SWAP1 SWAP2 ADD SWAP1 PUSH2 0xB2F JUMP INVALID LOG2 PUSH5 0x6970667358 0x22 SLT KECCAK256 DUP6 PUSH30 0x7E9A1D72B7B7E038EF2AA4A0626C1C556D003BE5E8AFEAC64348C447B55C PUSH5 0x736F6C6343 STOP ADDMOD SGT STOP CALLER "},"methodIdentifiers":{"MONTHLY_INTERVAL()":"4ecc68a7","checkAndTriggerMonthlyUpdate(DebtTracker.DebtStorage storage,address[],function)":"311eacf4","getBorrowerStatus(DebtTracker.DebtStorage storage,address)":"57feb96c","getBorrowersWithDebt(DebtTracker.DebtStorage storage)":"7fd5e70b","getBorrowersWithoutDebt(DebtTracker.DebtStorage storage)":"404b48bf","hasActiveDebt(DebtTracker.DebtStorage storage,address)":"2de6c284","hasOverdueDebt(DebtTracker.DebtStorage storage,address)":"2de5e9bf","nextMonthlyUpdate(DebtTracker.DebtStorage storage)":"dd9f00e6","shouldTriggerUpdate(DebtTracker.DebtStorage storage)":"f28e2c2f","updateBorrowerDebtStatus(DebtTracker.DebtStorage storage,address,function)":"e63dd531"}}}}}