{"contracts/ReputationSystem.sol":{"ReputationSystem":{"abi":[{"inputs":[],"stateMutability":"nonpayable","type":"constructor"},{"inputs":[],"name":"ActiveElectionExists","type":"error"},{"inputs":[],"name":"ElectionExpired","type":"error"},{"inputs":[],"name":"ElectionNotActive","type":"error"},{"inputs":[],"name":"InvalidCandidate","type":"error"},{"inputs":[],"name":"MemberAlreadyVoted","type":"error"},{"inputs":[],"name":"MemberIdOrWalletInvalid","type":"error"},{"inputs":[],"name":"NoCandidates","type":"error"},{"inputs":[],"name":"UnauthorizedCaller","type":"error"},{"inputs":[],"name":"WalletAlreadyVinculated","type":"error"},{"anonymous":false,"inputs":[{"indexed":true,"internalType":"address","name":"caller","type":"address"},{"indexed":false,"internalType":"bool","name":"authorized","type":"bool"}],"name":"AuthorizedCallerUpdated","type":"event"},{"anonymous":false,"inputs":[{"indexed":true,"internalType":"uint32","name":"electionId","type":"uint32"},{"indexed":true,"internalType":"uint32","name":"candidateId","type":"uint32"}],"name":"CandidateAdded","type":"event"},{"anonymous":false,"inputs":[{"indexed":true,"internalType":"uint32","name":"electionId","type":"uint32"},{"indexed":true,"internalType":"uint32","name":"winnerId","type":"uint32"},{"indexed":false,"internalType":"int32","name":"winningVotes","type":"int32"}],"name":"ElectionClosed","type":"event"},{"anonymous":false,"inputs":[{"indexed":true,"internalType":"uint32","name":"electionId","type":"uint32"},{"indexed":true,"internalType":"uint32","name":"candidateId","type":"uint32"},{"indexed":false,"internalType":"uint256","name":"startTime","type":"uint256"},{"indexed":false,"internalType":"uint256","name":"endTime","type":"uint256"}],"name":"ElectionOpened","type":"event"},{"anonymous":false,"inputs":[{"indexed":true,"internalType":"uint32","name":"memberId","type":"uint32"},{"indexed":true,"internalType":"address","name":"wallet","type":"address"},{"indexed":false,"internalType":"uint256","name":"timestamp","type":"uint256"}],"name":"MemberToWalletVinculation","type":"event"},{"anonymous":false,"inputs":[{"indexed":true,"internalType":"address","name":"previousOwner","type":"address"},{"indexed":true,"internalType":"address","name":"newOwner","type":"address"}],"name":"OwnershipTransferred","type":"event"},{"anonymous":false,"inputs":[{"indexed":true,"internalType":"uint32","name":"memberId","type":"uint32"},{"indexed":false,"internalType":"int32","name":"points","type":"int32"},{"indexed":false,"internalType":"bool","name":"increase","type":"bool"},{"indexed":false,"internalType":"int32","name":"newReputation","type":"int32"},{"indexed":false,"internalType":"uint256","name":"timestamp","type":"uint256"}],"name":"ReputationChanged","type":"event"},{"anonymous":false,"inputs":[{"indexed":true,"internalType":"uint32","name":"electionId","type":"uint32"},{"indexed":true,"internalType":"uint32","name":"winnerId","type":"uint32"},{"indexed":false,"internalType":"int32","name":"winningVotes","type":"int32"}],"name":"UnbeatableMajorityReached","type":"event"},{"anonymous":false,"inputs":[{"indexed":true,"internalType":"uint32","name":"electionId","type":"uint32"},{"indexed":true,"internalType":"uint32","name":"candidateId","type":"uint32"},{"indexed":true,"internalType":"uint32","name":"memberId","type":"uint32"},{"indexed":false,"internalType":"int32","name":"voteWeight","type":"int32"}],"name":"VoteCast","type":"event"},{"inputs":[],"name":"REPUTATION_GAIN_BY_COVERING_LOAN","outputs":[{"internalType":"int32","name":"","type":"int32"}],"stateMutability":"view","type":"function"},{"inputs":[],"name":"REPUTATION_GAIN_BY_REPAYNG_DEBT","outputs":[{"internalType":"int32","name":"","type":"int32"}],"stateMutability":"view","type":"function"},{"inputs":[],"name":"REPUTATION_LOSS_BY_DEBT_NOT_PAYD","outputs":[{"internalType":"int32","name":"","type":"int32"}],"stateMutability":"view","type":"function"},{"inputs":[{"internalType":"uint32","name":"electionId","type":"uint32"},{"internalType":"uint32","name":"candidateId","type":"uint32"}],"name":"addCandidate","outputs":[],"stateMutability":"nonpayable","type":"function"},{"inputs":[{"internalType":"address","name":"","type":"address"}],"name":"authorizedCallers","outputs":[{"internalType":"bool","name":"","type":"bool"}],"stateMutability":"view","type":"function"},{"inputs":[{"internalType":"uint32","name":"electionId","type":"uint32"}],"name":"checkUnbeatableMajority","outputs":[{"internalType":"bool","name":"isUnbeatable","type":"bool"},{"internalType":"uint32","name":"leadingCandidate","type":"uint32"},{"internalType":"int32","name":"leadingVotes","type":"int32"},{"internalType":"uint32","name":"secondCandidate","type":"uint32"},{"internalType":"int32","name":"secondVotes","type":"int32"}],"stateMutability":"view","type":"function"},{"inputs":[{"internalType":"uint32","name":"electionId","type":"uint32"}],"name":"closeElection","outputs":[],"stateMutability":"nonpayable","type":"function"},{"inputs":[{"internalType":"uint256","name":"","type":"uint256"}],"name":"elections","outputs":[{"internalType":"uint32","name":"id","type":"uint32"},{"internalType":"uint256","name":"startTime","type":"uint256"},{"internalType":"uint256","name":"endTime","type":"uint256"},{"internalType":"bool","name":"active","type":"bool"},{"internalType":"uint32","name":"winnerId","type":"uint32"},{"internalType":"int32","name":"winningVotes","type":"int32"},{"internalType":"int32","name":"totalVotesCast","type":"int32"},{"internalType":"int32","name":"potentialRemainingVotes","type":"int32"}],"stateMutability":"view","type":"function"},{"inputs":[{"internalType":"uint32","name":"candidateId","type":"uint32"}],"name":"getCandidateVotes","outputs":[{"internalType":"int32","name":"","type":"int32"}],"stateMutability":"view","type":"function"},{"inputs":[],"name":"getCurrentElectionId","outputs":[{"internalType":"int32","name":"","type":"int32"}],"stateMutability":"view","type":"function"},{"inputs":[{"internalType":"uint32","name":"electionId","type":"uint32"}],"name":"getElectionInfo","outputs":[{"internalType":"uint32","name":"id","type":"uint32"},{"internalType":"uint32[]","name":"candidates","type":"uint32[]"},{"internalType":"uint256","name":"startTime","type":"uint256"},{"internalType":"uint256","name":"endTime","type":"uint256"},{"internalType":"bool","name":"active","type":"bool"},{"internalType":"uint32","name":"winnerId","type":"uint32"},{"internalType":"int32","name":"winningVotes","type":"int32"},{"internalType":"int32","name":"totalVotesCast","type":"int32"}],"stateMutability":"view","type":"function"},{"inputs":[{"internalType":"address","name":"wallet","type":"address"}],"name":"getMemberId","outputs":[{"internalType":"uint32","name":"","type":"uint32"}],"stateMutability":"view","type":"function"},{"inputs":[{"internalType":"uint32","name":"memberId","type":"uint32"}],"name":"getReputation","outputs":[{"internalType":"int32","name":"","type":"int32"}],"stateMutability":"view","type":"function"},{"inputs":[{"internalType":"uint32","name":"electionId","type":"uint32"},{"internalType":"uint32","name":"memberId","type":"uint32"}],"name":"hasMemberVoted","outputs":[{"internalType":"bool","name":"","type":"bool"}],"stateMutability":"view","type":"function"},{"inputs":[{"internalType":"uint32","name":"","type":"uint32"},{"internalType":"uint32","name":"","type":"uint32"}],"name":"hasVotedInElection","outputs":[{"internalType":"bool","name":"","type":"bool"}],"stateMutability":"view","type":"function"},{"inputs":[{"internalType":"uint32","name":"","type":"uint32"}],"name":"isModerator","outputs":[{"internalType":"bool","name":"","type":"bool"}],"stateMutability":"view","type":"function"},{"inputs":[{"internalType":"address","name":"wallet","type":"address"}],"name":"isWalletVinculated","outputs":[{"internalType":"bool","name":"","type":"bool"}],"stateMutability":"view","type":"function"},{"inputs":[{"internalType":"uint32","name":"","type":"uint32"}],"name":"moderatorVotesReceived","outputs":[{"internalType":"int32","name":"","type":"int32"}],"stateMutability":"view","type":"function"},{"inputs":[{"internalType":"uint32","name":"candidateId","type":"uint32"}],"name":"openElection","outputs":[],"stateMutability":"nonpayable","type":"function"},{"inputs":[],"name":"owner","outputs":[{"internalType":"address","name":"","type":"address"}],"stateMutability":"view","type":"function"},{"inputs":[{"internalType":"uint32","name":"memberId","type":"uint32"}],"name":"removeModerator","outputs":[],"stateMutability":"nonpayable","type":"function"},{"inputs":[],"name":"renounceOwnership","outputs":[],"stateMutability":"nonpayable","type":"function"},{"inputs":[{"internalType":"uint32","name":"memberId","type":"uint32"},{"internalType":"int32","name":"points","type":"int32"},{"internalType":"bool","name":"increase","type":"bool"}],"name":"reputationChange","outputs":[],"stateMutability":"nonpayable","type":"function"},{"inputs":[{"internalType":"address","name":"caller","type":"address"},{"internalType":"bool","name":"authorized","type":"bool"}],"name":"setAuthorizedCaller","outputs":[],"stateMutability":"nonpayable","type":"function"},{"inputs":[{"internalType":"address","name":"newOwner","type":"address"}],"name":"transferOwnership","outputs":[],"stateMutability":"nonpayable","type":"function"},{"inputs":[{"internalType":"uint32","name":"memberId","type":"uint32"},{"internalType":"address","name":"wallet","type":"address"}],"name":"vinculationMemberToWallet","outputs":[],"stateMutability":"nonpayable","type":"function"},{"inputs":[{"internalType":"uint32","name":"electionId","type":"uint32"},{"internalType":"uint32","name":"candidateId","type":"uint32"},{"internalType":"uint32","name":"memberId","type":"uint32"}],"name":"voteForModerator","outputs":[],"stateMutability":"nonpayable","type":"function"}],"evm":{"bytecode":{"linkReferences":{},"object":"608060405234801561001057600080fd5b50600160005561001f3361003e565b336000908152600260205260409020805460ff19166001179055610090565b600180546001600160a01b038381166001600160a01b0319831681179093556040519116919082907f8be0079c531659141344cd1fd0a4f28419497f9722a3daafe3b4186f6b6457e090600090a35050565b611d5a8061009f6000396000f3fe608060405234801561001057600080fd5b50600436106101a95760003560e01c80636f53c3d8116100f9578063a5118bf111610097578063c269014b11610071578063c269014b1461049e578063d5be8c4a146104e2578063f2fde38b146104ea578063fe2b536b146104fd57600080fd5b8063a5118bf114610445578063b1cc1f8f1461044d578063b3f8df401461047057600080fd5b806381db2284116100d357806381db2284146103cb5780638249dea6146103f45780638450a681146104075780638da5cb5b1461042a57600080fd5b80636f53c3d81461038757806370574c4b1461039a578063715018a6146103c357600080fd5b80634b45e00f11610166578063536fff6c11610140578063536fff6c146102c0578063598a562a146102e35780635d090176146103145780635e6fef011461032757600080fd5b80634b45e00f1461027f5780634e5ecf1314610292578063533dfa35146102ad57600080fd5b80631f7f505c146101ae57806321bb31e4146101d6578063232775c3146101eb578063244ad96714610212578063315f776014610225578063454bbd291461026c575b600080fd5b6101c16101bc366004611a20565b610505565b60405190151581526020015b60405180910390f35b6101e96101e4366004611a6a565b610532565b005b6101fe6101f9366004611a94565b610611565b6040516101cd989796959493929190611ab6565b6101e9610220366004611b55565b610756565b610238610233366004611a94565b610a6b565b60408051951515865263ffffffff9485166020870152600393840b90860152921660608401520b608082015260a0016101cd565b6101e961027a366004611ba8565b610b34565b6101e961028d366004611a94565b610b9b565b61029a600181565b60405160039190910b81526020016101cd565b6101e96102bb366004611bd2565b610dc3565b6101c16102ce366004611c14565b60026020526000908152604090205460ff1681565b6101c16102f1366004611c14565b6001600160a01b031660009081526003602052604090205463ffffffff16151590565b6101e9610322366004611a20565b610f19565b61033a610335366004611c2f565b611042565b6040805163ffffffff998a1681526020810198909852870195909552921515606086015294166080840152600393840b60a0840152830b60c083015290910b60e0820152610100016101cd565b6101e9610395366004611a94565b6110b1565b61029a6103a8366004611a94565b63ffffffff1660009081526006602052604090205460030b90565b6101e96110d7565b61029a6103d9366004611a94565b63ffffffff1660009081526004602052604090205460030b90565b6101e9610402366004611a94565b6110eb565b61029a610415366004611a94565b60066020526000908152604090205460030b81565b6001546040516001600160a01b0390911681526020016101cd565b61029a600381565b6101c161045b366004611a94565b60056020526000908152604090205460ff1681565b6101c161047e366004611a20565b600760209081526000928352604080842090915290825290205460ff1681565b6104cd6104ac366004611c14565b6001600160a01b031660009081526003602052604090205463ffffffff1690565b60405163ffffffff90911681526020016101cd565b61029a600281565b6101e96104f8366004611c14565b6113e6565b61029a611464565b63ffffffff80831660009081526007602090815260408083209385168352929052205460ff165b92915050565b818163ffffffff8216158061054e57506001600160a01b038116155b1561056c57604051630cff23e760e01b815260040160405180910390fd5b6001600160a01b03811660009081526003602052604090205463ffffffff16156105a9576040516377030a8760e11b815260040160405180910390fd5b6001600160a01b038316600081815260036020908152604091829020805463ffffffff191663ffffffff891690811790915591514281527f605181a3cca1307ae9b2df54d6592ddf8f82c3570c6938f36d61cd23b6b57a8d910160405180910390a350505050565b60006060600080600080600080886009805490508163ffffffff161061064a57604051638744898560e01b815260040160405180910390fd5b600060098b63ffffffff168154811061066557610665611c48565b600091825260209182902060059091020180546002820154600380840154600485015460018601805460408051828b0281018b0190915281815297995063ffffffff9687169891979596939560ff841695610100850490951694600160281b8504810b94600160481b9004900b929091899183018282801561073257602002820191906000526020600020906000905b82829054906101000a900463ffffffff1663ffffffff16815260200190600401906020826003010492830192600103820291508084116106f55790505b50505050509650995099509950995099509950995099505050919395975091939597565b803363ffffffff8216158061078c57506001600160a01b03811660009081526003602052604090205463ffffffff838116911614155b156107aa57604051630cff23e760e01b815260040160405180910390fd5b600954859063ffffffff8216106107d457604051638744898560e01b815260040160405180910390fd5b85600060098263ffffffff16815481106107f0576107f0611c48565b9060005260206000209060050201905080600301544211806108175750600481015460ff16155b1561083557604051638744898560e01b815260040160405180910390fd5b600060098963ffffffff168154811061085057610850611c48565b6000918252602080832063ffffffff808e168552600783526040808620918d16865292529220546005909102909101915060ff16156108a15760405162b14d3b60e61b815260040160405180910390fd5b6000805b6001830154811015610911578963ffffffff168360010182815481106108cd576108cd611c48565b6000918252602090912060088204015460079091166004026101000a900463ffffffff16036108ff5760019150610911565b8061090981611c74565b9150506108a5565b50806109305760405163e66ea08f60e01b815260040160405180910390fd5b63ffffffff881660009081526004602052604081205460030b90811215610955575060005b63ffffffff808c1660009081526007602090815260408083208d851684528252808320805460ff19166001179055928d1682526006905290812080548392906109a290849060030b611c8d565b92506101000a81548163ffffffff021916908360030b63ffffffff160217905550808360040160098282829054906101000a900460030b6109e39190611c8d565b92506101000a81548163ffffffff021916908360030b63ffffffff160217905550610a0e8b8a6114d1565b604051600382900b815263ffffffff808b16918c8216918e16907f01918cd6e2704e854c925442ca2caa9ef7187126224a112077220e8316519d669060200160405180910390a4610a5e8b611565565b5050505050505050505050565b6000806000806000856009805490508163ffffffff1610610a9f57604051638744898560e01b815260040160405180910390fd5b600060098863ffffffff1681548110610aba57610aba611c48565b90600052602060002090600502019050600281600101805490501015610af25760008060008060009650965096509650965050610b2a565b610afb886116ce565b600485015493995091975095509350610b1e90600160681b900460030b84611c8d565b60030b8560030b139650505b5091939590929450565b610b3c611827565b6001600160a01b038216600081815260026020908152604091829020805460ff191685151590811790915591519182527fad857fa38c9319cb80848f1ef2f924383b90297eb5d71755738ff037d100faa1910160405180910390a25050565b600954819063ffffffff821610610bc557604051638744898560e01b815260040160405180910390fd5b610bcd611827565b600060098363ffffffff1681548110610be857610be8611c48565b60009182526020909120600590910201600481015490915060ff16610c2057604051638744898560e01b815260040160405180910390fd5b6001810154600003610c4557604051633941064160e21b815260040160405180910390fd5b60048101805460ff19169055600181018054600091908290610c6957610c69611c48565b6000918252602080832060088304015460079092166004026101000a90910463ffffffff16808352600690915260409091205490915060030b60015b6001840154811015610d2a576000846001018281548110610cc857610cc8611c48565b6000918252602080832060088304015460079092166004026101000a90910463ffffffff168083526006909152604090912054909150600390810b9084900b811315610d15578194508093505b50508080610d2290611c74565b915050610ca5565b5063ffffffff8281166000818152600560209081526040918290208054600160ff1990911617905560048701805468ffffffffffffffff001916610100850268ffffffff0000000000191617600160281b878716021790559051600385900b815291928816917f2b056a7f2ae4dfec88dc5458429e82a178c97e5019b817058ae7dcd455da9e8591015b60405180910390a35050505050565b3360009081526002602052604090205460ff16610df357604051635c427cd960e01b815260040160405180910390fd5b823363ffffffff82161580610e2957506001600160a01b03811660009081526003602052604090205463ffffffff838116911614155b15610e4757604051630cff23e760e01b815260040160405180910390fd5b63ffffffff851660009081526004602052604081205460030b908415610e7857610e718683611c8d565b9050610e94565b610e828683611cb4565b905060008160030b1215610e94575060005b63ffffffff878116600081815260046020908152604091829020805463ffffffff191694861694909417909355805160038a810b8252891515948201949094529284900b90830152426060830152907f72194f756300fff6bfc1d45660da70048be350dc1aad864b9280fa75c3ff696c9060800160405180910390a250505050505050565b600954829063ffffffff821610610f4357604051638744898560e01b815260040160405180910390fd5b82600060098263ffffffff1681548110610f5f57610f5f611c48565b906000526020600020906005020190508060030154421180610f865750600481015460ff16155b15610fa457604051638744898560e01b815260040160405180910390fd5b600060098663ffffffff1681548110610fbf57610fbf611c48565b6000918252602080832060059290920290910160018181018054918201815584529183206008830401805460079093166004026101000a63ffffffff818102199094168a85169182021790915560405191945092918916917f2497edd456da400fdf8e24a5943faebba37fc1a396be5ff9ef6105aede63e26b91a3505050505050565b6009818154811061105257600080fd5b600091825260209091206005909102018054600282015460038084015460049094015463ffffffff938416955091939260ff831692610100810490911691600160281b8204810b91600160481b8104820b91600160681b909104900b88565b6110b9611827565b63ffffffff166000908152600560205260409020805460ff19169055565b6110df611827565b6110e96000611881565b565b6009541580159061112f57506009805461110790600190611cdb565b8154811061111757611117611c48565b600091825260209091206004600590920201015460ff165b1561114d5760405163eca8873760e01b815260040160405180910390fd5b604080516101208101825260008082526060602083018190529282018190529181018290526080810182905260a0810182905260c0810182905260e081018290526101008101919091526008805463ffffffff169060006111ad83611cee565b82546101009290920a63ffffffff818102199093169183160217909155168152604080516001808252818301909252906020808301908036833750505060208201819052805183919060009061120557611205611c48565b63ffffffff90921660209283029190910190910152426040820181905261122f9062278d00611d11565b606082015260016080820152600060e082015261124a6118d3565b60030b6101008201526009805460018101825560009190915281517f6e1540171b6c0c960b71a7020d9f60077f6af931a8bbf590da0223dacf75c7af6005909202918201805463ffffffff191663ffffffff909216919091178155602080840151805185946112df937f6e1540171b6c0c960b71a7020d9f60077f6af931a8bbf590da0223dacf75c7b0909101920190611943565b506040828101516002830155606080840151600384015560808401516004909301805460a086015160c087015160e08801516101009889015164ffffffffff1990941697151564ffffffff0019169790971763ffffffff928316909802979097176cffffffffffffffff00000000001916600160281b978216979097026cffffffff000000000000000000191696909617600160481b958716959095029490941763ffffffff60681b1916600160681b948616949094029390931790925583518482015192850151825193845260208401528584169316917f4610b24bbfb857173e063b234e3a2475409bf5921c3f541f435eb016c5aad89f910160405180910390a35050565b6113ee611827565b6001600160a01b0381166114585760405162461bcd60e51b815260206004820152602660248201527f4f776e61626c653a206e6577206f776e657220697320746865207a65726f206160448201526564647265737360d01b60648201526084015b60405180910390fd5b61146181611881565b50565b6009546000908103611477575060001990565b600980546000919061148b90600190611cdb565b8154811061149b5761149b611c48565b60009182526020909120600590910201600481015490915060ff166114c2576000196114cb565b805463ffffffff165b91505090565b600060098363ffffffff16815481106114ec576114ec611c48565b6000918252602080832063ffffffff8616845260049091526040832054600590920201925060030b9081131561155f57600482018054829190600d9061153d908490600160681b900460030b611cb4565b92506101000a81548163ffffffff021916908360030b63ffffffff1602179055505b50505050565b600060098263ffffffff168154811061158057611580611c48565b906000526020600020906005020190506002816001018054905010156115a4575050565b60008060006115b2856116ce565b935050925092508263ffffffff166000036115ce575050505050565b60048401546115e790600160681b900460030b82611c8d565b60030b8260030b13156116c75760048401805468ffffffffffffffffff191661010063ffffffff86811691820268ffffffff0000000000191692909217600160281b8684160217909255600082815260056020908152604091829020805460ff191660011790559051600386900b8152918816917f6fb21c4c14810ceb320306eda3d07c6738412088c17a66604afe100ae599b182910160405180910390a3604051600383900b815263ffffffff80851691908716907f2b056a7f2ae4dfec88dc5458429e82a178c97e5019b817058ae7dcd455da9e8590602001610db4565b5050505050565b600080600080600060098663ffffffff16815481106116ef576116ef611c48565b90600052602060002090600502019050806001018054905060000361172257600080600080945094509450945050611820565b8060010160008154811061173857611738611c48565b6000918252602080832060088304015460079092166004026101000a90910463ffffffff168083526006909152604082205490965060030b9450925082915060015b600182015481101561181d57600082600101828154811061179d5761179d611c48565b6000918252602080832060088304015460079092166004026101000a90910463ffffffff168083526006909152604090912054909150600390810b9087900b8113156117f3579096909590945092508585611808565b8460030b8160030b1315611808578195508094505b5050808061181590611c74565b91505061177a565b50505b9193509193565b6001546001600160a01b031633146110e95760405162461bcd60e51b815260206004820181905260248201527f4f776e61626c653a2063616c6c6572206973206e6f7420746865206f776e6572604482015260640161144f565b600180546001600160a01b038381166001600160a01b0319831681179093556040519116919082907f8be0079c531659141344cd1fd0a4f28419497f9722a3daafe3b4186f6b6457e090600090a35050565b60008060015b63ffffffff8181161161193d5763ffffffff811660009081526004602052604081205460030b131561192b5763ffffffff81166000908152600460205260409020546119289060030b83611c8d565b91505b8061193581611cee565b9150506118d9565b50919050565b828054828255906000526020600020906007016008900481019282156119e25791602002820160005b838211156119b057835183826101000a81548163ffffffff021916908363ffffffff160217905550926020019260040160208160030104928301926001030261196c565b80156119e05782816101000a81549063ffffffff02191690556004016020816003010492830192600103026119b0565b505b506119ee9291506119f2565b5090565b5b808211156119ee57600081556001016119f3565b803563ffffffff81168114611a1b57600080fd5b919050565b60008060408385031215611a3357600080fd5b611a3c83611a07565b9150611a4a60208401611a07565b90509250929050565b80356001600160a01b0381168114611a1b57600080fd5b60008060408385031215611a7d57600080fd5b611a8683611a07565b9150611a4a60208401611a53565b600060208284031215611aa657600080fd5b611aaf82611a07565b9392505050565b63ffffffff898116825261010060208084018290528a519184018290526000926101208501928c83019290855b81811015611b01578451841686529482019493820193600101611ae3565b505050505060408301899052606083018890528615156080840152905063ffffffff851660a0830152611b3960c083018560030b9052565b611b4860e083018460030b9052565b9998505050505050505050565b600080600060608486031215611b6a57600080fd5b611b7384611a07565b9250611b8160208501611a07565b9150611b8f60408501611a07565b90509250925092565b80358015158114611a1b57600080fd5b60008060408385031215611bbb57600080fd5b611bc483611a53565b9150611a4a60208401611b98565b600080600060608486031215611be757600080fd5b611bf084611a07565b925060208401358060030b8114611c0657600080fd5b9150611b8f60408501611b98565b600060208284031215611c2657600080fd5b611aaf82611a53565b600060208284031215611c4157600080fd5b5035919050565b634e487b7160e01b600052603260045260246000fd5b634e487b7160e01b600052601160045260246000fd5b600060018201611c8657611c86611c5e565b5060010190565b600381810b9083900b01637fffffff8113637fffffff198212171561052c5761052c611c5e565b600382810b9082900b03637fffffff198112637fffffff8213171561052c5761052c611c5e565b8181038181111561052c5761052c611c5e565b600063ffffffff808316818103611d0757611d07611c5e565b6001019392505050565b8082018082111561052c5761052c611c5e56fea2646970667358221220f1ce1639f40dc4bab52a6e6b10b327bad19c8d44f0d25e01d8dee7254fa6e07964736f6c63430008130033","opcodes":"PUSH1 0x80 PUSH1 0x40 MSTORE CALLVALUE DUP1 ISZERO PUSH2 0x10 JUMPI PUSH1 0x0 DUP1 REVERT JUMPDEST POP PUSH1 0x1 PUSH1 0x0 SSTORE PUSH2 0x1F CALLER PUSH2 0x3E JUMP JUMPDEST CALLER PUSH1 0x0 SWAP1 DUP2 MSTORE PUSH1 0x2 PUSH1 0x20 MSTORE PUSH1 0x40 SWAP1 KECCAK256 DUP1 SLOAD PUSH1 0xFF NOT AND PUSH1 0x1 OR SWAP1 SSTORE PUSH2 0x90 JUMP JUMPDEST PUSH1 0x1 DUP1 SLOAD PUSH1 0x1 PUSH1 0x1 PUSH1 0xA0 SHL SUB DUP4 DUP2 AND PUSH1 0x1 PUSH1 0x1 PUSH1 0xA0 SHL SUB NOT DUP4 AND DUP2 OR SWAP1 SWAP4 SSTORE PUSH1 0x40 MLOAD SWAP2 AND SWAP2 SWAP1 DUP3 SWAP1 PUSH32 0x8BE0079C531659141344CD1FD0A4F28419497F9722A3DAAFE3B4186F6B6457E0 SWAP1 PUSH1 0x0 SWAP1 LOG3 POP POP JUMP JUMPDEST PUSH2 0x1D5A DUP1 PUSH2 0x9F PUSH1 0x0 CODECOPY PUSH1 0x0 RETURN INVALID PUSH1 0x80 PUSH1 0x40 MSTORE CALLVALUE DUP1 ISZERO PUSH2 0x10 JUMPI PUSH1 0x0 DUP1 REVERT JUMPDEST POP PUSH1 0x4 CALLDATASIZE LT PUSH2 0x1A9 JUMPI PUSH1 0x0 CALLDATALOAD PUSH1 0xE0 SHR DUP1 PUSH4 0x6F53C3D8 GT PUSH2 0xF9 JUMPI DUP1 PUSH4 0xA5118BF1 GT PUSH2 0x97 JUMPI DUP1 PUSH4 0xC269014B GT PUSH2 0x71 JUMPI DUP1 PUSH4 0xC269014B EQ PUSH2 0x49E JUMPI DUP1 PUSH4 0xD5BE8C4A EQ PUSH2 0x4E2 JUMPI DUP1 PUSH4 0xF2FDE38B EQ PUSH2 0x4EA JUMPI DUP1 PUSH4 0xFE2B536B EQ PUSH2 0x4FD JUMPI PUSH1 0x0 DUP1 REVERT JUMPDEST DUP1 PUSH4 0xA5118BF1 EQ PUSH2 0x445 JUMPI DUP1 PUSH4 0xB1CC1F8F EQ PUSH2 0x44D JUMPI DUP1 PUSH4 0xB3F8DF40 EQ PUSH2 0x470 JUMPI PUSH1 0x0 DUP1 REVERT JUMPDEST DUP1 PUSH4 0x81DB2284 GT PUSH2 0xD3 JUMPI DUP1 PUSH4 0x81DB2284 EQ PUSH2 0x3CB JUMPI DUP1 PUSH4 0x8249DEA6 EQ PUSH2 0x3F4 JUMPI DUP1 PUSH4 0x8450A681 EQ PUSH2 0x407 JUMPI DUP1 PUSH4 0x8DA5CB5B EQ PUSH2 0x42A JUMPI PUSH1 0x0 DUP1 REVERT JUMPDEST DUP1 PUSH4 0x6F53C3D8 EQ PUSH2 0x387 JUMPI DUP1 PUSH4 0x70574C4B EQ PUSH2 0x39A JUMPI DUP1 PUSH4 0x715018A6 EQ PUSH2 0x3C3 JUMPI PUSH1 0x0 DUP1 REVERT JUMPDEST DUP1 PUSH4 0x4B45E00F GT PUSH2 0x166 JUMPI DUP1 PUSH4 0x536FFF6C GT PUSH2 0x140 JUMPI DUP1 PUSH4 0x536FFF6C EQ PUSH2 0x2C0 JUMPI DUP1 PUSH4 0x598A562A EQ PUSH2 0x2E3 JUMPI DUP1 PUSH4 0x5D090176 EQ PUSH2 0x314 JUMPI DUP1 PUSH4 0x5E6FEF01 EQ PUSH2 0x327 JUMPI PUSH1 0x0 DUP1 REVERT JUMPDEST DUP1 PUSH4 0x4B45E00F EQ PUSH2 0x27F JUMPI DUP1 PUSH4 0x4E5ECF13 EQ PUSH2 0x292 JUMPI DUP1 PUSH4 0x533DFA35 EQ PUSH2 0x2AD JUMPI PUSH1 0x0 DUP1 REVERT JUMPDEST DUP1 PUSH4 0x1F7F505C EQ PUSH2 0x1AE JUMPI DUP1 PUSH4 0x21BB31E4 EQ PUSH2 0x1D6 JUMPI DUP1 PUSH4 0x232775C3 EQ PUSH2 0x1EB JUMPI DUP1 PUSH4 0x244AD967 EQ PUSH2 0x212 JUMPI DUP1 PUSH4 0x315F7760 EQ PUSH2 0x225 JUMPI DUP1 PUSH4 0x454BBD29 EQ PUSH2 0x26C JUMPI JUMPDEST PUSH1 0x0 DUP1 REVERT JUMPDEST PUSH2 0x1C1 PUSH2 0x1BC CALLDATASIZE PUSH1 0x4 PUSH2 0x1A20 JUMP JUMPDEST PUSH2 0x505 JUMP JUMPDEST PUSH1 0x40 MLOAD SWAP1 ISZERO ISZERO DUP2 MSTORE PUSH1 0x20 ADD JUMPDEST PUSH1 0x40 MLOAD DUP1 SWAP2 SUB SWAP1 RETURN JUMPDEST PUSH2 0x1E9 PUSH2 0x1E4 CALLDATASIZE PUSH1 0x4 PUSH2 0x1A6A JUMP JUMPDEST PUSH2 0x532 JUMP JUMPDEST STOP JUMPDEST PUSH2 0x1FE PUSH2 0x1F9 CALLDATASIZE PUSH1 0x4 PUSH2 0x1A94 JUMP JUMPDEST PUSH2 0x611 JUMP JUMPDEST PUSH1 0x40 MLOAD PUSH2 0x1CD SWAP9 SWAP8 SWAP7 SWAP6 SWAP5 SWAP4 SWAP3 SWAP2 SWAP1 PUSH2 0x1AB6 JUMP JUMPDEST PUSH2 0x1E9 PUSH2 0x220 CALLDATASIZE PUSH1 0x4 PUSH2 0x1B55 JUMP JUMPDEST PUSH2 0x756 JUMP JUMPDEST PUSH2 0x238 PUSH2 0x233 CALLDATASIZE PUSH1 0x4 PUSH2 0x1A94 JUMP JUMPDEST PUSH2 0xA6B JUMP JUMPDEST PUSH1 0x40 DUP1 MLOAD SWAP6 ISZERO ISZERO DUP7 MSTORE PUSH4 0xFFFFFFFF SWAP5 DUP6 AND PUSH1 0x20 DUP8 ADD MSTORE PUSH1 0x3 SWAP4 DUP5 SIGNEXTEND SWAP1 DUP7 ADD MSTORE SWAP3 AND PUSH1 0x60 DUP5 ADD MSTORE SIGNEXTEND PUSH1 0x80 DUP3 ADD MSTORE PUSH1 0xA0 ADD PUSH2 0x1CD JUMP JUMPDEST PUSH2 0x1E9 PUSH2 0x27A CALLDATASIZE PUSH1 0x4 PUSH2 0x1BA8 JUMP JUMPDEST PUSH2 0xB34 JUMP JUMPDEST PUSH2 0x1E9 PUSH2 0x28D CALLDATASIZE PUSH1 0x4 PUSH2 0x1A94 JUMP JUMPDEST PUSH2 0xB9B JUMP JUMPDEST PUSH2 0x29A PUSH1 0x1 DUP2 JUMP JUMPDEST PUSH1 0x40 MLOAD PUSH1 0x3 SWAP2 SWAP1 SWAP2 SIGNEXTEND DUP2 MSTORE PUSH1 0x20 ADD PUSH2 0x1CD JUMP JUMPDEST PUSH2 0x1E9 PUSH2 0x2BB CALLDATASIZE PUSH1 0x4 PUSH2 0x1BD2 JUMP JUMPDEST PUSH2 0xDC3 JUMP JUMPDEST PUSH2 0x1C1 PUSH2 0x2CE CALLDATASIZE PUSH1 0x4 PUSH2 0x1C14 JUMP JUMPDEST PUSH1 0x2 PUSH1 0x20 MSTORE PUSH1 0x0 SWAP1 DUP2 MSTORE PUSH1 0x40 SWAP1 KECCAK256 SLOAD PUSH1 0xFF AND DUP2 JUMP JUMPDEST PUSH2 0x1C1 PUSH2 0x2F1 CALLDATASIZE PUSH1 0x4 PUSH2 0x1C14 JUMP JUMPDEST PUSH1 0x1 PUSH1 0x1 PUSH1 0xA0 SHL SUB AND PUSH1 0x0 SWAP1 DUP2 MSTORE PUSH1 0x3 PUSH1 0x20 MSTORE PUSH1 0x40 SWAP1 KECCAK256 SLOAD PUSH4 0xFFFFFFFF AND ISZERO ISZERO SWAP1 JUMP JUMPDEST PUSH2 0x1E9 PUSH2 0x322 CALLDATASIZE PUSH1 0x4 PUSH2 0x1A20 JUMP JUMPDEST PUSH2 0xF19 JUMP JUMPDEST PUSH2 0x33A PUSH2 0x335 CALLDATASIZE PUSH1 0x4 PUSH2 0x1C2F JUMP JUMPDEST PUSH2 0x1042 JUMP JUMPDEST PUSH1 0x40 DUP1 MLOAD PUSH4 0xFFFFFFFF SWAP10 DUP11 AND DUP2 MSTORE PUSH1 0x20 DUP2 ADD SWAP9 SWAP1 SWAP9 MSTORE DUP8 ADD SWAP6 SWAP1 SWAP6 MSTORE SWAP3 ISZERO ISZERO PUSH1 0x60 DUP7 ADD MSTORE SWAP5 AND PUSH1 0x80 DUP5 ADD MSTORE PUSH1 0x3 SWAP4 DUP5 SIGNEXTEND PUSH1 0xA0 DUP5 ADD MSTORE DUP4 SIGNEXTEND PUSH1 0xC0 DUP4 ADD MSTORE SWAP1 SWAP2 SIGNEXTEND PUSH1 0xE0 DUP3 ADD MSTORE PUSH2 0x100 ADD PUSH2 0x1CD JUMP JUMPDEST PUSH2 0x1E9 PUSH2 0x395 CALLDATASIZE PUSH1 0x4 PUSH2 0x1A94 JUMP JUMPDEST PUSH2 0x10B1 JUMP JUMPDEST PUSH2 0x29A PUSH2 0x3A8 CALLDATASIZE PUSH1 0x4 PUSH2 0x1A94 JUMP JUMPDEST PUSH4 0xFFFFFFFF AND PUSH1 0x0 SWAP1 DUP2 MSTORE PUSH1 0x6 PUSH1 0x20 MSTORE PUSH1 0x40 SWAP1 KECCAK256 SLOAD PUSH1 0x3 SIGNEXTEND SWAP1 JUMP JUMPDEST PUSH2 0x1E9 PUSH2 0x10D7 JUMP JUMPDEST PUSH2 0x29A PUSH2 0x3D9 CALLDATASIZE PUSH1 0x4 PUSH2 0x1A94 JUMP JUMPDEST PUSH4 0xFFFFFFFF AND PUSH1 0x0 SWAP1 DUP2 MSTORE PUSH1 0x4 PUSH1 0x20 MSTORE PUSH1 0x40 SWAP1 KECCAK256 SLOAD PUSH1 0x3 SIGNEXTEND SWAP1 JUMP JUMPDEST PUSH2 0x1E9 PUSH2 0x402 CALLDATASIZE PUSH1 0x4 PUSH2 0x1A94 JUMP JUMPDEST PUSH2 0x10EB JUMP JUMPDEST PUSH2 0x29A PUSH2 0x415 CALLDATASIZE PUSH1 0x4 PUSH2 0x1A94 JUMP JUMPDEST PUSH1 0x6 PUSH1 0x20 MSTORE PUSH1 0x0 SWAP1 DUP2 MSTORE PUSH1 0x40 SWAP1 KECCAK256 SLOAD PUSH1 0x3 SIGNEXTEND DUP2 JUMP JUMPDEST PUSH1 0x1 SLOAD PUSH1 0x40 MLOAD PUSH1 0x1 PUSH1 0x1 PUSH1 0xA0 SHL SUB SWAP1 SWAP2 AND DUP2 MSTORE PUSH1 0x20 ADD PUSH2 0x1CD JUMP JUMPDEST PUSH2 0x29A PUSH1 0x3 DUP2 JUMP JUMPDEST PUSH2 0x1C1 PUSH2 0x45B CALLDATASIZE PUSH1 0x4 PUSH2 0x1A94 JUMP JUMPDEST PUSH1 0x5 PUSH1 0x20 MSTORE PUSH1 0x0 SWAP1 DUP2 MSTORE PUSH1 0x40 SWAP1 KECCAK256 SLOAD PUSH1 0xFF AND DUP2 JUMP JUMPDEST PUSH2 0x1C1 PUSH2 0x47E CALLDATASIZE PUSH1 0x4 PUSH2 0x1A20 JUMP JUMPDEST PUSH1 0x7 PUSH1 0x20 SWAP1 DUP2 MSTORE PUSH1 0x0 SWAP3 DUP4 MSTORE PUSH1 0x40 DUP1 DUP5 KECCAK256 SWAP1 SWAP2 MSTORE SWAP1 DUP3 MSTORE SWAP1 KECCAK256 SLOAD PUSH1 0xFF AND DUP2 JUMP JUMPDEST PUSH2 0x4CD PUSH2 0x4AC CALLDATASIZE PUSH1 0x4 PUSH2 0x1C14 JUMP JUMPDEST PUSH1 0x1 PUSH1 0x1 PUSH1 0xA0 SHL SUB AND PUSH1 0x0 SWAP1 DUP2 MSTORE PUSH1 0x3 PUSH1 0x20 MSTORE PUSH1 0x40 SWAP1 KECCAK256 SLOAD PUSH4 0xFFFFFFFF AND SWAP1 JUMP JUMPDEST PUSH1 0x40 MLOAD PUSH4 0xFFFFFFFF SWAP1 SWAP2 AND DUP2 MSTORE PUSH1 0x20 ADD PUSH2 0x1CD JUMP JUMPDEST PUSH2 0x29A PUSH1 0x2 DUP2 JUMP JUMPDEST PUSH2 0x1E9 PUSH2 0x4F8 CALLDATASIZE PUSH1 0x4 PUSH2 0x1C14 JUMP JUMPDEST PUSH2 0x13E6 JUMP JUMPDEST PUSH2 0x29A PUSH2 0x1464 JUMP JUMPDEST PUSH4 0xFFFFFFFF DUP1 DUP4 AND PUSH1 0x0 SWAP1 DUP2 MSTORE PUSH1 0x7 PUSH1 0x20 SWAP1 DUP2 MSTORE PUSH1 0x40 DUP1 DUP4 KECCAK256 SWAP4 DUP6 AND DUP4 MSTORE SWAP3 SWAP1 MSTORE KECCAK256 SLOAD PUSH1 0xFF AND JUMPDEST SWAP3 SWAP2 POP POP JUMP JUMPDEST DUP2 DUP2 PUSH4 0xFFFFFFFF DUP3 AND ISZERO DUP1 PUSH2 0x54E JUMPI POP PUSH1 0x1 PUSH1 0x1 PUSH1 0xA0 SHL SUB DUP2 AND ISZERO JUMPDEST ISZERO PUSH2 0x56C JUMPI PUSH1 0x40 MLOAD PUSH4 0xCFF23E7 PUSH1 0xE0 SHL DUP2 MSTORE PUSH1 0x4 ADD PUSH1 0x40 MLOAD DUP1 SWAP2 SUB SWAP1 REVERT JUMPDEST PUSH1 0x1 PUSH1 0x1 PUSH1 0xA0 SHL SUB DUP2 AND PUSH1 0x0 SWAP1 DUP2 MSTORE PUSH1 0x3 PUSH1 0x20 MSTORE PUSH1 0x40 SWAP1 KECCAK256 SLOAD PUSH4 0xFFFFFFFF AND ISZERO PUSH2 0x5A9 JUMPI PUSH1 0x40 MLOAD PUSH4 0x77030A87 PUSH1 0xE1 SHL DUP2 MSTORE PUSH1 0x4 ADD PUSH1 0x40 MLOAD DUP1 SWAP2 SUB SWAP1 REVERT JUMPDEST PUSH1 0x1 PUSH1 0x1 PUSH1 0xA0 SHL SUB DUP4 AND PUSH1 0x0 DUP2 DUP2 MSTORE PUSH1 0x3 PUSH1 0x20 SWAP1 DUP2 MSTORE PUSH1 0x40 SWAP2 DUP3 SWAP1 KECCAK256 DUP1 SLOAD PUSH4 0xFFFFFFFF NOT AND PUSH4 0xFFFFFFFF DUP10 AND SWAP1 DUP2 OR SWAP1 SWAP2 SSTORE SWAP2 MLOAD TIMESTAMP DUP2 MSTORE PUSH32 0x605181A3CCA1307AE9B2DF54D6592DDF8F82C3570C6938F36D61CD23B6B57A8D SWAP2 ADD PUSH1 0x40 MLOAD DUP1 SWAP2 SUB SWAP1 LOG3 POP POP POP POP JUMP JUMPDEST PUSH1 0x0 PUSH1 0x60 PUSH1 0x0 DUP1 PUSH1 0x0 DUP1 PUSH1 0x0 DUP1 DUP9 PUSH1 0x9 DUP1 SLOAD SWAP1 POP DUP2 PUSH4 0xFFFFFFFF AND LT PUSH2 0x64A JUMPI PUSH1 0x40 MLOAD PUSH4 0x87448985 PUSH1 0xE0 SHL DUP2 MSTORE PUSH1 0x4 ADD PUSH1 0x40 MLOAD DUP1 SWAP2 SUB SWAP1 REVERT JUMPDEST PUSH1 0x0 PUSH1 0x9 DUP12 PUSH4 0xFFFFFFFF AND DUP2 SLOAD DUP2 LT PUSH2 0x665 JUMPI PUSH2 0x665 PUSH2 0x1C48 JUMP JUMPDEST PUSH1 0x0 SWAP2 DUP3 MSTORE PUSH1 0x20 SWAP2 DUP3 SWAP1 KECCAK256 PUSH1 0x5 SWAP1 SWAP2 MUL ADD DUP1 SLOAD PUSH1 0x2 DUP3 ADD SLOAD PUSH1 0x3 DUP1 DUP5 ADD SLOAD PUSH1 0x4 DUP6 ADD SLOAD PUSH1 0x1 DUP7 ADD DUP1 SLOAD PUSH1 0x40 DUP1 MLOAD DUP3 DUP12 MUL DUP2 ADD DUP12 ADD SWAP1 SWAP2 MSTORE DUP2 DUP2 MSTORE SWAP8 SWAP10 POP PUSH4 0xFFFFFFFF SWAP7 DUP8 AND SWAP9 SWAP2 SWAP8 SWAP6 SWAP7 SWAP4 SWAP6 PUSH1 0xFF DUP5 AND SWAP6 PUSH2 0x100 DUP6 DIV SWAP1 SWAP6 AND SWAP5 PUSH1 0x1 PUSH1 0x28 SHL DUP6 DIV DUP2 SIGNEXTEND SWAP5 PUSH1 0x1 PUSH1 0x48 SHL SWAP1 DIV SWAP1 SIGNEXTEND SWAP3 SWAP1 SWAP2 DUP10 SWAP2 DUP4 ADD DUP3 DUP3 DUP1 ISZERO PUSH2 0x732 JUMPI PUSH1 0x20 MUL DUP3 ADD SWAP2 SWAP1 PUSH1 0x0 MSTORE PUSH1 0x20 PUSH1 0x0 KECCAK256 SWAP1 PUSH1 0x0 SWAP1 JUMPDEST DUP3 DUP3 SWAP1 SLOAD SWAP1 PUSH2 0x100 EXP SWAP1 DIV PUSH4 0xFFFFFFFF AND PUSH4 0xFFFFFFFF AND DUP2 MSTORE PUSH1 0x20 ADD SWAP1 PUSH1 0x4 ADD SWAP1 PUSH1 0x20 DUP3 PUSH1 0x3 ADD DIV SWAP3 DUP4 ADD SWAP3 PUSH1 0x1 SUB DUP3 MUL SWAP2 POP DUP1 DUP5 GT PUSH2 0x6F5 JUMPI SWAP1 POP JUMPDEST POP POP POP POP POP SWAP7 POP SWAP10 POP SWAP10 POP SWAP10 POP SWAP10 POP SWAP10 POP SWAP10 POP SWAP10 POP SWAP10 POP POP POP SWAP2 SWAP4 SWAP6 SWAP8 POP SWAP2 SWAP4 SWAP6 SWAP8 JUMP JUMPDEST DUP1 CALLER PUSH4 0xFFFFFFFF DUP3 AND ISZERO DUP1 PUSH2 0x78C JUMPI POP PUSH1 0x1 PUSH1 0x1 PUSH1 0xA0 SHL SUB DUP2 AND PUSH1 0x0 SWAP1 DUP2 MSTORE PUSH1 0x3 PUSH1 0x20 MSTORE PUSH1 0x40 SWAP1 KECCAK256 SLOAD PUSH4 0xFFFFFFFF DUP4 DUP2 AND SWAP2 AND EQ ISZERO JUMPDEST ISZERO PUSH2 0x7AA JUMPI PUSH1 0x40 MLOAD PUSH4 0xCFF23E7 PUSH1 0xE0 SHL DUP2 MSTORE PUSH1 0x4 ADD PUSH1 0x40 MLOAD DUP1 SWAP2 SUB SWAP1 REVERT JUMPDEST PUSH1 0x9 SLOAD DUP6 SWAP1 PUSH4 0xFFFFFFFF DUP3 AND LT PUSH2 0x7D4 JUMPI PUSH1 0x40 MLOAD PUSH4 0x87448985 PUSH1 0xE0 SHL DUP2 MSTORE PUSH1 0x4 ADD PUSH1 0x40 MLOAD DUP1 SWAP2 SUB SWAP1 REVERT JUMPDEST DUP6 PUSH1 0x0 PUSH1 0x9 DUP3 PUSH4 0xFFFFFFFF AND DUP2 SLOAD DUP2 LT PUSH2 0x7F0 JUMPI PUSH2 0x7F0 PUSH2 0x1C48 JUMP JUMPDEST SWAP1 PUSH1 0x0 MSTORE PUSH1 0x20 PUSH1 0x0 KECCAK256 SWAP1 PUSH1 0x5 MUL ADD SWAP1 POP DUP1 PUSH1 0x3 ADD SLOAD TIMESTAMP GT DUP1 PUSH2 0x817 JUMPI POP PUSH1 0x4 DUP2 ADD SLOAD PUSH1 0xFF AND ISZERO JUMPDEST ISZERO PUSH2 0x835 JUMPI PUSH1 0x40 MLOAD PUSH4 0x87448985 PUSH1 0xE0 SHL DUP2 MSTORE PUSH1 0x4 ADD PUSH1 0x40 MLOAD DUP1 SWAP2 SUB SWAP1 REVERT JUMPDEST PUSH1 0x0 PUSH1 0x9 DUP10 PUSH4 0xFFFFFFFF AND DUP2 SLOAD DUP2 LT PUSH2 0x850 JUMPI PUSH2 0x850 PUSH2 0x1C48 JUMP JUMPDEST PUSH1 0x0 SWAP2 DUP3 MSTORE PUSH1 0x20 DUP1 DUP4 KECCAK256 PUSH4 0xFFFFFFFF DUP1 DUP15 AND DUP6 MSTORE PUSH1 0x7 DUP4 MSTORE PUSH1 0x40 DUP1 DUP7 KECCAK256 SWAP2 DUP14 AND DUP7 MSTORE SWAP3 MSTORE SWAP3 KECCAK256 SLOAD PUSH1 0x5 SWAP1 SWAP2 MUL SWAP1 SWAP2 ADD SWAP2 POP PUSH1 0xFF AND ISZERO PUSH2 0x8A1 JUMPI PUSH1 0x40 MLOAD PUSH3 0xB14D3B PUSH1 0xE6 SHL DUP2 MSTORE PUSH1 0x4 ADD PUSH1 0x40 MLOAD DUP1 SWAP2 SUB SWAP1 REVERT JUMPDEST PUSH1 0x0 DUP1 JUMPDEST PUSH1 0x1 DUP4 ADD SLOAD DUP2 LT ISZERO PUSH2 0x911 JUMPI DUP10 PUSH4 0xFFFFFFFF AND DUP4 PUSH1 0x1 ADD DUP3 DUP2 SLOAD DUP2 LT PUSH2 0x8CD JUMPI PUSH2 0x8CD PUSH2 0x1C48 JUMP JUMPDEST PUSH1 0x0 SWAP2 DUP3 MSTORE PUSH1 0x20 SWAP1 SWAP2 KECCAK256 PUSH1 0x8 DUP3 DIV ADD SLOAD PUSH1 0x7 SWAP1 SWAP2 AND PUSH1 0x4 MUL PUSH2 0x100 EXP SWAP1 DIV PUSH4 0xFFFFFFFF AND SUB PUSH2 0x8FF JUMPI PUSH1 0x1 SWAP2 POP PUSH2 0x911 JUMP JUMPDEST DUP1 PUSH2 0x909 DUP2 PUSH2 0x1C74 JUMP JUMPDEST SWAP2 POP POP PUSH2 0x8A5 JUMP JUMPDEST POP DUP1 PUSH2 0x930 JUMPI PUSH1 0x40 MLOAD PUSH4 0xE66EA08F PUSH1 0xE0 SHL DUP2 MSTORE PUSH1 0x4 ADD PUSH1 0x40 MLOAD DUP1 SWAP2 SUB SWAP1 REVERT JUMPDEST PUSH4 0xFFFFFFFF DUP9 AND PUSH1 0x0 SWAP1 DUP2 MSTORE PUSH1 0x4 PUSH1 0x20 MSTORE PUSH1 0x40 DUP2 KECCAK256 SLOAD PUSH1 0x3 SIGNEXTEND SWAP1 DUP2 SLT ISZERO PUSH2 0x955 JUMPI POP PUSH1 0x0 JUMPDEST PUSH4 0xFFFFFFFF DUP1 DUP13 AND PUSH1 0x0 SWAP1 DUP2 MSTORE PUSH1 0x7 PUSH1 0x20 SWAP1 DUP2 MSTORE PUSH1 0x40 DUP1 DUP4 KECCAK256 DUP14 DUP6 AND DUP5 MSTORE DUP3 MSTORE DUP1 DUP4 KECCAK256 DUP1 SLOAD PUSH1 0xFF NOT AND PUSH1 0x1 OR SWAP1 SSTORE SWAP3 DUP14 AND DUP3 MSTORE PUSH1 0x6 SWAP1 MSTORE SWAP1 DUP2 KECCAK256 DUP1 SLOAD DUP4 SWAP3 SWAP1 PUSH2 0x9A2 SWAP1 DUP5 SWAP1 PUSH1 0x3 SIGNEXTEND PUSH2 0x1C8D JUMP JUMPDEST SWAP3 POP PUSH2 0x100 EXP DUP2 SLOAD DUP2 PUSH4 0xFFFFFFFF MUL NOT AND SWAP1 DUP4 PUSH1 0x3 SIGNEXTEND PUSH4 0xFFFFFFFF AND MUL OR SWAP1 SSTORE POP DUP1 DUP4 PUSH1 0x4 ADD PUSH1 0x9 DUP3 DUP3 DUP3 SWAP1 SLOAD SWAP1 PUSH2 0x100 EXP SWAP1 DIV PUSH1 0x3 SIGNEXTEND PUSH2 0x9E3 SWAP2 SWAP1 PUSH2 0x1C8D JUMP JUMPDEST SWAP3 POP PUSH2 0x100 EXP DUP2 SLOAD DUP2 PUSH4 0xFFFFFFFF MUL NOT AND SWAP1 DUP4 PUSH1 0x3 SIGNEXTEND PUSH4 0xFFFFFFFF AND MUL OR SWAP1 SSTORE POP PUSH2 0xA0E DUP12 DUP11 PUSH2 0x14D1 JUMP JUMPDEST PUSH1 0x40 MLOAD PUSH1 0x3 DUP3 SWAP1 SIGNEXTEND DUP2 MSTORE PUSH4 0xFFFFFFFF DUP1 DUP12 AND SWAP2 DUP13 DUP3 AND SWAP2 DUP15 AND SWAP1 PUSH32 0x1918CD6E2704E854C925442CA2CAA9EF7187126224A112077220E8316519D66 SWAP1 PUSH1 0x20 ADD PUSH1 0x40 MLOAD DUP1 SWAP2 SUB SWAP1 LOG4 PUSH2 0xA5E DUP12 PUSH2 0x1565 JUMP JUMPDEST POP POP POP POP POP POP POP POP POP POP POP JUMP JUMPDEST PUSH1 0x0 DUP1 PUSH1 0x0 DUP1 PUSH1 0x0 DUP6 PUSH1 0x9 DUP1 SLOAD SWAP1 POP DUP2 PUSH4 0xFFFFFFFF AND LT PUSH2 0xA9F JUMPI PUSH1 0x40 MLOAD PUSH4 0x87448985 PUSH1 0xE0 SHL DUP2 MSTORE PUSH1 0x4 ADD PUSH1 0x40 MLOAD DUP1 SWAP2 SUB SWAP1 REVERT JUMPDEST PUSH1 0x0 PUSH1 0x9 DUP9 PUSH4 0xFFFFFFFF AND DUP2 SLOAD DUP2 LT PUSH2 0xABA JUMPI PUSH2 0xABA PUSH2 0x1C48 JUMP JUMPDEST SWAP1 PUSH1 0x0 MSTORE PUSH1 0x20 PUSH1 0x0 KECCAK256 SWAP1 PUSH1 0x5 MUL ADD SWAP1 POP PUSH1 0x2 DUP2 PUSH1 0x1 ADD DUP1 SLOAD SWAP1 POP LT ISZERO PUSH2 0xAF2 JUMPI PUSH1 0x0 DUP1 PUSH1 0x0 DUP1 PUSH1 0x0 SWAP7 POP SWAP7 POP SWAP7 POP SWAP7 POP SWAP7 POP POP PUSH2 0xB2A JUMP JUMPDEST PUSH2 0xAFB DUP9 PUSH2 0x16CE JUMP JUMPDEST PUSH1 0x4 DUP6 ADD SLOAD SWAP4 SWAP10 POP SWAP2 SWAP8 POP SWAP6 POP SWAP4 POP PUSH2 0xB1E SWAP1 PUSH1 0x1 PUSH1 0x68 SHL SWAP1 DIV PUSH1 0x3 SIGNEXTEND DUP5 PUSH2 0x1C8D JUMP JUMPDEST PUSH1 0x3 SIGNEXTEND DUP6 PUSH1 0x3 SIGNEXTEND SGT SWAP7 POP POP JUMPDEST POP SWAP2 SWAP4 SWAP6 SWAP1 SWAP3 SWAP5 POP JUMP JUMPDEST PUSH2 0xB3C PUSH2 0x1827 JUMP JUMPDEST PUSH1 0x1 PUSH1 0x1 PUSH1 0xA0 SHL SUB DUP3 AND PUSH1 0x0 DUP2 DUP2 MSTORE PUSH1 0x2 PUSH1 0x20 SWAP1 DUP2 MSTORE PUSH1 0x40 SWAP2 DUP3 SWAP1 KECCAK256 DUP1 SLOAD PUSH1 0xFF NOT AND DUP6 ISZERO ISZERO SWAP1 DUP2 OR SWAP1 SWAP2 SSTORE SWAP2 MLOAD SWAP2 DUP3 MSTORE PUSH32 0xAD857FA38C9319CB80848F1EF2F924383B90297EB5D71755738FF037D100FAA1 SWAP2 ADD PUSH1 0x40 MLOAD DUP1 SWAP2 SUB SWAP1 LOG2 POP POP JUMP JUMPDEST PUSH1 0x9 SLOAD DUP2 SWAP1 PUSH4 0xFFFFFFFF DUP3 AND LT PUSH2 0xBC5 JUMPI PUSH1 0x40 MLOAD PUSH4 0x87448985 PUSH1 0xE0 SHL DUP2 MSTORE PUSH1 0x4 ADD PUSH1 0x40 MLOAD DUP1 SWAP2 SUB SWAP1 REVERT JUMPDEST PUSH2 0xBCD PUSH2 0x1827 JUMP JUMPDEST PUSH1 0x0 PUSH1 0x9 DUP4 PUSH4 0xFFFFFFFF AND DUP2 SLOAD DUP2 LT PUSH2 0xBE8 JUMPI PUSH2 0xBE8 PUSH2 0x1C48 JUMP JUMPDEST PUSH1 0x0 SWAP2 DUP3 MSTORE PUSH1 0x20 SWAP1 SWAP2 KECCAK256 PUSH1 0x5 SWAP1 SWAP2 MUL ADD PUSH1 0x4 DUP2 ADD SLOAD SWAP1 SWAP2 POP PUSH1 0xFF AND PUSH2 0xC20 JUMPI PUSH1 0x40 MLOAD PUSH4 0x87448985 PUSH1 0xE0 SHL DUP2 MSTORE PUSH1 0x4 ADD PUSH1 0x40 MLOAD DUP1 SWAP2 SUB SWAP1 REVERT JUMPDEST PUSH1 0x1 DUP2 ADD SLOAD PUSH1 0x0 SUB PUSH2 0xC45 JUMPI PUSH1 0x40 MLOAD PUSH4 0x39410641 PUSH1 0xE2 SHL DUP2 MSTORE PUSH1 0x4 ADD PUSH1 0x40 MLOAD DUP1 SWAP2 SUB SWAP1 REVERT JUMPDEST PUSH1 0x4 DUP2 ADD DUP1 SLOAD PUSH1 0xFF NOT AND SWAP1 SSTORE PUSH1 0x1 DUP2 ADD DUP1 SLOAD PUSH1 0x0 SWAP2 SWAP1 DUP3 SWAP1 PUSH2 0xC69 JUMPI PUSH2 0xC69 PUSH2 0x1C48 JUMP JUMPDEST PUSH1 0x0 SWAP2 DUP3 MSTORE PUSH1 0x20 DUP1 DUP4 KECCAK256 PUSH1 0x8 DUP4 DIV ADD SLOAD PUSH1 0x7 SWAP1 SWAP3 AND PUSH1 0x4 MUL PUSH2 0x100 EXP SWAP1 SWAP2 DIV PUSH4 0xFFFFFFFF AND DUP1 DUP4 MSTORE PUSH1 0x6 SWAP1 SWAP2 MSTORE PUSH1 0x40 SWAP1 SWAP2 KECCAK256 SLOAD SWAP1 SWAP2 POP PUSH1 0x3 SIGNEXTEND PUSH1 0x1 JUMPDEST PUSH1 0x1 DUP5 ADD SLOAD DUP2 LT ISZERO PUSH2 0xD2A JUMPI PUSH1 0x0 DUP5 PUSH1 0x1 ADD DUP3 DUP2 SLOAD DUP2 LT PUSH2 0xCC8 JUMPI PUSH2 0xCC8 PUSH2 0x1C48 JUMP JUMPDEST PUSH1 0x0 SWAP2 DUP3 MSTORE PUSH1 0x20 DUP1 DUP4 KECCAK256 PUSH1 0x8 DUP4 DIV ADD SLOAD PUSH1 0x7 SWAP1 SWAP3 AND PUSH1 0x4 MUL PUSH2 0x100 EXP SWAP1 SWAP2 DIV PUSH4 0xFFFFFFFF AND DUP1 DUP4 MSTORE PUSH1 0x6 SWAP1 SWAP2 MSTORE PUSH1 0x40 SWAP1 SWAP2 KECCAK256 SLOAD SWAP1 SWAP2 POP PUSH1 0x3 SWAP1 DUP2 SIGNEXTEND SWAP1 DUP5 SWAP1 SIGNEXTEND DUP2 SGT ISZERO PUSH2 0xD15 JUMPI DUP2 SWAP5 POP DUP1 SWAP4 POP JUMPDEST POP POP DUP1 DUP1 PUSH2 0xD22 SWAP1 PUSH2 0x1C74 JUMP JUMPDEST SWAP2 POP POP PUSH2 0xCA5 JUMP JUMPDEST POP PUSH4 0xFFFFFFFF DUP3 DUP2 AND PUSH1 0x0 DUP2 DUP2 MSTORE PUSH1 0x5 PUSH1 0x20 SWAP1 DUP2 MSTORE PUSH1 0x40 SWAP2 DUP3 SWAP1 KECCAK256 DUP1 SLOAD PUSH1 0x1 PUSH1 0xFF NOT SWAP1 SWAP2 AND OR SWAP1 SSTORE PUSH1 0x4 DUP8 ADD DUP1 SLOAD PUSH9 0xFFFFFFFFFFFFFFFF00 NOT AND PUSH2 0x100 DUP6 MUL PUSH9 0xFFFFFFFF0000000000 NOT AND OR PUSH1 0x1 PUSH1 0x28 SHL DUP8 DUP8 AND MUL OR SWAP1 SSTORE SWAP1 MLOAD PUSH1 0x3 DUP6 SWAP1 SIGNEXTEND DUP2 MSTORE SWAP2 SWAP3 DUP9 AND SWAP2 PUSH32 0x2B056A7F2AE4DFEC88DC5458429E82A178C97E5019B817058AE7DCD455DA9E85 SWAP2 ADD JUMPDEST PUSH1 0x40 MLOAD DUP1 SWAP2 SUB SWAP1 LOG3 POP POP POP POP POP JUMP JUMPDEST CALLER PUSH1 0x0 SWAP1 DUP2 MSTORE PUSH1 0x2 PUSH1 0x20 MSTORE PUSH1 0x40 SWAP1 KECCAK256 SLOAD PUSH1 0xFF AND PUSH2 0xDF3 JUMPI PUSH1 0x40 MLOAD PUSH4 0x5C427CD9 PUSH1 0xE0 SHL DUP2 MSTORE PUSH1 0x4 ADD PUSH1 0x40 MLOAD DUP1 SWAP2 SUB SWAP1 REVERT JUMPDEST DUP3 CALLER PUSH4 0xFFFFFFFF DUP3 AND ISZERO DUP1 PUSH2 0xE29 JUMPI POP PUSH1 0x1 PUSH1 0x1 PUSH1 0xA0 SHL SUB DUP2 AND PUSH1 0x0 SWAP1 DUP2 MSTORE PUSH1 0x3 PUSH1 0x20 MSTORE PUSH1 0x40 SWAP1 KECCAK256 SLOAD PUSH4 0xFFFFFFFF DUP4 DUP2 AND SWAP2 AND EQ ISZERO JUMPDEST ISZERO PUSH2 0xE47 JUMPI PUSH1 0x40 MLOAD PUSH4 0xCFF23E7 PUSH1 0xE0 SHL DUP2 MSTORE PUSH1 0x4 ADD PUSH1 0x40 MLOAD DUP1 SWAP2 SUB SWAP1 REVERT JUMPDEST PUSH4 0xFFFFFFFF DUP6 AND PUSH1 0x0 SWAP1 DUP2 MSTORE PUSH1 0x4 PUSH1 0x20 MSTORE PUSH1 0x40 DUP2 KECCAK256 SLOAD PUSH1 0x3 SIGNEXTEND SWAP1 DUP5 ISZERO PUSH2 0xE78 JUMPI PUSH2 0xE71 DUP7 DUP4 PUSH2 0x1C8D JUMP JUMPDEST SWAP1 POP PUSH2 0xE94 JUMP JUMPDEST PUSH2 0xE82 DUP7 DUP4 PUSH2 0x1CB4 JUMP JUMPDEST SWAP1 POP PUSH1 0x0 DUP2 PUSH1 0x3 SIGNEXTEND SLT ISZERO PUSH2 0xE94 JUMPI POP PUSH1 0x0 JUMPDEST PUSH4 0xFFFFFFFF DUP8 DUP2 AND PUSH1 0x0 DUP2 DUP2 MSTORE PUSH1 0x4 PUSH1 0x20 SWAP1 DUP2 MSTORE PUSH1 0x40 SWAP2 DUP3 SWAP1 KECCAK256 DUP1 SLOAD PUSH4 0xFFFFFFFF NOT AND SWAP5 DUP7 AND SWAP5 SWAP1 SWAP5 OR SWAP1 SWAP4 SSTORE DUP1 MLOAD PUSH1 0x3 DUP11 DUP2 SIGNEXTEND DUP3 MSTORE DUP10 ISZERO ISZERO SWAP5 DUP3 ADD SWAP5 SWAP1 SWAP5 MSTORE SWAP3 DUP5 SWAP1 SIGNEXTEND SWAP1 DUP4 ADD MSTORE TIMESTAMP PUSH1 0x60 DUP4 ADD MSTORE SWAP1 PUSH32 0x72194F756300FFF6BFC1D45660DA70048BE350DC1AAD864B9280FA75C3FF696C SWAP1 PUSH1 0x80 ADD PUSH1 0x40 MLOAD DUP1 SWAP2 SUB SWAP1 LOG2 POP POP POP POP POP POP POP JUMP JUMPDEST PUSH1 0x9 SLOAD DUP3 SWAP1 PUSH4 0xFFFFFFFF DUP3 AND LT PUSH2 0xF43 JUMPI PUSH1 0x40 MLOAD PUSH4 0x87448985 PUSH1 0xE0 SHL DUP2 MSTORE PUSH1 0x4 ADD PUSH1 0x40 MLOAD DUP1 SWAP2 SUB SWAP1 REVERT JUMPDEST DUP3 PUSH1 0x0 PUSH1 0x9 DUP3 PUSH4 0xFFFFFFFF AND DUP2 SLOAD DUP2 LT PUSH2 0xF5F JUMPI PUSH2 0xF5F PUSH2 0x1C48 JUMP JUMPDEST SWAP1 PUSH1 0x0 MSTORE PUSH1 0x20 PUSH1 0x0 KECCAK256 SWAP1 PUSH1 0x5 MUL ADD SWAP1 POP DUP1 PUSH1 0x3 ADD SLOAD TIMESTAMP GT DUP1 PUSH2 0xF86 JUMPI POP PUSH1 0x4 DUP2 ADD SLOAD PUSH1 0xFF AND ISZERO JUMPDEST ISZERO PUSH2 0xFA4 JUMPI PUSH1 0x40 MLOAD PUSH4 0x87448985 PUSH1 0xE0 SHL DUP2 MSTORE PUSH1 0x4 ADD PUSH1 0x40 MLOAD DUP1 SWAP2 SUB SWAP1 REVERT JUMPDEST PUSH1 0x0 PUSH1 0x9 DUP7 PUSH4 0xFFFFFFFF AND DUP2 SLOAD DUP2 LT PUSH2 0xFBF JUMPI PUSH2 0xFBF PUSH2 0x1C48 JUMP JUMPDEST PUSH1 0x0 SWAP2 DUP3 MSTORE PUSH1 0x20 DUP1 DUP4 KECCAK256 PUSH1 0x5 SWAP3 SWAP1 SWAP3 MUL SWAP1 SWAP2 ADD PUSH1 0x1 DUP2 DUP2 ADD DUP1 SLOAD SWAP2 DUP3 ADD DUP2 SSTORE DUP5 MSTORE SWAP2 DUP4 KECCAK256 PUSH1 0x8 DUP4 DIV ADD DUP1 SLOAD PUSH1 0x7 SWAP1 SWAP4 AND PUSH1 0x4 MUL PUSH2 0x100 EXP PUSH4 0xFFFFFFFF DUP2 DUP2 MUL NOT SWAP1 SWAP5 AND DUP11 DUP6 AND SWAP2 DUP3 MUL OR SWAP1 SWAP2 SSTORE PUSH1 0x40 MLOAD SWAP2 SWAP5 POP SWAP3 SWAP2 DUP10 AND SWAP2 PUSH32 0x2497EDD456DA400FDF8E24A5943FAEBBA37FC1A396BE5FF9EF6105AEDE63E26B SWAP2 LOG3 POP POP POP POP POP POP JUMP JUMPDEST PUSH1 0x9 DUP2 DUP2 SLOAD DUP2 LT PUSH2 0x1052 JUMPI PUSH1 0x0 DUP1 REVERT JUMPDEST PUSH1 0x0 SWAP2 DUP3 MSTORE PUSH1 0x20 SWAP1 SWAP2 KECCAK256 PUSH1 0x5 SWAP1 SWAP2 MUL ADD DUP1 SLOAD PUSH1 0x2 DUP3 ADD SLOAD PUSH1 0x3 DUP1 DUP5 ADD SLOAD PUSH1 0x4 SWAP1 SWAP5 ADD SLOAD PUSH4 0xFFFFFFFF SWAP4 DUP5 AND SWAP6 POP SWAP2 SWAP4 SWAP3 PUSH1 0xFF DUP4 AND SWAP3 PUSH2 0x100 DUP2 DIV SWAP1 SWAP2 AND SWAP2 PUSH1 0x1 PUSH1 0x28 SHL DUP3 DIV DUP2 SIGNEXTEND SWAP2 PUSH1 0x1 PUSH1 0x48 SHL DUP2 DIV DUP3 SIGNEXTEND SWAP2 PUSH1 0x1 PUSH1 0x68 SHL SWAP1 SWAP2 DIV SWAP1 SIGNEXTEND DUP9 JUMP JUMPDEST PUSH2 0x10B9 PUSH2 0x1827 JUMP JUMPDEST PUSH4 0xFFFFFFFF AND PUSH1 0x0 SWAP1 DUP2 MSTORE PUSH1 0x5 PUSH1 0x20 MSTORE PUSH1 0x40 SWAP1 KECCAK256 DUP1 SLOAD PUSH1 0xFF NOT AND SWAP1 SSTORE JUMP JUMPDEST PUSH2 0x10DF PUSH2 0x1827 JUMP JUMPDEST PUSH2 0x10E9 PUSH1 0x0 PUSH2 0x1881 JUMP JUMPDEST JUMP JUMPDEST PUSH1 0x9 SLOAD ISZERO DUP1 ISZERO SWAP1 PUSH2 0x112F JUMPI POP PUSH1 0x9 DUP1 SLOAD PUSH2 0x1107 SWAP1 PUSH1 0x1 SWAP1 PUSH2 0x1CDB JUMP JUMPDEST DUP2 SLOAD DUP2 LT PUSH2 0x1117 JUMPI PUSH2 0x1117 PUSH2 0x1C48 JUMP JUMPDEST PUSH1 0x0 SWAP2 DUP3 MSTORE PUSH1 0x20 SWAP1 SWAP2 KECCAK256 PUSH1 0x4 PUSH1 0x5 SWAP1 SWAP3 MUL ADD ADD SLOAD PUSH1 0xFF AND JUMPDEST ISZERO PUSH2 0x114D JUMPI PUSH1 0x40 MLOAD PUSH4 0xECA88737 PUSH1 0xE0 SHL DUP2 MSTORE PUSH1 0x4 ADD PUSH1 0x40 MLOAD DUP1 SWAP2 SUB SWAP1 REVERT JUMPDEST PUSH1 0x40 DUP1 MLOAD PUSH2 0x120 DUP2 ADD DUP3 MSTORE PUSH1 0x0 DUP1 DUP3 MSTORE PUSH1 0x60 PUSH1 0x20 DUP4 ADD DUP2 SWAP1 MSTORE SWAP3 DUP3 ADD DUP2 SWAP1 MSTORE SWAP2 DUP2 ADD DUP3 SWAP1 MSTORE PUSH1 0x80 DUP2 ADD DUP3 SWAP1 MSTORE PUSH1 0xA0 DUP2 ADD DUP3 SWAP1 MSTORE PUSH1 0xC0 DUP2 ADD DUP3 SWAP1 MSTORE PUSH1 0xE0 DUP2 ADD DUP3 SWAP1 MSTORE PUSH2 0x100 DUP2 ADD SWAP2 SWAP1 SWAP2 MSTORE PUSH1 0x8 DUP1 SLOAD PUSH4 0xFFFFFFFF AND SWAP1 PUSH1 0x0 PUSH2 0x11AD DUP4 PUSH2 0x1CEE JUMP JUMPDEST DUP3 SLOAD PUSH2 0x100 SWAP3 SWAP1 SWAP3 EXP PUSH4 0xFFFFFFFF DUP2 DUP2 MUL NOT SWAP1 SWAP4 AND SWAP2 DUP4 AND MUL OR SWAP1 SWAP2 SSTORE AND DUP2 MSTORE PUSH1 0x40 DUP1 MLOAD PUSH1 0x1 DUP1 DUP3 MSTORE DUP2 DUP4 ADD SWAP1 SWAP3 MSTORE SWAP1 PUSH1 0x20 DUP1 DUP4 ADD SWAP1 DUP1 CALLDATASIZE DUP4 CALLDATACOPY POP POP POP PUSH1 0x20 DUP3 ADD DUP2 SWAP1 MSTORE DUP1 MLOAD DUP4 SWAP2 SWAP1 PUSH1 0x0 SWAP1 PUSH2 0x1205 JUMPI PUSH2 0x1205 PUSH2 0x1C48 JUMP JUMPDEST PUSH4 0xFFFFFFFF SWAP1 SWAP3 AND PUSH1 0x20 SWAP3 DUP4 MUL SWAP2 SWAP1 SWAP2 ADD SWAP1 SWAP2 ADD MSTORE TIMESTAMP PUSH1 0x40 DUP3 ADD DUP2 SWAP1 MSTORE PUSH2 0x122F SWAP1 PUSH3 0x278D00 PUSH2 0x1D11 JUMP JUMPDEST PUSH1 0x60 DUP3 ADD MSTORE PUSH1 0x1 PUSH1 0x80 DUP3 ADD MSTORE PUSH1 0x0 PUSH1 0xE0 DUP3 ADD MSTORE PUSH2 0x124A PUSH2 0x18D3 JUMP JUMPDEST PUSH1 0x3 SIGNEXTEND PUSH2 0x100 DUP3 ADD MSTORE PUSH1 0x9 DUP1 SLOAD PUSH1 0x1 DUP2 ADD DUP3 SSTORE PUSH1 0x0 SWAP2 SWAP1 SWAP2 MSTORE DUP2 MLOAD PUSH32 0x6E1540171B6C0C960B71A7020D9F60077F6AF931A8BBF590DA0223DACF75C7AF PUSH1 0x5 SWAP1 SWAP3 MUL SWAP2 DUP3 ADD DUP1 SLOAD PUSH4 0xFFFFFFFF NOT AND PUSH4 0xFFFFFFFF SWAP1 SWAP3 AND SWAP2 SWAP1 SWAP2 OR DUP2 SSTORE PUSH1 0x20 DUP1 DUP5 ADD MLOAD DUP1 MLOAD DUP6 SWAP5 PUSH2 0x12DF SWAP4 PUSH32 0x6E1540171B6C0C960B71A7020D9F60077F6AF931A8BBF590DA0223DACF75C7B0 SWAP1 SWAP2 ADD SWAP3 ADD SWAP1 PUSH2 0x1943 JUMP JUMPDEST POP PUSH1 0x40 DUP3 DUP2 ADD MLOAD PUSH1 0x2 DUP4 ADD SSTORE PUSH1 0x60 DUP1 DUP5 ADD MLOAD PUSH1 0x3 DUP5 ADD SSTORE PUSH1 0x80 DUP5 ADD MLOAD PUSH1 0x4 SWAP1 SWAP4 ADD DUP1 SLOAD PUSH1 0xA0 DUP7 ADD MLOAD PUSH1 0xC0 DUP8 ADD MLOAD PUSH1 0xE0 DUP9 ADD MLOAD PUSH2 0x100 SWAP9 DUP10 ADD MLOAD PUSH5 0xFFFFFFFFFF NOT SWAP1 SWAP5 AND SWAP8 ISZERO ISZERO PUSH5 0xFFFFFFFF00 NOT AND SWAP8 SWAP1 SWAP8 OR PUSH4 0xFFFFFFFF SWAP3 DUP4 AND SWAP1 SWAP9 MUL SWAP8 SWAP1 SWAP8 OR PUSH13 0xFFFFFFFFFFFFFFFF0000000000 NOT AND PUSH1 0x1 PUSH1 0x28 SHL SWAP8 DUP3 AND SWAP8 SWAP1 SWAP8 MUL PUSH13 0xFFFFFFFF000000000000000000 NOT AND SWAP7 SWAP1 SWAP7 OR PUSH1 0x1 PUSH1 0x48 SHL SWAP6 DUP8 AND SWAP6 SWAP1 SWAP6 MUL SWAP5 SWAP1 SWAP5 OR PUSH4 0xFFFFFFFF PUSH1 0x68 SHL NOT AND PUSH1 0x1 PUSH1 0x68 SHL SWAP5 DUP7 AND SWAP5 SWAP1 SWAP5 MUL SWAP4 SWAP1 SWAP4 OR SWAP1 SWAP3 SSTORE DUP4 MLOAD DUP5 DUP3 ADD MLOAD SWAP3 DUP6 ADD MLOAD DUP3 MLOAD SWAP4 DUP5 MSTORE PUSH1 0x20 DUP5 ADD MSTORE DUP6 DUP5 AND SWAP4 AND SWAP2 PUSH32 0x4610B24BBFB857173E063B234E3A2475409BF5921C3F541F435EB016C5AAD89F SWAP2 ADD PUSH1 0x40 MLOAD DUP1 SWAP2 SUB SWAP1 LOG3 POP POP JUMP JUMPDEST PUSH2 0x13EE PUSH2 0x1827 JUMP JUMPDEST PUSH1 0x1 PUSH1 0x1 PUSH1 0xA0 SHL SUB DUP2 AND PUSH2 0x1458 JUMPI PUSH1 0x40 MLOAD PUSH3 0x461BCD PUSH1 0xE5 SHL DUP2 MSTORE PUSH1 0x20 PUSH1 0x4 DUP3 ADD MSTORE PUSH1 0x26 PUSH1 0x24 DUP3 ADD MSTORE PUSH32 0x4F776E61626C653A206E6577206F776E657220697320746865207A65726F2061 PUSH1 0x44 DUP3 ADD MSTORE PUSH6 0x646472657373 PUSH1 0xD0 SHL PUSH1 0x64 DUP3 ADD MSTORE PUSH1 0x84 ADD JUMPDEST PUSH1 0x40 MLOAD DUP1 SWAP2 SUB SWAP1 REVERT JUMPDEST PUSH2 0x1461 DUP2 PUSH2 0x1881 JUMP JUMPDEST POP JUMP JUMPDEST PUSH1 0x9 SLOAD PUSH1 0x0 SWAP1 DUP2 SUB PUSH2 0x1477 JUMPI POP PUSH1 0x0 NOT SWAP1 JUMP JUMPDEST PUSH1 0x9 DUP1 SLOAD PUSH1 0x0 SWAP2 SWAP1 PUSH2 0x148B SWAP1 PUSH1 0x1 SWAP1 PUSH2 0x1CDB JUMP JUMPDEST DUP2 SLOAD DUP2 LT PUSH2 0x149B JUMPI PUSH2 0x149B PUSH2 0x1C48 JUMP JUMPDEST PUSH1 0x0 SWAP2 DUP3 MSTORE PUSH1 0x20 SWAP1 SWAP2 KECCAK256 PUSH1 0x5 SWAP1 SWAP2 MUL ADD PUSH1 0x4 DUP2 ADD SLOAD SWAP1 SWAP2 POP PUSH1 0xFF AND PUSH2 0x14C2 JUMPI PUSH1 0x0 NOT PUSH2 0x14CB JUMP JUMPDEST DUP1 SLOAD PUSH4 0xFFFFFFFF AND JUMPDEST SWAP2 POP POP SWAP1 JUMP JUMPDEST PUSH1 0x0 PUSH1 0x9 DUP4 PUSH4 0xFFFFFFFF AND DUP2 SLOAD DUP2 LT PUSH2 0x14EC JUMPI PUSH2 0x14EC PUSH2 0x1C48 JUMP JUMPDEST PUSH1 0x0 SWAP2 DUP3 MSTORE PUSH1 0x20 DUP1 DUP4 KECCAK256 PUSH4 0xFFFFFFFF DUP7 AND DUP5 MSTORE PUSH1 0x4 SWAP1 SWAP2 MSTORE PUSH1 0x40 DUP4 KECCAK256 SLOAD PUSH1 0x5 SWAP1 SWAP3 MUL ADD SWAP3 POP PUSH1 0x3 SIGNEXTEND SWAP1 DUP2 SGT ISZERO PUSH2 0x155F JUMPI PUSH1 0x4 DUP3 ADD DUP1 SLOAD DUP3 SWAP2 SWAP1 PUSH1 0xD SWAP1 PUSH2 0x153D SWAP1 DUP5 SWAP1 PUSH1 0x1 PUSH1 0x68 SHL SWAP1 DIV PUSH1 0x3 SIGNEXTEND PUSH2 0x1CB4 JUMP JUMPDEST SWAP3 POP PUSH2 0x100 EXP DUP2 SLOAD DUP2 PUSH4 0xFFFFFFFF MUL NOT AND SWAP1 DUP4 PUSH1 0x3 SIGNEXTEND PUSH4 0xFFFFFFFF AND MUL OR SWAP1 SSTORE POP JUMPDEST POP POP POP POP JUMP JUMPDEST PUSH1 0x0 PUSH1 0x9 DUP3 PUSH4 0xFFFFFFFF AND DUP2 SLOAD DUP2 LT PUSH2 0x1580 JUMPI PUSH2 0x1580 PUSH2 0x1C48 JUMP JUMPDEST SWAP1 PUSH1 0x0 MSTORE PUSH1 0x20 PUSH1 0x0 KECCAK256 SWAP1 PUSH1 0x5 MUL ADD SWAP1 POP PUSH1 0x2 DUP2 PUSH1 0x1 ADD DUP1 SLOAD SWAP1 POP LT ISZERO PUSH2 0x15A4 JUMPI POP POP JUMP JUMPDEST PUSH1 0x0 DUP1 PUSH1 0x0 PUSH2 0x15B2 DUP6 PUSH2 0x16CE JUMP JUMPDEST SWAP4 POP POP SWAP3 POP SWAP3 POP DUP3 PUSH4 0xFFFFFFFF AND PUSH1 0x0 SUB PUSH2 0x15CE JUMPI POP POP POP POP POP JUMP JUMPDEST PUSH1 0x4 DUP5 ADD SLOAD PUSH2 0x15E7 SWAP1 PUSH1 0x1 PUSH1 0x68 SHL SWAP1 DIV PUSH1 0x3 SIGNEXTEND DUP3 PUSH2 0x1C8D JUMP JUMPDEST PUSH1 0x3 SIGNEXTEND DUP3 PUSH1 0x3 SIGNEXTEND SGT ISZERO PUSH2 0x16C7 JUMPI PUSH1 0x4 DUP5 ADD DUP1 SLOAD PUSH9 0xFFFFFFFFFFFFFFFFFF NOT AND PUSH2 0x100 PUSH4 0xFFFFFFFF DUP7 DUP2 AND SWAP2 DUP3 MUL PUSH9 0xFFFFFFFF0000000000 NOT AND SWAP3 SWAP1 SWAP3 OR PUSH1 0x1 PUSH1 0x28 SHL DUP7 DUP5 AND MUL OR SWAP1 SWAP3 SSTORE PUSH1 0x0 DUP3 DUP2 MSTORE PUSH1 0x5 PUSH1 0x20 SWAP1 DUP2 MSTORE PUSH1 0x40 SWAP2 DUP3 SWAP1 KECCAK256 DUP1 SLOAD PUSH1 0xFF NOT AND PUSH1 0x1 OR SWAP1 SSTORE SWAP1 MLOAD PUSH1 0x3 DUP7 SWAP1 SIGNEXTEND DUP2 MSTORE SWAP2 DUP9 AND SWAP2 PUSH32 0x6FB21C4C14810CEB320306EDA3D07C6738412088C17A66604AFE100AE599B182 SWAP2 ADD PUSH1 0x40 MLOAD DUP1 SWAP2 SUB SWAP1 LOG3 PUSH1 0x40 MLOAD PUSH1 0x3 DUP4 SWAP1 SIGNEXTEND DUP2 MSTORE PUSH4 0xFFFFFFFF DUP1 DUP6 AND SWAP2 SWAP1 DUP8 AND SWAP1 PUSH32 0x2B056A7F2AE4DFEC88DC5458429E82A178C97E5019B817058AE7DCD455DA9E85 SWAP1 PUSH1 0x20 ADD PUSH2 0xDB4 JUMP JUMPDEST POP POP POP POP POP JUMP JUMPDEST PUSH1 0x0 DUP1 PUSH1 0x0 DUP1 PUSH1 0x0 PUSH1 0x9 DUP7 PUSH4 0xFFFFFFFF AND DUP2 SLOAD DUP2 LT PUSH2 0x16EF JUMPI PUSH2 0x16EF PUSH2 0x1C48 JUMP JUMPDEST SWAP1 PUSH1 0x0 MSTORE PUSH1 0x20 PUSH1 0x0 KECCAK256 SWAP1 PUSH1 0x5 MUL ADD SWAP1 POP DUP1 PUSH1 0x1 ADD DUP1 SLOAD SWAP1 POP PUSH1 0x0 SUB PUSH2 0x1722 JUMPI PUSH1 0x0 DUP1 PUSH1 0x0 DUP1 SWAP5 POP SWAP5 POP SWAP5 POP SWAP5 POP POP PUSH2 0x1820 JUMP JUMPDEST DUP1 PUSH1 0x1 ADD PUSH1 0x0 DUP2 SLOAD DUP2 LT PUSH2 0x1738 JUMPI PUSH2 0x1738 PUSH2 0x1C48 JUMP JUMPDEST PUSH1 0x0 SWAP2 DUP3 MSTORE PUSH1 0x20 DUP1 DUP4 KECCAK256 PUSH1 0x8 DUP4 DIV ADD SLOAD PUSH1 0x7 SWAP1 SWAP3 AND PUSH1 0x4 MUL PUSH2 0x100 EXP SWAP1 SWAP2 DIV PUSH4 0xFFFFFFFF AND DUP1 DUP4 MSTORE PUSH1 0x6 SWAP1 SWAP2 MSTORE PUSH1 0x40 DUP3 KECCAK256 SLOAD SWAP1 SWAP7 POP PUSH1 0x3 SIGNEXTEND SWAP5 POP SWAP3 POP DUP3 SWAP2 POP PUSH1 0x1 JUMPDEST PUSH1 0x1 DUP3 ADD SLOAD DUP2 LT ISZERO PUSH2 0x181D JUMPI PUSH1 0x0 DUP3 PUSH1 0x1 ADD DUP3 DUP2 SLOAD DUP2 LT PUSH2 0x179D JUMPI PUSH2 0x179D PUSH2 0x1C48 JUMP JUMPDEST PUSH1 0x0 SWAP2 DUP3 MSTORE PUSH1 0x20 DUP1 DUP4 KECCAK256 PUSH1 0x8 DUP4 DIV ADD SLOAD PUSH1 0x7 SWAP1 SWAP3 AND PUSH1 0x4 MUL PUSH2 0x100 EXP SWAP1 SWAP2 DIV PUSH4 0xFFFFFFFF AND DUP1 DUP4 MSTORE PUSH1 0x6 SWAP1 SWAP2 MSTORE PUSH1 0x40 SWAP1 SWAP2 KECCAK256 SLOAD SWAP1 SWAP2 POP PUSH1 0x3 SWAP1 DUP2 SIGNEXTEND SWAP1 DUP8 SWAP1 SIGNEXTEND DUP2 SGT ISZERO PUSH2 0x17F3 JUMPI SWAP1 SWAP7 SWAP1 SWAP6 SWAP1 SWAP5 POP SWAP3 POP DUP6 DUP6 PUSH2 0x1808 JUMP JUMPDEST DUP5 PUSH1 0x3 SIGNEXTEND DUP2 PUSH1 0x3 SIGNEXTEND SGT ISZERO PUSH2 0x1808 JUMPI DUP2 SWAP6 POP DUP1 SWAP5 POP JUMPDEST POP POP DUP1 DUP1 PUSH2 0x1815 SWAP1 PUSH2 0x1C74 JUMP JUMPDEST SWAP2 POP POP PUSH2 0x177A JUMP JUMPDEST POP POP JUMPDEST SWAP2 SWAP4 POP SWAP2 SWAP4 JUMP JUMPDEST PUSH1 0x1 SLOAD PUSH1 0x1 PUSH1 0x1 PUSH1 0xA0 SHL SUB AND CALLER EQ PUSH2 0x10E9 JUMPI PUSH1 0x40 MLOAD PUSH3 0x461BCD PUSH1 0xE5 SHL DUP2 MSTORE PUSH1 0x20 PUSH1 0x4 DUP3 ADD DUP2 SWAP1 MSTORE PUSH1 0x24 DUP3 ADD MSTORE PUSH32 0x4F776E61626C653A2063616C6C6572206973206E6F7420746865206F776E6572 PUSH1 0x44 DUP3 ADD MSTORE PUSH1 0x64 ADD PUSH2 0x144F JUMP JUMPDEST PUSH1 0x1 DUP1 SLOAD PUSH1 0x1 PUSH1 0x1 PUSH1 0xA0 SHL SUB DUP4 DUP2 AND PUSH1 0x1 PUSH1 0x1 PUSH1 0xA0 SHL SUB NOT DUP4 AND DUP2 OR SWAP1 SWAP4 SSTORE PUSH1 0x40 MLOAD SWAP2 AND SWAP2 SWAP1 DUP3 SWAP1 PUSH32 0x8BE0079C531659141344CD1FD0A4F28419497F9722A3DAAFE3B4186F6B6457E0 SWAP1 PUSH1 0x0 SWAP1 LOG3 POP POP JUMP JUMPDEST PUSH1 0x0 DUP1 PUSH1 0x1 JUMPDEST PUSH4 0xFFFFFFFF DUP2 DUP2 AND GT PUSH2 0x193D JUMPI PUSH4 0xFFFFFFFF DUP2 AND PUSH1 0x0 SWAP1 DUP2 MSTORE PUSH1 0x4 PUSH1 0x20 MSTORE PUSH1 0x40 DUP2 KECCAK256 SLOAD PUSH1 0x3 SIGNEXTEND SGT ISZERO PUSH2 0x192B JUMPI PUSH4 0xFFFFFFFF DUP2 AND PUSH1 0x0 SWAP1 DUP2 MSTORE PUSH1 0x4 PUSH1 0x20 MSTORE PUSH1 0x40 SWAP1 KECCAK256 SLOAD PUSH2 0x1928 SWAP1 PUSH1 0x3 SIGNEXTEND DUP4 PUSH2 0x1C8D JUMP JUMPDEST SWAP2 POP JUMPDEST DUP1 PUSH2 0x1935 DUP2 PUSH2 0x1CEE JUMP JUMPDEST SWAP2 POP POP PUSH2 0x18D9 JUMP JUMPDEST POP SWAP2 SWAP1 POP JUMP JUMPDEST DUP3 DUP1 SLOAD DUP3 DUP3 SSTORE SWAP1 PUSH1 0x0 MSTORE PUSH1 0x20 PUSH1 0x0 KECCAK256 SWAP1 PUSH1 0x7 ADD PUSH1 0x8 SWAP1 DIV DUP2 ADD SWAP3 DUP3 ISZERO PUSH2 0x19E2 JUMPI SWAP2 PUSH1 0x20 MUL DUP3 ADD PUSH1 0x0 JUMPDEST DUP4 DUP3 GT ISZERO PUSH2 0x19B0 JUMPI DUP4 MLOAD DUP4 DUP3 PUSH2 0x100 EXP DUP2 SLOAD DUP2 PUSH4 0xFFFFFFFF MUL NOT AND SWAP1 DUP4 PUSH4 0xFFFFFFFF AND MUL OR SWAP1 SSTORE POP SWAP3 PUSH1 0x20 ADD SWAP3 PUSH1 0x4 ADD PUSH1 0x20 DUP2 PUSH1 0x3 ADD DIV SWAP3 DUP4 ADD SWAP3 PUSH1 0x1 SUB MUL PUSH2 0x196C JUMP JUMPDEST DUP1 ISZERO PUSH2 0x19E0 JUMPI DUP3 DUP2 PUSH2 0x100 EXP DUP2 SLOAD SWAP1 PUSH4 0xFFFFFFFF MUL NOT AND SWAP1 SSTORE PUSH1 0x4 ADD PUSH1 0x20 DUP2 PUSH1 0x3 ADD DIV SWAP3 DUP4 ADD SWAP3 PUSH1 0x1 SUB MUL PUSH2 0x19B0 JUMP JUMPDEST POP JUMPDEST POP PUSH2 0x19EE SWAP3 SWAP2 POP PUSH2 0x19F2 JUMP JUMPDEST POP SWAP1 JUMP JUMPDEST JUMPDEST DUP1 DUP3 GT ISZERO PUSH2 0x19EE JUMPI PUSH1 0x0 DUP2 SSTORE PUSH1 0x1 ADD PUSH2 0x19F3 JUMP JUMPDEST DUP1 CALLDATALOAD PUSH4 0xFFFFFFFF DUP2 AND DUP2 EQ PUSH2 0x1A1B JUMPI PUSH1 0x0 DUP1 REVERT JUMPDEST SWAP2 SWAP1 POP JUMP JUMPDEST PUSH1 0x0 DUP1 PUSH1 0x40 DUP4 DUP6 SUB SLT ISZERO PUSH2 0x1A33 JUMPI PUSH1 0x0 DUP1 REVERT JUMPDEST PUSH2 0x1A3C DUP4 PUSH2 0x1A07 JUMP JUMPDEST SWAP2 POP PUSH2 0x1A4A PUSH1 0x20 DUP5 ADD PUSH2 0x1A07 JUMP JUMPDEST SWAP1 POP SWAP3 POP SWAP3 SWAP1 POP JUMP JUMPDEST DUP1 CALLDATALOAD PUSH1 0x1 PUSH1 0x1 PUSH1 0xA0 SHL SUB DUP2 AND DUP2 EQ PUSH2 0x1A1B JUMPI PUSH1 0x0 DUP1 REVERT JUMPDEST PUSH1 0x0 DUP1 PUSH1 0x40 DUP4 DUP6 SUB SLT ISZERO PUSH2 0x1A7D JUMPI PUSH1 0x0 DUP1 REVERT JUMPDEST PUSH2 0x1A86 DUP4 PUSH2 0x1A07 JUMP JUMPDEST SWAP2 POP PUSH2 0x1A4A PUSH1 0x20 DUP5 ADD PUSH2 0x1A53 JUMP JUMPDEST PUSH1 0x0 PUSH1 0x20 DUP3 DUP5 SUB SLT ISZERO PUSH2 0x1AA6 JUMPI PUSH1 0x0 DUP1 REVERT JUMPDEST PUSH2 0x1AAF DUP3 PUSH2 0x1A07 JUMP JUMPDEST SWAP4 SWAP3 POP POP POP JUMP JUMPDEST PUSH4 0xFFFFFFFF DUP10 DUP2 AND DUP3 MSTORE PUSH2 0x100 PUSH1 0x20 DUP1 DUP5 ADD DUP3 SWAP1 MSTORE DUP11 MLOAD SWAP2 DUP5 ADD DUP3 SWAP1 MSTORE PUSH1 0x0 SWAP3 PUSH2 0x120 DUP6 ADD SWAP3 DUP13 DUP4 ADD SWAP3 SWAP1 DUP6 JUMPDEST DUP2 DUP2 LT ISZERO PUSH2 0x1B01 JUMPI DUP5 MLOAD DUP5 AND DUP7 MSTORE SWAP5 DUP3 ADD SWAP5 SWAP4 DUP3 ADD SWAP4 PUSH1 0x1 ADD PUSH2 0x1AE3 JUMP JUMPDEST POP POP POP POP POP PUSH1 0x40 DUP4 ADD DUP10 SWAP1 MSTORE PUSH1 0x60 DUP4 ADD DUP9 SWAP1 MSTORE DUP7 ISZERO ISZERO PUSH1 0x80 DUP5 ADD MSTORE SWAP1 POP PUSH4 0xFFFFFFFF DUP6 AND PUSH1 0xA0 DUP4 ADD MSTORE PUSH2 0x1B39 PUSH1 0xC0 DUP4 ADD DUP6 PUSH1 0x3 SIGNEXTEND SWAP1 MSTORE JUMP JUMPDEST PUSH2 0x1B48 PUSH1 0xE0 DUP4 ADD DUP5 PUSH1 0x3 SIGNEXTEND SWAP1 MSTORE JUMP JUMPDEST SWAP10 SWAP9 POP POP POP POP POP POP POP POP POP JUMP JUMPDEST PUSH1 0x0 DUP1 PUSH1 0x0 PUSH1 0x60 DUP5 DUP7 SUB SLT ISZERO PUSH2 0x1B6A JUMPI PUSH1 0x0 DUP1 REVERT JUMPDEST PUSH2 0x1B73 DUP5 PUSH2 0x1A07 JUMP JUMPDEST SWAP3 POP PUSH2 0x1B81 PUSH1 0x20 DUP6 ADD PUSH2 0x1A07 JUMP JUMPDEST SWAP2 POP PUSH2 0x1B8F PUSH1 0x40 DUP6 ADD PUSH2 0x1A07 JUMP JUMPDEST SWAP1 POP SWAP3 POP SWAP3 POP SWAP3 JUMP JUMPDEST DUP1 CALLDATALOAD DUP1 ISZERO ISZERO DUP2 EQ PUSH2 0x1A1B JUMPI PUSH1 0x0 DUP1 REVERT JUMPDEST PUSH1 0x0 DUP1 PUSH1 0x40 DUP4 DUP6 SUB SLT ISZERO PUSH2 0x1BBB JUMPI PUSH1 0x0 DUP1 REVERT JUMPDEST PUSH2 0x1BC4 DUP4 PUSH2 0x1A53 JUMP JUMPDEST SWAP2 POP PUSH2 0x1A4A PUSH1 0x20 DUP5 ADD PUSH2 0x1B98 JUMP JUMPDEST PUSH1 0x0 DUP1 PUSH1 0x0 PUSH1 0x60 DUP5 DUP7 SUB SLT ISZERO PUSH2 0x1BE7 JUMPI PUSH1 0x0 DUP1 REVERT JUMPDEST PUSH2 0x1BF0 DUP5 PUSH2 0x1A07 JUMP JUMPDEST SWAP3 POP PUSH1 0x20 DUP5 ADD CALLDATALOAD DUP1 PUSH1 0x3 SIGNEXTEND DUP2 EQ PUSH2 0x1C06 JUMPI PUSH1 0x0 DUP1 REVERT JUMPDEST SWAP2 POP PUSH2 0x1B8F PUSH1 0x40 DUP6 ADD PUSH2 0x1B98 JUMP JUMPDEST PUSH1 0x0 PUSH1 0x20 DUP3 DUP5 SUB SLT ISZERO PUSH2 0x1C26 JUMPI PUSH1 0x0 DUP1 REVERT JUMPDEST PUSH2 0x1AAF DUP3 PUSH2 0x1A53 JUMP JUMPDEST PUSH1 0x0 PUSH1 0x20 DUP3 DUP5 SUB SLT ISZERO PUSH2 0x1C41 JUMPI PUSH1 0x0 DUP1 REVERT JUMPDEST POP CALLDATALOAD SWAP2 SWAP1 POP JUMP JUMPDEST PUSH4 0x4E487B71 PUSH1 0xE0 SHL PUSH1 0x0 MSTORE PUSH1 0x32 PUSH1 0x4 MSTORE PUSH1 0x24 PUSH1 0x0 REVERT JUMPDEST PUSH4 0x4E487B71 PUSH1 0xE0 SHL PUSH1 0x0 MSTORE PUSH1 0x11 PUSH1 0x4 MSTORE PUSH1 0x24 PUSH1 0x0 REVERT JUMPDEST PUSH1 0x0 PUSH1 0x1 DUP3 ADD PUSH2 0x1C86 JUMPI PUSH2 0x1C86 PUSH2 0x1C5E JUMP JUMPDEST POP PUSH1 0x1 ADD SWAP1 JUMP JUMPDEST PUSH1 0x3 DUP2 DUP2 SIGNEXTEND SWAP1 DUP4 SWAP1 SIGNEXTEND ADD PUSH4 0x7FFFFFFF DUP2 SGT PUSH4 0x7FFFFFFF NOT DUP3 SLT OR ISZERO PUSH2 0x52C JUMPI PUSH2 0x52C PUSH2 0x1C5E JUMP JUMPDEST PUSH1 0x3 DUP3 DUP2 SIGNEXTEND SWAP1 DUP3 SWAP1 SIGNEXTEND SUB PUSH4 0x7FFFFFFF NOT DUP2 SLT PUSH4 0x7FFFFFFF DUP3 SGT OR ISZERO PUSH2 0x52C JUMPI PUSH2 0x52C PUSH2 0x1C5E JUMP JUMPDEST DUP2 DUP2 SUB DUP2 DUP2 GT ISZERO PUSH2 0x52C JUMPI PUSH2 0x52C PUSH2 0x1C5E JUMP JUMPDEST PUSH1 0x0 PUSH4 0xFFFFFFFF DUP1 DUP4 AND DUP2 DUP2 SUB PUSH2 0x1D07 JUMPI PUSH2 0x1D07 PUSH2 0x1C5E JUMP JUMPDEST PUSH1 0x1 ADD SWAP4 SWAP3 POP POP POP JUMP JUMPDEST DUP1 DUP3 ADD DUP1 DUP3 GT ISZERO PUSH2 0x52C JUMPI PUSH2 0x52C PUSH2 0x1C5E JUMP INVALID LOG2 PUSH5 0x6970667358 0x22 SLT KECCAK256 CALL 0xCE AND CODECOPY DELEGATECALL 0xD 0xC4 0xBA 0xB5 0x2A PUSH15 0x6B10B327BAD19C8D44F0D25E01D8DE 0xE7 0x25 0x4F 0xA6 0xE0 PUSH26 0x64736F6C63430008130033000000000000000000000000000000 "},"methodIdentifiers":{"REPUTATION_GAIN_BY_COVERING_LOAN()":"d5be8c4a","REPUTATION_GAIN_BY_REPAYNG_DEBT()":"4e5ecf13","REPUTATION_LOSS_BY_DEBT_NOT_PAYD()":"a5118bf1","addCandidate(uint32,uint32)":"5d090176","authorizedCallers(address)":"536fff6c","checkUnbeatableMajority(uint32)":"315f7760","closeElection(uint32)":"4b45e00f","elections(uint256)":"5e6fef01","getCandidateVotes(uint32)":"70574c4b","getCurrentElectionId()":"fe2b536b","getElectionInfo(uint32)":"232775c3","getMemberId(address)":"c269014b","getReputation(uint32)":"81db2284","hasMemberVoted(uint32,uint32)":"1f7f505c","hasVotedInElection(uint32,uint32)":"b3f8df40","isModerator(uint32)":"b1cc1f8f","isWalletVinculated(address)":"598a562a","moderatorVotesReceived(uint32)":"8450a681","openElection(uint32)":"8249dea6","owner()":"8da5cb5b","removeModerator(uint32)":"6f53c3d8","renounceOwnership()":"715018a6","reputationChange(uint32,int32,bool)":"533dfa35","setAuthorizedCaller(address,bool)":"454bbd29","transferOwnership(address)":"f2fde38b","vinculationMemberToWallet(uint32,address)":"21bb31e4","voteForModerator(uint32,uint32,uint32)":"244ad967"}}}}}