{"contracts/ReputationSystem.sol":{"ReputationSystem":{"abi":[{"inputs":[],"stateMutability":"nonpayable","type":"constructor"},{"inputs":[],"name":"ActiveElectionExists","type":"error"},{"inputs":[],"name":"ElectionExpired","type":"error"},{"inputs":[],"name":"ElectionNotActive","type":"error"},{"inputs":[],"name":"InvalidCandidate","type":"error"},{"inputs":[],"name":"MemberAlreadyVoted","type":"error"},{"inputs":[],"name":"MemberIdOrWalletInvalid","type":"error"},{"inputs":[],"name":"NoCandidates","type":"error"},{"inputs":[],"name":"UnauthorizedCaller","type":"error"},{"inputs":[],"name":"WalletAlreadyLinkedToAnotherMember","type":"error"},{"inputs":[],"name":"WalletAlreadyVinculated","type":"error"},{"anonymous":false,"inputs":[{"indexed":true,"internalType":"address","name":"caller","type":"address"},{"indexed":false,"internalType":"bool","name":"authorized","type":"bool"}],"name":"AuthorizedCallerUpdated","type":"event"},{"anonymous":false,"inputs":[{"indexed":true,"internalType":"uint32","name":"electionId","type":"uint32"},{"indexed":true,"internalType":"uint32","name":"candidateId","type":"uint32"}],"name":"CandidateAdded","type":"event"},{"anonymous":false,"inputs":[{"indexed":true,"internalType":"uint32","name":"electionId","type":"uint32"},{"indexed":true,"internalType":"uint32","name":"winnerId","type":"uint32"},{"indexed":false,"internalType":"int32","name":"winningVotes","type":"int32"}],"name":"ElectionClosed","type":"event"},{"anonymous":false,"inputs":[{"indexed":true,"internalType":"uint32","name":"electionId","type":"uint32"},{"indexed":true,"internalType":"uint32","name":"candidateId","type":"uint32"},{"indexed":false,"internalType":"uint256","name":"startTime","type":"uint256"},{"indexed":false,"internalType":"uint256","name":"endTime","type":"uint256"}],"name":"ElectionOpened","type":"event"},{"anonymous":false,"inputs":[{"indexed":true,"internalType":"uint32","name":"memberId","type":"uint32"},{"indexed":true,"internalType":"address","name":"wallet","type":"address"},{"indexed":false,"internalType":"uint256","name":"timestamp","type":"uint256"}],"name":"MemberToWalletVinculation","type":"event"},{"anonymous":false,"inputs":[{"indexed":true,"internalType":"address","name":"previousOwner","type":"address"},{"indexed":true,"internalType":"address","name":"newOwner","type":"address"}],"name":"OwnershipTransferred","type":"event"},{"anonymous":false,"inputs":[{"indexed":true,"internalType":"uint32","name":"memberId","type":"uint32"},{"indexed":false,"internalType":"int32","name":"points","type":"int32"},{"indexed":false,"internalType":"bool","name":"increase","type":"bool"},{"indexed":false,"internalType":"int32","name":"newReputation","type":"int32"},{"indexed":false,"internalType":"uint256","name":"timestamp","type":"uint256"}],"name":"ReputationChanged","type":"event"},{"anonymous":false,"inputs":[{"indexed":true,"internalType":"uint32","name":"electionId","type":"uint32"},{"indexed":true,"internalType":"uint32","name":"winnerId","type":"uint32"},{"indexed":false,"internalType":"int32","name":"winningVotes","type":"int32"}],"name":"UnbeatableMajorityReached","type":"event"},{"anonymous":false,"inputs":[{"indexed":true,"internalType":"uint32","name":"electionId","type":"uint32"},{"indexed":true,"internalType":"uint32","name":"candidateId","type":"uint32"},{"indexed":true,"internalType":"uint32","name":"memberId","type":"uint32"},{"indexed":false,"internalType":"int32","name":"voteWeight","type":"int32"}],"name":"VoteCast","type":"event"},{"inputs":[],"name":"REPUTATION_GAIN_BY_COVERING_LOAN","outputs":[{"internalType":"int32","name":"","type":"int32"}],"stateMutability":"view","type":"function"},{"inputs":[],"name":"REPUTATION_GAIN_BY_REPAYNG_DEBT","outputs":[{"internalType":"int32","name":"","type":"int32"}],"stateMutability":"view","type":"function"},{"inputs":[],"name":"REPUTATION_LOSS_BY_DEBT_NOT_PAYD","outputs":[{"internalType":"int32","name":"","type":"int32"}],"stateMutability":"view","type":"function"},{"inputs":[{"internalType":"uint32","name":"electionId","type":"uint32"},{"internalType":"uint32","name":"candidateId","type":"uint32"}],"name":"addCandidate","outputs":[],"stateMutability":"nonpayable","type":"function"},{"inputs":[{"internalType":"address","name":"","type":"address"}],"name":"authorizedCallers","outputs":[{"internalType":"bool","name":"","type":"bool"}],"stateMutability":"view","type":"function"},{"inputs":[{"internalType":"uint32","name":"electionId","type":"uint32"}],"name":"checkUnbeatableMajority","outputs":[{"internalType":"bool","name":"isUnbeatable","type":"bool"},{"internalType":"uint32","name":"leadingCandidate","type":"uint32"},{"internalType":"int32","name":"leadingVotes","type":"int32"},{"internalType":"uint32","name":"secondCandidate","type":"uint32"},{"internalType":"int32","name":"secondVotes","type":"int32"}],"stateMutability":"view","type":"function"},{"inputs":[{"internalType":"uint32","name":"electionId","type":"uint32"}],"name":"closeElection","outputs":[],"stateMutability":"nonpayable","type":"function"},{"inputs":[{"internalType":"uint256","name":"","type":"uint256"}],"name":"elections","outputs":[{"internalType":"uint32","name":"id","type":"uint32"},{"internalType":"uint256","name":"startTime","type":"uint256"},{"internalType":"uint256","name":"endTime","type":"uint256"},{"internalType":"bool","name":"active","type":"bool"},{"internalType":"uint32","name":"winnerId","type":"uint32"},{"internalType":"int32","name":"winningVotes","type":"int32"},{"internalType":"int32","name":"totalVotesCast","type":"int32"},{"internalType":"int32","name":"potentialRemainingVotes","type":"int32"}],"stateMutability":"view","type":"function"},{"inputs":[],"name":"getActiveMemberCount","outputs":[{"internalType":"uint32","name":"","type":"uint32"}],"stateMutability":"view","type":"function"},{"inputs":[],"name":"getAverageReputation","outputs":[{"internalType":"int32","name":"","type":"int32"}],"stateMutability":"view","type":"function"},{"inputs":[{"internalType":"uint32","name":"candidateId","type":"uint32"}],"name":"getCandidateVotes","outputs":[{"internalType":"int32","name":"","type":"int32"}],"stateMutability":"view","type":"function"},{"inputs":[],"name":"getCurrentElectionId","outputs":[{"internalType":"int32","name":"","type":"int32"}],"stateMutability":"view","type":"function"},{"inputs":[{"internalType":"uint32","name":"electionId","type":"uint32"}],"name":"getElectionInfo","outputs":[{"internalType":"uint32","name":"id","type":"uint32"},{"internalType":"uint32[]","name":"candidates","type":"uint32[]"},{"internalType":"uint256","name":"startTime","type":"uint256"},{"internalType":"uint256","name":"endTime","type":"uint256"},{"internalType":"bool","name":"active","type":"bool"},{"internalType":"uint32","name":"winnerId","type":"uint32"},{"internalType":"int32","name":"winningVotes","type":"int32"},{"internalType":"int32","name":"totalVotesCast","type":"int32"}],"stateMutability":"view","type":"function"},{"inputs":[{"internalType":"address","name":"wallet","type":"address"}],"name":"getMemberId","outputs":[{"internalType":"uint32","name":"","type":"uint32"}],"stateMutability":"view","type":"function"},{"inputs":[{"internalType":"uint32","name":"memberId","type":"uint32"}],"name":"getReputation","outputs":[{"internalType":"int32","name":"","type":"int32"}],"stateMutability":"view","type":"function"},{"inputs":[{"internalType":"uint32","name":"electionId","type":"uint32"},{"internalType":"uint32","name":"memberId","type":"uint32"}],"name":"hasMemberVoted","outputs":[{"internalType":"bool","name":"","type":"bool"}],"stateMutability":"view","type":"function"},{"inputs":[{"internalType":"uint32","name":"","type":"uint32"},{"internalType":"uint32","name":"","type":"uint32"}],"name":"hasVotedInElection","outputs":[{"internalType":"bool","name":"","type":"bool"}],"stateMutability":"view","type":"function"},{"inputs":[{"internalType":"uint32","name":"memberId","type":"uint32"}],"name":"isMemberActive","outputs":[{"internalType":"bool","name":"","type":"bool"}],"stateMutability":"view","type":"function"},{"inputs":[{"internalType":"uint32","name":"","type":"uint32"}],"name":"isModerator","outputs":[{"internalType":"bool","name":"","type":"bool"}],"stateMutability":"view","type":"function"},{"inputs":[{"internalType":"address","name":"wallet","type":"address"}],"name":"isWalletVinculated","outputs":[{"internalType":"bool","name":"","type":"bool"}],"stateMutability":"view","type":"function"},{"inputs":[{"internalType":"uint32","name":"","type":"uint32"}],"name":"memberReputation","outputs":[{"internalType":"int32","name":"","type":"int32"}],"stateMutability":"view","type":"function"},{"inputs":[{"internalType":"uint32","name":"","type":"uint32"}],"name":"moderatorVotesReceived","outputs":[{"internalType":"int32","name":"","type":"int32"}],"stateMutability":"view","type":"function"},{"inputs":[{"internalType":"uint32","name":"candidateId","type":"uint32"}],"name":"openElection","outputs":[],"stateMutability":"nonpayable","type":"function"},{"inputs":[],"name":"owner","outputs":[{"internalType":"address","name":"","type":"address"}],"stateMutability":"view","type":"function"},{"inputs":[],"name":"renounceOwnership","outputs":[],"stateMutability":"nonpayable","type":"function"},{"inputs":[{"internalType":"uint32","name":"memberId","type":"uint32"},{"internalType":"int32","name":"points","type":"int32"},{"internalType":"bool","name":"increase","type":"bool"}],"name":"reputationChange","outputs":[],"stateMutability":"nonpayable","type":"function"},{"inputs":[{"internalType":"address","name":"caller","type":"address"},{"internalType":"bool","name":"authorized","type":"bool"}],"name":"setAuthorizedCaller","outputs":[],"stateMutability":"nonpayable","type":"function"},{"inputs":[],"name":"totalPotentialVotes","outputs":[{"internalType":"int32","name":"","type":"int32"}],"stateMutability":"view","type":"function"},{"inputs":[{"internalType":"address","name":"newOwner","type":"address"}],"name":"transferOwnership","outputs":[],"stateMutability":"nonpayable","type":"function"},{"inputs":[{"internalType":"uint32","name":"memberId","type":"uint32"},{"internalType":"address","name":"wallet","type":"address"}],"name":"vinculationMemberToWallet","outputs":[],"stateMutability":"nonpayable","type":"function"},{"inputs":[{"internalType":"uint32","name":"electionId","type":"uint32"},{"internalType":"uint32","name":"candidateId","type":"uint32"},{"internalType":"uint32","name":"memberId","type":"uint32"}],"name":"voteForModerator","outputs":[],"stateMutability":"nonpayable","type":"function"},{"inputs":[{"internalType":"address","name":"","type":"address"}],"name":"walletToMemberId","outputs":[{"internalType":"uint32","name":"","type":"uint32"}],"stateMutability":"view","type":"function"}],"evm":{"bytecode":{"linkReferences":{},"object":"6080806040523461007757600160008181558154336001600160a01b0319821681179093556001600160a01b0316907f8be0079c531659141344cd1fd0a4f28419497f9722a3daafe3b4186f6b6457e09080a33360005260026020526040600020600160ff19825416179055611c7f908161007d8239f35b600080fdfe6080604052600436101561001257600080fd5b60003560e01c80630fc19c78146117735780631f7f505c146102cc57806321bb31e41461165057806322faa41f1461162c578063232775c314611386578063244ad967146110db578063315f776014611079578063454bbd2914610ff15780634698c2d51461028c5780634a57c6d01461089e5780634b45e00f14610e665780634e5ecf1314610e4a578063533dfa3514610b34578063536fff6c14610af5578063598a562a14610ab35780635d090176146109c65780635e6fef011461093557806370574c4b146103fe578063715018a6146108d857806381db22841461089e5780638249dea6146104385780638450a681146103fe5780638da5cb5b146103d55780639734ed6214610399578063a5118bf11461037d578063a6f587ac1461035c578063b1cc1f8f14610320578063b3f8df40146102cc578063c269014b1461028c578063d5be8c4a14610270578063f2fde38b146101a75763fe2b536b1461017c57600080fd5b346101a25760003660031901126101a2576020610197611923565b6040519060030b8152f35b600080fd5b346101a25760203660031901126101a2576101c06117b4565b6101c8611805565b6001600160a01b0390811690811561021c57600154826bffffffffffffffffffffffff60a01b821617600155167f8be0079c531659141344cd1fd0a4f28419497f9722a3daafe3b4186f6b6457e0600080a3005b60405162461bcd60e51b815260206004820152602660248201527f4f776e61626c653a206e6577206f776e657220697320746865207a65726f206160448201526564647265737360d01b6064820152608490fd5b346101a25760003660031901126101a257602060405160028152f35b346101a25760203660031901126101a2576001600160a01b036102ad6117b4565b166000526004602052602063ffffffff60406000205416604051908152f35b346101a25760403660031901126101a2576102e561178e565b6102ed6117a1565b9063ffffffff809116600052600b60205260406000209116600052602052602060ff604060002054166040519015158152f35b346101a25760203660031901126101a25763ffffffff61033e61178e565b166000526009602052602060ff604060002054166040519015158152f35b346101a25760003660031901126101a257602060065460030b604051908152f35b346101a25760003660031901126101a257602060405160038152f35b346101a25760203660031901126101a25763ffffffff6103b761178e565b166000526007602052602060ff604060002054166040519015158152f35b346101a25760003660031901126101a2576001546040516001600160a01b039091168152602090f35b346101a25760203660031901126101a25763ffffffff61041c61178e565b16600052600a602052602060406000205460030b604051908152f35b346101a25760203660031901126101a25761045161178e565b600d548015158061087b575b6108695760405191610120830183811067ffffffffffffffff821117610811576040526000835260606020840152600060408401526000606084015260006080840152600060a0840152600060c0840152600060e08401526000610100840152600c5463ffffffff8082161461083d578063ffffffff60018180941601168219821617600c5516835260405180604081011067ffffffffffffffff6040830111176108115760408101604052600181526020368183013780602085015280511561085357602063ffffffff831691015242604084015262278d004201421161083d5762278d004201606084015260016080840152600060e084015260065460030b610100840152600160401b9182811015610811578060016105829201600d556117ca565b9290926108275763ffffffff84511663ffffffff19845416178355602084015180519167ffffffffffffffff83116108115782116108115760018401548260018601558083106107a8575b50602001906001840160005260206000209060005b8160031c81106107655750600719811681036106e8575b505050604063ffffffff7f4610b24bbfb857173e063b234e3a2475409bf5921c3f541f435eb016c5aad89f928183870151968760028801556106d660046060830151988960038201550161065f60808401511515829060ff801983541691151516179055565b60a0830151815460c085015160e086015161010087015160681b63ffffffff60681b1660489190911b63ffffffff60481b1660289290921b68ffffffff00000000001693881660081b64ffffffff001670ffffffffffffffffffffffffffffffff0019909316929092179290921791909117179055565b511694835196875260208701521693a3005b60009260005b60071983168303811061072f57505060031c0155604063ffffffff7f4610b24bbfb857173e063b234e3a2475409bf5921c3f541f435eb016c5aad89f6105f9565b9093602061075c60019263ffffffff885116908560021b60031b9163ffffffff809116831b921b19161790565b950191016106ee565b6000805b6008811061077e5750838201556001016105e2565b855190959160019160209163ffffffff60058a901b81811b199092169216901b1792019501610769565b600185016000526020600020601c8460021b16806107ee575b506007840160031c81015b6007830160031c820181106107e25750506105cd565b600081556001016107cc565b60001990816007870160031c8401019182549160200360031b1c169055876107c1565b634e487b7160e01b600052604160045260246000fd5b634e487b7160e01b600052600060045260246000fd5b634e487b7160e01b600052601160045260246000fd5b634e487b7160e01b600052603260045260246000fd5b60405163eca8873760e01b8152600490fd5b50600019810181811161083d57600461089560ff926117ca565b5001541661045d565b346101a25760203660031901126101a25763ffffffff6108bc61178e565b166000526005602052602060406000205460030b604051908152f35b346101a25760003660031901126101a2576108f1611805565b600180546001600160a01b031981169091556000906001600160a01b03167f8be0079c531659141344cd1fd0a4f28419497f9722a3daafe3b4186f6b6457e08280a3005b346101a25760203660031901126101a257600435600d548110156101a25761095f610100916117ca565b5063ffffffff90818154169160028201549160046003820154910154926040519485526020850152604084015260ff8216151560608401528160081c1660808301528060281c60030b60a08301528060481c60030b60c083015260681c60030b60e0820152f35b346101a25760403660031901126101a2576109df61178e565b6109e76117a1565b600d549063ffffffff9283811692831015610a9157610a05816117ca565b5060038101544211908115610aa3575b50610a9157610a256001916117ca565b5001805490600160401b8210156108115781610a49916001610a68940181556118f1565b94909216809483549060031b9163ffffffff809116831b921b19161790565b90557f2497edd456da400fdf8e24a5943faebba37fc1a396be5ff9ef6105aede63e26b600080a3005b604051638744898560e01b8152600490fd5b60ff915060040154161585610a15565b346101a25760203660031901126101a2576001600160a01b03610ad46117b4565b166000526004602052602063ffffffff604060002054161515604051908152f35b346101a25760203660031901126101a2576001600160a01b03610b166117b4565b166000526002602052602060ff604060002054166040519015158152f35b346101a25760603660031901126101a257610b4d61178e565b602480359160039083820b918285036101a25760443591821515918284036101a257336000526020916002835260ff6040600020541615610e385763ffffffff809116978860005260058452604060002054830b95600014610e2957610bb3908661187c565b60008613958615610e2057925b81810b96610bda600089139586600014610e19578461185d565b94610bea6006549687850b61187c565b851663ffffffff1980971617600655811580610e12575b15610cc4575050509091929394959688600052600785526040600020600160ff1982541617905560085490600160401b821015610cb0575091600080516020611c2a8339815191529795939189610c80610c6586600160809c9a98016008556118b1565b819391549060031b9163ffffffff809116831b921b19161790565b90555b896000526005845260406000209283541691161790556040519384528301526040820152426060820152a2005b634e487b7160e01b60009081526041600452fd5b81610e09575b50610cf0575b50600080516020611c2a8339815191529750906080969594939291610c83565b60008a81526007865260408120805460ff191690555b6008805480831015610de6578c86610d1d856118b1565b905490871b1c1614610d39575050610d3490611914565b610d06565b9160009b91939495969798999a9b1992838101908111610dd157610c6588610d63610d70936118b1565b905490891b1c16926118b1565b90558254908115610dbd5750918560809a98969492600080516020611c2a8339815191529c9a9896940192610da4846118b1565b81939154921b1b19169055555b90919293949596610cd0565b634e487b7160e01b60009081526031600452fd5b82634e487b7160e01b60005260116004526000fd5b50505050600080516020611c2a8339815191529750906080969594939291610db1565b9050158b610cca565b5080610c01565b600061185d565b50600092610bc0565b610e33908661185d565b610bb3565b604051635c427cd960e01b8152600490fd5b346101a25760003660031901126101a257602060405160018152f35b346101a2576020806003193601126101a257610e8061178e565b90600d5463ffffffff9283811691821015610a9157610ea690610ea1611805565b6117ca565b5091600483019384549360ff851615610a9157600101948554908115610fdf5760ff19958616815582610ed88861189c565b949054600395861b1c169081600052600a93848752604060002054860b9460015b828110610f9557505050928092610f67837f2b056a7f2ae4dfec88dc5458429e82a178c97e5019b817058ae7dcd455da9e85989796610f8b95169a8b600052600989526001604060002091825416179055829064ffffffff0082549160081b169064ffffffff001916179055565b9081549060281b68ffffffff0000000000169068ffffffff00000000001916179055565b604051910b8152a3005b83610fa0828e6118f1565b9054908a1b1c1680600052828a52604060002054890b90888a0b8213610fd1575b5050610fcc90611914565b610ef9565b9097509450610fcc8d610fc1565b604051633941064160e21b8152600490fd5b346101a25760403660031901126101a25761100a6117b4565b60243590811515908183036101a2577fad857fa38c9319cb80848f1ef2f924383b90297eb5d71755738ff037d100faa191611070602092611049611805565b60018060a01b031694856000526002845260406000209060ff801983541691151516179055565b604051908152a2005b346101a25760203660031901126101a25761109261178e565b600d5463ffffffff908183161015610a9157806110b060a093611bcb565b9493959092604051961515875216602086015260030b604085015216606083015260030b6080820152f35b346101a25760603660031901126101a2576110f461178e565b6110fc6117a1565b6044359163ffffffff928381168091036101a25780158015611361575b61134f57600d549284831693841015610a9157611135836117ca565b509360039485810154421190811561133f575b50610a9157611156846117ca565b5095816000526020600b8152604060002085600052815260ff6040600020541661132e57600096600094600190818b018581549216975b8281106112f7575b5050509091929394959697156112e55761129a987f01918cd6e2704e854c925442ca2caa9ef7187126224a112077220e8316519d66948860005260058552604060002054840b92600084126112dc575b916004916112689389600052600b885260406000208c600052885260406000209060ff1982541617905589600052600a875260406000209081549061122c87838a0b61187c565b169063ffffffff19161790550161124983825460481c860b61187c565b81549060481b63ffffffff60481b169063ffffffff60481b1916179055565b611271886117ca565b508760005260058452604060002054830b6000811361129c575b5050604051910b8152a46119bd565b005b6112b360046112d5930191825460681c860b61185d565b815460689190911b63ffffffff60681b1663ffffffff60681b19909116179055565b898061128b565b600093506111e5565b60405163e66ea08f60e01b8152600490fd5b888761130383856118f1565b905490881b1c161461131d5761131890611914565b61118d565b509199508991508b90508080611195565b60405162b14d3b60e61b8152600490fd5b60ff915060040154161587611148565b604051630cff23e760e01b8152600490fd5b5080600052600360205260406000203360005260205260ff6040600020541615611119565b346101a25760203660031901126101a25761139f61178e565b600d5463ffffffff82161015610a91576113b8906117ca565b5063ffffffff81541690600281015490600381015460048201549060405193846020600186015491828152019060018296016000526020600020906000915b8160078401106115ab575491818110611594575b81811061157b575b818110611561575b818110611547575b81811061152d575b818110611513575b8181106114f9575b106114eb575b50859003601f01601f191685019467ffffffffffffffff86118187101761081157856040526101008087019787526020870152518096526101208501936000965b8088106114cd5750508495506040850152606084015260ff81161515608084015263ffffffff8160081c1660a08401528060281c60030b60c084015260481c60030b60e08301520390f35b909460208060019263ffffffff895116815201960197019690611482565b60e01c815260200187611441565b92602060019163ffffffff8560c01c16815201930161143b565b92602060019163ffffffff8560a01c168152019301611433565b92602060019163ffffffff8560801c16815201930161142b565b92602060019163ffffffff8560601c168152019301611423565b92602060019163ffffffff8560401c16815201930161141b565b92602060019163ffffffff85831c168152019301611413565b92602060019163ffffffff8516815201930161140b565b926001610100600892865463ffffffff8116825263ffffffff8160201c16602083015263ffffffff8160401c166040830152606063ffffffff82821c1690830152608063ffffffff82821c169083015260a063ffffffff82821c169083015260c063ffffffff82821c169083015260e01c60e08201520194019201916113f7565b346101a25760003660031901126101a257602063ffffffff60085416604051908152f35b346101a25760403660031901126101a25761166961178e565b6024356001600160a01b03811691908290036101a25763ffffffff809116908115801561176b575b61134f578160005260209060038252604060002084600052825260ff604060002054166117595783600052600482526040600020541682811515918261174e575b505061173c577f605181a3cca1307ae9b2df54d6592ddf8f82c3570c6938f36d61cd23b6b57a8d90826000526003815260406000208460005281526040600020600160ff198254161790556004815260406000208363ffffffff19825416179055604051428152a3005b6040516319a52a5960e31b8152600490fd5b1415905082856116d2565b6040516377030a8760e11b8152600490fd5b508215611691565b346101a25760003660031901126101a257602061019761196b565b6004359063ffffffff821682036101a257565b6024359063ffffffff821682036101a257565b600435906001600160a01b03821682036101a257565b600d5481101561085357600590600d600052027fd7b6990105719101dabeb77144f2a3385c8033acd3af97e9423a695e81ad1eb50190600090565b6001546001600160a01b0316330361181957565b606460405162461bcd60e51b815260206004820152602060248201527f4f776e61626c653a2063616c6c6572206973206e6f7420746865206f776e65726044820152fd5b600391820b910b0390637fffffff198212637fffffff83131761083d57565b9060030b9060030b0190637fffffff198212637fffffff83131761083d57565b80541561085357600052602060002090600090565b90600854821015610853576008600052601c8260031c7ff3f7a9fe364faab93b216da50a3214154f22a0a2b415b23a84c8169e8b636ee3019260021b1690565b919091805483101561085357600052601c60206000208360031c019260021b1690565b600019811461083d5760010190565b600d548015611964576000199080820190811161083d57611943906117ca565b50600481015460ff16156119605763ffffffff9150541660030b90565b5090565b5060001990565b63ffffffff6008541680156119b75760065460030b9060030b9081156119a157637fffffff19811460001983141661083d570590565b634e487b7160e01b600052601260045260246000fd5b50600090565b6119c6816117ca565b50906002600183015410611acf576119dd81611ad3565b919293905063ffffffff90818516958615611ac65760040192611a098454918260681c60030b9061187c565b60030b958560030b968713611a23575b5050505050505050565b64ffffffffff1990911660089190911b64ffffffff00161783557f2b056a7f2ae4dfec88dc5458429e82a178c97e5019b817058ae7dcd455da9e859360209360ff1991611a6f91610f67565b86600052600984526001604060002091825416179055169284847f6fb21c4c14810ceb320306eda3d07c6738412088c17a66604afe100ae599b18284604051858152a3604051908152a33880808080808080611a19565b50505050505050565b5050565b611ade6001916117ca565b50018054908115611bbb57611af58193929361189c565b92909163ffffffff809354600395861b1c1690600095828752600a9560208781526040808a2054830b99809981996001975b878910611b3d5750505050505050505093929190565b90919293949596979c9b988c99838f611b5690856118f1565b9054908b1b1c169c8d8752858952878720548a0b9b8a0b8c13600014611b92575050611b85909c9b999d611914565b9796959493929190611b27565b9c9d9e919a909d8d8a0b8213611bae575b5050611b8590611914565b9d509b50611b8538611ba3565b5050600090600090600090600090565b611bd4816117ca565b50906002600183015410611c165790611c0792611bf2600493611ad3565b93929691959094015460681c60030b8361187c565b60030b8460030b139493929190565b505060009060009060009060009060009056fe72194f756300fff6bfc1d45660da70048be350dc1aad864b9280fa75c3ff696ca26469706673582212208d1a07bb11785e455622feac4060d9e727646e3c1a817b41168e52bed59e2ee164736f6c63430008130033","opcodes":"PUSH1 0x80 DUP1 PUSH1 0x40 MSTORE CALLVALUE PUSH2 0x77 JUMPI PUSH1 0x1 PUSH1 0x0 DUP2 DUP2 SSTORE DUP2 SLOAD CALLER PUSH1 0x1 PUSH1 0x1 PUSH1 0xA0 SHL SUB NOT DUP3 AND DUP2 OR SWAP1 SWAP4 SSTORE PUSH1 0x1 PUSH1 0x1 PUSH1 0xA0 SHL SUB AND SWAP1 PUSH32 0x8BE0079C531659141344CD1FD0A4F28419497F9722A3DAAFE3B4186F6B6457E0 SWAP1 DUP1 LOG3 CALLER PUSH1 0x0 MSTORE PUSH1 0x2 PUSH1 0x20 MSTORE PUSH1 0x40 PUSH1 0x0 KECCAK256 PUSH1 0x1 PUSH1 0xFF NOT DUP3 SLOAD AND OR SWAP1 SSTORE PUSH2 0x1C7F SWAP1 DUP2 PUSH2 0x7D DUP3 CODECOPY RETURN JUMPDEST PUSH1 0x0 DUP1 REVERT INVALID PUSH1 0x80 PUSH1 0x40 MSTORE PUSH1 0x4 CALLDATASIZE LT ISZERO PUSH2 0x12 JUMPI PUSH1 0x0 DUP1 REVERT JUMPDEST PUSH1 0x0 CALLDATALOAD PUSH1 0xE0 SHR DUP1 PUSH4 0xFC19C78 EQ PUSH2 0x1773 JUMPI DUP1 PUSH4 0x1F7F505C EQ PUSH2 0x2CC JUMPI DUP1 PUSH4 0x21BB31E4 EQ PUSH2 0x1650 JUMPI DUP1 PUSH4 0x22FAA41F EQ PUSH2 0x162C JUMPI DUP1 PUSH4 0x232775C3 EQ PUSH2 0x1386 JUMPI DUP1 PUSH4 0x244AD967 EQ PUSH2 0x10DB JUMPI DUP1 PUSH4 0x315F7760 EQ PUSH2 0x1079 JUMPI DUP1 PUSH4 0x454BBD29 EQ PUSH2 0xFF1 JUMPI DUP1 PUSH4 0x4698C2D5 EQ PUSH2 0x28C JUMPI DUP1 PUSH4 0x4A57C6D0 EQ PUSH2 0x89E JUMPI DUP1 PUSH4 0x4B45E00F EQ PUSH2 0xE66 JUMPI DUP1 PUSH4 0x4E5ECF13 EQ PUSH2 0xE4A JUMPI DUP1 PUSH4 0x533DFA35 EQ PUSH2 0xB34 JUMPI DUP1 PUSH4 0x536FFF6C EQ PUSH2 0xAF5 JUMPI DUP1 PUSH4 0x598A562A EQ PUSH2 0xAB3 JUMPI DUP1 PUSH4 0x5D090176 EQ PUSH2 0x9C6 JUMPI DUP1 PUSH4 0x5E6FEF01 EQ PUSH2 0x935 JUMPI DUP1 PUSH4 0x70574C4B EQ PUSH2 0x3FE JUMPI DUP1 PUSH4 0x715018A6 EQ PUSH2 0x8D8 JUMPI DUP1 PUSH4 0x81DB2284 EQ PUSH2 0x89E JUMPI DUP1 PUSH4 0x8249DEA6 EQ PUSH2 0x438 JUMPI DUP1 PUSH4 0x8450A681 EQ PUSH2 0x3FE JUMPI DUP1 PUSH4 0x8DA5CB5B EQ PUSH2 0x3D5 JUMPI DUP1 PUSH4 0x9734ED62 EQ PUSH2 0x399 JUMPI DUP1 PUSH4 0xA5118BF1 EQ PUSH2 0x37D JUMPI DUP1 PUSH4 0xA6F587AC EQ PUSH2 0x35C JUMPI DUP1 PUSH4 0xB1CC1F8F EQ PUSH2 0x320 JUMPI DUP1 PUSH4 0xB3F8DF40 EQ PUSH2 0x2CC JUMPI DUP1 PUSH4 0xC269014B EQ PUSH2 0x28C JUMPI DUP1 PUSH4 0xD5BE8C4A EQ PUSH2 0x270 JUMPI DUP1 PUSH4 0xF2FDE38B EQ PUSH2 0x1A7 JUMPI PUSH4 0xFE2B536B EQ PUSH2 0x17C JUMPI PUSH1 0x0 DUP1 REVERT JUMPDEST CALLVALUE PUSH2 0x1A2 JUMPI PUSH1 0x0 CALLDATASIZE PUSH1 0x3 NOT ADD SLT PUSH2 0x1A2 JUMPI PUSH1 0x20 PUSH2 0x197 PUSH2 0x1923 JUMP JUMPDEST PUSH1 0x40 MLOAD SWAP1 PUSH1 0x3 SIGNEXTEND DUP2 MSTORE RETURN JUMPDEST PUSH1 0x0 DUP1 REVERT JUMPDEST CALLVALUE PUSH2 0x1A2 JUMPI PUSH1 0x20 CALLDATASIZE PUSH1 0x3 NOT ADD SLT PUSH2 0x1A2 JUMPI PUSH2 0x1C0 PUSH2 0x17B4 JUMP JUMPDEST PUSH2 0x1C8 PUSH2 0x1805 JUMP JUMPDEST PUSH1 0x1 PUSH1 0x1 PUSH1 0xA0 SHL SUB SWAP1 DUP2 AND SWAP1 DUP2 ISZERO PUSH2 0x21C JUMPI PUSH1 0x1 SLOAD DUP3 PUSH12 0xFFFFFFFFFFFFFFFFFFFFFFFF PUSH1 0xA0 SHL DUP3 AND OR PUSH1 0x1 SSTORE AND PUSH32 0x8BE0079C531659141344CD1FD0A4F28419497F9722A3DAAFE3B4186F6B6457E0 PUSH1 0x0 DUP1 LOG3 STOP JUMPDEST PUSH1 0x40 MLOAD PUSH3 0x461BCD PUSH1 0xE5 SHL DUP2 MSTORE PUSH1 0x20 PUSH1 0x4 DUP3 ADD MSTORE PUSH1 0x26 PUSH1 0x24 DUP3 ADD MSTORE PUSH32 0x4F776E61626C653A206E6577206F776E657220697320746865207A65726F2061 PUSH1 0x44 DUP3 ADD MSTORE PUSH6 0x646472657373 PUSH1 0xD0 SHL PUSH1 0x64 DUP3 ADD MSTORE PUSH1 0x84 SWAP1 REVERT JUMPDEST CALLVALUE PUSH2 0x1A2 JUMPI PUSH1 0x0 CALLDATASIZE PUSH1 0x3 NOT ADD SLT PUSH2 0x1A2 JUMPI PUSH1 0x20 PUSH1 0x40 MLOAD PUSH1 0x2 DUP2 MSTORE RETURN JUMPDEST CALLVALUE PUSH2 0x1A2 JUMPI PUSH1 0x20 CALLDATASIZE PUSH1 0x3 NOT ADD SLT PUSH2 0x1A2 JUMPI PUSH1 0x1 PUSH1 0x1 PUSH1 0xA0 SHL SUB PUSH2 0x2AD PUSH2 0x17B4 JUMP JUMPDEST AND PUSH1 0x0 MSTORE PUSH1 0x4 PUSH1 0x20 MSTORE PUSH1 0x20 PUSH4 0xFFFFFFFF PUSH1 0x40 PUSH1 0x0 KECCAK256 SLOAD AND PUSH1 0x40 MLOAD SWAP1 DUP2 MSTORE RETURN JUMPDEST CALLVALUE PUSH2 0x1A2 JUMPI PUSH1 0x40 CALLDATASIZE PUSH1 0x3 NOT ADD SLT PUSH2 0x1A2 JUMPI PUSH2 0x2E5 PUSH2 0x178E JUMP JUMPDEST PUSH2 0x2ED PUSH2 0x17A1 JUMP JUMPDEST SWAP1 PUSH4 0xFFFFFFFF DUP1 SWAP2 AND PUSH1 0x0 MSTORE PUSH1 0xB PUSH1 0x20 MSTORE PUSH1 0x40 PUSH1 0x0 KECCAK256 SWAP2 AND PUSH1 0x0 MSTORE PUSH1 0x20 MSTORE PUSH1 0x20 PUSH1 0xFF PUSH1 0x40 PUSH1 0x0 KECCAK256 SLOAD AND PUSH1 0x40 MLOAD SWAP1 ISZERO ISZERO DUP2 MSTORE RETURN JUMPDEST CALLVALUE PUSH2 0x1A2 JUMPI PUSH1 0x20 CALLDATASIZE PUSH1 0x3 NOT ADD SLT PUSH2 0x1A2 JUMPI PUSH4 0xFFFFFFFF PUSH2 0x33E PUSH2 0x178E JUMP JUMPDEST AND PUSH1 0x0 MSTORE PUSH1 0x9 PUSH1 0x20 MSTORE PUSH1 0x20 PUSH1 0xFF PUSH1 0x40 PUSH1 0x0 KECCAK256 SLOAD AND PUSH1 0x40 MLOAD SWAP1 ISZERO ISZERO DUP2 MSTORE RETURN JUMPDEST CALLVALUE PUSH2 0x1A2 JUMPI PUSH1 0x0 CALLDATASIZE PUSH1 0x3 NOT ADD SLT PUSH2 0x1A2 JUMPI PUSH1 0x20 PUSH1 0x6 SLOAD PUSH1 0x3 SIGNEXTEND PUSH1 0x40 MLOAD SWAP1 DUP2 MSTORE RETURN JUMPDEST CALLVALUE PUSH2 0x1A2 JUMPI PUSH1 0x0 CALLDATASIZE PUSH1 0x3 NOT ADD SLT PUSH2 0x1A2 JUMPI PUSH1 0x20 PUSH1 0x40 MLOAD PUSH1 0x3 DUP2 MSTORE RETURN JUMPDEST CALLVALUE PUSH2 0x1A2 JUMPI PUSH1 0x20 CALLDATASIZE PUSH1 0x3 NOT ADD SLT PUSH2 0x1A2 JUMPI PUSH4 0xFFFFFFFF PUSH2 0x3B7 PUSH2 0x178E JUMP JUMPDEST AND PUSH1 0x0 MSTORE PUSH1 0x7 PUSH1 0x20 MSTORE PUSH1 0x20 PUSH1 0xFF PUSH1 0x40 PUSH1 0x0 KECCAK256 SLOAD AND PUSH1 0x40 MLOAD SWAP1 ISZERO ISZERO DUP2 MSTORE RETURN JUMPDEST CALLVALUE PUSH2 0x1A2 JUMPI PUSH1 0x0 CALLDATASIZE PUSH1 0x3 NOT ADD SLT PUSH2 0x1A2 JUMPI PUSH1 0x1 SLOAD PUSH1 0x40 MLOAD PUSH1 0x1 PUSH1 0x1 PUSH1 0xA0 SHL SUB SWAP1 SWAP2 AND DUP2 MSTORE PUSH1 0x20 SWAP1 RETURN JUMPDEST CALLVALUE PUSH2 0x1A2 JUMPI PUSH1 0x20 CALLDATASIZE PUSH1 0x3 NOT ADD SLT PUSH2 0x1A2 JUMPI PUSH4 0xFFFFFFFF PUSH2 0x41C PUSH2 0x178E JUMP JUMPDEST AND PUSH1 0x0 MSTORE PUSH1 0xA PUSH1 0x20 MSTORE PUSH1 0x20 PUSH1 0x40 PUSH1 0x0 KECCAK256 SLOAD PUSH1 0x3 SIGNEXTEND PUSH1 0x40 MLOAD SWAP1 DUP2 MSTORE RETURN JUMPDEST CALLVALUE PUSH2 0x1A2 JUMPI PUSH1 0x20 CALLDATASIZE PUSH1 0x3 NOT ADD SLT PUSH2 0x1A2 JUMPI PUSH2 0x451 PUSH2 0x178E JUMP JUMPDEST PUSH1 0xD SLOAD DUP1 ISZERO ISZERO DUP1 PUSH2 0x87B JUMPI JUMPDEST PUSH2 0x869 JUMPI PUSH1 0x40 MLOAD SWAP2 PUSH2 0x120 DUP4 ADD DUP4 DUP2 LT PUSH8 0xFFFFFFFFFFFFFFFF DUP3 GT OR PUSH2 0x811 JUMPI PUSH1 0x40 MSTORE PUSH1 0x0 DUP4 MSTORE PUSH1 0x60 PUSH1 0x20 DUP5 ADD MSTORE PUSH1 0x0 PUSH1 0x40 DUP5 ADD MSTORE PUSH1 0x0 PUSH1 0x60 DUP5 ADD MSTORE PUSH1 0x0 PUSH1 0x80 DUP5 ADD MSTORE PUSH1 0x0 PUSH1 0xA0 DUP5 ADD MSTORE PUSH1 0x0 PUSH1 0xC0 DUP5 ADD MSTORE PUSH1 0x0 PUSH1 0xE0 DUP5 ADD MSTORE PUSH1 0x0 PUSH2 0x100 DUP5 ADD MSTORE PUSH1 0xC SLOAD PUSH4 0xFFFFFFFF DUP1 DUP3 AND EQ PUSH2 0x83D JUMPI DUP1 PUSH4 0xFFFFFFFF PUSH1 0x1 DUP2 DUP1 SWAP5 AND ADD AND DUP3 NOT DUP3 AND OR PUSH1 0xC SSTORE AND DUP4 MSTORE PUSH1 0x40 MLOAD DUP1 PUSH1 0x40 DUP2 ADD LT PUSH8 0xFFFFFFFFFFFFFFFF PUSH1 0x40 DUP4 ADD GT OR PUSH2 0x811 JUMPI PUSH1 0x40 DUP2 ADD PUSH1 0x40 MSTORE PUSH1 0x1 DUP2 MSTORE PUSH1 0x20 CALLDATASIZE DUP2 DUP4 ADD CALLDATACOPY DUP1 PUSH1 0x20 DUP6 ADD MSTORE DUP1 MLOAD ISZERO PUSH2 0x853 JUMPI PUSH1 0x20 PUSH4 0xFFFFFFFF DUP4 AND SWAP2 ADD MSTORE TIMESTAMP PUSH1 0x40 DUP5 ADD MSTORE PUSH3 0x278D00 TIMESTAMP ADD TIMESTAMP GT PUSH2 0x83D JUMPI PUSH3 0x278D00 TIMESTAMP ADD PUSH1 0x60 DUP5 ADD MSTORE PUSH1 0x1 PUSH1 0x80 DUP5 ADD MSTORE PUSH1 0x0 PUSH1 0xE0 DUP5 ADD MSTORE PUSH1 0x6 SLOAD PUSH1 0x3 SIGNEXTEND PUSH2 0x100 DUP5 ADD MSTORE PUSH1 0x1 PUSH1 0x40 SHL SWAP2 DUP3 DUP2 LT ISZERO PUSH2 0x811 JUMPI DUP1 PUSH1 0x1 PUSH2 0x582 SWAP3 ADD PUSH1 0xD SSTORE PUSH2 0x17CA JUMP JUMPDEST SWAP3 SWAP1 SWAP3 PUSH2 0x827 JUMPI PUSH4 0xFFFFFFFF DUP5 MLOAD AND PUSH4 0xFFFFFFFF NOT DUP5 SLOAD AND OR DUP4 SSTORE PUSH1 0x20 DUP5 ADD MLOAD DUP1 MLOAD SWAP2 PUSH8 0xFFFFFFFFFFFFFFFF DUP4 GT PUSH2 0x811 JUMPI DUP3 GT PUSH2 0x811 JUMPI PUSH1 0x1 DUP5 ADD SLOAD DUP3 PUSH1 0x1 DUP7 ADD SSTORE DUP1 DUP4 LT PUSH2 0x7A8 JUMPI JUMPDEST POP PUSH1 0x20 ADD SWAP1 PUSH1 0x1 DUP5 ADD PUSH1 0x0 MSTORE PUSH1 0x20 PUSH1 0x0 KECCAK256 SWAP1 PUSH1 0x0 JUMPDEST DUP2 PUSH1 0x3 SHR DUP2 LT PUSH2 0x765 JUMPI POP PUSH1 0x7 NOT DUP2 AND DUP2 SUB PUSH2 0x6E8 JUMPI JUMPDEST POP POP POP PUSH1 0x40 PUSH4 0xFFFFFFFF PUSH32 0x4610B24BBFB857173E063B234E3A2475409BF5921C3F541F435EB016C5AAD89F SWAP3 DUP2 DUP4 DUP8 ADD MLOAD SWAP7 DUP8 PUSH1 0x2 DUP9 ADD SSTORE PUSH2 0x6D6 PUSH1 0x4 PUSH1 0x60 DUP4 ADD MLOAD SWAP9 DUP10 PUSH1 0x3 DUP3 ADD SSTORE ADD PUSH2 0x65F PUSH1 0x80 DUP5 ADD MLOAD ISZERO ISZERO DUP3 SWAP1 PUSH1 0xFF DUP1 NOT DUP4 SLOAD AND SWAP2 ISZERO ISZERO AND OR SWAP1 SSTORE JUMP JUMPDEST PUSH1 0xA0 DUP4 ADD MLOAD DUP2 SLOAD PUSH1 0xC0 DUP6 ADD MLOAD PUSH1 0xE0 DUP7 ADD MLOAD PUSH2 0x100 DUP8 ADD MLOAD PUSH1 0x68 SHL PUSH4 0xFFFFFFFF PUSH1 0x68 SHL AND PUSH1 0x48 SWAP2 SWAP1 SWAP2 SHL PUSH4 0xFFFFFFFF PUSH1 0x48 SHL AND PUSH1 0x28 SWAP3 SWAP1 SWAP3 SHL PUSH9 0xFFFFFFFF0000000000 AND SWAP4 DUP9 AND PUSH1 0x8 SHL PUSH5 0xFFFFFFFF00 AND PUSH17 0xFFFFFFFFFFFFFFFFFFFFFFFFFFFFFFFF00 NOT SWAP1 SWAP4 AND SWAP3 SWAP1 SWAP3 OR SWAP3 SWAP1 SWAP3 OR SWAP2 SWAP1 SWAP2 OR OR SWAP1 SSTORE JUMP JUMPDEST MLOAD AND SWAP5 DUP4 MLOAD SWAP7 DUP8 MSTORE PUSH1 0x20 DUP8 ADD MSTORE AND SWAP4 LOG3 STOP JUMPDEST PUSH1 0x0 SWAP3 PUSH1 0x0 JUMPDEST PUSH1 0x7 NOT DUP4 AND DUP4 SUB DUP2 LT PUSH2 0x72F JUMPI POP POP PUSH1 0x3 SHR ADD SSTORE PUSH1 0x40 PUSH4 0xFFFFFFFF PUSH32 0x4610B24BBFB857173E063B234E3A2475409BF5921C3F541F435EB016C5AAD89F PUSH2 0x5F9 JUMP JUMPDEST SWAP1 SWAP4 PUSH1 0x20 PUSH2 0x75C PUSH1 0x1 SWAP3 PUSH4 0xFFFFFFFF DUP9 MLOAD AND SWAP1 DUP6 PUSH1 0x2 SHL PUSH1 0x3 SHL SWAP2 PUSH4 0xFFFFFFFF DUP1 SWAP2 AND DUP4 SHL SWAP3 SHL NOT AND OR SWAP1 JUMP JUMPDEST SWAP6 ADD SWAP2 ADD PUSH2 0x6EE JUMP JUMPDEST PUSH1 0x0 DUP1 JUMPDEST PUSH1 0x8 DUP2 LT PUSH2 0x77E JUMPI POP DUP4 DUP3 ADD SSTORE PUSH1 0x1 ADD PUSH2 0x5E2 JUMP JUMPDEST DUP6 MLOAD SWAP1 SWAP6 SWAP2 PUSH1 0x1 SWAP2 PUSH1 0x20 SWAP2 PUSH4 0xFFFFFFFF PUSH1 0x5 DUP11 SWAP1 SHL DUP2 DUP2 SHL NOT SWAP1 SWAP3 AND SWAP3 AND SWAP1 SHL OR SWAP3 ADD SWAP6 ADD PUSH2 0x769 JUMP JUMPDEST PUSH1 0x1 DUP6 ADD PUSH1 0x0 MSTORE PUSH1 0x20 PUSH1 0x0 KECCAK256 PUSH1 0x1C DUP5 PUSH1 0x2 SHL AND DUP1 PUSH2 0x7EE JUMPI JUMPDEST POP PUSH1 0x7 DUP5 ADD PUSH1 0x3 SHR DUP2 ADD JUMPDEST PUSH1 0x7 DUP4 ADD PUSH1 0x3 SHR DUP3 ADD DUP2 LT PUSH2 0x7E2 JUMPI POP POP PUSH2 0x5CD JUMP JUMPDEST PUSH1 0x0 DUP2 SSTORE PUSH1 0x1 ADD PUSH2 0x7CC JUMP JUMPDEST PUSH1 0x0 NOT SWAP1 DUP2 PUSH1 0x7 DUP8 ADD PUSH1 0x3 SHR DUP5 ADD ADD SWAP2 DUP3 SLOAD SWAP2 PUSH1 0x20 SUB PUSH1 0x3 SHL SHR AND SWAP1 SSTORE DUP8 PUSH2 0x7C1 JUMP JUMPDEST PUSH4 0x4E487B71 PUSH1 0xE0 SHL PUSH1 0x0 MSTORE PUSH1 0x41 PUSH1 0x4 MSTORE PUSH1 0x24 PUSH1 0x0 REVERT JUMPDEST PUSH4 0x4E487B71 PUSH1 0xE0 SHL PUSH1 0x0 MSTORE PUSH1 0x0 PUSH1 0x4 MSTORE PUSH1 0x24 PUSH1 0x0 REVERT JUMPDEST PUSH4 0x4E487B71 PUSH1 0xE0 SHL PUSH1 0x0 MSTORE PUSH1 0x11 PUSH1 0x4 MSTORE PUSH1 0x24 PUSH1 0x0 REVERT JUMPDEST PUSH4 0x4E487B71 PUSH1 0xE0 SHL PUSH1 0x0 MSTORE PUSH1 0x32 PUSH1 0x4 MSTORE PUSH1 0x24 PUSH1 0x0 REVERT JUMPDEST PUSH1 0x40 MLOAD PUSH4 0xECA88737 PUSH1 0xE0 SHL DUP2 MSTORE PUSH1 0x4 SWAP1 REVERT JUMPDEST POP PUSH1 0x0 NOT DUP2 ADD DUP2 DUP2 GT PUSH2 0x83D JUMPI PUSH1 0x4 PUSH2 0x895 PUSH1 0xFF SWAP3 PUSH2 0x17CA JUMP JUMPDEST POP ADD SLOAD AND PUSH2 0x45D JUMP JUMPDEST CALLVALUE PUSH2 0x1A2 JUMPI PUSH1 0x20 CALLDATASIZE PUSH1 0x3 NOT ADD SLT PUSH2 0x1A2 JUMPI PUSH4 0xFFFFFFFF PUSH2 0x8BC PUSH2 0x178E JUMP JUMPDEST AND PUSH1 0x0 MSTORE PUSH1 0x5 PUSH1 0x20 MSTORE PUSH1 0x20 PUSH1 0x40 PUSH1 0x0 KECCAK256 SLOAD PUSH1 0x3 SIGNEXTEND PUSH1 0x40 MLOAD SWAP1 DUP2 MSTORE RETURN JUMPDEST CALLVALUE PUSH2 0x1A2 JUMPI PUSH1 0x0 CALLDATASIZE PUSH1 0x3 NOT ADD SLT PUSH2 0x1A2 JUMPI PUSH2 0x8F1 PUSH2 0x1805 JUMP JUMPDEST PUSH1 0x1 DUP1 SLOAD PUSH1 0x1 PUSH1 0x1 PUSH1 0xA0 SHL SUB NOT DUP2 AND SWAP1 SWAP2 SSTORE PUSH1 0x0 SWAP1 PUSH1 0x1 PUSH1 0x1 PUSH1 0xA0 SHL SUB AND PUSH32 0x8BE0079C531659141344CD1FD0A4F28419497F9722A3DAAFE3B4186F6B6457E0 DUP3 DUP1 LOG3 STOP JUMPDEST CALLVALUE PUSH2 0x1A2 JUMPI PUSH1 0x20 CALLDATASIZE PUSH1 0x3 NOT ADD SLT PUSH2 0x1A2 JUMPI PUSH1 0x4 CALLDATALOAD PUSH1 0xD SLOAD DUP2 LT ISZERO PUSH2 0x1A2 JUMPI PUSH2 0x95F PUSH2 0x100 SWAP2 PUSH2 0x17CA JUMP JUMPDEST POP PUSH4 0xFFFFFFFF SWAP1 DUP2 DUP2 SLOAD AND SWAP2 PUSH1 0x2 DUP3 ADD SLOAD SWAP2 PUSH1 0x4 PUSH1 0x3 DUP3 ADD SLOAD SWAP2 ADD SLOAD SWAP3 PUSH1 0x40 MLOAD SWAP5 DUP6 MSTORE PUSH1 0x20 DUP6 ADD MSTORE PUSH1 0x40 DUP5 ADD MSTORE PUSH1 0xFF DUP3 AND ISZERO ISZERO PUSH1 0x60 DUP5 ADD MSTORE DUP2 PUSH1 0x8 SHR AND PUSH1 0x80 DUP4 ADD MSTORE DUP1 PUSH1 0x28 SHR PUSH1 0x3 SIGNEXTEND PUSH1 0xA0 DUP4 ADD MSTORE DUP1 PUSH1 0x48 SHR PUSH1 0x3 SIGNEXTEND PUSH1 0xC0 DUP4 ADD MSTORE PUSH1 0x68 SHR PUSH1 0x3 SIGNEXTEND PUSH1 0xE0 DUP3 ADD MSTORE RETURN JUMPDEST CALLVALUE PUSH2 0x1A2 JUMPI PUSH1 0x40 CALLDATASIZE PUSH1 0x3 NOT ADD SLT PUSH2 0x1A2 JUMPI PUSH2 0x9DF PUSH2 0x178E JUMP JUMPDEST PUSH2 0x9E7 PUSH2 0x17A1 JUMP JUMPDEST PUSH1 0xD SLOAD SWAP1 PUSH4 0xFFFFFFFF SWAP3 DUP4 DUP2 AND SWAP3 DUP4 LT ISZERO PUSH2 0xA91 JUMPI PUSH2 0xA05 DUP2 PUSH2 0x17CA JUMP JUMPDEST POP PUSH1 0x3 DUP2 ADD SLOAD TIMESTAMP GT SWAP1 DUP2 ISZERO PUSH2 0xAA3 JUMPI JUMPDEST POP PUSH2 0xA91 JUMPI PUSH2 0xA25 PUSH1 0x1 SWAP2 PUSH2 0x17CA JUMP JUMPDEST POP ADD DUP1 SLOAD SWAP1 PUSH1 0x1 PUSH1 0x40 SHL DUP3 LT ISZERO PUSH2 0x811 JUMPI DUP2 PUSH2 0xA49 SWAP2 PUSH1 0x1 PUSH2 0xA68 SWAP5 ADD DUP2 SSTORE PUSH2 0x18F1 JUMP JUMPDEST SWAP5 SWAP1 SWAP3 AND DUP1 SWAP5 DUP4 SLOAD SWAP1 PUSH1 0x3 SHL SWAP2 PUSH4 0xFFFFFFFF DUP1 SWAP2 AND DUP4 SHL SWAP3 SHL NOT AND OR SWAP1 JUMP JUMPDEST SWAP1 SSTORE PUSH32 0x2497EDD456DA400FDF8E24A5943FAEBBA37FC1A396BE5FF9EF6105AEDE63E26B PUSH1 0x0 DUP1 LOG3 STOP JUMPDEST PUSH1 0x40 MLOAD PUSH4 0x87448985 PUSH1 0xE0 SHL DUP2 MSTORE PUSH1 0x4 SWAP1 REVERT JUMPDEST PUSH1 0xFF SWAP2 POP PUSH1 0x4 ADD SLOAD AND ISZERO DUP6 PUSH2 0xA15 JUMP JUMPDEST CALLVALUE PUSH2 0x1A2 JUMPI PUSH1 0x20 CALLDATASIZE PUSH1 0x3 NOT ADD SLT PUSH2 0x1A2 JUMPI PUSH1 0x1 PUSH1 0x1 PUSH1 0xA0 SHL SUB PUSH2 0xAD4 PUSH2 0x17B4 JUMP JUMPDEST AND PUSH1 0x0 MSTORE PUSH1 0x4 PUSH1 0x20 MSTORE PUSH1 0x20 PUSH4 0xFFFFFFFF PUSH1 0x40 PUSH1 0x0 KECCAK256 SLOAD AND ISZERO ISZERO PUSH1 0x40 MLOAD SWAP1 DUP2 MSTORE RETURN JUMPDEST CALLVALUE PUSH2 0x1A2 JUMPI PUSH1 0x20 CALLDATASIZE PUSH1 0x3 NOT ADD SLT PUSH2 0x1A2 JUMPI PUSH1 0x1 PUSH1 0x1 PUSH1 0xA0 SHL SUB PUSH2 0xB16 PUSH2 0x17B4 JUMP JUMPDEST AND PUSH1 0x0 MSTORE PUSH1 0x2 PUSH1 0x20 MSTORE PUSH1 0x20 PUSH1 0xFF PUSH1 0x40 PUSH1 0x0 KECCAK256 SLOAD AND PUSH1 0x40 MLOAD SWAP1 ISZERO ISZERO DUP2 MSTORE RETURN JUMPDEST CALLVALUE PUSH2 0x1A2 JUMPI PUSH1 0x60 CALLDATASIZE PUSH1 0x3 NOT ADD SLT PUSH2 0x1A2 JUMPI PUSH2 0xB4D PUSH2 0x178E JUMP JUMPDEST PUSH1 0x24 DUP1 CALLDATALOAD SWAP2 PUSH1 0x3 SWAP1 DUP4 DUP3 SIGNEXTEND SWAP2 DUP3 DUP6 SUB PUSH2 0x1A2 JUMPI PUSH1 0x44 CALLDATALOAD SWAP2 DUP3 ISZERO ISZERO SWAP2 DUP3 DUP5 SUB PUSH2 0x1A2 JUMPI CALLER PUSH1 0x0 MSTORE PUSH1 0x20 SWAP2 PUSH1 0x2 DUP4 MSTORE PUSH1 0xFF PUSH1 0x40 PUSH1 0x0 KECCAK256 SLOAD AND ISZERO PUSH2 0xE38 JUMPI PUSH4 0xFFFFFFFF DUP1 SWAP2 AND SWAP8 DUP9 PUSH1 0x0 MSTORE PUSH1 0x5 DUP5 MSTORE PUSH1 0x40 PUSH1 0x0 KECCAK256 SLOAD DUP4 SIGNEXTEND SWAP6 PUSH1 0x0 EQ PUSH2 0xE29 JUMPI PUSH2 0xBB3 SWAP1 DUP7 PUSH2 0x187C JUMP JUMPDEST PUSH1 0x0 DUP7 SGT SWAP6 DUP7 ISZERO PUSH2 0xE20 JUMPI SWAP3 JUMPDEST DUP2 DUP2 SIGNEXTEND SWAP7 PUSH2 0xBDA PUSH1 0x0 DUP10 SGT SWAP6 DUP7 PUSH1 0x0 EQ PUSH2 0xE19 JUMPI DUP5 PUSH2 0x185D JUMP JUMPDEST SWAP5 PUSH2 0xBEA PUSH1 0x6 SLOAD SWAP7 DUP8 DUP6 SIGNEXTEND PUSH2 0x187C JUMP JUMPDEST DUP6 AND PUSH4 0xFFFFFFFF NOT DUP1 SWAP8 AND OR PUSH1 0x6 SSTORE DUP2 ISZERO DUP1 PUSH2 0xE12 JUMPI JUMPDEST ISZERO PUSH2 0xCC4 JUMPI POP POP POP SWAP1 SWAP2 SWAP3 SWAP4 SWAP5 SWAP6 SWAP7 DUP9 PUSH1 0x0 MSTORE PUSH1 0x7 DUP6 MSTORE PUSH1 0x40 PUSH1 0x0 KECCAK256 PUSH1 0x1 PUSH1 0xFF NOT DUP3 SLOAD AND OR SWAP1 SSTORE PUSH1 0x8 SLOAD SWAP1 PUSH1 0x1 PUSH1 0x40 SHL DUP3 LT ISZERO PUSH2 0xCB0 JUMPI POP SWAP2 PUSH1 0x0 DUP1 MLOAD PUSH1 0x20 PUSH2 0x1C2A DUP4 CODECOPY DUP2 MLOAD SWAP2 MSTORE SWAP8 SWAP6 SWAP4 SWAP2 DUP10 PUSH2 0xC80 PUSH2 0xC65 DUP7 PUSH1 0x1 PUSH1 0x80 SWAP13 SWAP11 SWAP9 ADD PUSH1 0x8 SSTORE PUSH2 0x18B1 JUMP JUMPDEST DUP2 SWAP4 SWAP2 SLOAD SWAP1 PUSH1 0x3 SHL SWAP2 PUSH4 0xFFFFFFFF DUP1 SWAP2 AND DUP4 SHL SWAP3 SHL NOT AND OR SWAP1 JUMP JUMPDEST SWAP1 SSTORE JUMPDEST DUP10 PUSH1 0x0 MSTORE PUSH1 0x5 DUP5 MSTORE PUSH1 0x40 PUSH1 0x0 KECCAK256 SWAP3 DUP4 SLOAD AND SWAP2 AND OR SWAP1 SSTORE PUSH1 0x40 MLOAD SWAP4 DUP5 MSTORE DUP4 ADD MSTORE PUSH1 0x40 DUP3 ADD MSTORE TIMESTAMP PUSH1 0x60 DUP3 ADD MSTORE LOG2 STOP JUMPDEST PUSH4 0x4E487B71 PUSH1 0xE0 SHL PUSH1 0x0 SWAP1 DUP2 MSTORE PUSH1 0x41 PUSH1 0x4 MSTORE REVERT JUMPDEST DUP2 PUSH2 0xE09 JUMPI JUMPDEST POP PUSH2 0xCF0 JUMPI JUMPDEST POP PUSH1 0x0 DUP1 MLOAD PUSH1 0x20 PUSH2 0x1C2A DUP4 CODECOPY DUP2 MLOAD SWAP2 MSTORE SWAP8 POP SWAP1 PUSH1 0x80 SWAP7 SWAP6 SWAP5 SWAP4 SWAP3 SWAP2 PUSH2 0xC83 JUMP JUMPDEST PUSH1 0x0 DUP11 DUP2 MSTORE PUSH1 0x7 DUP7 MSTORE PUSH1 0x40 DUP2 KECCAK256 DUP1 SLOAD PUSH1 0xFF NOT AND SWAP1 SSTORE JUMPDEST PUSH1 0x8 DUP1 SLOAD DUP1 DUP4 LT ISZERO PUSH2 0xDE6 JUMPI DUP13 DUP7 PUSH2 0xD1D DUP6 PUSH2 0x18B1 JUMP JUMPDEST SWAP1 SLOAD SWAP1 DUP8 SHL SHR AND EQ PUSH2 0xD39 JUMPI POP POP PUSH2 0xD34 SWAP1 PUSH2 0x1914 JUMP JUMPDEST PUSH2 0xD06 JUMP JUMPDEST SWAP2 PUSH1 0x0 SWAP12 SWAP2 SWAP4 SWAP5 SWAP6 SWAP7 SWAP8 SWAP9 SWAP10 SWAP11 SWAP12 NOT SWAP3 DUP4 DUP2 ADD SWAP1 DUP2 GT PUSH2 0xDD1 JUMPI PUSH2 0xC65 DUP9 PUSH2 0xD63 PUSH2 0xD70 SWAP4 PUSH2 0x18B1 JUMP JUMPDEST SWAP1 SLOAD SWAP1 DUP10 SHL SHR AND SWAP3 PUSH2 0x18B1 JUMP JUMPDEST SWAP1 SSTORE DUP3 SLOAD SWAP1 DUP2 ISZERO PUSH2 0xDBD JUMPI POP SWAP2 DUP6 PUSH1 0x80 SWAP11 SWAP9 SWAP7 SWAP5 SWAP3 PUSH1 0x0 DUP1 MLOAD PUSH1 0x20 PUSH2 0x1C2A DUP4 CODECOPY DUP2 MLOAD SWAP2 MSTORE SWAP13 SWAP11 SWAP9 SWAP7 SWAP5 ADD SWAP3 PUSH2 0xDA4 DUP5 PUSH2 0x18B1 JUMP JUMPDEST DUP2 SWAP4 SWAP2 SLOAD SWAP3 SHL SHL NOT AND SWAP1 SSTORE SSTORE JUMPDEST SWAP1 SWAP2 SWAP3 SWAP4 SWAP5 SWAP6 SWAP7 PUSH2 0xCD0 JUMP JUMPDEST PUSH4 0x4E487B71 PUSH1 0xE0 SHL PUSH1 0x0 SWAP1 DUP2 MSTORE PUSH1 0x31 PUSH1 0x4 MSTORE REVERT JUMPDEST DUP3 PUSH4 0x4E487B71 PUSH1 0xE0 SHL PUSH1 0x0 MSTORE PUSH1 0x11 PUSH1 0x4 MSTORE PUSH1 0x0 REVERT JUMPDEST POP POP POP POP PUSH1 0x0 DUP1 MLOAD PUSH1 0x20 PUSH2 0x1C2A DUP4 CODECOPY DUP2 MLOAD SWAP2 MSTORE SWAP8 POP SWAP1 PUSH1 0x80 SWAP7 SWAP6 SWAP5 SWAP4 SWAP3 SWAP2 PUSH2 0xDB1 JUMP JUMPDEST SWAP1 POP ISZERO DUP12 PUSH2 0xCCA JUMP JUMPDEST POP DUP1 PUSH2 0xC01 JUMP JUMPDEST PUSH1 0x0 PUSH2 0x185D JUMP JUMPDEST POP PUSH1 0x0 SWAP3 PUSH2 0xBC0 JUMP JUMPDEST PUSH2 0xE33 SWAP1 DUP7 PUSH2 0x185D JUMP JUMPDEST PUSH2 0xBB3 JUMP JUMPDEST PUSH1 0x40 MLOAD PUSH4 0x5C427CD9 PUSH1 0xE0 SHL DUP2 MSTORE PUSH1 0x4 SWAP1 REVERT JUMPDEST CALLVALUE PUSH2 0x1A2 JUMPI PUSH1 0x0 CALLDATASIZE PUSH1 0x3 NOT ADD SLT PUSH2 0x1A2 JUMPI PUSH1 0x20 PUSH1 0x40 MLOAD PUSH1 0x1 DUP2 MSTORE RETURN JUMPDEST CALLVALUE PUSH2 0x1A2 JUMPI PUSH1 0x20 DUP1 PUSH1 0x3 NOT CALLDATASIZE ADD SLT PUSH2 0x1A2 JUMPI PUSH2 0xE80 PUSH2 0x178E JUMP JUMPDEST SWAP1 PUSH1 0xD SLOAD PUSH4 0xFFFFFFFF SWAP3 DUP4 DUP2 AND SWAP2 DUP3 LT ISZERO PUSH2 0xA91 JUMPI PUSH2 0xEA6 SWAP1 PUSH2 0xEA1 PUSH2 0x1805 JUMP JUMPDEST PUSH2 0x17CA JUMP JUMPDEST POP SWAP2 PUSH1 0x4 DUP4 ADD SWAP4 DUP5 SLOAD SWAP4 PUSH1 0xFF DUP6 AND ISZERO PUSH2 0xA91 JUMPI PUSH1 0x1 ADD SWAP5 DUP6 SLOAD SWAP1 DUP2 ISZERO PUSH2 0xFDF JUMPI PUSH1 0xFF NOT SWAP6 DUP7 AND DUP2 SSTORE DUP3 PUSH2 0xED8 DUP9 PUSH2 0x189C JUMP JUMPDEST SWAP5 SWAP1 SLOAD PUSH1 0x3 SWAP6 DUP7 SHL SHR AND SWAP1 DUP2 PUSH1 0x0 MSTORE PUSH1 0xA SWAP4 DUP5 DUP8 MSTORE PUSH1 0x40 PUSH1 0x0 KECCAK256 SLOAD DUP7 SIGNEXTEND SWAP5 PUSH1 0x1 JUMPDEST DUP3 DUP2 LT PUSH2 0xF95 JUMPI POP POP POP SWAP3 DUP1 SWAP3 PUSH2 0xF67 DUP4 PUSH32 0x2B056A7F2AE4DFEC88DC5458429E82A178C97E5019B817058AE7DCD455DA9E85 SWAP9 SWAP8 SWAP7 PUSH2 0xF8B SWAP6 AND SWAP11 DUP12 PUSH1 0x0 MSTORE PUSH1 0x9 DUP10 MSTORE PUSH1 0x1 PUSH1 0x40 PUSH1 0x0 KECCAK256 SWAP2 DUP3 SLOAD AND OR SWAP1 SSTORE DUP3 SWAP1 PUSH5 0xFFFFFFFF00 DUP3 SLOAD SWAP2 PUSH1 0x8 SHL AND SWAP1 PUSH5 0xFFFFFFFF00 NOT AND OR SWAP1 SSTORE JUMP JUMPDEST SWAP1 DUP2 SLOAD SWAP1 PUSH1 0x28 SHL PUSH9 0xFFFFFFFF0000000000 AND SWAP1 PUSH9 0xFFFFFFFF0000000000 NOT AND OR SWAP1 SSTORE JUMP JUMPDEST PUSH1 0x40 MLOAD SWAP2 SIGNEXTEND DUP2 MSTORE LOG3 STOP JUMPDEST DUP4 PUSH2 0xFA0 DUP3 DUP15 PUSH2 0x18F1 JUMP JUMPDEST SWAP1 SLOAD SWAP1 DUP11 SHL SHR AND DUP1 PUSH1 0x0 MSTORE DUP3 DUP11 MSTORE PUSH1 0x40 PUSH1 0x0 KECCAK256 SLOAD DUP10 SIGNEXTEND SWAP1 DUP9 DUP11 SIGNEXTEND DUP3 SGT PUSH2 0xFD1 JUMPI JUMPDEST POP POP PUSH2 0xFCC SWAP1 PUSH2 0x1914 JUMP JUMPDEST PUSH2 0xEF9 JUMP JUMPDEST SWAP1 SWAP8 POP SWAP5 POP PUSH2 0xFCC DUP14 PUSH2 0xFC1 JUMP JUMPDEST PUSH1 0x40 MLOAD PUSH4 0x39410641 PUSH1 0xE2 SHL DUP2 MSTORE PUSH1 0x4 SWAP1 REVERT JUMPDEST CALLVALUE PUSH2 0x1A2 JUMPI PUSH1 0x40 CALLDATASIZE PUSH1 0x3 NOT ADD SLT PUSH2 0x1A2 JUMPI PUSH2 0x100A PUSH2 0x17B4 JUMP JUMPDEST PUSH1 0x24 CALLDATALOAD SWAP1 DUP2 ISZERO ISZERO SWAP1 DUP2 DUP4 SUB PUSH2 0x1A2 JUMPI PUSH32 0xAD857FA38C9319CB80848F1EF2F924383B90297EB5D71755738FF037D100FAA1 SWAP2 PUSH2 0x1070 PUSH1 0x20 SWAP3 PUSH2 0x1049 PUSH2 0x1805 JUMP JUMPDEST PUSH1 0x1 DUP1 PUSH1 0xA0 SHL SUB AND SWAP5 DUP6 PUSH1 0x0 MSTORE PUSH1 0x2 DUP5 MSTORE PUSH1 0x40 PUSH1 0x0 KECCAK256 SWAP1 PUSH1 0xFF DUP1 NOT DUP4 SLOAD AND SWAP2 ISZERO ISZERO AND OR SWAP1 SSTORE JUMP JUMPDEST PUSH1 0x40 MLOAD SWAP1 DUP2 MSTORE LOG2 STOP JUMPDEST CALLVALUE PUSH2 0x1A2 JUMPI PUSH1 0x20 CALLDATASIZE PUSH1 0x3 NOT ADD SLT PUSH2 0x1A2 JUMPI PUSH2 0x1092 PUSH2 0x178E JUMP JUMPDEST PUSH1 0xD SLOAD PUSH4 0xFFFFFFFF SWAP1 DUP2 DUP4 AND LT ISZERO PUSH2 0xA91 JUMPI DUP1 PUSH2 0x10B0 PUSH1 0xA0 SWAP4 PUSH2 0x1BCB JUMP JUMPDEST SWAP5 SWAP4 SWAP6 SWAP1 SWAP3 PUSH1 0x40 MLOAD SWAP7 ISZERO ISZERO DUP8 MSTORE AND PUSH1 0x20 DUP7 ADD MSTORE PUSH1 0x3 SIGNEXTEND PUSH1 0x40 DUP6 ADD MSTORE AND PUSH1 0x60 DUP4 ADD MSTORE PUSH1 0x3 SIGNEXTEND PUSH1 0x80 DUP3 ADD MSTORE RETURN JUMPDEST CALLVALUE PUSH2 0x1A2 JUMPI PUSH1 0x60 CALLDATASIZE PUSH1 0x3 NOT ADD SLT PUSH2 0x1A2 JUMPI PUSH2 0x10F4 PUSH2 0x178E JUMP JUMPDEST PUSH2 0x10FC PUSH2 0x17A1 JUMP JUMPDEST PUSH1 0x44 CALLDATALOAD SWAP2 PUSH4 0xFFFFFFFF SWAP3 DUP4 DUP2 AND DUP1 SWAP2 SUB PUSH2 0x1A2 JUMPI DUP1 ISZERO DUP1 ISZERO PUSH2 0x1361 JUMPI JUMPDEST PUSH2 0x134F JUMPI PUSH1 0xD SLOAD SWAP3 DUP5 DUP4 AND SWAP4 DUP5 LT ISZERO PUSH2 0xA91 JUMPI PUSH2 0x1135 DUP4 PUSH2 0x17CA JUMP JUMPDEST POP SWAP4 PUSH1 0x3 SWAP5 DUP6 DUP2 ADD SLOAD TIMESTAMP GT SWAP1 DUP2 ISZERO PUSH2 0x133F JUMPI JUMPDEST POP PUSH2 0xA91 JUMPI PUSH2 0x1156 DUP5 PUSH2 0x17CA JUMP JUMPDEST POP SWAP6 DUP2 PUSH1 0x0 MSTORE PUSH1 0x20 PUSH1 0xB DUP2 MSTORE PUSH1 0x40 PUSH1 0x0 KECCAK256 DUP6 PUSH1 0x0 MSTORE DUP2 MSTORE PUSH1 0xFF PUSH1 0x40 PUSH1 0x0 KECCAK256 SLOAD AND PUSH2 0x132E JUMPI PUSH1 0x0 SWAP7 PUSH1 0x0 SWAP5 PUSH1 0x1 SWAP1 DUP2 DUP12 ADD DUP6 DUP2 SLOAD SWAP3 AND SWAP8 JUMPDEST DUP3 DUP2 LT PUSH2 0x12F7 JUMPI JUMPDEST POP POP POP SWAP1 SWAP2 SWAP3 SWAP4 SWAP5 SWAP6 SWAP7 SWAP8 ISZERO PUSH2 0x12E5 JUMPI PUSH2 0x129A SWAP9 PUSH32 0x1918CD6E2704E854C925442CA2CAA9EF7187126224A112077220E8316519D66 SWAP5 DUP9 PUSH1 0x0 MSTORE PUSH1 0x5 DUP6 MSTORE PUSH1 0x40 PUSH1 0x0 KECCAK256 SLOAD DUP5 SIGNEXTEND SWAP3 PUSH1 0x0 DUP5 SLT PUSH2 0x12DC JUMPI JUMPDEST SWAP2 PUSH1 0x4 SWAP2 PUSH2 0x1268 SWAP4 DUP10 PUSH1 0x0 MSTORE PUSH1 0xB DUP9 MSTORE PUSH1 0x40 PUSH1 0x0 KECCAK256 DUP13 PUSH1 0x0 MSTORE DUP9 MSTORE PUSH1 0x40 PUSH1 0x0 KECCAK256 SWAP1 PUSH1 0xFF NOT DUP3 SLOAD AND OR SWAP1 SSTORE DUP10 PUSH1 0x0 MSTORE PUSH1 0xA DUP8 MSTORE PUSH1 0x40 PUSH1 0x0 KECCAK256 SWAP1 DUP2 SLOAD SWAP1 PUSH2 0x122C DUP8 DUP4 DUP11 SIGNEXTEND PUSH2 0x187C JUMP JUMPDEST AND SWAP1 PUSH4 0xFFFFFFFF NOT AND OR SWAP1 SSTORE ADD PUSH2 0x1249 DUP4 DUP3 SLOAD PUSH1 0x48 SHR DUP7 SIGNEXTEND PUSH2 0x187C JUMP JUMPDEST DUP2 SLOAD SWAP1 PUSH1 0x48 SHL PUSH4 0xFFFFFFFF PUSH1 0x48 SHL AND SWAP1 PUSH4 0xFFFFFFFF PUSH1 0x48 SHL NOT AND OR SWAP1 SSTORE JUMP JUMPDEST PUSH2 0x1271 DUP9 PUSH2 0x17CA JUMP JUMPDEST POP DUP8 PUSH1 0x0 MSTORE PUSH1 0x5 DUP5 MSTORE PUSH1 0x40 PUSH1 0x0 KECCAK256 SLOAD DUP4 SIGNEXTEND PUSH1 0x0 DUP2 SGT PUSH2 0x129C JUMPI JUMPDEST POP POP PUSH1 0x40 MLOAD SWAP2 SIGNEXTEND DUP2 MSTORE LOG4 PUSH2 0x19BD JUMP JUMPDEST STOP JUMPDEST PUSH2 0x12B3 PUSH1 0x4 PUSH2 0x12D5 SWAP4 ADD SWAP2 DUP3 SLOAD PUSH1 0x68 SHR DUP7 SIGNEXTEND PUSH2 0x185D JUMP JUMPDEST DUP2 SLOAD PUSH1 0x68 SWAP2 SWAP1 SWAP2 SHL PUSH4 0xFFFFFFFF PUSH1 0x68 SHL AND PUSH4 0xFFFFFFFF PUSH1 0x68 SHL NOT SWAP1 SWAP2 AND OR SWAP1 SSTORE JUMP JUMPDEST DUP10 DUP1 PUSH2 0x128B JUMP JUMPDEST PUSH1 0x0 SWAP4 POP PUSH2 0x11E5 JUMP JUMPDEST PUSH1 0x40 MLOAD PUSH4 0xE66EA08F PUSH1 0xE0 SHL DUP2 MSTORE PUSH1 0x4 SWAP1 REVERT JUMPDEST DUP9 DUP8 PUSH2 0x1303 DUP4 DUP6 PUSH2 0x18F1 JUMP JUMPDEST SWAP1 SLOAD SWAP1 DUP9 SHL SHR AND EQ PUSH2 0x131D JUMPI PUSH2 0x1318 SWAP1 PUSH2 0x1914 JUMP JUMPDEST PUSH2 0x118D JUMP JUMPDEST POP SWAP2 SWAP10 POP DUP10 SWAP2 POP DUP12 SWAP1 POP DUP1 DUP1 PUSH2 0x1195 JUMP JUMPDEST PUSH1 0x40 MLOAD PUSH3 0xB14D3B PUSH1 0xE6 SHL DUP2 MSTORE PUSH1 0x4 SWAP1 REVERT JUMPDEST PUSH1 0xFF SWAP2 POP PUSH1 0x4 ADD SLOAD AND ISZERO DUP8 PUSH2 0x1148 JUMP JUMPDEST PUSH1 0x40 MLOAD PUSH4 0xCFF23E7 PUSH1 0xE0 SHL DUP2 MSTORE PUSH1 0x4 SWAP1 REVERT JUMPDEST POP DUP1 PUSH1 0x0 MSTORE PUSH1 0x3 PUSH1 0x20 MSTORE PUSH1 0x40 PUSH1 0x0 KECCAK256 CALLER PUSH1 0x0 MSTORE PUSH1 0x20 MSTORE PUSH1 0xFF PUSH1 0x40 PUSH1 0x0 KECCAK256 SLOAD AND ISZERO PUSH2 0x1119 JUMP JUMPDEST CALLVALUE PUSH2 0x1A2 JUMPI PUSH1 0x20 CALLDATASIZE PUSH1 0x3 NOT ADD SLT PUSH2 0x1A2 JUMPI PUSH2 0x139F PUSH2 0x178E JUMP JUMPDEST PUSH1 0xD SLOAD PUSH4 0xFFFFFFFF DUP3 AND LT ISZERO PUSH2 0xA91 JUMPI PUSH2 0x13B8 SWAP1 PUSH2 0x17CA JUMP JUMPDEST POP PUSH4 0xFFFFFFFF DUP2 SLOAD AND SWAP1 PUSH1 0x2 DUP2 ADD SLOAD SWAP1 PUSH1 0x3 DUP2 ADD SLOAD PUSH1 0x4 DUP3 ADD SLOAD SWAP1 PUSH1 0x40 MLOAD SWAP4 DUP5 PUSH1 0x20 PUSH1 0x1 DUP7 ADD SLOAD SWAP2 DUP3 DUP2 MSTORE ADD SWAP1 PUSH1 0x1 DUP3 SWAP7 ADD PUSH1 0x0 MSTORE PUSH1 0x20 PUSH1 0x0 KECCAK256 SWAP1 PUSH1 0x0 SWAP2 JUMPDEST DUP2 PUSH1 0x7 DUP5 ADD LT PUSH2 0x15AB JUMPI SLOAD SWAP2 DUP2 DUP2 LT PUSH2 0x1594 JUMPI JUMPDEST DUP2 DUP2 LT PUSH2 0x157B JUMPI JUMPDEST DUP2 DUP2 LT PUSH2 0x1561 JUMPI JUMPDEST DUP2 DUP2 LT PUSH2 0x1547 JUMPI JUMPDEST DUP2 DUP2 LT PUSH2 0x152D JUMPI JUMPDEST DUP2 DUP2 LT PUSH2 0x1513 JUMPI JUMPDEST DUP2 DUP2 LT PUSH2 0x14F9 JUMPI JUMPDEST LT PUSH2 0x14EB JUMPI JUMPDEST POP DUP6 SWAP1 SUB PUSH1 0x1F ADD PUSH1 0x1F NOT AND DUP6 ADD SWAP5 PUSH8 0xFFFFFFFFFFFFFFFF DUP7 GT DUP2 DUP8 LT OR PUSH2 0x811 JUMPI DUP6 PUSH1 0x40 MSTORE PUSH2 0x100 DUP1 DUP8 ADD SWAP8 DUP8 MSTORE PUSH1 0x20 DUP8 ADD MSTORE MLOAD DUP1 SWAP7 MSTORE PUSH2 0x120 DUP6 ADD SWAP4 PUSH1 0x0 SWAP7 JUMPDEST DUP1 DUP9 LT PUSH2 0x14CD JUMPI POP POP DUP5 SWAP6 POP PUSH1 0x40 DUP6 ADD MSTORE PUSH1 0x60 DUP5 ADD MSTORE PUSH1 0xFF DUP2 AND ISZERO ISZERO PUSH1 0x80 DUP5 ADD MSTORE PUSH4 0xFFFFFFFF DUP2 PUSH1 0x8 SHR AND PUSH1 0xA0 DUP5 ADD MSTORE DUP1 PUSH1 0x28 SHR PUSH1 0x3 SIGNEXTEND PUSH1 0xC0 DUP5 ADD MSTORE PUSH1 0x48 SHR PUSH1 0x3 SIGNEXTEND PUSH1 0xE0 DUP4 ADD MSTORE SUB SWAP1 RETURN JUMPDEST SWAP1 SWAP5 PUSH1 0x20 DUP1 PUSH1 0x1 SWAP3 PUSH4 0xFFFFFFFF DUP10 MLOAD AND DUP2 MSTORE ADD SWAP7 ADD SWAP8 ADD SWAP7 SWAP1 PUSH2 0x1482 JUMP JUMPDEST PUSH1 0xE0 SHR DUP2 MSTORE PUSH1 0x20 ADD DUP8 PUSH2 0x1441 JUMP JUMPDEST SWAP3 PUSH1 0x20 PUSH1 0x1 SWAP2 PUSH4 0xFFFFFFFF DUP6 PUSH1 0xC0 SHR AND DUP2 MSTORE ADD SWAP4 ADD PUSH2 0x143B JUMP JUMPDEST SWAP3 PUSH1 0x20 PUSH1 0x1 SWAP2 PUSH4 0xFFFFFFFF DUP6 PUSH1 0xA0 SHR AND DUP2 MSTORE ADD SWAP4 ADD PUSH2 0x1433 JUMP JUMPDEST SWAP3 PUSH1 0x20 PUSH1 0x1 SWAP2 PUSH4 0xFFFFFFFF DUP6 PUSH1 0x80 SHR AND DUP2 MSTORE ADD SWAP4 ADD PUSH2 0x142B JUMP JUMPDEST SWAP3 PUSH1 0x20 PUSH1 0x1 SWAP2 PUSH4 0xFFFFFFFF DUP6 PUSH1 0x60 SHR AND DUP2 MSTORE ADD SWAP4 ADD PUSH2 0x1423 JUMP JUMPDEST SWAP3 PUSH1 0x20 PUSH1 0x1 SWAP2 PUSH4 0xFFFFFFFF DUP6 PUSH1 0x40 SHR AND DUP2 MSTORE ADD SWAP4 ADD PUSH2 0x141B JUMP JUMPDEST SWAP3 PUSH1 0x20 PUSH1 0x1 SWAP2 PUSH4 0xFFFFFFFF DUP6 DUP4 SHR AND DUP2 MSTORE ADD SWAP4 ADD PUSH2 0x1413 JUMP JUMPDEST SWAP3 PUSH1 0x20 PUSH1 0x1 SWAP2 PUSH4 0xFFFFFFFF DUP6 AND DUP2 MSTORE ADD SWAP4 ADD PUSH2 0x140B JUMP JUMPDEST SWAP3 PUSH1 0x1 PUSH2 0x100 PUSH1 0x8 SWAP3 DUP7 SLOAD PUSH4 0xFFFFFFFF DUP2 AND DUP3 MSTORE PUSH4 0xFFFFFFFF DUP2 PUSH1 0x20 SHR AND PUSH1 0x20 DUP4 ADD MSTORE PUSH4 0xFFFFFFFF DUP2 PUSH1 0x40 SHR AND PUSH1 0x40 DUP4 ADD MSTORE PUSH1 0x60 PUSH4 0xFFFFFFFF DUP3 DUP3 SHR AND SWAP1 DUP4 ADD MSTORE PUSH1 0x80 PUSH4 0xFFFFFFFF DUP3 DUP3 SHR AND SWAP1 DUP4 ADD MSTORE PUSH1 0xA0 PUSH4 0xFFFFFFFF DUP3 DUP3 SHR AND SWAP1 DUP4 ADD MSTORE PUSH1 0xC0 PUSH4 0xFFFFFFFF DUP3 DUP3 SHR AND SWAP1 DUP4 ADD MSTORE PUSH1 0xE0 SHR PUSH1 0xE0 DUP3 ADD MSTORE ADD SWAP5 ADD SWAP3 ADD SWAP2 PUSH2 0x13F7 JUMP JUMPDEST CALLVALUE PUSH2 0x1A2 JUMPI PUSH1 0x0 CALLDATASIZE PUSH1 0x3 NOT ADD SLT PUSH2 0x1A2 JUMPI PUSH1 0x20 PUSH4 0xFFFFFFFF PUSH1 0x8 SLOAD AND PUSH1 0x40 MLOAD SWAP1 DUP2 MSTORE RETURN JUMPDEST CALLVALUE PUSH2 0x1A2 JUMPI PUSH1 0x40 CALLDATASIZE PUSH1 0x3 NOT ADD SLT PUSH2 0x1A2 JUMPI PUSH2 0x1669 PUSH2 0x178E JUMP JUMPDEST PUSH1 0x24 CALLDATALOAD PUSH1 0x1 PUSH1 0x1 PUSH1 0xA0 SHL SUB DUP2 AND SWAP2 SWAP1 DUP3 SWAP1 SUB PUSH2 0x1A2 JUMPI PUSH4 0xFFFFFFFF DUP1 SWAP2 AND SWAP1 DUP2 ISZERO DUP1 ISZERO PUSH2 0x176B JUMPI JUMPDEST PUSH2 0x134F JUMPI DUP2 PUSH1 0x0 MSTORE PUSH1 0x20 SWAP1 PUSH1 0x3 DUP3 MSTORE PUSH1 0x40 PUSH1 0x0 KECCAK256 DUP5 PUSH1 0x0 MSTORE DUP3 MSTORE PUSH1 0xFF PUSH1 0x40 PUSH1 0x0 KECCAK256 SLOAD AND PUSH2 0x1759 JUMPI DUP4 PUSH1 0x0 MSTORE PUSH1 0x4 DUP3 MSTORE PUSH1 0x40 PUSH1 0x0 KECCAK256 SLOAD AND DUP3 DUP2 ISZERO ISZERO SWAP2 DUP3 PUSH2 0x174E JUMPI JUMPDEST POP POP PUSH2 0x173C JUMPI PUSH32 0x605181A3CCA1307AE9B2DF54D6592DDF8F82C3570C6938F36D61CD23B6B57A8D SWAP1 DUP3 PUSH1 0x0 MSTORE PUSH1 0x3 DUP2 MSTORE PUSH1 0x40 PUSH1 0x0 KECCAK256 DUP5 PUSH1 0x0 MSTORE DUP2 MSTORE PUSH1 0x40 PUSH1 0x0 KECCAK256 PUSH1 0x1 PUSH1 0xFF NOT DUP3 SLOAD AND OR SWAP1 SSTORE PUSH1 0x4 DUP2 MSTORE PUSH1 0x40 PUSH1 0x0 KECCAK256 DUP4 PUSH4 0xFFFFFFFF NOT DUP3 SLOAD AND OR SWAP1 SSTORE PUSH1 0x40 MLOAD TIMESTAMP DUP2 MSTORE LOG3 STOP JUMPDEST PUSH1 0x40 MLOAD PUSH4 0x19A52A59 PUSH1 0xE3 SHL DUP2 MSTORE PUSH1 0x4 SWAP1 REVERT JUMPDEST EQ ISZERO SWAP1 POP DUP3 DUP6 PUSH2 0x16D2 JUMP JUMPDEST PUSH1 0x40 MLOAD PUSH4 0x77030A87 PUSH1 0xE1 SHL DUP2 MSTORE PUSH1 0x4 SWAP1 REVERT JUMPDEST POP DUP3 ISZERO PUSH2 0x1691 JUMP JUMPDEST CALLVALUE PUSH2 0x1A2 JUMPI PUSH1 0x0 CALLDATASIZE PUSH1 0x3 NOT ADD SLT PUSH2 0x1A2 JUMPI PUSH1 0x20 PUSH2 0x197 PUSH2 0x196B JUMP JUMPDEST PUSH1 0x4 CALLDATALOAD SWAP1 PUSH4 0xFFFFFFFF DUP3 AND DUP3 SUB PUSH2 0x1A2 JUMPI JUMP JUMPDEST PUSH1 0x24 CALLDATALOAD SWAP1 PUSH4 0xFFFFFFFF DUP3 AND DUP3 SUB PUSH2 0x1A2 JUMPI JUMP JUMPDEST PUSH1 0x4 CALLDATALOAD SWAP1 PUSH1 0x1 PUSH1 0x1 PUSH1 0xA0 SHL SUB DUP3 AND DUP3 SUB PUSH2 0x1A2 JUMPI JUMP JUMPDEST PUSH1 0xD SLOAD DUP2 LT ISZERO PUSH2 0x853 JUMPI PUSH1 0x5 SWAP1 PUSH1 0xD PUSH1 0x0 MSTORE MUL PUSH32 0xD7B6990105719101DABEB77144F2A3385C8033ACD3AF97E9423A695E81AD1EB5 ADD SWAP1 PUSH1 0x0 SWAP1 JUMP JUMPDEST PUSH1 0x1 SLOAD PUSH1 0x1 PUSH1 0x1 PUSH1 0xA0 SHL SUB AND CALLER SUB PUSH2 0x1819 JUMPI JUMP JUMPDEST PUSH1 0x64 PUSH1 0x40 MLOAD PUSH3 0x461BCD PUSH1 0xE5 SHL DUP2 MSTORE PUSH1 0x20 PUSH1 0x4 DUP3 ADD MSTORE PUSH1 0x20 PUSH1 0x24 DUP3 ADD MSTORE PUSH32 0x4F776E61626C653A2063616C6C6572206973206E6F7420746865206F776E6572 PUSH1 0x44 DUP3 ADD MSTORE REVERT JUMPDEST PUSH1 0x3 SWAP2 DUP3 SIGNEXTEND SWAP2 SIGNEXTEND SUB SWAP1 PUSH4 0x7FFFFFFF NOT DUP3 SLT PUSH4 0x7FFFFFFF DUP4 SGT OR PUSH2 0x83D JUMPI JUMP JUMPDEST SWAP1 PUSH1 0x3 SIGNEXTEND SWAP1 PUSH1 0x3 SIGNEXTEND ADD SWAP1 PUSH4 0x7FFFFFFF NOT DUP3 SLT PUSH4 0x7FFFFFFF DUP4 SGT OR PUSH2 0x83D JUMPI JUMP JUMPDEST DUP1 SLOAD ISZERO PUSH2 0x853 JUMPI PUSH1 0x0 MSTORE PUSH1 0x20 PUSH1 0x0 KECCAK256 SWAP1 PUSH1 0x0 SWAP1 JUMP JUMPDEST SWAP1 PUSH1 0x8 SLOAD DUP3 LT ISZERO PUSH2 0x853 JUMPI PUSH1 0x8 PUSH1 0x0 MSTORE PUSH1 0x1C DUP3 PUSH1 0x3 SHR PUSH32 0xF3F7A9FE364FAAB93B216DA50A3214154F22A0A2B415B23A84C8169E8B636EE3 ADD SWAP3 PUSH1 0x2 SHL AND SWAP1 JUMP JUMPDEST SWAP2 SWAP1 SWAP2 DUP1 SLOAD DUP4 LT ISZERO PUSH2 0x853 JUMPI PUSH1 0x0 MSTORE PUSH1 0x1C PUSH1 0x20 PUSH1 0x0 KECCAK256 DUP4 PUSH1 0x3 SHR ADD SWAP3 PUSH1 0x2 SHL AND SWAP1 JUMP JUMPDEST PUSH1 0x0 NOT DUP2 EQ PUSH2 0x83D JUMPI PUSH1 0x1 ADD SWAP1 JUMP JUMPDEST PUSH1 0xD SLOAD DUP1 ISZERO PUSH2 0x1964 JUMPI PUSH1 0x0 NOT SWAP1 DUP1 DUP3 ADD SWAP1 DUP2 GT PUSH2 0x83D JUMPI PUSH2 0x1943 SWAP1 PUSH2 0x17CA JUMP JUMPDEST POP PUSH1 0x4 DUP2 ADD SLOAD PUSH1 0xFF AND ISZERO PUSH2 0x1960 JUMPI PUSH4 0xFFFFFFFF SWAP2 POP SLOAD AND PUSH1 0x3 SIGNEXTEND SWAP1 JUMP JUMPDEST POP SWAP1 JUMP JUMPDEST POP PUSH1 0x0 NOT SWAP1 JUMP JUMPDEST PUSH4 0xFFFFFFFF PUSH1 0x8 SLOAD AND DUP1 ISZERO PUSH2 0x19B7 JUMPI PUSH1 0x6 SLOAD PUSH1 0x3 SIGNEXTEND SWAP1 PUSH1 0x3 SIGNEXTEND SWAP1 DUP2 ISZERO PUSH2 0x19A1 JUMPI PUSH4 0x7FFFFFFF NOT DUP2 EQ PUSH1 0x0 NOT DUP4 EQ AND PUSH2 0x83D JUMPI SDIV SWAP1 JUMP JUMPDEST PUSH4 0x4E487B71 PUSH1 0xE0 SHL PUSH1 0x0 MSTORE PUSH1 0x12 PUSH1 0x4 MSTORE PUSH1 0x24 PUSH1 0x0 REVERT JUMPDEST POP PUSH1 0x0 SWAP1 JUMP JUMPDEST PUSH2 0x19C6 DUP2 PUSH2 0x17CA JUMP JUMPDEST POP SWAP1 PUSH1 0x2 PUSH1 0x1 DUP4 ADD SLOAD LT PUSH2 0x1ACF JUMPI PUSH2 0x19DD DUP2 PUSH2 0x1AD3 JUMP JUMPDEST SWAP2 SWAP3 SWAP4 SWAP1 POP PUSH4 0xFFFFFFFF SWAP1 DUP2 DUP6 AND SWAP6 DUP7 ISZERO PUSH2 0x1AC6 JUMPI PUSH1 0x4 ADD SWAP3 PUSH2 0x1A09 DUP5 SLOAD SWAP2 DUP3 PUSH1 0x68 SHR PUSH1 0x3 SIGNEXTEND SWAP1 PUSH2 0x187C JUMP JUMPDEST PUSH1 0x3 SIGNEXTEND SWAP6 DUP6 PUSH1 0x3 SIGNEXTEND SWAP7 DUP8 SGT PUSH2 0x1A23 JUMPI JUMPDEST POP POP POP POP POP POP POP POP JUMP JUMPDEST PUSH5 0xFFFFFFFFFF NOT SWAP1 SWAP2 AND PUSH1 0x8 SWAP2 SWAP1 SWAP2 SHL PUSH5 0xFFFFFFFF00 AND OR DUP4 SSTORE PUSH32 0x2B056A7F2AE4DFEC88DC5458429E82A178C97E5019B817058AE7DCD455DA9E85 SWAP4 PUSH1 0x20 SWAP4 PUSH1 0xFF NOT SWAP2 PUSH2 0x1A6F SWAP2 PUSH2 0xF67 JUMP JUMPDEST DUP7 PUSH1 0x0 MSTORE PUSH1 0x9 DUP5 MSTORE PUSH1 0x1 PUSH1 0x40 PUSH1 0x0 KECCAK256 SWAP2 DUP3 SLOAD AND OR SWAP1 SSTORE AND SWAP3 DUP5 DUP5 PUSH32 0x6FB21C4C14810CEB320306EDA3D07C6738412088C17A66604AFE100AE599B182 DUP5 PUSH1 0x40 MLOAD DUP6 DUP2 MSTORE LOG3 PUSH1 0x40 MLOAD SWAP1 DUP2 MSTORE LOG3 CODESIZE DUP1 DUP1 DUP1 DUP1 DUP1 DUP1 DUP1 PUSH2 0x1A19 JUMP JUMPDEST POP POP POP POP POP POP POP JUMP JUMPDEST POP POP JUMP JUMPDEST PUSH2 0x1ADE PUSH1 0x1 SWAP2 PUSH2 0x17CA JUMP JUMPDEST POP ADD DUP1 SLOAD SWAP1 DUP2 ISZERO PUSH2 0x1BBB JUMPI PUSH2 0x1AF5 DUP2 SWAP4 SWAP3 SWAP4 PUSH2 0x189C JUMP JUMPDEST SWAP3 SWAP1 SWAP2 PUSH4 0xFFFFFFFF DUP1 SWAP4 SLOAD PUSH1 0x3 SWAP6 DUP7 SHL SHR AND SWAP1 PUSH1 0x0 SWAP6 DUP3 DUP8 MSTORE PUSH1 0xA SWAP6 PUSH1 0x20 DUP8 DUP2 MSTORE PUSH1 0x40 DUP1 DUP11 KECCAK256 SLOAD DUP4 SIGNEXTEND SWAP10 DUP1 SWAP10 DUP2 SWAP10 PUSH1 0x1 SWAP8 JUMPDEST DUP8 DUP10 LT PUSH2 0x1B3D JUMPI POP POP POP POP POP POP POP POP POP SWAP4 SWAP3 SWAP2 SWAP1 JUMP JUMPDEST SWAP1 SWAP2 SWAP3 SWAP4 SWAP5 SWAP6 SWAP7 SWAP8 SWAP13 SWAP12 SWAP9 DUP13 SWAP10 DUP4 DUP16 PUSH2 0x1B56 SWAP1 DUP6 PUSH2 0x18F1 JUMP JUMPDEST SWAP1 SLOAD SWAP1 DUP12 SHL SHR AND SWAP13 DUP14 DUP8 MSTORE DUP6 DUP10 MSTORE DUP8 DUP8 KECCAK256 SLOAD DUP11 SIGNEXTEND SWAP12 DUP11 SIGNEXTEND DUP13 SGT PUSH1 0x0 EQ PUSH2 0x1B92 JUMPI POP POP PUSH2 0x1B85 SWAP1 SWAP13 SWAP12 SWAP10 SWAP14 PUSH2 0x1914 JUMP JUMPDEST SWAP8 SWAP7 SWAP6 SWAP5 SWAP4 SWAP3 SWAP2 SWAP1 PUSH2 0x1B27 JUMP JUMPDEST SWAP13 SWAP14 SWAP15 SWAP2 SWAP11 SWAP1 SWAP14 DUP14 DUP11 SIGNEXTEND DUP3 SGT PUSH2 0x1BAE JUMPI JUMPDEST POP POP PUSH2 0x1B85 SWAP1 PUSH2 0x1914 JUMP JUMPDEST SWAP14 POP SWAP12 POP PUSH2 0x1B85 CODESIZE PUSH2 0x1BA3 JUMP JUMPDEST POP POP PUSH1 0x0 SWAP1 PUSH1 0x0 SWAP1 PUSH1 0x0 SWAP1 PUSH1 0x0 SWAP1 JUMP JUMPDEST PUSH2 0x1BD4 DUP2 PUSH2 0x17CA JUMP JUMPDEST POP SWAP1 PUSH1 0x2 PUSH1 0x1 DUP4 ADD SLOAD LT PUSH2 0x1C16 JUMPI SWAP1 PUSH2 0x1C07 SWAP3 PUSH2 0x1BF2 PUSH1 0x4 SWAP4 PUSH2 0x1AD3 JUMP JUMPDEST SWAP4 SWAP3 SWAP7 SWAP2 SWAP6 SWAP1 SWAP5 ADD SLOAD PUSH1 0x68 SHR PUSH1 0x3 SIGNEXTEND DUP4 PUSH2 0x187C JUMP JUMPDEST PUSH1 0x3 SIGNEXTEND DUP5 PUSH1 0x3 SIGNEXTEND SGT SWAP5 SWAP4 SWAP3 SWAP2 SWAP1 JUMP JUMPDEST POP POP PUSH1 0x0 SWAP1 PUSH1 0x0 SWAP1 PUSH1 0x0 SWAP1 PUSH1 0x0 SWAP1 PUSH1 0x0 SWAP1 JUMP INVALID PUSH19 0x194F756300FFF6BFC1D45660DA70048BE350DC BYTE 0xAD DUP7 0x4B SWAP3 DUP1 STATICCALL PUSH22 0xC3FF696CA26469706673582212208D1A07BB11785E45 JUMP 0x22 INVALID 0xAC BLOCKHASH PUSH1 0xD9 0xE7 0x27 PUSH5 0x6E3C1A817B COINBASE AND DUP15 MSTORE 0xBE 0xD5 SWAP15 0x2E 0xE1 PUSH5 0x736F6C6343 STOP ADDMOD SGT STOP CALLER "},"methodIdentifiers":{"REPUTATION_GAIN_BY_COVERING_LOAN()":"d5be8c4a","REPUTATION_GAIN_BY_REPAYNG_DEBT()":"4e5ecf13","REPUTATION_LOSS_BY_DEBT_NOT_PAYD()":"a5118bf1","addCandidate(uint32,uint32)":"5d090176","authorizedCallers(address)":"536fff6c","checkUnbeatableMajority(uint32)":"315f7760","closeElection(uint32)":"4b45e00f","elections(uint256)":"5e6fef01","getActiveMemberCount()":"22faa41f","getAverageReputation()":"0fc19c78","getCandidateVotes(uint32)":"70574c4b","getCurrentElectionId()":"fe2b536b","getElectionInfo(uint32)":"232775c3","getMemberId(address)":"c269014b","getReputation(uint32)":"81db2284","hasMemberVoted(uint32,uint32)":"1f7f505c","hasVotedInElection(uint32,uint32)":"b3f8df40","isMemberActive(uint32)":"9734ed62","isModerator(uint32)":"b1cc1f8f","isWalletVinculated(address)":"598a562a","memberReputation(uint32)":"4a57c6d0","moderatorVotesReceived(uint32)":"8450a681","openElection(uint32)":"8249dea6","owner()":"8da5cb5b","renounceOwnership()":"715018a6","reputationChange(uint32,int32,bool)":"533dfa35","setAuthorizedCaller(address,bool)":"454bbd29","totalPotentialVotes()":"a6f587ac","transferOwnership(address)":"f2fde38b","vinculationMemberToWallet(uint32,address)":"21bb31e4","voteForModerator(uint32,uint32,uint32)":"244ad967","walletToMemberId(address)":"4698c2d5"}}}}}