{"contracts/LoanMachine.sol":{"LoanMachine":{"abi":[{"inputs":[{"internalType":"address","name":"_usdtToken","type":"address"},{"internalType":"address","name":"_reputationSystem","type":"address"}],"stateMutability":"nonpayable","type":"constructor"},{"inputs":[],"name":"BorrowNotExpired","type":"error"},{"inputs":[],"name":"ExcessiveDonation","type":"error"},{"inputs":[],"name":"InsufficientDonationBalance","type":"error"},{"inputs":[],"name":"InsufficientFunds","type":"error"},{"inputs":[],"name":"InvalidAmount","type":"error"},{"inputs":[],"name":"InvalidCoveragePercentage","type":"error"},{"inputs":[],"name":"InvalidParcelsCount","type":"error"},{"inputs":[],"name":"LoanNotAvailable","type":"error"},{"inputs":[],"name":"MaxLoanRequisitionPendingReached","type":"error"},{"inputs":[],"name":"MemberIdOrWalletInvalid","type":"error"},{"inputs":[],"name":"MinimumDonationRequired","type":"error"},{"inputs":[],"name":"NoActiveBorrowing","type":"error"},{"inputs":[],"name":"OverCoverage","type":"error"},{"inputs":[],"name":"ParcelAlreadyPaid","type":"error"},{"inputs":[],"name":"RepaymentExceedsBorrowed","type":"error"},{"inputs":[],"name":"TokenTransferFailed","type":"error"},{"inputs":[],"name":"WalletAlreadyVinculated","type":"error"},{"anonymous":false,"inputs":[{"indexed":false,"internalType":"uint256","name":"total","type":"uint256"}],"name":"AvailableBalanceUpdated","type":"event"},{"anonymous":false,"inputs":[{"indexed":true,"internalType":"address","name":"borrower","type":"address"}],"name":"BorrowLimitReached","type":"event"},{"anonymous":false,"inputs":[{"indexed":true,"internalType":"address","name":"borrower","type":"address"},{"indexed":false,"internalType":"uint256","name":"amount","type":"uint256"},{"indexed":false,"internalType":"uint256","name":"totalBorrowing","type":"uint256"}],"name":"Borrowed","type":"event"},{"anonymous":false,"inputs":[{"indexed":true,"internalType":"address","name":"borrower","type":"address"},{"indexed":false,"internalType":"enum DebtTracker.DebtStatus","name":"newStatus","type":"uint8"}],"name":"BorrowerStatusUpdated","type":"event"},{"anonymous":false,"inputs":[{"indexed":true,"internalType":"address","name":"borrower","type":"address"}],"name":"DebtorAdded","type":"event"},{"anonymous":false,"inputs":[{"indexed":true,"internalType":"address","name":"borrower","type":"address"}],"name":"DebtorRemoved","type":"event"},{"anonymous":false,"inputs":[{"indexed":true,"internalType":"address","name":"donor","type":"address"},{"indexed":false,"internalType":"uint256","name":"amount","type":"uint256"},{"indexed":false,"internalType":"uint256","name":"totalDonation","type":"uint256"}],"name":"Donated","type":"event"},{"anonymous":false,"inputs":[{"indexed":true,"internalType":"uint256","name":"requisitionId","type":"uint256"},{"indexed":true,"internalType":"address","name":"lender","type":"address"},{"indexed":false,"internalType":"uint256","name":"amount","type":"uint256"}],"name":"LenderRepaid","type":"event"},{"anonymous":false,"inputs":[{"indexed":true,"internalType":"uint256","name":"requisitionId","type":"uint256"}],"name":"LoanCompleted","type":"event"},{"anonymous":false,"inputs":[{"indexed":true,"internalType":"address","name":"walletAddress","type":"address"},{"indexed":true,"internalType":"uint256","name":"requisitionId","type":"uint256"},{"indexed":false,"internalType":"enum ILoanMachine.ContractStatus","name":"status","type":"uint8"},{"indexed":false,"internalType":"uint32","name":"parcelsPending","type":"uint32"},{"indexed":false,"internalType":"uint256","name":"parcelsValues","type":"uint256"},{"indexed":false,"internalType":"uint256[]","name":"paymentDates","type":"uint256[]"}],"name":"LoanContractGenerated","type":"event"},{"anonymous":false,"inputs":[{"indexed":true,"internalType":"uint256","name":"requisitionId","type":"uint256"},{"indexed":true,"internalType":"address","name":"lender","type":"address"},{"indexed":false,"internalType":"uint256","name":"coverageAmount","type":"uint256"}],"name":"LoanCovered","type":"event"},{"anonymous":false,"inputs":[{"indexed":true,"internalType":"uint256","name":"requisitionId","type":"uint256"}],"name":"LoanFunded","type":"event"},{"anonymous":false,"inputs":[{"indexed":true,"internalType":"uint256","name":"requisitionId","type":"uint256"},{"indexed":true,"internalType":"address","name":"borrower","type":"address"},{"indexed":false,"internalType":"uint256","name":"amount","type":"uint256"},{"indexed":false,"internalType":"uint32","name":"parcelsCount","type":"uint32"}],"name":"LoanRequisitionCreated","type":"event"},{"anonymous":false,"inputs":[{"indexed":false,"internalType":"uint256","name":"timestamp","type":"uint256"}],"name":"MonthlyUpdateTriggered","type":"event"},{"anonymous":false,"inputs":[{"indexed":true,"internalType":"address","name":"borrower","type":"address"}],"name":"NewBorrower","type":"event"},{"anonymous":false,"inputs":[{"indexed":true,"internalType":"address","name":"donor","type":"address"}],"name":"NewDonor","type":"event"},{"anonymous":false,"inputs":[{"indexed":true,"internalType":"uint256","name":"requisitionId","type":"uint256"},{"indexed":false,"internalType":"uint256","name":"parcelsRemaining","type":"uint256"}],"name":"ParcelPaid","type":"event"},{"anonymous":false,"inputs":[{"indexed":true,"internalType":"address","name":"borrower","type":"address"},{"indexed":false,"internalType":"uint256","name":"amount","type":"uint256"},{"indexed":false,"internalType":"uint256","name":"remainingDebt","type":"uint256"}],"name":"Repaid","type":"event"},{"anonymous":false,"inputs":[{"indexed":false,"internalType":"uint256","name":"total","type":"uint256"}],"name":"TotalBorrowedUpdated","type":"event"},{"anonymous":false,"inputs":[{"indexed":false,"internalType":"uint256","name":"total","type":"uint256"}],"name":"TotalDonationsUpdated","type":"event"},{"inputs":[{"internalType":"address[]","name":"borrowers","type":"address[]"}],"name":"batchUpdateDebtStatus","outputs":[],"stateMutability":"nonpayable","type":"function"},{"inputs":[{"internalType":"address","name":"","type":"address"},{"internalType":"uint256","name":"","type":"uint256"}],"name":"borrowerRequisitions","outputs":[{"internalType":"uint256","name":"","type":"uint256"}],"stateMutability":"view","type":"function"},{"inputs":[{"internalType":"uint256","name":"requisitionId","type":"uint256"},{"internalType":"address","name":"borrower","type":"address"}],"name":"canPayRequisition","outputs":[{"internalType":"bool","name":"","type":"bool"}],"stateMutability":"view","type":"function"},{"inputs":[{"internalType":"address","name":"_user","type":"address"},{"internalType":"uint256","name":"_amount","type":"uint256"}],"name":"canUserBorrow","outputs":[{"internalType":"bool","name":"","type":"bool"}],"stateMutability":"view","type":"function"},{"inputs":[{"internalType":"uint256","name":"requisitionId","type":"uint256"},{"internalType":"uint32","name":"coveragePercentage","type":"uint32"},{"internalType":"uint32","name":"memberId","type":"uint32"}],"name":"coverLoan","outputs":[],"stateMutability":"nonpayable","type":"function"},{"inputs":[{"internalType":"uint256","name":"amount","type":"uint256"},{"internalType":"uint32","name":"minimumCoverage","type":"uint32"},{"internalType":"uint256","name":"durationDays","type":"uint256"},{"internalType":"uint32","name":"parcelscount","type":"uint32"},{"internalType":"uint32","name":"memberId","type":"uint32"}],"name":"createLoanRequisition","outputs":[{"internalType":"uint256","name":"","type":"uint256"}],"stateMutability":"nonpayable","type":"function"},{"inputs":[{"internalType":"uint256","name":"amount","type":"uint256"},{"internalType":"uint32","name":"memberId","type":"uint32"}],"name":"donate","outputs":[],"stateMutability":"nonpayable","type":"function"},{"inputs":[{"internalType":"address","name":"borrower","type":"address"}],"name":"getActiveLoans","outputs":[{"components":[{"internalType":"address","name":"walletAddress","type":"address"},{"internalType":"uint256","name":"requisitionId","type":"uint256"},{"internalType":"enum ILoanMachine.ContractStatus","name":"status","type":"uint8"},{"internalType":"uint32","name":"parcelsCount","type":"uint32"},{"internalType":"uint32","name":"parcelsPending","type":"uint32"},{"internalType":"uint256","name":"parcelsValues","type":"uint256"},{"internalType":"uint256[]","name":"paymentDates","type":"uint256[]"}],"internalType":"struct ILoanMachine.LoanContract[]","name":"activeLoans","type":"tuple[]"},{"internalType":"uint256[]","name":"requisitionIds","type":"uint256[]"}],"stateMutability":"view","type":"function"},{"inputs":[{"internalType":"address","name":"user","type":"address"}],"name":"getAllowance","outputs":[{"internalType":"uint256","name":"","type":"uint256"}],"stateMutability":"view","type":"function"},{"inputs":[],"name":"getAvailableBalance","outputs":[{"internalType":"uint256","name":"","type":"uint256"}],"stateMutability":"view","type":"function"},{"inputs":[],"name":"getAvailableBorrowAmount","outputs":[{"internalType":"uint256","name":"","type":"uint256"}],"stateMutability":"view","type":"function"},{"inputs":[{"internalType":"address","name":"borrower","type":"address"}],"name":"getBorrowerDebtStatus","outputs":[{"internalType":"enum DebtTracker.DebtStatus","name":"","type":"uint8"}],"stateMutability":"view","type":"function"},{"inputs":[{"internalType":"address","name":"borrower","type":"address"}],"name":"getBorrowerRequisitions","outputs":[{"internalType":"uint256[]","name":"","type":"uint256[]"}],"stateMutability":"view","type":"function"},{"inputs":[],"name":"getBorrowersWithDebt","outputs":[{"internalType":"address[]","name":"","type":"address[]"}],"stateMutability":"view","type":"function"},{"inputs":[],"name":"getBorrowersWithoutDebt","outputs":[{"internalType":"address[]","name":"","type":"address[]"}],"stateMutability":"view","type":"function"},{"inputs":[{"internalType":"address","name":"_user","type":"address"}],"name":"getBorrowing","outputs":[{"internalType":"uint256","name":"","type":"uint256"}],"stateMutability":"view","type":"function"},{"inputs":[],"name":"getContractBalance","outputs":[{"internalType":"uint256","name":"","type":"uint256"}],"stateMutability":"view","type":"function"},{"inputs":[{"internalType":"uint256","name":"requisitionId","type":"uint256"}],"name":"getCoveringLenders","outputs":[{"internalType":"address[]","name":"","type":"address[]"}],"stateMutability":"view","type":"function"},{"inputs":[{"internalType":"address","name":"_user","type":"address"}],"name":"getDonation","outputs":[{"internalType":"uint256","name":"","type":"uint256"}],"stateMutability":"view","type":"function"},{"inputs":[{"internalType":"address","name":"lender","type":"address"}],"name":"getDonationsInCoverage","outputs":[{"internalType":"uint256","name":"","type":"uint256"}],"stateMutability":"view","type":"function"},{"inputs":[{"internalType":"address","name":"_user","type":"address"}],"name":"getLastBorrowTime","outputs":[{"internalType":"uint256","name":"","type":"uint256"}],"stateMutability":"view","type":"function"},{"inputs":[{"internalType":"uint256","name":"requisitionId","type":"uint256"},{"internalType":"address","name":"lender","type":"address"}],"name":"getLenderCoverage","outputs":[{"internalType":"uint256","name":"","type":"uint256"}],"stateMutability":"view","type":"function"},{"inputs":[{"internalType":"uint256","name":"requisitionId","type":"uint256"}],"name":"getLoanContract","outputs":[{"components":[{"internalType":"address","name":"walletAddress","type":"address"},{"internalType":"uint256","name":"requisitionId","type":"uint256"},{"internalType":"enum ILoanMachine.ContractStatus","name":"status","type":"uint8"},{"internalType":"uint32","name":"parcelsCount","type":"uint32"},{"internalType":"uint32","name":"parcelsPending","type":"uint32"},{"internalType":"uint256","name":"parcelsValues","type":"uint256"},{"internalType":"uint256[]","name":"paymentDates","type":"uint256[]"}],"internalType":"struct ILoanMachine.LoanContract","name":"","type":"tuple"}],"stateMutability":"view","type":"function"},{"inputs":[{"internalType":"address","name":"wallet","type":"address"}],"name":"getMemberId","outputs":[{"internalType":"uint32","name":"","type":"uint32"}],"stateMutability":"view","type":"function"},{"inputs":[{"internalType":"uint256","name":"requisitionId","type":"uint256"}],"name":"getNextPaymentAmount","outputs":[{"internalType":"uint256","name":"paymentAmount","type":"uint256"},{"internalType":"bool","name":"canPay","type":"bool"}],"stateMutability":"view","type":"function"},{"inputs":[{"internalType":"uint256","name":"requisitionId","type":"uint256"}],"name":"getPaymentDates","outputs":[{"internalType":"uint256[]","name":"","type":"uint256[]"}],"stateMutability":"view","type":"function"},{"inputs":[{"internalType":"uint256","name":"requisitionId","type":"uint256"}],"name":"getRepaymentSummary","outputs":[{"internalType":"uint256","name":"totalRemainingDebt","type":"uint256"},{"internalType":"uint256","name":"nextPaymentAmount","type":"uint256"},{"internalType":"uint256","name":"parcelsRemaining","type":"uint256"},{"internalType":"uint256","name":"totalParcels","type":"uint256"},{"internalType":"bool","name":"isActive","type":"bool"}],"stateMutability":"view","type":"function"},{"inputs":[{"internalType":"uint32","name":"memberId","type":"uint32"}],"name":"getReputation","outputs":[{"internalType":"int32","name":"","type":"int32"}],"stateMutability":"view","type":"function"},{"inputs":[{"internalType":"uint256","name":"requisitionId","type":"uint256"}],"name":"getRequisitionInfo","outputs":[{"components":[{"internalType":"uint256","name":"requisitionId","type":"uint256"},{"internalType":"address","name":"borrower","type":"address"},{"internalType":"uint256","name":"amount","type":"uint256"},{"internalType":"uint32","name":"minimumCoverage","type":"uint32"},{"internalType":"uint32","name":"currentCoverage","type":"uint32"},{"internalType":"enum ILoanMachine.BorrowStatus","name":"status","type":"uint8"},{"internalType":"uint256","name":"durationDays","type":"uint256"},{"internalType":"uint256","name":"creationTime","type":"uint256"},{"internalType":"address[]","name":"coveringLenders","type":"address[]"},{"internalType":"uint32","name":"parcelsCount","type":"uint32"}],"internalType":"struct ILoanMachine.RequisitionInfo","name":"","type":"tuple"}],"stateMutability":"view","type":"function"},{"inputs":[],"name":"getTotalBorrowed","outputs":[{"internalType":"uint256","name":"","type":"uint256"}],"stateMutability":"view","type":"function"},{"inputs":[],"name":"getTotalDonations","outputs":[{"internalType":"uint256","name":"","type":"uint256"}],"stateMutability":"view","type":"function"},{"inputs":[],"name":"getUSDTBalance","outputs":[{"internalType":"uint256","name":"","type":"uint256"}],"stateMutability":"view","type":"function"},{"inputs":[{"internalType":"address","name":"borrower","type":"address"}],"name":"hasActiveDebt","outputs":[{"internalType":"bool","name":"","type":"bool"}],"stateMutability":"view","type":"function"},{"inputs":[{"internalType":"address","name":"borrower","type":"address"}],"name":"hasOverdueDebt","outputs":[{"internalType":"bool","name":"","type":"bool"}],"stateMutability":"view","type":"function"},{"inputs":[{"internalType":"address","name":"wallet","type":"address"}],"name":"isWalletVinculated","outputs":[{"internalType":"bool","name":"","type":"bool"}],"stateMutability":"view","type":"function"},{"inputs":[{"internalType":"uint256","name":"","type":"uint256"}],"name":"loanContracts","outputs":[{"internalType":"address","name":"walletAddress","type":"address"},{"internalType":"uint256","name":"requisitionId","type":"uint256"},{"internalType":"enum ILoanMachine.ContractStatus","name":"status","type":"uint8"},{"internalType":"uint32","name":"parcelsCount","type":"uint32"},{"internalType":"uint32","name":"parcelsPending","type":"uint32"},{"internalType":"uint256","name":"parcelsValues","type":"uint256"}],"stateMutability":"view","type":"function"},{"inputs":[],"name":"nextMonthlyUpdate","outputs":[{"internalType":"uint256","name":"","type":"uint256"}],"stateMutability":"view","type":"function"},{"inputs":[{"internalType":"uint256","name":"requisitionId","type":"uint256"},{"internalType":"uint256","name":"amount","type":"uint256"},{"internalType":"uint32","name":"memberId","type":"uint32"}],"name":"repay","outputs":[],"stateMutability":"nonpayable","type":"function"},{"inputs":[],"name":"reputationSystem","outputs":[{"internalType":"contract ReputationSystem","name":"","type":"address"}],"stateMutability":"view","type":"function"},{"inputs":[],"name":"requisitionCounter","outputs":[{"internalType":"uint256","name":"","type":"uint256"}],"stateMutability":"view","type":"function"},{"inputs":[],"name":"shouldTriggerUpdate","outputs":[{"internalType":"bool","name":"","type":"bool"}],"stateMutability":"view","type":"function"},{"inputs":[],"name":"triggerMonthlyUpdate","outputs":[],"stateMutability":"nonpayable","type":"function"},{"inputs":[{"internalType":"address","name":"borrower","type":"address"}],"name":"updateBorrowerDebtStatus","outputs":[],"stateMutability":"nonpayable","type":"function"},{"inputs":[],"name":"usdtToken","outputs":[{"internalType":"address","name":"","type":"address"}],"stateMutability":"view","type":"function"},{"inputs":[{"internalType":"uint32","name":"memberId","type":"uint32"},{"internalType":"address","name":"wallet","type":"address"}],"name":"vinculationMemberToWallet","outputs":[],"stateMutability":"nonpayable","type":"function"}],"evm":{"bytecode":{"linkReferences":{"contracts/libraries/DebtTracker.sol":{"DebtTracker":[{"length":20,"start":817},{"length":20,"start":1001},{"length":20,"start":2105},{"length":20,"start":3687},{"length":20,"start":4344},{"length":20,"start":4739},{"length":20,"start":5121},{"length":20,"start":5804},{"length":20,"start":7481},{"length":20,"start":7875},{"length":20,"start":8470},{"length":20,"start":10031},{"length":20,"start":10871}]}},"object":"60a034620000c857601f6200328338819003918201601f19168301916001600160401b03831184841017620000cd578084926040948552833981010312620000c8576200005a60206200005283620000e3565b9201620000e3565b6001600081905560809290925281546001600160a01b0319166001600160a01b0390911617905562278d006008554260075560405161318a9081620000f982396080518181816107c301528181610ca601528181610dca01528181611293015281816116d80152612bf70152f35b600080fd5b634e487b7160e01b600052604160045260246000fd5b51906001600160a01b0382168203620000c85756fe608060405260048036101561001357600080fd5b60003560e01c8063016c704f146129285780630307c4a11461290a57806303d1a1a1146126715780630bc2185314612609578063182d94b5146123b25780631b70ba3e146121f957806321bb31e414612186578063232869fa14612109578063291c31a714611d605780632b31c0221461204d5780633403c25d14611fd7578063383ab2ef14611f8f578063410a1d3214611f555780634e51c7df14611f0a578063598a562a14611ea75780636509a71014611e7b578063657eb03114611e415780636587eda114611e185780636f9fb98a146114a3578063777c658f14611dfa5780637910340014611d9d5780637d52437a14611d65578063809dab6a14611d6057806381db228414611cd9578063827cc0e514611c9f578063830efd3b14611c1357806384ddf5ea14611bf55780638a914a6314611bb35780639059f9ca1461150b5780639730872a146114a85780639785fac8146114a357806397c33519146113ad5780639e93201114611355578063a7af6947146112c2578063a98ad46c1461127d578063adceb101146111fa578063b9f0fec41461116d578063be5eb58014611133578063c269014b14611092578063ccdce44e14610fc4578063e276392414610d0d578063eb5a662e14610c5b578063ecb18b341461035c578063f0853e1d146102a95763f947a8a91461020c57600080fd5b3461029057600036600319011261029057600260405191636ecf807360e11b835282015260208160248173__$8a3883123a2a1b05b37447bdbb3fdcf5d3$__5af4801561029d57600090610266575b602090604051908152f35b506020813d8211610295575b8161027f60209383612d12565b81010312610290576020905161025b565b600080fd5b3d9150610272565b6040513d6000823e3d90fd5b50346102905760209081600319360112610290576102c5612a1d565b6040516315ffae5b60e21b81526002928101929092526001600160a01b03166024820152818160448173__$8a3883123a2a1b05b37447bdbb3fdcf5d3$__5af490811561029d57600091610326575b506040519061032281612a49565b8152f35b90508181813d8311610355575b61033d8183612d12565b81010312610290575160038110156102905738610314565b503d610333565b503461029057606036600319011261029057610376612b73565b63ffffffff610383612b99565b169081158015610bfb575b610bea5763ffffffff169081158015610be0575b610bcf576103ae612e1a565b8235600052601160205260406000206003810190815460ff8160401c166006811015610bba578015159081610bae575b50610b9d576103f88563ffffffff60649360201c16612e0d565b11610b8c5761040b846002830154612ec9565b670de0b6b3a764000090818102918183041490151715610adf5768056bc75e2d630fffff8101809111610adf5768056bc75e2d6310000090049333600052600b6020528460406000205410610b7b5733600052600b6020526040600020610473868254612dea565b9055336000526014602052604060002061048e868254612e0d565b905582549063ffffffff8260201c160163ffffffff8111610af45767ffffffff000000009060201b169067ffffffff0000000019161782556007810190336000528160205260406000205415610b22575b503360005260205260406000206104f7848254612e0d565b9055805463ffffffff811663ffffffff8260201c161015600014610b0957506802000000000000000060ff60401b19825416179055806000526015602052604060002063ffffffff19815416905582356000526016602052604060002060116020526105f8604060002060018060a01b036001820154166bffffffffffffffffffffffff60a01b8454161783558535600184015563ffffffff6002808501549260ff19841682870155600881019364ffffffff00855460081b169064ffffffffff191617828701556105ed838554168388019068ffffffff000000000082549160281b169068ffffffff00000000001916179055565b015491541690612edc565b60038201558335600052601160205263ffffffff6008604060002001541660005b8163ffffffff821610610a9157505060018060a01b038154167f5215406e88f26eed4728b9cdfc5d85cea75799101cb9387b528451e6e0878dec600283015460ff81169063ffffffff6003860154916040519361067581612a49565b845260281c1660208301526040820152608060608201528061069f88359589608084019101612efc565b0390a382356000526011602052604060002060018060a01b036001820154169081600052600a60205260ff60406000205416156109f9575b600360028201918254600c6020526106f56040600020918254612e0d565b90556107048354600f54612e0d565b600f556107148354601054612dea565b60105583600052600d60205242604060002055016803000000000000000060ff60401b1982541617905573__$8a3883123a2a1b05b37447bdbb3fdcf5d3$__803b156102905760006064916040519283809263e63dd53160e01b825260028b8301528760248301526303d1a1a13060201b1760401b60448301525af4801561029d576109ea575b50805460405163a9059cbb60e01b8152868101849052602481019190915260208160448160007f00000000000000000000000000000000000000000000000000000000000000006001600160a01b03165af190811561029d576000916109bb575b50156109aa5760407feae9cfbc77fdd40ca899f36b608256063b2bc9d8178b0220f7ad513e178d6730915483600052600c602052816000205482519182526020820152a27f17f13fd3f7c4712af33f1770ebcb822dd20a2dbc00850eab48d786623d97b9596020600f54604051908152a17f8b094cca6f83d49402ce208cc0c224b76625ffc58636df56ae28024e704c58686020601054604051908152a182357f9e71d2fb732e68272b7e74ecfd14638673c1d77e19a5d390a3ffff054d57c44b600080a25b600154604051636adf462560e11b81526001600160a01b0390911691906020818681865afa90811561029d5760009161097b575b50823b1561029057606460009283604051958694859363533dfa3560e01b85528a85015260030b6024840152600160448401525af1801561029d5761096c575b506040519081527f86b47e6e6c03d769c0bc5ffd06c682ea7d07089576d59230ec18ff64e71bffe7602033933592a36001600055005b61097590612caf565b38610936565b61099d915060203d6020116109a3575b6109958183612d12565b810190612dd1565b386108f6565b503d61098b565b60405163022e258160e11b81528590fd5b6109dd915060203d6020116109e3575b6109d58183612d12565b810190612d34565b386107fc565b503d6109cb565b6109f390612caf565b3861079b565b600954600160401b811015610a7c576001810180600955811015610a67577f6e1540171b6c0c960b71a7020d9f60077f6af931a8bbf590da0223dacf75c7af0180546001600160a01b031916831790556000828152600a60205260409020805460ff191660011790556106d7565b603286634e487b7160e01b6000525260246000fd5b604186634e487b7160e01b6000525260246000fd5b63ffffffff610a9f82612eb4565b1662278d009080820291820403610af45790610acb610ac363ffffffff9342612e0d565b888601612e7f565b1663ffffffff8114610adf57600101610619565b601186634e487b7160e01b6000525260246000fd5b601187634e487b7160e01b6000525260246000fd5b68ff00000000000000001916600160401b1790556108c2565b600601805490600160401b821015610b665790610b4491600182018155612c81565b81546001600160a01b0360039290921b91821b19163390911b179055386104df565b604187634e487b7160e01b6000525260246000fd5b604051630391acf160e61b81528690fd5b60405163955f95ad60e01b81528590fd5b6040516380b9cb0960e01b81528690fd5b600191501415386103de565b602187634e487b7160e01b6000525260246000fd5b60405163d1e95ed560e01b81528390fd5b50606482116103a2565b604051630cff23e760e01b81528390fd5b50600154604051632cc52b1560e11b8152338582015290602090829060249082906001600160a01b03165afa90811561029d57600091610c3d575b501561038e565b610c55915060203d81116109e3576109d58183612d12565b38610c36565b503461029057602090816003193601126102905781610c78612a1d565b604051636eb1769f60e11b81526001600160a01b0391821693810193909352306024840152829060449082907f0000000000000000000000000000000000000000000000000000000000000000165afa90811561029d57600091610ce0575b50604051908152f35b90508181813d8311610d06575b610cf78183612d12565b81010312610290575138610cd7565b503d610ced565b50346102905760403660031901126102905780359063ffffffff610d2f612b73565b16158015610f64575b610f55578115610f4657610d4a612e1a565b604051630c47ab3d60e21b815260209190828180610d6a30868301612d4c565b038173__$8a3883123a2a1b05b37447bdbb3fdcf5d3$__5af4801561029d57610f29575b50624c4b408311610f1a57604080516323b872dd60e01b81523383820190815230602082015291820185905290839082908190606001038160007f00000000000000000000000000000000000000000000000000000000000000006001600160a01b03165af190811561029d57600091610efd575b5015610eee57507f8b094cca6f83d49402ce208cc0c224b76625ffc58636df56ae28024e704c58689033600052600b815260406000207fdc6e73d4b36e22ab95945bd8833a5af96c950eb29d8d75c4aecffc987637aaab82825495808701845580600e54019081600e558060105401948560105554604051918252838201527f4928895ba6723e8e27b15f32e4c3054a1b6c7f8c03f133558d6fa42b3928d14c60403392a2604051908152a1604051908152a115610ec3575b6001600055005b337f072dafb6aabe3f02118bc607efbeaaa104d6b2009720c7b130f24ba418689c4b600080a2610ebc565b60405163022e258160e11b8152fd5b610f149150833d85116109e3576109d58183612d12565b38610e03565b6040516330fdf8db60e11b8152fd5b610f3f90833d85116109e3576109d58183612d12565b5038610d8e565b60405163162908e360e11b8152fd5b604051630cff23e760e01b8152fd5b50600154604051632cc52b1560e11b8152338382015290602090829060249082906001600160a01b03165afa90811561029d57600091610fa6575b5015610d38565b610fbe915060203d81116109e3576109d58183612d12565b38610f9f565b503461029057600036600319011261029057610fde612e1a565b604051630c47ab3d60e21b815260208180610ffb30868301612d4c565b038173__$8a3883123a2a1b05b37447bdbb3fdcf5d3$__5af490811561029d57600091611074575b5015611030576001600055005b60649060206040519162461bcd60e51b8352820152601a60248201527f4d6f6e74686c7920757064617465206e6f7420647565207965740000000000006044820152fd5b61108c915060203d81116109e3576109d58183612d12565b38611023565b5034610290576020908160031936011261029057816110af612a1d565b60015460405163c269014b60e01b81526001600160a01b039283169481019490945283916024918391165afa90811561029d576000916110f9575b5063ffffffff60405191168152f35b90508181813d831161112c575b6111108183612d12565b81010312610290575163ffffffff8116810361029057386110ea565b503d611106565b34610290576020366003190112610290576001600160a01b03611154612a1d565b16600052600c6020526020604060002054604051908152f35b503461029057602036600319011261029057611187612a1d565b9073__$8a3883123a2a1b05b37447bdbb3fdcf5d3$__90813b15610290576064600291600093604051958694859363e63dd53160e01b855284015260018060a01b031660248301526303d1a1a13060201b1760401b60448301525af4801561029d576111ef57005b6111f890612caf565b005b503461029057604036600319011261029057602090611217612a33565b90356000526016825260406000209060018060a01b03808354169116149081611263575b8161124c575b506040519015158152f35b63ffffffff91506002015460281c16151538611241565b905060ff60028201541661127681612a49565b159061123b565b34610290576000366003190112610290576040517f00000000000000000000000000000000000000000000000000000000000000006001600160a01b03168152602090f35b5034610290576020366003190112610290576112dc612a1d565b604051632de5e9bf60e01b81526002928101929092526001600160a01b0316602482015260208160448173__$8a3883123a2a1b05b37447bdbb3fdcf5d3$__5af4801561029d5760209160009161133857506040519015158152f35b61134f9150823d81116109e3576109d58183612d12565b38611241565b346102905760403660031901126102905761136e612a1d565b6001600160a01b03166000908152601360205260409020805460243591908210156102905760209161139f91612c81565b90546040519160031b1c8152f35b5034610290576040366003190112610290576113c7612a1d565b602435908115159182611496575b5081611458575b816113ef575b6020826040519015158152f35b6001600160a01b03166000818152600d6020526040902054909262093a808201925090821061144357504211801561142c575b60209150386113e2565b50600052600c602052602060406000205415611422565b601190634e487b7160e01b6000525260246000fd5b905060018060a01b038116600052600b602052620f424060406000205410801590611484575b906113dc565b50600c6020526040600020541561147e565b60105410159150386113d5565b612bca565b34610290576020366003190112610290576001600160a01b036114c9612a1d565b1660005260136020526115076114ec6114f3604060002060405192838092612efc565b0382612d12565b604051918291602083526020830190612b02565b0390f35b50346102905760603660031901126102905780359060249081359163ffffffff9182611535612b99565b169384158015611b54575b611b4457856000526020926016845260406000209033600052600c855260406000205415611b225781546001600160a01b0392903390841603611b33576002015460ff811661158e81612a49565b611b335760281c861615611b22576115a4612e1a565b604051630c47ab3d60e21b815273__$8a3883123a2a1b05b37447bdbb3fdcf5d3$__94908681806115d730828701612d4c565b0381895af4801561029d57611b05575b508315610f465788600052601686526040600020916002830198895489808260281c169160081c1603898111611af15761162390848601612c81565b905460039591861b1c421115611a555785600154169160405163a5118bf160e01b81528a818781875afa90811561029d57600091611a38575b50833b1561029057606460009283604051968794859363533dfa3560e01b85528b8501528b0b898401528160448401525af191821561029d578592611a29575b505b01548503611a1957604080516323b872dd60e01b8152338482019081523060208201529182018790529088908290819060600103816000897f0000000000000000000000000000000000000000000000000000000000000000165af190811561029d576000916119fc575b50156119ec5797969733600052600c8752604060002061172a868254612dea565b905561173885600f54612dea565b600f5561174785601054612e0d565b601055896000526011875260406000209160028301549660009960076006860195019a5b855481101561183a57808c8f8d6117ae8e6117a98f8f8f8f6117be9b61179091612c81565b9054911b1c169687600052855260406000205490612ec9565b612edc565b90816117c3575b50505050612e70565b61176b565b7fe3e6ae1e05f069d410556743894aacbb190c1431962422ebe8fcc642a467dd1691846000526014825260406000208054808311611832575b8261180691612dea565b905584600052600b82526040600020611820828254612e0d565b9055604051908152a3388f818e6117b5565b9150816117fc565b508c8a918d8a33600052600c8552604060002054604051918252858201527f1b8cd61ed43bec7c6bdad3a18ffee613f99c853d16c50678d248d879e1b4343860403392a280825460281c16837f406356ef25520b09e2ef87c5225167b4161ea4ab691e9434d6ee29eafcc83fc286604051848152a27f17f13fd3f7c4712af33f1770ebcb822dd20a2dbc00850eab48d786623d97b95985600f54604051908152a17f8b094cca6f83d49402ce208cc0c224b76625ffc58636df56ae28024e704c586885601054604051908152a1600019018181116119d857825468ffffffff0000000000191660289190911b68ffffffff0000000000161782558154908160281c16156119a2575b505050813b15610290576000926002926303d1a1a1606493604051978896879563e63dd53160e01b8752860152339085015230901b1760401b60448301525af4801561029d57611993576001600055005b61199c90612caf565b80610ebc565b60ff191660021790557f02ca5489b37dd363d1302bac719e8ee40e540ffbe8c12253570fea63e11cad71600080a2848080611942565b87601188634e487b7160e01b600052526000fd5b5060405163022e258160e11b8152fd5b611a139150883d8a116109e3576109d58183612d12565b38611709565b5060405163162908e360e11b8152fd5b611a3290612caf565b3861169c565b611a4f91508b3d8d116109a3576109958183612d12565b3861165c565b856001541691604051634e5ecf1360e01b81528a818781875afa90811561029d57600091611ad4575b50833b1561029057606460009283604051968794859363533dfa3560e01b85528b8501528b0b89840152600160448401525af191821561029d578592611ac5575b5061169e565b611ace90612caf565b38611abf565b611aeb91508b3d8d116109a3576109958183612d12565b38611a7e565b82601185634e487b7160e01b600052526000fd5b611b1b90873d89116109e3576109d58183612d12565b50386115e7565b604051630b5ab5bf60e41b81528490fd5b604051630b5ab5bf60e41b81528590fd5b50604051630cff23e760e01b8152fd5b50600154604051632cc52b1560e11b81523384820152906020908290869082906001600160a01b03165afa90811561029d57600091611b95575b5015611540565b611bad915060203d81116109e3576109d58183612d12565b38611b8e565b503461029057602036600319011261029057356000526011602052611507611be160066040600020016130fa565b604051918291602083526020830190612b36565b34610290576000366003190112610290576020601254604051908152f35b50346102905760003660031901126102905760026040519163404b48bf60e01b835282015260008160248173__$8a3883123a2a1b05b37447bdbb3fdcf5d3$__5af4801561029d5761150791600091611c7c575b50604051918291602083526020830190612b36565b611c9991503d806000833e611c918183612d12565b810190612f51565b38611c67565b34610290576020366003190112610290576001600160a01b03611cc0612a1d565b1660005260146020526020604060002054604051908152f35b503461029057602036600319011261029057602063ffffffff6024611cfc612b86565b600154604051632076c8a160e21b81529190931694810194909452839182906001600160a01b03165afa801561029d57602091600091611d43575b506040519060030b8152f35b611d5a9150823d81116109a3576109958183612d12565b38611d37565b612bac565b5034610290576020366003190112610290576114ec6114f3826115079335600052601660205260406000200160405192838092612efc565b50346102905760003660031901126102905760026040519163f28e2c2f60e01b835282015260208160248173__$8a3883123a2a1b05b37447bdbb3fdcf5d3$__5af4801561029d5760209160009161133857506040519015158152f35b34610290576000366003190112610290576020600e54604051908152f35b34610290576000366003190112610290576001546040516001600160a01b039091168152602090f35b34610290576020366003190112610290576001600160a01b03611e62612a1d565b16600052600d6020526020604060002054604051908152f35b503461029057602036600319011261029057611e99604091356130a8565b825191825215156020820152f35b5034610290576020366003190112610290576020611ec3612a1d565b600154604051632cc52b1560e11b81526001600160a01b039283169481019490945283916024918391165afa801561029d5760209160009161133857506040519015158152f35b503461029057604036600319011261029057611f24612a33565b9035600052601160205260076040600020019060018060a01b03166000526020526020604060002054604051908152f35b34610290576020366003190112610290576001600160a01b03611f76612a1d565b16600052600b6020526020604060002054604051908152f35b503461029057602036600319011261029057611fa9612fdb565b50356000526016602052611507611fc36040600020613026565b604051918291602083526020830190612a69565b503461029057602036600319011261029057611ff1612a1d565b604051630b79b0a160e21b81526002928101929092526001600160a01b0316602482015260208160448173__$8a3883123a2a1b05b37447bdbb3fdcf5d3$__5af4801561029d5760209160009161133857506040519015158152f35b50346102905760203660031901126102905735600052601660205260a06040600020601160205260406000209060028101549160ff831661208d81612a49565b15806120f7575b156120df57600363ffffffff809460281c169201549260086120b68585612ec9565b949392015416906001925b60405194855260208501526040840152606083015215156080820152f35b600801546000925082915063ffffffff1681806120c1565b5063ffffffff8360281c161515612094565b50346102905760203660031901126102905735600052601660205260c0604060002060018060a01b0381541690600181015490600281015490600360ff831691015492604051948552602085015261216081612a49565b604084015263ffffffff90818160081c16606085015260281c16608083015260a0820152f35b5034610290576040366003190112610290576121a0612b86565b6121a8612a33565b60015490916001600160a01b039182169190823b1561029057600063ffffffff936044938296604051988997889663086ecc7960e21b885216908601521660248401525af1801561029d576111ef57005b503461029057602036600319011261029057600061012060405161221c81612cd9565b8281528260208201528260408201528260608201528260808201528260a08201528260c08201528260e08201526060610100820152015280356000526011602052604060002080549060018060a01b03600182015416906002810154600382015460ff8160401c1663ffffffff87850154926005860154948260088801541697604051996122a98b612cd9565b8a5260208a01526040890152818116606089015260201c1660808701526006811015610bba5760a086015260c085015260e08401526122ea906006016130fa565b61010083015261012082015260405190602082528051602083015260018060a01b0360208201511660408301526040810151606083015263ffffffff606082015116608083015263ffffffff60808201511660a083015260a0810151600681101561239d5782935060c083015260c081015160e083015260e081015161010083015261010081015163ffffffff610120612391610140938483880152610160870190612b36565b93015116908301520390f35b602184634e487b7160e01b6000525260246000fd5b50346102905760a0366003190112610290578035906123cf612b73565b9160643563ffffffff80821680920361029057608435908082168092036102905781600052602095601587526003826040600020541610156125f8578215801561259a575b612589578415612578578116916046831180159061256e575b61255d57600184108015612553575b612542576010548511612531576012549561245687612e70565b601255866000526011885260406000209360018501336bffffffffffffffffffffffff60a01b825416179055866002860155600385019068ffffffffffffffffff198254161790556044359084015542600584015585600884019363ffffffff199486868254161790555533600052601387526124d7866040600020612e7f565b600052601586526040600020918254916124f2818416612eb4565b16911617905560405191825283820152817fde3b47cf7da95a3cc41b86cf8717ead8d56a76ee1590481c5c4dc4d8804c40c460403393a3604051908152f35b60405163356680b760e01b81528690fd5b60405163524eff2760e01b81528690fd5b50600c841161243c565b60405163d1e95ed560e01b81528690fd5b506064831161242d565b60405163162908e360e11b81528690fd5b604051630cff23e760e01b81528690fd5b50600154604051632cc52b1560e11b81523388820152908890829060249082906001600160a01b03165afa90811561029d576000916125db575b5015612414565b6125f29150883d8a116109e3576109d58183612d12565b386125d4565b604051635aad290f60e01b81528690fd5b503461029057600036600319011261029057600260405191637fd5e70b60e01b835282015260008160248173__$8a3883123a2a1b05b37447bdbb3fdcf5d3$__5af4801561029d5761150791600091611c7c5750604051918291602083526020830190612b36565b3461029057602080600319360112610290576001600160a01b039081612695612a1d565b16806000526013825260406000206000916000918054925b83811061287a57506126be84612f39565b956126cc6040519788612d12565b848752601f19806126dc87612f39565b0160005b81811061285f57505061270b6126f587612f39565b966127036040519889612d12565b808852612f39565b01368787013760009260005b85811061279757888888604051928391604083019360408452825180955260608401948160608260051b8701019401956000905b8282106127675750505083611507949550830390850152612b02565b9193955091938480612785600193605f198c82030186528a51612a69565b9801920192018795939196949261274b565b6127a481859a999a612c81565b9054600391821b1c60005260168a52604060002083858254161480612847575b80612831575b6127e2575b50506127da90612e70565b979697612717565b95612829916127f46127da9498613026565b6127fe838d613012565b52612809828c613012565b506128148888612c81565b9054911b1c612823828b613012565b52612e70565b94908a6127cf565b5063ffffffff600282015460281c1615156127ca565b5060ff60028201541661285981612a49565b156127c4565b9780999861286b612fdb565b82828c010152019897986126e0565b6128878183989798612c81565b90549060031b1c60005260168752604060002083878254161490816128f0575b816128d9575b506128c4575b6128bc90612e70565b9594956126ad565b936128d16128bc91612e70565b9490506128b3565b63ffffffff91506002015460281c161515886128ad565b905060ff60028201541661290381612a49565b15906128a7565b34610290576000366003190112610290576020600f54604051908152f35b50346102905760203660031901126102905767ffffffffffffffff9080358281116102905736602382011215610290578082013592831161029057602492600592368583861b850101116102905760009391939173__$8a3883123a2a1b05b37447bdbb3fdcf5d3$__936303d1a1a13060201b1760401b935b8681106129aa57005b80831b82018801356001600160a01b038116919082900361029057863b15610290576040519163e63dd53160e01b8352600286840152898301528560448301526000826064818a5af491821561029d57612a0992612a0e575b50612e70565b6129a1565b612a1790612caf565b38612a03565b600435906001600160a01b038216820361029057565b602435906001600160a01b038216820361029057565b60031115612a5357565b634e487b7160e01b600052602160045260246000fd5b80516001600160a01b03168252602080820151818401526040820151909160e084019183916101009160c09190612a9f81612a49565b604088015263ffffffff806060830151166060890152608082015116608088015260a081015160a088015201519460e060c082015285518094520193019160005b828110612aee575050505090565b835185529381019392810192600101612ae0565b90815180825260208080930193019160005b828110612b22575050505090565b835185529381019392810192600101612b14565b90815180825260208080930193019160005b828110612b56575050505090565b83516001600160a01b031685529381019392810192600101612b48565b6024359063ffffffff8216820361029057565b6004359063ffffffff8216820361029057565b6044359063ffffffff8216820361029057565b34610290576000366003190112610290576020601054604051908152f35b3461029057600080600319360112612c7e576040516370a0823160e01b81523060048201526020816024817f00000000000000000000000000000000000000000000000000000000000000006001600160a01b03165afa908115612c73578291612c3a575b602082604051908152f35b90506020813d8211612c6b575b81612c5460209383612d12565b81010312612c6757602091505138612c2f565b5080fd5b3d9150612c47565b6040513d84823e3d90fd5b80fd5b8054821015612c995760005260206000200190600090565b634e487b7160e01b600052603260045260246000fd5b67ffffffffffffffff8111612cc357604052565b634e487b7160e01b600052604160045260246000fd5b610140810190811067ffffffffffffffff821117612cc357604052565b60e0810190811067ffffffffffffffff821117612cc357604052565b90601f8019910116810190811067ffffffffffffffff821117612cc357604052565b90816020910312610290575180151581036102905790565b919091606081019260028252602093606085840152600954809152608083019060096000527f6e1540171b6c0c960b71a7020d9f60077f6af931a8bbf590da0223dacf75c7af9060005b87828210612db45750505050931b6303d1a1a117604090811b910152565b83546001600160a01b031685529093019260019283019201612d96565b9081602091031261029057518060030b81036102905790565b91908203918211612df757565b634e487b7160e01b600052601160045260246000fd5b91908201809211612df757565b600260005414612e2b576002600055565b60405162461bcd60e51b815260206004820152601f60248201527f5265656e7472616e637947756172643a207265656e7472616e742063616c6c006044820152606490fd5b6000198114612df75760010190565b8054600160401b811015612cc357612e9c91600182018155612c81565b819291549060031b91821b91600019901b1916179055565b90600163ffffffff80931601918211612df757565b81810292918115918404141715612df757565b8115612ee6570490565b634e487b7160e01b600052601260045260246000fd5b90815480825260208092019260005281600020916000905b828210612f22575050505090565b835485529384019360019384019390910190612f14565b67ffffffffffffffff8111612cc35760051b60200190565b60209081818403126102905780519067ffffffffffffffff821161029057019180601f84011215610290578251612f8781612f39565b93612f956040519586612d12565b818552838086019260051b820101928311610290578301905b828210612fbc575050505090565b81516001600160a01b0381168103610290578152908301908301612fae565b60405190612fe882612cf6565b606060c0836000808252806020830152806040830152808483015280608083015260a08201520152565b8051821015612c995760209160051b010190565b90600460c060405161303781612cf6565b6130a4819560018060a01b03815416835260018101546020840152600281015460ff811661306481612a49565b604085015263ffffffff90818160081c16606086015260281c166080840152600381015460a084015261309d6040518096819301612efc565b0384612d12565b0152565b60005260166020526040600020600281015460ff81166130c781612a49565b1590816130e7575b506130dd5750600090600090565b6003015490600190565b63ffffffff915060281c161515386130cf565b9060405191828154918282526020928383019160005283600020936000905b8282106131315750505061312f92500383612d12565b565b85546001600160a01b03168452600195860195889550938101939091019061311956fea2646970667358221220700a3e019f737bb4890f806b2a6b0115ebbe73b83a4405f8bf4278023c376c7964736f6c63430008130033","opcodes":"PUSH1 0xA0 CALLVALUE PUSH3 0xC8 JUMPI PUSH1 0x1F PUSH3 0x3283 CODESIZE DUP2 SWAP1 SUB SWAP2 DUP3 ADD PUSH1 0x1F NOT AND DUP4 ADD SWAP2 PUSH1 0x1 PUSH1 0x1 PUSH1 0x40 SHL SUB DUP4 GT DUP5 DUP5 LT OR PUSH3 0xCD JUMPI DUP1 DUP5 SWAP3 PUSH1 0x40 SWAP5 DUP6 MSTORE DUP4 CODECOPY DUP2 ADD SUB SLT PUSH3 0xC8 JUMPI PUSH3 0x5A PUSH1 0x20 PUSH3 0x52 DUP4 PUSH3 0xE3 JUMP JUMPDEST SWAP3 ADD PUSH3 0xE3 JUMP JUMPDEST PUSH1 0x1 PUSH1 0x0 DUP2 SWAP1 SSTORE PUSH1 0x80 SWAP3 SWAP1 SWAP3 MSTORE DUP2 SLOAD PUSH1 0x1 PUSH1 0x1 PUSH1 0xA0 SHL SUB NOT AND PUSH1 0x1 PUSH1 0x1 PUSH1 0xA0 SHL SUB SWAP1 SWAP2 AND OR SWAP1 SSTORE PUSH3 0x278D00 PUSH1 0x8 SSTORE TIMESTAMP PUSH1 0x7 SSTORE PUSH1 0x40 MLOAD PUSH2 0x318A SWAP1 DUP2 PUSH3 0xF9 DUP3 CODECOPY PUSH1 0x80 MLOAD DUP2 DUP2 DUP2 PUSH2 0x7C3 ADD MSTORE DUP2 DUP2 PUSH2 0xCA6 ADD MSTORE DUP2 DUP2 PUSH2 0xDCA ADD MSTORE DUP2 DUP2 PUSH2 0x1293 ADD MSTORE DUP2 DUP2 PUSH2 0x16D8 ADD MSTORE PUSH2 0x2BF7 ADD MSTORE RETURN JUMPDEST PUSH1 0x0 DUP1 REVERT JUMPDEST PUSH4 0x4E487B71 PUSH1 0xE0 SHL PUSH1 0x0 MSTORE PUSH1 0x41 PUSH1 0x4 MSTORE PUSH1 0x24 PUSH1 0x0 REVERT JUMPDEST MLOAD SWAP1 PUSH1 0x1 PUSH1 0x1 PUSH1 0xA0 SHL SUB DUP3 AND DUP3 SUB PUSH3 0xC8 JUMPI JUMP INVALID PUSH1 0x80 PUSH1 0x40 MSTORE PUSH1 0x4 DUP1 CALLDATASIZE LT ISZERO PUSH2 0x13 JUMPI PUSH1 0x0 DUP1 REVERT JUMPDEST PUSH1 0x0 CALLDATALOAD PUSH1 0xE0 SHR DUP1 PUSH4 0x16C704F EQ PUSH2 0x2928 JUMPI DUP1 PUSH4 0x307C4A1 EQ PUSH2 0x290A JUMPI DUP1 PUSH4 0x3D1A1A1 EQ PUSH2 0x2671 JUMPI DUP1 PUSH4 0xBC21853 EQ PUSH2 0x2609 JUMPI DUP1 PUSH4 0x182D94B5 EQ PUSH2 0x23B2 JUMPI DUP1 PUSH4 0x1B70BA3E EQ PUSH2 0x21F9 JUMPI DUP1 PUSH4 0x21BB31E4 EQ PUSH2 0x2186 JUMPI DUP1 PUSH4 0x232869FA EQ PUSH2 0x2109 JUMPI DUP1 PUSH4 0x291C31A7 EQ PUSH2 0x1D60 JUMPI DUP1 PUSH4 0x2B31C022 EQ PUSH2 0x204D JUMPI DUP1 PUSH4 0x3403C25D EQ PUSH2 0x1FD7 JUMPI DUP1 PUSH4 0x383AB2EF EQ PUSH2 0x1F8F JUMPI DUP1 PUSH4 0x410A1D32 EQ PUSH2 0x1F55 JUMPI DUP1 PUSH4 0x4E51C7DF EQ PUSH2 0x1F0A JUMPI DUP1 PUSH4 0x598A562A EQ PUSH2 0x1EA7 JUMPI DUP1 PUSH4 0x6509A710 EQ PUSH2 0x1E7B JUMPI DUP1 PUSH4 0x657EB031 EQ PUSH2 0x1E41 JUMPI DUP1 PUSH4 0x6587EDA1 EQ PUSH2 0x1E18 JUMPI DUP1 PUSH4 0x6F9FB98A EQ PUSH2 0x14A3 JUMPI DUP1 PUSH4 0x777C658F EQ PUSH2 0x1DFA JUMPI DUP1 PUSH4 0x79103400 EQ PUSH2 0x1D9D JUMPI DUP1 PUSH4 0x7D52437A EQ PUSH2 0x1D65 JUMPI DUP1 PUSH4 0x809DAB6A EQ PUSH2 0x1D60 JUMPI DUP1 PUSH4 0x81DB2284 EQ PUSH2 0x1CD9 JUMPI DUP1 PUSH4 0x827CC0E5 EQ PUSH2 0x1C9F JUMPI DUP1 PUSH4 0x830EFD3B EQ PUSH2 0x1C13 JUMPI DUP1 PUSH4 0x84DDF5EA EQ PUSH2 0x1BF5 JUMPI DUP1 PUSH4 0x8A914A63 EQ PUSH2 0x1BB3 JUMPI DUP1 PUSH4 0x9059F9CA EQ PUSH2 0x150B JUMPI DUP1 PUSH4 0x9730872A EQ PUSH2 0x14A8 JUMPI DUP1 PUSH4 0x9785FAC8 EQ PUSH2 0x14A3 JUMPI DUP1 PUSH4 0x97C33519 EQ PUSH2 0x13AD JUMPI DUP1 PUSH4 0x9E932011 EQ PUSH2 0x1355 JUMPI DUP1 PUSH4 0xA7AF6947 EQ PUSH2 0x12C2 JUMPI DUP1 PUSH4 0xA98AD46C EQ PUSH2 0x127D JUMPI DUP1 PUSH4 0xADCEB101 EQ PUSH2 0x11FA JUMPI DUP1 PUSH4 0xB9F0FEC4 EQ PUSH2 0x116D JUMPI DUP1 PUSH4 0xBE5EB580 EQ PUSH2 0x1133 JUMPI DUP1 PUSH4 0xC269014B EQ PUSH2 0x1092 JUMPI DUP1 PUSH4 0xCCDCE44E EQ PUSH2 0xFC4 JUMPI DUP1 PUSH4 0xE2763924 EQ PUSH2 0xD0D JUMPI DUP1 PUSH4 0xEB5A662E EQ PUSH2 0xC5B JUMPI DUP1 PUSH4 0xECB18B34 EQ PUSH2 0x35C JUMPI DUP1 PUSH4 0xF0853E1D EQ PUSH2 0x2A9 JUMPI PUSH4 0xF947A8A9 EQ PUSH2 0x20C JUMPI PUSH1 0x0 DUP1 REVERT JUMPDEST CALLVALUE PUSH2 0x290 JUMPI PUSH1 0x0 CALLDATASIZE PUSH1 0x3 NOT ADD SLT PUSH2 0x290 JUMPI PUSH1 0x2 PUSH1 0x40 MLOAD SWAP2 PUSH4 0x6ECF8073 PUSH1 0xE1 SHL DUP4 MSTORE DUP3 ADD MSTORE PUSH1 0x20 DUP2 PUSH1 0x24 DUP2 PUSH20 0x0 GAS DELEGATECALL DUP1 ISZERO PUSH2 0x29D JUMPI PUSH1 0x0 SWAP1 PUSH2 0x266 JUMPI JUMPDEST PUSH1 0x20 SWAP1 PUSH1 0x40 MLOAD SWAP1 DUP2 MSTORE RETURN JUMPDEST POP PUSH1 0x20 DUP2 RETURNDATASIZE DUP3 GT PUSH2 0x295 JUMPI JUMPDEST DUP2 PUSH2 0x27F PUSH1 0x20 SWAP4 DUP4 PUSH2 0x2D12 JUMP JUMPDEST DUP2 ADD SUB SLT PUSH2 0x290 JUMPI PUSH1 0x20 SWAP1 MLOAD PUSH2 0x25B JUMP JUMPDEST PUSH1 0x0 DUP1 REVERT JUMPDEST RETURNDATASIZE SWAP2 POP PUSH2 0x272 JUMP JUMPDEST PUSH1 0x40 MLOAD RETURNDATASIZE PUSH1 0x0 DUP3 RETURNDATACOPY RETURNDATASIZE SWAP1 REVERT JUMPDEST POP CALLVALUE PUSH2 0x290 JUMPI PUSH1 0x20 SWAP1 DUP2 PUSH1 0x3 NOT CALLDATASIZE ADD SLT PUSH2 0x290 JUMPI PUSH2 0x2C5 PUSH2 0x2A1D JUMP JUMPDEST PUSH1 0x40 MLOAD PUSH4 0x15FFAE5B PUSH1 0xE2 SHL DUP2 MSTORE PUSH1 0x2 SWAP3 DUP2 ADD SWAP3 SWAP1 SWAP3 MSTORE PUSH1 0x1 PUSH1 0x1 PUSH1 0xA0 SHL SUB AND PUSH1 0x24 DUP3 ADD MSTORE DUP2 DUP2 PUSH1 0x44 DUP2 PUSH20 0x0 GAS DELEGATECALL SWAP1 DUP2 ISZERO PUSH2 0x29D JUMPI PUSH1 0x0 SWAP2 PUSH2 0x326 JUMPI JUMPDEST POP PUSH1 0x40 MLOAD SWAP1 PUSH2 0x322 DUP2 PUSH2 0x2A49 JUMP JUMPDEST DUP2 MSTORE RETURN JUMPDEST SWAP1 POP DUP2 DUP2 DUP2 RETURNDATASIZE DUP4 GT PUSH2 0x355 JUMPI JUMPDEST PUSH2 0x33D DUP2 DUP4 PUSH2 0x2D12 JUMP JUMPDEST DUP2 ADD SUB SLT PUSH2 0x290 JUMPI MLOAD PUSH1 0x3 DUP2 LT ISZERO PUSH2 0x290 JUMPI CODESIZE PUSH2 0x314 JUMP JUMPDEST POP RETURNDATASIZE PUSH2 0x333 JUMP JUMPDEST POP CALLVALUE PUSH2 0x290 JUMPI PUSH1 0x60 CALLDATASIZE PUSH1 0x3 NOT ADD SLT PUSH2 0x290 JUMPI PUSH2 0x376 PUSH2 0x2B73 JUMP JUMPDEST PUSH4 0xFFFFFFFF PUSH2 0x383 PUSH2 0x2B99 JUMP JUMPDEST AND SWAP1 DUP2 ISZERO DUP1 ISZERO PUSH2 0xBFB JUMPI JUMPDEST PUSH2 0xBEA JUMPI PUSH4 0xFFFFFFFF AND SWAP1 DUP2 ISZERO DUP1 ISZERO PUSH2 0xBE0 JUMPI JUMPDEST PUSH2 0xBCF JUMPI PUSH2 0x3AE PUSH2 0x2E1A JUMP JUMPDEST DUP3 CALLDATALOAD PUSH1 0x0 MSTORE PUSH1 0x11 PUSH1 0x20 MSTORE PUSH1 0x40 PUSH1 0x0 KECCAK256 PUSH1 0x3 DUP2 ADD SWAP1 DUP2 SLOAD PUSH1 0xFF DUP2 PUSH1 0x40 SHR AND PUSH1 0x6 DUP2 LT ISZERO PUSH2 0xBBA JUMPI DUP1 ISZERO ISZERO SWAP1 DUP2 PUSH2 0xBAE JUMPI JUMPDEST POP PUSH2 0xB9D JUMPI PUSH2 0x3F8 DUP6 PUSH4 0xFFFFFFFF PUSH1 0x64 SWAP4 PUSH1 0x20 SHR AND PUSH2 0x2E0D JUMP JUMPDEST GT PUSH2 0xB8C JUMPI PUSH2 0x40B DUP5 PUSH1 0x2 DUP4 ADD SLOAD PUSH2 0x2EC9 JUMP JUMPDEST PUSH8 0xDE0B6B3A7640000 SWAP1 DUP2 DUP2 MUL SWAP2 DUP2 DUP4 DIV EQ SWAP1 ISZERO OR ISZERO PUSH2 0xADF JUMPI PUSH9 0x56BC75E2D630FFFFF DUP2 ADD DUP1 SWAP2 GT PUSH2 0xADF JUMPI PUSH9 0x56BC75E2D63100000 SWAP1 DIV SWAP4 CALLER PUSH1 0x0 MSTORE PUSH1 0xB PUSH1 0x20 MSTORE DUP5 PUSH1 0x40 PUSH1 0x0 KECCAK256 SLOAD LT PUSH2 0xB7B JUMPI CALLER PUSH1 0x0 MSTORE PUSH1 0xB PUSH1 0x20 MSTORE PUSH1 0x40 PUSH1 0x0 KECCAK256 PUSH2 0x473 DUP7 DUP3 SLOAD PUSH2 0x2DEA JUMP JUMPDEST SWAP1 SSTORE CALLER PUSH1 0x0 MSTORE PUSH1 0x14 PUSH1 0x20 MSTORE PUSH1 0x40 PUSH1 0x0 KECCAK256 PUSH2 0x48E DUP7 DUP3 SLOAD PUSH2 0x2E0D JUMP JUMPDEST SWAP1 SSTORE DUP3 SLOAD SWAP1 PUSH4 0xFFFFFFFF DUP3 PUSH1 0x20 SHR AND ADD PUSH4 0xFFFFFFFF DUP2 GT PUSH2 0xAF4 JUMPI PUSH8 0xFFFFFFFF00000000 SWAP1 PUSH1 0x20 SHL AND SWAP1 PUSH8 0xFFFFFFFF00000000 NOT AND OR DUP3 SSTORE PUSH1 0x7 DUP2 ADD SWAP1 CALLER PUSH1 0x0 MSTORE DUP2 PUSH1 0x20 MSTORE PUSH1 0x40 PUSH1 0x0 KECCAK256 SLOAD ISZERO PUSH2 0xB22 JUMPI JUMPDEST POP CALLER PUSH1 0x0 MSTORE PUSH1 0x20 MSTORE PUSH1 0x40 PUSH1 0x0 KECCAK256 PUSH2 0x4F7 DUP5 DUP3 SLOAD PUSH2 0x2E0D JUMP JUMPDEST SWAP1 SSTORE DUP1 SLOAD PUSH4 0xFFFFFFFF DUP2 AND PUSH4 0xFFFFFFFF DUP3 PUSH1 0x20 SHR AND LT ISZERO PUSH1 0x0 EQ PUSH2 0xB09 JUMPI POP PUSH9 0x20000000000000000 PUSH1 0xFF PUSH1 0x40 SHL NOT DUP3 SLOAD AND OR SWAP1 SSTORE DUP1 PUSH1 0x0 MSTORE PUSH1 0x15 PUSH1 0x20 MSTORE PUSH1 0x40 PUSH1 0x0 KECCAK256 PUSH4 0xFFFFFFFF NOT DUP2 SLOAD AND SWAP1 SSTORE DUP3 CALLDATALOAD PUSH1 0x0 MSTORE PUSH1 0x16 PUSH1 0x20 MSTORE PUSH1 0x40 PUSH1 0x0 KECCAK256 PUSH1 0x11 PUSH1 0x20 MSTORE PUSH2 0x5F8 PUSH1 0x40 PUSH1 0x0 KECCAK256 PUSH1 0x1 DUP1 PUSH1 0xA0 SHL SUB PUSH1 0x1 DUP3 ADD SLOAD AND PUSH12 0xFFFFFFFFFFFFFFFFFFFFFFFF PUSH1 0xA0 SHL DUP5 SLOAD AND OR DUP4 SSTORE DUP6 CALLDATALOAD PUSH1 0x1 DUP5 ADD SSTORE PUSH4 0xFFFFFFFF PUSH1 0x2 DUP1 DUP6 ADD SLOAD SWAP3 PUSH1 0xFF NOT DUP5 AND DUP3 DUP8 ADD SSTORE PUSH1 0x8 DUP2 ADD SWAP4 PUSH5 0xFFFFFFFF00 DUP6 SLOAD PUSH1 0x8 SHL AND SWAP1 PUSH5 0xFFFFFFFFFF NOT AND OR DUP3 DUP8 ADD SSTORE PUSH2 0x5ED DUP4 DUP6 SLOAD AND DUP4 DUP9 ADD SWAP1 PUSH9 0xFFFFFFFF0000000000 DUP3 SLOAD SWAP2 PUSH1 0x28 SHL AND SWAP1 PUSH9 0xFFFFFFFF0000000000 NOT AND OR SWAP1 SSTORE JUMP JUMPDEST ADD SLOAD SWAP2 SLOAD AND SWAP1 PUSH2 0x2EDC JUMP JUMPDEST PUSH1 0x3 DUP3 ADD SSTORE DUP4 CALLDATALOAD PUSH1 0x0 MSTORE PUSH1 0x11 PUSH1 0x20 MSTORE PUSH4 0xFFFFFFFF PUSH1 0x8 PUSH1 0x40 PUSH1 0x0 KECCAK256 ADD SLOAD AND PUSH1 0x0 JUMPDEST DUP2 PUSH4 0xFFFFFFFF DUP3 AND LT PUSH2 0xA91 JUMPI POP POP PUSH1 0x1 DUP1 PUSH1 0xA0 SHL SUB DUP2 SLOAD AND PUSH32 0x5215406E88F26EED4728B9CDFC5D85CEA75799101CB9387B528451E6E0878DEC PUSH1 0x2 DUP4 ADD SLOAD PUSH1 0xFF DUP2 AND SWAP1 PUSH4 0xFFFFFFFF PUSH1 0x3 DUP7 ADD SLOAD SWAP2 PUSH1 0x40 MLOAD SWAP4 PUSH2 0x675 DUP2 PUSH2 0x2A49 JUMP JUMPDEST DUP5 MSTORE PUSH1 0x28 SHR AND PUSH1 0x20 DUP4 ADD MSTORE PUSH1 0x40 DUP3 ADD MSTORE PUSH1 0x80 PUSH1 0x60 DUP3 ADD MSTORE DUP1 PUSH2 0x69F DUP9 CALLDATALOAD SWAP6 DUP10 PUSH1 0x80 DUP5 ADD SWAP2 ADD PUSH2 0x2EFC JUMP JUMPDEST SUB SWAP1 LOG3 DUP3 CALLDATALOAD PUSH1 0x0 MSTORE PUSH1 0x11 PUSH1 0x20 MSTORE PUSH1 0x40 PUSH1 0x0 KECCAK256 PUSH1 0x1 DUP1 PUSH1 0xA0 SHL SUB PUSH1 0x1 DUP3 ADD SLOAD AND SWAP1 DUP2 PUSH1 0x0 MSTORE PUSH1 0xA PUSH1 0x20 MSTORE PUSH1 0xFF PUSH1 0x40 PUSH1 0x0 KECCAK256 SLOAD AND ISZERO PUSH2 0x9F9 JUMPI JUMPDEST PUSH1 0x3 PUSH1 0x2 DUP3 ADD SWAP2 DUP3 SLOAD PUSH1 0xC PUSH1 0x20 MSTORE PUSH2 0x6F5 PUSH1 0x40 PUSH1 0x0 KECCAK256 SWAP2 DUP3 SLOAD PUSH2 0x2E0D JUMP JUMPDEST SWAP1 SSTORE PUSH2 0x704 DUP4 SLOAD PUSH1 0xF SLOAD PUSH2 0x2E0D JUMP JUMPDEST PUSH1 0xF SSTORE PUSH2 0x714 DUP4 SLOAD PUSH1 0x10 SLOAD PUSH2 0x2DEA JUMP JUMPDEST PUSH1 0x10 SSTORE DUP4 PUSH1 0x0 MSTORE PUSH1 0xD PUSH1 0x20 MSTORE TIMESTAMP PUSH1 0x40 PUSH1 0x0 KECCAK256 SSTORE ADD PUSH9 0x30000000000000000 PUSH1 0xFF PUSH1 0x40 SHL NOT DUP3 SLOAD AND OR SWAP1 SSTORE PUSH20 0x0 DUP1 EXTCODESIZE ISZERO PUSH2 0x290 JUMPI PUSH1 0x0 PUSH1 0x64 SWAP2 PUSH1 0x40 MLOAD SWAP3 DUP4 DUP1 SWAP3 PUSH4 0xE63DD531 PUSH1 0xE0 SHL DUP3 MSTORE PUSH1 0x2 DUP12 DUP4 ADD MSTORE DUP8 PUSH1 0x24 DUP4 ADD MSTORE PUSH4 0x3D1A1A1 ADDRESS PUSH1 0x20 SHL OR PUSH1 0x40 SHL PUSH1 0x44 DUP4 ADD MSTORE GAS DELEGATECALL DUP1 ISZERO PUSH2 0x29D JUMPI PUSH2 0x9EA JUMPI JUMPDEST POP DUP1 SLOAD PUSH1 0x40 MLOAD PUSH4 0xA9059CBB PUSH1 0xE0 SHL DUP2 MSTORE DUP7 DUP2 ADD DUP5 SWAP1 MSTORE PUSH1 0x24 DUP2 ADD SWAP2 SWAP1 SWAP2 MSTORE PUSH1 0x20 DUP2 PUSH1 0x44 DUP2 PUSH1 0x0 PUSH32 0x0 PUSH1 0x1 PUSH1 0x1 PUSH1 0xA0 SHL SUB AND GAS CALL SWAP1 DUP2 ISZERO PUSH2 0x29D JUMPI PUSH1 0x0 SWAP2 PUSH2 0x9BB JUMPI JUMPDEST POP ISZERO PUSH2 0x9AA JUMPI PUSH1 0x40 PUSH32 0xEAE9CFBC77FDD40CA899F36B608256063B2BC9D8178B0220F7AD513E178D6730 SWAP2 SLOAD DUP4 PUSH1 0x0 MSTORE PUSH1 0xC PUSH1 0x20 MSTORE DUP2 PUSH1 0x0 KECCAK256 SLOAD DUP3 MLOAD SWAP2 DUP3 MSTORE PUSH1 0x20 DUP3 ADD MSTORE LOG2 PUSH32 0x17F13FD3F7C4712AF33F1770EBCB822DD20A2DBC00850EAB48D786623D97B959 PUSH1 0x20 PUSH1 0xF SLOAD PUSH1 0x40 MLOAD SWAP1 DUP2 MSTORE LOG1 PUSH32 0x8B094CCA6F83D49402CE208CC0C224B76625FFC58636DF56AE28024E704C5868 PUSH1 0x20 PUSH1 0x10 SLOAD PUSH1 0x40 MLOAD SWAP1 DUP2 MSTORE LOG1 DUP3 CALLDATALOAD PUSH32 0x9E71D2FB732E68272B7E74ECFD14638673C1D77E19A5D390A3FFFF054D57C44B PUSH1 0x0 DUP1 LOG2 JUMPDEST PUSH1 0x1 SLOAD PUSH1 0x40 MLOAD PUSH4 0x6ADF4625 PUSH1 0xE1 SHL DUP2 MSTORE PUSH1 0x1 PUSH1 0x1 PUSH1 0xA0 SHL SUB SWAP1 SWAP2 AND SWAP2 SWAP1 PUSH1 0x20 DUP2 DUP7 DUP2 DUP7 GAS STATICCALL SWAP1 DUP2 ISZERO PUSH2 0x29D JUMPI PUSH1 0x0 SWAP2 PUSH2 0x97B JUMPI JUMPDEST POP DUP3 EXTCODESIZE ISZERO PUSH2 0x290 JUMPI PUSH1 0x64 PUSH1 0x0 SWAP3 DUP4 PUSH1 0x40 MLOAD SWAP6 DUP7 SWAP5 DUP6 SWAP4 PUSH4 0x533DFA35 PUSH1 0xE0 SHL DUP6 MSTORE DUP11 DUP6 ADD MSTORE PUSH1 0x3 SIGNEXTEND PUSH1 0x24 DUP5 ADD MSTORE PUSH1 0x1 PUSH1 0x44 DUP5 ADD MSTORE GAS CALL DUP1 ISZERO PUSH2 0x29D JUMPI PUSH2 0x96C JUMPI JUMPDEST POP PUSH1 0x40 MLOAD SWAP1 DUP2 MSTORE PUSH32 0x86B47E6E6C03D769C0BC5FFD06C682EA7D07089576D59230EC18FF64E71BFFE7 PUSH1 0x20 CALLER SWAP4 CALLDATALOAD SWAP3 LOG3 PUSH1 0x1 PUSH1 0x0 SSTORE STOP JUMPDEST PUSH2 0x975 SWAP1 PUSH2 0x2CAF JUMP JUMPDEST CODESIZE PUSH2 0x936 JUMP JUMPDEST PUSH2 0x99D SWAP2 POP PUSH1 0x20 RETURNDATASIZE PUSH1 0x20 GT PUSH2 0x9A3 JUMPI JUMPDEST PUSH2 0x995 DUP2 DUP4 PUSH2 0x2D12 JUMP JUMPDEST DUP2 ADD SWAP1 PUSH2 0x2DD1 JUMP JUMPDEST CODESIZE PUSH2 0x8F6 JUMP JUMPDEST POP RETURNDATASIZE PUSH2 0x98B JUMP JUMPDEST PUSH1 0x40 MLOAD PUSH4 0x22E2581 PUSH1 0xE1 SHL DUP2 MSTORE DUP6 SWAP1 REVERT JUMPDEST PUSH2 0x9DD SWAP2 POP PUSH1 0x20 RETURNDATASIZE PUSH1 0x20 GT PUSH2 0x9E3 JUMPI JUMPDEST PUSH2 0x9D5 DUP2 DUP4 PUSH2 0x2D12 JUMP JUMPDEST DUP2 ADD SWAP1 PUSH2 0x2D34 JUMP JUMPDEST CODESIZE PUSH2 0x7FC JUMP JUMPDEST POP RETURNDATASIZE PUSH2 0x9CB JUMP JUMPDEST PUSH2 0x9F3 SWAP1 PUSH2 0x2CAF JUMP JUMPDEST CODESIZE PUSH2 0x79B JUMP JUMPDEST PUSH1 0x9 SLOAD PUSH1 0x1 PUSH1 0x40 SHL DUP2 LT ISZERO PUSH2 0xA7C JUMPI PUSH1 0x1 DUP2 ADD DUP1 PUSH1 0x9 SSTORE DUP2 LT ISZERO PUSH2 0xA67 JUMPI PUSH32 0x6E1540171B6C0C960B71A7020D9F60077F6AF931A8BBF590DA0223DACF75C7AF ADD DUP1 SLOAD PUSH1 0x1 PUSH1 0x1 PUSH1 0xA0 SHL SUB NOT AND DUP4 OR SWAP1 SSTORE PUSH1 0x0 DUP3 DUP2 MSTORE PUSH1 0xA PUSH1 0x20 MSTORE PUSH1 0x40 SWAP1 KECCAK256 DUP1 SLOAD PUSH1 0xFF NOT AND PUSH1 0x1 OR SWAP1 SSTORE PUSH2 0x6D7 JUMP JUMPDEST PUSH1 0x32 DUP7 PUSH4 0x4E487B71 PUSH1 0xE0 SHL PUSH1 0x0 MSTORE MSTORE PUSH1 0x24 PUSH1 0x0 REVERT JUMPDEST PUSH1 0x41 DUP7 PUSH4 0x4E487B71 PUSH1 0xE0 SHL PUSH1 0x0 MSTORE MSTORE PUSH1 0x24 PUSH1 0x0 REVERT JUMPDEST PUSH4 0xFFFFFFFF PUSH2 0xA9F DUP3 PUSH2 0x2EB4 JUMP JUMPDEST AND PUSH3 0x278D00 SWAP1 DUP1 DUP3 MUL SWAP2 DUP3 DIV SUB PUSH2 0xAF4 JUMPI SWAP1 PUSH2 0xACB PUSH2 0xAC3 PUSH4 0xFFFFFFFF SWAP4 TIMESTAMP PUSH2 0x2E0D JUMP JUMPDEST DUP9 DUP7 ADD PUSH2 0x2E7F JUMP JUMPDEST AND PUSH4 0xFFFFFFFF DUP2 EQ PUSH2 0xADF JUMPI PUSH1 0x1 ADD PUSH2 0x619 JUMP JUMPDEST PUSH1 0x11 DUP7 PUSH4 0x4E487B71 PUSH1 0xE0 SHL PUSH1 0x0 MSTORE MSTORE PUSH1 0x24 PUSH1 0x0 REVERT JUMPDEST PUSH1 0x11 DUP8 PUSH4 0x4E487B71 PUSH1 0xE0 SHL PUSH1 0x0 MSTORE MSTORE PUSH1 0x24 PUSH1 0x0 REVERT JUMPDEST PUSH9 0xFF0000000000000000 NOT AND PUSH1 0x1 PUSH1 0x40 SHL OR SWAP1 SSTORE PUSH2 0x8C2 JUMP JUMPDEST PUSH1 0x6 ADD DUP1 SLOAD SWAP1 PUSH1 0x1 PUSH1 0x40 SHL DUP3 LT ISZERO PUSH2 0xB66 JUMPI SWAP1 PUSH2 0xB44 SWAP2 PUSH1 0x1 DUP3 ADD DUP2 SSTORE PUSH2 0x2C81 JUMP JUMPDEST DUP2 SLOAD PUSH1 0x1 PUSH1 0x1 PUSH1 0xA0 SHL SUB PUSH1 0x3 SWAP3 SWAP1 SWAP3 SHL SWAP2 DUP3 SHL NOT AND CALLER SWAP1 SWAP2 SHL OR SWAP1 SSTORE CODESIZE PUSH2 0x4DF JUMP JUMPDEST PUSH1 0x41 DUP8 PUSH4 0x4E487B71 PUSH1 0xE0 SHL PUSH1 0x0 MSTORE MSTORE PUSH1 0x24 PUSH1 0x0 REVERT JUMPDEST PUSH1 0x40 MLOAD PUSH4 0x391ACF1 PUSH1 0xE6 SHL DUP2 MSTORE DUP7 SWAP1 REVERT JUMPDEST PUSH1 0x40 MLOAD PUSH4 0x955F95AD PUSH1 0xE0 SHL DUP2 MSTORE DUP6 SWAP1 REVERT JUMPDEST PUSH1 0x40 MLOAD PUSH4 0x80B9CB09 PUSH1 0xE0 SHL DUP2 MSTORE DUP7 SWAP1 REVERT JUMPDEST PUSH1 0x1 SWAP2 POP EQ ISZERO CODESIZE PUSH2 0x3DE JUMP JUMPDEST PUSH1 0x21 DUP8 PUSH4 0x4E487B71 PUSH1 0xE0 SHL PUSH1 0x0 MSTORE MSTORE PUSH1 0x24 PUSH1 0x0 REVERT JUMPDEST PUSH1 0x40 MLOAD PUSH4 0xD1E95ED5 PUSH1 0xE0 SHL DUP2 MSTORE DUP4 SWAP1 REVERT JUMPDEST POP PUSH1 0x64 DUP3 GT PUSH2 0x3A2 JUMP JUMPDEST PUSH1 0x40 MLOAD PUSH4 0xCFF23E7 PUSH1 0xE0 SHL DUP2 MSTORE DUP4 SWAP1 REVERT JUMPDEST POP PUSH1 0x1 SLOAD PUSH1 0x40 MLOAD PUSH4 0x2CC52B15 PUSH1 0xE1 SHL DUP2 MSTORE CALLER DUP6 DUP3 ADD MSTORE SWAP1 PUSH1 0x20 SWAP1 DUP3 SWAP1 PUSH1 0x24 SWAP1 DUP3 SWAP1 PUSH1 0x1 PUSH1 0x1 PUSH1 0xA0 SHL SUB AND GAS STATICCALL SWAP1 DUP2 ISZERO PUSH2 0x29D JUMPI PUSH1 0x0 SWAP2 PUSH2 0xC3D JUMPI JUMPDEST POP ISZERO PUSH2 0x38E JUMP JUMPDEST PUSH2 0xC55 SWAP2 POP PUSH1 0x20 RETURNDATASIZE DUP2 GT PUSH2 0x9E3 JUMPI PUSH2 0x9D5 DUP2 DUP4 PUSH2 0x2D12 JUMP JUMPDEST CODESIZE PUSH2 0xC36 JUMP JUMPDEST POP CALLVALUE PUSH2 0x290 JUMPI PUSH1 0x20 SWAP1 DUP2 PUSH1 0x3 NOT CALLDATASIZE ADD SLT PUSH2 0x290 JUMPI DUP2 PUSH2 0xC78 PUSH2 0x2A1D JUMP JUMPDEST PUSH1 0x40 MLOAD PUSH4 0x6EB1769F PUSH1 0xE1 SHL DUP2 MSTORE PUSH1 0x1 PUSH1 0x1 PUSH1 0xA0 SHL SUB SWAP2 DUP3 AND SWAP4 DUP2 ADD SWAP4 SWAP1 SWAP4 MSTORE ADDRESS PUSH1 0x24 DUP5 ADD MSTORE DUP3 SWAP1 PUSH1 0x44 SWAP1 DUP3 SWAP1 PUSH32 0x0 AND GAS STATICCALL SWAP1 DUP2 ISZERO PUSH2 0x29D JUMPI PUSH1 0x0 SWAP2 PUSH2 0xCE0 JUMPI JUMPDEST POP PUSH1 0x40 MLOAD SWAP1 DUP2 MSTORE RETURN JUMPDEST SWAP1 POP DUP2 DUP2 DUP2 RETURNDATASIZE DUP4 GT PUSH2 0xD06 JUMPI JUMPDEST PUSH2 0xCF7 DUP2 DUP4 PUSH2 0x2D12 JUMP JUMPDEST DUP2 ADD SUB SLT PUSH2 0x290 JUMPI MLOAD CODESIZE PUSH2 0xCD7 JUMP JUMPDEST POP RETURNDATASIZE PUSH2 0xCED JUMP JUMPDEST POP CALLVALUE PUSH2 0x290 JUMPI PUSH1 0x40 CALLDATASIZE PUSH1 0x3 NOT ADD SLT PUSH2 0x290 JUMPI DUP1 CALLDATALOAD SWAP1 PUSH4 0xFFFFFFFF PUSH2 0xD2F PUSH2 0x2B73 JUMP JUMPDEST AND ISZERO DUP1 ISZERO PUSH2 0xF64 JUMPI JUMPDEST PUSH2 0xF55 JUMPI DUP2 ISZERO PUSH2 0xF46 JUMPI PUSH2 0xD4A PUSH2 0x2E1A JUMP JUMPDEST PUSH1 0x40 MLOAD PUSH4 0xC47AB3D PUSH1 0xE2 SHL DUP2 MSTORE PUSH1 0x20 SWAP2 SWAP1 DUP3 DUP2 DUP1 PUSH2 0xD6A ADDRESS DUP7 DUP4 ADD PUSH2 0x2D4C JUMP JUMPDEST SUB DUP2 PUSH20 0x0 GAS DELEGATECALL DUP1 ISZERO PUSH2 0x29D JUMPI PUSH2 0xF29 JUMPI JUMPDEST POP PUSH3 0x4C4B40 DUP4 GT PUSH2 0xF1A JUMPI PUSH1 0x40 DUP1 MLOAD PUSH4 0x23B872DD PUSH1 0xE0 SHL DUP2 MSTORE CALLER DUP4 DUP3 ADD SWAP1 DUP2 MSTORE ADDRESS PUSH1 0x20 DUP3 ADD MSTORE SWAP2 DUP3 ADD DUP6 SWAP1 MSTORE SWAP1 DUP4 SWAP1 DUP3 SWAP1 DUP2 SWAP1 PUSH1 0x60 ADD SUB DUP2 PUSH1 0x0 PUSH32 0x0 PUSH1 0x1 PUSH1 0x1 PUSH1 0xA0 SHL SUB AND GAS CALL SWAP1 DUP2 ISZERO PUSH2 0x29D JUMPI PUSH1 0x0 SWAP2 PUSH2 0xEFD JUMPI JUMPDEST POP ISZERO PUSH2 0xEEE JUMPI POP PUSH32 0x8B094CCA6F83D49402CE208CC0C224B76625FFC58636DF56AE28024E704C5868 SWAP1 CALLER PUSH1 0x0 MSTORE PUSH1 0xB DUP2 MSTORE PUSH1 0x40 PUSH1 0x0 KECCAK256 PUSH32 0xDC6E73D4B36E22AB95945BD8833A5AF96C950EB29D8D75C4AECFFC987637AAAB DUP3 DUP3 SLOAD SWAP6 DUP1 DUP8 ADD DUP5 SSTORE DUP1 PUSH1 0xE SLOAD ADD SWAP1 DUP2 PUSH1 0xE SSTORE DUP1 PUSH1 0x10 SLOAD ADD SWAP5 DUP6 PUSH1 0x10 SSTORE SLOAD PUSH1 0x40 MLOAD SWAP2 DUP3 MSTORE DUP4 DUP3 ADD MSTORE PUSH32 0x4928895BA6723E8E27B15F32E4C3054A1B6C7F8C03F133558D6FA42B3928D14C PUSH1 0x40 CALLER SWAP3 LOG2 PUSH1 0x40 MLOAD SWAP1 DUP2 MSTORE LOG1 PUSH1 0x40 MLOAD SWAP1 DUP2 MSTORE LOG1 ISZERO PUSH2 0xEC3 JUMPI JUMPDEST PUSH1 0x1 PUSH1 0x0 SSTORE STOP JUMPDEST CALLER PUSH32 0x72DAFB6AABE3F02118BC607EFBEAAA104D6B2009720C7B130F24BA418689C4B PUSH1 0x0 DUP1 LOG2 PUSH2 0xEBC JUMP JUMPDEST PUSH1 0x40 MLOAD PUSH4 0x22E2581 PUSH1 0xE1 SHL DUP2 MSTORE REVERT JUMPDEST PUSH2 0xF14 SWAP2 POP DUP4 RETURNDATASIZE DUP6 GT PUSH2 0x9E3 JUMPI PUSH2 0x9D5 DUP2 DUP4 PUSH2 0x2D12 JUMP JUMPDEST CODESIZE PUSH2 0xE03 JUMP JUMPDEST PUSH1 0x40 MLOAD PUSH4 0x30FDF8DB PUSH1 0xE1 SHL DUP2 MSTORE REVERT JUMPDEST PUSH2 0xF3F SWAP1 DUP4 RETURNDATASIZE DUP6 GT PUSH2 0x9E3 JUMPI PUSH2 0x9D5 DUP2 DUP4 PUSH2 0x2D12 JUMP JUMPDEST POP CODESIZE PUSH2 0xD8E JUMP JUMPDEST PUSH1 0x40 MLOAD PUSH4 0x162908E3 PUSH1 0xE1 SHL DUP2 MSTORE REVERT JUMPDEST PUSH1 0x40 MLOAD PUSH4 0xCFF23E7 PUSH1 0xE0 SHL DUP2 MSTORE REVERT JUMPDEST POP PUSH1 0x1 SLOAD PUSH1 0x40 MLOAD PUSH4 0x2CC52B15 PUSH1 0xE1 SHL DUP2 MSTORE CALLER DUP4 DUP3 ADD MSTORE SWAP1 PUSH1 0x20 SWAP1 DUP3 SWAP1 PUSH1 0x24 SWAP1 DUP3 SWAP1 PUSH1 0x1 PUSH1 0x1 PUSH1 0xA0 SHL SUB AND GAS STATICCALL SWAP1 DUP2 ISZERO PUSH2 0x29D JUMPI PUSH1 0x0 SWAP2 PUSH2 0xFA6 JUMPI JUMPDEST POP ISZERO PUSH2 0xD38 JUMP JUMPDEST PUSH2 0xFBE SWAP2 POP PUSH1 0x20 RETURNDATASIZE DUP2 GT PUSH2 0x9E3 JUMPI PUSH2 0x9D5 DUP2 DUP4 PUSH2 0x2D12 JUMP JUMPDEST CODESIZE PUSH2 0xF9F JUMP JUMPDEST POP CALLVALUE PUSH2 0x290 JUMPI PUSH1 0x0 CALLDATASIZE PUSH1 0x3 NOT ADD SLT PUSH2 0x290 JUMPI PUSH2 0xFDE PUSH2 0x2E1A JUMP JUMPDEST PUSH1 0x40 MLOAD PUSH4 0xC47AB3D PUSH1 0xE2 SHL DUP2 MSTORE PUSH1 0x20 DUP2 DUP1 PUSH2 0xFFB ADDRESS DUP7 DUP4 ADD PUSH2 0x2D4C JUMP JUMPDEST SUB DUP2 PUSH20 0x0 GAS DELEGATECALL SWAP1 DUP2 ISZERO PUSH2 0x29D JUMPI PUSH1 0x0 SWAP2 PUSH2 0x1074 JUMPI JUMPDEST POP ISZERO PUSH2 0x1030 JUMPI PUSH1 0x1 PUSH1 0x0 SSTORE STOP JUMPDEST PUSH1 0x64 SWAP1 PUSH1 0x20 PUSH1 0x40 MLOAD SWAP2 PUSH3 0x461BCD PUSH1 0xE5 SHL DUP4 MSTORE DUP3 ADD MSTORE PUSH1 0x1A PUSH1 0x24 DUP3 ADD MSTORE PUSH32 0x4D6F6E74686C7920757064617465206E6F742064756520796574000000000000 PUSH1 0x44 DUP3 ADD MSTORE REVERT JUMPDEST PUSH2 0x108C SWAP2 POP PUSH1 0x20 RETURNDATASIZE DUP2 GT PUSH2 0x9E3 JUMPI PUSH2 0x9D5 DUP2 DUP4 PUSH2 0x2D12 JUMP JUMPDEST CODESIZE PUSH2 0x1023 JUMP JUMPDEST POP CALLVALUE PUSH2 0x290 JUMPI PUSH1 0x20 SWAP1 DUP2 PUSH1 0x3 NOT CALLDATASIZE ADD SLT PUSH2 0x290 JUMPI DUP2 PUSH2 0x10AF PUSH2 0x2A1D JUMP JUMPDEST PUSH1 0x1 SLOAD PUSH1 0x40 MLOAD PUSH4 0xC269014B PUSH1 0xE0 SHL DUP2 MSTORE PUSH1 0x1 PUSH1 0x1 PUSH1 0xA0 SHL SUB SWAP3 DUP4 AND SWAP5 DUP2 ADD SWAP5 SWAP1 SWAP5 MSTORE DUP4 SWAP2 PUSH1 0x24 SWAP2 DUP4 SWAP2 AND GAS STATICCALL SWAP1 DUP2 ISZERO PUSH2 0x29D JUMPI PUSH1 0x0 SWAP2 PUSH2 0x10F9 JUMPI JUMPDEST POP PUSH4 0xFFFFFFFF PUSH1 0x40 MLOAD SWAP2 AND DUP2 MSTORE RETURN JUMPDEST SWAP1 POP DUP2 DUP2 DUP2 RETURNDATASIZE DUP4 GT PUSH2 0x112C JUMPI JUMPDEST PUSH2 0x1110 DUP2 DUP4 PUSH2 0x2D12 JUMP JUMPDEST DUP2 ADD SUB SLT PUSH2 0x290 JUMPI MLOAD PUSH4 0xFFFFFFFF DUP2 AND DUP2 SUB PUSH2 0x290 JUMPI CODESIZE PUSH2 0x10EA JUMP JUMPDEST POP RETURNDATASIZE PUSH2 0x1106 JUMP JUMPDEST CALLVALUE PUSH2 0x290 JUMPI PUSH1 0x20 CALLDATASIZE PUSH1 0x3 NOT ADD SLT PUSH2 0x290 JUMPI PUSH1 0x1 PUSH1 0x1 PUSH1 0xA0 SHL SUB PUSH2 0x1154 PUSH2 0x2A1D JUMP JUMPDEST AND PUSH1 0x0 MSTORE PUSH1 0xC PUSH1 0x20 MSTORE PUSH1 0x20 PUSH1 0x40 PUSH1 0x0 KECCAK256 SLOAD PUSH1 0x40 MLOAD SWAP1 DUP2 MSTORE RETURN JUMPDEST POP CALLVALUE PUSH2 0x290 JUMPI PUSH1 0x20 CALLDATASIZE PUSH1 0x3 NOT ADD SLT PUSH2 0x290 JUMPI PUSH2 0x1187 PUSH2 0x2A1D JUMP JUMPDEST SWAP1 PUSH20 0x0 SWAP1 DUP2 EXTCODESIZE ISZERO PUSH2 0x290 JUMPI PUSH1 0x64 PUSH1 0x2 SWAP2 PUSH1 0x0 SWAP4 PUSH1 0x40 MLOAD SWAP6 DUP7 SWAP5 DUP6 SWAP4 PUSH4 0xE63DD531 PUSH1 0xE0 SHL DUP6 MSTORE DUP5 ADD MSTORE PUSH1 0x1 DUP1 PUSH1 0xA0 SHL SUB AND PUSH1 0x24 DUP4 ADD MSTORE PUSH4 0x3D1A1A1 ADDRESS PUSH1 0x20 SHL OR PUSH1 0x40 SHL PUSH1 0x44 DUP4 ADD MSTORE GAS DELEGATECALL DUP1 ISZERO PUSH2 0x29D JUMPI PUSH2 0x11EF JUMPI STOP JUMPDEST PUSH2 0x11F8 SWAP1 PUSH2 0x2CAF JUMP JUMPDEST STOP JUMPDEST POP CALLVALUE PUSH2 0x290 JUMPI PUSH1 0x40 CALLDATASIZE PUSH1 0x3 NOT ADD SLT PUSH2 0x290 JUMPI PUSH1 0x20 SWAP1 PUSH2 0x1217 PUSH2 0x2A33 JUMP JUMPDEST SWAP1 CALLDATALOAD PUSH1 0x0 MSTORE PUSH1 0x16 DUP3 MSTORE PUSH1 0x40 PUSH1 0x0 KECCAK256 SWAP1 PUSH1 0x1 DUP1 PUSH1 0xA0 SHL SUB DUP1 DUP4 SLOAD AND SWAP2 AND EQ SWAP1 DUP2 PUSH2 0x1263 JUMPI JUMPDEST DUP2 PUSH2 0x124C JUMPI JUMPDEST POP PUSH1 0x40 MLOAD SWAP1 ISZERO ISZERO DUP2 MSTORE RETURN JUMPDEST PUSH4 0xFFFFFFFF SWAP2 POP PUSH1 0x2 ADD SLOAD PUSH1 0x28 SHR AND ISZERO ISZERO CODESIZE PUSH2 0x1241 JUMP JUMPDEST SWAP1 POP PUSH1 0xFF PUSH1 0x2 DUP3 ADD SLOAD AND PUSH2 0x1276 DUP2 PUSH2 0x2A49 JUMP JUMPDEST ISZERO SWAP1 PUSH2 0x123B JUMP JUMPDEST CALLVALUE PUSH2 0x290 JUMPI PUSH1 0x0 CALLDATASIZE PUSH1 0x3 NOT ADD SLT PUSH2 0x290 JUMPI PUSH1 0x40 MLOAD PUSH32 0x0 PUSH1 0x1 PUSH1 0x1 PUSH1 0xA0 SHL SUB AND DUP2 MSTORE PUSH1 0x20 SWAP1 RETURN JUMPDEST POP CALLVALUE PUSH2 0x290 JUMPI PUSH1 0x20 CALLDATASIZE PUSH1 0x3 NOT ADD SLT PUSH2 0x290 JUMPI PUSH2 0x12DC PUSH2 0x2A1D JUMP JUMPDEST PUSH1 0x40 MLOAD PUSH4 0x2DE5E9BF PUSH1 0xE0 SHL DUP2 MSTORE PUSH1 0x2 SWAP3 DUP2 ADD SWAP3 SWAP1 SWAP3 MSTORE PUSH1 0x1 PUSH1 0x1 PUSH1 0xA0 SHL SUB AND PUSH1 0x24 DUP3 ADD MSTORE PUSH1 0x20 DUP2 PUSH1 0x44 DUP2 PUSH20 0x0 GAS DELEGATECALL DUP1 ISZERO PUSH2 0x29D JUMPI PUSH1 0x20 SWAP2 PUSH1 0x0 SWAP2 PUSH2 0x1338 JUMPI POP PUSH1 0x40 MLOAD SWAP1 ISZERO ISZERO DUP2 MSTORE RETURN JUMPDEST PUSH2 0x134F SWAP2 POP DUP3 RETURNDATASIZE DUP2 GT PUSH2 0x9E3 JUMPI PUSH2 0x9D5 DUP2 DUP4 PUSH2 0x2D12 JUMP JUMPDEST CODESIZE PUSH2 0x1241 JUMP JUMPDEST CALLVALUE PUSH2 0x290 JUMPI PUSH1 0x40 CALLDATASIZE PUSH1 0x3 NOT ADD SLT PUSH2 0x290 JUMPI PUSH2 0x136E PUSH2 0x2A1D JUMP JUMPDEST PUSH1 0x1 PUSH1 0x1 PUSH1 0xA0 SHL SUB AND PUSH1 0x0 SWAP1 DUP2 MSTORE PUSH1 0x13 PUSH1 0x20 MSTORE PUSH1 0x40 SWAP1 KECCAK256 DUP1 SLOAD PUSH1 0x24 CALLDATALOAD SWAP2 SWAP1 DUP3 LT ISZERO PUSH2 0x290 JUMPI PUSH1 0x20 SWAP2 PUSH2 0x139F SWAP2 PUSH2 0x2C81 JUMP JUMPDEST SWAP1 SLOAD PUSH1 0x40 MLOAD SWAP2 PUSH1 0x3 SHL SHR DUP2 MSTORE RETURN JUMPDEST POP CALLVALUE PUSH2 0x290 JUMPI PUSH1 0x40 CALLDATASIZE PUSH1 0x3 NOT ADD SLT PUSH2 0x290 JUMPI PUSH2 0x13C7 PUSH2 0x2A1D JUMP JUMPDEST PUSH1 0x24 CALLDATALOAD SWAP1 DUP2 ISZERO ISZERO SWAP2 DUP3 PUSH2 0x1496 JUMPI JUMPDEST POP DUP2 PUSH2 0x1458 JUMPI JUMPDEST DUP2 PUSH2 0x13EF JUMPI JUMPDEST PUSH1 0x20 DUP3 PUSH1 0x40 MLOAD SWAP1 ISZERO ISZERO DUP2 MSTORE RETURN JUMPDEST PUSH1 0x1 PUSH1 0x1 PUSH1 0xA0 SHL SUB AND PUSH1 0x0 DUP2 DUP2 MSTORE PUSH1 0xD PUSH1 0x20 MSTORE PUSH1 0x40 SWAP1 KECCAK256 SLOAD SWAP1 SWAP3 PUSH3 0x93A80 DUP3 ADD SWAP3 POP SWAP1 DUP3 LT PUSH2 0x1443 JUMPI POP TIMESTAMP GT DUP1 ISZERO PUSH2 0x142C JUMPI JUMPDEST PUSH1 0x20 SWAP2 POP CODESIZE PUSH2 0x13E2 JUMP JUMPDEST POP PUSH1 0x0 MSTORE PUSH1 0xC PUSH1 0x20 MSTORE PUSH1 0x20 PUSH1 0x40 PUSH1 0x0 KECCAK256 SLOAD ISZERO PUSH2 0x1422 JUMP JUMPDEST PUSH1 0x11 SWAP1 PUSH4 0x4E487B71 PUSH1 0xE0 SHL PUSH1 0x0 MSTORE MSTORE PUSH1 0x24 PUSH1 0x0 REVERT JUMPDEST SWAP1 POP PUSH1 0x1 DUP1 PUSH1 0xA0 SHL SUB DUP2 AND PUSH1 0x0 MSTORE PUSH1 0xB PUSH1 0x20 MSTORE PUSH3 0xF4240 PUSH1 0x40 PUSH1 0x0 KECCAK256 SLOAD LT DUP1 ISZERO SWAP1 PUSH2 0x1484 JUMPI JUMPDEST SWAP1 PUSH2 0x13DC JUMP JUMPDEST POP PUSH1 0xC PUSH1 0x20 MSTORE PUSH1 0x40 PUSH1 0x0 KECCAK256 SLOAD ISZERO PUSH2 0x147E JUMP JUMPDEST PUSH1 0x10 SLOAD LT ISZERO SWAP2 POP CODESIZE PUSH2 0x13D5 JUMP JUMPDEST PUSH2 0x2BCA JUMP JUMPDEST CALLVALUE PUSH2 0x290 JUMPI PUSH1 0x20 CALLDATASIZE PUSH1 0x3 NOT ADD SLT PUSH2 0x290 JUMPI PUSH1 0x1 PUSH1 0x1 PUSH1 0xA0 SHL SUB PUSH2 0x14C9 PUSH2 0x2A1D JUMP JUMPDEST AND PUSH1 0x0 MSTORE PUSH1 0x13 PUSH1 0x20 MSTORE PUSH2 0x1507 PUSH2 0x14EC PUSH2 0x14F3 PUSH1 0x40 PUSH1 0x0 KECCAK256 PUSH1 0x40 MLOAD SWAP3 DUP4 DUP1 SWAP3 PUSH2 0x2EFC JUMP JUMPDEST SUB DUP3 PUSH2 0x2D12 JUMP JUMPDEST PUSH1 0x40 MLOAD SWAP2 DUP3 SWAP2 PUSH1 0x20 DUP4 MSTORE PUSH1 0x20 DUP4 ADD SWAP1 PUSH2 0x2B02 JUMP JUMPDEST SUB SWAP1 RETURN JUMPDEST POP CALLVALUE PUSH2 0x290 JUMPI PUSH1 0x60 CALLDATASIZE PUSH1 0x3 NOT ADD SLT PUSH2 0x290 JUMPI DUP1 CALLDATALOAD SWAP1 PUSH1 0x24 SWAP1 DUP2 CALLDATALOAD SWAP2 PUSH4 0xFFFFFFFF SWAP2 DUP3 PUSH2 0x1535 PUSH2 0x2B99 JUMP JUMPDEST AND SWAP4 DUP5 ISZERO DUP1 ISZERO PUSH2 0x1B54 JUMPI JUMPDEST PUSH2 0x1B44 JUMPI DUP6 PUSH1 0x0 MSTORE PUSH1 0x20 SWAP3 PUSH1 0x16 DUP5 MSTORE PUSH1 0x40 PUSH1 0x0 KECCAK256 SWAP1 CALLER PUSH1 0x0 MSTORE PUSH1 0xC DUP6 MSTORE PUSH1 0x40 PUSH1 0x0 KECCAK256 SLOAD ISZERO PUSH2 0x1B22 JUMPI DUP2 SLOAD PUSH1 0x1 PUSH1 0x1 PUSH1 0xA0 SHL SUB SWAP3 SWAP1 CALLER SWAP1 DUP5 AND SUB PUSH2 0x1B33 JUMPI PUSH1 0x2 ADD SLOAD PUSH1 0xFF DUP2 AND PUSH2 0x158E DUP2 PUSH2 0x2A49 JUMP JUMPDEST PUSH2 0x1B33 JUMPI PUSH1 0x28 SHR DUP7 AND ISZERO PUSH2 0x1B22 JUMPI PUSH2 0x15A4 PUSH2 0x2E1A JUMP JUMPDEST PUSH1 0x40 MLOAD PUSH4 0xC47AB3D PUSH1 0xE2 SHL DUP2 MSTORE PUSH20 0x0 SWAP5 SWAP1 DUP7 DUP2 DUP1 PUSH2 0x15D7 ADDRESS DUP3 DUP8 ADD PUSH2 0x2D4C JUMP JUMPDEST SUB DUP2 DUP10 GAS DELEGATECALL DUP1 ISZERO PUSH2 0x29D JUMPI PUSH2 0x1B05 JUMPI JUMPDEST POP DUP4 ISZERO PUSH2 0xF46 JUMPI DUP9 PUSH1 0x0 MSTORE PUSH1 0x16 DUP7 MSTORE PUSH1 0x40 PUSH1 0x0 KECCAK256 SWAP2 PUSH1 0x2 DUP4 ADD SWAP9 DUP10 SLOAD DUP10 DUP1 DUP3 PUSH1 0x28 SHR AND SWAP2 PUSH1 0x8 SHR AND SUB DUP10 DUP2 GT PUSH2 0x1AF1 JUMPI PUSH2 0x1623 SWAP1 DUP5 DUP7 ADD PUSH2 0x2C81 JUMP JUMPDEST SWAP1 SLOAD PUSH1 0x3 SWAP6 SWAP2 DUP7 SHL SHR TIMESTAMP GT ISZERO PUSH2 0x1A55 JUMPI DUP6 PUSH1 0x1 SLOAD AND SWAP2 PUSH1 0x40 MLOAD PUSH4 0xA5118BF1 PUSH1 0xE0 SHL DUP2 MSTORE DUP11 DUP2 DUP8 DUP2 DUP8 GAS STATICCALL SWAP1 DUP2 ISZERO PUSH2 0x29D JUMPI PUSH1 0x0 SWAP2 PUSH2 0x1A38 JUMPI JUMPDEST POP DUP4 EXTCODESIZE ISZERO PUSH2 0x290 JUMPI PUSH1 0x64 PUSH1 0x0 SWAP3 DUP4 PUSH1 0x40 MLOAD SWAP7 DUP8 SWAP5 DUP6 SWAP4 PUSH4 0x533DFA35 PUSH1 0xE0 SHL DUP6 MSTORE DUP12 DUP6 ADD MSTORE DUP12 SIGNEXTEND DUP10 DUP5 ADD MSTORE DUP2 PUSH1 0x44 DUP5 ADD MSTORE GAS CALL SWAP2 DUP3 ISZERO PUSH2 0x29D JUMPI DUP6 SWAP3 PUSH2 0x1A29 JUMPI JUMPDEST POP JUMPDEST ADD SLOAD DUP6 SUB PUSH2 0x1A19 JUMPI PUSH1 0x40 DUP1 MLOAD PUSH4 0x23B872DD PUSH1 0xE0 SHL DUP2 MSTORE CALLER DUP5 DUP3 ADD SWAP1 DUP2 MSTORE ADDRESS PUSH1 0x20 DUP3 ADD MSTORE SWAP2 DUP3 ADD DUP8 SWAP1 MSTORE SWAP1 DUP9 SWAP1 DUP3 SWAP1 DUP2 SWAP1 PUSH1 0x60 ADD SUB DUP2 PUSH1 0x0 DUP10 PUSH32 0x0 AND GAS CALL SWAP1 DUP2 ISZERO PUSH2 0x29D JUMPI PUSH1 0x0 SWAP2 PUSH2 0x19FC JUMPI JUMPDEST POP ISZERO PUSH2 0x19EC JUMPI SWAP8 SWAP7 SWAP8 CALLER PUSH1 0x0 MSTORE PUSH1 0xC DUP8 MSTORE PUSH1 0x40 PUSH1 0x0 KECCAK256 PUSH2 0x172A DUP7 DUP3 SLOAD PUSH2 0x2DEA JUMP JUMPDEST SWAP1 SSTORE PUSH2 0x1738 DUP6 PUSH1 0xF SLOAD PUSH2 0x2DEA JUMP JUMPDEST PUSH1 0xF SSTORE PUSH2 0x1747 DUP6 PUSH1 0x10 SLOAD PUSH2 0x2E0D JUMP JUMPDEST PUSH1 0x10 SSTORE DUP10 PUSH1 0x0 MSTORE PUSH1 0x11 DUP8 MSTORE PUSH1 0x40 PUSH1 0x0 KECCAK256 SWAP2 PUSH1 0x2 DUP4 ADD SLOAD SWAP7 PUSH1 0x0 SWAP10 PUSH1 0x7 PUSH1 0x6 DUP7 ADD SWAP6 ADD SWAP11 JUMPDEST DUP6 SLOAD DUP2 LT ISZERO PUSH2 0x183A JUMPI DUP1 DUP13 DUP16 DUP14 PUSH2 0x17AE DUP15 PUSH2 0x17A9 DUP16 DUP16 DUP16 DUP16 PUSH2 0x17BE SWAP12 PUSH2 0x1790 SWAP2 PUSH2 0x2C81 JUMP JUMPDEST SWAP1 SLOAD SWAP2 SHL SHR AND SWAP7 DUP8 PUSH1 0x0 MSTORE DUP6 MSTORE PUSH1 0x40 PUSH1 0x0 KECCAK256 SLOAD SWAP1 PUSH2 0x2EC9 JUMP JUMPDEST PUSH2 0x2EDC JUMP JUMPDEST SWAP1 DUP2 PUSH2 0x17C3 JUMPI JUMPDEST POP POP POP POP PUSH2 0x2E70 JUMP JUMPDEST PUSH2 0x176B JUMP JUMPDEST PUSH32 0xE3E6AE1E05F069D410556743894AACBB190C1431962422EBE8FCC642A467DD16 SWAP2 DUP5 PUSH1 0x0 MSTORE PUSH1 0x14 DUP3 MSTORE PUSH1 0x40 PUSH1 0x0 KECCAK256 DUP1 SLOAD DUP1 DUP4 GT PUSH2 0x1832 JUMPI JUMPDEST DUP3 PUSH2 0x1806 SWAP2 PUSH2 0x2DEA JUMP JUMPDEST SWAP1 SSTORE DUP5 PUSH1 0x0 MSTORE PUSH1 0xB DUP3 MSTORE PUSH1 0x40 PUSH1 0x0 KECCAK256 PUSH2 0x1820 DUP3 DUP3 SLOAD PUSH2 0x2E0D JUMP JUMPDEST SWAP1 SSTORE PUSH1 0x40 MLOAD SWAP1 DUP2 MSTORE LOG3 CODESIZE DUP16 DUP2 DUP15 PUSH2 0x17B5 JUMP JUMPDEST SWAP2 POP DUP2 PUSH2 0x17FC JUMP JUMPDEST POP DUP13 DUP11 SWAP2 DUP14 DUP11 CALLER PUSH1 0x0 MSTORE PUSH1 0xC DUP6 MSTORE PUSH1 0x40 PUSH1 0x0 KECCAK256 SLOAD PUSH1 0x40 MLOAD SWAP2 DUP3 MSTORE DUP6 DUP3 ADD MSTORE PUSH32 0x1B8CD61ED43BEC7C6BDAD3A18FFEE613F99C853D16C50678D248D879E1B43438 PUSH1 0x40 CALLER SWAP3 LOG2 DUP1 DUP3 SLOAD PUSH1 0x28 SHR AND DUP4 PUSH32 0x406356EF25520B09E2EF87C5225167B4161EA4AB691E9434D6EE29EAFCC83FC2 DUP7 PUSH1 0x40 MLOAD DUP5 DUP2 MSTORE LOG2 PUSH32 0x17F13FD3F7C4712AF33F1770EBCB822DD20A2DBC00850EAB48D786623D97B959 DUP6 PUSH1 0xF SLOAD PUSH1 0x40 MLOAD SWAP1 DUP2 MSTORE LOG1 PUSH32 0x8B094CCA6F83D49402CE208CC0C224B76625FFC58636DF56AE28024E704C5868 DUP6 PUSH1 0x10 SLOAD PUSH1 0x40 MLOAD SWAP1 DUP2 MSTORE LOG1 PUSH1 0x0 NOT ADD DUP2 DUP2 GT PUSH2 0x19D8 JUMPI DUP3 SLOAD PUSH9 0xFFFFFFFF0000000000 NOT AND PUSH1 0x28 SWAP2 SWAP1 SWAP2 SHL PUSH9 0xFFFFFFFF0000000000 AND OR DUP3 SSTORE DUP2 SLOAD SWAP1 DUP2 PUSH1 0x28 SHR AND ISZERO PUSH2 0x19A2 JUMPI JUMPDEST POP POP POP DUP2 EXTCODESIZE ISZERO PUSH2 0x290 JUMPI PUSH1 0x0 SWAP3 PUSH1 0x2 SWAP3 PUSH4 0x3D1A1A1 PUSH1 0x64 SWAP4 PUSH1 0x40 MLOAD SWAP8 DUP9 SWAP7 DUP8 SWAP6 PUSH4 0xE63DD531 PUSH1 0xE0 SHL DUP8 MSTORE DUP7 ADD MSTORE CALLER SWAP1 DUP6 ADD MSTORE ADDRESS SWAP1 SHL OR PUSH1 0x40 SHL PUSH1 0x44 DUP4 ADD MSTORE GAS DELEGATECALL DUP1 ISZERO PUSH2 0x29D JUMPI PUSH2 0x1993 JUMPI PUSH1 0x1 PUSH1 0x0 SSTORE STOP JUMPDEST PUSH2 0x199C SWAP1 PUSH2 0x2CAF JUMP JUMPDEST DUP1 PUSH2 0xEBC JUMP JUMPDEST PUSH1 0xFF NOT AND PUSH1 0x2 OR SWAP1 SSTORE PUSH32 0x2CA5489B37DD363D1302BAC719E8EE40E540FFBE8C12253570FEA63E11CAD71 PUSH1 0x0 DUP1 LOG2 DUP5 DUP1 DUP1 PUSH2 0x1942 JUMP JUMPDEST DUP8 PUSH1 0x11 DUP9 PUSH4 0x4E487B71 PUSH1 0xE0 SHL PUSH1 0x0 MSTORE MSTORE PUSH1 0x0 REVERT JUMPDEST POP PUSH1 0x40 MLOAD PUSH4 0x22E2581 PUSH1 0xE1 SHL DUP2 MSTORE REVERT JUMPDEST PUSH2 0x1A13 SWAP2 POP DUP9 RETURNDATASIZE DUP11 GT PUSH2 0x9E3 JUMPI PUSH2 0x9D5 DUP2 DUP4 PUSH2 0x2D12 JUMP JUMPDEST CODESIZE PUSH2 0x1709 JUMP JUMPDEST POP PUSH1 0x40 MLOAD PUSH4 0x162908E3 PUSH1 0xE1 SHL DUP2 MSTORE REVERT JUMPDEST PUSH2 0x1A32 SWAP1 PUSH2 0x2CAF JUMP JUMPDEST CODESIZE PUSH2 0x169C JUMP JUMPDEST PUSH2 0x1A4F SWAP2 POP DUP12 RETURNDATASIZE DUP14 GT PUSH2 0x9A3 JUMPI PUSH2 0x995 DUP2 DUP4 PUSH2 0x2D12 JUMP JUMPDEST CODESIZE PUSH2 0x165C JUMP JUMPDEST DUP6 PUSH1 0x1 SLOAD AND SWAP2 PUSH1 0x40 MLOAD PUSH4 0x4E5ECF13 PUSH1 0xE0 SHL DUP2 MSTORE DUP11 DUP2 DUP8 DUP2 DUP8 GAS STATICCALL SWAP1 DUP2 ISZERO PUSH2 0x29D JUMPI PUSH1 0x0 SWAP2 PUSH2 0x1AD4 JUMPI JUMPDEST POP DUP4 EXTCODESIZE ISZERO PUSH2 0x290 JUMPI PUSH1 0x64 PUSH1 0x0 SWAP3 DUP4 PUSH1 0x40 MLOAD SWAP7 DUP8 SWAP5 DUP6 SWAP4 PUSH4 0x533DFA35 PUSH1 0xE0 SHL DUP6 MSTORE DUP12 DUP6 ADD MSTORE DUP12 SIGNEXTEND DUP10 DUP5 ADD MSTORE PUSH1 0x1 PUSH1 0x44 DUP5 ADD MSTORE GAS CALL SWAP2 DUP3 ISZERO PUSH2 0x29D JUMPI DUP6 SWAP3 PUSH2 0x1AC5 JUMPI JUMPDEST POP PUSH2 0x169E JUMP JUMPDEST PUSH2 0x1ACE SWAP1 PUSH2 0x2CAF JUMP JUMPDEST CODESIZE PUSH2 0x1ABF JUMP JUMPDEST PUSH2 0x1AEB SWAP2 POP DUP12 RETURNDATASIZE DUP14 GT PUSH2 0x9A3 JUMPI PUSH2 0x995 DUP2 DUP4 PUSH2 0x2D12 JUMP JUMPDEST CODESIZE PUSH2 0x1A7E JUMP JUMPDEST DUP3 PUSH1 0x11 DUP6 PUSH4 0x4E487B71 PUSH1 0xE0 SHL PUSH1 0x0 MSTORE MSTORE PUSH1 0x0 REVERT JUMPDEST PUSH2 0x1B1B SWAP1 DUP8 RETURNDATASIZE DUP10 GT PUSH2 0x9E3 JUMPI PUSH2 0x9D5 DUP2 DUP4 PUSH2 0x2D12 JUMP JUMPDEST POP CODESIZE PUSH2 0x15E7 JUMP JUMPDEST PUSH1 0x40 MLOAD PUSH4 0xB5AB5BF PUSH1 0xE4 SHL DUP2 MSTORE DUP5 SWAP1 REVERT JUMPDEST PUSH1 0x40 MLOAD PUSH4 0xB5AB5BF PUSH1 0xE4 SHL DUP2 MSTORE DUP6 SWAP1 REVERT JUMPDEST POP PUSH1 0x40 MLOAD PUSH4 0xCFF23E7 PUSH1 0xE0 SHL DUP2 MSTORE REVERT JUMPDEST POP PUSH1 0x1 SLOAD PUSH1 0x40 MLOAD PUSH4 0x2CC52B15 PUSH1 0xE1 SHL DUP2 MSTORE CALLER DUP5 DUP3 ADD MSTORE SWAP1 PUSH1 0x20 SWAP1 DUP3 SWAP1 DUP7 SWAP1 DUP3 SWAP1 PUSH1 0x1 PUSH1 0x1 PUSH1 0xA0 SHL SUB AND GAS STATICCALL SWAP1 DUP2 ISZERO PUSH2 0x29D JUMPI PUSH1 0x0 SWAP2 PUSH2 0x1B95 JUMPI JUMPDEST POP ISZERO PUSH2 0x1540 JUMP JUMPDEST PUSH2 0x1BAD SWAP2 POP PUSH1 0x20 RETURNDATASIZE DUP2 GT PUSH2 0x9E3 JUMPI PUSH2 0x9D5 DUP2 DUP4 PUSH2 0x2D12 JUMP JUMPDEST CODESIZE PUSH2 0x1B8E JUMP JUMPDEST POP CALLVALUE PUSH2 0x290 JUMPI PUSH1 0x20 CALLDATASIZE PUSH1 0x3 NOT ADD SLT PUSH2 0x290 JUMPI CALLDATALOAD PUSH1 0x0 MSTORE PUSH1 0x11 PUSH1 0x20 MSTORE PUSH2 0x1507 PUSH2 0x1BE1 PUSH1 0x6 PUSH1 0x40 PUSH1 0x0 KECCAK256 ADD PUSH2 0x30FA JUMP JUMPDEST PUSH1 0x40 MLOAD SWAP2 DUP3 SWAP2 PUSH1 0x20 DUP4 MSTORE PUSH1 0x20 DUP4 ADD SWAP1 PUSH2 0x2B36 JUMP JUMPDEST CALLVALUE PUSH2 0x290 JUMPI PUSH1 0x0 CALLDATASIZE PUSH1 0x3 NOT ADD SLT PUSH2 0x290 JUMPI PUSH1 0x20 PUSH1 0x12 SLOAD PUSH1 0x40 MLOAD SWAP1 DUP2 MSTORE RETURN JUMPDEST POP CALLVALUE PUSH2 0x290 JUMPI PUSH1 0x0 CALLDATASIZE PUSH1 0x3 NOT ADD SLT PUSH2 0x290 JUMPI PUSH1 0x2 PUSH1 0x40 MLOAD SWAP2 PUSH4 0x404B48BF PUSH1 0xE0 SHL DUP4 MSTORE DUP3 ADD MSTORE PUSH1 0x0 DUP2 PUSH1 0x24 DUP2 PUSH20 0x0 GAS DELEGATECALL DUP1 ISZERO PUSH2 0x29D JUMPI PUSH2 0x1507 SWAP2 PUSH1 0x0 SWAP2 PUSH2 0x1C7C JUMPI JUMPDEST POP PUSH1 0x40 MLOAD SWAP2 DUP3 SWAP2 PUSH1 0x20 DUP4 MSTORE PUSH1 0x20 DUP4 ADD SWAP1 PUSH2 0x2B36 JUMP JUMPDEST PUSH2 0x1C99 SWAP2 POP RETURNDATASIZE DUP1 PUSH1 0x0 DUP4 RETURNDATACOPY PUSH2 0x1C91 DUP2 DUP4 PUSH2 0x2D12 JUMP JUMPDEST DUP2 ADD SWAP1 PUSH2 0x2F51 JUMP JUMPDEST CODESIZE PUSH2 0x1C67 JUMP JUMPDEST CALLVALUE PUSH2 0x290 JUMPI PUSH1 0x20 CALLDATASIZE PUSH1 0x3 NOT ADD SLT PUSH2 0x290 JUMPI PUSH1 0x1 PUSH1 0x1 PUSH1 0xA0 SHL SUB PUSH2 0x1CC0 PUSH2 0x2A1D JUMP JUMPDEST AND PUSH1 0x0 MSTORE PUSH1 0x14 PUSH1 0x20 MSTORE PUSH1 0x20 PUSH1 0x40 PUSH1 0x0 KECCAK256 SLOAD PUSH1 0x40 MLOAD SWAP1 DUP2 MSTORE RETURN JUMPDEST POP CALLVALUE PUSH2 0x290 JUMPI PUSH1 0x20 CALLDATASIZE PUSH1 0x3 NOT ADD SLT PUSH2 0x290 JUMPI PUSH1 0x20 PUSH4 0xFFFFFFFF PUSH1 0x24 PUSH2 0x1CFC PUSH2 0x2B86 JUMP JUMPDEST PUSH1 0x1 SLOAD PUSH1 0x40 MLOAD PUSH4 0x2076C8A1 PUSH1 0xE2 SHL DUP2 MSTORE SWAP2 SWAP1 SWAP4 AND SWAP5 DUP2 ADD SWAP5 SWAP1 SWAP5 MSTORE DUP4 SWAP2 DUP3 SWAP1 PUSH1 0x1 PUSH1 0x1 PUSH1 0xA0 SHL SUB AND GAS STATICCALL DUP1 ISZERO PUSH2 0x29D JUMPI PUSH1 0x20 SWAP2 PUSH1 0x0 SWAP2 PUSH2 0x1D43 JUMPI JUMPDEST POP PUSH1 0x40 MLOAD SWAP1 PUSH1 0x3 SIGNEXTEND DUP2 MSTORE RETURN JUMPDEST PUSH2 0x1D5A SWAP2 POP DUP3 RETURNDATASIZE DUP2 GT PUSH2 0x9A3 JUMPI PUSH2 0x995 DUP2 DUP4 PUSH2 0x2D12 JUMP JUMPDEST CODESIZE PUSH2 0x1D37 JUMP JUMPDEST PUSH2 0x2BAC JUMP JUMPDEST POP CALLVALUE PUSH2 0x290 JUMPI PUSH1 0x20 CALLDATASIZE PUSH1 0x3 NOT ADD SLT PUSH2 0x290 JUMPI PUSH2 0x14EC PUSH2 0x14F3 DUP3 PUSH2 0x1507 SWAP4 CALLDATALOAD PUSH1 0x0 MSTORE PUSH1 0x16 PUSH1 0x20 MSTORE PUSH1 0x40 PUSH1 0x0 KECCAK256 ADD PUSH1 0x40 MLOAD SWAP3 DUP4 DUP1 SWAP3 PUSH2 0x2EFC JUMP JUMPDEST POP CALLVALUE PUSH2 0x290 JUMPI PUSH1 0x0 CALLDATASIZE PUSH1 0x3 NOT ADD SLT PUSH2 0x290 JUMPI PUSH1 0x2 PUSH1 0x40 MLOAD SWAP2 PUSH4 0xF28E2C2F PUSH1 0xE0 SHL DUP4 MSTORE DUP3 ADD MSTORE PUSH1 0x20 DUP2 PUSH1 0x24 DUP2 PUSH20 0x0 GAS DELEGATECALL DUP1 ISZERO PUSH2 0x29D JUMPI PUSH1 0x20 SWAP2 PUSH1 0x0 SWAP2 PUSH2 0x1338 JUMPI POP PUSH1 0x40 MLOAD SWAP1 ISZERO ISZERO DUP2 MSTORE RETURN JUMPDEST CALLVALUE PUSH2 0x290 JUMPI PUSH1 0x0 CALLDATASIZE PUSH1 0x3 NOT ADD SLT PUSH2 0x290 JUMPI PUSH1 0x20 PUSH1 0xE SLOAD PUSH1 0x40 MLOAD SWAP1 DUP2 MSTORE RETURN JUMPDEST CALLVALUE PUSH2 0x290 JUMPI PUSH1 0x0 CALLDATASIZE PUSH1 0x3 NOT ADD SLT PUSH2 0x290 JUMPI PUSH1 0x1 SLOAD PUSH1 0x40 MLOAD PUSH1 0x1 PUSH1 0x1 PUSH1 0xA0 SHL SUB SWAP1 SWAP2 AND DUP2 MSTORE PUSH1 0x20 SWAP1 RETURN JUMPDEST CALLVALUE PUSH2 0x290 JUMPI PUSH1 0x20 CALLDATASIZE PUSH1 0x3 NOT ADD SLT PUSH2 0x290 JUMPI PUSH1 0x1 PUSH1 0x1 PUSH1 0xA0 SHL SUB PUSH2 0x1E62 PUSH2 0x2A1D JUMP JUMPDEST AND PUSH1 0x0 MSTORE PUSH1 0xD PUSH1 0x20 MSTORE PUSH1 0x20 PUSH1 0x40 PUSH1 0x0 KECCAK256 SLOAD PUSH1 0x40 MLOAD SWAP1 DUP2 MSTORE RETURN JUMPDEST POP CALLVALUE PUSH2 0x290 JUMPI PUSH1 0x20 CALLDATASIZE PUSH1 0x3 NOT ADD SLT PUSH2 0x290 JUMPI PUSH2 0x1E99 PUSH1 0x40 SWAP2 CALLDATALOAD PUSH2 0x30A8 JUMP JUMPDEST DUP3 MLOAD SWAP2 DUP3 MSTORE ISZERO ISZERO PUSH1 0x20 DUP3 ADD MSTORE RETURN JUMPDEST POP CALLVALUE PUSH2 0x290 JUMPI PUSH1 0x20 CALLDATASIZE PUSH1 0x3 NOT ADD SLT PUSH2 0x290 JUMPI PUSH1 0x20 PUSH2 0x1EC3 PUSH2 0x2A1D JUMP JUMPDEST PUSH1 0x1 SLOAD PUSH1 0x40 MLOAD PUSH4 0x2CC52B15 PUSH1 0xE1 SHL DUP2 MSTORE PUSH1 0x1 PUSH1 0x1 PUSH1 0xA0 SHL SUB SWAP3 DUP4 AND SWAP5 DUP2 ADD SWAP5 SWAP1 SWAP5 MSTORE DUP4 SWAP2 PUSH1 0x24 SWAP2 DUP4 SWAP2 AND GAS STATICCALL DUP1 ISZERO PUSH2 0x29D JUMPI PUSH1 0x20 SWAP2 PUSH1 0x0 SWAP2 PUSH2 0x1338 JUMPI POP PUSH1 0x40 MLOAD SWAP1 ISZERO ISZERO DUP2 MSTORE RETURN JUMPDEST POP CALLVALUE PUSH2 0x290 JUMPI PUSH1 0x40 CALLDATASIZE PUSH1 0x3 NOT ADD SLT PUSH2 0x290 JUMPI PUSH2 0x1F24 PUSH2 0x2A33 JUMP JUMPDEST SWAP1 CALLDATALOAD PUSH1 0x0 MSTORE PUSH1 0x11 PUSH1 0x20 MSTORE PUSH1 0x7 PUSH1 0x40 PUSH1 0x0 KECCAK256 ADD SWAP1 PUSH1 0x1 DUP1 PUSH1 0xA0 SHL SUB AND PUSH1 0x0 MSTORE PUSH1 0x20 MSTORE PUSH1 0x20 PUSH1 0x40 PUSH1 0x0 KECCAK256 SLOAD PUSH1 0x40 MLOAD SWAP1 DUP2 MSTORE RETURN JUMPDEST CALLVALUE PUSH2 0x290 JUMPI PUSH1 0x20 CALLDATASIZE PUSH1 0x3 NOT ADD SLT PUSH2 0x290 JUMPI PUSH1 0x1 PUSH1 0x1 PUSH1 0xA0 SHL SUB PUSH2 0x1F76 PUSH2 0x2A1D JUMP JUMPDEST AND PUSH1 0x0 MSTORE PUSH1 0xB PUSH1 0x20 MSTORE PUSH1 0x20 PUSH1 0x40 PUSH1 0x0 KECCAK256 SLOAD PUSH1 0x40 MLOAD SWAP1 DUP2 MSTORE RETURN JUMPDEST POP CALLVALUE PUSH2 0x290 JUMPI PUSH1 0x20 CALLDATASIZE PUSH1 0x3 NOT ADD SLT PUSH2 0x290 JUMPI PUSH2 0x1FA9 PUSH2 0x2FDB JUMP JUMPDEST POP CALLDATALOAD PUSH1 0x0 MSTORE PUSH1 0x16 PUSH1 0x20 MSTORE PUSH2 0x1507 PUSH2 0x1FC3 PUSH1 0x40 PUSH1 0x0 KECCAK256 PUSH2 0x3026 JUMP JUMPDEST PUSH1 0x40 MLOAD SWAP2 DUP3 SWAP2 PUSH1 0x20 DUP4 MSTORE PUSH1 0x20 DUP4 ADD SWAP1 PUSH2 0x2A69 JUMP JUMPDEST POP CALLVALUE PUSH2 0x290 JUMPI PUSH1 0x20 CALLDATASIZE PUSH1 0x3 NOT ADD SLT PUSH2 0x290 JUMPI PUSH2 0x1FF1 PUSH2 0x2A1D JUMP JUMPDEST PUSH1 0x40 MLOAD PUSH4 0xB79B0A1 PUSH1 0xE2 SHL DUP2 MSTORE PUSH1 0x2 SWAP3 DUP2 ADD SWAP3 SWAP1 SWAP3 MSTORE PUSH1 0x1 PUSH1 0x1 PUSH1 0xA0 SHL SUB AND PUSH1 0x24 DUP3 ADD MSTORE PUSH1 0x20 DUP2 PUSH1 0x44 DUP2 PUSH20 0x0 GAS DELEGATECALL DUP1 ISZERO PUSH2 0x29D JUMPI PUSH1 0x20 SWAP2 PUSH1 0x0 SWAP2 PUSH2 0x1338 JUMPI POP PUSH1 0x40 MLOAD SWAP1 ISZERO ISZERO DUP2 MSTORE RETURN JUMPDEST POP CALLVALUE PUSH2 0x290 JUMPI PUSH1 0x20 CALLDATASIZE PUSH1 0x3 NOT ADD SLT PUSH2 0x290 JUMPI CALLDATALOAD PUSH1 0x0 MSTORE PUSH1 0x16 PUSH1 0x20 MSTORE PUSH1 0xA0 PUSH1 0x40 PUSH1 0x0 KECCAK256 PUSH1 0x11 PUSH1 0x20 MSTORE PUSH1 0x40 PUSH1 0x0 KECCAK256 SWAP1 PUSH1 0x2 DUP2 ADD SLOAD SWAP2 PUSH1 0xFF DUP4 AND PUSH2 0x208D DUP2 PUSH2 0x2A49 JUMP JUMPDEST ISZERO DUP1 PUSH2 0x20F7 JUMPI JUMPDEST ISZERO PUSH2 0x20DF JUMPI PUSH1 0x3 PUSH4 0xFFFFFFFF DUP1 SWAP5 PUSH1 0x28 SHR AND SWAP3 ADD SLOAD SWAP3 PUSH1 0x8 PUSH2 0x20B6 DUP6 DUP6 PUSH2 0x2EC9 JUMP JUMPDEST SWAP5 SWAP4 SWAP3 ADD SLOAD AND SWAP1 PUSH1 0x1 SWAP3 JUMPDEST PUSH1 0x40 MLOAD SWAP5 DUP6 MSTORE PUSH1 0x20 DUP6 ADD MSTORE PUSH1 0x40 DUP5 ADD MSTORE PUSH1 0x60 DUP4 ADD MSTORE ISZERO ISZERO PUSH1 0x80 DUP3 ADD MSTORE RETURN JUMPDEST PUSH1 0x8 ADD SLOAD PUSH1 0x0 SWAP3 POP DUP3 SWAP2 POP PUSH4 0xFFFFFFFF AND DUP2 DUP1 PUSH2 0x20C1 JUMP JUMPDEST POP PUSH4 0xFFFFFFFF DUP4 PUSH1 0x28 SHR AND ISZERO ISZERO PUSH2 0x2094 JUMP JUMPDEST POP CALLVALUE PUSH2 0x290 JUMPI PUSH1 0x20 CALLDATASIZE PUSH1 0x3 NOT ADD SLT PUSH2 0x290 JUMPI CALLDATALOAD PUSH1 0x0 MSTORE PUSH1 0x16 PUSH1 0x20 MSTORE PUSH1 0xC0 PUSH1 0x40 PUSH1 0x0 KECCAK256 PUSH1 0x1 DUP1 PUSH1 0xA0 SHL SUB DUP2 SLOAD AND SWAP1 PUSH1 0x1 DUP2 ADD SLOAD SWAP1 PUSH1 0x2 DUP2 ADD SLOAD SWAP1 PUSH1 0x3 PUSH1 0xFF DUP4 AND SWAP2 ADD SLOAD SWAP3 PUSH1 0x40 MLOAD SWAP5 DUP6 MSTORE PUSH1 0x20 DUP6 ADD MSTORE PUSH2 0x2160 DUP2 PUSH2 0x2A49 JUMP JUMPDEST PUSH1 0x40 DUP5 ADD MSTORE PUSH4 0xFFFFFFFF SWAP1 DUP2 DUP2 PUSH1 0x8 SHR AND PUSH1 0x60 DUP6 ADD MSTORE PUSH1 0x28 SHR AND PUSH1 0x80 DUP4 ADD MSTORE PUSH1 0xA0 DUP3 ADD MSTORE RETURN JUMPDEST POP CALLVALUE PUSH2 0x290 JUMPI PUSH1 0x40 CALLDATASIZE PUSH1 0x3 NOT ADD SLT PUSH2 0x290 JUMPI PUSH2 0x21A0 PUSH2 0x2B86 JUMP JUMPDEST PUSH2 0x21A8 PUSH2 0x2A33 JUMP JUMPDEST PUSH1 0x1 SLOAD SWAP1 SWAP2 PUSH1 0x1 PUSH1 0x1 PUSH1 0xA0 SHL SUB SWAP2 DUP3 AND SWAP2 SWAP1 DUP3 EXTCODESIZE ISZERO PUSH2 0x290 JUMPI PUSH1 0x0 PUSH4 0xFFFFFFFF SWAP4 PUSH1 0x44 SWAP4 DUP3 SWAP7 PUSH1 0x40 MLOAD SWAP9 DUP10 SWAP8 DUP9 SWAP7 PUSH4 0x86ECC79 PUSH1 0xE2 SHL DUP9 MSTORE AND SWAP1 DUP7 ADD MSTORE AND PUSH1 0x24 DUP5 ADD MSTORE GAS CALL DUP1 ISZERO PUSH2 0x29D JUMPI PUSH2 0x11EF JUMPI STOP JUMPDEST POP CALLVALUE PUSH2 0x290 JUMPI PUSH1 0x20 CALLDATASIZE PUSH1 0x3 NOT ADD SLT PUSH2 0x290 JUMPI PUSH1 0x0 PUSH2 0x120 PUSH1 0x40 MLOAD PUSH2 0x221C DUP2 PUSH2 0x2CD9 JUMP JUMPDEST DUP3 DUP2 MSTORE DUP3 PUSH1 0x20 DUP3 ADD MSTORE DUP3 PUSH1 0x40 DUP3 ADD MSTORE DUP3 PUSH1 0x60 DUP3 ADD MSTORE DUP3 PUSH1 0x80 DUP3 ADD MSTORE DUP3 PUSH1 0xA0 DUP3 ADD MSTORE DUP3 PUSH1 0xC0 DUP3 ADD MSTORE DUP3 PUSH1 0xE0 DUP3 ADD MSTORE PUSH1 0x60 PUSH2 0x100 DUP3 ADD MSTORE ADD MSTORE DUP1 CALLDATALOAD PUSH1 0x0 MSTORE PUSH1 0x11 PUSH1 0x20 MSTORE PUSH1 0x40 PUSH1 0x0 KECCAK256 DUP1 SLOAD SWAP1 PUSH1 0x1 DUP1 PUSH1 0xA0 SHL SUB PUSH1 0x1 DUP3 ADD SLOAD AND SWAP1 PUSH1 0x2 DUP2 ADD SLOAD PUSH1 0x3 DUP3 ADD SLOAD PUSH1 0xFF DUP2 PUSH1 0x40 SHR AND PUSH4 0xFFFFFFFF DUP8 DUP6 ADD SLOAD SWAP3 PUSH1 0x5 DUP7 ADD SLOAD SWAP5 DUP3 PUSH1 0x8 DUP9 ADD SLOAD AND SWAP8 PUSH1 0x40 MLOAD SWAP10 PUSH2 0x22A9 DUP12 PUSH2 0x2CD9 JUMP JUMPDEST DUP11 MSTORE PUSH1 0x20 DUP11 ADD MSTORE PUSH1 0x40 DUP10 ADD MSTORE DUP2 DUP2 AND PUSH1 0x60 DUP10 ADD MSTORE PUSH1 0x20 SHR AND PUSH1 0x80 DUP8 ADD MSTORE PUSH1 0x6 DUP2 LT ISZERO PUSH2 0xBBA JUMPI PUSH1 0xA0 DUP7 ADD MSTORE PUSH1 0xC0 DUP6 ADD MSTORE PUSH1 0xE0 DUP5 ADD MSTORE PUSH2 0x22EA SWAP1 PUSH1 0x6 ADD PUSH2 0x30FA JUMP JUMPDEST PUSH2 0x100 DUP4 ADD MSTORE PUSH2 0x120 DUP3 ADD MSTORE PUSH1 0x40 MLOAD SWAP1 PUSH1 0x20 DUP3 MSTORE DUP1 MLOAD PUSH1 0x20 DUP4 ADD MSTORE PUSH1 0x1 DUP1 PUSH1 0xA0 SHL SUB PUSH1 0x20 DUP3 ADD MLOAD AND PUSH1 0x40 DUP4 ADD MSTORE PUSH1 0x40 DUP2 ADD MLOAD PUSH1 0x60 DUP4 ADD MSTORE PUSH4 0xFFFFFFFF PUSH1 0x60 DUP3 ADD MLOAD AND PUSH1 0x80 DUP4 ADD MSTORE PUSH4 0xFFFFFFFF PUSH1 0x80 DUP3 ADD MLOAD AND PUSH1 0xA0 DUP4 ADD MSTORE PUSH1 0xA0 DUP2 ADD MLOAD PUSH1 0x6 DUP2 LT ISZERO PUSH2 0x239D JUMPI DUP3 SWAP4 POP PUSH1 0xC0 DUP4 ADD MSTORE PUSH1 0xC0 DUP2 ADD MLOAD PUSH1 0xE0 DUP4 ADD MSTORE PUSH1 0xE0 DUP2 ADD MLOAD PUSH2 0x100 DUP4 ADD MSTORE PUSH2 0x100 DUP2 ADD MLOAD PUSH4 0xFFFFFFFF PUSH2 0x120 PUSH2 0x2391 PUSH2 0x140 SWAP4 DUP5 DUP4 DUP9 ADD MSTORE PUSH2 0x160 DUP8 ADD SWAP1 PUSH2 0x2B36 JUMP JUMPDEST SWAP4 ADD MLOAD AND SWAP1 DUP4 ADD MSTORE SUB SWAP1 RETURN JUMPDEST PUSH1 0x21 DUP5 PUSH4 0x4E487B71 PUSH1 0xE0 SHL PUSH1 0x0 MSTORE MSTORE PUSH1 0x24 PUSH1 0x0 REVERT JUMPDEST POP CALLVALUE PUSH2 0x290 JUMPI PUSH1 0xA0 CALLDATASIZE PUSH1 0x3 NOT ADD SLT PUSH2 0x290 JUMPI DUP1 CALLDATALOAD SWAP1 PUSH2 0x23CF PUSH2 0x2B73 JUMP JUMPDEST SWAP2 PUSH1 0x64 CALLDATALOAD PUSH4 0xFFFFFFFF DUP1 DUP3 AND DUP1 SWAP3 SUB PUSH2 0x290 JUMPI PUSH1 0x84 CALLDATALOAD SWAP1 DUP1 DUP3 AND DUP1 SWAP3 SUB PUSH2 0x290 JUMPI DUP2 PUSH1 0x0 MSTORE PUSH1 0x20 SWAP6 PUSH1 0x15 DUP8 MSTORE PUSH1 0x3 DUP3 PUSH1 0x40 PUSH1 0x0 KECCAK256 SLOAD AND LT ISZERO PUSH2 0x25F8 JUMPI DUP3 ISZERO DUP1 ISZERO PUSH2 0x259A JUMPI JUMPDEST PUSH2 0x2589 JUMPI DUP5 ISZERO PUSH2 0x2578 JUMPI DUP2 AND SWAP2 PUSH1 0x46 DUP4 GT DUP1 ISZERO SWAP1 PUSH2 0x256E JUMPI JUMPDEST PUSH2 0x255D JUMPI PUSH1 0x1 DUP5 LT DUP1 ISZERO PUSH2 0x2553 JUMPI JUMPDEST PUSH2 0x2542 JUMPI PUSH1 0x10 SLOAD DUP6 GT PUSH2 0x2531 JUMPI PUSH1 0x12 SLOAD SWAP6 PUSH2 0x2456 DUP8 PUSH2 0x2E70 JUMP JUMPDEST PUSH1 0x12 SSTORE DUP7 PUSH1 0x0 MSTORE PUSH1 0x11 DUP9 MSTORE PUSH1 0x40 PUSH1 0x0 KECCAK256 SWAP4 PUSH1 0x1 DUP6 ADD CALLER PUSH12 0xFFFFFFFFFFFFFFFFFFFFFFFF PUSH1 0xA0 SHL DUP3 SLOAD AND OR SWAP1 SSTORE DUP7 PUSH1 0x2 DUP7 ADD SSTORE PUSH1 0x3 DUP6 ADD SWAP1 PUSH9 0xFFFFFFFFFFFFFFFFFF NOT DUP3 SLOAD AND OR SWAP1 SSTORE PUSH1 0x44 CALLDATALOAD SWAP1 DUP5 ADD SSTORE TIMESTAMP PUSH1 0x5 DUP5 ADD SSTORE DUP6 PUSH1 0x8 DUP5 ADD SWAP4 PUSH4 0xFFFFFFFF NOT SWAP5 DUP7 DUP7 DUP3 SLOAD AND OR SWAP1 SSTORE SSTORE CALLER PUSH1 0x0 MSTORE PUSH1 0x13 DUP8 MSTORE PUSH2 0x24D7 DUP7 PUSH1 0x40 PUSH1 0x0 KECCAK256 PUSH2 0x2E7F JUMP JUMPDEST PUSH1 0x0 MSTORE PUSH1 0x15 DUP7 MSTORE PUSH1 0x40 PUSH1 0x0 KECCAK256 SWAP2 DUP3 SLOAD SWAP2 PUSH2 0x24F2 DUP2 DUP5 AND PUSH2 0x2EB4 JUMP JUMPDEST AND SWAP2 AND OR SWAP1 SSTORE PUSH1 0x40 MLOAD SWAP2 DUP3 MSTORE DUP4 DUP3 ADD MSTORE DUP2 PUSH32 0xDE3B47CF7DA95A3CC41B86CF8717EAD8D56A76EE1590481C5C4DC4D8804C40C4 PUSH1 0x40 CALLER SWAP4 LOG3 PUSH1 0x40 MLOAD SWAP1 DUP2 MSTORE RETURN JUMPDEST PUSH1 0x40 MLOAD PUSH4 0x356680B7 PUSH1 0xE0 SHL DUP2 MSTORE DUP7 SWAP1 REVERT JUMPDEST PUSH1 0x40 MLOAD PUSH4 0x524EFF27 PUSH1 0xE0 SHL DUP2 MSTORE DUP7 SWAP1 REVERT JUMPDEST POP PUSH1 0xC DUP5 GT PUSH2 0x243C JUMP JUMPDEST PUSH1 0x40 MLOAD PUSH4 0xD1E95ED5 PUSH1 0xE0 SHL DUP2 MSTORE DUP7 SWAP1 REVERT JUMPDEST POP PUSH1 0x64 DUP4 GT PUSH2 0x242D JUMP JUMPDEST PUSH1 0x40 MLOAD PUSH4 0x162908E3 PUSH1 0xE1 SHL DUP2 MSTORE DUP7 SWAP1 REVERT JUMPDEST PUSH1 0x40 MLOAD PUSH4 0xCFF23E7 PUSH1 0xE0 SHL DUP2 MSTORE DUP7 SWAP1 REVERT JUMPDEST POP PUSH1 0x1 SLOAD PUSH1 0x40 MLOAD PUSH4 0x2CC52B15 PUSH1 0xE1 SHL DUP2 MSTORE CALLER DUP9 DUP3 ADD MSTORE SWAP1 DUP9 SWAP1 DUP3 SWAP1 PUSH1 0x24 SWAP1 DUP3 SWAP1 PUSH1 0x1 PUSH1 0x1 PUSH1 0xA0 SHL SUB AND GAS STATICCALL SWAP1 DUP2 ISZERO PUSH2 0x29D JUMPI PUSH1 0x0 SWAP2 PUSH2 0x25DB JUMPI JUMPDEST POP ISZERO PUSH2 0x2414 JUMP JUMPDEST PUSH2 0x25F2 SWAP2 POP DUP9 RETURNDATASIZE DUP11 GT PUSH2 0x9E3 JUMPI PUSH2 0x9D5 DUP2 DUP4 PUSH2 0x2D12 JUMP JUMPDEST CODESIZE PUSH2 0x25D4 JUMP JUMPDEST PUSH1 0x40 MLOAD PUSH4 0x5AAD290F PUSH1 0xE0 SHL DUP2 MSTORE DUP7 SWAP1 REVERT JUMPDEST POP CALLVALUE PUSH2 0x290 JUMPI PUSH1 0x0 CALLDATASIZE PUSH1 0x3 NOT ADD SLT PUSH2 0x290 JUMPI PUSH1 0x2 PUSH1 0x40 MLOAD SWAP2 PUSH4 0x7FD5E70B PUSH1 0xE0 SHL DUP4 MSTORE DUP3 ADD MSTORE PUSH1 0x0 DUP2 PUSH1 0x24 DUP2 PUSH20 0x0 GAS DELEGATECALL DUP1 ISZERO PUSH2 0x29D JUMPI PUSH2 0x1507 SWAP2 PUSH1 0x0 SWAP2 PUSH2 0x1C7C JUMPI POP PUSH1 0x40 MLOAD SWAP2 DUP3 SWAP2 PUSH1 0x20 DUP4 MSTORE PUSH1 0x20 DUP4 ADD SWAP1 PUSH2 0x2B36 JUMP JUMPDEST CALLVALUE PUSH2 0x290 JUMPI PUSH1 0x20 DUP1 PUSH1 0x3 NOT CALLDATASIZE ADD SLT PUSH2 0x290 JUMPI PUSH1 0x1 PUSH1 0x1 PUSH1 0xA0 SHL SUB SWAP1 DUP2 PUSH2 0x2695 PUSH2 0x2A1D JUMP JUMPDEST AND DUP1 PUSH1 0x0 MSTORE PUSH1 0x13 DUP3 MSTORE PUSH1 0x40 PUSH1 0x0 KECCAK256 PUSH1 0x0 SWAP2 PUSH1 0x0 SWAP2 DUP1 SLOAD SWAP3 JUMPDEST DUP4 DUP2 LT PUSH2 0x287A JUMPI POP PUSH2 0x26BE DUP5 PUSH2 0x2F39 JUMP JUMPDEST SWAP6 PUSH2 0x26CC PUSH1 0x40 MLOAD SWAP8 DUP9 PUSH2 0x2D12 JUMP JUMPDEST DUP5 DUP8 MSTORE PUSH1 0x1F NOT DUP1 PUSH2 0x26DC DUP8 PUSH2 0x2F39 JUMP JUMPDEST ADD PUSH1 0x0 JUMPDEST DUP2 DUP2 LT PUSH2 0x285F JUMPI POP POP PUSH2 0x270B PUSH2 0x26F5 DUP8 PUSH2 0x2F39 JUMP JUMPDEST SWAP7 PUSH2 0x2703 PUSH1 0x40 MLOAD SWAP9 DUP10 PUSH2 0x2D12 JUMP JUMPDEST DUP1 DUP9 MSTORE PUSH2 0x2F39 JUMP JUMPDEST ADD CALLDATASIZE DUP8 DUP8 ADD CALLDATACOPY PUSH1 0x0 SWAP3 PUSH1 0x0 JUMPDEST DUP6 DUP2 LT PUSH2 0x2797 JUMPI DUP9 DUP9 DUP9 PUSH1 0x40 MLOAD SWAP3 DUP4 SWAP2 PUSH1 0x40 DUP4 ADD SWAP4 PUSH1 0x40 DUP5 MSTORE DUP3 MLOAD DUP1 SWAP6 MSTORE PUSH1 0x60 DUP5 ADD SWAP5 DUP2 PUSH1 0x60 DUP3 PUSH1 0x5 SHL DUP8 ADD ADD SWAP5 ADD SWAP6 PUSH1 0x0 SWAP1 JUMPDEST DUP3 DUP3 LT PUSH2 0x2767 JUMPI POP POP POP DUP4 PUSH2 0x1507 SWAP5 SWAP6 POP DUP4 SUB SWAP1 DUP6 ADD MSTORE PUSH2 0x2B02 JUMP JUMPDEST SWAP2 SWAP4 SWAP6 POP SWAP2 SWAP4 DUP5 DUP1 PUSH2 0x2785 PUSH1 0x1 SWAP4 PUSH1 0x5F NOT DUP13 DUP3 SUB ADD DUP7 MSTORE DUP11 MLOAD PUSH2 0x2A69 JUMP JUMPDEST SWAP9 ADD SWAP3 ADD SWAP3 ADD DUP8 SWAP6 SWAP4 SWAP2 SWAP7 SWAP5 SWAP3 PUSH2 0x274B JUMP JUMPDEST PUSH2 0x27A4 DUP2 DUP6 SWAP11 SWAP10 SWAP11 PUSH2 0x2C81 JUMP JUMPDEST SWAP1 SLOAD PUSH1 0x3 SWAP2 DUP3 SHL SHR PUSH1 0x0 MSTORE PUSH1 0x16 DUP11 MSTORE PUSH1 0x40 PUSH1 0x0 KECCAK256 DUP4 DUP6 DUP3 SLOAD AND EQ DUP1 PUSH2 0x2847 JUMPI JUMPDEST DUP1 PUSH2 0x2831 JUMPI JUMPDEST PUSH2 0x27E2 JUMPI JUMPDEST POP POP PUSH2 0x27DA SWAP1 PUSH2 0x2E70 JUMP JUMPDEST SWAP8 SWAP7 SWAP8 PUSH2 0x2717 JUMP JUMPDEST SWAP6 PUSH2 0x2829 SWAP2 PUSH2 0x27F4 PUSH2 0x27DA SWAP5 SWAP9 PUSH2 0x3026 JUMP JUMPDEST PUSH2 0x27FE DUP4 DUP14 PUSH2 0x3012 JUMP JUMPDEST MSTORE PUSH2 0x2809 DUP3 DUP13 PUSH2 0x3012 JUMP JUMPDEST POP PUSH2 0x2814 DUP9 DUP9 PUSH2 0x2C81 JUMP JUMPDEST SWAP1 SLOAD SWAP2 SHL SHR PUSH2 0x2823 DUP3 DUP12 PUSH2 0x3012 JUMP JUMPDEST MSTORE PUSH2 0x2E70 JUMP JUMPDEST SWAP5 SWAP1 DUP11 PUSH2 0x27CF JUMP JUMPDEST POP PUSH4 0xFFFFFFFF PUSH1 0x2 DUP3 ADD SLOAD PUSH1 0x28 SHR AND ISZERO ISZERO PUSH2 0x27CA JUMP JUMPDEST POP PUSH1 0xFF PUSH1 0x2 DUP3 ADD SLOAD AND PUSH2 0x2859 DUP2 PUSH2 0x2A49 JUMP JUMPDEST ISZERO PUSH2 0x27C4 JUMP JUMPDEST SWAP8 DUP1 SWAP10 SWAP9 PUSH2 0x286B PUSH2 0x2FDB JUMP JUMPDEST DUP3 DUP3 DUP13 ADD ADD MSTORE ADD SWAP9 SWAP8 SWAP9 PUSH2 0x26E0 JUMP JUMPDEST PUSH2 0x2887 DUP2 DUP4 SWAP9 SWAP8 SWAP9 PUSH2 0x2C81 JUMP JUMPDEST SWAP1 SLOAD SWAP1 PUSH1 0x3 SHL SHR PUSH1 0x0 MSTORE PUSH1 0x16 DUP8 MSTORE PUSH1 0x40 PUSH1 0x0 KECCAK256 DUP4 DUP8 DUP3 SLOAD AND EQ SWAP1 DUP2 PUSH2 0x28F0 JUMPI JUMPDEST DUP2 PUSH2 0x28D9 JUMPI JUMPDEST POP PUSH2 0x28C4 JUMPI JUMPDEST PUSH2 0x28BC SWAP1 PUSH2 0x2E70 JUMP JUMPDEST SWAP6 SWAP5 SWAP6 PUSH2 0x26AD JUMP JUMPDEST SWAP4 PUSH2 0x28D1 PUSH2 0x28BC SWAP2 PUSH2 0x2E70 JUMP JUMPDEST SWAP5 SWAP1 POP PUSH2 0x28B3 JUMP JUMPDEST PUSH4 0xFFFFFFFF SWAP2 POP PUSH1 0x2 ADD SLOAD PUSH1 0x28 SHR AND ISZERO ISZERO DUP9 PUSH2 0x28AD JUMP JUMPDEST SWAP1 POP PUSH1 0xFF PUSH1 0x2 DUP3 ADD SLOAD AND PUSH2 0x2903 DUP2 PUSH2 0x2A49 JUMP JUMPDEST ISZERO SWAP1 PUSH2 0x28A7 JUMP JUMPDEST CALLVALUE PUSH2 0x290 JUMPI PUSH1 0x0 CALLDATASIZE PUSH1 0x3 NOT ADD SLT PUSH2 0x290 JUMPI PUSH1 0x20 PUSH1 0xF SLOAD PUSH1 0x40 MLOAD SWAP1 DUP2 MSTORE RETURN JUMPDEST POP CALLVALUE PUSH2 0x290 JUMPI PUSH1 0x20 CALLDATASIZE PUSH1 0x3 NOT ADD SLT PUSH2 0x290 JUMPI PUSH8 0xFFFFFFFFFFFFFFFF SWAP1 DUP1 CALLDATALOAD DUP3 DUP2 GT PUSH2 0x290 JUMPI CALLDATASIZE PUSH1 0x23 DUP3 ADD SLT ISZERO PUSH2 0x290 JUMPI DUP1 DUP3 ADD CALLDATALOAD SWAP3 DUP4 GT PUSH2 0x290 JUMPI PUSH1 0x24 SWAP3 PUSH1 0x5 SWAP3 CALLDATASIZE DUP6 DUP4 DUP7 SHL DUP6 ADD ADD GT PUSH2 0x290 JUMPI PUSH1 0x0 SWAP4 SWAP2 SWAP4 SWAP2 PUSH20 0x0 SWAP4 PUSH4 0x3D1A1A1 ADDRESS PUSH1 0x20 SHL OR PUSH1 0x40 SHL SWAP4 JUMPDEST DUP7 DUP2 LT PUSH2 0x29AA JUMPI STOP JUMPDEST DUP1 DUP4 SHL DUP3 ADD DUP9 ADD CALLDATALOAD PUSH1 0x1 PUSH1 0x1 PUSH1 0xA0 SHL SUB DUP2 AND SWAP2 SWAP1 DUP3 SWAP1 SUB PUSH2 0x290 JUMPI DUP7 EXTCODESIZE ISZERO PUSH2 0x290 JUMPI PUSH1 0x40 MLOAD SWAP2 PUSH4 0xE63DD531 PUSH1 0xE0 SHL DUP4 MSTORE PUSH1 0x2 DUP7 DUP5 ADD MSTORE DUP10 DUP4 ADD MSTORE DUP6 PUSH1 0x44 DUP4 ADD MSTORE PUSH1 0x0 DUP3 PUSH1 0x64 DUP2 DUP11 GAS DELEGATECALL SWAP2 DUP3 ISZERO PUSH2 0x29D JUMPI PUSH2 0x2A09 SWAP3 PUSH2 0x2A0E JUMPI JUMPDEST POP PUSH2 0x2E70 JUMP JUMPDEST PUSH2 0x29A1 JUMP JUMPDEST PUSH2 0x2A17 SWAP1 PUSH2 0x2CAF JUMP JUMPDEST CODESIZE PUSH2 0x2A03 JUMP JUMPDEST PUSH1 0x4 CALLDATALOAD SWAP1 PUSH1 0x1 PUSH1 0x1 PUSH1 0xA0 SHL SUB DUP3 AND DUP3 SUB PUSH2 0x290 JUMPI JUMP JUMPDEST PUSH1 0x24 CALLDATALOAD SWAP1 PUSH1 0x1 PUSH1 0x1 PUSH1 0xA0 SHL SUB DUP3 AND DUP3 SUB PUSH2 0x290 JUMPI JUMP JUMPDEST PUSH1 0x3 GT ISZERO PUSH2 0x2A53 JUMPI JUMP JUMPDEST PUSH4 0x4E487B71 PUSH1 0xE0 SHL PUSH1 0x0 MSTORE PUSH1 0x21 PUSH1 0x4 MSTORE PUSH1 0x24 PUSH1 0x0 REVERT JUMPDEST DUP1 MLOAD PUSH1 0x1 PUSH1 0x1 PUSH1 0xA0 SHL SUB AND DUP3 MSTORE PUSH1 0x20 DUP1 DUP3 ADD MLOAD DUP2 DUP5 ADD MSTORE PUSH1 0x40 DUP3 ADD MLOAD SWAP1 SWAP2 PUSH1 0xE0 DUP5 ADD SWAP2 DUP4 SWAP2 PUSH2 0x100 SWAP2 PUSH1 0xC0 SWAP2 SWAP1 PUSH2 0x2A9F DUP2 PUSH2 0x2A49 JUMP JUMPDEST PUSH1 0x40 DUP9 ADD MSTORE PUSH4 0xFFFFFFFF DUP1 PUSH1 0x60 DUP4 ADD MLOAD AND PUSH1 0x60 DUP10 ADD MSTORE PUSH1 0x80 DUP3 ADD MLOAD AND PUSH1 0x80 DUP9 ADD MSTORE PUSH1 0xA0 DUP2 ADD MLOAD PUSH1 0xA0 DUP9 ADD MSTORE ADD MLOAD SWAP5 PUSH1 0xE0 PUSH1 0xC0 DUP3 ADD MSTORE DUP6 MLOAD DUP1 SWAP5 MSTORE ADD SWAP4 ADD SWAP2 PUSH1 0x0 JUMPDEST DUP3 DUP2 LT PUSH2 0x2AEE JUMPI POP POP POP POP SWAP1 JUMP JUMPDEST DUP4 MLOAD DUP6 MSTORE SWAP4 DUP2 ADD SWAP4 SWAP3 DUP2 ADD SWAP3 PUSH1 0x1 ADD PUSH2 0x2AE0 JUMP JUMPDEST SWAP1 DUP2 MLOAD DUP1 DUP3 MSTORE PUSH1 0x20 DUP1 DUP1 SWAP4 ADD SWAP4 ADD SWAP2 PUSH1 0x0 JUMPDEST DUP3 DUP2 LT PUSH2 0x2B22 JUMPI POP POP POP POP SWAP1 JUMP JUMPDEST DUP4 MLOAD DUP6 MSTORE SWAP4 DUP2 ADD SWAP4 SWAP3 DUP2 ADD SWAP3 PUSH1 0x1 ADD PUSH2 0x2B14 JUMP JUMPDEST SWAP1 DUP2 MLOAD DUP1 DUP3 MSTORE PUSH1 0x20 DUP1 DUP1 SWAP4 ADD SWAP4 ADD SWAP2 PUSH1 0x0 JUMPDEST DUP3 DUP2 LT PUSH2 0x2B56 JUMPI POP POP POP POP SWAP1 JUMP JUMPDEST DUP4 MLOAD PUSH1 0x1 PUSH1 0x1 PUSH1 0xA0 SHL SUB AND DUP6 MSTORE SWAP4 DUP2 ADD SWAP4 SWAP3 DUP2 ADD SWAP3 PUSH1 0x1 ADD PUSH2 0x2B48 JUMP JUMPDEST PUSH1 0x24 CALLDATALOAD SWAP1 PUSH4 0xFFFFFFFF DUP3 AND DUP3 SUB PUSH2 0x290 JUMPI JUMP JUMPDEST PUSH1 0x4 CALLDATALOAD SWAP1 PUSH4 0xFFFFFFFF DUP3 AND DUP3 SUB PUSH2 0x290 JUMPI JUMP JUMPDEST PUSH1 0x44 CALLDATALOAD SWAP1 PUSH4 0xFFFFFFFF DUP3 AND DUP3 SUB PUSH2 0x290 JUMPI JUMP JUMPDEST CALLVALUE PUSH2 0x290 JUMPI PUSH1 0x0 CALLDATASIZE PUSH1 0x3 NOT ADD SLT PUSH2 0x290 JUMPI PUSH1 0x20 PUSH1 0x10 SLOAD PUSH1 0x40 MLOAD SWAP1 DUP2 MSTORE RETURN JUMPDEST CALLVALUE PUSH2 0x290 JUMPI PUSH1 0x0 DUP1 PUSH1 0x3 NOT CALLDATASIZE ADD SLT PUSH2 0x2C7E JUMPI PUSH1 0x40 MLOAD PUSH4 0x70A08231 PUSH1 0xE0 SHL DUP2 MSTORE ADDRESS PUSH1 0x4 DUP3 ADD MSTORE PUSH1 0x20 DUP2 PUSH1 0x24 DUP2 PUSH32 0x0 PUSH1 0x1 PUSH1 0x1 PUSH1 0xA0 SHL SUB AND GAS STATICCALL SWAP1 DUP2 ISZERO PUSH2 0x2C73 JUMPI DUP3 SWAP2 PUSH2 0x2C3A JUMPI JUMPDEST PUSH1 0x20 DUP3 PUSH1 0x40 MLOAD SWAP1 DUP2 MSTORE RETURN JUMPDEST SWAP1 POP PUSH1 0x20 DUP2 RETURNDATASIZE DUP3 GT PUSH2 0x2C6B JUMPI JUMPDEST DUP2 PUSH2 0x2C54 PUSH1 0x20 SWAP4 DUP4 PUSH2 0x2D12 JUMP JUMPDEST DUP2 ADD SUB SLT PUSH2 0x2C67 JUMPI PUSH1 0x20 SWAP2 POP MLOAD CODESIZE PUSH2 0x2C2F JUMP JUMPDEST POP DUP1 REVERT JUMPDEST RETURNDATASIZE SWAP2 POP PUSH2 0x2C47 JUMP JUMPDEST PUSH1 0x40 MLOAD RETURNDATASIZE DUP5 DUP3 RETURNDATACOPY RETURNDATASIZE SWAP1 REVERT JUMPDEST DUP1 REVERT JUMPDEST DUP1 SLOAD DUP3 LT ISZERO PUSH2 0x2C99 JUMPI PUSH1 0x0 MSTORE PUSH1 0x20 PUSH1 0x0 KECCAK256 ADD SWAP1 PUSH1 0x0 SWAP1 JUMP JUMPDEST PUSH4 0x4E487B71 PUSH1 0xE0 SHL PUSH1 0x0 MSTORE PUSH1 0x32 PUSH1 0x4 MSTORE PUSH1 0x24 PUSH1 0x0 REVERT JUMPDEST PUSH8 0xFFFFFFFFFFFFFFFF DUP2 GT PUSH2 0x2CC3 JUMPI PUSH1 0x40 MSTORE JUMP JUMPDEST PUSH4 0x4E487B71 PUSH1 0xE0 SHL PUSH1 0x0 MSTORE PUSH1 0x41 PUSH1 0x4 MSTORE PUSH1 0x24 PUSH1 0x0 REVERT JUMPDEST PUSH2 0x140 DUP2 ADD SWAP1 DUP2 LT PUSH8 0xFFFFFFFFFFFFFFFF DUP3 GT OR PUSH2 0x2CC3 JUMPI PUSH1 0x40 MSTORE JUMP JUMPDEST PUSH1 0xE0 DUP2 ADD SWAP1 DUP2 LT PUSH8 0xFFFFFFFFFFFFFFFF DUP3 GT OR PUSH2 0x2CC3 JUMPI PUSH1 0x40 MSTORE JUMP JUMPDEST SWAP1 PUSH1 0x1F DUP1 NOT SWAP2 ADD AND DUP2 ADD SWAP1 DUP2 LT PUSH8 0xFFFFFFFFFFFFFFFF DUP3 GT OR PUSH2 0x2CC3 JUMPI PUSH1 0x40 MSTORE JUMP JUMPDEST SWAP1 DUP2 PUSH1 0x20 SWAP2 SUB SLT PUSH2 0x290 JUMPI MLOAD DUP1 ISZERO ISZERO DUP2 SUB PUSH2 0x290 JUMPI SWAP1 JUMP JUMPDEST SWAP2 SWAP1 SWAP2 PUSH1 0x60 DUP2 ADD SWAP3 PUSH1 0x2 DUP3 MSTORE PUSH1 0x20 SWAP4 PUSH1 0x60 DUP6 DUP5 ADD MSTORE PUSH1 0x9 SLOAD DUP1 SWAP2 MSTORE PUSH1 0x80 DUP4 ADD SWAP1 PUSH1 0x9 PUSH1 0x0 MSTORE PUSH32 0x6E1540171B6C0C960B71A7020D9F60077F6AF931A8BBF590DA0223DACF75C7AF SWAP1 PUSH1 0x0 JUMPDEST DUP8 DUP3 DUP3 LT PUSH2 0x2DB4 JUMPI POP POP POP POP SWAP4 SHL PUSH4 0x3D1A1A1 OR PUSH1 0x40 SWAP1 DUP2 SHL SWAP2 ADD MSTORE JUMP JUMPDEST DUP4 SLOAD PUSH1 0x1 PUSH1 0x1 PUSH1 0xA0 SHL SUB AND DUP6 MSTORE SWAP1 SWAP4 ADD SWAP3 PUSH1 0x1 SWAP3 DUP4 ADD SWAP3 ADD PUSH2 0x2D96 JUMP JUMPDEST SWAP1 DUP2 PUSH1 0x20 SWAP2 SUB SLT PUSH2 0x290 JUMPI MLOAD DUP1 PUSH1 0x3 SIGNEXTEND DUP2 SUB PUSH2 0x290 JUMPI SWAP1 JUMP JUMPDEST SWAP2 SWAP1 DUP3 SUB SWAP2 DUP3 GT PUSH2 0x2DF7 JUMPI JUMP JUMPDEST PUSH4 0x4E487B71 PUSH1 0xE0 SHL PUSH1 0x0 MSTORE PUSH1 0x11 PUSH1 0x4 MSTORE PUSH1 0x24 PUSH1 0x0 REVERT JUMPDEST SWAP2 SWAP1 DUP3 ADD DUP1 SWAP3 GT PUSH2 0x2DF7 JUMPI JUMP JUMPDEST PUSH1 0x2 PUSH1 0x0 SLOAD EQ PUSH2 0x2E2B JUMPI PUSH1 0x2 PUSH1 0x0 SSTORE JUMP JUMPDEST PUSH1 0x40 MLOAD PUSH3 0x461BCD PUSH1 0xE5 SHL DUP2 MSTORE PUSH1 0x20 PUSH1 0x4 DUP3 ADD MSTORE PUSH1 0x1F PUSH1 0x24 DUP3 ADD MSTORE PUSH32 0x5265656E7472616E637947756172643A207265656E7472616E742063616C6C00 PUSH1 0x44 DUP3 ADD MSTORE PUSH1 0x64 SWAP1 REVERT JUMPDEST PUSH1 0x0 NOT DUP2 EQ PUSH2 0x2DF7 JUMPI PUSH1 0x1 ADD SWAP1 JUMP JUMPDEST DUP1 SLOAD PUSH1 0x1 PUSH1 0x40 SHL DUP2 LT ISZERO PUSH2 0x2CC3 JUMPI PUSH2 0x2E9C SWAP2 PUSH1 0x1 DUP3 ADD DUP2 SSTORE PUSH2 0x2C81 JUMP JUMPDEST DUP2 SWAP3 SWAP2 SLOAD SWAP1 PUSH1 0x3 SHL SWAP2 DUP3 SHL SWAP2 PUSH1 0x0 NOT SWAP1 SHL NOT AND OR SWAP1 SSTORE JUMP JUMPDEST SWAP1 PUSH1 0x1 PUSH4 0xFFFFFFFF DUP1 SWAP4 AND ADD SWAP2 DUP3 GT PUSH2 0x2DF7 JUMPI JUMP JUMPDEST DUP2 DUP2 MUL SWAP3 SWAP2 DUP2 ISZERO SWAP2 DUP5 DIV EQ OR ISZERO PUSH2 0x2DF7 JUMPI JUMP JUMPDEST DUP2 ISZERO PUSH2 0x2EE6 JUMPI DIV SWAP1 JUMP JUMPDEST PUSH4 0x4E487B71 PUSH1 0xE0 SHL PUSH1 0x0 MSTORE PUSH1 0x12 PUSH1 0x4 MSTORE PUSH1 0x24 PUSH1 0x0 REVERT JUMPDEST SWAP1 DUP2 SLOAD DUP1 DUP3 MSTORE PUSH1 0x20 DUP1 SWAP3 ADD SWAP3 PUSH1 0x0 MSTORE DUP2 PUSH1 0x0 KECCAK256 SWAP2 PUSH1 0x0 SWAP1 JUMPDEST DUP3 DUP3 LT PUSH2 0x2F22 JUMPI POP POP POP POP SWAP1 JUMP JUMPDEST DUP4 SLOAD DUP6 MSTORE SWAP4 DUP5 ADD SWAP4 PUSH1 0x1 SWAP4 DUP5 ADD SWAP4 SWAP1 SWAP2 ADD SWAP1 PUSH2 0x2F14 JUMP JUMPDEST PUSH8 0xFFFFFFFFFFFFFFFF DUP2 GT PUSH2 0x2CC3 JUMPI PUSH1 0x5 SHL PUSH1 0x20 ADD SWAP1 JUMP JUMPDEST PUSH1 0x20 SWAP1 DUP2 DUP2 DUP5 SUB SLT PUSH2 0x290 JUMPI DUP1 MLOAD SWAP1 PUSH8 0xFFFFFFFFFFFFFFFF DUP3 GT PUSH2 0x290 JUMPI ADD SWAP2 DUP1 PUSH1 0x1F DUP5 ADD SLT ISZERO PUSH2 0x290 JUMPI DUP3 MLOAD PUSH2 0x2F87 DUP2 PUSH2 0x2F39 JUMP JUMPDEST SWAP4 PUSH2 0x2F95 PUSH1 0x40 MLOAD SWAP6 DUP7 PUSH2 0x2D12 JUMP JUMPDEST DUP2 DUP6 MSTORE DUP4 DUP1 DUP7 ADD SWAP3 PUSH1 0x5 SHL DUP3 ADD ADD SWAP3 DUP4 GT PUSH2 0x290 JUMPI DUP4 ADD SWAP1 JUMPDEST DUP3 DUP3 LT PUSH2 0x2FBC JUMPI POP POP POP POP SWAP1 JUMP JUMPDEST DUP2 MLOAD PUSH1 0x1 PUSH1 0x1 PUSH1 0xA0 SHL SUB DUP2 AND DUP2 SUB PUSH2 0x290 JUMPI DUP2 MSTORE SWAP1 DUP4 ADD SWAP1 DUP4 ADD PUSH2 0x2FAE JUMP JUMPDEST PUSH1 0x40 MLOAD SWAP1 PUSH2 0x2FE8 DUP3 PUSH2 0x2CF6 JUMP JUMPDEST PUSH1 0x60 PUSH1 0xC0 DUP4 PUSH1 0x0 DUP1 DUP3 MSTORE DUP1 PUSH1 0x20 DUP4 ADD MSTORE DUP1 PUSH1 0x40 DUP4 ADD MSTORE DUP1 DUP5 DUP4 ADD MSTORE DUP1 PUSH1 0x80 DUP4 ADD MSTORE PUSH1 0xA0 DUP3 ADD MSTORE ADD MSTORE JUMP JUMPDEST DUP1 MLOAD DUP3 LT ISZERO PUSH2 0x2C99 JUMPI PUSH1 0x20 SWAP2 PUSH1 0x5 SHL ADD ADD SWAP1 JUMP JUMPDEST SWAP1 PUSH1 0x4 PUSH1 0xC0 PUSH1 0x40 MLOAD PUSH2 0x3037 DUP2 PUSH2 0x2CF6 JUMP JUMPDEST PUSH2 0x30A4 DUP2 SWAP6 PUSH1 0x1 DUP1 PUSH1 0xA0 SHL SUB DUP2 SLOAD AND DUP4 MSTORE PUSH1 0x1 DUP2 ADD SLOAD PUSH1 0x20 DUP5 ADD MSTORE PUSH1 0x2 DUP2 ADD SLOAD PUSH1 0xFF DUP2 AND PUSH2 0x3064 DUP2 PUSH2 0x2A49 JUMP JUMPDEST PUSH1 0x40 DUP6 ADD MSTORE PUSH4 0xFFFFFFFF SWAP1 DUP2 DUP2 PUSH1 0x8 SHR AND PUSH1 0x60 DUP7 ADD MSTORE PUSH1 0x28 SHR AND PUSH1 0x80 DUP5 ADD MSTORE PUSH1 0x3 DUP2 ADD SLOAD PUSH1 0xA0 DUP5 ADD MSTORE PUSH2 0x309D PUSH1 0x40 MLOAD DUP1 SWAP7 DUP2 SWAP4 ADD PUSH2 0x2EFC JUMP JUMPDEST SUB DUP5 PUSH2 0x2D12 JUMP JUMPDEST ADD MSTORE JUMP JUMPDEST PUSH1 0x0 MSTORE PUSH1 0x16 PUSH1 0x20 MSTORE PUSH1 0x40 PUSH1 0x0 KECCAK256 PUSH1 0x2 DUP2 ADD SLOAD PUSH1 0xFF DUP2 AND PUSH2 0x30C7 DUP2 PUSH2 0x2A49 JUMP JUMPDEST ISZERO SWAP1 DUP2 PUSH2 0x30E7 JUMPI JUMPDEST POP PUSH2 0x30DD JUMPI POP PUSH1 0x0 SWAP1 PUSH1 0x0 SWAP1 JUMP JUMPDEST PUSH1 0x3 ADD SLOAD SWAP1 PUSH1 0x1 SWAP1 JUMP JUMPDEST PUSH4 0xFFFFFFFF SWAP2 POP PUSH1 0x28 SHR AND ISZERO ISZERO CODESIZE PUSH2 0x30CF JUMP JUMPDEST SWAP1 PUSH1 0x40 MLOAD SWAP2 DUP3 DUP2 SLOAD SWAP2 DUP3 DUP3 MSTORE PUSH1 0x20 SWAP3 DUP4 DUP4 ADD SWAP2 PUSH1 0x0 MSTORE DUP4 PUSH1 0x0 KECCAK256 SWAP4 PUSH1 0x0 SWAP1 JUMPDEST DUP3 DUP3 LT PUSH2 0x3131 JUMPI POP POP POP PUSH2 0x312F SWAP3 POP SUB DUP4 PUSH2 0x2D12 JUMP JUMPDEST JUMP JUMPDEST DUP6 SLOAD PUSH1 0x1 PUSH1 0x1 PUSH1 0xA0 SHL SUB AND DUP5 MSTORE PUSH1 0x1 SWAP6 DUP7 ADD SWAP6 DUP9 SWAP6 POP SWAP4 DUP2 ADD SWAP4 SWAP1 SWAP2 ADD SWAP1 PUSH2 0x3119 JUMP INVALID LOG2 PUSH5 0x6970667358 0x22 SLT KECCAK256 PUSH17 0xA3E019F737BB4890F806B2A6B0115EBBE PUSH20 0xB83A4405F8BF4278023C376C7964736F6C634300 ADDMOD SGT STOP CALLER "},"methodIdentifiers":{"batchUpdateDebtStatus(address[])":"016c704f","borrowerRequisitions(address,uint256)":"9e932011","canPayRequisition(uint256,address)":"adceb101","canUserBorrow(address,uint256)":"97c33519","coverLoan(uint256,uint32,uint32)":"ecb18b34","createLoanRequisition(uint256,uint32,uint256,uint32,uint32)":"182d94b5","donate(uint256,uint32)":"e2763924","getActiveLoans(address)":"03d1a1a1","getAllowance(address)":"eb5a662e","getAvailableBalance()":"809dab6a","getAvailableBorrowAmount()":"291c31a7","getBorrowerDebtStatus(address)":"f0853e1d","getBorrowerRequisitions(address)":"9730872a","getBorrowersWithDebt()":"0bc21853","getBorrowersWithoutDebt()":"830efd3b","getBorrowing(address)":"be5eb580","getContractBalance()":"6f9fb98a","getCoveringLenders(uint256)":"8a914a63","getDonation(address)":"410a1d32","getDonationsInCoverage(address)":"827cc0e5","getLastBorrowTime(address)":"657eb031","getLenderCoverage(uint256,address)":"4e51c7df","getLoanContract(uint256)":"383ab2ef","getMemberId(address)":"c269014b","getNextPaymentAmount(uint256)":"6509a710","getPaymentDates(uint256)":"7d52437a","getRepaymentSummary(uint256)":"2b31c022","getReputation(uint32)":"81db2284","getRequisitionInfo(uint256)":"1b70ba3e","getTotalBorrowed()":"0307c4a1","getTotalDonations()":"777c658f","getUSDTBalance()":"9785fac8","hasActiveDebt(address)":"3403c25d","hasOverdueDebt(address)":"a7af6947","isWalletVinculated(address)":"598a562a","loanContracts(uint256)":"232869fa","nextMonthlyUpdate()":"f947a8a9","repay(uint256,uint256,uint32)":"9059f9ca","reputationSystem()":"6587eda1","requisitionCounter()":"84ddf5ea","shouldTriggerUpdate()":"79103400","triggerMonthlyUpdate()":"ccdce44e","updateBorrowerDebtStatus(address)":"b9f0fec4","usdtToken()":"a98ad46c","vinculationMemberToWallet(uint32,address)":"21bb31e4"}}}}}