{"contracts/LoanMachine.sol":{"LoanMachine":{"abi":[{"inputs":[{"internalType":"address","name":"_usdtToken","type":"address"}],"stateMutability":"nonpayable","type":"constructor"},{"inputs":[],"name":"BorrowNotExpired","type":"error"},{"inputs":[],"name":"ExcessiveDonation","type":"error"},{"inputs":[],"name":"InsufficientDonationBalance","type":"error"},{"inputs":[],"name":"InsufficientFunds","type":"error"},{"inputs":[],"name":"InvalidAmount","type":"error"},{"inputs":[],"name":"InvalidCoveragePercentage","type":"error"},{"inputs":[],"name":"InvalidParcelsCount","type":"error"},{"inputs":[],"name":"LoanNotAvailable","type":"error"},{"inputs":[],"name":"MemberIdOrWalletInvalid","type":"error"},{"inputs":[],"name":"MinimumDonationRequired","type":"error"},{"inputs":[],"name":"NoActiveBorrowing","type":"error"},{"inputs":[],"name":"OverCoverage","type":"error"},{"inputs":[],"name":"ParcelAlreadyPaid","type":"error"},{"inputs":[],"name":"RepaymentExceedsBorrowed","type":"error"},{"inputs":[],"name":"TokenTransferFailed","type":"error"},{"inputs":[],"name":"WalletAlreadyVinculated","type":"error"},{"anonymous":false,"inputs":[{"indexed":false,"internalType":"uint256","name":"total","type":"uint256"}],"name":"AvailableBalanceUpdated","type":"event"},{"anonymous":false,"inputs":[{"indexed":true,"internalType":"address","name":"borrower","type":"address"}],"name":"BorrowLimitReached","type":"event"},{"anonymous":false,"inputs":[{"indexed":true,"internalType":"address","name":"borrower","type":"address"},{"indexed":false,"internalType":"uint256","name":"amount","type":"uint256"},{"indexed":false,"internalType":"uint256","name":"totalBorrowing","type":"uint256"}],"name":"Borrowed","type":"event"},{"anonymous":false,"inputs":[{"indexed":true,"internalType":"address","name":"donor","type":"address"},{"indexed":false,"internalType":"uint256","name":"amount","type":"uint256"},{"indexed":false,"internalType":"uint256","name":"totalDonation","type":"uint256"}],"name":"Donated","type":"event"},{"anonymous":false,"inputs":[{"indexed":true,"internalType":"uint256","name":"requisitionId","type":"uint256"},{"indexed":true,"internalType":"address","name":"lender","type":"address"},{"indexed":false,"internalType":"uint256","name":"amount","type":"uint256"}],"name":"LenderRepaid","type":"event"},{"anonymous":false,"inputs":[{"indexed":true,"internalType":"uint256","name":"requisitionId","type":"uint256"}],"name":"LoanCompleted","type":"event"},{"anonymous":false,"inputs":[{"indexed":true,"internalType":"address","name":"walletAddress","type":"address"},{"indexed":true,"internalType":"uint256","name":"requisitionId","type":"uint256"},{"indexed":false,"internalType":"enum ILoanMachine.ContractStatus","name":"status","type":"uint8"},{"indexed":false,"internalType":"uint32","name":"parcelsPending","type":"uint32"},{"indexed":false,"internalType":"uint256","name":"parcelsValues","type":"uint256"},{"indexed":false,"internalType":"uint256[]","name":"paymentDates","type":"uint256[]"}],"name":"LoanContractGenerated","type":"event"},{"anonymous":false,"inputs":[{"indexed":true,"internalType":"uint256","name":"requisitionId","type":"uint256"},{"indexed":true,"internalType":"address","name":"lender","type":"address"},{"indexed":false,"internalType":"uint256","name":"coverageAmount","type":"uint256"}],"name":"LoanCovered","type":"event"},{"anonymous":false,"inputs":[{"indexed":true,"internalType":"uint256","name":"requisitionId","type":"uint256"}],"name":"LoanFunded","type":"event"},{"anonymous":false,"inputs":[{"indexed":true,"internalType":"uint256","name":"requisitionId","type":"uint256"},{"indexed":true,"internalType":"address","name":"borrower","type":"address"},{"indexed":false,"internalType":"uint256","name":"amount","type":"uint256"},{"indexed":false,"internalType":"uint32","name":"parcelsCount","type":"uint32"}],"name":"LoanRequisitionCreated","type":"event"},{"anonymous":false,"inputs":[{"indexed":true,"internalType":"uint32","name":"memberId","type":"uint32"},{"indexed":true,"internalType":"address","name":"wallet","type":"address"},{"indexed":false,"internalType":"uint256","name":"timestamp","type":"uint256"}],"name":"MemberToWalletVinculation","type":"event"},{"anonymous":false,"inputs":[{"indexed":true,"internalType":"address","name":"borrower","type":"address"}],"name":"NewBorrower","type":"event"},{"anonymous":false,"inputs":[{"indexed":true,"internalType":"address","name":"donor","type":"address"}],"name":"NewDonor","type":"event"},{"anonymous":false,"inputs":[{"indexed":true,"internalType":"uint256","name":"requisitionId","type":"uint256"},{"indexed":false,"internalType":"uint256","name":"parcelsRemaining","type":"uint256"}],"name":"ParcelPaid","type":"event"},{"anonymous":false,"inputs":[{"indexed":true,"internalType":"address","name":"borrower","type":"address"},{"indexed":false,"internalType":"uint256","name":"amount","type":"uint256"},{"indexed":false,"internalType":"uint256","name":"remainingDebt","type":"uint256"}],"name":"Repaid","type":"event"},{"anonymous":false,"inputs":[{"indexed":true,"internalType":"uint32","name":"memberId","type":"uint32"},{"indexed":false,"internalType":"int32","name":"points","type":"int32"},{"indexed":false,"internalType":"bool","name":"increase","type":"bool"},{"indexed":false,"internalType":"int32","name":"newReputation","type":"int32"},{"indexed":false,"internalType":"uint256","name":"timestamp","type":"uint256"}],"name":"ReputationChanged","type":"event"},{"anonymous":false,"inputs":[{"indexed":false,"internalType":"uint256","name":"total","type":"uint256"}],"name":"TotalBorrowedUpdated","type":"event"},{"anonymous":false,"inputs":[{"indexed":false,"internalType":"uint256","name":"total","type":"uint256"}],"name":"TotalDonationsUpdated","type":"event"},{"inputs":[{"internalType":"address","name":"","type":"address"},{"internalType":"uint256","name":"","type":"uint256"}],"name":"borrowerRequisitions","outputs":[{"internalType":"uint256","name":"","type":"uint256"}],"stateMutability":"view","type":"function"},{"inputs":[{"internalType":"uint256","name":"requisitionId","type":"uint256"},{"internalType":"address","name":"borrower","type":"address"}],"name":"canPayRequisition","outputs":[{"internalType":"bool","name":"","type":"bool"}],"stateMutability":"view","type":"function"},{"inputs":[{"internalType":"address","name":"_user","type":"address"},{"internalType":"uint256","name":"_amount","type":"uint256"}],"name":"canUserBorrow","outputs":[{"internalType":"bool","name":"","type":"bool"}],"stateMutability":"view","type":"function"},{"inputs":[{"internalType":"uint256","name":"requisitionId","type":"uint256"},{"internalType":"uint32","name":"coveragePercentage","type":"uint32"}],"name":"coverLoan","outputs":[],"stateMutability":"nonpayable","type":"function"},{"inputs":[{"internalType":"uint256","name":"_amount","type":"uint256"},{"internalType":"uint32","name":"_minimumCoverage","type":"uint32"},{"internalType":"uint256","name":"_durationDays","type":"uint256"},{"internalType":"uint32","name":"parcelscount","type":"uint32"}],"name":"createLoanRequisition","outputs":[{"internalType":"uint256","name":"","type":"uint256"}],"stateMutability":"nonpayable","type":"function"},{"inputs":[{"internalType":"uint256","name":"amount","type":"uint256"}],"name":"donate","outputs":[],"stateMutability":"nonpayable","type":"function"},{"inputs":[{"internalType":"address","name":"borrower","type":"address"}],"name":"getActiveLoans","outputs":[{"components":[{"internalType":"address","name":"walletAddress","type":"address"},{"internalType":"uint256","name":"requisitionId","type":"uint256"},{"internalType":"enum ILoanMachine.ContractStatus","name":"status","type":"uint8"},{"internalType":"uint32","name":"parcelsCount","type":"uint32"},{"internalType":"uint32","name":"parcelsPending","type":"uint32"},{"internalType":"uint256","name":"parcelsValues","type":"uint256"},{"internalType":"uint256[]","name":"paymentDates","type":"uint256[]"}],"internalType":"struct ILoanMachine.LoanContract[]","name":"activeLoans","type":"tuple[]"},{"internalType":"uint256[]","name":"requisitionIds","type":"uint256[]"}],"stateMutability":"view","type":"function"},{"inputs":[{"internalType":"address","name":"user","type":"address"}],"name":"getAllowance","outputs":[{"internalType":"uint256","name":"","type":"uint256"}],"stateMutability":"view","type":"function"},{"inputs":[],"name":"getAvailableBalance","outputs":[{"internalType":"uint256","name":"","type":"uint256"}],"stateMutability":"view","type":"function"},{"inputs":[],"name":"getAvailableBorrowAmount","outputs":[{"internalType":"uint256","name":"","type":"uint256"}],"stateMutability":"view","type":"function"},{"inputs":[{"internalType":"address","name":"borrower","type":"address"}],"name":"getBorrowerRequisitions","outputs":[{"internalType":"uint256[]","name":"","type":"uint256[]"}],"stateMutability":"view","type":"function"},{"inputs":[{"internalType":"address","name":"_user","type":"address"}],"name":"getBorrowing","outputs":[{"internalType":"uint256","name":"","type":"uint256"}],"stateMutability":"view","type":"function"},{"inputs":[],"name":"getContractBalance","outputs":[{"internalType":"uint256","name":"","type":"uint256"}],"stateMutability":"view","type":"function"},{"inputs":[{"internalType":"uint256","name":"requisitionId","type":"uint256"}],"name":"getCoveringLenders","outputs":[{"internalType":"address[]","name":"","type":"address[]"}],"stateMutability":"view","type":"function"},{"inputs":[{"internalType":"address","name":"_user","type":"address"}],"name":"getDonation","outputs":[{"internalType":"uint256","name":"","type":"uint256"}],"stateMutability":"view","type":"function"},{"inputs":[{"internalType":"address","name":"lender","type":"address"}],"name":"getDonationsInCoverage","outputs":[{"internalType":"uint256","name":"","type":"uint256"}],"stateMutability":"view","type":"function"},{"inputs":[{"internalType":"address","name":"_user","type":"address"}],"name":"getLastBorrowTime","outputs":[{"internalType":"uint256","name":"","type":"uint256"}],"stateMutability":"view","type":"function"},{"inputs":[{"internalType":"uint256","name":"requisitionId","type":"uint256"},{"internalType":"address","name":"lender","type":"address"}],"name":"getLenderCoverage","outputs":[{"internalType":"uint256","name":"","type":"uint256"}],"stateMutability":"view","type":"function"},{"inputs":[{"internalType":"uint256","name":"requisitionId","type":"uint256"}],"name":"getLoanContract","outputs":[{"components":[{"internalType":"address","name":"walletAddress","type":"address"},{"internalType":"uint256","name":"requisitionId","type":"uint256"},{"internalType":"enum ILoanMachine.ContractStatus","name":"status","type":"uint8"},{"internalType":"uint32","name":"parcelsCount","type":"uint32"},{"internalType":"uint32","name":"parcelsPending","type":"uint32"},{"internalType":"uint256","name":"parcelsValues","type":"uint256"},{"internalType":"uint256[]","name":"paymentDates","type":"uint256[]"}],"internalType":"struct ILoanMachine.LoanContract","name":"","type":"tuple"}],"stateMutability":"view","type":"function"},{"inputs":[{"internalType":"uint256","name":"requisitionId","type":"uint256"}],"name":"getNextPaymentAmount","outputs":[{"internalType":"uint256","name":"paymentAmount","type":"uint256"},{"internalType":"bool","name":"canPay","type":"bool"}],"stateMutability":"view","type":"function"},{"inputs":[{"internalType":"uint256","name":"requisitionId","type":"uint256"}],"name":"getPaymentDates","outputs":[{"internalType":"uint256[]","name":"","type":"uint256[]"}],"stateMutability":"view","type":"function"},{"inputs":[{"internalType":"uint256","name":"requisitionId","type":"uint256"}],"name":"getRepaymentSummary","outputs":[{"internalType":"uint256","name":"totalRemainingDebt","type":"uint256"},{"internalType":"uint256","name":"nextPaymentAmount","type":"uint256"},{"internalType":"uint256","name":"parcelsRemaining","type":"uint256"},{"internalType":"uint256","name":"totalParcels","type":"uint256"},{"internalType":"bool","name":"isActive","type":"bool"}],"stateMutability":"view","type":"function"},{"inputs":[{"internalType":"uint256","name":"requisitionId","type":"uint256"}],"name":"getRequisitionInfo","outputs":[{"components":[{"internalType":"uint256","name":"requisitionId","type":"uint256"},{"internalType":"address","name":"borrower","type":"address"},{"internalType":"uint256","name":"amount","type":"uint256"},{"internalType":"uint32","name":"minimumCoverage","type":"uint32"},{"internalType":"uint32","name":"currentCoverage","type":"uint32"},{"internalType":"enum ILoanMachine.BorrowStatus","name":"status","type":"uint8"},{"internalType":"uint256","name":"durationDays","type":"uint256"},{"internalType":"uint256","name":"creationTime","type":"uint256"},{"internalType":"address[]","name":"coveringLenders","type":"address[]"},{"internalType":"uint32","name":"parcelsCount","type":"uint32"}],"internalType":"struct ILoanMachine.RequisitionInfo","name":"","type":"tuple"}],"stateMutability":"view","type":"function"},{"inputs":[],"name":"getTotalBorrowed","outputs":[{"internalType":"uint256","name":"","type":"uint256"}],"stateMutability":"view","type":"function"},{"inputs":[],"name":"getTotalDonations","outputs":[{"internalType":"uint256","name":"","type":"uint256"}],"stateMutability":"view","type":"function"},{"inputs":[],"name":"getUSDTBalance","outputs":[{"internalType":"uint256","name":"","type":"uint256"}],"stateMutability":"view","type":"function"},{"inputs":[{"internalType":"uint256","name":"","type":"uint256"}],"name":"loanContracts","outputs":[{"internalType":"address","name":"walletAddress","type":"address"},{"internalType":"uint256","name":"requisitionId","type":"uint256"},{"internalType":"enum ILoanMachine.ContractStatus","name":"status","type":"uint8"},{"internalType":"uint32","name":"parcelsCount","type":"uint32"},{"internalType":"uint32","name":"parcelsPending","type":"uint32"},{"internalType":"uint256","name":"parcelsValues","type":"uint256"}],"stateMutability":"view","type":"function"},{"inputs":[{"internalType":"uint256","name":"requisitionId","type":"uint256"},{"internalType":"uint256","name":"amount","type":"uint256"}],"name":"repay","outputs":[],"stateMutability":"nonpayable","type":"function"},{"inputs":[],"name":"requisitionCounter","outputs":[{"internalType":"uint256","name":"","type":"uint256"}],"stateMutability":"view","type":"function"},{"inputs":[],"name":"usdtToken","outputs":[{"internalType":"address","name":"","type":"address"}],"stateMutability":"view","type":"function"},{"inputs":[{"internalType":"uint32","name":"memberId","type":"uint32"},{"internalType":"address","name":"wallet","type":"address"}],"name":"vinculationMemberToWallet","outputs":[],"stateMutability":"nonpayable","type":"function"}],"evm":{"bytecode":{"linkReferences":{},"object":"60a06040523480156200001157600080fd5b5060405162002c0838038062002c0883398101604081905262000034916200004b565b60016000556001600160a01b03166080526200007d565b6000602082840312156200005e57600080fd5b81516001600160a01b03811681146200007657600080fd5b9392505050565b608051612b4c620000bc600039600081816104ac015281816110e9015281816117b801528181611a8f01528181611b6f0152611fa70152612b4c6000f3fe608060405234801561001057600080fd5b50600436106101e55760003560e01c80637d52437a1161010f5780639e932011116100a2578063be5eb58011610071578063be5eb580146104f9578063d8aed14514610522578063eb5a662e14610535578063f14faf6f1461054857600080fd5b80639e93201114610481578063a648bf7514610494578063a98ad46c146104a7578063adceb101146104e657600080fd5b80638a914a63116100de5780638a914a631461042b5780639730872a1461044b5780639785fac8146103c957806397c335191461045e57600080fd5b80637d52437a146103d9578063809dab6a146102d7578063827cc0e5146103f957806384ddf5ea1461042257600080fd5b80632b31c022116101875780636509a710116101565780636509a71014610378578063657eb031146103a05780636f9fb98a146103c9578063777c658f146103d157600080fd5b80632b31c022146102df578063383ab2ef1461031c578063410a1d321461033c5780634e51c7df1461036557600080fd5b806321bb31e4116101c357806321bb31e414610242578063232869fa146102575780632485a314146102c4578063291c31a7146102d757600080fd5b80630307c4a1146101ea57806303d1a1a1146102015780631b70ba3e14610222575b600080fd5b6007545b6040519081526020015b60405180910390f35b61021461020f3660046124a4565b61055b565b6040516101f89291906125cb565b610235610230366004612641565b6108cb565b6040516101f891906126a3565b610255610250366004612773565b610a2f565b005b6102b2610265366004612641565b600d6020526000908152604090208054600182015460028301546003909301546001600160a01b0390921692909160ff82169163ffffffff6101008204811692600160281b909204169086565b6040516101f8969594939291906127a6565b6102556102d23660046127f0565b610b0e565b6008546101ee565b6102f26102ed366004612641565b610e67565b6040805195865260208601949094529284019190915260608301521515608082015260a0016101f8565b61032f61032a366004612641565b610f3c565b6040516101f89190612813565b6101ee61034a3660046124a4565b6001600160a01b031660009081526003602052604090205490565b6101ee610373366004612826565b61103e565b61038b610386366004612641565b61106b565b604080519283529015156020830152016101f8565b6101ee6103ae3660046124a4565b6001600160a01b031660009081526005602052604090205490565b6101ee6110d1565b6006546101ee565b6103ec6103e7366004612641565b611161565b6040516101f89190612849565b6101ee6104073660046124a4565b6001600160a01b03166000908152600c602052604090205490565b6101ee600a5481565b61043e610439366004612641565b6111c6565b6040516101f8919061285c565b6103ec6104593660046124a4565b611234565b61047161046c36600461286f565b61129e565b60405190151581526020016101f8565b6101ee61048f36600461286f565b611351565b6101ee6104a2366004612899565b611382565b6104ce7f000000000000000000000000000000000000000000000000000000000000000081565b6040516001600160a01b0390911681526020016101f8565b6104716104f4366004612826565b611557565b6101ee6105073660046124a4565b6001600160a01b031660009081526004602052604090205490565b6102556105303660046128df565b6115bd565b6101ee6105433660046124a4565b611a67565b610255610556366004612641565b611afc565b6001600160a01b0381166000908152600b60205260408120606091829190805b8254811015610631576000600d600085848154811061059c5761059c612901565b60009182526020808320909101548352820192909252604001902080549091506001600160a01b039081169088161480156105ef5750600060028083015460ff16908111156105ed576105ed6124bf565b145b801561060b57506002810154600160281b900463ffffffff1615155b1561061e578261061a8161292d565b9350505b50806106298161292d565b91505061057b565b508067ffffffffffffffff81111561064b5761064b612946565b60405190808252806020026020018201604052801561068457816020015b61067161243f565b8152602001906001900390816106695790505b5093508067ffffffffffffffff8111156106a0576106a0612946565b6040519080825280602002602001820160405280156106c9578160200160208202803683370190505b5092506000805b83548110156108c2576000600d60008684815481106106f1576106f1612901565b60009182526020808320909101548352820192909252604001902080549091506001600160a01b039081169089161480156107445750600060028083015460ff1690811115610742576107426124bf565b145b801561076057506002810154600160281b900463ffffffff1615155b156108af576040805160e08101825282546001600160a01b0316815260018301546020820152600280840154919284929084019160ff909116908111156107a9576107a96124bf565b60028111156107ba576107ba6124bf565b8152600282015463ffffffff61010082048116602080850191909152600160281b9092041660408084019190915260038401546060840152600484018054825181850281018501909352808352608090940193919290919083018282801561084157602002820191906000526020600020905b81548152602001906001019080831161082d575b50505050508152505087848151811061085c5761085c612901565b602002602001018190525084828154811061087957610879612901565b906000526020600020015486848151811061089657610896612901565b6020908102919091010152826108ab8161292d565b9350505b50806108ba8161292d565b9150506106d0565b50505050915091565b604080516101408101825260008082526020820181905291810182905260608082018390526080820183905260a0820183905260c0820183905260e082018390526101008201526101208101919091526000828152600960209081526040918290208251610140810184528154815260018201546001600160a01b031692810192909252600281015492820192909252600382015463ffffffff8082166060840152640100000000820416608083015260a0820190600160401b900460ff16600581111561099b5761099b6124bf565b8152602001826004015481526020018260050154815260200182600601805480602002602001604051908101604052809291908181526020018280548015610a0c57602002820191906000526020600020905b81546001600160a01b031681526001909101906020018083116109ee575b505050918352505060089092015463ffffffff1660209092019190915292915050565b818163ffffffff82161580610a4b57506001600160a01b038116155b15610a6957604051630cff23e760e01b815260040160405180910390fd5b6001600160a01b03811660009081526001602052604090205463ffffffff1615610aa6576040516377030a8760e11b815260040160405180910390fd5b6001600160a01b038316600081815260016020908152604091829020805463ffffffff191663ffffffff891690811790915591514281527f605181a3cca1307ae9b2df54d6592ddf8f82c3570c6938f36d61cd23b6b57a8d910160405180910390a350505050565b8063ffffffff81161580610b28575060648163ffffffff16115b15610b465760405163d1e95ed560e01b815260040160405180910390fd5b610b4e611d1f565b6000838152600960205260408120906003820154600160401b900460ff166005811115610b7d57610b7d6124bf565b14158015610bab575060016003820154600160401b900460ff166005811115610ba857610ba86124bf565b14155b15610bc9576040516380b9cb0960e01b815260040160405180910390fd5b6003810154606490610bec9063ffffffff8087169164010000000090041661295c565b1115610c0b5760405163955f95ad60e01b815260040160405180910390fd5b670de0b6b3a76400006000610c2182606461296f565b6001610c2e84606461296f565b610c389190612986565b838763ffffffff168660020154610c4f919061296f565b610c59919061296f565b610c63919061295c565b610c6d9190612999565b33600090815260036020526040902054909150811115610ca057604051630391acf160e61b815260040160405180910390fd5b3360009081526003602052604081208054839290610cbf908490612986565b9091555050336000908152600c602052604081208054839290610ce390849061295c565b9091555050600383018054869190600490610d0d908490640100000000900463ffffffff166129bb565b825463ffffffff9182166101009390930a9283029190920219909116179055503360009081526007840160205260408120549003610d6d57600683018054600181018255600091825260209091200180546001600160a01b031916331790555b33600090815260078401602052604081208054839290610d8e90849061295c565b9091555050600383015463ffffffff8082166401000000009092041610610de05760038301805460ff60401b191668020000000000000000179055610dd286611d7c565b610ddb86611ebf565b610df6565b60038301805460ff60401b1916600160401b1790555b33600090815260016020819052604090912054610e1e9163ffffffff90911690600290612138565b604051818152339087907f86b47e6e6c03d769c0bc5ffd06c682ea7d07089576d59230ec18ff64e71bffe79060200160405180910390a3505050610e626001600055565b505050565b6000818152600d602090815260408083206009909252822082918291829182918260028084015460ff1690811115610ea157610ea16124bf565b148015610ebe57506002820154600160281b900463ffffffff1615155b15610f165760038201546002830154610ee49190600160281b900463ffffffff1661296f565b60038301546002840154600884015492995090975063ffffffff600160281b9091048116965016935060019250610f31565b60088101546000975087965086955063ffffffff1693508492505b505091939590929450565b610f4461243f565b6000828152600d60209081526040808320815160e08101835281546001600160a01b03168152600182015493810193909352600280820154919284019160ff1690811115610f9457610f946124bf565b6002811115610fa557610fa56124bf565b8152600282015463ffffffff61010082048116602080850191909152600160281b9092041660408084019190915260038401546060840152600484018054825181850281018501909352808352608090940193919290919083018282801561102c57602002820191906000526020600020905b815481526020019060010190808311611018575b50505091909252509195945050505050565b60008281526009602090815260408083206001600160a01b03851684526007019091529020545b92915050565b6000818152600d6020526040812081908160028083015460ff1690811115611095576110956124bf565b1480156110b257506002810154600160281b900463ffffffff1615155b156110c557600301549360019350915050565b50600093849350915050565b6040516370a0823160e01b81523060048201526000907f00000000000000000000000000000000000000000000000000000000000000006001600160a01b0316906370a0823190602401602060405180830381865afa158015611138573d6000803e3d6000fd5b505050506040513d601f19601f8201168201806040525081019061115c91906129df565b905090565b6000818152600d60209081526040918290206004018054835181840281018401909452808452606093928301828280156111ba57602002820191906000526020600020905b8154815260200190600101908083116111a6575b50505050509050919050565b6000818152600960209081526040918290206006018054835181840281018401909452808452606093928301828280156111ba57602002820191906000526020600020905b81546001600160a01b0316815260019091019060200180831161120b5750505050509050919050565b6001600160a01b0381166000908152600b60209081526040918290208054835181840281018401909452808452606093928301828280156111ba57602002820191906000526020600020908154815260200190600101908083116111a65750505050509050919050565b600080821180156112b157506008548211155b80156112f857506001600160a01b038316600090815260036020526040902054620f42401115806112f857506001600160a01b038316600090815260046020526040902054155b801561134a57506001600160a01b03831660009081526005602052604090205442906113289062093a809061295c565b108061134a57506001600160a01b038316600090815260046020526040902054155b9392505050565b600b602052816000526040600020818154811061136d57600080fd5b90600052602060002001600091509150505481565b600084806000036113a65760405163162908e360e11b815260040160405180910390fd5b8463ffffffff166046811115806113bd5750606481115b156113db5760405163d1e95ed560e01b815260040160405180910390fd5b8360018163ffffffff1610806113f75750600c8163ffffffff16115b156114155760405163524eff2760e01b815260040160405180910390fd5b6008548811156114385760405163356680b760e01b815260040160405180910390fd5b600a8054600091826114498361292d565b9091555060008181526009602052604081206001810180546001600160a01b03191633179055600281018c905560038101805467ffffffffffffffff19811663ffffffff8e1690811783559495509193909168ffffffffffffffffff191617600160401b8302179055506004810188905542600582015560088101805463ffffffff891663ffffffff19909116179055818155336000818152600b60209081526040808320805460018101825590845291909220018490555183907fde3b47cf7da95a3cc41b86cf8717ead8d56a76ee1590481c5c4dc4d8804c40c490611542908e908c9091825263ffffffff16602082015260400190565b60405180910390a35098975050505050505050565b6000828152600d6020526040812080546001600160a01b0384811691161480156115995750600060028083015460ff1690811115611597576115976124bf565b145b80156115b557506002810154600160281b900463ffffffff1615155b949350505050565b6000828152600d6020908152604080832033845260049092528220548492036115f957604051630b5ab5bf60e41b815260040160405180910390fd5b80546001600160a01b0316331461162357604051630b5ab5bf60e41b815260040160405180910390fd5b600060028083015460ff169081111561163e5761163e6124bf565b1461165c57604051630b5ab5bf60e41b815260040160405180910390fd5b6002810154600160281b900463ffffffff1660000361168e57604051630b5ab5bf60e41b815260040160405180910390fd5b611696611d1f565b826000036116b75760405163162908e360e11b815260040160405180910390fd5b6000848152600d6020526040812060028101549091906116eb9063ffffffff600160281b82048116916101009004166129f8565b90506000826004018263ffffffff168154811061170a5761170a612901565b906000526020600020015490508042111561174957336000908152600160205260408120546117449163ffffffff90911690600390612138565b61176f565b3360009081526001602081905260409091205461176f9163ffffffff9091169080612138565b826003015486146117935760405163162908e360e11b815260040160405180910390fd5b6040516323b872dd60e01b8152336004820152306024820152604481018790526000907f00000000000000000000000000000000000000000000000000000000000000006001600160a01b0316906323b872dd906064016020604051808303816000875af1158015611809573d6000803e3d6000fd5b505050506040513d601f19601f8201168201806040525081019061182d9190612a15565b90508061184d5760405163022e258160e11b815260040160405180910390fd5b336000908152600460205260408120805489929061186c908490612986565b9250508190555086600760008282546118859190612986565b92505081905550866008600082825461189e919061295c565b909155506118ae9050888861225e565b336000818152600460209081526040918290205482518b8152918201527f1b8cd61ed43bec7c6bdad3a18ffee613f99c853d16c50678d248d879e1b43438910160405180910390a26002840154604051600160281b90910463ffffffff16815288907f406356ef25520b09e2ef87c5225167b4161ea4ab691e9434d6ee29eafcc83fc29060200160405180910390a27f17f13fd3f7c4712af33f1770ebcb822dd20a2dbc00850eab48d786623d97b95960075460405161197091815260200190565b60405180910390a17f8b094cca6f83d49402ce208cc0c224b76625ffc58636df56ae28024e704c58686008546040516119ab91815260200190565b60405180910390a160018460020160058282829054906101000a900463ffffffff166119d791906129f8565b92506101000a81548163ffffffff021916908363ffffffff1602179055508360020160059054906101000a900463ffffffff1663ffffffff16600003611a53576002848101805460ff1916909117905560405188907f02ca5489b37dd363d1302bac719e8ee40e540ffbe8c12253570fea63e11cad7190600090a25b50505050611a616001600055565b50505050565b604051636eb1769f60e11b81526001600160a01b0382811660048301523060248301526000917f00000000000000000000000000000000000000000000000000000000000000009091169063dd62ed3e90604401602060405180830381865afa158015611ad8573d6000803e3d6000fd5b505050506040513d601f19601f8201168201806040525081019061106591906129df565b8080600003611b1e5760405163162908e360e11b815260040160405180910390fd5b611b26611d1f565b624c4b40821115611b4a576040516330fdf8db60e11b815260040160405180910390fd5b6040516323b872dd60e01b8152336004820152306024820152604481018390526000907f00000000000000000000000000000000000000000000000000000000000000006001600160a01b0316906323b872dd906064016020604051808303816000875af1158015611bc0573d6000803e3d6000fd5b505050506040513d601f19601f82011682018060405250810190611be49190612a15565b905080611c045760405163022e258160e11b815260040160405180910390fd5b33600081815260036020908152604091829020805487810182556006805489019055600880548901905590548351888152928301521592917f4928895ba6723e8e27b15f32e4c3054a1b6c7f8c03f133558d6fa42b3928d14c910160405180910390a27fdc6e73d4b36e22ab95945bd8833a5af96c950eb29d8d75c4aecffc987637aaab600654604051611c9a91815260200190565b60405180910390a17f8b094cca6f83d49402ce208cc0c224b76625ffc58636df56ae28024e704c5868600854604051611cd591815260200190565b60405180910390a18015611d0f5760405133907f072dafb6aabe3f02118bc607efbeaaa104d6b2009720c7b130f24ba418689c4b90600090a25b5050611d1b6001600055565b5050565b600260005403611d755760405162461bcd60e51b815260206004820152601f60248201527f5265656e7472616e637947756172643a207265656e7472616e742063616c6c00604482015260640160405180910390fd5b6002600055565b6000818152600d60209081526040808320600990925290912060018082015483546001600160a01b0319166001600160a01b0390911617835582018390556002808301805460ff198116825560088401805464ffffffffff19831661010063ffffffff928316029081178555825468ffffffffffffffffff1990941668ffffffff00000000001990911617928116600160281b029290921790925590549190920154611e2c929190911690612999565b6003820155600082815260096020526040902060080154611e5490829063ffffffff166123d1565b80546002820154600383015460405185936001600160a01b0316927f5215406e88f26eed4728b9cdfc5d85cea75799101cb9387b528451e6e0878dec92611eb39260ff831692600160281b900463ffffffff1691906004890190612a37565b60405180910390a35050565b6000818152600960209081526040808320600281015460018201546001600160a01b031685526004909352908320805491939091611efe90849061295c565b9091555050600281015460078054600090611f1a90849061295c565b9091555050600281015460088054600090611f36908490612986565b909155505060018101546001600160a01b031660009081526005602052604090204290556003808201805460ff60401b1916600160401b8302179055506001810154600282015460405163a9059cbb60e01b81526001600160a01b03928316600482015260248101919091526000917f0000000000000000000000000000000000000000000000000000000000000000169063a9059cbb906044016020604051808303816000875af1158015611ff0573d6000803e3d6000fd5b505050506040513d601f19601f820116820180604052508101906120149190612a15565b9050806120345760405163022e258160e11b815260040160405180910390fd5b600182015460028301546001600160a01b039091166000818152600460209081526040918290205482519485529084015290917feae9cfbc77fdd40ca899f36b608256063b2bc9d8178b0220f7ad513e178d6730910160405180910390a27f17f13fd3f7c4712af33f1770ebcb822dd20a2dbc00850eab48d786623d97b9596007546040516120c591815260200190565b60405180910390a17f8b094cca6f83d49402ce208cc0c224b76625ffc58636df56ae28024e704c586860085460405161210091815260200190565b60405180910390a160405183907f9e71d2fb732e68272b7e74ecfd14638673c1d77e19a5d390a3ffff054d57c44b90600090a2505050565b823363ffffffff8216158061216e57506001600160a01b03811660009081526001602052604090205463ffffffff838116911614155b1561218c57604051630cff23e760e01b815260040160405180910390fd5b63ffffffff851660009081526002602052604081205460030b9084156121bd576121b68683612aa5565b90506121d9565b6121c78683612acc565b905060008160030b12156121d9575060005b63ffffffff878116600081815260026020908152604091829020805463ffffffff191694861694909417909355805160038a810b8252891515948201949094529284900b90830152426060830152907f72194f756300fff6bfc1d45660da70048be350dc1aad864b9280fa75c3ff696c9060800160405180910390a250505050505050565b6000828152600960205260408120600281015490915b60068301548110156123ca57600083600601828154811061229757612297612901565b60009182526020808320909101546001600160a01b031680835260078701909152604082205490925090846122cc838961296f565b6122d69190612999565b905080156123b4576001600160a01b0383166000908152600c602052604090205481111561231957506001600160a01b0382166000908152600c60205260409020545b6001600160a01b0383166000908152600c602052604081208054839290612341908490612986565b90915550506001600160a01b0383166000908152600360205260408120805483929061236e90849061295c565b90915550506040518181526001600160a01b0384169089907fe3e6ae1e05f069d410556743894aacbb190c1431962422ebe8fcc642a467dd169060200160405180910390a35b50505080806123c29061292d565b915050612274565b5050505050565b4262278d0060005b8363ffffffff168163ffffffff1610156123ca5760006123fa8260016129bb565b61240a9063ffffffff168461296f565b612414908561295c565b600487018054600181018255600091825260209091200155508061243781612af3565b9150506123d9565b6040805160e08101825260008082526020820181905290918201908152602001600063ffffffff168152602001600063ffffffff16815260200160008152602001606081525090565b80356001600160a01b038116811461249f57600080fd5b919050565b6000602082840312156124b657600080fd5b61134a82612488565b634e487b7160e01b600052602160045260246000fd5b600381106124e5576124e56124bf565b9052565b600060e0830160018060a01b03835116845260208084015181860152604084015161251760408701826124d5565b50606084015163ffffffff8082166060880152806080870151166080880152505060a084015160a086015260c084015160e060c0870152828151808552610100880191508383019450600092505b808310156125855784518252938301936001929092019190830190612565565b509695505050505050565b600081518084526020808501945080840160005b838110156125c0578151875295820195908201906001016125a4565b509495945050505050565b6000604082016040835280855180835260608501915060608160051b8601019250602080880160005b8381101561262257605f198887030185526126108683516124e9565b955093820193908201906001016125f4565b5050858403818701525050506126388185612590565b95945050505050565b60006020828403121561265357600080fd5b5035919050565b600681106124e5576124e56124bf565b600081518084526020808501945080840160005b838110156125c05781516001600160a01b03168752958201959082019060010161267e565b6020815281516020820152600060208301516126ca60408401826001600160a01b03169052565b506040830151606083015260608301516126ec608084018263ffffffff169052565b50608083015163ffffffff811660a08401525060a083015161271160c084018261265a565b5060c083015160e083015260e0830151610100818185015280850151915050610140610120818186015261274961016086018461266a565b95015163ffffffff169301929092525090919050565b803563ffffffff8116811461249f57600080fd5b6000806040838503121561278657600080fd5b61278f8361275f565b915061279d60208401612488565b90509250929050565b6001600160a01b03871681526020810186905260c081016127ca60408301876124d5565b63ffffffff948516606083015292909316608084015260a0909201919091529392505050565b6000806040838503121561280357600080fd5b8235915061279d6020840161275f565b60208152600061134a60208301846124e9565b6000806040838503121561283957600080fd5b8235915061279d60208401612488565b60208152600061134a6020830184612590565b60208152600061134a602083018461266a565b6000806040838503121561288257600080fd5b61288b83612488565b946020939093013593505050565b600080600080608085870312156128af57600080fd5b843593506128bf6020860161275f565b9250604085013591506128d46060860161275f565b905092959194509250565b600080604083850312156128f257600080fd5b50508035926020909101359150565b634e487b7160e01b600052603260045260246000fd5b634e487b7160e01b600052601160045260246000fd5b60006001820161293f5761293f612917565b5060010190565b634e487b7160e01b600052604160045260246000fd5b8082018082111561106557611065612917565b808202811582820484141761106557611065612917565b8181038181111561106557611065612917565b6000826129b657634e487b7160e01b600052601260045260246000fd5b500490565b63ffffffff8181168382160190808211156129d8576129d8612917565b5092915050565b6000602082840312156129f157600080fd5b5051919050565b63ffffffff8281168282160390808211156129d8576129d8612917565b600060208284031215612a2757600080fd5b8151801515811461134a57600080fd5b600060808201612a4783886124d5565b602063ffffffff8716818501528560408501526080606085015281855480845260a0860191508660005282600020935060005b81811015612a9657845483526001948501949284019201612a7a565b50909998505050505050505050565b600381810b9083900b01637fffffff8113637fffffff198212171561106557611065612917565b600382810b9082900b03637fffffff198112637fffffff8213171561106557611065612917565b600063ffffffff808316818103612b0c57612b0c612917565b600101939250505056fea264697066735822122064bc56b81d468a8d257ca0292cc42fddc46f6d882c1eadf1dbf4492424e8f8a564736f6c63430008130033","opcodes":"PUSH1 0xA0 PUSH1 0x40 MSTORE CALLVALUE DUP1 ISZERO PUSH3 0x11 JUMPI PUSH1 0x0 DUP1 REVERT JUMPDEST POP PUSH1 0x40 MLOAD PUSH3 0x2C08 CODESIZE SUB DUP1 PUSH3 0x2C08 DUP4 CODECOPY DUP2 ADD PUSH1 0x40 DUP2 SWAP1 MSTORE PUSH3 0x34 SWAP2 PUSH3 0x4B JUMP JUMPDEST PUSH1 0x1 PUSH1 0x0 SSTORE PUSH1 0x1 PUSH1 0x1 PUSH1 0xA0 SHL SUB AND PUSH1 0x80 MSTORE PUSH3 0x7D JUMP JUMPDEST PUSH1 0x0 PUSH1 0x20 DUP3 DUP5 SUB SLT ISZERO PUSH3 0x5E JUMPI PUSH1 0x0 DUP1 REVERT JUMPDEST DUP2 MLOAD PUSH1 0x1 PUSH1 0x1 PUSH1 0xA0 SHL SUB DUP2 AND DUP2 EQ PUSH3 0x76 JUMPI PUSH1 0x0 DUP1 REVERT JUMPDEST SWAP4 SWAP3 POP POP POP JUMP JUMPDEST PUSH1 0x80 MLOAD PUSH2 0x2B4C PUSH3 0xBC PUSH1 0x0 CODECOPY PUSH1 0x0 DUP2 DUP2 PUSH2 0x4AC ADD MSTORE DUP2 DUP2 PUSH2 0x10E9 ADD MSTORE DUP2 DUP2 PUSH2 0x17B8 ADD MSTORE DUP2 DUP2 PUSH2 0x1A8F ADD MSTORE DUP2 DUP2 PUSH2 0x1B6F ADD MSTORE PUSH2 0x1FA7 ADD MSTORE PUSH2 0x2B4C PUSH1 0x0 RETURN INVALID PUSH1 0x80 PUSH1 0x40 MSTORE CALLVALUE DUP1 ISZERO PUSH2 0x10 JUMPI PUSH1 0x0 DUP1 REVERT JUMPDEST POP PUSH1 0x4 CALLDATASIZE LT PUSH2 0x1E5 JUMPI PUSH1 0x0 CALLDATALOAD PUSH1 0xE0 SHR DUP1 PUSH4 0x7D52437A GT PUSH2 0x10F JUMPI DUP1 PUSH4 0x9E932011 GT PUSH2 0xA2 JUMPI DUP1 PUSH4 0xBE5EB580 GT PUSH2 0x71 JUMPI DUP1 PUSH4 0xBE5EB580 EQ PUSH2 0x4F9 JUMPI DUP1 PUSH4 0xD8AED145 EQ PUSH2 0x522 JUMPI DUP1 PUSH4 0xEB5A662E EQ PUSH2 0x535 JUMPI DUP1 PUSH4 0xF14FAF6F EQ PUSH2 0x548 JUMPI PUSH1 0x0 DUP1 REVERT JUMPDEST DUP1 PUSH4 0x9E932011 EQ PUSH2 0x481 JUMPI DUP1 PUSH4 0xA648BF75 EQ PUSH2 0x494 JUMPI DUP1 PUSH4 0xA98AD46C EQ PUSH2 0x4A7 JUMPI DUP1 PUSH4 0xADCEB101 EQ PUSH2 0x4E6 JUMPI PUSH1 0x0 DUP1 REVERT JUMPDEST DUP1 PUSH4 0x8A914A63 GT PUSH2 0xDE JUMPI DUP1 PUSH4 0x8A914A63 EQ PUSH2 0x42B JUMPI DUP1 PUSH4 0x9730872A EQ PUSH2 0x44B JUMPI DUP1 PUSH4 0x9785FAC8 EQ PUSH2 0x3C9 JUMPI DUP1 PUSH4 0x97C33519 EQ PUSH2 0x45E JUMPI PUSH1 0x0 DUP1 REVERT JUMPDEST DUP1 PUSH4 0x7D52437A EQ PUSH2 0x3D9 JUMPI DUP1 PUSH4 0x809DAB6A EQ PUSH2 0x2D7 JUMPI DUP1 PUSH4 0x827CC0E5 EQ PUSH2 0x3F9 JUMPI DUP1 PUSH4 0x84DDF5EA EQ PUSH2 0x422 JUMPI PUSH1 0x0 DUP1 REVERT JUMPDEST DUP1 PUSH4 0x2B31C022 GT PUSH2 0x187 JUMPI DUP1 PUSH4 0x6509A710 GT PUSH2 0x156 JUMPI DUP1 PUSH4 0x6509A710 EQ PUSH2 0x378 JUMPI DUP1 PUSH4 0x657EB031 EQ PUSH2 0x3A0 JUMPI DUP1 PUSH4 0x6F9FB98A EQ PUSH2 0x3C9 JUMPI DUP1 PUSH4 0x777C658F EQ PUSH2 0x3D1 JUMPI PUSH1 0x0 DUP1 REVERT JUMPDEST DUP1 PUSH4 0x2B31C022 EQ PUSH2 0x2DF JUMPI DUP1 PUSH4 0x383AB2EF EQ PUSH2 0x31C JUMPI DUP1 PUSH4 0x410A1D32 EQ PUSH2 0x33C JUMPI DUP1 PUSH4 0x4E51C7DF EQ PUSH2 0x365 JUMPI PUSH1 0x0 DUP1 REVERT JUMPDEST DUP1 PUSH4 0x21BB31E4 GT PUSH2 0x1C3 JUMPI DUP1 PUSH4 0x21BB31E4 EQ PUSH2 0x242 JUMPI DUP1 PUSH4 0x232869FA EQ PUSH2 0x257 JUMPI DUP1 PUSH4 0x2485A314 EQ PUSH2 0x2C4 JUMPI DUP1 PUSH4 0x291C31A7 EQ PUSH2 0x2D7 JUMPI PUSH1 0x0 DUP1 REVERT JUMPDEST DUP1 PUSH4 0x307C4A1 EQ PUSH2 0x1EA JUMPI DUP1 PUSH4 0x3D1A1A1 EQ PUSH2 0x201 JUMPI DUP1 PUSH4 0x1B70BA3E EQ PUSH2 0x222 JUMPI JUMPDEST PUSH1 0x0 DUP1 REVERT JUMPDEST PUSH1 0x7 SLOAD JUMPDEST PUSH1 0x40 MLOAD SWAP1 DUP2 MSTORE PUSH1 0x20 ADD JUMPDEST PUSH1 0x40 MLOAD DUP1 SWAP2 SUB SWAP1 RETURN JUMPDEST PUSH2 0x214 PUSH2 0x20F CALLDATASIZE PUSH1 0x4 PUSH2 0x24A4 JUMP JUMPDEST PUSH2 0x55B JUMP JUMPDEST PUSH1 0x40 MLOAD PUSH2 0x1F8 SWAP3 SWAP2 SWAP1 PUSH2 0x25CB JUMP JUMPDEST PUSH2 0x235 PUSH2 0x230 CALLDATASIZE PUSH1 0x4 PUSH2 0x2641 JUMP JUMPDEST PUSH2 0x8CB JUMP JUMPDEST PUSH1 0x40 MLOAD PUSH2 0x1F8 SWAP2 SWAP1 PUSH2 0x26A3 JUMP JUMPDEST PUSH2 0x255 PUSH2 0x250 CALLDATASIZE PUSH1 0x4 PUSH2 0x2773 JUMP JUMPDEST PUSH2 0xA2F JUMP JUMPDEST STOP JUMPDEST PUSH2 0x2B2 PUSH2 0x265 CALLDATASIZE PUSH1 0x4 PUSH2 0x2641 JUMP JUMPDEST PUSH1 0xD PUSH1 0x20 MSTORE PUSH1 0x0 SWAP1 DUP2 MSTORE PUSH1 0x40 SWAP1 KECCAK256 DUP1 SLOAD PUSH1 0x1 DUP3 ADD SLOAD PUSH1 0x2 DUP4 ADD SLOAD PUSH1 0x3 SWAP1 SWAP4 ADD SLOAD PUSH1 0x1 PUSH1 0x1 PUSH1 0xA0 SHL SUB SWAP1 SWAP3 AND SWAP3 SWAP1 SWAP2 PUSH1 0xFF DUP3 AND SWAP2 PUSH4 0xFFFFFFFF PUSH2 0x100 DUP3 DIV DUP2 AND SWAP3 PUSH1 0x1 PUSH1 0x28 SHL SWAP1 SWAP3 DIV AND SWAP1 DUP7 JUMP JUMPDEST PUSH1 0x40 MLOAD PUSH2 0x1F8 SWAP7 SWAP6 SWAP5 SWAP4 SWAP3 SWAP2 SWAP1 PUSH2 0x27A6 JUMP JUMPDEST PUSH2 0x255 PUSH2 0x2D2 CALLDATASIZE PUSH1 0x4 PUSH2 0x27F0 JUMP JUMPDEST PUSH2 0xB0E JUMP JUMPDEST PUSH1 0x8 SLOAD PUSH2 0x1EE JUMP JUMPDEST PUSH2 0x2F2 PUSH2 0x2ED CALLDATASIZE PUSH1 0x4 PUSH2 0x2641 JUMP JUMPDEST PUSH2 0xE67 JUMP JUMPDEST PUSH1 0x40 DUP1 MLOAD SWAP6 DUP7 MSTORE PUSH1 0x20 DUP7 ADD SWAP5 SWAP1 SWAP5 MSTORE SWAP3 DUP5 ADD SWAP2 SWAP1 SWAP2 MSTORE PUSH1 0x60 DUP4 ADD MSTORE ISZERO ISZERO PUSH1 0x80 DUP3 ADD MSTORE PUSH1 0xA0 ADD PUSH2 0x1F8 JUMP JUMPDEST PUSH2 0x32F PUSH2 0x32A CALLDATASIZE PUSH1 0x4 PUSH2 0x2641 JUMP JUMPDEST PUSH2 0xF3C JUMP JUMPDEST PUSH1 0x40 MLOAD PUSH2 0x1F8 SWAP2 SWAP1 PUSH2 0x2813 JUMP JUMPDEST PUSH2 0x1EE PUSH2 0x34A CALLDATASIZE PUSH1 0x4 PUSH2 0x24A4 JUMP JUMPDEST PUSH1 0x1 PUSH1 0x1 PUSH1 0xA0 SHL SUB AND PUSH1 0x0 SWAP1 DUP2 MSTORE PUSH1 0x3 PUSH1 0x20 MSTORE PUSH1 0x40 SWAP1 KECCAK256 SLOAD SWAP1 JUMP JUMPDEST PUSH2 0x1EE PUSH2 0x373 CALLDATASIZE PUSH1 0x4 PUSH2 0x2826 JUMP JUMPDEST PUSH2 0x103E JUMP JUMPDEST PUSH2 0x38B PUSH2 0x386 CALLDATASIZE PUSH1 0x4 PUSH2 0x2641 JUMP JUMPDEST PUSH2 0x106B JUMP JUMPDEST PUSH1 0x40 DUP1 MLOAD SWAP3 DUP4 MSTORE SWAP1 ISZERO ISZERO PUSH1 0x20 DUP4 ADD MSTORE ADD PUSH2 0x1F8 JUMP JUMPDEST PUSH2 0x1EE PUSH2 0x3AE CALLDATASIZE PUSH1 0x4 PUSH2 0x24A4 JUMP JUMPDEST PUSH1 0x1 PUSH1 0x1 PUSH1 0xA0 SHL SUB AND PUSH1 0x0 SWAP1 DUP2 MSTORE PUSH1 0x5 PUSH1 0x20 MSTORE PUSH1 0x40 SWAP1 KECCAK256 SLOAD SWAP1 JUMP JUMPDEST PUSH2 0x1EE PUSH2 0x10D1 JUMP JUMPDEST PUSH1 0x6 SLOAD PUSH2 0x1EE JUMP JUMPDEST PUSH2 0x3EC PUSH2 0x3E7 CALLDATASIZE PUSH1 0x4 PUSH2 0x2641 JUMP JUMPDEST PUSH2 0x1161 JUMP JUMPDEST PUSH1 0x40 MLOAD PUSH2 0x1F8 SWAP2 SWAP1 PUSH2 0x2849 JUMP JUMPDEST PUSH2 0x1EE PUSH2 0x407 CALLDATASIZE PUSH1 0x4 PUSH2 0x24A4 JUMP JUMPDEST PUSH1 0x1 PUSH1 0x1 PUSH1 0xA0 SHL SUB AND PUSH1 0x0 SWAP1 DUP2 MSTORE PUSH1 0xC PUSH1 0x20 MSTORE PUSH1 0x40 SWAP1 KECCAK256 SLOAD SWAP1 JUMP JUMPDEST PUSH2 0x1EE PUSH1 0xA SLOAD DUP2 JUMP JUMPDEST PUSH2 0x43E PUSH2 0x439 CALLDATASIZE PUSH1 0x4 PUSH2 0x2641 JUMP JUMPDEST PUSH2 0x11C6 JUMP JUMPDEST PUSH1 0x40 MLOAD PUSH2 0x1F8 SWAP2 SWAP1 PUSH2 0x285C JUMP JUMPDEST PUSH2 0x3EC PUSH2 0x459 CALLDATASIZE PUSH1 0x4 PUSH2 0x24A4 JUMP JUMPDEST PUSH2 0x1234 JUMP JUMPDEST PUSH2 0x471 PUSH2 0x46C CALLDATASIZE PUSH1 0x4 PUSH2 0x286F JUMP JUMPDEST PUSH2 0x129E JUMP JUMPDEST PUSH1 0x40 MLOAD SWAP1 ISZERO ISZERO DUP2 MSTORE PUSH1 0x20 ADD PUSH2 0x1F8 JUMP JUMPDEST PUSH2 0x1EE PUSH2 0x48F CALLDATASIZE PUSH1 0x4 PUSH2 0x286F JUMP JUMPDEST PUSH2 0x1351 JUMP JUMPDEST PUSH2 0x1EE PUSH2 0x4A2 CALLDATASIZE PUSH1 0x4 PUSH2 0x2899 JUMP JUMPDEST PUSH2 0x1382 JUMP JUMPDEST PUSH2 0x4CE PUSH32 0x0 DUP2 JUMP JUMPDEST PUSH1 0x40 MLOAD PUSH1 0x1 PUSH1 0x1 PUSH1 0xA0 SHL SUB SWAP1 SWAP2 AND DUP2 MSTORE PUSH1 0x20 ADD PUSH2 0x1F8 JUMP JUMPDEST PUSH2 0x471 PUSH2 0x4F4 CALLDATASIZE PUSH1 0x4 PUSH2 0x2826 JUMP JUMPDEST PUSH2 0x1557 JUMP JUMPDEST PUSH2 0x1EE PUSH2 0x507 CALLDATASIZE PUSH1 0x4 PUSH2 0x24A4 JUMP JUMPDEST PUSH1 0x1 PUSH1 0x1 PUSH1 0xA0 SHL SUB AND PUSH1 0x0 SWAP1 DUP2 MSTORE PUSH1 0x4 PUSH1 0x20 MSTORE PUSH1 0x40 SWAP1 KECCAK256 SLOAD SWAP1 JUMP JUMPDEST PUSH2 0x255 PUSH2 0x530 CALLDATASIZE PUSH1 0x4 PUSH2 0x28DF JUMP JUMPDEST PUSH2 0x15BD JUMP JUMPDEST PUSH2 0x1EE PUSH2 0x543 CALLDATASIZE PUSH1 0x4 PUSH2 0x24A4 JUMP JUMPDEST PUSH2 0x1A67 JUMP JUMPDEST PUSH2 0x255 PUSH2 0x556 CALLDATASIZE PUSH1 0x4 PUSH2 0x2641 JUMP JUMPDEST PUSH2 0x1AFC JUMP JUMPDEST PUSH1 0x1 PUSH1 0x1 PUSH1 0xA0 SHL SUB DUP2 AND PUSH1 0x0 SWAP1 DUP2 MSTORE PUSH1 0xB PUSH1 0x20 MSTORE PUSH1 0x40 DUP2 KECCAK256 PUSH1 0x60 SWAP2 DUP3 SWAP2 SWAP1 DUP1 JUMPDEST DUP3 SLOAD DUP2 LT ISZERO PUSH2 0x631 JUMPI PUSH1 0x0 PUSH1 0xD PUSH1 0x0 DUP6 DUP5 DUP2 SLOAD DUP2 LT PUSH2 0x59C JUMPI PUSH2 0x59C PUSH2 0x2901 JUMP JUMPDEST PUSH1 0x0 SWAP2 DUP3 MSTORE PUSH1 0x20 DUP1 DUP4 KECCAK256 SWAP1 SWAP2 ADD SLOAD DUP4 MSTORE DUP3 ADD SWAP3 SWAP1 SWAP3 MSTORE PUSH1 0x40 ADD SWAP1 KECCAK256 DUP1 SLOAD SWAP1 SWAP2 POP PUSH1 0x1 PUSH1 0x1 PUSH1 0xA0 SHL SUB SWAP1 DUP2 AND SWAP1 DUP9 AND EQ DUP1 ISZERO PUSH2 0x5EF JUMPI POP PUSH1 0x0 PUSH1 0x2 DUP1 DUP4 ADD SLOAD PUSH1 0xFF AND SWAP1 DUP2 GT ISZERO PUSH2 0x5ED JUMPI PUSH2 0x5ED PUSH2 0x24BF JUMP JUMPDEST EQ JUMPDEST DUP1 ISZERO PUSH2 0x60B JUMPI POP PUSH1 0x2 DUP2 ADD SLOAD PUSH1 0x1 PUSH1 0x28 SHL SWAP1 DIV PUSH4 0xFFFFFFFF AND ISZERO ISZERO JUMPDEST ISZERO PUSH2 0x61E JUMPI DUP3 PUSH2 0x61A DUP2 PUSH2 0x292D JUMP JUMPDEST SWAP4 POP POP JUMPDEST POP DUP1 PUSH2 0x629 DUP2 PUSH2 0x292D JUMP JUMPDEST SWAP2 POP POP PUSH2 0x57B JUMP JUMPDEST POP DUP1 PUSH8 0xFFFFFFFFFFFFFFFF DUP2 GT ISZERO PUSH2 0x64B JUMPI PUSH2 0x64B PUSH2 0x2946 JUMP JUMPDEST PUSH1 0x40 MLOAD SWAP1 DUP1 DUP3 MSTORE DUP1 PUSH1 0x20 MUL PUSH1 0x20 ADD DUP3 ADD PUSH1 0x40 MSTORE DUP1 ISZERO PUSH2 0x684 JUMPI DUP2 PUSH1 0x20 ADD JUMPDEST PUSH2 0x671 PUSH2 0x243F JUMP JUMPDEST DUP2 MSTORE PUSH1 0x20 ADD SWAP1 PUSH1 0x1 SWAP1 SUB SWAP1 DUP2 PUSH2 0x669 JUMPI SWAP1 POP JUMPDEST POP SWAP4 POP DUP1 PUSH8 0xFFFFFFFFFFFFFFFF DUP2 GT ISZERO PUSH2 0x6A0 JUMPI PUSH2 0x6A0 PUSH2 0x2946 JUMP JUMPDEST PUSH1 0x40 MLOAD SWAP1 DUP1 DUP3 MSTORE DUP1 PUSH1 0x20 MUL PUSH1 0x20 ADD DUP3 ADD PUSH1 0x40 MSTORE DUP1 ISZERO PUSH2 0x6C9 JUMPI DUP2 PUSH1 0x20 ADD PUSH1 0x20 DUP3 MUL DUP1 CALLDATASIZE DUP4 CALLDATACOPY ADD SWAP1 POP JUMPDEST POP SWAP3 POP PUSH1 0x0 DUP1 JUMPDEST DUP4 SLOAD DUP2 LT ISZERO PUSH2 0x8C2 JUMPI PUSH1 0x0 PUSH1 0xD PUSH1 0x0 DUP7 DUP5 DUP2 SLOAD DUP2 LT PUSH2 0x6F1 JUMPI PUSH2 0x6F1 PUSH2 0x2901 JUMP JUMPDEST PUSH1 0x0 SWAP2 DUP3 MSTORE PUSH1 0x20 DUP1 DUP4 KECCAK256 SWAP1 SWAP2 ADD SLOAD DUP4 MSTORE DUP3 ADD SWAP3 SWAP1 SWAP3 MSTORE PUSH1 0x40 ADD SWAP1 KECCAK256 DUP1 SLOAD SWAP1 SWAP2 POP PUSH1 0x1 PUSH1 0x1 PUSH1 0xA0 SHL SUB SWAP1 DUP2 AND SWAP1 DUP10 AND EQ DUP1 ISZERO PUSH2 0x744 JUMPI POP PUSH1 0x0 PUSH1 0x2 DUP1 DUP4 ADD SLOAD PUSH1 0xFF AND SWAP1 DUP2 GT ISZERO PUSH2 0x742 JUMPI PUSH2 0x742 PUSH2 0x24BF JUMP JUMPDEST EQ JUMPDEST DUP1 ISZERO PUSH2 0x760 JUMPI POP PUSH1 0x2 DUP2 ADD SLOAD PUSH1 0x1 PUSH1 0x28 SHL SWAP1 DIV PUSH4 0xFFFFFFFF AND ISZERO ISZERO JUMPDEST ISZERO PUSH2 0x8AF JUMPI PUSH1 0x40 DUP1 MLOAD PUSH1 0xE0 DUP2 ADD DUP3 MSTORE DUP3 SLOAD PUSH1 0x1 PUSH1 0x1 PUSH1 0xA0 SHL SUB AND DUP2 MSTORE PUSH1 0x1 DUP4 ADD SLOAD PUSH1 0x20 DUP3 ADD MSTORE PUSH1 0x2 DUP1 DUP5 ADD SLOAD SWAP2 SWAP3 DUP5 SWAP3 SWAP1 DUP5 ADD SWAP2 PUSH1 0xFF SWAP1 SWAP2 AND SWAP1 DUP2 GT ISZERO PUSH2 0x7A9 JUMPI PUSH2 0x7A9 PUSH2 0x24BF JUMP JUMPDEST PUSH1 0x2 DUP2 GT ISZERO PUSH2 0x7BA JUMPI PUSH2 0x7BA PUSH2 0x24BF JUMP JUMPDEST DUP2 MSTORE PUSH1 0x2 DUP3 ADD SLOAD PUSH4 0xFFFFFFFF PUSH2 0x100 DUP3 DIV DUP2 AND PUSH1 0x20 DUP1 DUP6 ADD SWAP2 SWAP1 SWAP2 MSTORE PUSH1 0x1 PUSH1 0x28 SHL SWAP1 SWAP3 DIV AND PUSH1 0x40 DUP1 DUP5 ADD SWAP2 SWAP1 SWAP2 MSTORE PUSH1 0x3 DUP5 ADD SLOAD PUSH1 0x60 DUP5 ADD MSTORE PUSH1 0x4 DUP5 ADD DUP1 SLOAD DUP3 MLOAD DUP2 DUP6 MUL DUP2 ADD DUP6 ADD SWAP1 SWAP4 MSTORE DUP1 DUP4 MSTORE PUSH1 0x80 SWAP1 SWAP5 ADD SWAP4 SWAP2 SWAP3 SWAP1 SWAP2 SWAP1 DUP4 ADD DUP3 DUP3 DUP1 ISZERO PUSH2 0x841 JUMPI PUSH1 0x20 MUL DUP3 ADD SWAP2 SWAP1 PUSH1 0x0 MSTORE PUSH1 0x20 PUSH1 0x0 KECCAK256 SWAP1 JUMPDEST DUP2 SLOAD DUP2 MSTORE PUSH1 0x20 ADD SWAP1 PUSH1 0x1 ADD SWAP1 DUP1 DUP4 GT PUSH2 0x82D JUMPI JUMPDEST POP POP POP POP POP DUP2 MSTORE POP POP DUP8 DUP5 DUP2 MLOAD DUP2 LT PUSH2 0x85C JUMPI PUSH2 0x85C PUSH2 0x2901 JUMP JUMPDEST PUSH1 0x20 MUL PUSH1 0x20 ADD ADD DUP2 SWAP1 MSTORE POP DUP5 DUP3 DUP2 SLOAD DUP2 LT PUSH2 0x879 JUMPI PUSH2 0x879 PUSH2 0x2901 JUMP JUMPDEST SWAP1 PUSH1 0x0 MSTORE PUSH1 0x20 PUSH1 0x0 KECCAK256 ADD SLOAD DUP7 DUP5 DUP2 MLOAD DUP2 LT PUSH2 0x896 JUMPI PUSH2 0x896 PUSH2 0x2901 JUMP JUMPDEST PUSH1 0x20 SWAP1 DUP2 MUL SWAP2 SWAP1 SWAP2 ADD ADD MSTORE DUP3 PUSH2 0x8AB DUP2 PUSH2 0x292D JUMP JUMPDEST SWAP4 POP POP JUMPDEST POP DUP1 PUSH2 0x8BA DUP2 PUSH2 0x292D JUMP JUMPDEST SWAP2 POP POP PUSH2 0x6D0 JUMP JUMPDEST POP POP POP POP SWAP2 POP SWAP2 JUMP JUMPDEST PUSH1 0x40 DUP1 MLOAD PUSH2 0x140 DUP2 ADD DUP3 MSTORE PUSH1 0x0 DUP1 DUP3 MSTORE PUSH1 0x20 DUP3 ADD DUP2 SWAP1 MSTORE SWAP2 DUP2 ADD DUP3 SWAP1 MSTORE PUSH1 0x60 DUP1 DUP3 ADD DUP4 SWAP1 MSTORE PUSH1 0x80 DUP3 ADD DUP4 SWAP1 MSTORE PUSH1 0xA0 DUP3 ADD DUP4 SWAP1 MSTORE PUSH1 0xC0 DUP3 ADD DUP4 SWAP1 MSTORE PUSH1 0xE0 DUP3 ADD DUP4 SWAP1 MSTORE PUSH2 0x100 DUP3 ADD MSTORE PUSH2 0x120 DUP2 ADD SWAP2 SWAP1 SWAP2 MSTORE PUSH1 0x0 DUP3 DUP2 MSTORE PUSH1 0x9 PUSH1 0x20 SWAP1 DUP2 MSTORE PUSH1 0x40 SWAP2 DUP3 SWAP1 KECCAK256 DUP3 MLOAD PUSH2 0x140 DUP2 ADD DUP5 MSTORE DUP2 SLOAD DUP2 MSTORE PUSH1 0x1 DUP3 ADD SLOAD PUSH1 0x1 PUSH1 0x1 PUSH1 0xA0 SHL SUB AND SWAP3 DUP2 ADD SWAP3 SWAP1 SWAP3 MSTORE PUSH1 0x2 DUP2 ADD SLOAD SWAP3 DUP3 ADD SWAP3 SWAP1 SWAP3 MSTORE PUSH1 0x3 DUP3 ADD SLOAD PUSH4 0xFFFFFFFF DUP1 DUP3 AND PUSH1 0x60 DUP5 ADD MSTORE PUSH5 0x100000000 DUP3 DIV AND PUSH1 0x80 DUP4 ADD MSTORE PUSH1 0xA0 DUP3 ADD SWAP1 PUSH1 0x1 PUSH1 0x40 SHL SWAP1 DIV PUSH1 0xFF AND PUSH1 0x5 DUP2 GT ISZERO PUSH2 0x99B JUMPI PUSH2 0x99B PUSH2 0x24BF JUMP JUMPDEST DUP2 MSTORE PUSH1 0x20 ADD DUP3 PUSH1 0x4 ADD SLOAD DUP2 MSTORE PUSH1 0x20 ADD DUP3 PUSH1 0x5 ADD SLOAD DUP2 MSTORE PUSH1 0x20 ADD DUP3 PUSH1 0x6 ADD DUP1 SLOAD DUP1 PUSH1 0x20 MUL PUSH1 0x20 ADD PUSH1 0x40 MLOAD SWAP1 DUP2 ADD PUSH1 0x40 MSTORE DUP1 SWAP3 SWAP2 SWAP1 DUP2 DUP2 MSTORE PUSH1 0x20 ADD DUP3 DUP1 SLOAD DUP1 ISZERO PUSH2 0xA0C JUMPI PUSH1 0x20 MUL DUP3 ADD SWAP2 SWAP1 PUSH1 0x0 MSTORE PUSH1 0x20 PUSH1 0x0 KECCAK256 SWAP1 JUMPDEST DUP2 SLOAD PUSH1 0x1 PUSH1 0x1 PUSH1 0xA0 SHL SUB AND DUP2 MSTORE PUSH1 0x1 SWAP1 SWAP2 ADD SWAP1 PUSH1 0x20 ADD DUP1 DUP4 GT PUSH2 0x9EE JUMPI JUMPDEST POP POP POP SWAP2 DUP4 MSTORE POP POP PUSH1 0x8 SWAP1 SWAP3 ADD SLOAD PUSH4 0xFFFFFFFF AND PUSH1 0x20 SWAP1 SWAP3 ADD SWAP2 SWAP1 SWAP2 MSTORE SWAP3 SWAP2 POP POP JUMP JUMPDEST DUP2 DUP2 PUSH4 0xFFFFFFFF DUP3 AND ISZERO DUP1 PUSH2 0xA4B JUMPI POP PUSH1 0x1 PUSH1 0x1 PUSH1 0xA0 SHL SUB DUP2 AND ISZERO JUMPDEST ISZERO PUSH2 0xA69 JUMPI PUSH1 0x40 MLOAD PUSH4 0xCFF23E7 PUSH1 0xE0 SHL DUP2 MSTORE PUSH1 0x4 ADD PUSH1 0x40 MLOAD DUP1 SWAP2 SUB SWAP1 REVERT JUMPDEST PUSH1 0x1 PUSH1 0x1 PUSH1 0xA0 SHL SUB DUP2 AND PUSH1 0x0 SWAP1 DUP2 MSTORE PUSH1 0x1 PUSH1 0x20 MSTORE PUSH1 0x40 SWAP1 KECCAK256 SLOAD PUSH4 0xFFFFFFFF AND ISZERO PUSH2 0xAA6 JUMPI PUSH1 0x40 MLOAD PUSH4 0x77030A87 PUSH1 0xE1 SHL DUP2 MSTORE PUSH1 0x4 ADD PUSH1 0x40 MLOAD DUP1 SWAP2 SUB SWAP1 REVERT JUMPDEST PUSH1 0x1 PUSH1 0x1 PUSH1 0xA0 SHL SUB DUP4 AND PUSH1 0x0 DUP2 DUP2 MSTORE PUSH1 0x1 PUSH1 0x20 SWAP1 DUP2 MSTORE PUSH1 0x40 SWAP2 DUP3 SWAP1 KECCAK256 DUP1 SLOAD PUSH4 0xFFFFFFFF NOT AND PUSH4 0xFFFFFFFF DUP10 AND SWAP1 DUP2 OR SWAP1 SWAP2 SSTORE SWAP2 MLOAD TIMESTAMP DUP2 MSTORE PUSH32 0x605181A3CCA1307AE9B2DF54D6592DDF8F82C3570C6938F36D61CD23B6B57A8D SWAP2 ADD PUSH1 0x40 MLOAD DUP1 SWAP2 SUB SWAP1 LOG3 POP POP POP POP JUMP JUMPDEST DUP1 PUSH4 0xFFFFFFFF DUP2 AND ISZERO DUP1 PUSH2 0xB28 JUMPI POP PUSH1 0x64 DUP2 PUSH4 0xFFFFFFFF AND GT JUMPDEST ISZERO PUSH2 0xB46 JUMPI PUSH1 0x40 MLOAD PUSH4 0xD1E95ED5 PUSH1 0xE0 SHL DUP2 MSTORE PUSH1 0x4 ADD PUSH1 0x40 MLOAD DUP1 SWAP2 SUB SWAP1 REVERT JUMPDEST PUSH2 0xB4E PUSH2 0x1D1F JUMP JUMPDEST PUSH1 0x0 DUP4 DUP2 MSTORE PUSH1 0x9 PUSH1 0x20 MSTORE PUSH1 0x40 DUP2 KECCAK256 SWAP1 PUSH1 0x3 DUP3 ADD SLOAD PUSH1 0x1 PUSH1 0x40 SHL SWAP1 DIV PUSH1 0xFF AND PUSH1 0x5 DUP2 GT ISZERO PUSH2 0xB7D JUMPI PUSH2 0xB7D PUSH2 0x24BF JUMP JUMPDEST EQ ISZERO DUP1 ISZERO PUSH2 0xBAB JUMPI POP PUSH1 0x1 PUSH1 0x3 DUP3 ADD SLOAD PUSH1 0x1 PUSH1 0x40 SHL SWAP1 DIV PUSH1 0xFF AND PUSH1 0x5 DUP2 GT ISZERO PUSH2 0xBA8 JUMPI PUSH2 0xBA8 PUSH2 0x24BF JUMP JUMPDEST EQ ISZERO JUMPDEST ISZERO PUSH2 0xBC9 JUMPI PUSH1 0x40 MLOAD PUSH4 0x80B9CB09 PUSH1 0xE0 SHL DUP2 MSTORE PUSH1 0x4 ADD PUSH1 0x40 MLOAD DUP1 SWAP2 SUB SWAP1 REVERT JUMPDEST PUSH1 0x3 DUP2 ADD SLOAD PUSH1 0x64 SWAP1 PUSH2 0xBEC SWAP1 PUSH4 0xFFFFFFFF DUP1 DUP8 AND SWAP2 PUSH5 0x100000000 SWAP1 DIV AND PUSH2 0x295C JUMP JUMPDEST GT ISZERO PUSH2 0xC0B JUMPI PUSH1 0x40 MLOAD PUSH4 0x955F95AD PUSH1 0xE0 SHL DUP2 MSTORE PUSH1 0x4 ADD PUSH1 0x40 MLOAD DUP1 SWAP2 SUB SWAP1 REVERT JUMPDEST PUSH8 0xDE0B6B3A7640000 PUSH1 0x0 PUSH2 0xC21 DUP3 PUSH1 0x64 PUSH2 0x296F JUMP JUMPDEST PUSH1 0x1 PUSH2 0xC2E DUP5 PUSH1 0x64 PUSH2 0x296F JUMP JUMPDEST PUSH2 0xC38 SWAP2 SWAP1 PUSH2 0x2986 JUMP JUMPDEST DUP4 DUP8 PUSH4 0xFFFFFFFF AND DUP7 PUSH1 0x2 ADD SLOAD PUSH2 0xC4F SWAP2 SWAP1 PUSH2 0x296F JUMP JUMPDEST PUSH2 0xC59 SWAP2 SWAP1 PUSH2 0x296F JUMP JUMPDEST PUSH2 0xC63 SWAP2 SWAP1 PUSH2 0x295C JUMP JUMPDEST PUSH2 0xC6D SWAP2 SWAP1 PUSH2 0x2999 JUMP JUMPDEST CALLER PUSH1 0x0 SWAP1 DUP2 MSTORE PUSH1 0x3 PUSH1 0x20 MSTORE PUSH1 0x40 SWAP1 KECCAK256 SLOAD SWAP1 SWAP2 POP DUP2 GT ISZERO PUSH2 0xCA0 JUMPI PUSH1 0x40 MLOAD PUSH4 0x391ACF1 PUSH1 0xE6 SHL DUP2 MSTORE PUSH1 0x4 ADD PUSH1 0x40 MLOAD DUP1 SWAP2 SUB SWAP1 REVERT JUMPDEST CALLER PUSH1 0x0 SWAP1 DUP2 MSTORE PUSH1 0x3 PUSH1 0x20 MSTORE PUSH1 0x40 DUP2 KECCAK256 DUP1 SLOAD DUP4 SWAP3 SWAP1 PUSH2 0xCBF SWAP1 DUP5 SWAP1 PUSH2 0x2986 JUMP JUMPDEST SWAP1 SWAP2 SSTORE POP POP CALLER PUSH1 0x0 SWAP1 DUP2 MSTORE PUSH1 0xC PUSH1 0x20 MSTORE PUSH1 0x40 DUP2 KECCAK256 DUP1 SLOAD DUP4 SWAP3 SWAP1 PUSH2 0xCE3 SWAP1 DUP5 SWAP1 PUSH2 0x295C JUMP JUMPDEST SWAP1 SWAP2 SSTORE POP POP PUSH1 0x3 DUP4 ADD DUP1 SLOAD DUP7 SWAP2 SWAP1 PUSH1 0x4 SWAP1 PUSH2 0xD0D SWAP1 DUP5 SWAP1 PUSH5 0x100000000 SWAP1 DIV PUSH4 0xFFFFFFFF AND PUSH2 0x29BB JUMP JUMPDEST DUP3 SLOAD PUSH4 0xFFFFFFFF SWAP2 DUP3 AND PUSH2 0x100 SWAP4 SWAP1 SWAP4 EXP SWAP3 DUP4 MUL SWAP2 SWAP1 SWAP3 MUL NOT SWAP1 SWAP2 AND OR SWAP1 SSTORE POP CALLER PUSH1 0x0 SWAP1 DUP2 MSTORE PUSH1 0x7 DUP5 ADD PUSH1 0x20 MSTORE PUSH1 0x40 DUP2 KECCAK256 SLOAD SWAP1 SUB PUSH2 0xD6D JUMPI PUSH1 0x6 DUP4 ADD DUP1 SLOAD PUSH1 0x1 DUP2 ADD DUP3 SSTORE PUSH1 0x0 SWAP2 DUP3 MSTORE PUSH1 0x20 SWAP1 SWAP2 KECCAK256 ADD DUP1 SLOAD PUSH1 0x1 PUSH1 0x1 PUSH1 0xA0 SHL SUB NOT AND CALLER OR SWAP1 SSTORE JUMPDEST CALLER PUSH1 0x0 SWAP1 DUP2 MSTORE PUSH1 0x7 DUP5 ADD PUSH1 0x20 MSTORE PUSH1 0x40 DUP2 KECCAK256 DUP1 SLOAD DUP4 SWAP3 SWAP1 PUSH2 0xD8E SWAP1 DUP5 SWAP1 PUSH2 0x295C JUMP JUMPDEST SWAP1 SWAP2 SSTORE POP POP PUSH1 0x3 DUP4 ADD SLOAD PUSH4 0xFFFFFFFF DUP1 DUP3 AND PUSH5 0x100000000 SWAP1 SWAP3 DIV AND LT PUSH2 0xDE0 JUMPI PUSH1 0x3 DUP4 ADD DUP1 SLOAD PUSH1 0xFF PUSH1 0x40 SHL NOT AND PUSH9 0x20000000000000000 OR SWAP1 SSTORE PUSH2 0xDD2 DUP7 PUSH2 0x1D7C JUMP JUMPDEST PUSH2 0xDDB DUP7 PUSH2 0x1EBF JUMP JUMPDEST PUSH2 0xDF6 JUMP JUMPDEST PUSH1 0x3 DUP4 ADD DUP1 SLOAD PUSH1 0xFF PUSH1 0x40 SHL NOT AND PUSH1 0x1 PUSH1 0x40 SHL OR SWAP1 SSTORE JUMPDEST CALLER PUSH1 0x0 SWAP1 DUP2 MSTORE PUSH1 0x1 PUSH1 0x20 DUP2 SWAP1 MSTORE PUSH1 0x40 SWAP1 SWAP2 KECCAK256 SLOAD PUSH2 0xE1E SWAP2 PUSH4 0xFFFFFFFF SWAP1 SWAP2 AND SWAP1 PUSH1 0x2 SWAP1 PUSH2 0x2138 JUMP JUMPDEST PUSH1 0x40 MLOAD DUP2 DUP2 MSTORE CALLER SWAP1 DUP8 SWAP1 PUSH32 0x86B47E6E6C03D769C0BC5FFD06C682EA7D07089576D59230EC18FF64E71BFFE7 SWAP1 PUSH1 0x20 ADD PUSH1 0x40 MLOAD DUP1 SWAP2 SUB SWAP1 LOG3 POP POP POP PUSH2 0xE62 PUSH1 0x1 PUSH1 0x0 SSTORE JUMP JUMPDEST POP POP POP JUMP JUMPDEST PUSH1 0x0 DUP2 DUP2 MSTORE PUSH1 0xD PUSH1 0x20 SWAP1 DUP2 MSTORE PUSH1 0x40 DUP1 DUP4 KECCAK256 PUSH1 0x9 SWAP1 SWAP3 MSTORE DUP3 KECCAK256 DUP3 SWAP2 DUP3 SWAP2 DUP3 SWAP2 DUP3 SWAP2 DUP3 PUSH1 0x2 DUP1 DUP5 ADD SLOAD PUSH1 0xFF AND SWAP1 DUP2 GT ISZERO PUSH2 0xEA1 JUMPI PUSH2 0xEA1 PUSH2 0x24BF JUMP JUMPDEST EQ DUP1 ISZERO PUSH2 0xEBE JUMPI POP PUSH1 0x2 DUP3 ADD SLOAD PUSH1 0x1 PUSH1 0x28 SHL SWAP1 DIV PUSH4 0xFFFFFFFF AND ISZERO ISZERO JUMPDEST ISZERO PUSH2 0xF16 JUMPI PUSH1 0x3 DUP3 ADD SLOAD PUSH1 0x2 DUP4 ADD SLOAD PUSH2 0xEE4 SWAP2 SWAP1 PUSH1 0x1 PUSH1 0x28 SHL SWAP1 DIV PUSH4 0xFFFFFFFF AND PUSH2 0x296F JUMP JUMPDEST PUSH1 0x3 DUP4 ADD SLOAD PUSH1 0x2 DUP5 ADD SLOAD PUSH1 0x8 DUP5 ADD SLOAD SWAP3 SWAP10 POP SWAP1 SWAP8 POP PUSH4 0xFFFFFFFF PUSH1 0x1 PUSH1 0x28 SHL SWAP1 SWAP2 DIV DUP2 AND SWAP7 POP AND SWAP4 POP PUSH1 0x1 SWAP3 POP PUSH2 0xF31 JUMP JUMPDEST PUSH1 0x8 DUP2 ADD SLOAD PUSH1 0x0 SWAP8 POP DUP8 SWAP7 POP DUP7 SWAP6 POP PUSH4 0xFFFFFFFF AND SWAP4 POP DUP5 SWAP3 POP JUMPDEST POP POP SWAP2 SWAP4 SWAP6 SWAP1 SWAP3 SWAP5 POP JUMP JUMPDEST PUSH2 0xF44 PUSH2 0x243F JUMP JUMPDEST PUSH1 0x0 DUP3 DUP2 MSTORE PUSH1 0xD PUSH1 0x20 SWAP1 DUP2 MSTORE PUSH1 0x40 DUP1 DUP4 KECCAK256 DUP2 MLOAD PUSH1 0xE0 DUP2 ADD DUP4 MSTORE DUP2 SLOAD PUSH1 0x1 PUSH1 0x1 PUSH1 0xA0 SHL SUB AND DUP2 MSTORE PUSH1 0x1 DUP3 ADD SLOAD SWAP4 DUP2 ADD SWAP4 SWAP1 SWAP4 MSTORE PUSH1 0x2 DUP1 DUP3 ADD SLOAD SWAP2 SWAP3 DUP5 ADD SWAP2 PUSH1 0xFF AND SWAP1 DUP2 GT ISZERO PUSH2 0xF94 JUMPI PUSH2 0xF94 PUSH2 0x24BF JUMP JUMPDEST PUSH1 0x2 DUP2 GT ISZERO PUSH2 0xFA5 JUMPI PUSH2 0xFA5 PUSH2 0x24BF JUMP JUMPDEST DUP2 MSTORE PUSH1 0x2 DUP3 ADD SLOAD PUSH4 0xFFFFFFFF PUSH2 0x100 DUP3 DIV DUP2 AND PUSH1 0x20 DUP1 DUP6 ADD SWAP2 SWAP1 SWAP2 MSTORE PUSH1 0x1 PUSH1 0x28 SHL SWAP1 SWAP3 DIV AND PUSH1 0x40 DUP1 DUP5 ADD SWAP2 SWAP1 SWAP2 MSTORE PUSH1 0x3 DUP5 ADD SLOAD PUSH1 0x60 DUP5 ADD MSTORE PUSH1 0x4 DUP5 ADD DUP1 SLOAD DUP3 MLOAD DUP2 DUP6 MUL DUP2 ADD DUP6 ADD SWAP1 SWAP4 MSTORE DUP1 DUP4 MSTORE PUSH1 0x80 SWAP1 SWAP5 ADD SWAP4 SWAP2 SWAP3 SWAP1 SWAP2 SWAP1 DUP4 ADD DUP3 DUP3 DUP1 ISZERO PUSH2 0x102C JUMPI PUSH1 0x20 MUL DUP3 ADD SWAP2 SWAP1 PUSH1 0x0 MSTORE PUSH1 0x20 PUSH1 0x0 KECCAK256 SWAP1 JUMPDEST DUP2 SLOAD DUP2 MSTORE PUSH1 0x20 ADD SWAP1 PUSH1 0x1 ADD SWAP1 DUP1 DUP4 GT PUSH2 0x1018 JUMPI JUMPDEST POP POP POP SWAP2 SWAP1 SWAP3 MSTORE POP SWAP2 SWAP6 SWAP5 POP POP POP POP POP JUMP JUMPDEST PUSH1 0x0 DUP3 DUP2 MSTORE PUSH1 0x9 PUSH1 0x20 SWAP1 DUP2 MSTORE PUSH1 0x40 DUP1 DUP4 KECCAK256 PUSH1 0x1 PUSH1 0x1 PUSH1 0xA0 SHL SUB DUP6 AND DUP5 MSTORE PUSH1 0x7 ADD SWAP1 SWAP2 MSTORE SWAP1 KECCAK256 SLOAD JUMPDEST SWAP3 SWAP2 POP POP JUMP JUMPDEST PUSH1 0x0 DUP2 DUP2 MSTORE PUSH1 0xD PUSH1 0x20 MSTORE PUSH1 0x40 DUP2 KECCAK256 DUP2 SWAP1 DUP2 PUSH1 0x2 DUP1 DUP4 ADD SLOAD PUSH1 0xFF AND SWAP1 DUP2 GT ISZERO PUSH2 0x1095 JUMPI PUSH2 0x1095 PUSH2 0x24BF JUMP JUMPDEST EQ DUP1 ISZERO PUSH2 0x10B2 JUMPI POP PUSH1 0x2 DUP2 ADD SLOAD PUSH1 0x1 PUSH1 0x28 SHL SWAP1 DIV PUSH4 0xFFFFFFFF AND ISZERO ISZERO JUMPDEST ISZERO PUSH2 0x10C5 JUMPI PUSH1 0x3 ADD SLOAD SWAP4 PUSH1 0x1 SWAP4 POP SWAP2 POP POP JUMP JUMPDEST POP PUSH1 0x0 SWAP4 DUP5 SWAP4 POP SWAP2 POP POP JUMP JUMPDEST PUSH1 0x40 MLOAD PUSH4 0x70A08231 PUSH1 0xE0 SHL DUP2 MSTORE ADDRESS PUSH1 0x4 DUP3 ADD MSTORE PUSH1 0x0 SWAP1 PUSH32 0x0 PUSH1 0x1 PUSH1 0x1 PUSH1 0xA0 SHL SUB AND SWAP1 PUSH4 0x70A08231 SWAP1 PUSH1 0x24 ADD PUSH1 0x20 PUSH1 0x40 MLOAD DUP1 DUP4 SUB DUP2 DUP7 GAS STATICCALL ISZERO DUP1 ISZERO PUSH2 0x1138 JUMPI RETURNDATASIZE PUSH1 0x0 DUP1 RETURNDATACOPY RETURNDATASIZE PUSH1 0x0 REVERT JUMPDEST POP POP POP POP PUSH1 0x40 MLOAD RETURNDATASIZE PUSH1 0x1F NOT PUSH1 0x1F DUP3 ADD AND DUP3 ADD DUP1 PUSH1 0x40 MSTORE POP DUP2 ADD SWAP1 PUSH2 0x115C SWAP2 SWAP1 PUSH2 0x29DF JUMP JUMPDEST SWAP1 POP SWAP1 JUMP JUMPDEST PUSH1 0x0 DUP2 DUP2 MSTORE PUSH1 0xD PUSH1 0x20 SWAP1 DUP2 MSTORE PUSH1 0x40 SWAP2 DUP3 SWAP1 KECCAK256 PUSH1 0x4 ADD DUP1 SLOAD DUP4 MLOAD DUP2 DUP5 MUL DUP2 ADD DUP5 ADD SWAP1 SWAP5 MSTORE DUP1 DUP5 MSTORE PUSH1 0x60 SWAP4 SWAP3 DUP4 ADD DUP3 DUP3 DUP1 ISZERO PUSH2 0x11BA JUMPI PUSH1 0x20 MUL DUP3 ADD SWAP2 SWAP1 PUSH1 0x0 MSTORE PUSH1 0x20 PUSH1 0x0 KECCAK256 SWAP1 JUMPDEST DUP2 SLOAD DUP2 MSTORE PUSH1 0x20 ADD SWAP1 PUSH1 0x1 ADD SWAP1 DUP1 DUP4 GT PUSH2 0x11A6 JUMPI JUMPDEST POP POP POP POP POP SWAP1 POP SWAP2 SWAP1 POP JUMP JUMPDEST PUSH1 0x0 DUP2 DUP2 MSTORE PUSH1 0x9 PUSH1 0x20 SWAP1 DUP2 MSTORE PUSH1 0x40 SWAP2 DUP3 SWAP1 KECCAK256 PUSH1 0x6 ADD DUP1 SLOAD DUP4 MLOAD DUP2 DUP5 MUL DUP2 ADD DUP5 ADD SWAP1 SWAP5 MSTORE DUP1 DUP5 MSTORE PUSH1 0x60 SWAP4 SWAP3 DUP4 ADD DUP3 DUP3 DUP1 ISZERO PUSH2 0x11BA JUMPI PUSH1 0x20 MUL DUP3 ADD SWAP2 SWAP1 PUSH1 0x0 MSTORE PUSH1 0x20 PUSH1 0x0 KECCAK256 SWAP1 JUMPDEST DUP2 SLOAD PUSH1 0x1 PUSH1 0x1 PUSH1 0xA0 SHL SUB AND DUP2 MSTORE PUSH1 0x1 SWAP1 SWAP2 ADD SWAP1 PUSH1 0x20 ADD DUP1 DUP4 GT PUSH2 0x120B JUMPI POP POP POP POP POP SWAP1 POP SWAP2 SWAP1 POP JUMP JUMPDEST PUSH1 0x1 PUSH1 0x1 PUSH1 0xA0 SHL SUB DUP2 AND PUSH1 0x0 SWAP1 DUP2 MSTORE PUSH1 0xB PUSH1 0x20 SWAP1 DUP2 MSTORE PUSH1 0x40 SWAP2 DUP3 SWAP1 KECCAK256 DUP1 SLOAD DUP4 MLOAD DUP2 DUP5 MUL DUP2 ADD DUP5 ADD SWAP1 SWAP5 MSTORE DUP1 DUP5 MSTORE PUSH1 0x60 SWAP4 SWAP3 DUP4 ADD DUP3 DUP3 DUP1 ISZERO PUSH2 0x11BA JUMPI PUSH1 0x20 MUL DUP3 ADD SWAP2 SWAP1 PUSH1 0x0 MSTORE PUSH1 0x20 PUSH1 0x0 KECCAK256 SWAP1 DUP2 SLOAD DUP2 MSTORE PUSH1 0x20 ADD SWAP1 PUSH1 0x1 ADD SWAP1 DUP1 DUP4 GT PUSH2 0x11A6 JUMPI POP POP POP POP POP SWAP1 POP SWAP2 SWAP1 POP JUMP JUMPDEST PUSH1 0x0 DUP1 DUP3 GT DUP1 ISZERO PUSH2 0x12B1 JUMPI POP PUSH1 0x8 SLOAD DUP3 GT ISZERO JUMPDEST DUP1 ISZERO PUSH2 0x12F8 JUMPI POP PUSH1 0x1 PUSH1 0x1 PUSH1 0xA0 SHL SUB DUP4 AND PUSH1 0x0 SWAP1 DUP2 MSTORE PUSH1 0x3 PUSH1 0x20 MSTORE PUSH1 0x40 SWAP1 KECCAK256 SLOAD PUSH3 0xF4240 GT ISZERO DUP1 PUSH2 0x12F8 JUMPI POP PUSH1 0x1 PUSH1 0x1 PUSH1 0xA0 SHL SUB DUP4 AND PUSH1 0x0 SWAP1 DUP2 MSTORE PUSH1 0x4 PUSH1 0x20 MSTORE PUSH1 0x40 SWAP1 KECCAK256 SLOAD ISZERO JUMPDEST DUP1 ISZERO PUSH2 0x134A JUMPI POP PUSH1 0x1 PUSH1 0x1 PUSH1 0xA0 SHL SUB DUP4 AND PUSH1 0x0 SWAP1 DUP2 MSTORE PUSH1 0x5 PUSH1 0x20 MSTORE PUSH1 0x40 SWAP1 KECCAK256 SLOAD TIMESTAMP SWAP1 PUSH2 0x1328 SWAP1 PUSH3 0x93A80 SWAP1 PUSH2 0x295C JUMP JUMPDEST LT DUP1 PUSH2 0x134A JUMPI POP PUSH1 0x1 PUSH1 0x1 PUSH1 0xA0 SHL SUB DUP4 AND PUSH1 0x0 SWAP1 DUP2 MSTORE PUSH1 0x4 PUSH1 0x20 MSTORE PUSH1 0x40 SWAP1 KECCAK256 SLOAD ISZERO JUMPDEST SWAP4 SWAP3 POP POP POP JUMP JUMPDEST PUSH1 0xB PUSH1 0x20 MSTORE DUP2 PUSH1 0x0 MSTORE PUSH1 0x40 PUSH1 0x0 KECCAK256 DUP2 DUP2 SLOAD DUP2 LT PUSH2 0x136D JUMPI PUSH1 0x0 DUP1 REVERT JUMPDEST SWAP1 PUSH1 0x0 MSTORE PUSH1 0x20 PUSH1 0x0 KECCAK256 ADD PUSH1 0x0 SWAP2 POP SWAP2 POP POP SLOAD DUP2 JUMP JUMPDEST PUSH1 0x0 DUP5 DUP1 PUSH1 0x0 SUB PUSH2 0x13A6 JUMPI PUSH1 0x40 MLOAD PUSH4 0x162908E3 PUSH1 0xE1 SHL DUP2 MSTORE PUSH1 0x4 ADD PUSH1 0x40 MLOAD DUP1 SWAP2 SUB SWAP1 REVERT JUMPDEST DUP5 PUSH4 0xFFFFFFFF AND PUSH1 0x46 DUP2 GT ISZERO DUP1 PUSH2 0x13BD JUMPI POP PUSH1 0x64 DUP2 GT JUMPDEST ISZERO PUSH2 0x13DB JUMPI PUSH1 0x40 MLOAD PUSH4 0xD1E95ED5 PUSH1 0xE0 SHL DUP2 MSTORE PUSH1 0x4 ADD PUSH1 0x40 MLOAD DUP1 SWAP2 SUB SWAP1 REVERT JUMPDEST DUP4 PUSH1 0x1 DUP2 PUSH4 0xFFFFFFFF AND LT DUP1 PUSH2 0x13F7 JUMPI POP PUSH1 0xC DUP2 PUSH4 0xFFFFFFFF AND GT JUMPDEST ISZERO PUSH2 0x1415 JUMPI PUSH1 0x40 MLOAD PUSH4 0x524EFF27 PUSH1 0xE0 SHL DUP2 MSTORE PUSH1 0x4 ADD PUSH1 0x40 MLOAD DUP1 SWAP2 SUB SWAP1 REVERT JUMPDEST PUSH1 0x8 SLOAD DUP9 GT ISZERO PUSH2 0x1438 JUMPI PUSH1 0x40 MLOAD PUSH4 0x356680B7 PUSH1 0xE0 SHL DUP2 MSTORE PUSH1 0x4 ADD PUSH1 0x40 MLOAD DUP1 SWAP2 SUB SWAP1 REVERT JUMPDEST PUSH1 0xA DUP1 SLOAD PUSH1 0x0 SWAP2 DUP3 PUSH2 0x1449 DUP4 PUSH2 0x292D JUMP JUMPDEST SWAP1 SWAP2 SSTORE POP PUSH1 0x0 DUP2 DUP2 MSTORE PUSH1 0x9 PUSH1 0x20 MSTORE PUSH1 0x40 DUP2 KECCAK256 PUSH1 0x1 DUP2 ADD DUP1 SLOAD PUSH1 0x1 PUSH1 0x1 PUSH1 0xA0 SHL SUB NOT AND CALLER OR SWAP1 SSTORE PUSH1 0x2 DUP2 ADD DUP13 SWAP1 SSTORE PUSH1 0x3 DUP2 ADD DUP1 SLOAD PUSH8 0xFFFFFFFFFFFFFFFF NOT DUP2 AND PUSH4 0xFFFFFFFF DUP15 AND SWAP1 DUP2 OR DUP4 SSTORE SWAP5 SWAP6 POP SWAP2 SWAP4 SWAP1 SWAP2 PUSH9 0xFFFFFFFFFFFFFFFFFF NOT AND OR PUSH1 0x1 PUSH1 0x40 SHL DUP4 MUL OR SWAP1 SSTORE POP PUSH1 0x4 DUP2 ADD DUP9 SWAP1 SSTORE TIMESTAMP PUSH1 0x5 DUP3 ADD SSTORE PUSH1 0x8 DUP2 ADD DUP1 SLOAD PUSH4 0xFFFFFFFF DUP10 AND PUSH4 0xFFFFFFFF NOT SWAP1 SWAP2 AND OR SWAP1 SSTORE DUP2 DUP2 SSTORE CALLER PUSH1 0x0 DUP2 DUP2 MSTORE PUSH1 0xB PUSH1 0x20 SWAP1 DUP2 MSTORE PUSH1 0x40 DUP1 DUP4 KECCAK256 DUP1 SLOAD PUSH1 0x1 DUP2 ADD DUP3 SSTORE SWAP1 DUP5 MSTORE SWAP2 SWAP1 SWAP3 KECCAK256 ADD DUP5 SWAP1 SSTORE MLOAD DUP4 SWAP1 PUSH32 0xDE3B47CF7DA95A3CC41B86CF8717EAD8D56A76EE1590481C5C4DC4D8804C40C4 SWAP1 PUSH2 0x1542 SWAP1 DUP15 SWAP1 DUP13 SWAP1 SWAP2 DUP3 MSTORE PUSH4 0xFFFFFFFF AND PUSH1 0x20 DUP3 ADD MSTORE PUSH1 0x40 ADD SWAP1 JUMP JUMPDEST PUSH1 0x40 MLOAD DUP1 SWAP2 SUB SWAP1 LOG3 POP SWAP9 SWAP8 POP POP POP POP POP POP POP POP JUMP JUMPDEST PUSH1 0x0 DUP3 DUP2 MSTORE PUSH1 0xD PUSH1 0x20 MSTORE PUSH1 0x40 DUP2 KECCAK256 DUP1 SLOAD PUSH1 0x1 PUSH1 0x1 PUSH1 0xA0 SHL SUB DUP5 DUP2 AND SWAP2 AND EQ DUP1 ISZERO PUSH2 0x1599 JUMPI POP PUSH1 0x0 PUSH1 0x2 DUP1 DUP4 ADD SLOAD PUSH1 0xFF AND SWAP1 DUP2 GT ISZERO PUSH2 0x1597 JUMPI PUSH2 0x1597 PUSH2 0x24BF JUMP JUMPDEST EQ JUMPDEST DUP1 ISZERO PUSH2 0x15B5 JUMPI POP PUSH1 0x2 DUP2 ADD SLOAD PUSH1 0x1 PUSH1 0x28 SHL SWAP1 DIV PUSH4 0xFFFFFFFF AND ISZERO ISZERO JUMPDEST SWAP5 SWAP4 POP POP POP POP JUMP JUMPDEST PUSH1 0x0 DUP3 DUP2 MSTORE PUSH1 0xD PUSH1 0x20 SWAP1 DUP2 MSTORE PUSH1 0x40 DUP1 DUP4 KECCAK256 CALLER DUP5 MSTORE PUSH1 0x4 SWAP1 SWAP3 MSTORE DUP3 KECCAK256 SLOAD DUP5 SWAP3 SUB PUSH2 0x15F9 JUMPI PUSH1 0x40 MLOAD PUSH4 0xB5AB5BF PUSH1 0xE4 SHL DUP2 MSTORE PUSH1 0x4 ADD PUSH1 0x40 MLOAD DUP1 SWAP2 SUB SWAP1 REVERT JUMPDEST DUP1 SLOAD PUSH1 0x1 PUSH1 0x1 PUSH1 0xA0 SHL SUB AND CALLER EQ PUSH2 0x1623 JUMPI PUSH1 0x40 MLOAD PUSH4 0xB5AB5BF PUSH1 0xE4 SHL DUP2 MSTORE PUSH1 0x4 ADD PUSH1 0x40 MLOAD DUP1 SWAP2 SUB SWAP1 REVERT JUMPDEST PUSH1 0x0 PUSH1 0x2 DUP1 DUP4 ADD SLOAD PUSH1 0xFF AND SWAP1 DUP2 GT ISZERO PUSH2 0x163E JUMPI PUSH2 0x163E PUSH2 0x24BF JUMP JUMPDEST EQ PUSH2 0x165C JUMPI PUSH1 0x40 MLOAD PUSH4 0xB5AB5BF PUSH1 0xE4 SHL DUP2 MSTORE PUSH1 0x4 ADD PUSH1 0x40 MLOAD DUP1 SWAP2 SUB SWAP1 REVERT JUMPDEST PUSH1 0x2 DUP2 ADD SLOAD PUSH1 0x1 PUSH1 0x28 SHL SWAP1 DIV PUSH4 0xFFFFFFFF AND PUSH1 0x0 SUB PUSH2 0x168E JUMPI PUSH1 0x40 MLOAD PUSH4 0xB5AB5BF PUSH1 0xE4 SHL DUP2 MSTORE PUSH1 0x4 ADD PUSH1 0x40 MLOAD DUP1 SWAP2 SUB SWAP1 REVERT JUMPDEST PUSH2 0x1696 PUSH2 0x1D1F JUMP JUMPDEST DUP3 PUSH1 0x0 SUB PUSH2 0x16B7 JUMPI PUSH1 0x40 MLOAD PUSH4 0x162908E3 PUSH1 0xE1 SHL DUP2 MSTORE PUSH1 0x4 ADD PUSH1 0x40 MLOAD DUP1 SWAP2 SUB SWAP1 REVERT JUMPDEST PUSH1 0x0 DUP5 DUP2 MSTORE PUSH1 0xD PUSH1 0x20 MSTORE PUSH1 0x40 DUP2 KECCAK256 PUSH1 0x2 DUP2 ADD SLOAD SWAP1 SWAP2 SWAP1 PUSH2 0x16EB SWAP1 PUSH4 0xFFFFFFFF PUSH1 0x1 PUSH1 0x28 SHL DUP3 DIV DUP2 AND SWAP2 PUSH2 0x100 SWAP1 DIV AND PUSH2 0x29F8 JUMP JUMPDEST SWAP1 POP PUSH1 0x0 DUP3 PUSH1 0x4 ADD DUP3 PUSH4 0xFFFFFFFF AND DUP2 SLOAD DUP2 LT PUSH2 0x170A JUMPI PUSH2 0x170A PUSH2 0x2901 JUMP JUMPDEST SWAP1 PUSH1 0x0 MSTORE PUSH1 0x20 PUSH1 0x0 KECCAK256 ADD SLOAD SWAP1 POP DUP1 TIMESTAMP GT ISZERO PUSH2 0x1749 JUMPI CALLER PUSH1 0x0 SWAP1 DUP2 MSTORE PUSH1 0x1 PUSH1 0x20 MSTORE PUSH1 0x40 DUP2 KECCAK256 SLOAD PUSH2 0x1744 SWAP2 PUSH4 0xFFFFFFFF SWAP1 SWAP2 AND SWAP1 PUSH1 0x3 SWAP1 PUSH2 0x2138 JUMP JUMPDEST PUSH2 0x176F JUMP JUMPDEST CALLER PUSH1 0x0 SWAP1 DUP2 MSTORE PUSH1 0x1 PUSH1 0x20 DUP2 SWAP1 MSTORE PUSH1 0x40 SWAP1 SWAP2 KECCAK256 SLOAD PUSH2 0x176F SWAP2 PUSH4 0xFFFFFFFF SWAP1 SWAP2 AND SWAP1 DUP1 PUSH2 0x2138 JUMP JUMPDEST DUP3 PUSH1 0x3 ADD SLOAD DUP7 EQ PUSH2 0x1793 JUMPI PUSH1 0x40 MLOAD PUSH4 0x162908E3 PUSH1 0xE1 SHL DUP2 MSTORE PUSH1 0x4 ADD PUSH1 0x40 MLOAD DUP1 SWAP2 SUB SWAP1 REVERT JUMPDEST PUSH1 0x40 MLOAD PUSH4 0x23B872DD PUSH1 0xE0 SHL DUP2 MSTORE CALLER PUSH1 0x4 DUP3 ADD MSTORE ADDRESS PUSH1 0x24 DUP3 ADD MSTORE PUSH1 0x44 DUP2 ADD DUP8 SWAP1 MSTORE PUSH1 0x0 SWAP1 PUSH32 0x0 PUSH1 0x1 PUSH1 0x1 PUSH1 0xA0 SHL SUB AND SWAP1 PUSH4 0x23B872DD SWAP1 PUSH1 0x64 ADD PUSH1 0x20 PUSH1 0x40 MLOAD DUP1 DUP4 SUB DUP2 PUSH1 0x0 DUP8 GAS CALL ISZERO DUP1 ISZERO PUSH2 0x1809 JUMPI RETURNDATASIZE PUSH1 0x0 DUP1 RETURNDATACOPY RETURNDATASIZE PUSH1 0x0 REVERT JUMPDEST POP POP POP POP PUSH1 0x40 MLOAD RETURNDATASIZE PUSH1 0x1F NOT PUSH1 0x1F DUP3 ADD AND DUP3 ADD DUP1 PUSH1 0x40 MSTORE POP DUP2 ADD SWAP1 PUSH2 0x182D SWAP2 SWAP1 PUSH2 0x2A15 JUMP JUMPDEST SWAP1 POP DUP1 PUSH2 0x184D JUMPI PUSH1 0x40 MLOAD PUSH4 0x22E2581 PUSH1 0xE1 SHL DUP2 MSTORE PUSH1 0x4 ADD PUSH1 0x40 MLOAD DUP1 SWAP2 SUB SWAP1 REVERT JUMPDEST CALLER PUSH1 0x0 SWAP1 DUP2 MSTORE PUSH1 0x4 PUSH1 0x20 MSTORE PUSH1 0x40 DUP2 KECCAK256 DUP1 SLOAD DUP10 SWAP3 SWAP1 PUSH2 0x186C SWAP1 DUP5 SWAP1 PUSH2 0x2986 JUMP JUMPDEST SWAP3 POP POP DUP2 SWAP1 SSTORE POP DUP7 PUSH1 0x7 PUSH1 0x0 DUP3 DUP3 SLOAD PUSH2 0x1885 SWAP2 SWAP1 PUSH2 0x2986 JUMP JUMPDEST SWAP3 POP POP DUP2 SWAP1 SSTORE POP DUP7 PUSH1 0x8 PUSH1 0x0 DUP3 DUP3 SLOAD PUSH2 0x189E SWAP2 SWAP1 PUSH2 0x295C JUMP JUMPDEST SWAP1 SWAP2 SSTORE POP PUSH2 0x18AE SWAP1 POP DUP9 DUP9 PUSH2 0x225E JUMP JUMPDEST CALLER PUSH1 0x0 DUP2 DUP2 MSTORE PUSH1 0x4 PUSH1 0x20 SWAP1 DUP2 MSTORE PUSH1 0x40 SWAP2 DUP3 SWAP1 KECCAK256 SLOAD DUP3 MLOAD DUP12 DUP2 MSTORE SWAP2 DUP3 ADD MSTORE PUSH32 0x1B8CD61ED43BEC7C6BDAD3A18FFEE613F99C853D16C50678D248D879E1B43438 SWAP2 ADD PUSH1 0x40 MLOAD DUP1 SWAP2 SUB SWAP1 LOG2 PUSH1 0x2 DUP5 ADD SLOAD PUSH1 0x40 MLOAD PUSH1 0x1 PUSH1 0x28 SHL SWAP1 SWAP2 DIV PUSH4 0xFFFFFFFF AND DUP2 MSTORE DUP9 SWAP1 PUSH32 0x406356EF25520B09E2EF87C5225167B4161EA4AB691E9434D6EE29EAFCC83FC2 SWAP1 PUSH1 0x20 ADD PUSH1 0x40 MLOAD DUP1 SWAP2 SUB SWAP1 LOG2 PUSH32 0x17F13FD3F7C4712AF33F1770EBCB822DD20A2DBC00850EAB48D786623D97B959 PUSH1 0x7 SLOAD PUSH1 0x40 MLOAD PUSH2 0x1970 SWAP2 DUP2 MSTORE PUSH1 0x20 ADD SWAP1 JUMP JUMPDEST PUSH1 0x40 MLOAD DUP1 SWAP2 SUB SWAP1 LOG1 PUSH32 0x8B094CCA6F83D49402CE208CC0C224B76625FFC58636DF56AE28024E704C5868 PUSH1 0x8 SLOAD PUSH1 0x40 MLOAD PUSH2 0x19AB SWAP2 DUP2 MSTORE PUSH1 0x20 ADD SWAP1 JUMP JUMPDEST PUSH1 0x40 MLOAD DUP1 SWAP2 SUB SWAP1 LOG1 PUSH1 0x1 DUP5 PUSH1 0x2 ADD PUSH1 0x5 DUP3 DUP3 DUP3 SWAP1 SLOAD SWAP1 PUSH2 0x100 EXP SWAP1 DIV PUSH4 0xFFFFFFFF AND PUSH2 0x19D7 SWAP2 SWAP1 PUSH2 0x29F8 JUMP JUMPDEST SWAP3 POP PUSH2 0x100 EXP DUP2 SLOAD DUP2 PUSH4 0xFFFFFFFF MUL NOT AND SWAP1 DUP4 PUSH4 0xFFFFFFFF AND MUL OR SWAP1 SSTORE POP DUP4 PUSH1 0x2 ADD PUSH1 0x5 SWAP1 SLOAD SWAP1 PUSH2 0x100 EXP SWAP1 DIV PUSH4 0xFFFFFFFF AND PUSH4 0xFFFFFFFF AND PUSH1 0x0 SUB PUSH2 0x1A53 JUMPI PUSH1 0x2 DUP5 DUP2 ADD DUP1 SLOAD PUSH1 0xFF NOT AND SWAP1 SWAP2 OR SWAP1 SSTORE PUSH1 0x40 MLOAD DUP9 SWAP1 PUSH32 0x2CA5489B37DD363D1302BAC719E8EE40E540FFBE8C12253570FEA63E11CAD71 SWAP1 PUSH1 0x0 SWAP1 LOG2 JUMPDEST POP POP POP POP PUSH2 0x1A61 PUSH1 0x1 PUSH1 0x0 SSTORE JUMP JUMPDEST POP POP POP POP JUMP JUMPDEST PUSH1 0x40 MLOAD PUSH4 0x6EB1769F PUSH1 0xE1 SHL DUP2 MSTORE PUSH1 0x1 PUSH1 0x1 PUSH1 0xA0 SHL SUB DUP3 DUP2 AND PUSH1 0x4 DUP4 ADD MSTORE ADDRESS PUSH1 0x24 DUP4 ADD MSTORE PUSH1 0x0 SWAP2 PUSH32 0x0 SWAP1 SWAP2 AND SWAP1 PUSH4 0xDD62ED3E SWAP1 PUSH1 0x44 ADD PUSH1 0x20 PUSH1 0x40 MLOAD DUP1 DUP4 SUB DUP2 DUP7 GAS STATICCALL ISZERO DUP1 ISZERO PUSH2 0x1AD8 JUMPI RETURNDATASIZE PUSH1 0x0 DUP1 RETURNDATACOPY RETURNDATASIZE PUSH1 0x0 REVERT JUMPDEST POP POP POP POP PUSH1 0x40 MLOAD RETURNDATASIZE PUSH1 0x1F NOT PUSH1 0x1F DUP3 ADD AND DUP3 ADD DUP1 PUSH1 0x40 MSTORE POP DUP2 ADD SWAP1 PUSH2 0x1065 SWAP2 SWAP1 PUSH2 0x29DF JUMP JUMPDEST DUP1 DUP1 PUSH1 0x0 SUB PUSH2 0x1B1E JUMPI PUSH1 0x40 MLOAD PUSH4 0x162908E3 PUSH1 0xE1 SHL DUP2 MSTORE PUSH1 0x4 ADD PUSH1 0x40 MLOAD DUP1 SWAP2 SUB SWAP1 REVERT JUMPDEST PUSH2 0x1B26 PUSH2 0x1D1F JUMP JUMPDEST PUSH3 0x4C4B40 DUP3 GT ISZERO PUSH2 0x1B4A JUMPI PUSH1 0x40 MLOAD PUSH4 0x30FDF8DB PUSH1 0xE1 SHL DUP2 MSTORE PUSH1 0x4 ADD PUSH1 0x40 MLOAD DUP1 SWAP2 SUB SWAP1 REVERT JUMPDEST PUSH1 0x40 MLOAD PUSH4 0x23B872DD PUSH1 0xE0 SHL DUP2 MSTORE CALLER PUSH1 0x4 DUP3 ADD MSTORE ADDRESS PUSH1 0x24 DUP3 ADD MSTORE PUSH1 0x44 DUP2 ADD DUP4 SWAP1 MSTORE PUSH1 0x0 SWAP1 PUSH32 0x0 PUSH1 0x1 PUSH1 0x1 PUSH1 0xA0 SHL SUB AND SWAP1 PUSH4 0x23B872DD SWAP1 PUSH1 0x64 ADD PUSH1 0x20 PUSH1 0x40 MLOAD DUP1 DUP4 SUB DUP2 PUSH1 0x0 DUP8 GAS CALL ISZERO DUP1 ISZERO PUSH2 0x1BC0 JUMPI RETURNDATASIZE PUSH1 0x0 DUP1 RETURNDATACOPY RETURNDATASIZE PUSH1 0x0 REVERT JUMPDEST POP POP POP POP PUSH1 0x40 MLOAD RETURNDATASIZE PUSH1 0x1F NOT PUSH1 0x1F DUP3 ADD AND DUP3 ADD DUP1 PUSH1 0x40 MSTORE POP DUP2 ADD SWAP1 PUSH2 0x1BE4 SWAP2 SWAP1 PUSH2 0x2A15 JUMP JUMPDEST SWAP1 POP DUP1 PUSH2 0x1C04 JUMPI PUSH1 0x40 MLOAD PUSH4 0x22E2581 PUSH1 0xE1 SHL DUP2 MSTORE PUSH1 0x4 ADD PUSH1 0x40 MLOAD DUP1 SWAP2 SUB SWAP1 REVERT JUMPDEST CALLER PUSH1 0x0 DUP2 DUP2 MSTORE PUSH1 0x3 PUSH1 0x20 SWAP1 DUP2 MSTORE PUSH1 0x40 SWAP2 DUP3 SWAP1 KECCAK256 DUP1 SLOAD DUP8 DUP2 ADD DUP3 SSTORE PUSH1 0x6 DUP1 SLOAD DUP10 ADD SWAP1 SSTORE PUSH1 0x8 DUP1 SLOAD DUP10 ADD SWAP1 SSTORE SWAP1 SLOAD DUP4 MLOAD DUP9 DUP2 MSTORE SWAP3 DUP4 ADD MSTORE ISZERO SWAP3 SWAP2 PUSH32 0x4928895BA6723E8E27B15F32E4C3054A1B6C7F8C03F133558D6FA42B3928D14C SWAP2 ADD PUSH1 0x40 MLOAD DUP1 SWAP2 SUB SWAP1 LOG2 PUSH32 0xDC6E73D4B36E22AB95945BD8833A5AF96C950EB29D8D75C4AECFFC987637AAAB PUSH1 0x6 SLOAD PUSH1 0x40 MLOAD PUSH2 0x1C9A SWAP2 DUP2 MSTORE PUSH1 0x20 ADD SWAP1 JUMP JUMPDEST PUSH1 0x40 MLOAD DUP1 SWAP2 SUB SWAP1 LOG1 PUSH32 0x8B094CCA6F83D49402CE208CC0C224B76625FFC58636DF56AE28024E704C5868 PUSH1 0x8 SLOAD PUSH1 0x40 MLOAD PUSH2 0x1CD5 SWAP2 DUP2 MSTORE PUSH1 0x20 ADD SWAP1 JUMP JUMPDEST PUSH1 0x40 MLOAD DUP1 SWAP2 SUB SWAP1 LOG1 DUP1 ISZERO PUSH2 0x1D0F JUMPI PUSH1 0x40 MLOAD CALLER SWAP1 PUSH32 0x72DAFB6AABE3F02118BC607EFBEAAA104D6B2009720C7B130F24BA418689C4B SWAP1 PUSH1 0x0 SWAP1 LOG2 JUMPDEST POP POP PUSH2 0x1D1B PUSH1 0x1 PUSH1 0x0 SSTORE JUMP JUMPDEST POP POP JUMP JUMPDEST PUSH1 0x2 PUSH1 0x0 SLOAD SUB PUSH2 0x1D75 JUMPI PUSH1 0x40 MLOAD PUSH3 0x461BCD PUSH1 0xE5 SHL DUP2 MSTORE PUSH1 0x20 PUSH1 0x4 DUP3 ADD MSTORE PUSH1 0x1F PUSH1 0x24 DUP3 ADD MSTORE PUSH32 0x5265656E7472616E637947756172643A207265656E7472616E742063616C6C00 PUSH1 0x44 DUP3 ADD MSTORE PUSH1 0x64 ADD PUSH1 0x40 MLOAD DUP1 SWAP2 SUB SWAP1 REVERT JUMPDEST PUSH1 0x2 PUSH1 0x0 SSTORE JUMP JUMPDEST PUSH1 0x0 DUP2 DUP2 MSTORE PUSH1 0xD PUSH1 0x20 SWAP1 DUP2 MSTORE PUSH1 0x40 DUP1 DUP4 KECCAK256 PUSH1 0x9 SWAP1 SWAP3 MSTORE SWAP1 SWAP2 KECCAK256 PUSH1 0x1 DUP1 DUP3 ADD SLOAD DUP4 SLOAD PUSH1 0x1 PUSH1 0x1 PUSH1 0xA0 SHL SUB NOT AND PUSH1 0x1 PUSH1 0x1 PUSH1 0xA0 SHL SUB SWAP1 SWAP2 AND OR DUP4 SSTORE DUP3 ADD DUP4 SWAP1 SSTORE PUSH1 0x2 DUP1 DUP4 ADD DUP1 SLOAD PUSH1 0xFF NOT DUP2 AND DUP3 SSTORE PUSH1 0x8 DUP5 ADD DUP1 SLOAD PUSH5 0xFFFFFFFFFF NOT DUP4 AND PUSH2 0x100 PUSH4 0xFFFFFFFF SWAP3 DUP4 AND MUL SWAP1 DUP2 OR DUP6 SSTORE DUP3 SLOAD PUSH9 0xFFFFFFFFFFFFFFFFFF NOT SWAP1 SWAP5 AND PUSH9 0xFFFFFFFF0000000000 NOT SWAP1 SWAP2 AND OR SWAP3 DUP2 AND PUSH1 0x1 PUSH1 0x28 SHL MUL SWAP3 SWAP1 SWAP3 OR SWAP1 SWAP3 SSTORE SWAP1 SLOAD SWAP2 SWAP1 SWAP3 ADD SLOAD PUSH2 0x1E2C SWAP3 SWAP2 SWAP1 SWAP2 AND SWAP1 PUSH2 0x2999 JUMP JUMPDEST PUSH1 0x3 DUP3 ADD SSTORE PUSH1 0x0 DUP3 DUP2 MSTORE PUSH1 0x9 PUSH1 0x20 MSTORE PUSH1 0x40 SWAP1 KECCAK256 PUSH1 0x8 ADD SLOAD PUSH2 0x1E54 SWAP1 DUP3 SWAP1 PUSH4 0xFFFFFFFF AND PUSH2 0x23D1 JUMP JUMPDEST DUP1 SLOAD PUSH1 0x2 DUP3 ADD SLOAD PUSH1 0x3 DUP4 ADD SLOAD PUSH1 0x40 MLOAD DUP6 SWAP4 PUSH1 0x1 PUSH1 0x1 PUSH1 0xA0 SHL SUB AND SWAP3 PUSH32 0x5215406E88F26EED4728B9CDFC5D85CEA75799101CB9387B528451E6E0878DEC SWAP3 PUSH2 0x1EB3 SWAP3 PUSH1 0xFF DUP4 AND SWAP3 PUSH1 0x1 PUSH1 0x28 SHL SWAP1 DIV PUSH4 0xFFFFFFFF AND SWAP2 SWAP1 PUSH1 0x4 DUP10 ADD SWAP1 PUSH2 0x2A37 JUMP JUMPDEST PUSH1 0x40 MLOAD DUP1 SWAP2 SUB SWAP1 LOG3 POP POP JUMP JUMPDEST PUSH1 0x0 DUP2 DUP2 MSTORE PUSH1 0x9 PUSH1 0x20 SWAP1 DUP2 MSTORE PUSH1 0x40 DUP1 DUP4 KECCAK256 PUSH1 0x2 DUP2 ADD SLOAD PUSH1 0x1 DUP3 ADD SLOAD PUSH1 0x1 PUSH1 0x1 PUSH1 0xA0 SHL SUB AND DUP6 MSTORE PUSH1 0x4 SWAP1 SWAP4 MSTORE SWAP1 DUP4 KECCAK256 DUP1 SLOAD SWAP2 SWAP4 SWAP1 SWAP2 PUSH2 0x1EFE SWAP1 DUP5 SWAP1 PUSH2 0x295C JUMP JUMPDEST SWAP1 SWAP2 SSTORE POP POP PUSH1 0x2 DUP2 ADD SLOAD PUSH1 0x7 DUP1 SLOAD PUSH1 0x0 SWAP1 PUSH2 0x1F1A SWAP1 DUP5 SWAP1 PUSH2 0x295C JUMP JUMPDEST SWAP1 SWAP2 SSTORE POP POP PUSH1 0x2 DUP2 ADD SLOAD PUSH1 0x8 DUP1 SLOAD PUSH1 0x0 SWAP1 PUSH2 0x1F36 SWAP1 DUP5 SWAP1 PUSH2 0x2986 JUMP JUMPDEST SWAP1 SWAP2 SSTORE POP POP PUSH1 0x1 DUP2 ADD SLOAD PUSH1 0x1 PUSH1 0x1 PUSH1 0xA0 SHL SUB AND PUSH1 0x0 SWAP1 DUP2 MSTORE PUSH1 0x5 PUSH1 0x20 MSTORE PUSH1 0x40 SWAP1 KECCAK256 TIMESTAMP SWAP1 SSTORE PUSH1 0x3 DUP1 DUP3 ADD DUP1 SLOAD PUSH1 0xFF PUSH1 0x40 SHL NOT AND PUSH1 0x1 PUSH1 0x40 SHL DUP4 MUL OR SWAP1 SSTORE POP PUSH1 0x1 DUP2 ADD SLOAD PUSH1 0x2 DUP3 ADD SLOAD PUSH1 0x40 MLOAD PUSH4 0xA9059CBB PUSH1 0xE0 SHL DUP2 MSTORE PUSH1 0x1 PUSH1 0x1 PUSH1 0xA0 SHL SUB SWAP3 DUP4 AND PUSH1 0x4 DUP3 ADD MSTORE PUSH1 0x24 DUP2 ADD SWAP2 SWAP1 SWAP2 MSTORE PUSH1 0x0 SWAP2 PUSH32 0x0 AND SWAP1 PUSH4 0xA9059CBB SWAP1 PUSH1 0x44 ADD PUSH1 0x20 PUSH1 0x40 MLOAD DUP1 DUP4 SUB DUP2 PUSH1 0x0 DUP8 GAS CALL ISZERO DUP1 ISZERO PUSH2 0x1FF0 JUMPI RETURNDATASIZE PUSH1 0x0 DUP1 RETURNDATACOPY RETURNDATASIZE PUSH1 0x0 REVERT JUMPDEST POP POP POP POP PUSH1 0x40 MLOAD RETURNDATASIZE PUSH1 0x1F NOT PUSH1 0x1F DUP3 ADD AND DUP3 ADD DUP1 PUSH1 0x40 MSTORE POP DUP2 ADD SWAP1 PUSH2 0x2014 SWAP2 SWAP1 PUSH2 0x2A15 JUMP JUMPDEST SWAP1 POP DUP1 PUSH2 0x2034 JUMPI PUSH1 0x40 MLOAD PUSH4 0x22E2581 PUSH1 0xE1 SHL DUP2 MSTORE PUSH1 0x4 ADD PUSH1 0x40 MLOAD DUP1 SWAP2 SUB SWAP1 REVERT JUMPDEST PUSH1 0x1 DUP3 ADD SLOAD PUSH1 0x2 DUP4 ADD SLOAD PUSH1 0x1 PUSH1 0x1 PUSH1 0xA0 SHL SUB SWAP1 SWAP2 AND PUSH1 0x0 DUP2 DUP2 MSTORE PUSH1 0x4 PUSH1 0x20 SWAP1 DUP2 MSTORE PUSH1 0x40 SWAP2 DUP3 SWAP1 KECCAK256 SLOAD DUP3 MLOAD SWAP5 DUP6 MSTORE SWAP1 DUP5 ADD MSTORE SWAP1 SWAP2 PUSH32 0xEAE9CFBC77FDD40CA899F36B608256063B2BC9D8178B0220F7AD513E178D6730 SWAP2 ADD PUSH1 0x40 MLOAD DUP1 SWAP2 SUB SWAP1 LOG2 PUSH32 0x17F13FD3F7C4712AF33F1770EBCB822DD20A2DBC00850EAB48D786623D97B959 PUSH1 0x7 SLOAD PUSH1 0x40 MLOAD PUSH2 0x20C5 SWAP2 DUP2 MSTORE PUSH1 0x20 ADD SWAP1 JUMP JUMPDEST PUSH1 0x40 MLOAD DUP1 SWAP2 SUB SWAP1 LOG1 PUSH32 0x8B094CCA6F83D49402CE208CC0C224B76625FFC58636DF56AE28024E704C5868 PUSH1 0x8 SLOAD PUSH1 0x40 MLOAD PUSH2 0x2100 SWAP2 DUP2 MSTORE PUSH1 0x20 ADD SWAP1 JUMP JUMPDEST PUSH1 0x40 MLOAD DUP1 SWAP2 SUB SWAP1 LOG1 PUSH1 0x40 MLOAD DUP4 SWAP1 PUSH32 0x9E71D2FB732E68272B7E74ECFD14638673C1D77E19A5D390A3FFFF054D57C44B SWAP1 PUSH1 0x0 SWAP1 LOG2 POP POP POP JUMP JUMPDEST DUP3 CALLER PUSH4 0xFFFFFFFF DUP3 AND ISZERO DUP1 PUSH2 0x216E JUMPI POP PUSH1 0x1 PUSH1 0x1 PUSH1 0xA0 SHL SUB DUP2 AND PUSH1 0x0 SWAP1 DUP2 MSTORE PUSH1 0x1 PUSH1 0x20 MSTORE PUSH1 0x40 SWAP1 KECCAK256 SLOAD PUSH4 0xFFFFFFFF DUP4 DUP2 AND SWAP2 AND EQ ISZERO JUMPDEST ISZERO PUSH2 0x218C JUMPI PUSH1 0x40 MLOAD PUSH4 0xCFF23E7 PUSH1 0xE0 SHL DUP2 MSTORE PUSH1 0x4 ADD PUSH1 0x40 MLOAD DUP1 SWAP2 SUB SWAP1 REVERT JUMPDEST PUSH4 0xFFFFFFFF DUP6 AND PUSH1 0x0 SWAP1 DUP2 MSTORE PUSH1 0x2 PUSH1 0x20 MSTORE PUSH1 0x40 DUP2 KECCAK256 SLOAD PUSH1 0x3 SIGNEXTEND SWAP1 DUP5 ISZERO PUSH2 0x21BD JUMPI PUSH2 0x21B6 DUP7 DUP4 PUSH2 0x2AA5 JUMP JUMPDEST SWAP1 POP PUSH2 0x21D9 JUMP JUMPDEST PUSH2 0x21C7 DUP7 DUP4 PUSH2 0x2ACC JUMP JUMPDEST SWAP1 POP PUSH1 0x0 DUP2 PUSH1 0x3 SIGNEXTEND SLT ISZERO PUSH2 0x21D9 JUMPI POP PUSH1 0x0 JUMPDEST PUSH4 0xFFFFFFFF DUP8 DUP2 AND PUSH1 0x0 DUP2 DUP2 MSTORE PUSH1 0x2 PUSH1 0x20 SWAP1 DUP2 MSTORE PUSH1 0x40 SWAP2 DUP3 SWAP1 KECCAK256 DUP1 SLOAD PUSH4 0xFFFFFFFF NOT AND SWAP5 DUP7 AND SWAP5 SWAP1 SWAP5 OR SWAP1 SWAP4 SSTORE DUP1 MLOAD PUSH1 0x3 DUP11 DUP2 SIGNEXTEND DUP3 MSTORE DUP10 ISZERO ISZERO SWAP5 DUP3 ADD SWAP5 SWAP1 SWAP5 MSTORE SWAP3 DUP5 SWAP1 SIGNEXTEND SWAP1 DUP4 ADD MSTORE TIMESTAMP PUSH1 0x60 DUP4 ADD MSTORE SWAP1 PUSH32 0x72194F756300FFF6BFC1D45660DA70048BE350DC1AAD864B9280FA75C3FF696C SWAP1 PUSH1 0x80 ADD PUSH1 0x40 MLOAD DUP1 SWAP2 SUB SWAP1 LOG2 POP POP POP POP POP POP POP JUMP JUMPDEST PUSH1 0x0 DUP3 DUP2 MSTORE PUSH1 0x9 PUSH1 0x20 MSTORE PUSH1 0x40 DUP2 KECCAK256 PUSH1 0x2 DUP2 ADD SLOAD SWAP1 SWAP2 JUMPDEST PUSH1 0x6 DUP4 ADD SLOAD DUP2 LT ISZERO PUSH2 0x23CA JUMPI PUSH1 0x0 DUP4 PUSH1 0x6 ADD DUP3 DUP2 SLOAD DUP2 LT PUSH2 0x2297 JUMPI PUSH2 0x2297 PUSH2 0x2901 JUMP JUMPDEST PUSH1 0x0 SWAP2 DUP3 MSTORE PUSH1 0x20 DUP1 DUP4 KECCAK256 SWAP1 SWAP2 ADD SLOAD PUSH1 0x1 PUSH1 0x1 PUSH1 0xA0 SHL SUB AND DUP1 DUP4 MSTORE PUSH1 0x7 DUP8 ADD SWAP1 SWAP2 MSTORE PUSH1 0x40 DUP3 KECCAK256 SLOAD SWAP1 SWAP3 POP SWAP1 DUP5 PUSH2 0x22CC DUP4 DUP10 PUSH2 0x296F JUMP JUMPDEST PUSH2 0x22D6 SWAP2 SWAP1 PUSH2 0x2999 JUMP JUMPDEST SWAP1 POP DUP1 ISZERO PUSH2 0x23B4 JUMPI PUSH1 0x1 PUSH1 0x1 PUSH1 0xA0 SHL SUB DUP4 AND PUSH1 0x0 SWAP1 DUP2 MSTORE PUSH1 0xC PUSH1 0x20 MSTORE PUSH1 0x40 SWAP1 KECCAK256 SLOAD DUP2 GT ISZERO PUSH2 0x2319 JUMPI POP PUSH1 0x1 PUSH1 0x1 PUSH1 0xA0 SHL SUB DUP3 AND PUSH1 0x0 SWAP1 DUP2 MSTORE PUSH1 0xC PUSH1 0x20 MSTORE PUSH1 0x40 SWAP1 KECCAK256 SLOAD JUMPDEST PUSH1 0x1 PUSH1 0x1 PUSH1 0xA0 SHL SUB DUP4 AND PUSH1 0x0 SWAP1 DUP2 MSTORE PUSH1 0xC PUSH1 0x20 MSTORE PUSH1 0x40 DUP2 KECCAK256 DUP1 SLOAD DUP4 SWAP3 SWAP1 PUSH2 0x2341 SWAP1 DUP5 SWAP1 PUSH2 0x2986 JUMP JUMPDEST SWAP1 SWAP2 SSTORE POP POP PUSH1 0x1 PUSH1 0x1 PUSH1 0xA0 SHL SUB DUP4 AND PUSH1 0x0 SWAP1 DUP2 MSTORE PUSH1 0x3 PUSH1 0x20 MSTORE PUSH1 0x40 DUP2 KECCAK256 DUP1 SLOAD DUP4 SWAP3 SWAP1 PUSH2 0x236E SWAP1 DUP5 SWAP1 PUSH2 0x295C JUMP JUMPDEST SWAP1 SWAP2 SSTORE POP POP PUSH1 0x40 MLOAD DUP2 DUP2 MSTORE PUSH1 0x1 PUSH1 0x1 PUSH1 0xA0 SHL SUB DUP5 AND SWAP1 DUP10 SWAP1 PUSH32 0xE3E6AE1E05F069D410556743894AACBB190C1431962422EBE8FCC642A467DD16 SWAP1 PUSH1 0x20 ADD PUSH1 0x40 MLOAD DUP1 SWAP2 SUB SWAP1 LOG3 JUMPDEST POP POP POP DUP1 DUP1 PUSH2 0x23C2 SWAP1 PUSH2 0x292D JUMP JUMPDEST SWAP2 POP POP PUSH2 0x2274 JUMP JUMPDEST POP POP POP POP POP JUMP JUMPDEST TIMESTAMP PUSH3 0x278D00 PUSH1 0x0 JUMPDEST DUP4 PUSH4 0xFFFFFFFF AND DUP2 PUSH4 0xFFFFFFFF AND LT ISZERO PUSH2 0x23CA JUMPI PUSH1 0x0 PUSH2 0x23FA DUP3 PUSH1 0x1 PUSH2 0x29BB JUMP JUMPDEST PUSH2 0x240A SWAP1 PUSH4 0xFFFFFFFF AND DUP5 PUSH2 0x296F JUMP JUMPDEST PUSH2 0x2414 SWAP1 DUP6 PUSH2 0x295C JUMP JUMPDEST PUSH1 0x4 DUP8 ADD DUP1 SLOAD PUSH1 0x1 DUP2 ADD DUP3 SSTORE PUSH1 0x0 SWAP2 DUP3 MSTORE PUSH1 0x20 SWAP1 SWAP2 KECCAK256 ADD SSTORE POP DUP1 PUSH2 0x2437 DUP2 PUSH2 0x2AF3 JUMP JUMPDEST SWAP2 POP POP PUSH2 0x23D9 JUMP JUMPDEST PUSH1 0x40 DUP1 MLOAD PUSH1 0xE0 DUP2 ADD DUP3 MSTORE PUSH1 0x0 DUP1 DUP3 MSTORE PUSH1 0x20 DUP3 ADD DUP2 SWAP1 MSTORE SWAP1 SWAP2 DUP3 ADD SWAP1 DUP2 MSTORE PUSH1 0x20 ADD PUSH1 0x0 PUSH4 0xFFFFFFFF AND DUP2 MSTORE PUSH1 0x20 ADD PUSH1 0x0 PUSH4 0xFFFFFFFF AND DUP2 MSTORE PUSH1 0x20 ADD PUSH1 0x0 DUP2 MSTORE PUSH1 0x20 ADD PUSH1 0x60 DUP2 MSTORE POP SWAP1 JUMP JUMPDEST DUP1 CALLDATALOAD PUSH1 0x1 PUSH1 0x1 PUSH1 0xA0 SHL SUB DUP2 AND DUP2 EQ PUSH2 0x249F JUMPI PUSH1 0x0 DUP1 REVERT JUMPDEST SWAP2 SWAP1 POP JUMP JUMPDEST PUSH1 0x0 PUSH1 0x20 DUP3 DUP5 SUB SLT ISZERO PUSH2 0x24B6 JUMPI PUSH1 0x0 DUP1 REVERT JUMPDEST PUSH2 0x134A DUP3 PUSH2 0x2488 JUMP JUMPDEST PUSH4 0x4E487B71 PUSH1 0xE0 SHL PUSH1 0x0 MSTORE PUSH1 0x21 PUSH1 0x4 MSTORE PUSH1 0x24 PUSH1 0x0 REVERT JUMPDEST PUSH1 0x3 DUP2 LT PUSH2 0x24E5 JUMPI PUSH2 0x24E5 PUSH2 0x24BF JUMP JUMPDEST SWAP1 MSTORE JUMP JUMPDEST PUSH1 0x0 PUSH1 0xE0 DUP4 ADD PUSH1 0x1 DUP1 PUSH1 0xA0 SHL SUB DUP4 MLOAD AND DUP5 MSTORE PUSH1 0x20 DUP1 DUP5 ADD MLOAD DUP2 DUP7 ADD MSTORE PUSH1 0x40 DUP5 ADD MLOAD PUSH2 0x2517 PUSH1 0x40 DUP8 ADD DUP3 PUSH2 0x24D5 JUMP JUMPDEST POP PUSH1 0x60 DUP5 ADD MLOAD PUSH4 0xFFFFFFFF DUP1 DUP3 AND PUSH1 0x60 DUP9 ADD MSTORE DUP1 PUSH1 0x80 DUP8 ADD MLOAD AND PUSH1 0x80 DUP9 ADD MSTORE POP POP PUSH1 0xA0 DUP5 ADD MLOAD PUSH1 0xA0 DUP7 ADD MSTORE PUSH1 0xC0 DUP5 ADD MLOAD PUSH1 0xE0 PUSH1 0xC0 DUP8 ADD MSTORE DUP3 DUP2 MLOAD DUP1 DUP6 MSTORE PUSH2 0x100 DUP9 ADD SWAP2 POP DUP4 DUP4 ADD SWAP5 POP PUSH1 0x0 SWAP3 POP JUMPDEST DUP1 DUP4 LT ISZERO PUSH2 0x2585 JUMPI DUP5 MLOAD DUP3 MSTORE SWAP4 DUP4 ADD SWAP4 PUSH1 0x1 SWAP3 SWAP1 SWAP3 ADD SWAP2 SWAP1 DUP4 ADD SWAP1 PUSH2 0x2565 JUMP JUMPDEST POP SWAP7 SWAP6 POP POP POP POP POP POP JUMP JUMPDEST PUSH1 0x0 DUP2 MLOAD DUP1 DUP5 MSTORE PUSH1 0x20 DUP1 DUP6 ADD SWAP5 POP DUP1 DUP5 ADD PUSH1 0x0 JUMPDEST DUP4 DUP2 LT ISZERO PUSH2 0x25C0 JUMPI DUP2 MLOAD DUP8 MSTORE SWAP6 DUP3 ADD SWAP6 SWAP1 DUP3 ADD SWAP1 PUSH1 0x1 ADD PUSH2 0x25A4 JUMP JUMPDEST POP SWAP5 SWAP6 SWAP5 POP POP POP POP POP JUMP JUMPDEST PUSH1 0x0 PUSH1 0x40 DUP3 ADD PUSH1 0x40 DUP4 MSTORE DUP1 DUP6 MLOAD DUP1 DUP4 MSTORE PUSH1 0x60 DUP6 ADD SWAP2 POP PUSH1 0x60 DUP2 PUSH1 0x5 SHL DUP7 ADD ADD SWAP3 POP PUSH1 0x20 DUP1 DUP9 ADD PUSH1 0x0 JUMPDEST DUP4 DUP2 LT ISZERO PUSH2 0x2622 JUMPI PUSH1 0x5F NOT DUP9 DUP8 SUB ADD DUP6 MSTORE PUSH2 0x2610 DUP7 DUP4 MLOAD PUSH2 0x24E9 JUMP JUMPDEST SWAP6 POP SWAP4 DUP3 ADD SWAP4 SWAP1 DUP3 ADD SWAP1 PUSH1 0x1 ADD PUSH2 0x25F4 JUMP JUMPDEST POP POP DUP6 DUP5 SUB DUP2 DUP8 ADD MSTORE POP POP POP PUSH2 0x2638 DUP2 DUP6 PUSH2 0x2590 JUMP JUMPDEST SWAP6 SWAP5 POP POP POP POP POP JUMP JUMPDEST PUSH1 0x0 PUSH1 0x20 DUP3 DUP5 SUB SLT ISZERO PUSH2 0x2653 JUMPI PUSH1 0x0 DUP1 REVERT JUMPDEST POP CALLDATALOAD SWAP2 SWAP1 POP JUMP JUMPDEST PUSH1 0x6 DUP2 LT PUSH2 0x24E5 JUMPI PUSH2 0x24E5 PUSH2 0x24BF JUMP JUMPDEST PUSH1 0x0 DUP2 MLOAD DUP1 DUP5 MSTORE PUSH1 0x20 DUP1 DUP6 ADD SWAP5 POP DUP1 DUP5 ADD PUSH1 0x0 JUMPDEST DUP4 DUP2 LT ISZERO PUSH2 0x25C0 JUMPI DUP2 MLOAD PUSH1 0x1 PUSH1 0x1 PUSH1 0xA0 SHL SUB AND DUP8 MSTORE SWAP6 DUP3 ADD SWAP6 SWAP1 DUP3 ADD SWAP1 PUSH1 0x1 ADD PUSH2 0x267E JUMP JUMPDEST PUSH1 0x20 DUP2 MSTORE DUP2 MLOAD PUSH1 0x20 DUP3 ADD MSTORE PUSH1 0x0 PUSH1 0x20 DUP4 ADD MLOAD PUSH2 0x26CA PUSH1 0x40 DUP5 ADD DUP3 PUSH1 0x1 PUSH1 0x1 PUSH1 0xA0 SHL SUB AND SWAP1 MSTORE JUMP JUMPDEST POP PUSH1 0x40 DUP4 ADD MLOAD PUSH1 0x60 DUP4 ADD MSTORE PUSH1 0x60 DUP4 ADD MLOAD PUSH2 0x26EC PUSH1 0x80 DUP5 ADD DUP3 PUSH4 0xFFFFFFFF AND SWAP1 MSTORE JUMP JUMPDEST POP PUSH1 0x80 DUP4 ADD MLOAD PUSH4 0xFFFFFFFF DUP2 AND PUSH1 0xA0 DUP5 ADD MSTORE POP PUSH1 0xA0 DUP4 ADD MLOAD PUSH2 0x2711 PUSH1 0xC0 DUP5 ADD DUP3 PUSH2 0x265A JUMP JUMPDEST POP PUSH1 0xC0 DUP4 ADD MLOAD PUSH1 0xE0 DUP4 ADD MSTORE PUSH1 0xE0 DUP4 ADD MLOAD PUSH2 0x100 DUP2 DUP2 DUP6 ADD MSTORE DUP1 DUP6 ADD MLOAD SWAP2 POP POP PUSH2 0x140 PUSH2 0x120 DUP2 DUP2 DUP7 ADD MSTORE PUSH2 0x2749 PUSH2 0x160 DUP7 ADD DUP5 PUSH2 0x266A JUMP JUMPDEST SWAP6 ADD MLOAD PUSH4 0xFFFFFFFF AND SWAP4 ADD SWAP3 SWAP1 SWAP3 MSTORE POP SWAP1 SWAP2 SWAP1 POP JUMP JUMPDEST DUP1 CALLDATALOAD PUSH4 0xFFFFFFFF DUP2 AND DUP2 EQ PUSH2 0x249F JUMPI PUSH1 0x0 DUP1 REVERT JUMPDEST PUSH1 0x0 DUP1 PUSH1 0x40 DUP4 DUP6 SUB SLT ISZERO PUSH2 0x2786 JUMPI PUSH1 0x0 DUP1 REVERT JUMPDEST PUSH2 0x278F DUP4 PUSH2 0x275F JUMP JUMPDEST SWAP2 POP PUSH2 0x279D PUSH1 0x20 DUP5 ADD PUSH2 0x2488 JUMP JUMPDEST SWAP1 POP SWAP3 POP SWAP3 SWAP1 POP JUMP JUMPDEST PUSH1 0x1 PUSH1 0x1 PUSH1 0xA0 SHL SUB DUP8 AND DUP2 MSTORE PUSH1 0x20 DUP2 ADD DUP7 SWAP1 MSTORE PUSH1 0xC0 DUP2 ADD PUSH2 0x27CA PUSH1 0x40 DUP4 ADD DUP8 PUSH2 0x24D5 JUMP JUMPDEST PUSH4 0xFFFFFFFF SWAP5 DUP6 AND PUSH1 0x60 DUP4 ADD MSTORE SWAP3 SWAP1 SWAP4 AND PUSH1 0x80 DUP5 ADD MSTORE PUSH1 0xA0 SWAP1 SWAP3 ADD SWAP2 SWAP1 SWAP2 MSTORE SWAP4 SWAP3 POP POP POP JUMP JUMPDEST PUSH1 0x0 DUP1 PUSH1 0x40 DUP4 DUP6 SUB SLT ISZERO PUSH2 0x2803 JUMPI PUSH1 0x0 DUP1 REVERT JUMPDEST DUP3 CALLDATALOAD SWAP2 POP PUSH2 0x279D PUSH1 0x20 DUP5 ADD PUSH2 0x275F JUMP JUMPDEST PUSH1 0x20 DUP2 MSTORE PUSH1 0x0 PUSH2 0x134A PUSH1 0x20 DUP4 ADD DUP5 PUSH2 0x24E9 JUMP JUMPDEST PUSH1 0x0 DUP1 PUSH1 0x40 DUP4 DUP6 SUB SLT ISZERO PUSH2 0x2839 JUMPI PUSH1 0x0 DUP1 REVERT JUMPDEST DUP3 CALLDATALOAD SWAP2 POP PUSH2 0x279D PUSH1 0x20 DUP5 ADD PUSH2 0x2488 JUMP JUMPDEST PUSH1 0x20 DUP2 MSTORE PUSH1 0x0 PUSH2 0x134A PUSH1 0x20 DUP4 ADD DUP5 PUSH2 0x2590 JUMP JUMPDEST PUSH1 0x20 DUP2 MSTORE PUSH1 0x0 PUSH2 0x134A PUSH1 0x20 DUP4 ADD DUP5 PUSH2 0x266A JUMP JUMPDEST PUSH1 0x0 DUP1 PUSH1 0x40 DUP4 DUP6 SUB SLT ISZERO PUSH2 0x2882 JUMPI PUSH1 0x0 DUP1 REVERT JUMPDEST PUSH2 0x288B DUP4 PUSH2 0x2488 JUMP JUMPDEST SWAP5 PUSH1 0x20 SWAP4 SWAP1 SWAP4 ADD CALLDATALOAD SWAP4 POP POP POP JUMP JUMPDEST PUSH1 0x0 DUP1 PUSH1 0x0 DUP1 PUSH1 0x80 DUP6 DUP8 SUB SLT ISZERO PUSH2 0x28AF JUMPI PUSH1 0x0 DUP1 REVERT JUMPDEST DUP5 CALLDATALOAD SWAP4 POP PUSH2 0x28BF PUSH1 0x20 DUP7 ADD PUSH2 0x275F JUMP JUMPDEST SWAP3 POP PUSH1 0x40 DUP6 ADD CALLDATALOAD SWAP2 POP PUSH2 0x28D4 PUSH1 0x60 DUP7 ADD PUSH2 0x275F JUMP JUMPDEST SWAP1 POP SWAP3 SWAP6 SWAP2 SWAP5 POP SWAP3 POP JUMP JUMPDEST PUSH1 0x0 DUP1 PUSH1 0x40 DUP4 DUP6 SUB SLT ISZERO PUSH2 0x28F2 JUMPI PUSH1 0x0 DUP1 REVERT JUMPDEST POP POP DUP1 CALLDATALOAD SWAP3 PUSH1 0x20 SWAP1 SWAP2 ADD CALLDATALOAD SWAP2 POP JUMP JUMPDEST PUSH4 0x4E487B71 PUSH1 0xE0 SHL PUSH1 0x0 MSTORE PUSH1 0x32 PUSH1 0x4 MSTORE PUSH1 0x24 PUSH1 0x0 REVERT JUMPDEST PUSH4 0x4E487B71 PUSH1 0xE0 SHL PUSH1 0x0 MSTORE PUSH1 0x11 PUSH1 0x4 MSTORE PUSH1 0x24 PUSH1 0x0 REVERT JUMPDEST PUSH1 0x0 PUSH1 0x1 DUP3 ADD PUSH2 0x293F JUMPI PUSH2 0x293F PUSH2 0x2917 JUMP JUMPDEST POP PUSH1 0x1 ADD SWAP1 JUMP JUMPDEST PUSH4 0x4E487B71 PUSH1 0xE0 SHL PUSH1 0x0 MSTORE PUSH1 0x41 PUSH1 0x4 MSTORE PUSH1 0x24 PUSH1 0x0 REVERT JUMPDEST DUP1 DUP3 ADD DUP1 DUP3 GT ISZERO PUSH2 0x1065 JUMPI PUSH2 0x1065 PUSH2 0x2917 JUMP JUMPDEST DUP1 DUP3 MUL DUP2 ISZERO DUP3 DUP3 DIV DUP5 EQ OR PUSH2 0x1065 JUMPI PUSH2 0x1065 PUSH2 0x2917 JUMP JUMPDEST DUP2 DUP2 SUB DUP2 DUP2 GT ISZERO PUSH2 0x1065 JUMPI PUSH2 0x1065 PUSH2 0x2917 JUMP JUMPDEST PUSH1 0x0 DUP3 PUSH2 0x29B6 JUMPI PUSH4 0x4E487B71 PUSH1 0xE0 SHL PUSH1 0x0 MSTORE PUSH1 0x12 PUSH1 0x4 MSTORE PUSH1 0x24 PUSH1 0x0 REVERT JUMPDEST POP DIV SWAP1 JUMP JUMPDEST PUSH4 0xFFFFFFFF DUP2 DUP2 AND DUP4 DUP3 AND ADD SWAP1 DUP1 DUP3 GT ISZERO PUSH2 0x29D8 JUMPI PUSH2 0x29D8 PUSH2 0x2917 JUMP JUMPDEST POP SWAP3 SWAP2 POP POP JUMP JUMPDEST PUSH1 0x0 PUSH1 0x20 DUP3 DUP5 SUB SLT ISZERO PUSH2 0x29F1 JUMPI PUSH1 0x0 DUP1 REVERT JUMPDEST POP MLOAD SWAP2 SWAP1 POP JUMP JUMPDEST PUSH4 0xFFFFFFFF DUP3 DUP2 AND DUP3 DUP3 AND SUB SWAP1 DUP1 DUP3 GT ISZERO PUSH2 0x29D8 JUMPI PUSH2 0x29D8 PUSH2 0x2917 JUMP JUMPDEST PUSH1 0x0 PUSH1 0x20 DUP3 DUP5 SUB SLT ISZERO PUSH2 0x2A27 JUMPI PUSH1 0x0 DUP1 REVERT JUMPDEST DUP2 MLOAD DUP1 ISZERO ISZERO DUP2 EQ PUSH2 0x134A JUMPI PUSH1 0x0 DUP1 REVERT JUMPDEST PUSH1 0x0 PUSH1 0x80 DUP3 ADD PUSH2 0x2A47 DUP4 DUP9 PUSH2 0x24D5 JUMP JUMPDEST PUSH1 0x20 PUSH4 0xFFFFFFFF DUP8 AND DUP2 DUP6 ADD MSTORE DUP6 PUSH1 0x40 DUP6 ADD MSTORE PUSH1 0x80 PUSH1 0x60 DUP6 ADD MSTORE DUP2 DUP6 SLOAD DUP1 DUP5 MSTORE PUSH1 0xA0 DUP7 ADD SWAP2 POP DUP7 PUSH1 0x0 MSTORE DUP3 PUSH1 0x0 KECCAK256 SWAP4 POP PUSH1 0x0 JUMPDEST DUP2 DUP2 LT ISZERO PUSH2 0x2A96 JUMPI DUP5 SLOAD DUP4 MSTORE PUSH1 0x1 SWAP5 DUP6 ADD SWAP5 SWAP3 DUP5 ADD SWAP3 ADD PUSH2 0x2A7A JUMP JUMPDEST POP SWAP1 SWAP10 SWAP9 POP POP POP POP POP POP POP POP POP JUMP JUMPDEST PUSH1 0x3 DUP2 DUP2 SIGNEXTEND SWAP1 DUP4 SWAP1 SIGNEXTEND ADD PUSH4 0x7FFFFFFF DUP2 SGT PUSH4 0x7FFFFFFF NOT DUP3 SLT OR ISZERO PUSH2 0x1065 JUMPI PUSH2 0x1065 PUSH2 0x2917 JUMP JUMPDEST PUSH1 0x3 DUP3 DUP2 SIGNEXTEND SWAP1 DUP3 SWAP1 SIGNEXTEND SUB PUSH4 0x7FFFFFFF NOT DUP2 SLT PUSH4 0x7FFFFFFF DUP3 SGT OR ISZERO PUSH2 0x1065 JUMPI PUSH2 0x1065 PUSH2 0x2917 JUMP JUMPDEST PUSH1 0x0 PUSH4 0xFFFFFFFF DUP1 DUP4 AND DUP2 DUP2 SUB PUSH2 0x2B0C JUMPI PUSH2 0x2B0C PUSH2 0x2917 JUMP JUMPDEST PUSH1 0x1 ADD SWAP4 SWAP3 POP POP POP JUMP INVALID LOG2 PUSH5 0x6970667358 0x22 SLT KECCAK256 PUSH5 0xBC56B81D46 DUP11 DUP14 0x25 PUSH29 0xA0292CC42FDDC46F6D882C1EADF1DBF4492424E8F8A564736F6C634300 ADDMOD SGT STOP CALLER "},"methodIdentifiers":{"borrowerRequisitions(address,uint256)":"9e932011","canPayRequisition(uint256,address)":"adceb101","canUserBorrow(address,uint256)":"97c33519","coverLoan(uint256,uint32)":"2485a314","createLoanRequisition(uint256,uint32,uint256,uint32)":"a648bf75","donate(uint256)":"f14faf6f","getActiveLoans(address)":"03d1a1a1","getAllowance(address)":"eb5a662e","getAvailableBalance()":"809dab6a","getAvailableBorrowAmount()":"291c31a7","getBorrowerRequisitions(address)":"9730872a","getBorrowing(address)":"be5eb580","getContractBalance()":"6f9fb98a","getCoveringLenders(uint256)":"8a914a63","getDonation(address)":"410a1d32","getDonationsInCoverage(address)":"827cc0e5","getLastBorrowTime(address)":"657eb031","getLenderCoverage(uint256,address)":"4e51c7df","getLoanContract(uint256)":"383ab2ef","getNextPaymentAmount(uint256)":"6509a710","getPaymentDates(uint256)":"7d52437a","getRepaymentSummary(uint256)":"2b31c022","getRequisitionInfo(uint256)":"1b70ba3e","getTotalBorrowed()":"0307c4a1","getTotalDonations()":"777c658f","getUSDTBalance()":"9785fac8","loanContracts(uint256)":"232869fa","repay(uint256,uint256)":"d8aed145","requisitionCounter()":"84ddf5ea","usdtToken()":"a98ad46c","vinculationMemberToWallet(uint32,address)":"21bb31e4"}}}}}