{"contracts/LoanMachine.sol":{"LoanMachine":{"abi":[{"inputs":[],"name":"BorrowNotExpired","type":"error"},{"inputs":[],"name":"InsufficientDonationBalance","type":"error"},{"inputs":[],"name":"InsufficientFunds","type":"error"},{"inputs":[],"name":"InvalidAmount","type":"error"},{"inputs":[],"name":"InvalidCoveragePercentage","type":"error"},{"inputs":[],"name":"InvalidParcelsCount","type":"error"},{"inputs":[],"name":"LoanNotAvailable","type":"error"},{"inputs":[],"name":"MinimumDonationRequired","type":"error"},{"inputs":[],"name":"NoActiveBorrowing","type":"error"},{"inputs":[],"name":"OverCoverage","type":"error"},{"inputs":[],"name":"RepaymentExceedsBorrowed","type":"error"},{"anonymous":false,"inputs":[{"indexed":false,"internalType":"uint256","name":"total","type":"uint256"}],"name":"AvailableBalanceUpdated","type":"event"},{"anonymous":false,"inputs":[{"indexed":true,"internalType":"address","name":"borrower","type":"address"}],"name":"BorrowLimitReached","type":"event"},{"anonymous":false,"inputs":[{"indexed":true,"internalType":"address","name":"borrower","type":"address"},{"indexed":false,"internalType":"uint256","name":"amount","type":"uint256"},{"indexed":false,"internalType":"uint256","name":"totalBorrowing","type":"uint256"}],"name":"Borrowed","type":"event"},{"anonymous":false,"inputs":[{"indexed":true,"internalType":"address","name":"donor","type":"address"},{"indexed":false,"internalType":"uint256","name":"amount","type":"uint256"},{"indexed":false,"internalType":"uint256","name":"totalDonation","type":"uint256"}],"name":"Donated","type":"event"},{"anonymous":false,"inputs":[{"indexed":true,"internalType":"address","name":"walletAddress","type":"address"},{"indexed":true,"internalType":"uint256","name":"requisitionId","type":"uint256"},{"indexed":false,"internalType":"enum ILoanMachine.ContractStatus","name":"status","type":"uint8"},{"indexed":false,"internalType":"uint32","name":"parcelsPending","type":"uint32"}],"name":"LoanContractGenerated","type":"event"},{"anonymous":false,"inputs":[{"indexed":true,"internalType":"uint256","name":"requisitionId","type":"uint256"},{"indexed":true,"internalType":"address","name":"lender","type":"address"},{"indexed":false,"internalType":"uint256","name":"coverageAmount","type":"uint256"}],"name":"LoanCovered","type":"event"},{"anonymous":false,"inputs":[{"indexed":true,"internalType":"uint256","name":"requisitionId","type":"uint256"}],"name":"LoanFunded","type":"event"},{"anonymous":false,"inputs":[{"indexed":true,"internalType":"uint256","name":"requisitionId","type":"uint256"},{"indexed":true,"internalType":"address","name":"borrower","type":"address"},{"indexed":false,"internalType":"uint256","name":"amount","type":"uint256"},{"indexed":false,"internalType":"uint32","name":"parcelsCount","type":"uint32"}],"name":"LoanRequisitionCreated","type":"event"},{"anonymous":false,"inputs":[{"indexed":true,"internalType":"address","name":"borrower","type":"address"}],"name":"NewBorrower","type":"event"},{"anonymous":false,"inputs":[{"indexed":true,"internalType":"address","name":"donor","type":"address"}],"name":"NewDonor","type":"event"},{"anonymous":false,"inputs":[{"indexed":true,"internalType":"address","name":"borrower","type":"address"},{"indexed":false,"internalType":"uint256","name":"amount","type":"uint256"},{"indexed":false,"internalType":"uint256","name":"remainingDebt","type":"uint256"}],"name":"Repaid","type":"event"},{"anonymous":false,"inputs":[{"indexed":false,"internalType":"uint256","name":"total","type":"uint256"}],"name":"TotalBorrowedUpdated","type":"event"},{"anonymous":false,"inputs":[{"indexed":false,"internalType":"uint256","name":"total","type":"uint256"}],"name":"TotalDonationsUpdated","type":"event"},{"inputs":[{"internalType":"uint256","name":"_amount","type":"uint256"}],"name":"borrow","outputs":[],"stateMutability":"nonpayable","type":"function"},{"inputs":[{"internalType":"address","name":"","type":"address"},{"internalType":"uint256","name":"","type":"uint256"}],"name":"borrowerRequisitions","outputs":[{"internalType":"uint256","name":"","type":"uint256"}],"stateMutability":"view","type":"function"},{"inputs":[{"internalType":"address","name":"_user","type":"address"},{"internalType":"uint256","name":"_amount","type":"uint256"}],"name":"canUserBorrow","outputs":[{"internalType":"bool","name":"","type":"bool"}],"stateMutability":"view","type":"function"},{"inputs":[{"internalType":"uint256","name":"requisitionId","type":"uint256"},{"internalType":"uint32","name":"coveragePercentage","type":"uint32"}],"name":"coverLoan","outputs":[],"stateMutability":"nonpayable","type":"function"},{"inputs":[{"internalType":"uint256","name":"_amount","type":"uint256"},{"internalType":"uint32","name":"_minimumCoverage","type":"uint32"},{"internalType":"uint256","name":"_durationDays","type":"uint256"},{"internalType":"uint32","name":"parcelscount","type":"uint32"}],"name":"createLoanRequisition","outputs":[{"internalType":"uint256","name":"","type":"uint256"}],"stateMutability":"nonpayable","type":"function"},{"inputs":[],"name":"donate","outputs":[],"stateMutability":"payable","type":"function"},{"inputs":[],"name":"getAvailableBalance","outputs":[{"internalType":"uint256","name":"","type":"uint256"}],"stateMutability":"view","type":"function"},{"inputs":[],"name":"getAvailableBorrowAmount","outputs":[{"internalType":"uint256","name":"","type":"uint256"}],"stateMutability":"view","type":"function"},{"inputs":[{"internalType":"address","name":"borrower","type":"address"}],"name":"getBorrowerRequisitions","outputs":[{"internalType":"uint256[]","name":"","type":"uint256[]"}],"stateMutability":"view","type":"function"},{"inputs":[{"internalType":"address","name":"_user","type":"address"}],"name":"getBorrowing","outputs":[{"internalType":"uint256","name":"","type":"uint256"}],"stateMutability":"view","type":"function"},{"inputs":[],"name":"getContractBalance","outputs":[{"internalType":"uint256","name":"","type":"uint256"}],"stateMutability":"view","type":"function"},{"inputs":[{"internalType":"uint256","name":"requisitionId","type":"uint256"}],"name":"getCoveringLenders","outputs":[{"internalType":"address[]","name":"","type":"address[]"}],"stateMutability":"view","type":"function"},{"inputs":[{"internalType":"address","name":"_user","type":"address"}],"name":"getDonation","outputs":[{"internalType":"uint256","name":"","type":"uint256"}],"stateMutability":"view","type":"function"},{"inputs":[{"internalType":"address","name":"_user","type":"address"}],"name":"getLastBorrowTime","outputs":[{"internalType":"uint256","name":"","type":"uint256"}],"stateMutability":"view","type":"function"},{"inputs":[{"internalType":"uint256","name":"requisitionId","type":"uint256"},{"internalType":"address","name":"lender","type":"address"}],"name":"getLenderCoverage","outputs":[{"internalType":"uint256","name":"","type":"uint256"}],"stateMutability":"view","type":"function"},{"inputs":[{"internalType":"uint256","name":"requisitionId","type":"uint256"}],"name":"getLoanContract","outputs":[{"components":[{"internalType":"address","name":"walletAddress","type":"address"},{"internalType":"uint256","name":"requisitionId","type":"uint256"},{"internalType":"enum ILoanMachine.ContractStatus","name":"status","type":"uint8"},{"internalType":"uint32","name":"parcelsPending","type":"uint32"}],"internalType":"struct ILoanMachine.LoanContract","name":"","type":"tuple"}],"stateMutability":"view","type":"function"},{"inputs":[{"internalType":"uint256","name":"requisitionId","type":"uint256"}],"name":"getRequisitionInfo","outputs":[{"components":[{"internalType":"uint256","name":"requisitionId","type":"uint256"},{"internalType":"address","name":"borrower","type":"address"},{"internalType":"uint256","name":"amount","type":"uint256"},{"internalType":"uint32","name":"minimumCoverage","type":"uint32"},{"internalType":"uint32","name":"currentCoverage","type":"uint32"},{"internalType":"enum ILoanMachine.BorrowStatus","name":"status","type":"uint8"},{"internalType":"uint256","name":"durationDays","type":"uint256"},{"internalType":"uint256","name":"creationTime","type":"uint256"},{"internalType":"address[]","name":"coveringLenders","type":"address[]"},{"internalType":"uint32","name":"parcelsCount","type":"uint32"}],"internalType":"struct ILoanMachine.RequisitionInfo","name":"","type":"tuple"}],"stateMutability":"view","type":"function"},{"inputs":[],"name":"getTotalBorrowed","outputs":[{"internalType":"uint256","name":"","type":"uint256"}],"stateMutability":"view","type":"function"},{"inputs":[],"name":"getTotalDonations","outputs":[{"internalType":"uint256","name":"","type":"uint256"}],"stateMutability":"view","type":"function"},{"inputs":[{"internalType":"uint256","name":"","type":"uint256"}],"name":"loanContracts","outputs":[{"internalType":"address","name":"walletAddress","type":"address"},{"internalType":"uint256","name":"requisitionId","type":"uint256"},{"internalType":"enum ILoanMachine.ContractStatus","name":"status","type":"uint8"},{"internalType":"uint32","name":"parcelsPending","type":"uint32"}],"stateMutability":"view","type":"function"},{"inputs":[],"name":"repay","outputs":[],"stateMutability":"payable","type":"function"},{"inputs":[],"name":"requisitionCounter","outputs":[{"internalType":"uint256","name":"","type":"uint256"}],"stateMutability":"view","type":"function"}],"evm":{"bytecode":{"linkReferences":{},"object":"608060405234801561001057600080fd5b5060016000556118a6806100256000396000f3fe6080604052600436106101355760003560e01c8063777c658f116100ab57806397c335191161006f57806397c33519146103815780639e932011146103b1578063a648bf75146103d1578063be5eb580146103f1578063c5ebeaec14610427578063ed88c68e1461044757600080fd5b8063777c658f146102fc578063809dab6a1461021357806384ddf5ea146103115780638a914a63146103275780639730872a1461035457600080fd5b8063383ab2ef116100fd578063383ab2ef14610228578063402d888314610255578063410a1d321461025d5780634e51c7df14610293578063657eb031146102b35780636f9fb98a146102e957600080fd5b80630307c4a11461013a5780631b70ba3e1461015e578063232869fa1461018b5780632485a314146101f1578063291c31a714610213575b600080fd5b34801561014657600080fd5b506005545b6040519081526020015b60405180910390f35b34801561016a57600080fd5b5061017e610179366004611432565b61044f565b60405161015591906114b9565b34801561019757600080fd5b506101e16101a6366004611432565b600b602052600090815260409020805460018201546002909201546001600160a01b03909116919060ff811690610100900463ffffffff1684565b6040516101559493929190611585565b3480156101fd57600080fd5b5061021161020c3660046115d7565b6105b3565b005b34801561021f57600080fd5b5060065461014b565b34801561023457600080fd5b50610248610243366004611432565b610883565b6040516101559190611603565b610211610929565b34801561026957600080fd5b5061014b61027836600461165d565b6001600160a01b031660009081526001602052604090205490565b34801561029f57600080fd5b5061014b6102ae366004611678565b610a8d565b3480156102bf57600080fd5b5061014b6102ce36600461165d565b6001600160a01b031660009081526003602052604090205490565b3480156102f557600080fd5b504761014b565b34801561030857600080fd5b5060045461014b565b34801561031d57600080fd5b5061014b600a5481565b34801561033357600080fd5b50610347610342366004611432565b610ab9565b604051610155919061169b565b34801561036057600080fd5b5061037461036f36600461165d565b610b28565b60405161015591906116e8565b34801561038d57600080fd5b506103a161039c366004611720565b610b93565b6040519015158152602001610155565b3480156103bd57600080fd5b5061014b6103cc366004611720565b610c4b565b3480156103dd57600080fd5b5061014b6103ec36600461174a565b610c7c565b3480156103fd57600080fd5b5061014b61040c36600461165d565b6001600160a01b031660009081526002602052604090205490565b34801561043357600080fd5b50610211610442366004611432565b610e09565b610211611044565b604080516101408101825260008082526020820181905291810182905260608082018390526080820183905260a0820183905260c0820183905260e082018390526101008201526101208101919091526000828152600760209081526040918290208251610140810184528154815260018201546001600160a01b031692810192909252600281015492820192909252600382015463ffffffff8082166060840152640100000000820416608083015260a0820190600160401b900460ff16600581111561051f5761051f61144b565b815260200182600401548152602001826005015481526020018260060180548060200260200160405190810160405280929190818152602001828054801561059057602002820191906000526020600020905b81546001600160a01b03168152600190910190602001808311610572575b505050918352505060089092015463ffffffff1660209092019190915292915050565b8063ffffffff811615806105cd575060648163ffffffff16115b156105eb5760405163d1e95ed560e01b815260040160405180910390fd5b6105f3611177565b6000838152600760205260408120906003820154600160401b900460ff1660058111156106225761062261144b565b14158015610650575060016003820154600160401b900460ff16600581111561064d5761064d61144b565b14155b1561066e576040516380b9cb0960e01b815260040160405180910390fd5b60038101546064906106919063ffffffff808716916401000000009004166117a6565b11156106b05760405163955f95ad60e01b815260040160405180910390fd5b600060648463ffffffff1683600201546106ca91906117b9565b6106d491906117d0565b3360009081526001602052604090205490915081111561070757604051630391acf160e61b815260040160405180910390fd5b3360009081526001602090815260408083208054859003905560099091529020805482019055600382018054859190600490610752908490640100000000900463ffffffff166117f2565b825463ffffffff9182166101009390930a92830291909202199091161790555033600090815260078301602052604081205490036107b257600682018054600181018255600091825260209091200180546001600160a01b031916331790555b336000908152600783016020526040812080548392906107d39084906117a6565b9091555050600382015463ffffffff80821664010000000090920416106108255760038201805460ff60401b191668020000000000000000179055610817856111d4565b61082085611293565b61083b565b60038201805460ff60401b1916600160401b1790555b604051818152339086907f86b47e6e6c03d769c0bc5ffd06c682ea7d07089576d59230ec18ff64e71bffe79060200160405180910390a3505061087e6001600055565b505050565b6040805160808101825260008082526020820181905291810182905260608101919091526000828152600b60209081526040808320815160808101835281546001600160a01b03168152600182015493810193909352600280820154919284019160ff16908111156108f7576108f761144b565b60028111156109085761090861144b565b815260029190910154610100900463ffffffff166020909101529392505050565b348060000361094b5760405163162908e360e11b815260040160405180910390fd5b610953611177565b33600090815260026020526040812054900361098257604051630b5ab5bf60e41b815260040160405180910390fd5b336000908152600260205260409020543411156109b25760405163f9ea8d3560e01b815260040160405180910390fd5b33600081815260026020526040908190208054349081900382556005805482900390556006805482019055905491517f1b8cd61ed43bec7c6bdad3a18ffee613f99c853d16c50678d248d879e1b4343892610a14928252602082015260400190565b60405180910390a27f17f13fd3f7c4712af33f1770ebcb822dd20a2dbc00850eab48d786623d97b959600554604051610a4f91815260200190565b60405180910390a1600080516020611851833981519152600654604051610a7891815260200190565b60405180910390a1610a8a6001600055565b50565b60008281526007602081815260408084206001600160a01b038616855290920190529020545b92915050565b600081815260076020908152604091829020600601805483518184028101840190945280845260609392830182828015610b1c57602002820191906000526020600020905b81546001600160a01b03168152600190910190602001808311610afe575b50505050509050919050565b6001600160a01b038116600090815260086020908152604091829020805483518184028101840190945280845260609392830182828015610b1c57602002820191906000526020600020905b815481526020019060010190808311610b745750505050509050919050565b60008082118015610ba657506006548211155b8015610bf257506001600160a01b03831660009081526001602052604090205467016345785d8a0000111580610bf257506001600160a01b038316600090815260026020526040902054155b8015610c4457506001600160a01b0383166000908152600360205260409020544290610c229062093a80906117a6565b1080610c4457506001600160a01b038316600090815260026020526040902054155b9392505050565b60086020528160005260406000208181548110610c6757600080fd5b90600052602060002001600091509150505481565b60008480600003610ca05760405163162908e360e11b815260040160405180910390fd5b8463ffffffff16604681111580610cb75750606481115b15610cd55760405163d1e95ed560e01b815260040160405180910390fd5b600654871115610cf85760405163356680b760e01b815260040160405180910390fd5b600a805460009182610d0983611816565b9091555060008181526007602052604081206001810180546001600160a01b03191633179055600281018b905560038101805467ffffffffffffffff19811663ffffffff8d1690811783559495509193909168ffffffffffffffffff191617600160401b830217905550600481018790554260058201556008808201805463ffffffff191663ffffffff89169081179091558383553360008181526020938452604080822080546001810182559083529185902090910186905580518d8152938401929092529184917fde3b47cf7da95a3cc41b86cf8717ead8d56a76ee1590481c5c4dc4d8804c40c4910160405180910390a350979650505050505050565b8080600003610e2b5760405163162908e360e11b815260040160405180910390fd5b81600654811115610e4f5760405163356680b760e01b815260040160405180910390fd5b3360009081526001602052604090205467016345785d8a0000118015610e8357503360009081526002602052604090205415155b15610ea15760405163b4ff2ab760e01b815260040160405180910390fd5b336000908152600360205260409020544290610ec19062093a80906117a6565b10158015610edd57503360009081526002602052604090205415155b15610efb5760405163c6061c8560e01b815260040160405180910390fd5b610f03611177565b33600081815260026020818152604080842080548981018255600580548b019055600680548b9003905560038452948290204290559282529154825188815291820152911592917feae9cfbc77fdd40ca899f36b608256063b2bc9d8178b0220f7ad513e178d6730910160405180910390a27f17f13fd3f7c4712af33f1770ebcb822dd20a2dbc00850eab48d786623d97b959600554604051610fa891815260200190565b60405180910390a1600080516020611851833981519152600654604051610fd191815260200190565b60405180910390a1801561100b5760405133907fdd6d577a01057a7ca4e715ae2c9f196a0a25d8e9d1ddd9376047869ce6fe56c790600090a25b604051339085156108fc029086906000818181858888f19350505050158015611038573d6000803e3d6000fd5b505061087e6001600055565b34806000036110665760405163162908e360e11b815260040160405180910390fd5b61106e611177565b336000818152600160209081526040918290208054348082018355600480548201905560068054820190559154845192835292820192909252901592917f4928895ba6723e8e27b15f32e4c3054a1b6c7f8c03f133558d6fa42b3928d14c910160405180910390a27fdc6e73d4b36e22ab95945bd8833a5af96c950eb29d8d75c4aecffc987637aaab60045460405161110991815260200190565b60405180910390a160008051602061185183398151915260065460405161113291815260200190565b60405180910390a1801561116c5760405133907f072dafb6aabe3f02118bc607efbeaaa104d6b2009720c7b130f24ba418689c4b90600090a25b50610a8a6001600055565b6002600054036111cd5760405162461bcd60e51b815260206004820152601f60248201527f5265656e7472616e637947756172643a207265656e7472616e742063616c6c00604482015260640160405180910390fd5b6002600055565b6000818152600b6020908152604080832060079092529182902060018082015483546001600160a01b039091166001600160a01b03199091168117845590830185905560028301805460ff198116825560089093015464ffffffffff1990931661010063ffffffff94851681029182179283905595519495879593947fe035d0a104843967681841b75ffe85277731c7bd0b784a08c766ce7503deb335946112879460ff9094169392909204169061182f565b60405180910390a35050565b6000818152600760209081526040808320600280820180546001840180546001600160a01b03908116895293875285882080549092019091558154600580549091019055815460068054919091039055805483168752600395869052848720429055948301805460ff60401b191668030000000000000000179055935493549251919493169282156108fc02929190818181858888f1935050505015801561133f573d6000803e3d6000fd5b5060018101546002808301546001600160a01b039092166000818152602092835260409081902054815194855292840192909252917feae9cfbc77fdd40ca899f36b608256063b2bc9d8178b0220f7ad513e178d6730910160405180910390a27f17f13fd3f7c4712af33f1770ebcb822dd20a2dbc00850eab48d786623d97b9596005546040516113d291815260200190565b60405180910390a16000805160206118518339815191526006546040516113fb91815260200190565b60405180910390a160405182907f9e71d2fb732e68272b7e74ecfd14638673c1d77e19a5d390a3ffff054d57c44b90600090a25050565b60006020828403121561144457600080fd5b5035919050565b634e487b7160e01b600052602160045260246000fd5b600681106114715761147161144b565b9052565b600081518084526020808501945080840160005b838110156114ae5781516001600160a01b031687529582019590820190600101611489565b509495945050505050565b6020815281516020820152600060208301516114e060408401826001600160a01b03169052565b50604083015160608301526060830151611502608084018263ffffffff169052565b50608083015163ffffffff811660a08401525060a083015161152760c0840182611461565b5060c083015160e083015260e0830151610100818185015280850151915050610140610120818186015261155f610160860184611475565b95015163ffffffff169301929092525090919050565b600381106114715761147161144b565b6001600160a01b038516815260208101849052608081016115a96040830185611575565b63ffffffff8316606083015295945050505050565b803563ffffffff811681146115d257600080fd5b919050565b600080604083850312156115ea57600080fd5b823591506115fa602084016115be565b90509250929050565b81516001600160a01b0316815260208083015190820152604080830151608083019161163190840182611575565b5060609283015163ffffffff16919092015290565b80356001600160a01b03811681146115d257600080fd5b60006020828403121561166f57600080fd5b610c4482611646565b6000806040838503121561168b57600080fd5b823591506115fa60208401611646565b6020808252825182820181905260009190848201906040850190845b818110156116dc5783516001600160a01b0316835292840192918401916001016116b7565b50909695505050505050565b6020808252825182820181905260009190848201906040850190845b818110156116dc57835183529284019291840191600101611704565b6000806040838503121561173357600080fd5b61173c83611646565b946020939093013593505050565b6000806000806080858703121561176057600080fd5b84359350611770602086016115be565b925060408501359150611785606086016115be565b905092959194509250565b634e487b7160e01b600052601160045260246000fd5b80820180821115610ab357610ab3611790565b8082028115828204841417610ab357610ab3611790565b6000826117ed57634e487b7160e01b600052601260045260246000fd5b500490565b63ffffffff81811683821601908082111561180f5761180f611790565b5092915050565b60006001820161182857611828611790565b5060010190565b6040810161183d8285611575565b63ffffffff83166020830152939250505056fe8b094cca6f83d49402ce208cc0c224b76625ffc58636df56ae28024e704c5868a2646970667358221220d85122c8faf93781e617d6972ca2dd8c4859321522dd05bffc91a6eecc05d65a64736f6c63430008130033","opcodes":"PUSH1 0x80 PUSH1 0x40 MSTORE CALLVALUE DUP1 ISZERO PUSH2 0x10 JUMPI PUSH1 0x0 DUP1 REVERT JUMPDEST POP PUSH1 0x1 PUSH1 0x0 SSTORE PUSH2 0x18A6 DUP1 PUSH2 0x25 PUSH1 0x0 CODECOPY PUSH1 0x0 RETURN INVALID PUSH1 0x80 PUSH1 0x40 MSTORE PUSH1 0x4 CALLDATASIZE LT PUSH2 0x135 JUMPI PUSH1 0x0 CALLDATALOAD PUSH1 0xE0 SHR DUP1 PUSH4 0x777C658F GT PUSH2 0xAB JUMPI DUP1 PUSH4 0x97C33519 GT PUSH2 0x6F JUMPI DUP1 PUSH4 0x97C33519 EQ PUSH2 0x381 JUMPI DUP1 PUSH4 0x9E932011 EQ PUSH2 0x3B1 JUMPI DUP1 PUSH4 0xA648BF75 EQ PUSH2 0x3D1 JUMPI DUP1 PUSH4 0xBE5EB580 EQ PUSH2 0x3F1 JUMPI DUP1 PUSH4 0xC5EBEAEC EQ PUSH2 0x427 JUMPI DUP1 PUSH4 0xED88C68E EQ PUSH2 0x447 JUMPI PUSH1 0x0 DUP1 REVERT JUMPDEST DUP1 PUSH4 0x777C658F EQ PUSH2 0x2FC JUMPI DUP1 PUSH4 0x809DAB6A EQ PUSH2 0x213 JUMPI DUP1 PUSH4 0x84DDF5EA EQ PUSH2 0x311 JUMPI DUP1 PUSH4 0x8A914A63 EQ PUSH2 0x327 JUMPI DUP1 PUSH4 0x9730872A EQ PUSH2 0x354 JUMPI PUSH1 0x0 DUP1 REVERT JUMPDEST DUP1 PUSH4 0x383AB2EF GT PUSH2 0xFD JUMPI DUP1 PUSH4 0x383AB2EF EQ PUSH2 0x228 JUMPI DUP1 PUSH4 0x402D8883 EQ PUSH2 0x255 JUMPI DUP1 PUSH4 0x410A1D32 EQ PUSH2 0x25D JUMPI DUP1 PUSH4 0x4E51C7DF EQ PUSH2 0x293 JUMPI DUP1 PUSH4 0x657EB031 EQ PUSH2 0x2B3 JUMPI DUP1 PUSH4 0x6F9FB98A EQ PUSH2 0x2E9 JUMPI PUSH1 0x0 DUP1 REVERT JUMPDEST DUP1 PUSH4 0x307C4A1 EQ PUSH2 0x13A JUMPI DUP1 PUSH4 0x1B70BA3E EQ PUSH2 0x15E JUMPI DUP1 PUSH4 0x232869FA EQ PUSH2 0x18B JUMPI DUP1 PUSH4 0x2485A314 EQ PUSH2 0x1F1 JUMPI DUP1 PUSH4 0x291C31A7 EQ PUSH2 0x213 JUMPI JUMPDEST PUSH1 0x0 DUP1 REVERT JUMPDEST CALLVALUE DUP1 ISZERO PUSH2 0x146 JUMPI PUSH1 0x0 DUP1 REVERT JUMPDEST POP PUSH1 0x5 SLOAD JUMPDEST PUSH1 0x40 MLOAD SWAP1 DUP2 MSTORE PUSH1 0x20 ADD JUMPDEST PUSH1 0x40 MLOAD DUP1 SWAP2 SUB SWAP1 RETURN JUMPDEST CALLVALUE DUP1 ISZERO PUSH2 0x16A JUMPI PUSH1 0x0 DUP1 REVERT JUMPDEST POP PUSH2 0x17E PUSH2 0x179 CALLDATASIZE PUSH1 0x4 PUSH2 0x1432 JUMP JUMPDEST PUSH2 0x44F JUMP JUMPDEST PUSH1 0x40 MLOAD PUSH2 0x155 SWAP2 SWAP1 PUSH2 0x14B9 JUMP JUMPDEST CALLVALUE DUP1 ISZERO PUSH2 0x197 JUMPI PUSH1 0x0 DUP1 REVERT JUMPDEST POP PUSH2 0x1E1 PUSH2 0x1A6 CALLDATASIZE PUSH1 0x4 PUSH2 0x1432 JUMP JUMPDEST PUSH1 0xB PUSH1 0x20 MSTORE PUSH1 0x0 SWAP1 DUP2 MSTORE PUSH1 0x40 SWAP1 KECCAK256 DUP1 SLOAD PUSH1 0x1 DUP3 ADD SLOAD PUSH1 0x2 SWAP1 SWAP3 ADD SLOAD PUSH1 0x1 PUSH1 0x1 PUSH1 0xA0 SHL SUB SWAP1 SWAP2 AND SWAP2 SWAP1 PUSH1 0xFF DUP2 AND SWAP1 PUSH2 0x100 SWAP1 DIV PUSH4 0xFFFFFFFF AND DUP5 JUMP JUMPDEST PUSH1 0x40 MLOAD PUSH2 0x155 SWAP5 SWAP4 SWAP3 SWAP2 SWAP1 PUSH2 0x1585 JUMP JUMPDEST CALLVALUE DUP1 ISZERO PUSH2 0x1FD JUMPI PUSH1 0x0 DUP1 REVERT JUMPDEST POP PUSH2 0x211 PUSH2 0x20C CALLDATASIZE PUSH1 0x4 PUSH2 0x15D7 JUMP JUMPDEST PUSH2 0x5B3 JUMP JUMPDEST STOP JUMPDEST CALLVALUE DUP1 ISZERO PUSH2 0x21F JUMPI PUSH1 0x0 DUP1 REVERT JUMPDEST POP PUSH1 0x6 SLOAD PUSH2 0x14B JUMP JUMPDEST CALLVALUE DUP1 ISZERO PUSH2 0x234 JUMPI PUSH1 0x0 DUP1 REVERT JUMPDEST POP PUSH2 0x248 PUSH2 0x243 CALLDATASIZE PUSH1 0x4 PUSH2 0x1432 JUMP JUMPDEST PUSH2 0x883 JUMP JUMPDEST PUSH1 0x40 MLOAD PUSH2 0x155 SWAP2 SWAP1 PUSH2 0x1603 JUMP JUMPDEST PUSH2 0x211 PUSH2 0x929 JUMP JUMPDEST CALLVALUE DUP1 ISZERO PUSH2 0x269 JUMPI PUSH1 0x0 DUP1 REVERT JUMPDEST POP PUSH2 0x14B PUSH2 0x278 CALLDATASIZE PUSH1 0x4 PUSH2 0x165D JUMP JUMPDEST PUSH1 0x1 PUSH1 0x1 PUSH1 0xA0 SHL SUB AND PUSH1 0x0 SWAP1 DUP2 MSTORE PUSH1 0x1 PUSH1 0x20 MSTORE PUSH1 0x40 SWAP1 KECCAK256 SLOAD SWAP1 JUMP JUMPDEST CALLVALUE DUP1 ISZERO PUSH2 0x29F JUMPI PUSH1 0x0 DUP1 REVERT JUMPDEST POP PUSH2 0x14B PUSH2 0x2AE CALLDATASIZE PUSH1 0x4 PUSH2 0x1678 JUMP JUMPDEST PUSH2 0xA8D JUMP JUMPDEST CALLVALUE DUP1 ISZERO PUSH2 0x2BF JUMPI PUSH1 0x0 DUP1 REVERT JUMPDEST POP PUSH2 0x14B PUSH2 0x2CE CALLDATASIZE PUSH1 0x4 PUSH2 0x165D JUMP JUMPDEST PUSH1 0x1 PUSH1 0x1 PUSH1 0xA0 SHL SUB AND PUSH1 0x0 SWAP1 DUP2 MSTORE PUSH1 0x3 PUSH1 0x20 MSTORE PUSH1 0x40 SWAP1 KECCAK256 SLOAD SWAP1 JUMP JUMPDEST CALLVALUE DUP1 ISZERO PUSH2 0x2F5 JUMPI PUSH1 0x0 DUP1 REVERT JUMPDEST POP SELFBALANCE PUSH2 0x14B JUMP JUMPDEST CALLVALUE DUP1 ISZERO PUSH2 0x308 JUMPI PUSH1 0x0 DUP1 REVERT JUMPDEST POP PUSH1 0x4 SLOAD PUSH2 0x14B JUMP JUMPDEST CALLVALUE DUP1 ISZERO PUSH2 0x31D JUMPI PUSH1 0x0 DUP1 REVERT JUMPDEST POP PUSH2 0x14B PUSH1 0xA SLOAD DUP2 JUMP JUMPDEST CALLVALUE DUP1 ISZERO PUSH2 0x333 JUMPI PUSH1 0x0 DUP1 REVERT JUMPDEST POP PUSH2 0x347 PUSH2 0x342 CALLDATASIZE PUSH1 0x4 PUSH2 0x1432 JUMP JUMPDEST PUSH2 0xAB9 JUMP JUMPDEST PUSH1 0x40 MLOAD PUSH2 0x155 SWAP2 SWAP1 PUSH2 0x169B JUMP JUMPDEST CALLVALUE DUP1 ISZERO PUSH2 0x360 JUMPI PUSH1 0x0 DUP1 REVERT JUMPDEST POP PUSH2 0x374 PUSH2 0x36F CALLDATASIZE PUSH1 0x4 PUSH2 0x165D JUMP JUMPDEST PUSH2 0xB28 JUMP JUMPDEST PUSH1 0x40 MLOAD PUSH2 0x155 SWAP2 SWAP1 PUSH2 0x16E8 JUMP JUMPDEST CALLVALUE DUP1 ISZERO PUSH2 0x38D JUMPI PUSH1 0x0 DUP1 REVERT JUMPDEST POP PUSH2 0x3A1 PUSH2 0x39C CALLDATASIZE PUSH1 0x4 PUSH2 0x1720 JUMP JUMPDEST PUSH2 0xB93 JUMP JUMPDEST PUSH1 0x40 MLOAD SWAP1 ISZERO ISZERO DUP2 MSTORE PUSH1 0x20 ADD PUSH2 0x155 JUMP JUMPDEST CALLVALUE DUP1 ISZERO PUSH2 0x3BD JUMPI PUSH1 0x0 DUP1 REVERT JUMPDEST POP PUSH2 0x14B PUSH2 0x3CC CALLDATASIZE PUSH1 0x4 PUSH2 0x1720 JUMP JUMPDEST PUSH2 0xC4B JUMP JUMPDEST CALLVALUE DUP1 ISZERO PUSH2 0x3DD JUMPI PUSH1 0x0 DUP1 REVERT JUMPDEST POP PUSH2 0x14B PUSH2 0x3EC CALLDATASIZE PUSH1 0x4 PUSH2 0x174A JUMP JUMPDEST PUSH2 0xC7C JUMP JUMPDEST CALLVALUE DUP1 ISZERO PUSH2 0x3FD JUMPI PUSH1 0x0 DUP1 REVERT JUMPDEST POP PUSH2 0x14B PUSH2 0x40C CALLDATASIZE PUSH1 0x4 PUSH2 0x165D JUMP JUMPDEST PUSH1 0x1 PUSH1 0x1 PUSH1 0xA0 SHL SUB AND PUSH1 0x0 SWAP1 DUP2 MSTORE PUSH1 0x2 PUSH1 0x20 MSTORE PUSH1 0x40 SWAP1 KECCAK256 SLOAD SWAP1 JUMP JUMPDEST CALLVALUE DUP1 ISZERO PUSH2 0x433 JUMPI PUSH1 0x0 DUP1 REVERT JUMPDEST POP PUSH2 0x211 PUSH2 0x442 CALLDATASIZE PUSH1 0x4 PUSH2 0x1432 JUMP JUMPDEST PUSH2 0xE09 JUMP JUMPDEST PUSH2 0x211 PUSH2 0x1044 JUMP JUMPDEST PUSH1 0x40 DUP1 MLOAD PUSH2 0x140 DUP2 ADD DUP3 MSTORE PUSH1 0x0 DUP1 DUP3 MSTORE PUSH1 0x20 DUP3 ADD DUP2 SWAP1 MSTORE SWAP2 DUP2 ADD DUP3 SWAP1 MSTORE PUSH1 0x60 DUP1 DUP3 ADD DUP4 SWAP1 MSTORE PUSH1 0x80 DUP3 ADD DUP4 SWAP1 MSTORE PUSH1 0xA0 DUP3 ADD DUP4 SWAP1 MSTORE PUSH1 0xC0 DUP3 ADD DUP4 SWAP1 MSTORE PUSH1 0xE0 DUP3 ADD DUP4 SWAP1 MSTORE PUSH2 0x100 DUP3 ADD MSTORE PUSH2 0x120 DUP2 ADD SWAP2 SWAP1 SWAP2 MSTORE PUSH1 0x0 DUP3 DUP2 MSTORE PUSH1 0x7 PUSH1 0x20 SWAP1 DUP2 MSTORE PUSH1 0x40 SWAP2 DUP3 SWAP1 KECCAK256 DUP3 MLOAD PUSH2 0x140 DUP2 ADD DUP5 MSTORE DUP2 SLOAD DUP2 MSTORE PUSH1 0x1 DUP3 ADD SLOAD PUSH1 0x1 PUSH1 0x1 PUSH1 0xA0 SHL SUB AND SWAP3 DUP2 ADD SWAP3 SWAP1 SWAP3 MSTORE PUSH1 0x2 DUP2 ADD SLOAD SWAP3 DUP3 ADD SWAP3 SWAP1 SWAP3 MSTORE PUSH1 0x3 DUP3 ADD SLOAD PUSH4 0xFFFFFFFF DUP1 DUP3 AND PUSH1 0x60 DUP5 ADD MSTORE PUSH5 0x100000000 DUP3 DIV AND PUSH1 0x80 DUP4 ADD MSTORE PUSH1 0xA0 DUP3 ADD SWAP1 PUSH1 0x1 PUSH1 0x40 SHL SWAP1 DIV PUSH1 0xFF AND PUSH1 0x5 DUP2 GT ISZERO PUSH2 0x51F JUMPI PUSH2 0x51F PUSH2 0x144B JUMP JUMPDEST DUP2 MSTORE PUSH1 0x20 ADD DUP3 PUSH1 0x4 ADD SLOAD DUP2 MSTORE PUSH1 0x20 ADD DUP3 PUSH1 0x5 ADD SLOAD DUP2 MSTORE PUSH1 0x20 ADD DUP3 PUSH1 0x6 ADD DUP1 SLOAD DUP1 PUSH1 0x20 MUL PUSH1 0x20 ADD PUSH1 0x40 MLOAD SWAP1 DUP2 ADD PUSH1 0x40 MSTORE DUP1 SWAP3 SWAP2 SWAP1 DUP2 DUP2 MSTORE PUSH1 0x20 ADD DUP3 DUP1 SLOAD DUP1 ISZERO PUSH2 0x590 JUMPI PUSH1 0x20 MUL DUP3 ADD SWAP2 SWAP1 PUSH1 0x0 MSTORE PUSH1 0x20 PUSH1 0x0 KECCAK256 SWAP1 JUMPDEST DUP2 SLOAD PUSH1 0x1 PUSH1 0x1 PUSH1 0xA0 SHL SUB AND DUP2 MSTORE PUSH1 0x1 SWAP1 SWAP2 ADD SWAP1 PUSH1 0x20 ADD DUP1 DUP4 GT PUSH2 0x572 JUMPI JUMPDEST POP POP POP SWAP2 DUP4 MSTORE POP POP PUSH1 0x8 SWAP1 SWAP3 ADD SLOAD PUSH4 0xFFFFFFFF AND PUSH1 0x20 SWAP1 SWAP3 ADD SWAP2 SWAP1 SWAP2 MSTORE SWAP3 SWAP2 POP POP JUMP JUMPDEST DUP1 PUSH4 0xFFFFFFFF DUP2 AND ISZERO DUP1 PUSH2 0x5CD JUMPI POP PUSH1 0x64 DUP2 PUSH4 0xFFFFFFFF AND GT JUMPDEST ISZERO PUSH2 0x5EB JUMPI PUSH1 0x40 MLOAD PUSH4 0xD1E95ED5 PUSH1 0xE0 SHL DUP2 MSTORE PUSH1 0x4 ADD PUSH1 0x40 MLOAD DUP1 SWAP2 SUB SWAP1 REVERT JUMPDEST PUSH2 0x5F3 PUSH2 0x1177 JUMP JUMPDEST PUSH1 0x0 DUP4 DUP2 MSTORE PUSH1 0x7 PUSH1 0x20 MSTORE PUSH1 0x40 DUP2 KECCAK256 SWAP1 PUSH1 0x3 DUP3 ADD SLOAD PUSH1 0x1 PUSH1 0x40 SHL SWAP1 DIV PUSH1 0xFF AND PUSH1 0x5 DUP2 GT ISZERO PUSH2 0x622 JUMPI PUSH2 0x622 PUSH2 0x144B JUMP JUMPDEST EQ ISZERO DUP1 ISZERO PUSH2 0x650 JUMPI POP PUSH1 0x1 PUSH1 0x3 DUP3 ADD SLOAD PUSH1 0x1 PUSH1 0x40 SHL SWAP1 DIV PUSH1 0xFF AND PUSH1 0x5 DUP2 GT ISZERO PUSH2 0x64D JUMPI PUSH2 0x64D PUSH2 0x144B JUMP JUMPDEST EQ ISZERO JUMPDEST ISZERO PUSH2 0x66E JUMPI PUSH1 0x40 MLOAD PUSH4 0x80B9CB09 PUSH1 0xE0 SHL DUP2 MSTORE PUSH1 0x4 ADD PUSH1 0x40 MLOAD DUP1 SWAP2 SUB SWAP1 REVERT JUMPDEST PUSH1 0x3 DUP2 ADD SLOAD PUSH1 0x64 SWAP1 PUSH2 0x691 SWAP1 PUSH4 0xFFFFFFFF DUP1 DUP8 AND SWAP2 PUSH5 0x100000000 SWAP1 DIV AND PUSH2 0x17A6 JUMP JUMPDEST GT ISZERO PUSH2 0x6B0 JUMPI PUSH1 0x40 MLOAD PUSH4 0x955F95AD PUSH1 0xE0 SHL DUP2 MSTORE PUSH1 0x4 ADD PUSH1 0x40 MLOAD DUP1 SWAP2 SUB SWAP1 REVERT JUMPDEST PUSH1 0x0 PUSH1 0x64 DUP5 PUSH4 0xFFFFFFFF AND DUP4 PUSH1 0x2 ADD SLOAD PUSH2 0x6CA SWAP2 SWAP1 PUSH2 0x17B9 JUMP JUMPDEST PUSH2 0x6D4 SWAP2 SWAP1 PUSH2 0x17D0 JUMP JUMPDEST CALLER PUSH1 0x0 SWAP1 DUP2 MSTORE PUSH1 0x1 PUSH1 0x20 MSTORE PUSH1 0x40 SWAP1 KECCAK256 SLOAD SWAP1 SWAP2 POP DUP2 GT ISZERO PUSH2 0x707 JUMPI PUSH1 0x40 MLOAD PUSH4 0x391ACF1 PUSH1 0xE6 SHL DUP2 MSTORE PUSH1 0x4 ADD PUSH1 0x40 MLOAD DUP1 SWAP2 SUB SWAP1 REVERT JUMPDEST CALLER PUSH1 0x0 SWAP1 DUP2 MSTORE PUSH1 0x1 PUSH1 0x20 SWAP1 DUP2 MSTORE PUSH1 0x40 DUP1 DUP4 KECCAK256 DUP1 SLOAD DUP6 SWAP1 SUB SWAP1 SSTORE PUSH1 0x9 SWAP1 SWAP2 MSTORE SWAP1 KECCAK256 DUP1 SLOAD DUP3 ADD SWAP1 SSTORE PUSH1 0x3 DUP3 ADD DUP1 SLOAD DUP6 SWAP2 SWAP1 PUSH1 0x4 SWAP1 PUSH2 0x752 SWAP1 DUP5 SWAP1 PUSH5 0x100000000 SWAP1 DIV PUSH4 0xFFFFFFFF AND PUSH2 0x17F2 JUMP JUMPDEST DUP3 SLOAD PUSH4 0xFFFFFFFF SWAP2 DUP3 AND PUSH2 0x100 SWAP4 SWAP1 SWAP4 EXP SWAP3 DUP4 MUL SWAP2 SWAP1 SWAP3 MUL NOT SWAP1 SWAP2 AND OR SWAP1 SSTORE POP CALLER PUSH1 0x0 SWAP1 DUP2 MSTORE PUSH1 0x7 DUP4 ADD PUSH1 0x20 MSTORE PUSH1 0x40 DUP2 KECCAK256 SLOAD SWAP1 SUB PUSH2 0x7B2 JUMPI PUSH1 0x6 DUP3 ADD DUP1 SLOAD PUSH1 0x1 DUP2 ADD DUP3 SSTORE PUSH1 0x0 SWAP2 DUP3 MSTORE PUSH1 0x20 SWAP1 SWAP2 KECCAK256 ADD DUP1 SLOAD PUSH1 0x1 PUSH1 0x1 PUSH1 0xA0 SHL SUB NOT AND CALLER OR SWAP1 SSTORE JUMPDEST CALLER PUSH1 0x0 SWAP1 DUP2 MSTORE PUSH1 0x7 DUP4 ADD PUSH1 0x20 MSTORE PUSH1 0x40 DUP2 KECCAK256 DUP1 SLOAD DUP4 SWAP3 SWAP1 PUSH2 0x7D3 SWAP1 DUP5 SWAP1 PUSH2 0x17A6 JUMP JUMPDEST SWAP1 SWAP2 SSTORE POP POP PUSH1 0x3 DUP3 ADD SLOAD PUSH4 0xFFFFFFFF DUP1 DUP3 AND PUSH5 0x100000000 SWAP1 SWAP3 DIV AND LT PUSH2 0x825 JUMPI PUSH1 0x3 DUP3 ADD DUP1 SLOAD PUSH1 0xFF PUSH1 0x40 SHL NOT AND PUSH9 0x20000000000000000 OR SWAP1 SSTORE PUSH2 0x817 DUP6 PUSH2 0x11D4 JUMP JUMPDEST PUSH2 0x820 DUP6 PUSH2 0x1293 JUMP JUMPDEST PUSH2 0x83B JUMP JUMPDEST PUSH1 0x3 DUP3 ADD DUP1 SLOAD PUSH1 0xFF PUSH1 0x40 SHL NOT AND PUSH1 0x1 PUSH1 0x40 SHL OR SWAP1 SSTORE JUMPDEST PUSH1 0x40 MLOAD DUP2 DUP2 MSTORE CALLER SWAP1 DUP7 SWAP1 PUSH32 0x86B47E6E6C03D769C0BC5FFD06C682EA7D07089576D59230EC18FF64E71BFFE7 SWAP1 PUSH1 0x20 ADD PUSH1 0x40 MLOAD DUP1 SWAP2 SUB SWAP1 LOG3 POP POP PUSH2 0x87E PUSH1 0x1 PUSH1 0x0 SSTORE JUMP JUMPDEST POP POP POP JUMP JUMPDEST PUSH1 0x40 DUP1 MLOAD PUSH1 0x80 DUP2 ADD DUP3 MSTORE PUSH1 0x0 DUP1 DUP3 MSTORE PUSH1 0x20 DUP3 ADD DUP2 SWAP1 MSTORE SWAP2 DUP2 ADD DUP3 SWAP1 MSTORE PUSH1 0x60 DUP2 ADD SWAP2 SWAP1 SWAP2 MSTORE PUSH1 0x0 DUP3 DUP2 MSTORE PUSH1 0xB PUSH1 0x20 SWAP1 DUP2 MSTORE PUSH1 0x40 DUP1 DUP4 KECCAK256 DUP2 MLOAD PUSH1 0x80 DUP2 ADD DUP4 MSTORE DUP2 SLOAD PUSH1 0x1 PUSH1 0x1 PUSH1 0xA0 SHL SUB AND DUP2 MSTORE PUSH1 0x1 DUP3 ADD SLOAD SWAP4 DUP2 ADD SWAP4 SWAP1 SWAP4 MSTORE PUSH1 0x2 DUP1 DUP3 ADD SLOAD SWAP2 SWAP3 DUP5 ADD SWAP2 PUSH1 0xFF AND SWAP1 DUP2 GT ISZERO PUSH2 0x8F7 JUMPI PUSH2 0x8F7 PUSH2 0x144B JUMP JUMPDEST PUSH1 0x2 DUP2 GT ISZERO PUSH2 0x908 JUMPI PUSH2 0x908 PUSH2 0x144B JUMP JUMPDEST DUP2 MSTORE PUSH1 0x2 SWAP2 SWAP1 SWAP2 ADD SLOAD PUSH2 0x100 SWAP1 DIV PUSH4 0xFFFFFFFF AND PUSH1 0x20 SWAP1 SWAP2 ADD MSTORE SWAP4 SWAP3 POP POP POP JUMP JUMPDEST CALLVALUE DUP1 PUSH1 0x0 SUB PUSH2 0x94B JUMPI PUSH1 0x40 MLOAD PUSH4 0x162908E3 PUSH1 0xE1 SHL DUP2 MSTORE PUSH1 0x4 ADD PUSH1 0x40 MLOAD DUP1 SWAP2 SUB SWAP1 REVERT JUMPDEST PUSH2 0x953 PUSH2 0x1177 JUMP JUMPDEST CALLER PUSH1 0x0 SWAP1 DUP2 MSTORE PUSH1 0x2 PUSH1 0x20 MSTORE PUSH1 0x40 DUP2 KECCAK256 SLOAD SWAP1 SUB PUSH2 0x982 JUMPI PUSH1 0x40 MLOAD PUSH4 0xB5AB5BF PUSH1 0xE4 SHL DUP2 MSTORE PUSH1 0x4 ADD PUSH1 0x40 MLOAD DUP1 SWAP2 SUB SWAP1 REVERT JUMPDEST CALLER PUSH1 0x0 SWAP1 DUP2 MSTORE PUSH1 0x2 PUSH1 0x20 MSTORE PUSH1 0x40 SWAP1 KECCAK256 SLOAD CALLVALUE GT ISZERO PUSH2 0x9B2 JUMPI PUSH1 0x40 MLOAD PUSH4 0xF9EA8D35 PUSH1 0xE0 SHL DUP2 MSTORE PUSH1 0x4 ADD PUSH1 0x40 MLOAD DUP1 SWAP2 SUB SWAP1 REVERT JUMPDEST CALLER PUSH1 0x0 DUP2 DUP2 MSTORE PUSH1 0x2 PUSH1 0x20 MSTORE PUSH1 0x40 SWAP1 DUP2 SWAP1 KECCAK256 DUP1 SLOAD CALLVALUE SWAP1 DUP2 SWAP1 SUB DUP3 SSTORE PUSH1 0x5 DUP1 SLOAD DUP3 SWAP1 SUB SWAP1 SSTORE PUSH1 0x6 DUP1 SLOAD DUP3 ADD SWAP1 SSTORE SWAP1 SLOAD SWAP2 MLOAD PUSH32 0x1B8CD61ED43BEC7C6BDAD3A18FFEE613F99C853D16C50678D248D879E1B43438 SWAP3 PUSH2 0xA14 SWAP3 DUP3 MSTORE PUSH1 0x20 DUP3 ADD MSTORE PUSH1 0x40 ADD SWAP1 JUMP JUMPDEST PUSH1 0x40 MLOAD DUP1 SWAP2 SUB SWAP1 LOG2 PUSH32 0x17F13FD3F7C4712AF33F1770EBCB822DD20A2DBC00850EAB48D786623D97B959 PUSH1 0x5 SLOAD PUSH1 0x40 MLOAD PUSH2 0xA4F SWAP2 DUP2 MSTORE PUSH1 0x20 ADD SWAP1 JUMP JUMPDEST PUSH1 0x40 MLOAD DUP1 SWAP2 SUB SWAP1 LOG1 PUSH1 0x0 DUP1 MLOAD PUSH1 0x20 PUSH2 0x1851 DUP4 CODECOPY DUP2 MLOAD SWAP2 MSTORE PUSH1 0x6 SLOAD PUSH1 0x40 MLOAD PUSH2 0xA78 SWAP2 DUP2 MSTORE PUSH1 0x20 ADD SWAP1 JUMP JUMPDEST PUSH1 0x40 MLOAD DUP1 SWAP2 SUB SWAP1 LOG1 PUSH2 0xA8A PUSH1 0x1 PUSH1 0x0 SSTORE JUMP JUMPDEST POP JUMP JUMPDEST PUSH1 0x0 DUP3 DUP2 MSTORE PUSH1 0x7 PUSH1 0x20 DUP2 DUP2 MSTORE PUSH1 0x40 DUP1 DUP5 KECCAK256 PUSH1 0x1 PUSH1 0x1 PUSH1 0xA0 SHL SUB DUP7 AND DUP6 MSTORE SWAP1 SWAP3 ADD SWAP1 MSTORE SWAP1 KECCAK256 SLOAD JUMPDEST SWAP3 SWAP2 POP POP JUMP JUMPDEST PUSH1 0x0 DUP2 DUP2 MSTORE PUSH1 0x7 PUSH1 0x20 SWAP1 DUP2 MSTORE PUSH1 0x40 SWAP2 DUP3 SWAP1 KECCAK256 PUSH1 0x6 ADD DUP1 SLOAD DUP4 MLOAD DUP2 DUP5 MUL DUP2 ADD DUP5 ADD SWAP1 SWAP5 MSTORE DUP1 DUP5 MSTORE PUSH1 0x60 SWAP4 SWAP3 DUP4 ADD DUP3 DUP3 DUP1 ISZERO PUSH2 0xB1C JUMPI PUSH1 0x20 MUL DUP3 ADD SWAP2 SWAP1 PUSH1 0x0 MSTORE PUSH1 0x20 PUSH1 0x0 KECCAK256 SWAP1 JUMPDEST DUP2 SLOAD PUSH1 0x1 PUSH1 0x1 PUSH1 0xA0 SHL SUB AND DUP2 MSTORE PUSH1 0x1 SWAP1 SWAP2 ADD SWAP1 PUSH1 0x20 ADD DUP1 DUP4 GT PUSH2 0xAFE JUMPI JUMPDEST POP POP POP POP POP SWAP1 POP SWAP2 SWAP1 POP JUMP JUMPDEST PUSH1 0x1 PUSH1 0x1 PUSH1 0xA0 SHL SUB DUP2 AND PUSH1 0x0 SWAP1 DUP2 MSTORE PUSH1 0x8 PUSH1 0x20 SWAP1 DUP2 MSTORE PUSH1 0x40 SWAP2 DUP3 SWAP1 KECCAK256 DUP1 SLOAD DUP4 MLOAD DUP2 DUP5 MUL DUP2 ADD DUP5 ADD SWAP1 SWAP5 MSTORE DUP1 DUP5 MSTORE PUSH1 0x60 SWAP4 SWAP3 DUP4 ADD DUP3 DUP3 DUP1 ISZERO PUSH2 0xB1C JUMPI PUSH1 0x20 MUL DUP3 ADD SWAP2 SWAP1 PUSH1 0x0 MSTORE PUSH1 0x20 PUSH1 0x0 KECCAK256 SWAP1 JUMPDEST DUP2 SLOAD DUP2 MSTORE PUSH1 0x20 ADD SWAP1 PUSH1 0x1 ADD SWAP1 DUP1 DUP4 GT PUSH2 0xB74 JUMPI POP POP POP POP POP SWAP1 POP SWAP2 SWAP1 POP JUMP JUMPDEST PUSH1 0x0 DUP1 DUP3 GT DUP1 ISZERO PUSH2 0xBA6 JUMPI POP PUSH1 0x6 SLOAD DUP3 GT ISZERO JUMPDEST DUP1 ISZERO PUSH2 0xBF2 JUMPI POP PUSH1 0x1 PUSH1 0x1 PUSH1 0xA0 SHL SUB DUP4 AND PUSH1 0x0 SWAP1 DUP2 MSTORE PUSH1 0x1 PUSH1 0x20 MSTORE PUSH1 0x40 SWAP1 KECCAK256 SLOAD PUSH8 0x16345785D8A0000 GT ISZERO DUP1 PUSH2 0xBF2 JUMPI POP PUSH1 0x1 PUSH1 0x1 PUSH1 0xA0 SHL SUB DUP4 AND PUSH1 0x0 SWAP1 DUP2 MSTORE PUSH1 0x2 PUSH1 0x20 MSTORE PUSH1 0x40 SWAP1 KECCAK256 SLOAD ISZERO JUMPDEST DUP1 ISZERO PUSH2 0xC44 JUMPI POP PUSH1 0x1 PUSH1 0x1 PUSH1 0xA0 SHL SUB DUP4 AND PUSH1 0x0 SWAP1 DUP2 MSTORE PUSH1 0x3 PUSH1 0x20 MSTORE PUSH1 0x40 SWAP1 KECCAK256 SLOAD TIMESTAMP SWAP1 PUSH2 0xC22 SWAP1 PUSH3 0x93A80 SWAP1 PUSH2 0x17A6 JUMP JUMPDEST LT DUP1 PUSH2 0xC44 JUMPI POP PUSH1 0x1 PUSH1 0x1 PUSH1 0xA0 SHL SUB DUP4 AND PUSH1 0x0 SWAP1 DUP2 MSTORE PUSH1 0x2 PUSH1 0x20 MSTORE PUSH1 0x40 SWAP1 KECCAK256 SLOAD ISZERO JUMPDEST SWAP4 SWAP3 POP POP POP JUMP JUMPDEST PUSH1 0x8 PUSH1 0x20 MSTORE DUP2 PUSH1 0x0 MSTORE PUSH1 0x40 PUSH1 0x0 KECCAK256 DUP2 DUP2 SLOAD DUP2 LT PUSH2 0xC67 JUMPI PUSH1 0x0 DUP1 REVERT JUMPDEST SWAP1 PUSH1 0x0 MSTORE PUSH1 0x20 PUSH1 0x0 KECCAK256 ADD PUSH1 0x0 SWAP2 POP SWAP2 POP POP SLOAD DUP2 JUMP JUMPDEST PUSH1 0x0 DUP5 DUP1 PUSH1 0x0 SUB PUSH2 0xCA0 JUMPI PUSH1 0x40 MLOAD PUSH4 0x162908E3 PUSH1 0xE1 SHL DUP2 MSTORE PUSH1 0x4 ADD PUSH1 0x40 MLOAD DUP1 SWAP2 SUB SWAP1 REVERT JUMPDEST DUP5 PUSH4 0xFFFFFFFF AND PUSH1 0x46 DUP2 GT ISZERO DUP1 PUSH2 0xCB7 JUMPI POP PUSH1 0x64 DUP2 GT JUMPDEST ISZERO PUSH2 0xCD5 JUMPI PUSH1 0x40 MLOAD PUSH4 0xD1E95ED5 PUSH1 0xE0 SHL DUP2 MSTORE PUSH1 0x4 ADD PUSH1 0x40 MLOAD DUP1 SWAP2 SUB SWAP1 REVERT JUMPDEST PUSH1 0x6 SLOAD DUP8 GT ISZERO PUSH2 0xCF8 JUMPI PUSH1 0x40 MLOAD PUSH4 0x356680B7 PUSH1 0xE0 SHL DUP2 MSTORE PUSH1 0x4 ADD PUSH1 0x40 MLOAD DUP1 SWAP2 SUB SWAP1 REVERT JUMPDEST PUSH1 0xA DUP1 SLOAD PUSH1 0x0 SWAP2 DUP3 PUSH2 0xD09 DUP4 PUSH2 0x1816 JUMP JUMPDEST SWAP1 SWAP2 SSTORE POP PUSH1 0x0 DUP2 DUP2 MSTORE PUSH1 0x7 PUSH1 0x20 MSTORE PUSH1 0x40 DUP2 KECCAK256 PUSH1 0x1 DUP2 ADD DUP1 SLOAD PUSH1 0x1 PUSH1 0x1 PUSH1 0xA0 SHL SUB NOT AND CALLER OR SWAP1 SSTORE PUSH1 0x2 DUP2 ADD DUP12 SWAP1 SSTORE PUSH1 0x3 DUP2 ADD DUP1 SLOAD PUSH8 0xFFFFFFFFFFFFFFFF NOT DUP2 AND PUSH4 0xFFFFFFFF DUP14 AND SWAP1 DUP2 OR DUP4 SSTORE SWAP5 SWAP6 POP SWAP2 SWAP4 SWAP1 SWAP2 PUSH9 0xFFFFFFFFFFFFFFFFFF NOT AND OR PUSH1 0x1 PUSH1 0x40 SHL DUP4 MUL OR SWAP1 SSTORE POP PUSH1 0x4 DUP2 ADD DUP8 SWAP1 SSTORE TIMESTAMP PUSH1 0x5 DUP3 ADD SSTORE PUSH1 0x8 DUP1 DUP3 ADD DUP1 SLOAD PUSH4 0xFFFFFFFF NOT AND PUSH4 0xFFFFFFFF DUP10 AND SWAP1 DUP2 OR SWAP1 SWAP2 SSTORE DUP4 DUP4 SSTORE CALLER PUSH1 0x0 DUP2 DUP2 MSTORE PUSH1 0x20 SWAP4 DUP5 MSTORE PUSH1 0x40 DUP1 DUP3 KECCAK256 DUP1 SLOAD PUSH1 0x1 DUP2 ADD DUP3 SSTORE SWAP1 DUP4 MSTORE SWAP2 DUP6 SWAP1 KECCAK256 SWAP1 SWAP2 ADD DUP7 SWAP1 SSTORE DUP1 MLOAD DUP14 DUP2 MSTORE SWAP4 DUP5 ADD SWAP3 SWAP1 SWAP3 MSTORE SWAP2 DUP5 SWAP2 PUSH32 0xDE3B47CF7DA95A3CC41B86CF8717EAD8D56A76EE1590481C5C4DC4D8804C40C4 SWAP2 ADD PUSH1 0x40 MLOAD DUP1 SWAP2 SUB SWAP1 LOG3 POP SWAP8 SWAP7 POP POP POP POP POP POP POP JUMP JUMPDEST DUP1 DUP1 PUSH1 0x0 SUB PUSH2 0xE2B JUMPI PUSH1 0x40 MLOAD PUSH4 0x162908E3 PUSH1 0xE1 SHL DUP2 MSTORE PUSH1 0x4 ADD PUSH1 0x40 MLOAD DUP1 SWAP2 SUB SWAP1 REVERT JUMPDEST DUP2 PUSH1 0x6 SLOAD DUP2 GT ISZERO PUSH2 0xE4F JUMPI PUSH1 0x40 MLOAD PUSH4 0x356680B7 PUSH1 0xE0 SHL DUP2 MSTORE PUSH1 0x4 ADD PUSH1 0x40 MLOAD DUP1 SWAP2 SUB SWAP1 REVERT JUMPDEST CALLER PUSH1 0x0 SWAP1 DUP2 MSTORE PUSH1 0x1 PUSH1 0x20 MSTORE PUSH1 0x40 SWAP1 KECCAK256 SLOAD PUSH8 0x16345785D8A0000 GT DUP1 ISZERO PUSH2 0xE83 JUMPI POP CALLER PUSH1 0x0 SWAP1 DUP2 MSTORE PUSH1 0x2 PUSH1 0x20 MSTORE PUSH1 0x40 SWAP1 KECCAK256 SLOAD ISZERO ISZERO JUMPDEST ISZERO PUSH2 0xEA1 JUMPI PUSH1 0x40 MLOAD PUSH4 0xB4FF2AB7 PUSH1 0xE0 SHL DUP2 MSTORE PUSH1 0x4 ADD PUSH1 0x40 MLOAD DUP1 SWAP2 SUB SWAP1 REVERT JUMPDEST CALLER PUSH1 0x0 SWAP1 DUP2 MSTORE PUSH1 0x3 PUSH1 0x20 MSTORE PUSH1 0x40 SWAP1 KECCAK256 SLOAD TIMESTAMP SWAP1 PUSH2 0xEC1 SWAP1 PUSH3 0x93A80 SWAP1 PUSH2 0x17A6 JUMP JUMPDEST LT ISZERO DUP1 ISZERO PUSH2 0xEDD JUMPI POP CALLER PUSH1 0x0 SWAP1 DUP2 MSTORE PUSH1 0x2 PUSH1 0x20 MSTORE PUSH1 0x40 SWAP1 KECCAK256 SLOAD ISZERO ISZERO JUMPDEST ISZERO PUSH2 0xEFB JUMPI PUSH1 0x40 MLOAD PUSH4 0xC6061C85 PUSH1 0xE0 SHL DUP2 MSTORE PUSH1 0x4 ADD PUSH1 0x40 MLOAD DUP1 SWAP2 SUB SWAP1 REVERT JUMPDEST PUSH2 0xF03 PUSH2 0x1177 JUMP JUMPDEST CALLER PUSH1 0x0 DUP2 DUP2 MSTORE PUSH1 0x2 PUSH1 0x20 DUP2 DUP2 MSTORE PUSH1 0x40 DUP1 DUP5 KECCAK256 DUP1 SLOAD DUP10 DUP2 ADD DUP3 SSTORE PUSH1 0x5 DUP1 SLOAD DUP12 ADD SWAP1 SSTORE PUSH1 0x6 DUP1 SLOAD DUP12 SWAP1 SUB SWAP1 SSTORE PUSH1 0x3 DUP5 MSTORE SWAP5 DUP3 SWAP1 KECCAK256 TIMESTAMP SWAP1 SSTORE SWAP3 DUP3 MSTORE SWAP2 SLOAD DUP3 MLOAD DUP9 DUP2 MSTORE SWAP2 DUP3 ADD MSTORE SWAP2 ISZERO SWAP3 SWAP2 PUSH32 0xEAE9CFBC77FDD40CA899F36B608256063B2BC9D8178B0220F7AD513E178D6730 SWAP2 ADD PUSH1 0x40 MLOAD DUP1 SWAP2 SUB SWAP1 LOG2 PUSH32 0x17F13FD3F7C4712AF33F1770EBCB822DD20A2DBC00850EAB48D786623D97B959 PUSH1 0x5 SLOAD PUSH1 0x40 MLOAD PUSH2 0xFA8 SWAP2 DUP2 MSTORE PUSH1 0x20 ADD SWAP1 JUMP JUMPDEST PUSH1 0x40 MLOAD DUP1 SWAP2 SUB SWAP1 LOG1 PUSH1 0x0 DUP1 MLOAD PUSH1 0x20 PUSH2 0x1851 DUP4 CODECOPY DUP2 MLOAD SWAP2 MSTORE PUSH1 0x6 SLOAD PUSH1 0x40 MLOAD PUSH2 0xFD1 SWAP2 DUP2 MSTORE PUSH1 0x20 ADD SWAP1 JUMP JUMPDEST PUSH1 0x40 MLOAD DUP1 SWAP2 SUB SWAP1 LOG1 DUP1 ISZERO PUSH2 0x100B JUMPI PUSH1 0x40 MLOAD CALLER SWAP1 PUSH32 0xDD6D577A01057A7CA4E715AE2C9F196A0A25D8E9D1DDD9376047869CE6FE56C7 SWAP1 PUSH1 0x0 SWAP1 LOG2 JUMPDEST PUSH1 0x40 MLOAD CALLER SWAP1 DUP6 ISZERO PUSH2 0x8FC MUL SWAP1 DUP7 SWAP1 PUSH1 0x0 DUP2 DUP2 DUP2 DUP6 DUP9 DUP9 CALL SWAP4 POP POP POP POP ISZERO DUP1 ISZERO PUSH2 0x1038 JUMPI RETURNDATASIZE PUSH1 0x0 DUP1 RETURNDATACOPY RETURNDATASIZE PUSH1 0x0 REVERT JUMPDEST POP POP PUSH2 0x87E PUSH1 0x1 PUSH1 0x0 SSTORE JUMP JUMPDEST CALLVALUE DUP1 PUSH1 0x0 SUB PUSH2 0x1066 JUMPI PUSH1 0x40 MLOAD PUSH4 0x162908E3 PUSH1 0xE1 SHL DUP2 MSTORE PUSH1 0x4 ADD PUSH1 0x40 MLOAD DUP1 SWAP2 SUB SWAP1 REVERT JUMPDEST PUSH2 0x106E PUSH2 0x1177 JUMP JUMPDEST CALLER PUSH1 0x0 DUP2 DUP2 MSTORE PUSH1 0x1 PUSH1 0x20 SWAP1 DUP2 MSTORE PUSH1 0x40 SWAP2 DUP3 SWAP1 KECCAK256 DUP1 SLOAD CALLVALUE DUP1 DUP3 ADD DUP4 SSTORE PUSH1 0x4 DUP1 SLOAD DUP3 ADD SWAP1 SSTORE PUSH1 0x6 DUP1 SLOAD DUP3 ADD SWAP1 SSTORE SWAP2 SLOAD DUP5 MLOAD SWAP3 DUP4 MSTORE SWAP3 DUP3 ADD SWAP3 SWAP1 SWAP3 MSTORE SWAP1 ISZERO SWAP3 SWAP2 PUSH32 0x4928895BA6723E8E27B15F32E4C3054A1B6C7F8C03F133558D6FA42B3928D14C SWAP2 ADD PUSH1 0x40 MLOAD DUP1 SWAP2 SUB SWAP1 LOG2 PUSH32 0xDC6E73D4B36E22AB95945BD8833A5AF96C950EB29D8D75C4AECFFC987637AAAB PUSH1 0x4 SLOAD PUSH1 0x40 MLOAD PUSH2 0x1109 SWAP2 DUP2 MSTORE PUSH1 0x20 ADD SWAP1 JUMP JUMPDEST PUSH1 0x40 MLOAD DUP1 SWAP2 SUB SWAP1 LOG1 PUSH1 0x0 DUP1 MLOAD PUSH1 0x20 PUSH2 0x1851 DUP4 CODECOPY DUP2 MLOAD SWAP2 MSTORE PUSH1 0x6 SLOAD PUSH1 0x40 MLOAD PUSH2 0x1132 SWAP2 DUP2 MSTORE PUSH1 0x20 ADD SWAP1 JUMP JUMPDEST PUSH1 0x40 MLOAD DUP1 SWAP2 SUB SWAP1 LOG1 DUP1 ISZERO PUSH2 0x116C JUMPI PUSH1 0x40 MLOAD CALLER SWAP1 PUSH32 0x72DAFB6AABE3F02118BC607EFBEAAA104D6B2009720C7B130F24BA418689C4B SWAP1 PUSH1 0x0 SWAP1 LOG2 JUMPDEST POP PUSH2 0xA8A PUSH1 0x1 PUSH1 0x0 SSTORE JUMP JUMPDEST PUSH1 0x2 PUSH1 0x0 SLOAD SUB PUSH2 0x11CD JUMPI PUSH1 0x40 MLOAD PUSH3 0x461BCD PUSH1 0xE5 SHL DUP2 MSTORE PUSH1 0x20 PUSH1 0x4 DUP3 ADD MSTORE PUSH1 0x1F PUSH1 0x24 DUP3 ADD MSTORE PUSH32 0x5265656E7472616E637947756172643A207265656E7472616E742063616C6C00 PUSH1 0x44 DUP3 ADD MSTORE PUSH1 0x64 ADD PUSH1 0x40 MLOAD DUP1 SWAP2 SUB SWAP1 REVERT JUMPDEST PUSH1 0x2 PUSH1 0x0 SSTORE JUMP JUMPDEST PUSH1 0x0 DUP2 DUP2 MSTORE PUSH1 0xB PUSH1 0x20 SWAP1 DUP2 MSTORE PUSH1 0x40 DUP1 DUP4 KECCAK256 PUSH1 0x7 SWAP1 SWAP3 MSTORE SWAP2 DUP3 SWAP1 KECCAK256 PUSH1 0x1 DUP1 DUP3 ADD SLOAD DUP4 SLOAD PUSH1 0x1 PUSH1 0x1 PUSH1 0xA0 SHL SUB SWAP1 SWAP2 AND PUSH1 0x1 PUSH1 0x1 PUSH1 0xA0 SHL SUB NOT SWAP1 SWAP2 AND DUP2 OR DUP5 SSTORE SWAP1 DUP4 ADD DUP6 SWAP1 SSTORE PUSH1 0x2 DUP4 ADD DUP1 SLOAD PUSH1 0xFF NOT DUP2 AND DUP3 SSTORE PUSH1 0x8 SWAP1 SWAP4 ADD SLOAD PUSH5 0xFFFFFFFFFF NOT SWAP1 SWAP4 AND PUSH2 0x100 PUSH4 0xFFFFFFFF SWAP5 DUP6 AND DUP2 MUL SWAP2 DUP3 OR SWAP3 DUP4 SWAP1 SSTORE SWAP6 MLOAD SWAP5 SWAP6 DUP8 SWAP6 SWAP4 SWAP5 PUSH32 0xE035D0A104843967681841B75FFE85277731C7BD0B784A08C766CE7503DEB335 SWAP5 PUSH2 0x1287 SWAP5 PUSH1 0xFF SWAP1 SWAP5 AND SWAP4 SWAP3 SWAP1 SWAP3 DIV AND SWAP1 PUSH2 0x182F JUMP JUMPDEST PUSH1 0x40 MLOAD DUP1 SWAP2 SUB SWAP1 LOG3 POP POP JUMP JUMPDEST PUSH1 0x0 DUP2 DUP2 MSTORE PUSH1 0x7 PUSH1 0x20 SWAP1 DUP2 MSTORE PUSH1 0x40 DUP1 DUP4 KECCAK256 PUSH1 0x2 DUP1 DUP3 ADD DUP1 SLOAD PUSH1 0x1 DUP5 ADD DUP1 SLOAD PUSH1 0x1 PUSH1 0x1 PUSH1 0xA0 SHL SUB SWAP1 DUP2 AND DUP10 MSTORE SWAP4 DUP8 MSTORE DUP6 DUP9 KECCAK256 DUP1 SLOAD SWAP1 SWAP3 ADD SWAP1 SWAP2 SSTORE DUP2 SLOAD PUSH1 0x5 DUP1 SLOAD SWAP1 SWAP2 ADD SWAP1 SSTORE DUP2 SLOAD PUSH1 0x6 DUP1 SLOAD SWAP2 SWAP1 SWAP2 SUB SWAP1 SSTORE DUP1 SLOAD DUP4 AND DUP8 MSTORE PUSH1 0x3 SWAP6 DUP7 SWAP1 MSTORE DUP5 DUP8 KECCAK256 TIMESTAMP SWAP1 SSTORE SWAP5 DUP4 ADD DUP1 SLOAD PUSH1 0xFF PUSH1 0x40 SHL NOT AND PUSH9 0x30000000000000000 OR SWAP1 SSTORE SWAP4 SLOAD SWAP4 SLOAD SWAP3 MLOAD SWAP2 SWAP5 SWAP4 AND SWAP3 DUP3 ISZERO PUSH2 0x8FC MUL SWAP3 SWAP2 SWAP1 DUP2 DUP2 DUP2 DUP6 DUP9 DUP9 CALL SWAP4 POP POP POP POP ISZERO DUP1 ISZERO PUSH2 0x133F JUMPI RETURNDATASIZE PUSH1 0x0 DUP1 RETURNDATACOPY RETURNDATASIZE PUSH1 0x0 REVERT JUMPDEST POP PUSH1 0x1 DUP2 ADD SLOAD PUSH1 0x2 DUP1 DUP4 ADD SLOAD PUSH1 0x1 PUSH1 0x1 PUSH1 0xA0 SHL SUB SWAP1 SWAP3 AND PUSH1 0x0 DUP2 DUP2 MSTORE PUSH1 0x20 SWAP3 DUP4 MSTORE PUSH1 0x40 SWAP1 DUP2 SWAP1 KECCAK256 SLOAD DUP2 MLOAD SWAP5 DUP6 MSTORE SWAP3 DUP5 ADD SWAP3 SWAP1 SWAP3 MSTORE SWAP2 PUSH32 0xEAE9CFBC77FDD40CA899F36B608256063B2BC9D8178B0220F7AD513E178D6730 SWAP2 ADD PUSH1 0x40 MLOAD DUP1 SWAP2 SUB SWAP1 LOG2 PUSH32 0x17F13FD3F7C4712AF33F1770EBCB822DD20A2DBC00850EAB48D786623D97B959 PUSH1 0x5 SLOAD PUSH1 0x40 MLOAD PUSH2 0x13D2 SWAP2 DUP2 MSTORE PUSH1 0x20 ADD SWAP1 JUMP JUMPDEST PUSH1 0x40 MLOAD DUP1 SWAP2 SUB SWAP1 LOG1 PUSH1 0x0 DUP1 MLOAD PUSH1 0x20 PUSH2 0x1851 DUP4 CODECOPY DUP2 MLOAD SWAP2 MSTORE PUSH1 0x6 SLOAD PUSH1 0x40 MLOAD PUSH2 0x13FB SWAP2 DUP2 MSTORE PUSH1 0x20 ADD SWAP1 JUMP JUMPDEST PUSH1 0x40 MLOAD DUP1 SWAP2 SUB SWAP1 LOG1 PUSH1 0x40 MLOAD DUP3 SWAP1 PUSH32 0x9E71D2FB732E68272B7E74ECFD14638673C1D77E19A5D390A3FFFF054D57C44B SWAP1 PUSH1 0x0 SWAP1 LOG2 POP POP JUMP JUMPDEST PUSH1 0x0 PUSH1 0x20 DUP3 DUP5 SUB SLT ISZERO PUSH2 0x1444 JUMPI PUSH1 0x0 DUP1 REVERT JUMPDEST POP CALLDATALOAD SWAP2 SWAP1 POP JUMP JUMPDEST PUSH4 0x4E487B71 PUSH1 0xE0 SHL PUSH1 0x0 MSTORE PUSH1 0x21 PUSH1 0x4 MSTORE PUSH1 0x24 PUSH1 0x0 REVERT JUMPDEST PUSH1 0x6 DUP2 LT PUSH2 0x1471 JUMPI PUSH2 0x1471 PUSH2 0x144B JUMP JUMPDEST SWAP1 MSTORE JUMP JUMPDEST PUSH1 0x0 DUP2 MLOAD DUP1 DUP5 MSTORE PUSH1 0x20 DUP1 DUP6 ADD SWAP5 POP DUP1 DUP5 ADD PUSH1 0x0 JUMPDEST DUP4 DUP2 LT ISZERO PUSH2 0x14AE JUMPI DUP2 MLOAD PUSH1 0x1 PUSH1 0x1 PUSH1 0xA0 SHL SUB AND DUP8 MSTORE SWAP6 DUP3 ADD SWAP6 SWAP1 DUP3 ADD SWAP1 PUSH1 0x1 ADD PUSH2 0x1489 JUMP JUMPDEST POP SWAP5 SWAP6 SWAP5 POP POP POP POP POP JUMP JUMPDEST PUSH1 0x20 DUP2 MSTORE DUP2 MLOAD PUSH1 0x20 DUP3 ADD MSTORE PUSH1 0x0 PUSH1 0x20 DUP4 ADD MLOAD PUSH2 0x14E0 PUSH1 0x40 DUP5 ADD DUP3 PUSH1 0x1 PUSH1 0x1 PUSH1 0xA0 SHL SUB AND SWAP1 MSTORE JUMP JUMPDEST POP PUSH1 0x40 DUP4 ADD MLOAD PUSH1 0x60 DUP4 ADD MSTORE PUSH1 0x60 DUP4 ADD MLOAD PUSH2 0x1502 PUSH1 0x80 DUP5 ADD DUP3 PUSH4 0xFFFFFFFF AND SWAP1 MSTORE JUMP JUMPDEST POP PUSH1 0x80 DUP4 ADD MLOAD PUSH4 0xFFFFFFFF DUP2 AND PUSH1 0xA0 DUP5 ADD MSTORE POP PUSH1 0xA0 DUP4 ADD MLOAD PUSH2 0x1527 PUSH1 0xC0 DUP5 ADD DUP3 PUSH2 0x1461 JUMP JUMPDEST POP PUSH1 0xC0 DUP4 ADD MLOAD PUSH1 0xE0 DUP4 ADD MSTORE PUSH1 0xE0 DUP4 ADD MLOAD PUSH2 0x100 DUP2 DUP2 DUP6 ADD MSTORE DUP1 DUP6 ADD MLOAD SWAP2 POP POP PUSH2 0x140 PUSH2 0x120 DUP2 DUP2 DUP7 ADD MSTORE PUSH2 0x155F PUSH2 0x160 DUP7 ADD DUP5 PUSH2 0x1475 JUMP JUMPDEST SWAP6 ADD MLOAD PUSH4 0xFFFFFFFF AND SWAP4 ADD SWAP3 SWAP1 SWAP3 MSTORE POP SWAP1 SWAP2 SWAP1 POP JUMP JUMPDEST PUSH1 0x3 DUP2 LT PUSH2 0x1471 JUMPI PUSH2 0x1471 PUSH2 0x144B JUMP JUMPDEST PUSH1 0x1 PUSH1 0x1 PUSH1 0xA0 SHL SUB DUP6 AND DUP2 MSTORE PUSH1 0x20 DUP2 ADD DUP5 SWAP1 MSTORE PUSH1 0x80 DUP2 ADD PUSH2 0x15A9 PUSH1 0x40 DUP4 ADD DUP6 PUSH2 0x1575 JUMP JUMPDEST PUSH4 0xFFFFFFFF DUP4 AND PUSH1 0x60 DUP4 ADD MSTORE SWAP6 SWAP5 POP POP POP POP POP JUMP JUMPDEST DUP1 CALLDATALOAD PUSH4 0xFFFFFFFF DUP2 AND DUP2 EQ PUSH2 0x15D2 JUMPI PUSH1 0x0 DUP1 REVERT JUMPDEST SWAP2 SWAP1 POP JUMP JUMPDEST PUSH1 0x0 DUP1 PUSH1 0x40 DUP4 DUP6 SUB SLT ISZERO PUSH2 0x15EA JUMPI PUSH1 0x0 DUP1 REVERT JUMPDEST DUP3 CALLDATALOAD SWAP2 POP PUSH2 0x15FA PUSH1 0x20 DUP5 ADD PUSH2 0x15BE JUMP JUMPDEST SWAP1 POP SWAP3 POP SWAP3 SWAP1 POP JUMP JUMPDEST DUP2 MLOAD PUSH1 0x1 PUSH1 0x1 PUSH1 0xA0 SHL SUB AND DUP2 MSTORE PUSH1 0x20 DUP1 DUP4 ADD MLOAD SWAP1 DUP3 ADD MSTORE PUSH1 0x40 DUP1 DUP4 ADD MLOAD PUSH1 0x80 DUP4 ADD SWAP2 PUSH2 0x1631 SWAP1 DUP5 ADD DUP3 PUSH2 0x1575 JUMP JUMPDEST POP PUSH1 0x60 SWAP3 DUP4 ADD MLOAD PUSH4 0xFFFFFFFF AND SWAP2 SWAP1 SWAP3 ADD MSTORE SWAP1 JUMP JUMPDEST DUP1 CALLDATALOAD PUSH1 0x1 PUSH1 0x1 PUSH1 0xA0 SHL SUB DUP2 AND DUP2 EQ PUSH2 0x15D2 JUMPI PUSH1 0x0 DUP1 REVERT JUMPDEST PUSH1 0x0 PUSH1 0x20 DUP3 DUP5 SUB SLT ISZERO PUSH2 0x166F JUMPI PUSH1 0x0 DUP1 REVERT JUMPDEST PUSH2 0xC44 DUP3 PUSH2 0x1646 JUMP JUMPDEST PUSH1 0x0 DUP1 PUSH1 0x40 DUP4 DUP6 SUB SLT ISZERO PUSH2 0x168B JUMPI PUSH1 0x0 DUP1 REVERT JUMPDEST DUP3 CALLDATALOAD SWAP2 POP PUSH2 0x15FA PUSH1 0x20 DUP5 ADD PUSH2 0x1646 JUMP JUMPDEST PUSH1 0x20 DUP1 DUP3 MSTORE DUP3 MLOAD DUP3 DUP3 ADD DUP2 SWAP1 MSTORE PUSH1 0x0 SWAP2 SWAP1 DUP5 DUP3 ADD SWAP1 PUSH1 0x40 DUP6 ADD SWAP1 DUP5 JUMPDEST DUP2 DUP2 LT ISZERO PUSH2 0x16DC JUMPI DUP4 MLOAD PUSH1 0x1 PUSH1 0x1 PUSH1 0xA0 SHL SUB AND DUP4 MSTORE SWAP3 DUP5 ADD SWAP3 SWAP2 DUP5 ADD SWAP2 PUSH1 0x1 ADD PUSH2 0x16B7 JUMP JUMPDEST POP SWAP1 SWAP7 SWAP6 POP POP POP POP POP POP JUMP JUMPDEST PUSH1 0x20 DUP1 DUP3 MSTORE DUP3 MLOAD DUP3 DUP3 ADD DUP2 SWAP1 MSTORE PUSH1 0x0 SWAP2 SWAP1 DUP5 DUP3 ADD SWAP1 PUSH1 0x40 DUP6 ADD SWAP1 DUP5 JUMPDEST DUP2 DUP2 LT ISZERO PUSH2 0x16DC JUMPI DUP4 MLOAD DUP4 MSTORE SWAP3 DUP5 ADD SWAP3 SWAP2 DUP5 ADD SWAP2 PUSH1 0x1 ADD PUSH2 0x1704 JUMP JUMPDEST PUSH1 0x0 DUP1 PUSH1 0x40 DUP4 DUP6 SUB SLT ISZERO PUSH2 0x1733 JUMPI PUSH1 0x0 DUP1 REVERT JUMPDEST PUSH2 0x173C DUP4 PUSH2 0x1646 JUMP JUMPDEST SWAP5 PUSH1 0x20 SWAP4 SWAP1 SWAP4 ADD CALLDATALOAD SWAP4 POP POP POP JUMP JUMPDEST PUSH1 0x0 DUP1 PUSH1 0x0 DUP1 PUSH1 0x80 DUP6 DUP8 SUB SLT ISZERO PUSH2 0x1760 JUMPI PUSH1 0x0 DUP1 REVERT JUMPDEST DUP5 CALLDATALOAD SWAP4 POP PUSH2 0x1770 PUSH1 0x20 DUP7 ADD PUSH2 0x15BE JUMP JUMPDEST SWAP3 POP PUSH1 0x40 DUP6 ADD CALLDATALOAD SWAP2 POP PUSH2 0x1785 PUSH1 0x60 DUP7 ADD PUSH2 0x15BE JUMP JUMPDEST SWAP1 POP SWAP3 SWAP6 SWAP2 SWAP5 POP SWAP3 POP JUMP JUMPDEST PUSH4 0x4E487B71 PUSH1 0xE0 SHL PUSH1 0x0 MSTORE PUSH1 0x11 PUSH1 0x4 MSTORE PUSH1 0x24 PUSH1 0x0 REVERT JUMPDEST DUP1 DUP3 ADD DUP1 DUP3 GT ISZERO PUSH2 0xAB3 JUMPI PUSH2 0xAB3 PUSH2 0x1790 JUMP JUMPDEST DUP1 DUP3 MUL DUP2 ISZERO DUP3 DUP3 DIV DUP5 EQ OR PUSH2 0xAB3 JUMPI PUSH2 0xAB3 PUSH2 0x1790 JUMP JUMPDEST PUSH1 0x0 DUP3 PUSH2 0x17ED JUMPI PUSH4 0x4E487B71 PUSH1 0xE0 SHL PUSH1 0x0 MSTORE PUSH1 0x12 PUSH1 0x4 MSTORE PUSH1 0x24 PUSH1 0x0 REVERT JUMPDEST POP DIV SWAP1 JUMP JUMPDEST PUSH4 0xFFFFFFFF DUP2 DUP2 AND DUP4 DUP3 AND ADD SWAP1 DUP1 DUP3 GT ISZERO PUSH2 0x180F JUMPI PUSH2 0x180F PUSH2 0x1790 JUMP JUMPDEST POP SWAP3 SWAP2 POP POP JUMP JUMPDEST PUSH1 0x0 PUSH1 0x1 DUP3 ADD PUSH2 0x1828 JUMPI PUSH2 0x1828 PUSH2 0x1790 JUMP JUMPDEST POP PUSH1 0x1 ADD SWAP1 JUMP JUMPDEST PUSH1 0x40 DUP2 ADD PUSH2 0x183D DUP3 DUP6 PUSH2 0x1575 JUMP JUMPDEST PUSH4 0xFFFFFFFF DUP4 AND PUSH1 0x20 DUP4 ADD MSTORE SWAP4 SWAP3 POP POP POP JUMP INVALID DUP12 MULMOD 0x4C 0xCA PUSH16 0x83D49402CE208CC0C224B76625FFC586 CALLDATASIZE 0xDF JUMP 0xAE 0x28 MUL 0x4E PUSH17 0x4C5868A2646970667358221220D85122C8 STATICCALL 0xF9 CALLDATACOPY DUP2 0xE6 OR 0xD6 SWAP8 0x2C LOG2 0xDD DUP13 BASEFEE MSIZE ORIGIN ISZERO 0x22 0xDD SDIV 0xBF 0xFC SWAP2 0xA6 0xEE 0xCC SDIV 0xD6 GAS PUSH5 0x736F6C6343 STOP ADDMOD SGT STOP CALLER "},"methodIdentifiers":{"borrow(uint256)":"c5ebeaec","borrowerRequisitions(address,uint256)":"9e932011","canUserBorrow(address,uint256)":"97c33519","coverLoan(uint256,uint32)":"2485a314","createLoanRequisition(uint256,uint32,uint256,uint32)":"a648bf75","donate()":"ed88c68e","getAvailableBalance()":"809dab6a","getAvailableBorrowAmount()":"291c31a7","getBorrowerRequisitions(address)":"9730872a","getBorrowing(address)":"be5eb580","getContractBalance()":"6f9fb98a","getCoveringLenders(uint256)":"8a914a63","getDonation(address)":"410a1d32","getLastBorrowTime(address)":"657eb031","getLenderCoverage(uint256,address)":"4e51c7df","getLoanContract(uint256)":"383ab2ef","getRequisitionInfo(uint256)":"1b70ba3e","getTotalBorrowed()":"0307c4a1","getTotalDonations()":"777c658f","loanContracts(uint256)":"232869fa","repay()":"402d8883","requisitionCounter()":"84ddf5ea"}}}}}