{"contracts/ReputationSystem.sol":{"ReputationSystem":{"abi":[{"inputs":[],"stateMutability":"nonpayable","type":"constructor"},{"inputs":[],"name":"ActiveElectionExists","type":"error"},{"inputs":[],"name":"ElectionExpired","type":"error"},{"inputs":[],"name":"ElectionNotActive","type":"error"},{"inputs":[],"name":"InvalidCandidate","type":"error"},{"inputs":[],"name":"MemberAlreadyVoted","type":"error"},{"inputs":[],"name":"MemberIdOrWalletInvalid","type":"error"},{"inputs":[],"name":"NoCandidates","type":"error"},{"inputs":[],"name":"UnauthorizedCaller","type":"error"},{"inputs":[],"name":"WalletAlreadyLinkedToAnotherMember","type":"error"},{"inputs":[],"name":"WalletAlreadyVinculated","type":"error"},{"anonymous":false,"inputs":[{"indexed":true,"internalType":"address","name":"caller","type":"address"},{"indexed":false,"internalType":"bool","name":"authorized","type":"bool"}],"name":"AuthorizedCallerUpdated","type":"event"},{"anonymous":false,"inputs":[{"indexed":true,"internalType":"uint32","name":"electionId","type":"uint32"},{"indexed":true,"internalType":"uint32","name":"candidateId","type":"uint32"}],"name":"CandidateAdded","type":"event"},{"anonymous":false,"inputs":[{"indexed":true,"internalType":"uint32","name":"electionId","type":"uint32"},{"indexed":true,"internalType":"uint32","name":"winnerId","type":"uint32"},{"indexed":false,"internalType":"int32","name":"winningVotes","type":"int32"}],"name":"ElectionClosed","type":"event"},{"anonymous":false,"inputs":[{"indexed":true,"internalType":"uint32","name":"electionId","type":"uint32"},{"indexed":true,"internalType":"uint32","name":"candidateId","type":"uint32"},{"indexed":false,"internalType":"uint256","name":"startTime","type":"uint256"},{"indexed":false,"internalType":"uint256","name":"endTime","type":"uint256"}],"name":"ElectionOpened","type":"event"},{"anonymous":false,"inputs":[{"indexed":true,"internalType":"uint32","name":"memberId","type":"uint32"},{"indexed":true,"internalType":"address","name":"wallet","type":"address"},{"indexed":false,"internalType":"address[]","name":"walletVinculated","type":"address[]"},{"indexed":false,"internalType":"uint256","name":"timestamp","type":"uint256"}],"name":"MemberToWalletVinculation","type":"event"},{"anonymous":false,"inputs":[{"indexed":true,"internalType":"address","name":"previousOwner","type":"address"},{"indexed":true,"internalType":"address","name":"newOwner","type":"address"}],"name":"OwnershipTransferred","type":"event"},{"anonymous":false,"inputs":[{"indexed":true,"internalType":"uint32","name":"memberId","type":"uint32"},{"indexed":false,"internalType":"int32","name":"points","type":"int32"},{"indexed":false,"internalType":"bool","name":"increase","type":"bool"},{"indexed":false,"internalType":"int32","name":"newReputation","type":"int32"},{"indexed":false,"internalType":"uint256","name":"timestamp","type":"uint256"}],"name":"ReputationChanged","type":"event"},{"anonymous":false,"inputs":[{"indexed":true,"internalType":"uint32","name":"electionId","type":"uint32"},{"indexed":true,"internalType":"uint32","name":"winnerId","type":"uint32"},{"indexed":false,"internalType":"int32","name":"winningVotes","type":"int32"}],"name":"UnbeatableMajorityReached","type":"event"},{"anonymous":false,"inputs":[{"indexed":true,"internalType":"uint32","name":"electionId","type":"uint32"},{"indexed":true,"internalType":"uint32","name":"candidateId","type":"uint32"},{"indexed":true,"internalType":"uint32","name":"memberId","type":"uint32"},{"indexed":false,"internalType":"int32","name":"voteWeight","type":"int32"}],"name":"VoteCast","type":"event"},{"inputs":[],"name":"REPUTATION_GAIN_BY_COVERING_LOAN","outputs":[{"internalType":"int32","name":"","type":"int32"}],"stateMutability":"view","type":"function"},{"inputs":[],"name":"REPUTATION_GAIN_BY_REPAYNG_DEBT","outputs":[{"internalType":"int32","name":"","type":"int32"}],"stateMutability":"view","type":"function"},{"inputs":[],"name":"REPUTATION_LOSS_BY_DEBT_NOT_PAYD","outputs":[{"internalType":"int32","name":"","type":"int32"}],"stateMutability":"view","type":"function"},{"inputs":[{"internalType":"uint32","name":"electionId","type":"uint32"},{"internalType":"uint32","name":"candidateId","type":"uint32"}],"name":"addCandidate","outputs":[],"stateMutability":"nonpayable","type":"function"},{"inputs":[{"internalType":"address","name":"","type":"address"}],"name":"authorizedCallers","outputs":[{"internalType":"bool","name":"","type":"bool"}],"stateMutability":"view","type":"function"},{"inputs":[{"internalType":"uint32","name":"electionId","type":"uint32"}],"name":"checkUnbeatableMajority","outputs":[{"internalType":"bool","name":"isUnbeatable","type":"bool"},{"internalType":"uint32","name":"leadingCandidate","type":"uint32"},{"internalType":"int32","name":"leadingVotes","type":"int32"},{"internalType":"uint32","name":"secondCandidate","type":"uint32"},{"internalType":"int32","name":"secondVotes","type":"int32"}],"stateMutability":"view","type":"function"},{"inputs":[{"internalType":"uint32","name":"electionId","type":"uint32"}],"name":"closeElection","outputs":[],"stateMutability":"nonpayable","type":"function"},{"inputs":[{"internalType":"uint256","name":"","type":"uint256"}],"name":"elections","outputs":[{"internalType":"uint32","name":"id","type":"uint32"},{"internalType":"uint256","name":"startTime","type":"uint256"},{"internalType":"uint256","name":"endTime","type":"uint256"},{"internalType":"bool","name":"active","type":"bool"},{"internalType":"uint32","name":"winnerId","type":"uint32"},{"internalType":"int32","name":"winningVotes","type":"int32"},{"internalType":"int32","name":"totalVotesCast","type":"int32"},{"internalType":"int32","name":"potentialRemainingVotes","type":"int32"}],"stateMutability":"view","type":"function"},{"inputs":[],"name":"getActiveMemberCount","outputs":[{"internalType":"uint32","name":"","type":"uint32"}],"stateMutability":"view","type":"function"},{"inputs":[],"name":"getAverageReputation","outputs":[{"internalType":"int32","name":"","type":"int32"}],"stateMutability":"view","type":"function"},{"inputs":[{"internalType":"uint32","name":"candidateId","type":"uint32"}],"name":"getCandidateVotes","outputs":[{"internalType":"int32","name":"","type":"int32"}],"stateMutability":"view","type":"function"},{"inputs":[],"name":"getCurrentElectionId","outputs":[{"internalType":"int32","name":"","type":"int32"}],"stateMutability":"view","type":"function"},{"inputs":[{"internalType":"uint32","name":"electionId","type":"uint32"}],"name":"getElectionInfo","outputs":[{"internalType":"uint32","name":"id","type":"uint32"},{"internalType":"uint32[]","name":"candidates","type":"uint32[]"},{"internalType":"uint256","name":"startTime","type":"uint256"},{"internalType":"uint256","name":"endTime","type":"uint256"},{"internalType":"bool","name":"active","type":"bool"},{"internalType":"uint32","name":"winnerId","type":"uint32"},{"internalType":"int32","name":"winningVotes","type":"int32"},{"internalType":"int32","name":"totalVotesCast","type":"int32"}],"stateMutability":"view","type":"function"},{"inputs":[{"internalType":"address","name":"wallet","type":"address"}],"name":"getMemberId","outputs":[{"internalType":"uint32","name":"","type":"uint32"}],"stateMutability":"view","type":"function"},{"inputs":[{"internalType":"uint32","name":"memberId","type":"uint32"}],"name":"getReputation","outputs":[{"internalType":"int32","name":"","type":"int32"}],"stateMutability":"view","type":"function"},{"inputs":[{"internalType":"uint32","name":"electionId","type":"uint32"},{"internalType":"uint32","name":"memberId","type":"uint32"}],"name":"hasMemberVoted","outputs":[{"internalType":"bool","name":"","type":"bool"}],"stateMutability":"view","type":"function"},{"inputs":[{"internalType":"uint32","name":"","type":"uint32"},{"internalType":"uint32","name":"","type":"uint32"}],"name":"hasVotedInElection","outputs":[{"internalType":"bool","name":"","type":"bool"}],"stateMutability":"view","type":"function"},{"inputs":[{"internalType":"uint32","name":"memberId","type":"uint32"}],"name":"isMemberActive","outputs":[{"internalType":"bool","name":"","type":"bool"}],"stateMutability":"view","type":"function"},{"inputs":[{"internalType":"uint32","name":"","type":"uint32"}],"name":"isModerator","outputs":[{"internalType":"bool","name":"","type":"bool"}],"stateMutability":"view","type":"function"},{"inputs":[{"internalType":"address","name":"wallet","type":"address"}],"name":"isWalletVinculated","outputs":[{"internalType":"bool","name":"","type":"bool"}],"stateMutability":"view","type":"function"},{"inputs":[{"internalType":"uint32","name":"","type":"uint32"}],"name":"memberReputation","outputs":[{"internalType":"int32","name":"","type":"int32"}],"stateMutability":"view","type":"function"},{"inputs":[{"internalType":"uint32","name":"","type":"uint32"}],"name":"moderatorVotesReceived","outputs":[{"internalType":"int32","name":"","type":"int32"}],"stateMutability":"view","type":"function"},{"inputs":[{"internalType":"uint32","name":"candidateId","type":"uint32"}],"name":"openElection","outputs":[],"stateMutability":"nonpayable","type":"function"},{"inputs":[],"name":"owner","outputs":[{"internalType":"address","name":"","type":"address"}],"stateMutability":"view","type":"function"},{"inputs":[],"name":"renounceOwnership","outputs":[],"stateMutability":"nonpayable","type":"function"},{"inputs":[{"internalType":"uint32","name":"memberId","type":"uint32"},{"internalType":"int32","name":"points","type":"int32"},{"internalType":"bool","name":"increase","type":"bool"}],"name":"reputationChange","outputs":[],"stateMutability":"nonpayable","type":"function"},{"inputs":[{"internalType":"address","name":"caller","type":"address"},{"internalType":"bool","name":"authorized","type":"bool"}],"name":"setAuthorizedCaller","outputs":[],"stateMutability":"nonpayable","type":"function"},{"inputs":[],"name":"totalPotentialVotes","outputs":[{"internalType":"int32","name":"","type":"int32"}],"stateMutability":"view","type":"function"},{"inputs":[{"internalType":"address","name":"newOwner","type":"address"}],"name":"transferOwnership","outputs":[],"stateMutability":"nonpayable","type":"function"},{"inputs":[{"internalType":"uint32","name":"memberId","type":"uint32"},{"internalType":"address","name":"wallet","type":"address"}],"name":"vinculationMemberToWallet","outputs":[],"stateMutability":"nonpayable","type":"function"},{"inputs":[{"internalType":"uint32","name":"electionId","type":"uint32"},{"internalType":"uint32","name":"candidateId","type":"uint32"},{"internalType":"uint32","name":"memberId","type":"uint32"}],"name":"voteForModerator","outputs":[],"stateMutability":"nonpayable","type":"function"},{"inputs":[{"internalType":"address","name":"","type":"address"}],"name":"walletToMemberId","outputs":[{"internalType":"uint32","name":"","type":"uint32"}],"stateMutability":"view","type":"function"},{"inputs":[{"internalType":"uint32","name":"","type":"uint32"},{"internalType":"uint256","name":"","type":"uint256"}],"name":"walletsOfMember","outputs":[{"internalType":"address","name":"","type":"address"}],"stateMutability":"view","type":"function"}],"evm":{"bytecode":{"linkReferences":{},"object":"6080806040523461007757600160008181558154336001600160a01b0319821681179093556001600160a01b0316907f8be0079c531659141344cd1fd0a4f28419497f9722a3daafe3b4186f6b6457e09080a33360005260026020526040600020600160ff19825416179055611e3e908161007d8239f35b600080fdfe6080604052600436101561001257600080fd5b60003560e01c80630fc19c78146118f85780631f7f505c1461033557806321bb31e4146116c957806322faa41f146116a5578063232775c31461140e578063244ad96714611144578063315f7760146110e2578063454bbd291461105a5780634698c2d5146102f55780634a57c6d0146109075780634b45e00f14610ecf5780634e5ecf1314610eb3578063533dfa3514610b9d578063536fff6c14610b5e578063598a562a14610b1c5780635d09017614610a2f5780635e6fef011461099e57806370574c4b14610467578063715018a61461094157806381db2284146109075780638249dea6146104a15780638450a681146104675780638da5cb5b1461043e5780639734ed6214610402578063a5118bf1146103e6578063a6f587ac146103c5578063b1cc1f8f14610389578063b3f8df4014610335578063c269014b146102f5578063d5be8c4a146102d9578063df91be181461027b578063f2fde38b146101b25763fe2b536b1461018757600080fd5b346101ad5760003660031901126101ad5760206101a2611ae2565b6040519060030b8152f35b600080fd5b346101ad5760203660031901126101ad576101cb611939565b6101d36119a2565b6001600160a01b0390811690811561022757600154826bffffffffffffffffffffffff60a01b821617600155167f8be0079c531659141344cd1fd0a4f28419497f9722a3daafe3b4186f6b6457e0600080a3005b60405162461bcd60e51b815260206004820152602660248201527f4f776e61626c653a206e6577206f776e657220697320746865207a65726f206160448201526564647265737360d01b6064820152608490fd5b346101ad5760403660031901126101ad57610294611913565b63ffffffff60243591166000526005602052604060002080548210156101ad576020916102c09161198a565b905460405160039290921b1c6001600160a01b03168152f35b346101ad5760003660031901126101ad57602060405160028152f35b346101ad5760203660031901126101ad576001600160a01b03610316611939565b166000526004602052602063ffffffff60406000205416604051908152f35b346101ad5760403660031901126101ad5761034e611913565b610356611926565b9063ffffffff809116600052600c60205260406000209116600052602052602060ff604060002054166040519015158152f35b346101ad5760203660031901126101ad5763ffffffff6103a7611913565b16600052600a602052602060ff604060002054166040519015158152f35b346101ad5760003660031901126101ad57602060075460030b604051908152f35b346101ad5760003660031901126101ad57602060405160038152f35b346101ad5760203660031901126101ad5763ffffffff610420611913565b166000526008602052602060ff604060002054166040519015158152f35b346101ad5760003660031901126101ad576001546040516001600160a01b039091168152602090f35b346101ad5760203660031901126101ad5763ffffffff610485611913565b16600052600b602052602060406000205460030b604051908152f35b346101ad5760203660031901126101ad576104ba611913565b600e54801515806108e4575b6108d25760405191610120830183811067ffffffffffffffff82111761087a576040526000835260606020840152600060408401526000606084015260006080840152600060a0840152600060c0840152600060e08401526000610100840152600d5463ffffffff808216146108a6578063ffffffff60018180941601168219821617600d5516835260405180604081011067ffffffffffffffff60408301111761087a576040810160405260018152602036818301378060208501528051156108bc57602063ffffffff831691015242604084015262278d00420142116108a65762278d004201606084015260016080840152600060e084015260075460030b610100840152600160401b918281101561087a578060016105eb9201600e5561194f565b9290926108905763ffffffff84511663ffffffff19845416178355602084015180519167ffffffffffffffff831161087a57821161087a576001840154826001860155808310610811575b50602001906001840160005260206000209060005b8160031c81106107ce575060071981168103610751575b505050604063ffffffff7f4610b24bbfb857173e063b234e3a2475409bf5921c3f541f435eb016c5aad89f9281838701519687600288015561073f6004606083015198896003820155016106c860808401511515829060ff801983541691151516179055565b60a0830151815460c085015160e086015161010087015160681b63ffffffff60681b1660489190911b63ffffffff60481b1660289290921b68ffffffff00000000001693881660081b64ffffffff001670ffffffffffffffffffffffffffffffff0019909316929092179290921791909117179055565b511694835196875260208701521693a3005b60009260005b60071983168303811061079857505060031c0155604063ffffffff7f4610b24bbfb857173e063b234e3a2475409bf5921c3f541f435eb016c5aad89f610662565b909360206107c560019263ffffffff885116908560021b60031b9163ffffffff809116831b921b19161790565b95019101610757565b6000805b600881106107e757508382015560010161064b565b855190959160019160209163ffffffff60058a901b81811b199092169216901b17920195016107d2565b600185016000526020600020601c8460021b1680610857575b506007840160031c81015b6007830160031c8201811061084b575050610636565b60008155600101610835565b60001990816007870160031c8401019182549160200360031b1c1690558761082a565b634e487b7160e01b600052604160045260246000fd5b634e487b7160e01b600052600060045260246000fd5b634e487b7160e01b600052601160045260246000fd5b634e487b7160e01b600052603260045260246000fd5b60405163eca8873760e01b8152600490fd5b5060001981018181116108a65760046108fe60ff9261194f565b500154166104c6565b346101ad5760203660031901126101ad5763ffffffff610925611913565b166000526006602052602060406000205460030b604051908152f35b346101ad5760003660031901126101ad5761095a6119a2565b600180546001600160a01b031981169091556000906001600160a01b03167f8be0079c531659141344cd1fd0a4f28419497f9722a3daafe3b4186f6b6457e08280a3005b346101ad5760203660031901126101ad57600435600e548110156101ad576109c86101009161194f565b5063ffffffff90818154169160028201549160046003820154910154926040519485526020850152604084015260ff8216151560608401528160081c1660808301528060281c60030b60a08301528060481c60030b60c083015260681c60030b60e0820152f35b346101ad5760403660031901126101ad57610a48611913565b610a50611926565b600e549063ffffffff9283811692831015610afa57610a6e8161194f565b5060038101544211908115610b0c575b50610afa57610a8e60019161194f565b5001805490600160401b82101561087a5781610ab2916001610ad194018155611abf565b94909216809483549060031b9163ffffffff809116831b921b19161790565b90557f2497edd456da400fdf8e24a5943faebba37fc1a396be5ff9ef6105aede63e26b600080a3005b604051638744898560e01b8152600490fd5b60ff915060040154161585610a7e565b346101ad5760203660031901126101ad576001600160a01b03610b3d611939565b166000526004602052602063ffffffff604060002054161515604051908152f35b346101ad5760203660031901126101ad576001600160a01b03610b7f611939565b166000526002602052602060ff604060002054166040519015158152f35b346101ad5760603660031901126101ad57610bb6611913565b602480359160039083820b918285036101ad5760443591821515918284036101ad57336000526020916002835260ff6040600020541615610ea15763ffffffff809116978860005260068452604060002054830b95600014610e9257610c1c9086611a4a565b60008613958615610e8957925b81810b96610c43600089139586600014610e825784611a2b565b94610c536007549687850b611a4a565b851663ffffffff1980971617600755811580610e7b575b15610d2d575050509091929394959688600052600885526040600020600160ff1982541617905560095490600160401b821015610d19575091600080516020611de98339815191529795939189610ce9610cce86600160809c9a9801600955611a7f565b819391549060031b9163ffffffff809116831b921b19161790565b90555b896000526006845260406000209283541691161790556040519384528301526040820152426060820152a2005b634e487b7160e01b60009081526041600452fd5b81610e72575b50610d59575b50600080516020611de98339815191529750906080969594939291610cec565b60008a81526008865260408120805460ff191690555b6009805480831015610e4f578c86610d8685611a7f565b905490871b1c1614610da2575050610d9d906119fa565b610d6f565b9160009b91939495969798999a9b1992838101908111610e3a57610cce88610dcc610dd993611a7f565b905490891b1c1692611a7f565b90558254908115610e265750918560809a98969492600080516020611de98339815191529c9a9896940192610e0d84611a7f565b81939154921b1b19169055555b90919293949596610d39565b634e487b7160e01b60009081526031600452fd5b82634e487b7160e01b60005260116004526000fd5b50505050600080516020611de98339815191529750906080969594939291610e1a565b9050158b610d33565b5080610c6a565b6000611a2b565b50600092610c29565b610e9c9086611a2b565b610c1c565b604051635c427cd960e01b8152600490fd5b346101ad5760003660031901126101ad57602060405160018152f35b346101ad576020806003193601126101ad57610ee9611913565b90600e5463ffffffff9283811691821015610afa57610f0f90610f0a6119a2565b61194f565b5091600483019384549360ff851615610afa576001019485549081156110485760ff19958616815582610f4188611a6a565b949054600395861b1c169081600052600b93848752604060002054860b9460015b828110610ffe57505050928092610fd0837f2b056a7f2ae4dfec88dc5458429e82a178c97e5019b817058ae7dcd455da9e85989796610ff495169a8b600052600a89526001604060002091825416179055829064ffffffff0082549160081b169064ffffffff001916179055565b9081549060281b68ffffffff0000000000169068ffffffff00000000001916179055565b604051910b8152a3005b83611009828e611abf565b9054908a1b1c1680600052828a52604060002054890b90888a0b821361103a575b5050611035906119fa565b610f62565b90975094506110358d61102a565b604051633941064160e21b8152600490fd5b346101ad5760403660031901126101ad57611073611939565b60243590811515908183036101ad577fad857fa38c9319cb80848f1ef2f924383b90297eb5d71755738ff037d100faa1916110d96020926110b26119a2565b60018060a01b031694856000526002845260406000209060ff801983541691151516179055565b604051908152a2005b346101ad5760203660031901126101ad576110fb611913565b600e5463ffffffff908183161015610afa578061111960a093611d8a565b9493959092604051961515875216602086015260030b604085015216606083015260030b6080820152f35b346101ad5760603660031901126101ad5761115d611913565b611165611926565b6044359163ffffffff928381168091036101ad57801580811591826113ef575b6113c557906113d7575b6113c557600e549284831693841015610afa576111ab8361194f565b50936003948581015442119081156113b5575b50610afa576111cc8461194f565b5095816000526020600c8152604060002085600052815260ff604060002054166113a457600096600094600190818b018581549216975b82811061136d575b50505090919293949596971561135b57611310987f01918cd6e2704e854c925442ca2caa9ef7187126224a112077220e8316519d66948860005260068552604060002054840b9260008412611352575b916004916112de9389600052600c885260406000208c600052885260406000209060ff1982541617905589600052600b87526040600020908154906112a287838a0b611a4a565b169063ffffffff1916179055016112bf83825460481c860b611a4a565b81549060481b63ffffffff60481b169063ffffffff60481b1916179055565b6112e78861194f565b508760005260068452604060002054830b60008113611312575b5050604051910b8152a4611b7c565b005b611329600461134b930191825460681c860b611a2b565b815460689190911b63ffffffff60681b1663ffffffff60681b19909116179055565b8980611301565b6000935061125b565b60405163e66ea08f60e01b8152600490fd5b88876113798385611abf565b905490881b1c16146113935761138e906119fa565b611203565b509199508991508b9050808061120b565b60405162b14d3b60e61b8152600490fd5b60ff9150600401541615876111be565b604051630cff23e760e01b8152600490fd5b5033600052600460205283604060002054161561118f565b506000838152600360205260409020546001600160a01b031615611185565b346101ad5760203660031901126101ad57611427611913565b600e5463ffffffff82161015610afa576114409061194f565b5063ffffffff81541690600281015490600381015460048201549060405193848560206001870154928381520160018197016000526020600020926000905b80600783011061161e576114d5945491818110611607575b8181106115ee575b8181106115d4575b8181106115ba575b8181106115a0575b818110611586575b81811061156c575b1061155e575b500386611a09565b604051946101008087019787526020870152518096526101208501936000965b8088106115405750508495506040850152606084015260ff81161515608084015263ffffffff8160081c1660a08401528060281c60030b60c084015260481c60030b60e08301520390f35b909460208060019263ffffffff8951168152019601970196906114f5565b60e01c8152602001896114cd565b92602060019163ffffffff8560c01c1681520193016114c7565b92602060019163ffffffff8560a01c1681520193016114bf565b92602060019163ffffffff8560801c1681520193016114b7565b92602060019163ffffffff8560601c1681520193016114af565b92602060019163ffffffff8560401c1681520193016114a7565b92602060019163ffffffff85831c16815201930161149f565b92602060019163ffffffff85168152019301611497565b916008919350610100600191865463ffffffff8116825263ffffffff8160201c16602083015263ffffffff8160401c166040830152606063ffffffff82821c1690830152608063ffffffff82821c169083015260a063ffffffff82821c169083015260c063ffffffff82821c169083015260e01c60e082015201940192018892939161147f565b346101ad5760003660031901126101ad57602063ffffffff60095416604051908152f35b346101ad5760403660031901126101ad576116e2611913565b6024356001600160a01b03818116918290036101ad5763ffffffff80931692831580156118f0575b6113c5578260005260209060048252604060002054168481151591826118e5575b50506118d35760009392935b83600052600582526040600020805482101561178b57948361175b8383979861198a565b90549060031b1c161461177957611771906119fa565b939293611737565b6040516377030a8760e11b8152600490fd5b505082600052600381526040600020848154848116156118be575b5090506000526004815260406000208363ffffffff1982541617905582600052600581526040600020908154600160401b81101561087a576117f09060019493858201815561198a565b81549060031b908488831b921b1916179055836000526005815260406000209160405193848385549182815201908195600052846000209060005b8181106118a95750505085611841910386611a09565b60405194604086019060408752518091526060860194926000905b82821061189257428689015289897f504c1b327c80c9d798b28a7007229c5354eb1631358603afc867608554e3e9378a8a038ba3005b84518116875295850195938501939083019061185c565b8254861684529286019291840191840161182b565b6001600160a01b0319161790558484816117a6565b6040516319a52a5960e31b8152600490fd5b14159050848661172b565b50821561170a565b346101ad5760003660031901126101ad5760206101a2611b2a565b6004359063ffffffff821682036101ad57565b6024359063ffffffff821682036101ad57565b600435906001600160a01b03821682036101ad57565b600e548110156108bc57600590600e600052027fbb7b4a454dc3493923482f07822329ed19e8244eff582cc204f8554c3620c3fd0190600090565b80548210156108bc5760005260206000200190600090565b6001546001600160a01b031633036119b657565b606460405162461bcd60e51b815260206004820152602060248201527f4f776e61626c653a2063616c6c6572206973206e6f7420746865206f776e65726044820152fd5b60001981146108a65760010190565b90601f8019910116810190811067ffffffffffffffff82111761087a57604052565b600391820b910b0390637fffffff198212637fffffff8313176108a657565b9060030b9060030b0190637fffffff198212637fffffff8313176108a657565b8054156108bc57600052602060002090600090565b906009548210156108bc576009600052601c8260031c7f6e1540171b6c0c960b71a7020d9f60077f6af931a8bbf590da0223dacf75c7af019260021b1690565b91909180548310156108bc57600052601c60206000208360031c019260021b1690565b600e548015611b2357600019908082019081116108a657611b029061194f565b50600481015460ff1615611b1f5763ffffffff9150541660030b90565b5090565b5060001990565b63ffffffff600954168015611b765760075460030b9060030b908115611b6057637fffffff1981146000198314166108a6570590565b634e487b7160e01b600052601260045260246000fd5b50600090565b611b858161194f565b50906002600183015410611c8e57611b9c81611c92565b919293905063ffffffff90818516958615611c855760040192611bc88454918260681c60030b90611a4a565b60030b958560030b968713611be2575b5050505050505050565b64ffffffffff1990911660089190911b64ffffffff00161783557f2b056a7f2ae4dfec88dc5458429e82a178c97e5019b817058ae7dcd455da9e859360209360ff1991611c2e91610fd0565b86600052600a84526001604060002091825416179055169284847f6fb21c4c14810ceb320306eda3d07c6738412088c17a66604afe100ae599b18284604051858152a3604051908152a33880808080808080611bd8565b50505050505050565b5050565b611c9d60019161194f565b50018054908115611d7a57611cb481939293611a6a565b92909163ffffffff809354600395861b1c1690600095828752600b9560208781526040808a2054830b99809981996001975b878910611cfc5750505050505050505093929190565b90919293949596979c9b988c99838f611d159085611abf565b9054908b1b1c169c8d8752858952878720548a0b9b8a0b8c13600014611d51575050611d44909c9b999d6119fa565b9796959493929190611ce6565b9c9d9e919a909d8d8a0b8213611d6d575b5050611d44906119fa565b9d509b50611d4438611d62565b5050600090600090600090600090565b611d938161194f565b50906002600183015410611dd55790611dc692611db1600493611c92565b93929691959094015460681c60030b83611a4a565b60030b8460030b139493929190565b505060009060009060009060009060009056fe72194f756300fff6bfc1d45660da70048be350dc1aad864b9280fa75c3ff696ca26469706673582212201138802e522703c54733dfa44f77d2520bcd0bfe355f44bf15f479d4cc831a4964736f6c63430008130033","opcodes":"PUSH1 0x80 DUP1 PUSH1 0x40 MSTORE CALLVALUE PUSH2 0x77 JUMPI PUSH1 0x1 PUSH1 0x0 DUP2 DUP2 SSTORE DUP2 SLOAD CALLER PUSH1 0x1 PUSH1 0x1 PUSH1 0xA0 SHL SUB NOT DUP3 AND DUP2 OR SWAP1 SWAP4 SSTORE PUSH1 0x1 PUSH1 0x1 PUSH1 0xA0 SHL SUB AND SWAP1 PUSH32 0x8BE0079C531659141344CD1FD0A4F28419497F9722A3DAAFE3B4186F6B6457E0 SWAP1 DUP1 LOG3 CALLER PUSH1 0x0 MSTORE PUSH1 0x2 PUSH1 0x20 MSTORE PUSH1 0x40 PUSH1 0x0 KECCAK256 PUSH1 0x1 PUSH1 0xFF NOT DUP3 SLOAD AND OR SWAP1 SSTORE PUSH2 0x1E3E SWAP1 DUP2 PUSH2 0x7D DUP3 CODECOPY RETURN JUMPDEST PUSH1 0x0 DUP1 REVERT INVALID PUSH1 0x80 PUSH1 0x40 MSTORE PUSH1 0x4 CALLDATASIZE LT ISZERO PUSH2 0x12 JUMPI PUSH1 0x0 DUP1 REVERT JUMPDEST PUSH1 0x0 CALLDATALOAD PUSH1 0xE0 SHR DUP1 PUSH4 0xFC19C78 EQ PUSH2 0x18F8 JUMPI DUP1 PUSH4 0x1F7F505C EQ PUSH2 0x335 JUMPI DUP1 PUSH4 0x21BB31E4 EQ PUSH2 0x16C9 JUMPI DUP1 PUSH4 0x22FAA41F EQ PUSH2 0x16A5 JUMPI DUP1 PUSH4 0x232775C3 EQ PUSH2 0x140E JUMPI DUP1 PUSH4 0x244AD967 EQ PUSH2 0x1144 JUMPI DUP1 PUSH4 0x315F7760 EQ PUSH2 0x10E2 JUMPI DUP1 PUSH4 0x454BBD29 EQ PUSH2 0x105A JUMPI DUP1 PUSH4 0x4698C2D5 EQ PUSH2 0x2F5 JUMPI DUP1 PUSH4 0x4A57C6D0 EQ PUSH2 0x907 JUMPI DUP1 PUSH4 0x4B45E00F EQ PUSH2 0xECF JUMPI DUP1 PUSH4 0x4E5ECF13 EQ PUSH2 0xEB3 JUMPI DUP1 PUSH4 0x533DFA35 EQ PUSH2 0xB9D JUMPI DUP1 PUSH4 0x536FFF6C EQ PUSH2 0xB5E JUMPI DUP1 PUSH4 0x598A562A EQ PUSH2 0xB1C JUMPI DUP1 PUSH4 0x5D090176 EQ PUSH2 0xA2F JUMPI DUP1 PUSH4 0x5E6FEF01 EQ PUSH2 0x99E JUMPI DUP1 PUSH4 0x70574C4B EQ PUSH2 0x467 JUMPI DUP1 PUSH4 0x715018A6 EQ PUSH2 0x941 JUMPI DUP1 PUSH4 0x81DB2284 EQ PUSH2 0x907 JUMPI DUP1 PUSH4 0x8249DEA6 EQ PUSH2 0x4A1 JUMPI DUP1 PUSH4 0x8450A681 EQ PUSH2 0x467 JUMPI DUP1 PUSH4 0x8DA5CB5B EQ PUSH2 0x43E JUMPI DUP1 PUSH4 0x9734ED62 EQ PUSH2 0x402 JUMPI DUP1 PUSH4 0xA5118BF1 EQ PUSH2 0x3E6 JUMPI DUP1 PUSH4 0xA6F587AC EQ PUSH2 0x3C5 JUMPI DUP1 PUSH4 0xB1CC1F8F EQ PUSH2 0x389 JUMPI DUP1 PUSH4 0xB3F8DF40 EQ PUSH2 0x335 JUMPI DUP1 PUSH4 0xC269014B EQ PUSH2 0x2F5 JUMPI DUP1 PUSH4 0xD5BE8C4A EQ PUSH2 0x2D9 JUMPI DUP1 PUSH4 0xDF91BE18 EQ PUSH2 0x27B JUMPI DUP1 PUSH4 0xF2FDE38B EQ PUSH2 0x1B2 JUMPI PUSH4 0xFE2B536B EQ PUSH2 0x187 JUMPI PUSH1 0x0 DUP1 REVERT JUMPDEST CALLVALUE PUSH2 0x1AD JUMPI PUSH1 0x0 CALLDATASIZE PUSH1 0x3 NOT ADD SLT PUSH2 0x1AD JUMPI PUSH1 0x20 PUSH2 0x1A2 PUSH2 0x1AE2 JUMP JUMPDEST PUSH1 0x40 MLOAD SWAP1 PUSH1 0x3 SIGNEXTEND DUP2 MSTORE RETURN JUMPDEST PUSH1 0x0 DUP1 REVERT JUMPDEST CALLVALUE PUSH2 0x1AD JUMPI PUSH1 0x20 CALLDATASIZE PUSH1 0x3 NOT ADD SLT PUSH2 0x1AD JUMPI PUSH2 0x1CB PUSH2 0x1939 JUMP JUMPDEST PUSH2 0x1D3 PUSH2 0x19A2 JUMP JUMPDEST PUSH1 0x1 PUSH1 0x1 PUSH1 0xA0 SHL SUB SWAP1 DUP2 AND SWAP1 DUP2 ISZERO PUSH2 0x227 JUMPI PUSH1 0x1 SLOAD DUP3 PUSH12 0xFFFFFFFFFFFFFFFFFFFFFFFF PUSH1 0xA0 SHL DUP3 AND OR PUSH1 0x1 SSTORE AND PUSH32 0x8BE0079C531659141344CD1FD0A4F28419497F9722A3DAAFE3B4186F6B6457E0 PUSH1 0x0 DUP1 LOG3 STOP JUMPDEST PUSH1 0x40 MLOAD PUSH3 0x461BCD PUSH1 0xE5 SHL DUP2 MSTORE PUSH1 0x20 PUSH1 0x4 DUP3 ADD MSTORE PUSH1 0x26 PUSH1 0x24 DUP3 ADD MSTORE PUSH32 0x4F776E61626C653A206E6577206F776E657220697320746865207A65726F2061 PUSH1 0x44 DUP3 ADD MSTORE PUSH6 0x646472657373 PUSH1 0xD0 SHL PUSH1 0x64 DUP3 ADD MSTORE PUSH1 0x84 SWAP1 REVERT JUMPDEST CALLVALUE PUSH2 0x1AD JUMPI PUSH1 0x40 CALLDATASIZE PUSH1 0x3 NOT ADD SLT PUSH2 0x1AD JUMPI PUSH2 0x294 PUSH2 0x1913 JUMP JUMPDEST PUSH4 0xFFFFFFFF PUSH1 0x24 CALLDATALOAD SWAP2 AND PUSH1 0x0 MSTORE PUSH1 0x5 PUSH1 0x20 MSTORE PUSH1 0x40 PUSH1 0x0 KECCAK256 DUP1 SLOAD DUP3 LT ISZERO PUSH2 0x1AD JUMPI PUSH1 0x20 SWAP2 PUSH2 0x2C0 SWAP2 PUSH2 0x198A JUMP JUMPDEST SWAP1 SLOAD PUSH1 0x40 MLOAD PUSH1 0x3 SWAP3 SWAP1 SWAP3 SHL SHR PUSH1 0x1 PUSH1 0x1 PUSH1 0xA0 SHL SUB AND DUP2 MSTORE RETURN JUMPDEST CALLVALUE PUSH2 0x1AD JUMPI PUSH1 0x0 CALLDATASIZE PUSH1 0x3 NOT ADD SLT PUSH2 0x1AD JUMPI PUSH1 0x20 PUSH1 0x40 MLOAD PUSH1 0x2 DUP2 MSTORE RETURN JUMPDEST CALLVALUE PUSH2 0x1AD JUMPI PUSH1 0x20 CALLDATASIZE PUSH1 0x3 NOT ADD SLT PUSH2 0x1AD JUMPI PUSH1 0x1 PUSH1 0x1 PUSH1 0xA0 SHL SUB PUSH2 0x316 PUSH2 0x1939 JUMP JUMPDEST AND PUSH1 0x0 MSTORE PUSH1 0x4 PUSH1 0x20 MSTORE PUSH1 0x20 PUSH4 0xFFFFFFFF PUSH1 0x40 PUSH1 0x0 KECCAK256 SLOAD AND PUSH1 0x40 MLOAD SWAP1 DUP2 MSTORE RETURN JUMPDEST CALLVALUE PUSH2 0x1AD JUMPI PUSH1 0x40 CALLDATASIZE PUSH1 0x3 NOT ADD SLT PUSH2 0x1AD JUMPI PUSH2 0x34E PUSH2 0x1913 JUMP JUMPDEST PUSH2 0x356 PUSH2 0x1926 JUMP JUMPDEST SWAP1 PUSH4 0xFFFFFFFF DUP1 SWAP2 AND PUSH1 0x0 MSTORE PUSH1 0xC PUSH1 0x20 MSTORE PUSH1 0x40 PUSH1 0x0 KECCAK256 SWAP2 AND PUSH1 0x0 MSTORE PUSH1 0x20 MSTORE PUSH1 0x20 PUSH1 0xFF PUSH1 0x40 PUSH1 0x0 KECCAK256 SLOAD AND PUSH1 0x40 MLOAD SWAP1 ISZERO ISZERO DUP2 MSTORE RETURN JUMPDEST CALLVALUE PUSH2 0x1AD JUMPI PUSH1 0x20 CALLDATASIZE PUSH1 0x3 NOT ADD SLT PUSH2 0x1AD JUMPI PUSH4 0xFFFFFFFF PUSH2 0x3A7 PUSH2 0x1913 JUMP JUMPDEST AND PUSH1 0x0 MSTORE PUSH1 0xA PUSH1 0x20 MSTORE PUSH1 0x20 PUSH1 0xFF PUSH1 0x40 PUSH1 0x0 KECCAK256 SLOAD AND PUSH1 0x40 MLOAD SWAP1 ISZERO ISZERO DUP2 MSTORE RETURN JUMPDEST CALLVALUE PUSH2 0x1AD JUMPI PUSH1 0x0 CALLDATASIZE PUSH1 0x3 NOT ADD SLT PUSH2 0x1AD JUMPI PUSH1 0x20 PUSH1 0x7 SLOAD PUSH1 0x3 SIGNEXTEND PUSH1 0x40 MLOAD SWAP1 DUP2 MSTORE RETURN JUMPDEST CALLVALUE PUSH2 0x1AD JUMPI PUSH1 0x0 CALLDATASIZE PUSH1 0x3 NOT ADD SLT PUSH2 0x1AD JUMPI PUSH1 0x20 PUSH1 0x40 MLOAD PUSH1 0x3 DUP2 MSTORE RETURN JUMPDEST CALLVALUE PUSH2 0x1AD JUMPI PUSH1 0x20 CALLDATASIZE PUSH1 0x3 NOT ADD SLT PUSH2 0x1AD JUMPI PUSH4 0xFFFFFFFF PUSH2 0x420 PUSH2 0x1913 JUMP JUMPDEST AND PUSH1 0x0 MSTORE PUSH1 0x8 PUSH1 0x20 MSTORE PUSH1 0x20 PUSH1 0xFF PUSH1 0x40 PUSH1 0x0 KECCAK256 SLOAD AND PUSH1 0x40 MLOAD SWAP1 ISZERO ISZERO DUP2 MSTORE RETURN JUMPDEST CALLVALUE PUSH2 0x1AD JUMPI PUSH1 0x0 CALLDATASIZE PUSH1 0x3 NOT ADD SLT PUSH2 0x1AD JUMPI PUSH1 0x1 SLOAD PUSH1 0x40 MLOAD PUSH1 0x1 PUSH1 0x1 PUSH1 0xA0 SHL SUB SWAP1 SWAP2 AND DUP2 MSTORE PUSH1 0x20 SWAP1 RETURN JUMPDEST CALLVALUE PUSH2 0x1AD JUMPI PUSH1 0x20 CALLDATASIZE PUSH1 0x3 NOT ADD SLT PUSH2 0x1AD JUMPI PUSH4 0xFFFFFFFF PUSH2 0x485 PUSH2 0x1913 JUMP JUMPDEST AND PUSH1 0x0 MSTORE PUSH1 0xB PUSH1 0x20 MSTORE PUSH1 0x20 PUSH1 0x40 PUSH1 0x0 KECCAK256 SLOAD PUSH1 0x3 SIGNEXTEND PUSH1 0x40 MLOAD SWAP1 DUP2 MSTORE RETURN JUMPDEST CALLVALUE PUSH2 0x1AD JUMPI PUSH1 0x20 CALLDATASIZE PUSH1 0x3 NOT ADD SLT PUSH2 0x1AD JUMPI PUSH2 0x4BA PUSH2 0x1913 JUMP JUMPDEST PUSH1 0xE SLOAD DUP1 ISZERO ISZERO DUP1 PUSH2 0x8E4 JUMPI JUMPDEST PUSH2 0x8D2 JUMPI PUSH1 0x40 MLOAD SWAP2 PUSH2 0x120 DUP4 ADD DUP4 DUP2 LT PUSH8 0xFFFFFFFFFFFFFFFF DUP3 GT OR PUSH2 0x87A JUMPI PUSH1 0x40 MSTORE PUSH1 0x0 DUP4 MSTORE PUSH1 0x60 PUSH1 0x20 DUP5 ADD MSTORE PUSH1 0x0 PUSH1 0x40 DUP5 ADD MSTORE PUSH1 0x0 PUSH1 0x60 DUP5 ADD MSTORE PUSH1 0x0 PUSH1 0x80 DUP5 ADD MSTORE PUSH1 0x0 PUSH1 0xA0 DUP5 ADD MSTORE PUSH1 0x0 PUSH1 0xC0 DUP5 ADD MSTORE PUSH1 0x0 PUSH1 0xE0 DUP5 ADD MSTORE PUSH1 0x0 PUSH2 0x100 DUP5 ADD MSTORE PUSH1 0xD SLOAD PUSH4 0xFFFFFFFF DUP1 DUP3 AND EQ PUSH2 0x8A6 JUMPI DUP1 PUSH4 0xFFFFFFFF PUSH1 0x1 DUP2 DUP1 SWAP5 AND ADD AND DUP3 NOT DUP3 AND OR PUSH1 0xD SSTORE AND DUP4 MSTORE PUSH1 0x40 MLOAD DUP1 PUSH1 0x40 DUP2 ADD LT PUSH8 0xFFFFFFFFFFFFFFFF PUSH1 0x40 DUP4 ADD GT OR PUSH2 0x87A JUMPI PUSH1 0x40 DUP2 ADD PUSH1 0x40 MSTORE PUSH1 0x1 DUP2 MSTORE PUSH1 0x20 CALLDATASIZE DUP2 DUP4 ADD CALLDATACOPY DUP1 PUSH1 0x20 DUP6 ADD MSTORE DUP1 MLOAD ISZERO PUSH2 0x8BC JUMPI PUSH1 0x20 PUSH4 0xFFFFFFFF DUP4 AND SWAP2 ADD MSTORE TIMESTAMP PUSH1 0x40 DUP5 ADD MSTORE PUSH3 0x278D00 TIMESTAMP ADD TIMESTAMP GT PUSH2 0x8A6 JUMPI PUSH3 0x278D00 TIMESTAMP ADD PUSH1 0x60 DUP5 ADD MSTORE PUSH1 0x1 PUSH1 0x80 DUP5 ADD MSTORE PUSH1 0x0 PUSH1 0xE0 DUP5 ADD MSTORE PUSH1 0x7 SLOAD PUSH1 0x3 SIGNEXTEND PUSH2 0x100 DUP5 ADD MSTORE PUSH1 0x1 PUSH1 0x40 SHL SWAP2 DUP3 DUP2 LT ISZERO PUSH2 0x87A JUMPI DUP1 PUSH1 0x1 PUSH2 0x5EB SWAP3 ADD PUSH1 0xE SSTORE PUSH2 0x194F JUMP JUMPDEST SWAP3 SWAP1 SWAP3 PUSH2 0x890 JUMPI PUSH4 0xFFFFFFFF DUP5 MLOAD AND PUSH4 0xFFFFFFFF NOT DUP5 SLOAD AND OR DUP4 SSTORE PUSH1 0x20 DUP5 ADD MLOAD DUP1 MLOAD SWAP2 PUSH8 0xFFFFFFFFFFFFFFFF DUP4 GT PUSH2 0x87A JUMPI DUP3 GT PUSH2 0x87A JUMPI PUSH1 0x1 DUP5 ADD SLOAD DUP3 PUSH1 0x1 DUP7 ADD SSTORE DUP1 DUP4 LT PUSH2 0x811 JUMPI JUMPDEST POP PUSH1 0x20 ADD SWAP1 PUSH1 0x1 DUP5 ADD PUSH1 0x0 MSTORE PUSH1 0x20 PUSH1 0x0 KECCAK256 SWAP1 PUSH1 0x0 JUMPDEST DUP2 PUSH1 0x3 SHR DUP2 LT PUSH2 0x7CE JUMPI POP PUSH1 0x7 NOT DUP2 AND DUP2 SUB PUSH2 0x751 JUMPI JUMPDEST POP POP POP PUSH1 0x40 PUSH4 0xFFFFFFFF PUSH32 0x4610B24BBFB857173E063B234E3A2475409BF5921C3F541F435EB016C5AAD89F SWAP3 DUP2 DUP4 DUP8 ADD MLOAD SWAP7 DUP8 PUSH1 0x2 DUP9 ADD SSTORE PUSH2 0x73F PUSH1 0x4 PUSH1 0x60 DUP4 ADD MLOAD SWAP9 DUP10 PUSH1 0x3 DUP3 ADD SSTORE ADD PUSH2 0x6C8 PUSH1 0x80 DUP5 ADD MLOAD ISZERO ISZERO DUP3 SWAP1 PUSH1 0xFF DUP1 NOT DUP4 SLOAD AND SWAP2 ISZERO ISZERO AND OR SWAP1 SSTORE JUMP JUMPDEST PUSH1 0xA0 DUP4 ADD MLOAD DUP2 SLOAD PUSH1 0xC0 DUP6 ADD MLOAD PUSH1 0xE0 DUP7 ADD MLOAD PUSH2 0x100 DUP8 ADD MLOAD PUSH1 0x68 SHL PUSH4 0xFFFFFFFF PUSH1 0x68 SHL AND PUSH1 0x48 SWAP2 SWAP1 SWAP2 SHL PUSH4 0xFFFFFFFF PUSH1 0x48 SHL AND PUSH1 0x28 SWAP3 SWAP1 SWAP3 SHL PUSH9 0xFFFFFFFF0000000000 AND SWAP4 DUP9 AND PUSH1 0x8 SHL PUSH5 0xFFFFFFFF00 AND PUSH17 0xFFFFFFFFFFFFFFFFFFFFFFFFFFFFFFFF00 NOT SWAP1 SWAP4 AND SWAP3 SWAP1 SWAP3 OR SWAP3 SWAP1 SWAP3 OR SWAP2 SWAP1 SWAP2 OR OR SWAP1 SSTORE JUMP JUMPDEST MLOAD AND SWAP5 DUP4 MLOAD SWAP7 DUP8 MSTORE PUSH1 0x20 DUP8 ADD MSTORE AND SWAP4 LOG3 STOP JUMPDEST PUSH1 0x0 SWAP3 PUSH1 0x0 JUMPDEST PUSH1 0x7 NOT DUP4 AND DUP4 SUB DUP2 LT PUSH2 0x798 JUMPI POP POP PUSH1 0x3 SHR ADD SSTORE PUSH1 0x40 PUSH4 0xFFFFFFFF PUSH32 0x4610B24BBFB857173E063B234E3A2475409BF5921C3F541F435EB016C5AAD89F PUSH2 0x662 JUMP JUMPDEST SWAP1 SWAP4 PUSH1 0x20 PUSH2 0x7C5 PUSH1 0x1 SWAP3 PUSH4 0xFFFFFFFF DUP9 MLOAD AND SWAP1 DUP6 PUSH1 0x2 SHL PUSH1 0x3 SHL SWAP2 PUSH4 0xFFFFFFFF DUP1 SWAP2 AND DUP4 SHL SWAP3 SHL NOT AND OR SWAP1 JUMP JUMPDEST SWAP6 ADD SWAP2 ADD PUSH2 0x757 JUMP JUMPDEST PUSH1 0x0 DUP1 JUMPDEST PUSH1 0x8 DUP2 LT PUSH2 0x7E7 JUMPI POP DUP4 DUP3 ADD SSTORE PUSH1 0x1 ADD PUSH2 0x64B JUMP JUMPDEST DUP6 MLOAD SWAP1 SWAP6 SWAP2 PUSH1 0x1 SWAP2 PUSH1 0x20 SWAP2 PUSH4 0xFFFFFFFF PUSH1 0x5 DUP11 SWAP1 SHL DUP2 DUP2 SHL NOT SWAP1 SWAP3 AND SWAP3 AND SWAP1 SHL OR SWAP3 ADD SWAP6 ADD PUSH2 0x7D2 JUMP JUMPDEST PUSH1 0x1 DUP6 ADD PUSH1 0x0 MSTORE PUSH1 0x20 PUSH1 0x0 KECCAK256 PUSH1 0x1C DUP5 PUSH1 0x2 SHL AND DUP1 PUSH2 0x857 JUMPI JUMPDEST POP PUSH1 0x7 DUP5 ADD PUSH1 0x3 SHR DUP2 ADD JUMPDEST PUSH1 0x7 DUP4 ADD PUSH1 0x3 SHR DUP3 ADD DUP2 LT PUSH2 0x84B JUMPI POP POP PUSH2 0x636 JUMP JUMPDEST PUSH1 0x0 DUP2 SSTORE PUSH1 0x1 ADD PUSH2 0x835 JUMP JUMPDEST PUSH1 0x0 NOT SWAP1 DUP2 PUSH1 0x7 DUP8 ADD PUSH1 0x3 SHR DUP5 ADD ADD SWAP2 DUP3 SLOAD SWAP2 PUSH1 0x20 SUB PUSH1 0x3 SHL SHR AND SWAP1 SSTORE DUP8 PUSH2 0x82A JUMP JUMPDEST PUSH4 0x4E487B71 PUSH1 0xE0 SHL PUSH1 0x0 MSTORE PUSH1 0x41 PUSH1 0x4 MSTORE PUSH1 0x24 PUSH1 0x0 REVERT JUMPDEST PUSH4 0x4E487B71 PUSH1 0xE0 SHL PUSH1 0x0 MSTORE PUSH1 0x0 PUSH1 0x4 MSTORE PUSH1 0x24 PUSH1 0x0 REVERT JUMPDEST PUSH4 0x4E487B71 PUSH1 0xE0 SHL PUSH1 0x0 MSTORE PUSH1 0x11 PUSH1 0x4 MSTORE PUSH1 0x24 PUSH1 0x0 REVERT JUMPDEST PUSH4 0x4E487B71 PUSH1 0xE0 SHL PUSH1 0x0 MSTORE PUSH1 0x32 PUSH1 0x4 MSTORE PUSH1 0x24 PUSH1 0x0 REVERT JUMPDEST PUSH1 0x40 MLOAD PUSH4 0xECA88737 PUSH1 0xE0 SHL DUP2 MSTORE PUSH1 0x4 SWAP1 REVERT JUMPDEST POP PUSH1 0x0 NOT DUP2 ADD DUP2 DUP2 GT PUSH2 0x8A6 JUMPI PUSH1 0x4 PUSH2 0x8FE PUSH1 0xFF SWAP3 PUSH2 0x194F JUMP JUMPDEST POP ADD SLOAD AND PUSH2 0x4C6 JUMP JUMPDEST CALLVALUE PUSH2 0x1AD JUMPI PUSH1 0x20 CALLDATASIZE PUSH1 0x3 NOT ADD SLT PUSH2 0x1AD JUMPI PUSH4 0xFFFFFFFF PUSH2 0x925 PUSH2 0x1913 JUMP JUMPDEST AND PUSH1 0x0 MSTORE PUSH1 0x6 PUSH1 0x20 MSTORE PUSH1 0x20 PUSH1 0x40 PUSH1 0x0 KECCAK256 SLOAD PUSH1 0x3 SIGNEXTEND PUSH1 0x40 MLOAD SWAP1 DUP2 MSTORE RETURN JUMPDEST CALLVALUE PUSH2 0x1AD JUMPI PUSH1 0x0 CALLDATASIZE PUSH1 0x3 NOT ADD SLT PUSH2 0x1AD JUMPI PUSH2 0x95A PUSH2 0x19A2 JUMP JUMPDEST PUSH1 0x1 DUP1 SLOAD PUSH1 0x1 PUSH1 0x1 PUSH1 0xA0 SHL SUB NOT DUP2 AND SWAP1 SWAP2 SSTORE PUSH1 0x0 SWAP1 PUSH1 0x1 PUSH1 0x1 PUSH1 0xA0 SHL SUB AND PUSH32 0x8BE0079C531659141344CD1FD0A4F28419497F9722A3DAAFE3B4186F6B6457E0 DUP3 DUP1 LOG3 STOP JUMPDEST CALLVALUE PUSH2 0x1AD JUMPI PUSH1 0x20 CALLDATASIZE PUSH1 0x3 NOT ADD SLT PUSH2 0x1AD JUMPI PUSH1 0x4 CALLDATALOAD PUSH1 0xE SLOAD DUP2 LT ISZERO PUSH2 0x1AD JUMPI PUSH2 0x9C8 PUSH2 0x100 SWAP2 PUSH2 0x194F JUMP JUMPDEST POP PUSH4 0xFFFFFFFF SWAP1 DUP2 DUP2 SLOAD AND SWAP2 PUSH1 0x2 DUP3 ADD SLOAD SWAP2 PUSH1 0x4 PUSH1 0x3 DUP3 ADD SLOAD SWAP2 ADD SLOAD SWAP3 PUSH1 0x40 MLOAD SWAP5 DUP6 MSTORE PUSH1 0x20 DUP6 ADD MSTORE PUSH1 0x40 DUP5 ADD MSTORE PUSH1 0xFF DUP3 AND ISZERO ISZERO PUSH1 0x60 DUP5 ADD MSTORE DUP2 PUSH1 0x8 SHR AND PUSH1 0x80 DUP4 ADD MSTORE DUP1 PUSH1 0x28 SHR PUSH1 0x3 SIGNEXTEND PUSH1 0xA0 DUP4 ADD MSTORE DUP1 PUSH1 0x48 SHR PUSH1 0x3 SIGNEXTEND PUSH1 0xC0 DUP4 ADD MSTORE PUSH1 0x68 SHR PUSH1 0x3 SIGNEXTEND PUSH1 0xE0 DUP3 ADD MSTORE RETURN JUMPDEST CALLVALUE PUSH2 0x1AD JUMPI PUSH1 0x40 CALLDATASIZE PUSH1 0x3 NOT ADD SLT PUSH2 0x1AD JUMPI PUSH2 0xA48 PUSH2 0x1913 JUMP JUMPDEST PUSH2 0xA50 PUSH2 0x1926 JUMP JUMPDEST PUSH1 0xE SLOAD SWAP1 PUSH4 0xFFFFFFFF SWAP3 DUP4 DUP2 AND SWAP3 DUP4 LT ISZERO PUSH2 0xAFA JUMPI PUSH2 0xA6E DUP2 PUSH2 0x194F JUMP JUMPDEST POP PUSH1 0x3 DUP2 ADD SLOAD TIMESTAMP GT SWAP1 DUP2 ISZERO PUSH2 0xB0C JUMPI JUMPDEST POP PUSH2 0xAFA JUMPI PUSH2 0xA8E PUSH1 0x1 SWAP2 PUSH2 0x194F JUMP JUMPDEST POP ADD DUP1 SLOAD SWAP1 PUSH1 0x1 PUSH1 0x40 SHL DUP3 LT ISZERO PUSH2 0x87A JUMPI DUP2 PUSH2 0xAB2 SWAP2 PUSH1 0x1 PUSH2 0xAD1 SWAP5 ADD DUP2 SSTORE PUSH2 0x1ABF JUMP JUMPDEST SWAP5 SWAP1 SWAP3 AND DUP1 SWAP5 DUP4 SLOAD SWAP1 PUSH1 0x3 SHL SWAP2 PUSH4 0xFFFFFFFF DUP1 SWAP2 AND DUP4 SHL SWAP3 SHL NOT AND OR SWAP1 JUMP JUMPDEST SWAP1 SSTORE PUSH32 0x2497EDD456DA400FDF8E24A5943FAEBBA37FC1A396BE5FF9EF6105AEDE63E26B PUSH1 0x0 DUP1 LOG3 STOP JUMPDEST PUSH1 0x40 MLOAD PUSH4 0x87448985 PUSH1 0xE0 SHL DUP2 MSTORE PUSH1 0x4 SWAP1 REVERT JUMPDEST PUSH1 0xFF SWAP2 POP PUSH1 0x4 ADD SLOAD AND ISZERO DUP6 PUSH2 0xA7E JUMP JUMPDEST CALLVALUE PUSH2 0x1AD JUMPI PUSH1 0x20 CALLDATASIZE PUSH1 0x3 NOT ADD SLT PUSH2 0x1AD JUMPI PUSH1 0x1 PUSH1 0x1 PUSH1 0xA0 SHL SUB PUSH2 0xB3D PUSH2 0x1939 JUMP JUMPDEST AND PUSH1 0x0 MSTORE PUSH1 0x4 PUSH1 0x20 MSTORE PUSH1 0x20 PUSH4 0xFFFFFFFF PUSH1 0x40 PUSH1 0x0 KECCAK256 SLOAD AND ISZERO ISZERO PUSH1 0x40 MLOAD SWAP1 DUP2 MSTORE RETURN JUMPDEST CALLVALUE PUSH2 0x1AD JUMPI PUSH1 0x20 CALLDATASIZE PUSH1 0x3 NOT ADD SLT PUSH2 0x1AD JUMPI PUSH1 0x1 PUSH1 0x1 PUSH1 0xA0 SHL SUB PUSH2 0xB7F PUSH2 0x1939 JUMP JUMPDEST AND PUSH1 0x0 MSTORE PUSH1 0x2 PUSH1 0x20 MSTORE PUSH1 0x20 PUSH1 0xFF PUSH1 0x40 PUSH1 0x0 KECCAK256 SLOAD AND PUSH1 0x40 MLOAD SWAP1 ISZERO ISZERO DUP2 MSTORE RETURN JUMPDEST CALLVALUE PUSH2 0x1AD JUMPI PUSH1 0x60 CALLDATASIZE PUSH1 0x3 NOT ADD SLT PUSH2 0x1AD JUMPI PUSH2 0xBB6 PUSH2 0x1913 JUMP JUMPDEST PUSH1 0x24 DUP1 CALLDATALOAD SWAP2 PUSH1 0x3 SWAP1 DUP4 DUP3 SIGNEXTEND SWAP2 DUP3 DUP6 SUB PUSH2 0x1AD JUMPI PUSH1 0x44 CALLDATALOAD SWAP2 DUP3 ISZERO ISZERO SWAP2 DUP3 DUP5 SUB PUSH2 0x1AD JUMPI CALLER PUSH1 0x0 MSTORE PUSH1 0x20 SWAP2 PUSH1 0x2 DUP4 MSTORE PUSH1 0xFF PUSH1 0x40 PUSH1 0x0 KECCAK256 SLOAD AND ISZERO PUSH2 0xEA1 JUMPI PUSH4 0xFFFFFFFF DUP1 SWAP2 AND SWAP8 DUP9 PUSH1 0x0 MSTORE PUSH1 0x6 DUP5 MSTORE PUSH1 0x40 PUSH1 0x0 KECCAK256 SLOAD DUP4 SIGNEXTEND SWAP6 PUSH1 0x0 EQ PUSH2 0xE92 JUMPI PUSH2 0xC1C SWAP1 DUP7 PUSH2 0x1A4A JUMP JUMPDEST PUSH1 0x0 DUP7 SGT SWAP6 DUP7 ISZERO PUSH2 0xE89 JUMPI SWAP3 JUMPDEST DUP2 DUP2 SIGNEXTEND SWAP7 PUSH2 0xC43 PUSH1 0x0 DUP10 SGT SWAP6 DUP7 PUSH1 0x0 EQ PUSH2 0xE82 JUMPI DUP5 PUSH2 0x1A2B JUMP JUMPDEST SWAP5 PUSH2 0xC53 PUSH1 0x7 SLOAD SWAP7 DUP8 DUP6 SIGNEXTEND PUSH2 0x1A4A JUMP JUMPDEST DUP6 AND PUSH4 0xFFFFFFFF NOT DUP1 SWAP8 AND OR PUSH1 0x7 SSTORE DUP2 ISZERO DUP1 PUSH2 0xE7B JUMPI JUMPDEST ISZERO PUSH2 0xD2D JUMPI POP POP POP SWAP1 SWAP2 SWAP3 SWAP4 SWAP5 SWAP6 SWAP7 DUP9 PUSH1 0x0 MSTORE PUSH1 0x8 DUP6 MSTORE PUSH1 0x40 PUSH1 0x0 KECCAK256 PUSH1 0x1 PUSH1 0xFF NOT DUP3 SLOAD AND OR SWAP1 SSTORE PUSH1 0x9 SLOAD SWAP1 PUSH1 0x1 PUSH1 0x40 SHL DUP3 LT ISZERO PUSH2 0xD19 JUMPI POP SWAP2 PUSH1 0x0 DUP1 MLOAD PUSH1 0x20 PUSH2 0x1DE9 DUP4 CODECOPY DUP2 MLOAD SWAP2 MSTORE SWAP8 SWAP6 SWAP4 SWAP2 DUP10 PUSH2 0xCE9 PUSH2 0xCCE DUP7 PUSH1 0x1 PUSH1 0x80 SWAP13 SWAP11 SWAP9 ADD PUSH1 0x9 SSTORE PUSH2 0x1A7F JUMP JUMPDEST DUP2 SWAP4 SWAP2 SLOAD SWAP1 PUSH1 0x3 SHL SWAP2 PUSH4 0xFFFFFFFF DUP1 SWAP2 AND DUP4 SHL SWAP3 SHL NOT AND OR SWAP1 JUMP JUMPDEST SWAP1 SSTORE JUMPDEST DUP10 PUSH1 0x0 MSTORE PUSH1 0x6 DUP5 MSTORE PUSH1 0x40 PUSH1 0x0 KECCAK256 SWAP3 DUP4 SLOAD AND SWAP2 AND OR SWAP1 SSTORE PUSH1 0x40 MLOAD SWAP4 DUP5 MSTORE DUP4 ADD MSTORE PUSH1 0x40 DUP3 ADD MSTORE TIMESTAMP PUSH1 0x60 DUP3 ADD MSTORE LOG2 STOP JUMPDEST PUSH4 0x4E487B71 PUSH1 0xE0 SHL PUSH1 0x0 SWAP1 DUP2 MSTORE PUSH1 0x41 PUSH1 0x4 MSTORE REVERT JUMPDEST DUP2 PUSH2 0xE72 JUMPI JUMPDEST POP PUSH2 0xD59 JUMPI JUMPDEST POP PUSH1 0x0 DUP1 MLOAD PUSH1 0x20 PUSH2 0x1DE9 DUP4 CODECOPY DUP2 MLOAD SWAP2 MSTORE SWAP8 POP SWAP1 PUSH1 0x80 SWAP7 SWAP6 SWAP5 SWAP4 SWAP3 SWAP2 PUSH2 0xCEC JUMP JUMPDEST PUSH1 0x0 DUP11 DUP2 MSTORE PUSH1 0x8 DUP7 MSTORE PUSH1 0x40 DUP2 KECCAK256 DUP1 SLOAD PUSH1 0xFF NOT AND SWAP1 SSTORE JUMPDEST PUSH1 0x9 DUP1 SLOAD DUP1 DUP4 LT ISZERO PUSH2 0xE4F JUMPI DUP13 DUP7 PUSH2 0xD86 DUP6 PUSH2 0x1A7F JUMP JUMPDEST SWAP1 SLOAD SWAP1 DUP8 SHL SHR AND EQ PUSH2 0xDA2 JUMPI POP POP PUSH2 0xD9D SWAP1 PUSH2 0x19FA JUMP JUMPDEST PUSH2 0xD6F JUMP JUMPDEST SWAP2 PUSH1 0x0 SWAP12 SWAP2 SWAP4 SWAP5 SWAP6 SWAP7 SWAP8 SWAP9 SWAP10 SWAP11 SWAP12 NOT SWAP3 DUP4 DUP2 ADD SWAP1 DUP2 GT PUSH2 0xE3A JUMPI PUSH2 0xCCE DUP9 PUSH2 0xDCC PUSH2 0xDD9 SWAP4 PUSH2 0x1A7F JUMP JUMPDEST SWAP1 SLOAD SWAP1 DUP10 SHL SHR AND SWAP3 PUSH2 0x1A7F JUMP JUMPDEST SWAP1 SSTORE DUP3 SLOAD SWAP1 DUP2 ISZERO PUSH2 0xE26 JUMPI POP SWAP2 DUP6 PUSH1 0x80 SWAP11 SWAP9 SWAP7 SWAP5 SWAP3 PUSH1 0x0 DUP1 MLOAD PUSH1 0x20 PUSH2 0x1DE9 DUP4 CODECOPY DUP2 MLOAD SWAP2 MSTORE SWAP13 SWAP11 SWAP9 SWAP7 SWAP5 ADD SWAP3 PUSH2 0xE0D DUP5 PUSH2 0x1A7F JUMP JUMPDEST DUP2 SWAP4 SWAP2 SLOAD SWAP3 SHL SHL NOT AND SWAP1 SSTORE SSTORE JUMPDEST SWAP1 SWAP2 SWAP3 SWAP4 SWAP5 SWAP6 SWAP7 PUSH2 0xD39 JUMP JUMPDEST PUSH4 0x4E487B71 PUSH1 0xE0 SHL PUSH1 0x0 SWAP1 DUP2 MSTORE PUSH1 0x31 PUSH1 0x4 MSTORE REVERT JUMPDEST DUP3 PUSH4 0x4E487B71 PUSH1 0xE0 SHL PUSH1 0x0 MSTORE PUSH1 0x11 PUSH1 0x4 MSTORE PUSH1 0x0 REVERT JUMPDEST POP POP POP POP PUSH1 0x0 DUP1 MLOAD PUSH1 0x20 PUSH2 0x1DE9 DUP4 CODECOPY DUP2 MLOAD SWAP2 MSTORE SWAP8 POP SWAP1 PUSH1 0x80 SWAP7 SWAP6 SWAP5 SWAP4 SWAP3 SWAP2 PUSH2 0xE1A JUMP JUMPDEST SWAP1 POP ISZERO DUP12 PUSH2 0xD33 JUMP JUMPDEST POP DUP1 PUSH2 0xC6A JUMP JUMPDEST PUSH1 0x0 PUSH2 0x1A2B JUMP JUMPDEST POP PUSH1 0x0 SWAP3 PUSH2 0xC29 JUMP JUMPDEST PUSH2 0xE9C SWAP1 DUP7 PUSH2 0x1A2B JUMP JUMPDEST PUSH2 0xC1C JUMP JUMPDEST PUSH1 0x40 MLOAD PUSH4 0x5C427CD9 PUSH1 0xE0 SHL DUP2 MSTORE PUSH1 0x4 SWAP1 REVERT JUMPDEST CALLVALUE PUSH2 0x1AD JUMPI PUSH1 0x0 CALLDATASIZE PUSH1 0x3 NOT ADD SLT PUSH2 0x1AD JUMPI PUSH1 0x20 PUSH1 0x40 MLOAD PUSH1 0x1 DUP2 MSTORE RETURN JUMPDEST CALLVALUE PUSH2 0x1AD JUMPI PUSH1 0x20 DUP1 PUSH1 0x3 NOT CALLDATASIZE ADD SLT PUSH2 0x1AD JUMPI PUSH2 0xEE9 PUSH2 0x1913 JUMP JUMPDEST SWAP1 PUSH1 0xE SLOAD PUSH4 0xFFFFFFFF SWAP3 DUP4 DUP2 AND SWAP2 DUP3 LT ISZERO PUSH2 0xAFA JUMPI PUSH2 0xF0F SWAP1 PUSH2 0xF0A PUSH2 0x19A2 JUMP JUMPDEST PUSH2 0x194F JUMP JUMPDEST POP SWAP2 PUSH1 0x4 DUP4 ADD SWAP4 DUP5 SLOAD SWAP4 PUSH1 0xFF DUP6 AND ISZERO PUSH2 0xAFA JUMPI PUSH1 0x1 ADD SWAP5 DUP6 SLOAD SWAP1 DUP2 ISZERO PUSH2 0x1048 JUMPI PUSH1 0xFF NOT SWAP6 DUP7 AND DUP2 SSTORE DUP3 PUSH2 0xF41 DUP9 PUSH2 0x1A6A JUMP JUMPDEST SWAP5 SWAP1 SLOAD PUSH1 0x3 SWAP6 DUP7 SHL SHR AND SWAP1 DUP2 PUSH1 0x0 MSTORE PUSH1 0xB SWAP4 DUP5 DUP8 MSTORE PUSH1 0x40 PUSH1 0x0 KECCAK256 SLOAD DUP7 SIGNEXTEND SWAP5 PUSH1 0x1 JUMPDEST DUP3 DUP2 LT PUSH2 0xFFE JUMPI POP POP POP SWAP3 DUP1 SWAP3 PUSH2 0xFD0 DUP4 PUSH32 0x2B056A7F2AE4DFEC88DC5458429E82A178C97E5019B817058AE7DCD455DA9E85 SWAP9 SWAP8 SWAP7 PUSH2 0xFF4 SWAP6 AND SWAP11 DUP12 PUSH1 0x0 MSTORE PUSH1 0xA DUP10 MSTORE PUSH1 0x1 PUSH1 0x40 PUSH1 0x0 KECCAK256 SWAP2 DUP3 SLOAD AND OR SWAP1 SSTORE DUP3 SWAP1 PUSH5 0xFFFFFFFF00 DUP3 SLOAD SWAP2 PUSH1 0x8 SHL AND SWAP1 PUSH5 0xFFFFFFFF00 NOT AND OR SWAP1 SSTORE JUMP JUMPDEST SWAP1 DUP2 SLOAD SWAP1 PUSH1 0x28 SHL PUSH9 0xFFFFFFFF0000000000 AND SWAP1 PUSH9 0xFFFFFFFF0000000000 NOT AND OR SWAP1 SSTORE JUMP JUMPDEST PUSH1 0x40 MLOAD SWAP2 SIGNEXTEND DUP2 MSTORE LOG3 STOP JUMPDEST DUP4 PUSH2 0x1009 DUP3 DUP15 PUSH2 0x1ABF JUMP JUMPDEST SWAP1 SLOAD SWAP1 DUP11 SHL SHR AND DUP1 PUSH1 0x0 MSTORE DUP3 DUP11 MSTORE PUSH1 0x40 PUSH1 0x0 KECCAK256 SLOAD DUP10 SIGNEXTEND SWAP1 DUP9 DUP11 SIGNEXTEND DUP3 SGT PUSH2 0x103A JUMPI JUMPDEST POP POP PUSH2 0x1035 SWAP1 PUSH2 0x19FA JUMP JUMPDEST PUSH2 0xF62 JUMP JUMPDEST SWAP1 SWAP8 POP SWAP5 POP PUSH2 0x1035 DUP14 PUSH2 0x102A JUMP JUMPDEST PUSH1 0x40 MLOAD PUSH4 0x39410641 PUSH1 0xE2 SHL DUP2 MSTORE PUSH1 0x4 SWAP1 REVERT JUMPDEST CALLVALUE PUSH2 0x1AD JUMPI PUSH1 0x40 CALLDATASIZE PUSH1 0x3 NOT ADD SLT PUSH2 0x1AD JUMPI PUSH2 0x1073 PUSH2 0x1939 JUMP JUMPDEST PUSH1 0x24 CALLDATALOAD SWAP1 DUP2 ISZERO ISZERO SWAP1 DUP2 DUP4 SUB PUSH2 0x1AD JUMPI PUSH32 0xAD857FA38C9319CB80848F1EF2F924383B90297EB5D71755738FF037D100FAA1 SWAP2 PUSH2 0x10D9 PUSH1 0x20 SWAP3 PUSH2 0x10B2 PUSH2 0x19A2 JUMP JUMPDEST PUSH1 0x1 DUP1 PUSH1 0xA0 SHL SUB AND SWAP5 DUP6 PUSH1 0x0 MSTORE PUSH1 0x2 DUP5 MSTORE PUSH1 0x40 PUSH1 0x0 KECCAK256 SWAP1 PUSH1 0xFF DUP1 NOT DUP4 SLOAD AND SWAP2 ISZERO ISZERO AND OR SWAP1 SSTORE JUMP JUMPDEST PUSH1 0x40 MLOAD SWAP1 DUP2 MSTORE LOG2 STOP JUMPDEST CALLVALUE PUSH2 0x1AD JUMPI PUSH1 0x20 CALLDATASIZE PUSH1 0x3 NOT ADD SLT PUSH2 0x1AD JUMPI PUSH2 0x10FB PUSH2 0x1913 JUMP JUMPDEST PUSH1 0xE SLOAD PUSH4 0xFFFFFFFF SWAP1 DUP2 DUP4 AND LT ISZERO PUSH2 0xAFA JUMPI DUP1 PUSH2 0x1119 PUSH1 0xA0 SWAP4 PUSH2 0x1D8A JUMP JUMPDEST SWAP5 SWAP4 SWAP6 SWAP1 SWAP3 PUSH1 0x40 MLOAD SWAP7 ISZERO ISZERO DUP8 MSTORE AND PUSH1 0x20 DUP7 ADD MSTORE PUSH1 0x3 SIGNEXTEND PUSH1 0x40 DUP6 ADD MSTORE AND PUSH1 0x60 DUP4 ADD MSTORE PUSH1 0x3 SIGNEXTEND PUSH1 0x80 DUP3 ADD MSTORE RETURN JUMPDEST CALLVALUE PUSH2 0x1AD JUMPI PUSH1 0x60 CALLDATASIZE PUSH1 0x3 NOT ADD SLT PUSH2 0x1AD JUMPI PUSH2 0x115D PUSH2 0x1913 JUMP JUMPDEST PUSH2 0x1165 PUSH2 0x1926 JUMP JUMPDEST PUSH1 0x44 CALLDATALOAD SWAP2 PUSH4 0xFFFFFFFF SWAP3 DUP4 DUP2 AND DUP1 SWAP2 SUB PUSH2 0x1AD JUMPI DUP1 ISZERO DUP1 DUP2 ISZERO SWAP2 DUP3 PUSH2 0x13EF JUMPI JUMPDEST PUSH2 0x13C5 JUMPI SWAP1 PUSH2 0x13D7 JUMPI JUMPDEST PUSH2 0x13C5 JUMPI PUSH1 0xE SLOAD SWAP3 DUP5 DUP4 AND SWAP4 DUP5 LT ISZERO PUSH2 0xAFA JUMPI PUSH2 0x11AB DUP4 PUSH2 0x194F JUMP JUMPDEST POP SWAP4 PUSH1 0x3 SWAP5 DUP6 DUP2 ADD SLOAD TIMESTAMP GT SWAP1 DUP2 ISZERO PUSH2 0x13B5 JUMPI JUMPDEST POP PUSH2 0xAFA JUMPI PUSH2 0x11CC DUP5 PUSH2 0x194F JUMP JUMPDEST POP SWAP6 DUP2 PUSH1 0x0 MSTORE PUSH1 0x20 PUSH1 0xC DUP2 MSTORE PUSH1 0x40 PUSH1 0x0 KECCAK256 DUP6 PUSH1 0x0 MSTORE DUP2 MSTORE PUSH1 0xFF PUSH1 0x40 PUSH1 0x0 KECCAK256 SLOAD AND PUSH2 0x13A4 JUMPI PUSH1 0x0 SWAP7 PUSH1 0x0 SWAP5 PUSH1 0x1 SWAP1 DUP2 DUP12 ADD DUP6 DUP2 SLOAD SWAP3 AND SWAP8 JUMPDEST DUP3 DUP2 LT PUSH2 0x136D JUMPI JUMPDEST POP POP POP SWAP1 SWAP2 SWAP3 SWAP4 SWAP5 SWAP6 SWAP7 SWAP8 ISZERO PUSH2 0x135B JUMPI PUSH2 0x1310 SWAP9 PUSH32 0x1918CD6E2704E854C925442CA2CAA9EF7187126224A112077220E8316519D66 SWAP5 DUP9 PUSH1 0x0 MSTORE PUSH1 0x6 DUP6 MSTORE PUSH1 0x40 PUSH1 0x0 KECCAK256 SLOAD DUP5 SIGNEXTEND SWAP3 PUSH1 0x0 DUP5 SLT PUSH2 0x1352 JUMPI JUMPDEST SWAP2 PUSH1 0x4 SWAP2 PUSH2 0x12DE SWAP4 DUP10 PUSH1 0x0 MSTORE PUSH1 0xC DUP9 MSTORE PUSH1 0x40 PUSH1 0x0 KECCAK256 DUP13 PUSH1 0x0 MSTORE DUP9 MSTORE PUSH1 0x40 PUSH1 0x0 KECCAK256 SWAP1 PUSH1 0xFF NOT DUP3 SLOAD AND OR SWAP1 SSTORE DUP10 PUSH1 0x0 MSTORE PUSH1 0xB DUP8 MSTORE PUSH1 0x40 PUSH1 0x0 KECCAK256 SWAP1 DUP2 SLOAD SWAP1 PUSH2 0x12A2 DUP8 DUP4 DUP11 SIGNEXTEND PUSH2 0x1A4A JUMP JUMPDEST AND SWAP1 PUSH4 0xFFFFFFFF NOT AND OR SWAP1 SSTORE ADD PUSH2 0x12BF DUP4 DUP3 SLOAD PUSH1 0x48 SHR DUP7 SIGNEXTEND PUSH2 0x1A4A JUMP JUMPDEST DUP2 SLOAD SWAP1 PUSH1 0x48 SHL PUSH4 0xFFFFFFFF PUSH1 0x48 SHL AND SWAP1 PUSH4 0xFFFFFFFF PUSH1 0x48 SHL NOT AND OR SWAP1 SSTORE JUMP JUMPDEST PUSH2 0x12E7 DUP9 PUSH2 0x194F JUMP JUMPDEST POP DUP8 PUSH1 0x0 MSTORE PUSH1 0x6 DUP5 MSTORE PUSH1 0x40 PUSH1 0x0 KECCAK256 SLOAD DUP4 SIGNEXTEND PUSH1 0x0 DUP2 SGT PUSH2 0x1312 JUMPI JUMPDEST POP POP PUSH1 0x40 MLOAD SWAP2 SIGNEXTEND DUP2 MSTORE LOG4 PUSH2 0x1B7C JUMP JUMPDEST STOP JUMPDEST PUSH2 0x1329 PUSH1 0x4 PUSH2 0x134B SWAP4 ADD SWAP2 DUP3 SLOAD PUSH1 0x68 SHR DUP7 SIGNEXTEND PUSH2 0x1A2B JUMP JUMPDEST DUP2 SLOAD PUSH1 0x68 SWAP2 SWAP1 SWAP2 SHL PUSH4 0xFFFFFFFF PUSH1 0x68 SHL AND PUSH4 0xFFFFFFFF PUSH1 0x68 SHL NOT SWAP1 SWAP2 AND OR SWAP1 SSTORE JUMP JUMPDEST DUP10 DUP1 PUSH2 0x1301 JUMP JUMPDEST PUSH1 0x0 SWAP4 POP PUSH2 0x125B JUMP JUMPDEST PUSH1 0x40 MLOAD PUSH4 0xE66EA08F PUSH1 0xE0 SHL DUP2 MSTORE PUSH1 0x4 SWAP1 REVERT JUMPDEST DUP9 DUP8 PUSH2 0x1379 DUP4 DUP6 PUSH2 0x1ABF JUMP JUMPDEST SWAP1 SLOAD SWAP1 DUP9 SHL SHR AND EQ PUSH2 0x1393 JUMPI PUSH2 0x138E SWAP1 PUSH2 0x19FA JUMP JUMPDEST PUSH2 0x1203 JUMP JUMPDEST POP SWAP2 SWAP10 POP DUP10 SWAP2 POP DUP12 SWAP1 POP DUP1 DUP1 PUSH2 0x120B JUMP JUMPDEST PUSH1 0x40 MLOAD PUSH3 0xB14D3B PUSH1 0xE6 SHL DUP2 MSTORE PUSH1 0x4 SWAP1 REVERT JUMPDEST PUSH1 0xFF SWAP2 POP PUSH1 0x4 ADD SLOAD AND ISZERO DUP8 PUSH2 0x11BE JUMP JUMPDEST PUSH1 0x40 MLOAD PUSH4 0xCFF23E7 PUSH1 0xE0 SHL DUP2 MSTORE PUSH1 0x4 SWAP1 REVERT JUMPDEST POP CALLER PUSH1 0x0 MSTORE PUSH1 0x4 PUSH1 0x20 MSTORE DUP4 PUSH1 0x40 PUSH1 0x0 KECCAK256 SLOAD AND ISZERO PUSH2 0x118F JUMP JUMPDEST POP PUSH1 0x0 DUP4 DUP2 MSTORE PUSH1 0x3 PUSH1 0x20 MSTORE PUSH1 0x40 SWAP1 KECCAK256 SLOAD PUSH1 0x1 PUSH1 0x1 PUSH1 0xA0 SHL SUB AND ISZERO PUSH2 0x1185 JUMP JUMPDEST CALLVALUE PUSH2 0x1AD JUMPI PUSH1 0x20 CALLDATASIZE PUSH1 0x3 NOT ADD SLT PUSH2 0x1AD JUMPI PUSH2 0x1427 PUSH2 0x1913 JUMP JUMPDEST PUSH1 0xE SLOAD PUSH4 0xFFFFFFFF DUP3 AND LT ISZERO PUSH2 0xAFA JUMPI PUSH2 0x1440 SWAP1 PUSH2 0x194F JUMP JUMPDEST POP PUSH4 0xFFFFFFFF DUP2 SLOAD AND SWAP1 PUSH1 0x2 DUP2 ADD SLOAD SWAP1 PUSH1 0x3 DUP2 ADD SLOAD PUSH1 0x4 DUP3 ADD SLOAD SWAP1 PUSH1 0x40 MLOAD SWAP4 DUP5 DUP6 PUSH1 0x20 PUSH1 0x1 DUP8 ADD SLOAD SWAP3 DUP4 DUP2 MSTORE ADD PUSH1 0x1 DUP2 SWAP8 ADD PUSH1 0x0 MSTORE PUSH1 0x20 PUSH1 0x0 KECCAK256 SWAP3 PUSH1 0x0 SWAP1 JUMPDEST DUP1 PUSH1 0x7 DUP4 ADD LT PUSH2 0x161E JUMPI PUSH2 0x14D5 SWAP5 SLOAD SWAP2 DUP2 DUP2 LT PUSH2 0x1607 JUMPI JUMPDEST DUP2 DUP2 LT PUSH2 0x15EE JUMPI JUMPDEST DUP2 DUP2 LT PUSH2 0x15D4 JUMPI JUMPDEST DUP2 DUP2 LT PUSH2 0x15BA JUMPI JUMPDEST DUP2 DUP2 LT PUSH2 0x15A0 JUMPI JUMPDEST DUP2 DUP2 LT PUSH2 0x1586 JUMPI JUMPDEST DUP2 DUP2 LT PUSH2 0x156C JUMPI JUMPDEST LT PUSH2 0x155E JUMPI JUMPDEST POP SUB DUP7 PUSH2 0x1A09 JUMP JUMPDEST PUSH1 0x40 MLOAD SWAP5 PUSH2 0x100 DUP1 DUP8 ADD SWAP8 DUP8 MSTORE PUSH1 0x20 DUP8 ADD MSTORE MLOAD DUP1 SWAP7 MSTORE PUSH2 0x120 DUP6 ADD SWAP4 PUSH1 0x0 SWAP7 JUMPDEST DUP1 DUP9 LT PUSH2 0x1540 JUMPI POP POP DUP5 SWAP6 POP PUSH1 0x40 DUP6 ADD MSTORE PUSH1 0x60 DUP5 ADD MSTORE PUSH1 0xFF DUP2 AND ISZERO ISZERO PUSH1 0x80 DUP5 ADD MSTORE PUSH4 0xFFFFFFFF DUP2 PUSH1 0x8 SHR AND PUSH1 0xA0 DUP5 ADD MSTORE DUP1 PUSH1 0x28 SHR PUSH1 0x3 SIGNEXTEND PUSH1 0xC0 DUP5 ADD MSTORE PUSH1 0x48 SHR PUSH1 0x3 SIGNEXTEND PUSH1 0xE0 DUP4 ADD MSTORE SUB SWAP1 RETURN JUMPDEST SWAP1 SWAP5 PUSH1 0x20 DUP1 PUSH1 0x1 SWAP3 PUSH4 0xFFFFFFFF DUP10 MLOAD AND DUP2 MSTORE ADD SWAP7 ADD SWAP8 ADD SWAP7 SWAP1 PUSH2 0x14F5 JUMP JUMPDEST PUSH1 0xE0 SHR DUP2 MSTORE PUSH1 0x20 ADD DUP10 PUSH2 0x14CD JUMP JUMPDEST SWAP3 PUSH1 0x20 PUSH1 0x1 SWAP2 PUSH4 0xFFFFFFFF DUP6 PUSH1 0xC0 SHR AND DUP2 MSTORE ADD SWAP4 ADD PUSH2 0x14C7 JUMP JUMPDEST SWAP3 PUSH1 0x20 PUSH1 0x1 SWAP2 PUSH4 0xFFFFFFFF DUP6 PUSH1 0xA0 SHR AND DUP2 MSTORE ADD SWAP4 ADD PUSH2 0x14BF JUMP JUMPDEST SWAP3 PUSH1 0x20 PUSH1 0x1 SWAP2 PUSH4 0xFFFFFFFF DUP6 PUSH1 0x80 SHR AND DUP2 MSTORE ADD SWAP4 ADD PUSH2 0x14B7 JUMP JUMPDEST SWAP3 PUSH1 0x20 PUSH1 0x1 SWAP2 PUSH4 0xFFFFFFFF DUP6 PUSH1 0x60 SHR AND DUP2 MSTORE ADD SWAP4 ADD PUSH2 0x14AF JUMP JUMPDEST SWAP3 PUSH1 0x20 PUSH1 0x1 SWAP2 PUSH4 0xFFFFFFFF DUP6 PUSH1 0x40 SHR AND DUP2 MSTORE ADD SWAP4 ADD PUSH2 0x14A7 JUMP JUMPDEST SWAP3 PUSH1 0x20 PUSH1 0x1 SWAP2 PUSH4 0xFFFFFFFF DUP6 DUP4 SHR AND DUP2 MSTORE ADD SWAP4 ADD PUSH2 0x149F JUMP JUMPDEST SWAP3 PUSH1 0x20 PUSH1 0x1 SWAP2 PUSH4 0xFFFFFFFF DUP6 AND DUP2 MSTORE ADD SWAP4 ADD PUSH2 0x1497 JUMP JUMPDEST SWAP2 PUSH1 0x8 SWAP2 SWAP4 POP PUSH2 0x100 PUSH1 0x1 SWAP2 DUP7 SLOAD PUSH4 0xFFFFFFFF DUP2 AND DUP3 MSTORE PUSH4 0xFFFFFFFF DUP2 PUSH1 0x20 SHR AND PUSH1 0x20 DUP4 ADD MSTORE PUSH4 0xFFFFFFFF DUP2 PUSH1 0x40 SHR AND PUSH1 0x40 DUP4 ADD MSTORE PUSH1 0x60 PUSH4 0xFFFFFFFF DUP3 DUP3 SHR AND SWAP1 DUP4 ADD MSTORE PUSH1 0x80 PUSH4 0xFFFFFFFF DUP3 DUP3 SHR AND SWAP1 DUP4 ADD MSTORE PUSH1 0xA0 PUSH4 0xFFFFFFFF DUP3 DUP3 SHR AND SWAP1 DUP4 ADD MSTORE PUSH1 0xC0 PUSH4 0xFFFFFFFF DUP3 DUP3 SHR AND SWAP1 DUP4 ADD MSTORE PUSH1 0xE0 SHR PUSH1 0xE0 DUP3 ADD MSTORE ADD SWAP5 ADD SWAP3 ADD DUP9 SWAP3 SWAP4 SWAP2 PUSH2 0x147F JUMP JUMPDEST CALLVALUE PUSH2 0x1AD JUMPI PUSH1 0x0 CALLDATASIZE PUSH1 0x3 NOT ADD SLT PUSH2 0x1AD JUMPI PUSH1 0x20 PUSH4 0xFFFFFFFF PUSH1 0x9 SLOAD AND PUSH1 0x40 MLOAD SWAP1 DUP2 MSTORE RETURN JUMPDEST CALLVALUE PUSH2 0x1AD JUMPI PUSH1 0x40 CALLDATASIZE PUSH1 0x3 NOT ADD SLT PUSH2 0x1AD JUMPI PUSH2 0x16E2 PUSH2 0x1913 JUMP JUMPDEST PUSH1 0x24 CALLDATALOAD PUSH1 0x1 PUSH1 0x1 PUSH1 0xA0 SHL SUB DUP2 DUP2 AND SWAP2 DUP3 SWAP1 SUB PUSH2 0x1AD JUMPI PUSH4 0xFFFFFFFF DUP1 SWAP4 AND SWAP3 DUP4 ISZERO DUP1 ISZERO PUSH2 0x18F0 JUMPI JUMPDEST PUSH2 0x13C5 JUMPI DUP3 PUSH1 0x0 MSTORE PUSH1 0x20 SWAP1 PUSH1 0x4 DUP3 MSTORE PUSH1 0x40 PUSH1 0x0 KECCAK256 SLOAD AND DUP5 DUP2 ISZERO ISZERO SWAP2 DUP3 PUSH2 0x18E5 JUMPI JUMPDEST POP POP PUSH2 0x18D3 JUMPI PUSH1 0x0 SWAP4 SWAP3 SWAP4 JUMPDEST DUP4 PUSH1 0x0 MSTORE PUSH1 0x5 DUP3 MSTORE PUSH1 0x40 PUSH1 0x0 KECCAK256 DUP1 SLOAD DUP3 LT ISZERO PUSH2 0x178B JUMPI SWAP5 DUP4 PUSH2 0x175B DUP4 DUP4 SWAP8 SWAP9 PUSH2 0x198A JUMP JUMPDEST SWAP1 SLOAD SWAP1 PUSH1 0x3 SHL SHR AND EQ PUSH2 0x1779 JUMPI PUSH2 0x1771 SWAP1 PUSH2 0x19FA JUMP JUMPDEST SWAP4 SWAP3 SWAP4 PUSH2 0x1737 JUMP JUMPDEST PUSH1 0x40 MLOAD PUSH4 0x77030A87 PUSH1 0xE1 SHL DUP2 MSTORE PUSH1 0x4 SWAP1 REVERT JUMPDEST POP POP DUP3 PUSH1 0x0 MSTORE PUSH1 0x3 DUP2 MSTORE PUSH1 0x40 PUSH1 0x0 KECCAK256 DUP5 DUP2 SLOAD DUP5 DUP2 AND ISZERO PUSH2 0x18BE JUMPI JUMPDEST POP SWAP1 POP PUSH1 0x0 MSTORE PUSH1 0x4 DUP2 MSTORE PUSH1 0x40 PUSH1 0x0 KECCAK256 DUP4 PUSH4 0xFFFFFFFF NOT DUP3 SLOAD AND OR SWAP1 SSTORE DUP3 PUSH1 0x0 MSTORE PUSH1 0x5 DUP2 MSTORE PUSH1 0x40 PUSH1 0x0 KECCAK256 SWAP1 DUP2 SLOAD PUSH1 0x1 PUSH1 0x40 SHL DUP2 LT ISZERO PUSH2 0x87A JUMPI PUSH2 0x17F0 SWAP1 PUSH1 0x1 SWAP5 SWAP4 DUP6 DUP3 ADD DUP2 SSTORE PUSH2 0x198A JUMP JUMPDEST DUP2 SLOAD SWAP1 PUSH1 0x3 SHL SWAP1 DUP5 DUP9 DUP4 SHL SWAP3 SHL NOT AND OR SWAP1 SSTORE DUP4 PUSH1 0x0 MSTORE PUSH1 0x5 DUP2 MSTORE PUSH1 0x40 PUSH1 0x0 KECCAK256 SWAP2 PUSH1 0x40 MLOAD SWAP4 DUP5 DUP4 DUP6 SLOAD SWAP2 DUP3 DUP2 MSTORE ADD SWAP1 DUP2 SWAP6 PUSH1 0x0 MSTORE DUP5 PUSH1 0x0 KECCAK256 SWAP1 PUSH1 0x0 JUMPDEST DUP2 DUP2 LT PUSH2 0x18A9 JUMPI POP POP POP DUP6 PUSH2 0x1841 SWAP2 SUB DUP7 PUSH2 0x1A09 JUMP JUMPDEST PUSH1 0x40 MLOAD SWAP5 PUSH1 0x40 DUP7 ADD SWAP1 PUSH1 0x40 DUP8 MSTORE MLOAD DUP1 SWAP2 MSTORE PUSH1 0x60 DUP7 ADD SWAP5 SWAP3 PUSH1 0x0 SWAP1 JUMPDEST DUP3 DUP3 LT PUSH2 0x1892 JUMPI TIMESTAMP DUP7 DUP10 ADD MSTORE DUP10 DUP10 PUSH32 0x504C1B327C80C9D798B28A7007229C5354EB1631358603AFC867608554E3E937 DUP11 DUP11 SUB DUP12 LOG3 STOP JUMPDEST DUP5 MLOAD DUP2 AND DUP8 MSTORE SWAP6 DUP6 ADD SWAP6 SWAP4 DUP6 ADD SWAP4 SWAP1 DUP4 ADD SWAP1 PUSH2 0x185C JUMP JUMPDEST DUP3 SLOAD DUP7 AND DUP5 MSTORE SWAP3 DUP7 ADD SWAP3 SWAP2 DUP5 ADD SWAP2 DUP5 ADD PUSH2 0x182B JUMP JUMPDEST PUSH1 0x1 PUSH1 0x1 PUSH1 0xA0 SHL SUB NOT AND OR SWAP1 SSTORE DUP5 DUP5 DUP2 PUSH2 0x17A6 JUMP JUMPDEST PUSH1 0x40 MLOAD PUSH4 0x19A52A59 PUSH1 0xE3 SHL DUP2 MSTORE PUSH1 0x4 SWAP1 REVERT JUMPDEST EQ ISZERO SWAP1 POP DUP5 DUP7 PUSH2 0x172B JUMP JUMPDEST POP DUP3 ISZERO PUSH2 0x170A JUMP JUMPDEST CALLVALUE PUSH2 0x1AD JUMPI PUSH1 0x0 CALLDATASIZE PUSH1 0x3 NOT ADD SLT PUSH2 0x1AD JUMPI PUSH1 0x20 PUSH2 0x1A2 PUSH2 0x1B2A JUMP JUMPDEST PUSH1 0x4 CALLDATALOAD SWAP1 PUSH4 0xFFFFFFFF DUP3 AND DUP3 SUB PUSH2 0x1AD JUMPI JUMP JUMPDEST PUSH1 0x24 CALLDATALOAD SWAP1 PUSH4 0xFFFFFFFF DUP3 AND DUP3 SUB PUSH2 0x1AD JUMPI JUMP JUMPDEST PUSH1 0x4 CALLDATALOAD SWAP1 PUSH1 0x1 PUSH1 0x1 PUSH1 0xA0 SHL SUB DUP3 AND DUP3 SUB PUSH2 0x1AD JUMPI JUMP JUMPDEST PUSH1 0xE SLOAD DUP2 LT ISZERO PUSH2 0x8BC JUMPI PUSH1 0x5 SWAP1 PUSH1 0xE PUSH1 0x0 MSTORE MUL PUSH32 0xBB7B4A454DC3493923482F07822329ED19E8244EFF582CC204F8554C3620C3FD ADD SWAP1 PUSH1 0x0 SWAP1 JUMP JUMPDEST DUP1 SLOAD DUP3 LT ISZERO PUSH2 0x8BC JUMPI PUSH1 0x0 MSTORE PUSH1 0x20 PUSH1 0x0 KECCAK256 ADD SWAP1 PUSH1 0x0 SWAP1 JUMP JUMPDEST PUSH1 0x1 SLOAD PUSH1 0x1 PUSH1 0x1 PUSH1 0xA0 SHL SUB AND CALLER SUB PUSH2 0x19B6 JUMPI JUMP JUMPDEST PUSH1 0x64 PUSH1 0x40 MLOAD PUSH3 0x461BCD PUSH1 0xE5 SHL DUP2 MSTORE PUSH1 0x20 PUSH1 0x4 DUP3 ADD MSTORE PUSH1 0x20 PUSH1 0x24 DUP3 ADD MSTORE PUSH32 0x4F776E61626C653A2063616C6C6572206973206E6F7420746865206F776E6572 PUSH1 0x44 DUP3 ADD MSTORE REVERT JUMPDEST PUSH1 0x0 NOT DUP2 EQ PUSH2 0x8A6 JUMPI PUSH1 0x1 ADD SWAP1 JUMP JUMPDEST SWAP1 PUSH1 0x1F DUP1 NOT SWAP2 ADD AND DUP2 ADD SWAP1 DUP2 LT PUSH8 0xFFFFFFFFFFFFFFFF DUP3 GT OR PUSH2 0x87A JUMPI PUSH1 0x40 MSTORE JUMP JUMPDEST PUSH1 0x3 SWAP2 DUP3 SIGNEXTEND SWAP2 SIGNEXTEND SUB SWAP1 PUSH4 0x7FFFFFFF NOT DUP3 SLT PUSH4 0x7FFFFFFF DUP4 SGT OR PUSH2 0x8A6 JUMPI JUMP JUMPDEST SWAP1 PUSH1 0x3 SIGNEXTEND SWAP1 PUSH1 0x3 SIGNEXTEND ADD SWAP1 PUSH4 0x7FFFFFFF NOT DUP3 SLT PUSH4 0x7FFFFFFF DUP4 SGT OR PUSH2 0x8A6 JUMPI JUMP JUMPDEST DUP1 SLOAD ISZERO PUSH2 0x8BC JUMPI PUSH1 0x0 MSTORE PUSH1 0x20 PUSH1 0x0 KECCAK256 SWAP1 PUSH1 0x0 SWAP1 JUMP JUMPDEST SWAP1 PUSH1 0x9 SLOAD DUP3 LT ISZERO PUSH2 0x8BC JUMPI PUSH1 0x9 PUSH1 0x0 MSTORE PUSH1 0x1C DUP3 PUSH1 0x3 SHR PUSH32 0x6E1540171B6C0C960B71A7020D9F60077F6AF931A8BBF590DA0223DACF75C7AF ADD SWAP3 PUSH1 0x2 SHL AND SWAP1 JUMP JUMPDEST SWAP2 SWAP1 SWAP2 DUP1 SLOAD DUP4 LT ISZERO PUSH2 0x8BC JUMPI PUSH1 0x0 MSTORE PUSH1 0x1C PUSH1 0x20 PUSH1 0x0 KECCAK256 DUP4 PUSH1 0x3 SHR ADD SWAP3 PUSH1 0x2 SHL AND SWAP1 JUMP JUMPDEST PUSH1 0xE SLOAD DUP1 ISZERO PUSH2 0x1B23 JUMPI PUSH1 0x0 NOT SWAP1 DUP1 DUP3 ADD SWAP1 DUP2 GT PUSH2 0x8A6 JUMPI PUSH2 0x1B02 SWAP1 PUSH2 0x194F JUMP JUMPDEST POP PUSH1 0x4 DUP2 ADD SLOAD PUSH1 0xFF AND ISZERO PUSH2 0x1B1F JUMPI PUSH4 0xFFFFFFFF SWAP2 POP SLOAD AND PUSH1 0x3 SIGNEXTEND SWAP1 JUMP JUMPDEST POP SWAP1 JUMP JUMPDEST POP PUSH1 0x0 NOT SWAP1 JUMP JUMPDEST PUSH4 0xFFFFFFFF PUSH1 0x9 SLOAD AND DUP1 ISZERO PUSH2 0x1B76 JUMPI PUSH1 0x7 SLOAD PUSH1 0x3 SIGNEXTEND SWAP1 PUSH1 0x3 SIGNEXTEND SWAP1 DUP2 ISZERO PUSH2 0x1B60 JUMPI PUSH4 0x7FFFFFFF NOT DUP2 EQ PUSH1 0x0 NOT DUP4 EQ AND PUSH2 0x8A6 JUMPI SDIV SWAP1 JUMP JUMPDEST PUSH4 0x4E487B71 PUSH1 0xE0 SHL PUSH1 0x0 MSTORE PUSH1 0x12 PUSH1 0x4 MSTORE PUSH1 0x24 PUSH1 0x0 REVERT JUMPDEST POP PUSH1 0x0 SWAP1 JUMP JUMPDEST PUSH2 0x1B85 DUP2 PUSH2 0x194F JUMP JUMPDEST POP SWAP1 PUSH1 0x2 PUSH1 0x1 DUP4 ADD SLOAD LT PUSH2 0x1C8E JUMPI PUSH2 0x1B9C DUP2 PUSH2 0x1C92 JUMP JUMPDEST SWAP2 SWAP3 SWAP4 SWAP1 POP PUSH4 0xFFFFFFFF SWAP1 DUP2 DUP6 AND SWAP6 DUP7 ISZERO PUSH2 0x1C85 JUMPI PUSH1 0x4 ADD SWAP3 PUSH2 0x1BC8 DUP5 SLOAD SWAP2 DUP3 PUSH1 0x68 SHR PUSH1 0x3 SIGNEXTEND SWAP1 PUSH2 0x1A4A JUMP JUMPDEST PUSH1 0x3 SIGNEXTEND SWAP6 DUP6 PUSH1 0x3 SIGNEXTEND SWAP7 DUP8 SGT PUSH2 0x1BE2 JUMPI JUMPDEST POP POP POP POP POP POP POP POP JUMP JUMPDEST PUSH5 0xFFFFFFFFFF NOT SWAP1 SWAP2 AND PUSH1 0x8 SWAP2 SWAP1 SWAP2 SHL PUSH5 0xFFFFFFFF00 AND OR DUP4 SSTORE PUSH32 0x2B056A7F2AE4DFEC88DC5458429E82A178C97E5019B817058AE7DCD455DA9E85 SWAP4 PUSH1 0x20 SWAP4 PUSH1 0xFF NOT SWAP2 PUSH2 0x1C2E SWAP2 PUSH2 0xFD0 JUMP JUMPDEST DUP7 PUSH1 0x0 MSTORE PUSH1 0xA DUP5 MSTORE PUSH1 0x1 PUSH1 0x40 PUSH1 0x0 KECCAK256 SWAP2 DUP3 SLOAD AND OR SWAP1 SSTORE AND SWAP3 DUP5 DUP5 PUSH32 0x6FB21C4C14810CEB320306EDA3D07C6738412088C17A66604AFE100AE599B182 DUP5 PUSH1 0x40 MLOAD DUP6 DUP2 MSTORE LOG3 PUSH1 0x40 MLOAD SWAP1 DUP2 MSTORE LOG3 CODESIZE DUP1 DUP1 DUP1 DUP1 DUP1 DUP1 DUP1 PUSH2 0x1BD8 JUMP JUMPDEST POP POP POP POP POP POP POP JUMP JUMPDEST POP POP JUMP JUMPDEST PUSH2 0x1C9D PUSH1 0x1 SWAP2 PUSH2 0x194F JUMP JUMPDEST POP ADD DUP1 SLOAD SWAP1 DUP2 ISZERO PUSH2 0x1D7A JUMPI PUSH2 0x1CB4 DUP2 SWAP4 SWAP3 SWAP4 PUSH2 0x1A6A JUMP JUMPDEST SWAP3 SWAP1 SWAP2 PUSH4 0xFFFFFFFF DUP1 SWAP4 SLOAD PUSH1 0x3 SWAP6 DUP7 SHL SHR AND SWAP1 PUSH1 0x0 SWAP6 DUP3 DUP8 MSTORE PUSH1 0xB SWAP6 PUSH1 0x20 DUP8 DUP2 MSTORE PUSH1 0x40 DUP1 DUP11 KECCAK256 SLOAD DUP4 SIGNEXTEND SWAP10 DUP1 SWAP10 DUP2 SWAP10 PUSH1 0x1 SWAP8 JUMPDEST DUP8 DUP10 LT PUSH2 0x1CFC JUMPI POP POP POP POP POP POP POP POP POP SWAP4 SWAP3 SWAP2 SWAP1 JUMP JUMPDEST SWAP1 SWAP2 SWAP3 SWAP4 SWAP5 SWAP6 SWAP7 SWAP8 SWAP13 SWAP12 SWAP9 DUP13 SWAP10 DUP4 DUP16 PUSH2 0x1D15 SWAP1 DUP6 PUSH2 0x1ABF JUMP JUMPDEST SWAP1 SLOAD SWAP1 DUP12 SHL SHR AND SWAP13 DUP14 DUP8 MSTORE DUP6 DUP10 MSTORE DUP8 DUP8 KECCAK256 SLOAD DUP11 SIGNEXTEND SWAP12 DUP11 SIGNEXTEND DUP13 SGT PUSH1 0x0 EQ PUSH2 0x1D51 JUMPI POP POP PUSH2 0x1D44 SWAP1 SWAP13 SWAP12 SWAP10 SWAP14 PUSH2 0x19FA JUMP JUMPDEST SWAP8 SWAP7 SWAP6 SWAP5 SWAP4 SWAP3 SWAP2 SWAP1 PUSH2 0x1CE6 JUMP JUMPDEST SWAP13 SWAP14 SWAP15 SWAP2 SWAP11 SWAP1 SWAP14 DUP14 DUP11 SIGNEXTEND DUP3 SGT PUSH2 0x1D6D JUMPI JUMPDEST POP POP PUSH2 0x1D44 SWAP1 PUSH2 0x19FA JUMP JUMPDEST SWAP14 POP SWAP12 POP PUSH2 0x1D44 CODESIZE PUSH2 0x1D62 JUMP JUMPDEST POP POP PUSH1 0x0 SWAP1 PUSH1 0x0 SWAP1 PUSH1 0x0 SWAP1 PUSH1 0x0 SWAP1 JUMP JUMPDEST PUSH2 0x1D93 DUP2 PUSH2 0x194F JUMP JUMPDEST POP SWAP1 PUSH1 0x2 PUSH1 0x1 DUP4 ADD SLOAD LT PUSH2 0x1DD5 JUMPI SWAP1 PUSH2 0x1DC6 SWAP3 PUSH2 0x1DB1 PUSH1 0x4 SWAP4 PUSH2 0x1C92 JUMP JUMPDEST SWAP4 SWAP3 SWAP7 SWAP2 SWAP6 SWAP1 SWAP5 ADD SLOAD PUSH1 0x68 SHR PUSH1 0x3 SIGNEXTEND DUP4 PUSH2 0x1A4A JUMP JUMPDEST PUSH1 0x3 SIGNEXTEND DUP5 PUSH1 0x3 SIGNEXTEND SGT SWAP5 SWAP4 SWAP3 SWAP2 SWAP1 JUMP JUMPDEST POP POP PUSH1 0x0 SWAP1 PUSH1 0x0 SWAP1 PUSH1 0x0 SWAP1 PUSH1 0x0 SWAP1 PUSH1 0x0 SWAP1 JUMP INVALID PUSH19 0x194F756300FFF6BFC1D45660DA70048BE350DC BYTE 0xAD DUP7 0x4B SWAP3 DUP1 STATICCALL PUSH22 0xC3FF696CA26469706673582212201138802E522703C5 SELFBALANCE CALLER 0xDF LOG4 0x4F PUSH24 0xD2520BCD0BFE355F44BF15F479D4CC831A4964736F6C6343 STOP ADDMOD SGT STOP CALLER "},"methodIdentifiers":{"REPUTATION_GAIN_BY_COVERING_LOAN()":"d5be8c4a","REPUTATION_GAIN_BY_REPAYNG_DEBT()":"4e5ecf13","REPUTATION_LOSS_BY_DEBT_NOT_PAYD()":"a5118bf1","addCandidate(uint32,uint32)":"5d090176","authorizedCallers(address)":"536fff6c","checkUnbeatableMajority(uint32)":"315f7760","closeElection(uint32)":"4b45e00f","elections(uint256)":"5e6fef01","getActiveMemberCount()":"22faa41f","getAverageReputation()":"0fc19c78","getCandidateVotes(uint32)":"70574c4b","getCurrentElectionId()":"fe2b536b","getElectionInfo(uint32)":"232775c3","getMemberId(address)":"c269014b","getReputation(uint32)":"81db2284","hasMemberVoted(uint32,uint32)":"1f7f505c","hasVotedInElection(uint32,uint32)":"b3f8df40","isMemberActive(uint32)":"9734ed62","isModerator(uint32)":"b1cc1f8f","isWalletVinculated(address)":"598a562a","memberReputation(uint32)":"4a57c6d0","moderatorVotesReceived(uint32)":"8450a681","openElection(uint32)":"8249dea6","owner()":"8da5cb5b","renounceOwnership()":"715018a6","reputationChange(uint32,int32,bool)":"533dfa35","setAuthorizedCaller(address,bool)":"454bbd29","totalPotentialVotes()":"a6f587ac","transferOwnership(address)":"f2fde38b","vinculationMemberToWallet(uint32,address)":"21bb31e4","voteForModerator(uint32,uint32,uint32)":"244ad967","walletToMemberId(address)":"4698c2d5","walletsOfMember(uint32,uint256)":"df91be18"}}}}}