{"contracts/LoanMachine.sol":{"LoanMachine":{"abi":[{"inputs":[{"internalType":"address","name":"_usdtToken","type":"address"},{"internalType":"address","name":"_reputationSystem","type":"address"}],"stateMutability":"nonpayable","type":"constructor"},{"inputs":[],"name":"BorrowNotExpired","type":"error"},{"inputs":[],"name":"ExcessiveDonation","type":"error"},{"inputs":[],"name":"InsufficientDonationBalance","type":"error"},{"inputs":[],"name":"InsufficientFunds","type":"error"},{"inputs":[],"name":"InvalidAmount","type":"error"},{"inputs":[],"name":"InvalidCoveragePercentage","type":"error"},{"inputs":[],"name":"InvalidParcelsCount","type":"error"},{"inputs":[],"name":"LoanNotAvailable","type":"error"},{"inputs":[],"name":"MaxLoanRequisitionPendingReached","type":"error"},{"inputs":[],"name":"MemberIdOrWalletInvalid","type":"error"},{"inputs":[],"name":"MinimumDonationRequired","type":"error"},{"inputs":[],"name":"MinimumPercentageCover","type":"error"},{"inputs":[],"name":"NoActiveBorrowing","type":"error"},{"inputs":[],"name":"OverCoverage","type":"error"},{"inputs":[],"name":"ParcelAlreadyPaid","type":"error"},{"inputs":[],"name":"RepaymentExceedsBorrowed","type":"error"},{"inputs":[],"name":"TokenTransferFailed","type":"error"},{"inputs":[],"name":"WalletAlreadyVinculated","type":"error"},{"anonymous":false,"inputs":[{"indexed":false,"internalType":"uint256","name":"total","type":"uint256"}],"name":"AvailableBalanceUpdated","type":"event"},{"anonymous":false,"inputs":[{"indexed":true,"internalType":"address","name":"borrower","type":"address"}],"name":"BorrowLimitReached","type":"event"},{"anonymous":false,"inputs":[{"indexed":true,"internalType":"address","name":"borrower","type":"address"},{"indexed":false,"internalType":"uint256","name":"amount","type":"uint256"},{"indexed":false,"internalType":"uint256","name":"totalBorrowing","type":"uint256"}],"name":"Borrowed","type":"event"},{"anonymous":false,"inputs":[{"indexed":true,"internalType":"address","name":"borrower","type":"address"},{"indexed":false,"internalType":"enum DebtTracker.DebtStatus","name":"newStatus","type":"uint8"}],"name":"BorrowerStatusUpdated","type":"event"},{"anonymous":false,"inputs":[{"indexed":true,"internalType":"address","name":"borrower","type":"address"}],"name":"DebtorAdded","type":"event"},{"anonymous":false,"inputs":[{"indexed":true,"internalType":"address","name":"borrower","type":"address"}],"name":"DebtorRemoved","type":"event"},{"anonymous":false,"inputs":[{"indexed":true,"internalType":"address","name":"donor","type":"address"},{"indexed":false,"internalType":"uint256","name":"amount","type":"uint256"},{"indexed":false,"internalType":"uint256","name":"totalDonation","type":"uint256"}],"name":"Donated","type":"event"},{"anonymous":false,"inputs":[{"indexed":true,"internalType":"uint256","name":"requisitionId","type":"uint256"},{"indexed":true,"internalType":"address","name":"lender","type":"address"},{"indexed":false,"internalType":"uint256","name":"amount","type":"uint256"}],"name":"LenderRepaid","type":"event"},{"anonymous":false,"inputs":[{"indexed":true,"internalType":"uint256","name":"requisitionId","type":"uint256"}],"name":"LoanCompleted","type":"event"},{"anonymous":false,"inputs":[{"indexed":true,"internalType":"address","name":"walletAddress","type":"address"},{"indexed":true,"internalType":"uint256","name":"requisitionId","type":"uint256"},{"indexed":false,"internalType":"enum ILoanMachine.ContractStatus","name":"status","type":"uint8"},{"indexed":false,"internalType":"uint32","name":"parcelsPending","type":"uint32"},{"indexed":false,"internalType":"uint256","name":"parcelsValues","type":"uint256"},{"indexed":false,"internalType":"uint256[]","name":"paymentDates","type":"uint256[]"}],"name":"LoanContractGenerated","type":"event"},{"anonymous":false,"inputs":[{"indexed":true,"internalType":"uint256","name":"requisitionId","type":"uint256"},{"indexed":true,"internalType":"address","name":"lender","type":"address"},{"indexed":false,"internalType":"uint256","name":"coverageAmount","type":"uint256"}],"name":"LoanCovered","type":"event"},{"anonymous":false,"inputs":[{"indexed":true,"internalType":"uint256","name":"requisitionId","type":"uint256"}],"name":"LoanFunded","type":"event"},{"anonymous":false,"inputs":[{"indexed":true,"internalType":"uint256","name":"requisitionId","type":"uint256"},{"indexed":true,"internalType":"address","name":"borrower","type":"address"},{"indexed":false,"internalType":"uint256","name":"amount","type":"uint256"},{"indexed":false,"internalType":"uint32","name":"parcelsCount","type":"uint32"}],"name":"LoanRequisitionCreated","type":"event"},{"anonymous":false,"inputs":[{"indexed":false,"internalType":"uint256","name":"timestamp","type":"uint256"}],"name":"MonthlyUpdateTriggered","type":"event"},{"anonymous":false,"inputs":[{"indexed":true,"internalType":"address","name":"borrower","type":"address"}],"name":"NewBorrower","type":"event"},{"anonymous":false,"inputs":[{"indexed":true,"internalType":"address","name":"donor","type":"address"}],"name":"NewDonor","type":"event"},{"anonymous":false,"inputs":[{"indexed":true,"internalType":"uint256","name":"requisitionId","type":"uint256"},{"indexed":false,"internalType":"uint256","name":"parcelsRemaining","type":"uint256"}],"name":"ParcelPaid","type":"event"},{"anonymous":false,"inputs":[{"indexed":true,"internalType":"address","name":"borrower","type":"address"},{"indexed":false,"internalType":"uint256","name":"amount","type":"uint256"},{"indexed":false,"internalType":"uint256","name":"remainingDebt","type":"uint256"}],"name":"Repaid","type":"event"},{"anonymous":false,"inputs":[{"indexed":false,"internalType":"uint256","name":"total","type":"uint256"}],"name":"TotalBorrowedUpdated","type":"event"},{"anonymous":false,"inputs":[{"indexed":false,"internalType":"uint256","name":"total","type":"uint256"}],"name":"TotalDonationsUpdated","type":"event"},{"inputs":[{"internalType":"address[]","name":"borrowers","type":"address[]"}],"name":"batchUpdateDebtStatus","outputs":[],"stateMutability":"nonpayable","type":"function"},{"inputs":[{"internalType":"address","name":"","type":"address"},{"internalType":"uint256","name":"","type":"uint256"}],"name":"borrowerRequisitions","outputs":[{"internalType":"uint256","name":"","type":"uint256"}],"stateMutability":"view","type":"function"},{"inputs":[{"internalType":"uint256","name":"requisitionId","type":"uint256"},{"internalType":"address","name":"borrower","type":"address"}],"name":"canPayRequisition","outputs":[{"internalType":"bool","name":"","type":"bool"}],"stateMutability":"view","type":"function"},{"inputs":[{"internalType":"address","name":"_user","type":"address"},{"internalType":"uint256","name":"_amount","type":"uint256"}],"name":"canUserBorrow","outputs":[{"internalType":"bool","name":"","type":"bool"}],"stateMutability":"view","type":"function"},{"inputs":[{"internalType":"uint256","name":"requisitionId","type":"uint256"},{"internalType":"uint32","name":"coveragePercentage","type":"uint32"},{"internalType":"uint32","name":"memberId","type":"uint32"}],"name":"coverLoan","outputs":[],"stateMutability":"nonpayable","type":"function"},{"inputs":[{"internalType":"uint256","name":"amount","type":"uint256"},{"internalType":"uint32","name":"minimumCoverage","type":"uint32"},{"internalType":"uint256","name":"durationDays","type":"uint256"},{"internalType":"uint32","name":"parcelscount","type":"uint32"},{"internalType":"uint32","name":"memberId","type":"uint32"}],"name":"createLoanRequisition","outputs":[{"internalType":"uint256","name":"","type":"uint256"}],"stateMutability":"nonpayable","type":"function"},{"inputs":[{"internalType":"uint256","name":"amount","type":"uint256"},{"internalType":"uint32","name":"memberId","type":"uint32"}],"name":"donate","outputs":[],"stateMutability":"nonpayable","type":"function"},{"inputs":[{"internalType":"address","name":"borrower","type":"address"}],"name":"getActiveLoans","outputs":[{"components":[{"internalType":"address","name":"walletAddress","type":"address"},{"internalType":"uint256","name":"requisitionId","type":"uint256"},{"internalType":"enum ILoanMachine.ContractStatus","name":"status","type":"uint8"},{"internalType":"uint32","name":"parcelsCount","type":"uint32"},{"internalType":"uint32","name":"parcelsPending","type":"uint32"},{"internalType":"uint256","name":"parcelsValues","type":"uint256"},{"internalType":"uint256[]","name":"paymentDates","type":"uint256[]"}],"internalType":"struct ILoanMachine.LoanContract[]","name":"activeLoans","type":"tuple[]"},{"internalType":"uint256[]","name":"requisitionIds","type":"uint256[]"}],"stateMutability":"view","type":"function"},{"inputs":[{"internalType":"address","name":"user","type":"address"}],"name":"getAllowance","outputs":[{"internalType":"uint256","name":"","type":"uint256"}],"stateMutability":"view","type":"function"},{"inputs":[],"name":"getAvailableBalance","outputs":[{"internalType":"uint256","name":"","type":"uint256"}],"stateMutability":"view","type":"function"},{"inputs":[],"name":"getAvailableBorrowAmount","outputs":[{"internalType":"uint256","name":"","type":"uint256"}],"stateMutability":"view","type":"function"},{"inputs":[{"internalType":"address","name":"borrower","type":"address"}],"name":"getBorrowerDebtStatus","outputs":[{"internalType":"enum DebtTracker.DebtStatus","name":"","type":"uint8"}],"stateMutability":"view","type":"function"},{"inputs":[{"internalType":"address","name":"borrower","type":"address"}],"name":"getBorrowerRequisitions","outputs":[{"internalType":"uint256[]","name":"","type":"uint256[]"}],"stateMutability":"view","type":"function"},{"inputs":[],"name":"getBorrowersWithDebt","outputs":[{"internalType":"address[]","name":"","type":"address[]"}],"stateMutability":"view","type":"function"},{"inputs":[],"name":"getBorrowersWithoutDebt","outputs":[{"internalType":"address[]","name":"","type":"address[]"}],"stateMutability":"view","type":"function"},{"inputs":[{"internalType":"address","name":"_user","type":"address"}],"name":"getBorrowing","outputs":[{"internalType":"uint256","name":"","type":"uint256"}],"stateMutability":"view","type":"function"},{"inputs":[],"name":"getContractBalance","outputs":[{"internalType":"uint256","name":"","type":"uint256"}],"stateMutability":"view","type":"function"},{"inputs":[{"internalType":"uint256","name":"requisitionId","type":"uint256"}],"name":"getCoveringLenders","outputs":[{"internalType":"address[]","name":"","type":"address[]"}],"stateMutability":"view","type":"function"},{"inputs":[{"internalType":"address","name":"_user","type":"address"}],"name":"getDonation","outputs":[{"internalType":"uint256","name":"","type":"uint256"}],"stateMutability":"view","type":"function"},{"inputs":[{"internalType":"address","name":"lender","type":"address"}],"name":"getDonationsInCoverage","outputs":[{"internalType":"uint256","name":"","type":"uint256"}],"stateMutability":"view","type":"function"},{"inputs":[{"internalType":"address","name":"_user","type":"address"}],"name":"getLastBorrowTime","outputs":[{"internalType":"uint256","name":"","type":"uint256"}],"stateMutability":"view","type":"function"},{"inputs":[{"internalType":"uint256","name":"requisitionId","type":"uint256"},{"internalType":"address","name":"lender","type":"address"}],"name":"getLenderCoverage","outputs":[{"internalType":"uint256","name":"","type":"uint256"}],"stateMutability":"view","type":"function"},{"inputs":[{"internalType":"uint256","name":"requisitionId","type":"uint256"}],"name":"getLoanContract","outputs":[{"components":[{"internalType":"address","name":"walletAddress","type":"address"},{"internalType":"uint256","name":"requisitionId","type":"uint256"},{"internalType":"enum ILoanMachine.ContractStatus","name":"status","type":"uint8"},{"internalType":"uint32","name":"parcelsCount","type":"uint32"},{"internalType":"uint32","name":"parcelsPending","type":"uint32"},{"internalType":"uint256","name":"parcelsValues","type":"uint256"},{"internalType":"uint256[]","name":"paymentDates","type":"uint256[]"}],"internalType":"struct ILoanMachine.LoanContract","name":"","type":"tuple"}],"stateMutability":"view","type":"function"},{"inputs":[{"internalType":"address","name":"wallet","type":"address"}],"name":"getMemberId","outputs":[{"internalType":"uint32","name":"","type":"uint32"}],"stateMutability":"view","type":"function"},{"inputs":[{"internalType":"uint256","name":"requisitionId","type":"uint256"}],"name":"getNextPaymentAmount","outputs":[{"internalType":"uint256","name":"paymentAmount","type":"uint256"},{"internalType":"bool","name":"canPay","type":"bool"}],"stateMutability":"view","type":"function"},{"inputs":[{"internalType":"uint256","name":"requisitionId","type":"uint256"}],"name":"getPaymentDates","outputs":[{"internalType":"uint256[]","name":"","type":"uint256[]"}],"stateMutability":"view","type":"function"},{"inputs":[{"internalType":"uint256","name":"requisitionId","type":"uint256"}],"name":"getRepaymentSummary","outputs":[{"internalType":"uint256","name":"totalRemainingDebt","type":"uint256"},{"internalType":"uint256","name":"nextPaymentAmount","type":"uint256"},{"internalType":"uint256","name":"parcelsRemaining","type":"uint256"},{"internalType":"uint256","name":"totalParcels","type":"uint256"},{"internalType":"bool","name":"isActive","type":"bool"}],"stateMutability":"view","type":"function"},{"inputs":[{"internalType":"uint32","name":"memberId","type":"uint32"}],"name":"getReputation","outputs":[{"internalType":"int32","name":"","type":"int32"}],"stateMutability":"view","type":"function"},{"inputs":[{"internalType":"uint256","name":"requisitionId","type":"uint256"}],"name":"getRequisitionInfo","outputs":[{"components":[{"internalType":"uint256","name":"requisitionId","type":"uint256"},{"internalType":"address","name":"borrower","type":"address"},{"internalType":"uint256","name":"amount","type":"uint256"},{"internalType":"uint32","name":"minimumCoverage","type":"uint32"},{"internalType":"uint32","name":"currentCoverage","type":"uint32"},{"internalType":"enum ILoanMachine.BorrowStatus","name":"status","type":"uint8"},{"internalType":"uint256","name":"durationDays","type":"uint256"},{"internalType":"uint256","name":"creationTime","type":"uint256"},{"internalType":"address[]","name":"coveringLenders","type":"address[]"},{"internalType":"uint32","name":"parcelsCount","type":"uint32"}],"internalType":"struct ILoanMachine.RequisitionInfo","name":"","type":"tuple"}],"stateMutability":"view","type":"function"},{"inputs":[],"name":"getTotalBorrowed","outputs":[{"internalType":"uint256","name":"","type":"uint256"}],"stateMutability":"view","type":"function"},{"inputs":[],"name":"getTotalDonations","outputs":[{"internalType":"uint256","name":"","type":"uint256"}],"stateMutability":"view","type":"function"},{"inputs":[],"name":"getUSDTBalance","outputs":[{"internalType":"uint256","name":"","type":"uint256"}],"stateMutability":"view","type":"function"},{"inputs":[{"internalType":"address","name":"borrower","type":"address"}],"name":"hasActiveDebt","outputs":[{"internalType":"bool","name":"","type":"bool"}],"stateMutability":"view","type":"function"},{"inputs":[{"internalType":"address","name":"borrower","type":"address"}],"name":"hasOverdueDebt","outputs":[{"internalType":"bool","name":"","type":"bool"}],"stateMutability":"view","type":"function"},{"inputs":[{"internalType":"address","name":"wallet","type":"address"}],"name":"isWalletVinculated","outputs":[{"internalType":"bool","name":"","type":"bool"}],"stateMutability":"view","type":"function"},{"inputs":[{"internalType":"uint256","name":"","type":"uint256"}],"name":"loanContracts","outputs":[{"internalType":"address","name":"walletAddress","type":"address"},{"internalType":"uint256","name":"requisitionId","type":"uint256"},{"internalType":"enum ILoanMachine.ContractStatus","name":"status","type":"uint8"},{"internalType":"uint32","name":"parcelsCount","type":"uint32"},{"internalType":"uint32","name":"parcelsPending","type":"uint32"},{"internalType":"uint256","name":"parcelsValues","type":"uint256"}],"stateMutability":"view","type":"function"},{"inputs":[],"name":"nextMonthlyUpdate","outputs":[{"internalType":"uint256","name":"","type":"uint256"}],"stateMutability":"view","type":"function"},{"inputs":[{"internalType":"uint256","name":"requisitionId","type":"uint256"},{"internalType":"uint256","name":"amount","type":"uint256"},{"internalType":"uint32","name":"memberId","type":"uint32"}],"name":"repay","outputs":[],"stateMutability":"nonpayable","type":"function"},{"inputs":[],"name":"reputationSystem","outputs":[{"internalType":"contract ReputationSystem","name":"","type":"address"}],"stateMutability":"view","type":"function"},{"inputs":[],"name":"requisitionCounter","outputs":[{"internalType":"uint256","name":"","type":"uint256"}],"stateMutability":"view","type":"function"},{"inputs":[],"name":"shouldTriggerUpdate","outputs":[{"internalType":"bool","name":"","type":"bool"}],"stateMutability":"view","type":"function"},{"inputs":[],"name":"triggerMonthlyUpdate","outputs":[],"stateMutability":"nonpayable","type":"function"},{"inputs":[{"internalType":"address","name":"borrower","type":"address"}],"name":"updateBorrowerDebtStatus","outputs":[],"stateMutability":"nonpayable","type":"function"},{"inputs":[],"name":"usdtToken","outputs":[{"internalType":"address","name":"","type":"address"}],"stateMutability":"view","type":"function"},{"inputs":[{"internalType":"uint32","name":"memberId","type":"uint32"},{"internalType":"address","name":"wallet","type":"address"}],"name":"vinculationMemberToWallet","outputs":[],"stateMutability":"nonpayable","type":"function"}],"evm":{"bytecode":{"linkReferences":{"contracts/libraries/DebtTracker.sol":{"DebtTracker":[{"length":20,"start":817},{"length":20,"start":999},{"length":20,"start":2170},{"length":20,"start":3793},{"length":20,"start":4418},{"length":20,"start":4810},{"length":20,"start":5195},{"length":20,"start":5840},{"length":20,"start":7430},{"length":20,"start":7824},{"length":20,"start":8418},{"length":20,"start":9918},{"length":20,"start":10766}]}},"object":"60a034620000c857601f620031b738819003918201601f19168301916001600160401b03831184841017620000cd578084926040948552833981010312620000c8576200005a60206200005283620000e3565b9201620000e3565b6001600081905560809290925281546001600160a01b0319166001600160a01b0390911617905562278d00600855426007556040516130be9081620000f9823960805181818161080601528181610d1101528181610e34015281816112de015281816116f60152612b6d0152f35b600080fd5b634e487b7160e01b600052604160045260246000fd5b51906001600160a01b0382168203620000c85756fe6080604052600436101561001257600080fd5b60003560e01c8063016c704f146128b75780630307c4a11461289957806303d1a1a1146126005780630bc2185314612598578063182d94b51461236e5780631b70ba3e146121c657806321bb31e414612154578063232869fa146120d6578063291c31a714611d2c5780632b31c022146120195780633403c25d14611fa4578063383ab2ef14611f5b578063410a1d3214611f215780634e51c7df14611ed6578063598a562a14611e745780636509a71014611e48578063657eb03114611e0e5780636587eda114611de55780636f9fb98a146114ca578063777c658f14611dc75780637910340014611d6a5780637d52437a14611d31578063809dab6a14611d2c57806381db228414611ca6578063827cc0e514611c6c578063830efd3b14611be057806384ddf5ea14611bc25780638a914a6314611b7f5780639059f9ca146115325780639730872a146114cf5780639785fac8146114ca57806397c33519146113f75780639e9320111461139f578063a7af69471461130d578063a98ad46c146112c8578063adceb10114611246578063b9f0fec4146111b6578063be5eb5801461117c578063c269014b146110dd578063ccdce44e1461100e578063e276392414610d78578063eb5a662e14610cca578063ecb18b341461035a578063f0853e1d146102a95763f947a8a91461020b57600080fd5b3461029057600036600319011261029057604051636ecf807360e11b81526002600482015260208160248173__$8a3883123a2a1b05b37447bdbb3fdcf5d3$__5af4801561029d57600090610266575b602090604051908152f35b506020813d8211610295575b8161027f60209383612c5c565b81010312610290576020905161025b565b600080fd5b3d9150610272565b6040513d6000823e3d90fd5b3461029057602080600319360112610290576102c36129a9565b6040516315ffae5b60e21b8152600260048201526001600160a01b039091166024820152818160448173__$8a3883123a2a1b05b37447bdbb3fdcf5d3$__5af490811561029d57600091610324575b5060405190610320816129d5565b8152f35b90508181813d8311610353575b61033b8183612c5c565b81010312610290575160038110156102905782610312565b503d610331565b3461029057606036600319011261029057610373612ae9565b63ffffffff610380612b0f565b169081158015610c69575b610c575763ffffffff8116158015610c47575b610c3557600963ffffffff82161115610c23576103b9612d4e565b600435600052601160205260406000209160038301805460ff8160401c166006811015610c0d578015159081610c01575b50610bef5761040760649163ffffffff8087169160201c16612d41565b11610bdd5761042063ffffffff84166002860154612dfd565b93670de0b6b3a7640000948581029581870414901517156109ea5768056bc75e2d630fffff85018095116109ea5733600052600b60205268056bc75e2d63100000850460406000205410610bcb5733600052600b602052604060002061049268056bc75e2d6310000087048254612d34565b905533600052601460205260406000206104b868056bc75e2d6310000087048254612d41565b9055815463ffffffff851663ffffffff8260201c160163ffffffff81116109ea5767ffffffff000000009060201b169067ffffffff0000000019161782556007810190336000528160205260406000205415610b89575b5033600052602052604060002061053268056bc75e2d6310000086048254612d41565b9055805463ffffffff811663ffffffff8260201c161015600014610b7057506802000000000000000060ff60401b19825416179055806000526015602052604060002063ffffffff198154169055600435600052601660205260406000206011602052610635604060002060018060a01b036001820154166bffffffffffffffffffffffff60a01b845416178355600435600184015563ffffffff6002808501549260ff19841682870155600881019364ffffffff00855460081b169064ffffffffff1916178287015561062a838554168388019068ffffffff000000000082549160281b169068ffffffff00000000001916179055565b015491541690612e10565b6003820155600435600052601160205263ffffffff6008604060002001541660005b8163ffffffff821610610b2157505060018060a01b038154167f5215406e88f26eed4728b9cdfc5d85cea75799101cb9387b528451e6e0878dec600283015460ff81169063ffffffff600386015491604051936106b3816129d5565b845260281c166020830152604082015260806060820152806106df600435956004608084019101612e30565b0390a36004356000526011602052604060002060018060a01b036001820154169081600052600a60205260ff6040600020541615610a87575b600360028201918254600c6020526107366040600020918254612d41565b90556107458354600f54612d41565b600f556107558354601054612d34565b60105583600052600d60205242604060002055016803000000000000000060ff60401b1982541617905573__$8a3883123a2a1b05b37447bdbb3fdcf5d3$__803b156102905760006064916040519283809263e63dd53160e01b8252600260048301528760248301526303d1a1a13060201b1760401b60448301525af4801561029d57610a78575b50805460405163a9059cbb60e01b815260048101849052602481019190915260208160448160007f00000000000000000000000000000000000000000000000000000000000000006001600160a01b03165af190811561029d57600091610a49575b5015610a375760407feae9cfbc77fdd40ca899f36b608256063b2bc9d8178b0220f7ad513e178d6730915483600052600c602052816000205482519182526020820152a27f17f13fd3f7c4712af33f1770ebcb822dd20a2dbc00850eab48d786623d97b9596020600f54604051908152a17f8b094cca6f83d49402ce208cc0c224b76625ffc58636df56ae28024e704c58686020601054604051908152a16004357f9e71d2fb732e68272b7e74ecfd14638673c1d77e19a5d390a3ffff054d57c44b600080a25b600154604051636adf462560e11b81526001600160a01b0390911692602082600481875afa91821561029d57600092610a00575b5063ffffffff1660030b9060030b028060030b9081036109ea57823b1561029057606460009283600a95604051968795869463533dfa3560e01b865260048601520560030b6024840152600160448401525af1801561029d576109db575b5068056bc75e2d631000006040519104815233907f86b47e6e6c03d769c0bc5ffd06c682ea7d07089576d59230ec18ff64e71bffe7602060043592a36001600055005b6109e490612c0f565b81610998565b634e487b7160e01b600052601160045260246000fd5b63ffffffff919250610a299060203d602011610a30575b610a218183612c5c565b810190612d1b565b919061093a565b503d610a17565b60405163022e258160e11b8152600490fd5b610a6b915060203d602011610a71575b610a638183612c5c565b810190612c7e565b8661083f565b503d610a59565b610a8190612c0f565b856107dd565b600954600160401b811015610b0b576001810180600955811015610af5577f6e1540171b6c0c960b71a7020d9f60077f6af931a8bbf590da0223dacf75c7af0180546001600160a01b031916831790556000828152600a60205260409020805460ff19166001179055610718565b634e487b7160e01b600052603260045260246000fd5b634e487b7160e01b600052604160045260246000fd5b63ffffffff610b2f82612de8565b169062278d0091808302928304036109ea57610b5c610b5363ffffffff9342612d41565b60048601612db3565b1663ffffffff81146109ea57600101610657565b68ff00000000000000001916600160401b179055610906565b6006018054600160401b811015610b0b57610ba991600182018155612bf7565b81546001600160a01b0360039290921b91821b19163390911b1790558561050f565b604051630391acf160e61b8152600490fd5b60405163955f95ad60e01b8152600490fd5b6040516380b9cb0960e01b8152600490fd5b600191501415866103ea565b634e487b7160e01b600052602160045260246000fd5b60405163f556155f60e01b8152600490fd5b60405163d1e95ed560e01b8152600490fd5b50606463ffffffff82161161039e565b604051630cff23e760e01b8152600490fd5b50600154604051632cc52b1560e11b815233600482015290602090829060249082906001600160a01b03165afa90811561029d57600091610cac575b501561038b565b610cc4915060203d8111610a7157610a638183612c5c565b83610ca5565b346102905760208060031936011261029057604481610ce76129a9565b604051636eb1769f60e11b81526001600160a01b03918216600482015230602482015292839182907f0000000000000000000000000000000000000000000000000000000000000000165afa90811561029d57600091610d4b575b50604051908152f35b90508181813d8311610d71575b610d628183612c5c565b81010312610290575182610d42565b503d610d58565b346102905760403660031901126102905760043563ffffffff610d99612ae9565b16158015610fad575b610c57578015610f9b57610db4612d4e565b604051630c47ab3d60e21b8152602090818180610dd43060048301612c96565b038173__$8a3883123a2a1b05b37447bdbb3fdcf5d3$__5af4801561029d57610f7e575b50624c4b408211610f6c576040516323b872dd60e01b815233600482015230602482015260448101839052818160648160006001600160a01b037f0000000000000000000000000000000000000000000000000000000000000000165af190811561029d57600091610f4f575b5015610a37577f8b094cca6f83d49402ce208cc0c224b76625ffc58636df56ae28024e704c58689033600052600b815260406000207fdc6e73d4b36e22ab95945bd8833a5af96c950eb29d8d75c4aecffc987637aaab82825495808701845580600e54019081600e558060105401948560105554604051918252838201527f4928895ba6723e8e27b15f32e4c3054a1b6c7f8c03f133558d6fa42b3928d14c60403392a2604051908152a1604051908152a115610f24575b6001600055005b337f072dafb6aabe3f02118bc607efbeaaa104d6b2009720c7b130f24ba418689c4b600080a2610f1d565b610f669150823d8411610a7157610a638183612c5c565b83610e65565b6040516330fdf8db60e11b8152600490fd5b610f9490823d8411610a7157610a638183612c5c565b5082610df8565b60405163162908e360e11b8152600490fd5b50600154604051632cc52b1560e11b815233600482015290602090829060249082906001600160a01b03165afa90811561029d57600091610ff0575b5015610da2565b611008915060203d8111610a7157610a638183612c5c565b82610fe9565b3461029057600036600319011261029057611027612d4e565b604051630c47ab3d60e21b8152602081806110453060048301612c96565b038173__$8a3883123a2a1b05b37447bdbb3fdcf5d3$__5af490811561029d576000916110bf575b501561107a576001600055005b60405162461bcd60e51b815260206004820152601a60248201527f4d6f6e74686c7920757064617465206e6f7420647565207965740000000000006044820152606490fd5b6110d7915060203d8111610a7157610a638183612c5c565b8161106d565b3461029057602080600319360112610290576110f76129a9565b60015460405163c269014b60e01b81526001600160a01b03928316600482015291839183916024918391165afa90811561029d57600091611142575b5063ffffffff60405191168152f35b90508181813d8311611175575b6111598183612c5c565b81010312610290575163ffffffff811681036102905782611133565b503d61114f565b34610290576020366003190112610290576001600160a01b0361119d6129a9565b16600052600c6020526020604060002054604051908152f35b34610290576020366003190112610290576111cf6129a9565b73__$8a3883123a2a1b05b37447bdbb3fdcf5d3$__90813b15610290576040805163e63dd53160e01b8152600260048201526001600160a01b0390921660248301523060201b6303d1a1a117901b604482015290600090829060649082905af4801561029d5761123b57005b61124490612c0f565b005b346102905760403660031901126102905760206112616129bf565b6004356000526016825260406000209060018060a01b038083541691161490816112ae575b81611297575b506040519015158152f35b63ffffffff91506002015460281c1615158261128c565b905060ff6002820154166112c1816129d5565b1590611286565b34610290576000366003190112610290576040517f00000000000000000000000000000000000000000000000000000000000000006001600160a01b03168152602090f35b34610290576020366003190112610290576113266129a9565b604051632de5e9bf60e01b8152600260048201526001600160a01b03909116602482015260208160448173__$8a3883123a2a1b05b37447bdbb3fdcf5d3$__5af4801561029d5760209160009161138257506040519015158152f35b6113999150823d8111610a7157610a638183612c5c565b8261128c565b34610290576040366003190112610290576113b86129a9565b6001600160a01b0316600090815260136020526040902080546024359190821015610290576020916113e991612bf7565b90546040519160031b1c8152f35b34610290576040366003190112610290576114106129a9565b60243580151590816114bd575b5080611486575b80611437575b6020906040519015158152f35b506001600160a01b03166000818152600d602052604090205462093a8081019081106109ea574211801561146f575b6020915061142a565b50600052600c602052602060406000205415611466565b506001600160a01b0381166000908152600b6020526040902054620f42401115806114245750600c60205260406000205415611424565b905060105410158261141d565b612b40565b34610290576020366003190112610290576001600160a01b036114f06129a9565b16600052601360205261152e61151361151a604060002060405192838092612e30565b0382612c5c565b604051918291602083526020830190612a78565b0390f35b3461029057606036600319011261029057602480359063ffffffff60043581611559612b0f565b169283158015611b1f575b610c5757816000526020906016825260406000209533600052600c835260406000205415611b0d5786546001600160a01b0397903390891603611b0d576002015460ff81166115b2816129d5565b611b0d5760281c851615611b0d576115c8612d4e565b604051630c47ab3d60e21b815273__$8a3883123a2a1b05b37447bdbb3fdcf5d3$__908481806115fb3060048301612c96565b0381855af4801561029d57611af0575b508115610f9b5784600052601684526040600020906002820197885488808260281c169160081c16038881116119f4576116489060048501612bf7565b905460039491851b1c421115611a52578a600154169160405163a5118bf160e01b81528881600481875afa90811561029d57600091611a35575b50833b1561029057606460009283604051968794859363533dfa3560e01b855260048501528a0b8c8401528160448401525af191821561029d578492611a26575b505b01548303610f9b576040516323b872dd60e01b815233600482015230602482015260448101849052858160648160007f00000000000000000000000000000000000000000000000000000000000000008f165af190811561029d57600091611a09575b5015610a375796959633600052600c85526040600020611749848254612d34565b905561175783600f54612d34565b600f5561176683601054612d41565b60105585600052601185526040600020906002820154946000986007600685019401995b845481101561185557808d6117a26117d99388612bf7565b905490891b1c16806000528c8b528b6117c98b6117c46040600020548d612dfd565b612e10565b8c816117de575b50505050612da4565b61178a565b7fe3e6ae1e05f069d410556743894aacbb190c1431962422ebe8fcc642a467dd169184600052601482526040600020805480831161184d575b8261182191612d34565b905584600052600b8252604060002061183b828254612d41565b9055604051908152a38e8b818c6117d0565b915081611817565b508888918c8833600052600c8552604060002054604051918252858201527f1b8cd61ed43bec7c6bdad3a18ffee613f99c853d16c50678d248d879e1b4343860403392a280825460281c16837f406356ef25520b09e2ef87c5225167b4161ea4ab691e9434d6ee29eafcc83fc286604051848152a27f17f13fd3f7c4712af33f1770ebcb822dd20a2dbc00850eab48d786623d97b95985600f54604051908152a17f8b094cca6f83d49402ce208cc0c224b76625ffc58636df56ae28024e704c586885601054604051908152a1600019018181116119f457825468ffffffff0000000000191660289190911b68ffffffff0000000000161782558154908160281c16156119be575b505050823b156102905760646000926303d1a1a194604051958694859363e63dd53160e01b855260026004860152339085015230901b1760401b60448301525af4801561029d576119af576001600055005b6119b890612c0f565b80610f1d565b60ff191660021790557f02ca5489b37dd363d1302bac719e8ee40e540ffbe8c12253570fea63e11cad71600080a283808061195d565b85634e487b7160e01b60005260116004526000fd5b611a209150863d8811610a7157610a638183612c5c565b8a611728565b611a2f90612c0f565b8b6116c3565b611a4c9150893d8b11610a3057610a218183612c5c565b8d611682565b8a6001541691604051634e5ecf1360e01b81528881600481875afa90811561029d57600091611ad3575b50833b1561029057606460009283604051968794859363533dfa3560e01b855260048501528a0b8c840152600160448401525af191821561029d578492611ac4575b506116c5565b611acd90612c0f565b8b611abe565b611aea9150893d8b11610a3057610a218183612c5c565b8d611a7c565b611b0690853d8711610a7157610a638183612c5c565b508861160b565b604051630b5ab5bf60e41b8152600490fd5b50600154604051632cc52b1560e11b8152336004820152906020908290849082906001600160a01b03165afa90811561029d57600091611b61575b5015611564565b611b79915060203d8111610a7157610a638183612c5c565b86611b5a565b3461029057602036600319011261029057600435600052601160205261152e611bae600660406000200161302e565b604051918291602083526020830190612aac565b34610290576000366003190112610290576020601254604051908152f35b346102905760003660031901126102905760405163404b48bf60e01b81526002600482015260008160248173__$8a3883123a2a1b05b37447bdbb3fdcf5d3$__5af4801561029d5761152e91600091611c49575b50604051918291602083526020830190612aac565b611c6691503d806000833e611c5e8183612c5c565b810190612e85565b82611c34565b34610290576020366003190112610290576001600160a01b03611c8d6129a9565b1660005260146020526020604060002054604051908152f35b3461029057602036600319011261029057611cbf612afc565b600154604051632076c8a160e21b815263ffffffff929092166004830152602090829060249082906001600160a01b03165afa801561029d57602091600091611d0f575b506040519060030b8152f35b611d269150823d8111610a3057610a218183612c5c565b82611d03565b612b22565b3461029057602036600319011261029057600435600052601660205261152e61151361151a600460406000200160405192838092612e30565b346102905760003660031901126102905760405163f28e2c2f60e01b81526002600482015260208160248173__$8a3883123a2a1b05b37447bdbb3fdcf5d3$__5af4801561029d5760209160009161138257506040519015158152f35b34610290576000366003190112610290576020600e54604051908152f35b34610290576000366003190112610290576001546040516001600160a01b039091168152602090f35b34610290576020366003190112610290576001600160a01b03611e2f6129a9565b16600052600d6020526020604060002054604051908152f35b34610290576020366003190112610290576040611e66600435612fdc565b825191825215156020820152f35b3461029057602036600319011261029057611e8d6129a9565b600154604051632cc52b1560e11b81526001600160a01b0392831660048201529160209183916024918391165afa801561029d5760209160009161138257506040519015158152f35b3461029057604036600319011261029057611eef6129bf565b600435600052601160205260076040600020019060018060a01b03166000526020526020604060002054604051908152f35b34610290576020366003190112610290576001600160a01b03611f426129a9565b16600052600b6020526020604060002054604051908152f35b3461029057602036600319011261029057611f74612f0f565b50600435600052601660205261152e611f906040600020612f5a565b6040519182916020835260208301906129df565b3461029057602036600319011261029057611fbd6129a9565b604051630b79b0a160e21b8152600260048201526001600160a01b03909116602482015260208160448173__$8a3883123a2a1b05b37447bdbb3fdcf5d3$__5af4801561029d5760209160009161138257506040519015158152f35b3461029057602036600319011261029057600435600052601660205260a06040600020601160205260406000209060028101549160ff831661205a816129d5565b15806120c4575b156120ac57600363ffffffff809460281c169201549260086120838585612dfd565b949392015416906001925b60405194855260208501526040840152606083015215156080820152f35b600801546000925082915063ffffffff16818061208e565b5063ffffffff8360281c161515612061565b3461029057602036600319011261029057600435600052601660205260c0604060002060018060a01b0381541690600181015490600281015490600360ff831691015492604051948552602085015261212e816129d5565b604084015263ffffffff90818160081c16606085015260281c16608083015260a0820152f35b346102905760403660031901126102905761216d612afc565b6121756129bf565b6001549091906001600160a01b03908116803b15610290576000928360449263ffffffff94604051978896879563086ecc7960e21b87521660048601521660248401525af1801561029d5761123b57005b346102905760203660031901126102905760006101206040516121e881612c23565b8281528260208201528260408201528260608201528260808201528260a08201528260c08201528260e0820152606061010082015201526004356000526011602052604060002080549060018060a01b0360018201541690600281015460038201549160ff8360401c169163ffffffff6004830154946005840154928260088601541697604051996122798b612c23565b8a5260208a01526040890152818116606089015260201c1660808701526006831015610c0d576122bb9360069360a088015260c087015260e08601520161302e565b61010083015261012082015260405190602082528051602083015260018060a01b0360208201511660408301526040810151606083015263ffffffff606082015116608083015263ffffffff60808201511660a083015260a0810151906006821015610c0d57829160c083015260c081015160e083015260e081015161010083015261010081015163ffffffff610120612362610140938483880152610160870190612aac565b93015116908301520390f35b346102905760a03660031901126102905760043561238a612ae9565b906064359063ffffffff9182811680910361029057608435928084168094036102905783600052602094601586526003826040600020541610156125865784158015612527575b610c57578315610f9b578116906046821180159061251d575b610c3557600183108015612513575b6125015760105484116124ef576012549461241386612da4565b601255856000526011875260406000209260018401336bffffffffffffffffffffffff60a01b825416179055856002850155600384019068ffffffffffffffffff19825416179055604435600484015542600584015585600884019363ffffffff19948686825416179055553360005260138752612495866040600020612db3565b600052601586526040600020918254916124b0818416612de8565b16911617905560405191825283820152817fde3b47cf7da95a3cc41b86cf8717ead8d56a76ee1590481c5c4dc4d8804c40c460403393a3604051908152f35b60405163356680b760e01b8152600490fd5b60405163524eff2760e01b8152600490fd5b50600c83116123f9565b50606482116123ea565b50600154604051632cc52b1560e11b8152336004820152908790829060249082906001600160a01b03165afa90811561029d57600091612569575b50156123d1565b6125809150873d8911610a7157610a638183612c5c565b87612562565b604051635aad290f60e01b8152600490fd5b3461029057600036600319011261029057604051637fd5e70b60e01b81526002600482015260008160248173__$8a3883123a2a1b05b37447bdbb3fdcf5d3$__5af4801561029d5761152e91600091611c495750604051918291602083526020830190612aac565b3461029057602080600319360112610290576001600160a01b0390816126246129a9565b16806000526013825260406000206000916000918054925b838110612809575061264d84612e6d565b9561265b6040519788612c5c565b848752601f198061266b87612e6d565b0160005b8181106127ee57505061269a61268487612e6d565b966126926040519889612c5c565b808852612e6d565b01368787013760009260005b85811061272657888888604051928391604083019360408452825180955260608401948160608260051b8701019401956000905b8282106126f6575050508361152e949550830390850152612a78565b9193955091938480612714600193605f198c82030186528a516129df565b980192019201879593919694926126da565b61273381859a999a612bf7565b9054600391821b1c60005260168a526040600020838582541614806127d6575b806127c0575b612771575b505061276990612da4565b9796976126a6565b956127b8916127836127699498612f5a565b61278d838d612f46565b52612798828c612f46565b506127a38888612bf7565b9054911b1c6127b2828b612f46565b52612da4565b94908a61275e565b5063ffffffff600282015460281c161515612759565b5060ff6002820154166127e8816129d5565b15612753565b978099986127fa612f0f565b82828c0101520198979861266f565b6128168183989798612bf7565b90549060031b1c600052601687526040600020838782541614908161287f575b81612868575b50612853575b61284b90612da4565b95949561263c565b9361286061284b91612da4565b949050612842565b63ffffffff91506002015460281c1615158861283c565b905060ff600282015416612892816129d5565b1590612836565b34610290576000366003190112610290576020600f54604051908152f35b346102905760203660031901126102905767ffffffffffffffff6004358181116102905736602382011215610290578060040135918211610290576024600591368285851b83010111610290573060201b6303d1a1a11760401b939273__$8a3883123a2a1b05b37447bdbb3fdcf5d3$__9160005b85811061293557005b80831b82018501356001600160a01b038116919082900361029057843b15610290576040519163e63dd53160e01b83526002600484015286830152876044830152600082606481885af491821561029d576129959261299a575b50612da4565b61292c565b6129a390612c0f565b8861298f565b600435906001600160a01b038216820361029057565b602435906001600160a01b038216820361029057565b60031115610c0d57565b80516001600160a01b03168252602080820151818401526040820151909160e084019183916101009160c09190612a15816129d5565b604088015263ffffffff806060830151166060890152608082015116608088015260a081015160a088015201519460e060c082015285518094520193019160005b828110612a64575050505090565b835185529381019392810192600101612a56565b90815180825260208080930193019160005b828110612a98575050505090565b835185529381019392810192600101612a8a565b90815180825260208080930193019160005b828110612acc575050505090565b83516001600160a01b031685529381019392810192600101612abe565b6024359063ffffffff8216820361029057565b6004359063ffffffff8216820361029057565b6044359063ffffffff8216820361029057565b34610290576000366003190112610290576020601054604051908152f35b3461029057600080600319360112612bf4576040516370a0823160e01b81523060048201526020816024817f00000000000000000000000000000000000000000000000000000000000000006001600160a01b03165afa908115612be9578291612bb0575b602082604051908152f35b90506020813d8211612be1575b81612bca60209383612c5c565b81010312612bdd57602091505138612ba5565b5080fd5b3d9150612bbd565b6040513d84823e3d90fd5b80fd5b8054821015610af55760005260206000200190600090565b67ffffffffffffffff8111610b0b57604052565b610140810190811067ffffffffffffffff821117610b0b57604052565b60e0810190811067ffffffffffffffff821117610b0b57604052565b90601f8019910116810190811067ffffffffffffffff821117610b0b57604052565b90816020910312610290575180151581036102905790565b919091606081019260028252602093606085840152600954809152608083019060096000527f6e1540171b6c0c960b71a7020d9f60077f6af931a8bbf590da0223dacf75c7af9060005b87828210612cfe5750505050931b6303d1a1a117604090811b910152565b83546001600160a01b031685529093019260019283019201612ce0565b9081602091031261029057518060030b81036102905790565b919082039182116109ea57565b919082018092116109ea57565b600260005414612d5f576002600055565b60405162461bcd60e51b815260206004820152601f60248201527f5265656e7472616e637947756172643a207265656e7472616e742063616c6c006044820152606490fd5b60001981146109ea5760010190565b8054600160401b811015610b0b57612dd091600182018155612bf7565b819291549060031b91821b91600019901b1916179055565b90600163ffffffff809316019182116109ea57565b818102929181159184041417156109ea57565b8115612e1a570490565b634e487b7160e01b600052601260045260246000fd5b90815480825260208092019260005281600020916000905b828210612e56575050505090565b835485529384019360019384019390910190612e48565b67ffffffffffffffff8111610b0b5760051b60200190565b60209081818403126102905780519067ffffffffffffffff821161029057019180601f84011215610290578251612ebb81612e6d565b93612ec96040519586612c5c565b818552838086019260051b820101928311610290578301905b828210612ef0575050505090565b81516001600160a01b0381168103610290578152908301908301612ee2565b60405190612f1c82612c40565b606060c0836000808252806020830152806040830152808483015280608083015260a08201520152565b8051821015610af55760209160051b010190565b90600460c0604051612f6b81612c40565b612fd8819560018060a01b03815416835260018101546020840152600281015460ff8116612f98816129d5565b604085015263ffffffff90818160081c16606086015260281c166080840152600381015460a0840152612fd16040518096819301612e30565b0384612c5c565b0152565b60005260166020526040600020600281015460ff8116612ffb816129d5565b15908161301b575b506130115750600090600090565b6003015490600190565b63ffffffff915060281c16151538613003565b9060405191828154918282526020928383019160005283600020936000905b8282106130655750505061306392500383612c5c565b565b85546001600160a01b03168452600195860195889550938101939091019061304d56fea264697066735822122065815221dc027a0224a15899a509b039d393c6d668ecb805ea863172eb73f38764736f6c63430008130033","opcodes":"PUSH1 0xA0 CALLVALUE PUSH3 0xC8 JUMPI PUSH1 0x1F PUSH3 0x31B7 CODESIZE DUP2 SWAP1 SUB SWAP2 DUP3 ADD PUSH1 0x1F NOT AND DUP4 ADD SWAP2 PUSH1 0x1 PUSH1 0x1 PUSH1 0x40 SHL SUB DUP4 GT DUP5 DUP5 LT OR PUSH3 0xCD JUMPI DUP1 DUP5 SWAP3 PUSH1 0x40 SWAP5 DUP6 MSTORE DUP4 CODECOPY DUP2 ADD SUB SLT PUSH3 0xC8 JUMPI PUSH3 0x5A PUSH1 0x20 PUSH3 0x52 DUP4 PUSH3 0xE3 JUMP JUMPDEST SWAP3 ADD PUSH3 0xE3 JUMP JUMPDEST PUSH1 0x1 PUSH1 0x0 DUP2 SWAP1 SSTORE PUSH1 0x80 SWAP3 SWAP1 SWAP3 MSTORE DUP2 SLOAD PUSH1 0x1 PUSH1 0x1 PUSH1 0xA0 SHL SUB NOT AND PUSH1 0x1 PUSH1 0x1 PUSH1 0xA0 SHL SUB SWAP1 SWAP2 AND OR SWAP1 SSTORE PUSH3 0x278D00 PUSH1 0x8 SSTORE TIMESTAMP PUSH1 0x7 SSTORE PUSH1 0x40 MLOAD PUSH2 0x30BE SWAP1 DUP2 PUSH3 0xF9 DUP3 CODECOPY PUSH1 0x80 MLOAD DUP2 DUP2 DUP2 PUSH2 0x806 ADD MSTORE DUP2 DUP2 PUSH2 0xD11 ADD MSTORE DUP2 DUP2 PUSH2 0xE34 ADD MSTORE DUP2 DUP2 PUSH2 0x12DE ADD MSTORE DUP2 DUP2 PUSH2 0x16F6 ADD MSTORE PUSH2 0x2B6D ADD MSTORE RETURN JUMPDEST PUSH1 0x0 DUP1 REVERT JUMPDEST PUSH4 0x4E487B71 PUSH1 0xE0 SHL PUSH1 0x0 MSTORE PUSH1 0x41 PUSH1 0x4 MSTORE PUSH1 0x24 PUSH1 0x0 REVERT JUMPDEST MLOAD SWAP1 PUSH1 0x1 PUSH1 0x1 PUSH1 0xA0 SHL SUB DUP3 AND DUP3 SUB PUSH3 0xC8 JUMPI JUMP INVALID PUSH1 0x80 PUSH1 0x40 MSTORE PUSH1 0x4 CALLDATASIZE LT ISZERO PUSH2 0x12 JUMPI PUSH1 0x0 DUP1 REVERT JUMPDEST PUSH1 0x0 CALLDATALOAD PUSH1 0xE0 SHR DUP1 PUSH4 0x16C704F EQ PUSH2 0x28B7 JUMPI DUP1 PUSH4 0x307C4A1 EQ PUSH2 0x2899 JUMPI DUP1 PUSH4 0x3D1A1A1 EQ PUSH2 0x2600 JUMPI DUP1 PUSH4 0xBC21853 EQ PUSH2 0x2598 JUMPI DUP1 PUSH4 0x182D94B5 EQ PUSH2 0x236E JUMPI DUP1 PUSH4 0x1B70BA3E EQ PUSH2 0x21C6 JUMPI DUP1 PUSH4 0x21BB31E4 EQ PUSH2 0x2154 JUMPI DUP1 PUSH4 0x232869FA EQ PUSH2 0x20D6 JUMPI DUP1 PUSH4 0x291C31A7 EQ PUSH2 0x1D2C JUMPI DUP1 PUSH4 0x2B31C022 EQ PUSH2 0x2019 JUMPI DUP1 PUSH4 0x3403C25D EQ PUSH2 0x1FA4 JUMPI DUP1 PUSH4 0x383AB2EF EQ PUSH2 0x1F5B JUMPI DUP1 PUSH4 0x410A1D32 EQ PUSH2 0x1F21 JUMPI DUP1 PUSH4 0x4E51C7DF EQ PUSH2 0x1ED6 JUMPI DUP1 PUSH4 0x598A562A EQ PUSH2 0x1E74 JUMPI DUP1 PUSH4 0x6509A710 EQ PUSH2 0x1E48 JUMPI DUP1 PUSH4 0x657EB031 EQ PUSH2 0x1E0E JUMPI DUP1 PUSH4 0x6587EDA1 EQ PUSH2 0x1DE5 JUMPI DUP1 PUSH4 0x6F9FB98A EQ PUSH2 0x14CA JUMPI DUP1 PUSH4 0x777C658F EQ PUSH2 0x1DC7 JUMPI DUP1 PUSH4 0x79103400 EQ PUSH2 0x1D6A JUMPI DUP1 PUSH4 0x7D52437A EQ PUSH2 0x1D31 JUMPI DUP1 PUSH4 0x809DAB6A EQ PUSH2 0x1D2C JUMPI DUP1 PUSH4 0x81DB2284 EQ PUSH2 0x1CA6 JUMPI DUP1 PUSH4 0x827CC0E5 EQ PUSH2 0x1C6C JUMPI DUP1 PUSH4 0x830EFD3B EQ PUSH2 0x1BE0 JUMPI DUP1 PUSH4 0x84DDF5EA EQ PUSH2 0x1BC2 JUMPI DUP1 PUSH4 0x8A914A63 EQ PUSH2 0x1B7F JUMPI DUP1 PUSH4 0x9059F9CA EQ PUSH2 0x1532 JUMPI DUP1 PUSH4 0x9730872A EQ PUSH2 0x14CF JUMPI DUP1 PUSH4 0x9785FAC8 EQ PUSH2 0x14CA JUMPI DUP1 PUSH4 0x97C33519 EQ PUSH2 0x13F7 JUMPI DUP1 PUSH4 0x9E932011 EQ PUSH2 0x139F JUMPI DUP1 PUSH4 0xA7AF6947 EQ PUSH2 0x130D JUMPI DUP1 PUSH4 0xA98AD46C EQ PUSH2 0x12C8 JUMPI DUP1 PUSH4 0xADCEB101 EQ PUSH2 0x1246 JUMPI DUP1 PUSH4 0xB9F0FEC4 EQ PUSH2 0x11B6 JUMPI DUP1 PUSH4 0xBE5EB580 EQ PUSH2 0x117C JUMPI DUP1 PUSH4 0xC269014B EQ PUSH2 0x10DD JUMPI DUP1 PUSH4 0xCCDCE44E EQ PUSH2 0x100E JUMPI DUP1 PUSH4 0xE2763924 EQ PUSH2 0xD78 JUMPI DUP1 PUSH4 0xEB5A662E EQ PUSH2 0xCCA JUMPI DUP1 PUSH4 0xECB18B34 EQ PUSH2 0x35A JUMPI DUP1 PUSH4 0xF0853E1D EQ PUSH2 0x2A9 JUMPI PUSH4 0xF947A8A9 EQ PUSH2 0x20B JUMPI PUSH1 0x0 DUP1 REVERT JUMPDEST CALLVALUE PUSH2 0x290 JUMPI PUSH1 0x0 CALLDATASIZE PUSH1 0x3 NOT ADD SLT PUSH2 0x290 JUMPI PUSH1 0x40 MLOAD PUSH4 0x6ECF8073 PUSH1 0xE1 SHL DUP2 MSTORE PUSH1 0x2 PUSH1 0x4 DUP3 ADD MSTORE PUSH1 0x20 DUP2 PUSH1 0x24 DUP2 PUSH20 0x0 GAS DELEGATECALL DUP1 ISZERO PUSH2 0x29D JUMPI PUSH1 0x0 SWAP1 PUSH2 0x266 JUMPI JUMPDEST PUSH1 0x20 SWAP1 PUSH1 0x40 MLOAD SWAP1 DUP2 MSTORE RETURN JUMPDEST POP PUSH1 0x20 DUP2 RETURNDATASIZE DUP3 GT PUSH2 0x295 JUMPI JUMPDEST DUP2 PUSH2 0x27F PUSH1 0x20 SWAP4 DUP4 PUSH2 0x2C5C JUMP JUMPDEST DUP2 ADD SUB SLT PUSH2 0x290 JUMPI PUSH1 0x20 SWAP1 MLOAD PUSH2 0x25B JUMP JUMPDEST PUSH1 0x0 DUP1 REVERT JUMPDEST RETURNDATASIZE SWAP2 POP PUSH2 0x272 JUMP JUMPDEST PUSH1 0x40 MLOAD RETURNDATASIZE PUSH1 0x0 DUP3 RETURNDATACOPY RETURNDATASIZE SWAP1 REVERT JUMPDEST CALLVALUE PUSH2 0x290 JUMPI PUSH1 0x20 DUP1 PUSH1 0x3 NOT CALLDATASIZE ADD SLT PUSH2 0x290 JUMPI PUSH2 0x2C3 PUSH2 0x29A9 JUMP JUMPDEST PUSH1 0x40 MLOAD PUSH4 0x15FFAE5B PUSH1 0xE2 SHL DUP2 MSTORE PUSH1 0x2 PUSH1 0x4 DUP3 ADD MSTORE PUSH1 0x1 PUSH1 0x1 PUSH1 0xA0 SHL SUB SWAP1 SWAP2 AND PUSH1 0x24 DUP3 ADD MSTORE DUP2 DUP2 PUSH1 0x44 DUP2 PUSH20 0x0 GAS DELEGATECALL SWAP1 DUP2 ISZERO PUSH2 0x29D JUMPI PUSH1 0x0 SWAP2 PUSH2 0x324 JUMPI JUMPDEST POP PUSH1 0x40 MLOAD SWAP1 PUSH2 0x320 DUP2 PUSH2 0x29D5 JUMP JUMPDEST DUP2 MSTORE RETURN JUMPDEST SWAP1 POP DUP2 DUP2 DUP2 RETURNDATASIZE DUP4 GT PUSH2 0x353 JUMPI JUMPDEST PUSH2 0x33B DUP2 DUP4 PUSH2 0x2C5C JUMP JUMPDEST DUP2 ADD SUB SLT PUSH2 0x290 JUMPI MLOAD PUSH1 0x3 DUP2 LT ISZERO PUSH2 0x290 JUMPI DUP3 PUSH2 0x312 JUMP JUMPDEST POP RETURNDATASIZE PUSH2 0x331 JUMP JUMPDEST CALLVALUE PUSH2 0x290 JUMPI PUSH1 0x60 CALLDATASIZE PUSH1 0x3 NOT ADD SLT PUSH2 0x290 JUMPI PUSH2 0x373 PUSH2 0x2AE9 JUMP JUMPDEST PUSH4 0xFFFFFFFF PUSH2 0x380 PUSH2 0x2B0F JUMP JUMPDEST AND SWAP1 DUP2 ISZERO DUP1 ISZERO PUSH2 0xC69 JUMPI JUMPDEST PUSH2 0xC57 JUMPI PUSH4 0xFFFFFFFF DUP2 AND ISZERO DUP1 ISZERO PUSH2 0xC47 JUMPI JUMPDEST PUSH2 0xC35 JUMPI PUSH1 0x9 PUSH4 0xFFFFFFFF DUP3 AND GT ISZERO PUSH2 0xC23 JUMPI PUSH2 0x3B9 PUSH2 0x2D4E JUMP JUMPDEST PUSH1 0x4 CALLDATALOAD PUSH1 0x0 MSTORE PUSH1 0x11 PUSH1 0x20 MSTORE PUSH1 0x40 PUSH1 0x0 KECCAK256 SWAP2 PUSH1 0x3 DUP4 ADD DUP1 SLOAD PUSH1 0xFF DUP2 PUSH1 0x40 SHR AND PUSH1 0x6 DUP2 LT ISZERO PUSH2 0xC0D JUMPI DUP1 ISZERO ISZERO SWAP1 DUP2 PUSH2 0xC01 JUMPI JUMPDEST POP PUSH2 0xBEF JUMPI PUSH2 0x407 PUSH1 0x64 SWAP2 PUSH4 0xFFFFFFFF DUP1 DUP8 AND SWAP2 PUSH1 0x20 SHR AND PUSH2 0x2D41 JUMP JUMPDEST GT PUSH2 0xBDD JUMPI PUSH2 0x420 PUSH4 0xFFFFFFFF DUP5 AND PUSH1 0x2 DUP7 ADD SLOAD PUSH2 0x2DFD JUMP JUMPDEST SWAP4 PUSH8 0xDE0B6B3A7640000 SWAP5 DUP6 DUP2 MUL SWAP6 DUP2 DUP8 DIV EQ SWAP1 ISZERO OR ISZERO PUSH2 0x9EA JUMPI PUSH9 0x56BC75E2D630FFFFF DUP6 ADD DUP1 SWAP6 GT PUSH2 0x9EA JUMPI CALLER PUSH1 0x0 MSTORE PUSH1 0xB PUSH1 0x20 MSTORE PUSH9 0x56BC75E2D63100000 DUP6 DIV PUSH1 0x40 PUSH1 0x0 KECCAK256 SLOAD LT PUSH2 0xBCB JUMPI CALLER PUSH1 0x0 MSTORE PUSH1 0xB PUSH1 0x20 MSTORE PUSH1 0x40 PUSH1 0x0 KECCAK256 PUSH2 0x492 PUSH9 0x56BC75E2D63100000 DUP8 DIV DUP3 SLOAD PUSH2 0x2D34 JUMP JUMPDEST SWAP1 SSTORE CALLER PUSH1 0x0 MSTORE PUSH1 0x14 PUSH1 0x20 MSTORE PUSH1 0x40 PUSH1 0x0 KECCAK256 PUSH2 0x4B8 PUSH9 0x56BC75E2D63100000 DUP8 DIV DUP3 SLOAD PUSH2 0x2D41 JUMP JUMPDEST SWAP1 SSTORE DUP2 SLOAD PUSH4 0xFFFFFFFF DUP6 AND PUSH4 0xFFFFFFFF DUP3 PUSH1 0x20 SHR AND ADD PUSH4 0xFFFFFFFF DUP2 GT PUSH2 0x9EA JUMPI PUSH8 0xFFFFFFFF00000000 SWAP1 PUSH1 0x20 SHL AND SWAP1 PUSH8 0xFFFFFFFF00000000 NOT AND OR DUP3 SSTORE PUSH1 0x7 DUP2 ADD SWAP1 CALLER PUSH1 0x0 MSTORE DUP2 PUSH1 0x20 MSTORE PUSH1 0x40 PUSH1 0x0 KECCAK256 SLOAD ISZERO PUSH2 0xB89 JUMPI JUMPDEST POP CALLER PUSH1 0x0 MSTORE PUSH1 0x20 MSTORE PUSH1 0x40 PUSH1 0x0 KECCAK256 PUSH2 0x532 PUSH9 0x56BC75E2D63100000 DUP7 DIV DUP3 SLOAD PUSH2 0x2D41 JUMP JUMPDEST SWAP1 SSTORE DUP1 SLOAD PUSH4 0xFFFFFFFF DUP2 AND PUSH4 0xFFFFFFFF DUP3 PUSH1 0x20 SHR AND LT ISZERO PUSH1 0x0 EQ PUSH2 0xB70 JUMPI POP PUSH9 0x20000000000000000 PUSH1 0xFF PUSH1 0x40 SHL NOT DUP3 SLOAD AND OR SWAP1 SSTORE DUP1 PUSH1 0x0 MSTORE PUSH1 0x15 PUSH1 0x20 MSTORE PUSH1 0x40 PUSH1 0x0 KECCAK256 PUSH4 0xFFFFFFFF NOT DUP2 SLOAD AND SWAP1 SSTORE PUSH1 0x4 CALLDATALOAD PUSH1 0x0 MSTORE PUSH1 0x16 PUSH1 0x20 MSTORE PUSH1 0x40 PUSH1 0x0 KECCAK256 PUSH1 0x11 PUSH1 0x20 MSTORE PUSH2 0x635 PUSH1 0x40 PUSH1 0x0 KECCAK256 PUSH1 0x1 DUP1 PUSH1 0xA0 SHL SUB PUSH1 0x1 DUP3 ADD SLOAD AND PUSH12 0xFFFFFFFFFFFFFFFFFFFFFFFF PUSH1 0xA0 SHL DUP5 SLOAD AND OR DUP4 SSTORE PUSH1 0x4 CALLDATALOAD PUSH1 0x1 DUP5 ADD SSTORE PUSH4 0xFFFFFFFF PUSH1 0x2 DUP1 DUP6 ADD SLOAD SWAP3 PUSH1 0xFF NOT DUP5 AND DUP3 DUP8 ADD SSTORE PUSH1 0x8 DUP2 ADD SWAP4 PUSH5 0xFFFFFFFF00 DUP6 SLOAD PUSH1 0x8 SHL AND SWAP1 PUSH5 0xFFFFFFFFFF NOT AND OR DUP3 DUP8 ADD SSTORE PUSH2 0x62A DUP4 DUP6 SLOAD AND DUP4 DUP9 ADD SWAP1 PUSH9 0xFFFFFFFF0000000000 DUP3 SLOAD SWAP2 PUSH1 0x28 SHL AND SWAP1 PUSH9 0xFFFFFFFF0000000000 NOT AND OR SWAP1 SSTORE JUMP JUMPDEST ADD SLOAD SWAP2 SLOAD AND SWAP1 PUSH2 0x2E10 JUMP JUMPDEST PUSH1 0x3 DUP3 ADD SSTORE PUSH1 0x4 CALLDATALOAD PUSH1 0x0 MSTORE PUSH1 0x11 PUSH1 0x20 MSTORE PUSH4 0xFFFFFFFF PUSH1 0x8 PUSH1 0x40 PUSH1 0x0 KECCAK256 ADD SLOAD AND PUSH1 0x0 JUMPDEST DUP2 PUSH4 0xFFFFFFFF DUP3 AND LT PUSH2 0xB21 JUMPI POP POP PUSH1 0x1 DUP1 PUSH1 0xA0 SHL SUB DUP2 SLOAD AND PUSH32 0x5215406E88F26EED4728B9CDFC5D85CEA75799101CB9387B528451E6E0878DEC PUSH1 0x2 DUP4 ADD SLOAD PUSH1 0xFF DUP2 AND SWAP1 PUSH4 0xFFFFFFFF PUSH1 0x3 DUP7 ADD SLOAD SWAP2 PUSH1 0x40 MLOAD SWAP4 PUSH2 0x6B3 DUP2 PUSH2 0x29D5 JUMP JUMPDEST DUP5 MSTORE PUSH1 0x28 SHR AND PUSH1 0x20 DUP4 ADD MSTORE PUSH1 0x40 DUP3 ADD MSTORE PUSH1 0x80 PUSH1 0x60 DUP3 ADD MSTORE DUP1 PUSH2 0x6DF PUSH1 0x4 CALLDATALOAD SWAP6 PUSH1 0x4 PUSH1 0x80 DUP5 ADD SWAP2 ADD PUSH2 0x2E30 JUMP JUMPDEST SUB SWAP1 LOG3 PUSH1 0x4 CALLDATALOAD PUSH1 0x0 MSTORE PUSH1 0x11 PUSH1 0x20 MSTORE PUSH1 0x40 PUSH1 0x0 KECCAK256 PUSH1 0x1 DUP1 PUSH1 0xA0 SHL SUB PUSH1 0x1 DUP3 ADD SLOAD AND SWAP1 DUP2 PUSH1 0x0 MSTORE PUSH1 0xA PUSH1 0x20 MSTORE PUSH1 0xFF PUSH1 0x40 PUSH1 0x0 KECCAK256 SLOAD AND ISZERO PUSH2 0xA87 JUMPI JUMPDEST PUSH1 0x3 PUSH1 0x2 DUP3 ADD SWAP2 DUP3 SLOAD PUSH1 0xC PUSH1 0x20 MSTORE PUSH2 0x736 PUSH1 0x40 PUSH1 0x0 KECCAK256 SWAP2 DUP3 SLOAD PUSH2 0x2D41 JUMP JUMPDEST SWAP1 SSTORE PUSH2 0x745 DUP4 SLOAD PUSH1 0xF SLOAD PUSH2 0x2D41 JUMP JUMPDEST PUSH1 0xF SSTORE PUSH2 0x755 DUP4 SLOAD PUSH1 0x10 SLOAD PUSH2 0x2D34 JUMP JUMPDEST PUSH1 0x10 SSTORE DUP4 PUSH1 0x0 MSTORE PUSH1 0xD PUSH1 0x20 MSTORE TIMESTAMP PUSH1 0x40 PUSH1 0x0 KECCAK256 SSTORE ADD PUSH9 0x30000000000000000 PUSH1 0xFF PUSH1 0x40 SHL NOT DUP3 SLOAD AND OR SWAP1 SSTORE PUSH20 0x0 DUP1 EXTCODESIZE ISZERO PUSH2 0x290 JUMPI PUSH1 0x0 PUSH1 0x64 SWAP2 PUSH1 0x40 MLOAD SWAP3 DUP4 DUP1 SWAP3 PUSH4 0xE63DD531 PUSH1 0xE0 SHL DUP3 MSTORE PUSH1 0x2 PUSH1 0x4 DUP4 ADD MSTORE DUP8 PUSH1 0x24 DUP4 ADD MSTORE PUSH4 0x3D1A1A1 ADDRESS PUSH1 0x20 SHL OR PUSH1 0x40 SHL PUSH1 0x44 DUP4 ADD MSTORE GAS DELEGATECALL DUP1 ISZERO PUSH2 0x29D JUMPI PUSH2 0xA78 JUMPI JUMPDEST POP DUP1 SLOAD PUSH1 0x40 MLOAD PUSH4 0xA9059CBB PUSH1 0xE0 SHL DUP2 MSTORE PUSH1 0x4 DUP2 ADD DUP5 SWAP1 MSTORE PUSH1 0x24 DUP2 ADD SWAP2 SWAP1 SWAP2 MSTORE PUSH1 0x20 DUP2 PUSH1 0x44 DUP2 PUSH1 0x0 PUSH32 0x0 PUSH1 0x1 PUSH1 0x1 PUSH1 0xA0 SHL SUB AND GAS CALL SWAP1 DUP2 ISZERO PUSH2 0x29D JUMPI PUSH1 0x0 SWAP2 PUSH2 0xA49 JUMPI JUMPDEST POP ISZERO PUSH2 0xA37 JUMPI PUSH1 0x40 PUSH32 0xEAE9CFBC77FDD40CA899F36B608256063B2BC9D8178B0220F7AD513E178D6730 SWAP2 SLOAD DUP4 PUSH1 0x0 MSTORE PUSH1 0xC PUSH1 0x20 MSTORE DUP2 PUSH1 0x0 KECCAK256 SLOAD DUP3 MLOAD SWAP2 DUP3 MSTORE PUSH1 0x20 DUP3 ADD MSTORE LOG2 PUSH32 0x17F13FD3F7C4712AF33F1770EBCB822DD20A2DBC00850EAB48D786623D97B959 PUSH1 0x20 PUSH1 0xF SLOAD PUSH1 0x40 MLOAD SWAP1 DUP2 MSTORE LOG1 PUSH32 0x8B094CCA6F83D49402CE208CC0C224B76625FFC58636DF56AE28024E704C5868 PUSH1 0x20 PUSH1 0x10 SLOAD PUSH1 0x40 MLOAD SWAP1 DUP2 MSTORE LOG1 PUSH1 0x4 CALLDATALOAD PUSH32 0x9E71D2FB732E68272B7E74ECFD14638673C1D77E19A5D390A3FFFF054D57C44B PUSH1 0x0 DUP1 LOG2 JUMPDEST PUSH1 0x1 SLOAD PUSH1 0x40 MLOAD PUSH4 0x6ADF4625 PUSH1 0xE1 SHL DUP2 MSTORE PUSH1 0x1 PUSH1 0x1 PUSH1 0xA0 SHL SUB SWAP1 SWAP2 AND SWAP3 PUSH1 0x20 DUP3 PUSH1 0x4 DUP2 DUP8 GAS STATICCALL SWAP2 DUP3 ISZERO PUSH2 0x29D JUMPI PUSH1 0x0 SWAP3 PUSH2 0xA00 JUMPI JUMPDEST POP PUSH4 0xFFFFFFFF AND PUSH1 0x3 SIGNEXTEND SWAP1 PUSH1 0x3 SIGNEXTEND MUL DUP1 PUSH1 0x3 SIGNEXTEND SWAP1 DUP2 SUB PUSH2 0x9EA JUMPI DUP3 EXTCODESIZE ISZERO PUSH2 0x290 JUMPI PUSH1 0x64 PUSH1 0x0 SWAP3 DUP4 PUSH1 0xA SWAP6 PUSH1 0x40 MLOAD SWAP7 DUP8 SWAP6 DUP7 SWAP5 PUSH4 0x533DFA35 PUSH1 0xE0 SHL DUP7 MSTORE PUSH1 0x4 DUP7 ADD MSTORE SDIV PUSH1 0x3 SIGNEXTEND PUSH1 0x24 DUP5 ADD MSTORE PUSH1 0x1 PUSH1 0x44 DUP5 ADD MSTORE GAS CALL DUP1 ISZERO PUSH2 0x29D JUMPI PUSH2 0x9DB JUMPI JUMPDEST POP PUSH9 0x56BC75E2D63100000 PUSH1 0x40 MLOAD SWAP2 DIV DUP2 MSTORE CALLER SWAP1 PUSH32 0x86B47E6E6C03D769C0BC5FFD06C682EA7D07089576D59230EC18FF64E71BFFE7 PUSH1 0x20 PUSH1 0x4 CALLDATALOAD SWAP3 LOG3 PUSH1 0x1 PUSH1 0x0 SSTORE STOP JUMPDEST PUSH2 0x9E4 SWAP1 PUSH2 0x2C0F JUMP JUMPDEST DUP2 PUSH2 0x998 JUMP JUMPDEST PUSH4 0x4E487B71 PUSH1 0xE0 SHL PUSH1 0x0 MSTORE PUSH1 0x11 PUSH1 0x4 MSTORE PUSH1 0x24 PUSH1 0x0 REVERT JUMPDEST PUSH4 0xFFFFFFFF SWAP2 SWAP3 POP PUSH2 0xA29 SWAP1 PUSH1 0x20 RETURNDATASIZE PUSH1 0x20 GT PUSH2 0xA30 JUMPI JUMPDEST PUSH2 0xA21 DUP2 DUP4 PUSH2 0x2C5C JUMP JUMPDEST DUP2 ADD SWAP1 PUSH2 0x2D1B JUMP JUMPDEST SWAP2 SWAP1 PUSH2 0x93A JUMP JUMPDEST POP RETURNDATASIZE PUSH2 0xA17 JUMP JUMPDEST PUSH1 0x40 MLOAD PUSH4 0x22E2581 PUSH1 0xE1 SHL DUP2 MSTORE PUSH1 0x4 SWAP1 REVERT JUMPDEST PUSH2 0xA6B SWAP2 POP PUSH1 0x20 RETURNDATASIZE PUSH1 0x20 GT PUSH2 0xA71 JUMPI JUMPDEST PUSH2 0xA63 DUP2 DUP4 PUSH2 0x2C5C JUMP JUMPDEST DUP2 ADD SWAP1 PUSH2 0x2C7E JUMP JUMPDEST DUP7 PUSH2 0x83F JUMP JUMPDEST POP RETURNDATASIZE PUSH2 0xA59 JUMP JUMPDEST PUSH2 0xA81 SWAP1 PUSH2 0x2C0F JUMP JUMPDEST DUP6 PUSH2 0x7DD JUMP JUMPDEST PUSH1 0x9 SLOAD PUSH1 0x1 PUSH1 0x40 SHL DUP2 LT ISZERO PUSH2 0xB0B JUMPI PUSH1 0x1 DUP2 ADD DUP1 PUSH1 0x9 SSTORE DUP2 LT ISZERO PUSH2 0xAF5 JUMPI PUSH32 0x6E1540171B6C0C960B71A7020D9F60077F6AF931A8BBF590DA0223DACF75C7AF ADD DUP1 SLOAD PUSH1 0x1 PUSH1 0x1 PUSH1 0xA0 SHL SUB NOT AND DUP4 OR SWAP1 SSTORE PUSH1 0x0 DUP3 DUP2 MSTORE PUSH1 0xA PUSH1 0x20 MSTORE PUSH1 0x40 SWAP1 KECCAK256 DUP1 SLOAD PUSH1 0xFF NOT AND PUSH1 0x1 OR SWAP1 SSTORE PUSH2 0x718 JUMP JUMPDEST PUSH4 0x4E487B71 PUSH1 0xE0 SHL PUSH1 0x0 MSTORE PUSH1 0x32 PUSH1 0x4 MSTORE PUSH1 0x24 PUSH1 0x0 REVERT JUMPDEST PUSH4 0x4E487B71 PUSH1 0xE0 SHL PUSH1 0x0 MSTORE PUSH1 0x41 PUSH1 0x4 MSTORE PUSH1 0x24 PUSH1 0x0 REVERT JUMPDEST PUSH4 0xFFFFFFFF PUSH2 0xB2F DUP3 PUSH2 0x2DE8 JUMP JUMPDEST AND SWAP1 PUSH3 0x278D00 SWAP2 DUP1 DUP4 MUL SWAP3 DUP4 DIV SUB PUSH2 0x9EA JUMPI PUSH2 0xB5C PUSH2 0xB53 PUSH4 0xFFFFFFFF SWAP4 TIMESTAMP PUSH2 0x2D41 JUMP JUMPDEST PUSH1 0x4 DUP7 ADD PUSH2 0x2DB3 JUMP JUMPDEST AND PUSH4 0xFFFFFFFF DUP2 EQ PUSH2 0x9EA JUMPI PUSH1 0x1 ADD PUSH2 0x657 JUMP JUMPDEST PUSH9 0xFF0000000000000000 NOT AND PUSH1 0x1 PUSH1 0x40 SHL OR SWAP1 SSTORE PUSH2 0x906 JUMP JUMPDEST PUSH1 0x6 ADD DUP1 SLOAD PUSH1 0x1 PUSH1 0x40 SHL DUP2 LT ISZERO PUSH2 0xB0B JUMPI PUSH2 0xBA9 SWAP2 PUSH1 0x1 DUP3 ADD DUP2 SSTORE PUSH2 0x2BF7 JUMP JUMPDEST DUP2 SLOAD PUSH1 0x1 PUSH1 0x1 PUSH1 0xA0 SHL SUB PUSH1 0x3 SWAP3 SWAP1 SWAP3 SHL SWAP2 DUP3 SHL NOT AND CALLER SWAP1 SWAP2 SHL OR SWAP1 SSTORE DUP6 PUSH2 0x50F JUMP JUMPDEST PUSH1 0x40 MLOAD PUSH4 0x391ACF1 PUSH1 0xE6 SHL DUP2 MSTORE PUSH1 0x4 SWAP1 REVERT JUMPDEST PUSH1 0x40 MLOAD PUSH4 0x955F95AD PUSH1 0xE0 SHL DUP2 MSTORE PUSH1 0x4 SWAP1 REVERT JUMPDEST PUSH1 0x40 MLOAD PUSH4 0x80B9CB09 PUSH1 0xE0 SHL DUP2 MSTORE PUSH1 0x4 SWAP1 REVERT JUMPDEST PUSH1 0x1 SWAP2 POP EQ ISZERO DUP7 PUSH2 0x3EA JUMP JUMPDEST PUSH4 0x4E487B71 PUSH1 0xE0 SHL PUSH1 0x0 MSTORE PUSH1 0x21 PUSH1 0x4 MSTORE PUSH1 0x24 PUSH1 0x0 REVERT JUMPDEST PUSH1 0x40 MLOAD PUSH4 0xF556155F PUSH1 0xE0 SHL DUP2 MSTORE PUSH1 0x4 SWAP1 REVERT JUMPDEST PUSH1 0x40 MLOAD PUSH4 0xD1E95ED5 PUSH1 0xE0 SHL DUP2 MSTORE PUSH1 0x4 SWAP1 REVERT JUMPDEST POP PUSH1 0x64 PUSH4 0xFFFFFFFF DUP3 AND GT PUSH2 0x39E JUMP JUMPDEST PUSH1 0x40 MLOAD PUSH4 0xCFF23E7 PUSH1 0xE0 SHL DUP2 MSTORE PUSH1 0x4 SWAP1 REVERT JUMPDEST POP PUSH1 0x1 SLOAD PUSH1 0x40 MLOAD PUSH4 0x2CC52B15 PUSH1 0xE1 SHL DUP2 MSTORE CALLER PUSH1 0x4 DUP3 ADD MSTORE SWAP1 PUSH1 0x20 SWAP1 DUP3 SWAP1 PUSH1 0x24 SWAP1 DUP3 SWAP1 PUSH1 0x1 PUSH1 0x1 PUSH1 0xA0 SHL SUB AND GAS STATICCALL SWAP1 DUP2 ISZERO PUSH2 0x29D JUMPI PUSH1 0x0 SWAP2 PUSH2 0xCAC JUMPI JUMPDEST POP ISZERO PUSH2 0x38B JUMP JUMPDEST PUSH2 0xCC4 SWAP2 POP PUSH1 0x20 RETURNDATASIZE DUP2 GT PUSH2 0xA71 JUMPI PUSH2 0xA63 DUP2 DUP4 PUSH2 0x2C5C JUMP JUMPDEST DUP4 PUSH2 0xCA5 JUMP JUMPDEST CALLVALUE PUSH2 0x290 JUMPI PUSH1 0x20 DUP1 PUSH1 0x3 NOT CALLDATASIZE ADD SLT PUSH2 0x290 JUMPI PUSH1 0x44 DUP2 PUSH2 0xCE7 PUSH2 0x29A9 JUMP JUMPDEST PUSH1 0x40 MLOAD PUSH4 0x6EB1769F PUSH1 0xE1 SHL DUP2 MSTORE PUSH1 0x1 PUSH1 0x1 PUSH1 0xA0 SHL SUB SWAP2 DUP3 AND PUSH1 0x4 DUP3 ADD MSTORE ADDRESS PUSH1 0x24 DUP3 ADD MSTORE SWAP3 DUP4 SWAP2 DUP3 SWAP1 PUSH32 0x0 AND GAS STATICCALL SWAP1 DUP2 ISZERO PUSH2 0x29D JUMPI PUSH1 0x0 SWAP2 PUSH2 0xD4B JUMPI JUMPDEST POP PUSH1 0x40 MLOAD SWAP1 DUP2 MSTORE RETURN JUMPDEST SWAP1 POP DUP2 DUP2 DUP2 RETURNDATASIZE DUP4 GT PUSH2 0xD71 JUMPI JUMPDEST PUSH2 0xD62 DUP2 DUP4 PUSH2 0x2C5C JUMP JUMPDEST DUP2 ADD SUB SLT PUSH2 0x290 JUMPI MLOAD DUP3 PUSH2 0xD42 JUMP JUMPDEST POP RETURNDATASIZE PUSH2 0xD58 JUMP JUMPDEST CALLVALUE PUSH2 0x290 JUMPI PUSH1 0x40 CALLDATASIZE PUSH1 0x3 NOT ADD SLT PUSH2 0x290 JUMPI PUSH1 0x4 CALLDATALOAD PUSH4 0xFFFFFFFF PUSH2 0xD99 PUSH2 0x2AE9 JUMP JUMPDEST AND ISZERO DUP1 ISZERO PUSH2 0xFAD JUMPI JUMPDEST PUSH2 0xC57 JUMPI DUP1 ISZERO PUSH2 0xF9B JUMPI PUSH2 0xDB4 PUSH2 0x2D4E JUMP JUMPDEST PUSH1 0x40 MLOAD PUSH4 0xC47AB3D PUSH1 0xE2 SHL DUP2 MSTORE PUSH1 0x20 SWAP1 DUP2 DUP2 DUP1 PUSH2 0xDD4 ADDRESS PUSH1 0x4 DUP4 ADD PUSH2 0x2C96 JUMP JUMPDEST SUB DUP2 PUSH20 0x0 GAS DELEGATECALL DUP1 ISZERO PUSH2 0x29D JUMPI PUSH2 0xF7E JUMPI JUMPDEST POP PUSH3 0x4C4B40 DUP3 GT PUSH2 0xF6C JUMPI PUSH1 0x40 MLOAD PUSH4 0x23B872DD PUSH1 0xE0 SHL DUP2 MSTORE CALLER PUSH1 0x4 DUP3 ADD MSTORE ADDRESS PUSH1 0x24 DUP3 ADD MSTORE PUSH1 0x44 DUP2 ADD DUP4 SWAP1 MSTORE DUP2 DUP2 PUSH1 0x64 DUP2 PUSH1 0x0 PUSH1 0x1 PUSH1 0x1 PUSH1 0xA0 SHL SUB PUSH32 0x0 AND GAS CALL SWAP1 DUP2 ISZERO PUSH2 0x29D JUMPI PUSH1 0x0 SWAP2 PUSH2 0xF4F JUMPI JUMPDEST POP ISZERO PUSH2 0xA37 JUMPI PUSH32 0x8B094CCA6F83D49402CE208CC0C224B76625FFC58636DF56AE28024E704C5868 SWAP1 CALLER PUSH1 0x0 MSTORE PUSH1 0xB DUP2 MSTORE PUSH1 0x40 PUSH1 0x0 KECCAK256 PUSH32 0xDC6E73D4B36E22AB95945BD8833A5AF96C950EB29D8D75C4AECFFC987637AAAB DUP3 DUP3 SLOAD SWAP6 DUP1 DUP8 ADD DUP5 SSTORE DUP1 PUSH1 0xE SLOAD ADD SWAP1 DUP2 PUSH1 0xE SSTORE DUP1 PUSH1 0x10 SLOAD ADD SWAP5 DUP6 PUSH1 0x10 SSTORE SLOAD PUSH1 0x40 MLOAD SWAP2 DUP3 MSTORE DUP4 DUP3 ADD MSTORE PUSH32 0x4928895BA6723E8E27B15F32E4C3054A1B6C7F8C03F133558D6FA42B3928D14C PUSH1 0x40 CALLER SWAP3 LOG2 PUSH1 0x40 MLOAD SWAP1 DUP2 MSTORE LOG1 PUSH1 0x40 MLOAD SWAP1 DUP2 MSTORE LOG1 ISZERO PUSH2 0xF24 JUMPI JUMPDEST PUSH1 0x1 PUSH1 0x0 SSTORE STOP JUMPDEST CALLER PUSH32 0x72DAFB6AABE3F02118BC607EFBEAAA104D6B2009720C7B130F24BA418689C4B PUSH1 0x0 DUP1 LOG2 PUSH2 0xF1D JUMP JUMPDEST PUSH2 0xF66 SWAP2 POP DUP3 RETURNDATASIZE DUP5 GT PUSH2 0xA71 JUMPI PUSH2 0xA63 DUP2 DUP4 PUSH2 0x2C5C JUMP JUMPDEST DUP4 PUSH2 0xE65 JUMP JUMPDEST PUSH1 0x40 MLOAD PUSH4 0x30FDF8DB PUSH1 0xE1 SHL DUP2 MSTORE PUSH1 0x4 SWAP1 REVERT JUMPDEST PUSH2 0xF94 SWAP1 DUP3 RETURNDATASIZE DUP5 GT PUSH2 0xA71 JUMPI PUSH2 0xA63 DUP2 DUP4 PUSH2 0x2C5C JUMP JUMPDEST POP DUP3 PUSH2 0xDF8 JUMP JUMPDEST PUSH1 0x40 MLOAD PUSH4 0x162908E3 PUSH1 0xE1 SHL DUP2 MSTORE PUSH1 0x4 SWAP1 REVERT JUMPDEST POP PUSH1 0x1 SLOAD PUSH1 0x40 MLOAD PUSH4 0x2CC52B15 PUSH1 0xE1 SHL DUP2 MSTORE CALLER PUSH1 0x4 DUP3 ADD MSTORE SWAP1 PUSH1 0x20 SWAP1 DUP3 SWAP1 PUSH1 0x24 SWAP1 DUP3 SWAP1 PUSH1 0x1 PUSH1 0x1 PUSH1 0xA0 SHL SUB AND GAS STATICCALL SWAP1 DUP2 ISZERO PUSH2 0x29D JUMPI PUSH1 0x0 SWAP2 PUSH2 0xFF0 JUMPI JUMPDEST POP ISZERO PUSH2 0xDA2 JUMP JUMPDEST PUSH2 0x1008 SWAP2 POP PUSH1 0x20 RETURNDATASIZE DUP2 GT PUSH2 0xA71 JUMPI PUSH2 0xA63 DUP2 DUP4 PUSH2 0x2C5C JUMP JUMPDEST DUP3 PUSH2 0xFE9 JUMP JUMPDEST CALLVALUE PUSH2 0x290 JUMPI PUSH1 0x0 CALLDATASIZE PUSH1 0x3 NOT ADD SLT PUSH2 0x290 JUMPI PUSH2 0x1027 PUSH2 0x2D4E JUMP JUMPDEST PUSH1 0x40 MLOAD PUSH4 0xC47AB3D PUSH1 0xE2 SHL DUP2 MSTORE PUSH1 0x20 DUP2 DUP1 PUSH2 0x1045 ADDRESS PUSH1 0x4 DUP4 ADD PUSH2 0x2C96 JUMP JUMPDEST SUB DUP2 PUSH20 0x0 GAS DELEGATECALL SWAP1 DUP2 ISZERO PUSH2 0x29D JUMPI PUSH1 0x0 SWAP2 PUSH2 0x10BF JUMPI JUMPDEST POP ISZERO PUSH2 0x107A JUMPI PUSH1 0x1 PUSH1 0x0 SSTORE STOP JUMPDEST PUSH1 0x40 MLOAD PUSH3 0x461BCD PUSH1 0xE5 SHL DUP2 MSTORE PUSH1 0x20 PUSH1 0x4 DUP3 ADD MSTORE PUSH1 0x1A PUSH1 0x24 DUP3 ADD MSTORE PUSH32 0x4D6F6E74686C7920757064617465206E6F742064756520796574000000000000 PUSH1 0x44 DUP3 ADD MSTORE PUSH1 0x64 SWAP1 REVERT JUMPDEST PUSH2 0x10D7 SWAP2 POP PUSH1 0x20 RETURNDATASIZE DUP2 GT PUSH2 0xA71 JUMPI PUSH2 0xA63 DUP2 DUP4 PUSH2 0x2C5C JUMP JUMPDEST DUP2 PUSH2 0x106D JUMP JUMPDEST CALLVALUE PUSH2 0x290 JUMPI PUSH1 0x20 DUP1 PUSH1 0x3 NOT CALLDATASIZE ADD SLT PUSH2 0x290 JUMPI PUSH2 0x10F7 PUSH2 0x29A9 JUMP JUMPDEST PUSH1 0x1 SLOAD PUSH1 0x40 MLOAD PUSH4 0xC269014B PUSH1 0xE0 SHL DUP2 MSTORE PUSH1 0x1 PUSH1 0x1 PUSH1 0xA0 SHL SUB SWAP3 DUP4 AND PUSH1 0x4 DUP3 ADD MSTORE SWAP2 DUP4 SWAP2 DUP4 SWAP2 PUSH1 0x24 SWAP2 DUP4 SWAP2 AND GAS STATICCALL SWAP1 DUP2 ISZERO PUSH2 0x29D JUMPI PUSH1 0x0 SWAP2 PUSH2 0x1142 JUMPI JUMPDEST POP PUSH4 0xFFFFFFFF PUSH1 0x40 MLOAD SWAP2 AND DUP2 MSTORE RETURN JUMPDEST SWAP1 POP DUP2 DUP2 DUP2 RETURNDATASIZE DUP4 GT PUSH2 0x1175 JUMPI JUMPDEST PUSH2 0x1159 DUP2 DUP4 PUSH2 0x2C5C JUMP JUMPDEST DUP2 ADD SUB SLT PUSH2 0x290 JUMPI MLOAD PUSH4 0xFFFFFFFF DUP2 AND DUP2 SUB PUSH2 0x290 JUMPI DUP3 PUSH2 0x1133 JUMP JUMPDEST POP RETURNDATASIZE PUSH2 0x114F JUMP JUMPDEST CALLVALUE PUSH2 0x290 JUMPI PUSH1 0x20 CALLDATASIZE PUSH1 0x3 NOT ADD SLT PUSH2 0x290 JUMPI PUSH1 0x1 PUSH1 0x1 PUSH1 0xA0 SHL SUB PUSH2 0x119D PUSH2 0x29A9 JUMP JUMPDEST AND PUSH1 0x0 MSTORE PUSH1 0xC PUSH1 0x20 MSTORE PUSH1 0x20 PUSH1 0x40 PUSH1 0x0 KECCAK256 SLOAD PUSH1 0x40 MLOAD SWAP1 DUP2 MSTORE RETURN JUMPDEST CALLVALUE PUSH2 0x290 JUMPI PUSH1 0x20 CALLDATASIZE PUSH1 0x3 NOT ADD SLT PUSH2 0x290 JUMPI PUSH2 0x11CF PUSH2 0x29A9 JUMP JUMPDEST PUSH20 0x0 SWAP1 DUP2 EXTCODESIZE ISZERO PUSH2 0x290 JUMPI PUSH1 0x40 DUP1 MLOAD PUSH4 0xE63DD531 PUSH1 0xE0 SHL DUP2 MSTORE PUSH1 0x2 PUSH1 0x4 DUP3 ADD MSTORE PUSH1 0x1 PUSH1 0x1 PUSH1 0xA0 SHL SUB SWAP1 SWAP3 AND PUSH1 0x24 DUP4 ADD MSTORE ADDRESS PUSH1 0x20 SHL PUSH4 0x3D1A1A1 OR SWAP1 SHL PUSH1 0x44 DUP3 ADD MSTORE SWAP1 PUSH1 0x0 SWAP1 DUP3 SWAP1 PUSH1 0x64 SWAP1 DUP3 SWAP1 GAS DELEGATECALL DUP1 ISZERO PUSH2 0x29D JUMPI PUSH2 0x123B JUMPI STOP JUMPDEST PUSH2 0x1244 SWAP1 PUSH2 0x2C0F JUMP JUMPDEST STOP JUMPDEST CALLVALUE PUSH2 0x290 JUMPI PUSH1 0x40 CALLDATASIZE PUSH1 0x3 NOT ADD SLT PUSH2 0x290 JUMPI PUSH1 0x20 PUSH2 0x1261 PUSH2 0x29BF JUMP JUMPDEST PUSH1 0x4 CALLDATALOAD PUSH1 0x0 MSTORE PUSH1 0x16 DUP3 MSTORE PUSH1 0x40 PUSH1 0x0 KECCAK256 SWAP1 PUSH1 0x1 DUP1 PUSH1 0xA0 SHL SUB DUP1 DUP4 SLOAD AND SWAP2 AND EQ SWAP1 DUP2 PUSH2 0x12AE JUMPI JUMPDEST DUP2 PUSH2 0x1297 JUMPI JUMPDEST POP PUSH1 0x40 MLOAD SWAP1 ISZERO ISZERO DUP2 MSTORE RETURN JUMPDEST PUSH4 0xFFFFFFFF SWAP2 POP PUSH1 0x2 ADD SLOAD PUSH1 0x28 SHR AND ISZERO ISZERO DUP3 PUSH2 0x128C JUMP JUMPDEST SWAP1 POP PUSH1 0xFF PUSH1 0x2 DUP3 ADD SLOAD AND PUSH2 0x12C1 DUP2 PUSH2 0x29D5 JUMP JUMPDEST ISZERO SWAP1 PUSH2 0x1286 JUMP JUMPDEST CALLVALUE PUSH2 0x290 JUMPI PUSH1 0x0 CALLDATASIZE PUSH1 0x3 NOT ADD SLT PUSH2 0x290 JUMPI PUSH1 0x40 MLOAD PUSH32 0x0 PUSH1 0x1 PUSH1 0x1 PUSH1 0xA0 SHL SUB AND DUP2 MSTORE PUSH1 0x20 SWAP1 RETURN JUMPDEST CALLVALUE PUSH2 0x290 JUMPI PUSH1 0x20 CALLDATASIZE PUSH1 0x3 NOT ADD SLT PUSH2 0x290 JUMPI PUSH2 0x1326 PUSH2 0x29A9 JUMP JUMPDEST PUSH1 0x40 MLOAD PUSH4 0x2DE5E9BF PUSH1 0xE0 SHL DUP2 MSTORE PUSH1 0x2 PUSH1 0x4 DUP3 ADD MSTORE PUSH1 0x1 PUSH1 0x1 PUSH1 0xA0 SHL SUB SWAP1 SWAP2 AND PUSH1 0x24 DUP3 ADD MSTORE PUSH1 0x20 DUP2 PUSH1 0x44 DUP2 PUSH20 0x0 GAS DELEGATECALL DUP1 ISZERO PUSH2 0x29D JUMPI PUSH1 0x20 SWAP2 PUSH1 0x0 SWAP2 PUSH2 0x1382 JUMPI POP PUSH1 0x40 MLOAD SWAP1 ISZERO ISZERO DUP2 MSTORE RETURN JUMPDEST PUSH2 0x1399 SWAP2 POP DUP3 RETURNDATASIZE DUP2 GT PUSH2 0xA71 JUMPI PUSH2 0xA63 DUP2 DUP4 PUSH2 0x2C5C JUMP JUMPDEST DUP3 PUSH2 0x128C JUMP JUMPDEST CALLVALUE PUSH2 0x290 JUMPI PUSH1 0x40 CALLDATASIZE PUSH1 0x3 NOT ADD SLT PUSH2 0x290 JUMPI PUSH2 0x13B8 PUSH2 0x29A9 JUMP JUMPDEST PUSH1 0x1 PUSH1 0x1 PUSH1 0xA0 SHL SUB AND PUSH1 0x0 SWAP1 DUP2 MSTORE PUSH1 0x13 PUSH1 0x20 MSTORE PUSH1 0x40 SWAP1 KECCAK256 DUP1 SLOAD PUSH1 0x24 CALLDATALOAD SWAP2 SWAP1 DUP3 LT ISZERO PUSH2 0x290 JUMPI PUSH1 0x20 SWAP2 PUSH2 0x13E9 SWAP2 PUSH2 0x2BF7 JUMP JUMPDEST SWAP1 SLOAD PUSH1 0x40 MLOAD SWAP2 PUSH1 0x3 SHL SHR DUP2 MSTORE RETURN JUMPDEST CALLVALUE PUSH2 0x290 JUMPI PUSH1 0x40 CALLDATASIZE PUSH1 0x3 NOT ADD SLT PUSH2 0x290 JUMPI PUSH2 0x1410 PUSH2 0x29A9 JUMP JUMPDEST PUSH1 0x24 CALLDATALOAD DUP1 ISZERO ISZERO SWAP1 DUP2 PUSH2 0x14BD JUMPI JUMPDEST POP DUP1 PUSH2 0x1486 JUMPI JUMPDEST DUP1 PUSH2 0x1437 JUMPI JUMPDEST PUSH1 0x20 SWAP1 PUSH1 0x40 MLOAD SWAP1 ISZERO ISZERO DUP2 MSTORE RETURN JUMPDEST POP PUSH1 0x1 PUSH1 0x1 PUSH1 0xA0 SHL SUB AND PUSH1 0x0 DUP2 DUP2 MSTORE PUSH1 0xD PUSH1 0x20 MSTORE PUSH1 0x40 SWAP1 KECCAK256 SLOAD PUSH3 0x93A80 DUP2 ADD SWAP1 DUP2 LT PUSH2 0x9EA JUMPI TIMESTAMP GT DUP1 ISZERO PUSH2 0x146F JUMPI JUMPDEST PUSH1 0x20 SWAP2 POP PUSH2 0x142A JUMP JUMPDEST POP PUSH1 0x0 MSTORE PUSH1 0xC PUSH1 0x20 MSTORE PUSH1 0x20 PUSH1 0x40 PUSH1 0x0 KECCAK256 SLOAD ISZERO PUSH2 0x1466 JUMP JUMPDEST POP PUSH1 0x1 PUSH1 0x1 PUSH1 0xA0 SHL SUB DUP2 AND PUSH1 0x0 SWAP1 DUP2 MSTORE PUSH1 0xB PUSH1 0x20 MSTORE PUSH1 0x40 SWAP1 KECCAK256 SLOAD PUSH3 0xF4240 GT ISZERO DUP1 PUSH2 0x1424 JUMPI POP PUSH1 0xC PUSH1 0x20 MSTORE PUSH1 0x40 PUSH1 0x0 KECCAK256 SLOAD ISZERO PUSH2 0x1424 JUMP JUMPDEST SWAP1 POP PUSH1 0x10 SLOAD LT ISZERO DUP3 PUSH2 0x141D JUMP JUMPDEST PUSH2 0x2B40 JUMP JUMPDEST CALLVALUE PUSH2 0x290 JUMPI PUSH1 0x20 CALLDATASIZE PUSH1 0x3 NOT ADD SLT PUSH2 0x290 JUMPI PUSH1 0x1 PUSH1 0x1 PUSH1 0xA0 SHL SUB PUSH2 0x14F0 PUSH2 0x29A9 JUMP JUMPDEST AND PUSH1 0x0 MSTORE PUSH1 0x13 PUSH1 0x20 MSTORE PUSH2 0x152E PUSH2 0x1513 PUSH2 0x151A PUSH1 0x40 PUSH1 0x0 KECCAK256 PUSH1 0x40 MLOAD SWAP3 DUP4 DUP1 SWAP3 PUSH2 0x2E30 JUMP JUMPDEST SUB DUP3 PUSH2 0x2C5C JUMP JUMPDEST PUSH1 0x40 MLOAD SWAP2 DUP3 SWAP2 PUSH1 0x20 DUP4 MSTORE PUSH1 0x20 DUP4 ADD SWAP1 PUSH2 0x2A78 JUMP JUMPDEST SUB SWAP1 RETURN JUMPDEST CALLVALUE PUSH2 0x290 JUMPI PUSH1 0x60 CALLDATASIZE PUSH1 0x3 NOT ADD SLT PUSH2 0x290 JUMPI PUSH1 0x24 DUP1 CALLDATALOAD SWAP1 PUSH4 0xFFFFFFFF PUSH1 0x4 CALLDATALOAD DUP2 PUSH2 0x1559 PUSH2 0x2B0F JUMP JUMPDEST AND SWAP3 DUP4 ISZERO DUP1 ISZERO PUSH2 0x1B1F JUMPI JUMPDEST PUSH2 0xC57 JUMPI DUP2 PUSH1 0x0 MSTORE PUSH1 0x20 SWAP1 PUSH1 0x16 DUP3 MSTORE PUSH1 0x40 PUSH1 0x0 KECCAK256 SWAP6 CALLER PUSH1 0x0 MSTORE PUSH1 0xC DUP4 MSTORE PUSH1 0x40 PUSH1 0x0 KECCAK256 SLOAD ISZERO PUSH2 0x1B0D JUMPI DUP7 SLOAD PUSH1 0x1 PUSH1 0x1 PUSH1 0xA0 SHL SUB SWAP8 SWAP1 CALLER SWAP1 DUP10 AND SUB PUSH2 0x1B0D JUMPI PUSH1 0x2 ADD SLOAD PUSH1 0xFF DUP2 AND PUSH2 0x15B2 DUP2 PUSH2 0x29D5 JUMP JUMPDEST PUSH2 0x1B0D JUMPI PUSH1 0x28 SHR DUP6 AND ISZERO PUSH2 0x1B0D JUMPI PUSH2 0x15C8 PUSH2 0x2D4E JUMP JUMPDEST PUSH1 0x40 MLOAD PUSH4 0xC47AB3D PUSH1 0xE2 SHL DUP2 MSTORE PUSH20 0x0 SWAP1 DUP5 DUP2 DUP1 PUSH2 0x15FB ADDRESS PUSH1 0x4 DUP4 ADD PUSH2 0x2C96 JUMP JUMPDEST SUB DUP2 DUP6 GAS DELEGATECALL DUP1 ISZERO PUSH2 0x29D JUMPI PUSH2 0x1AF0 JUMPI JUMPDEST POP DUP2 ISZERO PUSH2 0xF9B JUMPI DUP5 PUSH1 0x0 MSTORE PUSH1 0x16 DUP5 MSTORE PUSH1 0x40 PUSH1 0x0 KECCAK256 SWAP1 PUSH1 0x2 DUP3 ADD SWAP8 DUP9 SLOAD DUP9 DUP1 DUP3 PUSH1 0x28 SHR AND SWAP2 PUSH1 0x8 SHR AND SUB DUP9 DUP2 GT PUSH2 0x19F4 JUMPI PUSH2 0x1648 SWAP1 PUSH1 0x4 DUP6 ADD PUSH2 0x2BF7 JUMP JUMPDEST SWAP1 SLOAD PUSH1 0x3 SWAP5 SWAP2 DUP6 SHL SHR TIMESTAMP GT ISZERO PUSH2 0x1A52 JUMPI DUP11 PUSH1 0x1 SLOAD AND SWAP2 PUSH1 0x40 MLOAD PUSH4 0xA5118BF1 PUSH1 0xE0 SHL DUP2 MSTORE DUP9 DUP2 PUSH1 0x4 DUP2 DUP8 GAS STATICCALL SWAP1 DUP2 ISZERO PUSH2 0x29D JUMPI PUSH1 0x0 SWAP2 PUSH2 0x1A35 JUMPI JUMPDEST POP DUP4 EXTCODESIZE ISZERO PUSH2 0x290 JUMPI PUSH1 0x64 PUSH1 0x0 SWAP3 DUP4 PUSH1 0x40 MLOAD SWAP7 DUP8 SWAP5 DUP6 SWAP4 PUSH4 0x533DFA35 PUSH1 0xE0 SHL DUP6 MSTORE PUSH1 0x4 DUP6 ADD MSTORE DUP11 SIGNEXTEND DUP13 DUP5 ADD MSTORE DUP2 PUSH1 0x44 DUP5 ADD MSTORE GAS CALL SWAP2 DUP3 ISZERO PUSH2 0x29D JUMPI DUP5 SWAP3 PUSH2 0x1A26 JUMPI JUMPDEST POP JUMPDEST ADD SLOAD DUP4 SUB PUSH2 0xF9B JUMPI PUSH1 0x40 MLOAD PUSH4 0x23B872DD PUSH1 0xE0 SHL DUP2 MSTORE CALLER PUSH1 0x4 DUP3 ADD MSTORE ADDRESS PUSH1 0x24 DUP3 ADD MSTORE PUSH1 0x44 DUP2 ADD DUP5 SWAP1 MSTORE DUP6 DUP2 PUSH1 0x64 DUP2 PUSH1 0x0 PUSH32 0x0 DUP16 AND GAS CALL SWAP1 DUP2 ISZERO PUSH2 0x29D JUMPI PUSH1 0x0 SWAP2 PUSH2 0x1A09 JUMPI JUMPDEST POP ISZERO PUSH2 0xA37 JUMPI SWAP7 SWAP6 SWAP7 CALLER PUSH1 0x0 MSTORE PUSH1 0xC DUP6 MSTORE PUSH1 0x40 PUSH1 0x0 KECCAK256 PUSH2 0x1749 DUP5 DUP3 SLOAD PUSH2 0x2D34 JUMP JUMPDEST SWAP1 SSTORE PUSH2 0x1757 DUP4 PUSH1 0xF SLOAD PUSH2 0x2D34 JUMP JUMPDEST PUSH1 0xF SSTORE PUSH2 0x1766 DUP4 PUSH1 0x10 SLOAD PUSH2 0x2D41 JUMP JUMPDEST PUSH1 0x10 SSTORE DUP6 PUSH1 0x0 MSTORE PUSH1 0x11 DUP6 MSTORE PUSH1 0x40 PUSH1 0x0 KECCAK256 SWAP1 PUSH1 0x2 DUP3 ADD SLOAD SWAP5 PUSH1 0x0 SWAP9 PUSH1 0x7 PUSH1 0x6 DUP6 ADD SWAP5 ADD SWAP10 JUMPDEST DUP5 SLOAD DUP2 LT ISZERO PUSH2 0x1855 JUMPI DUP1 DUP14 PUSH2 0x17A2 PUSH2 0x17D9 SWAP4 DUP9 PUSH2 0x2BF7 JUMP JUMPDEST SWAP1 SLOAD SWAP1 DUP10 SHL SHR AND DUP1 PUSH1 0x0 MSTORE DUP13 DUP12 MSTORE DUP12 PUSH2 0x17C9 DUP12 PUSH2 0x17C4 PUSH1 0x40 PUSH1 0x0 KECCAK256 SLOAD DUP14 PUSH2 0x2DFD JUMP JUMPDEST PUSH2 0x2E10 JUMP JUMPDEST DUP13 DUP2 PUSH2 0x17DE JUMPI JUMPDEST POP POP POP POP PUSH2 0x2DA4 JUMP JUMPDEST PUSH2 0x178A JUMP JUMPDEST PUSH32 0xE3E6AE1E05F069D410556743894AACBB190C1431962422EBE8FCC642A467DD16 SWAP2 DUP5 PUSH1 0x0 MSTORE PUSH1 0x14 DUP3 MSTORE PUSH1 0x40 PUSH1 0x0 KECCAK256 DUP1 SLOAD DUP1 DUP4 GT PUSH2 0x184D JUMPI JUMPDEST DUP3 PUSH2 0x1821 SWAP2 PUSH2 0x2D34 JUMP JUMPDEST SWAP1 SSTORE DUP5 PUSH1 0x0 MSTORE PUSH1 0xB DUP3 MSTORE PUSH1 0x40 PUSH1 0x0 KECCAK256 PUSH2 0x183B DUP3 DUP3 SLOAD PUSH2 0x2D41 JUMP JUMPDEST SWAP1 SSTORE PUSH1 0x40 MLOAD SWAP1 DUP2 MSTORE LOG3 DUP15 DUP12 DUP2 DUP13 PUSH2 0x17D0 JUMP JUMPDEST SWAP2 POP DUP2 PUSH2 0x1817 JUMP JUMPDEST POP DUP9 DUP9 SWAP2 DUP13 DUP9 CALLER PUSH1 0x0 MSTORE PUSH1 0xC DUP6 MSTORE PUSH1 0x40 PUSH1 0x0 KECCAK256 SLOAD PUSH1 0x40 MLOAD SWAP2 DUP3 MSTORE DUP6 DUP3 ADD MSTORE PUSH32 0x1B8CD61ED43BEC7C6BDAD3A18FFEE613F99C853D16C50678D248D879E1B43438 PUSH1 0x40 CALLER SWAP3 LOG2 DUP1 DUP3 SLOAD PUSH1 0x28 SHR AND DUP4 PUSH32 0x406356EF25520B09E2EF87C5225167B4161EA4AB691E9434D6EE29EAFCC83FC2 DUP7 PUSH1 0x40 MLOAD DUP5 DUP2 MSTORE LOG2 PUSH32 0x17F13FD3F7C4712AF33F1770EBCB822DD20A2DBC00850EAB48D786623D97B959 DUP6 PUSH1 0xF SLOAD PUSH1 0x40 MLOAD SWAP1 DUP2 MSTORE LOG1 PUSH32 0x8B094CCA6F83D49402CE208CC0C224B76625FFC58636DF56AE28024E704C5868 DUP6 PUSH1 0x10 SLOAD PUSH1 0x40 MLOAD SWAP1 DUP2 MSTORE LOG1 PUSH1 0x0 NOT ADD DUP2 DUP2 GT PUSH2 0x19F4 JUMPI DUP3 SLOAD PUSH9 0xFFFFFFFF0000000000 NOT AND PUSH1 0x28 SWAP2 SWAP1 SWAP2 SHL PUSH9 0xFFFFFFFF0000000000 AND OR DUP3 SSTORE DUP2 SLOAD SWAP1 DUP2 PUSH1 0x28 SHR AND ISZERO PUSH2 0x19BE JUMPI JUMPDEST POP POP POP DUP3 EXTCODESIZE ISZERO PUSH2 0x290 JUMPI PUSH1 0x64 PUSH1 0x0 SWAP3 PUSH4 0x3D1A1A1 SWAP5 PUSH1 0x40 MLOAD SWAP6 DUP7 SWAP5 DUP6 SWAP4 PUSH4 0xE63DD531 PUSH1 0xE0 SHL DUP6 MSTORE PUSH1 0x2 PUSH1 0x4 DUP7 ADD MSTORE CALLER SWAP1 DUP6 ADD MSTORE ADDRESS SWAP1 SHL OR PUSH1 0x40 SHL PUSH1 0x44 DUP4 ADD MSTORE GAS DELEGATECALL DUP1 ISZERO PUSH2 0x29D JUMPI PUSH2 0x19AF JUMPI PUSH1 0x1 PUSH1 0x0 SSTORE STOP JUMPDEST PUSH2 0x19B8 SWAP1 PUSH2 0x2C0F JUMP JUMPDEST DUP1 PUSH2 0xF1D JUMP JUMPDEST PUSH1 0xFF NOT AND PUSH1 0x2 OR SWAP1 SSTORE PUSH32 0x2CA5489B37DD363D1302BAC719E8EE40E540FFBE8C12253570FEA63E11CAD71 PUSH1 0x0 DUP1 LOG2 DUP4 DUP1 DUP1 PUSH2 0x195D JUMP JUMPDEST DUP6 PUSH4 0x4E487B71 PUSH1 0xE0 SHL PUSH1 0x0 MSTORE PUSH1 0x11 PUSH1 0x4 MSTORE PUSH1 0x0 REVERT JUMPDEST PUSH2 0x1A20 SWAP2 POP DUP7 RETURNDATASIZE DUP9 GT PUSH2 0xA71 JUMPI PUSH2 0xA63 DUP2 DUP4 PUSH2 0x2C5C JUMP JUMPDEST DUP11 PUSH2 0x1728 JUMP JUMPDEST PUSH2 0x1A2F SWAP1 PUSH2 0x2C0F JUMP JUMPDEST DUP12 PUSH2 0x16C3 JUMP JUMPDEST PUSH2 0x1A4C SWAP2 POP DUP10 RETURNDATASIZE DUP12 GT PUSH2 0xA30 JUMPI PUSH2 0xA21 DUP2 DUP4 PUSH2 0x2C5C JUMP JUMPDEST DUP14 PUSH2 0x1682 JUMP JUMPDEST DUP11 PUSH1 0x1 SLOAD AND SWAP2 PUSH1 0x40 MLOAD PUSH4 0x4E5ECF13 PUSH1 0xE0 SHL DUP2 MSTORE DUP9 DUP2 PUSH1 0x4 DUP2 DUP8 GAS STATICCALL SWAP1 DUP2 ISZERO PUSH2 0x29D JUMPI PUSH1 0x0 SWAP2 PUSH2 0x1AD3 JUMPI JUMPDEST POP DUP4 EXTCODESIZE ISZERO PUSH2 0x290 JUMPI PUSH1 0x64 PUSH1 0x0 SWAP3 DUP4 PUSH1 0x40 MLOAD SWAP7 DUP8 SWAP5 DUP6 SWAP4 PUSH4 0x533DFA35 PUSH1 0xE0 SHL DUP6 MSTORE PUSH1 0x4 DUP6 ADD MSTORE DUP11 SIGNEXTEND DUP13 DUP5 ADD MSTORE PUSH1 0x1 PUSH1 0x44 DUP5 ADD MSTORE GAS CALL SWAP2 DUP3 ISZERO PUSH2 0x29D JUMPI DUP5 SWAP3 PUSH2 0x1AC4 JUMPI JUMPDEST POP PUSH2 0x16C5 JUMP JUMPDEST PUSH2 0x1ACD SWAP1 PUSH2 0x2C0F JUMP JUMPDEST DUP12 PUSH2 0x1ABE JUMP JUMPDEST PUSH2 0x1AEA SWAP2 POP DUP10 RETURNDATASIZE DUP12 GT PUSH2 0xA30 JUMPI PUSH2 0xA21 DUP2 DUP4 PUSH2 0x2C5C JUMP JUMPDEST DUP14 PUSH2 0x1A7C JUMP JUMPDEST PUSH2 0x1B06 SWAP1 DUP6 RETURNDATASIZE DUP8 GT PUSH2 0xA71 JUMPI PUSH2 0xA63 DUP2 DUP4 PUSH2 0x2C5C JUMP JUMPDEST POP DUP9 PUSH2 0x160B JUMP JUMPDEST PUSH1 0x40 MLOAD PUSH4 0xB5AB5BF PUSH1 0xE4 SHL DUP2 MSTORE PUSH1 0x4 SWAP1 REVERT JUMPDEST POP PUSH1 0x1 SLOAD PUSH1 0x40 MLOAD PUSH4 0x2CC52B15 PUSH1 0xE1 SHL DUP2 MSTORE CALLER PUSH1 0x4 DUP3 ADD MSTORE SWAP1 PUSH1 0x20 SWAP1 DUP3 SWAP1 DUP5 SWAP1 DUP3 SWAP1 PUSH1 0x1 PUSH1 0x1 PUSH1 0xA0 SHL SUB AND GAS STATICCALL SWAP1 DUP2 ISZERO PUSH2 0x29D JUMPI PUSH1 0x0 SWAP2 PUSH2 0x1B61 JUMPI JUMPDEST POP ISZERO PUSH2 0x1564 JUMP JUMPDEST PUSH2 0x1B79 SWAP2 POP PUSH1 0x20 RETURNDATASIZE DUP2 GT PUSH2 0xA71 JUMPI PUSH2 0xA63 DUP2 DUP4 PUSH2 0x2C5C JUMP JUMPDEST DUP7 PUSH2 0x1B5A JUMP JUMPDEST CALLVALUE PUSH2 0x290 JUMPI PUSH1 0x20 CALLDATASIZE PUSH1 0x3 NOT ADD SLT PUSH2 0x290 JUMPI PUSH1 0x4 CALLDATALOAD PUSH1 0x0 MSTORE PUSH1 0x11 PUSH1 0x20 MSTORE PUSH2 0x152E PUSH2 0x1BAE PUSH1 0x6 PUSH1 0x40 PUSH1 0x0 KECCAK256 ADD PUSH2 0x302E JUMP JUMPDEST PUSH1 0x40 MLOAD SWAP2 DUP3 SWAP2 PUSH1 0x20 DUP4 MSTORE PUSH1 0x20 DUP4 ADD SWAP1 PUSH2 0x2AAC JUMP JUMPDEST CALLVALUE PUSH2 0x290 JUMPI PUSH1 0x0 CALLDATASIZE PUSH1 0x3 NOT ADD SLT PUSH2 0x290 JUMPI PUSH1 0x20 PUSH1 0x12 SLOAD PUSH1 0x40 MLOAD SWAP1 DUP2 MSTORE RETURN JUMPDEST CALLVALUE PUSH2 0x290 JUMPI PUSH1 0x0 CALLDATASIZE PUSH1 0x3 NOT ADD SLT PUSH2 0x290 JUMPI PUSH1 0x40 MLOAD PUSH4 0x404B48BF PUSH1 0xE0 SHL DUP2 MSTORE PUSH1 0x2 PUSH1 0x4 DUP3 ADD MSTORE PUSH1 0x0 DUP2 PUSH1 0x24 DUP2 PUSH20 0x0 GAS DELEGATECALL DUP1 ISZERO PUSH2 0x29D JUMPI PUSH2 0x152E SWAP2 PUSH1 0x0 SWAP2 PUSH2 0x1C49 JUMPI JUMPDEST POP PUSH1 0x40 MLOAD SWAP2 DUP3 SWAP2 PUSH1 0x20 DUP4 MSTORE PUSH1 0x20 DUP4 ADD SWAP1 PUSH2 0x2AAC JUMP JUMPDEST PUSH2 0x1C66 SWAP2 POP RETURNDATASIZE DUP1 PUSH1 0x0 DUP4 RETURNDATACOPY PUSH2 0x1C5E DUP2 DUP4 PUSH2 0x2C5C JUMP JUMPDEST DUP2 ADD SWAP1 PUSH2 0x2E85 JUMP JUMPDEST DUP3 PUSH2 0x1C34 JUMP JUMPDEST CALLVALUE PUSH2 0x290 JUMPI PUSH1 0x20 CALLDATASIZE PUSH1 0x3 NOT ADD SLT PUSH2 0x290 JUMPI PUSH1 0x1 PUSH1 0x1 PUSH1 0xA0 SHL SUB PUSH2 0x1C8D PUSH2 0x29A9 JUMP JUMPDEST AND PUSH1 0x0 MSTORE PUSH1 0x14 PUSH1 0x20 MSTORE PUSH1 0x20 PUSH1 0x40 PUSH1 0x0 KECCAK256 SLOAD PUSH1 0x40 MLOAD SWAP1 DUP2 MSTORE RETURN JUMPDEST CALLVALUE PUSH2 0x290 JUMPI PUSH1 0x20 CALLDATASIZE PUSH1 0x3 NOT ADD SLT PUSH2 0x290 JUMPI PUSH2 0x1CBF PUSH2 0x2AFC JUMP JUMPDEST PUSH1 0x1 SLOAD PUSH1 0x40 MLOAD PUSH4 0x2076C8A1 PUSH1 0xE2 SHL DUP2 MSTORE PUSH4 0xFFFFFFFF SWAP3 SWAP1 SWAP3 AND PUSH1 0x4 DUP4 ADD MSTORE PUSH1 0x20 SWAP1 DUP3 SWAP1 PUSH1 0x24 SWAP1 DUP3 SWAP1 PUSH1 0x1 PUSH1 0x1 PUSH1 0xA0 SHL SUB AND GAS STATICCALL DUP1 ISZERO PUSH2 0x29D JUMPI PUSH1 0x20 SWAP2 PUSH1 0x0 SWAP2 PUSH2 0x1D0F JUMPI JUMPDEST POP PUSH1 0x40 MLOAD SWAP1 PUSH1 0x3 SIGNEXTEND DUP2 MSTORE RETURN JUMPDEST PUSH2 0x1D26 SWAP2 POP DUP3 RETURNDATASIZE DUP2 GT PUSH2 0xA30 JUMPI PUSH2 0xA21 DUP2 DUP4 PUSH2 0x2C5C JUMP JUMPDEST DUP3 PUSH2 0x1D03 JUMP JUMPDEST PUSH2 0x2B22 JUMP JUMPDEST CALLVALUE PUSH2 0x290 JUMPI PUSH1 0x20 CALLDATASIZE PUSH1 0x3 NOT ADD SLT PUSH2 0x290 JUMPI PUSH1 0x4 CALLDATALOAD PUSH1 0x0 MSTORE PUSH1 0x16 PUSH1 0x20 MSTORE PUSH2 0x152E PUSH2 0x1513 PUSH2 0x151A PUSH1 0x4 PUSH1 0x40 PUSH1 0x0 KECCAK256 ADD PUSH1 0x40 MLOAD SWAP3 DUP4 DUP1 SWAP3 PUSH2 0x2E30 JUMP JUMPDEST CALLVALUE PUSH2 0x290 JUMPI PUSH1 0x0 CALLDATASIZE PUSH1 0x3 NOT ADD SLT PUSH2 0x290 JUMPI PUSH1 0x40 MLOAD PUSH4 0xF28E2C2F PUSH1 0xE0 SHL DUP2 MSTORE PUSH1 0x2 PUSH1 0x4 DUP3 ADD MSTORE PUSH1 0x20 DUP2 PUSH1 0x24 DUP2 PUSH20 0x0 GAS DELEGATECALL DUP1 ISZERO PUSH2 0x29D JUMPI PUSH1 0x20 SWAP2 PUSH1 0x0 SWAP2 PUSH2 0x1382 JUMPI POP PUSH1 0x40 MLOAD SWAP1 ISZERO ISZERO DUP2 MSTORE RETURN JUMPDEST CALLVALUE PUSH2 0x290 JUMPI PUSH1 0x0 CALLDATASIZE PUSH1 0x3 NOT ADD SLT PUSH2 0x290 JUMPI PUSH1 0x20 PUSH1 0xE SLOAD PUSH1 0x40 MLOAD SWAP1 DUP2 MSTORE RETURN JUMPDEST CALLVALUE PUSH2 0x290 JUMPI PUSH1 0x0 CALLDATASIZE PUSH1 0x3 NOT ADD SLT PUSH2 0x290 JUMPI PUSH1 0x1 SLOAD PUSH1 0x40 MLOAD PUSH1 0x1 PUSH1 0x1 PUSH1 0xA0 SHL SUB SWAP1 SWAP2 AND DUP2 MSTORE PUSH1 0x20 SWAP1 RETURN JUMPDEST CALLVALUE PUSH2 0x290 JUMPI PUSH1 0x20 CALLDATASIZE PUSH1 0x3 NOT ADD SLT PUSH2 0x290 JUMPI PUSH1 0x1 PUSH1 0x1 PUSH1 0xA0 SHL SUB PUSH2 0x1E2F PUSH2 0x29A9 JUMP JUMPDEST AND PUSH1 0x0 MSTORE PUSH1 0xD PUSH1 0x20 MSTORE PUSH1 0x20 PUSH1 0x40 PUSH1 0x0 KECCAK256 SLOAD PUSH1 0x40 MLOAD SWAP1 DUP2 MSTORE RETURN JUMPDEST CALLVALUE PUSH2 0x290 JUMPI PUSH1 0x20 CALLDATASIZE PUSH1 0x3 NOT ADD SLT PUSH2 0x290 JUMPI PUSH1 0x40 PUSH2 0x1E66 PUSH1 0x4 CALLDATALOAD PUSH2 0x2FDC JUMP JUMPDEST DUP3 MLOAD SWAP2 DUP3 MSTORE ISZERO ISZERO PUSH1 0x20 DUP3 ADD MSTORE RETURN JUMPDEST CALLVALUE PUSH2 0x290 JUMPI PUSH1 0x20 CALLDATASIZE PUSH1 0x3 NOT ADD SLT PUSH2 0x290 JUMPI PUSH2 0x1E8D PUSH2 0x29A9 JUMP JUMPDEST PUSH1 0x1 SLOAD PUSH1 0x40 MLOAD PUSH4 0x2CC52B15 PUSH1 0xE1 SHL DUP2 MSTORE PUSH1 0x1 PUSH1 0x1 PUSH1 0xA0 SHL SUB SWAP3 DUP4 AND PUSH1 0x4 DUP3 ADD MSTORE SWAP2 PUSH1 0x20 SWAP2 DUP4 SWAP2 PUSH1 0x24 SWAP2 DUP4 SWAP2 AND GAS STATICCALL DUP1 ISZERO PUSH2 0x29D JUMPI PUSH1 0x20 SWAP2 PUSH1 0x0 SWAP2 PUSH2 0x1382 JUMPI POP PUSH1 0x40 MLOAD SWAP1 ISZERO ISZERO DUP2 MSTORE RETURN JUMPDEST CALLVALUE PUSH2 0x290 JUMPI PUSH1 0x40 CALLDATASIZE PUSH1 0x3 NOT ADD SLT PUSH2 0x290 JUMPI PUSH2 0x1EEF PUSH2 0x29BF JUMP JUMPDEST PUSH1 0x4 CALLDATALOAD PUSH1 0x0 MSTORE PUSH1 0x11 PUSH1 0x20 MSTORE PUSH1 0x7 PUSH1 0x40 PUSH1 0x0 KECCAK256 ADD SWAP1 PUSH1 0x1 DUP1 PUSH1 0xA0 SHL SUB AND PUSH1 0x0 MSTORE PUSH1 0x20 MSTORE PUSH1 0x20 PUSH1 0x40 PUSH1 0x0 KECCAK256 SLOAD PUSH1 0x40 MLOAD SWAP1 DUP2 MSTORE RETURN JUMPDEST CALLVALUE PUSH2 0x290 JUMPI PUSH1 0x20 CALLDATASIZE PUSH1 0x3 NOT ADD SLT PUSH2 0x290 JUMPI PUSH1 0x1 PUSH1 0x1 PUSH1 0xA0 SHL SUB PUSH2 0x1F42 PUSH2 0x29A9 JUMP JUMPDEST AND PUSH1 0x0 MSTORE PUSH1 0xB PUSH1 0x20 MSTORE PUSH1 0x20 PUSH1 0x40 PUSH1 0x0 KECCAK256 SLOAD PUSH1 0x40 MLOAD SWAP1 DUP2 MSTORE RETURN JUMPDEST CALLVALUE PUSH2 0x290 JUMPI PUSH1 0x20 CALLDATASIZE PUSH1 0x3 NOT ADD SLT PUSH2 0x290 JUMPI PUSH2 0x1F74 PUSH2 0x2F0F JUMP JUMPDEST POP PUSH1 0x4 CALLDATALOAD PUSH1 0x0 MSTORE PUSH1 0x16 PUSH1 0x20 MSTORE PUSH2 0x152E PUSH2 0x1F90 PUSH1 0x40 PUSH1 0x0 KECCAK256 PUSH2 0x2F5A JUMP JUMPDEST PUSH1 0x40 MLOAD SWAP2 DUP3 SWAP2 PUSH1 0x20 DUP4 MSTORE PUSH1 0x20 DUP4 ADD SWAP1 PUSH2 0x29DF JUMP JUMPDEST CALLVALUE PUSH2 0x290 JUMPI PUSH1 0x20 CALLDATASIZE PUSH1 0x3 NOT ADD SLT PUSH2 0x290 JUMPI PUSH2 0x1FBD PUSH2 0x29A9 JUMP JUMPDEST PUSH1 0x40 MLOAD PUSH4 0xB79B0A1 PUSH1 0xE2 SHL DUP2 MSTORE PUSH1 0x2 PUSH1 0x4 DUP3 ADD MSTORE PUSH1 0x1 PUSH1 0x1 PUSH1 0xA0 SHL SUB SWAP1 SWAP2 AND PUSH1 0x24 DUP3 ADD MSTORE PUSH1 0x20 DUP2 PUSH1 0x44 DUP2 PUSH20 0x0 GAS DELEGATECALL DUP1 ISZERO PUSH2 0x29D JUMPI PUSH1 0x20 SWAP2 PUSH1 0x0 SWAP2 PUSH2 0x1382 JUMPI POP PUSH1 0x40 MLOAD SWAP1 ISZERO ISZERO DUP2 MSTORE RETURN JUMPDEST CALLVALUE PUSH2 0x290 JUMPI PUSH1 0x20 CALLDATASIZE PUSH1 0x3 NOT ADD SLT PUSH2 0x290 JUMPI PUSH1 0x4 CALLDATALOAD PUSH1 0x0 MSTORE PUSH1 0x16 PUSH1 0x20 MSTORE PUSH1 0xA0 PUSH1 0x40 PUSH1 0x0 KECCAK256 PUSH1 0x11 PUSH1 0x20 MSTORE PUSH1 0x40 PUSH1 0x0 KECCAK256 SWAP1 PUSH1 0x2 DUP2 ADD SLOAD SWAP2 PUSH1 0xFF DUP4 AND PUSH2 0x205A DUP2 PUSH2 0x29D5 JUMP JUMPDEST ISZERO DUP1 PUSH2 0x20C4 JUMPI JUMPDEST ISZERO PUSH2 0x20AC JUMPI PUSH1 0x3 PUSH4 0xFFFFFFFF DUP1 SWAP5 PUSH1 0x28 SHR AND SWAP3 ADD SLOAD SWAP3 PUSH1 0x8 PUSH2 0x2083 DUP6 DUP6 PUSH2 0x2DFD JUMP JUMPDEST SWAP5 SWAP4 SWAP3 ADD SLOAD AND SWAP1 PUSH1 0x1 SWAP3 JUMPDEST PUSH1 0x40 MLOAD SWAP5 DUP6 MSTORE PUSH1 0x20 DUP6 ADD MSTORE PUSH1 0x40 DUP5 ADD MSTORE PUSH1 0x60 DUP4 ADD MSTORE ISZERO ISZERO PUSH1 0x80 DUP3 ADD MSTORE RETURN JUMPDEST PUSH1 0x8 ADD SLOAD PUSH1 0x0 SWAP3 POP DUP3 SWAP2 POP PUSH4 0xFFFFFFFF AND DUP2 DUP1 PUSH2 0x208E JUMP JUMPDEST POP PUSH4 0xFFFFFFFF DUP4 PUSH1 0x28 SHR AND ISZERO ISZERO PUSH2 0x2061 JUMP JUMPDEST CALLVALUE PUSH2 0x290 JUMPI PUSH1 0x20 CALLDATASIZE PUSH1 0x3 NOT ADD SLT PUSH2 0x290 JUMPI PUSH1 0x4 CALLDATALOAD PUSH1 0x0 MSTORE PUSH1 0x16 PUSH1 0x20 MSTORE PUSH1 0xC0 PUSH1 0x40 PUSH1 0x0 KECCAK256 PUSH1 0x1 DUP1 PUSH1 0xA0 SHL SUB DUP2 SLOAD AND SWAP1 PUSH1 0x1 DUP2 ADD SLOAD SWAP1 PUSH1 0x2 DUP2 ADD SLOAD SWAP1 PUSH1 0x3 PUSH1 0xFF DUP4 AND SWAP2 ADD SLOAD SWAP3 PUSH1 0x40 MLOAD SWAP5 DUP6 MSTORE PUSH1 0x20 DUP6 ADD MSTORE PUSH2 0x212E DUP2 PUSH2 0x29D5 JUMP JUMPDEST PUSH1 0x40 DUP5 ADD MSTORE PUSH4 0xFFFFFFFF SWAP1 DUP2 DUP2 PUSH1 0x8 SHR AND PUSH1 0x60 DUP6 ADD MSTORE PUSH1 0x28 SHR AND PUSH1 0x80 DUP4 ADD MSTORE PUSH1 0xA0 DUP3 ADD MSTORE RETURN JUMPDEST CALLVALUE PUSH2 0x290 JUMPI PUSH1 0x40 CALLDATASIZE PUSH1 0x3 NOT ADD SLT PUSH2 0x290 JUMPI PUSH2 0x216D PUSH2 0x2AFC JUMP JUMPDEST PUSH2 0x2175 PUSH2 0x29BF JUMP JUMPDEST PUSH1 0x1 SLOAD SWAP1 SWAP2 SWAP1 PUSH1 0x1 PUSH1 0x1 PUSH1 0xA0 SHL SUB SWAP1 DUP2 AND DUP1 EXTCODESIZE ISZERO PUSH2 0x290 JUMPI PUSH1 0x0 SWAP3 DUP4 PUSH1 0x44 SWAP3 PUSH4 0xFFFFFFFF SWAP5 PUSH1 0x40 MLOAD SWAP8 DUP9 SWAP7 DUP8 SWAP6 PUSH4 0x86ECC79 PUSH1 0xE2 SHL DUP8 MSTORE AND PUSH1 0x4 DUP7 ADD MSTORE AND PUSH1 0x24 DUP5 ADD MSTORE GAS CALL DUP1 ISZERO PUSH2 0x29D JUMPI PUSH2 0x123B JUMPI STOP JUMPDEST CALLVALUE PUSH2 0x290 JUMPI PUSH1 0x20 CALLDATASIZE PUSH1 0x3 NOT ADD SLT PUSH2 0x290 JUMPI PUSH1 0x0 PUSH2 0x120 PUSH1 0x40 MLOAD PUSH2 0x21E8 DUP2 PUSH2 0x2C23 JUMP JUMPDEST DUP3 DUP2 MSTORE DUP3 PUSH1 0x20 DUP3 ADD MSTORE DUP3 PUSH1 0x40 DUP3 ADD MSTORE DUP3 PUSH1 0x60 DUP3 ADD MSTORE DUP3 PUSH1 0x80 DUP3 ADD MSTORE DUP3 PUSH1 0xA0 DUP3 ADD MSTORE DUP3 PUSH1 0xC0 DUP3 ADD MSTORE DUP3 PUSH1 0xE0 DUP3 ADD MSTORE PUSH1 0x60 PUSH2 0x100 DUP3 ADD MSTORE ADD MSTORE PUSH1 0x4 CALLDATALOAD PUSH1 0x0 MSTORE PUSH1 0x11 PUSH1 0x20 MSTORE PUSH1 0x40 PUSH1 0x0 KECCAK256 DUP1 SLOAD SWAP1 PUSH1 0x1 DUP1 PUSH1 0xA0 SHL SUB PUSH1 0x1 DUP3 ADD SLOAD AND SWAP1 PUSH1 0x2 DUP2 ADD SLOAD PUSH1 0x3 DUP3 ADD SLOAD SWAP2 PUSH1 0xFF DUP4 PUSH1 0x40 SHR AND SWAP2 PUSH4 0xFFFFFFFF PUSH1 0x4 DUP4 ADD SLOAD SWAP5 PUSH1 0x5 DUP5 ADD SLOAD SWAP3 DUP3 PUSH1 0x8 DUP7 ADD SLOAD AND SWAP8 PUSH1 0x40 MLOAD SWAP10 PUSH2 0x2279 DUP12 PUSH2 0x2C23 JUMP JUMPDEST DUP11 MSTORE PUSH1 0x20 DUP11 ADD MSTORE PUSH1 0x40 DUP10 ADD MSTORE DUP2 DUP2 AND PUSH1 0x60 DUP10 ADD MSTORE PUSH1 0x20 SHR AND PUSH1 0x80 DUP8 ADD MSTORE PUSH1 0x6 DUP4 LT ISZERO PUSH2 0xC0D JUMPI PUSH2 0x22BB SWAP4 PUSH1 0x6 SWAP4 PUSH1 0xA0 DUP9 ADD MSTORE PUSH1 0xC0 DUP8 ADD MSTORE PUSH1 0xE0 DUP7 ADD MSTORE ADD PUSH2 0x302E JUMP JUMPDEST PUSH2 0x100 DUP4 ADD MSTORE PUSH2 0x120 DUP3 ADD MSTORE PUSH1 0x40 MLOAD SWAP1 PUSH1 0x20 DUP3 MSTORE DUP1 MLOAD PUSH1 0x20 DUP4 ADD MSTORE PUSH1 0x1 DUP1 PUSH1 0xA0 SHL SUB PUSH1 0x20 DUP3 ADD MLOAD AND PUSH1 0x40 DUP4 ADD MSTORE PUSH1 0x40 DUP2 ADD MLOAD PUSH1 0x60 DUP4 ADD MSTORE PUSH4 0xFFFFFFFF PUSH1 0x60 DUP3 ADD MLOAD AND PUSH1 0x80 DUP4 ADD MSTORE PUSH4 0xFFFFFFFF PUSH1 0x80 DUP3 ADD MLOAD AND PUSH1 0xA0 DUP4 ADD MSTORE PUSH1 0xA0 DUP2 ADD MLOAD SWAP1 PUSH1 0x6 DUP3 LT ISZERO PUSH2 0xC0D JUMPI DUP3 SWAP2 PUSH1 0xC0 DUP4 ADD MSTORE PUSH1 0xC0 DUP2 ADD MLOAD PUSH1 0xE0 DUP4 ADD MSTORE PUSH1 0xE0 DUP2 ADD MLOAD PUSH2 0x100 DUP4 ADD MSTORE PUSH2 0x100 DUP2 ADD MLOAD PUSH4 0xFFFFFFFF PUSH2 0x120 PUSH2 0x2362 PUSH2 0x140 SWAP4 DUP5 DUP4 DUP9 ADD MSTORE PUSH2 0x160 DUP8 ADD SWAP1 PUSH2 0x2AAC JUMP JUMPDEST SWAP4 ADD MLOAD AND SWAP1 DUP4 ADD MSTORE SUB SWAP1 RETURN JUMPDEST CALLVALUE PUSH2 0x290 JUMPI PUSH1 0xA0 CALLDATASIZE PUSH1 0x3 NOT ADD SLT PUSH2 0x290 JUMPI PUSH1 0x4 CALLDATALOAD PUSH2 0x238A PUSH2 0x2AE9 JUMP JUMPDEST SWAP1 PUSH1 0x64 CALLDATALOAD SWAP1 PUSH4 0xFFFFFFFF SWAP2 DUP3 DUP2 AND DUP1 SWAP2 SUB PUSH2 0x290 JUMPI PUSH1 0x84 CALLDATALOAD SWAP3 DUP1 DUP5 AND DUP1 SWAP5 SUB PUSH2 0x290 JUMPI DUP4 PUSH1 0x0 MSTORE PUSH1 0x20 SWAP5 PUSH1 0x15 DUP7 MSTORE PUSH1 0x3 DUP3 PUSH1 0x40 PUSH1 0x0 KECCAK256 SLOAD AND LT ISZERO PUSH2 0x2586 JUMPI DUP5 ISZERO DUP1 ISZERO PUSH2 0x2527 JUMPI JUMPDEST PUSH2 0xC57 JUMPI DUP4 ISZERO PUSH2 0xF9B JUMPI DUP2 AND SWAP1 PUSH1 0x46 DUP3 GT DUP1 ISZERO SWAP1 PUSH2 0x251D JUMPI JUMPDEST PUSH2 0xC35 JUMPI PUSH1 0x1 DUP4 LT DUP1 ISZERO PUSH2 0x2513 JUMPI JUMPDEST PUSH2 0x2501 JUMPI PUSH1 0x10 SLOAD DUP5 GT PUSH2 0x24EF JUMPI PUSH1 0x12 SLOAD SWAP5 PUSH2 0x2413 DUP7 PUSH2 0x2DA4 JUMP JUMPDEST PUSH1 0x12 SSTORE DUP6 PUSH1 0x0 MSTORE PUSH1 0x11 DUP8 MSTORE PUSH1 0x40 PUSH1 0x0 KECCAK256 SWAP3 PUSH1 0x1 DUP5 ADD CALLER PUSH12 0xFFFFFFFFFFFFFFFFFFFFFFFF PUSH1 0xA0 SHL DUP3 SLOAD AND OR SWAP1 SSTORE DUP6 PUSH1 0x2 DUP6 ADD SSTORE PUSH1 0x3 DUP5 ADD SWAP1 PUSH9 0xFFFFFFFFFFFFFFFFFF NOT DUP3 SLOAD AND OR SWAP1 SSTORE PUSH1 0x44 CALLDATALOAD PUSH1 0x4 DUP5 ADD SSTORE TIMESTAMP PUSH1 0x5 DUP5 ADD SSTORE DUP6 PUSH1 0x8 DUP5 ADD SWAP4 PUSH4 0xFFFFFFFF NOT SWAP5 DUP7 DUP7 DUP3 SLOAD AND OR SWAP1 SSTORE SSTORE CALLER PUSH1 0x0 MSTORE PUSH1 0x13 DUP8 MSTORE PUSH2 0x2495 DUP7 PUSH1 0x40 PUSH1 0x0 KECCAK256 PUSH2 0x2DB3 JUMP JUMPDEST PUSH1 0x0 MSTORE PUSH1 0x15 DUP7 MSTORE PUSH1 0x40 PUSH1 0x0 KECCAK256 SWAP2 DUP3 SLOAD SWAP2 PUSH2 0x24B0 DUP2 DUP5 AND PUSH2 0x2DE8 JUMP JUMPDEST AND SWAP2 AND OR SWAP1 SSTORE PUSH1 0x40 MLOAD SWAP2 DUP3 MSTORE DUP4 DUP3 ADD MSTORE DUP2 PUSH32 0xDE3B47CF7DA95A3CC41B86CF8717EAD8D56A76EE1590481C5C4DC4D8804C40C4 PUSH1 0x40 CALLER SWAP4 LOG3 PUSH1 0x40 MLOAD SWAP1 DUP2 MSTORE RETURN JUMPDEST PUSH1 0x40 MLOAD PUSH4 0x356680B7 PUSH1 0xE0 SHL DUP2 MSTORE PUSH1 0x4 SWAP1 REVERT JUMPDEST PUSH1 0x40 MLOAD PUSH4 0x524EFF27 PUSH1 0xE0 SHL DUP2 MSTORE PUSH1 0x4 SWAP1 REVERT JUMPDEST POP PUSH1 0xC DUP4 GT PUSH2 0x23F9 JUMP JUMPDEST POP PUSH1 0x64 DUP3 GT PUSH2 0x23EA JUMP JUMPDEST POP PUSH1 0x1 SLOAD PUSH1 0x40 MLOAD PUSH4 0x2CC52B15 PUSH1 0xE1 SHL DUP2 MSTORE CALLER PUSH1 0x4 DUP3 ADD MSTORE SWAP1 DUP8 SWAP1 DUP3 SWAP1 PUSH1 0x24 SWAP1 DUP3 SWAP1 PUSH1 0x1 PUSH1 0x1 PUSH1 0xA0 SHL SUB AND GAS STATICCALL SWAP1 DUP2 ISZERO PUSH2 0x29D JUMPI PUSH1 0x0 SWAP2 PUSH2 0x2569 JUMPI JUMPDEST POP ISZERO PUSH2 0x23D1 JUMP JUMPDEST PUSH2 0x2580 SWAP2 POP DUP8 RETURNDATASIZE DUP10 GT PUSH2 0xA71 JUMPI PUSH2 0xA63 DUP2 DUP4 PUSH2 0x2C5C JUMP JUMPDEST DUP8 PUSH2 0x2562 JUMP JUMPDEST PUSH1 0x40 MLOAD PUSH4 0x5AAD290F PUSH1 0xE0 SHL DUP2 MSTORE PUSH1 0x4 SWAP1 REVERT JUMPDEST CALLVALUE PUSH2 0x290 JUMPI PUSH1 0x0 CALLDATASIZE PUSH1 0x3 NOT ADD SLT PUSH2 0x290 JUMPI PUSH1 0x40 MLOAD PUSH4 0x7FD5E70B PUSH1 0xE0 SHL DUP2 MSTORE PUSH1 0x2 PUSH1 0x4 DUP3 ADD MSTORE PUSH1 0x0 DUP2 PUSH1 0x24 DUP2 PUSH20 0x0 GAS DELEGATECALL DUP1 ISZERO PUSH2 0x29D JUMPI PUSH2 0x152E SWAP2 PUSH1 0x0 SWAP2 PUSH2 0x1C49 JUMPI POP PUSH1 0x40 MLOAD SWAP2 DUP3 SWAP2 PUSH1 0x20 DUP4 MSTORE PUSH1 0x20 DUP4 ADD SWAP1 PUSH2 0x2AAC JUMP JUMPDEST CALLVALUE PUSH2 0x290 JUMPI PUSH1 0x20 DUP1 PUSH1 0x3 NOT CALLDATASIZE ADD SLT PUSH2 0x290 JUMPI PUSH1 0x1 PUSH1 0x1 PUSH1 0xA0 SHL SUB SWAP1 DUP2 PUSH2 0x2624 PUSH2 0x29A9 JUMP JUMPDEST AND DUP1 PUSH1 0x0 MSTORE PUSH1 0x13 DUP3 MSTORE PUSH1 0x40 PUSH1 0x0 KECCAK256 PUSH1 0x0 SWAP2 PUSH1 0x0 SWAP2 DUP1 SLOAD SWAP3 JUMPDEST DUP4 DUP2 LT PUSH2 0x2809 JUMPI POP PUSH2 0x264D DUP5 PUSH2 0x2E6D JUMP JUMPDEST SWAP6 PUSH2 0x265B PUSH1 0x40 MLOAD SWAP8 DUP9 PUSH2 0x2C5C JUMP JUMPDEST DUP5 DUP8 MSTORE PUSH1 0x1F NOT DUP1 PUSH2 0x266B DUP8 PUSH2 0x2E6D JUMP JUMPDEST ADD PUSH1 0x0 JUMPDEST DUP2 DUP2 LT PUSH2 0x27EE JUMPI POP POP PUSH2 0x269A PUSH2 0x2684 DUP8 PUSH2 0x2E6D JUMP JUMPDEST SWAP7 PUSH2 0x2692 PUSH1 0x40 MLOAD SWAP9 DUP10 PUSH2 0x2C5C JUMP JUMPDEST DUP1 DUP9 MSTORE PUSH2 0x2E6D JUMP JUMPDEST ADD CALLDATASIZE DUP8 DUP8 ADD CALLDATACOPY PUSH1 0x0 SWAP3 PUSH1 0x0 JUMPDEST DUP6 DUP2 LT PUSH2 0x2726 JUMPI DUP9 DUP9 DUP9 PUSH1 0x40 MLOAD SWAP3 DUP4 SWAP2 PUSH1 0x40 DUP4 ADD SWAP4 PUSH1 0x40 DUP5 MSTORE DUP3 MLOAD DUP1 SWAP6 MSTORE PUSH1 0x60 DUP5 ADD SWAP5 DUP2 PUSH1 0x60 DUP3 PUSH1 0x5 SHL DUP8 ADD ADD SWAP5 ADD SWAP6 PUSH1 0x0 SWAP1 JUMPDEST DUP3 DUP3 LT PUSH2 0x26F6 JUMPI POP POP POP DUP4 PUSH2 0x152E SWAP5 SWAP6 POP DUP4 SUB SWAP1 DUP6 ADD MSTORE PUSH2 0x2A78 JUMP JUMPDEST SWAP2 SWAP4 SWAP6 POP SWAP2 SWAP4 DUP5 DUP1 PUSH2 0x2714 PUSH1 0x1 SWAP4 PUSH1 0x5F NOT DUP13 DUP3 SUB ADD DUP7 MSTORE DUP11 MLOAD PUSH2 0x29DF JUMP JUMPDEST SWAP9 ADD SWAP3 ADD SWAP3 ADD DUP8 SWAP6 SWAP4 SWAP2 SWAP7 SWAP5 SWAP3 PUSH2 0x26DA JUMP JUMPDEST PUSH2 0x2733 DUP2 DUP6 SWAP11 SWAP10 SWAP11 PUSH2 0x2BF7 JUMP JUMPDEST SWAP1 SLOAD PUSH1 0x3 SWAP2 DUP3 SHL SHR PUSH1 0x0 MSTORE PUSH1 0x16 DUP11 MSTORE PUSH1 0x40 PUSH1 0x0 KECCAK256 DUP4 DUP6 DUP3 SLOAD AND EQ DUP1 PUSH2 0x27D6 JUMPI JUMPDEST DUP1 PUSH2 0x27C0 JUMPI JUMPDEST PUSH2 0x2771 JUMPI JUMPDEST POP POP PUSH2 0x2769 SWAP1 PUSH2 0x2DA4 JUMP JUMPDEST SWAP8 SWAP7 SWAP8 PUSH2 0x26A6 JUMP JUMPDEST SWAP6 PUSH2 0x27B8 SWAP2 PUSH2 0x2783 PUSH2 0x2769 SWAP5 SWAP9 PUSH2 0x2F5A JUMP JUMPDEST PUSH2 0x278D DUP4 DUP14 PUSH2 0x2F46 JUMP JUMPDEST MSTORE PUSH2 0x2798 DUP3 DUP13 PUSH2 0x2F46 JUMP JUMPDEST POP PUSH2 0x27A3 DUP9 DUP9 PUSH2 0x2BF7 JUMP JUMPDEST SWAP1 SLOAD SWAP2 SHL SHR PUSH2 0x27B2 DUP3 DUP12 PUSH2 0x2F46 JUMP JUMPDEST MSTORE PUSH2 0x2DA4 JUMP JUMPDEST SWAP5 SWAP1 DUP11 PUSH2 0x275E JUMP JUMPDEST POP PUSH4 0xFFFFFFFF PUSH1 0x2 DUP3 ADD SLOAD PUSH1 0x28 SHR AND ISZERO ISZERO PUSH2 0x2759 JUMP JUMPDEST POP PUSH1 0xFF PUSH1 0x2 DUP3 ADD SLOAD AND PUSH2 0x27E8 DUP2 PUSH2 0x29D5 JUMP JUMPDEST ISZERO PUSH2 0x2753 JUMP JUMPDEST SWAP8 DUP1 SWAP10 SWAP9 PUSH2 0x27FA PUSH2 0x2F0F JUMP JUMPDEST DUP3 DUP3 DUP13 ADD ADD MSTORE ADD SWAP9 SWAP8 SWAP9 PUSH2 0x266F JUMP JUMPDEST PUSH2 0x2816 DUP2 DUP4 SWAP9 SWAP8 SWAP9 PUSH2 0x2BF7 JUMP JUMPDEST SWAP1 SLOAD SWAP1 PUSH1 0x3 SHL SHR PUSH1 0x0 MSTORE PUSH1 0x16 DUP8 MSTORE PUSH1 0x40 PUSH1 0x0 KECCAK256 DUP4 DUP8 DUP3 SLOAD AND EQ SWAP1 DUP2 PUSH2 0x287F JUMPI JUMPDEST DUP2 PUSH2 0x2868 JUMPI JUMPDEST POP PUSH2 0x2853 JUMPI JUMPDEST PUSH2 0x284B SWAP1 PUSH2 0x2DA4 JUMP JUMPDEST SWAP6 SWAP5 SWAP6 PUSH2 0x263C JUMP JUMPDEST SWAP4 PUSH2 0x2860 PUSH2 0x284B SWAP2 PUSH2 0x2DA4 JUMP JUMPDEST SWAP5 SWAP1 POP PUSH2 0x2842 JUMP JUMPDEST PUSH4 0xFFFFFFFF SWAP2 POP PUSH1 0x2 ADD SLOAD PUSH1 0x28 SHR AND ISZERO ISZERO DUP9 PUSH2 0x283C JUMP JUMPDEST SWAP1 POP PUSH1 0xFF PUSH1 0x2 DUP3 ADD SLOAD AND PUSH2 0x2892 DUP2 PUSH2 0x29D5 JUMP JUMPDEST ISZERO SWAP1 PUSH2 0x2836 JUMP JUMPDEST CALLVALUE PUSH2 0x290 JUMPI PUSH1 0x0 CALLDATASIZE PUSH1 0x3 NOT ADD SLT PUSH2 0x290 JUMPI PUSH1 0x20 PUSH1 0xF SLOAD PUSH1 0x40 MLOAD SWAP1 DUP2 MSTORE RETURN JUMPDEST CALLVALUE PUSH2 0x290 JUMPI PUSH1 0x20 CALLDATASIZE PUSH1 0x3 NOT ADD SLT PUSH2 0x290 JUMPI PUSH8 0xFFFFFFFFFFFFFFFF PUSH1 0x4 CALLDATALOAD DUP2 DUP2 GT PUSH2 0x290 JUMPI CALLDATASIZE PUSH1 0x23 DUP3 ADD SLT ISZERO PUSH2 0x290 JUMPI DUP1 PUSH1 0x4 ADD CALLDATALOAD SWAP2 DUP3 GT PUSH2 0x290 JUMPI PUSH1 0x24 PUSH1 0x5 SWAP2 CALLDATASIZE DUP3 DUP6 DUP6 SHL DUP4 ADD ADD GT PUSH2 0x290 JUMPI ADDRESS PUSH1 0x20 SHL PUSH4 0x3D1A1A1 OR PUSH1 0x40 SHL SWAP4 SWAP3 PUSH20 0x0 SWAP2 PUSH1 0x0 JUMPDEST DUP6 DUP2 LT PUSH2 0x2935 JUMPI STOP JUMPDEST DUP1 DUP4 SHL DUP3 ADD DUP6 ADD CALLDATALOAD PUSH1 0x1 PUSH1 0x1 PUSH1 0xA0 SHL SUB DUP2 AND SWAP2 SWAP1 DUP3 SWAP1 SUB PUSH2 0x290 JUMPI DUP5 EXTCODESIZE ISZERO PUSH2 0x290 JUMPI PUSH1 0x40 MLOAD SWAP2 PUSH4 0xE63DD531 PUSH1 0xE0 SHL DUP4 MSTORE PUSH1 0x2 PUSH1 0x4 DUP5 ADD MSTORE DUP7 DUP4 ADD MSTORE DUP8 PUSH1 0x44 DUP4 ADD MSTORE PUSH1 0x0 DUP3 PUSH1 0x64 DUP2 DUP9 GAS DELEGATECALL SWAP2 DUP3 ISZERO PUSH2 0x29D JUMPI PUSH2 0x2995 SWAP3 PUSH2 0x299A JUMPI JUMPDEST POP PUSH2 0x2DA4 JUMP JUMPDEST PUSH2 0x292C JUMP JUMPDEST PUSH2 0x29A3 SWAP1 PUSH2 0x2C0F JUMP JUMPDEST DUP9 PUSH2 0x298F JUMP JUMPDEST PUSH1 0x4 CALLDATALOAD SWAP1 PUSH1 0x1 PUSH1 0x1 PUSH1 0xA0 SHL SUB DUP3 AND DUP3 SUB PUSH2 0x290 JUMPI JUMP JUMPDEST PUSH1 0x24 CALLDATALOAD SWAP1 PUSH1 0x1 PUSH1 0x1 PUSH1 0xA0 SHL SUB DUP3 AND DUP3 SUB PUSH2 0x290 JUMPI JUMP JUMPDEST PUSH1 0x3 GT ISZERO PUSH2 0xC0D JUMPI JUMP JUMPDEST DUP1 MLOAD PUSH1 0x1 PUSH1 0x1 PUSH1 0xA0 SHL SUB AND DUP3 MSTORE PUSH1 0x20 DUP1 DUP3 ADD MLOAD DUP2 DUP5 ADD MSTORE PUSH1 0x40 DUP3 ADD MLOAD SWAP1 SWAP2 PUSH1 0xE0 DUP5 ADD SWAP2 DUP4 SWAP2 PUSH2 0x100 SWAP2 PUSH1 0xC0 SWAP2 SWAP1 PUSH2 0x2A15 DUP2 PUSH2 0x29D5 JUMP JUMPDEST PUSH1 0x40 DUP9 ADD MSTORE PUSH4 0xFFFFFFFF DUP1 PUSH1 0x60 DUP4 ADD MLOAD AND PUSH1 0x60 DUP10 ADD MSTORE PUSH1 0x80 DUP3 ADD MLOAD AND PUSH1 0x80 DUP9 ADD MSTORE PUSH1 0xA0 DUP2 ADD MLOAD PUSH1 0xA0 DUP9 ADD MSTORE ADD MLOAD SWAP5 PUSH1 0xE0 PUSH1 0xC0 DUP3 ADD MSTORE DUP6 MLOAD DUP1 SWAP5 MSTORE ADD SWAP4 ADD SWAP2 PUSH1 0x0 JUMPDEST DUP3 DUP2 LT PUSH2 0x2A64 JUMPI POP POP POP POP SWAP1 JUMP JUMPDEST DUP4 MLOAD DUP6 MSTORE SWAP4 DUP2 ADD SWAP4 SWAP3 DUP2 ADD SWAP3 PUSH1 0x1 ADD PUSH2 0x2A56 JUMP JUMPDEST SWAP1 DUP2 MLOAD DUP1 DUP3 MSTORE PUSH1 0x20 DUP1 DUP1 SWAP4 ADD SWAP4 ADD SWAP2 PUSH1 0x0 JUMPDEST DUP3 DUP2 LT PUSH2 0x2A98 JUMPI POP POP POP POP SWAP1 JUMP JUMPDEST DUP4 MLOAD DUP6 MSTORE SWAP4 DUP2 ADD SWAP4 SWAP3 DUP2 ADD SWAP3 PUSH1 0x1 ADD PUSH2 0x2A8A JUMP JUMPDEST SWAP1 DUP2 MLOAD DUP1 DUP3 MSTORE PUSH1 0x20 DUP1 DUP1 SWAP4 ADD SWAP4 ADD SWAP2 PUSH1 0x0 JUMPDEST DUP3 DUP2 LT PUSH2 0x2ACC JUMPI POP POP POP POP SWAP1 JUMP JUMPDEST DUP4 MLOAD PUSH1 0x1 PUSH1 0x1 PUSH1 0xA0 SHL SUB AND DUP6 MSTORE SWAP4 DUP2 ADD SWAP4 SWAP3 DUP2 ADD SWAP3 PUSH1 0x1 ADD PUSH2 0x2ABE JUMP JUMPDEST PUSH1 0x24 CALLDATALOAD SWAP1 PUSH4 0xFFFFFFFF DUP3 AND DUP3 SUB PUSH2 0x290 JUMPI JUMP JUMPDEST PUSH1 0x4 CALLDATALOAD SWAP1 PUSH4 0xFFFFFFFF DUP3 AND DUP3 SUB PUSH2 0x290 JUMPI JUMP JUMPDEST PUSH1 0x44 CALLDATALOAD SWAP1 PUSH4 0xFFFFFFFF DUP3 AND DUP3 SUB PUSH2 0x290 JUMPI JUMP JUMPDEST CALLVALUE PUSH2 0x290 JUMPI PUSH1 0x0 CALLDATASIZE PUSH1 0x3 NOT ADD SLT PUSH2 0x290 JUMPI PUSH1 0x20 PUSH1 0x10 SLOAD PUSH1 0x40 MLOAD SWAP1 DUP2 MSTORE RETURN JUMPDEST CALLVALUE PUSH2 0x290 JUMPI PUSH1 0x0 DUP1 PUSH1 0x3 NOT CALLDATASIZE ADD SLT PUSH2 0x2BF4 JUMPI PUSH1 0x40 MLOAD PUSH4 0x70A08231 PUSH1 0xE0 SHL DUP2 MSTORE ADDRESS PUSH1 0x4 DUP3 ADD MSTORE PUSH1 0x20 DUP2 PUSH1 0x24 DUP2 PUSH32 0x0 PUSH1 0x1 PUSH1 0x1 PUSH1 0xA0 SHL SUB AND GAS STATICCALL SWAP1 DUP2 ISZERO PUSH2 0x2BE9 JUMPI DUP3 SWAP2 PUSH2 0x2BB0 JUMPI JUMPDEST PUSH1 0x20 DUP3 PUSH1 0x40 MLOAD SWAP1 DUP2 MSTORE RETURN JUMPDEST SWAP1 POP PUSH1 0x20 DUP2 RETURNDATASIZE DUP3 GT PUSH2 0x2BE1 JUMPI JUMPDEST DUP2 PUSH2 0x2BCA PUSH1 0x20 SWAP4 DUP4 PUSH2 0x2C5C JUMP JUMPDEST DUP2 ADD SUB SLT PUSH2 0x2BDD JUMPI PUSH1 0x20 SWAP2 POP MLOAD CODESIZE PUSH2 0x2BA5 JUMP JUMPDEST POP DUP1 REVERT JUMPDEST RETURNDATASIZE SWAP2 POP PUSH2 0x2BBD JUMP JUMPDEST PUSH1 0x40 MLOAD RETURNDATASIZE DUP5 DUP3 RETURNDATACOPY RETURNDATASIZE SWAP1 REVERT JUMPDEST DUP1 REVERT JUMPDEST DUP1 SLOAD DUP3 LT ISZERO PUSH2 0xAF5 JUMPI PUSH1 0x0 MSTORE PUSH1 0x20 PUSH1 0x0 KECCAK256 ADD SWAP1 PUSH1 0x0 SWAP1 JUMP JUMPDEST PUSH8 0xFFFFFFFFFFFFFFFF DUP2 GT PUSH2 0xB0B JUMPI PUSH1 0x40 MSTORE JUMP JUMPDEST PUSH2 0x140 DUP2 ADD SWAP1 DUP2 LT PUSH8 0xFFFFFFFFFFFFFFFF DUP3 GT OR PUSH2 0xB0B JUMPI PUSH1 0x40 MSTORE JUMP JUMPDEST PUSH1 0xE0 DUP2 ADD SWAP1 DUP2 LT PUSH8 0xFFFFFFFFFFFFFFFF DUP3 GT OR PUSH2 0xB0B JUMPI PUSH1 0x40 MSTORE JUMP JUMPDEST SWAP1 PUSH1 0x1F DUP1 NOT SWAP2 ADD AND DUP2 ADD SWAP1 DUP2 LT PUSH8 0xFFFFFFFFFFFFFFFF DUP3 GT OR PUSH2 0xB0B JUMPI PUSH1 0x40 MSTORE JUMP JUMPDEST SWAP1 DUP2 PUSH1 0x20 SWAP2 SUB SLT PUSH2 0x290 JUMPI MLOAD DUP1 ISZERO ISZERO DUP2 SUB PUSH2 0x290 JUMPI SWAP1 JUMP JUMPDEST SWAP2 SWAP1 SWAP2 PUSH1 0x60 DUP2 ADD SWAP3 PUSH1 0x2 DUP3 MSTORE PUSH1 0x20 SWAP4 PUSH1 0x60 DUP6 DUP5 ADD MSTORE PUSH1 0x9 SLOAD DUP1 SWAP2 MSTORE PUSH1 0x80 DUP4 ADD SWAP1 PUSH1 0x9 PUSH1 0x0 MSTORE PUSH32 0x6E1540171B6C0C960B71A7020D9F60077F6AF931A8BBF590DA0223DACF75C7AF SWAP1 PUSH1 0x0 JUMPDEST DUP8 DUP3 DUP3 LT PUSH2 0x2CFE JUMPI POP POP POP POP SWAP4 SHL PUSH4 0x3D1A1A1 OR PUSH1 0x40 SWAP1 DUP2 SHL SWAP2 ADD MSTORE JUMP JUMPDEST DUP4 SLOAD PUSH1 0x1 PUSH1 0x1 PUSH1 0xA0 SHL SUB AND DUP6 MSTORE SWAP1 SWAP4 ADD SWAP3 PUSH1 0x1 SWAP3 DUP4 ADD SWAP3 ADD PUSH2 0x2CE0 JUMP JUMPDEST SWAP1 DUP2 PUSH1 0x20 SWAP2 SUB SLT PUSH2 0x290 JUMPI MLOAD DUP1 PUSH1 0x3 SIGNEXTEND DUP2 SUB PUSH2 0x290 JUMPI SWAP1 JUMP JUMPDEST SWAP2 SWAP1 DUP3 SUB SWAP2 DUP3 GT PUSH2 0x9EA JUMPI JUMP JUMPDEST SWAP2 SWAP1 DUP3 ADD DUP1 SWAP3 GT PUSH2 0x9EA JUMPI JUMP JUMPDEST PUSH1 0x2 PUSH1 0x0 SLOAD EQ PUSH2 0x2D5F JUMPI PUSH1 0x2 PUSH1 0x0 SSTORE JUMP JUMPDEST PUSH1 0x40 MLOAD PUSH3 0x461BCD PUSH1 0xE5 SHL DUP2 MSTORE PUSH1 0x20 PUSH1 0x4 DUP3 ADD MSTORE PUSH1 0x1F PUSH1 0x24 DUP3 ADD MSTORE PUSH32 0x5265656E7472616E637947756172643A207265656E7472616E742063616C6C00 PUSH1 0x44 DUP3 ADD MSTORE PUSH1 0x64 SWAP1 REVERT JUMPDEST PUSH1 0x0 NOT DUP2 EQ PUSH2 0x9EA JUMPI PUSH1 0x1 ADD SWAP1 JUMP JUMPDEST DUP1 SLOAD PUSH1 0x1 PUSH1 0x40 SHL DUP2 LT ISZERO PUSH2 0xB0B JUMPI PUSH2 0x2DD0 SWAP2 PUSH1 0x1 DUP3 ADD DUP2 SSTORE PUSH2 0x2BF7 JUMP JUMPDEST DUP2 SWAP3 SWAP2 SLOAD SWAP1 PUSH1 0x3 SHL SWAP2 DUP3 SHL SWAP2 PUSH1 0x0 NOT SWAP1 SHL NOT AND OR SWAP1 SSTORE JUMP JUMPDEST SWAP1 PUSH1 0x1 PUSH4 0xFFFFFFFF DUP1 SWAP4 AND ADD SWAP2 DUP3 GT PUSH2 0x9EA JUMPI JUMP JUMPDEST DUP2 DUP2 MUL SWAP3 SWAP2 DUP2 ISZERO SWAP2 DUP5 DIV EQ OR ISZERO PUSH2 0x9EA JUMPI JUMP JUMPDEST DUP2 ISZERO PUSH2 0x2E1A JUMPI DIV SWAP1 JUMP JUMPDEST PUSH4 0x4E487B71 PUSH1 0xE0 SHL PUSH1 0x0 MSTORE PUSH1 0x12 PUSH1 0x4 MSTORE PUSH1 0x24 PUSH1 0x0 REVERT JUMPDEST SWAP1 DUP2 SLOAD DUP1 DUP3 MSTORE PUSH1 0x20 DUP1 SWAP3 ADD SWAP3 PUSH1 0x0 MSTORE DUP2 PUSH1 0x0 KECCAK256 SWAP2 PUSH1 0x0 SWAP1 JUMPDEST DUP3 DUP3 LT PUSH2 0x2E56 JUMPI POP POP POP POP SWAP1 JUMP JUMPDEST DUP4 SLOAD DUP6 MSTORE SWAP4 DUP5 ADD SWAP4 PUSH1 0x1 SWAP4 DUP5 ADD SWAP4 SWAP1 SWAP2 ADD SWAP1 PUSH2 0x2E48 JUMP JUMPDEST PUSH8 0xFFFFFFFFFFFFFFFF DUP2 GT PUSH2 0xB0B JUMPI PUSH1 0x5 SHL PUSH1 0x20 ADD SWAP1 JUMP JUMPDEST PUSH1 0x20 SWAP1 DUP2 DUP2 DUP5 SUB SLT PUSH2 0x290 JUMPI DUP1 MLOAD SWAP1 PUSH8 0xFFFFFFFFFFFFFFFF DUP3 GT PUSH2 0x290 JUMPI ADD SWAP2 DUP1 PUSH1 0x1F DUP5 ADD SLT ISZERO PUSH2 0x290 JUMPI DUP3 MLOAD PUSH2 0x2EBB DUP2 PUSH2 0x2E6D JUMP JUMPDEST SWAP4 PUSH2 0x2EC9 PUSH1 0x40 MLOAD SWAP6 DUP7 PUSH2 0x2C5C JUMP JUMPDEST DUP2 DUP6 MSTORE DUP4 DUP1 DUP7 ADD SWAP3 PUSH1 0x5 SHL DUP3 ADD ADD SWAP3 DUP4 GT PUSH2 0x290 JUMPI DUP4 ADD SWAP1 JUMPDEST DUP3 DUP3 LT PUSH2 0x2EF0 JUMPI POP POP POP POP SWAP1 JUMP JUMPDEST DUP2 MLOAD PUSH1 0x1 PUSH1 0x1 PUSH1 0xA0 SHL SUB DUP2 AND DUP2 SUB PUSH2 0x290 JUMPI DUP2 MSTORE SWAP1 DUP4 ADD SWAP1 DUP4 ADD PUSH2 0x2EE2 JUMP JUMPDEST PUSH1 0x40 MLOAD SWAP1 PUSH2 0x2F1C DUP3 PUSH2 0x2C40 JUMP JUMPDEST PUSH1 0x60 PUSH1 0xC0 DUP4 PUSH1 0x0 DUP1 DUP3 MSTORE DUP1 PUSH1 0x20 DUP4 ADD MSTORE DUP1 PUSH1 0x40 DUP4 ADD MSTORE DUP1 DUP5 DUP4 ADD MSTORE DUP1 PUSH1 0x80 DUP4 ADD MSTORE PUSH1 0xA0 DUP3 ADD MSTORE ADD MSTORE JUMP JUMPDEST DUP1 MLOAD DUP3 LT ISZERO PUSH2 0xAF5 JUMPI PUSH1 0x20 SWAP2 PUSH1 0x5 SHL ADD ADD SWAP1 JUMP JUMPDEST SWAP1 PUSH1 0x4 PUSH1 0xC0 PUSH1 0x40 MLOAD PUSH2 0x2F6B DUP2 PUSH2 0x2C40 JUMP JUMPDEST PUSH2 0x2FD8 DUP2 SWAP6 PUSH1 0x1 DUP1 PUSH1 0xA0 SHL SUB DUP2 SLOAD AND DUP4 MSTORE PUSH1 0x1 DUP2 ADD SLOAD PUSH1 0x20 DUP5 ADD MSTORE PUSH1 0x2 DUP2 ADD SLOAD PUSH1 0xFF DUP2 AND PUSH2 0x2F98 DUP2 PUSH2 0x29D5 JUMP JUMPDEST PUSH1 0x40 DUP6 ADD MSTORE PUSH4 0xFFFFFFFF SWAP1 DUP2 DUP2 PUSH1 0x8 SHR AND PUSH1 0x60 DUP7 ADD MSTORE PUSH1 0x28 SHR AND PUSH1 0x80 DUP5 ADD MSTORE PUSH1 0x3 DUP2 ADD SLOAD PUSH1 0xA0 DUP5 ADD MSTORE PUSH2 0x2FD1 PUSH1 0x40 MLOAD DUP1 SWAP7 DUP2 SWAP4 ADD PUSH2 0x2E30 JUMP JUMPDEST SUB DUP5 PUSH2 0x2C5C JUMP JUMPDEST ADD MSTORE JUMP JUMPDEST PUSH1 0x0 MSTORE PUSH1 0x16 PUSH1 0x20 MSTORE PUSH1 0x40 PUSH1 0x0 KECCAK256 PUSH1 0x2 DUP2 ADD SLOAD PUSH1 0xFF DUP2 AND PUSH2 0x2FFB DUP2 PUSH2 0x29D5 JUMP JUMPDEST ISZERO SWAP1 DUP2 PUSH2 0x301B JUMPI JUMPDEST POP PUSH2 0x3011 JUMPI POP PUSH1 0x0 SWAP1 PUSH1 0x0 SWAP1 JUMP JUMPDEST PUSH1 0x3 ADD SLOAD SWAP1 PUSH1 0x1 SWAP1 JUMP JUMPDEST PUSH4 0xFFFFFFFF SWAP2 POP PUSH1 0x28 SHR AND ISZERO ISZERO CODESIZE PUSH2 0x3003 JUMP JUMPDEST SWAP1 PUSH1 0x40 MLOAD SWAP2 DUP3 DUP2 SLOAD SWAP2 DUP3 DUP3 MSTORE PUSH1 0x20 SWAP3 DUP4 DUP4 ADD SWAP2 PUSH1 0x0 MSTORE DUP4 PUSH1 0x0 KECCAK256 SWAP4 PUSH1 0x0 SWAP1 JUMPDEST DUP3 DUP3 LT PUSH2 0x3065 JUMPI POP POP POP PUSH2 0x3063 SWAP3 POP SUB DUP4 PUSH2 0x2C5C JUMP JUMPDEST JUMP JUMPDEST DUP6 SLOAD PUSH1 0x1 PUSH1 0x1 PUSH1 0xA0 SHL SUB AND DUP5 MSTORE PUSH1 0x1 SWAP6 DUP7 ADD SWAP6 DUP9 SWAP6 POP SWAP4 DUP2 ADD SWAP4 SWAP1 SWAP2 ADD SWAP1 PUSH2 0x304D JUMP INVALID LOG2 PUSH5 0x6970667358 0x22 SLT KECCAK256 PUSH6 0x815221DC027A MUL 0x24 LOG1 PC SWAP10 0xA5 MULMOD 0xB0 CODECOPY 0xD3 SWAP4 0xC6 0xD6 PUSH9 0xECB805EA863172EB73 RETURN DUP8 PUSH5 0x736F6C6343 STOP ADDMOD SGT STOP CALLER "},"methodIdentifiers":{"batchUpdateDebtStatus(address[])":"016c704f","borrowerRequisitions(address,uint256)":"9e932011","canPayRequisition(uint256,address)":"adceb101","canUserBorrow(address,uint256)":"97c33519","coverLoan(uint256,uint32,uint32)":"ecb18b34","createLoanRequisition(uint256,uint32,uint256,uint32,uint32)":"182d94b5","donate(uint256,uint32)":"e2763924","getActiveLoans(address)":"03d1a1a1","getAllowance(address)":"eb5a662e","getAvailableBalance()":"809dab6a","getAvailableBorrowAmount()":"291c31a7","getBorrowerDebtStatus(address)":"f0853e1d","getBorrowerRequisitions(address)":"9730872a","getBorrowersWithDebt()":"0bc21853","getBorrowersWithoutDebt()":"830efd3b","getBorrowing(address)":"be5eb580","getContractBalance()":"6f9fb98a","getCoveringLenders(uint256)":"8a914a63","getDonation(address)":"410a1d32","getDonationsInCoverage(address)":"827cc0e5","getLastBorrowTime(address)":"657eb031","getLenderCoverage(uint256,address)":"4e51c7df","getLoanContract(uint256)":"383ab2ef","getMemberId(address)":"c269014b","getNextPaymentAmount(uint256)":"6509a710","getPaymentDates(uint256)":"7d52437a","getRepaymentSummary(uint256)":"2b31c022","getReputation(uint32)":"81db2284","getRequisitionInfo(uint256)":"1b70ba3e","getTotalBorrowed()":"0307c4a1","getTotalDonations()":"777c658f","getUSDTBalance()":"9785fac8","hasActiveDebt(address)":"3403c25d","hasOverdueDebt(address)":"a7af6947","isWalletVinculated(address)":"598a562a","loanContracts(uint256)":"232869fa","nextMonthlyUpdate()":"f947a8a9","repay(uint256,uint256,uint32)":"9059f9ca","reputationSystem()":"6587eda1","requisitionCounter()":"84ddf5ea","shouldTriggerUpdate()":"79103400","triggerMonthlyUpdate()":"ccdce44e","updateBorrowerDebtStatus(address)":"b9f0fec4","usdtToken()":"a98ad46c","vinculationMemberToWallet(uint32,address)":"21bb31e4"}}}}}