{
  "_format": "hh-sol-artifact-1",
  "contractName": "MockUSDT",
  "sourceName": "contracts/MockUSDT.sol",
  "abi": [
    {
      "inputs": [],
      "stateMutability": "nonpayable",
      "type": "constructor"
    },
    {
      "anonymous": false,
      "inputs": [
        {
          "indexed": true,
          "internalType": "address",
          "name": "owner",
          "type": "address"
        },
        {
          "indexed": true,
          "internalType": "address",
          "name": "spender",
          "type": "address"
        },
        {
          "indexed": false,
          "internalType": "uint256",
          "name": "value",
          "type": "uint256"
        }
      ],
      "name": "Approval",
      "type": "event"
    },
    {
      "anonymous": false,
      "inputs": [
        {
          "indexed": true,
          "internalType": "address",
          "name": "from",
          "type": "address"
        },
        {
          "indexed": true,
          "internalType": "address",
          "name": "to",
          "type": "address"
        },
        {
          "indexed": false,
          "internalType": "uint256",
          "name": "value",
          "type": "uint256"
        }
      ],
      "name": "Transfer",
      "type": "event"
    },
    {
      "inputs": [
        {
          "internalType": "address",
          "name": "owner",
          "type": "address"
        },
        {
          "internalType": "address",
          "name": "spender",
          "type": "address"
        }
      ],
      "name": "allowance",
      "outputs": [
        {
          "internalType": "uint256",
          "name": "",
          "type": "uint256"
        }
      ],
      "stateMutability": "view",
      "type": "function"
    },
    {
      "inputs": [
        {
          "internalType": "address",
          "name": "spender",
          "type": "address"
        },
        {
          "internalType": "uint256",
          "name": "amount",
          "type": "uint256"
        }
      ],
      "name": "approve",
      "outputs": [
        {
          "internalType": "bool",
          "name": "",
          "type": "bool"
        }
      ],
      "stateMutability": "nonpayable",
      "type": "function"
    },
    {
      "inputs": [
        {
          "internalType": "address",
          "name": "account",
          "type": "address"
        }
      ],
      "name": "balanceOf",
      "outputs": [
        {
          "internalType": "uint256",
          "name": "",
          "type": "uint256"
        }
      ],
      "stateMutability": "view",
      "type": "function"
    },
    {
      "inputs": [],
      "name": "decimals",
      "outputs": [
        {
          "internalType": "uint8",
          "name": "",
          "type": "uint8"
        }
      ],
      "stateMutability": "pure",
      "type": "function"
    },
    {
      "inputs": [
        {
          "internalType": "address",
          "name": "spender",
          "type": "address"
        },
        {
          "internalType": "uint256",
          "name": "subtractedValue",
          "type": "uint256"
        }
      ],
      "name": "decreaseAllowance",
      "outputs": [
        {
          "internalType": "bool",
          "name": "",
          "type": "bool"
        }
      ],
      "stateMutability": "nonpayable",
      "type": "function"
    },
    {
      "inputs": [
        {
          "internalType": "address",
          "name": "spender",
          "type": "address"
        },
        {
          "internalType": "uint256",
          "name": "addedValue",
          "type": "uint256"
        }
      ],
      "name": "increaseAllowance",
      "outputs": [
        {
          "internalType": "bool",
          "name": "",
          "type": "bool"
        }
      ],
      "stateMutability": "nonpayable",
      "type": "function"
    },
    {
      "inputs": [
        {
          "internalType": "address",
          "name": "to",
          "type": "address"
        },
        {
          "internalType": "uint256",
          "name": "amount",
          "type": "uint256"
        }
      ],
      "name": "mint",
      "outputs": [],
      "stateMutability": "nonpayable",
      "type": "function"
    },
    {
      "inputs": [],
      "name": "name",
      "outputs": [
        {
          "internalType": "string",
          "name": "",
          "type": "string"
        }
      ],
      "stateMutability": "view",
      "type": "function"
    },
    {
      "inputs": [],
      "name": "symbol",
      "outputs": [
        {
          "internalType": "string",
          "name": "",
          "type": "string"
        }
      ],
      "stateMutability": "view",
      "type": "function"
    },
    {
      "inputs": [],
      "name": "totalSupply",
      "outputs": [
        {
          "internalType": "uint256",
          "name": "",
          "type": "uint256"
        }
      ],
      "stateMutability": "view",
      "type": "function"
    },
    {
      "inputs": [
        {
          "internalType": "address",
          "name": "to",
          "type": "address"
        },
        {
          "internalType": "uint256",
          "name": "amount",
          "type": "uint256"
        }
      ],
      "name": "transfer",
      "outputs": [
        {
          "internalType": "bool",
          "name": "",
          "type": "bool"
        }
      ],
      "stateMutability": "nonpayable",
      "type": "function"
    },
    {
      "inputs": [
        {
          "internalType": "address",
          "name": "from",
          "type": "address"
        },
        {
          "internalType": "address",
          "name": "to",
          "type": "address"
        },
        {
          "internalType": "uint256",
          "name": "amount",
          "type": "uint256"
        }
      ],
      "name": "transferFrom",
      "outputs": [
        {
          "internalType": "bool",
          "name": "",
          "type": "bool"
        }
      ],
      "stateMutability": "nonpayable",
      "type": "function"
    }
  ],
  "bytecode": "0x608034620003e6576040906001600160401b039080830182811182821017620003d05783526009815260209068135bd8dac81554d11560ba1b8282015283519084820182811085821117620003d0578552600493848352631554d11560e21b84840152815192818411620003bb576003908154946001948587811c97168015620003b0575b888810146200039b578190601f9788811162000345575b508890888311600114620002de57600092620002d2575b505060001982851b1c191690851b1782555b8051928311620002bd5786548481811c91168015620002b2575b878210146200029d5785811162000252575b508590858411600114620001e757938394918492600095620001db575b50501b92600019911b1c19161783555b33156200019c57506002546305f5e100928382018092116200018757506000917fddf252ad1be2c89b69c2b068fc378daa952ba7f163c4a11628f55a4df523b3ef9160025533835282815284832084815401905584519384523393a35161097f9081620003ec8239f35b601190634e487b7160e01b6000525260246000fd5b90606493519262461bcd60e51b845283015260248201527f45524332303a206d696e7420746f20746865207a65726f2061646472657373006044820152fd5b0151935038806200010d565b9190601f198416928860005284886000209460005b8a898383106200023a57505050106200021f575b50505050811b0183556200011d565b01519060f884600019921b161c191690553880808062000210565b868601518955909701969485019488935001620001fc565b87600052866000208680860160051c82019289871062000293575b0160051c019085905b82811062000286575050620000f0565b6000815501859062000276565b925081926200026d565b602288634e487b7160e01b6000525260246000fd5b90607f1690620000de565b604187634e487b7160e01b6000525260246000fd5b015190503880620000b2565b90879350601f19831691866000528a6000209260005b8c8282106200032e575050841162000315575b505050811b018255620000c4565b015160001983871b60f8161c1916905538808062000307565b8385015186558b97909501949384019301620002f4565b90915084600052886000208880850160051c8201928b861062000391575b918991869594930160051c01915b828110620003815750506200009b565b6000815585945089910162000371565b9250819262000363565b602289634e487b7160e01b6000525260246000fd5b96607f169662000084565b604186634e487b7160e01b6000525260246000fd5b634e487b7160e01b600052604160045260246000fd5b600080fdfe608060408181526004918236101561001657600080fd5b600092833560e01c91826306fdde031461056457508163095ea7b31461053a57816318160ddd1461051b57816323b872dd14610451578163313ce5671461043557816339509351146103e557816340c10f191461032257816370a08231146102eb57816395d89b41146101cc578163a457c2d71461012457508063a9059cbb146100f45763dd62ed3e146100a957600080fd5b346100f057806003193601126100f057806020926100c5610685565b6100cd6106a0565b6001600160a01b0391821683526001865283832091168252845220549051908152f35b5080fd5b50346100f057806003193601126100f05760209061011d610113610685565b60243590336106d9565b5160018152f35b905082346101c957826003193601126101c95761013f610685565b918360243592338152600160205281812060018060a01b03861682526020522054908282106101785760208561011d8585038733610847565b608490602086519162461bcd60e51b8352820152602560248201527f45524332303a2064656372656173656420616c6c6f77616e63652062656c6f77604482015264207a65726f60d81b6064820152fd5b80fd5b8383346100f057816003193601126100f057805190828454600181811c908083169283156102e1575b60209384841081146102ce578388529081156102b2575060011461025d575b505050829003601f01601f191682019267ffffffffffffffff84118385101761024a575082918261024692528261063c565b0390f35b634e487b7160e01b815260418552602490fd5b8787529192508591837f8a35acfbc15ff81a39ae7d344fd709f28e8600b4aa8c65c6b64bfe7fe36bd19b5b83851061029e5750505050830101858080610214565b805488860183015293019284908201610288565b60ff1916878501525050151560051b8401019050858080610214565b634e487b7160e01b895260228a52602489fd5b91607f16916101f5565b5050346100f05760203660031901126100f05760209181906001600160a01b03610313610685565b16815280845220549051908152f35b919050346103e157806003193601126103e15761033d610685565b6001600160a01b0316916024359190831561039f57506020827fddf252ad1be2c89b69c2b068fc378daa952ba7f163c4a11628f55a4df523b3ef9261038587956002546106b6565b60025585855284835280852082815401905551908152a380f35b6020606492519162461bcd60e51b8352820152601f60248201527f45524332303a206d696e7420746f20746865207a65726f2061646472657373006044820152fd5b8280fd5b5050346100f057806003193601126100f05761011d60209261042e610408610685565b338352600186528483206001600160a01b038216845286529184902054602435906106b6565b9033610847565b5050346100f057816003193601126100f0576020905160068152f35b839150346100f05760603660031901126100f05761046d610685565b6104756106a0565b91846044359460018060a01b0384168152600160205281812033825260205220549060001982036104af575b60208661011d8787876106d9565b8482106104d857509183916104cd6020969561011d95033383610847565b9193948193506104a1565b606490602087519162461bcd60e51b8352820152601d60248201527f45524332303a20696e73756666696369656e7420616c6c6f77616e63650000006044820152fd5b5050346100f057816003193601126100f0576020906002549051908152f35b5050346100f057806003193601126100f05760209061011d61055a610685565b6024359033610847565b849084346103e157826003193601126103e15782600354600181811c90808316928315610632575b60209384841081146102ce578388529081156102b257506001146105dc57505050829003601f01601f191682019267ffffffffffffffff84118385101761024a575082918261024692528261063c565b600387529192508591837fc2575a0e9e593c00f959f8c92f12db2869c3395a3b0502d05e2516446f71f85b5b83851061061e5750505050830101858080610214565b805488860183015293019284908201610608565b91607f169161058c565b6020808252825181830181905290939260005b82811061067157505060409293506000838284010152601f8019910116010190565b81810186015184820160400152850161064f565b600435906001600160a01b038216820361069b57565b600080fd5b602435906001600160a01b038216820361069b57565b919082018092116106c357565b634e487b7160e01b600052601160045260246000fd5b6001600160a01b039081169182156107f457169182156107a35760008281528060205260408120549180831061074f57604082827fddf252ad1be2c89b69c2b068fc378daa952ba7f163c4a11628f55a4df523b3ef958760209652828652038282205586815220818154019055604051908152a3565b60405162461bcd60e51b815260206004820152602660248201527f45524332303a207472616e7366657220616d6f756e7420657863656564732062604482015265616c616e636560d01b6064820152608490fd5b60405162461bcd60e51b815260206004820152602360248201527f45524332303a207472616e7366657220746f20746865207a65726f206164647260448201526265737360e81b6064820152608490fd5b60405162461bcd60e51b815260206004820152602560248201527f45524332303a207472616e736665722066726f6d20746865207a65726f206164604482015264647265737360d81b6064820152608490fd5b6001600160a01b039081169182156108f857169182156108a85760207f8c5be1e5ebec7d5bd14f71427d1e84f3dd0314c0f7b2291e5b200ac8c7c3b925918360005260018252604060002085600052825280604060002055604051908152a3565b60405162461bcd60e51b815260206004820152602260248201527f45524332303a20617070726f766520746f20746865207a65726f206164647265604482015261737360f01b6064820152608490fd5b60405162461bcd60e51b8152602060048201526024808201527f45524332303a20617070726f76652066726f6d20746865207a65726f206164646044820152637265737360e01b6064820152608490fdfea2646970667358221220bcd0d258fd3473decba03dc9aaf01f297396fcb996d46fee93b77240938ea23964736f6c63430008130033",
  "linkReferences": {},
  "deployedLinkReferences": {}
}