{
  "_format": "hh-sol-artifact-1",
  "contractName": "LoanMachine",
  "sourceName": "contracts/LoanMachine.sol",
  "abi": [
    {
      "inputs": [],
      "name": "BorrowNotExpired",
      "type": "error"
    },
    {
      "inputs": [],
      "name": "InsufficientDonationBalance",
      "type": "error"
    },
    {
      "inputs": [],
      "name": "InsufficientFunds",
      "type": "error"
    },
    {
      "inputs": [],
      "name": "InvalidAmount",
      "type": "error"
    },
    {
      "inputs": [],
      "name": "InvalidCoveragePercentage",
      "type": "error"
    },
    {
      "inputs": [],
      "name": "LoanNotAvailable",
      "type": "error"
    },
    {
      "inputs": [],
      "name": "MinimumDonationRequired",
      "type": "error"
    },
    {
      "inputs": [],
      "name": "NoActiveBorrowing",
      "type": "error"
    },
    {
      "inputs": [],
      "name": "OverCoverage",
      "type": "error"
    },
    {
      "inputs": [],
      "name": "RepaymentExceedsBorrowed",
      "type": "error"
    },
    {
      "anonymous": false,
      "inputs": [
        {
          "indexed": false,
          "internalType": "uint256",
          "name": "total",
          "type": "uint256"
        }
      ],
      "name": "AvailableBalanceUpdated",
      "type": "event"
    },
    {
      "anonymous": false,
      "inputs": [
        {
          "indexed": true,
          "internalType": "address",
          "name": "borrower",
          "type": "address"
        }
      ],
      "name": "BorrowLimitReached",
      "type": "event"
    },
    {
      "anonymous": false,
      "inputs": [
        {
          "indexed": true,
          "internalType": "address",
          "name": "borrower",
          "type": "address"
        },
        {
          "indexed": false,
          "internalType": "uint256",
          "name": "amount",
          "type": "uint256"
        },
        {
          "indexed": false,
          "internalType": "uint256",
          "name": "totalBorrowing",
          "type": "uint256"
        }
      ],
      "name": "Borrowed",
      "type": "event"
    },
    {
      "anonymous": false,
      "inputs": [
        {
          "indexed": true,
          "internalType": "address",
          "name": "donor",
          "type": "address"
        },
        {
          "indexed": false,
          "internalType": "uint256",
          "name": "amount",
          "type": "uint256"
        },
        {
          "indexed": false,
          "internalType": "uint256",
          "name": "totalDonation",
          "type": "uint256"
        }
      ],
      "name": "Donated",
      "type": "event"
    },
    {
      "anonymous": false,
      "inputs": [
        {
          "indexed": true,
          "internalType": "uint256",
          "name": "requisitionId",
          "type": "uint256"
        },
        {
          "indexed": true,
          "internalType": "address",
          "name": "lender",
          "type": "address"
        },
        {
          "indexed": false,
          "internalType": "uint256",
          "name": "coverageAmount",
          "type": "uint256"
        }
      ],
      "name": "LoanCovered",
      "type": "event"
    },
    {
      "anonymous": false,
      "inputs": [
        {
          "indexed": true,
          "internalType": "uint256",
          "name": "requisitionId",
          "type": "uint256"
        }
      ],
      "name": "LoanFunded",
      "type": "event"
    },
    {
      "anonymous": false,
      "inputs": [
        {
          "indexed": true,
          "internalType": "uint256",
          "name": "requisitionId",
          "type": "uint256"
        },
        {
          "indexed": true,
          "internalType": "address",
          "name": "borrower",
          "type": "address"
        },
        {
          "indexed": false,
          "internalType": "uint256",
          "name": "amount",
          "type": "uint256"
        }
      ],
      "name": "LoanRequisitionCreated",
      "type": "event"
    },
    {
      "anonymous": false,
      "inputs": [
        {
          "indexed": true,
          "internalType": "address",
          "name": "borrower",
          "type": "address"
        }
      ],
      "name": "NewBorrower",
      "type": "event"
    },
    {
      "anonymous": false,
      "inputs": [
        {
          "indexed": true,
          "internalType": "address",
          "name": "donor",
          "type": "address"
        }
      ],
      "name": "NewDonor",
      "type": "event"
    },
    {
      "anonymous": false,
      "inputs": [
        {
          "indexed": true,
          "internalType": "address",
          "name": "borrower",
          "type": "address"
        },
        {
          "indexed": false,
          "internalType": "uint256",
          "name": "amount",
          "type": "uint256"
        },
        {
          "indexed": false,
          "internalType": "uint256",
          "name": "remainingDebt",
          "type": "uint256"
        }
      ],
      "name": "Repaid",
      "type": "event"
    },
    {
      "anonymous": false,
      "inputs": [
        {
          "indexed": false,
          "internalType": "uint256",
          "name": "total",
          "type": "uint256"
        }
      ],
      "name": "TotalBorrowedUpdated",
      "type": "event"
    },
    {
      "anonymous": false,
      "inputs": [
        {
          "indexed": false,
          "internalType": "uint256",
          "name": "total",
          "type": "uint256"
        }
      ],
      "name": "TotalDonationsUpdated",
      "type": "event"
    },
    {
      "inputs": [
        {
          "internalType": "uint256",
          "name": "_amount",
          "type": "uint256"
        }
      ],
      "name": "borrow",
      "outputs": [],
      "stateMutability": "nonpayable",
      "type": "function"
    },
    {
      "inputs": [
        {
          "internalType": "address",
          "name": "",
          "type": "address"
        },
        {
          "internalType": "uint256",
          "name": "",
          "type": "uint256"
        }
      ],
      "name": "borrowerRequisitions",
      "outputs": [
        {
          "internalType": "uint256",
          "name": "",
          "type": "uint256"
        }
      ],
      "stateMutability": "view",
      "type": "function"
    },
    {
      "inputs": [
        {
          "internalType": "address",
          "name": "_user",
          "type": "address"
        },
        {
          "internalType": "uint256",
          "name": "_amount",
          "type": "uint256"
        }
      ],
      "name": "canUserBorrow",
      "outputs": [
        {
          "internalType": "bool",
          "name": "",
          "type": "bool"
        }
      ],
      "stateMutability": "view",
      "type": "function"
    },
    {
      "inputs": [
        {
          "internalType": "uint256",
          "name": "requisitionId",
          "type": "uint256"
        },
        {
          "internalType": "uint32",
          "name": "coveragePercentage",
          "type": "uint32"
        }
      ],
      "name": "coverLoan",
      "outputs": [],
      "stateMutability": "nonpayable",
      "type": "function"
    },
    {
      "inputs": [
        {
          "internalType": "uint256",
          "name": "_amount",
          "type": "uint256"
        },
        {
          "internalType": "uint32",
          "name": "_minimumCoverage",
          "type": "uint32"
        },
        {
          "internalType": "uint256",
          "name": "_durationDays",
          "type": "uint256"
        }
      ],
      "name": "createLoanRequisition",
      "outputs": [
        {
          "internalType": "uint256",
          "name": "",
          "type": "uint256"
        }
      ],
      "stateMutability": "nonpayable",
      "type": "function"
    },
    {
      "inputs": [],
      "name": "donate",
      "outputs": [],
      "stateMutability": "payable",
      "type": "function"
    },
    {
      "inputs": [],
      "name": "getAvailableBalance",
      "outputs": [
        {
          "internalType": "uint256",
          "name": "",
          "type": "uint256"
        }
      ],
      "stateMutability": "view",
      "type": "function"
    },
    {
      "inputs": [],
      "name": "getAvailableBorrowAmount",
      "outputs": [
        {
          "internalType": "uint256",
          "name": "",
          "type": "uint256"
        }
      ],
      "stateMutability": "view",
      "type": "function"
    },
    {
      "inputs": [
        {
          "internalType": "address",
          "name": "borrower",
          "type": "address"
        }
      ],
      "name": "getBorrowerRequisitions",
      "outputs": [
        {
          "internalType": "uint256[]",
          "name": "",
          "type": "uint256[]"
        }
      ],
      "stateMutability": "view",
      "type": "function"
    },
    {
      "inputs": [
        {
          "internalType": "address",
          "name": "_user",
          "type": "address"
        }
      ],
      "name": "getBorrowing",
      "outputs": [
        {
          "internalType": "uint256",
          "name": "",
          "type": "uint256"
        }
      ],
      "stateMutability": "view",
      "type": "function"
    },
    {
      "inputs": [],
      "name": "getContractBalance",
      "outputs": [
        {
          "internalType": "uint256",
          "name": "",
          "type": "uint256"
        }
      ],
      "stateMutability": "view",
      "type": "function"
    },
    {
      "inputs": [
        {
          "internalType": "uint256",
          "name": "requisitionId",
          "type": "uint256"
        }
      ],
      "name": "getCoveringLenders",
      "outputs": [
        {
          "internalType": "address[]",
          "name": "",
          "type": "address[]"
        }
      ],
      "stateMutability": "view",
      "type": "function"
    },
    {
      "inputs": [
        {
          "internalType": "address",
          "name": "_user",
          "type": "address"
        }
      ],
      "name": "getDonation",
      "outputs": [
        {
          "internalType": "uint256",
          "name": "",
          "type": "uint256"
        }
      ],
      "stateMutability": "view",
      "type": "function"
    },
    {
      "inputs": [
        {
          "internalType": "address",
          "name": "_user",
          "type": "address"
        }
      ],
      "name": "getLastBorrowTime",
      "outputs": [
        {
          "internalType": "uint256",
          "name": "",
          "type": "uint256"
        }
      ],
      "stateMutability": "view",
      "type": "function"
    },
    {
      "inputs": [
        {
          "internalType": "uint256",
          "name": "requisitionId",
          "type": "uint256"
        },
        {
          "internalType": "address",
          "name": "lender",
          "type": "address"
        }
      ],
      "name": "getLenderCoverage",
      "outputs": [
        {
          "internalType": "uint256",
          "name": "",
          "type": "uint256"
        }
      ],
      "stateMutability": "view",
      "type": "function"
    },
    {
      "inputs": [
        {
          "internalType": "uint256",
          "name": "requisitionId",
          "type": "uint256"
        }
      ],
      "name": "getRequisitionInfo",
      "outputs": [
        {
          "components": [
            {
              "internalType": "address",
              "name": "borrower",
              "type": "address"
            },
            {
              "internalType": "uint256",
              "name": "amount",
              "type": "uint256"
            },
            {
              "internalType": "uint32",
              "name": "minimumCoverage",
              "type": "uint32"
            },
            {
              "internalType": "uint32",
              "name": "currentCoverage",
              "type": "uint32"
            },
            {
              "internalType": "enum ILoanMachine.BorrowStatus",
              "name": "status",
              "type": "uint8"
            },
            {
              "internalType": "uint256",
              "name": "durationDays",
              "type": "uint256"
            },
            {
              "internalType": "uint256",
              "name": "creationTime",
              "type": "uint256"
            },
            {
              "internalType": "uint256",
              "name": "coveringLendersCount",
              "type": "uint256"
            }
          ],
          "internalType": "struct ILoanMachine.RequisitionInfo",
          "name": "",
          "type": "tuple"
        }
      ],
      "stateMutability": "view",
      "type": "function"
    },
    {
      "inputs": [],
      "name": "getTotalBorrowed",
      "outputs": [
        {
          "internalType": "uint256",
          "name": "",
          "type": "uint256"
        }
      ],
      "stateMutability": "view",
      "type": "function"
    },
    {
      "inputs": [],
      "name": "getTotalDonations",
      "outputs": [
        {
          "internalType": "uint256",
          "name": "",
          "type": "uint256"
        }
      ],
      "stateMutability": "view",
      "type": "function"
    },
    {
      "inputs": [],
      "name": "repay",
      "outputs": [],
      "stateMutability": "payable",
      "type": "function"
    },
    {
      "inputs": [],
      "name": "requisitionCounter",
      "outputs": [
        {
          "internalType": "uint256",
          "name": "",
          "type": "uint256"
        }
      ],
      "stateMutability": "view",
      "type": "function"
    }
  ],
  "bytecode": "0x608060405234801561001057600080fd5b506001600055611481806100256000396000f3fe60806040526004361061011f5760003560e01c8063809dab6a116100a05780639e932011116100645780639e93201114610308578063be5eb58014610328578063c5ebeaec1461035e578063dfa1fe501461037e578063ed88c68e1461039e57600080fd5b8063809dab6a1461019757806384ddf5ea146102685780638a914a631461027e5780639730872a146102ab57806397c33519146102d857600080fd5b8063410a1d32116100e7578063410a1d32146101b45780634e51c7df146101ea578063657eb0311461020a5780636f9fb98a14610240578063777c658f1461025357600080fd5b80630307c4a1146101245780631b70ba3e146101485780632485a31414610175578063291c31a714610197578063402d8883146101ac575b600080fd5b34801561013057600080fd5b506005545b6040519081526020015b60405180910390f35b34801561015457600080fd5b50610168610163366004611152565b6103a6565b60405161013f9190611181565b34801561018157600080fd5b50610195610190366004611227565b610492565b005b3480156101a357600080fd5b50600654610135565b610195610759565b3480156101c057600080fd5b506101356101cf36600461126a565b6001600160a01b031660009081526001602052604090205490565b3480156101f657600080fd5b50610135610205366004611285565b6108bd565b34801561021657600080fd5b5061013561022536600461126a565b6001600160a01b031660009081526003602052604090205490565b34801561024c57600080fd5b5047610135565b34801561025f57600080fd5b50600454610135565b34801561027457600080fd5b50610135600a5481565b34801561028a57600080fd5b5061029e610299366004611152565b6108ea565b60405161013f91906112a8565b3480156102b757600080fd5b506102cb6102c636600461126a565b610959565b60405161013f91906112f5565b3480156102e457600080fd5b506102f86102f336600461132d565b6109c4565b604051901515815260200161013f565b34801561031457600080fd5b5061013561032336600461132d565b610a7c565b34801561033457600080fd5b5061013561034336600461126a565b6001600160a01b031660009081526002602052604090205490565b34801561036a57600080fd5b50610195610379366004611152565b610aad565b34801561038a57600080fd5b50610135610399366004611357565b610ce8565b610195610e2c565b6103ee60408051610100810182526000808252602082018190529181018290526060810182905290608082019081526020016000815260200160008152602001600081525090565b60008281526007602090815260409182902082516101008101845281546001600160a01b03168152600182015492810192909252600281015463ffffffff8082169484019490945264010000000081049093166060830152916080820190600160401b900460ff1660058111156104675761046761116b565b8152600383015460208201526004830154604082015260059092015460609092019190915292915050565b8063ffffffff811615806104ac575060648163ffffffff16115b156104ca5760405163d1e95ed560e01b815260040160405180910390fd5b6104d2610f5f565b6000838152600760205260408120906002820154600160401b900460ff1660058111156105015761050161116b565b1415801561052f575060016002820154600160401b900460ff16600581111561052c5761052c61116b565b14155b1561054d576040516380b9cb0960e01b815260040160405180910390fd5b60028101546064906105709063ffffffff808716916401000000009004166113a2565b111561058f5760405163955f95ad60e01b815260040160405180910390fd5b600060648463ffffffff1683600101546105a991906113b5565b6105b391906113cc565b336000908152600160205260409020549091508111156105e657604051630391acf160e61b815260040160405180910390fd5b3360009081526001602090815260408083208054859003905560099091529020805482019055600282018054859190600490610631908490640100000000900463ffffffff166113ee565b825463ffffffff9182166101009390930a928302919092021990911617905550336000908152600683016020526040812054900361069157600582018054600181018255600091825260209091200180546001600160a01b031916331790555b336000908152600683016020526040812080548392906106b29084906113a2565b9091555050600282015463ffffffff80821664010000000090920416106106fb5760028201805460ff60401b1916680200000000000000001790556106f685610fbc565b610711565b60028201805460ff60401b1916600160401b1790555b604051818152339086907f86b47e6e6c03d769c0bc5ffd06c682ea7d07089576d59230ec18ff64e71bffe79060200160405180910390a350506107546001600055565b505050565b348060000361077b5760405163162908e360e11b815260040160405180910390fd5b610783610f5f565b3360009081526002602052604081205490036107b257604051630b5ab5bf60e41b815260040160405180910390fd5b336000908152600260205260409020543411156107e25760405163f9ea8d3560e01b815260040160405180910390fd5b33600081815260026020526040908190208054349081900382556005805482900390556006805482019055905491517f1b8cd61ed43bec7c6bdad3a18ffee613f99c853d16c50678d248d879e1b4343892610844928252602082015260400190565b60405180910390a27f17f13fd3f7c4712af33f1770ebcb822dd20a2dbc00850eab48d786623d97b95960055460405161087f91815260200190565b60405180910390a160008051602061142c8339815191526006546040516108a891815260200190565b60405180910390a16108ba6001600055565b50565b60008281526007602090815260408083206001600160a01b03851684526006019091529020545b92915050565b60008181526007602090815260409182902060050180548351818402810184019094528084526060939283018282801561094d57602002820191906000526020600020905b81546001600160a01b0316815260019091019060200180831161092f575b50505050509050919050565b6001600160a01b03811660009081526008602090815260409182902080548351818402810184019094528084526060939283018282801561094d57602002820191906000526020600020905b8154815260200190600101908083116109a55750505050509050919050565b600080821180156109d757506006548211155b8015610a2357506001600160a01b03831660009081526001602052604090205467016345785d8a0000111580610a2357506001600160a01b038316600090815260026020526040902054155b8015610a7557506001600160a01b0383166000908152600360205260409020544290610a539062093a80906113a2565b1080610a7557506001600160a01b038316600090815260026020526040902054155b9392505050565b60086020528160005260406000208181548110610a9857600080fd5b90600052602060002001600091509150505481565b8080600003610acf5760405163162908e360e11b815260040160405180910390fd5b81600654811115610af35760405163356680b760e01b815260040160405180910390fd5b3360009081526001602052604090205467016345785d8a0000118015610b2757503360009081526002602052604090205415155b15610b455760405163b4ff2ab760e01b815260040160405180910390fd5b336000908152600360205260409020544290610b659062093a80906113a2565b10158015610b8157503360009081526002602052604090205415155b15610b9f5760405163c6061c8560e01b815260040160405180910390fd5b610ba7610f5f565b33600081815260026020818152604080842080548981018255600580548b019055600680548b9003905560038452948290204290559282529154825188815291820152911592917feae9cfbc77fdd40ca899f36b608256063b2bc9d8178b0220f7ad513e178d6730910160405180910390a27f17f13fd3f7c4712af33f1770ebcb822dd20a2dbc00850eab48d786623d97b959600554604051610c4c91815260200190565b60405180910390a160008051602061142c833981519152600654604051610c7591815260200190565b60405180910390a18015610caf5760405133907fdd6d577a01057a7ca4e715ae2c9f196a0a25d8e9d1ddd9376047869ce6fe56c790600090a25b604051339085156108fc029086906000818181858888f19350505050158015610cdc573d6000803e3d6000fd5b50506107546001600055565b60008380600003610d0c5760405163162908e360e11b815260040160405180910390fd5b8363ffffffff16604681111580610d235750606481115b15610d415760405163d1e95ed560e01b815260040160405180910390fd5b600654861115610d645760405163356680b760e01b815260040160405180910390fd5b600a805460009182610d7583611412565b9091555060008181526007602090815260408083208054336001600160a01b03199091168117825560018083018e905560028301805468ffffffffffffffffff191663ffffffff8f16179055600383018c9055426004840155818652600885528386208054918201815586529484902090940185905590518b81529394509284917fbdc443e88257a34a47c6dfe9dd0733f6408f2dfd4c8d517282299c77b3fb75f5910160405180910390a3509695505050505050565b3480600003610e4e5760405163162908e360e11b815260040160405180910390fd5b610e56610f5f565b336000818152600160209081526040918290208054348082018355600480548201905560068054820190559154845192835292820192909252901592917f4928895ba6723e8e27b15f32e4c3054a1b6c7f8c03f133558d6fa42b3928d14c910160405180910390a27fdc6e73d4b36e22ab95945bd8833a5af96c950eb29d8d75c4aecffc987637aaab600454604051610ef191815260200190565b60405180910390a160008051602061142c833981519152600654604051610f1a91815260200190565b60405180910390a18015610f545760405133907f072dafb6aabe3f02118bc607efbeaaa104d6b2009720c7b130f24ba418689c4b90600090a25b506108ba6001600055565b600260005403610fb55760405162461bcd60e51b815260206004820152601f60248201527f5265656e7472616e637947756172643a207265656e7472616e742063616c6c00604482015260640160405180910390fd5b6002600055565b600081815260076020908152604080832060018101805482546001600160a01b03908116875260028087528588208054909301909255825460058054909101905582546006805491909103905583548116875260039095528386204290558201805460ff60401b191668030000000000000000179055815490549251919493169282156108fc02929190818181858888f19350505050158015611063573d6000803e3d6000fd5b50805460018201546001600160a01b039091166000818152600260209081526040918290205482519485529084015290917feae9cfbc77fdd40ca899f36b608256063b2bc9d8178b0220f7ad513e178d6730910160405180910390a27f17f13fd3f7c4712af33f1770ebcb822dd20a2dbc00850eab48d786623d97b9596005546040516110f291815260200190565b60405180910390a160008051602061142c83398151915260065460405161111b91815260200190565b60405180910390a160405182907f9e71d2fb732e68272b7e74ecfd14638673c1d77e19a5d390a3ffff054d57c44b90600090a25050565b60006020828403121561116457600080fd5b5035919050565b634e487b7160e01b600052602160045260246000fd5b81516001600160a01b031681526020808301519082015260408083015163ffffffff90811691830191909152606080840151909116908201526080820151610100820190600681106111e357634e487b7160e01b600052602160045260246000fd5b8060808401525060a083015160a083015260c083015160c083015260e083015160e083015292915050565b803563ffffffff8116811461122257600080fd5b919050565b6000806040838503121561123a57600080fd5b8235915061124a6020840161120e565b90509250929050565b80356001600160a01b038116811461122257600080fd5b60006020828403121561127c57600080fd5b610a7582611253565b6000806040838503121561129857600080fd5b8235915061124a60208401611253565b6020808252825182820181905260009190848201906040850190845b818110156112e95783516001600160a01b0316835292840192918401916001016112c4565b50909695505050505050565b6020808252825182820181905260009190848201906040850190845b818110156112e957835183529284019291840191600101611311565b6000806040838503121561134057600080fd5b61134983611253565b946020939093013593505050565b60008060006060848603121561136c57600080fd5b8335925061137c6020850161120e565b9150604084013590509250925092565b634e487b7160e01b600052601160045260246000fd5b808201808211156108e4576108e461138c565b80820281158282048414176108e4576108e461138c565b6000826113e957634e487b7160e01b600052601260045260246000fd5b500490565b63ffffffff81811683821601908082111561140b5761140b61138c565b5092915050565b6000600182016114245761142461138c565b506001019056fe8b094cca6f83d49402ce208cc0c224b76625ffc58636df56ae28024e704c5868a2646970667358221220c8ec5d207ba758e5f5485a538b19e05a2f29eb5e340b80554ca3e6de7488e17664736f6c63430008130033",
  "linkReferences": {},
  "deployedLinkReferences": {}
}