{
  "_format": "hh-sol-artifact-1",
  "contractName": "LoanMachine",
  "sourceName": "contracts/LoanMachine.sol",
  "abi": [
    {
      "inputs": [
        {
          "internalType": "address",
          "name": "_usdtToken",
          "type": "address"
        }
      ],
      "stateMutability": "nonpayable",
      "type": "constructor"
    },
    {
      "inputs": [],
      "name": "BorrowNotExpired",
      "type": "error"
    },
    {
      "inputs": [],
      "name": "ExcessiveDonation",
      "type": "error"
    },
    {
      "inputs": [],
      "name": "InsufficientDonationBalance",
      "type": "error"
    },
    {
      "inputs": [],
      "name": "InsufficientFunds",
      "type": "error"
    },
    {
      "inputs": [],
      "name": "InvalidAmount",
      "type": "error"
    },
    {
      "inputs": [],
      "name": "InvalidCoveragePercentage",
      "type": "error"
    },
    {
      "inputs": [],
      "name": "InvalidParcelsCount",
      "type": "error"
    },
    {
      "inputs": [],
      "name": "LoanNotAvailable",
      "type": "error"
    },
    {
      "inputs": [],
      "name": "MinimumDonationRequired",
      "type": "error"
    },
    {
      "inputs": [],
      "name": "NoActiveBorrowing",
      "type": "error"
    },
    {
      "inputs": [],
      "name": "OverCoverage",
      "type": "error"
    },
    {
      "inputs": [],
      "name": "RepaymentExceedsBorrowed",
      "type": "error"
    },
    {
      "inputs": [],
      "name": "TokenTransferFailed",
      "type": "error"
    },
    {
      "anonymous": false,
      "inputs": [
        {
          "indexed": false,
          "internalType": "uint256",
          "name": "total",
          "type": "uint256"
        }
      ],
      "name": "AvailableBalanceUpdated",
      "type": "event"
    },
    {
      "anonymous": false,
      "inputs": [
        {
          "indexed": true,
          "internalType": "address",
          "name": "borrower",
          "type": "address"
        }
      ],
      "name": "BorrowLimitReached",
      "type": "event"
    },
    {
      "anonymous": false,
      "inputs": [
        {
          "indexed": true,
          "internalType": "address",
          "name": "borrower",
          "type": "address"
        },
        {
          "indexed": false,
          "internalType": "uint256",
          "name": "amount",
          "type": "uint256"
        },
        {
          "indexed": false,
          "internalType": "uint256",
          "name": "totalBorrowing",
          "type": "uint256"
        }
      ],
      "name": "Borrowed",
      "type": "event"
    },
    {
      "anonymous": false,
      "inputs": [
        {
          "indexed": true,
          "internalType": "address",
          "name": "donor",
          "type": "address"
        },
        {
          "indexed": false,
          "internalType": "uint256",
          "name": "amount",
          "type": "uint256"
        },
        {
          "indexed": false,
          "internalType": "uint256",
          "name": "totalDonation",
          "type": "uint256"
        }
      ],
      "name": "Donated",
      "type": "event"
    },
    {
      "anonymous": false,
      "inputs": [
        {
          "indexed": true,
          "internalType": "uint256",
          "name": "requisitionId",
          "type": "uint256"
        },
        {
          "indexed": true,
          "internalType": "address",
          "name": "lender",
          "type": "address"
        },
        {
          "indexed": false,
          "internalType": "uint256",
          "name": "amount",
          "type": "uint256"
        }
      ],
      "name": "LenderRepaid",
      "type": "event"
    },
    {
      "anonymous": false,
      "inputs": [
        {
          "indexed": true,
          "internalType": "uint256",
          "name": "requisitionId",
          "type": "uint256"
        }
      ],
      "name": "LoanCompleted",
      "type": "event"
    },
    {
      "anonymous": false,
      "inputs": [
        {
          "indexed": true,
          "internalType": "address",
          "name": "walletAddress",
          "type": "address"
        },
        {
          "indexed": true,
          "internalType": "uint256",
          "name": "requisitionId",
          "type": "uint256"
        },
        {
          "indexed": false,
          "internalType": "enum ILoanMachine.ContractStatus",
          "name": "status",
          "type": "uint8"
        },
        {
          "indexed": false,
          "internalType": "uint32",
          "name": "parcelsPending",
          "type": "uint32"
        },
        {
          "indexed": false,
          "internalType": "uint256",
          "name": "parcelsValues",
          "type": "uint256"
        },
        {
          "indexed": false,
          "internalType": "uint256[]",
          "name": "paymentDates",
          "type": "uint256[]"
        }
      ],
      "name": "LoanContractGenerated",
      "type": "event"
    },
    {
      "anonymous": false,
      "inputs": [
        {
          "indexed": true,
          "internalType": "uint256",
          "name": "requisitionId",
          "type": "uint256"
        },
        {
          "indexed": true,
          "internalType": "address",
          "name": "lender",
          "type": "address"
        },
        {
          "indexed": false,
          "internalType": "uint256",
          "name": "coverageAmount",
          "type": "uint256"
        }
      ],
      "name": "LoanCovered",
      "type": "event"
    },
    {
      "anonymous": false,
      "inputs": [
        {
          "indexed": true,
          "internalType": "uint256",
          "name": "requisitionId",
          "type": "uint256"
        }
      ],
      "name": "LoanFunded",
      "type": "event"
    },
    {
      "anonymous": false,
      "inputs": [
        {
          "indexed": true,
          "internalType": "uint256",
          "name": "requisitionId",
          "type": "uint256"
        },
        {
          "indexed": true,
          "internalType": "address",
          "name": "borrower",
          "type": "address"
        },
        {
          "indexed": false,
          "internalType": "uint256",
          "name": "amount",
          "type": "uint256"
        },
        {
          "indexed": false,
          "internalType": "uint32",
          "name": "parcelsCount",
          "type": "uint32"
        }
      ],
      "name": "LoanRequisitionCreated",
      "type": "event"
    },
    {
      "anonymous": false,
      "inputs": [
        {
          "indexed": true,
          "internalType": "address",
          "name": "borrower",
          "type": "address"
        }
      ],
      "name": "NewBorrower",
      "type": "event"
    },
    {
      "anonymous": false,
      "inputs": [
        {
          "indexed": true,
          "internalType": "address",
          "name": "donor",
          "type": "address"
        }
      ],
      "name": "NewDonor",
      "type": "event"
    },
    {
      "anonymous": false,
      "inputs": [
        {
          "indexed": true,
          "internalType": "uint256",
          "name": "requisitionId",
          "type": "uint256"
        },
        {
          "indexed": false,
          "internalType": "uint256",
          "name": "parcelsRemaining",
          "type": "uint256"
        }
      ],
      "name": "ParcelPaid",
      "type": "event"
    },
    {
      "anonymous": false,
      "inputs": [
        {
          "indexed": true,
          "internalType": "address",
          "name": "borrower",
          "type": "address"
        },
        {
          "indexed": false,
          "internalType": "uint256",
          "name": "amount",
          "type": "uint256"
        },
        {
          "indexed": false,
          "internalType": "uint256",
          "name": "remainingDebt",
          "type": "uint256"
        }
      ],
      "name": "Repaid",
      "type": "event"
    },
    {
      "anonymous": false,
      "inputs": [
        {
          "indexed": false,
          "internalType": "uint256",
          "name": "total",
          "type": "uint256"
        }
      ],
      "name": "TotalBorrowedUpdated",
      "type": "event"
    },
    {
      "anonymous": false,
      "inputs": [
        {
          "indexed": false,
          "internalType": "uint256",
          "name": "total",
          "type": "uint256"
        }
      ],
      "name": "TotalDonationsUpdated",
      "type": "event"
    },
    {
      "inputs": [
        {
          "internalType": "address",
          "name": "",
          "type": "address"
        },
        {
          "internalType": "uint256",
          "name": "",
          "type": "uint256"
        }
      ],
      "name": "borrowerRequisitions",
      "outputs": [
        {
          "internalType": "uint256",
          "name": "",
          "type": "uint256"
        }
      ],
      "stateMutability": "view",
      "type": "function"
    },
    {
      "inputs": [
        {
          "internalType": "uint256",
          "name": "requisitionId",
          "type": "uint256"
        },
        {
          "internalType": "address",
          "name": "borrower",
          "type": "address"
        }
      ],
      "name": "canPayRequisition",
      "outputs": [
        {
          "internalType": "bool",
          "name": "",
          "type": "bool"
        }
      ],
      "stateMutability": "view",
      "type": "function"
    },
    {
      "inputs": [
        {
          "internalType": "address",
          "name": "_user",
          "type": "address"
        },
        {
          "internalType": "uint256",
          "name": "_amount",
          "type": "uint256"
        }
      ],
      "name": "canUserBorrow",
      "outputs": [
        {
          "internalType": "bool",
          "name": "",
          "type": "bool"
        }
      ],
      "stateMutability": "view",
      "type": "function"
    },
    {
      "inputs": [
        {
          "internalType": "uint256",
          "name": "requisitionId",
          "type": "uint256"
        },
        {
          "internalType": "uint32",
          "name": "coveragePercentage",
          "type": "uint32"
        }
      ],
      "name": "coverLoan",
      "outputs": [],
      "stateMutability": "nonpayable",
      "type": "function"
    },
    {
      "inputs": [
        {
          "internalType": "uint256",
          "name": "_amount",
          "type": "uint256"
        },
        {
          "internalType": "uint32",
          "name": "_minimumCoverage",
          "type": "uint32"
        },
        {
          "internalType": "uint256",
          "name": "_durationDays",
          "type": "uint256"
        },
        {
          "internalType": "uint32",
          "name": "parcelscount",
          "type": "uint32"
        }
      ],
      "name": "createLoanRequisition",
      "outputs": [
        {
          "internalType": "uint256",
          "name": "",
          "type": "uint256"
        }
      ],
      "stateMutability": "nonpayable",
      "type": "function"
    },
    {
      "inputs": [
        {
          "internalType": "uint256",
          "name": "amount",
          "type": "uint256"
        }
      ],
      "name": "donate",
      "outputs": [],
      "stateMutability": "nonpayable",
      "type": "function"
    },
    {
      "inputs": [
        {
          "internalType": "address",
          "name": "borrower",
          "type": "address"
        }
      ],
      "name": "getActiveLoans",
      "outputs": [
        {
          "components": [
            {
              "internalType": "address",
              "name": "walletAddress",
              "type": "address"
            },
            {
              "internalType": "uint256",
              "name": "requisitionId",
              "type": "uint256"
            },
            {
              "internalType": "enum ILoanMachine.ContractStatus",
              "name": "status",
              "type": "uint8"
            },
            {
              "internalType": "uint32",
              "name": "parcelsPending",
              "type": "uint32"
            },
            {
              "internalType": "uint256",
              "name": "parcelsValues",
              "type": "uint256"
            },
            {
              "internalType": "uint256[]",
              "name": "paymentDates",
              "type": "uint256[]"
            }
          ],
          "internalType": "struct ILoanMachine.LoanContract[]",
          "name": "activeLoans",
          "type": "tuple[]"
        },
        {
          "internalType": "uint256[]",
          "name": "requisitionIds",
          "type": "uint256[]"
        }
      ],
      "stateMutability": "view",
      "type": "function"
    },
    {
      "inputs": [
        {
          "internalType": "address",
          "name": "user",
          "type": "address"
        }
      ],
      "name": "getAllowance",
      "outputs": [
        {
          "internalType": "uint256",
          "name": "",
          "type": "uint256"
        }
      ],
      "stateMutability": "view",
      "type": "function"
    },
    {
      "inputs": [],
      "name": "getAvailableBalance",
      "outputs": [
        {
          "internalType": "uint256",
          "name": "",
          "type": "uint256"
        }
      ],
      "stateMutability": "view",
      "type": "function"
    },
    {
      "inputs": [],
      "name": "getAvailableBorrowAmount",
      "outputs": [
        {
          "internalType": "uint256",
          "name": "",
          "type": "uint256"
        }
      ],
      "stateMutability": "view",
      "type": "function"
    },
    {
      "inputs": [
        {
          "internalType": "address",
          "name": "borrower",
          "type": "address"
        }
      ],
      "name": "getBorrowerRequisitions",
      "outputs": [
        {
          "internalType": "uint256[]",
          "name": "",
          "type": "uint256[]"
        }
      ],
      "stateMutability": "view",
      "type": "function"
    },
    {
      "inputs": [
        {
          "internalType": "address",
          "name": "_user",
          "type": "address"
        }
      ],
      "name": "getBorrowing",
      "outputs": [
        {
          "internalType": "uint256",
          "name": "",
          "type": "uint256"
        }
      ],
      "stateMutability": "view",
      "type": "function"
    },
    {
      "inputs": [],
      "name": "getContractBalance",
      "outputs": [
        {
          "internalType": "uint256",
          "name": "",
          "type": "uint256"
        }
      ],
      "stateMutability": "view",
      "type": "function"
    },
    {
      "inputs": [
        {
          "internalType": "uint256",
          "name": "requisitionId",
          "type": "uint256"
        }
      ],
      "name": "getCoveringLenders",
      "outputs": [
        {
          "internalType": "address[]",
          "name": "",
          "type": "address[]"
        }
      ],
      "stateMutability": "view",
      "type": "function"
    },
    {
      "inputs": [
        {
          "internalType": "address",
          "name": "_user",
          "type": "address"
        }
      ],
      "name": "getDonation",
      "outputs": [
        {
          "internalType": "uint256",
          "name": "",
          "type": "uint256"
        }
      ],
      "stateMutability": "view",
      "type": "function"
    },
    {
      "inputs": [
        {
          "internalType": "address",
          "name": "lender",
          "type": "address"
        }
      ],
      "name": "getDonationsInCoverage",
      "outputs": [
        {
          "internalType": "uint256",
          "name": "",
          "type": "uint256"
        }
      ],
      "stateMutability": "view",
      "type": "function"
    },
    {
      "inputs": [
        {
          "internalType": "address",
          "name": "_user",
          "type": "address"
        }
      ],
      "name": "getLastBorrowTime",
      "outputs": [
        {
          "internalType": "uint256",
          "name": "",
          "type": "uint256"
        }
      ],
      "stateMutability": "view",
      "type": "function"
    },
    {
      "inputs": [
        {
          "internalType": "uint256",
          "name": "requisitionId",
          "type": "uint256"
        },
        {
          "internalType": "address",
          "name": "lender",
          "type": "address"
        }
      ],
      "name": "getLenderCoverage",
      "outputs": [
        {
          "internalType": "uint256",
          "name": "",
          "type": "uint256"
        }
      ],
      "stateMutability": "view",
      "type": "function"
    },
    {
      "inputs": [
        {
          "internalType": "uint256",
          "name": "requisitionId",
          "type": "uint256"
        }
      ],
      "name": "getLoanContract",
      "outputs": [
        {
          "components": [
            {
              "internalType": "address",
              "name": "walletAddress",
              "type": "address"
            },
            {
              "internalType": "uint256",
              "name": "requisitionId",
              "type": "uint256"
            },
            {
              "internalType": "enum ILoanMachine.ContractStatus",
              "name": "status",
              "type": "uint8"
            },
            {
              "internalType": "uint32",
              "name": "parcelsPending",
              "type": "uint32"
            },
            {
              "internalType": "uint256",
              "name": "parcelsValues",
              "type": "uint256"
            },
            {
              "internalType": "uint256[]",
              "name": "paymentDates",
              "type": "uint256[]"
            }
          ],
          "internalType": "struct ILoanMachine.LoanContract",
          "name": "",
          "type": "tuple"
        }
      ],
      "stateMutability": "view",
      "type": "function"
    },
    {
      "inputs": [
        {
          "internalType": "uint256",
          "name": "requisitionId",
          "type": "uint256"
        }
      ],
      "name": "getNextPaymentAmount",
      "outputs": [
        {
          "internalType": "uint256",
          "name": "paymentAmount",
          "type": "uint256"
        },
        {
          "internalType": "bool",
          "name": "canPay",
          "type": "bool"
        }
      ],
      "stateMutability": "view",
      "type": "function"
    },
    {
      "inputs": [
        {
          "internalType": "uint256",
          "name": "requisitionId",
          "type": "uint256"
        }
      ],
      "name": "getPaymentDates",
      "outputs": [
        {
          "internalType": "uint256[]",
          "name": "",
          "type": "uint256[]"
        }
      ],
      "stateMutability": "view",
      "type": "function"
    },
    {
      "inputs": [
        {
          "internalType": "address",
          "name": "donor",
          "type": "address"
        }
      ],
      "name": "getRemainingDonationAllowance",
      "outputs": [
        {
          "internalType": "uint256",
          "name": "",
          "type": "uint256"
        }
      ],
      "stateMutability": "view",
      "type": "function"
    },
    {
      "inputs": [
        {
          "internalType": "uint256",
          "name": "requisitionId",
          "type": "uint256"
        }
      ],
      "name": "getRepaymentSummary",
      "outputs": [
        {
          "internalType": "uint256",
          "name": "totalRemainingDebt",
          "type": "uint256"
        },
        {
          "internalType": "uint256",
          "name": "nextPaymentAmount",
          "type": "uint256"
        },
        {
          "internalType": "uint256",
          "name": "parcelsRemaining",
          "type": "uint256"
        },
        {
          "internalType": "uint256",
          "name": "totalParcels",
          "type": "uint256"
        },
        {
          "internalType": "bool",
          "name": "isActive",
          "type": "bool"
        }
      ],
      "stateMutability": "view",
      "type": "function"
    },
    {
      "inputs": [
        {
          "internalType": "uint256",
          "name": "requisitionId",
          "type": "uint256"
        }
      ],
      "name": "getRequisitionInfo",
      "outputs": [
        {
          "components": [
            {
              "internalType": "uint256",
              "name": "requisitionId",
              "type": "uint256"
            },
            {
              "internalType": "address",
              "name": "borrower",
              "type": "address"
            },
            {
              "internalType": "uint256",
              "name": "amount",
              "type": "uint256"
            },
            {
              "internalType": "uint32",
              "name": "minimumCoverage",
              "type": "uint32"
            },
            {
              "internalType": "uint32",
              "name": "currentCoverage",
              "type": "uint32"
            },
            {
              "internalType": "enum ILoanMachine.BorrowStatus",
              "name": "status",
              "type": "uint8"
            },
            {
              "internalType": "uint256",
              "name": "durationDays",
              "type": "uint256"
            },
            {
              "internalType": "uint256",
              "name": "creationTime",
              "type": "uint256"
            },
            {
              "internalType": "address[]",
              "name": "coveringLenders",
              "type": "address[]"
            },
            {
              "internalType": "uint32",
              "name": "parcelsCount",
              "type": "uint32"
            }
          ],
          "internalType": "struct ILoanMachine.RequisitionInfo",
          "name": "",
          "type": "tuple"
        }
      ],
      "stateMutability": "view",
      "type": "function"
    },
    {
      "inputs": [],
      "name": "getTotalBorrowed",
      "outputs": [
        {
          "internalType": "uint256",
          "name": "",
          "type": "uint256"
        }
      ],
      "stateMutability": "view",
      "type": "function"
    },
    {
      "inputs": [],
      "name": "getTotalDonations",
      "outputs": [
        {
          "internalType": "uint256",
          "name": "",
          "type": "uint256"
        }
      ],
      "stateMutability": "view",
      "type": "function"
    },
    {
      "inputs": [],
      "name": "getUSDTBalance",
      "outputs": [
        {
          "internalType": "uint256",
          "name": "",
          "type": "uint256"
        }
      ],
      "stateMutability": "view",
      "type": "function"
    },
    {
      "inputs": [
        {
          "internalType": "uint256",
          "name": "",
          "type": "uint256"
        }
      ],
      "name": "loanContracts",
      "outputs": [
        {
          "internalType": "address",
          "name": "walletAddress",
          "type": "address"
        },
        {
          "internalType": "uint256",
          "name": "requisitionId",
          "type": "uint256"
        },
        {
          "internalType": "enum ILoanMachine.ContractStatus",
          "name": "status",
          "type": "uint8"
        },
        {
          "internalType": "uint32",
          "name": "parcelsPending",
          "type": "uint32"
        },
        {
          "internalType": "uint256",
          "name": "parcelsValues",
          "type": "uint256"
        }
      ],
      "stateMutability": "view",
      "type": "function"
    },
    {
      "inputs": [
        {
          "internalType": "uint256",
          "name": "requisitionId",
          "type": "uint256"
        },
        {
          "internalType": "uint256",
          "name": "amount",
          "type": "uint256"
        }
      ],
      "name": "repay",
      "outputs": [],
      "stateMutability": "nonpayable",
      "type": "function"
    },
    {
      "inputs": [],
      "name": "requisitionCounter",
      "outputs": [
        {
          "internalType": "uint256",
          "name": "",
          "type": "uint256"
        }
      ],
      "stateMutability": "view",
      "type": "function"
    },
    {
      "inputs": [],
      "name": "usdtToken",
      "outputs": [
        {
          "internalType": "address",
          "name": "",
          "type": "address"
        }
      ],
      "stateMutability": "view",
      "type": "function"
    }
  ],
  "bytecode": "0x60a06040523480156200001157600080fd5b506040516200289c3803806200289c83398101604081905262000034916200004b565b60016000556001600160a01b03166080526200007d565b6000602082840312156200005e57600080fd5b81516001600160a01b03811681146200007657600080fd5b9392505050565b6080516127e0620000bc600039600081816104c60152818161106f015281816116830152818161194201528181611a3d0152611e3f01526127e06000f3fe608060405234801561001057600080fd5b50600436106101e55760003560e01c80637d52437a1161010f5780639e932011116100a2578063be5eb58011610071578063be5eb58014610513578063d8aed1451461053c578063eb5a662e1461054f578063f14faf6f1461056257600080fd5b80639e9320111461049b578063a648bf75146104ae578063a98ad46c146104c1578063adceb1011461050057600080fd5b80638a914a63116100de5780638a914a63146104455780639730872a146104655780639785fac8146103e357806397c335191461047857600080fd5b80637d52437a146103f3578063809dab6a146102b8578063827cc0e51461041357806384ddf5ea1461043c57600080fd5b8063383ab2ef116101875780636509a710116101565780636509a71014610392578063657eb031146103ba5780636f9fb98a146103e3578063777c658f146103eb57600080fd5b8063383ab2ef146102fd578063410a1d321461031d578063458a6185146103465780634e51c7df1461035957600080fd5b8063232869fa116101c3578063232869fa146102425780632485a314146102a3578063291c31a7146102b85780632b31c022146102c057600080fd5b80630307c4a1146101ea57806303d1a1a1146102015780631b70ba3e14610222575b600080fd5b6005545b6040519081526020015b60405180910390f35b61021461020f3660046121ce565b610575565b6040516101f89291906122e4565b61023561023036600461235a565b61090c565b6040516101f891906123bc565b61029261025036600461235a565b600b6020526000908152604090208054600182015460028301546003909301546001600160a01b0390921692909160ff821691610100900463ffffffff169085565b6040516101f8959493929190612478565b6102b66102b13660046124c9565b610a70565b005b6006546101ee565b6102d36102ce36600461235a565b610da1565b6040805195865260208601949094529284019190915260608301521515608082015260a0016101f8565b61031061030b36600461235a565b610e70565b6040516101f891906124f5565b6101ee61032b3660046121ce565b6001600160a01b031660009081526001602052604090205490565b6101ee6103543660046121ce565b610f9d565b6101ee610367366004612508565b60008281526007602081815260408084206001600160a01b0386168552909201905290205492915050565b6103a56103a036600461235a565b610ff3565b604080519283529015156020830152016101f8565b6101ee6103c83660046121ce565b6001600160a01b031660009081526003602052604090205490565b6101ee611057565b6004546101ee565b61040661040136600461235a565b6110e7565b6040516101f8919061252b565b6101ee6104213660046121ce565b6001600160a01b03166000908152600a602052604090205490565b6101ee60085481565b61045861045336600461235a565b61114c565b6040516101f8919061253e565b6104066104733660046121ce565b6111ba565b61048b610486366004612551565b611224565b60405190151581526020016101f8565b6101ee6104a9366004612551565b6112d7565b6101ee6104bc36600461257b565b611308565b6104e87f000000000000000000000000000000000000000000000000000000000000000081565b6040516001600160a01b0390911681526020016101f8565b61048b61050e366004612508565b6114dd565b6101ee6105213660046121ce565b6001600160a01b031660009081526002602052604090205490565b6102b661054a3660046125c1565b611541565b6101ee61055d3660046121ce565b61191a565b6102b661057036600461235a565b6119af565b6001600160a01b0381166000908152600960205260408120606091829190805b8254811015610649576000600b60008584815481106105b6576105b66125e3565b60009182526020808320909101548352820192909252604001902080549091506001600160a01b039081169088161480156106095750600060028083015460ff1690811115610607576106076121e9565b145b801561062357506002810154610100900463ffffffff1615155b1561063657826106328161260f565b9350505b50806106418161260f565b915050610595565b508067ffffffffffffffff81111561066357610663612628565b6040519080825280602002602001820160405280156106cb57816020015b6106b86040805160c08101825260008082526020820181905290918201908152600060208201819052604082015260609081015290565b8152602001906001900390816106815790505b5093508067ffffffffffffffff8111156106e7576106e7612628565b604051908082528060200260200182016040528015610710578160200160208202803683370190505b5092506000805b8354811015610903576000600b6000868481548110610738576107386125e3565b60009182526020808320909101548352820192909252604001902080549091506001600160a01b0390811690891614801561078b5750600060028083015460ff1690811115610789576107896121e9565b145b80156107a557506002810154610100900463ffffffff1615155b156108f0576040805160c08101825282546001600160a01b0316815260018301546020820152600280840154919284929084019160ff909116908111156107ee576107ee6121e9565b60028111156107ff576107ff6121e9565b81526020016002820160019054906101000a900463ffffffff1663ffffffff1663ffffffff168152602001600382015481526020016004820180548060200260200160405190810160405280929190818152602001828054801561088257602002820191906000526020600020905b81548152602001906001019080831161086e575b50505050508152505087848151811061089d5761089d6125e3565b60200260200101819052508482815481106108ba576108ba6125e3565b90600052602060002001548684815181106108d7576108d76125e3565b6020908102919091010152826108ec8161260f565b9350505b50806108fb8161260f565b915050610717565b50505050915091565b604080516101408101825260008082526020820181905291810182905260608082018390526080820183905260a0820183905260c0820183905260e082018390526101008201526101208101919091526000828152600760209081526040918290208251610140810184528154815260018201546001600160a01b031692810192909252600281015492820192909252600382015463ffffffff8082166060840152640100000000820416608083015260a0820190600160401b900460ff1660058111156109dc576109dc6121e9565b8152602001826004015481526020018260050154815260200182600601805480602002602001604051908101604052809291908181526020018280548015610a4d57602002820191906000526020600020905b81546001600160a01b03168152600190910190602001808311610a2f575b505050918352505060089092015463ffffffff1660209092019190915292915050565b8063ffffffff81161580610a8a575060648163ffffffff16115b15610aa85760405163d1e95ed560e01b815260040160405180910390fd5b610ab0611be9565b6000838152600760205260408120906003820154600160401b900460ff166005811115610adf57610adf6121e9565b14158015610b0d575060016003820154600160401b900460ff166005811115610b0a57610b0a6121e9565b14155b15610b2b576040516380b9cb0960e01b815260040160405180910390fd5b6003810154606490610b4e9063ffffffff8087169164010000000090041661263e565b1115610b6d5760405163955f95ad60e01b815260040160405180910390fd5b670de0b6b3a76400006000610b83826064612651565b6001610b90846064612651565b610b9a9190612668565b838763ffffffff168660020154610bb19190612651565b610bbb9190612651565b610bc5919061263e565b610bcf919061267b565b33600090815260016020526040902054909150811115610c0257604051630391acf160e61b815260040160405180910390fd5b3360009081526001602052604081208054839290610c21908490612668565b9091555050336000908152600a602052604081208054839290610c4590849061263e565b9091555050600383018054869190600490610c6f908490640100000000900463ffffffff1661269d565b825463ffffffff9182166101009390930a9283029190920219909116179055503360009081526007840160205260408120549003610ccf57600683018054600181018255600091825260209091200180546001600160a01b031916331790555b33600090815260078401602052604081208054839290610cf090849061263e565b9091555050600383015463ffffffff8082166401000000009092041610610d425760038301805460ff60401b191668020000000000000000179055610d3486611c46565b610d3d86611d58565b610d58565b60038301805460ff60401b1916600160401b1790555b604051818152339087907f86b47e6e6c03d769c0bc5ffd06c682ea7d07089576d59230ec18ff64e71bffe79060200160405180910390a3505050610d9c6001600055565b505050565b6000818152600b602090815260408083206007909252822082918291829182918260028084015460ff1690811115610ddb57610ddb6121e9565b148015610df657506002820154610100900463ffffffff1615155b15610e4a5760038201546002830154610e1a9190610100900463ffffffff16612651565b60038301546002840154600884015492995090975063ffffffff6101009091048116965016935060019250610e65565b60088101546000975087965086955063ffffffff1693508492505b505091939590929450565b610ea76040805160c08101825260008082526020820181905290918201908152600060208201819052604082015260609081015290565b6000828152600b60209081526040808320815160c08101835281546001600160a01b03168152600182015493810193909352600280820154919284019160ff1690811115610ef757610ef76121e9565b6002811115610f0857610f086121e9565b81526020016002820160019054906101000a900463ffffffff1663ffffffff1663ffffffff1681526020016003820154815260200160048201805480602002602001604051908101604052809291908181526020018280548015610f8b57602002820191906000526020600020905b815481526020019060010190808311610f77575b50505091909252509195945050505050565b6001600160a01b038116600090815260016020526040812054624c4b4011610fc757506000919050565b6001600160a01b038216600090815260016020526040902054610fed90624c4b40612668565b92915050565b6000818152600b6020526040812081908160028083015460ff169081111561101d5761101d6121e9565b14801561103857506002810154610100900463ffffffff1615155b1561104b57600301549360019350915050565b50600093849350915050565b6040516370a0823160e01b81523060048201526000907f00000000000000000000000000000000000000000000000000000000000000006001600160a01b0316906370a0823190602401602060405180830381865afa1580156110be573d6000803e3d6000fd5b505050506040513d601f19601f820116820180604052508101906110e291906126c1565b905090565b6000818152600b602090815260409182902060040180548351818402810184019094528084526060939283018282801561114057602002820191906000526020600020905b81548152602001906001019080831161112c575b50505050509050919050565b60008181526007602090815260409182902060060180548351818402810184019094528084526060939283018282801561114057602002820191906000526020600020905b81546001600160a01b031681526001909101906020018083116111915750505050509050919050565b6001600160a01b038116600090815260096020908152604091829020805483518184028101840190945280845260609392830182828015611140576020028201919060005260206000209081548152602001906001019080831161112c5750505050509050919050565b6000808211801561123757506006548211155b801561127e57506001600160a01b038316600090815260016020526040902054620f424011158061127e57506001600160a01b038316600090815260026020526040902054155b80156112d057506001600160a01b03831660009081526003602052604090205442906112ae9062093a809061263e565b10806112d057506001600160a01b038316600090815260026020526040902054155b9392505050565b600960205281600052604060002081815481106112f357600080fd5b90600052602060002001600091509150505481565b6000848060000361132c5760405163162908e360e11b815260040160405180910390fd5b8463ffffffff166046811115806113435750606481115b156113615760405163d1e95ed560e01b815260040160405180910390fd5b8360018163ffffffff16108061137d5750600c8163ffffffff16115b1561139b5760405163524eff2760e01b815260040160405180910390fd5b6006548811156113be5760405163356680b760e01b815260040160405180910390fd5b60088054600091826113cf8361260f565b9091555060008181526007602052604081206001810180546001600160a01b03191633179055600281018c905560038101805467ffffffffffffffff19811663ffffffff8e1690811783559495509193909168ffffffffffffffffff191617600160401b8302179055506004810188905542600582015560088101805463ffffffff891663ffffffff19909116179055818155336000818152600960209081526040808320805460018101825590845291909220018490555183907fde3b47cf7da95a3cc41b86cf8717ead8d56a76ee1590481c5c4dc4d8804c40c4906114c8908e908c9091825263ffffffff16602082015260400190565b60405180910390a35098975050505050505050565b6000828152600b6020526040812080546001600160a01b03848116911614801561151f5750600060028083015460ff169081111561151d5761151d6121e9565b145b801561153957506002810154610100900463ffffffff1615155b949350505050565b611549611be9565b8060000361156a5760405163162908e360e11b815260040160405180910390fd5b33600090815260026020526040812054900361159957604051630b5ab5bf60e41b815260040160405180910390fd5b6000828152600b6020526040902080546001600160a01b031633146115d157604051630b5ab5bf60e41b815260040160405180910390fd5b600060028083015460ff16908111156115ec576115ec6121e9565b1461160a57604051630b5ab5bf60e41b815260040160405180910390fd5b6002810154610100900463ffffffff1660000361163a57604051630b5ab5bf60e41b815260040160405180910390fd5b8060030154821461165e5760405163162908e360e11b815260040160405180910390fd5b6040516323b872dd60e01b8152336004820152306024820152604481018390526000907f00000000000000000000000000000000000000000000000000000000000000006001600160a01b0316906323b872dd906064016020604051808303816000875af11580156116d4573d6000803e3d6000fd5b505050506040513d601f19601f820116820180604052508101906116f891906126da565b9050806117185760405163022e258160e11b815260040160405180910390fd5b60018260020160018282829054906101000a900463ffffffff1661173c91906126fc565b825463ffffffff91821661010093840a90810290830219909116179092556002850154041660000390506117a6576002828101805460ff1916909117905560405184907f02ca5489b37dd363d1302bac719e8ee40e540ffbe8c12253570fea63e11cad7190600090a25b33600090815260026020526040812080548592906117c5908490612668565b9250508190555082600560008282546117de9190612668565b9250508190555082600660008282546117f7919061263e565b9091555061180790508484611fd1565b33600081815260026020908152604091829020548251878152918201527f1b8cd61ed43bec7c6bdad3a18ffee613f99c853d16c50678d248d879e1b43438910160405180910390a2600282015460405161010090910463ffffffff16815284907f406356ef25520b09e2ef87c5225167b4161ea4ab691e9434d6ee29eafcc83fc29060200160405180910390a27f17f13fd3f7c4712af33f1770ebcb822dd20a2dbc00850eab48d786623d97b9596005546040516118c791815260200190565b60405180910390a17f8b094cca6f83d49402ce208cc0c224b76625ffc58636df56ae28024e704c586860065460405161190291815260200190565b60405180910390a150506119166001600055565b5050565b604051636eb1769f60e11b81526001600160a01b0382811660048301523060248301526000917f00000000000000000000000000000000000000000000000000000000000000009091169063dd62ed3e90604401602060405180830381865afa15801561198b573d6000803e3d6000fd5b505050506040513d601f19601f82011682018060405250810190610fed91906126c1565b80806000036119d15760405163162908e360e11b815260040160405180910390fd5b6119d9611be9565b33600090815260016020526040902054624c4b40906119f990849061263e565b1115611a18576040516330fdf8db60e11b815260040160405180910390fd5b6040516323b872dd60e01b8152336004820152306024820152604481018390526000907f00000000000000000000000000000000000000000000000000000000000000006001600160a01b0316906323b872dd906064016020604051808303816000875af1158015611a8e573d6000803e3d6000fd5b505050506040513d601f19601f82011682018060405250810190611ab291906126da565b905080611ad25760405163022e258160e11b815260040160405180910390fd5b33600081815260016020908152604091829020805487810182556004805489019055600680548901905590548351888152928301521592917f4928895ba6723e8e27b15f32e4c3054a1b6c7f8c03f133558d6fa42b3928d14c910160405180910390a27fdc6e73d4b36e22ab95945bd8833a5af96c950eb29d8d75c4aecffc987637aaab600454604051611b6891815260200190565b60405180910390a17f8b094cca6f83d49402ce208cc0c224b76625ffc58636df56ae28024e704c5868600654604051611ba391815260200190565b60405180910390a18015611bdd5760405133907f072dafb6aabe3f02118bc607efbeaaa104d6b2009720c7b130f24ba418689c4b90600090a25b50506119166001600055565b600260005403611c3f5760405162461bcd60e51b815260206004820152601f60248201527f5265656e7472616e637947756172643a207265656e7472616e742063616c6c00604482015260640160405180910390fd5b6002600055565b6000818152600b60209081526040808320600790925290912060018082015483546001600160a01b0319166001600160a01b0390911617835582018390556002808301805460ff198116825560088401805464ffffffffff1990921661010063ffffffff938416021790925590549190920154611cc792919091169061267b565b6003820155600082815260076020526040902060080154611cef90829063ffffffff16612144565b80546002820154600383015460405185936001600160a01b0316927f5215406e88f26eed4728b9cdfc5d85cea75799101cb9387b528451e6e0878dec92611d4c9260ff831692610100900463ffffffff1691906004890190612719565b60405180910390a35050565b600081815260076020908152604080832060028082015460018301546001600160a01b031686529352908320805491939091611d9590849061263e565b9091555050600281015460058054600090611db190849061263e565b9091555050600281015460068054600090611dcd908490612668565b909155505060018101546001600160a01b03166000908152600360208190526040909120429055818101805460ff60401b1916600160401b8302179055506001810154600282015460405163a9059cbb60e01b81526001600160a01b03928316600482015260248101919091526000917f0000000000000000000000000000000000000000000000000000000000000000169063a9059cbb906044016020604051808303816000875af1158015611e88573d6000803e3d6000fd5b505050506040513d601f19601f82011682018060405250810190611eac91906126da565b905080611ecc5760405163022e258160e11b815260040160405180910390fd5b60018201546002808401546001600160a01b039092166000818152602092835260409081902054815194855292840192909252917feae9cfbc77fdd40ca899f36b608256063b2bc9d8178b0220f7ad513e178d6730910160405180910390a27f17f13fd3f7c4712af33f1770ebcb822dd20a2dbc00850eab48d786623d97b959600554604051611f5e91815260200190565b60405180910390a17f8b094cca6f83d49402ce208cc0c224b76625ffc58636df56ae28024e704c5868600654604051611f9991815260200190565b60405180910390a160405183907f9e71d2fb732e68272b7e74ecfd14638673c1d77e19a5d390a3ffff054d57c44b90600090a2505050565b6000828152600760205260408120600281015490915b600683015481101561213d57600083600601828154811061200a5761200a6125e3565b60009182526020808320909101546001600160a01b0316808352600787019091526040822054909250908461203f8389612651565b612049919061267b565b90508015612127576001600160a01b0383166000908152600a602052604090205481111561208c57506001600160a01b0382166000908152600a60205260409020545b6001600160a01b0383166000908152600a6020526040812080548392906120b4908490612668565b90915550506001600160a01b038316600090815260016020526040812080548392906120e190849061263e565b90915550506040518181526001600160a01b0384169089907fe3e6ae1e05f069d410556743894aacbb190c1431962422ebe8fcc642a467dd169060200160405180910390a35b50505080806121359061260f565b915050611fe7565b5050505050565b4262278d0060005b8363ffffffff168163ffffffff16101561213d57600061216d82600161269d565b61217d9063ffffffff1684612651565b612187908561263e565b60048701805460018101825560009182526020909120015550806121aa81612787565b91505061214c565b80356001600160a01b03811681146121c957600080fd5b919050565b6000602082840312156121e057600080fd5b6112d0826121b2565b634e487b7160e01b600052602160045260246000fd5b6003811061220f5761220f6121e9565b9052565b600060c0830160018060a01b03835116845260208084015181860152604084015161224160408701826121ff565b5063ffffffff60608501511660608601526080840151608086015260a084015160c060a087015282815180855260e0880191508383019450600092505b8083101561229e578451825293830193600192909201919083019061227e565b509695505050505050565b600081518084526020808501945080840160005b838110156122d9578151875295820195908201906001016122bd565b509495945050505050565b6000604082016040835280855180835260608501915060608160051b8601019250602080880160005b8381101561233b57605f19888703018552612329868351612213565b9550938201939082019060010161230d565b50508584038187015250505061235181856122a9565b95945050505050565b60006020828403121561236c57600080fd5b5035919050565b6006811061220f5761220f6121e9565b600081518084526020808501945080840160005b838110156122d95781516001600160a01b031687529582019590820190600101612397565b6020815281516020820152600060208301516123e360408401826001600160a01b03169052565b50604083015160608301526060830151612405608084018263ffffffff169052565b50608083015163ffffffff811660a08401525060a083015161242a60c0840182612373565b5060c083015160e083015260e08301516101008181850152808501519150506101406101208181860152612462610160860184612383565b95015163ffffffff169301929092525090919050565b6001600160a01b03861681526020810185905260a0810161249c60408301866121ff565b63ffffffff939093166060820152608001529392505050565b803563ffffffff811681146121c957600080fd5b600080604083850312156124dc57600080fd5b823591506124ec602084016124b5565b90509250929050565b6020815260006112d06020830184612213565b6000806040838503121561251b57600080fd5b823591506124ec602084016121b2565b6020815260006112d060208301846122a9565b6020815260006112d06020830184612383565b6000806040838503121561256457600080fd5b61256d836121b2565b946020939093013593505050565b6000806000806080858703121561259157600080fd5b843593506125a1602086016124b5565b9250604085013591506125b6606086016124b5565b905092959194509250565b600080604083850312156125d457600080fd5b50508035926020909101359150565b634e487b7160e01b600052603260045260246000fd5b634e487b7160e01b600052601160045260246000fd5b600060018201612621576126216125f9565b5060010190565b634e487b7160e01b600052604160045260246000fd5b80820180821115610fed57610fed6125f9565b8082028115828204841417610fed57610fed6125f9565b81810381811115610fed57610fed6125f9565b60008261269857634e487b7160e01b600052601260045260246000fd5b500490565b63ffffffff8181168382160190808211156126ba576126ba6125f9565b5092915050565b6000602082840312156126d357600080fd5b5051919050565b6000602082840312156126ec57600080fd5b815180151581146112d057600080fd5b63ffffffff8281168282160390808211156126ba576126ba6125f9565b60006080820161272983886121ff565b602063ffffffff8716818501528560408501526080606085015281855480845260a0860191508660005282600020935060005b818110156127785784548352600194850194928401920161275c565b50909998505050505050505050565b600063ffffffff8083168181036127a0576127a06125f9565b600101939250505056fea2646970667358221220dc38193d6e79f510d0301532e4263c86d3b3937f1c3963b3b1fc450a800605e164736f6c63430008130033",
  "linkReferences": {},
  "deployedLinkReferences": {}
}