{
  "_format": "hh-sol-artifact-1",
  "contractName": "LoanMachine",
  "sourceName": "contracts/LoanMachine.sol",
  "abi": [
    {
      "inputs": [
        {
          "internalType": "address",
          "name": "_usdtToken",
          "type": "address"
        },
        {
          "internalType": "address",
          "name": "_reputationSystem",
          "type": "address"
        }
      ],
      "stateMutability": "nonpayable",
      "type": "constructor"
    },
    {
      "inputs": [],
      "name": "BorrowNotExpired",
      "type": "error"
    },
    {
      "inputs": [],
      "name": "ExcessiveDonation",
      "type": "error"
    },
    {
      "inputs": [],
      "name": "InsufficientDonationBalance",
      "type": "error"
    },
    {
      "inputs": [],
      "name": "InsufficientFunds",
      "type": "error"
    },
    {
      "inputs": [],
      "name": "InsufficientWithdrawableBalance",
      "type": "error"
    },
    {
      "inputs": [],
      "name": "InvalidAmount",
      "type": "error"
    },
    {
      "inputs": [],
      "name": "InvalidCoveragePercentage",
      "type": "error"
    },
    {
      "inputs": [],
      "name": "InvalidParcelsCount",
      "type": "error"
    },
    {
      "inputs": [],
      "name": "LoanNotAvailable",
      "type": "error"
    },
    {
      "inputs": [],
      "name": "MaxLoanRequisitionPendingReached",
      "type": "error"
    },
    {
      "inputs": [],
      "name": "MemberIdOrWalletInvalid",
      "type": "error"
    },
    {
      "inputs": [],
      "name": "MinimumDonationRequired",
      "type": "error"
    },
    {
      "inputs": [],
      "name": "MinimumPercentageCover",
      "type": "error"
    },
    {
      "inputs": [],
      "name": "NoActiveBorrowing",
      "type": "error"
    },
    {
      "inputs": [],
      "name": "OverCoverage",
      "type": "error"
    },
    {
      "inputs": [],
      "name": "ParcelAlreadyPaid",
      "type": "error"
    },
    {
      "inputs": [],
      "name": "RepaymentExceedsBorrowed",
      "type": "error"
    },
    {
      "inputs": [],
      "name": "TokenTransferFailed",
      "type": "error"
    },
    {
      "inputs": [],
      "name": "WalletAlreadyVinculated",
      "type": "error"
    },
    {
      "anonymous": false,
      "inputs": [
        {
          "indexed": false,
          "internalType": "uint256",
          "name": "total",
          "type": "uint256"
        }
      ],
      "name": "AvailableBalanceUpdated",
      "type": "event"
    },
    {
      "anonymous": false,
      "inputs": [
        {
          "indexed": true,
          "internalType": "address",
          "name": "borrower",
          "type": "address"
        }
      ],
      "name": "BorrowLimitReached",
      "type": "event"
    },
    {
      "anonymous": false,
      "inputs": [
        {
          "indexed": true,
          "internalType": "address",
          "name": "borrower",
          "type": "address"
        },
        {
          "indexed": false,
          "internalType": "uint256",
          "name": "amount",
          "type": "uint256"
        },
        {
          "indexed": false,
          "internalType": "uint256",
          "name": "totalBorrowing",
          "type": "uint256"
        }
      ],
      "name": "Borrowed",
      "type": "event"
    },
    {
      "anonymous": false,
      "inputs": [
        {
          "indexed": true,
          "internalType": "address",
          "name": "borrower",
          "type": "address"
        },
        {
          "indexed": false,
          "internalType": "enum DebtTracker.DebtStatus",
          "name": "newStatus",
          "type": "uint8"
        }
      ],
      "name": "BorrowerStatusUpdated",
      "type": "event"
    },
    {
      "anonymous": false,
      "inputs": [
        {
          "indexed": true,
          "internalType": "address",
          "name": "borrower",
          "type": "address"
        }
      ],
      "name": "DebtorAdded",
      "type": "event"
    },
    {
      "anonymous": false,
      "inputs": [
        {
          "indexed": true,
          "internalType": "address",
          "name": "borrower",
          "type": "address"
        }
      ],
      "name": "DebtorRemoved",
      "type": "event"
    },
    {
      "anonymous": false,
      "inputs": [
        {
          "indexed": true,
          "internalType": "address",
          "name": "donor",
          "type": "address"
        },
        {
          "indexed": false,
          "internalType": "uint256",
          "name": "amount",
          "type": "uint256"
        },
        {
          "indexed": false,
          "internalType": "uint256",
          "name": "totalDonation",
          "type": "uint256"
        }
      ],
      "name": "Donated",
      "type": "event"
    },
    {
      "anonymous": false,
      "inputs": [
        {
          "indexed": true,
          "internalType": "uint256",
          "name": "requisitionId",
          "type": "uint256"
        },
        {
          "indexed": true,
          "internalType": "address",
          "name": "lender",
          "type": "address"
        },
        {
          "indexed": false,
          "internalType": "uint256",
          "name": "amount",
          "type": "uint256"
        }
      ],
      "name": "LenderRepaid",
      "type": "event"
    },
    {
      "anonymous": false,
      "inputs": [
        {
          "indexed": true,
          "internalType": "uint256",
          "name": "requisitionId",
          "type": "uint256"
        }
      ],
      "name": "LoanCompleted",
      "type": "event"
    },
    {
      "anonymous": false,
      "inputs": [
        {
          "indexed": true,
          "internalType": "address",
          "name": "walletAddress",
          "type": "address"
        },
        {
          "indexed": true,
          "internalType": "uint256",
          "name": "requisitionId",
          "type": "uint256"
        },
        {
          "indexed": false,
          "internalType": "enum ILoanMachine.ContractStatus",
          "name": "status",
          "type": "uint8"
        },
        {
          "indexed": false,
          "internalType": "uint32",
          "name": "parcelsPending",
          "type": "uint32"
        },
        {
          "indexed": false,
          "internalType": "uint256",
          "name": "parcelsValues",
          "type": "uint256"
        },
        {
          "indexed": false,
          "internalType": "uint256[]",
          "name": "paymentDates",
          "type": "uint256[]"
        }
      ],
      "name": "LoanContractGenerated",
      "type": "event"
    },
    {
      "anonymous": false,
      "inputs": [
        {
          "indexed": true,
          "internalType": "uint256",
          "name": "requisitionId",
          "type": "uint256"
        },
        {
          "indexed": true,
          "internalType": "address",
          "name": "lender",
          "type": "address"
        },
        {
          "indexed": false,
          "internalType": "uint256",
          "name": "coverageAmount",
          "type": "uint256"
        }
      ],
      "name": "LoanCovered",
      "type": "event"
    },
    {
      "anonymous": false,
      "inputs": [
        {
          "indexed": true,
          "internalType": "uint256",
          "name": "requisitionId",
          "type": "uint256"
        }
      ],
      "name": "LoanFunded",
      "type": "event"
    },
    {
      "anonymous": false,
      "inputs": [
        {
          "indexed": true,
          "internalType": "uint256",
          "name": "requisitionId",
          "type": "uint256"
        },
        {
          "indexed": true,
          "internalType": "address",
          "name": "borrower",
          "type": "address"
        },
        {
          "indexed": false,
          "internalType": "uint256",
          "name": "amount",
          "type": "uint256"
        },
        {
          "indexed": false,
          "internalType": "uint32",
          "name": "parcelsCount",
          "type": "uint32"
        }
      ],
      "name": "LoanRequisitionCreated",
      "type": "event"
    },
    {
      "anonymous": false,
      "inputs": [
        {
          "indexed": false,
          "internalType": "uint256",
          "name": "timestamp",
          "type": "uint256"
        }
      ],
      "name": "MonthlyUpdateTriggered",
      "type": "event"
    },
    {
      "anonymous": false,
      "inputs": [
        {
          "indexed": true,
          "internalType": "address",
          "name": "borrower",
          "type": "address"
        }
      ],
      "name": "NewBorrower",
      "type": "event"
    },
    {
      "anonymous": false,
      "inputs": [
        {
          "indexed": true,
          "internalType": "address",
          "name": "donor",
          "type": "address"
        }
      ],
      "name": "NewDonor",
      "type": "event"
    },
    {
      "anonymous": false,
      "inputs": [
        {
          "indexed": true,
          "internalType": "uint256",
          "name": "requisitionId",
          "type": "uint256"
        },
        {
          "indexed": false,
          "internalType": "uint256",
          "name": "parcelsRemaining",
          "type": "uint256"
        }
      ],
      "name": "ParcelPaid",
      "type": "event"
    },
    {
      "anonymous": false,
      "inputs": [
        {
          "indexed": true,
          "internalType": "address",
          "name": "borrower",
          "type": "address"
        },
        {
          "indexed": false,
          "internalType": "uint256",
          "name": "amount",
          "type": "uint256"
        },
        {
          "indexed": false,
          "internalType": "uint256",
          "name": "remainingDebt",
          "type": "uint256"
        }
      ],
      "name": "Repaid",
      "type": "event"
    },
    {
      "anonymous": false,
      "inputs": [
        {
          "indexed": false,
          "internalType": "uint256",
          "name": "total",
          "type": "uint256"
        }
      ],
      "name": "TotalBorrowedUpdated",
      "type": "event"
    },
    {
      "anonymous": false,
      "inputs": [
        {
          "indexed": false,
          "internalType": "uint256",
          "name": "total",
          "type": "uint256"
        }
      ],
      "name": "TotalDonationsUpdated",
      "type": "event"
    },
    {
      "anonymous": false,
      "inputs": [
        {
          "indexed": true,
          "internalType": "address",
          "name": "donor",
          "type": "address"
        },
        {
          "indexed": false,
          "internalType": "uint256",
          "name": "amount",
          "type": "uint256"
        },
        {
          "indexed": false,
          "internalType": "uint256",
          "name": "donations",
          "type": "uint256"
        }
      ],
      "name": "Withdrawn",
      "type": "event"
    },
    {
      "inputs": [
        {
          "internalType": "address[]",
          "name": "borrowers",
          "type": "address[]"
        }
      ],
      "name": "batchUpdateDebtStatus",
      "outputs": [],
      "stateMutability": "nonpayable",
      "type": "function"
    },
    {
      "inputs": [
        {
          "internalType": "address",
          "name": "",
          "type": "address"
        },
        {
          "internalType": "uint256",
          "name": "",
          "type": "uint256"
        }
      ],
      "name": "borrowerRequisitions",
      "outputs": [
        {
          "internalType": "uint256",
          "name": "",
          "type": "uint256"
        }
      ],
      "stateMutability": "view",
      "type": "function"
    },
    {
      "inputs": [
        {
          "internalType": "uint256",
          "name": "requisitionId",
          "type": "uint256"
        },
        {
          "internalType": "address",
          "name": "borrower",
          "type": "address"
        }
      ],
      "name": "canPayRequisition",
      "outputs": [
        {
          "internalType": "bool",
          "name": "",
          "type": "bool"
        }
      ],
      "stateMutability": "view",
      "type": "function"
    },
    {
      "inputs": [
        {
          "internalType": "address",
          "name": "_user",
          "type": "address"
        },
        {
          "internalType": "uint256",
          "name": "_amount",
          "type": "uint256"
        }
      ],
      "name": "canUserBorrow",
      "outputs": [
        {
          "internalType": "bool",
          "name": "",
          "type": "bool"
        }
      ],
      "stateMutability": "view",
      "type": "function"
    },
    {
      "inputs": [
        {
          "internalType": "uint256",
          "name": "requisitionId",
          "type": "uint256"
        },
        {
          "internalType": "uint32",
          "name": "coveragePercentage",
          "type": "uint32"
        },
        {
          "internalType": "uint32",
          "name": "memberId",
          "type": "uint32"
        }
      ],
      "name": "coverLoan",
      "outputs": [],
      "stateMutability": "nonpayable",
      "type": "function"
    },
    {
      "inputs": [
        {
          "internalType": "uint256",
          "name": "amount",
          "type": "uint256"
        },
        {
          "internalType": "uint32",
          "name": "minimumCoverage",
          "type": "uint32"
        },
        {
          "internalType": "uint256",
          "name": "durationDays",
          "type": "uint256"
        },
        {
          "internalType": "uint32",
          "name": "parcelscount",
          "type": "uint32"
        },
        {
          "internalType": "uint32",
          "name": "memberId",
          "type": "uint32"
        }
      ],
      "name": "createLoanRequisition",
      "outputs": [
        {
          "internalType": "uint256",
          "name": "",
          "type": "uint256"
        }
      ],
      "stateMutability": "nonpayable",
      "type": "function"
    },
    {
      "inputs": [
        {
          "internalType": "uint256",
          "name": "amount",
          "type": "uint256"
        },
        {
          "internalType": "uint32",
          "name": "memberId",
          "type": "uint32"
        }
      ],
      "name": "donate",
      "outputs": [],
      "stateMutability": "nonpayable",
      "type": "function"
    },
    {
      "inputs": [
        {
          "internalType": "address",
          "name": "borrower",
          "type": "address"
        }
      ],
      "name": "getActiveLoans",
      "outputs": [
        {
          "components": [
            {
              "internalType": "address",
              "name": "walletAddress",
              "type": "address"
            },
            {
              "internalType": "uint256",
              "name": "requisitionId",
              "type": "uint256"
            },
            {
              "internalType": "enum ILoanMachine.ContractStatus",
              "name": "status",
              "type": "uint8"
            },
            {
              "internalType": "uint32",
              "name": "parcelsCount",
              "type": "uint32"
            },
            {
              "internalType": "uint32",
              "name": "parcelsPending",
              "type": "uint32"
            },
            {
              "internalType": "uint256",
              "name": "parcelsValues",
              "type": "uint256"
            },
            {
              "internalType": "uint256[]",
              "name": "paymentDates",
              "type": "uint256[]"
            }
          ],
          "internalType": "struct ILoanMachine.LoanContract[]",
          "name": "activeLoans",
          "type": "tuple[]"
        },
        {
          "internalType": "uint256[]",
          "name": "requisitionIds",
          "type": "uint256[]"
        }
      ],
      "stateMutability": "view",
      "type": "function"
    },
    {
      "inputs": [
        {
          "internalType": "address",
          "name": "user",
          "type": "address"
        }
      ],
      "name": "getAllowance",
      "outputs": [
        {
          "internalType": "uint256",
          "name": "",
          "type": "uint256"
        }
      ],
      "stateMutability": "view",
      "type": "function"
    },
    {
      "inputs": [],
      "name": "getAvailableBalance",
      "outputs": [
        {
          "internalType": "uint256",
          "name": "",
          "type": "uint256"
        }
      ],
      "stateMutability": "view",
      "type": "function"
    },
    {
      "inputs": [],
      "name": "getAvailableBorrowAmount",
      "outputs": [
        {
          "internalType": "uint256",
          "name": "",
          "type": "uint256"
        }
      ],
      "stateMutability": "view",
      "type": "function"
    },
    {
      "inputs": [
        {
          "internalType": "address",
          "name": "borrower",
          "type": "address"
        }
      ],
      "name": "getBorrowerDebtStatus",
      "outputs": [
        {
          "internalType": "enum DebtTracker.DebtStatus",
          "name": "",
          "type": "uint8"
        }
      ],
      "stateMutability": "view",
      "type": "function"
    },
    {
      "inputs": [
        {
          "internalType": "address",
          "name": "borrower",
          "type": "address"
        }
      ],
      "name": "getBorrowerRequisitions",
      "outputs": [
        {
          "internalType": "uint256[]",
          "name": "",
          "type": "uint256[]"
        }
      ],
      "stateMutability": "view",
      "type": "function"
    },
    {
      "inputs": [],
      "name": "getBorrowersWithDebt",
      "outputs": [
        {
          "internalType": "address[]",
          "name": "",
          "type": "address[]"
        }
      ],
      "stateMutability": "view",
      "type": "function"
    },
    {
      "inputs": [],
      "name": "getBorrowersWithoutDebt",
      "outputs": [
        {
          "internalType": "address[]",
          "name": "",
          "type": "address[]"
        }
      ],
      "stateMutability": "view",
      "type": "function"
    },
    {
      "inputs": [
        {
          "internalType": "address",
          "name": "_user",
          "type": "address"
        }
      ],
      "name": "getBorrowing",
      "outputs": [
        {
          "internalType": "uint256",
          "name": "",
          "type": "uint256"
        }
      ],
      "stateMutability": "view",
      "type": "function"
    },
    {
      "inputs": [],
      "name": "getContractBalance",
      "outputs": [
        {
          "internalType": "uint256",
          "name": "",
          "type": "uint256"
        }
      ],
      "stateMutability": "view",
      "type": "function"
    },
    {
      "inputs": [
        {
          "internalType": "uint256",
          "name": "requisitionId",
          "type": "uint256"
        }
      ],
      "name": "getCoveringLenders",
      "outputs": [
        {
          "internalType": "address[]",
          "name": "",
          "type": "address[]"
        }
      ],
      "stateMutability": "view",
      "type": "function"
    },
    {
      "inputs": [
        {
          "internalType": "address",
          "name": "_user",
          "type": "address"
        }
      ],
      "name": "getDonation",
      "outputs": [
        {
          "internalType": "uint256",
          "name": "",
          "type": "uint256"
        }
      ],
      "stateMutability": "view",
      "type": "function"
    },
    {
      "inputs": [
        {
          "internalType": "address",
          "name": "lender",
          "type": "address"
        }
      ],
      "name": "getDonationsInCoverage",
      "outputs": [
        {
          "internalType": "uint256",
          "name": "",
          "type": "uint256"
        }
      ],
      "stateMutability": "view",
      "type": "function"
    },
    {
      "inputs": [
        {
          "internalType": "address",
          "name": "_user",
          "type": "address"
        }
      ],
      "name": "getLastBorrowTime",
      "outputs": [
        {
          "internalType": "uint256",
          "name": "",
          "type": "uint256"
        }
      ],
      "stateMutability": "view",
      "type": "function"
    },
    {
      "inputs": [
        {
          "internalType": "uint256",
          "name": "requisitionId",
          "type": "uint256"
        },
        {
          "internalType": "address",
          "name": "lender",
          "type": "address"
        }
      ],
      "name": "getLenderCoverage",
      "outputs": [
        {
          "internalType": "uint256",
          "name": "",
          "type": "uint256"
        }
      ],
      "stateMutability": "view",
      "type": "function"
    },
    {
      "inputs": [
        {
          "internalType": "uint256",
          "name": "requisitionId",
          "type": "uint256"
        }
      ],
      "name": "getLoanContract",
      "outputs": [
        {
          "components": [
            {
              "internalType": "address",
              "name": "walletAddress",
              "type": "address"
            },
            {
              "internalType": "uint256",
              "name": "requisitionId",
              "type": "uint256"
            },
            {
              "internalType": "enum ILoanMachine.ContractStatus",
              "name": "status",
              "type": "uint8"
            },
            {
              "internalType": "uint32",
              "name": "parcelsCount",
              "type": "uint32"
            },
            {
              "internalType": "uint32",
              "name": "parcelsPending",
              "type": "uint32"
            },
            {
              "internalType": "uint256",
              "name": "parcelsValues",
              "type": "uint256"
            },
            {
              "internalType": "uint256[]",
              "name": "paymentDates",
              "type": "uint256[]"
            }
          ],
          "internalType": "struct ILoanMachine.LoanContract",
          "name": "",
          "type": "tuple"
        }
      ],
      "stateMutability": "view",
      "type": "function"
    },
    {
      "inputs": [
        {
          "internalType": "address",
          "name": "wallet",
          "type": "address"
        }
      ],
      "name": "getMemberId",
      "outputs": [
        {
          "internalType": "uint32",
          "name": "",
          "type": "uint32"
        }
      ],
      "stateMutability": "view",
      "type": "function"
    },
    {
      "inputs": [
        {
          "internalType": "uint256",
          "name": "requisitionId",
          "type": "uint256"
        }
      ],
      "name": "getNextPaymentAmount",
      "outputs": [
        {
          "internalType": "uint256",
          "name": "paymentAmount",
          "type": "uint256"
        },
        {
          "internalType": "bool",
          "name": "canPay",
          "type": "bool"
        }
      ],
      "stateMutability": "view",
      "type": "function"
    },
    {
      "inputs": [
        {
          "internalType": "uint256",
          "name": "requisitionId",
          "type": "uint256"
        }
      ],
      "name": "getPaymentDates",
      "outputs": [
        {
          "internalType": "uint256[]",
          "name": "",
          "type": "uint256[]"
        }
      ],
      "stateMutability": "view",
      "type": "function"
    },
    {
      "inputs": [
        {
          "internalType": "uint256",
          "name": "requisitionId",
          "type": "uint256"
        }
      ],
      "name": "getRepaymentSummary",
      "outputs": [
        {
          "internalType": "uint256",
          "name": "totalRemainingDebt",
          "type": "uint256"
        },
        {
          "internalType": "uint256",
          "name": "nextPaymentAmount",
          "type": "uint256"
        },
        {
          "internalType": "uint256",
          "name": "parcelsRemaining",
          "type": "uint256"
        },
        {
          "internalType": "uint256",
          "name": "totalParcels",
          "type": "uint256"
        },
        {
          "internalType": "bool",
          "name": "isActive",
          "type": "bool"
        }
      ],
      "stateMutability": "view",
      "type": "function"
    },
    {
      "inputs": [
        {
          "internalType": "uint32",
          "name": "memberId",
          "type": "uint32"
        }
      ],
      "name": "getReputation",
      "outputs": [
        {
          "internalType": "int32",
          "name": "",
          "type": "int32"
        }
      ],
      "stateMutability": "view",
      "type": "function"
    },
    {
      "inputs": [
        {
          "internalType": "uint256",
          "name": "requisitionId",
          "type": "uint256"
        }
      ],
      "name": "getRequisitionInfo",
      "outputs": [
        {
          "components": [
            {
              "internalType": "uint256",
              "name": "requisitionId",
              "type": "uint256"
            },
            {
              "internalType": "address",
              "name": "borrower",
              "type": "address"
            },
            {
              "internalType": "uint256",
              "name": "amount",
              "type": "uint256"
            },
            {
              "internalType": "uint32",
              "name": "minimumCoverage",
              "type": "uint32"
            },
            {
              "internalType": "uint32",
              "name": "currentCoverage",
              "type": "uint32"
            },
            {
              "internalType": "enum ILoanMachine.BorrowStatus",
              "name": "status",
              "type": "uint8"
            },
            {
              "internalType": "uint256",
              "name": "durationDays",
              "type": "uint256"
            },
            {
              "internalType": "uint256",
              "name": "creationTime",
              "type": "uint256"
            },
            {
              "internalType": "address[]",
              "name": "coveringLenders",
              "type": "address[]"
            },
            {
              "internalType": "uint32",
              "name": "parcelsCount",
              "type": "uint32"
            }
          ],
          "internalType": "struct ILoanMachine.RequisitionInfo",
          "name": "",
          "type": "tuple"
        }
      ],
      "stateMutability": "view",
      "type": "function"
    },
    {
      "inputs": [],
      "name": "getTotalBorrowed",
      "outputs": [
        {
          "internalType": "uint256",
          "name": "",
          "type": "uint256"
        }
      ],
      "stateMutability": "view",
      "type": "function"
    },
    {
      "inputs": [],
      "name": "getTotalDonations",
      "outputs": [
        {
          "internalType": "uint256",
          "name": "",
          "type": "uint256"
        }
      ],
      "stateMutability": "view",
      "type": "function"
    },
    {
      "inputs": [],
      "name": "getUSDTBalance",
      "outputs": [
        {
          "internalType": "uint256",
          "name": "",
          "type": "uint256"
        }
      ],
      "stateMutability": "view",
      "type": "function"
    },
    {
      "inputs": [
        {
          "internalType": "address",
          "name": "user",
          "type": "address"
        }
      ],
      "name": "getWithdrawableBalance",
      "outputs": [
        {
          "internalType": "uint256",
          "name": "",
          "type": "uint256"
        }
      ],
      "stateMutability": "view",
      "type": "function"
    },
    {
      "inputs": [
        {
          "internalType": "address",
          "name": "borrower",
          "type": "address"
        }
      ],
      "name": "hasActiveDebt",
      "outputs": [
        {
          "internalType": "bool",
          "name": "",
          "type": "bool"
        }
      ],
      "stateMutability": "view",
      "type": "function"
    },
    {
      "inputs": [
        {
          "internalType": "address",
          "name": "borrower",
          "type": "address"
        }
      ],
      "name": "hasOverdueDebt",
      "outputs": [
        {
          "internalType": "bool",
          "name": "",
          "type": "bool"
        }
      ],
      "stateMutability": "view",
      "type": "function"
    },
    {
      "inputs": [
        {
          "internalType": "address",
          "name": "wallet",
          "type": "address"
        }
      ],
      "name": "isWalletVinculated",
      "outputs": [
        {
          "internalType": "bool",
          "name": "",
          "type": "bool"
        }
      ],
      "stateMutability": "view",
      "type": "function"
    },
    {
      "inputs": [
        {
          "internalType": "uint256",
          "name": "",
          "type": "uint256"
        }
      ],
      "name": "loanContracts",
      "outputs": [
        {
          "internalType": "address",
          "name": "walletAddress",
          "type": "address"
        },
        {
          "internalType": "uint256",
          "name": "requisitionId",
          "type": "uint256"
        },
        {
          "internalType": "enum ILoanMachine.ContractStatus",
          "name": "status",
          "type": "uint8"
        },
        {
          "internalType": "uint32",
          "name": "parcelsCount",
          "type": "uint32"
        },
        {
          "internalType": "uint32",
          "name": "parcelsPending",
          "type": "uint32"
        },
        {
          "internalType": "uint256",
          "name": "parcelsValues",
          "type": "uint256"
        }
      ],
      "stateMutability": "view",
      "type": "function"
    },
    {
      "inputs": [],
      "name": "nextMonthlyUpdate",
      "outputs": [
        {
          "internalType": "uint256",
          "name": "",
          "type": "uint256"
        }
      ],
      "stateMutability": "view",
      "type": "function"
    },
    {
      "inputs": [
        {
          "internalType": "uint256",
          "name": "requisitionId",
          "type": "uint256"
        },
        {
          "internalType": "uint256",
          "name": "amount",
          "type": "uint256"
        },
        {
          "internalType": "uint32",
          "name": "memberId",
          "type": "uint32"
        }
      ],
      "name": "repay",
      "outputs": [],
      "stateMutability": "nonpayable",
      "type": "function"
    },
    {
      "inputs": [],
      "name": "reputationSystem",
      "outputs": [
        {
          "internalType": "contract ReputationSystem",
          "name": "",
          "type": "address"
        }
      ],
      "stateMutability": "view",
      "type": "function"
    },
    {
      "inputs": [],
      "name": "requisitionCounter",
      "outputs": [
        {
          "internalType": "uint256",
          "name": "",
          "type": "uint256"
        }
      ],
      "stateMutability": "view",
      "type": "function"
    },
    {
      "inputs": [],
      "name": "shouldTriggerUpdate",
      "outputs": [
        {
          "internalType": "bool",
          "name": "",
          "type": "bool"
        }
      ],
      "stateMutability": "view",
      "type": "function"
    },
    {
      "inputs": [],
      "name": "triggerMonthlyUpdate",
      "outputs": [],
      "stateMutability": "nonpayable",
      "type": "function"
    },
    {
      "inputs": [
        {
          "internalType": "address",
          "name": "borrower",
          "type": "address"
        }
      ],
      "name": "updateBorrowerDebtStatus",
      "outputs": [],
      "stateMutability": "nonpayable",
      "type": "function"
    },
    {
      "inputs": [],
      "name": "usdtToken",
      "outputs": [
        {
          "internalType": "address",
          "name": "",
          "type": "address"
        }
      ],
      "stateMutability": "view",
      "type": "function"
    },
    {
      "inputs": [
        {
          "internalType": "uint32",
          "name": "memberId",
          "type": "uint32"
        },
        {
          "internalType": "address",
          "name": "wallet",
          "type": "address"
        }
      ],
      "name": "vinculationMemberToWallet",
      "outputs": [],
      "stateMutability": "nonpayable",
      "type": "function"
    },
    {
      "inputs": [
        {
          "internalType": "uint256",
          "name": "amount",
          "type": "uint256"
        },
        {
          "internalType": "uint32",
          "name": "memberId",
          "type": "uint32"
        }
      ],
      "name": "withdraw",
      "outputs": [],
      "stateMutability": "nonpayable",
      "type": "function"
    }
  ],
  "bytecode": "0x60a034620000cf57601f6200349238819003918201601f19168301916001600160401b03831184841017620000d4578084926040948552833981010312620000cf576200005a60206200005283620000ea565b9201620000ea565b6001600081905560809290925281546001600160a01b0319166001600160a01b0390911617905562278d0060085542600755604051613392908162000100823960805181818161082801528181610d2101528181610e44015281816112dc015281816116f401528181611f7e0152612de60152f35b600080fd5b634e487b7160e01b600052604160045260246000fd5b51906001600160a01b0382168203620000cf5756fe6080604052600436101561001257600080fd5b60003560e01c8063016c704f14612b305780630307c4a114612b1257806303d1a1a1146128795780630bc2185314612811578063182d94b5146125e75780631b70ba3e1461243f57806321bb31e4146123cd578063232869fa1461234f578063291c31a714611d435780632b31c022146122925780633403c25d1461221d578063383ab2ef146121d4578063410a1d321461219a5780634e51c7df1461214f578063598a562a146120ed5780636145d1b714611e8b5780636509a71014611e5f578063657eb03114611e255780636587eda114611dfc5780636f9fb98a146114c8578063777c658f14611dde5780637910340014611d815780637d52437a14611d48578063809dab6a14611d4357806381db228414611cbd578063827cc0e514611c83578063830efd3b14611bf7578063843592d314611bcc57806384ddf5ea14611bae5780638a914a6314611b6b5780639059f9ca146115305780639730872a146114cd5780639785fac8146114c857806397c33519146113f55780639e9320111461139d578063a7af69471461130b578063a98ad46c146112c6578063adceb10114611244578063b9f0fec4146111b4578063be5eb5801461117a578063c269014b146110db578063ccdce44e1461100c578063e276392414610d88578063eb5a662e14610cda578063ecb18b3414610370578063f0853e1d146102bf5763f947a8a91461022157600080fd5b346102a65760003660031901126102a657604051636ecf807360e11b81526002600482015260208160248173__$8a3883123a2a1b05b37447bdbb3fdcf5d3$__5af480156102b35760009061027c575b602090604051908152f35b506020813d82116102ab575b8161029560209383612ed5565b810103126102a65760209051610271565b600080fd5b3d9150610288565b6040513d6000823e3d90fd5b346102a6576020806003193601126102a6576102d9612c22565b6040516315ffae5b60e21b8152600260048201526001600160a01b039091166024820152818160448173__$8a3883123a2a1b05b37447bdbb3fdcf5d3$__5af49081156102b35760009161033a575b506040519061033681612c4e565b8152f35b90508181813d8311610369575b6103518183612ed5565b810103126102a6575160038110156102a65782610328565b503d610347565b346102a65760603660031901126102a657610389612d62565b63ffffffff610396612d88565b169081158015610c79575b610c675763ffffffff8116158015610c57575b610c4557600963ffffffff82161115610c33576103cf612fa1565b600435600052601160205260406000209160038301805460ff8160401c166006811015610c1d578015159081610c11575b50610bff5761041d60649163ffffffff8087169160201c1661304b565b11610bed5761043663ffffffff841660028601546130b1565b93670de0b6b3a7640000948581029581870414901517156109fa5768056bc75e2d630fffff85018095116109fa5733600052600b60205268056bc75e2d63100000850460406000205410610bdb5733600052600b60205260406000206104a868056bc75e2d6310000087048254612f94565b905533600052601460205260406000206104ce68056bc75e2d631000008704825461304b565b9055815463ffffffff851663ffffffff8260201c160163ffffffff81116109fa5767ffffffff000000009060201b169067ffffffff0000000019161782556007810190336000528160205260406000205415610b99575b5033600052602052604060002061054868056bc75e2d631000008604825461304b565b9055805463ffffffff811663ffffffff8260201c161015600014610b8057506802000000000000000060ff60401b19825416179055806000526015602052604060002063ffffffff19815416905560043560005260166020526040600020601160205261064b604060002060018060a01b036001820154166bffffffffffffffffffffffff60a01b845416178355600435600184015563ffffffff6002808501549260ff19841682870155600881019364ffffffff00855460081b169064ffffffffff19161782870155610640838554168388019068ffffffff000000000082549160281b169068ffffffff00000000001916179055565b0154915416906130c4565b6003820155600435600052601160205263ffffffff6008604060002001541660005b8163ffffffff821610610b3157505060018060a01b038154167f5215406e88f26eed4728b9cdfc5d85cea75799101cb9387b528451e6e0878dec600283015460ff81169063ffffffff600386015491604051936106c981612c4e565b845260281c166020830152604082015260806060820152806106f56004359560046080840191016130e4565b0390a36004356000526011602052604060002060018060a01b036001820154169081600052600a60205260ff6040600020541615610a97575b600360028201918254600c60205261074c604060002091825461304b565b905561075b8354600f5461304b565b600f5561076b8354601054612f94565b60105583600052600d60205242604060002055016803000000000000000060ff60401b1982541617905573__$8a3883123a2a1b05b37447bdbb3fdcf5d3$__803b156102a65760006064916040519283809263e63dd53160e01b8252600260048301528760248301526303d1a1a13060201b1760401b60448301525af480156102b357610a88575b50805460405163a9059cbb60e01b81526001600160a01b038416600482015260248101919091526020818060448101038160007f00000000000000000000000000000000000000000000000000000000000000006001600160a01b03165af19081156102b357600091610a59575b5015610a475760407feae9cfbc77fdd40ca899f36b608256063b2bc9d8178b0220f7ad513e178d6730915483600052600c602052816000205482519182526020820152a27f17f13fd3f7c4712af33f1770ebcb822dd20a2dbc00850eab48d786623d97b9596020600f54604051908152a160008051602061333d8339815191526020601054604051908152a16004357f9e71d2fb732e68272b7e74ecfd14638673c1d77e19a5d390a3ffff054d57c44b600080a25b600154604051636adf462560e11b81526001600160a01b0390911692602082600481875afa9182156102b357600092610a10575b5063ffffffff1660030b9060030b028060030b9081036109fa57823b156102a657606460009283600a95604051968795869463533dfa3560e01b865260048601520560030b6024840152600160448401525af180156102b3576109eb575b5068056bc75e2d631000006040519104815233907f86b47e6e6c03d769c0bc5ffd06c682ea7d07089576d59230ec18ff64e71bffe7602060043592a36001600055005b6109f490612e88565b816109a8565b634e487b7160e01b600052601160045260246000fd5b63ffffffff919250610a399060203d602011610a40575b610a318183612ed5565b810190613032565b919061094a565b503d610a27565b60405163022e258160e11b8152600490fd5b610a7b915060203d602011610a81575b610a738183612ed5565b810190612ef7565b86610861565b503d610a69565b610a9190612e88565b856107f3565b600954600160401b811015610b1b576001810180600955811015610b05577f6e1540171b6c0c960b71a7020d9f60077f6af931a8bbf590da0223dacf75c7af0180546001600160a01b031916831790556000828152600a60205260409020805460ff1916600117905561072e565b634e487b7160e01b600052603260045260246000fd5b634e487b7160e01b600052604160045260246000fd5b63ffffffff610b3f8261309c565b169062278d0091808302928304036109fa57610b6c610b6363ffffffff934261304b565b60048601613067565b1663ffffffff81146109fa5760010161066d565b68ff00000000000000001916600160401b179055610916565b6006018054600160401b811015610b1b57610bb991600182018155612e70565b81546001600160a01b0360039290921b91821b19163390911b17905585610525565b604051630391acf160e61b8152600490fd5b60405163955f95ad60e01b8152600490fd5b6040516380b9cb0960e01b8152600490fd5b60019150141586610400565b634e487b7160e01b600052602160045260246000fd5b60405163f556155f60e01b8152600490fd5b60405163d1e95ed560e01b8152600490fd5b50606463ffffffff8216116103b4565b604051630cff23e760e01b8152600490fd5b50600154604051632cc52b1560e11b815233600482015290602090829060249082906001600160a01b03165afa9081156102b357600091610cbc575b50156103a1565b610cd4915060203d8111610a8157610a738183612ed5565b83610cb5565b346102a6576020806003193601126102a657604481610cf7612c22565b604051636eb1769f60e11b81526001600160a01b03918216600482015230602482015292839182907f0000000000000000000000000000000000000000000000000000000000000000165afa9081156102b357600091610d5b575b50604051908152f35b90508181813d8311610d81575b610d728183612ed5565b810103126102a6575182610d52565b503d610d68565b346102a65760403660031901126102a65760043563ffffffff610da9612d62565b16158015610fab575b610c67578015610f9957610dc4612fa1565b604051630c47ab3d60e21b8152602090818180610de43060048301612f0f565b038173__$8a3883123a2a1b05b37447bdbb3fdcf5d3$__5af480156102b357610f7c575b50624c4b408211610f6a576040516323b872dd60e01b815233600482015230602482015260448101839052818160648160006001600160a01b037f0000000000000000000000000000000000000000000000000000000000000000165af19081156102b357600091610f4d575b5015610a475760008051602061333d8339815191529033600052600b815260406000207fdc6e73d4b36e22ab95945bd8833a5af96c950eb29d8d75c4aecffc987637aaab82825495808701845580600e54019081600e558060105401948560105554604051918252838201527f4928895ba6723e8e27b15f32e4c3054a1b6c7f8c03f133558d6fa42b3928d14c60403392a2604051908152a1604051908152a115610f22575b6001600055005b337f072dafb6aabe3f02118bc607efbeaaa104d6b2009720c7b130f24ba418689c4b600080a2610f1b565b610f649150823d8411610a8157610a738183612ed5565b83610e75565b6040516330fdf8db60e11b8152600490fd5b610f9290823d8411610a8157610a738183612ed5565b5082610e08565b60405163162908e360e11b8152600490fd5b50600154604051632cc52b1560e11b815233600482015290602090829060249082906001600160a01b03165afa9081156102b357600091610fee575b5015610db2565b611006915060203d8111610a8157610a738183612ed5565b82610fe7565b346102a65760003660031901126102a657611025612fa1565b604051630c47ab3d60e21b8152602081806110433060048301612f0f565b038173__$8a3883123a2a1b05b37447bdbb3fdcf5d3$__5af49081156102b3576000916110bd575b5015611078576001600055005b60405162461bcd60e51b815260206004820152601a60248201527f4d6f6e74686c7920757064617465206e6f7420647565207965740000000000006044820152606490fd5b6110d5915060203d8111610a8157610a738183612ed5565b8161106b565b346102a6576020806003193601126102a6576110f5612c22565b60015460405163c269014b60e01b81526001600160a01b03928316600482015291839183916024918391165afa9081156102b357600091611140575b5063ffffffff60405191168152f35b90508181813d8311611173575b6111578183612ed5565b810103126102a6575163ffffffff811681036102a65782611131565b503d61114d565b346102a65760203660031901126102a6576001600160a01b0361119b612c22565b16600052600c6020526020604060002054604051908152f35b346102a65760203660031901126102a6576111cd612c22565b73__$8a3883123a2a1b05b37447bdbb3fdcf5d3$__90813b156102a6576040805163e63dd53160e01b8152600260048201526001600160a01b0390921660248301523060201b6303d1a1a117901b604482015290600090829060649082905af480156102b35761123957005b61124290612e88565b005b346102a65760403660031901126102a657602061125f612c38565b6004356000526016825260406000209060018060a01b038083541691161490816112ac575b81611295575b506040519015158152f35b63ffffffff91506002015460281c1615158261128a565b905060ff6002820154166112bf81612c4e565b1590611284565b346102a65760003660031901126102a6576040517f00000000000000000000000000000000000000000000000000000000000000006001600160a01b03168152602090f35b346102a65760203660031901126102a657611324612c22565b604051632de5e9bf60e01b8152600260048201526001600160a01b03909116602482015260208160448173__$8a3883123a2a1b05b37447bdbb3fdcf5d3$__5af480156102b35760209160009161138057506040519015158152f35b6113979150823d8111610a8157610a738183612ed5565b8261128a565b346102a65760403660031901126102a6576113b6612c22565b6001600160a01b03166000908152601360205260409020805460243591908210156102a6576020916113e791612e70565b90546040519160031b1c8152f35b346102a65760403660031901126102a65761140e612c22565b60243580151590816114bb575b5080611484575b80611435575b6020906040519015158152f35b506001600160a01b03166000818152600d602052604090205462093a8081019081106109fa574211801561146d575b60209150611428565b50600052600c602052602060406000205415611464565b506001600160a01b0381166000908152600b6020526040902054620f42401115806114225750600c60205260406000205415611422565b905060105410158261141b565b612db9565b346102a65760203660031901126102a6576001600160a01b036114ee612c22565b16600052601360205261152c6115116115186040600020604051928380926130e4565b0382612ed5565b604051918291602083526020830190612cf1565b0390f35b346102a65760603660031901126102a657602480359063ffffffff60043581611557612d88565b169283158015611b0b575b610c6757816000526020906016825260406000209533600052600c835260406000205415611af95786546001600160a01b0397903390891603611af9576002015460ff81166115b081612c4e565b611af95760281c851615611af9576115c6612fa1565b604051630c47ab3d60e21b815273__$8a3883123a2a1b05b37447bdbb3fdcf5d3$__908481806115f93060048301612f0f565b0381855af480156102b357611adc575b508115610f995784600052601684526040600020906002820197885488808260281c169160081c16038881116119e0576116469060048501612e70565b905460039491851b1c421115611a3e578a600154169160405163a5118bf160e01b81528881600481875afa9081156102b357600091611a21575b50833b156102a657606460009283604051968794859363533dfa3560e01b855260048501528a0b8c8401528160448401525af19182156102b3578492611a12575b505b01548303610f99576040516323b872dd60e01b815233600482015230602482015260448101849052858160648160007f00000000000000000000000000000000000000000000000000000000000000008f165af19081156102b3576000916119f5575b5015610a475796959633600052600c85526040600020611747848254612f94565b905561175583600f54612f94565b600f556117648360105461304b565b60105585600052601185526040600020906002820154946000986007600685019401995b845481101561185357808d6117a06117d79388612e70565b905490891b1c16806000528c8b528b6117c78b6117c26040600020548d6130b1565b6130c4565b8c816117dc575b50505050613058565b611788565b7fe3e6ae1e05f069d410556743894aacbb190c1431962422ebe8fcc642a467dd169184600052601482526040600020805480831161184b575b8261181f91612f94565b905584600052600b8252604060002061183982825461304b565b9055604051908152a38e8b818c6117ce565b915081611815565b508888918c8833600052600c8552604060002054604051918252858201527f1b8cd61ed43bec7c6bdad3a18ffee613f99c853d16c50678d248d879e1b4343860403392a280825460281c16837f406356ef25520b09e2ef87c5225167b4161ea4ab691e9434d6ee29eafcc83fc286604051848152a27f17f13fd3f7c4712af33f1770ebcb822dd20a2dbc00850eab48d786623d97b95985600f54604051908152a160008051602061333d83398151915285601054604051908152a1600019018181116119e057825468ffffffff0000000000191660289190911b68ffffffff0000000000161782558154908160281c16156119aa575b505050823b156102a65760646000926303d1a1a194604051958694859363e63dd53160e01b855260026004860152339085015230901b1760401b60448301525af480156102b35761199b576001600055005b6119a490612e88565b80610f1b565b60ff191660021790557f02ca5489b37dd363d1302bac719e8ee40e540ffbe8c12253570fea63e11cad71600080a2838080611949565b85634e487b7160e01b60005260116004526000fd5b611a0c9150863d8811610a8157610a738183612ed5565b8a611726565b611a1b90612e88565b8b6116c1565b611a389150893d8b11610a4057610a318183612ed5565b8d611680565b8a6001541691604051634e5ecf1360e01b81528881600481875afa9081156102b357600091611abf575b50833b156102a657606460009283604051968794859363533dfa3560e01b855260048501528a0b8c840152600160448401525af19182156102b3578492611ab0575b506116c3565b611ab990612e88565b8b611aaa565b611ad69150893d8b11610a4057610a318183612ed5565b8d611a68565b611af290853d8711610a8157610a738183612ed5565b5088611609565b604051630b5ab5bf60e41b8152600490fd5b50600154604051632cc52b1560e11b8152336004820152906020908290849082906001600160a01b03165afa9081156102b357600091611b4d575b5015611562565b611b65915060203d8111610a8157610a738183612ed5565b86611b46565b346102a65760203660031901126102a657600435600052601160205261152c611b9a60066040600020016132e2565b604051918291602083526020830190612d25565b346102a65760003660031901126102a6576020601254604051908152f35b346102a65760203660031901126102a6576020611bef611bea612c22565b612ff7565b604051908152f35b346102a65760003660031901126102a65760405163404b48bf60e01b81526002600482015260008160248173__$8a3883123a2a1b05b37447bdbb3fdcf5d3$__5af480156102b35761152c91600091611c60575b50604051918291602083526020830190612d25565b611c7d91503d806000833e611c758183612ed5565b810190613139565b82611c4b565b346102a65760203660031901126102a6576001600160a01b03611ca4612c22565b1660005260146020526020604060002054604051908152f35b346102a65760203660031901126102a657611cd6612d75565b600154604051632076c8a160e21b815263ffffffff929092166004830152602090829060249082906001600160a01b03165afa80156102b357602091600091611d26575b506040519060030b8152f35b611d3d9150823d8111610a4057610a318183612ed5565b82611d1a565b612d9b565b346102a65760203660031901126102a657600435600052601660205261152c6115116115186004604060002001604051928380926130e4565b346102a65760003660031901126102a65760405163f28e2c2f60e01b81526002600482015260208160248173__$8a3883123a2a1b05b37447bdbb3fdcf5d3$__5af480156102b35760209160009161138057506040519015158152f35b346102a65760003660031901126102a6576020600e54604051908152f35b346102a65760003660031901126102a6576001546040516001600160a01b039091168152602090f35b346102a65760203660031901126102a6576001600160a01b03611e46612c22565b16600052600d6020526020604060002054604051908152f35b346102a65760203660031901126102a6576040611e7d600435613290565b825191825215156020820152f35b346102a65760403660031901126102a65760043563ffffffff611eac612d62565b1615801561208c575b610c67578015610f9957611ec7612fa1565b604051630c47ab3d60e21b8152602090818180611ee73060048301612f0f565b038173__$8a3883123a2a1b05b37447bdbb3fdcf5d3$__5af480156102b35761206f575b50611f1533612ff7565b821161205d5733600052600b81526040600020611f33838254612f94565b9055611f4182600e54612f94565b600e55611f5082601054612f94565b60105560405163a9059cbb60e01b815233600482015260248101839052818160448160006001600160a01b037f0000000000000000000000000000000000000000000000000000000000000000165af19081156102b357600091612040575b5015610a475760008051602061333d8339815191529133600052600b8252604060002054604051918252828201527f92ccf450a286a957af52509bc1c9939d1a6a481783e142e41e2499f0bb66ebc660403392a27fdc6e73d4b36e22ab95945bd8833a5af96c950eb29d8d75c4aecffc987637aaab81600e54604051908152a1601054604051908152a16001600055005b6120579150823d8411610a8157610a738183612ed5565b83611faf565b6040516302c6f54760e21b8152600490fd5b61208590823d8411610a8157610a738183612ed5565b5082611f0b565b50600154604051632cc52b1560e11b815233600482015290602090829060249082906001600160a01b03165afa9081156102b3576000916120cf575b5015611eb5565b6120e7915060203d8111610a8157610a738183612ed5565b826120c8565b346102a65760203660031901126102a657612106612c22565b600154604051632cc52b1560e11b81526001600160a01b0392831660048201529160209183916024918391165afa80156102b35760209160009161138057506040519015158152f35b346102a65760403660031901126102a657612168612c38565b600435600052601160205260076040600020019060018060a01b03166000526020526020604060002054604051908152f35b346102a65760203660031901126102a6576001600160a01b036121bb612c22565b16600052600b6020526020604060002054604051908152f35b346102a65760203660031901126102a6576121ed6131c3565b50600435600052601660205261152c612209604060002061320e565b604051918291602083526020830190612c58565b346102a65760203660031901126102a657612236612c22565b604051630b79b0a160e21b8152600260048201526001600160a01b03909116602482015260208160448173__$8a3883123a2a1b05b37447bdbb3fdcf5d3$__5af480156102b35760209160009161138057506040519015158152f35b346102a65760203660031901126102a657600435600052601660205260a06040600020601160205260406000209060028101549160ff83166122d381612c4e565b158061233d575b1561232557600363ffffffff809460281c169201549260086122fc85856130b1565b949392015416906001925b60405194855260208501526040840152606083015215156080820152f35b600801546000925082915063ffffffff168180612307565b5063ffffffff8360281c1615156122da565b346102a65760203660031901126102a657600435600052601660205260c0604060002060018060a01b0381541690600181015490600281015490600360ff83169101549260405194855260208501526123a781612c4e565b604084015263ffffffff90818160081c16606085015260281c16608083015260a0820152f35b346102a65760403660031901126102a6576123e6612d75565b6123ee612c38565b6001549091906001600160a01b03908116803b156102a6576000928360449263ffffffff94604051978896879563086ecc7960e21b87521660048601521660248401525af180156102b35761123957005b346102a65760203660031901126102a657600061012060405161246181612e9c565b8281528260208201528260408201528260608201528260808201528260a08201528260c08201528260e0820152606061010082015201526004356000526011602052604060002080549060018060a01b0360018201541690600281015460038201549160ff8360401c169163ffffffff6004830154946005840154928260088601541697604051996124f28b612e9c565b8a5260208a01526040890152818116606089015260201c1660808701526006831015610c1d576125349360069360a088015260c087015260e0860152016132e2565b61010083015261012082015260405190602082528051602083015260018060a01b0360208201511660408301526040810151606083015263ffffffff606082015116608083015263ffffffff60808201511660a083015260a0810151906006821015610c1d57829160c083015260c081015160e083015260e081015161010083015261010081015163ffffffff6101206125db610140938483880152610160870190612d25565b93015116908301520390f35b346102a65760a03660031901126102a657600435612603612d62565b906064359063ffffffff918281168091036102a657608435928084168094036102a65783600052602094601586526003826040600020541610156127ff57841580156127a0575b610c67578315610f995781169060468211801590612796575b610c455760018310801561278c575b61277a576010548411612768576012549461268c86613058565b601255856000526011875260406000209260018401336bffffffffffffffffffffffff60a01b825416179055856002850155600384019068ffffffffffffffffff19825416179055604435600484015542600584015585600884019363ffffffff1994868682541617905555336000526013875261270e866040600020613067565b6000526015865260406000209182549161272981841661309c565b16911617905560405191825283820152817fde3b47cf7da95a3cc41b86cf8717ead8d56a76ee1590481c5c4dc4d8804c40c460403393a3604051908152f35b60405163356680b760e01b8152600490fd5b60405163524eff2760e01b8152600490fd5b50600c8311612672565b5060648211612663565b50600154604051632cc52b1560e11b8152336004820152908790829060249082906001600160a01b03165afa9081156102b3576000916127e2575b501561264a565b6127f99150873d8911610a8157610a738183612ed5565b876127db565b604051635aad290f60e01b8152600490fd5b346102a65760003660031901126102a657604051637fd5e70b60e01b81526002600482015260008160248173__$8a3883123a2a1b05b37447bdbb3fdcf5d3$__5af480156102b35761152c91600091611c605750604051918291602083526020830190612d25565b346102a6576020806003193601126102a6576001600160a01b03908161289d612c22565b16806000526013825260406000206000916000918054925b838110612a8257506128c684613121565b956128d46040519788612ed5565b848752601f19806128e487613121565b0160005b818110612a675750506129136128fd87613121565b9661290b6040519889612ed5565b808852613121565b01368787013760009260005b85811061299f57888888604051928391604083019360408452825180955260608401948160608260051b8701019401956000905b82821061296f575050508361152c949550830390850152612cf1565b919395509193848061298d600193605f198c82030186528a51612c58565b98019201920187959391969492612953565b6129ac81859a999a612e70565b9054600391821b1c60005260168a52604060002083858254161480612a4f575b80612a39575b6129ea575b50506129e290613058565b97969761291f565b95612a31916129fc6129e2949861320e565b612a06838d6131fa565b52612a11828c6131fa565b50612a1c8888612e70565b9054911b1c612a2b828b6131fa565b52613058565b94908a6129d7565b5063ffffffff600282015460281c1615156129d2565b5060ff600282015416612a6181612c4e565b156129cc565b97809998612a736131c3565b82828c010152019897986128e8565b612a8f8183989798612e70565b90549060031b1c6000526016875260406000208387825416149081612af8575b81612ae1575b50612acc575b612ac490613058565b9594956128b5565b93612ad9612ac491613058565b949050612abb565b63ffffffff91506002015460281c16151588612ab5565b905060ff600282015416612b0b81612c4e565b1590612aaf565b346102a65760003660031901126102a6576020600f54604051908152f35b346102a65760203660031901126102a65767ffffffffffffffff6004358181116102a657366023820112156102a65780600401359182116102a6576024600591368285851b830101116102a6573060201b6303d1a1a11760401b939273__$8a3883123a2a1b05b37447bdbb3fdcf5d3$__9160005b858110612bae57005b80831b82018501356001600160a01b03811691908290036102a657843b156102a6576040519163e63dd53160e01b83526002600484015286830152876044830152600082606481885af49182156102b357612c0e92612c13575b50613058565b612ba5565b612c1c90612e88565b88612c08565b600435906001600160a01b03821682036102a657565b602435906001600160a01b03821682036102a657565b60031115610c1d57565b80516001600160a01b03168252602080820151818401526040820151909160e084019183916101009160c09190612c8e81612c4e565b604088015263ffffffff806060830151166060890152608082015116608088015260a081015160a088015201519460e060c082015285518094520193019160005b828110612cdd575050505090565b835185529381019392810192600101612ccf565b90815180825260208080930193019160005b828110612d11575050505090565b835185529381019392810192600101612d03565b90815180825260208080930193019160005b828110612d45575050505090565b83516001600160a01b031685529381019392810192600101612d37565b6024359063ffffffff821682036102a657565b6004359063ffffffff821682036102a657565b6044359063ffffffff821682036102a657565b346102a65760003660031901126102a6576020601054604051908152f35b346102a657600080600319360112612e6d576040516370a0823160e01b81523060048201526020816024817f00000000000000000000000000000000000000000000000000000000000000006001600160a01b03165afa908115612e62578291612e29575b602082604051908152f35b90506020813d8211612e5a575b81612e4360209383612ed5565b81010312612e5657602091505138612e1e565b5080fd5b3d9150612e36565b6040513d84823e3d90fd5b80fd5b8054821015610b055760005260206000200190600090565b67ffffffffffffffff8111610b1b57604052565b610140810190811067ffffffffffffffff821117610b1b57604052565b60e0810190811067ffffffffffffffff821117610b1b57604052565b90601f8019910116810190811067ffffffffffffffff821117610b1b57604052565b908160209103126102a6575180151581036102a65790565b919091606081019260028252602093606085840152600954809152608083019060096000527f6e1540171b6c0c960b71a7020d9f60077f6af931a8bbf590da0223dacf75c7af9060005b87828210612f775750505050931b6303d1a1a117604090811b910152565b83546001600160a01b031685529093019260019283019201612f59565b919082039182116109fa57565b600260005414612fb2576002600055565b60405162461bcd60e51b815260206004820152601f60248201527f5265656e7472616e637947756172643a207265656e7472616e742063616c6c006044820152606490fd5b60018060a01b0316600052600b6020526040600020546014602052604060002054808211613026575050600090565b61302f91612f94565b90565b908160209103126102a657518060030b81036102a65790565b919082018092116109fa57565b60001981146109fa5760010190565b8054600160401b811015610b1b5761308491600182018155612e70565b819291549060031b91821b91600019901b1916179055565b90600163ffffffff809316019182116109fa57565b818102929181159184041417156109fa57565b81156130ce570490565b634e487b7160e01b600052601260045260246000fd5b90815480825260208092019260005281600020916000905b82821061310a575050505090565b8354855293840193600193840193909101906130fc565b67ffffffffffffffff8111610b1b5760051b60200190565b60209081818403126102a65780519067ffffffffffffffff82116102a657019180601f840112156102a657825161316f81613121565b9361317d6040519586612ed5565b818552838086019260051b8201019283116102a6578301905b8282106131a4575050505090565b81516001600160a01b03811681036102a6578152908301908301613196565b604051906131d082612eb9565b606060c0836000808252806020830152806040830152808483015280608083015260a08201520152565b8051821015610b055760209160051b010190565b90600460c060405161321f81612eb9565b61328c819560018060a01b03815416835260018101546020840152600281015460ff811661324c81612c4e565b604085015263ffffffff90818160081c16606086015260281c166080840152600381015460a084015261328560405180968193016130e4565b0384612ed5565b0152565b60005260166020526040600020600281015460ff81166132af81612c4e565b1590816132cf575b506132c55750600090600090565b6003015490600190565b63ffffffff915060281c161515386132b7565b9060405191828154918282526020928383019160005283600020936000905b8282106133195750505061331792500383612ed5565b565b85546001600160a01b03168452600195860195889550938101939091019061330156fe8b094cca6f83d49402ce208cc0c224b76625ffc58636df56ae28024e704c5868a2646970667358221220e877051e1e918a285c13bc4922c5fa585203c611623b2e1a1d3144e5b125a93a64736f6c63430008130033",
  "linkReferences": {
    "contracts/libraries/DebtTracker.sol": {
      "DebtTracker": [
        {
          "length": 20,
          "start": 846
        },
        {
          "length": 20,
          "start": 1028
        },
        {
          "length": 20,
          "start": 2199
        },
        {
          "length": 20,
          "start": 3816
        },
        {
          "length": 20,
          "start": 4423
        },
        {
          "length": 20,
          "start": 4815
        },
        {
          "length": 20,
          "start": 5200
        },
        {
          "length": 20,
          "start": 5845
        },
        {
          "length": 20,
          "start": 7460
        },
        {
          "length": 20,
          "start": 7854
        },
        {
          "length": 20,
          "start": 8171
        },
        {
          "length": 20,
          "start": 9058
        },
        {
          "length": 20,
          "start": 10558
        },
        {
          "length": 20,
          "start": 11406
        }
      ]
    }
  },
  "deployedLinkReferences": {
    "contracts/libraries/DebtTracker.sol": {
      "DebtTracker": [
        {
          "length": 20,
          "start": 590
        },
        {
          "length": 20,
          "start": 772
        },
        {
          "length": 20,
          "start": 1943
        },
        {
          "length": 20,
          "start": 3560
        },
        {
          "length": 20,
          "start": 4167
        },
        {
          "length": 20,
          "start": 4559
        },
        {
          "length": 20,
          "start": 4944
        },
        {
          "length": 20,
          "start": 5589
        },
        {
          "length": 20,
          "start": 7204
        },
        {
          "length": 20,
          "start": 7598
        },
        {
          "length": 20,
          "start": 7915
        },
        {
          "length": 20,
          "start": 8802
        },
        {
          "length": 20,
          "start": 10302
        },
        {
          "length": 20,
          "start": 11150
        }
      ]
    }
  }
}