{
  "_format": "hh-sol-artifact-1",
  "contractName": "LoanMachine",
  "sourceName": "contracts/LoanMachine.sol",
  "abi": [
    {
      "inputs": [],
      "name": "BorrowNotExpired",
      "type": "error"
    },
    {
      "inputs": [],
      "name": "InsufficientDonationBalance",
      "type": "error"
    },
    {
      "inputs": [],
      "name": "InsufficientFunds",
      "type": "error"
    },
    {
      "inputs": [],
      "name": "InvalidAmount",
      "type": "error"
    },
    {
      "inputs": [],
      "name": "InvalidCoveragePercentage",
      "type": "error"
    },
    {
      "inputs": [],
      "name": "InvalidParcelsCount",
      "type": "error"
    },
    {
      "inputs": [],
      "name": "LoanNotAvailable",
      "type": "error"
    },
    {
      "inputs": [],
      "name": "MinimumDonationRequired",
      "type": "error"
    },
    {
      "inputs": [],
      "name": "NoActiveBorrowing",
      "type": "error"
    },
    {
      "inputs": [],
      "name": "OverCoverage",
      "type": "error"
    },
    {
      "inputs": [],
      "name": "RepaymentExceedsBorrowed",
      "type": "error"
    },
    {
      "anonymous": false,
      "inputs": [
        {
          "indexed": false,
          "internalType": "uint256",
          "name": "total",
          "type": "uint256"
        }
      ],
      "name": "AvailableBalanceUpdated",
      "type": "event"
    },
    {
      "anonymous": false,
      "inputs": [
        {
          "indexed": true,
          "internalType": "address",
          "name": "borrower",
          "type": "address"
        }
      ],
      "name": "BorrowLimitReached",
      "type": "event"
    },
    {
      "anonymous": false,
      "inputs": [
        {
          "indexed": true,
          "internalType": "address",
          "name": "borrower",
          "type": "address"
        },
        {
          "indexed": false,
          "internalType": "uint256",
          "name": "amount",
          "type": "uint256"
        },
        {
          "indexed": false,
          "internalType": "uint256",
          "name": "totalBorrowing",
          "type": "uint256"
        }
      ],
      "name": "Borrowed",
      "type": "event"
    },
    {
      "anonymous": false,
      "inputs": [
        {
          "indexed": true,
          "internalType": "address",
          "name": "donor",
          "type": "address"
        },
        {
          "indexed": false,
          "internalType": "uint256",
          "name": "amount",
          "type": "uint256"
        },
        {
          "indexed": false,
          "internalType": "uint256",
          "name": "totalDonation",
          "type": "uint256"
        }
      ],
      "name": "Donated",
      "type": "event"
    },
    {
      "anonymous": false,
      "inputs": [
        {
          "indexed": true,
          "internalType": "address",
          "name": "walletAddress",
          "type": "address"
        },
        {
          "indexed": true,
          "internalType": "uint256",
          "name": "requisitionId",
          "type": "uint256"
        },
        {
          "indexed": false,
          "internalType": "enum ILoanMachine.ContractStatus",
          "name": "status",
          "type": "uint8"
        },
        {
          "indexed": false,
          "internalType": "uint32",
          "name": "parcelsPending",
          "type": "uint32"
        }
      ],
      "name": "LoanContractGenerated",
      "type": "event"
    },
    {
      "anonymous": false,
      "inputs": [
        {
          "indexed": true,
          "internalType": "uint256",
          "name": "requisitionId",
          "type": "uint256"
        },
        {
          "indexed": true,
          "internalType": "address",
          "name": "lender",
          "type": "address"
        },
        {
          "indexed": false,
          "internalType": "uint256",
          "name": "coverageAmount",
          "type": "uint256"
        }
      ],
      "name": "LoanCovered",
      "type": "event"
    },
    {
      "anonymous": false,
      "inputs": [
        {
          "indexed": true,
          "internalType": "uint256",
          "name": "requisitionId",
          "type": "uint256"
        }
      ],
      "name": "LoanFunded",
      "type": "event"
    },
    {
      "anonymous": false,
      "inputs": [
        {
          "indexed": true,
          "internalType": "uint256",
          "name": "requisitionId",
          "type": "uint256"
        },
        {
          "indexed": true,
          "internalType": "address",
          "name": "borrower",
          "type": "address"
        },
        {
          "indexed": false,
          "internalType": "uint256",
          "name": "amount",
          "type": "uint256"
        },
        {
          "indexed": false,
          "internalType": "uint32",
          "name": "parcelsCount",
          "type": "uint32"
        }
      ],
      "name": "LoanRequisitionCreated",
      "type": "event"
    },
    {
      "anonymous": false,
      "inputs": [
        {
          "indexed": true,
          "internalType": "address",
          "name": "borrower",
          "type": "address"
        }
      ],
      "name": "NewBorrower",
      "type": "event"
    },
    {
      "anonymous": false,
      "inputs": [
        {
          "indexed": true,
          "internalType": "address",
          "name": "donor",
          "type": "address"
        }
      ],
      "name": "NewDonor",
      "type": "event"
    },
    {
      "anonymous": false,
      "inputs": [
        {
          "indexed": true,
          "internalType": "address",
          "name": "borrower",
          "type": "address"
        },
        {
          "indexed": false,
          "internalType": "uint256",
          "name": "amount",
          "type": "uint256"
        },
        {
          "indexed": false,
          "internalType": "uint256",
          "name": "remainingDebt",
          "type": "uint256"
        }
      ],
      "name": "Repaid",
      "type": "event"
    },
    {
      "anonymous": false,
      "inputs": [
        {
          "indexed": false,
          "internalType": "uint256",
          "name": "total",
          "type": "uint256"
        }
      ],
      "name": "TotalBorrowedUpdated",
      "type": "event"
    },
    {
      "anonymous": false,
      "inputs": [
        {
          "indexed": false,
          "internalType": "uint256",
          "name": "total",
          "type": "uint256"
        }
      ],
      "name": "TotalDonationsUpdated",
      "type": "event"
    },
    {
      "inputs": [
        {
          "internalType": "uint256",
          "name": "_amount",
          "type": "uint256"
        }
      ],
      "name": "borrow",
      "outputs": [],
      "stateMutability": "nonpayable",
      "type": "function"
    },
    {
      "inputs": [
        {
          "internalType": "address",
          "name": "",
          "type": "address"
        },
        {
          "internalType": "uint256",
          "name": "",
          "type": "uint256"
        }
      ],
      "name": "borrowerRequisitions",
      "outputs": [
        {
          "internalType": "uint256",
          "name": "",
          "type": "uint256"
        }
      ],
      "stateMutability": "view",
      "type": "function"
    },
    {
      "inputs": [
        {
          "internalType": "address",
          "name": "_user",
          "type": "address"
        },
        {
          "internalType": "uint256",
          "name": "_amount",
          "type": "uint256"
        }
      ],
      "name": "canUserBorrow",
      "outputs": [
        {
          "internalType": "bool",
          "name": "",
          "type": "bool"
        }
      ],
      "stateMutability": "view",
      "type": "function"
    },
    {
      "inputs": [
        {
          "internalType": "uint256",
          "name": "requisitionId",
          "type": "uint256"
        },
        {
          "internalType": "uint32",
          "name": "coveragePercentage",
          "type": "uint32"
        }
      ],
      "name": "coverLoan",
      "outputs": [],
      "stateMutability": "nonpayable",
      "type": "function"
    },
    {
      "inputs": [
        {
          "internalType": "uint256",
          "name": "_amount",
          "type": "uint256"
        },
        {
          "internalType": "uint32",
          "name": "_minimumCoverage",
          "type": "uint32"
        },
        {
          "internalType": "uint256",
          "name": "_durationDays",
          "type": "uint256"
        },
        {
          "internalType": "uint32",
          "name": "parcelscount",
          "type": "uint32"
        }
      ],
      "name": "createLoanRequisition",
      "outputs": [
        {
          "internalType": "uint256",
          "name": "",
          "type": "uint256"
        }
      ],
      "stateMutability": "nonpayable",
      "type": "function"
    },
    {
      "inputs": [],
      "name": "donate",
      "outputs": [],
      "stateMutability": "payable",
      "type": "function"
    },
    {
      "inputs": [],
      "name": "getAvailableBalance",
      "outputs": [
        {
          "internalType": "uint256",
          "name": "",
          "type": "uint256"
        }
      ],
      "stateMutability": "view",
      "type": "function"
    },
    {
      "inputs": [],
      "name": "getAvailableBorrowAmount",
      "outputs": [
        {
          "internalType": "uint256",
          "name": "",
          "type": "uint256"
        }
      ],
      "stateMutability": "view",
      "type": "function"
    },
    {
      "inputs": [
        {
          "internalType": "address",
          "name": "borrower",
          "type": "address"
        }
      ],
      "name": "getBorrowerRequisitions",
      "outputs": [
        {
          "internalType": "uint256[]",
          "name": "",
          "type": "uint256[]"
        }
      ],
      "stateMutability": "view",
      "type": "function"
    },
    {
      "inputs": [
        {
          "internalType": "address",
          "name": "_user",
          "type": "address"
        }
      ],
      "name": "getBorrowing",
      "outputs": [
        {
          "internalType": "uint256",
          "name": "",
          "type": "uint256"
        }
      ],
      "stateMutability": "view",
      "type": "function"
    },
    {
      "inputs": [],
      "name": "getContractBalance",
      "outputs": [
        {
          "internalType": "uint256",
          "name": "",
          "type": "uint256"
        }
      ],
      "stateMutability": "view",
      "type": "function"
    },
    {
      "inputs": [
        {
          "internalType": "uint256",
          "name": "requisitionId",
          "type": "uint256"
        }
      ],
      "name": "getCoveringLenders",
      "outputs": [
        {
          "internalType": "address[]",
          "name": "",
          "type": "address[]"
        }
      ],
      "stateMutability": "view",
      "type": "function"
    },
    {
      "inputs": [
        {
          "internalType": "address",
          "name": "_user",
          "type": "address"
        }
      ],
      "name": "getDonation",
      "outputs": [
        {
          "internalType": "uint256",
          "name": "",
          "type": "uint256"
        }
      ],
      "stateMutability": "view",
      "type": "function"
    },
    {
      "inputs": [
        {
          "internalType": "address",
          "name": "_user",
          "type": "address"
        }
      ],
      "name": "getLastBorrowTime",
      "outputs": [
        {
          "internalType": "uint256",
          "name": "",
          "type": "uint256"
        }
      ],
      "stateMutability": "view",
      "type": "function"
    },
    {
      "inputs": [
        {
          "internalType": "uint256",
          "name": "requisitionId",
          "type": "uint256"
        },
        {
          "internalType": "address",
          "name": "lender",
          "type": "address"
        }
      ],
      "name": "getLenderCoverage",
      "outputs": [
        {
          "internalType": "uint256",
          "name": "",
          "type": "uint256"
        }
      ],
      "stateMutability": "view",
      "type": "function"
    },
    {
      "inputs": [
        {
          "internalType": "uint256",
          "name": "requisitionId",
          "type": "uint256"
        }
      ],
      "name": "getLoanContract",
      "outputs": [
        {
          "components": [
            {
              "internalType": "address",
              "name": "walletAddress",
              "type": "address"
            },
            {
              "internalType": "uint256",
              "name": "requisitionId",
              "type": "uint256"
            },
            {
              "internalType": "enum ILoanMachine.ContractStatus",
              "name": "status",
              "type": "uint8"
            },
            {
              "internalType": "uint32",
              "name": "parcelsPending",
              "type": "uint32"
            }
          ],
          "internalType": "struct ILoanMachine.LoanContract",
          "name": "",
          "type": "tuple"
        }
      ],
      "stateMutability": "view",
      "type": "function"
    },
    {
      "inputs": [
        {
          "internalType": "uint256",
          "name": "requisitionId",
          "type": "uint256"
        }
      ],
      "name": "getRequisitionInfo",
      "outputs": [
        {
          "components": [
            {
              "internalType": "uint256",
              "name": "requisitionId",
              "type": "uint256"
            },
            {
              "internalType": "address",
              "name": "borrower",
              "type": "address"
            },
            {
              "internalType": "uint256",
              "name": "amount",
              "type": "uint256"
            },
            {
              "internalType": "uint32",
              "name": "minimumCoverage",
              "type": "uint32"
            },
            {
              "internalType": "uint32",
              "name": "currentCoverage",
              "type": "uint32"
            },
            {
              "internalType": "enum ILoanMachine.BorrowStatus",
              "name": "status",
              "type": "uint8"
            },
            {
              "internalType": "uint256",
              "name": "durationDays",
              "type": "uint256"
            },
            {
              "internalType": "uint256",
              "name": "creationTime",
              "type": "uint256"
            },
            {
              "internalType": "address[]",
              "name": "coveringLenders",
              "type": "address[]"
            },
            {
              "internalType": "uint32",
              "name": "parcelsCount",
              "type": "uint32"
            }
          ],
          "internalType": "struct ILoanMachine.RequisitionInfo",
          "name": "",
          "type": "tuple"
        }
      ],
      "stateMutability": "view",
      "type": "function"
    },
    {
      "inputs": [],
      "name": "getTotalBorrowed",
      "outputs": [
        {
          "internalType": "uint256",
          "name": "",
          "type": "uint256"
        }
      ],
      "stateMutability": "view",
      "type": "function"
    },
    {
      "inputs": [],
      "name": "getTotalDonations",
      "outputs": [
        {
          "internalType": "uint256",
          "name": "",
          "type": "uint256"
        }
      ],
      "stateMutability": "view",
      "type": "function"
    },
    {
      "inputs": [
        {
          "internalType": "uint256",
          "name": "",
          "type": "uint256"
        }
      ],
      "name": "loanContracts",
      "outputs": [
        {
          "internalType": "address",
          "name": "walletAddress",
          "type": "address"
        },
        {
          "internalType": "uint256",
          "name": "requisitionId",
          "type": "uint256"
        },
        {
          "internalType": "enum ILoanMachine.ContractStatus",
          "name": "status",
          "type": "uint8"
        },
        {
          "internalType": "uint32",
          "name": "parcelsPending",
          "type": "uint32"
        }
      ],
      "stateMutability": "view",
      "type": "function"
    },
    {
      "inputs": [],
      "name": "repay",
      "outputs": [],
      "stateMutability": "payable",
      "type": "function"
    },
    {
      "inputs": [],
      "name": "requisitionCounter",
      "outputs": [
        {
          "internalType": "uint256",
          "name": "",
          "type": "uint256"
        }
      ],
      "stateMutability": "view",
      "type": "function"
    }
  ],
  "bytecode": "0x608060405234801561001057600080fd5b5060016000556118a6806100256000396000f3fe6080604052600436106101355760003560e01c8063777c658f116100ab57806397c335191161006f57806397c33519146103815780639e932011146103b1578063a648bf75146103d1578063be5eb580146103f1578063c5ebeaec14610427578063ed88c68e1461044757600080fd5b8063777c658f146102fc578063809dab6a1461021357806384ddf5ea146103115780638a914a63146103275780639730872a1461035457600080fd5b8063383ab2ef116100fd578063383ab2ef14610228578063402d888314610255578063410a1d321461025d5780634e51c7df14610293578063657eb031146102b35780636f9fb98a146102e957600080fd5b80630307c4a11461013a5780631b70ba3e1461015e578063232869fa1461018b5780632485a314146101f1578063291c31a714610213575b600080fd5b34801561014657600080fd5b506005545b6040519081526020015b60405180910390f35b34801561016a57600080fd5b5061017e610179366004611432565b61044f565b60405161015591906114b9565b34801561019757600080fd5b506101e16101a6366004611432565b600b602052600090815260409020805460018201546002909201546001600160a01b03909116919060ff811690610100900463ffffffff1684565b6040516101559493929190611585565b3480156101fd57600080fd5b5061021161020c3660046115d7565b6105b3565b005b34801561021f57600080fd5b5060065461014b565b34801561023457600080fd5b50610248610243366004611432565b610883565b6040516101559190611603565b610211610929565b34801561026957600080fd5b5061014b61027836600461165d565b6001600160a01b031660009081526001602052604090205490565b34801561029f57600080fd5b5061014b6102ae366004611678565b610a8d565b3480156102bf57600080fd5b5061014b6102ce36600461165d565b6001600160a01b031660009081526003602052604090205490565b3480156102f557600080fd5b504761014b565b34801561030857600080fd5b5060045461014b565b34801561031d57600080fd5b5061014b600a5481565b34801561033357600080fd5b50610347610342366004611432565b610ab9565b604051610155919061169b565b34801561036057600080fd5b5061037461036f36600461165d565b610b28565b60405161015591906116e8565b34801561038d57600080fd5b506103a161039c366004611720565b610b93565b6040519015158152602001610155565b3480156103bd57600080fd5b5061014b6103cc366004611720565b610c4b565b3480156103dd57600080fd5b5061014b6103ec36600461174a565b610c7c565b3480156103fd57600080fd5b5061014b61040c36600461165d565b6001600160a01b031660009081526002602052604090205490565b34801561043357600080fd5b50610211610442366004611432565b610e09565b610211611044565b604080516101408101825260008082526020820181905291810182905260608082018390526080820183905260a0820183905260c0820183905260e082018390526101008201526101208101919091526000828152600760209081526040918290208251610140810184528154815260018201546001600160a01b031692810192909252600281015492820192909252600382015463ffffffff8082166060840152640100000000820416608083015260a0820190600160401b900460ff16600581111561051f5761051f61144b565b815260200182600401548152602001826005015481526020018260060180548060200260200160405190810160405280929190818152602001828054801561059057602002820191906000526020600020905b81546001600160a01b03168152600190910190602001808311610572575b505050918352505060089092015463ffffffff1660209092019190915292915050565b8063ffffffff811615806105cd575060648163ffffffff16115b156105eb5760405163d1e95ed560e01b815260040160405180910390fd5b6105f3611177565b6000838152600760205260408120906003820154600160401b900460ff1660058111156106225761062261144b565b14158015610650575060016003820154600160401b900460ff16600581111561064d5761064d61144b565b14155b1561066e576040516380b9cb0960e01b815260040160405180910390fd5b60038101546064906106919063ffffffff808716916401000000009004166117a6565b11156106b05760405163955f95ad60e01b815260040160405180910390fd5b600060648463ffffffff1683600201546106ca91906117b9565b6106d491906117d0565b3360009081526001602052604090205490915081111561070757604051630391acf160e61b815260040160405180910390fd5b3360009081526001602090815260408083208054859003905560099091529020805482019055600382018054859190600490610752908490640100000000900463ffffffff166117f2565b825463ffffffff9182166101009390930a92830291909202199091161790555033600090815260078301602052604081205490036107b257600682018054600181018255600091825260209091200180546001600160a01b031916331790555b336000908152600783016020526040812080548392906107d39084906117a6565b9091555050600382015463ffffffff80821664010000000090920416106108255760038201805460ff60401b191668020000000000000000179055610817856111d4565b61082085611293565b61083b565b60038201805460ff60401b1916600160401b1790555b604051818152339086907f86b47e6e6c03d769c0bc5ffd06c682ea7d07089576d59230ec18ff64e71bffe79060200160405180910390a3505061087e6001600055565b505050565b6040805160808101825260008082526020820181905291810182905260608101919091526000828152600b60209081526040808320815160808101835281546001600160a01b03168152600182015493810193909352600280820154919284019160ff16908111156108f7576108f761144b565b60028111156109085761090861144b565b815260029190910154610100900463ffffffff166020909101529392505050565b348060000361094b5760405163162908e360e11b815260040160405180910390fd5b610953611177565b33600090815260026020526040812054900361098257604051630b5ab5bf60e41b815260040160405180910390fd5b336000908152600260205260409020543411156109b25760405163f9ea8d3560e01b815260040160405180910390fd5b33600081815260026020526040908190208054349081900382556005805482900390556006805482019055905491517f1b8cd61ed43bec7c6bdad3a18ffee613f99c853d16c50678d248d879e1b4343892610a14928252602082015260400190565b60405180910390a27f17f13fd3f7c4712af33f1770ebcb822dd20a2dbc00850eab48d786623d97b959600554604051610a4f91815260200190565b60405180910390a1600080516020611851833981519152600654604051610a7891815260200190565b60405180910390a1610a8a6001600055565b50565b60008281526007602081815260408084206001600160a01b038616855290920190529020545b92915050565b600081815260076020908152604091829020600601805483518184028101840190945280845260609392830182828015610b1c57602002820191906000526020600020905b81546001600160a01b03168152600190910190602001808311610afe575b50505050509050919050565b6001600160a01b038116600090815260086020908152604091829020805483518184028101840190945280845260609392830182828015610b1c57602002820191906000526020600020905b815481526020019060010190808311610b745750505050509050919050565b60008082118015610ba657506006548211155b8015610bf257506001600160a01b03831660009081526001602052604090205467016345785d8a0000111580610bf257506001600160a01b038316600090815260026020526040902054155b8015610c4457506001600160a01b0383166000908152600360205260409020544290610c229062093a80906117a6565b1080610c4457506001600160a01b038316600090815260026020526040902054155b9392505050565b60086020528160005260406000208181548110610c6757600080fd5b90600052602060002001600091509150505481565b60008480600003610ca05760405163162908e360e11b815260040160405180910390fd5b8463ffffffff16604681111580610cb75750606481115b15610cd55760405163d1e95ed560e01b815260040160405180910390fd5b600654871115610cf85760405163356680b760e01b815260040160405180910390fd5b600a805460009182610d0983611816565b9091555060008181526007602052604081206001810180546001600160a01b03191633179055600281018b905560038101805467ffffffffffffffff19811663ffffffff8d1690811783559495509193909168ffffffffffffffffff191617600160401b830217905550600481018790554260058201556008808201805463ffffffff191663ffffffff89169081179091558383553360008181526020938452604080822080546001810182559083529185902090910186905580518d8152938401929092529184917fde3b47cf7da95a3cc41b86cf8717ead8d56a76ee1590481c5c4dc4d8804c40c4910160405180910390a350979650505050505050565b8080600003610e2b5760405163162908e360e11b815260040160405180910390fd5b81600654811115610e4f5760405163356680b760e01b815260040160405180910390fd5b3360009081526001602052604090205467016345785d8a0000118015610e8357503360009081526002602052604090205415155b15610ea15760405163b4ff2ab760e01b815260040160405180910390fd5b336000908152600360205260409020544290610ec19062093a80906117a6565b10158015610edd57503360009081526002602052604090205415155b15610efb5760405163c6061c8560e01b815260040160405180910390fd5b610f03611177565b33600081815260026020818152604080842080548981018255600580548b019055600680548b9003905560038452948290204290559282529154825188815291820152911592917feae9cfbc77fdd40ca899f36b608256063b2bc9d8178b0220f7ad513e178d6730910160405180910390a27f17f13fd3f7c4712af33f1770ebcb822dd20a2dbc00850eab48d786623d97b959600554604051610fa891815260200190565b60405180910390a1600080516020611851833981519152600654604051610fd191815260200190565b60405180910390a1801561100b5760405133907fdd6d577a01057a7ca4e715ae2c9f196a0a25d8e9d1ddd9376047869ce6fe56c790600090a25b604051339085156108fc029086906000818181858888f19350505050158015611038573d6000803e3d6000fd5b505061087e6001600055565b34806000036110665760405163162908e360e11b815260040160405180910390fd5b61106e611177565b336000818152600160209081526040918290208054348082018355600480548201905560068054820190559154845192835292820192909252901592917f4928895ba6723e8e27b15f32e4c3054a1b6c7f8c03f133558d6fa42b3928d14c910160405180910390a27fdc6e73d4b36e22ab95945bd8833a5af96c950eb29d8d75c4aecffc987637aaab60045460405161110991815260200190565b60405180910390a160008051602061185183398151915260065460405161113291815260200190565b60405180910390a1801561116c5760405133907f072dafb6aabe3f02118bc607efbeaaa104d6b2009720c7b130f24ba418689c4b90600090a25b50610a8a6001600055565b6002600054036111cd5760405162461bcd60e51b815260206004820152601f60248201527f5265656e7472616e637947756172643a207265656e7472616e742063616c6c00604482015260640160405180910390fd5b6002600055565b6000818152600b6020908152604080832060079092529182902060018082015483546001600160a01b039091166001600160a01b03199091168117845590830185905560028301805460ff198116825560089093015464ffffffffff1990931661010063ffffffff94851681029182179283905595519495879593947fe035d0a104843967681841b75ffe85277731c7bd0b784a08c766ce7503deb335946112879460ff9094169392909204169061182f565b60405180910390a35050565b6000818152600760209081526040808320600280820180546001840180546001600160a01b03908116895293875285882080549092019091558154600580549091019055815460068054919091039055805483168752600395869052848720429055948301805460ff60401b191668030000000000000000179055935493549251919493169282156108fc02929190818181858888f1935050505015801561133f573d6000803e3d6000fd5b5060018101546002808301546001600160a01b039092166000818152602092835260409081902054815194855292840192909252917feae9cfbc77fdd40ca899f36b608256063b2bc9d8178b0220f7ad513e178d6730910160405180910390a27f17f13fd3f7c4712af33f1770ebcb822dd20a2dbc00850eab48d786623d97b9596005546040516113d291815260200190565b60405180910390a16000805160206118518339815191526006546040516113fb91815260200190565b60405180910390a160405182907f9e71d2fb732e68272b7e74ecfd14638673c1d77e19a5d390a3ffff054d57c44b90600090a25050565b60006020828403121561144457600080fd5b5035919050565b634e487b7160e01b600052602160045260246000fd5b600681106114715761147161144b565b9052565b600081518084526020808501945080840160005b838110156114ae5781516001600160a01b031687529582019590820190600101611489565b509495945050505050565b6020815281516020820152600060208301516114e060408401826001600160a01b03169052565b50604083015160608301526060830151611502608084018263ffffffff169052565b50608083015163ffffffff811660a08401525060a083015161152760c0840182611461565b5060c083015160e083015260e0830151610100818185015280850151915050610140610120818186015261155f610160860184611475565b95015163ffffffff169301929092525090919050565b600381106114715761147161144b565b6001600160a01b038516815260208101849052608081016115a96040830185611575565b63ffffffff8316606083015295945050505050565b803563ffffffff811681146115d257600080fd5b919050565b600080604083850312156115ea57600080fd5b823591506115fa602084016115be565b90509250929050565b81516001600160a01b0316815260208083015190820152604080830151608083019161163190840182611575565b5060609283015163ffffffff16919092015290565b80356001600160a01b03811681146115d257600080fd5b60006020828403121561166f57600080fd5b610c4482611646565b6000806040838503121561168b57600080fd5b823591506115fa60208401611646565b6020808252825182820181905260009190848201906040850190845b818110156116dc5783516001600160a01b0316835292840192918401916001016116b7565b50909695505050505050565b6020808252825182820181905260009190848201906040850190845b818110156116dc57835183529284019291840191600101611704565b6000806040838503121561173357600080fd5b61173c83611646565b946020939093013593505050565b6000806000806080858703121561176057600080fd5b84359350611770602086016115be565b925060408501359150611785606086016115be565b905092959194509250565b634e487b7160e01b600052601160045260246000fd5b80820180821115610ab357610ab3611790565b8082028115828204841417610ab357610ab3611790565b6000826117ed57634e487b7160e01b600052601260045260246000fd5b500490565b63ffffffff81811683821601908082111561180f5761180f611790565b5092915050565b60006001820161182857611828611790565b5060010190565b6040810161183d8285611575565b63ffffffff83166020830152939250505056fe8b094cca6f83d49402ce208cc0c224b76625ffc58636df56ae28024e704c5868a2646970667358221220d85122c8faf93781e617d6972ca2dd8c4859321522dd05bffc91a6eecc05d65a64736f6c63430008130033",
  "linkReferences": {},
  "deployedLinkReferences": {}
}