{
  "_format": "hh-sol-artifact-1",
  "contractName": "loanMachine",
  "sourceName": "contracts/loanMachine.sol",
  "abi": [
    {
      "anonymous": false,
      "inputs": [
        {
          "indexed": true,
          "internalType": "address",
          "name": "borrower",
          "type": "address"
        }
      ],
      "name": "BorrowLimitReached",
      "type": "event"
    },
    {
      "anonymous": false,
      "inputs": [
        {
          "indexed": true,
          "internalType": "address",
          "name": "borrower",
          "type": "address"
        },
        {
          "indexed": false,
          "internalType": "uint256",
          "name": "amount",
          "type": "uint256"
        },
        {
          "indexed": false,
          "internalType": "uint256",
          "name": "totalBorrowing",
          "type": "uint256"
        }
      ],
      "name": "Borrowed",
      "type": "event"
    },
    {
      "anonymous": false,
      "inputs": [
        {
          "indexed": true,
          "internalType": "address",
          "name": "donor",
          "type": "address"
        },
        {
          "indexed": false,
          "internalType": "uint256",
          "name": "amount",
          "type": "uint256"
        },
        {
          "indexed": false,
          "internalType": "uint256",
          "name": "totalDonation",
          "type": "uint256"
        }
      ],
      "name": "Donated",
      "type": "event"
    },
    {
      "anonymous": false,
      "inputs": [
        {
          "indexed": true,
          "internalType": "address",
          "name": "borrower",
          "type": "address"
        }
      ],
      "name": "NewBorrower",
      "type": "event"
    },
    {
      "anonymous": false,
      "inputs": [
        {
          "indexed": true,
          "internalType": "address",
          "name": "donor",
          "type": "address"
        }
      ],
      "name": "NewDonor",
      "type": "event"
    },
    {
      "anonymous": false,
      "inputs": [
        {
          "indexed": true,
          "internalType": "address",
          "name": "borrower",
          "type": "address"
        },
        {
          "indexed": false,
          "internalType": "uint256",
          "name": "amount",
          "type": "uint256"
        },
        {
          "indexed": false,
          "internalType": "uint256",
          "name": "remainingDebt",
          "type": "uint256"
        }
      ],
      "name": "Repaid",
      "type": "event"
    },
    {
      "inputs": [
        {
          "internalType": "uint256",
          "name": "_amount",
          "type": "uint256"
        }
      ],
      "name": "borrow",
      "outputs": [],
      "stateMutability": "nonpayable",
      "type": "function"
    },
    {
      "inputs": [
        {
          "internalType": "address",
          "name": "_user",
          "type": "address"
        },
        {
          "internalType": "uint256",
          "name": "_amount",
          "type": "uint256"
        }
      ],
      "name": "canUserBorrow",
      "outputs": [
        {
          "internalType": "bool",
          "name": "",
          "type": "bool"
        }
      ],
      "stateMutability": "view",
      "type": "function"
    },
    {
      "inputs": [],
      "name": "donate",
      "outputs": [],
      "stateMutability": "payable",
      "type": "function"
    },
    {
      "inputs": [],
      "name": "getAvailableBalance",
      "outputs": [
        {
          "internalType": "uint256",
          "name": "",
          "type": "uint256"
        }
      ],
      "stateMutability": "view",
      "type": "function"
    },
    {
      "inputs": [
        {
          "internalType": "address",
          "name": "_user",
          "type": "address"
        }
      ],
      "name": "getAvailableBorrowAmount",
      "outputs": [
        {
          "internalType": "uint256",
          "name": "",
          "type": "uint256"
        }
      ],
      "stateMutability": "view",
      "type": "function"
    },
    {
      "inputs": [
        {
          "internalType": "address",
          "name": "_user",
          "type": "address"
        }
      ],
      "name": "getBorrowing",
      "outputs": [
        {
          "internalType": "uint256",
          "name": "",
          "type": "uint256"
        }
      ],
      "stateMutability": "view",
      "type": "function"
    },
    {
      "inputs": [],
      "name": "getContractBalance",
      "outputs": [
        {
          "internalType": "uint256",
          "name": "",
          "type": "uint256"
        }
      ],
      "stateMutability": "view",
      "type": "function"
    },
    {
      "inputs": [
        {
          "internalType": "address",
          "name": "_user",
          "type": "address"
        }
      ],
      "name": "getDonation",
      "outputs": [
        {
          "internalType": "uint256",
          "name": "",
          "type": "uint256"
        }
      ],
      "stateMutability": "view",
      "type": "function"
    },
    {
      "inputs": [
        {
          "internalType": "address",
          "name": "_user",
          "type": "address"
        }
      ],
      "name": "getLastBorrowTime",
      "outputs": [
        {
          "internalType": "uint256",
          "name": "",
          "type": "uint256"
        }
      ],
      "stateMutability": "view",
      "type": "function"
    },
    {
      "inputs": [],
      "name": "getTotalBorrowed",
      "outputs": [
        {
          "internalType": "uint256",
          "name": "",
          "type": "uint256"
        }
      ],
      "stateMutability": "view",
      "type": "function"
    },
    {
      "inputs": [],
      "name": "getTotalDonations",
      "outputs": [
        {
          "internalType": "uint256",
          "name": "",
          "type": "uint256"
        }
      ],
      "stateMutability": "view",
      "type": "function"
    },
    {
      "inputs": [
        {
          "internalType": "address",
          "name": "_user",
          "type": "address"
        }
      ],
      "name": "getUserStats",
      "outputs": [
        {
          "internalType": "uint256",
          "name": "userDonations",
          "type": "uint256"
        },
        {
          "internalType": "uint256",
          "name": "userBorrowings",
          "type": "uint256"
        },
        {
          "internalType": "uint256",
          "name": "lastBorrow",
          "type": "uint256"
        },
        {
          "internalType": "bool",
          "name": "canBorrowNow",
          "type": "bool"
        }
      ],
      "stateMutability": "view",
      "type": "function"
    },
    {
      "inputs": [],
      "name": "repay",
      "outputs": [],
      "stateMutability": "payable",
      "type": "function"
    }
  ],
  "bytecode": "0x608060405234801561001057600080fd5b506001600081905550611a39806100286000396000f3fe6080604052600436106100c25760003560e01c8063777c658f1161007f578063be5eb58011610059578063be5eb58014610274578063c5ebeaec146102b1578063ca7453d4146102da578063ed88c68e14610317576100c2565b8063777c658f146101e1578063809dab6a1461020c57806397c3351914610237576100c2565b80630307c4a1146100c7578063402d8883146100f2578063410a1d32146100fc5780634e43603a14610139578063657eb031146101795780636f9fb98a146101b6575b600080fd5b3480156100d357600080fd5b506100dc610321565b6040516100e9919061130f565b60405180910390f35b6100fa61032b565b005b34801561010857600080fd5b50610123600480360381019061011e919061138d565b61059d565b604051610130919061130f565b60405180910390f35b34801561014557600080fd5b50610160600480360381019061015b919061138d565b6105e6565b60405161017094939291906113d5565b60405180910390f35b34801561018557600080fd5b506101a0600480360381019061019b919061138d565b610852565b6040516101ad919061130f565b60405180910390f35b3480156101c257600080fd5b506101cb61089b565b6040516101d8919061130f565b60405180910390f35b3480156101ed57600080fd5b506101f66108a3565b604051610203919061130f565b60405180910390f35b34801561021857600080fd5b506102216108ad565b60405161022e919061130f565b60405180910390f35b34801561024357600080fd5b5061025e60048036038101906102599190611446565b6108b7565b60405161026b9190611486565b60405180910390f35b34801561028057600080fd5b5061029b6004803603810190610296919061138d565b610a83565b6040516102a8919061130f565b60405180910390f35b3480156102bd57600080fd5b506102d860048036038101906102d391906114a1565b610acc565b005b3480156102e657600080fd5b5061030160048036038101906102fc919061138d565b61102b565b60405161030e919061130f565b60405180910390f35b61031f61109e565b005b6000600554905090565b346000811161036f576040517f08c379a00000000000000000000000000000000000000000000000000000000081526004016103669061152b565b60405180910390fd5b61037761129d565b6000600260003373ffffffffffffffffffffffffffffffffffffffff1673ffffffffffffffffffffffffffffffffffffffff16815260200190815260200160002054116103f9576040517f08c379a00000000000000000000000000000000000000000000000000000000081526004016103f090611597565b60405180910390fd5b600260003373ffffffffffffffffffffffffffffffffffffffff1673ffffffffffffffffffffffffffffffffffffffff1681526020019081526020016000205434111561047b576040517f08c379a000000000000000000000000000000000000000000000000000000000815260040161047290611629565b60405180910390fd5b34600260003373ffffffffffffffffffffffffffffffffffffffff1673ffffffffffffffffffffffffffffffffffffffff16815260200190815260200160002060008282546104ca9190611678565b9250508190555034600560008282546104e39190611678565b9250508190555034600660008282546104fc91906116ac565b925050819055503373ffffffffffffffffffffffffffffffffffffffff167f1b8cd61ed43bec7c6bdad3a18ffee613f99c853d16c50678d248d879e1b4343834600260003373ffffffffffffffffffffffffffffffffffffffff1673ffffffffffffffffffffffffffffffffffffffff1681526020019081526020016000205460405161058a9291906116e0565b60405180910390a261059a6112ec565b50565b6000600160008373ffffffffffffffffffffffffffffffffffffffff1673ffffffffffffffffffffffffffffffffffffffff168152602001908152602001600020549050919050565b600080600080600160008673ffffffffffffffffffffffffffffffffffffffff1673ffffffffffffffffffffffffffffffffffffffff168152602001908152602001600020549350600260008673ffffffffffffffffffffffffffffffffffffffff1673ffffffffffffffffffffffffffffffffffffffff168152602001908152602001600020549250600360008673ffffffffffffffffffffffffffffffffffffffff1673ffffffffffffffffffffffffffffffffffffffff168152602001908152602001600020549150600060065411801561070a5750670de0b6b3a7640000600260008773ffffffffffffffffffffffffffffffffffffffff1673ffffffffffffffffffffffffffffffffffffffff16815260200190815260200160002054105b80156107a7575067016345785d8a0000600160008773ffffffffffffffffffffffffffffffffffffffff1673ffffffffffffffffffffffffffffffffffffffff168152602001908152602001600020541015806107a657506000600260008773ffffffffffffffffffffffffffffffffffffffff1673ffffffffffffffffffffffffffffffffffffffff16815260200190815260200160002054145b5b801561084957504262093a80600360008873ffffffffffffffffffffffffffffffffffffffff1673ffffffffffffffffffffffffffffffffffffffff168152602001908152602001600020546107fd91906116ac565b108061084857506000600260008773ffffffffffffffffffffffffffffffffffffffff1673ffffffffffffffffffffffffffffffffffffffff16815260200190815260200160002054145b5b90509193509193565b6000600360008373ffffffffffffffffffffffffffffffffffffffff1673ffffffffffffffffffffffffffffffffffffffff168152602001908152602001600020549050919050565b600047905090565b6000600454905090565b6000600654905090565b600080821180156108ca57506006548211155b80156108de5750670de0b6b3a76400008211155b801561097b575067016345785d8a0000600160008573ffffffffffffffffffffffffffffffffffffffff1673ffffffffffffffffffffffffffffffffffffffff1681526020019081526020016000205410158061097a57506000600260008573ffffffffffffffffffffffffffffffffffffffff1673ffffffffffffffffffffffffffffffffffffffff16815260200190815260200160002054145b5b80156109d95750670de0b6b3a764000082600260008673ffffffffffffffffffffffffffffffffffffffff1673ffffffffffffffffffffffffffffffffffffffff168152602001908152602001600020546109d691906116ac565b11155b8015610a7b57504262093a80600360008673ffffffffffffffffffffffffffffffffffffffff1673ffffffffffffffffffffffffffffffffffffffff16815260200190815260200160002054610a2f91906116ac565b1080610a7a57506000600260008573ffffffffffffffffffffffffffffffffffffffff1673ffffffffffffffffffffffffffffffffffffffff16815260200190815260200160002054145b5b905092915050565b6000600260008373ffffffffffffffffffffffffffffffffffffffff1673ffffffffffffffffffffffffffffffffffffffff168152602001908152602001600020549050919050565b8060008111610b10576040517f08c379a0000000000000000000000000000000000000000000000000000000008152600401610b079061152b565b60405180910390fd5b81600654811115610b56576040517f08c379a0000000000000000000000000000000000000000000000000000000008152600401610b4d9061177b565b60405180910390fd5b670de0b6b3a7640000811115610ba1576040517f08c379a0000000000000000000000000000000000000000000000000000000008152600401610b98906117e7565b60405180910390fd5b67016345785d8a0000600160003373ffffffffffffffffffffffffffffffffffffffff1673ffffffffffffffffffffffffffffffffffffffff16815260200190815260200160002054101580610c3657506000600260003373ffffffffffffffffffffffffffffffffffffffff1673ffffffffffffffffffffffffffffffffffffffff16815260200190815260200160002054145b610c75576040517f08c379a0000000000000000000000000000000000000000000000000000000008152600401610c6c90611879565b60405180910390fd5b670de0b6b3a764000081600260003373ffffffffffffffffffffffffffffffffffffffff1673ffffffffffffffffffffffffffffffffffffffff16815260200190815260200160002054610cc991906116ac565b1115610d0a576040517f08c379a0000000000000000000000000000000000000000000000000000000008152600401610d01906118e5565b60405180910390fd5b4262093a80600360003373ffffffffffffffffffffffffffffffffffffffff1673ffffffffffffffffffffffffffffffffffffffff16815260200190815260200160002054610d5991906116ac565b1080610da457506000600260003373ffffffffffffffffffffffffffffffffffffffff1673ffffffffffffffffffffffffffffffffffffffff16815260200190815260200160002054145b610de3576040517f08c379a0000000000000000000000000000000000000000000000000000000008152600401610dda90611977565b60405180910390fd5b610deb61129d565b600080600260003373ffffffffffffffffffffffffffffffffffffffff1673ffffffffffffffffffffffffffffffffffffffff1681526020019081526020016000205414905083600260003373ffffffffffffffffffffffffffffffffffffffff1673ffffffffffffffffffffffffffffffffffffffff1681526020019081526020016000206000828254610e8091906116ac565b9250508190555042600360003373ffffffffffffffffffffffffffffffffffffffff1673ffffffffffffffffffffffffffffffffffffffff168152602001908152602001600020819055508360056000828254610edd91906116ac565b925050819055508360066000828254610ef69190611678565b925050819055503373ffffffffffffffffffffffffffffffffffffffff167feae9cfbc77fdd40ca899f36b608256063b2bc9d8178b0220f7ad513e178d673085600260003373ffffffffffffffffffffffffffffffffffffffff1673ffffffffffffffffffffffffffffffffffffffff16815260200190815260200160002054604051610f849291906116e0565b60405180910390a28015610fd6573373ffffffffffffffffffffffffffffffffffffffff167fdd6d577a01057a7ca4e715ae2c9f196a0a25d8e9d1ddd9376047869ce6fe56c760405160405180910390a25b3373ffffffffffffffffffffffffffffffffffffffff166108fc859081150290604051600060405180830381858888f1935050505015801561101c573d6000803e3d6000fd5b50506110266112ec565b505050565b600080600260008473ffffffffffffffffffffffffffffffffffffffff1673ffffffffffffffffffffffffffffffffffffffff16815260200190815260200160002054670de0b6b3a76400006110819190611678565b9050600654811061109457600654611096565b805b915050919050565b34600081116110e2576040517f08c379a00000000000000000000000000000000000000000000000000000000081526004016110d99061152b565b60405180910390fd5b6110ea61129d565b600080600160003373ffffffffffffffffffffffffffffffffffffffff1673ffffffffffffffffffffffffffffffffffffffff1681526020019081526020016000205414905034600160003373ffffffffffffffffffffffffffffffffffffffff1673ffffffffffffffffffffffffffffffffffffffff168152602001908152602001600020600082825461117f91906116ac565b92505081905550346004600082825461119891906116ac565b9250508190555034600660008282546111b191906116ac565b925050819055503373ffffffffffffffffffffffffffffffffffffffff167f4928895ba6723e8e27b15f32e4c3054a1b6c7f8c03f133558d6fa42b3928d14c34600160003373ffffffffffffffffffffffffffffffffffffffff1673ffffffffffffffffffffffffffffffffffffffff1681526020019081526020016000205460405161123f9291906116e0565b60405180910390a28015611291573373ffffffffffffffffffffffffffffffffffffffff167f072dafb6aabe3f02118bc607efbeaaa104d6b2009720c7b130f24ba418689c4b60405160405180910390a25b5061129a6112ec565b50565b6002600054036112e2576040517f08c379a00000000000000000000000000000000000000000000000000000000081526004016112d9906119e3565b60405180910390fd5b6002600081905550565b6001600081905550565b6000819050919050565b611309816112f6565b82525050565b60006020820190506113246000830184611300565b92915050565b600080fd5b600073ffffffffffffffffffffffffffffffffffffffff82169050919050565b600061135a8261132f565b9050919050565b61136a8161134f565b811461137557600080fd5b50565b60008135905061138781611361565b92915050565b6000602082840312156113a3576113a261132a565b5b60006113b184828501611378565b91505092915050565b60008115159050919050565b6113cf816113ba565b82525050565b60006080820190506113ea6000830187611300565b6113f76020830186611300565b6114046040830185611300565b61141160608301846113c6565b95945050505050565b611423816112f6565b811461142e57600080fd5b50565b6000813590506114408161141a565b92915050565b6000806040838503121561145d5761145c61132a565b5b600061146b85828601611378565b925050602061147c85828601611431565b9150509250929050565b600060208201905061149b60008301846113c6565b92915050565b6000602082840312156114b7576114b661132a565b5b60006114c584828501611431565b91505092915050565b600082825260208201905092915050565b7f416d6f756e74206d7573742062652067726561746572207468616e2030000000600082015250565b6000611515601d836114ce565b9150611520826114df565b602082019050919050565b6000602082019050818103600083015261154481611508565b9050919050565b7f4e6f2061637469766520626f72726f77696e6700000000000000000000000000600082015250565b60006115816013836114ce565b915061158c8261154b565b602082019050919050565b600060208201905081810360008301526115b081611574565b9050919050565b7f52657061796d656e74206578636565647320626f72726f77656420616d6f756e60008201527f7400000000000000000000000000000000000000000000000000000000000000602082015250565b60006116136021836114ce565b915061161e826115b7565b604082019050919050565b6000602082019050818103600083015261164281611606565b9050919050565b7f4e487b7100000000000000000000000000000000000000000000000000000000600052601160045260246000fd5b6000611683826112f6565b915061168e836112f6565b92508282039050818111156116a6576116a5611649565b5b92915050565b60006116b7826112f6565b91506116c2836112f6565b92508282019050808211156116da576116d9611649565b5b92915050565b60006040820190506116f56000830185611300565b6117026020830184611300565b9392505050565b7f496e73756666696369656e742066756e647320696e2076656e64696e67206d6160008201527f6368696e65000000000000000000000000000000000000000000000000000000602082015250565b60006117656025836114ce565b915061177082611709565b604082019050919050565b6000602082019050818103600083015261179481611758565b9050919050565b7f45786365656473206d6178696d756d20626f72726f7720616d6f756e74000000600082015250565b60006117d1601d836114ce565b91506117dc8261179b565b602082019050919050565b60006020820190508181036000830152611800816117c4565b9050919050565b7f4d696e696d756d20646f6e6174696f6e207265717569726564206f722065786960008201527f7374696e67206465627400000000000000000000000000000000000000000000602082015250565b6000611863602a836114ce565b915061186e82611807565b604082019050919050565b6000602082019050818103600083015261189281611856565b9050919050565b7f4578636565647320706572736f6e616c20626f72726f77206c696d6974000000600082015250565b60006118cf601d836114ce565b91506118da82611899565b602082019050919050565b600060208201905081810360008301526118fe816118c2565b9050919050565b7f50726576696f757320626f72726f77206e6f742079657420726570616964206f60008201527f72206475726174696f6e206e6f74206578706972656400000000000000000000602082015250565b60006119616036836114ce565b915061196c82611905565b604082019050919050565b6000602082019050818103600083015261199081611954565b9050919050565b7f5265656e7472616e637947756172643a207265656e7472616e742063616c6c00600082015250565b60006119cd601f836114ce565b91506119d882611997565b602082019050919050565b600060208201905081810360008301526119fc816119c0565b905091905056fea2646970667358221220b492340ce6458e56400f274ec05ea4770066ad8029929c0b4911dd0b5c6f3fae64736f6c63430008140033",
  "linkReferences": {},
  "deployedLinkReferences": {}
}