{
  "_format": "hh-sol-artifact-1",
  "contractName": "LoanMachine",
  "sourceName": "contracts/LoanMachine.sol",
  "abi": [
    {
      "inputs": [
        {
          "internalType": "address",
          "name": "_usdtToken",
          "type": "address"
        },
        {
          "internalType": "address",
          "name": "_reputationSystem",
          "type": "address"
        }
      ],
      "stateMutability": "nonpayable",
      "type": "constructor"
    },
    {
      "inputs": [],
      "name": "LoanMachine_BorrowNotExpired",
      "type": "error"
    },
    {
      "inputs": [],
      "name": "LoanMachine_CheckIntervalNotYetPassed",
      "type": "error"
    },
    {
      "inputs": [],
      "name": "LoanMachine_ExcessiveDonation",
      "type": "error"
    },
    {
      "inputs": [],
      "name": "LoanMachine_InsufficientDonationBalance",
      "type": "error"
    },
    {
      "inputs": [],
      "name": "LoanMachine_InsufficientFunds",
      "type": "error"
    },
    {
      "inputs": [],
      "name": "LoanMachine_InsufficientWithdrawableBalance",
      "type": "error"
    },
    {
      "inputs": [],
      "name": "LoanMachine_InvalidAmount",
      "type": "error"
    },
    {
      "inputs": [],
      "name": "LoanMachine_InvalidCoveragePercentage",
      "type": "error"
    },
    {
      "inputs": [],
      "name": "LoanMachine_InvalidParcelsCount",
      "type": "error"
    },
    {
      "inputs": [],
      "name": "LoanMachine_LoanNotAvailable",
      "type": "error"
    },
    {
      "inputs": [],
      "name": "LoanMachine_MaxLoanRequisitionPendingReached",
      "type": "error"
    },
    {
      "inputs": [],
      "name": "LoanMachine_MemberIdOrWalletInvalid",
      "type": "error"
    },
    {
      "inputs": [],
      "name": "LoanMachine_MinimumDonationRequired",
      "type": "error"
    },
    {
      "inputs": [],
      "name": "LoanMachine_MinimumPercentageCover",
      "type": "error"
    },
    {
      "inputs": [],
      "name": "LoanMachine_NoActiveBorrowing",
      "type": "error"
    },
    {
      "inputs": [],
      "name": "LoanMachine_NotLoanRequisitionCreator",
      "type": "error"
    },
    {
      "inputs": [],
      "name": "LoanMachine_OnlyBorrowerCanCancelRequisition",
      "type": "error"
    },
    {
      "inputs": [],
      "name": "LoanMachine_OverCoverage",
      "type": "error"
    },
    {
      "inputs": [],
      "name": "LoanMachine_ParcelAlreadyPaid",
      "type": "error"
    },
    {
      "inputs": [],
      "name": "LoanMachine_RepaymentExceedsBorrowed",
      "type": "error"
    },
    {
      "inputs": [],
      "name": "LoanMachine_RequisitionAlreadyActive",
      "type": "error"
    },
    {
      "inputs": [],
      "name": "LoanMachine_RequisitionNotCancellable",
      "type": "error"
    },
    {
      "inputs": [],
      "name": "LoanMachine_RequisitionNotFound",
      "type": "error"
    },
    {
      "inputs": [],
      "name": "LoanMachine_TokenTransferFailed",
      "type": "error"
    },
    {
      "inputs": [],
      "name": "LoanMachine_WalletAlreadyVinculated",
      "type": "error"
    },
    {
      "anonymous": false,
      "inputs": [
        {
          "indexed": false,
          "internalType": "uint256",
          "name": "total",
          "type": "uint256"
        }
      ],
      "name": "AvailableBalanceUpdated",
      "type": "event"
    },
    {
      "anonymous": false,
      "inputs": [
        {
          "indexed": true,
          "internalType": "address",
          "name": "borrower",
          "type": "address"
        }
      ],
      "name": "BorrowLimitReached",
      "type": "event"
    },
    {
      "anonymous": false,
      "inputs": [
        {
          "indexed": true,
          "internalType": "address",
          "name": "borrower",
          "type": "address"
        },
        {
          "indexed": false,
          "internalType": "uint256",
          "name": "amount",
          "type": "uint256"
        },
        {
          "indexed": false,
          "internalType": "uint256",
          "name": "totalBorrowing",
          "type": "uint256"
        }
      ],
      "name": "Borrowed",
      "type": "event"
    },
    {
      "anonymous": false,
      "inputs": [
        {
          "indexed": true,
          "internalType": "uint256",
          "name": "requisitionId",
          "type": "uint256"
        },
        {
          "indexed": true,
          "internalType": "address",
          "name": "borrower",
          "type": "address"
        }
      ],
      "name": "BorrowerDebtSettled",
      "type": "event"
    },
    {
      "anonymous": false,
      "inputs": [
        {
          "indexed": true,
          "internalType": "uint256",
          "name": "requisitionId",
          "type": "uint256"
        },
        {
          "indexed": true,
          "internalType": "address",
          "name": "borrower",
          "type": "address"
        },
        {
          "indexed": false,
          "internalType": "uint256",
          "name": "dueDate",
          "type": "uint256"
        }
      ],
      "name": "BorrowerOverdue",
      "type": "event"
    },
    {
      "anonymous": false,
      "inputs": [
        {
          "indexed": true,
          "internalType": "address",
          "name": "donor",
          "type": "address"
        },
        {
          "indexed": false,
          "internalType": "uint256",
          "name": "amount",
          "type": "uint256"
        },
        {
          "indexed": false,
          "internalType": "uint256",
          "name": "totalDonation",
          "type": "uint256"
        }
      ],
      "name": "Donated",
      "type": "event"
    },
    {
      "anonymous": false,
      "inputs": [
        {
          "indexed": true,
          "internalType": "uint256",
          "name": "requisitionId",
          "type": "uint256"
        },
        {
          "indexed": true,
          "internalType": "address",
          "name": "lender",
          "type": "address"
        },
        {
          "indexed": false,
          "internalType": "uint256",
          "name": "amount",
          "type": "uint256"
        }
      ],
      "name": "LenderRepaid",
      "type": "event"
    },
    {
      "anonymous": false,
      "inputs": [
        {
          "indexed": true,
          "internalType": "uint256",
          "name": "requisitionId",
          "type": "uint256"
        }
      ],
      "name": "LoanCompleted",
      "type": "event"
    },
    {
      "anonymous": false,
      "inputs": [
        {
          "indexed": true,
          "internalType": "address",
          "name": "walletAddress",
          "type": "address"
        },
        {
          "indexed": true,
          "internalType": "uint256",
          "name": "requisitionId",
          "type": "uint256"
        },
        {
          "indexed": false,
          "internalType": "enum ILoanMachine.ContractStatus",
          "name": "status",
          "type": "uint8"
        },
        {
          "indexed": false,
          "internalType": "uint32",
          "name": "parcelsPending",
          "type": "uint32"
        },
        {
          "indexed": false,
          "internalType": "uint256",
          "name": "parcelsValues",
          "type": "uint256"
        },
        {
          "indexed": false,
          "internalType": "uint256[]",
          "name": "paymentDates",
          "type": "uint256[]"
        },
        {
          "indexed": false,
          "internalType": "uint256",
          "name": "creationTime",
          "type": "uint256"
        }
      ],
      "name": "LoanContractGenerated",
      "type": "event"
    },
    {
      "anonymous": false,
      "inputs": [
        {
          "indexed": true,
          "internalType": "uint256",
          "name": "requisitionId",
          "type": "uint256"
        },
        {
          "indexed": true,
          "internalType": "address",
          "name": "lender",
          "type": "address"
        },
        {
          "indexed": false,
          "internalType": "uint256",
          "name": "coverageAmount",
          "type": "uint256"
        }
      ],
      "name": "LoanCovered",
      "type": "event"
    },
    {
      "anonymous": false,
      "inputs": [
        {
          "indexed": true,
          "internalType": "uint256",
          "name": "requisitionId",
          "type": "uint256"
        }
      ],
      "name": "LoanFunded",
      "type": "event"
    },
    {
      "anonymous": false,
      "inputs": [
        {
          "indexed": true,
          "internalType": "uint256",
          "name": "requisitionId",
          "type": "uint256"
        },
        {
          "indexed": true,
          "internalType": "address",
          "name": "borrower",
          "type": "address"
        },
        {
          "indexed": false,
          "internalType": "uint256",
          "name": "totalUncoveredAmount",
          "type": "uint256"
        }
      ],
      "name": "LoanRequisitionCancelled",
      "type": "event"
    },
    {
      "anonymous": false,
      "inputs": [
        {
          "indexed": true,
          "internalType": "uint256",
          "name": "requisitionId",
          "type": "uint256"
        },
        {
          "indexed": true,
          "internalType": "address",
          "name": "borrower",
          "type": "address"
        },
        {
          "indexed": false,
          "internalType": "uint256",
          "name": "amount",
          "type": "uint256"
        },
        {
          "indexed": false,
          "internalType": "uint32",
          "name": "parcelsCount",
          "type": "uint32"
        }
      ],
      "name": "LoanRequisitionCreated",
      "type": "event"
    },
    {
      "anonymous": false,
      "inputs": [
        {
          "indexed": true,
          "internalType": "uint256",
          "name": "requisitionId",
          "type": "uint256"
        },
        {
          "indexed": true,
          "internalType": "address",
          "name": "lender",
          "type": "address"
        },
        {
          "indexed": false,
          "internalType": "uint256",
          "name": "amountReturnedToLender",
          "type": "uint256"
        }
      ],
      "name": "LoanUncovered",
      "type": "event"
    },
    {
      "anonymous": false,
      "inputs": [
        {
          "indexed": true,
          "internalType": "address",
          "name": "borrower",
          "type": "address"
        }
      ],
      "name": "NewBorrower",
      "type": "event"
    },
    {
      "anonymous": false,
      "inputs": [
        {
          "indexed": true,
          "internalType": "address",
          "name": "donor",
          "type": "address"
        }
      ],
      "name": "NewDonor",
      "type": "event"
    },
    {
      "anonymous": false,
      "inputs": [
        {
          "indexed": true,
          "internalType": "uint256",
          "name": "requisitionId",
          "type": "uint256"
        },
        {
          "indexed": false,
          "internalType": "uint256",
          "name": "parcelsRemaining",
          "type": "uint256"
        }
      ],
      "name": "ParcelPaid",
      "type": "event"
    },
    {
      "anonymous": false,
      "inputs": [
        {
          "indexed": false,
          "internalType": "uint256",
          "name": "itemsChecked",
          "type": "uint256"
        },
        {
          "indexed": false,
          "internalType": "uint256",
          "name": "nextIndex",
          "type": "uint256"
        }
      ],
      "name": "PeriodicCheckRun",
      "type": "event"
    },
    {
      "anonymous": false,
      "inputs": [
        {
          "indexed": true,
          "internalType": "address",
          "name": "borrower",
          "type": "address"
        },
        {
          "indexed": false,
          "internalType": "uint256",
          "name": "amount",
          "type": "uint256"
        },
        {
          "indexed": false,
          "internalType": "uint256",
          "name": "remainingDebt",
          "type": "uint256"
        }
      ],
      "name": "Repaid",
      "type": "event"
    },
    {
      "anonymous": false,
      "inputs": [
        {
          "indexed": false,
          "internalType": "uint256",
          "name": "total",
          "type": "uint256"
        }
      ],
      "name": "TotalBorrowedUpdated",
      "type": "event"
    },
    {
      "anonymous": false,
      "inputs": [
        {
          "indexed": false,
          "internalType": "uint256",
          "name": "total",
          "type": "uint256"
        }
      ],
      "name": "TotalDonationsUpdated",
      "type": "event"
    },
    {
      "anonymous": false,
      "inputs": [
        {
          "indexed": true,
          "internalType": "address",
          "name": "donor",
          "type": "address"
        },
        {
          "indexed": false,
          "internalType": "uint256",
          "name": "amount",
          "type": "uint256"
        },
        {
          "indexed": false,
          "internalType": "uint256",
          "name": "donations",
          "type": "uint256"
        }
      ],
      "name": "Withdrawn",
      "type": "event"
    },
    {
      "inputs": [],
      "name": "CHECK_INTERVAL",
      "outputs": [
        {
          "internalType": "uint256",
          "name": "",
          "type": "uint256"
        }
      ],
      "stateMutability": "view",
      "type": "function"
    },
    {
      "inputs": [
        {
          "internalType": "address",
          "name": "",
          "type": "address"
        },
        {
          "internalType": "uint256",
          "name": "",
          "type": "uint256"
        }
      ],
      "name": "borrowerRequisitions",
      "outputs": [
        {
          "internalType": "uint256",
          "name": "",
          "type": "uint256"
        }
      ],
      "stateMutability": "view",
      "type": "function"
    },
    {
      "inputs": [
        {
          "internalType": "uint256",
          "name": "requisitionId",
          "type": "uint256"
        },
        {
          "internalType": "address",
          "name": "borrower",
          "type": "address"
        }
      ],
      "name": "canPayRequisition",
      "outputs": [
        {
          "internalType": "bool",
          "name": "",
          "type": "bool"
        }
      ],
      "stateMutability": "view",
      "type": "function"
    },
    {
      "inputs": [
        {
          "internalType": "address",
          "name": "_user",
          "type": "address"
        },
        {
          "internalType": "uint256",
          "name": "_amount",
          "type": "uint256"
        }
      ],
      "name": "canUserBorrow",
      "outputs": [
        {
          "internalType": "bool",
          "name": "",
          "type": "bool"
        }
      ],
      "stateMutability": "view",
      "type": "function"
    },
    {
      "inputs": [
        {
          "internalType": "uint256",
          "name": "requisitionId",
          "type": "uint256"
        },
        {
          "internalType": "uint32",
          "name": "memberId",
          "type": "uint32"
        }
      ],
      "name": "cancelLoanRequisition",
      "outputs": [
        {
          "internalType": "uint256",
          "name": "totalUncoveredAmount",
          "type": "uint256"
        }
      ],
      "stateMutability": "nonpayable",
      "type": "function"
    },
    {
      "inputs": [
        {
          "internalType": "uint256",
          "name": "requisitionId",
          "type": "uint256"
        },
        {
          "internalType": "uint32",
          "name": "coveragePercentage",
          "type": "uint32"
        },
        {
          "internalType": "uint32",
          "name": "memberId",
          "type": "uint32"
        }
      ],
      "name": "coverLoan",
      "outputs": [],
      "stateMutability": "nonpayable",
      "type": "function"
    },
    {
      "inputs": [
        {
          "internalType": "uint256",
          "name": "amount",
          "type": "uint256"
        },
        {
          "internalType": "uint32",
          "name": "minimumCoverage",
          "type": "uint32"
        },
        {
          "internalType": "uint32",
          "name": "parcelscount",
          "type": "uint32"
        },
        {
          "internalType": "uint32",
          "name": "memberId",
          "type": "uint32"
        }
      ],
      "name": "createLoanRequisition",
      "outputs": [
        {
          "internalType": "uint256",
          "name": "",
          "type": "uint256"
        }
      ],
      "stateMutability": "nonpayable",
      "type": "function"
    },
    {
      "inputs": [
        {
          "internalType": "uint256",
          "name": "",
          "type": "uint256"
        }
      ],
      "name": "debtWatchlist",
      "outputs": [
        {
          "internalType": "uint256",
          "name": "requisitionId",
          "type": "uint256"
        },
        {
          "internalType": "address",
          "name": "borrower",
          "type": "address"
        },
        {
          "internalType": "uint256",
          "name": "nextDueDate",
          "type": "uint256"
        },
        {
          "internalType": "bool",
          "name": "isOverdue",
          "type": "bool"
        }
      ],
      "stateMutability": "view",
      "type": "function"
    },
    {
      "inputs": [
        {
          "internalType": "uint256",
          "name": "amount",
          "type": "uint256"
        },
        {
          "internalType": "uint32",
          "name": "memberId",
          "type": "uint32"
        }
      ],
      "name": "donate",
      "outputs": [],
      "stateMutability": "nonpayable",
      "type": "function"
    },
    {
      "inputs": [
        {
          "internalType": "address",
          "name": "borrower",
          "type": "address"
        }
      ],
      "name": "getActiveLoans",
      "outputs": [
        {
          "components": [
            {
              "internalType": "address",
              "name": "walletAddress",
              "type": "address"
            },
            {
              "internalType": "uint256",
              "name": "requisitionId",
              "type": "uint256"
            },
            {
              "internalType": "enum ILoanMachine.ContractStatus",
              "name": "status",
              "type": "uint8"
            },
            {
              "internalType": "uint32",
              "name": "parcelsCount",
              "type": "uint32"
            },
            {
              "internalType": "uint32",
              "name": "parcelsPending",
              "type": "uint32"
            },
            {
              "internalType": "uint256",
              "name": "parcelsValues",
              "type": "uint256"
            },
            {
              "internalType": "uint256[]",
              "name": "paymentDates",
              "type": "uint256[]"
            },
            {
              "internalType": "uint256[]",
              "name": "parcelsAmounts",
              "type": "uint256[]"
            },
            {
              "internalType": "uint256",
              "name": "creationTime",
              "type": "uint256"
            }
          ],
          "internalType": "struct ILoanMachine.LoanContract[]",
          "name": "activeLoans",
          "type": "tuple[]"
        },
        {
          "internalType": "uint256[]",
          "name": "requisitionIds",
          "type": "uint256[]"
        }
      ],
      "stateMutability": "view",
      "type": "function"
    },
    {
      "inputs": [
        {
          "internalType": "address",
          "name": "user",
          "type": "address"
        }
      ],
      "name": "getAllowance",
      "outputs": [
        {
          "internalType": "uint256",
          "name": "",
          "type": "uint256"
        }
      ],
      "stateMutability": "view",
      "type": "function"
    },
    {
      "inputs": [],
      "name": "getAvailableBalance",
      "outputs": [
        {
          "internalType": "uint256",
          "name": "",
          "type": "uint256"
        }
      ],
      "stateMutability": "view",
      "type": "function"
    },
    {
      "inputs": [],
      "name": "getAvailableBorrowAmount",
      "outputs": [
        {
          "internalType": "uint256",
          "name": "",
          "type": "uint256"
        }
      ],
      "stateMutability": "view",
      "type": "function"
    },
    {
      "inputs": [
        {
          "internalType": "address",
          "name": "borrower",
          "type": "address"
        }
      ],
      "name": "getBorrowerRequisitions",
      "outputs": [
        {
          "internalType": "uint256[]",
          "name": "",
          "type": "uint256[]"
        }
      ],
      "stateMutability": "view",
      "type": "function"
    },
    {
      "inputs": [
        {
          "internalType": "address",
          "name": "_user",
          "type": "address"
        }
      ],
      "name": "getBorrowing",
      "outputs": [
        {
          "internalType": "uint256",
          "name": "",
          "type": "uint256"
        }
      ],
      "stateMutability": "view",
      "type": "function"
    },
    {
      "inputs": [],
      "name": "getContractBalance",
      "outputs": [
        {
          "internalType": "uint256",
          "name": "",
          "type": "uint256"
        }
      ],
      "stateMutability": "view",
      "type": "function"
    },
    {
      "inputs": [
        {
          "internalType": "uint256",
          "name": "requisitionId",
          "type": "uint256"
        }
      ],
      "name": "getCoveringLenders",
      "outputs": [
        {
          "internalType": "address[]",
          "name": "",
          "type": "address[]"
        }
      ],
      "stateMutability": "view",
      "type": "function"
    },
    {
      "inputs": [],
      "name": "getDebtWatchlist",
      "outputs": [
        {
          "components": [
            {
              "internalType": "uint256",
              "name": "requisitionId",
              "type": "uint256"
            },
            {
              "internalType": "address",
              "name": "borrower",
              "type": "address"
            },
            {
              "internalType": "uint256",
              "name": "nextDueDate",
              "type": "uint256"
            },
            {
              "internalType": "bool",
              "name": "isOverdue",
              "type": "bool"
            }
          ],
          "internalType": "struct LoanMachine.DebtWatchItem[]",
          "name": "",
          "type": "tuple[]"
        }
      ],
      "stateMutability": "view",
      "type": "function"
    },
    {
      "inputs": [
        {
          "internalType": "address",
          "name": "_user",
          "type": "address"
        }
      ],
      "name": "getDonation",
      "outputs": [
        {
          "internalType": "uint256",
          "name": "",
          "type": "uint256"
        }
      ],
      "stateMutability": "view",
      "type": "function"
    },
    {
      "inputs": [
        {
          "internalType": "address",
          "name": "lender",
          "type": "address"
        }
      ],
      "name": "getDonationsInCoverage",
      "outputs": [
        {
          "internalType": "uint256",
          "name": "",
          "type": "uint256"
        }
      ],
      "stateMutability": "view",
      "type": "function"
    },
    {
      "inputs": [
        {
          "internalType": "address",
          "name": "_user",
          "type": "address"
        }
      ],
      "name": "getLastBorrowTime",
      "outputs": [
        {
          "internalType": "uint256",
          "name": "",
          "type": "uint256"
        }
      ],
      "stateMutability": "view",
      "type": "function"
    },
    {
      "inputs": [
        {
          "internalType": "uint256",
          "name": "requisitionId",
          "type": "uint256"
        },
        {
          "internalType": "address",
          "name": "lender",
          "type": "address"
        }
      ],
      "name": "getLenderCoverage",
      "outputs": [
        {
          "internalType": "uint256",
          "name": "",
          "type": "uint256"
        }
      ],
      "stateMutability": "view",
      "type": "function"
    },
    {
      "inputs": [
        {
          "internalType": "uint256",
          "name": "requisitionId",
          "type": "uint256"
        }
      ],
      "name": "getLoanContract",
      "outputs": [
        {
          "components": [
            {
              "internalType": "address",
              "name": "walletAddress",
              "type": "address"
            },
            {
              "internalType": "uint256",
              "name": "requisitionId",
              "type": "uint256"
            },
            {
              "internalType": "enum ILoanMachine.ContractStatus",
              "name": "status",
              "type": "uint8"
            },
            {
              "internalType": "uint32",
              "name": "parcelsCount",
              "type": "uint32"
            },
            {
              "internalType": "uint32",
              "name": "parcelsPending",
              "type": "uint32"
            },
            {
              "internalType": "uint256",
              "name": "parcelsValues",
              "type": "uint256"
            },
            {
              "internalType": "uint256[]",
              "name": "paymentDates",
              "type": "uint256[]"
            },
            {
              "internalType": "uint256[]",
              "name": "parcelsAmounts",
              "type": "uint256[]"
            },
            {
              "internalType": "uint256",
              "name": "creationTime",
              "type": "uint256"
            }
          ],
          "internalType": "struct ILoanMachine.LoanContract",
          "name": "",
          "type": "tuple"
        }
      ],
      "stateMutability": "view",
      "type": "function"
    },
    {
      "inputs": [
        {
          "internalType": "address",
          "name": "wallet",
          "type": "address"
        }
      ],
      "name": "getMemberId",
      "outputs": [
        {
          "internalType": "uint32",
          "name": "",
          "type": "uint32"
        }
      ],
      "stateMutability": "view",
      "type": "function"
    },
    {
      "inputs": [
        {
          "internalType": "uint256",
          "name": "requisitionId",
          "type": "uint256"
        }
      ],
      "name": "getNextPaymentAmount",
      "outputs": [
        {
          "internalType": "uint256",
          "name": "paymentAmount",
          "type": "uint256"
        },
        {
          "internalType": "bool",
          "name": "canPay",
          "type": "bool"
        }
      ],
      "stateMutability": "view",
      "type": "function"
    },
    {
      "inputs": [
        {
          "internalType": "uint256",
          "name": "requisitionId",
          "type": "uint256"
        }
      ],
      "name": "getPaymentDates",
      "outputs": [
        {
          "internalType": "uint256[]",
          "name": "",
          "type": "uint256[]"
        }
      ],
      "stateMutability": "view",
      "type": "function"
    },
    {
      "inputs": [
        {
          "internalType": "uint256",
          "name": "requisitionId",
          "type": "uint256"
        }
      ],
      "name": "getRepaymentSummary",
      "outputs": [
        {
          "internalType": "uint256",
          "name": "totalRemainingDebt",
          "type": "uint256"
        },
        {
          "internalType": "uint256",
          "name": "nextPaymentAmount",
          "type": "uint256"
        },
        {
          "internalType": "uint256",
          "name": "parcelsRemaining",
          "type": "uint256"
        },
        {
          "internalType": "uint256",
          "name": "totalParcels",
          "type": "uint256"
        },
        {
          "internalType": "bool",
          "name": "isActive",
          "type": "bool"
        }
      ],
      "stateMutability": "view",
      "type": "function"
    },
    {
      "inputs": [
        {
          "internalType": "uint32",
          "name": "memberId",
          "type": "uint32"
        }
      ],
      "name": "getReputation",
      "outputs": [
        {
          "internalType": "int32",
          "name": "",
          "type": "int32"
        }
      ],
      "stateMutability": "view",
      "type": "function"
    },
    {
      "inputs": [
        {
          "internalType": "uint256",
          "name": "requisitionId",
          "type": "uint256"
        }
      ],
      "name": "getRequisitionInfo",
      "outputs": [
        {
          "components": [
            {
              "internalType": "uint256",
              "name": "requisitionId",
              "type": "uint256"
            },
            {
              "internalType": "address",
              "name": "borrower",
              "type": "address"
            },
            {
              "internalType": "uint256",
              "name": "amount",
              "type": "uint256"
            },
            {
              "internalType": "uint32",
              "name": "minimumCoverage",
              "type": "uint32"
            },
            {
              "internalType": "uint32",
              "name": "currentCoverage",
              "type": "uint32"
            },
            {
              "internalType": "enum ILoanMachine.BorrowStatus",
              "name": "status",
              "type": "uint8"
            },
            {
              "internalType": "uint256",
              "name": "creationTime",
              "type": "uint256"
            },
            {
              "internalType": "address[]",
              "name": "coveringLenders",
              "type": "address[]"
            },
            {
              "internalType": "uint32",
              "name": "parcelsCount",
              "type": "uint32"
            }
          ],
          "internalType": "struct ILoanMachine.RequisitionInfo",
          "name": "",
          "type": "tuple"
        }
      ],
      "stateMutability": "view",
      "type": "function"
    },
    {
      "inputs": [],
      "name": "getTotalBorrowed",
      "outputs": [
        {
          "internalType": "uint256",
          "name": "",
          "type": "uint256"
        }
      ],
      "stateMutability": "view",
      "type": "function"
    },
    {
      "inputs": [],
      "name": "getTotalDonations",
      "outputs": [
        {
          "internalType": "uint256",
          "name": "",
          "type": "uint256"
        }
      ],
      "stateMutability": "view",
      "type": "function"
    },
    {
      "inputs": [],
      "name": "getUSDTBalance",
      "outputs": [
        {
          "internalType": "uint256",
          "name": "",
          "type": "uint256"
        }
      ],
      "stateMutability": "view",
      "type": "function"
    },
    {
      "inputs": [
        {
          "internalType": "address",
          "name": "user",
          "type": "address"
        }
      ],
      "name": "getWithdrawableBalance",
      "outputs": [
        {
          "internalType": "uint256",
          "name": "",
          "type": "uint256"
        }
      ],
      "stateMutability": "view",
      "type": "function"
    },
    {
      "inputs": [
        {
          "internalType": "uint256",
          "name": "requisitionId",
          "type": "uint256"
        }
      ],
      "name": "isBorrowerOverdue",
      "outputs": [
        {
          "internalType": "bool",
          "name": "",
          "type": "bool"
        }
      ],
      "stateMutability": "view",
      "type": "function"
    },
    {
      "inputs": [
        {
          "internalType": "address",
          "name": "wallet",
          "type": "address"
        }
      ],
      "name": "isWalletVinculated",
      "outputs": [
        {
          "internalType": "bool",
          "name": "",
          "type": "bool"
        }
      ],
      "stateMutability": "view",
      "type": "function"
    },
    {
      "inputs": [],
      "name": "lastPeriodicCheckTimestamp",
      "outputs": [
        {
          "internalType": "uint256",
          "name": "",
          "type": "uint256"
        }
      ],
      "stateMutability": "view",
      "type": "function"
    },
    {
      "inputs": [
        {
          "internalType": "uint256",
          "name": "",
          "type": "uint256"
        }
      ],
      "name": "loanContracts",
      "outputs": [
        {
          "internalType": "address",
          "name": "walletAddress",
          "type": "address"
        },
        {
          "internalType": "uint256",
          "name": "requisitionId",
          "type": "uint256"
        },
        {
          "internalType": "enum ILoanMachine.ContractStatus",
          "name": "status",
          "type": "uint8"
        },
        {
          "internalType": "uint32",
          "name": "parcelsCount",
          "type": "uint32"
        },
        {
          "internalType": "uint32",
          "name": "parcelsPending",
          "type": "uint32"
        },
        {
          "internalType": "uint256",
          "name": "parcelsValues",
          "type": "uint256"
        },
        {
          "internalType": "uint256",
          "name": "creationTime",
          "type": "uint256"
        }
      ],
      "stateMutability": "view",
      "type": "function"
    },
    {
      "inputs": [],
      "name": "nextCheckIndex",
      "outputs": [
        {
          "internalType": "uint256",
          "name": "",
          "type": "uint256"
        }
      ],
      "stateMutability": "view",
      "type": "function"
    },
    {
      "inputs": [
        {
          "internalType": "uint256",
          "name": "batchSize",
          "type": "uint256"
        }
      ],
      "name": "performPeriodicDebtCheck",
      "outputs": [],
      "stateMutability": "nonpayable",
      "type": "function"
    },
    {
      "inputs": [
        {
          "internalType": "uint256",
          "name": "requisitionId",
          "type": "uint256"
        },
        {
          "internalType": "uint256",
          "name": "amount",
          "type": "uint256"
        },
        {
          "internalType": "uint32",
          "name": "memberId",
          "type": "uint32"
        }
      ],
      "name": "repay",
      "outputs": [],
      "stateMutability": "nonpayable",
      "type": "function"
    },
    {
      "inputs": [],
      "name": "reputationSystem",
      "outputs": [
        {
          "internalType": "contract ReputationSystem",
          "name": "",
          "type": "address"
        }
      ],
      "stateMutability": "view",
      "type": "function"
    },
    {
      "inputs": [],
      "name": "requisitionCounter",
      "outputs": [
        {
          "internalType": "uint256",
          "name": "",
          "type": "uint256"
        }
      ],
      "stateMutability": "view",
      "type": "function"
    },
    {
      "inputs": [],
      "name": "usdtToken",
      "outputs": [
        {
          "internalType": "address",
          "name": "",
          "type": "address"
        }
      ],
      "stateMutability": "view",
      "type": "function"
    },
    {
      "inputs": [
        {
          "internalType": "uint32",
          "name": "memberId",
          "type": "uint32"
        },
        {
          "internalType": "address",
          "name": "wallet",
          "type": "address"
        }
      ],
      "name": "vinculationMemberToWallet",
      "outputs": [],
      "stateMutability": "nonpayable",
      "type": "function"
    },
    {
      "inputs": [
        {
          "internalType": "uint256",
          "name": "amount",
          "type": "uint256"
        },
        {
          "internalType": "uint32",
          "name": "memberId",
          "type": "uint32"
        }
      ],
      "name": "withdraw",
      "outputs": [],
      "stateMutability": "nonpayable",
      "type": "function"
    }
  ],
  "bytecode": "0x60a034620000c957601f6200384d38819003918201601f19168301916001600160401b03831184841017620000ce578084926040948552833981010312620000c9576200005a60206200005283620000e4565b9201620000e4565b60016000819055600d81905560809290925281546001600160a01b0319166001600160a01b039091161790556040516137539081620000fa82396080518181816106bf01528181610d7801528181610e8a015281816111fe015281816115aa01528181611ef10152612fd10152f35b600080fd5b634e487b7160e01b600052604160045260246000fd5b51906001600160a01b0382168203620000c95756fe608080604052600436101561001357600080fd5b600090813560e01c9081630307c4a114612de65750806303d1a1a114612b3e578063140c9ac4146128ae5780631766ec87146126565780631b70ba3e146124bd57806321bb31e41461243e578063232869fa146123ba578063291c31a714611d3c5780632b31c022146122e75780632f3b1458146121c5578063383ab2ef1461217d578063410a1d32146121445780634e51c7df146120fa57806350c9677f146120dc57806355c67616146120be578063598a562a1461203f5780636145d1b714611e435780636509a71014611e16578063657eb03114611ddd5780636587eda114611db45780636ea33ceb14611d965780636f9fb98a14611381578063777c658f14611d785780637d52437a14611d41578063809dab6a14611d3c57806381db228414611cb6578063827cc0e514611c7d578063843592d314611c5157806384ddf5ea14611c335780638a914a6314611bf15780639059f9ca146113eb5780639730872a146113865780639785fac81461138157806397c33519146112ac5780639e93201114611256578063a4aace0f1461122d578063a98ad46c146111e8578063adceb10114611148578063be5eb5801461110f578063be7df8ed146110ab578063c269014b14611027578063e276392414610e1a578063e5a0bde414610dee578063eb5a662e14610d2f5763ecb18b341461021057600080fd5b34610d2c576060366003190112610d2c57610229612f10565b63ffffffff610236612f23565b169081158015610cc1575b610caf5763ffffffff8116158015610c9f575b610c8d57600963ffffffff82161115610c7b5761026f613229565b6004358352600c60205260408320916003830192835460ff8160401c166007811015610c67578015159081610c5b575b50610c49576102bc60649163ffffffff8087169160201c166130ab565b11610c37576102d563ffffffff84166002830154613494565b93670de0b6b3a764000094858102958187041490151715610c235768056bc75e2d630fffff8501809511610bfb57338652600660205268056bc75e2d631000008504604087205410610c115733865260066020526040862061034368056bc75e2d63100000870482546133e9565b9055338652600f6020526040862061036768056bc75e2d63100000870482546130ab565b9055805463ffffffff851663ffffffff8260201c160163ffffffff8111610bfb5767ffffffff000000009060201b169067ffffffff00000000191617815560078201336000528060205260406000205415610ba3575b3360005260205260406000206103df68056bc75e2d63100000870482546130ab565b9055805463ffffffff811663ffffffff8260201c161015600014610b8e5750805460ff60401b19166802000000000000000017905560018054910154604051634698c2d560e01b81526001600160a01b0391821660048201529160209183916024918391165afa8015610b835763ffffffff918691610b54575b5016845260106020526040842063ffffffff1981541690556004358452601260205260408420600c602052604085209060018060a01b036001830154166001600160601b0360a01b825416178155600435600182015563ffffffff6002808301549360ff19851682850155600881019464ffffffff00865460081b169064ffffffffff1916178285015561050d838654168386019063ffffffff60281b82549160281b169063ffffffff60281b1916179055565b42600685015501549254169161052383826134a7565b8315610b4057610532846134e3565b91885b858110610aee5750506003830155865b8363ffffffff821610610a77575060018060a01b0382541687526011602052600435604088205560018060a01b038254166002830154907f55939e2a4adb2163c21eb3bb2c850e8e82136aed8a9e5971f705f1188d05865e60038501549260068601549363ffffffff604051926105bf8460ff8316612e2e565b60281c166020830152604082015260a060608201526105e460a0820160048801613529565b93608082015280600435940390a3865b838110610a5257505050506004358452600c6020526040842060018060a01b036001820154169060028101548287526007602052610637604088209182546130ab565b90556106496002820154600a546130ab565b600a5561065c6002820154600b546133e9565b600b5581865260086020908152604080882042905560038301805460ff60401b1916680300000000000000001790556002830154905163a9059cbb60e01b81526001600160a01b038516600482015260248101919091529081806044810103818a7f00000000000000000000000000000000000000000000000000000000000000006001600160a01b03165af1908115610a47578791610a18575b5015610a065760043586526012602052600460408720018054156109f057600052602060002054600254600435885260036020528060408920556040519161073e836132c6565b6004358352602083018581526040840191825260608401928a8452600160401b8110156109dc578060016107759201600255613061565b9490946109c8579360036002947feae9cfbc77fdd40ca899f36b608256063b2bc9d8178b0220f7ad513e178d673097946107ea94604098518555600185019060018060a01b039051166001600160601b0360a01b825416179055518684015551151591019060ff801983541691151516179055565b015483885260076020528188205482519182526020820152a27f17f13fd3f7c4712af33f1770ebcb822dd20a2dbc00850eab48d786623d97b9596020600a54604051908152a16000805160206136fe8339815191526020600b54604051908152a16004357f9e71d2fb732e68272b7e74ecfd14638673c1d77e19a5d390a3ffff054d57c44b8580a25b600154604051636adf462560e11b81526001600160a01b0390911692602082600481875afa9182156109bd578692610986575b5063ffffffff1660030b9060030b028060030b9081036109725790829185933b1561096e576064849283600a95604051968795869463533dfa3560e01b865260048601520560030b6024840152600160448401525af180156109635761094b575b505068056bc75e2d631000006040519104815233907f86b47e6e6c03d769c0bc5ffd06c682ea7d07089576d59230ec18ff64e71bffe7602060043592a36001815580f35b610954906132b2565b61095f578138610907565b5080fd5b6040513d84823e3d90fd5b8380fd5b634e487b7160e01b85526011600452602485fd5b63ffffffff9192506109af9060203d6020116109b6575b6109a781836132e2565b810190613431565b91906108a6565b503d61099d565b6040513d88823e3d90fd5b634e487b7160e01b8b5260048b905260248bfd5b634e487b7160e01b8b52604160045260248bfd5b634e487b7160e01b600052603260045260246000fd5b604051637a97d71f60e01b8152600490fd5b610a3a915060203d602011610a40575b610a3281836132e2565b8101906133a5565b386106f7565b503d610a28565b6040513d89823e3d90fd5b80610a6d610a63610a729385613515565b516005860161344a565b6130b8565b6105f4565b63ffffffff610a858261347f565b1662278d009080820291820403610ada5790610ab2610aa963ffffffff93426130ab565b6004860161344a565b1663ffffffff8114610ac657600101610545565b634e487b7160e01b88526011600452602488fd5b634e487b7160e01b89526011600452602489fd5b858206811015610b315760018301808411610b1d5790610b1891610b128287613515565b526130b8565b610535565b634e487b7160e01b8b52601160045260248bfd5b8083610b12610b189387613515565b634e487b7160e01b88526012600452602488fd5b610b76915060203d602011610b7c575b610b6e81836132e2565b8101906134c7565b38610459565b503d610b64565b6040513d87823e3d90fd5b60ff60401b1916600160401b17905550610873565b60068301805490600160401b821015610be75790610bc691600182018155613049565b81546001600160a01b0360039290921b91821b19163390911b1790556103bd565b634e487b7160e01b89526041600452602489fd5b634e487b7160e01b600052601160045260246000fd5b604051636044d4dd60e01b8152600490fd5b634e487b7160e01b86526011600452602486fd5b6040516311d9355160e01b8152600490fd5b60405163393e690960e11b8152600490fd5b6001915014153861029f565b634e487b7160e01b87526021600452602487fd5b6040516307314f9160e21b8152600490fd5b604051632819760f60e01b8152600490fd5b50606463ffffffff821611610254565b60405163584daf2560e01b8152600490fd5b50600154604051632cc52b1560e11b815233600482015290602090829060249082906001600160a01b03165afa908115610d21578491610d03575b5015610241565b610d1b915060203d8111610a4057610a3281836132e2565b38610cfc565b6040513d86823e3d90fd5b80fd5b5034610d2c5760209081600319360112610d2c57604482610d4e612e02565b604051636eb1769f60e11b81526001600160a01b03918216600482015230602482015292839182907f0000000000000000000000000000000000000000000000000000000000000000165afa918215610de25791610db0575b50604051908152f35b90508181813d8311610ddb575b610dc781836132e2565b81010312610dd6575138610da7565b600080fd5b503d610dbd565b604051903d90823e3d90fd5b5034610d2c576020366003190112610d2c57610e08613229565b610e136004356130c7565b6001815580f35b5034610d2c576040366003190112610d2c5760043563ffffffff610e3c612f10565b16158015610fbc575b610caf578015610fab57610e57613229565b6040516323b872dd60e01b8152336004820152306024820152604481018290526020908181606481876001600160a01b037f0000000000000000000000000000000000000000000000000000000000000000165af1908115610d21578491610f8e575b5015610a06576000805160206136fe8339815191529033845260068152604084207fdc6e73d4b36e22ab95945bd8833a5af96c950eb29d8d75c4aecffc987637aaab8282549580870184558060095401908160095580600b54019485600b5554604051918252838201527f4928895ba6723e8e27b15f32e4c3054a1b6c7f8c03f133558d6fa42b3928d14c60403392a2604051908152a1604051908152a115610f64576001815580f35b337f072dafb6aabe3f02118bc607efbeaaa104d6b2009720c7b130f24ba418689c4b8280a2610e13565b610fa59150823d8411610a4057610a3281836132e2565b38610eba565b60405162d84c0f60e41b8152600490fd5b50600154604051632cc52b1560e11b815233600482015290602090829060249082906001600160a01b03165afa90811561101c578391610ffe575b5015610e45565b611016915060203d8111610a4057610a3281836132e2565b38610ff7565b6040513d85823e3d90fd5b5034610d2c576020366003190112610d2c57611041612e02565b60015460405163c269014b60e01b81526001600160a01b0392831660048201529160209183916024918391165afa908115610963576020929161108e575b5063ffffffff60405191168152f35b6110a59150823d8111610b7c57610b6e81836132e2565b3861107f565b5034610d2c576020366003190112610d2c5760043590600254821015610d2c5760806110d683613061565b5080549060018060a01b036001820154169060ff6003600283015492015416916040519384526020840152604083015215156060820152f35b5034610d2c576020366003190112610d2c576020906040906001600160a01b03611137612e02565b168152600783522054604051908152f35b5034610d2c576040366003190112610d2c57611162612e18565b600435825260126020526040822080546001600160a01b0392831692169190911490816111b6575b602092508161119f575b506040519015158152f35b63ffffffff91506002015460281c16151538611194565b905060ff60028201541660038110156111d45760209250159061118a565b634e487b7160e01b83526021600452602483fd5b5034610d2c5780600319360112610d2c576040517f00000000000000000000000000000000000000000000000000000000000000006001600160a01b03168152602090f35b5034610d2c576020366003190112610d2c57602061124c60043561331c565b6040519015158152f35b5034610d2c576040366003190112610d2c57611270612e02565b6001600160a01b03168152600e6020526040812080546024359290831015610d2c57602061129e8484613049565b90546040519160031b1c8152f35b5034610d2c576040366003190112610d2c576020906112c9612e02565b90602435918215159283611374575b5082611339575b826112f1575b50506040519015158152f35b6001600160a01b03168082526008845260408220549092506113129061309b565b4211918215611325575b505038806112e5565b60409250815260078352205415388061131c565b6001600160a01b0381168252600684526040822054909250620f424011801590611364575b916112df565b506007835260408120541561135e565b600b5410159250386112d8565b612fa4565b5034610d2c576020366003190112610d2c576113e7906113cc906113d3906040906001600160a01b036113b7612e02565b168152600e6020522060405192838092613529565b03826132e2565b604051918291602083526020830190612e51565b0390f35b5034610d2c576060366003190112610d2c5763ffffffff61140a612f23565b1680158015611b91575b610caf5760043582526012602052604082203383526007602052604083205415611b6b578054336001600160a01b0390911603611b6b576002015460ff81166003811015611b7d57611b6b5760281c63ffffffff1615611b6b57611476613229565b60243515610fab5760043582526012602052604082206114b56114ac600283015463ffffffff808260281c169160081c166133d3565b60048301613049565b90549060031b1c60043584526003602052836114d46040822054613061565b5093824211600014611a735760015460405163a5118bf160e01b81526001600160a01b039091169190602081600481865afa908115610d21578491611a54575b50823b1561096e576064849283604051958694859363533dfa3560e01b8552600485015260030b60248401528160448401525af1801561096357611a40575b505060038301805460ff8116156119fe575b5050505b600381015460243503610fab576040516323b872dd60e01b815233600482015230602480830191909152356044820152602081606481876001600160a01b037f0000000000000000000000000000000000000000000000000000000000000000165af1908115610d215784916119df575b5015610a06573383526007602052604083206115f960243582546133e9565b9055611609602435600a546133e9565b600a5561161a602435600b546130ab565b600b556004358352600c6020526040832090600282015490845b600684015481101561170f57806116516116929260068701613049565b60018060a01b0391549060031b1c16806000526007860160205261168585611680604060002054602435613494565b6134a7565b80611697575b50506130b8565b611634565b818952600f602052604089208054808311611707575b826116b7916133e9565b90558189526006602052604089206116d08282546130ab565b90556040519081527fe3e6ae1e05f069d410556743894aacbb190c1431962422ebe8fcc642a467dd16602060043592a3388061168b565b9150816116ad565b85828661174f61172b63ffffffff600285015460281c166133bd565b600284019063ffffffff60281b82549160281b169063ffffffff60281b1916179055565b600282015463ffffffff8160281c169081156000146119a157505050600260ff1981830154161760028201556004357f02ca5489b37dd363d1302bac719e8ee40e540ffbe8c12253570fea63e11cad718380a2600435825260036020526040822054600254600019919082810190811161097257808203611903575b505060025480156118ef57016117e081613061565b6118db579160029184600385600063ffffffff97558260018201556000868201550155825560043584526003602052600060408520555b3384526007602052604084205460405190602435825260208201527f1b8cd61ed43bec7c6bdad3a18ffee613f99c853d16c50678d248d879e1b4343860403392a2015460281c166040519081527f406356ef25520b09e2ef87c5225167b4161ea4ab691e9434d6ee29eafcc83fc2602060043592a27f17f13fd3f7c4712af33f1770ebcb822dd20a2dbc00850eab48d786623d97b9596020600a54604051908152a16000805160206136fe8339815191526020600b54604051908152a16001815580f35b634e487b7160e01b84526004849052602484fd5b634e487b7160e01b84526031600452602484fd5b61190c90613061565b5061191682613061565b61198d57818103611937575b505484526003602052604084205583806117cb565b61198790825481556001810160018060a01b036001850154166001600160601b0360a01b82541617905560028301546002820155600360ff818501541691019060ff801983541691151516179055565b85611922565b634e487b7160e01b86526004869052602486fd5b6002926119c76119be63ffffffff96948760039560081c166133d3565b60048501613049565b905490831b1c8185015501805460ff19169055611817565b6119f8915060203d602011610a4057610a3281836132e2565b386115da565b60019060ff191617905560405190815233907fcf08cfd581ae48e3e5053c3ddad657750a872d827972a57ca253b1ab4748b0bc602060043592a3388080611565565b611a49906132b2565b61096e578338611553565b611a6d915060203d6020116109b6576109a781836132e2565b38611514565b600154604051634e5ecf1360e01b81529293506001600160a01b031691602081600481865afa908115610d21578491611b4c575b50823b1561096e576064849283604051958694859363533dfa3560e01b8552600485015260030b6024840152600160448401525af1801561096357611b34575b505060038201805460ff8116611aff575b5050611569565b60ff19169055336004357fedc092ccdf255fa12deee6517dd8e7f4e52f4194ef2112a5351a691c8daacc748580a33880611af8565b611b3d906132b2565b611b48578238611ae7565b8280fd5b611b65915060203d6020116109b6576109a781836132e2565b38611aa7565b60405163c4967cf360e01b8152600490fd5b634e487b7160e01b84526021600452602484fd5b50600154604051632cc52b1560e11b815233600482015290602090829060249082906001600160a01b03165afa90811561101c578391611bd3575b5015611414565b611beb915060203d8111610a4057610a3281836132e2565b38611bcc565b5034610d2c576020366003190112610d2c57611c1f600660406113e7936004358152600c60205220016136a3565b604051918291602083526020830190612f49565b5034610d2c5780600319360112610d2c576020600d54604051908152f35b5034610d2c576020366003190112610d2c576020611c75611c70612e02565b6133f6565b604051908152f35b5034610d2c576020366003190112610d2c576020906040906001600160a01b03611ca5612e02565b168152600f83522054604051908152f35b5034610d2c576020366003190112610d2c57611cd0612f36565b600154604051632076c8a160e21b815263ffffffff929092166004830152602090829060249082906001600160a01b03165afa9081156109635760209291611d1f575b506040519060030b8152f35b611d369150823d81116109b6576109a781836132e2565b38611d13565b612f86565b5034610d2c576020366003190112610d2c576113cc6113d3600460406113e794823581526012602052200160405192838092613529565b5034610d2c5780600319360112610d2c576020600954604051908152f35b5034610d2c5780600319360112610d2c5760206040516213c6808152f35b5034610d2c5780600319360112610d2c576001546040516001600160a01b039091168152602090f35b5034610d2c576020366003190112610d2c576020906040906001600160a01b03611e05612e02565b168152600883522054604051908152f35b5034610d2c576020366003190112610d2c576040611e35600435613652565b825191825215156020820152f35b5034610d2c576040366003190112610d2c5760043563ffffffff611e65612f10565b16158015611fdf575b610caf578015610fab57611e80613229565b611e89336133f6565b8111611fcd5733825260206006815260408320611ea78382546133e9565b9055611eb5826009546133e9565b600955611ec482600b546133e9565b600b5560405163a9059cbb60e01b8152336004820152602481018390528181604481876001600160a01b037f0000000000000000000000000000000000000000000000000000000000000000165af1908115610d21578491611fb0575b5015610a06576000805160206136fe83398151915291338452600682526040842054604051918252828201527f92ccf450a286a957af52509bc1c9939d1a6a481783e142e41e2499f0bb66ebc660403392a27fdc6e73d4b36e22ab95945bd8833a5af96c950eb29d8d75c4aecffc987637aaab81600954604051908152a1600b54604051908152a16001815580f35b611fc79150823d8411610a4057610a3281836132e2565b38611f21565b60405163dbee9d4f60e01b8152600490fd5b50600154604051632cc52b1560e11b815233600482015290602090829060249082906001600160a01b03165afa90811561101c578391612021575b5015611e6e565b612039915060203d8111610a4057610a3281836132e2565b3861201a565b5034610d2c576020366003190112610d2c57612059612e02565b600154604051632cc52b1560e11b81526001600160a01b0392831660048201529160209183916024918391165afa90811561096357602092916120a157506040519015158152f35b6120b89150823d8111610a4057610a3281836132e2565b38611194565b5034610d2c5780600319360112610d2c576020600454604051908152f35b5034610d2c5780600319360112610d2c576020600554604051908152f35b5034610d2c576040366003190112610d2c5760076040612118612e18565b926004358152600c60205220019060018060a01b03166000526020526020604060002054604051908152f35b5034610d2c576020366003190112610d2c576020906040906001600160a01b0361216c612e02565b168152600683522054604051908152f35b5034610d2c576020366003190112610d2c576121b160406113e7926121a0613566565b5060043581526012602052206135ad565b604051918291602083526020830190612e85565b5034610d2c5780600319360112610d2c5760028054906121e482613304565b6121f160405191826132e2565b82815260209283820180938087527f405787fa12a823e0f2b7631cc41b3ba8828b3321ca811111fa75cd3aa3bb5ace9087925b8484106122925750505050506040519280840191818552518092526040840192945b8281106122535784840385f35b855180518552808301516001600160a01b0316858401526040808201519086015260609081015115159085015294810194608090930192600101612246565b60048860019260409b9a98999b516122a9816132c6565b86548152848060a01b0385880154168382015285870154604082015260ff600388015416151560608201528152019301930192919795949697612224565b5034610d2c576020366003190112610d2c576004358152601260205260408120600c602052604082209060028101549160ff831660038110156123a6579360a0941580612394575b1561237b5750600363ffffffff809460281c169201549260086123528585613494565b949392015416906001925b60405194855260208501526040840152606083015215156080820152f35b60089091015490925082915063ffffffff16818061235d565b5063ffffffff8460281c16151561232f565b634e487b7160e01b85526021600452602485fd5b5034610d2c576020366003190112610d2c57604060e091600435815260126020522060018060a01b03815416906001810154906002810154600660038301549201549260405194855260208501526124186040850160ff8316612e2e565b63ffffffff90818160081c16606086015260281c16608084015260a083015260c0820152f35b5034610d2c576040366003190112610d2c57612458612f36565b81612461612e18565b60015490926001600160a01b0391821690813b1561096e578360449263ffffffff94604051978896879563086ecc7960e21b87521660048601521660248401525af18015610963576124b1575080f35b6124ba906132b2565b80f35b5034610d2c576020366003190112610d2c57806101006040516124df8161327f565b8281528260208201528260408201528260608201528260808201528260a08201528260c0820152606060e082015201526004358152600c6020526040812080549060018060a01b03600182015416906002810154600382015463ffffffff60ff8260401c16916005850154938260088701541696604051986125608a61327f565b895260208901526040880152818116606088015260201c16608086015260078110156126425760a085015260c084015261259c906006016136a3565b60e083015261010082015260405190602082528051602083015260018060a01b0360208201511660408301526040810151606083015263ffffffff606082015116608083015263ffffffff60808201511660a083015260a08101516007811015611b7d5782935060c083015260c081015160e083015260e081015163ffffffff610100612636610120938483880152610140870190612f49565b93015116908301520390f35b634e487b7160e01b86526021600452602486fd5b5034610d2c576080366003190112610d2c5760043590612674612f10565b9161267d612f23565b916064359263ffffffff808516809503611b485784835260209560108752600382604086205416101561289c578515801561283e575b610caf578415610fab5781169160468311801590612834575b610c8d5781169260018410801561282a575b61281857600b54851161280657338152601187526040812054806127d2575b50604090600d549661270e886130b8565b600d55878252600c89528282209460018601336001600160601b0360a01b825416179055876002870155600386019068ffffffffffffffffff1982541617905542600586015587600886019563ffffffff1996888882541617905555338252600e895261277d8884842061344a565b815260108852209182549161279381841661347f565b16911617905560405191825283820152817fde3b47cf7da95a3cc41b86cf8717ead8d56a76ee1590481c5c4dc4d8804c40c460403393a3604051908152f35b8152601287526127e8600660408320015461309b565b42106127f457386126fd565b6040516301bf0a1560e41b8152600490fd5b604051633e285ff160e21b8152600490fd5b60405163053ec95560e11b8152600490fd5b50600c84116126de565b50606483116126cc565b50600154604051632cc52b1560e11b8152336004820152908890829060249082906001600160a01b03165afa908115610b8357859161287f575b50156126b3565b6128969150883d8a11610a4057610a3281836132e2565b38612878565b6040516370c9ad1b60e11b8152600490fd5b5034610d2c576040366003190112610d2c576128c8612f10565b906128d1613229565b63ffffffff8216158015612ade575b610caf576004358152600c60205260408120916003830154913360018060a01b0360018601541603612acc5760ff8360401c166007811015612ab85760038114908115612aad575b50612a9b578091815b60068601548110156129f55761294a8160068801613049565b905460039190911b1c6001600160a01b03168084526007870160205260408420549081612982575b505061297d906130b8565b612931565b6129af8261297d949397600f602052604088208281540390556006602052604088208281540190556130ab565b95818652600789016020528560408120556040519081527f03290469b25240cb85db34af1f3d3117d889b712a22ac0988f554f4f8e0ed919602060043592a39038612972565b5093602094606463ffffffff60019596881c1610612a67575b50600301805468ffffffffff000000001916680600000000000000001790556040518381523390600435907f47930a5a439dcb1b7e229a789daabedc3d8a7d291cf41fb10cbf1a429033d6bf908790a355604051908152f35b63ffffffff1682526010855260408220805463ffffffff612a898183166133bd565b169063ffffffff191617905538612a0e565b604051637023a7c560e11b8152600490fd5b600691501438612928565b634e487b7160e01b82526021600452602482fd5b60405163c671f07960e01b8152600490fd5b50600154604051632cc52b1560e11b815233600482015290602090829060249082906001600160a01b03165afa908115610963578291612b20575b50156128e0565b612b38915060203d8111610a4057610a3281836132e2565b38612b19565b5034610d2c5760208060031936011261095f576001600160a01b03919082612b64612e02565b16808352600e8252604083208054849291835b828110612d3d5750612b8884613304565b93612b9660405195866132e2565b808552601f19612ba582613304565b01875b818110612d1e575050612bba906134e3565b968693875b848110612c3e5750505050505060405193849260408401604085528351809152606085018260608360051b880101950196905b828210612c0e57505050836113e7949550830390850152612e51565b9193955091938480612c2c600193605f198c82030186528a51612e85565b98019201920187959391969492612bf2565b612c4d81859b99989a9b613049565b9054600391821b1c8b52601288528960408c2084868254161480612cee575b80612cd8575b612c8d575b505050612c83906130b8565b9897959698612bbf565b918891612caa612c83959a612ca4612ccf966135ad565b92613515565b52612cb5828d613515565b50612cc08988613049565b9054911b1c610b12828c613515565b95908938612c77565b5063ffffffff600282015460281c161515612c72565b50905060ff60028201541682811015612d0a57908b9115612c6c565b634e487b7160e01b8d52602160045260248dfd5b968096989997612d2c613566565b82828c010152019897959698612ba8565b612d4c81839997969899613049565b9054600391821b1c895260128652604089208588825416149182612db7575b5081612da0575b50612d8b575b612d81906130b8565b9695939496612b77565b95612d98612d81916130b8565b969050612d78565b63ffffffff91506002015460281c16151538612d72565b90915060ff60028301541690811015612dd257159038612d6b565b634e487b7160e01b8a52602160045260248afd5b90503461095f578160031936011261095f57602090600a548152f35b600435906001600160a01b0382168203610dd657565b602435906001600160a01b0382168203610dd657565b906003821015612e3b5752565b634e487b7160e01b600052602160045260246000fd5b90815180825260208080930193019160005b828110612e71575050505090565b835185529381019392810192600101612e63565b9060018060a01b03825116815260208201516020820152612eae60408301516040830190612e2e565b63ffffffff806060840151166060830152608083015116608082015260a082015160a0820152612f02612ef060c08401516101208060c0860152840190612e51565b60e084015183820360e0850152612e51565b916101008091015191015290565b6024359063ffffffff82168203610dd657565b6044359063ffffffff82168203610dd657565b6004359063ffffffff82168203610dd657565b90815180825260208080930193019160005b828110612f69575050505090565b83516001600160a01b031685529381019392810192600101612f5b565b34610dd6576000366003190112610dd6576020600b54604051908152f35b34610dd657600080600319360112610d2c576040516370a0823160e01b81523060048201526020816024817f00000000000000000000000000000000000000000000000000000000000000006001600160a01b03165afa908115610963578291613014575b602082604051908152f35b90506020813d8211613041575b8161302e602093836132e2565b8101031261095f57602091505138613009565b3d9150613021565b80548210156109f05760005260206000200190600090565b6002548110156109f057600260005260021b7f405787fa12a823e0f2b7631cc41b3ba8828b3321ca811111fa75cd3aa3bb5ace0190600090565b9062278d008201809211610bfb57565b91908201809211610bfb57565b6000198114610bfb5760010190565b600291825492831561322357600554916213c6808301809311610bfb576004928354159081613218575b5061320757600094855b858710806131fd575b156131ae5761314661314c9161311a8754613061565b506003810180549060ff821615806131a2575b613152575b50505061313f87546130b8565b87556130b8565b966130b8565b956130fb565b6001809260ff19161790557fcf08cfd581ae48e3e5053c3ddad657750a872d827972a57ca253b1ab4748b0bc60208984549360018060a01b039086015416940154604051908152a3388080613132565b5088830154421161312d565b92506040939195507fb8ee613246caed01f690aebbf94b750e593f665c039c5b937631201512b63b979450815410156131f0575b5482519182526020820152a1565b60008155426005556131e2565b5081855410613104565b604051636410c90760e01b81528390fd5b9050421115386130f1565b50915050565b60026000541461323a576002600055565b60405162461bcd60e51b815260206004820152601f60248201527f5265656e7472616e637947756172643a207265656e7472616e742063616c6c006044820152606490fd5b610120810190811067ffffffffffffffff82111761329c57604052565b634e487b7160e01b600052604160045260246000fd5b67ffffffffffffffff811161329c57604052565b6080810190811067ffffffffffffffff82111761329c57604052565b90601f8019910116810190811067ffffffffffffffff82111761329c57604052565b67ffffffffffffffff811161329c5760051b60200190565b600254158015613352575b61334c57600052600360205260ff6003613345604060002054613061565b5001541690565b50600090565b81600052600360205260406000205415908161336f575b50613327565b90506109f0576002600052807f405787fa12a823e0f2b7631cc41b3ba8828b3321ca811111fa75cd3aa3bb5ace54141538613369565b90816020910312610dd657518015158103610dd65790565b63ffffffff9081166000190191908211610bfb57565b63ffffffff9182169082160391908211610bfb57565b91908203918211610bfb57565b60018060a01b03166000526006602052604060002054600f602052604060002054808211613425575050600090565b61342e916133e9565b90565b90816020910312610dd657518060030b8103610dd65790565b8054600160401b81101561329c5761346791600182018155613049565b819291549060031b91821b91600019901b1916179055565b90600163ffffffff80931601918211610bfb57565b81810292918115918404141715610bfb57565b81156134b1570490565b634e487b7160e01b600052601260045260246000fd5b90816020910312610dd6575163ffffffff81168103610dd65790565b906134ed82613304565b6134fa60405191826132e2565b828152809261350b601f1991613304565b0190602036910137565b80518210156109f05760209160051b010190565b90815480825260208092019260005281600020916000905b82821061354f575050505090565b835485529384019360019384019390910190613541565b604051906135738261327f565b816101006000918281528260208201528260408201528260608201528260808201528260a0820152606060c0820152606060e08201520152565b906040516135ba8161327f565b82546001600160a01b03168152600183015460208201526002830154909283919060ff8216906003821015612e3b5761010092600692604086015263ffffffff90818160081c16606087015260281c166080850152600381015460a085015260405161362d816113cc8160048601613529565b60c0850152604051613646816113cc8160058601613529565b60e08501520154910152565b906000918252601260205260408220600281015460ff811660038110156123a657159081613690575b5061368557508190565b600301549150600190565b63ffffffff915060281c1615153861367b565b9060405191828154918282526020928383019160005283600020936000905b8282106136da575050506136d8925003836132e2565b565b85546001600160a01b0316845260019586019588955093810193909101906136c256fe8b094cca6f83d49402ce208cc0c224b76625ffc58636df56ae28024e704c5868a2646970667358221220a0120e38427f7f10f08a5e50a74ea869ccb68f70c549a89be39aa8494770739e64736f6c63430008130033",
  "linkReferences": {},
  "deployedLinkReferences": {}
}