{
  "_format": "hh-sol-artifact-1",
  "contractName": "LoanMachine",
  "sourceName": "contracts/LoanMachine.sol",
  "abi": [
    {
      "inputs": [],
      "name": "BorrowNotExpired",
      "type": "error"
    },
    {
      "inputs": [],
      "name": "InsufficientDonationBalance",
      "type": "error"
    },
    {
      "inputs": [],
      "name": "InsufficientFunds",
      "type": "error"
    },
    {
      "inputs": [],
      "name": "InvalidAmount",
      "type": "error"
    },
    {
      "inputs": [],
      "name": "InvalidCoveragePercentage",
      "type": "error"
    },
    {
      "inputs": [],
      "name": "InvalidParcelsCount",
      "type": "error"
    },
    {
      "inputs": [],
      "name": "LoanNotAvailable",
      "type": "error"
    },
    {
      "inputs": [],
      "name": "MinimumDonationRequired",
      "type": "error"
    },
    {
      "inputs": [],
      "name": "NoActiveBorrowing",
      "type": "error"
    },
    {
      "inputs": [],
      "name": "OverCoverage",
      "type": "error"
    },
    {
      "inputs": [],
      "name": "RepaymentExceedsBorrowed",
      "type": "error"
    },
    {
      "anonymous": false,
      "inputs": [
        {
          "indexed": false,
          "internalType": "uint256",
          "name": "total",
          "type": "uint256"
        }
      ],
      "name": "AvailableBalanceUpdated",
      "type": "event"
    },
    {
      "anonymous": false,
      "inputs": [
        {
          "indexed": true,
          "internalType": "address",
          "name": "borrower",
          "type": "address"
        }
      ],
      "name": "BorrowLimitReached",
      "type": "event"
    },
    {
      "anonymous": false,
      "inputs": [
        {
          "indexed": true,
          "internalType": "address",
          "name": "borrower",
          "type": "address"
        },
        {
          "indexed": false,
          "internalType": "uint256",
          "name": "amount",
          "type": "uint256"
        },
        {
          "indexed": false,
          "internalType": "uint256",
          "name": "totalBorrowing",
          "type": "uint256"
        }
      ],
      "name": "Borrowed",
      "type": "event"
    },
    {
      "anonymous": false,
      "inputs": [
        {
          "indexed": true,
          "internalType": "address",
          "name": "donor",
          "type": "address"
        },
        {
          "indexed": false,
          "internalType": "uint256",
          "name": "amount",
          "type": "uint256"
        },
        {
          "indexed": false,
          "internalType": "uint256",
          "name": "totalDonation",
          "type": "uint256"
        }
      ],
      "name": "Donated",
      "type": "event"
    },
    {
      "anonymous": false,
      "inputs": [
        {
          "indexed": true,
          "internalType": "uint256",
          "name": "requisitionId",
          "type": "uint256"
        },
        {
          "indexed": true,
          "internalType": "address",
          "name": "lender",
          "type": "address"
        },
        {
          "indexed": false,
          "internalType": "uint256",
          "name": "amount",
          "type": "uint256"
        }
      ],
      "name": "LenderRepaid",
      "type": "event"
    },
    {
      "anonymous": false,
      "inputs": [
        {
          "indexed": true,
          "internalType": "uint256",
          "name": "requisitionId",
          "type": "uint256"
        }
      ],
      "name": "LoanCompleted",
      "type": "event"
    },
    {
      "anonymous": false,
      "inputs": [
        {
          "indexed": true,
          "internalType": "address",
          "name": "walletAddress",
          "type": "address"
        },
        {
          "indexed": true,
          "internalType": "uint256",
          "name": "requisitionId",
          "type": "uint256"
        },
        {
          "indexed": false,
          "internalType": "enum ILoanMachine.ContractStatus",
          "name": "status",
          "type": "uint8"
        },
        {
          "indexed": false,
          "internalType": "uint32",
          "name": "parcelsPending",
          "type": "uint32"
        },
        {
          "indexed": false,
          "internalType": "uint256",
          "name": "parcelsValues",
          "type": "uint256"
        },
        {
          "indexed": false,
          "internalType": "uint256[]",
          "name": "paymentDates",
          "type": "uint256[]"
        }
      ],
      "name": "LoanContractGenerated",
      "type": "event"
    },
    {
      "anonymous": false,
      "inputs": [
        {
          "indexed": true,
          "internalType": "uint256",
          "name": "requisitionId",
          "type": "uint256"
        },
        {
          "indexed": true,
          "internalType": "address",
          "name": "lender",
          "type": "address"
        },
        {
          "indexed": false,
          "internalType": "uint256",
          "name": "coverageAmount",
          "type": "uint256"
        }
      ],
      "name": "LoanCovered",
      "type": "event"
    },
    {
      "anonymous": false,
      "inputs": [
        {
          "indexed": true,
          "internalType": "uint256",
          "name": "requisitionId",
          "type": "uint256"
        }
      ],
      "name": "LoanFunded",
      "type": "event"
    },
    {
      "anonymous": false,
      "inputs": [
        {
          "indexed": true,
          "internalType": "uint256",
          "name": "requisitionId",
          "type": "uint256"
        },
        {
          "indexed": true,
          "internalType": "address",
          "name": "borrower",
          "type": "address"
        },
        {
          "indexed": false,
          "internalType": "uint256",
          "name": "amount",
          "type": "uint256"
        },
        {
          "indexed": false,
          "internalType": "uint32",
          "name": "parcelsCount",
          "type": "uint32"
        }
      ],
      "name": "LoanRequisitionCreated",
      "type": "event"
    },
    {
      "anonymous": false,
      "inputs": [
        {
          "indexed": true,
          "internalType": "address",
          "name": "borrower",
          "type": "address"
        }
      ],
      "name": "NewBorrower",
      "type": "event"
    },
    {
      "anonymous": false,
      "inputs": [
        {
          "indexed": true,
          "internalType": "address",
          "name": "donor",
          "type": "address"
        }
      ],
      "name": "NewDonor",
      "type": "event"
    },
    {
      "anonymous": false,
      "inputs": [
        {
          "indexed": true,
          "internalType": "uint256",
          "name": "requisitionId",
          "type": "uint256"
        },
        {
          "indexed": false,
          "internalType": "uint256",
          "name": "parcelsRemaining",
          "type": "uint256"
        }
      ],
      "name": "ParcelPaid",
      "type": "event"
    },
    {
      "anonymous": false,
      "inputs": [
        {
          "indexed": true,
          "internalType": "address",
          "name": "borrower",
          "type": "address"
        },
        {
          "indexed": false,
          "internalType": "uint256",
          "name": "amount",
          "type": "uint256"
        },
        {
          "indexed": false,
          "internalType": "uint256",
          "name": "remainingDebt",
          "type": "uint256"
        }
      ],
      "name": "Repaid",
      "type": "event"
    },
    {
      "anonymous": false,
      "inputs": [
        {
          "indexed": false,
          "internalType": "uint256",
          "name": "total",
          "type": "uint256"
        }
      ],
      "name": "TotalBorrowedUpdated",
      "type": "event"
    },
    {
      "anonymous": false,
      "inputs": [
        {
          "indexed": false,
          "internalType": "uint256",
          "name": "total",
          "type": "uint256"
        }
      ],
      "name": "TotalDonationsUpdated",
      "type": "event"
    },
    {
      "inputs": [
        {
          "internalType": "uint256",
          "name": "_amount",
          "type": "uint256"
        }
      ],
      "name": "borrow",
      "outputs": [],
      "stateMutability": "nonpayable",
      "type": "function"
    },
    {
      "inputs": [
        {
          "internalType": "address",
          "name": "",
          "type": "address"
        },
        {
          "internalType": "uint256",
          "name": "",
          "type": "uint256"
        }
      ],
      "name": "borrowerRequisitions",
      "outputs": [
        {
          "internalType": "uint256",
          "name": "",
          "type": "uint256"
        }
      ],
      "stateMutability": "view",
      "type": "function"
    },
    {
      "inputs": [
        {
          "internalType": "uint256",
          "name": "requisitionId",
          "type": "uint256"
        },
        {
          "internalType": "address",
          "name": "borrower",
          "type": "address"
        }
      ],
      "name": "canPayRequisition",
      "outputs": [
        {
          "internalType": "bool",
          "name": "",
          "type": "bool"
        }
      ],
      "stateMutability": "view",
      "type": "function"
    },
    {
      "inputs": [
        {
          "internalType": "address",
          "name": "_user",
          "type": "address"
        },
        {
          "internalType": "uint256",
          "name": "_amount",
          "type": "uint256"
        }
      ],
      "name": "canUserBorrow",
      "outputs": [
        {
          "internalType": "bool",
          "name": "",
          "type": "bool"
        }
      ],
      "stateMutability": "view",
      "type": "function"
    },
    {
      "inputs": [
        {
          "internalType": "uint256",
          "name": "requisitionId",
          "type": "uint256"
        },
        {
          "internalType": "uint32",
          "name": "coveragePercentage",
          "type": "uint32"
        }
      ],
      "name": "coverLoan",
      "outputs": [],
      "stateMutability": "nonpayable",
      "type": "function"
    },
    {
      "inputs": [
        {
          "internalType": "uint256",
          "name": "_amount",
          "type": "uint256"
        },
        {
          "internalType": "uint32",
          "name": "_minimumCoverage",
          "type": "uint32"
        },
        {
          "internalType": "uint256",
          "name": "_durationDays",
          "type": "uint256"
        },
        {
          "internalType": "uint32",
          "name": "parcelscount",
          "type": "uint32"
        }
      ],
      "name": "createLoanRequisition",
      "outputs": [
        {
          "internalType": "uint256",
          "name": "",
          "type": "uint256"
        }
      ],
      "stateMutability": "nonpayable",
      "type": "function"
    },
    {
      "inputs": [],
      "name": "donate",
      "outputs": [],
      "stateMutability": "payable",
      "type": "function"
    },
    {
      "inputs": [
        {
          "internalType": "address",
          "name": "borrower",
          "type": "address"
        }
      ],
      "name": "getActiveLoans",
      "outputs": [
        {
          "components": [
            {
              "internalType": "address",
              "name": "walletAddress",
              "type": "address"
            },
            {
              "internalType": "uint256",
              "name": "requisitionId",
              "type": "uint256"
            },
            {
              "internalType": "enum ILoanMachine.ContractStatus",
              "name": "status",
              "type": "uint8"
            },
            {
              "internalType": "uint32",
              "name": "parcelsPending",
              "type": "uint32"
            },
            {
              "internalType": "uint256",
              "name": "parcelsValues",
              "type": "uint256"
            },
            {
              "internalType": "uint256[]",
              "name": "paymentDates",
              "type": "uint256[]"
            }
          ],
          "internalType": "struct ILoanMachine.LoanContract[]",
          "name": "activeLoans",
          "type": "tuple[]"
        },
        {
          "internalType": "uint256[]",
          "name": "requisitionIds",
          "type": "uint256[]"
        }
      ],
      "stateMutability": "view",
      "type": "function"
    },
    {
      "inputs": [],
      "name": "getAvailableBalance",
      "outputs": [
        {
          "internalType": "uint256",
          "name": "",
          "type": "uint256"
        }
      ],
      "stateMutability": "view",
      "type": "function"
    },
    {
      "inputs": [],
      "name": "getAvailableBorrowAmount",
      "outputs": [
        {
          "internalType": "uint256",
          "name": "",
          "type": "uint256"
        }
      ],
      "stateMutability": "view",
      "type": "function"
    },
    {
      "inputs": [
        {
          "internalType": "address",
          "name": "borrower",
          "type": "address"
        }
      ],
      "name": "getBorrowerRequisitions",
      "outputs": [
        {
          "internalType": "uint256[]",
          "name": "",
          "type": "uint256[]"
        }
      ],
      "stateMutability": "view",
      "type": "function"
    },
    {
      "inputs": [
        {
          "internalType": "address",
          "name": "_user",
          "type": "address"
        }
      ],
      "name": "getBorrowing",
      "outputs": [
        {
          "internalType": "uint256",
          "name": "",
          "type": "uint256"
        }
      ],
      "stateMutability": "view",
      "type": "function"
    },
    {
      "inputs": [],
      "name": "getContractBalance",
      "outputs": [
        {
          "internalType": "uint256",
          "name": "",
          "type": "uint256"
        }
      ],
      "stateMutability": "view",
      "type": "function"
    },
    {
      "inputs": [
        {
          "internalType": "uint256",
          "name": "requisitionId",
          "type": "uint256"
        }
      ],
      "name": "getCoveringLenders",
      "outputs": [
        {
          "internalType": "address[]",
          "name": "",
          "type": "address[]"
        }
      ],
      "stateMutability": "view",
      "type": "function"
    },
    {
      "inputs": [
        {
          "internalType": "address",
          "name": "_user",
          "type": "address"
        }
      ],
      "name": "getDonation",
      "outputs": [
        {
          "internalType": "uint256",
          "name": "",
          "type": "uint256"
        }
      ],
      "stateMutability": "view",
      "type": "function"
    },
    {
      "inputs": [
        {
          "internalType": "address",
          "name": "_user",
          "type": "address"
        }
      ],
      "name": "getLastBorrowTime",
      "outputs": [
        {
          "internalType": "uint256",
          "name": "",
          "type": "uint256"
        }
      ],
      "stateMutability": "view",
      "type": "function"
    },
    {
      "inputs": [
        {
          "internalType": "uint256",
          "name": "requisitionId",
          "type": "uint256"
        },
        {
          "internalType": "address",
          "name": "lender",
          "type": "address"
        }
      ],
      "name": "getLenderCoverage",
      "outputs": [
        {
          "internalType": "uint256",
          "name": "",
          "type": "uint256"
        }
      ],
      "stateMutability": "view",
      "type": "function"
    },
    {
      "inputs": [
        {
          "internalType": "uint256",
          "name": "requisitionId",
          "type": "uint256"
        }
      ],
      "name": "getLoanContract",
      "outputs": [
        {
          "components": [
            {
              "internalType": "address",
              "name": "walletAddress",
              "type": "address"
            },
            {
              "internalType": "uint256",
              "name": "requisitionId",
              "type": "uint256"
            },
            {
              "internalType": "enum ILoanMachine.ContractStatus",
              "name": "status",
              "type": "uint8"
            },
            {
              "internalType": "uint32",
              "name": "parcelsPending",
              "type": "uint32"
            },
            {
              "internalType": "uint256",
              "name": "parcelsValues",
              "type": "uint256"
            },
            {
              "internalType": "uint256[]",
              "name": "paymentDates",
              "type": "uint256[]"
            }
          ],
          "internalType": "struct ILoanMachine.LoanContract",
          "name": "",
          "type": "tuple"
        }
      ],
      "stateMutability": "view",
      "type": "function"
    },
    {
      "inputs": [
        {
          "internalType": "uint256",
          "name": "requisitionId",
          "type": "uint256"
        }
      ],
      "name": "getNextPaymentAmount",
      "outputs": [
        {
          "internalType": "uint256",
          "name": "paymentAmount",
          "type": "uint256"
        },
        {
          "internalType": "bool",
          "name": "canPay",
          "type": "bool"
        }
      ],
      "stateMutability": "view",
      "type": "function"
    },
    {
      "inputs": [
        {
          "internalType": "uint256",
          "name": "requisitionId",
          "type": "uint256"
        }
      ],
      "name": "getPaymentDates",
      "outputs": [
        {
          "internalType": "uint256[]",
          "name": "",
          "type": "uint256[]"
        }
      ],
      "stateMutability": "view",
      "type": "function"
    },
    {
      "inputs": [
        {
          "internalType": "uint256",
          "name": "requisitionId",
          "type": "uint256"
        }
      ],
      "name": "getRepaymentSummary",
      "outputs": [
        {
          "internalType": "uint256",
          "name": "totalRemainingDebt",
          "type": "uint256"
        },
        {
          "internalType": "uint256",
          "name": "nextPaymentAmount",
          "type": "uint256"
        },
        {
          "internalType": "uint256",
          "name": "parcelsRemaining",
          "type": "uint256"
        },
        {
          "internalType": "uint256",
          "name": "totalParcels",
          "type": "uint256"
        },
        {
          "internalType": "bool",
          "name": "isActive",
          "type": "bool"
        }
      ],
      "stateMutability": "view",
      "type": "function"
    },
    {
      "inputs": [
        {
          "internalType": "uint256",
          "name": "requisitionId",
          "type": "uint256"
        }
      ],
      "name": "getRequisitionInfo",
      "outputs": [
        {
          "components": [
            {
              "internalType": "uint256",
              "name": "requisitionId",
              "type": "uint256"
            },
            {
              "internalType": "address",
              "name": "borrower",
              "type": "address"
            },
            {
              "internalType": "uint256",
              "name": "amount",
              "type": "uint256"
            },
            {
              "internalType": "uint32",
              "name": "minimumCoverage",
              "type": "uint32"
            },
            {
              "internalType": "uint32",
              "name": "currentCoverage",
              "type": "uint32"
            },
            {
              "internalType": "enum ILoanMachine.BorrowStatus",
              "name": "status",
              "type": "uint8"
            },
            {
              "internalType": "uint256",
              "name": "durationDays",
              "type": "uint256"
            },
            {
              "internalType": "uint256",
              "name": "creationTime",
              "type": "uint256"
            },
            {
              "internalType": "address[]",
              "name": "coveringLenders",
              "type": "address[]"
            },
            {
              "internalType": "uint32",
              "name": "parcelsCount",
              "type": "uint32"
            }
          ],
          "internalType": "struct ILoanMachine.RequisitionInfo",
          "name": "",
          "type": "tuple"
        }
      ],
      "stateMutability": "view",
      "type": "function"
    },
    {
      "inputs": [],
      "name": "getTotalBorrowed",
      "outputs": [
        {
          "internalType": "uint256",
          "name": "",
          "type": "uint256"
        }
      ],
      "stateMutability": "view",
      "type": "function"
    },
    {
      "inputs": [],
      "name": "getTotalDonations",
      "outputs": [
        {
          "internalType": "uint256",
          "name": "",
          "type": "uint256"
        }
      ],
      "stateMutability": "view",
      "type": "function"
    },
    {
      "inputs": [
        {
          "internalType": "uint256",
          "name": "",
          "type": "uint256"
        }
      ],
      "name": "loanContracts",
      "outputs": [
        {
          "internalType": "address",
          "name": "walletAddress",
          "type": "address"
        },
        {
          "internalType": "uint256",
          "name": "requisitionId",
          "type": "uint256"
        },
        {
          "internalType": "enum ILoanMachine.ContractStatus",
          "name": "status",
          "type": "uint8"
        },
        {
          "internalType": "uint32",
          "name": "parcelsPending",
          "type": "uint32"
        },
        {
          "internalType": "uint256",
          "name": "parcelsValues",
          "type": "uint256"
        }
      ],
      "stateMutability": "view",
      "type": "function"
    },
    {
      "inputs": [
        {
          "internalType": "uint256",
          "name": "requisitionId",
          "type": "uint256"
        }
      ],
      "name": "repay",
      "outputs": [],
      "stateMutability": "payable",
      "type": "function"
    },
    {
      "inputs": [],
      "name": "requisitionCounter",
      "outputs": [
        {
          "internalType": "uint256",
          "name": "",
          "type": "uint256"
        }
      ],
      "stateMutability": "view",
      "type": "function"
    }
  ],
  "bytecode": "0x608060405234801561001057600080fd5b506001600055612625806100256000396000f3fe60806040526004361061019c5760003560e01c80636f9fb98a116100ec57806397c335191161008a578063adceb10111610064578063adceb10114610538578063be5eb58014610558578063c5ebeaec1461058e578063ed88c68e146105ae57600080fd5b806397c33519146104c85780639e932011146104f8578063a648bf751461051857600080fd5b8063809dab6a116100c6578063809dab6a146102b057806384ddf5ea146104655780638a914a631461047b5780639730872a146104a857600080fd5b80636f9fb98a14610410578063777c658f146104235780637d52437a1461043857600080fd5b80632b31c02211610159578063410a1d3211610133578063410a1d321461034f5780634e51c7df146103855780636509a710146103a5578063657eb031146103da57600080fd5b80632b31c022146102c5578063371fd8e61461030f578063383ab2ef1461032257600080fd5b80630307c4a1146101a157806303d1a1a1146101c55780631b70ba3e146101f3578063232869fa146102205780632485a3141461028e578063291c31a7146102b0575b600080fd5b3480156101ad57600080fd5b506005545b6040519081526020015b60405180910390f35b3480156101d157600080fd5b506101e56101e0366004612050565b6105b6565b6040516101bc929190612166565b3480156101ff57600080fd5b5061021361020e3660046121dc565b61094d565b6040516101bc919061223e565b34801561022c57600080fd5b5061027d61023b3660046121dc565b600b6020526000908152604090208054600182015460028301546003909301546001600160a01b0390921692909160ff821691610100900463ffffffff169085565b6040516101bc9594939291906122fa565b34801561029a57600080fd5b506102ae6102a936600461234b565b610ab1565b005b3480156102bc57600080fd5b506006546101b2565b3480156102d157600080fd5b506102e56102e03660046121dc565b610da3565b6040805195865260208601949094529284019190915260608301521515608082015260a0016101bc565b6102ae61031d3660046121dc565b610e72565b34801561032e57600080fd5b5061034261033d3660046121dc565b61117d565b6040516101bc9190612377565b34801561035b57600080fd5b506101b261036a366004612050565b6001600160a01b031660009081526001602052604090205490565b34801561039157600080fd5b506101b26103a036600461238a565b6112aa565b3480156103b157600080fd5b506103c56103c03660046121dc565b6112d6565b604080519283529015156020830152016101bc565b3480156103e657600080fd5b506101b26103f5366004612050565b6001600160a01b031660009081526003602052604090205490565b34801561041c57600080fd5b50476101b2565b34801561042f57600080fd5b506004546101b2565b34801561044457600080fd5b506104586104533660046121dc565b61133a565b6040516101bc91906123ad565b34801561047157600080fd5b506101b260085481565b34801561048757600080fd5b5061049b6104963660046121dc565b61139f565b6040516101bc91906123c0565b3480156104b457600080fd5b506104586104c3366004612050565b61140d565b3480156104d457600080fd5b506104e86104e33660046123d3565b611477565b60405190151581526020016101bc565b34801561050457600080fd5b506101b26105133660046123d3565b61152f565b34801561052457600080fd5b506101b26105333660046123fd565b611560565b34801561054457600080fd5b506104e861055336600461238a565b611735565b34801561056457600080fd5b506101b2610573366004612050565b6001600160a01b031660009081526002602052604090205490565b34801561059a57600080fd5b506102ae6105a93660046121dc565b611799565b6102ae6119d4565b6001600160a01b0381166000908152600960205260408120606091829190805b825481101561068a576000600b60008584815481106105f7576105f7612443565b60009182526020808320909101548352820192909252604001902080549091506001600160a01b0390811690881614801561064a5750600060028083015460ff16908111156106485761064861206b565b145b801561066457506002810154610100900463ffffffff1615155b1561067757826106738161246f565b9350505b50806106828161246f565b9150506105d6565b508067ffffffffffffffff8111156106a4576106a4612488565b60405190808252806020026020018201604052801561070c57816020015b6106f96040805160c08101825260008082526020820181905290918201908152600060208201819052604082015260609081015290565b8152602001906001900390816106c25790505b5093508067ffffffffffffffff81111561072857610728612488565b604051908082528060200260200182016040528015610751578160200160208202803683370190505b5092506000805b8354811015610944576000600b600086848154811061077957610779612443565b60009182526020808320909101548352820192909252604001902080549091506001600160a01b039081169089161480156107cc5750600060028083015460ff16908111156107ca576107ca61206b565b145b80156107e657506002810154610100900463ffffffff1615155b15610931576040805160c08101825282546001600160a01b0316815260018301546020820152600280840154919284929084019160ff9091169081111561082f5761082f61206b565b60028111156108405761084061206b565b81526020016002820160019054906101000a900463ffffffff1663ffffffff1663ffffffff16815260200160038201548152602001600482018054806020026020016040519081016040528092919081815260200182805480156108c357602002820191906000526020600020905b8154815260200190600101908083116108af575b5050505050815250508784815181106108de576108de612443565b60200260200101819052508482815481106108fb576108fb612443565b906000526020600020015486848151811061091857610918612443565b60209081029190910101528261092d8161246f565b9350505b508061093c8161246f565b915050610758565b50505050915091565b604080516101408101825260008082526020820181905291810182905260608082018390526080820183905260a0820183905260c0820183905260e082018390526101008201526101208101919091526000828152600760209081526040918290208251610140810184528154815260018201546001600160a01b031692810192909252600281015492820192909252600382015463ffffffff8082166060840152640100000000820416608083015260a0820190600160401b900460ff166005811115610a1d57610a1d61206b565b8152602001826004015481526020018260050154815260200182600601805480602002602001604051908101604052809291908181526020018280548015610a8e57602002820191906000526020600020905b81546001600160a01b03168152600190910190602001808311610a70575b505050918352505060089092015463ffffffff1660209092019190915292915050565b8063ffffffff81161580610acb575060648163ffffffff16115b15610ae95760405163d1e95ed560e01b815260040160405180910390fd5b610af1611b07565b6000838152600760205260408120906003820154600160401b900460ff166005811115610b2057610b2061206b565b14158015610b4e575060016003820154600160401b900460ff166005811115610b4b57610b4b61206b565b14155b15610b6c576040516380b9cb0960e01b815260040160405180910390fd5b6003810154606490610b8f9063ffffffff8087169164010000000090041661249e565b1115610bae5760405163955f95ad60e01b815260040160405180910390fd5b600060648463ffffffff168360020154610bc891906124b1565b610bd291906124c8565b33600090815260016020526040902054909150811115610c0557604051630391acf160e61b815260040160405180910390fd5b3360009081526001602052604081208054839290610c249084906124ea565b9091555050336000908152600a602052604081208054839290610c4890849061249e565b9091555050600382018054859190600490610c72908490640100000000900463ffffffff166124fd565b825463ffffffff9182166101009390930a9283029190920219909116179055503360009081526007830160205260408120549003610cd257600682018054600181018255600091825260209091200180546001600160a01b031916331790555b33600090815260078301602052604081208054839290610cf390849061249e565b9091555050600382015463ffffffff8082166401000000009092041610610d455760038201805460ff60401b191668020000000000000000179055610d3785611b64565b610d4085611c76565b610d5b565b60038201805460ff60401b1916600160401b1790555b604051818152339086907f86b47e6e6c03d769c0bc5ffd06c682ea7d07089576d59230ec18ff64e71bffe79060200160405180910390a35050610d9e6001600055565b505050565b6000818152600b602090815260408083206007909252822082918291829182918260028084015460ff1690811115610ddd57610ddd61206b565b148015610df857506002820154610100900463ffffffff1615155b15610e4c5760038201546002830154610e1c9190610100900463ffffffff166124b1565b60038301546002840154600884015492995090975063ffffffff6101009091048116965016935060019250610e67565b60088101546000975087965086955063ffffffff1693508492505b505091939590929450565b610e7a611b07565b34600003610e9b5760405163162908e360e11b815260040160405180910390fd5b336000908152600260205260408120549003610eca57604051630b5ab5bf60e41b815260040160405180910390fd5b6000818152600b6020526040902080546001600160a01b03163314610f0257604051630b5ab5bf60e41b815260040160405180910390fd5b600060028083015460ff1690811115610f1d57610f1d61206b565b14610f3b57604051630b5ab5bf60e41b815260040160405180910390fd5b6002810154610100900463ffffffff16600003610f6b57604051630b5ab5bf60e41b815260040160405180910390fd5b80600301543414610f8f5760405163162908e360e11b815260040160405180910390fd5b60018160020160018282829054906101000a900463ffffffff16610fb39190612521565b825463ffffffff91821661010093840a908102908302199091161790925560028401540416600003905061101d576002818101805460ff1916909117905560405182907f02ca5489b37dd363d1302bac719e8ee40e540ffbe8c12253570fea63e11cad7190600090a25b336000908152600260205260408120805434929061103c9084906124ea565b92505081905550346005600082825461105591906124ea565b92505081905550346006600082825461106e919061249e565b9091555061107e90508234611e53565b33600081815260026020908152604091829020548251348152918201527f1b8cd61ed43bec7c6bdad3a18ffee613f99c853d16c50678d248d879e1b43438910160405180910390a2600281015460405161010090910463ffffffff16815282907f406356ef25520b09e2ef87c5225167b4161ea4ab691e9434d6ee29eafcc83fc29060200160405180910390a27f17f13fd3f7c4712af33f1770ebcb822dd20a2dbc00850eab48d786623d97b95960055460405161113e91815260200190565b60405180910390a16000805160206125d083398151915260065460405161116791815260200190565b60405180910390a15061117a6001600055565b50565b6111b46040805160c08101825260008082526020820181905290918201908152600060208201819052604082015260609081015290565b6000828152600b60209081526040808320815160c08101835281546001600160a01b03168152600182015493810193909352600280820154919284019160ff16908111156112045761120461206b565b60028111156112155761121561206b565b81526020016002820160019054906101000a900463ffffffff1663ffffffff1663ffffffff168152602001600382015481526020016004820180548060200260200160405190810160405280929190818152602001828054801561129857602002820191906000526020600020905b815481526020019060010190808311611284575b50505091909252509195945050505050565b60008281526007602081815260408084206001600160a01b038616855290920190529020545b92915050565b6000818152600b6020526040812081908160028083015460ff16908111156113005761130061206b565b14801561131b57506002810154610100900463ffffffff1615155b1561132e57600301549360019350915050565b50600093849350915050565b6000818152600b602090815260409182902060040180548351818402810184019094528084526060939283018282801561139357602002820191906000526020600020905b81548152602001906001019080831161137f575b50505050509050919050565b60008181526007602090815260409182902060060180548351818402810184019094528084526060939283018282801561139357602002820191906000526020600020905b81546001600160a01b031681526001909101906020018083116113e45750505050509050919050565b6001600160a01b038116600090815260096020908152604091829020805483518184028101840190945280845260609392830182828015611393576020028201919060005260206000209081548152602001906001019080831161137f5750505050509050919050565b6000808211801561148a57506006548211155b80156114d657506001600160a01b03831660009081526001602052604090205467016345785d8a00001115806114d657506001600160a01b038316600090815260026020526040902054155b801561152857506001600160a01b03831660009081526003602052604090205442906115069062093a809061249e565b108061152857506001600160a01b038316600090815260026020526040902054155b9392505050565b6009602052816000526040600020818154811061154b57600080fd5b90600052602060002001600091509150505481565b600084806000036115845760405163162908e360e11b815260040160405180910390fd5b8463ffffffff1660468111158061159b5750606481115b156115b95760405163d1e95ed560e01b815260040160405180910390fd5b8360018163ffffffff1610806115d55750600c8163ffffffff16115b156115f35760405163524eff2760e01b815260040160405180910390fd5b6006548811156116165760405163356680b760e01b815260040160405180910390fd5b60088054600091826116278361246f565b9091555060008181526007602052604081206001810180546001600160a01b03191633179055600281018c905560038101805467ffffffffffffffff19811663ffffffff8e1690811783559495509193909168ffffffffffffffffff191617600160401b8302179055506004810188905542600582015560088101805463ffffffff891663ffffffff19909116179055818155336000818152600960209081526040808320805460018101825590845291909220018490555183907fde3b47cf7da95a3cc41b86cf8717ead8d56a76ee1590481c5c4dc4d8804c40c490611720908e908c9091825263ffffffff16602082015260400190565b60405180910390a35098975050505050505050565b6000828152600b6020526040812080546001600160a01b0384811691161480156117775750600060028083015460ff16908111156117755761177561206b565b145b801561179157506002810154610100900463ffffffff1615155b949350505050565b80806000036117bb5760405163162908e360e11b815260040160405180910390fd5b816006548111156117df5760405163356680b760e01b815260040160405180910390fd5b3360009081526001602052604090205467016345785d8a000011801561181357503360009081526002602052604090205415155b156118315760405163b4ff2ab760e01b815260040160405180910390fd5b3360009081526003602052604090205442906118519062093a809061249e565b1015801561186d57503360009081526002602052604090205415155b1561188b5760405163c6061c8560e01b815260040160405180910390fd5b611893611b07565b33600081815260026020818152604080842080548981018255600580548b019055600680548b9003905560038452948290204290559282529154825188815291820152911592917feae9cfbc77fdd40ca899f36b608256063b2bc9d8178b0220f7ad513e178d6730910160405180910390a27f17f13fd3f7c4712af33f1770ebcb822dd20a2dbc00850eab48d786623d97b95960055460405161193891815260200190565b60405180910390a16000805160206125d083398151915260065460405161196191815260200190565b60405180910390a1801561199b5760405133907fdd6d577a01057a7ca4e715ae2c9f196a0a25d8e9d1ddd9376047869ce6fe56c790600090a25b604051339085156108fc029086906000818181858888f193505050501580156119c8573d6000803e3d6000fd5b5050610d9e6001600055565b34806000036119f65760405163162908e360e11b815260040160405180910390fd5b6119fe611b07565b336000818152600160209081526040918290208054348082018355600480548201905560068054820190559154845192835292820192909252901592917f4928895ba6723e8e27b15f32e4c3054a1b6c7f8c03f133558d6fa42b3928d14c910160405180910390a27fdc6e73d4b36e22ab95945bd8833a5af96c950eb29d8d75c4aecffc987637aaab600454604051611a9991815260200190565b60405180910390a16000805160206125d0833981519152600654604051611ac291815260200190565b60405180910390a18015611afc5760405133907f072dafb6aabe3f02118bc607efbeaaa104d6b2009720c7b130f24ba418689c4b90600090a25b5061117a6001600055565b600260005403611b5d5760405162461bcd60e51b815260206004820152601f60248201527f5265656e7472616e637947756172643a207265656e7472616e742063616c6c00604482015260640160405180910390fd5b6002600055565b6000818152600b60209081526040808320600790925290912060018082015483546001600160a01b0319166001600160a01b0390911617835582018390556002808301805460ff198116825560088401805464ffffffffff1990921661010063ffffffff938416021790925590549190920154611be59291909116906124c8565b6003820155600082815260076020526040902060080154611c0d90829063ffffffff16611fc6565b80546002820154600383015460405185936001600160a01b0316927f5215406e88f26eed4728b9cdfc5d85cea75799101cb9387b528451e6e0878dec92611c6a9260ff831692610100900463ffffffff169190600489019061253e565b60405180910390a35050565b600081815260076020908152604080832060028082015460018301546001600160a01b031686529352908320805491939091611cb390849061249e565b9091555050600281015460058054600090611ccf90849061249e565b9091555050600281015460068054600090611ceb9084906124ea565b90915550506001810180546001600160a01b039081166000908152600360208190526040808320429055908501805460ff60401b19166803000000000000000017905592546002850154935192169280156108fc02929091818181858888f19350505050158015611d60573d6000803e3d6000fd5b5060018101546002808301546001600160a01b039092166000818152602092835260409081902054815194855292840192909252917feae9cfbc77fdd40ca899f36b608256063b2bc9d8178b0220f7ad513e178d6730910160405180910390a27f17f13fd3f7c4712af33f1770ebcb822dd20a2dbc00850eab48d786623d97b959600554604051611df391815260200190565b60405180910390a16000805160206125d0833981519152600654604051611e1c91815260200190565b60405180910390a160405182907f9e71d2fb732e68272b7e74ecfd14638673c1d77e19a5d390a3ffff054d57c44b90600090a25050565b6000828152600760205260408120600281015490915b6006830154811015611fbf576000836006018281548110611e8c57611e8c612443565b60009182526020808320909101546001600160a01b03168083526007870190915260408220549092509084611ec183896124b1565b611ecb91906124c8565b90508015611fa9576001600160a01b0383166000908152600a6020526040902054811115611f0e57506001600160a01b0382166000908152600a60205260409020545b6001600160a01b0383166000908152600a602052604081208054839290611f369084906124ea565b90915550506001600160a01b03831660009081526001602052604081208054839290611f6390849061249e565b90915550506040518181526001600160a01b0384169089907fe3e6ae1e05f069d410556743894aacbb190c1431962422ebe8fcc642a467dd169060200160405180910390a35b5050508080611fb79061246f565b915050611e69565b5050505050565b4262278d0060005b8363ffffffff168163ffffffff161015611fbf576000611fef8260016124fd565b611fff9063ffffffff16846124b1565b612009908561249e565b600487018054600181018255600091825260209091200155508061202c816125ac565b915050611fce565b80356001600160a01b038116811461204b57600080fd5b919050565b60006020828403121561206257600080fd5b61152882612034565b634e487b7160e01b600052602160045260246000fd5b600381106120915761209161206b565b9052565b600060c0830160018060a01b0383511684526020808401518186015260408401516120c36040870182612081565b5063ffffffff60608501511660608601526080840151608086015260a084015160c060a087015282815180855260e0880191508383019450600092505b808310156121205784518252938301936001929092019190830190612100565b509695505050505050565b600081518084526020808501945080840160005b8381101561215b5781518752958201959082019060010161213f565b509495945050505050565b6000604082016040835280855180835260608501915060608160051b8601019250602080880160005b838110156121bd57605f198887030185526121ab868351612095565b9550938201939082019060010161218f565b5050858403818701525050506121d3818561212b565b95945050505050565b6000602082840312156121ee57600080fd5b5035919050565b600681106120915761209161206b565b600081518084526020808501945080840160005b8381101561215b5781516001600160a01b031687529582019590820190600101612219565b60208152815160208201526000602083015161226560408401826001600160a01b03169052565b50604083015160608301526060830151612287608084018263ffffffff169052565b50608083015163ffffffff811660a08401525060a08301516122ac60c08401826121f5565b5060c083015160e083015260e083015161010081818501528085015191505061014061012081818601526122e4610160860184612205565b95015163ffffffff169301929092525090919050565b6001600160a01b03861681526020810185905260a0810161231e6040830186612081565b63ffffffff939093166060820152608001529392505050565b803563ffffffff8116811461204b57600080fd5b6000806040838503121561235e57600080fd5b8235915061236e60208401612337565b90509250929050565b6020815260006115286020830184612095565b6000806040838503121561239d57600080fd5b8235915061236e60208401612034565b602081526000611528602083018461212b565b6020815260006115286020830184612205565b600080604083850312156123e657600080fd5b6123ef83612034565b946020939093013593505050565b6000806000806080858703121561241357600080fd5b8435935061242360208601612337565b92506040850135915061243860608601612337565b905092959194509250565b634e487b7160e01b600052603260045260246000fd5b634e487b7160e01b600052601160045260246000fd5b60006001820161248157612481612459565b5060010190565b634e487b7160e01b600052604160045260246000fd5b808201808211156112d0576112d0612459565b80820281158282048414176112d0576112d0612459565b6000826124e557634e487b7160e01b600052601260045260246000fd5b500490565b818103818111156112d0576112d0612459565b63ffffffff81811683821601908082111561251a5761251a612459565b5092915050565b63ffffffff82811682821603908082111561251a5761251a612459565b60006080820161254e8388612081565b602063ffffffff8716818501528560408501526080606085015281855480845260a0860191508660005282600020935060005b8181101561259d57845483526001948501949284019201612581565b50909998505050505050505050565b600063ffffffff8083168181036125c5576125c5612459565b600101939250505056fe8b094cca6f83d49402ce208cc0c224b76625ffc58636df56ae28024e704c5868a2646970667358221220858f64518166e1ed0baa5a58d3a29a9a6da639da7d476e695048638108ad6f7964736f6c63430008130033",
  "linkReferences": {},
  "deployedLinkReferences": {}
}