{
  "_format": "hh-sol-artifact-1",
  "contractName": "loanMachine",
  "sourceName": "contracts/loanMachine.sol",
  "abi": [
    {
      "anonymous": false,
      "inputs": [
        {
          "indexed": true,
          "internalType": "address",
          "name": "borrower",
          "type": "address"
        }
      ],
      "name": "BorrowLimitReached",
      "type": "event"
    },
    {
      "anonymous": false,
      "inputs": [
        {
          "indexed": true,
          "internalType": "address",
          "name": "borrower",
          "type": "address"
        },
        {
          "indexed": false,
          "internalType": "uint256",
          "name": "amount",
          "type": "uint256"
        }
      ],
      "name": "Borrowed",
      "type": "event"
    },
    {
      "anonymous": false,
      "inputs": [
        {
          "indexed": true,
          "internalType": "address",
          "name": "donor",
          "type": "address"
        },
        {
          "indexed": false,
          "internalType": "uint256",
          "name": "amount",
          "type": "uint256"
        }
      ],
      "name": "Donated",
      "type": "event"
    },
    {
      "anonymous": false,
      "inputs": [
        {
          "indexed": true,
          "internalType": "address",
          "name": "borrower",
          "type": "address"
        },
        {
          "indexed": false,
          "internalType": "uint256",
          "name": "amount",
          "type": "uint256"
        }
      ],
      "name": "Repaid",
      "type": "event"
    },
    {
      "inputs": [],
      "name": "availableBalance",
      "outputs": [
        {
          "internalType": "uint256",
          "name": "",
          "type": "uint256"
        }
      ],
      "stateMutability": "view",
      "type": "function"
    },
    {
      "inputs": [
        {
          "internalType": "uint256",
          "name": "_amount",
          "type": "uint256"
        }
      ],
      "name": "borrow",
      "outputs": [],
      "stateMutability": "nonpayable",
      "type": "function"
    },
    {
      "inputs": [
        {
          "internalType": "address",
          "name": "",
          "type": "address"
        }
      ],
      "name": "borrowings",
      "outputs": [
        {
          "internalType": "uint256",
          "name": "",
          "type": "uint256"
        }
      ],
      "stateMutability": "view",
      "type": "function"
    },
    {
      "inputs": [
        {
          "internalType": "address",
          "name": "_user",
          "type": "address"
        },
        {
          "internalType": "uint256",
          "name": "_amount",
          "type": "uint256"
        }
      ],
      "name": "canUserBorrow",
      "outputs": [
        {
          "internalType": "bool",
          "name": "",
          "type": "bool"
        }
      ],
      "stateMutability": "view",
      "type": "function"
    },
    {
      "inputs": [],
      "name": "donate",
      "outputs": [],
      "stateMutability": "payable",
      "type": "function"
    },
    {
      "inputs": [
        {
          "internalType": "address",
          "name": "",
          "type": "address"
        }
      ],
      "name": "donations",
      "outputs": [
        {
          "internalType": "uint256",
          "name": "",
          "type": "uint256"
        }
      ],
      "stateMutability": "view",
      "type": "function"
    },
    {
      "inputs": [
        {
          "internalType": "address",
          "name": "_user",
          "type": "address"
        }
      ],
      "name": "getAvailableBorrowAmount",
      "outputs": [
        {
          "internalType": "uint256",
          "name": "",
          "type": "uint256"
        }
      ],
      "stateMutability": "view",
      "type": "function"
    },
    {
      "inputs": [],
      "name": "getContractBalance",
      "outputs": [
        {
          "internalType": "uint256",
          "name": "",
          "type": "uint256"
        }
      ],
      "stateMutability": "view",
      "type": "function"
    },
    {
      "inputs": [
        {
          "internalType": "address",
          "name": "_user",
          "type": "address"
        }
      ],
      "name": "getUserStats",
      "outputs": [
        {
          "internalType": "uint256",
          "name": "userDonations",
          "type": "uint256"
        },
        {
          "internalType": "uint256",
          "name": "userBorrowings",
          "type": "uint256"
        },
        {
          "internalType": "uint256",
          "name": "lastBorrow",
          "type": "uint256"
        },
        {
          "internalType": "bool",
          "name": "canBorrowNow",
          "type": "bool"
        }
      ],
      "stateMutability": "view",
      "type": "function"
    },
    {
      "inputs": [],
      "name": "repay",
      "outputs": [],
      "stateMutability": "payable",
      "type": "function"
    },
    {
      "inputs": [],
      "name": "totalBorrowed",
      "outputs": [
        {
          "internalType": "uint256",
          "name": "",
          "type": "uint256"
        }
      ],
      "stateMutability": "view",
      "type": "function"
    },
    {
      "inputs": [],
      "name": "totalDonations",
      "outputs": [
        {
          "internalType": "uint256",
          "name": "",
          "type": "uint256"
        }
      ],
      "stateMutability": "view",
      "type": "function"
    }
  ],
  "bytecode": "0x608060405234801561001057600080fd5b50600160008190555061171c806100286000396000f3fe6080604052600436106100a75760003560e01c8063ab2f0e5111610064578063ab2f0e51146101c6578063c5ebeaec146101f1578063ca7453d41461021a578063cc6cb19a14610257578063de2ed89314610294578063ed88c68e146102bf576100a7565b8063402d8883146100ac5780634c19386c146100b65780634e43603a146100e15780636f9fb98a1461012157806396f159ba1461014c57806397c3351914610189575b600080fd5b6100b46102c9565b005b3480156100c257600080fd5b506100cb6104fa565b6040516100d8919061101b565b60405180910390f35b3480156100ed57600080fd5b5061010860048036038101906101039190611099565b610500565b60405161011894939291906110e1565b60405180910390f35b34801561012d57600080fd5b5061013661076c565b604051610143919061101b565b60405180910390f35b34801561015857600080fd5b50610173600480360381019061016e9190611099565b610774565b604051610180919061101b565b60405180910390f35b34801561019557600080fd5b506101b060048036038101906101ab9190611152565b61078c565b6040516101bd9190611192565b60405180910390f35b3480156101d257600080fd5b506101db610958565b6040516101e8919061101b565b60405180910390f35b3480156101fd57600080fd5b50610218600480360381019061021391906111ad565b61095e565b005b34801561022657600080fd5b50610241600480360381019061023c9190611099565b610deb565b60405161024e919061101b565b60405180910390f35b34801561026357600080fd5b5061027e60048036038101906102799190611099565b610e5e565b60405161028b919061101b565b60405180910390f35b3480156102a057600080fd5b506102a9610e76565b6040516102b6919061101b565b60405180910390f35b6102c7610e7c565b005b346000811161030d576040517f08c379a000000000000000000000000000000000000000000000000000000000815260040161030490611237565b60405180910390fd5b610315610fa9565b6000600260003373ffffffffffffffffffffffffffffffffffffffff1673ffffffffffffffffffffffffffffffffffffffff1681526020019081526020016000205411610397576040517f08c379a000000000000000000000000000000000000000000000000000000000815260040161038e906112a3565b60405180910390fd5b600260003373ffffffffffffffffffffffffffffffffffffffff1673ffffffffffffffffffffffffffffffffffffffff16815260200190815260200160002054341115610419576040517f08c379a000000000000000000000000000000000000000000000000000000000815260040161041090611335565b60405180910390fd5b34600260003373ffffffffffffffffffffffffffffffffffffffff1673ffffffffffffffffffffffffffffffffffffffff16815260200190815260200160002060008282546104689190611384565b9250508190555034600560008282546104819190611384565b92505081905550346006600082825461049a91906113b8565b925050819055503373ffffffffffffffffffffffffffffffffffffffff167f0516911bcc3a0a7412a44601057c0a0a1ec628bde049a84284bc428866534488346040516104e7919061101b565b60405180910390a26104f7610ff8565b50565b60055481565b600080600080600160008673ffffffffffffffffffffffffffffffffffffffff1673ffffffffffffffffffffffffffffffffffffffff168152602001908152602001600020549350600260008673ffffffffffffffffffffffffffffffffffffffff1673ffffffffffffffffffffffffffffffffffffffff168152602001908152602001600020549250600360008673ffffffffffffffffffffffffffffffffffffffff1673ffffffffffffffffffffffffffffffffffffffff16815260200190815260200160002054915060006006541180156106245750670de0b6b3a7640000600260008773ffffffffffffffffffffffffffffffffffffffff1673ffffffffffffffffffffffffffffffffffffffff16815260200190815260200160002054105b80156106c1575067016345785d8a0000600160008773ffffffffffffffffffffffffffffffffffffffff1673ffffffffffffffffffffffffffffffffffffffff168152602001908152602001600020541015806106c057506000600260008773ffffffffffffffffffffffffffffffffffffffff1673ffffffffffffffffffffffffffffffffffffffff16815260200190815260200160002054145b5b801561076357504262093a80600360008873ffffffffffffffffffffffffffffffffffffffff1673ffffffffffffffffffffffffffffffffffffffff1681526020019081526020016000205461071791906113b8565b108061076257506000600260008773ffffffffffffffffffffffffffffffffffffffff1673ffffffffffffffffffffffffffffffffffffffff16815260200190815260200160002054145b5b90509193509193565b600047905090565b60026020528060005260406000206000915090505481565b6000808211801561079f57506006548211155b80156107b35750670de0b6b3a76400008211155b8015610850575067016345785d8a0000600160008573ffffffffffffffffffffffffffffffffffffffff1673ffffffffffffffffffffffffffffffffffffffff1681526020019081526020016000205410158061084f57506000600260008573ffffffffffffffffffffffffffffffffffffffff1673ffffffffffffffffffffffffffffffffffffffff16815260200190815260200160002054145b5b80156108ae5750670de0b6b3a764000082600260008673ffffffffffffffffffffffffffffffffffffffff1673ffffffffffffffffffffffffffffffffffffffff168152602001908152602001600020546108ab91906113b8565b11155b801561095057504262093a80600360008673ffffffffffffffffffffffffffffffffffffffff1673ffffffffffffffffffffffffffffffffffffffff1681526020019081526020016000205461090491906113b8565b108061094f57506000600260008573ffffffffffffffffffffffffffffffffffffffff1673ffffffffffffffffffffffffffffffffffffffff16815260200190815260200160002054145b5b905092915050565b60065481565b80600081116109a2576040517f08c379a000000000000000000000000000000000000000000000000000000000815260040161099990611237565b60405180910390fd5b816006548111156109e8576040517f08c379a00000000000000000000000000000000000000000000000000000000081526004016109df9061145e565b60405180910390fd5b670de0b6b3a7640000811115610a33576040517f08c379a0000000000000000000000000000000000000000000000000000000008152600401610a2a906114ca565b60405180910390fd5b67016345785d8a0000600160003373ffffffffffffffffffffffffffffffffffffffff1673ffffffffffffffffffffffffffffffffffffffff16815260200190815260200160002054101580610ac857506000600260003373ffffffffffffffffffffffffffffffffffffffff1673ffffffffffffffffffffffffffffffffffffffff16815260200190815260200160002054145b610b07576040517f08c379a0000000000000000000000000000000000000000000000000000000008152600401610afe9061155c565b60405180910390fd5b670de0b6b3a764000081600260003373ffffffffffffffffffffffffffffffffffffffff1673ffffffffffffffffffffffffffffffffffffffff16815260200190815260200160002054610b5b91906113b8565b1115610b9c576040517f08c379a0000000000000000000000000000000000000000000000000000000008152600401610b93906115c8565b60405180910390fd5b4262093a80600360003373ffffffffffffffffffffffffffffffffffffffff1673ffffffffffffffffffffffffffffffffffffffff16815260200190815260200160002054610beb91906113b8565b1080610c3657506000600260003373ffffffffffffffffffffffffffffffffffffffff1673ffffffffffffffffffffffffffffffffffffffff16815260200190815260200160002054145b610c75576040517f08c379a0000000000000000000000000000000000000000000000000000000008152600401610c6c9061165a565b60405180910390fd5b610c7d610fa9565b82600260003373ffffffffffffffffffffffffffffffffffffffff1673ffffffffffffffffffffffffffffffffffffffff1681526020019081526020016000206000828254610ccc91906113b8565b9250508190555042600360003373ffffffffffffffffffffffffffffffffffffffff1673ffffffffffffffffffffffffffffffffffffffff168152602001908152602001600020819055508260056000828254610d2991906113b8565b925050819055508260066000828254610d429190611384565b925050819055503373ffffffffffffffffffffffffffffffffffffffff167fac59582e5396aca512fa873a2047e7f4c80f8f55d4a06cb34a78a0187f62719f84604051610d8f919061101b565b60405180910390a23373ffffffffffffffffffffffffffffffffffffffff166108fc849081150290604051600060405180830381858888f19350505050158015610ddd573d6000803e3d6000fd5b50610de6610ff8565b505050565b600080600260008473ffffffffffffffffffffffffffffffffffffffff1673ffffffffffffffffffffffffffffffffffffffff16815260200190815260200160002054670de0b6b3a7640000610e419190611384565b90506006548110610e5457600654610e56565b805b915050919050565b60016020528060005260406000206000915090505481565b60045481565b3460008111610ec0576040517f08c379a0000000000000000000000000000000000000000000000000000000008152600401610eb790611237565b60405180910390fd5b610ec8610fa9565b34600160003373ffffffffffffffffffffffffffffffffffffffff1673ffffffffffffffffffffffffffffffffffffffff1681526020019081526020016000206000828254610f1791906113b8565b925050819055503460046000828254610f3091906113b8565b925050819055503460066000828254610f4991906113b8565b925050819055503373ffffffffffffffffffffffffffffffffffffffff167f2a01595cddf097c90216094025db714da3f4e5bd8877b56ba86a24ecead8e54334604051610f96919061101b565b60405180910390a2610fa6610ff8565b50565b600260005403610fee576040517f08c379a0000000000000000000000000000000000000000000000000000000008152600401610fe5906116c6565b60405180910390fd5b6002600081905550565b6001600081905550565b6000819050919050565b61101581611002565b82525050565b6000602082019050611030600083018461100c565b92915050565b600080fd5b600073ffffffffffffffffffffffffffffffffffffffff82169050919050565b60006110668261103b565b9050919050565b6110768161105b565b811461108157600080fd5b50565b6000813590506110938161106d565b92915050565b6000602082840312156110af576110ae611036565b5b60006110bd84828501611084565b91505092915050565b60008115159050919050565b6110db816110c6565b82525050565b60006080820190506110f6600083018761100c565b611103602083018661100c565b611110604083018561100c565b61111d60608301846110d2565b95945050505050565b61112f81611002565b811461113a57600080fd5b50565b60008135905061114c81611126565b92915050565b6000806040838503121561116957611168611036565b5b600061117785828601611084565b92505060206111888582860161113d565b9150509250929050565b60006020820190506111a760008301846110d2565b92915050565b6000602082840312156111c3576111c2611036565b5b60006111d18482850161113d565b91505092915050565b600082825260208201905092915050565b7f416d6f756e74206d7573742062652067726561746572207468616e2030000000600082015250565b6000611221601d836111da565b915061122c826111eb565b602082019050919050565b6000602082019050818103600083015261125081611214565b9050919050565b7f4e6f2061637469766520626f72726f77696e6700000000000000000000000000600082015250565b600061128d6013836111da565b915061129882611257565b602082019050919050565b600060208201905081810360008301526112bc81611280565b9050919050565b7f52657061796d656e74206578636565647320626f72726f77656420616d6f756e60008201527f7400000000000000000000000000000000000000000000000000000000000000602082015250565b600061131f6021836111da565b915061132a826112c3565b604082019050919050565b6000602082019050818103600083015261134e81611312565b9050919050565b7f4e487b7100000000000000000000000000000000000000000000000000000000600052601160045260246000fd5b600061138f82611002565b915061139a83611002565b92508282039050818111156113b2576113b1611355565b5b92915050565b60006113c382611002565b91506113ce83611002565b92508282019050808211156113e6576113e5611355565b5b92915050565b7f496e73756666696369656e742066756e647320696e2076656e64696e67206d6160008201527f6368696e65000000000000000000000000000000000000000000000000000000602082015250565b60006114486025836111da565b9150611453826113ec565b604082019050919050565b600060208201905081810360008301526114778161143b565b9050919050565b7f45786365656473206d6178696d756d20626f72726f7720616d6f756e74000000600082015250565b60006114b4601d836111da565b91506114bf8261147e565b602082019050919050565b600060208201905081810360008301526114e3816114a7565b9050919050565b7f4d696e696d756d20646f6e6174696f6e207265717569726564206f722065786960008201527f7374696e67206465627400000000000000000000000000000000000000000000602082015250565b6000611546602a836111da565b9150611551826114ea565b604082019050919050565b6000602082019050818103600083015261157581611539565b9050919050565b7f4578636565647320706572736f6e616c20626f72726f77206c696d6974000000600082015250565b60006115b2601d836111da565b91506115bd8261157c565b602082019050919050565b600060208201905081810360008301526115e1816115a5565b9050919050565b7f50726576696f757320626f72726f77206e6f742079657420726570616964206f60008201527f72206475726174696f6e206e6f74206578706972656400000000000000000000602082015250565b60006116446036836111da565b915061164f826115e8565b604082019050919050565b6000602082019050818103600083015261167381611637565b9050919050565b7f5265656e7472616e637947756172643a207265656e7472616e742063616c6c00600082015250565b60006116b0601f836111da565b91506116bb8261167a565b602082019050919050565b600060208201905081810360008301526116df816116a3565b905091905056fea26469706673582212200e471f35d56bc41fc8948f20610718e427cceb7cc762d974c7832372a4d7bc7364736f6c63430008140033",
  "linkReferences": {},
  "deployedLinkReferences": {}
}