{
  "_format": "hh-sol-artifact-1",
  "contractName": "LoanMachine",
  "sourceName": "contracts/LoanMachine.sol",
  "abi": [
    {
      "inputs": [
        {
          "internalType": "address",
          "name": "_usdtToken",
          "type": "address"
        },
        {
          "internalType": "address",
          "name": "_reputationSystem",
          "type": "address"
        }
      ],
      "stateMutability": "nonpayable",
      "type": "constructor"
    },
    {
      "inputs": [],
      "name": "BorrowNotExpired",
      "type": "error"
    },
    {
      "inputs": [],
      "name": "ExcessiveDonation",
      "type": "error"
    },
    {
      "inputs": [],
      "name": "InsufficientDonationBalance",
      "type": "error"
    },
    {
      "inputs": [],
      "name": "InsufficientFunds",
      "type": "error"
    },
    {
      "inputs": [],
      "name": "InvalidAmount",
      "type": "error"
    },
    {
      "inputs": [],
      "name": "InvalidCoveragePercentage",
      "type": "error"
    },
    {
      "inputs": [],
      "name": "InvalidParcelsCount",
      "type": "error"
    },
    {
      "inputs": [],
      "name": "LoanNotAvailable",
      "type": "error"
    },
    {
      "inputs": [],
      "name": "MemberIdOrWalletInvalid",
      "type": "error"
    },
    {
      "inputs": [],
      "name": "MinimumDonationRequired",
      "type": "error"
    },
    {
      "inputs": [],
      "name": "NoActiveBorrowing",
      "type": "error"
    },
    {
      "inputs": [],
      "name": "OverCoverage",
      "type": "error"
    },
    {
      "inputs": [],
      "name": "ParcelAlreadyPaid",
      "type": "error"
    },
    {
      "inputs": [],
      "name": "RepaymentExceedsBorrowed",
      "type": "error"
    },
    {
      "inputs": [],
      "name": "TokenTransferFailed",
      "type": "error"
    },
    {
      "inputs": [],
      "name": "WalletAlreadyVinculated",
      "type": "error"
    },
    {
      "anonymous": false,
      "inputs": [
        {
          "indexed": false,
          "internalType": "uint256",
          "name": "total",
          "type": "uint256"
        }
      ],
      "name": "AvailableBalanceUpdated",
      "type": "event"
    },
    {
      "anonymous": false,
      "inputs": [
        {
          "indexed": true,
          "internalType": "address",
          "name": "borrower",
          "type": "address"
        }
      ],
      "name": "BorrowLimitReached",
      "type": "event"
    },
    {
      "anonymous": false,
      "inputs": [
        {
          "indexed": true,
          "internalType": "address",
          "name": "borrower",
          "type": "address"
        },
        {
          "indexed": false,
          "internalType": "uint256",
          "name": "amount",
          "type": "uint256"
        },
        {
          "indexed": false,
          "internalType": "uint256",
          "name": "totalBorrowing",
          "type": "uint256"
        }
      ],
      "name": "Borrowed",
      "type": "event"
    },
    {
      "anonymous": false,
      "inputs": [
        {
          "indexed": true,
          "internalType": "address",
          "name": "donor",
          "type": "address"
        },
        {
          "indexed": false,
          "internalType": "uint256",
          "name": "amount",
          "type": "uint256"
        },
        {
          "indexed": false,
          "internalType": "uint256",
          "name": "totalDonation",
          "type": "uint256"
        }
      ],
      "name": "Donated",
      "type": "event"
    },
    {
      "anonymous": false,
      "inputs": [
        {
          "indexed": true,
          "internalType": "uint256",
          "name": "requisitionId",
          "type": "uint256"
        },
        {
          "indexed": true,
          "internalType": "address",
          "name": "lender",
          "type": "address"
        },
        {
          "indexed": false,
          "internalType": "uint256",
          "name": "amount",
          "type": "uint256"
        }
      ],
      "name": "LenderRepaid",
      "type": "event"
    },
    {
      "anonymous": false,
      "inputs": [
        {
          "indexed": true,
          "internalType": "uint256",
          "name": "requisitionId",
          "type": "uint256"
        }
      ],
      "name": "LoanCompleted",
      "type": "event"
    },
    {
      "anonymous": false,
      "inputs": [
        {
          "indexed": true,
          "internalType": "address",
          "name": "walletAddress",
          "type": "address"
        },
        {
          "indexed": true,
          "internalType": "uint256",
          "name": "requisitionId",
          "type": "uint256"
        },
        {
          "indexed": false,
          "internalType": "enum ILoanMachine.ContractStatus",
          "name": "status",
          "type": "uint8"
        },
        {
          "indexed": false,
          "internalType": "uint32",
          "name": "parcelsPending",
          "type": "uint32"
        },
        {
          "indexed": false,
          "internalType": "uint256",
          "name": "parcelsValues",
          "type": "uint256"
        },
        {
          "indexed": false,
          "internalType": "uint256[]",
          "name": "paymentDates",
          "type": "uint256[]"
        }
      ],
      "name": "LoanContractGenerated",
      "type": "event"
    },
    {
      "anonymous": false,
      "inputs": [
        {
          "indexed": true,
          "internalType": "uint256",
          "name": "requisitionId",
          "type": "uint256"
        },
        {
          "indexed": true,
          "internalType": "address",
          "name": "lender",
          "type": "address"
        },
        {
          "indexed": false,
          "internalType": "uint256",
          "name": "coverageAmount",
          "type": "uint256"
        }
      ],
      "name": "LoanCovered",
      "type": "event"
    },
    {
      "anonymous": false,
      "inputs": [
        {
          "indexed": true,
          "internalType": "uint256",
          "name": "requisitionId",
          "type": "uint256"
        }
      ],
      "name": "LoanFunded",
      "type": "event"
    },
    {
      "anonymous": false,
      "inputs": [
        {
          "indexed": true,
          "internalType": "uint256",
          "name": "requisitionId",
          "type": "uint256"
        },
        {
          "indexed": true,
          "internalType": "address",
          "name": "borrower",
          "type": "address"
        },
        {
          "indexed": false,
          "internalType": "uint256",
          "name": "amount",
          "type": "uint256"
        },
        {
          "indexed": false,
          "internalType": "uint32",
          "name": "parcelsCount",
          "type": "uint32"
        }
      ],
      "name": "LoanRequisitionCreated",
      "type": "event"
    },
    {
      "anonymous": false,
      "inputs": [
        {
          "indexed": true,
          "internalType": "uint32",
          "name": "memberId",
          "type": "uint32"
        },
        {
          "indexed": true,
          "internalType": "address",
          "name": "wallet",
          "type": "address"
        },
        {
          "indexed": false,
          "internalType": "uint256",
          "name": "timestamp",
          "type": "uint256"
        }
      ],
      "name": "MemberToWalletVinculation",
      "type": "event"
    },
    {
      "anonymous": false,
      "inputs": [
        {
          "indexed": true,
          "internalType": "address",
          "name": "borrower",
          "type": "address"
        }
      ],
      "name": "NewBorrower",
      "type": "event"
    },
    {
      "anonymous": false,
      "inputs": [
        {
          "indexed": true,
          "internalType": "address",
          "name": "donor",
          "type": "address"
        }
      ],
      "name": "NewDonor",
      "type": "event"
    },
    {
      "anonymous": false,
      "inputs": [
        {
          "indexed": true,
          "internalType": "uint256",
          "name": "requisitionId",
          "type": "uint256"
        },
        {
          "indexed": false,
          "internalType": "uint256",
          "name": "parcelsRemaining",
          "type": "uint256"
        }
      ],
      "name": "ParcelPaid",
      "type": "event"
    },
    {
      "anonymous": false,
      "inputs": [
        {
          "indexed": true,
          "internalType": "address",
          "name": "borrower",
          "type": "address"
        },
        {
          "indexed": false,
          "internalType": "uint256",
          "name": "amount",
          "type": "uint256"
        },
        {
          "indexed": false,
          "internalType": "uint256",
          "name": "remainingDebt",
          "type": "uint256"
        }
      ],
      "name": "Repaid",
      "type": "event"
    },
    {
      "anonymous": false,
      "inputs": [
        {
          "indexed": true,
          "internalType": "uint32",
          "name": "memberId",
          "type": "uint32"
        },
        {
          "indexed": false,
          "internalType": "int32",
          "name": "points",
          "type": "int32"
        },
        {
          "indexed": false,
          "internalType": "bool",
          "name": "increase",
          "type": "bool"
        },
        {
          "indexed": false,
          "internalType": "int32",
          "name": "newReputation",
          "type": "int32"
        },
        {
          "indexed": false,
          "internalType": "uint256",
          "name": "timestamp",
          "type": "uint256"
        }
      ],
      "name": "ReputationChanged",
      "type": "event"
    },
    {
      "anonymous": false,
      "inputs": [
        {
          "indexed": false,
          "internalType": "uint256",
          "name": "total",
          "type": "uint256"
        }
      ],
      "name": "TotalBorrowedUpdated",
      "type": "event"
    },
    {
      "anonymous": false,
      "inputs": [
        {
          "indexed": false,
          "internalType": "uint256",
          "name": "total",
          "type": "uint256"
        }
      ],
      "name": "TotalDonationsUpdated",
      "type": "event"
    },
    {
      "inputs": [
        {
          "internalType": "address",
          "name": "",
          "type": "address"
        },
        {
          "internalType": "uint256",
          "name": "",
          "type": "uint256"
        }
      ],
      "name": "borrowerRequisitions",
      "outputs": [
        {
          "internalType": "uint256",
          "name": "",
          "type": "uint256"
        }
      ],
      "stateMutability": "view",
      "type": "function"
    },
    {
      "inputs": [
        {
          "internalType": "uint256",
          "name": "requisitionId",
          "type": "uint256"
        },
        {
          "internalType": "address",
          "name": "borrower",
          "type": "address"
        }
      ],
      "name": "canPayRequisition",
      "outputs": [
        {
          "internalType": "bool",
          "name": "",
          "type": "bool"
        }
      ],
      "stateMutability": "view",
      "type": "function"
    },
    {
      "inputs": [
        {
          "internalType": "address",
          "name": "_user",
          "type": "address"
        },
        {
          "internalType": "uint256",
          "name": "_amount",
          "type": "uint256"
        }
      ],
      "name": "canUserBorrow",
      "outputs": [
        {
          "internalType": "bool",
          "name": "",
          "type": "bool"
        }
      ],
      "stateMutability": "view",
      "type": "function"
    },
    {
      "inputs": [
        {
          "internalType": "uint256",
          "name": "requisitionId",
          "type": "uint256"
        },
        {
          "internalType": "uint32",
          "name": "coveragePercentage",
          "type": "uint32"
        },
        {
          "internalType": "uint32",
          "name": "memberId",
          "type": "uint32"
        }
      ],
      "name": "coverLoan",
      "outputs": [],
      "stateMutability": "nonpayable",
      "type": "function"
    },
    {
      "inputs": [
        {
          "internalType": "uint256",
          "name": "_amount",
          "type": "uint256"
        },
        {
          "internalType": "uint32",
          "name": "_minimumCoverage",
          "type": "uint32"
        },
        {
          "internalType": "uint256",
          "name": "_durationDays",
          "type": "uint256"
        },
        {
          "internalType": "uint32",
          "name": "parcelscount",
          "type": "uint32"
        },
        {
          "internalType": "uint32",
          "name": "memberId",
          "type": "uint32"
        }
      ],
      "name": "createLoanRequisition",
      "outputs": [
        {
          "internalType": "uint256",
          "name": "",
          "type": "uint256"
        }
      ],
      "stateMutability": "nonpayable",
      "type": "function"
    },
    {
      "inputs": [
        {
          "internalType": "uint256",
          "name": "amount",
          "type": "uint256"
        },
        {
          "internalType": "uint32",
          "name": "memberId",
          "type": "uint32"
        }
      ],
      "name": "donate",
      "outputs": [],
      "stateMutability": "nonpayable",
      "type": "function"
    },
    {
      "inputs": [
        {
          "internalType": "address",
          "name": "borrower",
          "type": "address"
        }
      ],
      "name": "getActiveLoans",
      "outputs": [
        {
          "components": [
            {
              "internalType": "address",
              "name": "walletAddress",
              "type": "address"
            },
            {
              "internalType": "uint256",
              "name": "requisitionId",
              "type": "uint256"
            },
            {
              "internalType": "enum ILoanMachine.ContractStatus",
              "name": "status",
              "type": "uint8"
            },
            {
              "internalType": "uint32",
              "name": "parcelsCount",
              "type": "uint32"
            },
            {
              "internalType": "uint32",
              "name": "parcelsPending",
              "type": "uint32"
            },
            {
              "internalType": "uint256",
              "name": "parcelsValues",
              "type": "uint256"
            },
            {
              "internalType": "uint256[]",
              "name": "paymentDates",
              "type": "uint256[]"
            }
          ],
          "internalType": "struct ILoanMachine.LoanContract[]",
          "name": "activeLoans",
          "type": "tuple[]"
        },
        {
          "internalType": "uint256[]",
          "name": "requisitionIds",
          "type": "uint256[]"
        }
      ],
      "stateMutability": "view",
      "type": "function"
    },
    {
      "inputs": [
        {
          "internalType": "address",
          "name": "user",
          "type": "address"
        }
      ],
      "name": "getAllowance",
      "outputs": [
        {
          "internalType": "uint256",
          "name": "",
          "type": "uint256"
        }
      ],
      "stateMutability": "view",
      "type": "function"
    },
    {
      "inputs": [],
      "name": "getAvailableBalance",
      "outputs": [
        {
          "internalType": "uint256",
          "name": "",
          "type": "uint256"
        }
      ],
      "stateMutability": "view",
      "type": "function"
    },
    {
      "inputs": [],
      "name": "getAvailableBorrowAmount",
      "outputs": [
        {
          "internalType": "uint256",
          "name": "",
          "type": "uint256"
        }
      ],
      "stateMutability": "view",
      "type": "function"
    },
    {
      "inputs": [
        {
          "internalType": "address",
          "name": "borrower",
          "type": "address"
        }
      ],
      "name": "getBorrowerRequisitions",
      "outputs": [
        {
          "internalType": "uint256[]",
          "name": "",
          "type": "uint256[]"
        }
      ],
      "stateMutability": "view",
      "type": "function"
    },
    {
      "inputs": [
        {
          "internalType": "address",
          "name": "_user",
          "type": "address"
        }
      ],
      "name": "getBorrowing",
      "outputs": [
        {
          "internalType": "uint256",
          "name": "",
          "type": "uint256"
        }
      ],
      "stateMutability": "view",
      "type": "function"
    },
    {
      "inputs": [],
      "name": "getContractBalance",
      "outputs": [
        {
          "internalType": "uint256",
          "name": "",
          "type": "uint256"
        }
      ],
      "stateMutability": "view",
      "type": "function"
    },
    {
      "inputs": [
        {
          "internalType": "uint256",
          "name": "requisitionId",
          "type": "uint256"
        }
      ],
      "name": "getCoveringLenders",
      "outputs": [
        {
          "internalType": "address[]",
          "name": "",
          "type": "address[]"
        }
      ],
      "stateMutability": "view",
      "type": "function"
    },
    {
      "inputs": [
        {
          "internalType": "address",
          "name": "_user",
          "type": "address"
        }
      ],
      "name": "getDonation",
      "outputs": [
        {
          "internalType": "uint256",
          "name": "",
          "type": "uint256"
        }
      ],
      "stateMutability": "view",
      "type": "function"
    },
    {
      "inputs": [
        {
          "internalType": "address",
          "name": "lender",
          "type": "address"
        }
      ],
      "name": "getDonationsInCoverage",
      "outputs": [
        {
          "internalType": "uint256",
          "name": "",
          "type": "uint256"
        }
      ],
      "stateMutability": "view",
      "type": "function"
    },
    {
      "inputs": [
        {
          "internalType": "address",
          "name": "_user",
          "type": "address"
        }
      ],
      "name": "getLastBorrowTime",
      "outputs": [
        {
          "internalType": "uint256",
          "name": "",
          "type": "uint256"
        }
      ],
      "stateMutability": "view",
      "type": "function"
    },
    {
      "inputs": [
        {
          "internalType": "uint256",
          "name": "requisitionId",
          "type": "uint256"
        },
        {
          "internalType": "address",
          "name": "lender",
          "type": "address"
        }
      ],
      "name": "getLenderCoverage",
      "outputs": [
        {
          "internalType": "uint256",
          "name": "",
          "type": "uint256"
        }
      ],
      "stateMutability": "view",
      "type": "function"
    },
    {
      "inputs": [
        {
          "internalType": "uint256",
          "name": "requisitionId",
          "type": "uint256"
        }
      ],
      "name": "getLoanContract",
      "outputs": [
        {
          "components": [
            {
              "internalType": "address",
              "name": "walletAddress",
              "type": "address"
            },
            {
              "internalType": "uint256",
              "name": "requisitionId",
              "type": "uint256"
            },
            {
              "internalType": "enum ILoanMachine.ContractStatus",
              "name": "status",
              "type": "uint8"
            },
            {
              "internalType": "uint32",
              "name": "parcelsCount",
              "type": "uint32"
            },
            {
              "internalType": "uint32",
              "name": "parcelsPending",
              "type": "uint32"
            },
            {
              "internalType": "uint256",
              "name": "parcelsValues",
              "type": "uint256"
            },
            {
              "internalType": "uint256[]",
              "name": "paymentDates",
              "type": "uint256[]"
            }
          ],
          "internalType": "struct ILoanMachine.LoanContract",
          "name": "",
          "type": "tuple"
        }
      ],
      "stateMutability": "view",
      "type": "function"
    },
    {
      "inputs": [
        {
          "internalType": "address",
          "name": "wallet",
          "type": "address"
        }
      ],
      "name": "getMemberId",
      "outputs": [
        {
          "internalType": "uint32",
          "name": "",
          "type": "uint32"
        }
      ],
      "stateMutability": "view",
      "type": "function"
    },
    {
      "inputs": [
        {
          "internalType": "uint256",
          "name": "requisitionId",
          "type": "uint256"
        }
      ],
      "name": "getNextPaymentAmount",
      "outputs": [
        {
          "internalType": "uint256",
          "name": "paymentAmount",
          "type": "uint256"
        },
        {
          "internalType": "bool",
          "name": "canPay",
          "type": "bool"
        }
      ],
      "stateMutability": "view",
      "type": "function"
    },
    {
      "inputs": [
        {
          "internalType": "uint256",
          "name": "requisitionId",
          "type": "uint256"
        }
      ],
      "name": "getPaymentDates",
      "outputs": [
        {
          "internalType": "uint256[]",
          "name": "",
          "type": "uint256[]"
        }
      ],
      "stateMutability": "view",
      "type": "function"
    },
    {
      "inputs": [
        {
          "internalType": "uint256",
          "name": "requisitionId",
          "type": "uint256"
        }
      ],
      "name": "getRepaymentSummary",
      "outputs": [
        {
          "internalType": "uint256",
          "name": "totalRemainingDebt",
          "type": "uint256"
        },
        {
          "internalType": "uint256",
          "name": "nextPaymentAmount",
          "type": "uint256"
        },
        {
          "internalType": "uint256",
          "name": "parcelsRemaining",
          "type": "uint256"
        },
        {
          "internalType": "uint256",
          "name": "totalParcels",
          "type": "uint256"
        },
        {
          "internalType": "bool",
          "name": "isActive",
          "type": "bool"
        }
      ],
      "stateMutability": "view",
      "type": "function"
    },
    {
      "inputs": [
        {
          "internalType": "uint32",
          "name": "memberId",
          "type": "uint32"
        }
      ],
      "name": "getReputation",
      "outputs": [
        {
          "internalType": "int32",
          "name": "",
          "type": "int32"
        }
      ],
      "stateMutability": "view",
      "type": "function"
    },
    {
      "inputs": [
        {
          "internalType": "uint256",
          "name": "requisitionId",
          "type": "uint256"
        }
      ],
      "name": "getRequisitionInfo",
      "outputs": [
        {
          "components": [
            {
              "internalType": "uint256",
              "name": "requisitionId",
              "type": "uint256"
            },
            {
              "internalType": "address",
              "name": "borrower",
              "type": "address"
            },
            {
              "internalType": "uint256",
              "name": "amount",
              "type": "uint256"
            },
            {
              "internalType": "uint32",
              "name": "minimumCoverage",
              "type": "uint32"
            },
            {
              "internalType": "uint32",
              "name": "currentCoverage",
              "type": "uint32"
            },
            {
              "internalType": "enum ILoanMachine.BorrowStatus",
              "name": "status",
              "type": "uint8"
            },
            {
              "internalType": "uint256",
              "name": "durationDays",
              "type": "uint256"
            },
            {
              "internalType": "uint256",
              "name": "creationTime",
              "type": "uint256"
            },
            {
              "internalType": "address[]",
              "name": "coveringLenders",
              "type": "address[]"
            },
            {
              "internalType": "uint32",
              "name": "parcelsCount",
              "type": "uint32"
            }
          ],
          "internalType": "struct ILoanMachine.RequisitionInfo",
          "name": "",
          "type": "tuple"
        }
      ],
      "stateMutability": "view",
      "type": "function"
    },
    {
      "inputs": [],
      "name": "getTotalBorrowed",
      "outputs": [
        {
          "internalType": "uint256",
          "name": "",
          "type": "uint256"
        }
      ],
      "stateMutability": "view",
      "type": "function"
    },
    {
      "inputs": [],
      "name": "getTotalDonations",
      "outputs": [
        {
          "internalType": "uint256",
          "name": "",
          "type": "uint256"
        }
      ],
      "stateMutability": "view",
      "type": "function"
    },
    {
      "inputs": [],
      "name": "getUSDTBalance",
      "outputs": [
        {
          "internalType": "uint256",
          "name": "",
          "type": "uint256"
        }
      ],
      "stateMutability": "view",
      "type": "function"
    },
    {
      "inputs": [
        {
          "internalType": "address",
          "name": "wallet",
          "type": "address"
        }
      ],
      "name": "isWalletVinculated",
      "outputs": [
        {
          "internalType": "bool",
          "name": "",
          "type": "bool"
        }
      ],
      "stateMutability": "view",
      "type": "function"
    },
    {
      "inputs": [
        {
          "internalType": "uint256",
          "name": "",
          "type": "uint256"
        }
      ],
      "name": "loanContracts",
      "outputs": [
        {
          "internalType": "address",
          "name": "walletAddress",
          "type": "address"
        },
        {
          "internalType": "uint256",
          "name": "requisitionId",
          "type": "uint256"
        },
        {
          "internalType": "enum ILoanMachine.ContractStatus",
          "name": "status",
          "type": "uint8"
        },
        {
          "internalType": "uint32",
          "name": "parcelsCount",
          "type": "uint32"
        },
        {
          "internalType": "uint32",
          "name": "parcelsPending",
          "type": "uint32"
        },
        {
          "internalType": "uint256",
          "name": "parcelsValues",
          "type": "uint256"
        }
      ],
      "stateMutability": "view",
      "type": "function"
    },
    {
      "inputs": [
        {
          "internalType": "uint256",
          "name": "requisitionId",
          "type": "uint256"
        },
        {
          "internalType": "uint256",
          "name": "amount",
          "type": "uint256"
        },
        {
          "internalType": "uint32",
          "name": "memberId",
          "type": "uint32"
        }
      ],
      "name": "repay",
      "outputs": [],
      "stateMutability": "nonpayable",
      "type": "function"
    },
    {
      "inputs": [],
      "name": "reputationSystem",
      "outputs": [
        {
          "internalType": "contract ReputationSystem",
          "name": "",
          "type": "address"
        }
      ],
      "stateMutability": "view",
      "type": "function"
    },
    {
      "inputs": [],
      "name": "requisitionCounter",
      "outputs": [
        {
          "internalType": "uint256",
          "name": "",
          "type": "uint256"
        }
      ],
      "stateMutability": "view",
      "type": "function"
    },
    {
      "inputs": [],
      "name": "usdtToken",
      "outputs": [
        {
          "internalType": "address",
          "name": "",
          "type": "address"
        }
      ],
      "stateMutability": "view",
      "type": "function"
    },
    {
      "inputs": [
        {
          "internalType": "uint32",
          "name": "memberId",
          "type": "uint32"
        },
        {
          "internalType": "address",
          "name": "wallet",
          "type": "address"
        }
      ],
      "name": "vinculationMemberToWallet",
      "outputs": [],
      "stateMutability": "nonpayable",
      "type": "function"
    }
  ],
  "bytecode": "0x60a06040523480156200001157600080fd5b50604051620032583803806200325883398101604081905262000034916200007f565b600160008190556001600160a01b0392831660805280546001600160a01b03191691909216179055620000b7565b80516001600160a01b03811681146200007a57600080fd5b919050565b600080604083850312156200009357600080fd5b6200009e8362000062565b9150620000ae6020840162000062565b90509250929050565b608051613162620000f66000396000818161053c015281816111430152818161170a01528181611cf001528181611ecb01526127d001526131626000f3fe608060405234801561001057600080fd5b50600436106102115760003560e01c80637d52437a1161012557806397c33519116100ad578063be5eb5801161007c578063be5eb58014610571578063c269014b1461059a578063e2763924146105c2578063eb5a662e146105d5578063ecb18b34146105e857600080fd5b806397c33519146105115780639e93201114610524578063a98ad46c14610537578063adceb1011461055e57600080fd5b806384ddf5ea116100f457806384ddf5ea146104c25780638a914a63146104cb5780639059f9ca146104eb5780639730872a146104fe5780639785fac81461044357600080fd5b80637d52437a14610453578063809dab6a1461030357806381db228414610473578063827cc0e51461049957600080fd5b8063383ab2ef116101a85780636509a710116101775780636509a710146103c7578063657eb031146103ef5780636587eda1146104185780636f9fb98a14610443578063777c658f1461044b57600080fd5b8063383ab2ef14610348578063410a1d32146103685780634e51c7df14610391578063598a562a146103a457600080fd5b806321bb31e4116101e457806321bb31e414610281578063232869fa14610296578063291c31a7146103035780632b31c0221461030b57600080fd5b80630307c4a11461021657806303d1a1a11461022d578063182d94b51461024e5780631b70ba3e14610261575b600080fd5b6006545b6040519081526020015b60405180910390f35b61024061023b366004612a34565b6105fb565b604051610224929190612b5b565b61021a61025c366004612be6565b61096b565b61027461026f366004612c45565b610c7f565b6040516102249190612ca7565b61029461028f366004612d63565b610de3565b005b6102f16102a4366004612c45565b600c6020526000908152604090208054600182015460028301546003909301546001600160a01b0390921692909160ff82169163ffffffff6101008204811692600160281b909204169086565b60405161022496959493929190612d98565b60075461021a565b61031e610319366004612c45565b610e52565b6040805195865260208601949094529284019190915260608301521515608082015260a001610224565b61035b610356366004612c45565b610f27565b6040516102249190612de2565b61021a610376366004612a34565b6001600160a01b031660009081526002602052604090205490565b61021a61039f366004612df5565b611029565b6103b76103b2366004612a34565b611056565b6040519015158152602001610224565b6103da6103d5366004612c45565b6110c5565b60408051928352901515602083015201610224565b61021a6103fd366004612a34565b6001600160a01b031660009081526004602052604090205490565b60015461042b906001600160a01b031681565b6040516001600160a01b039091168152602001610224565b61021a61112b565b60055461021a565b610466610461366004612c45565b6111bb565b6040516102249190612e18565b610486610481366004612e2b565b611220565b60405160039190910b8152602001610224565b61021a6104a7366004612a34565b6001600160a01b03166000908152600b602052604090205490565b61021a60095481565b6104de6104d9366004612c45565b611293565b6040516102249190612e48565b6102946104f9366004612e5b565b611301565b61046661050c366004612a34565b6119bc565b6103b761051f366004612e94565b611a26565b61021a610532366004612e94565b611ad9565b61042b7f000000000000000000000000000000000000000000000000000000000000000081565b6103b761056c366004612df5565b611b0a565b61021a61057f366004612a34565b6001600160a01b031660009081526003602052604090205490565b6105ad6105a8366004612a34565b611b70565b60405163ffffffff9091168152602001610224565b6102946105d0366004612ebe565b611bdf565b61021a6105e3366004612a34565b611ea3565b6102946105f6366004612eee565b611f38565b6001600160a01b0381166000908152600a60205260408120606091829190805b82548110156106d1576000600c600085848154811061063c5761063c612f25565b60009182526020808320909101548352820192909252604001902080549091506001600160a01b0390811690881614801561068f5750600060028083015460ff169081111561068d5761068d612a4f565b145b80156106ab57506002810154600160281b900463ffffffff1615155b156106be57826106ba81612f51565b9350505b50806106c981612f51565b91505061061b565b508067ffffffffffffffff8111156106eb576106eb612f6a565b60405190808252806020026020018201604052801561072457816020015b6107116129cf565b8152602001906001900390816107095790505b5093508067ffffffffffffffff81111561074057610740612f6a565b604051908082528060200260200182016040528015610769578160200160208202803683370190505b5092506000805b8354811015610962576000600c600086848154811061079157610791612f25565b60009182526020808320909101548352820192909252604001902080549091506001600160a01b039081169089161480156107e45750600060028083015460ff16908111156107e2576107e2612a4f565b145b801561080057506002810154600160281b900463ffffffff1615155b1561094f576040805160e08101825282546001600160a01b0316815260018301546020820152600280840154919284929084019160ff9091169081111561084957610849612a4f565b600281111561085a5761085a612a4f565b8152600282015463ffffffff61010082048116602080850191909152600160281b909204166040808401919091526003840154606084015260048401805482518185028101850190935280835260809094019391929091908301828280156108e157602002820191906000526020600020905b8154815260200190600101908083116108cd575b5050505050815250508784815181106108fc576108fc612f25565b602002602001018190525084828154811061091957610919612f25565b906000526020600020015486848151811061093657610936612f25565b60209081029190910101528261094b81612f51565b9350505b508061095a81612f51565b915050610770565b50505050915091565b6000813363ffffffff821615806109ed5750600154604051632cc52b1560e11b81526001600160a01b0383811660048301529091169063598a562a90602401602060405180830381865afa1580156109c7573d6000803e3d6000fd5b505050506040513d601f19601f820116820180604052508101906109eb9190612f80565b155b15610a0b57604051630cff23e760e01b815260040160405180910390fd5b8780600003610a2d5760405163162908e360e11b815260040160405180910390fd5b8763ffffffff16604681111580610a445750606481115b15610a625760405163d1e95ed560e01b815260040160405180910390fd5b8660018163ffffffff161080610a7e5750600c8163ffffffff16115b15610a9c5760405163524eff2760e01b815260040160405180910390fd5b6007548b1115610abf5760405163356680b760e01b815260040160405180910390fd5b6009805460009182610ad083612f51565b9190505590506000600860008381526020019081526020016000209050338160010160006101000a8154816001600160a01b0302191690836001600160a01b031602179055508c81600201819055508b8160030160006101000a81548163ffffffff021916908363ffffffff16021790555060008160030160046101000a81548163ffffffff021916908363ffffffff16021790555060008160030160086101000a81548160ff02191690836005811115610b8d57610b8d612a4f565b02179055508a8160040181905550428160050181905550898160080160006101000a81548163ffffffff021916908363ffffffff160217905550818160000181905550600a6000336001600160a01b03166001600160a01b03168152602001908152602001600020829080600181540180825580915050600190039060005260206000200160009091909190915055336001600160a01b0316827fde3b47cf7da95a3cc41b86cf8717ead8d56a76ee1590481c5c4dc4d8804c40c48f8d604051610c6792919091825263ffffffff16602082015260400190565b60405180910390a3509b9a5050505050505050505050565b604080516101408101825260008082526020820181905291810182905260608082018390526080820183905260a0820183905260c0820183905260e082018390526101008201526101208101919091526000828152600860209081526040918290208251610140810184528154815260018201546001600160a01b031692810192909252600281015492820192909252600382015463ffffffff8082166060840152640100000000820416608083015260a0820190600160401b900460ff166005811115610d4f57610d4f612a4f565b8152602001826004015481526020018260050154815260200182600601805480602002602001604051908101604052809291908181526020018280548015610dc057602002820191906000526020600020905b81546001600160a01b03168152600190910190602001808311610da2575b505050918352505060089092015463ffffffff1660209092019190915292915050565b60015460405163086ecc7960e21b815263ffffffff841660048201526001600160a01b038381166024830152909116906321bb31e490604401600060405180830381600087803b158015610e3657600080fd5b505af1158015610e4a573d6000803e3d6000fd5b505050505050565b6000818152600c602090815260408083206008909252822082918291829182918260028084015460ff1690811115610e8c57610e8c612a4f565b148015610ea957506002820154600160281b900463ffffffff1615155b15610f015760038201546002830154610ecf9190600160281b900463ffffffff16612fa2565b60038301546002840154600884015492995090975063ffffffff600160281b9091048116965016935060019250610f1c565b60088101546000975087965086955063ffffffff1693508492505b505091939590929450565b610f2f6129cf565b6000828152600c60209081526040808320815160e08101835281546001600160a01b03168152600182015493810193909352600280820154919284019160ff1690811115610f7f57610f7f612a4f565b6002811115610f9057610f90612a4f565b8152600282015463ffffffff61010082048116602080850191909152600160281b9092041660408084019190915260038401546060840152600484018054825181850281018501909352808352608090940193919290919083018282801561101757602002820191906000526020600020905b815481526020019060010190808311611003575b50505091909252509195945050505050565b60008281526008602090815260408083206001600160a01b03851684526007019091529020545b92915050565b600154604051632cc52b1560e11b81526001600160a01b038381166004830152600092169063598a562a90602401602060405180830381865afa1580156110a1573d6000803e3d6000fd5b505050506040513d601f19601f820116820180604052508101906110509190612f80565b6000818152600c6020526040812081908160028083015460ff16908111156110ef576110ef612a4f565b14801561110c57506002810154600160281b900463ffffffff1615155b1561111f57600301549360019350915050565b50600093849350915050565b6040516370a0823160e01b81523060048201526000907f00000000000000000000000000000000000000000000000000000000000000006001600160a01b0316906370a0823190602401602060405180830381865afa158015611192573d6000803e3d6000fd5b505050506040513d601f19601f820116820180604052508101906111b69190612fb9565b905090565b6000818152600c602090815260409182902060040180548351818402810184019094528084526060939283018282801561121457602002820191906000526020600020905b815481526020019060010190808311611200575b50505050509050919050565b600154604051632076c8a160e21b815263ffffffff831660048201526000916001600160a01b0316906381db228490602401602060405180830381865afa15801561126f573d6000803e3d6000fd5b505050506040513d601f19601f820116820180604052508101906110509190612fd2565b60008181526008602090815260409182902060060180548351818402810184019094528084526060939283018282801561121457602002820191906000526020600020905b81546001600160a01b031681526001909101906020018083116112d85750505050509050919050565b803363ffffffff821615806113815750600154604051632cc52b1560e11b81526001600160a01b0383811660048301529091169063598a562a90602401602060405180830381865afa15801561135b573d6000803e3d6000fd5b505050506040513d601f19601f8201168201806040525081019061137f9190612f80565b155b1561139f57604051630cff23e760e01b815260040160405180910390fd5b6000858152600c6020908152604080832033845260039092528220548792036113db57604051630b5ab5bf60e41b815260040160405180910390fd5b80546001600160a01b0316331461140557604051630b5ab5bf60e41b815260040160405180910390fd5b600060028083015460ff169081111561142057611420612a4f565b1461143e57604051630b5ab5bf60e41b815260040160405180910390fd5b6002810154600160281b900463ffffffff1660000361147057604051630b5ab5bf60e41b815260040160405180910390fd5b6114786123df565b856000036114995760405163162908e360e11b815260040160405180910390fd5b6000878152600c6020526040812060028101549091906114cd9063ffffffff600160281b8204811691610100900416612ff5565b90506000826004018263ffffffff16815481106114ec576114ec612f25565b90600052602060002001549050804211156115e3576001546040805163a5118bf160e01b815290516001600160a01b039092169163533dfa35918b91849163a5118bf19160048083019260209291908290030181865afa158015611554573d6000803e3d6000fd5b505050506040513d601f19601f820116820180604052508101906115789190612fd2565b6040516001600160e01b031960e085901b16815263ffffffff92909216600483015260030b602482015260006044820152606401600060405180830381600087803b1580156115c657600080fd5b505af11580156115da573d6000803e3d6000fd5b505050506116c1565b60015460408051634e5ecf1360e01b815290516001600160a01b039092169163533dfa35918b918491634e5ecf139160048083019260209291908290030181865afa158015611636573d6000803e3d6000fd5b505050506040513d601f19601f8201168201806040525081019061165a9190612fd2565b6040516001600160e01b031960e085901b16815263ffffffff92909216600483015260030b602482015260016044820152606401600060405180830381600087803b1580156116a857600080fd5b505af11580156116bc573d6000803e3d6000fd5b505050505b826003015489146116e55760405163162908e360e11b815260040160405180910390fd5b6040516323b872dd60e01b8152336004820152306024820152604481018a90526000907f00000000000000000000000000000000000000000000000000000000000000006001600160a01b0316906323b872dd906064016020604051808303816000875af115801561175b573d6000803e3d6000fd5b505050506040513d601f19601f8201168201806040525081019061177f9190612f80565b90508061179f5760405163022e258160e11b815260040160405180910390fd5b33600090815260036020526040812080548c92906117be908490613019565b9250508190555089600660008282546117d79190613019565b9250508190555089600760008282546117f0919061302c565b9091555061180090508b8b61243c565b336000818152600360209081526040918290205482518e8152918201527f1b8cd61ed43bec7c6bdad3a18ffee613f99c853d16c50678d248d879e1b43438910160405180910390a26002840154604051600160281b90910463ffffffff1681528b907f406356ef25520b09e2ef87c5225167b4161ea4ab691e9434d6ee29eafcc83fc29060200160405180910390a27f17f13fd3f7c4712af33f1770ebcb822dd20a2dbc00850eab48d786623d97b9596006546040516118c291815260200190565b60405180910390a17f8b094cca6f83d49402ce208cc0c224b76625ffc58636df56ae28024e704c58686007546040516118fd91815260200190565b60405180910390a160018460020160058282829054906101000a900463ffffffff166119299190612ff5565b92506101000a81548163ffffffff021916908363ffffffff1602179055508360020160059054906101000a900463ffffffff1663ffffffff166000036119a5576002848101805460ff191690911790556040518b907f02ca5489b37dd363d1302bac719e8ee40e540ffbe8c12253570fea63e11cad7190600090a25b505050506119b36001600055565b50505050505050565b6001600160a01b0381166000908152600a602090815260409182902080548351818402810184019094528084526060939283018282801561121457602002820191906000526020600020908154815260200190600101908083116112005750505050509050919050565b60008082118015611a3957506007548211155b8015611a8057506001600160a01b038316600090815260026020526040902054620f4240111580611a8057506001600160a01b038316600090815260036020526040902054155b8015611ad257506001600160a01b0383166000908152600460205260409020544290611ab09062093a809061302c565b1080611ad257506001600160a01b038316600090815260036020526040902054155b9392505050565b600a6020528160005260406000208181548110611af557600080fd5b90600052602060002001600091509150505481565b6000828152600c6020526040812080546001600160a01b038481169116148015611b4c5750600060028083015460ff1690811115611b4a57611b4a612a4f565b145b8015611b6857506002810154600160281b900463ffffffff1615155b949350505050565b60015460405163c269014b60e01b81526001600160a01b038381166004830152600092169063c269014b90602401602060405180830381865afa158015611bbb573d6000803e3d6000fd5b505050506040513d601f19601f82011682018060405250810190611050919061303f565b803363ffffffff82161580611c5f5750600154604051632cc52b1560e11b81526001600160a01b0383811660048301529091169063598a562a90602401602060405180830381865afa158015611c39573d6000803e3d6000fd5b505050506040513d601f19601f82011682018060405250810190611c5d9190612f80565b155b15611c7d57604051630cff23e760e01b815260040160405180910390fd5b8380600003611c9f5760405163162908e360e11b815260040160405180910390fd5b611ca76123df565b624c4b40851115611ccb576040516330fdf8db60e11b815260040160405180910390fd5b6040516323b872dd60e01b8152336004820152306024820152604481018690526000907f00000000000000000000000000000000000000000000000000000000000000006001600160a01b0316906323b872dd906064016020604051808303816000875af1158015611d41573d6000803e3d6000fd5b505050506040513d601f19601f82011682018060405250810190611d659190612f80565b905080611d855760405163022e258160e11b815260040160405180910390fd5b3360008181526002602090815260409182902080548a81018255600580548c019055600780548c019055905483518b8152928301521592917f4928895ba6723e8e27b15f32e4c3054a1b6c7f8c03f133558d6fa42b3928d14c910160405180910390a27fdc6e73d4b36e22ab95945bd8833a5af96c950eb29d8d75c4aecffc987637aaab600554604051611e1b91815260200190565b60405180910390a17f8b094cca6f83d49402ce208cc0c224b76625ffc58636df56ae28024e704c5868600754604051611e5691815260200190565b60405180910390a18015611e905760405133907f072dafb6aabe3f02118bc607efbeaaa104d6b2009720c7b130f24ba418689c4b90600090a25b5050611e9c6001600055565b5050505050565b604051636eb1769f60e11b81526001600160a01b0382811660048301523060248301526000917f00000000000000000000000000000000000000000000000000000000000000009091169063dd62ed3e90604401602060405180830381865afa158015611f14573d6000803e3d6000fd5b505050506040513d601f19601f820116820180604052508101906110509190612fb9565b803363ffffffff82161580611fb85750600154604051632cc52b1560e11b81526001600160a01b0383811660048301529091169063598a562a90602401602060405180830381865afa158015611f92573d6000803e3d6000fd5b505050506040513d601f19601f82011682018060405250810190611fb69190612f80565b155b15611fd657604051630cff23e760e01b815260040160405180910390fd5b8363ffffffff81161580611ff0575060648163ffffffff16115b1561200e5760405163d1e95ed560e01b815260040160405180910390fd5b6120166123df565b6000868152600860205260408120906003820154600160401b900460ff16600581111561204557612045612a4f565b14158015612073575060016003820154600160401b900460ff16600581111561207057612070612a4f565b14155b15612091576040516380b9cb0960e01b815260040160405180910390fd5b60038101546064906120b49063ffffffff808a169164010000000090041661302c565b11156120d35760405163955f95ad60e01b815260040160405180910390fd5b670de0b6b3a764000060006120e9826064612fa2565b60016120f6846064612fa2565b6121009190613019565b838a63ffffffff1686600201546121179190612fa2565b6121219190612fa2565b61212b919061302c565b612135919061305c565b3360009081526002602052604090205490915081111561216857604051630391acf160e61b815260040160405180910390fd5b3360009081526002602052604081208054839290612187908490613019565b9091555050336000908152600b6020526040812080548392906121ab90849061302c565b90915550506003830180548991906004906121d5908490640100000000900463ffffffff1661307e565b825463ffffffff9182166101009390930a928302919092021990911617905550336000908152600784016020526040812054900361223557600683018054600181018255600091825260209091200180546001600160a01b031916331790555b3360009081526007840160205260408120805483929061225690849061302c565b9091555050600383015463ffffffff80821664010000000090920416106122a85760038301805460ff60401b19166802000000000000000017905561229a896125a8565b6122a3896126e8565b6122be565b60038301805460ff60401b1916600160401b1790555b60015460408051636adf462560e11b815290516001600160a01b039092169163533dfa35918a91849163d5be8c4a9160048083019260209291908290030181865afa158015612311573d6000803e3d6000fd5b505050506040513d601f19601f820116820180604052508101906123359190612fd2565b6040516001600160e01b031960e085901b16815263ffffffff92909216600483015260030b602482015260016044820152606401600060405180830381600087803b15801561238357600080fd5b505af1158015612397573d6000803e3d6000fd5b50506040518381523392508b91507f86b47e6e6c03d769c0bc5ffd06c682ea7d07089576d59230ec18ff64e71bffe79060200160405180910390a3505050610e4a6001600055565b6002600054036124355760405162461bcd60e51b815260206004820152601f60248201527f5265656e7472616e637947756172643a207265656e7472616e742063616c6c00604482015260640160405180910390fd5b6002600055565b6000828152600860205260408120600281015490915b6006830154811015611e9c57600083600601828154811061247557612475612f25565b60009182526020808320909101546001600160a01b031680835260078701909152604082205490925090846124aa8389612fa2565b6124b4919061305c565b90508015612592576001600160a01b0383166000908152600b60205260409020548111156124f757506001600160a01b0382166000908152600b60205260409020545b6001600160a01b0383166000908152600b60205260408120805483929061251f908490613019565b90915550506001600160a01b0383166000908152600260205260408120805483929061254c90849061302c565b90915550506040518181526001600160a01b0384169089907fe3e6ae1e05f069d410556743894aacbb190c1431962422ebe8fcc642a467dd169060200160405180910390a35b50505080806125a090612f51565b915050612452565b6000818152600c60209081526040808320600892839052922060018082015484546001600160a01b0319166001600160a01b0390911617845583018490556002808401805460ff1981168255938301805464ffffffffff19861661010063ffffffff928316029081178455825468ffffffffffffffffff1990971668ffffffff00000000001990911617958116600160281b02959095179091555491015461265492919091169061305c565b60038201556000828152600860208190526040909120015461267d90829063ffffffff16612961565b80546002820154600383015460405185936001600160a01b0316927f5215406e88f26eed4728b9cdfc5d85cea75799101cb9387b528451e6e0878dec926126dc9260ff831692600160281b900463ffffffff169190600489019061309b565b60405180910390a35050565b6000818152600860209081526040808320600281015460018201546001600160a01b03168552600390935290832080549193909161272790849061302c565b909155505060028101546006805460009061274390849061302c565b909155505060028101546007805460009061275f908490613019565b909155505060018101546001600160a01b031660009081526004602052604090204290556003808201805460ff60401b1916600160401b8302179055506001810154600282015460405163a9059cbb60e01b81526001600160a01b03928316600482015260248101919091526000917f0000000000000000000000000000000000000000000000000000000000000000169063a9059cbb906044016020604051808303816000875af1158015612819573d6000803e3d6000fd5b505050506040513d601f19601f8201168201806040525081019061283d9190612f80565b90508061285d5760405163022e258160e11b815260040160405180910390fd5b600182015460028301546001600160a01b039091166000818152600360209081526040918290205482519485529084015290917feae9cfbc77fdd40ca899f36b608256063b2bc9d8178b0220f7ad513e178d6730910160405180910390a27f17f13fd3f7c4712af33f1770ebcb822dd20a2dbc00850eab48d786623d97b9596006546040516128ee91815260200190565b60405180910390a17f8b094cca6f83d49402ce208cc0c224b76625ffc58636df56ae28024e704c586860075460405161292991815260200190565b60405180910390a160405183907f9e71d2fb732e68272b7e74ecfd14638673c1d77e19a5d390a3ffff054d57c44b90600090a2505050565b4262278d0060005b8363ffffffff168163ffffffff161015611e9c57600061298a82600161307e565b61299a9063ffffffff1684612fa2565b6129a4908561302c565b60048701805460018101825560009182526020909120015550806129c781613109565b915050612969565b6040805160e08101825260008082526020820181905290918201908152602001600063ffffffff168152602001600063ffffffff16815260200160008152602001606081525090565b80356001600160a01b0381168114612a2f57600080fd5b919050565b600060208284031215612a4657600080fd5b611ad282612a18565b634e487b7160e01b600052602160045260246000fd5b60038110612a7557612a75612a4f565b9052565b600060e0830160018060a01b038351168452602080840151818601526040840151612aa76040870182612a65565b50606084015163ffffffff8082166060880152806080870151166080880152505060a084015160a086015260c084015160e060c0870152828151808552610100880191508383019450600092505b80831015612b155784518252938301936001929092019190830190612af5565b509695505050505050565b600081518084526020808501945080840160005b83811015612b5057815187529582019590820190600101612b34565b509495945050505050565b6000604082016040835280855180835260608501915060608160051b8601019250602080880160005b83811015612bb257605f19888703018552612ba0868351612a79565b95509382019390820190600101612b84565b505085840381870152505050612bc88185612b20565b95945050505050565b63ffffffff81168114612be357600080fd5b50565b600080600080600060a08688031215612bfe57600080fd5b853594506020860135612c1081612bd1565b9350604086013592506060860135612c2781612bd1565b91506080860135612c3781612bd1565b809150509295509295909350565b600060208284031215612c5757600080fd5b5035919050565b60068110612a7557612a75612a4f565b600081518084526020808501945080840160005b83811015612b505781516001600160a01b031687529582019590820190600101612c82565b602081528151602082015260006020830151612cce60408401826001600160a01b03169052565b50604083015160608301526060830151612cf0608084018263ffffffff169052565b50608083015163ffffffff811660a08401525060a0830151612d1560c0840182612c5e565b5060c083015160e083015260e08301516101008181850152808501519150506101406101208181860152612d4d610160860184612c6e565b95015163ffffffff169301929092525090919050565b60008060408385031215612d7657600080fd5b8235612d8181612bd1565b9150612d8f60208401612a18565b90509250929050565b6001600160a01b03871681526020810186905260c08101612dbc6040830187612a65565b63ffffffff948516606083015292909316608084015260a0909201919091529392505050565b602081526000611ad26020830184612a79565b60008060408385031215612e0857600080fd5b82359150612d8f60208401612a18565b602081526000611ad26020830184612b20565b600060208284031215612e3d57600080fd5b8135611ad281612bd1565b602081526000611ad26020830184612c6e565b600080600060608486031215612e7057600080fd5b83359250602084013591506040840135612e8981612bd1565b809150509250925092565b60008060408385031215612ea757600080fd5b612eb083612a18565b946020939093013593505050565b60008060408385031215612ed157600080fd5b823591506020830135612ee381612bd1565b809150509250929050565b600080600060608486031215612f0357600080fd5b833592506020840135612f1581612bd1565b91506040840135612e8981612bd1565b634e487b7160e01b600052603260045260246000fd5b634e487b7160e01b600052601160045260246000fd5b600060018201612f6357612f63612f3b565b5060010190565b634e487b7160e01b600052604160045260246000fd5b600060208284031215612f9257600080fd5b81518015158114611ad257600080fd5b808202811582820484141761105057611050612f3b565b600060208284031215612fcb57600080fd5b5051919050565b600060208284031215612fe457600080fd5b81518060030b8114611ad257600080fd5b63ffffffff82811682821603908082111561301257613012612f3b565b5092915050565b8181038181111561105057611050612f3b565b8082018082111561105057611050612f3b565b60006020828403121561305157600080fd5b8151611ad281612bd1565b60008261307957634e487b7160e01b600052601260045260246000fd5b500490565b63ffffffff81811683821601908082111561301257613012612f3b565b6000608082016130ab8388612a65565b602063ffffffff8716818501528560408501526080606085015281855480845260a0860191508660005282600020935060005b818110156130fa578454835260019485019492840192016130de565b50909998505050505050505050565b600063ffffffff80831681810361312257613122612f3b565b600101939250505056fea26469706673582212204c29eac8c7df0ff13e6f966e9228f239ee77cef488bae3f14f18fe981fc06c7d64736f6c63430008130033",
  "linkReferences": {},
  "deployedLinkReferences": {}
}