{
  "_format": "hh-sol-artifact-1",
  "contractName": "LoanMachine",
  "sourceName": "contracts/LoanMachine.sol",
  "abi": [
    {
      "inputs": [],
      "name": "BorrowNotExpired",
      "type": "error"
    },
    {
      "inputs": [],
      "name": "InsufficientDonationBalance",
      "type": "error"
    },
    {
      "inputs": [],
      "name": "InsufficientFunds",
      "type": "error"
    },
    {
      "inputs": [],
      "name": "InvalidAmount",
      "type": "error"
    },
    {
      "inputs": [],
      "name": "InvalidCoveragePercentage",
      "type": "error"
    },
    {
      "inputs": [],
      "name": "InvalidParcelsCount",
      "type": "error"
    },
    {
      "inputs": [],
      "name": "LoanNotAvailable",
      "type": "error"
    },
    {
      "inputs": [],
      "name": "MinimumDonationRequired",
      "type": "error"
    },
    {
      "inputs": [],
      "name": "NoActiveBorrowing",
      "type": "error"
    },
    {
      "inputs": [],
      "name": "OverCoverage",
      "type": "error"
    },
    {
      "inputs": [],
      "name": "RepaymentExceedsBorrowed",
      "type": "error"
    },
    {
      "anonymous": false,
      "inputs": [
        {
          "indexed": false,
          "internalType": "uint256",
          "name": "total",
          "type": "uint256"
        }
      ],
      "name": "AvailableBalanceUpdated",
      "type": "event"
    },
    {
      "anonymous": false,
      "inputs": [
        {
          "indexed": true,
          "internalType": "address",
          "name": "borrower",
          "type": "address"
        }
      ],
      "name": "BorrowLimitReached",
      "type": "event"
    },
    {
      "anonymous": false,
      "inputs": [
        {
          "indexed": true,
          "internalType": "address",
          "name": "borrower",
          "type": "address"
        },
        {
          "indexed": false,
          "internalType": "uint256",
          "name": "amount",
          "type": "uint256"
        },
        {
          "indexed": false,
          "internalType": "uint256",
          "name": "totalBorrowing",
          "type": "uint256"
        }
      ],
      "name": "Borrowed",
      "type": "event"
    },
    {
      "anonymous": false,
      "inputs": [
        {
          "indexed": true,
          "internalType": "address",
          "name": "donor",
          "type": "address"
        },
        {
          "indexed": false,
          "internalType": "uint256",
          "name": "amount",
          "type": "uint256"
        },
        {
          "indexed": false,
          "internalType": "uint256",
          "name": "totalDonation",
          "type": "uint256"
        }
      ],
      "name": "Donated",
      "type": "event"
    },
    {
      "anonymous": false,
      "inputs": [
        {
          "indexed": true,
          "internalType": "uint256",
          "name": "requisitionId",
          "type": "uint256"
        },
        {
          "indexed": true,
          "internalType": "address",
          "name": "lender",
          "type": "address"
        },
        {
          "indexed": false,
          "internalType": "uint256",
          "name": "amount",
          "type": "uint256"
        }
      ],
      "name": "LenderRepaid",
      "type": "event"
    },
    {
      "anonymous": false,
      "inputs": [
        {
          "indexed": true,
          "internalType": "uint256",
          "name": "requisitionId",
          "type": "uint256"
        }
      ],
      "name": "LoanCompleted",
      "type": "event"
    },
    {
      "anonymous": false,
      "inputs": [
        {
          "indexed": true,
          "internalType": "address",
          "name": "walletAddress",
          "type": "address"
        },
        {
          "indexed": true,
          "internalType": "uint256",
          "name": "requisitionId",
          "type": "uint256"
        },
        {
          "indexed": false,
          "internalType": "enum ILoanMachine.ContractStatus",
          "name": "status",
          "type": "uint8"
        },
        {
          "indexed": false,
          "internalType": "uint32",
          "name": "parcelsPending",
          "type": "uint32"
        },
        {
          "indexed": false,
          "internalType": "uint256",
          "name": "parcelsValues",
          "type": "uint256"
        }
      ],
      "name": "LoanContractGenerated",
      "type": "event"
    },
    {
      "anonymous": false,
      "inputs": [
        {
          "indexed": true,
          "internalType": "uint256",
          "name": "requisitionId",
          "type": "uint256"
        },
        {
          "indexed": true,
          "internalType": "address",
          "name": "lender",
          "type": "address"
        },
        {
          "indexed": false,
          "internalType": "uint256",
          "name": "coverageAmount",
          "type": "uint256"
        }
      ],
      "name": "LoanCovered",
      "type": "event"
    },
    {
      "anonymous": false,
      "inputs": [
        {
          "indexed": true,
          "internalType": "uint256",
          "name": "requisitionId",
          "type": "uint256"
        }
      ],
      "name": "LoanFunded",
      "type": "event"
    },
    {
      "anonymous": false,
      "inputs": [
        {
          "indexed": true,
          "internalType": "uint256",
          "name": "requisitionId",
          "type": "uint256"
        },
        {
          "indexed": true,
          "internalType": "address",
          "name": "borrower",
          "type": "address"
        },
        {
          "indexed": false,
          "internalType": "uint256",
          "name": "amount",
          "type": "uint256"
        },
        {
          "indexed": false,
          "internalType": "uint32",
          "name": "parcelsCount",
          "type": "uint32"
        }
      ],
      "name": "LoanRequisitionCreated",
      "type": "event"
    },
    {
      "anonymous": false,
      "inputs": [
        {
          "indexed": true,
          "internalType": "address",
          "name": "borrower",
          "type": "address"
        }
      ],
      "name": "NewBorrower",
      "type": "event"
    },
    {
      "anonymous": false,
      "inputs": [
        {
          "indexed": true,
          "internalType": "address",
          "name": "donor",
          "type": "address"
        }
      ],
      "name": "NewDonor",
      "type": "event"
    },
    {
      "anonymous": false,
      "inputs": [
        {
          "indexed": true,
          "internalType": "uint256",
          "name": "requisitionId",
          "type": "uint256"
        },
        {
          "indexed": false,
          "internalType": "uint256",
          "name": "parcelsRemaining",
          "type": "uint256"
        }
      ],
      "name": "ParcelPaid",
      "type": "event"
    },
    {
      "anonymous": false,
      "inputs": [
        {
          "indexed": true,
          "internalType": "address",
          "name": "borrower",
          "type": "address"
        },
        {
          "indexed": false,
          "internalType": "uint256",
          "name": "amount",
          "type": "uint256"
        },
        {
          "indexed": false,
          "internalType": "uint256",
          "name": "remainingDebt",
          "type": "uint256"
        }
      ],
      "name": "Repaid",
      "type": "event"
    },
    {
      "anonymous": false,
      "inputs": [
        {
          "indexed": false,
          "internalType": "uint256",
          "name": "total",
          "type": "uint256"
        }
      ],
      "name": "TotalBorrowedUpdated",
      "type": "event"
    },
    {
      "anonymous": false,
      "inputs": [
        {
          "indexed": false,
          "internalType": "uint256",
          "name": "total",
          "type": "uint256"
        }
      ],
      "name": "TotalDonationsUpdated",
      "type": "event"
    },
    {
      "inputs": [
        {
          "internalType": "uint256",
          "name": "_amount",
          "type": "uint256"
        }
      ],
      "name": "borrow",
      "outputs": [],
      "stateMutability": "nonpayable",
      "type": "function"
    },
    {
      "inputs": [
        {
          "internalType": "address",
          "name": "",
          "type": "address"
        },
        {
          "internalType": "uint256",
          "name": "",
          "type": "uint256"
        }
      ],
      "name": "borrowerRequisitions",
      "outputs": [
        {
          "internalType": "uint256",
          "name": "",
          "type": "uint256"
        }
      ],
      "stateMutability": "view",
      "type": "function"
    },
    {
      "inputs": [
        {
          "internalType": "uint256",
          "name": "requisitionId",
          "type": "uint256"
        },
        {
          "internalType": "address",
          "name": "borrower",
          "type": "address"
        }
      ],
      "name": "canPayRequisition",
      "outputs": [
        {
          "internalType": "bool",
          "name": "",
          "type": "bool"
        }
      ],
      "stateMutability": "view",
      "type": "function"
    },
    {
      "inputs": [
        {
          "internalType": "address",
          "name": "_user",
          "type": "address"
        },
        {
          "internalType": "uint256",
          "name": "_amount",
          "type": "uint256"
        }
      ],
      "name": "canUserBorrow",
      "outputs": [
        {
          "internalType": "bool",
          "name": "",
          "type": "bool"
        }
      ],
      "stateMutability": "view",
      "type": "function"
    },
    {
      "inputs": [
        {
          "internalType": "uint256",
          "name": "requisitionId",
          "type": "uint256"
        },
        {
          "internalType": "uint32",
          "name": "coveragePercentage",
          "type": "uint32"
        }
      ],
      "name": "coverLoan",
      "outputs": [],
      "stateMutability": "nonpayable",
      "type": "function"
    },
    {
      "inputs": [
        {
          "internalType": "uint256",
          "name": "_amount",
          "type": "uint256"
        },
        {
          "internalType": "uint32",
          "name": "_minimumCoverage",
          "type": "uint32"
        },
        {
          "internalType": "uint256",
          "name": "_durationDays",
          "type": "uint256"
        },
        {
          "internalType": "uint32",
          "name": "parcelscount",
          "type": "uint32"
        }
      ],
      "name": "createLoanRequisition",
      "outputs": [
        {
          "internalType": "uint256",
          "name": "",
          "type": "uint256"
        }
      ],
      "stateMutability": "nonpayable",
      "type": "function"
    },
    {
      "inputs": [],
      "name": "donate",
      "outputs": [],
      "stateMutability": "payable",
      "type": "function"
    },
    {
      "inputs": [
        {
          "internalType": "address",
          "name": "borrower",
          "type": "address"
        }
      ],
      "name": "getActiveLoans",
      "outputs": [
        {
          "components": [
            {
              "internalType": "address",
              "name": "walletAddress",
              "type": "address"
            },
            {
              "internalType": "uint256",
              "name": "requisitionId",
              "type": "uint256"
            },
            {
              "internalType": "enum ILoanMachine.ContractStatus",
              "name": "status",
              "type": "uint8"
            },
            {
              "internalType": "uint32",
              "name": "parcelsPending",
              "type": "uint32"
            },
            {
              "internalType": "uint256",
              "name": "parcelsValues",
              "type": "uint256"
            }
          ],
          "internalType": "struct ILoanMachine.LoanContract[]",
          "name": "activeLoans",
          "type": "tuple[]"
        },
        {
          "internalType": "uint256[]",
          "name": "requisitionIds",
          "type": "uint256[]"
        }
      ],
      "stateMutability": "view",
      "type": "function"
    },
    {
      "inputs": [],
      "name": "getAvailableBalance",
      "outputs": [
        {
          "internalType": "uint256",
          "name": "",
          "type": "uint256"
        }
      ],
      "stateMutability": "view",
      "type": "function"
    },
    {
      "inputs": [],
      "name": "getAvailableBorrowAmount",
      "outputs": [
        {
          "internalType": "uint256",
          "name": "",
          "type": "uint256"
        }
      ],
      "stateMutability": "view",
      "type": "function"
    },
    {
      "inputs": [
        {
          "internalType": "address",
          "name": "borrower",
          "type": "address"
        }
      ],
      "name": "getBorrowerRequisitions",
      "outputs": [
        {
          "internalType": "uint256[]",
          "name": "",
          "type": "uint256[]"
        }
      ],
      "stateMutability": "view",
      "type": "function"
    },
    {
      "inputs": [
        {
          "internalType": "address",
          "name": "_user",
          "type": "address"
        }
      ],
      "name": "getBorrowing",
      "outputs": [
        {
          "internalType": "uint256",
          "name": "",
          "type": "uint256"
        }
      ],
      "stateMutability": "view",
      "type": "function"
    },
    {
      "inputs": [],
      "name": "getContractBalance",
      "outputs": [
        {
          "internalType": "uint256",
          "name": "",
          "type": "uint256"
        }
      ],
      "stateMutability": "view",
      "type": "function"
    },
    {
      "inputs": [
        {
          "internalType": "uint256",
          "name": "requisitionId",
          "type": "uint256"
        }
      ],
      "name": "getCoveringLenders",
      "outputs": [
        {
          "internalType": "address[]",
          "name": "",
          "type": "address[]"
        }
      ],
      "stateMutability": "view",
      "type": "function"
    },
    {
      "inputs": [
        {
          "internalType": "address",
          "name": "_user",
          "type": "address"
        }
      ],
      "name": "getDonation",
      "outputs": [
        {
          "internalType": "uint256",
          "name": "",
          "type": "uint256"
        }
      ],
      "stateMutability": "view",
      "type": "function"
    },
    {
      "inputs": [
        {
          "internalType": "address",
          "name": "_user",
          "type": "address"
        }
      ],
      "name": "getLastBorrowTime",
      "outputs": [
        {
          "internalType": "uint256",
          "name": "",
          "type": "uint256"
        }
      ],
      "stateMutability": "view",
      "type": "function"
    },
    {
      "inputs": [
        {
          "internalType": "uint256",
          "name": "requisitionId",
          "type": "uint256"
        },
        {
          "internalType": "address",
          "name": "lender",
          "type": "address"
        }
      ],
      "name": "getLenderCoverage",
      "outputs": [
        {
          "internalType": "uint256",
          "name": "",
          "type": "uint256"
        }
      ],
      "stateMutability": "view",
      "type": "function"
    },
    {
      "inputs": [
        {
          "internalType": "uint256",
          "name": "requisitionId",
          "type": "uint256"
        }
      ],
      "name": "getLoanContract",
      "outputs": [
        {
          "components": [
            {
              "internalType": "address",
              "name": "walletAddress",
              "type": "address"
            },
            {
              "internalType": "uint256",
              "name": "requisitionId",
              "type": "uint256"
            },
            {
              "internalType": "enum ILoanMachine.ContractStatus",
              "name": "status",
              "type": "uint8"
            },
            {
              "internalType": "uint32",
              "name": "parcelsPending",
              "type": "uint32"
            },
            {
              "internalType": "uint256",
              "name": "parcelsValues",
              "type": "uint256"
            }
          ],
          "internalType": "struct ILoanMachine.LoanContract",
          "name": "",
          "type": "tuple"
        }
      ],
      "stateMutability": "view",
      "type": "function"
    },
    {
      "inputs": [
        {
          "internalType": "uint256",
          "name": "requisitionId",
          "type": "uint256"
        }
      ],
      "name": "getNextPaymentAmount",
      "outputs": [
        {
          "internalType": "uint256",
          "name": "paymentAmount",
          "type": "uint256"
        },
        {
          "internalType": "bool",
          "name": "canPay",
          "type": "bool"
        }
      ],
      "stateMutability": "view",
      "type": "function"
    },
    {
      "inputs": [
        {
          "internalType": "uint256",
          "name": "requisitionId",
          "type": "uint256"
        }
      ],
      "name": "getRepaymentSummary",
      "outputs": [
        {
          "internalType": "uint256",
          "name": "totalRemainingDebt",
          "type": "uint256"
        },
        {
          "internalType": "uint256",
          "name": "nextPaymentAmount",
          "type": "uint256"
        },
        {
          "internalType": "uint256",
          "name": "parcelsRemaining",
          "type": "uint256"
        },
        {
          "internalType": "uint256",
          "name": "totalParcels",
          "type": "uint256"
        },
        {
          "internalType": "bool",
          "name": "isActive",
          "type": "bool"
        }
      ],
      "stateMutability": "view",
      "type": "function"
    },
    {
      "inputs": [
        {
          "internalType": "uint256",
          "name": "requisitionId",
          "type": "uint256"
        }
      ],
      "name": "getRequisitionInfo",
      "outputs": [
        {
          "components": [
            {
              "internalType": "uint256",
              "name": "requisitionId",
              "type": "uint256"
            },
            {
              "internalType": "address",
              "name": "borrower",
              "type": "address"
            },
            {
              "internalType": "uint256",
              "name": "amount",
              "type": "uint256"
            },
            {
              "internalType": "uint32",
              "name": "minimumCoverage",
              "type": "uint32"
            },
            {
              "internalType": "uint32",
              "name": "currentCoverage",
              "type": "uint32"
            },
            {
              "internalType": "enum ILoanMachine.BorrowStatus",
              "name": "status",
              "type": "uint8"
            },
            {
              "internalType": "uint256",
              "name": "durationDays",
              "type": "uint256"
            },
            {
              "internalType": "uint256",
              "name": "creationTime",
              "type": "uint256"
            },
            {
              "internalType": "address[]",
              "name": "coveringLenders",
              "type": "address[]"
            },
            {
              "internalType": "uint32",
              "name": "parcelsCount",
              "type": "uint32"
            }
          ],
          "internalType": "struct ILoanMachine.RequisitionInfo",
          "name": "",
          "type": "tuple"
        }
      ],
      "stateMutability": "view",
      "type": "function"
    },
    {
      "inputs": [],
      "name": "getTotalBorrowed",
      "outputs": [
        {
          "internalType": "uint256",
          "name": "",
          "type": "uint256"
        }
      ],
      "stateMutability": "view",
      "type": "function"
    },
    {
      "inputs": [],
      "name": "getTotalDonations",
      "outputs": [
        {
          "internalType": "uint256",
          "name": "",
          "type": "uint256"
        }
      ],
      "stateMutability": "view",
      "type": "function"
    },
    {
      "inputs": [
        {
          "internalType": "uint256",
          "name": "",
          "type": "uint256"
        }
      ],
      "name": "loanContracts",
      "outputs": [
        {
          "internalType": "address",
          "name": "walletAddress",
          "type": "address"
        },
        {
          "internalType": "uint256",
          "name": "requisitionId",
          "type": "uint256"
        },
        {
          "internalType": "enum ILoanMachine.ContractStatus",
          "name": "status",
          "type": "uint8"
        },
        {
          "internalType": "uint32",
          "name": "parcelsPending",
          "type": "uint32"
        },
        {
          "internalType": "uint256",
          "name": "parcelsValues",
          "type": "uint256"
        }
      ],
      "stateMutability": "view",
      "type": "function"
    },
    {
      "inputs": [
        {
          "internalType": "uint256",
          "name": "requisitionId",
          "type": "uint256"
        }
      ],
      "name": "repay",
      "outputs": [],
      "stateMutability": "payable",
      "type": "function"
    },
    {
      "inputs": [],
      "name": "requisitionCounter",
      "outputs": [
        {
          "internalType": "uint256",
          "name": "",
          "type": "uint256"
        }
      ],
      "stateMutability": "view",
      "type": "function"
    }
  ],
  "bytecode": "0x608060405234801561001057600080fd5b506001600055612368806100256000396000f3fe6080604052600436106101815760003560e01c80636f9fb98a116100d157806397c335191161008a578063adceb10111610064578063adceb101146104fd578063be5eb5801461051d578063c5ebeaec14610553578063ed88c68e1461057357600080fd5b806397c335191461048d5780639e932011146104bd578063a648bf75146104dd57600080fd5b80636f9fb98a146103f5578063777c658f14610408578063809dab6a1461029557806384ddf5ea1461041d5780638a914a63146104335780639730872a1461046057600080fd5b80632b31c0221161013e578063410a1d3211610118578063410a1d32146103345780634e51c7df1461036a5780636509a7101461038a578063657eb031146103bf57600080fd5b80632b31c022146102aa578063371fd8e6146102f4578063383ab2ef1461030757600080fd5b80630307c4a11461018657806303d1a1a1146101aa5780631b70ba3e146101d8578063232869fa146102055780632485a31414610273578063291c31a714610295575b600080fd5b34801561019257600080fd5b506005545b6040519081526020015b60405180910390f35b3480156101b657600080fd5b506101ca6101c5366004611e2f565b61057b565b6040516101a1929190611ef5565b3480156101e457600080fd5b506101f86101f3366004611f56565b61089c565b6040516101a19190611fb8565b34801561021157600080fd5b50610262610220366004611f56565b600b6020526000908152604090208054600182015460028301546003909301546001600160a01b0390921692909160ff821691610100900463ffffffff169085565b6040516101a1959493929190612074565b34801561027f57600080fd5b5061029361028e3660046120c5565b610a00565b005b3480156102a157600080fd5b50600654610197565b3480156102b657600080fd5b506102ca6102c5366004611f56565b610cf2565b6040805195865260208601949094529284019190915260608301521515608082015260a0016101a1565b610293610302366004611f56565b610dc1565b34801561031357600080fd5b50610327610322366004611f56565b6110cc565b6040516101a191906120f1565b34801561034057600080fd5b5061019761034f366004611e2f565b6001600160a01b031660009081526001602052604090205490565b34801561037657600080fd5b506101976103853660046120ff565b611182565b34801561039657600080fd5b506103aa6103a5366004611f56565b6111ae565b604080519283529015156020830152016101a1565b3480156103cb57600080fd5b506101976103da366004611e2f565b6001600160a01b031660009081526003602052604090205490565b34801561040157600080fd5b5047610197565b34801561041457600080fd5b50600454610197565b34801561042957600080fd5b5061019760085481565b34801561043f57600080fd5b5061045361044e366004611f56565b611212565b6040516101a19190612122565b34801561046c57600080fd5b5061048061047b366004611e2f565b611281565b6040516101a1919061216f565b34801561049957600080fd5b506104ad6104a8366004612182565b6112ec565b60405190151581526020016101a1565b3480156104c957600080fd5b506101976104d8366004612182565b6113a4565b3480156104e957600080fd5b506101976104f83660046121ac565b6113d5565b34801561050957600080fd5b506104ad6105183660046120ff565b6115aa565b34801561052957600080fd5b50610197610538366004611e2f565b6001600160a01b031660009081526002602052604090205490565b34801561055f57600080fd5b5061029361056e366004611f56565b61160e565b610293611849565b6001600160a01b0381166000908152600960205260408120606091829190805b825481101561064f576000600b60008584815481106105bc576105bc6121f2565b60009182526020808320909101548352820192909252604001902080549091506001600160a01b0390811690881614801561060f5750600060028083015460ff169081111561060d5761060d611e4a565b145b801561062957506002810154610100900463ffffffff1615155b1561063c57826106388161221e565b9350505b50806106478161221e565b91505061059b565b508067ffffffffffffffff81111561066957610669612237565b6040519080825280602002602001820160405280156106c257816020015b6040805160a0810182526000808252602080830182905292820181905260608201819052608082015282526000199092019101816106875790505b5093508067ffffffffffffffff8111156106de576106de612237565b604051908082528060200260200182016040528015610707578160200160208202803683370190505b5092506000805b8354811015610893576000600b600086848154811061072f5761072f6121f2565b60009182526020808320909101548352820192909252604001902080549091506001600160a01b039081169089161480156107825750600060028083015460ff169081111561078057610780611e4a565b145b801561079c57506002810154610100900463ffffffff1615155b15610880576040805160a08101825282546001600160a01b0316815260018301546020820152600280840154919284929084019160ff909116908111156107e5576107e5611e4a565b60028111156107f6576107f6611e4a565b81526002820154610100900463ffffffff166020820152600390910154604090910152875188908590811061082d5761082d6121f2565b602002602001018190525084828154811061084a5761084a6121f2565b9060005260206000200154868481518110610867576108676121f2565b60209081029190910101528261087c8161221e565b9350505b508061088b8161221e565b91505061070e565b50505050915091565b604080516101408101825260008082526020820181905291810182905260608082018390526080820183905260a0820183905260c0820183905260e082018390526101008201526101208101919091526000828152600760209081526040918290208251610140810184528154815260018201546001600160a01b031692810192909252600281015492820192909252600382015463ffffffff8082166060840152640100000000820416608083015260a0820190600160401b900460ff16600581111561096c5761096c611e4a565b81526020018260040154815260200182600501548152602001826006018054806020026020016040519081016040528092919081815260200182805480156109dd57602002820191906000526020600020905b81546001600160a01b031681526001909101906020018083116109bf575b505050918352505060089092015463ffffffff1660209092019190915292915050565b8063ffffffff81161580610a1a575060648163ffffffff16115b15610a385760405163d1e95ed560e01b815260040160405180910390fd5b610a4061197c565b6000838152600760205260408120906003820154600160401b900460ff166005811115610a6f57610a6f611e4a565b14158015610a9d575060016003820154600160401b900460ff166005811115610a9a57610a9a611e4a565b14155b15610abb576040516380b9cb0960e01b815260040160405180910390fd5b6003810154606490610ade9063ffffffff8087169164010000000090041661224d565b1115610afd5760405163955f95ad60e01b815260040160405180910390fd5b600060648463ffffffff168360020154610b179190612260565b610b219190612277565b33600090815260016020526040902054909150811115610b5457604051630391acf160e61b815260040160405180910390fd5b3360009081526001602052604081208054839290610b73908490612299565b9091555050336000908152600a602052604081208054839290610b9790849061224d565b9091555050600382018054859190600490610bc1908490640100000000900463ffffffff166122ac565b825463ffffffff9182166101009390930a9283029190920219909116179055503360009081526007830160205260408120549003610c2157600682018054600181018255600091825260209091200180546001600160a01b031916331790555b33600090815260078301602052604081208054839290610c4290849061224d565b9091555050600382015463ffffffff8082166401000000009092041610610c945760038201805460ff60401b191668020000000000000000179055610c86856119d9565b610c8f85611ac3565b610caa565b60038201805460ff60401b1916600160401b1790555b604051818152339086907f86b47e6e6c03d769c0bc5ffd06c682ea7d07089576d59230ec18ff64e71bffe79060200160405180910390a35050610ced6001600055565b505050565b6000818152600b602090815260408083206007909252822082918291829182918260028084015460ff1690811115610d2c57610d2c611e4a565b148015610d4757506002820154610100900463ffffffff1615155b15610d9b5760038201546002830154610d6b9190610100900463ffffffff16612260565b60038301546002840154600884015492995090975063ffffffff6101009091048116965016935060019250610db6565b60088101546000975087965086955063ffffffff1693508492505b505091939590929450565b610dc961197c565b34600003610dea5760405163162908e360e11b815260040160405180910390fd5b336000908152600260205260408120549003610e1957604051630b5ab5bf60e41b815260040160405180910390fd5b6000818152600b6020526040902080546001600160a01b03163314610e5157604051630b5ab5bf60e41b815260040160405180910390fd5b600060028083015460ff1690811115610e6c57610e6c611e4a565b14610e8a57604051630b5ab5bf60e41b815260040160405180910390fd5b6002810154610100900463ffffffff16600003610eba57604051630b5ab5bf60e41b815260040160405180910390fd5b80600301543414610ede5760405163162908e360e11b815260040160405180910390fd5b60018160020160018282829054906101000a900463ffffffff16610f0291906122d0565b825463ffffffff91821661010093840a9081029083021990911617909255600284015404166000039050610f6c576002818101805460ff1916909117905560405182907f02ca5489b37dd363d1302bac719e8ee40e540ffbe8c12253570fea63e11cad7190600090a25b3360009081526002602052604081208054349290610f8b908490612299565b925050819055503460056000828254610fa49190612299565b925050819055503460066000828254610fbd919061224d565b90915550610fcd90508234611ca0565b33600081815260026020908152604091829020548251348152918201527f1b8cd61ed43bec7c6bdad3a18ffee613f99c853d16c50678d248d879e1b43438910160405180910390a2600281015460405161010090910463ffffffff16815282907f406356ef25520b09e2ef87c5225167b4161ea4ab691e9434d6ee29eafcc83fc29060200160405180910390a27f17f13fd3f7c4712af33f1770ebcb822dd20a2dbc00850eab48d786623d97b95960055460405161108d91815260200190565b60405180910390a16000805160206123138339815191526006546040516110b691815260200190565b60405180910390a1506110c96001600055565b50565b6040805160a0810182526000808252602082018190529181018290526060810182905260808101919091526000828152600b60209081526040808320815160a08101835281546001600160a01b03168152600182015493810193909352600280820154919284019160ff169081111561114757611147611e4a565b600281111561115857611158611e4a565b81526002820154610100900463ffffffff1660208201526003909101546040909101529392505050565b60008281526007602081815260408084206001600160a01b038616855290920190529020545b92915050565b6000818152600b6020526040812081908160028083015460ff16908111156111d8576111d8611e4a565b1480156111f357506002810154610100900463ffffffff1615155b1561120657600301549360019350915050565b50600093849350915050565b60008181526007602090815260409182902060060180548351818402810184019094528084526060939283018282801561127557602002820191906000526020600020905b81546001600160a01b03168152600190910190602001808311611257575b50505050509050919050565b6001600160a01b03811660009081526009602090815260409182902080548351818402810184019094528084526060939283018282801561127557602002820191906000526020600020905b8154815260200190600101908083116112cd5750505050509050919050565b600080821180156112ff57506006548211155b801561134b57506001600160a01b03831660009081526001602052604090205467016345785d8a000011158061134b57506001600160a01b038316600090815260026020526040902054155b801561139d57506001600160a01b038316600090815260036020526040902054429061137b9062093a809061224d565b108061139d57506001600160a01b038316600090815260026020526040902054155b9392505050565b600960205281600052604060002081815481106113c057600080fd5b90600052602060002001600091509150505481565b600084806000036113f95760405163162908e360e11b815260040160405180910390fd5b8463ffffffff166046811115806114105750606481115b1561142e5760405163d1e95ed560e01b815260040160405180910390fd5b8360018163ffffffff16108061144a5750600c8163ffffffff16115b156114685760405163524eff2760e01b815260040160405180910390fd5b60065488111561148b5760405163356680b760e01b815260040160405180910390fd5b600880546000918261149c8361221e565b9091555060008181526007602052604081206001810180546001600160a01b03191633179055600281018c905560038101805467ffffffffffffffff19811663ffffffff8e1690811783559495509193909168ffffffffffffffffff191617600160401b8302179055506004810188905542600582015560088101805463ffffffff891663ffffffff19909116179055818155336000818152600960209081526040808320805460018101825590845291909220018490555183907fde3b47cf7da95a3cc41b86cf8717ead8d56a76ee1590481c5c4dc4d8804c40c490611595908e908c9091825263ffffffff16602082015260400190565b60405180910390a35098975050505050505050565b6000828152600b6020526040812080546001600160a01b0384811691161480156115ec5750600060028083015460ff16908111156115ea576115ea611e4a565b145b801561160657506002810154610100900463ffffffff1615155b949350505050565b80806000036116305760405163162908e360e11b815260040160405180910390fd5b816006548111156116545760405163356680b760e01b815260040160405180910390fd5b3360009081526001602052604090205467016345785d8a000011801561168857503360009081526002602052604090205415155b156116a65760405163b4ff2ab760e01b815260040160405180910390fd5b3360009081526003602052604090205442906116c69062093a809061224d565b101580156116e257503360009081526002602052604090205415155b156117005760405163c6061c8560e01b815260040160405180910390fd5b61170861197c565b33600081815260026020818152604080842080548981018255600580548b019055600680548b9003905560038452948290204290559282529154825188815291820152911592917feae9cfbc77fdd40ca899f36b608256063b2bc9d8178b0220f7ad513e178d6730910160405180910390a27f17f13fd3f7c4712af33f1770ebcb822dd20a2dbc00850eab48d786623d97b9596005546040516117ad91815260200190565b60405180910390a16000805160206123138339815191526006546040516117d691815260200190565b60405180910390a180156118105760405133907fdd6d577a01057a7ca4e715ae2c9f196a0a25d8e9d1ddd9376047869ce6fe56c790600090a25b604051339085156108fc029086906000818181858888f1935050505015801561183d573d6000803e3d6000fd5b5050610ced6001600055565b348060000361186b5760405163162908e360e11b815260040160405180910390fd5b61187361197c565b336000818152600160209081526040918290208054348082018355600480548201905560068054820190559154845192835292820192909252901592917f4928895ba6723e8e27b15f32e4c3054a1b6c7f8c03f133558d6fa42b3928d14c910160405180910390a27fdc6e73d4b36e22ab95945bd8833a5af96c950eb29d8d75c4aecffc987637aaab60045460405161190e91815260200190565b60405180910390a160008051602061231383398151915260065460405161193791815260200190565b60405180910390a180156119715760405133907f072dafb6aabe3f02118bc607efbeaaa104d6b2009720c7b130f24ba418689c4b90600090a25b506110c96001600055565b6002600054036119d25760405162461bcd60e51b815260206004820152601f60248201527f5265656e7472616e637947756172643a207265656e7472616e742063616c6c00604482015260640160405180910390fd5b6002600055565b6000818152600b60209081526040808320600790925290912060018082015483546001600160a01b0319166001600160a01b0390911617835582018390556002808301805460ff198116825560088401805464ffffffffff1990921661010063ffffffff938416021790925590549190920154611a5a929190911690612277565b600382018190558154600283015460405185936001600160a01b03909316927f37e51696243ede4626810cf448f23e9d983c6731ffa3c10546aa4c9653ac06eb92611ab79260ff82169261010090920463ffffffff1691906122ed565b60405180910390a35050565b600081815260076020908152604080832060028082015460018301546001600160a01b031686529352908320805491939091611b0090849061224d565b9091555050600281015460058054600090611b1c90849061224d565b9091555050600281015460068054600090611b38908490612299565b90915550506001810180546001600160a01b039081166000908152600360208190526040808320429055908501805460ff60401b19166803000000000000000017905592546002850154935192169280156108fc02929091818181858888f19350505050158015611bad573d6000803e3d6000fd5b5060018101546002808301546001600160a01b039092166000818152602092835260409081902054815194855292840192909252917feae9cfbc77fdd40ca899f36b608256063b2bc9d8178b0220f7ad513e178d6730910160405180910390a27f17f13fd3f7c4712af33f1770ebcb822dd20a2dbc00850eab48d786623d97b959600554604051611c4091815260200190565b60405180910390a1600080516020612313833981519152600654604051611c6991815260200190565b60405180910390a160405182907f9e71d2fb732e68272b7e74ecfd14638673c1d77e19a5d390a3ffff054d57c44b90600090a25050565b6000828152600760205260408120600281015490915b6006830154811015611e0c576000836006018281548110611cd957611cd96121f2565b60009182526020808320909101546001600160a01b03168083526007870190915260408220549092509084611d0e8389612260565b611d189190612277565b90508015611df6576001600160a01b0383166000908152600a6020526040902054811115611d5b57506001600160a01b0382166000908152600a60205260409020545b6001600160a01b0383166000908152600a602052604081208054839290611d83908490612299565b90915550506001600160a01b03831660009081526001602052604081208054839290611db090849061224d565b90915550506040518181526001600160a01b0384169089907fe3e6ae1e05f069d410556743894aacbb190c1431962422ebe8fcc642a467dd169060200160405180910390a35b5050508080611e049061221e565b915050611cb6565b5050505050565b80356001600160a01b0381168114611e2a57600080fd5b919050565b600060208284031215611e4157600080fd5b61139d82611e13565b634e487b7160e01b600052602160045260246000fd5b60038110611e7057611e70611e4a565b9052565b80516001600160a01b031682526020808201519083015260408082015190611e9e90840182611e60565b5060608181015163ffffffff1690830152608090810151910152565b600081518084526020808501945080840160005b83811015611eea57815187529582019590820190600101611ece565b509495945050505050565b604080825283519082018190526000906020906060840190828701845b82811015611f3857611f25848351611e74565b60a0939093019290840190600101611f12565b50505083810382850152611f4c8186611eba565b9695505050505050565b600060208284031215611f6857600080fd5b5035919050565b60068110611e7057611e70611e4a565b600081518084526020808501945080840160005b83811015611eea5781516001600160a01b031687529582019590820190600101611f93565b602081528151602082015260006020830151611fdf60408401826001600160a01b03169052565b50604083015160608301526060830151612001608084018263ffffffff169052565b50608083015163ffffffff811660a08401525060a083015161202660c0840182611f6f565b5060c083015160e083015260e0830151610100818185015280850151915050610140610120818186015261205e610160860184611f7f565b95015163ffffffff169301929092525090919050565b6001600160a01b03861681526020810185905260a081016120986040830186611e60565b63ffffffff939093166060820152608001529392505050565b803563ffffffff81168114611e2a57600080fd5b600080604083850312156120d857600080fd5b823591506120e8602084016120b1565b90509250929050565b60a081016111a88284611e74565b6000806040838503121561211257600080fd5b823591506120e860208401611e13565b6020808252825182820181905260009190848201906040850190845b818110156121635783516001600160a01b03168352928401929184019160010161213e565b50909695505050505050565b60208152600061139d6020830184611eba565b6000806040838503121561219557600080fd5b61219e83611e13565b946020939093013593505050565b600080600080608085870312156121c257600080fd5b843593506121d2602086016120b1565b9250604085013591506121e7606086016120b1565b905092959194509250565b634e487b7160e01b600052603260045260246000fd5b634e487b7160e01b600052601160045260246000fd5b60006001820161223057612230612208565b5060010190565b634e487b7160e01b600052604160045260246000fd5b808201808211156111a8576111a8612208565b80820281158282048414176111a8576111a8612208565b60008261229457634e487b7160e01b600052601260045260246000fd5b500490565b818103818111156111a8576111a8612208565b63ffffffff8181168382160190808211156122c9576122c9612208565b5092915050565b63ffffffff8281168282160390808211156122c9576122c9612208565b606081016122fb8286611e60565b63ffffffff9390931660208201526040015291905056fe8b094cca6f83d49402ce208cc0c224b76625ffc58636df56ae28024e704c5868a26469706673582212207c03d0e8ac52f72e87aeca42f12dc5552b0c13b3a190ee438e6d2ccad9de8d1a64736f6c63430008130033",
  "linkReferences": {},
  "deployedLinkReferences": {}
}