{
  "_format": "hh-sol-artifact-1",
  "contractName": "LoanMachine",
  "sourceName": "contracts/LoanMachine.sol",
  "abi": [
    {
      "inputs": [
        {
          "internalType": "address",
          "name": "_usdtToken",
          "type": "address"
        },
        {
          "internalType": "address",
          "name": "_reputationSystem",
          "type": "address"
        }
      ],
      "stateMutability": "nonpayable",
      "type": "constructor"
    },
    {
      "inputs": [],
      "name": "LoanMachine_BorrowNotExpired",
      "type": "error"
    },
    {
      "inputs": [],
      "name": "LoanMachine_ExcessiveDonation",
      "type": "error"
    },
    {
      "inputs": [],
      "name": "LoanMachine_InsufficientDonationBalance",
      "type": "error"
    },
    {
      "inputs": [],
      "name": "LoanMachine_InsufficientFunds",
      "type": "error"
    },
    {
      "inputs": [],
      "name": "LoanMachine_InsufficientWithdrawableBalance",
      "type": "error"
    },
    {
      "inputs": [],
      "name": "LoanMachine_InvalidAmount",
      "type": "error"
    },
    {
      "inputs": [],
      "name": "LoanMachine_InvalidCoveragePercentage",
      "type": "error"
    },
    {
      "inputs": [],
      "name": "LoanMachine_InvalidParcelsCount",
      "type": "error"
    },
    {
      "inputs": [],
      "name": "LoanMachine_LoanNotAvailable",
      "type": "error"
    },
    {
      "inputs": [],
      "name": "LoanMachine_MaxLoanRequisitionPendingReached",
      "type": "error"
    },
    {
      "inputs": [],
      "name": "LoanMachine_MemberIdOrWalletInvalid",
      "type": "error"
    },
    {
      "inputs": [],
      "name": "LoanMachine_MinimumDonationRequired",
      "type": "error"
    },
    {
      "inputs": [],
      "name": "LoanMachine_MinimumPercentageCover",
      "type": "error"
    },
    {
      "inputs": [],
      "name": "LoanMachine_NoActiveBorrowing",
      "type": "error"
    },
    {
      "inputs": [],
      "name": "LoanMachine_OverCoverage",
      "type": "error"
    },
    {
      "inputs": [],
      "name": "LoanMachine_ParcelAlreadyPaid",
      "type": "error"
    },
    {
      "inputs": [],
      "name": "LoanMachine_RepaymentExceedsBorrowed",
      "type": "error"
    },
    {
      "inputs": [],
      "name": "LoanMachine_TokenTransferFailed",
      "type": "error"
    },
    {
      "inputs": [],
      "name": "LoanMachine_WalletAlreadyVinculated",
      "type": "error"
    },
    {
      "anonymous": false,
      "inputs": [
        {
          "indexed": false,
          "internalType": "uint256",
          "name": "total",
          "type": "uint256"
        }
      ],
      "name": "AvailableBalanceUpdated",
      "type": "event"
    },
    {
      "anonymous": false,
      "inputs": [
        {
          "indexed": true,
          "internalType": "address",
          "name": "borrower",
          "type": "address"
        }
      ],
      "name": "BorrowLimitReached",
      "type": "event"
    },
    {
      "anonymous": false,
      "inputs": [
        {
          "indexed": true,
          "internalType": "address",
          "name": "borrower",
          "type": "address"
        },
        {
          "indexed": false,
          "internalType": "uint256",
          "name": "amount",
          "type": "uint256"
        },
        {
          "indexed": false,
          "internalType": "uint256",
          "name": "totalBorrowing",
          "type": "uint256"
        }
      ],
      "name": "Borrowed",
      "type": "event"
    },
    {
      "anonymous": false,
      "inputs": [
        {
          "indexed": true,
          "internalType": "address",
          "name": "borrower",
          "type": "address"
        },
        {
          "indexed": false,
          "internalType": "enum DebtTracker.DebtStatus",
          "name": "newStatus",
          "type": "uint8"
        }
      ],
      "name": "BorrowerStatusUpdated",
      "type": "event"
    },
    {
      "anonymous": false,
      "inputs": [
        {
          "indexed": true,
          "internalType": "address",
          "name": "borrower",
          "type": "address"
        }
      ],
      "name": "DebtorAdded",
      "type": "event"
    },
    {
      "anonymous": false,
      "inputs": [
        {
          "indexed": true,
          "internalType": "address",
          "name": "borrower",
          "type": "address"
        }
      ],
      "name": "DebtorRemoved",
      "type": "event"
    },
    {
      "anonymous": false,
      "inputs": [
        {
          "indexed": true,
          "internalType": "address",
          "name": "donor",
          "type": "address"
        },
        {
          "indexed": false,
          "internalType": "uint256",
          "name": "amount",
          "type": "uint256"
        },
        {
          "indexed": false,
          "internalType": "uint256",
          "name": "totalDonation",
          "type": "uint256"
        }
      ],
      "name": "Donated",
      "type": "event"
    },
    {
      "anonymous": false,
      "inputs": [
        {
          "indexed": true,
          "internalType": "uint256",
          "name": "requisitionId",
          "type": "uint256"
        },
        {
          "indexed": true,
          "internalType": "address",
          "name": "lender",
          "type": "address"
        },
        {
          "indexed": false,
          "internalType": "uint256",
          "name": "amount",
          "type": "uint256"
        }
      ],
      "name": "LenderRepaid",
      "type": "event"
    },
    {
      "anonymous": false,
      "inputs": [
        {
          "indexed": true,
          "internalType": "uint256",
          "name": "requisitionId",
          "type": "uint256"
        }
      ],
      "name": "LoanCompleted",
      "type": "event"
    },
    {
      "anonymous": false,
      "inputs": [
        {
          "indexed": true,
          "internalType": "address",
          "name": "walletAddress",
          "type": "address"
        },
        {
          "indexed": true,
          "internalType": "uint256",
          "name": "requisitionId",
          "type": "uint256"
        },
        {
          "indexed": false,
          "internalType": "enum ILoanMachine.ContractStatus",
          "name": "status",
          "type": "uint8"
        },
        {
          "indexed": false,
          "internalType": "uint32",
          "name": "parcelsPending",
          "type": "uint32"
        },
        {
          "indexed": false,
          "internalType": "uint256",
          "name": "parcelsValues",
          "type": "uint256"
        },
        {
          "indexed": false,
          "internalType": "uint256[]",
          "name": "paymentDates",
          "type": "uint256[]"
        },
        {
          "indexed": false,
          "internalType": "uint256",
          "name": "creationTime",
          "type": "uint256"
        }
      ],
      "name": "LoanContractGenerated",
      "type": "event"
    },
    {
      "anonymous": false,
      "inputs": [
        {
          "indexed": true,
          "internalType": "uint256",
          "name": "requisitionId",
          "type": "uint256"
        },
        {
          "indexed": true,
          "internalType": "address",
          "name": "lender",
          "type": "address"
        },
        {
          "indexed": false,
          "internalType": "uint256",
          "name": "coverageAmount",
          "type": "uint256"
        }
      ],
      "name": "LoanCovered",
      "type": "event"
    },
    {
      "anonymous": false,
      "inputs": [
        {
          "indexed": true,
          "internalType": "uint256",
          "name": "requisitionId",
          "type": "uint256"
        }
      ],
      "name": "LoanFunded",
      "type": "event"
    },
    {
      "anonymous": false,
      "inputs": [
        {
          "indexed": true,
          "internalType": "uint256",
          "name": "requisitionId",
          "type": "uint256"
        },
        {
          "indexed": true,
          "internalType": "address",
          "name": "borrower",
          "type": "address"
        },
        {
          "indexed": false,
          "internalType": "uint256",
          "name": "amount",
          "type": "uint256"
        },
        {
          "indexed": false,
          "internalType": "uint32",
          "name": "parcelsCount",
          "type": "uint32"
        }
      ],
      "name": "LoanRequisitionCreated",
      "type": "event"
    },
    {
      "anonymous": false,
      "inputs": [
        {
          "indexed": false,
          "internalType": "uint256",
          "name": "timestamp",
          "type": "uint256"
        }
      ],
      "name": "MonthlyUpdateTriggered",
      "type": "event"
    },
    {
      "anonymous": false,
      "inputs": [
        {
          "indexed": true,
          "internalType": "address",
          "name": "borrower",
          "type": "address"
        }
      ],
      "name": "NewBorrower",
      "type": "event"
    },
    {
      "anonymous": false,
      "inputs": [
        {
          "indexed": true,
          "internalType": "address",
          "name": "donor",
          "type": "address"
        }
      ],
      "name": "NewDonor",
      "type": "event"
    },
    {
      "anonymous": false,
      "inputs": [
        {
          "indexed": true,
          "internalType": "uint256",
          "name": "requisitionId",
          "type": "uint256"
        },
        {
          "indexed": false,
          "internalType": "uint256",
          "name": "parcelsRemaining",
          "type": "uint256"
        }
      ],
      "name": "ParcelPaid",
      "type": "event"
    },
    {
      "anonymous": false,
      "inputs": [
        {
          "indexed": true,
          "internalType": "address",
          "name": "borrower",
          "type": "address"
        },
        {
          "indexed": false,
          "internalType": "uint256",
          "name": "amount",
          "type": "uint256"
        },
        {
          "indexed": false,
          "internalType": "uint256",
          "name": "remainingDebt",
          "type": "uint256"
        }
      ],
      "name": "Repaid",
      "type": "event"
    },
    {
      "anonymous": false,
      "inputs": [
        {
          "indexed": false,
          "internalType": "uint256",
          "name": "total",
          "type": "uint256"
        }
      ],
      "name": "TotalBorrowedUpdated",
      "type": "event"
    },
    {
      "anonymous": false,
      "inputs": [
        {
          "indexed": false,
          "internalType": "uint256",
          "name": "total",
          "type": "uint256"
        }
      ],
      "name": "TotalDonationsUpdated",
      "type": "event"
    },
    {
      "anonymous": false,
      "inputs": [
        {
          "indexed": true,
          "internalType": "address",
          "name": "donor",
          "type": "address"
        },
        {
          "indexed": false,
          "internalType": "uint256",
          "name": "amount",
          "type": "uint256"
        },
        {
          "indexed": false,
          "internalType": "uint256",
          "name": "donations",
          "type": "uint256"
        }
      ],
      "name": "Withdrawn",
      "type": "event"
    },
    {
      "inputs": [
        {
          "internalType": "address[]",
          "name": "borrowers",
          "type": "address[]"
        }
      ],
      "name": "batchUpdateDebtStatus",
      "outputs": [],
      "stateMutability": "nonpayable",
      "type": "function"
    },
    {
      "inputs": [
        {
          "internalType": "address",
          "name": "",
          "type": "address"
        },
        {
          "internalType": "uint256",
          "name": "",
          "type": "uint256"
        }
      ],
      "name": "borrowerRequisitions",
      "outputs": [
        {
          "internalType": "uint256",
          "name": "",
          "type": "uint256"
        }
      ],
      "stateMutability": "view",
      "type": "function"
    },
    {
      "inputs": [
        {
          "internalType": "uint256",
          "name": "requisitionId",
          "type": "uint256"
        },
        {
          "internalType": "address",
          "name": "borrower",
          "type": "address"
        }
      ],
      "name": "canPayRequisition",
      "outputs": [
        {
          "internalType": "bool",
          "name": "",
          "type": "bool"
        }
      ],
      "stateMutability": "view",
      "type": "function"
    },
    {
      "inputs": [
        {
          "internalType": "address",
          "name": "_user",
          "type": "address"
        },
        {
          "internalType": "uint256",
          "name": "_amount",
          "type": "uint256"
        }
      ],
      "name": "canUserBorrow",
      "outputs": [
        {
          "internalType": "bool",
          "name": "",
          "type": "bool"
        }
      ],
      "stateMutability": "view",
      "type": "function"
    },
    {
      "inputs": [
        {
          "internalType": "uint256",
          "name": "requisitionId",
          "type": "uint256"
        },
        {
          "internalType": "uint32",
          "name": "coveragePercentage",
          "type": "uint32"
        },
        {
          "internalType": "uint32",
          "name": "memberId",
          "type": "uint32"
        }
      ],
      "name": "coverLoan",
      "outputs": [],
      "stateMutability": "nonpayable",
      "type": "function"
    },
    {
      "inputs": [
        {
          "internalType": "uint256",
          "name": "amount",
          "type": "uint256"
        },
        {
          "internalType": "uint32",
          "name": "minimumCoverage",
          "type": "uint32"
        },
        {
          "internalType": "uint32",
          "name": "parcelscount",
          "type": "uint32"
        },
        {
          "internalType": "uint32",
          "name": "memberId",
          "type": "uint32"
        }
      ],
      "name": "createLoanRequisition",
      "outputs": [
        {
          "internalType": "uint256",
          "name": "",
          "type": "uint256"
        }
      ],
      "stateMutability": "nonpayable",
      "type": "function"
    },
    {
      "inputs": [
        {
          "internalType": "uint256",
          "name": "amount",
          "type": "uint256"
        },
        {
          "internalType": "uint32",
          "name": "memberId",
          "type": "uint32"
        }
      ],
      "name": "donate",
      "outputs": [],
      "stateMutability": "nonpayable",
      "type": "function"
    },
    {
      "inputs": [
        {
          "internalType": "address",
          "name": "borrower",
          "type": "address"
        }
      ],
      "name": "getActiveLoans",
      "outputs": [
        {
          "components": [
            {
              "internalType": "address",
              "name": "walletAddress",
              "type": "address"
            },
            {
              "internalType": "uint256",
              "name": "requisitionId",
              "type": "uint256"
            },
            {
              "internalType": "enum ILoanMachine.ContractStatus",
              "name": "status",
              "type": "uint8"
            },
            {
              "internalType": "uint32",
              "name": "parcelsCount",
              "type": "uint32"
            },
            {
              "internalType": "uint32",
              "name": "parcelsPending",
              "type": "uint32"
            },
            {
              "internalType": "uint256",
              "name": "parcelsValues",
              "type": "uint256"
            },
            {
              "internalType": "uint256[]",
              "name": "paymentDates",
              "type": "uint256[]"
            },
            {
              "internalType": "uint256[]",
              "name": "parcelsAmounts",
              "type": "uint256[]"
            },
            {
              "internalType": "uint256",
              "name": "creationTime",
              "type": "uint256"
            }
          ],
          "internalType": "struct ILoanMachine.LoanContract[]",
          "name": "activeLoans",
          "type": "tuple[]"
        },
        {
          "internalType": "uint256[]",
          "name": "requisitionIds",
          "type": "uint256[]"
        }
      ],
      "stateMutability": "view",
      "type": "function"
    },
    {
      "inputs": [
        {
          "internalType": "address",
          "name": "user",
          "type": "address"
        }
      ],
      "name": "getAllowance",
      "outputs": [
        {
          "internalType": "uint256",
          "name": "",
          "type": "uint256"
        }
      ],
      "stateMutability": "view",
      "type": "function"
    },
    {
      "inputs": [],
      "name": "getAvailableBalance",
      "outputs": [
        {
          "internalType": "uint256",
          "name": "",
          "type": "uint256"
        }
      ],
      "stateMutability": "view",
      "type": "function"
    },
    {
      "inputs": [],
      "name": "getAvailableBorrowAmount",
      "outputs": [
        {
          "internalType": "uint256",
          "name": "",
          "type": "uint256"
        }
      ],
      "stateMutability": "view",
      "type": "function"
    },
    {
      "inputs": [
        {
          "internalType": "address",
          "name": "borrower",
          "type": "address"
        }
      ],
      "name": "getBorrowerDebtStatus",
      "outputs": [
        {
          "internalType": "enum DebtTracker.DebtStatus",
          "name": "",
          "type": "uint8"
        }
      ],
      "stateMutability": "view",
      "type": "function"
    },
    {
      "inputs": [
        {
          "internalType": "address",
          "name": "borrower",
          "type": "address"
        }
      ],
      "name": "getBorrowerRequisitions",
      "outputs": [
        {
          "internalType": "uint256[]",
          "name": "",
          "type": "uint256[]"
        }
      ],
      "stateMutability": "view",
      "type": "function"
    },
    {
      "inputs": [],
      "name": "getBorrowersWithDebt",
      "outputs": [
        {
          "internalType": "address[]",
          "name": "",
          "type": "address[]"
        }
      ],
      "stateMutability": "view",
      "type": "function"
    },
    {
      "inputs": [],
      "name": "getBorrowersWithoutDebt",
      "outputs": [
        {
          "internalType": "address[]",
          "name": "",
          "type": "address[]"
        }
      ],
      "stateMutability": "view",
      "type": "function"
    },
    {
      "inputs": [
        {
          "internalType": "address",
          "name": "_user",
          "type": "address"
        }
      ],
      "name": "getBorrowing",
      "outputs": [
        {
          "internalType": "uint256",
          "name": "",
          "type": "uint256"
        }
      ],
      "stateMutability": "view",
      "type": "function"
    },
    {
      "inputs": [],
      "name": "getContractBalance",
      "outputs": [
        {
          "internalType": "uint256",
          "name": "",
          "type": "uint256"
        }
      ],
      "stateMutability": "view",
      "type": "function"
    },
    {
      "inputs": [
        {
          "internalType": "uint256",
          "name": "requisitionId",
          "type": "uint256"
        }
      ],
      "name": "getCoveringLenders",
      "outputs": [
        {
          "internalType": "address[]",
          "name": "",
          "type": "address[]"
        }
      ],
      "stateMutability": "view",
      "type": "function"
    },
    {
      "inputs": [
        {
          "internalType": "address",
          "name": "_user",
          "type": "address"
        }
      ],
      "name": "getDonation",
      "outputs": [
        {
          "internalType": "uint256",
          "name": "",
          "type": "uint256"
        }
      ],
      "stateMutability": "view",
      "type": "function"
    },
    {
      "inputs": [
        {
          "internalType": "address",
          "name": "lender",
          "type": "address"
        }
      ],
      "name": "getDonationsInCoverage",
      "outputs": [
        {
          "internalType": "uint256",
          "name": "",
          "type": "uint256"
        }
      ],
      "stateMutability": "view",
      "type": "function"
    },
    {
      "inputs": [
        {
          "internalType": "address",
          "name": "_user",
          "type": "address"
        }
      ],
      "name": "getLastBorrowTime",
      "outputs": [
        {
          "internalType": "uint256",
          "name": "",
          "type": "uint256"
        }
      ],
      "stateMutability": "view",
      "type": "function"
    },
    {
      "inputs": [
        {
          "internalType": "uint256",
          "name": "requisitionId",
          "type": "uint256"
        },
        {
          "internalType": "address",
          "name": "lender",
          "type": "address"
        }
      ],
      "name": "getLenderCoverage",
      "outputs": [
        {
          "internalType": "uint256",
          "name": "",
          "type": "uint256"
        }
      ],
      "stateMutability": "view",
      "type": "function"
    },
    {
      "inputs": [
        {
          "internalType": "uint256",
          "name": "requisitionId",
          "type": "uint256"
        }
      ],
      "name": "getLoanContract",
      "outputs": [
        {
          "components": [
            {
              "internalType": "address",
              "name": "walletAddress",
              "type": "address"
            },
            {
              "internalType": "uint256",
              "name": "requisitionId",
              "type": "uint256"
            },
            {
              "internalType": "enum ILoanMachine.ContractStatus",
              "name": "status",
              "type": "uint8"
            },
            {
              "internalType": "uint32",
              "name": "parcelsCount",
              "type": "uint32"
            },
            {
              "internalType": "uint32",
              "name": "parcelsPending",
              "type": "uint32"
            },
            {
              "internalType": "uint256",
              "name": "parcelsValues",
              "type": "uint256"
            },
            {
              "internalType": "uint256[]",
              "name": "paymentDates",
              "type": "uint256[]"
            },
            {
              "internalType": "uint256[]",
              "name": "parcelsAmounts",
              "type": "uint256[]"
            },
            {
              "internalType": "uint256",
              "name": "creationTime",
              "type": "uint256"
            }
          ],
          "internalType": "struct ILoanMachine.LoanContract",
          "name": "",
          "type": "tuple"
        }
      ],
      "stateMutability": "view",
      "type": "function"
    },
    {
      "inputs": [
        {
          "internalType": "address",
          "name": "wallet",
          "type": "address"
        }
      ],
      "name": "getMemberId",
      "outputs": [
        {
          "internalType": "uint32",
          "name": "",
          "type": "uint32"
        }
      ],
      "stateMutability": "view",
      "type": "function"
    },
    {
      "inputs": [
        {
          "internalType": "uint256",
          "name": "requisitionId",
          "type": "uint256"
        }
      ],
      "name": "getNextPaymentAmount",
      "outputs": [
        {
          "internalType": "uint256",
          "name": "paymentAmount",
          "type": "uint256"
        },
        {
          "internalType": "bool",
          "name": "canPay",
          "type": "bool"
        }
      ],
      "stateMutability": "view",
      "type": "function"
    },
    {
      "inputs": [
        {
          "internalType": "uint256",
          "name": "requisitionId",
          "type": "uint256"
        }
      ],
      "name": "getPaymentDates",
      "outputs": [
        {
          "internalType": "uint256[]",
          "name": "",
          "type": "uint256[]"
        }
      ],
      "stateMutability": "view",
      "type": "function"
    },
    {
      "inputs": [
        {
          "internalType": "uint256",
          "name": "requisitionId",
          "type": "uint256"
        }
      ],
      "name": "getRepaymentSummary",
      "outputs": [
        {
          "internalType": "uint256",
          "name": "totalRemainingDebt",
          "type": "uint256"
        },
        {
          "internalType": "uint256",
          "name": "nextPaymentAmount",
          "type": "uint256"
        },
        {
          "internalType": "uint256",
          "name": "parcelsRemaining",
          "type": "uint256"
        },
        {
          "internalType": "uint256",
          "name": "totalParcels",
          "type": "uint256"
        },
        {
          "internalType": "bool",
          "name": "isActive",
          "type": "bool"
        }
      ],
      "stateMutability": "view",
      "type": "function"
    },
    {
      "inputs": [
        {
          "internalType": "uint32",
          "name": "memberId",
          "type": "uint32"
        }
      ],
      "name": "getReputation",
      "outputs": [
        {
          "internalType": "int32",
          "name": "",
          "type": "int32"
        }
      ],
      "stateMutability": "view",
      "type": "function"
    },
    {
      "inputs": [
        {
          "internalType": "uint256",
          "name": "requisitionId",
          "type": "uint256"
        }
      ],
      "name": "getRequisitionInfo",
      "outputs": [
        {
          "components": [
            {
              "internalType": "uint256",
              "name": "requisitionId",
              "type": "uint256"
            },
            {
              "internalType": "address",
              "name": "borrower",
              "type": "address"
            },
            {
              "internalType": "uint256",
              "name": "amount",
              "type": "uint256"
            },
            {
              "internalType": "uint32",
              "name": "minimumCoverage",
              "type": "uint32"
            },
            {
              "internalType": "uint32",
              "name": "currentCoverage",
              "type": "uint32"
            },
            {
              "internalType": "enum ILoanMachine.BorrowStatus",
              "name": "status",
              "type": "uint8"
            },
            {
              "internalType": "uint256",
              "name": "creationTime",
              "type": "uint256"
            },
            {
              "internalType": "address[]",
              "name": "coveringLenders",
              "type": "address[]"
            },
            {
              "internalType": "uint32",
              "name": "parcelsCount",
              "type": "uint32"
            }
          ],
          "internalType": "struct ILoanMachine.RequisitionInfo",
          "name": "",
          "type": "tuple"
        }
      ],
      "stateMutability": "view",
      "type": "function"
    },
    {
      "inputs": [],
      "name": "getTotalBorrowed",
      "outputs": [
        {
          "internalType": "uint256",
          "name": "",
          "type": "uint256"
        }
      ],
      "stateMutability": "view",
      "type": "function"
    },
    {
      "inputs": [],
      "name": "getTotalDonations",
      "outputs": [
        {
          "internalType": "uint256",
          "name": "",
          "type": "uint256"
        }
      ],
      "stateMutability": "view",
      "type": "function"
    },
    {
      "inputs": [],
      "name": "getUSDTBalance",
      "outputs": [
        {
          "internalType": "uint256",
          "name": "",
          "type": "uint256"
        }
      ],
      "stateMutability": "view",
      "type": "function"
    },
    {
      "inputs": [
        {
          "internalType": "address",
          "name": "user",
          "type": "address"
        }
      ],
      "name": "getWithdrawableBalance",
      "outputs": [
        {
          "internalType": "uint256",
          "name": "",
          "type": "uint256"
        }
      ],
      "stateMutability": "view",
      "type": "function"
    },
    {
      "inputs": [
        {
          "internalType": "address",
          "name": "borrower",
          "type": "address"
        }
      ],
      "name": "hasActiveDebt",
      "outputs": [
        {
          "internalType": "bool",
          "name": "",
          "type": "bool"
        }
      ],
      "stateMutability": "view",
      "type": "function"
    },
    {
      "inputs": [
        {
          "internalType": "address",
          "name": "borrower",
          "type": "address"
        }
      ],
      "name": "hasOverdueDebt",
      "outputs": [
        {
          "internalType": "bool",
          "name": "",
          "type": "bool"
        }
      ],
      "stateMutability": "view",
      "type": "function"
    },
    {
      "inputs": [
        {
          "internalType": "address",
          "name": "wallet",
          "type": "address"
        }
      ],
      "name": "isWalletVinculated",
      "outputs": [
        {
          "internalType": "bool",
          "name": "",
          "type": "bool"
        }
      ],
      "stateMutability": "view",
      "type": "function"
    },
    {
      "inputs": [
        {
          "internalType": "uint256",
          "name": "",
          "type": "uint256"
        }
      ],
      "name": "loanContracts",
      "outputs": [
        {
          "internalType": "address",
          "name": "walletAddress",
          "type": "address"
        },
        {
          "internalType": "uint256",
          "name": "requisitionId",
          "type": "uint256"
        },
        {
          "internalType": "enum ILoanMachine.ContractStatus",
          "name": "status",
          "type": "uint8"
        },
        {
          "internalType": "uint32",
          "name": "parcelsCount",
          "type": "uint32"
        },
        {
          "internalType": "uint32",
          "name": "parcelsPending",
          "type": "uint32"
        },
        {
          "internalType": "uint256",
          "name": "parcelsValues",
          "type": "uint256"
        },
        {
          "internalType": "uint256",
          "name": "creationTime",
          "type": "uint256"
        }
      ],
      "stateMutability": "view",
      "type": "function"
    },
    {
      "inputs": [],
      "name": "nextMonthlyUpdate",
      "outputs": [
        {
          "internalType": "uint256",
          "name": "",
          "type": "uint256"
        }
      ],
      "stateMutability": "view",
      "type": "function"
    },
    {
      "inputs": [
        {
          "internalType": "uint256",
          "name": "requisitionId",
          "type": "uint256"
        },
        {
          "internalType": "uint256",
          "name": "amount",
          "type": "uint256"
        },
        {
          "internalType": "uint32",
          "name": "memberId",
          "type": "uint32"
        }
      ],
      "name": "repay",
      "outputs": [],
      "stateMutability": "nonpayable",
      "type": "function"
    },
    {
      "inputs": [],
      "name": "reputationSystem",
      "outputs": [
        {
          "internalType": "contract ReputationSystem",
          "name": "",
          "type": "address"
        }
      ],
      "stateMutability": "view",
      "type": "function"
    },
    {
      "inputs": [],
      "name": "requisitionCounter",
      "outputs": [
        {
          "internalType": "uint256",
          "name": "",
          "type": "uint256"
        }
      ],
      "stateMutability": "view",
      "type": "function"
    },
    {
      "inputs": [],
      "name": "shouldTriggerUpdate",
      "outputs": [
        {
          "internalType": "bool",
          "name": "",
          "type": "bool"
        }
      ],
      "stateMutability": "view",
      "type": "function"
    },
    {
      "inputs": [],
      "name": "triggerMonthlyUpdate",
      "outputs": [],
      "stateMutability": "nonpayable",
      "type": "function"
    },
    {
      "inputs": [
        {
          "internalType": "address",
          "name": "borrower",
          "type": "address"
        }
      ],
      "name": "updateBorrowerDebtStatus",
      "outputs": [],
      "stateMutability": "nonpayable",
      "type": "function"
    },
    {
      "inputs": [],
      "name": "usdtToken",
      "outputs": [
        {
          "internalType": "address",
          "name": "",
          "type": "address"
        }
      ],
      "stateMutability": "view",
      "type": "function"
    },
    {
      "inputs": [
        {
          "internalType": "uint32",
          "name": "memberId",
          "type": "uint32"
        },
        {
          "internalType": "address",
          "name": "wallet",
          "type": "address"
        }
      ],
      "name": "vinculationMemberToWallet",
      "outputs": [],
      "stateMutability": "nonpayable",
      "type": "function"
    },
    {
      "inputs": [
        {
          "internalType": "uint256",
          "name": "amount",
          "type": "uint256"
        },
        {
          "internalType": "uint32",
          "name": "memberId",
          "type": "uint32"
        }
      ],
      "name": "withdraw",
      "outputs": [],
      "stateMutability": "nonpayable",
      "type": "function"
    }
  ],
  "bytecode": "0x60a034620000cf57601f6200356238819003918201601f19168301916001600160401b03831184841017620000d4578084926040948552833981010312620000cf576200005a60206200005283620000ea565b9201620000ea565b6001600081905560809290925281546001600160a01b0319166001600160a01b0390911617905562278d0060085542600755604051613462908162000100823960805181818161086601528181610dd801528181610ef1015281816113760152818161178a015281816120140152612e7a0152f35b600080fd5b634e487b7160e01b600052604160045260246000fd5b51906001600160a01b0382168203620000cf5756fe6080604052600436101561001257600080fd5b60003560e01c8063016c704f14612bce5780630307c4a114612bb057806303d1a1a11461293b5780630bc21853146128d35780631766ec87146126685780631b70ba3e146124de57806321bb31e41461246c578063232869fa146123e5578063291c31a714611dd95780632b31c022146123285780633403c25d146122b3578063383ab2ef1461226a578063410a1d32146122305780634e51c7df146121e5578063598a562a146121835780636145d1b714611f215780636509a71014611ef5578063657eb03114611ebb5780636587eda114611e925780636f9fb98a1461155e578063777c658f14611e745780637910340014611e175780637d52437a14611dde578063809dab6a14611dd957806381db228414611d53578063827cc0e514611d19578063830efd3b14611c8d578063843592d314611c6257806384ddf5ea14611c445780638a914a6314611c015780639059f9ca146115c65780639730872a146115635780639785fac81461155e57806397c335191461148f5780639e93201114611437578063a7af6947146113a5578063a98ad46c14611360578063adceb101146112de578063b9f0fec41461124e578063be5eb58014611214578063c269014b14611175578063ccdce44e146110a6578063e276392414610e3f578063eb5a662e14610d91578063ecb18b3414610370578063f0853e1d146102bf5763f947a8a91461022157600080fd5b346102a65760003660031901126102a657604051636ecf807360e11b81526002600482015260208160248173__$8a3883123a2a1b05b37447bdbb3fdcf5d3$__5af480156102b35760009061027c575b602090604051908152f35b506020813d82116102ab575b8161029560209383612f4d565b810103126102a65760209051610271565b600080fd5b3d9150610288565b6040513d6000823e3d90fd5b346102a6576020806003193601126102a6576102d9612cc0565b6040516315ffae5b60e21b8152600260048201526001600160a01b039091166024820152818160448173__$8a3883123a2a1b05b37447bdbb3fdcf5d3$__5af49081156102b35760009161033a575b506040519061033681612cec565b8152f35b90508181813d8311610369575b6103518183612f4d565b810103126102a6575160038110156102a65782610328565b503d610347565b346102a65760603660031901126102a657610389612df6565b63ffffffff610396612e09565b169081158015610d30575b610d1e5763ffffffff8116158015610d0e575b610cfc57600963ffffffff82161115610cea576103cf613019565b600435600052601160205260406000209160038301805460ff8160401c166006811015610cd4578015159081610cc8575b50610cb65761041d60649163ffffffff8087169160201c166130d3565b11610ca45761043663ffffffff84166002860154613139565b93670de0b6b3a764000094858102958187041490151715610a385768056bc75e2d630fffff8501809511610a385733600052600b60205268056bc75e2d63100000850460406000205410610c925733600052600b60205260406000206104a868056bc75e2d631000008704825461300c565b905533600052601460205260406000206104ce68056bc75e2d63100000870482546130d3565b9055815463ffffffff851663ffffffff8260201c160163ffffffff8111610a385767ffffffff000000009060201b169067ffffffff0000000019161782556007810190336000528160205260406000205415610c50575b5033600052602052604060002061054868056bc75e2d63100000860482546130d3565b9055805463ffffffff811663ffffffff8260201c161015600014610c3757506802000000000000000060ff60401b19825416179055806000526015602052604060002063ffffffff19815416905560043560005260176020526040600020601160205260406000209060018060a01b036001830154166bffffffffffffffffffffffff60a01b825416178155600435600182015563ffffffff6002808301549360ff19851682850155600881019464ffffffff00865460081b169064ffffffffff1916178285015561063e838654168386019068ffffffff000000000082549160281b169068ffffffff00000000001916179055565b426006850155015492541691610654838261314c565b8315610c21576106638461316e565b9160005b858110610be3575050600383015560005b8363ffffffff821610610b94575060018060a01b03825416600052601660205260043560406000205560018060a01b038254166002830154907f55939e2a4adb2163c21eb3bb2c850e8e82136aed8a9e5971f705f1188d05865e60ff8316600386015463ffffffff600688015495604051936106f381612cec565b845260281c166020830152604082015260a0606082015261071a60a08201600488016131b4565b93608082015280600435940390a360005b838110610b6f57505050506004356000526011602052604060002060018060a01b036001820154169081600052600a60205260ff6040600020541615610ad5575b600360028201918254600c60205261078a60406000209182546130d3565b90556107998354600f546130d3565b600f556107a9835460105461300c565b60105583600052600d60205242604060002055016803000000000000000060ff60401b1982541617905573__$8a3883123a2a1b05b37447bdbb3fdcf5d3$__803b156102a65760006064916040519283809263e63dd53160e01b8252600260048301528760248301526303d1a1a13060201b1760401b60448301525af480156102b357610ac6575b50805460405163a9059cbb60e01b81526001600160a01b038416600482015260248101919091526020818060448101038160007f00000000000000000000000000000000000000000000000000000000000000006001600160a01b03165af19081156102b357600091610a97575b5015610a855760407feae9cfbc77fdd40ca899f36b608256063b2bc9d8178b0220f7ad513e178d6730915483600052600c602052816000205482519182526020820152a27f17f13fd3f7c4712af33f1770ebcb822dd20a2dbc00850eab48d786623d97b9596020600f54604051908152a160008051602061340d8339815191526020601054604051908152a16004357f9e71d2fb732e68272b7e74ecfd14638673c1d77e19a5d390a3ffff054d57c44b600080a25b600154604051636adf462560e11b81526001600160a01b0390911692602082600481875afa9182156102b357600092610a4e575b5063ffffffff1660030b9060030b028060030b908103610a3857823b156102a657606460009283600a95604051968795869463533dfa3560e01b865260048601520560030b6024840152600160448401525af180156102b357610a29575b5068056bc75e2d631000006040519104815233907f86b47e6e6c03d769c0bc5ffd06c682ea7d07089576d59230ec18ff64e71bffe7602060043592a36001600055005b610a3290612f1c565b816109e6565b634e487b7160e01b600052601160045260246000fd5b63ffffffff919250610a779060203d602011610a7e575b610a6f8183612f4d565b8101906130aa565b9190610988565b503d610a65565b604051637a97d71f60e01b8152600490fd5b610ab9915060203d602011610abf575b610ab18183612f4d565b810190612f6f565b8661089f565b503d610aa7565b610acf90612f1c565b85610831565b600954600160401b811015610b59576001810180600955811015610b43577f6e1540171b6c0c960b71a7020d9f60077f6af931a8bbf590da0223dacf75c7af0180546001600160a01b031916831790556000828152600a60205260409020805460ff1916600117905561076c565b634e487b7160e01b600052603260045260246000fd5b634e487b7160e01b600052604160045260246000fd5b80610b8a610b80610b8f93856131a0565b51600586016130ef565b6130e0565b61072b565b63ffffffff610ba282613124565b169062278d009180830292830403610a3857610bcf610bc663ffffffff93426130d3565b600486016130ef565b1663ffffffff8114610a3857600101610678565b858206811015610c12576001830190818411610a3857610c0d91610c0782876131a0565b526130e0565b610667565b8083610c07610c0d93876131a0565b634e487b7160e01b600052601260045260246000fd5b68ff00000000000000001916600160401b179055610954565b6006018054600160401b811015610b5957610c7091600182018155612f04565b81546001600160a01b0360039290921b91821b19163390911b17905585610525565b604051636044d4dd60e01b8152600490fd5b6040516311d9355160e01b8152600490fd5b60405163393e690960e11b8152600490fd5b60019150141586610400565b634e487b7160e01b600052602160045260246000fd5b6040516307314f9160e21b8152600490fd5b604051632819760f60e01b8152600490fd5b50606463ffffffff8216116103b4565b60405163584daf2560e01b8152600490fd5b50600154604051632cc52b1560e11b815233600482015290602090829060249082906001600160a01b03165afa9081156102b357600091610d73575b50156103a1565b610d8b915060203d8111610abf57610ab18183612f4d565b83610d6c565b346102a6576020806003193601126102a657604481610dae612cc0565b604051636eb1769f60e11b81526001600160a01b03918216600482015230602482015292839182907f0000000000000000000000000000000000000000000000000000000000000000165afa9081156102b357600091610e12575b50604051908152f35b90508181813d8311610e38575b610e298183612f4d565b810103126102a6575182610e09565b503d610e1f565b346102a65760403660031901126102a65760043563ffffffff610e60612df6565b16158015611045575b610d1e57801561103457610e7b613019565b604051630c47ab3d60e21b8152602090818180610e9b3060048301612f87565b038173__$8a3883123a2a1b05b37447bdbb3fdcf5d3$__5af480156102b357611017575b506040516323b872dd60e01b815233600482015230602482015260448101839052818160648160006001600160a01b037f0000000000000000000000000000000000000000000000000000000000000000165af19081156102b357600091610ffa575b5015610a855760008051602061340d8339815191529033600052600b815260406000207fdc6e73d4b36e22ab95945bd8833a5af96c950eb29d8d75c4aecffc987637aaab82825495808701845580600e54019081600e558060105401948560105554604051918252838201527f4928895ba6723e8e27b15f32e4c3054a1b6c7f8c03f133558d6fa42b3928d14c60403392a2604051908152a1604051908152a115610fcf575b6001600055005b337f072dafb6aabe3f02118bc607efbeaaa104d6b2009720c7b130f24ba418689c4b600080a2610fc8565b6110119150823d8411610abf57610ab18183612f4d565b83610f22565b61102d90823d8411610abf57610ab18183612f4d565b5082610ebf565b60405162d84c0f60e41b8152600490fd5b50600154604051632cc52b1560e11b815233600482015290602090829060249082906001600160a01b03165afa9081156102b357600091611088575b5015610e69565b6110a0915060203d8111610abf57610ab18183612f4d565b82611081565b346102a65760003660031901126102a6576110bf613019565b604051630c47ab3d60e21b8152602081806110dd3060048301612f87565b038173__$8a3883123a2a1b05b37447bdbb3fdcf5d3$__5af49081156102b357600091611157575b5015611112576001600055005b60405162461bcd60e51b815260206004820152601a60248201527f4d6f6e74686c7920757064617465206e6f7420647565207965740000000000006044820152606490fd5b61116f915060203d8111610abf57610ab18183612f4d565b81611105565b346102a6576020806003193601126102a65761118f612cc0565b60015460405163c269014b60e01b81526001600160a01b03928316600482015291839183916024918391165afa9081156102b3576000916111da575b5063ffffffff60405191168152f35b90508181813d831161120d575b6111f18183612f4d565b810103126102a6575163ffffffff811681036102a657826111cb565b503d6111e7565b346102a65760203660031901126102a6576001600160a01b03611235612cc0565b16600052600c6020526020604060002054604051908152f35b346102a65760203660031901126102a657611267612cc0565b73__$8a3883123a2a1b05b37447bdbb3fdcf5d3$__90813b156102a6576040805163e63dd53160e01b8152600260048201526001600160a01b0390921660248301523060201b6303d1a1a117901b604482015290600090829060649082905af480156102b3576112d357005b6112dc90612f1c565b005b346102a65760403660031901126102a65760206112f9612cd6565b6004356000526017825260406000209060018060a01b03808354169116149081611346575b8161132f575b506040519015158152f35b63ffffffff91506002015460281c16151582611324565b905060ff60028201541661135981612cec565b159061131e565b346102a65760003660031901126102a6576040517f00000000000000000000000000000000000000000000000000000000000000006001600160a01b03168152602090f35b346102a65760203660031901126102a6576113be612cc0565b604051632de5e9bf60e01b8152600260048201526001600160a01b03909116602482015260208160448173__$8a3883123a2a1b05b37447bdbb3fdcf5d3$__5af480156102b35760209160009161141a57506040519015158152f35b6114319150823d8111610abf57610ab18183612f4d565b82611324565b346102a65760403660031901126102a657611450612cc0565b6001600160a01b03166000908152601360205260409020805460243591908210156102a65760209161148191612f04565b90546040519160031b1c8152f35b346102a65760403660031901126102a6576114a8612cc0565b6024358015159081611551575b508061151a575b806114cf575b6020906040519015158152f35b506001600160a01b03166000818152600d60205260409020546114f1906130c3565b42118015611503575b602091506114c2565b50600052600c6020526020604060002054156114fa565b506001600160a01b0381166000908152600b6020526040902054620f42401115806114bc5750600c602052604060002054156114bc565b90506010541015826114b5565b612e4d565b346102a65760203660031901126102a6576001600160a01b03611584612cc0565b1660005260136020526115c26115a76115ae6040600020604051928380926131b4565b0382612f4d565b604051918291602083526020830190612cf6565b0390f35b346102a65760603660031901126102a657602480359063ffffffff600435816115ed612e09565b169283158015611ba1575b610d1e57816000526020906017825260406000209533600052600c835260406000205415611b8f5786546001600160a01b0397903390891603611b8f576002015460ff811661164681612cec565b611b8f5760281c851615611b8f5761165c613019565b604051630c47ab3d60e21b815273__$8a3883123a2a1b05b37447bdbb3fdcf5d3$__9084818061168f3060048301612f87565b0381855af480156102b357611b72575b5081156110345784600052601784526040600020906002820197885488808260281c169160081c1603888111611a76576116dc9060048501612f04565b905460039491851b1c421115611ad4578a600154169160405163a5118bf160e01b81528881600481875afa9081156102b357600091611ab7575b50833b156102a657606460009283604051968794859363533dfa3560e01b855260048501528a0b8c8401528160448401525af19182156102b3578492611aa8575b505b01548303611034576040516323b872dd60e01b815233600482015230602482015260448101849052858160648160007f00000000000000000000000000000000000000000000000000000000000000008f165af19081156102b357600091611a8b575b5015610a855796959633600052600c855260406000206117dd84825461300c565b90556117eb83600f5461300c565b600f556117fa836010546130d3565b60105585600052601185526040600020906002820154946000986007600685019401995b84548110156118e957808d61183661186d9388612f04565b905490891b1c16806000528c8b528b61185d8b6118586040600020548d613139565b61314c565b8c81611872575b505050506130e0565b61181e565b7fe3e6ae1e05f069d410556743894aacbb190c1431962422ebe8fcc642a467dd16918460005260148252604060002080548083116118e1575b826118b59161300c565b905584600052600b825260406000206118cf8282546130d3565b9055604051908152a38e8b818c611864565b9150816118ab565b508888918c8833600052600c8552604060002054604051918252858201527f1b8cd61ed43bec7c6bdad3a18ffee613f99c853d16c50678d248d879e1b4343860403392a280825460281c16837f406356ef25520b09e2ef87c5225167b4161ea4ab691e9434d6ee29eafcc83fc286604051848152a27f17f13fd3f7c4712af33f1770ebcb822dd20a2dbc00850eab48d786623d97b95985600f54604051908152a160008051602061340d83398151915285601054604051908152a160001901818111611a7657825468ffffffff0000000000191660289190911b68ffffffff0000000000161782558154908160281c1615611a40575b505050823b156102a65760646000926303d1a1a194604051958694859363e63dd53160e01b855260026004860152339085015230901b1760401b60448301525af480156102b357611a31576001600055005b611a3a90612f1c565b80610fc8565b60ff191660021790557f02ca5489b37dd363d1302bac719e8ee40e540ffbe8c12253570fea63e11cad71600080a28380806119df565b85634e487b7160e01b60005260116004526000fd5b611aa29150863d8811610abf57610ab18183612f4d565b8a6117bc565b611ab190612f1c565b8b611757565b611ace9150893d8b11610a7e57610a6f8183612f4d565b8d611716565b8a6001541691604051634e5ecf1360e01b81528881600481875afa9081156102b357600091611b55575b50833b156102a657606460009283604051968794859363533dfa3560e01b855260048501528a0b8c840152600160448401525af19182156102b3578492611b46575b50611759565b611b4f90612f1c565b8b611b40565b611b6c9150893d8b11610a7e57610a6f8183612f4d565b8d611afe565b611b8890853d8711610abf57610ab18183612f4d565b508861169f565b60405163c4967cf360e01b8152600490fd5b50600154604051632cc52b1560e11b8152336004820152906020908290849082906001600160a01b03165afa9081156102b357600091611be3575b50156115f8565b611bfb915060203d8111610abf57610ab18183612f4d565b86611bdc565b346102a65760203660031901126102a65760043560005260116020526115c2611c3060066040600020016133b2565b604051918291602083526020830190612db9565b346102a65760003660031901126102a6576020601254604051908152f35b346102a65760203660031901126102a6576020611c85611c80612cc0565b61306f565b604051908152f35b346102a65760003660031901126102a65760405163404b48bf60e01b81526002600482015260008160248173__$8a3883123a2a1b05b37447bdbb3fdcf5d3$__5af480156102b3576115c291600091611cf6575b50604051918291602083526020830190612db9565b611d1391503d806000833e611d0b8183612f4d565b8101906131f1565b82611ce1565b346102a65760203660031901126102a6576001600160a01b03611d3a612cc0565b1660005260146020526020604060002054604051908152f35b346102a65760203660031901126102a657611d6c612e1c565b600154604051632076c8a160e21b815263ffffffff929092166004830152602090829060249082906001600160a01b03165afa80156102b357602091600091611dbc575b506040519060030b8152f35b611dd39150823d8111610a7e57610a6f8183612f4d565b82611db0565b612e2f565b346102a65760203660031901126102a65760043560005260176020526115c26115a76115ae6004604060002001604051928380926131b4565b346102a65760003660031901126102a65760405163f28e2c2f60e01b81526002600482015260208160248173__$8a3883123a2a1b05b37447bdbb3fdcf5d3$__5af480156102b35760209160009161141a57506040519015158152f35b346102a65760003660031901126102a6576020600e54604051908152f35b346102a65760003660031901126102a6576001546040516001600160a01b039091168152602090f35b346102a65760203660031901126102a6576001600160a01b03611edc612cc0565b16600052600d6020526020604060002054604051908152f35b346102a65760203660031901126102a6576040611f13600435613360565b825191825215156020820152f35b346102a65760403660031901126102a65760043563ffffffff611f42612df6565b16158015612122575b610d1e57801561103457611f5d613019565b604051630c47ab3d60e21b8152602090818180611f7d3060048301612f87565b038173__$8a3883123a2a1b05b37447bdbb3fdcf5d3$__5af480156102b357612105575b50611fab3361306f565b82116120f35733600052600b81526040600020611fc983825461300c565b9055611fd782600e5461300c565b600e55611fe68260105461300c565b60105560405163a9059cbb60e01b815233600482015260248101839052818160448160006001600160a01b037f0000000000000000000000000000000000000000000000000000000000000000165af19081156102b3576000916120d6575b5015610a855760008051602061340d8339815191529133600052600b8252604060002054604051918252828201527f92ccf450a286a957af52509bc1c9939d1a6a481783e142e41e2499f0bb66ebc660403392a27fdc6e73d4b36e22ab95945bd8833a5af96c950eb29d8d75c4aecffc987637aaab81600e54604051908152a1601054604051908152a16001600055005b6120ed9150823d8411610abf57610ab18183612f4d565b83612045565b60405163dbee9d4f60e01b8152600490fd5b61211b90823d8411610abf57610ab18183612f4d565b5082611fa1565b50600154604051632cc52b1560e11b815233600482015290602090829060249082906001600160a01b03165afa9081156102b357600091612165575b5015611f4b565b61217d915060203d8111610abf57610ab18183612f4d565b8261215e565b346102a65760203660031901126102a65761219c612cc0565b600154604051632cc52b1560e11b81526001600160a01b0392831660048201529160209183916024918391165afa80156102b35760209160009161141a57506040519015158152f35b346102a65760403660031901126102a6576121fe612cd6565b600435600052601160205260076040600020019060018060a01b03166000526020526020604060002054604051908152f35b346102a65760203660031901126102a6576001600160a01b03612251612cc0565b16600052600b6020526020604060002054604051908152f35b346102a65760203660031901126102a65761228361327b565b5060043560005260176020526115c261229f60406000206132c2565b604051918291602083526020830190612d2a565b346102a65760203660031901126102a6576122cc612cc0565b604051630b79b0a160e21b8152600260048201526001600160a01b03909116602482015260208160448173__$8a3883123a2a1b05b37447bdbb3fdcf5d3$__5af480156102b35760209160009161141a57506040519015158152f35b346102a65760203660031901126102a657600435600052601760205260a06040600020601160205260406000209060028101549160ff831661236981612cec565b15806123d3575b156123bb57600363ffffffff809460281c169201549260086123928585613139565b949392015416906001925b60405194855260208501526040840152606083015215156080820152f35b600801546000925082915063ffffffff16818061239d565b5063ffffffff8360281c161515612370565b346102a65760203660031901126102a657600435600052601760205260e0604060002060018060a01b0381541690600181015490600281015460ff81166006600384015493015493604051958652602086015261244181612cec565b604085015263ffffffff90818160081c16606086015260281c16608084015260a083015260c0820152f35b346102a65760403660031901126102a657612485612e1c565b61248d612cd6565b6001549091906001600160a01b03908116803b156102a6576000928360449263ffffffff94604051978896879563086ecc7960e21b87521660048601521660248401525af180156102b3576112d357005b346102a65760203660031901126102a657600061010060405161250081612f30565b8281528260208201528260408201528260608201528260808201528260a08201528260c0820152606060e082015201526004356000526011602052604060002080549060018060a01b036001820154169060028101549060038101549063ffffffff60ff8360401c16926005830154948260088501541696604051986125858a612f30565b895260208901526040880152818116606088015260201c1660808601526006821015610cd4576125c29260069260a087015260c0860152016133b2565b60e083015261010082015260405190602082528051602083015260018060a01b0360208201511660408301526040810151606083015263ffffffff606082015116608083015263ffffffff60808201511660a083015260a0810151906006821015610cd457829160c083015260c081015160e083015260e081015163ffffffff61010061265c610120938483880152610140870190612db9565b93015116908301520390f35b346102a65760803660031901126102a657600435612684612df6565b9061268d612e09565b906064359163ffffffff908184168094036102a65783600052602094601586526003836040600020541610156128c15784158015612862575b610d1e5783156110345782169060468211801590612858575b610cfc5782169160018310801561284e575b61283c57601054841161282a573360005260168652604060002054806127f4575b5060125494612720866130e0565b601255856000526011875260406000209260018401336bffffffffffffffffffffffff60a01b825416179055856002850155600384019068ffffffffffffffffff1982541617905542600584015585600884019363ffffffff1994868682541617905555336000526013875261279a8660406000206130ef565b600052601586526040600020918254916127b5818416613124565b16911617905560405191825283820152817fde3b47cf7da95a3cc41b86cf8717ead8d56a76ee1590481c5c4dc4d8804c40c460403393a3604051908152f35b6000526017865261280c6006604060002001546130c3565b42106128185786612712565b6040516301bf0a1560e41b8152600490fd5b604051633e285ff160e21b8152600490fd5b60405163053ec95560e11b8152600490fd5b50600c83116126f1565b50606482116126df565b50600154604051632cc52b1560e11b8152336004820152908790829060249082906001600160a01b03165afa9081156102b3576000916128a4575b50156126c6565b6128bb9150873d8911610abf57610ab18183612f4d565b8761289d565b6040516370c9ad1b60e11b8152600490fd5b346102a65760003660031901126102a657604051637fd5e70b60e01b81526002600482015260008160248173__$8a3883123a2a1b05b37447bdbb3fdcf5d3$__5af480156102b3576115c291600091611cf65750604051918291602083526020830190612db9565b346102a6576020806003193601126102a6576001600160a01b03908161295f612cc0565b1691826000526013825260406000206000936000918054925b838110612b20575061298986613156565b956129976040519788612f4d565b808752601f196129a682613156565b0160005b818110612b055750506129bc9061316e565b9360009260005b858110612a4357888888604051928391604083019360408452825180955260608401948160608260051b8701019401956000905b828210612a1357505050836115c2949550830390850152612cf6565b9193955091938480612a31600193605f198c82030186528a51612d2a565b980192019201879593919694926129f7565b612a5081859a999a612f04565b9054600391821b1c60005260178a52604060002083858254161480612aed575b80612ad7575b612a8e575b5050612a86906130e0565b9796976129c3565b95612acf91612aa0612a8694986132c2565b612aaa838d6131a0565b52612ab5828c6131a0565b50612ac08888612f04565b9054911b1c610c07828b6131a0565b94908a612a7b565b5063ffffffff600282015460281c161515612a76565b5060ff600282015416612aff81612cec565b15612a70565b96809897612b1161327b565b82828b010152019796976129aa565b612b2d8183989798612f04565b90549060031b1c6000526017875260406000208386825416149081612b96575b81612b7f575b50612b6a575b612b62906130e0565b959495612978565b94612b77612b62916130e0565b959050612b59565b63ffffffff91506002015460281c16151588612b53565b905060ff600282015416612ba981612cec565b1590612b4d565b346102a65760003660031901126102a6576020600f54604051908152f35b346102a65760203660031901126102a65767ffffffffffffffff6004358181116102a657366023820112156102a65780600401359182116102a6576024600591368285851b830101116102a6573060201b6303d1a1a11760401b939273__$8a3883123a2a1b05b37447bdbb3fdcf5d3$__9160005b858110612c4c57005b80831b82018501356001600160a01b03811691908290036102a657843b156102a6576040519163e63dd53160e01b83526002600484015286830152876044830152600082606481885af49182156102b357612cac92612cb1575b506130e0565b612c43565b612cba90612f1c565b88612ca6565b600435906001600160a01b03821682036102a657565b602435906001600160a01b03821682036102a657565b60031115610cd457565b90815180825260208080930193019160005b828110612d16575050505090565b835185529381019392810192600101612d08565b80516001600160a01b03168252602080820151908301526040810151909190612d5281612cec565b604082015263ffffffff806060840151166060830152608083015116608082015260a082015160a0820152612dab612d9960c08401516101208060c0860152840190612cf6565b60e084015183820360e0850152612cf6565b916101008091015191015290565b90815180825260208080930193019160005b828110612dd9575050505090565b83516001600160a01b031685529381019392810192600101612dcb565b6024359063ffffffff821682036102a657565b6044359063ffffffff821682036102a657565b6004359063ffffffff821682036102a657565b346102a65760003660031901126102a6576020601054604051908152f35b346102a657600080600319360112612f01576040516370a0823160e01b81523060048201526020816024817f00000000000000000000000000000000000000000000000000000000000000006001600160a01b03165afa908115612ef6578291612ebd575b602082604051908152f35b90506020813d8211612eee575b81612ed760209383612f4d565b81010312612eea57602091505138612eb2565b5080fd5b3d9150612eca565b6040513d84823e3d90fd5b80fd5b8054821015610b435760005260206000200190600090565b67ffffffffffffffff8111610b5957604052565b610120810190811067ffffffffffffffff821117610b5957604052565b90601f8019910116810190811067ffffffffffffffff821117610b5957604052565b908160209103126102a6575180151581036102a65790565b919091606081019260028252602093606085840152600954809152608083019060096000527f6e1540171b6c0c960b71a7020d9f60077f6af931a8bbf590da0223dacf75c7af9060005b87828210612fef5750505050931b6303d1a1a117604090811b910152565b83546001600160a01b031685529093019260019283019201612fd1565b91908203918211610a3857565b60026000541461302a576002600055565b60405162461bcd60e51b815260206004820152601f60248201527f5265656e7472616e637947756172643a207265656e7472616e742063616c6c006044820152606490fd5b60018060a01b0316600052600b602052604060002054601460205260406000205480821161309e575050600090565b6130a79161300c565b90565b908160209103126102a657518060030b81036102a65790565b9062278d008201809211610a3857565b91908201809211610a3857565b6000198114610a385760010190565b8054600160401b811015610b595761310c91600182018155612f04565b819291549060031b91821b91600019901b1916179055565b90600163ffffffff80931601918211610a3857565b81810292918115918404141715610a3857565b8115610c21570490565b67ffffffffffffffff8111610b595760051b60200190565b9061317882613156565b6131856040519182612f4d565b8281528092613196601f1991613156565b0190602036910137565b8051821015610b435760209160051b010190565b90815480825260208092019260005281600020916000905b8282106131da575050505090565b8354855293840193600193840193909101906131cc565b60209081818403126102a65780519067ffffffffffffffff82116102a657019180601f840112156102a657825161322781613156565b936132356040519586612f4d565b818552838086019260051b8201019283116102a6578301905b82821061325c575050505090565b81516001600160a01b03811681036102a657815290830190830161324e565b6040519061328882612f30565b816101006000918281528260208201528260408201528260608201528260808201528260a0820152606060c0820152606060e08201520152565b906040516132cf81612f30565b6101006006829460018060a01b03815416845260018101546020850152600281015460ff81166132fe81612cec565b604086015263ffffffff90818160081c16606087015260281c166080850152600381015460a085015260405161333b816115a781600486016131b4565b60c0850152604051613354816115a781600586016131b4565b60e08501520154910152565b60005260176020526040600020600281015460ff811661337f81612cec565b15908161339f575b506133955750600090600090565b6003015490600190565b63ffffffff915060281c16151538613387565b9060405191828154918282526020928383019160005283600020936000905b8282106133e9575050506133e792500383612f4d565b565b85546001600160a01b0316845260019586019588955093810193909101906133d156fe8b094cca6f83d49402ce208cc0c224b76625ffc58636df56ae28024e704c5868a264697066735822122050b49089bd08935cfc1e06198c5c327484118c17365d67aaf8615d54b0e8585e64736f6c63430008130033",
  "linkReferences": {
    "contracts/libraries/DebtTracker.sol": {
      "DebtTracker": [
        {
          "length": 20,
          "start": 846
        },
        {
          "length": 20,
          "start": 1028
        },
        {
          "length": 20,
          "start": 2261
        },
        {
          "length": 20,
          "start": 3999
        },
        {
          "length": 20,
          "start": 4577
        },
        {
          "length": 20,
          "start": 4969
        },
        {
          "length": 20,
          "start": 5354
        },
        {
          "length": 20,
          "start": 5995
        },
        {
          "length": 20,
          "start": 7610
        },
        {
          "length": 20,
          "start": 8004
        },
        {
          "length": 20,
          "start": 8321
        },
        {
          "length": 20,
          "start": 9208
        },
        {
          "length": 20,
          "start": 10752
        },
        {
          "length": 20,
          "start": 11564
        }
      ]
    }
  },
  "deployedLinkReferences": {
    "contracts/libraries/DebtTracker.sol": {
      "DebtTracker": [
        {
          "length": 20,
          "start": 590
        },
        {
          "length": 20,
          "start": 772
        },
        {
          "length": 20,
          "start": 2005
        },
        {
          "length": 20,
          "start": 3743
        },
        {
          "length": 20,
          "start": 4321
        },
        {
          "length": 20,
          "start": 4713
        },
        {
          "length": 20,
          "start": 5098
        },
        {
          "length": 20,
          "start": 5739
        },
        {
          "length": 20,
          "start": 7354
        },
        {
          "length": 20,
          "start": 7748
        },
        {
          "length": 20,
          "start": 8065
        },
        {
          "length": 20,
          "start": 8952
        },
        {
          "length": 20,
          "start": 10496
        },
        {
          "length": 20,
          "start": 11308
        }
      ]
    }
  }
}