{
  "_format": "hh-sol-artifact-1",
  "contractName": "loanMachine",
  "sourceName": "contracts/loanMachine.sol",
  "abi": [
    {
      "anonymous": false,
      "inputs": [
        {
          "indexed": false,
          "internalType": "uint256",
          "name": "total",
          "type": "uint256"
        }
      ],
      "name": "AvailableBalanceUpdated",
      "type": "event"
    },
    {
      "anonymous": false,
      "inputs": [
        {
          "indexed": true,
          "internalType": "address",
          "name": "borrower",
          "type": "address"
        }
      ],
      "name": "BorrowLimitReached",
      "type": "event"
    },
    {
      "anonymous": false,
      "inputs": [
        {
          "indexed": true,
          "internalType": "address",
          "name": "borrower",
          "type": "address"
        },
        {
          "indexed": false,
          "internalType": "uint256",
          "name": "amount",
          "type": "uint256"
        },
        {
          "indexed": false,
          "internalType": "uint256",
          "name": "totalBorrowing",
          "type": "uint256"
        }
      ],
      "name": "Borrowed",
      "type": "event"
    },
    {
      "anonymous": false,
      "inputs": [
        {
          "indexed": true,
          "internalType": "address",
          "name": "donor",
          "type": "address"
        },
        {
          "indexed": false,
          "internalType": "uint256",
          "name": "amount",
          "type": "uint256"
        },
        {
          "indexed": false,
          "internalType": "uint256",
          "name": "totalDonation",
          "type": "uint256"
        }
      ],
      "name": "Donated",
      "type": "event"
    },
    {
      "anonymous": false,
      "inputs": [
        {
          "indexed": true,
          "internalType": "address",
          "name": "borrower",
          "type": "address"
        }
      ],
      "name": "NewBorrower",
      "type": "event"
    },
    {
      "anonymous": false,
      "inputs": [
        {
          "indexed": true,
          "internalType": "address",
          "name": "donor",
          "type": "address"
        }
      ],
      "name": "NewDonor",
      "type": "event"
    },
    {
      "anonymous": false,
      "inputs": [
        {
          "indexed": true,
          "internalType": "address",
          "name": "borrower",
          "type": "address"
        },
        {
          "indexed": false,
          "internalType": "uint256",
          "name": "amount",
          "type": "uint256"
        },
        {
          "indexed": false,
          "internalType": "uint256",
          "name": "remainingDebt",
          "type": "uint256"
        }
      ],
      "name": "Repaid",
      "type": "event"
    },
    {
      "anonymous": false,
      "inputs": [
        {
          "indexed": false,
          "internalType": "uint256",
          "name": "total",
          "type": "uint256"
        }
      ],
      "name": "TotalBorrowedUpdated",
      "type": "event"
    },
    {
      "anonymous": false,
      "inputs": [
        {
          "indexed": false,
          "internalType": "uint256",
          "name": "total",
          "type": "uint256"
        }
      ],
      "name": "TotalDonationsUpdated",
      "type": "event"
    },
    {
      "inputs": [
        {
          "internalType": "uint256",
          "name": "_amount",
          "type": "uint256"
        }
      ],
      "name": "borrow",
      "outputs": [],
      "stateMutability": "nonpayable",
      "type": "function"
    },
    {
      "inputs": [
        {
          "internalType": "address",
          "name": "_user",
          "type": "address"
        },
        {
          "internalType": "uint256",
          "name": "_amount",
          "type": "uint256"
        }
      ],
      "name": "canUserBorrow",
      "outputs": [
        {
          "internalType": "bool",
          "name": "",
          "type": "bool"
        }
      ],
      "stateMutability": "view",
      "type": "function"
    },
    {
      "inputs": [],
      "name": "donate",
      "outputs": [],
      "stateMutability": "payable",
      "type": "function"
    },
    {
      "inputs": [],
      "name": "getAvailableBalance",
      "outputs": [
        {
          "internalType": "uint256",
          "name": "",
          "type": "uint256"
        }
      ],
      "stateMutability": "view",
      "type": "function"
    },
    {
      "inputs": [
        {
          "internalType": "address",
          "name": "_user",
          "type": "address"
        }
      ],
      "name": "getAvailableBorrowAmount",
      "outputs": [
        {
          "internalType": "uint256",
          "name": "",
          "type": "uint256"
        }
      ],
      "stateMutability": "view",
      "type": "function"
    },
    {
      "inputs": [
        {
          "internalType": "address",
          "name": "_user",
          "type": "address"
        }
      ],
      "name": "getBorrowing",
      "outputs": [
        {
          "internalType": "uint256",
          "name": "",
          "type": "uint256"
        }
      ],
      "stateMutability": "view",
      "type": "function"
    },
    {
      "inputs": [],
      "name": "getContractBalance",
      "outputs": [
        {
          "internalType": "uint256",
          "name": "",
          "type": "uint256"
        }
      ],
      "stateMutability": "view",
      "type": "function"
    },
    {
      "inputs": [
        {
          "internalType": "address",
          "name": "_user",
          "type": "address"
        }
      ],
      "name": "getDonation",
      "outputs": [
        {
          "internalType": "uint256",
          "name": "",
          "type": "uint256"
        }
      ],
      "stateMutability": "view",
      "type": "function"
    },
    {
      "inputs": [
        {
          "internalType": "address",
          "name": "_user",
          "type": "address"
        }
      ],
      "name": "getLastBorrowTime",
      "outputs": [
        {
          "internalType": "uint256",
          "name": "",
          "type": "uint256"
        }
      ],
      "stateMutability": "view",
      "type": "function"
    },
    {
      "inputs": [],
      "name": "getTotalBorrowed",
      "outputs": [
        {
          "internalType": "uint256",
          "name": "",
          "type": "uint256"
        }
      ],
      "stateMutability": "view",
      "type": "function"
    },
    {
      "inputs": [],
      "name": "getTotalDonations",
      "outputs": [
        {
          "internalType": "uint256",
          "name": "",
          "type": "uint256"
        }
      ],
      "stateMutability": "view",
      "type": "function"
    },
    {
      "inputs": [
        {
          "internalType": "address",
          "name": "_user",
          "type": "address"
        }
      ],
      "name": "getUserStats",
      "outputs": [
        {
          "internalType": "uint256",
          "name": "userDonations",
          "type": "uint256"
        },
        {
          "internalType": "uint256",
          "name": "userBorrowings",
          "type": "uint256"
        },
        {
          "internalType": "uint256",
          "name": "lastBorrow",
          "type": "uint256"
        },
        {
          "internalType": "bool",
          "name": "canBorrowNow",
          "type": "bool"
        }
      ],
      "stateMutability": "view",
      "type": "function"
    },
    {
      "inputs": [],
      "name": "repay",
      "outputs": [],
      "stateMutability": "payable",
      "type": "function"
    }
  ],
  "bytecode": "0x608060405234801561001057600080fd5b506001600081905550611b8f806100286000396000f3fe6080604052600436106100c25760003560e01c8063777c658f1161007f578063be5eb58011610059578063be5eb58014610274578063c5ebeaec146102b1578063ca7453d4146102da578063ed88c68e14610317576100c2565b8063777c658f146101e1578063809dab6a1461020c57806397c3351914610237576100c2565b80630307c4a1146100c7578063402d8883146100f2578063410a1d32146100fc5780634e43603a14610139578063657eb031146101795780636f9fb98a146101b6575b600080fd5b3480156100d357600080fd5b506100dc610321565b6040516100e99190611465565b60405180910390f35b6100fa61032b565b005b34801561010857600080fd5b50610123600480360381019061011e91906114e3565b61060f565b6040516101309190611465565b60405180910390f35b34801561014557600080fd5b50610160600480360381019061015b91906114e3565b610658565b604051610170949392919061152b565b60405180910390f35b34801561018557600080fd5b506101a0600480360381019061019b91906114e3565b6108c4565b6040516101ad9190611465565b60405180910390f35b3480156101c257600080fd5b506101cb61090d565b6040516101d89190611465565b60405180910390f35b3480156101ed57600080fd5b506101f6610915565b6040516102039190611465565b60405180910390f35b34801561021857600080fd5b5061022161091f565b60405161022e9190611465565b60405180910390f35b34801561024357600080fd5b5061025e6004803603810190610259919061159c565b610929565b60405161026b91906115dc565b60405180910390f35b34801561028057600080fd5b5061029b600480360381019061029691906114e3565b610af5565b6040516102a89190611465565b60405180910390f35b3480156102bd57600080fd5b506102d860048036038101906102d391906115f7565b610b3e565b005b3480156102e657600080fd5b5061030160048036038101906102fc91906114e3565b61110f565b60405161030e9190611465565b60405180910390f35b61031f611182565b005b6000600554905090565b346000811161036f576040517f08c379a000000000000000000000000000000000000000000000000000000000815260040161036690611681565b60405180910390fd5b6103776113f3565b6000600260003373ffffffffffffffffffffffffffffffffffffffff1673ffffffffffffffffffffffffffffffffffffffff16815260200190815260200160002054116103f9576040517f08c379a00000000000000000000000000000000000000000000000000000000081526004016103f0906116ed565b60405180910390fd5b600260003373ffffffffffffffffffffffffffffffffffffffff1673ffffffffffffffffffffffffffffffffffffffff1681526020019081526020016000205434111561047b576040517f08c379a00000000000000000000000000000000000000000000000000000000081526004016104729061177f565b60405180910390fd5b34600260003373ffffffffffffffffffffffffffffffffffffffff1673ffffffffffffffffffffffffffffffffffffffff16815260200190815260200160002060008282546104ca91906117ce565b9250508190555034600560008282546104e391906117ce565b9250508190555034600660008282546104fc9190611802565b925050819055503373ffffffffffffffffffffffffffffffffffffffff167f1b8cd61ed43bec7c6bdad3a18ffee613f99c853d16c50678d248d879e1b4343834600260003373ffffffffffffffffffffffffffffffffffffffff1673ffffffffffffffffffffffffffffffffffffffff1681526020019081526020016000205460405161058a929190611836565b60405180910390a27f17f13fd3f7c4712af33f1770ebcb822dd20a2dbc00850eab48d786623d97b9596005546040516105c39190611465565b60405180910390a17f8b094cca6f83d49402ce208cc0c224b76625ffc58636df56ae28024e704c58686006546040516105fc9190611465565b60405180910390a161060c611442565b50565b6000600160008373ffffffffffffffffffffffffffffffffffffffff1673ffffffffffffffffffffffffffffffffffffffff168152602001908152602001600020549050919050565b600080600080600160008673ffffffffffffffffffffffffffffffffffffffff1673ffffffffffffffffffffffffffffffffffffffff168152602001908152602001600020549350600260008673ffffffffffffffffffffffffffffffffffffffff1673ffffffffffffffffffffffffffffffffffffffff168152602001908152602001600020549250600360008673ffffffffffffffffffffffffffffffffffffffff1673ffffffffffffffffffffffffffffffffffffffff168152602001908152602001600020549150600060065411801561077c5750670de0b6b3a7640000600260008773ffffffffffffffffffffffffffffffffffffffff1673ffffffffffffffffffffffffffffffffffffffff16815260200190815260200160002054105b8015610819575067016345785d8a0000600160008773ffffffffffffffffffffffffffffffffffffffff1673ffffffffffffffffffffffffffffffffffffffff1681526020019081526020016000205410158061081857506000600260008773ffffffffffffffffffffffffffffffffffffffff1673ffffffffffffffffffffffffffffffffffffffff16815260200190815260200160002054145b5b80156108bb57504262093a80600360008873ffffffffffffffffffffffffffffffffffffffff1673ffffffffffffffffffffffffffffffffffffffff1681526020019081526020016000205461086f9190611802565b10806108ba57506000600260008773ffffffffffffffffffffffffffffffffffffffff1673ffffffffffffffffffffffffffffffffffffffff16815260200190815260200160002054145b5b90509193509193565b6000600360008373ffffffffffffffffffffffffffffffffffffffff1673ffffffffffffffffffffffffffffffffffffffff168152602001908152602001600020549050919050565b600047905090565b6000600454905090565b6000600654905090565b6000808211801561093c57506006548211155b80156109505750670de0b6b3a76400008211155b80156109ed575067016345785d8a0000600160008573ffffffffffffffffffffffffffffffffffffffff1673ffffffffffffffffffffffffffffffffffffffff168152602001908152602001600020541015806109ec57506000600260008573ffffffffffffffffffffffffffffffffffffffff1673ffffffffffffffffffffffffffffffffffffffff16815260200190815260200160002054145b5b8015610a4b5750670de0b6b3a764000082600260008673ffffffffffffffffffffffffffffffffffffffff1673ffffffffffffffffffffffffffffffffffffffff16815260200190815260200160002054610a489190611802565b11155b8015610aed57504262093a80600360008673ffffffffffffffffffffffffffffffffffffffff1673ffffffffffffffffffffffffffffffffffffffff16815260200190815260200160002054610aa19190611802565b1080610aec57506000600260008573ffffffffffffffffffffffffffffffffffffffff1673ffffffffffffffffffffffffffffffffffffffff16815260200190815260200160002054145b5b905092915050565b6000600260008373ffffffffffffffffffffffffffffffffffffffff1673ffffffffffffffffffffffffffffffffffffffff168152602001908152602001600020549050919050565b8060008111610b82576040517f08c379a0000000000000000000000000000000000000000000000000000000008152600401610b7990611681565b60405180910390fd5b81600654811115610bc8576040517f08c379a0000000000000000000000000000000000000000000000000000000008152600401610bbf906118d1565b60405180910390fd5b670de0b6b3a7640000811115610c13576040517f08c379a0000000000000000000000000000000000000000000000000000000008152600401610c0a9061193d565b60405180910390fd5b67016345785d8a0000600160003373ffffffffffffffffffffffffffffffffffffffff1673ffffffffffffffffffffffffffffffffffffffff16815260200190815260200160002054101580610ca857506000600260003373ffffffffffffffffffffffffffffffffffffffff1673ffffffffffffffffffffffffffffffffffffffff16815260200190815260200160002054145b610ce7576040517f08c379a0000000000000000000000000000000000000000000000000000000008152600401610cde906119cf565b60405180910390fd5b670de0b6b3a764000081600260003373ffffffffffffffffffffffffffffffffffffffff1673ffffffffffffffffffffffffffffffffffffffff16815260200190815260200160002054610d3b9190611802565b1115610d7c576040517f08c379a0000000000000000000000000000000000000000000000000000000008152600401610d7390611a3b565b60405180910390fd5b4262093a80600360003373ffffffffffffffffffffffffffffffffffffffff1673ffffffffffffffffffffffffffffffffffffffff16815260200190815260200160002054610dcb9190611802565b1080610e1657506000600260003373ffffffffffffffffffffffffffffffffffffffff1673ffffffffffffffffffffffffffffffffffffffff16815260200190815260200160002054145b610e55576040517f08c379a0000000000000000000000000000000000000000000000000000000008152600401610e4c90611acd565b60405180910390fd5b610e5d6113f3565b600080600260003373ffffffffffffffffffffffffffffffffffffffff1673ffffffffffffffffffffffffffffffffffffffff1681526020019081526020016000205414905083600260003373ffffffffffffffffffffffffffffffffffffffff1673ffffffffffffffffffffffffffffffffffffffff1681526020019081526020016000206000828254610ef29190611802565b9250508190555042600360003373ffffffffffffffffffffffffffffffffffffffff1673ffffffffffffffffffffffffffffffffffffffff168152602001908152602001600020819055508360056000828254610f4f9190611802565b925050819055508360066000828254610f6891906117ce565b925050819055503373ffffffffffffffffffffffffffffffffffffffff167feae9cfbc77fdd40ca899f36b608256063b2bc9d8178b0220f7ad513e178d673085600260003373ffffffffffffffffffffffffffffffffffffffff1673ffffffffffffffffffffffffffffffffffffffff16815260200190815260200160002054604051610ff6929190611836565b60405180910390a27f17f13fd3f7c4712af33f1770ebcb822dd20a2dbc00850eab48d786623d97b95960055460405161102f9190611465565b60405180910390a17f8b094cca6f83d49402ce208cc0c224b76625ffc58636df56ae28024e704c58686006546040516110689190611465565b60405180910390a180156110ba573373ffffffffffffffffffffffffffffffffffffffff167fdd6d577a01057a7ca4e715ae2c9f196a0a25d8e9d1ddd9376047869ce6fe56c760405160405180910390a25b3373ffffffffffffffffffffffffffffffffffffffff166108fc859081150290604051600060405180830381858888f19350505050158015611100573d6000803e3d6000fd5b505061110a611442565b505050565b600080600260008473ffffffffffffffffffffffffffffffffffffffff1673ffffffffffffffffffffffffffffffffffffffff16815260200190815260200160002054670de0b6b3a764000061116591906117ce565b905060065481106111785760065461117a565b805b915050919050565b34600081116111c6576040517f08c379a00000000000000000000000000000000000000000000000000000000081526004016111bd90611681565b60405180910390fd5b6111ce6113f3565b600080600160003373ffffffffffffffffffffffffffffffffffffffff1673ffffffffffffffffffffffffffffffffffffffff1681526020019081526020016000205414905034600160003373ffffffffffffffffffffffffffffffffffffffff1673ffffffffffffffffffffffffffffffffffffffff16815260200190815260200160002060008282546112639190611802565b92505081905550346004600082825461127c9190611802565b9250508190555034600660008282546112959190611802565b925050819055503373ffffffffffffffffffffffffffffffffffffffff167f4928895ba6723e8e27b15f32e4c3054a1b6c7f8c03f133558d6fa42b3928d14c34600160003373ffffffffffffffffffffffffffffffffffffffff1673ffffffffffffffffffffffffffffffffffffffff16815260200190815260200160002054604051611323929190611836565b60405180910390a27fdc6e73d4b36e22ab95945bd8833a5af96c950eb29d8d75c4aecffc987637aaab60045460405161135c9190611465565b60405180910390a17f8b094cca6f83d49402ce208cc0c224b76625ffc58636df56ae28024e704c58686006546040516113959190611465565b60405180910390a180156113e7573373ffffffffffffffffffffffffffffffffffffffff167f072dafb6aabe3f02118bc607efbeaaa104d6b2009720c7b130f24ba418689c4b60405160405180910390a25b506113f0611442565b50565b600260005403611438576040517f08c379a000000000000000000000000000000000000000000000000000000000815260040161142f90611b39565b60405180910390fd5b6002600081905550565b6001600081905550565b6000819050919050565b61145f8161144c565b82525050565b600060208201905061147a6000830184611456565b92915050565b600080fd5b600073ffffffffffffffffffffffffffffffffffffffff82169050919050565b60006114b082611485565b9050919050565b6114c0816114a5565b81146114cb57600080fd5b50565b6000813590506114dd816114b7565b92915050565b6000602082840312156114f9576114f8611480565b5b6000611507848285016114ce565b91505092915050565b60008115159050919050565b61152581611510565b82525050565b60006080820190506115406000830187611456565b61154d6020830186611456565b61155a6040830185611456565b611567606083018461151c565b95945050505050565b6115798161144c565b811461158457600080fd5b50565b60008135905061159681611570565b92915050565b600080604083850312156115b3576115b2611480565b5b60006115c1858286016114ce565b92505060206115d285828601611587565b9150509250929050565b60006020820190506115f1600083018461151c565b92915050565b60006020828403121561160d5761160c611480565b5b600061161b84828501611587565b91505092915050565b600082825260208201905092915050565b7f416d6f756e74206d7573742062652067726561746572207468616e2030000000600082015250565b600061166b601d83611624565b915061167682611635565b602082019050919050565b6000602082019050818103600083015261169a8161165e565b9050919050565b7f4e6f2061637469766520626f72726f77696e6700000000000000000000000000600082015250565b60006116d7601383611624565b91506116e2826116a1565b602082019050919050565b60006020820190508181036000830152611706816116ca565b9050919050565b7f52657061796d656e74206578636565647320626f72726f77656420616d6f756e60008201527f7400000000000000000000000000000000000000000000000000000000000000602082015250565b6000611769602183611624565b91506117748261170d565b604082019050919050565b600060208201905081810360008301526117988161175c565b9050919050565b7f4e487b7100000000000000000000000000000000000000000000000000000000600052601160045260246000fd5b60006117d98261144c565b91506117e48361144c565b92508282039050818111156117fc576117fb61179f565b5b92915050565b600061180d8261144c565b91506118188361144c565b92508282019050808211156118305761182f61179f565b5b92915050565b600060408201905061184b6000830185611456565b6118586020830184611456565b9392505050565b7f496e73756666696369656e742066756e647320696e2076656e64696e67206d6160008201527f6368696e65000000000000000000000000000000000000000000000000000000602082015250565b60006118bb602583611624565b91506118c68261185f565b604082019050919050565b600060208201905081810360008301526118ea816118ae565b9050919050565b7f45786365656473206d6178696d756d20626f72726f7720616d6f756e74000000600082015250565b6000611927601d83611624565b9150611932826118f1565b602082019050919050565b600060208201905081810360008301526119568161191a565b9050919050565b7f4d696e696d756d20646f6e6174696f6e207265717569726564206f722065786960008201527f7374696e67206465627400000000000000000000000000000000000000000000602082015250565b60006119b9602a83611624565b91506119c48261195d565b604082019050919050565b600060208201905081810360008301526119e8816119ac565b9050919050565b7f4578636565647320706572736f6e616c20626f72726f77206c696d6974000000600082015250565b6000611a25601d83611624565b9150611a30826119ef565b602082019050919050565b60006020820190508181036000830152611a5481611a18565b9050919050565b7f50726576696f757320626f72726f77206e6f742079657420726570616964206f60008201527f72206475726174696f6e206e6f74206578706972656400000000000000000000602082015250565b6000611ab7603683611624565b9150611ac282611a5b565b604082019050919050565b60006020820190508181036000830152611ae681611aaa565b9050919050565b7f5265656e7472616e637947756172643a207265656e7472616e742063616c6c00600082015250565b6000611b23601f83611624565b9150611b2e82611aed565b602082019050919050565b60006020820190508181036000830152611b5281611b16565b905091905056fea26469706673582212209de3f672187c3741cede21ea2c510cfea85549c992d7851469d332824820b53c64736f6c63430008140033",
  "linkReferences": {},
  "deployedLinkReferences": {}
}