{
  "_format": "hh-sol-artifact-1",
  "contractName": "LoanMachine",
  "sourceName": "contracts/LoanMachine.sol",
  "abi": [
    {
      "inputs": [],
      "name": "BorrowNotExpired",
      "type": "error"
    },
    {
      "inputs": [],
      "name": "InsufficientDonationBalance",
      "type": "error"
    },
    {
      "inputs": [],
      "name": "InsufficientFunds",
      "type": "error"
    },
    {
      "inputs": [],
      "name": "InvalidAmount",
      "type": "error"
    },
    {
      "inputs": [],
      "name": "InvalidCoveragePercentage",
      "type": "error"
    },
    {
      "inputs": [],
      "name": "InvalidParcelsCount",
      "type": "error"
    },
    {
      "inputs": [],
      "name": "LoanNotAvailable",
      "type": "error"
    },
    {
      "inputs": [],
      "name": "MinimumDonationRequired",
      "type": "error"
    },
    {
      "inputs": [],
      "name": "NoActiveBorrowing",
      "type": "error"
    },
    {
      "inputs": [],
      "name": "OverCoverage",
      "type": "error"
    },
    {
      "inputs": [],
      "name": "RepaymentExceedsBorrowed",
      "type": "error"
    },
    {
      "anonymous": false,
      "inputs": [
        {
          "indexed": false,
          "internalType": "uint256",
          "name": "total",
          "type": "uint256"
        }
      ],
      "name": "AvailableBalanceUpdated",
      "type": "event"
    },
    {
      "anonymous": false,
      "inputs": [
        {
          "indexed": true,
          "internalType": "address",
          "name": "borrower",
          "type": "address"
        }
      ],
      "name": "BorrowLimitReached",
      "type": "event"
    },
    {
      "anonymous": false,
      "inputs": [
        {
          "indexed": true,
          "internalType": "address",
          "name": "borrower",
          "type": "address"
        },
        {
          "indexed": false,
          "internalType": "uint256",
          "name": "amount",
          "type": "uint256"
        },
        {
          "indexed": false,
          "internalType": "uint256",
          "name": "totalBorrowing",
          "type": "uint256"
        }
      ],
      "name": "Borrowed",
      "type": "event"
    },
    {
      "anonymous": false,
      "inputs": [
        {
          "indexed": true,
          "internalType": "address",
          "name": "donor",
          "type": "address"
        },
        {
          "indexed": false,
          "internalType": "uint256",
          "name": "amount",
          "type": "uint256"
        },
        {
          "indexed": false,
          "internalType": "uint256",
          "name": "totalDonation",
          "type": "uint256"
        }
      ],
      "name": "Donated",
      "type": "event"
    },
    {
      "anonymous": false,
      "inputs": [
        {
          "indexed": true,
          "internalType": "uint256",
          "name": "requisitionId",
          "type": "uint256"
        },
        {
          "indexed": true,
          "internalType": "address",
          "name": "lender",
          "type": "address"
        },
        {
          "indexed": false,
          "internalType": "uint256",
          "name": "amount",
          "type": "uint256"
        }
      ],
      "name": "LenderRepaid",
      "type": "event"
    },
    {
      "anonymous": false,
      "inputs": [
        {
          "indexed": true,
          "internalType": "uint256",
          "name": "requisitionId",
          "type": "uint256"
        }
      ],
      "name": "LoanCompleted",
      "type": "event"
    },
    {
      "anonymous": false,
      "inputs": [
        {
          "indexed": true,
          "internalType": "address",
          "name": "walletAddress",
          "type": "address"
        },
        {
          "indexed": true,
          "internalType": "uint256",
          "name": "requisitionId",
          "type": "uint256"
        },
        {
          "indexed": false,
          "internalType": "enum ILoanMachine.ContractStatus",
          "name": "status",
          "type": "uint8"
        },
        {
          "indexed": false,
          "internalType": "uint32",
          "name": "parcelsPending",
          "type": "uint32"
        },
        {
          "indexed": false,
          "internalType": "uint256",
          "name": "parcelsValues",
          "type": "uint256"
        },
        {
          "indexed": false,
          "internalType": "uint256[]",
          "name": "paymentDates",
          "type": "uint256[]"
        }
      ],
      "name": "LoanContractGenerated",
      "type": "event"
    },
    {
      "anonymous": false,
      "inputs": [
        {
          "indexed": true,
          "internalType": "uint256",
          "name": "requisitionId",
          "type": "uint256"
        },
        {
          "indexed": true,
          "internalType": "address",
          "name": "lender",
          "type": "address"
        },
        {
          "indexed": false,
          "internalType": "uint256",
          "name": "coverageAmount",
          "type": "uint256"
        }
      ],
      "name": "LoanCovered",
      "type": "event"
    },
    {
      "anonymous": false,
      "inputs": [
        {
          "indexed": true,
          "internalType": "uint256",
          "name": "requisitionId",
          "type": "uint256"
        }
      ],
      "name": "LoanFunded",
      "type": "event"
    },
    {
      "anonymous": false,
      "inputs": [
        {
          "indexed": true,
          "internalType": "uint256",
          "name": "requisitionId",
          "type": "uint256"
        },
        {
          "indexed": true,
          "internalType": "address",
          "name": "borrower",
          "type": "address"
        },
        {
          "indexed": false,
          "internalType": "uint256",
          "name": "amount",
          "type": "uint256"
        },
        {
          "indexed": false,
          "internalType": "uint32",
          "name": "parcelsCount",
          "type": "uint32"
        }
      ],
      "name": "LoanRequisitionCreated",
      "type": "event"
    },
    {
      "anonymous": false,
      "inputs": [
        {
          "indexed": true,
          "internalType": "address",
          "name": "borrower",
          "type": "address"
        }
      ],
      "name": "NewBorrower",
      "type": "event"
    },
    {
      "anonymous": false,
      "inputs": [
        {
          "indexed": true,
          "internalType": "address",
          "name": "donor",
          "type": "address"
        }
      ],
      "name": "NewDonor",
      "type": "event"
    },
    {
      "anonymous": false,
      "inputs": [
        {
          "indexed": true,
          "internalType": "uint256",
          "name": "requisitionId",
          "type": "uint256"
        },
        {
          "indexed": false,
          "internalType": "uint256",
          "name": "parcelsRemaining",
          "type": "uint256"
        }
      ],
      "name": "ParcelPaid",
      "type": "event"
    },
    {
      "anonymous": false,
      "inputs": [
        {
          "indexed": true,
          "internalType": "address",
          "name": "borrower",
          "type": "address"
        },
        {
          "indexed": false,
          "internalType": "uint256",
          "name": "amount",
          "type": "uint256"
        },
        {
          "indexed": false,
          "internalType": "uint256",
          "name": "remainingDebt",
          "type": "uint256"
        }
      ],
      "name": "Repaid",
      "type": "event"
    },
    {
      "anonymous": false,
      "inputs": [
        {
          "indexed": false,
          "internalType": "uint256",
          "name": "total",
          "type": "uint256"
        }
      ],
      "name": "TotalBorrowedUpdated",
      "type": "event"
    },
    {
      "anonymous": false,
      "inputs": [
        {
          "indexed": false,
          "internalType": "uint256",
          "name": "total",
          "type": "uint256"
        }
      ],
      "name": "TotalDonationsUpdated",
      "type": "event"
    },
    {
      "inputs": [
        {
          "internalType": "address",
          "name": "",
          "type": "address"
        },
        {
          "internalType": "uint256",
          "name": "",
          "type": "uint256"
        }
      ],
      "name": "borrowerRequisitions",
      "outputs": [
        {
          "internalType": "uint256",
          "name": "",
          "type": "uint256"
        }
      ],
      "stateMutability": "view",
      "type": "function"
    },
    {
      "inputs": [
        {
          "internalType": "uint256",
          "name": "requisitionId",
          "type": "uint256"
        },
        {
          "internalType": "address",
          "name": "borrower",
          "type": "address"
        }
      ],
      "name": "canPayRequisition",
      "outputs": [
        {
          "internalType": "bool",
          "name": "",
          "type": "bool"
        }
      ],
      "stateMutability": "view",
      "type": "function"
    },
    {
      "inputs": [
        {
          "internalType": "address",
          "name": "_user",
          "type": "address"
        },
        {
          "internalType": "uint256",
          "name": "_amount",
          "type": "uint256"
        }
      ],
      "name": "canUserBorrow",
      "outputs": [
        {
          "internalType": "bool",
          "name": "",
          "type": "bool"
        }
      ],
      "stateMutability": "view",
      "type": "function"
    },
    {
      "inputs": [
        {
          "internalType": "uint256",
          "name": "requisitionId",
          "type": "uint256"
        },
        {
          "internalType": "uint32",
          "name": "coveragePercentage",
          "type": "uint32"
        }
      ],
      "name": "coverLoan",
      "outputs": [],
      "stateMutability": "nonpayable",
      "type": "function"
    },
    {
      "inputs": [
        {
          "internalType": "uint256",
          "name": "_amount",
          "type": "uint256"
        },
        {
          "internalType": "uint32",
          "name": "_minimumCoverage",
          "type": "uint32"
        },
        {
          "internalType": "uint256",
          "name": "_durationDays",
          "type": "uint256"
        },
        {
          "internalType": "uint32",
          "name": "parcelscount",
          "type": "uint32"
        }
      ],
      "name": "createLoanRequisition",
      "outputs": [
        {
          "internalType": "uint256",
          "name": "",
          "type": "uint256"
        }
      ],
      "stateMutability": "nonpayable",
      "type": "function"
    },
    {
      "inputs": [],
      "name": "donate",
      "outputs": [],
      "stateMutability": "payable",
      "type": "function"
    },
    {
      "inputs": [
        {
          "internalType": "address",
          "name": "borrower",
          "type": "address"
        }
      ],
      "name": "getActiveLoans",
      "outputs": [
        {
          "components": [
            {
              "internalType": "address",
              "name": "walletAddress",
              "type": "address"
            },
            {
              "internalType": "uint256",
              "name": "requisitionId",
              "type": "uint256"
            },
            {
              "internalType": "enum ILoanMachine.ContractStatus",
              "name": "status",
              "type": "uint8"
            },
            {
              "internalType": "uint32",
              "name": "parcelsPending",
              "type": "uint32"
            },
            {
              "internalType": "uint256",
              "name": "parcelsValues",
              "type": "uint256"
            },
            {
              "internalType": "uint256[]",
              "name": "paymentDates",
              "type": "uint256[]"
            }
          ],
          "internalType": "struct ILoanMachine.LoanContract[]",
          "name": "activeLoans",
          "type": "tuple[]"
        },
        {
          "internalType": "uint256[]",
          "name": "requisitionIds",
          "type": "uint256[]"
        }
      ],
      "stateMutability": "view",
      "type": "function"
    },
    {
      "inputs": [],
      "name": "getAvailableBalance",
      "outputs": [
        {
          "internalType": "uint256",
          "name": "",
          "type": "uint256"
        }
      ],
      "stateMutability": "view",
      "type": "function"
    },
    {
      "inputs": [],
      "name": "getAvailableBorrowAmount",
      "outputs": [
        {
          "internalType": "uint256",
          "name": "",
          "type": "uint256"
        }
      ],
      "stateMutability": "view",
      "type": "function"
    },
    {
      "inputs": [
        {
          "internalType": "address",
          "name": "borrower",
          "type": "address"
        }
      ],
      "name": "getBorrowerRequisitions",
      "outputs": [
        {
          "internalType": "uint256[]",
          "name": "",
          "type": "uint256[]"
        }
      ],
      "stateMutability": "view",
      "type": "function"
    },
    {
      "inputs": [
        {
          "internalType": "address",
          "name": "_user",
          "type": "address"
        }
      ],
      "name": "getBorrowing",
      "outputs": [
        {
          "internalType": "uint256",
          "name": "",
          "type": "uint256"
        }
      ],
      "stateMutability": "view",
      "type": "function"
    },
    {
      "inputs": [],
      "name": "getContractBalance",
      "outputs": [
        {
          "internalType": "uint256",
          "name": "",
          "type": "uint256"
        }
      ],
      "stateMutability": "view",
      "type": "function"
    },
    {
      "inputs": [
        {
          "internalType": "uint256",
          "name": "requisitionId",
          "type": "uint256"
        }
      ],
      "name": "getCoveringLenders",
      "outputs": [
        {
          "internalType": "address[]",
          "name": "",
          "type": "address[]"
        }
      ],
      "stateMutability": "view",
      "type": "function"
    },
    {
      "inputs": [
        {
          "internalType": "address",
          "name": "_user",
          "type": "address"
        }
      ],
      "name": "getDonation",
      "outputs": [
        {
          "internalType": "uint256",
          "name": "",
          "type": "uint256"
        }
      ],
      "stateMutability": "view",
      "type": "function"
    },
    {
      "inputs": [
        {
          "internalType": "address",
          "name": "lender",
          "type": "address"
        }
      ],
      "name": "getDonationsInCoverage",
      "outputs": [
        {
          "internalType": "uint256",
          "name": "",
          "type": "uint256"
        }
      ],
      "stateMutability": "view",
      "type": "function"
    },
    {
      "inputs": [
        {
          "internalType": "address",
          "name": "_user",
          "type": "address"
        }
      ],
      "name": "getLastBorrowTime",
      "outputs": [
        {
          "internalType": "uint256",
          "name": "",
          "type": "uint256"
        }
      ],
      "stateMutability": "view",
      "type": "function"
    },
    {
      "inputs": [
        {
          "internalType": "uint256",
          "name": "requisitionId",
          "type": "uint256"
        },
        {
          "internalType": "address",
          "name": "lender",
          "type": "address"
        }
      ],
      "name": "getLenderCoverage",
      "outputs": [
        {
          "internalType": "uint256",
          "name": "",
          "type": "uint256"
        }
      ],
      "stateMutability": "view",
      "type": "function"
    },
    {
      "inputs": [
        {
          "internalType": "uint256",
          "name": "requisitionId",
          "type": "uint256"
        }
      ],
      "name": "getLoanContract",
      "outputs": [
        {
          "components": [
            {
              "internalType": "address",
              "name": "walletAddress",
              "type": "address"
            },
            {
              "internalType": "uint256",
              "name": "requisitionId",
              "type": "uint256"
            },
            {
              "internalType": "enum ILoanMachine.ContractStatus",
              "name": "status",
              "type": "uint8"
            },
            {
              "internalType": "uint32",
              "name": "parcelsPending",
              "type": "uint32"
            },
            {
              "internalType": "uint256",
              "name": "parcelsValues",
              "type": "uint256"
            },
            {
              "internalType": "uint256[]",
              "name": "paymentDates",
              "type": "uint256[]"
            }
          ],
          "internalType": "struct ILoanMachine.LoanContract",
          "name": "",
          "type": "tuple"
        }
      ],
      "stateMutability": "view",
      "type": "function"
    },
    {
      "inputs": [
        {
          "internalType": "uint256",
          "name": "requisitionId",
          "type": "uint256"
        }
      ],
      "name": "getNextPaymentAmount",
      "outputs": [
        {
          "internalType": "uint256",
          "name": "paymentAmount",
          "type": "uint256"
        },
        {
          "internalType": "bool",
          "name": "canPay",
          "type": "bool"
        }
      ],
      "stateMutability": "view",
      "type": "function"
    },
    {
      "inputs": [
        {
          "internalType": "uint256",
          "name": "requisitionId",
          "type": "uint256"
        }
      ],
      "name": "getPaymentDates",
      "outputs": [
        {
          "internalType": "uint256[]",
          "name": "",
          "type": "uint256[]"
        }
      ],
      "stateMutability": "view",
      "type": "function"
    },
    {
      "inputs": [
        {
          "internalType": "uint256",
          "name": "requisitionId",
          "type": "uint256"
        }
      ],
      "name": "getRepaymentSummary",
      "outputs": [
        {
          "internalType": "uint256",
          "name": "totalRemainingDebt",
          "type": "uint256"
        },
        {
          "internalType": "uint256",
          "name": "nextPaymentAmount",
          "type": "uint256"
        },
        {
          "internalType": "uint256",
          "name": "parcelsRemaining",
          "type": "uint256"
        },
        {
          "internalType": "uint256",
          "name": "totalParcels",
          "type": "uint256"
        },
        {
          "internalType": "bool",
          "name": "isActive",
          "type": "bool"
        }
      ],
      "stateMutability": "view",
      "type": "function"
    },
    {
      "inputs": [
        {
          "internalType": "uint256",
          "name": "requisitionId",
          "type": "uint256"
        }
      ],
      "name": "getRequisitionInfo",
      "outputs": [
        {
          "components": [
            {
              "internalType": "uint256",
              "name": "requisitionId",
              "type": "uint256"
            },
            {
              "internalType": "address",
              "name": "borrower",
              "type": "address"
            },
            {
              "internalType": "uint256",
              "name": "amount",
              "type": "uint256"
            },
            {
              "internalType": "uint32",
              "name": "minimumCoverage",
              "type": "uint32"
            },
            {
              "internalType": "uint32",
              "name": "currentCoverage",
              "type": "uint32"
            },
            {
              "internalType": "enum ILoanMachine.BorrowStatus",
              "name": "status",
              "type": "uint8"
            },
            {
              "internalType": "uint256",
              "name": "durationDays",
              "type": "uint256"
            },
            {
              "internalType": "uint256",
              "name": "creationTime",
              "type": "uint256"
            },
            {
              "internalType": "address[]",
              "name": "coveringLenders",
              "type": "address[]"
            },
            {
              "internalType": "uint32",
              "name": "parcelsCount",
              "type": "uint32"
            }
          ],
          "internalType": "struct ILoanMachine.RequisitionInfo",
          "name": "",
          "type": "tuple"
        }
      ],
      "stateMutability": "view",
      "type": "function"
    },
    {
      "inputs": [],
      "name": "getTotalBorrowed",
      "outputs": [
        {
          "internalType": "uint256",
          "name": "",
          "type": "uint256"
        }
      ],
      "stateMutability": "view",
      "type": "function"
    },
    {
      "inputs": [],
      "name": "getTotalDonations",
      "outputs": [
        {
          "internalType": "uint256",
          "name": "",
          "type": "uint256"
        }
      ],
      "stateMutability": "view",
      "type": "function"
    },
    {
      "inputs": [
        {
          "internalType": "uint256",
          "name": "",
          "type": "uint256"
        }
      ],
      "name": "loanContracts",
      "outputs": [
        {
          "internalType": "address",
          "name": "walletAddress",
          "type": "address"
        },
        {
          "internalType": "uint256",
          "name": "requisitionId",
          "type": "uint256"
        },
        {
          "internalType": "enum ILoanMachine.ContractStatus",
          "name": "status",
          "type": "uint8"
        },
        {
          "internalType": "uint32",
          "name": "parcelsPending",
          "type": "uint32"
        },
        {
          "internalType": "uint256",
          "name": "parcelsValues",
          "type": "uint256"
        }
      ],
      "stateMutability": "view",
      "type": "function"
    },
    {
      "inputs": [
        {
          "internalType": "uint256",
          "name": "requisitionId",
          "type": "uint256"
        }
      ],
      "name": "repay",
      "outputs": [],
      "stateMutability": "payable",
      "type": "function"
    },
    {
      "inputs": [],
      "name": "requisitionCounter",
      "outputs": [
        {
          "internalType": "uint256",
          "name": "",
          "type": "uint256"
        }
      ],
      "stateMutability": "view",
      "type": "function"
    }
  ],
  "bytecode": "0x608060405234801561001057600080fd5b50600160005561244f806100256000396000f3fe60806040526004361061019c5760003560e01c80636f9fb98a116100ec5780639730872a1161008a578063a648bf7511610064578063a648bf751461054e578063adceb1011461056e578063be5eb5801461058e578063ed88c68e146105c457600080fd5b80639730872a146104de57806397c33519146104fe5780639e9320111461052e57600080fd5b8063809dab6a116100c6578063809dab6a146102b0578063827cc0e51461046557806384ddf5ea1461049b5780638a914a63146104b157600080fd5b80636f9fb98a14610410578063777c658f146104235780637d52437a1461043857600080fd5b80632b31c02211610159578063410a1d3211610133578063410a1d321461034f5780634e51c7df146103855780636509a710146103a5578063657eb031146103da57600080fd5b80632b31c022146102c5578063371fd8e61461030f578063383ab2ef1461032257600080fd5b80630307c4a1146101a157806303d1a1a1146101c55780631b70ba3e146101f3578063232869fa146102205780632485a3141461028e578063291c31a7146102b0575b600080fd5b3480156101ad57600080fd5b506005545b6040519081526020015b60405180910390f35b3480156101d157600080fd5b506101e56101e0366004611e9a565b6105cc565b6040516101bc929190611fb0565b3480156101ff57600080fd5b5061021361020e366004612026565b610963565b6040516101bc9190612088565b34801561022c57600080fd5b5061027d61023b366004612026565b600b6020526000908152604090208054600182015460028301546003909301546001600160a01b0390921692909160ff821691610100900463ffffffff169085565b6040516101bc959493929190612144565b34801561029a57600080fd5b506102ae6102a9366004612195565b610ac7565b005b3480156102bc57600080fd5b506006546101b2565b3480156102d157600080fd5b506102e56102e0366004612026565b610df8565b6040805195865260208601949094529284019190915260608301521515608082015260a0016101bc565b6102ae61031d366004612026565b610ec7565b34801561032e57600080fd5b5061034261033d366004612026565b6111e4565b6040516101bc91906121c1565b34801561035b57600080fd5b506101b261036a366004611e9a565b6001600160a01b031660009081526001602052604090205490565b34801561039157600080fd5b506101b26103a03660046121d4565b611311565b3480156103b157600080fd5b506103c56103c0366004612026565b61133d565b604080519283529015156020830152016101bc565b3480156103e657600080fd5b506101b26103f5366004611e9a565b6001600160a01b031660009081526003602052604090205490565b34801561041c57600080fd5b50476101b2565b34801561042f57600080fd5b506004546101b2565b34801561044457600080fd5b50610458610453366004612026565b6113a1565b6040516101bc91906121f7565b34801561047157600080fd5b506101b2610480366004611e9a565b6001600160a01b03166000908152600a602052604090205490565b3480156104a757600080fd5b506101b260085481565b3480156104bd57600080fd5b506104d16104cc366004612026565b611406565b6040516101bc919061220a565b3480156104ea57600080fd5b506104586104f9366004611e9a565b611474565b34801561050a57600080fd5b5061051e61051936600461221d565b6114de565b60405190151581526020016101bc565b34801561053a57600080fd5b506101b261054936600461221d565b611596565b34801561055a57600080fd5b506101b2610569366004612247565b6115c7565b34801561057a57600080fd5b5061051e6105893660046121d4565b61179c565b34801561059a57600080fd5b506101b26105a9366004611e9a565b6001600160a01b031660009081526002602052604090205490565b6102ae611800565b6001600160a01b0381166000908152600960205260408120606091829190805b82548110156106a0576000600b600085848154811061060d5761060d61228d565b60009182526020808320909101548352820192909252604001902080549091506001600160a01b039081169088161480156106605750600060028083015460ff169081111561065e5761065e611eb5565b145b801561067a57506002810154610100900463ffffffff1615155b1561068d5782610689816122b9565b9350505b5080610698816122b9565b9150506105ec565b508067ffffffffffffffff8111156106ba576106ba6122d2565b60405190808252806020026020018201604052801561072257816020015b61070f6040805160c08101825260008082526020820181905290918201908152600060208201819052604082015260609081015290565b8152602001906001900390816106d85790505b5093508067ffffffffffffffff81111561073e5761073e6122d2565b604051908082528060200260200182016040528015610767578160200160208202803683370190505b5092506000805b835481101561095a576000600b600086848154811061078f5761078f61228d565b60009182526020808320909101548352820192909252604001902080549091506001600160a01b039081169089161480156107e25750600060028083015460ff16908111156107e0576107e0611eb5565b145b80156107fc57506002810154610100900463ffffffff1615155b15610947576040805160c08101825282546001600160a01b0316815260018301546020820152600280840154919284929084019160ff9091169081111561084557610845611eb5565b600281111561085657610856611eb5565b81526020016002820160019054906101000a900463ffffffff1663ffffffff1663ffffffff16815260200160038201548152602001600482018054806020026020016040519081016040528092919081815260200182805480156108d957602002820191906000526020600020905b8154815260200190600101908083116108c5575b5050505050815250508784815181106108f4576108f461228d565b60200260200101819052508482815481106109115761091161228d565b906000526020600020015486848151811061092e5761092e61228d565b602090810291909101015282610943816122b9565b9350505b5080610952816122b9565b91505061076e565b50505050915091565b604080516101408101825260008082526020820181905291810182905260608082018390526080820183905260a0820183905260c0820183905260e082018390526101008201526101208101919091526000828152600760209081526040918290208251610140810184528154815260018201546001600160a01b031692810192909252600281015492820192909252600382015463ffffffff8082166060840152640100000000820416608083015260a0820190600160401b900460ff166005811115610a3357610a33611eb5565b8152602001826004015481526020018260050154815260200182600601805480602002602001604051908101604052809291908181526020018280548015610aa457602002820191906000526020600020905b81546001600160a01b03168152600190910190602001808311610a86575b505050918352505060089092015463ffffffff1660209092019190915292915050565b8063ffffffff81161580610ae1575060648163ffffffff16115b15610aff5760405163d1e95ed560e01b815260040160405180910390fd5b610b07611945565b6000838152600760205260408120906003820154600160401b900460ff166005811115610b3657610b36611eb5565b14158015610b64575060016003820154600160401b900460ff166005811115610b6157610b61611eb5565b14155b15610b82576040516380b9cb0960e01b815260040160405180910390fd5b6003810154606490610ba59063ffffffff808716916401000000009004166122e8565b1115610bc45760405163955f95ad60e01b815260040160405180910390fd5b670de0b6b3a76400006000610bda8260646122fb565b6001610be78460646122fb565b610bf19190612312565b838763ffffffff168660020154610c0891906122fb565b610c1291906122fb565b610c1c91906122e8565b610c269190612325565b33600090815260016020526040902054909150811115610c5957604051630391acf160e61b815260040160405180910390fd5b3360009081526001602052604081208054839290610c78908490612312565b9091555050336000908152600a602052604081208054839290610c9c9084906122e8565b9091555050600383018054869190600490610cc6908490640100000000900463ffffffff16612347565b825463ffffffff9182166101009390930a9283029190920219909116179055503360009081526007840160205260408120549003610d2657600683018054600181018255600091825260209091200180546001600160a01b031916331790555b33600090815260078401602052604081208054839290610d479084906122e8565b9091555050600383015463ffffffff8082166401000000009092041610610d995760038301805460ff60401b191668020000000000000000179055610d8b866119a2565b610d9486611ab4565b610daf565b60038301805460ff60401b1916600160401b1790555b604051818152339087907f86b47e6e6c03d769c0bc5ffd06c682ea7d07089576d59230ec18ff64e71bffe79060200160405180910390a3505050610df36001600055565b505050565b6000818152600b602090815260408083206007909252822082918291829182918260028084015460ff1690811115610e3257610e32611eb5565b148015610e4d57506002820154610100900463ffffffff1615155b15610ea15760038201546002830154610e719190610100900463ffffffff166122fb565b60038301546002840154600884015492995090975063ffffffff6101009091048116965016935060019250610ebc565b60088101546000975087965086955063ffffffff1693508492505b505091939590929450565b610ecf611945565b34600003610ef05760405163162908e360e11b815260040160405180910390fd5b336000908152600260205260408120549003610f1f57604051630b5ab5bf60e41b815260040160405180910390fd5b6000818152600b6020526040902080546001600160a01b03163314610f5757604051630b5ab5bf60e41b815260040160405180910390fd5b600060028083015460ff1690811115610f7257610f72611eb5565b14610f9057604051630b5ab5bf60e41b815260040160405180910390fd5b6002810154610100900463ffffffff16600003610fc057604051630b5ab5bf60e41b815260040160405180910390fd5b80600301543414610fe45760405163162908e360e11b815260040160405180910390fd5b60018160020160018282829054906101000a900463ffffffff16611008919061236b565b825463ffffffff91821661010093840a9081029083021990911617909255600284015404166000039050611072576002818101805460ff1916909117905560405182907f02ca5489b37dd363d1302bac719e8ee40e540ffbe8c12253570fea63e11cad7190600090a25b3360009081526002602052604081208054349290611091908490612312565b9250508190555034600560008282546110aa9190612312565b9250508190555034600660008282546110c391906122e8565b909155506110d390508234611c9d565b33600081815260026020908152604091829020548251348152918201527f1b8cd61ed43bec7c6bdad3a18ffee613f99c853d16c50678d248d879e1b43438910160405180910390a2600281015460405161010090910463ffffffff16815282907f406356ef25520b09e2ef87c5225167b4161ea4ab691e9434d6ee29eafcc83fc29060200160405180910390a27f17f13fd3f7c4712af33f1770ebcb822dd20a2dbc00850eab48d786623d97b95960055460405161119391815260200190565b60405180910390a17f8b094cca6f83d49402ce208cc0c224b76625ffc58636df56ae28024e704c58686006546040516111ce91815260200190565b60405180910390a1506111e16001600055565b50565b61121b6040805160c08101825260008082526020820181905290918201908152600060208201819052604082015260609081015290565b6000828152600b60209081526040808320815160c08101835281546001600160a01b03168152600182015493810193909352600280820154919284019160ff169081111561126b5761126b611eb5565b600281111561127c5761127c611eb5565b81526020016002820160019054906101000a900463ffffffff1663ffffffff1663ffffffff16815260200160038201548152602001600482018054806020026020016040519081016040528092919081815260200182805480156112ff57602002820191906000526020600020905b8154815260200190600101908083116112eb575b50505091909252509195945050505050565b60008281526007602081815260408084206001600160a01b038616855290920190529020545b92915050565b6000818152600b6020526040812081908160028083015460ff169081111561136757611367611eb5565b14801561138257506002810154610100900463ffffffff1615155b1561139557600301549360019350915050565b50600093849350915050565b6000818152600b60209081526040918290206004018054835181840281018401909452808452606093928301828280156113fa57602002820191906000526020600020905b8154815260200190600101908083116113e6575b50505050509050919050565b6000818152600760209081526040918290206006018054835181840281018401909452808452606093928301828280156113fa57602002820191906000526020600020905b81546001600160a01b0316815260019091019060200180831161144b5750505050509050919050565b6001600160a01b0381166000908152600960209081526040918290208054835181840281018401909452808452606093928301828280156113fa57602002820191906000526020600020908154815260200190600101908083116113e65750505050509050919050565b600080821180156114f157506006548211155b801561153d57506001600160a01b03831660009081526001602052604090205467016345785d8a000011158061153d57506001600160a01b038316600090815260026020526040902054155b801561158f57506001600160a01b038316600090815260036020526040902054429061156d9062093a80906122e8565b108061158f57506001600160a01b038316600090815260026020526040902054155b9392505050565b600960205281600052604060002081815481106115b257600080fd5b90600052602060002001600091509150505481565b600084806000036115eb5760405163162908e360e11b815260040160405180910390fd5b8463ffffffff166046811115806116025750606481115b156116205760405163d1e95ed560e01b815260040160405180910390fd5b8360018163ffffffff16108061163c5750600c8163ffffffff16115b1561165a5760405163524eff2760e01b815260040160405180910390fd5b60065488111561167d5760405163356680b760e01b815260040160405180910390fd5b600880546000918261168e836122b9565b9091555060008181526007602052604081206001810180546001600160a01b03191633179055600281018c905560038101805467ffffffffffffffff19811663ffffffff8e1690811783559495509193909168ffffffffffffffffff191617600160401b8302179055506004810188905542600582015560088101805463ffffffff891663ffffffff19909116179055818155336000818152600960209081526040808320805460018101825590845291909220018490555183907fde3b47cf7da95a3cc41b86cf8717ead8d56a76ee1590481c5c4dc4d8804c40c490611787908e908c9091825263ffffffff16602082015260400190565b60405180910390a35098975050505050505050565b6000828152600b6020526040812080546001600160a01b0384811691161480156117de5750600060028083015460ff16908111156117dc576117dc611eb5565b145b80156117f857506002810154610100900463ffffffff1615155b949350505050565b34806000036118225760405163162908e360e11b815260040160405180910390fd5b61182a611945565b336000818152600160209081526040918290208054348082018355600480548201905560068054820190559154845192835292820192909252901592917f4928895ba6723e8e27b15f32e4c3054a1b6c7f8c03f133558d6fa42b3928d14c910160405180910390a27fdc6e73d4b36e22ab95945bd8833a5af96c950eb29d8d75c4aecffc987637aaab6004546040516118c591815260200190565b60405180910390a17f8b094cca6f83d49402ce208cc0c224b76625ffc58636df56ae28024e704c586860065460405161190091815260200190565b60405180910390a1801561193a5760405133907f072dafb6aabe3f02118bc607efbeaaa104d6b2009720c7b130f24ba418689c4b90600090a25b506111e16001600055565b60026000540361199b5760405162461bcd60e51b815260206004820152601f60248201527f5265656e7472616e637947756172643a207265656e7472616e742063616c6c00604482015260640160405180910390fd5b6002600055565b6000818152600b60209081526040808320600790925290912060018082015483546001600160a01b0319166001600160a01b0390911617835582018390556002808301805460ff198116825560088401805464ffffffffff1990921661010063ffffffff938416021790925590549190920154611a23929190911690612325565b6003820155600082815260076020526040902060080154611a4b90829063ffffffff16611e10565b80546002820154600383015460405185936001600160a01b0316927f5215406e88f26eed4728b9cdfc5d85cea75799101cb9387b528451e6e0878dec92611aa89260ff831692610100900463ffffffff1691906004890190612388565b60405180910390a35050565b600081815260076020908152604080832060028082015460018301546001600160a01b031686529352908320805491939091611af19084906122e8565b9091555050600281015460058054600090611b0d9084906122e8565b9091555050600281015460068054600090611b29908490612312565b90915550506001810180546001600160a01b039081166000908152600360208181526040808420429055918601805460ff60401b1916680300000000000000001790559354600280870154919094168084529385529181902054815192835293820193909352825191927feae9cfbc77fdd40ca899f36b608256063b2bc9d8178b0220f7ad513e178d673092918290030190a27f17f13fd3f7c4712af33f1770ebcb822dd20a2dbc00850eab48d786623d97b959600554604051611bef91815260200190565b60405180910390a17f8b094cca6f83d49402ce208cc0c224b76625ffc58636df56ae28024e704c5868600654604051611c2a91815260200190565b60405180910390a160405182907f9e71d2fb732e68272b7e74ecfd14638673c1d77e19a5d390a3ffff054d57c44b90600090a2600181015460028201546040516001600160a01b039092169181156108fc0291906000818181858888f19350505050158015610df3573d6000803e3d6000fd5b6000828152600760205260408120600281015490915b6006830154811015611e09576000836006018281548110611cd657611cd661228d565b60009182526020808320909101546001600160a01b03168083526007870190915260408220549092509084611d0b83896122fb565b611d159190612325565b90508015611df3576001600160a01b0383166000908152600a6020526040902054811115611d5857506001600160a01b0382166000908152600a60205260409020545b6001600160a01b0383166000908152600a602052604081208054839290611d80908490612312565b90915550506001600160a01b03831660009081526001602052604081208054839290611dad9084906122e8565b90915550506040518181526001600160a01b0384169089907fe3e6ae1e05f069d410556743894aacbb190c1431962422ebe8fcc642a467dd169060200160405180910390a35b5050508080611e01906122b9565b915050611cb3565b5050505050565b4262278d0060005b8363ffffffff168163ffffffff161015611e09576000611e39826001612347565b611e499063ffffffff16846122fb565b611e5390856122e8565b6004870180546001810182556000918252602090912001555080611e76816123f6565b915050611e18565b80356001600160a01b0381168114611e9557600080fd5b919050565b600060208284031215611eac57600080fd5b61158f82611e7e565b634e487b7160e01b600052602160045260246000fd5b60038110611edb57611edb611eb5565b9052565b600060c0830160018060a01b038351168452602080840151818601526040840151611f0d6040870182611ecb565b5063ffffffff60608501511660608601526080840151608086015260a084015160c060a087015282815180855260e0880191508383019450600092505b80831015611f6a5784518252938301936001929092019190830190611f4a565b509695505050505050565b600081518084526020808501945080840160005b83811015611fa557815187529582019590820190600101611f89565b509495945050505050565b6000604082016040835280855180835260608501915060608160051b8601019250602080880160005b8381101561200757605f19888703018552611ff5868351611edf565b95509382019390820190600101611fd9565b50508584038187015250505061201d8185611f75565b95945050505050565b60006020828403121561203857600080fd5b5035919050565b60068110611edb57611edb611eb5565b600081518084526020808501945080840160005b83811015611fa55781516001600160a01b031687529582019590820190600101612063565b6020815281516020820152600060208301516120af60408401826001600160a01b03169052565b506040830151606083015260608301516120d1608084018263ffffffff169052565b50608083015163ffffffff811660a08401525060a08301516120f660c084018261203f565b5060c083015160e083015260e0830151610100818185015280850151915050610140610120818186015261212e61016086018461204f565b95015163ffffffff169301929092525090919050565b6001600160a01b03861681526020810185905260a081016121686040830186611ecb565b63ffffffff939093166060820152608001529392505050565b803563ffffffff81168114611e9557600080fd5b600080604083850312156121a857600080fd5b823591506121b860208401612181565b90509250929050565b60208152600061158f6020830184611edf565b600080604083850312156121e757600080fd5b823591506121b860208401611e7e565b60208152600061158f6020830184611f75565b60208152600061158f602083018461204f565b6000806040838503121561223057600080fd5b61223983611e7e565b946020939093013593505050565b6000806000806080858703121561225d57600080fd5b8435935061226d60208601612181565b92506040850135915061228260608601612181565b905092959194509250565b634e487b7160e01b600052603260045260246000fd5b634e487b7160e01b600052601160045260246000fd5b6000600182016122cb576122cb6122a3565b5060010190565b634e487b7160e01b600052604160045260246000fd5b80820180821115611337576113376122a3565b8082028115828204841417611337576113376122a3565b81810381811115611337576113376122a3565b60008261234257634e487b7160e01b600052601260045260246000fd5b500490565b63ffffffff818116838216019080821115612364576123646122a3565b5092915050565b63ffffffff828116828216039080821115612364576123646122a3565b6000608082016123988388611ecb565b602063ffffffff8716818501528560408501526080606085015281855480845260a0860191508660005282600020935060005b818110156123e7578454835260019485019492840192016123cb565b50909998505050505050505050565b600063ffffffff80831681810361240f5761240f6122a3565b600101939250505056fea264697066735822122045ad3ac42bf13af16f6b53245db7e2915d6217560212583e17535ca2795fe4ba64736f6c63430008130033",
  "linkReferences": {},
  "deployedLinkReferences": {}
}