{
  "_format": "hh-sol-artifact-1",
  "contractName": "LoanMachine",
  "sourceName": "contracts/LoanMachine.sol",
  "abi": [
    {
      "inputs": [
        {
          "internalType": "address",
          "name": "_usdtToken",
          "type": "address"
        },
        {
          "internalType": "address",
          "name": "_reputationSystem",
          "type": "address"
        }
      ],
      "stateMutability": "nonpayable",
      "type": "constructor"
    },
    {
      "inputs": [],
      "name": "LoanMachine_BorrowNotExpired",
      "type": "error"
    },
    {
      "inputs": [],
      "name": "LoanMachine_CheckIntervalNotYetPassed",
      "type": "error"
    },
    {
      "inputs": [],
      "name": "LoanMachine_ExcessiveDonation",
      "type": "error"
    },
    {
      "inputs": [],
      "name": "LoanMachine_InsufficientDonationBalance",
      "type": "error"
    },
    {
      "inputs": [],
      "name": "LoanMachine_InsufficientFunds",
      "type": "error"
    },
    {
      "inputs": [],
      "name": "LoanMachine_InsufficientWithdrawableBalance",
      "type": "error"
    },
    {
      "inputs": [],
      "name": "LoanMachine_IntervalOfPaymentAboveLimit",
      "type": "error"
    },
    {
      "inputs": [],
      "name": "LoanMachine_InvalidAmount",
      "type": "error"
    },
    {
      "inputs": [],
      "name": "LoanMachine_InvalidCoveragePercentage",
      "type": "error"
    },
    {
      "inputs": [],
      "name": "LoanMachine_InvalidParcelsCount",
      "type": "error"
    },
    {
      "inputs": [],
      "name": "LoanMachine_LoanNotAvailable",
      "type": "error"
    },
    {
      "inputs": [],
      "name": "LoanMachine_MaxLoanRequisitionPendingReached",
      "type": "error"
    },
    {
      "inputs": [],
      "name": "LoanMachine_MemberIdOrWalletInvalid",
      "type": "error"
    },
    {
      "inputs": [],
      "name": "LoanMachine_MinimumDonationRequired",
      "type": "error"
    },
    {
      "inputs": [],
      "name": "LoanMachine_MinimumPercentageCover",
      "type": "error"
    },
    {
      "inputs": [],
      "name": "LoanMachine_NoActiveBorrowing",
      "type": "error"
    },
    {
      "inputs": [],
      "name": "LoanMachine_NotLoanRequisitionCreator",
      "type": "error"
    },
    {
      "inputs": [],
      "name": "LoanMachine_OnlyBorrowerCanCancelRequisition",
      "type": "error"
    },
    {
      "inputs": [],
      "name": "LoanMachine_OverCoverage",
      "type": "error"
    },
    {
      "inputs": [],
      "name": "LoanMachine_ParcelAlreadyPaid",
      "type": "error"
    },
    {
      "inputs": [],
      "name": "LoanMachine_RepaymentExceedsBorrowed",
      "type": "error"
    },
    {
      "inputs": [],
      "name": "LoanMachine_RequisitionAlreadyActive",
      "type": "error"
    },
    {
      "inputs": [],
      "name": "LoanMachine_RequisitionAlreadyFullyCovered",
      "type": "error"
    },
    {
      "inputs": [],
      "name": "LoanMachine_RequisitionNotCancellable",
      "type": "error"
    },
    {
      "inputs": [],
      "name": "LoanMachine_RequisitionNotFound",
      "type": "error"
    },
    {
      "inputs": [],
      "name": "LoanMachine_TokenTransferFailed",
      "type": "error"
    },
    {
      "inputs": [],
      "name": "LoanMachine_WalletAlreadyVinculated",
      "type": "error"
    },
    {
      "anonymous": false,
      "inputs": [
        {
          "indexed": false,
          "internalType": "uint256",
          "name": "total",
          "type": "uint256"
        }
      ],
      "name": "AvailableBalanceUpdated",
      "type": "event"
    },
    {
      "anonymous": false,
      "inputs": [
        {
          "indexed": true,
          "internalType": "address",
          "name": "borrower",
          "type": "address"
        }
      ],
      "name": "BorrowLimitReached",
      "type": "event"
    },
    {
      "anonymous": false,
      "inputs": [
        {
          "indexed": true,
          "internalType": "address",
          "name": "borrower",
          "type": "address"
        },
        {
          "indexed": false,
          "internalType": "uint256",
          "name": "amount",
          "type": "uint256"
        },
        {
          "indexed": false,
          "internalType": "uint256",
          "name": "totalBorrowing",
          "type": "uint256"
        }
      ],
      "name": "Borrowed",
      "type": "event"
    },
    {
      "anonymous": false,
      "inputs": [
        {
          "indexed": true,
          "internalType": "uint256",
          "name": "requisitionId",
          "type": "uint256"
        },
        {
          "indexed": true,
          "internalType": "address",
          "name": "borrower",
          "type": "address"
        }
      ],
      "name": "BorrowerDebtSettled",
      "type": "event"
    },
    {
      "anonymous": false,
      "inputs": [
        {
          "indexed": true,
          "internalType": "uint256",
          "name": "requisitionId",
          "type": "uint256"
        },
        {
          "indexed": true,
          "internalType": "address",
          "name": "borrower",
          "type": "address"
        },
        {
          "indexed": false,
          "internalType": "uint256",
          "name": "dueDate",
          "type": "uint256"
        }
      ],
      "name": "BorrowerOverdue",
      "type": "event"
    },
    {
      "anonymous": false,
      "inputs": [
        {
          "indexed": true,
          "internalType": "address",
          "name": "donor",
          "type": "address"
        },
        {
          "indexed": false,
          "internalType": "uint256",
          "name": "amount",
          "type": "uint256"
        },
        {
          "indexed": false,
          "internalType": "uint256",
          "name": "totalDonation",
          "type": "uint256"
        }
      ],
      "name": "Donated",
      "type": "event"
    },
    {
      "anonymous": false,
      "inputs": [
        {
          "indexed": true,
          "internalType": "uint256",
          "name": "requisitionId",
          "type": "uint256"
        },
        {
          "indexed": true,
          "internalType": "address",
          "name": "lender",
          "type": "address"
        },
        {
          "indexed": false,
          "internalType": "uint256",
          "name": "amount",
          "type": "uint256"
        }
      ],
      "name": "LenderRepaid",
      "type": "event"
    },
    {
      "anonymous": false,
      "inputs": [
        {
          "indexed": true,
          "internalType": "uint256",
          "name": "requisitionId",
          "type": "uint256"
        }
      ],
      "name": "LoanCompleted",
      "type": "event"
    },
    {
      "anonymous": false,
      "inputs": [
        {
          "indexed": true,
          "internalType": "address",
          "name": "walletAddress",
          "type": "address"
        },
        {
          "indexed": true,
          "internalType": "uint256",
          "name": "requisitionId",
          "type": "uint256"
        },
        {
          "indexed": false,
          "internalType": "enum ILoanMachine.ContractStatus",
          "name": "status",
          "type": "uint8"
        },
        {
          "indexed": false,
          "internalType": "uint32",
          "name": "parcelsPending",
          "type": "uint32"
        },
        {
          "indexed": false,
          "internalType": "uint256",
          "name": "parcelsValues",
          "type": "uint256"
        },
        {
          "indexed": false,
          "internalType": "uint256[]",
          "name": "paymentDates",
          "type": "uint256[]"
        },
        {
          "indexed": false,
          "internalType": "uint256",
          "name": "creationTime",
          "type": "uint256"
        }
      ],
      "name": "LoanContractGenerated",
      "type": "event"
    },
    {
      "anonymous": false,
      "inputs": [
        {
          "indexed": true,
          "internalType": "uint256",
          "name": "requisitionId",
          "type": "uint256"
        },
        {
          "indexed": true,
          "internalType": "address",
          "name": "lender",
          "type": "address"
        },
        {
          "indexed": false,
          "internalType": "uint256",
          "name": "coverageAmount",
          "type": "uint256"
        }
      ],
      "name": "LoanCovered",
      "type": "event"
    },
    {
      "anonymous": false,
      "inputs": [
        {
          "indexed": true,
          "internalType": "uint256",
          "name": "requisitionId",
          "type": "uint256"
        }
      ],
      "name": "LoanFunded",
      "type": "event"
    },
    {
      "anonymous": false,
      "inputs": [
        {
          "indexed": true,
          "internalType": "uint256",
          "name": "requisitionId",
          "type": "uint256"
        },
        {
          "indexed": true,
          "internalType": "address",
          "name": "borrower",
          "type": "address"
        },
        {
          "indexed": false,
          "internalType": "uint256",
          "name": "amount",
          "type": "uint256"
        },
        {
          "indexed": false,
          "internalType": "uint32",
          "name": "parcelsCount",
          "type": "uint32"
        },
        {
          "indexed": false,
          "internalType": "enum ILoanMachine.BorrowStatus",
          "name": "status",
          "type": "uint8"
        }
      ],
      "name": "LoanRequisitionCreatedCancelled",
      "type": "event"
    },
    {
      "anonymous": false,
      "inputs": [
        {
          "indexed": true,
          "internalType": "uint256",
          "name": "requisitionId",
          "type": "uint256"
        },
        {
          "indexed": true,
          "internalType": "address",
          "name": "lender",
          "type": "address"
        },
        {
          "indexed": false,
          "internalType": "uint256",
          "name": "amountReturnedToLender",
          "type": "uint256"
        }
      ],
      "name": "LoanUncovered",
      "type": "event"
    },
    {
      "anonymous": false,
      "inputs": [
        {
          "indexed": true,
          "internalType": "address",
          "name": "borrower",
          "type": "address"
        }
      ],
      "name": "NewBorrower",
      "type": "event"
    },
    {
      "anonymous": false,
      "inputs": [
        {
          "indexed": true,
          "internalType": "address",
          "name": "donor",
          "type": "address"
        }
      ],
      "name": "NewDonor",
      "type": "event"
    },
    {
      "anonymous": false,
      "inputs": [
        {
          "indexed": true,
          "internalType": "uint256",
          "name": "requisitionId",
          "type": "uint256"
        },
        {
          "indexed": false,
          "internalType": "uint256",
          "name": "parcelsRemaining",
          "type": "uint256"
        }
      ],
      "name": "ParcelPaid",
      "type": "event"
    },
    {
      "anonymous": false,
      "inputs": [
        {
          "indexed": false,
          "internalType": "uint256",
          "name": "itemsChecked",
          "type": "uint256"
        },
        {
          "indexed": false,
          "internalType": "uint256",
          "name": "nextIndex",
          "type": "uint256"
        }
      ],
      "name": "PeriodicCheckRun",
      "type": "event"
    },
    {
      "anonymous": false,
      "inputs": [
        {
          "indexed": true,
          "internalType": "address",
          "name": "borrower",
          "type": "address"
        },
        {
          "indexed": false,
          "internalType": "uint256",
          "name": "amount",
          "type": "uint256"
        },
        {
          "indexed": false,
          "internalType": "uint256",
          "name": "remainingDebt",
          "type": "uint256"
        }
      ],
      "name": "Repaid",
      "type": "event"
    },
    {
      "anonymous": false,
      "inputs": [
        {
          "indexed": false,
          "internalType": "uint256",
          "name": "total",
          "type": "uint256"
        }
      ],
      "name": "TotalBorrowedUpdated",
      "type": "event"
    },
    {
      "anonymous": false,
      "inputs": [
        {
          "indexed": false,
          "internalType": "uint256",
          "name": "total",
          "type": "uint256"
        }
      ],
      "name": "TotalDonationsUpdated",
      "type": "event"
    },
    {
      "anonymous": false,
      "inputs": [
        {
          "indexed": true,
          "internalType": "address",
          "name": "donor",
          "type": "address"
        },
        {
          "indexed": false,
          "internalType": "uint256",
          "name": "amount",
          "type": "uint256"
        },
        {
          "indexed": false,
          "internalType": "uint256",
          "name": "donations",
          "type": "uint256"
        }
      ],
      "name": "Withdrawn",
      "type": "event"
    },
    {
      "inputs": [],
      "name": "CHECK_INTERVAL",
      "outputs": [
        {
          "internalType": "uint256",
          "name": "",
          "type": "uint256"
        }
      ],
      "stateMutability": "view",
      "type": "function"
    },
    {
      "inputs": [
        {
          "internalType": "address",
          "name": "",
          "type": "address"
        },
        {
          "internalType": "uint256",
          "name": "",
          "type": "uint256"
        }
      ],
      "name": "borrowerRequisitions",
      "outputs": [
        {
          "internalType": "uint256",
          "name": "",
          "type": "uint256"
        }
      ],
      "stateMutability": "view",
      "type": "function"
    },
    {
      "inputs": [
        {
          "internalType": "uint256",
          "name": "requisitionId",
          "type": "uint256"
        },
        {
          "internalType": "address",
          "name": "borrower",
          "type": "address"
        }
      ],
      "name": "canPayRequisition",
      "outputs": [
        {
          "internalType": "bool",
          "name": "",
          "type": "bool"
        }
      ],
      "stateMutability": "view",
      "type": "function"
    },
    {
      "inputs": [
        {
          "internalType": "address",
          "name": "_user",
          "type": "address"
        },
        {
          "internalType": "uint256",
          "name": "_amount",
          "type": "uint256"
        }
      ],
      "name": "canUserBorrow",
      "outputs": [
        {
          "internalType": "bool",
          "name": "",
          "type": "bool"
        }
      ],
      "stateMutability": "view",
      "type": "function"
    },
    {
      "inputs": [
        {
          "internalType": "uint256",
          "name": "requisitionId",
          "type": "uint256"
        },
        {
          "internalType": "uint32",
          "name": "memberId",
          "type": "uint32"
        }
      ],
      "name": "cancelLoanRequisition",
      "outputs": [
        {
          "internalType": "uint256",
          "name": "totalUncoveredAmount",
          "type": "uint256"
        }
      ],
      "stateMutability": "nonpayable",
      "type": "function"
    },
    {
      "inputs": [
        {
          "internalType": "uint256",
          "name": "requisitionId",
          "type": "uint256"
        },
        {
          "internalType": "uint32",
          "name": "coveragePercentage",
          "type": "uint32"
        },
        {
          "internalType": "uint32",
          "name": "memberId",
          "type": "uint32"
        }
      ],
      "name": "coverLoan",
      "outputs": [],
      "stateMutability": "nonpayable",
      "type": "function"
    },
    {
      "inputs": [
        {
          "internalType": "uint256",
          "name": "amount",
          "type": "uint256"
        },
        {
          "internalType": "uint32",
          "name": "minimumCoverage",
          "type": "uint32"
        },
        {
          "internalType": "uint32",
          "name": "parcelscount",
          "type": "uint32"
        },
        {
          "internalType": "uint32",
          "name": "memberId",
          "type": "uint32"
        },
        {
          "internalType": "uint32",
          "name": "daysIntervalOfPayment",
          "type": "uint32"
        }
      ],
      "name": "createLoanRequisition",
      "outputs": [
        {
          "internalType": "uint256",
          "name": "",
          "type": "uint256"
        }
      ],
      "stateMutability": "nonpayable",
      "type": "function"
    },
    {
      "inputs": [
        {
          "internalType": "uint256",
          "name": "",
          "type": "uint256"
        }
      ],
      "name": "debtWatchlist",
      "outputs": [
        {
          "internalType": "uint256",
          "name": "requisitionId",
          "type": "uint256"
        },
        {
          "internalType": "address",
          "name": "borrower",
          "type": "address"
        },
        {
          "internalType": "uint256",
          "name": "nextDueDate",
          "type": "uint256"
        },
        {
          "internalType": "bool",
          "name": "isOverdue",
          "type": "bool"
        }
      ],
      "stateMutability": "view",
      "type": "function"
    },
    {
      "inputs": [
        {
          "internalType": "uint256",
          "name": "amount",
          "type": "uint256"
        },
        {
          "internalType": "uint32",
          "name": "memberId",
          "type": "uint32"
        }
      ],
      "name": "donate",
      "outputs": [],
      "stateMutability": "nonpayable",
      "type": "function"
    },
    {
      "inputs": [
        {
          "internalType": "address",
          "name": "borrower",
          "type": "address"
        }
      ],
      "name": "getActiveLoans",
      "outputs": [
        {
          "components": [
            {
              "internalType": "address",
              "name": "walletAddress",
              "type": "address"
            },
            {
              "internalType": "uint256",
              "name": "requisitionId",
              "type": "uint256"
            },
            {
              "internalType": "enum ILoanMachine.ContractStatus",
              "name": "status",
              "type": "uint8"
            },
            {
              "internalType": "uint32",
              "name": "parcelsCount",
              "type": "uint32"
            },
            {
              "internalType": "uint32",
              "name": "parcelsPending",
              "type": "uint32"
            },
            {
              "internalType": "uint256",
              "name": "parcelsValues",
              "type": "uint256"
            },
            {
              "internalType": "uint256[]",
              "name": "paymentDates",
              "type": "uint256[]"
            },
            {
              "internalType": "uint256[]",
              "name": "parcelsAmounts",
              "type": "uint256[]"
            },
            {
              "internalType": "uint256",
              "name": "creationTime",
              "type": "uint256"
            }
          ],
          "internalType": "struct ILoanMachine.LoanContract[]",
          "name": "activeLoans",
          "type": "tuple[]"
        },
        {
          "internalType": "uint256[]",
          "name": "requisitionIds",
          "type": "uint256[]"
        }
      ],
      "stateMutability": "view",
      "type": "function"
    },
    {
      "inputs": [
        {
          "internalType": "address",
          "name": "user",
          "type": "address"
        }
      ],
      "name": "getAllowance",
      "outputs": [
        {
          "internalType": "uint256",
          "name": "",
          "type": "uint256"
        }
      ],
      "stateMutability": "view",
      "type": "function"
    },
    {
      "inputs": [],
      "name": "getAvailableBalance",
      "outputs": [
        {
          "internalType": "uint256",
          "name": "",
          "type": "uint256"
        }
      ],
      "stateMutability": "view",
      "type": "function"
    },
    {
      "inputs": [],
      "name": "getAvailableBorrowAmount",
      "outputs": [
        {
          "internalType": "uint256",
          "name": "",
          "type": "uint256"
        }
      ],
      "stateMutability": "view",
      "type": "function"
    },
    {
      "inputs": [
        {
          "internalType": "address",
          "name": "borrower",
          "type": "address"
        }
      ],
      "name": "getBorrowerRequisitions",
      "outputs": [
        {
          "internalType": "uint256[]",
          "name": "",
          "type": "uint256[]"
        }
      ],
      "stateMutability": "view",
      "type": "function"
    },
    {
      "inputs": [
        {
          "internalType": "address",
          "name": "_user",
          "type": "address"
        }
      ],
      "name": "getBorrowing",
      "outputs": [
        {
          "internalType": "uint256",
          "name": "",
          "type": "uint256"
        }
      ],
      "stateMutability": "view",
      "type": "function"
    },
    {
      "inputs": [],
      "name": "getContractBalance",
      "outputs": [
        {
          "internalType": "uint256",
          "name": "",
          "type": "uint256"
        }
      ],
      "stateMutability": "view",
      "type": "function"
    },
    {
      "inputs": [
        {
          "internalType": "uint256",
          "name": "requisitionId",
          "type": "uint256"
        }
      ],
      "name": "getCoveringLenders",
      "outputs": [
        {
          "internalType": "address[]",
          "name": "",
          "type": "address[]"
        }
      ],
      "stateMutability": "view",
      "type": "function"
    },
    {
      "inputs": [],
      "name": "getDebtWatchlist",
      "outputs": [
        {
          "components": [
            {
              "internalType": "uint256",
              "name": "requisitionId",
              "type": "uint256"
            },
            {
              "internalType": "address",
              "name": "borrower",
              "type": "address"
            },
            {
              "internalType": "uint256",
              "name": "nextDueDate",
              "type": "uint256"
            },
            {
              "internalType": "bool",
              "name": "isOverdue",
              "type": "bool"
            }
          ],
          "internalType": "struct LoanMachine.DebtWatchItem[]",
          "name": "",
          "type": "tuple[]"
        }
      ],
      "stateMutability": "view",
      "type": "function"
    },
    {
      "inputs": [
        {
          "internalType": "address",
          "name": "_user",
          "type": "address"
        }
      ],
      "name": "getDonation",
      "outputs": [
        {
          "internalType": "uint256",
          "name": "",
          "type": "uint256"
        }
      ],
      "stateMutability": "view",
      "type": "function"
    },
    {
      "inputs": [
        {
          "internalType": "address",
          "name": "lender",
          "type": "address"
        }
      ],
      "name": "getDonationsInCoverage",
      "outputs": [
        {
          "internalType": "uint256",
          "name": "",
          "type": "uint256"
        }
      ],
      "stateMutability": "view",
      "type": "function"
    },
    {
      "inputs": [
        {
          "internalType": "address",
          "name": "_user",
          "type": "address"
        }
      ],
      "name": "getLastBorrowTime",
      "outputs": [
        {
          "internalType": "uint256",
          "name": "",
          "type": "uint256"
        }
      ],
      "stateMutability": "view",
      "type": "function"
    },
    {
      "inputs": [
        {
          "internalType": "uint256",
          "name": "requisitionId",
          "type": "uint256"
        },
        {
          "internalType": "address",
          "name": "lender",
          "type": "address"
        }
      ],
      "name": "getLenderCoverage",
      "outputs": [
        {
          "internalType": "uint256",
          "name": "",
          "type": "uint256"
        }
      ],
      "stateMutability": "view",
      "type": "function"
    },
    {
      "inputs": [
        {
          "internalType": "uint256",
          "name": "requisitionId",
          "type": "uint256"
        }
      ],
      "name": "getLoanContract",
      "outputs": [
        {
          "components": [
            {
              "internalType": "address",
              "name": "walletAddress",
              "type": "address"
            },
            {
              "internalType": "uint256",
              "name": "requisitionId",
              "type": "uint256"
            },
            {
              "internalType": "enum ILoanMachine.ContractStatus",
              "name": "status",
              "type": "uint8"
            },
            {
              "internalType": "uint32",
              "name": "parcelsCount",
              "type": "uint32"
            },
            {
              "internalType": "uint32",
              "name": "parcelsPending",
              "type": "uint32"
            },
            {
              "internalType": "uint256",
              "name": "parcelsValues",
              "type": "uint256"
            },
            {
              "internalType": "uint256[]",
              "name": "paymentDates",
              "type": "uint256[]"
            },
            {
              "internalType": "uint256[]",
              "name": "parcelsAmounts",
              "type": "uint256[]"
            },
            {
              "internalType": "uint256",
              "name": "creationTime",
              "type": "uint256"
            }
          ],
          "internalType": "struct ILoanMachine.LoanContract",
          "name": "",
          "type": "tuple"
        }
      ],
      "stateMutability": "view",
      "type": "function"
    },
    {
      "inputs": [
        {
          "internalType": "address",
          "name": "wallet",
          "type": "address"
        }
      ],
      "name": "getMemberId",
      "outputs": [
        {
          "internalType": "uint32",
          "name": "",
          "type": "uint32"
        }
      ],
      "stateMutability": "view",
      "type": "function"
    },
    {
      "inputs": [
        {
          "internalType": "uint256",
          "name": "requisitionId",
          "type": "uint256"
        }
      ],
      "name": "getNextPaymentAmount",
      "outputs": [
        {
          "internalType": "uint256",
          "name": "paymentAmount",
          "type": "uint256"
        },
        {
          "internalType": "bool",
          "name": "canPay",
          "type": "bool"
        }
      ],
      "stateMutability": "view",
      "type": "function"
    },
    {
      "inputs": [
        {
          "internalType": "uint256",
          "name": "requisitionId",
          "type": "uint256"
        }
      ],
      "name": "getPaymentDates",
      "outputs": [
        {
          "internalType": "uint256[]",
          "name": "",
          "type": "uint256[]"
        }
      ],
      "stateMutability": "view",
      "type": "function"
    },
    {
      "inputs": [
        {
          "internalType": "uint256",
          "name": "requisitionId",
          "type": "uint256"
        }
      ],
      "name": "getRepaymentSummary",
      "outputs": [
        {
          "internalType": "uint256",
          "name": "totalRemainingDebt",
          "type": "uint256"
        },
        {
          "internalType": "uint256",
          "name": "nextPaymentAmount",
          "type": "uint256"
        },
        {
          "internalType": "uint256",
          "name": "parcelsRemaining",
          "type": "uint256"
        },
        {
          "internalType": "uint256",
          "name": "totalParcels",
          "type": "uint256"
        },
        {
          "internalType": "bool",
          "name": "isActive",
          "type": "bool"
        }
      ],
      "stateMutability": "view",
      "type": "function"
    },
    {
      "inputs": [
        {
          "internalType": "uint32",
          "name": "memberId",
          "type": "uint32"
        }
      ],
      "name": "getReputation",
      "outputs": [
        {
          "internalType": "int32",
          "name": "",
          "type": "int32"
        }
      ],
      "stateMutability": "view",
      "type": "function"
    },
    {
      "inputs": [
        {
          "internalType": "uint256",
          "name": "requisitionId",
          "type": "uint256"
        }
      ],
      "name": "getRequisitionInfo",
      "outputs": [
        {
          "components": [
            {
              "internalType": "uint256",
              "name": "requisitionId",
              "type": "uint256"
            },
            {
              "internalType": "address",
              "name": "borrower",
              "type": "address"
            },
            {
              "internalType": "uint256",
              "name": "amount",
              "type": "uint256"
            },
            {
              "internalType": "uint32",
              "name": "minimumCoverage",
              "type": "uint32"
            },
            {
              "internalType": "uint32",
              "name": "currentCoverage",
              "type": "uint32"
            },
            {
              "internalType": "enum ILoanMachine.BorrowStatus",
              "name": "status",
              "type": "uint8"
            },
            {
              "internalType": "uint256",
              "name": "creationTime",
              "type": "uint256"
            },
            {
              "internalType": "address[]",
              "name": "coveringLenders",
              "type": "address[]"
            },
            {
              "internalType": "uint32",
              "name": "parcelsCount",
              "type": "uint32"
            }
          ],
          "internalType": "struct ILoanMachine.RequisitionInfo",
          "name": "",
          "type": "tuple"
        }
      ],
      "stateMutability": "view",
      "type": "function"
    },
    {
      "inputs": [],
      "name": "getTotalBorrowed",
      "outputs": [
        {
          "internalType": "uint256",
          "name": "",
          "type": "uint256"
        }
      ],
      "stateMutability": "view",
      "type": "function"
    },
    {
      "inputs": [],
      "name": "getTotalDonations",
      "outputs": [
        {
          "internalType": "uint256",
          "name": "",
          "type": "uint256"
        }
      ],
      "stateMutability": "view",
      "type": "function"
    },
    {
      "inputs": [],
      "name": "getUSDTBalance",
      "outputs": [
        {
          "internalType": "uint256",
          "name": "",
          "type": "uint256"
        }
      ],
      "stateMutability": "view",
      "type": "function"
    },
    {
      "inputs": [
        {
          "internalType": "address",
          "name": "user",
          "type": "address"
        }
      ],
      "name": "getWithdrawableBalance",
      "outputs": [
        {
          "internalType": "uint256",
          "name": "",
          "type": "uint256"
        }
      ],
      "stateMutability": "view",
      "type": "function"
    },
    {
      "inputs": [
        {
          "internalType": "uint256",
          "name": "requisitionId",
          "type": "uint256"
        }
      ],
      "name": "isBorrowerOverdue",
      "outputs": [
        {
          "internalType": "bool",
          "name": "",
          "type": "bool"
        }
      ],
      "stateMutability": "view",
      "type": "function"
    },
    {
      "inputs": [
        {
          "internalType": "address",
          "name": "wallet",
          "type": "address"
        }
      ],
      "name": "isWalletVinculated",
      "outputs": [
        {
          "internalType": "bool",
          "name": "",
          "type": "bool"
        }
      ],
      "stateMutability": "view",
      "type": "function"
    },
    {
      "inputs": [],
      "name": "lastPeriodicCheckTimestamp",
      "outputs": [
        {
          "internalType": "uint256",
          "name": "",
          "type": "uint256"
        }
      ],
      "stateMutability": "view",
      "type": "function"
    },
    {
      "inputs": [
        {
          "internalType": "uint256",
          "name": "",
          "type": "uint256"
        }
      ],
      "name": "loanContracts",
      "outputs": [
        {
          "internalType": "address",
          "name": "walletAddress",
          "type": "address"
        },
        {
          "internalType": "uint256",
          "name": "requisitionId",
          "type": "uint256"
        },
        {
          "internalType": "enum ILoanMachine.ContractStatus",
          "name": "status",
          "type": "uint8"
        },
        {
          "internalType": "uint32",
          "name": "parcelsCount",
          "type": "uint32"
        },
        {
          "internalType": "uint32",
          "name": "parcelsPending",
          "type": "uint32"
        },
        {
          "internalType": "uint256",
          "name": "parcelsValues",
          "type": "uint256"
        },
        {
          "internalType": "uint256",
          "name": "creationTime",
          "type": "uint256"
        }
      ],
      "stateMutability": "view",
      "type": "function"
    },
    {
      "inputs": [],
      "name": "nextCheckIndex",
      "outputs": [
        {
          "internalType": "uint256",
          "name": "",
          "type": "uint256"
        }
      ],
      "stateMutability": "view",
      "type": "function"
    },
    {
      "inputs": [
        {
          "internalType": "uint256",
          "name": "batchSize",
          "type": "uint256"
        }
      ],
      "name": "performPeriodicDebtCheck",
      "outputs": [],
      "stateMutability": "nonpayable",
      "type": "function"
    },
    {
      "inputs": [
        {
          "internalType": "uint256",
          "name": "requisitionId",
          "type": "uint256"
        },
        {
          "internalType": "uint256",
          "name": "amount",
          "type": "uint256"
        },
        {
          "internalType": "uint32",
          "name": "memberId",
          "type": "uint32"
        }
      ],
      "name": "repay",
      "outputs": [],
      "stateMutability": "nonpayable",
      "type": "function"
    },
    {
      "inputs": [],
      "name": "reputationSystem",
      "outputs": [
        {
          "internalType": "contract ReputationSystem",
          "name": "",
          "type": "address"
        }
      ],
      "stateMutability": "view",
      "type": "function"
    },
    {
      "inputs": [],
      "name": "requisitionCounter",
      "outputs": [
        {
          "internalType": "uint256",
          "name": "",
          "type": "uint256"
        }
      ],
      "stateMutability": "view",
      "type": "function"
    },
    {
      "inputs": [],
      "name": "usdtToken",
      "outputs": [
        {
          "internalType": "address",
          "name": "",
          "type": "address"
        }
      ],
      "stateMutability": "view",
      "type": "function"
    },
    {
      "inputs": [
        {
          "internalType": "uint32",
          "name": "memberId",
          "type": "uint32"
        },
        {
          "internalType": "address",
          "name": "wallet",
          "type": "address"
        }
      ],
      "name": "vinculationMemberToWallet",
      "outputs": [],
      "stateMutability": "nonpayable",
      "type": "function"
    },
    {
      "inputs": [
        {
          "internalType": "uint256",
          "name": "amount",
          "type": "uint256"
        },
        {
          "internalType": "uint32",
          "name": "memberId",
          "type": "uint32"
        }
      ],
      "name": "withdraw",
      "outputs": [],
      "stateMutability": "nonpayable",
      "type": "function"
    }
  ],
  "bytecode": "0x60a034620000c957601f620039a438819003918201601f19168301916001600160401b03831184841017620000ce578084926040948552833981010312620000c9576200005a60206200005283620000e4565b9201620000e4565b60016000819055600d81905560809290925281546001600160a01b0319166001600160a01b039091161790556040516138aa9081620000fa823960805181818161073201528181610e0e01528181610f20015281816112940152818161164001528181611f9001526131040152f35b600080fd5b634e487b7160e01b600052604160045260246000fd5b51906001600160a01b0382168203620000c95756fe608080604052600436101561001357600080fd5b600090813560e01c9081630307c4a114612f0c5750806303d1a1a114612c64578063140c9ac4146129b95780631b70ba3e1461281f5780631beeafa51461255c57806321bb31e4146124dd578063232869fa14612459578063291c31a714611ddb5780632b31c022146123865780632f3b145814612264578063383ab2ef1461221c578063410a1d32146121e35780634e51c7df1461219957806350c9677f1461217b57806355c676161461215d578063598a562a146120de5780636145d1b714611ee25780636509a71014611eb5578063657eb03114611e7c5780636587eda114611e535780636ea33ceb14611e355780636f9fb98a14611417578063777c658f14611e175780637d52437a14611de0578063809dab6a14611ddb57806381db228414611d55578063827cc0e514611d1c578063843592d314611cf057806384ddf5ea14611cd25780638a914a6314611c905780639059f9ca146114815780639730872a1461141c5780639785fac81461141757806397c33519146113425780639e932011146112ec578063a4aace0f146112c3578063a98ad46c1461127e578063adceb101146111de578063be5eb580146111a5578063be7df8ed14611141578063c269014b146110bd578063e276392414610eb0578063e5a0bde414610e84578063eb5a662e14610dc55763ecb18b341461021057600080fd5b34610dc2576060366003190112610dc257610229613036565b63ffffffff610236613049565b169081158015610d57575b610d455763ffffffff8116158015610d35575b610d2357600963ffffffff82161115610d115761026f61335c565b6004358352600c6020526040832091600383015460ff8160401c166007811015610cfd578015159081610cf1575b50610cdf576102ba60649163ffffffff8086169160201c166131de565b11610ccd5760018301546001600160a01b031684526011602052604084205480610c98575b506102f463ffffffff831660028501546135ed565b92670de0b6b3a7640000938481029481860414901517156109f65768056bc75e2d630fffff84018411610c7057338552600660205268056bc75e2d6310000068056bc75e2d630fffff850104604086205410610c865733855260066020526040852061037768056bc75e2d6310000068056bc75e2d630fffff8701048254613542565b9055338552600f602052604085206103a668056bc75e2d6310000068056bc75e2d630fffff87010482546131de565b905563ffffffff831663ffffffff600383015460201c160163ffffffff8111610c70576103f390600383019067ffffffff0000000082549160201b169067ffffffff000000001916179055565b336000526006810160205260406000205415610c14575b3360005260068101602052604060002061043b68056bc75e2d6310000068056bc75e2d630fffff87010482546131de565b9055600381015463ffffffff811663ffffffff8260201c161015600014610bf7575060038101805460ff60401b19166802000000000000000017905560018054910154604051634698c2d560e01b81526001600160a01b0391821660048201529160209183916024918391165afa8015610bec5763ffffffff918691610bbd575b50168452601060209081526040808620805463ffffffff1916905560043580875260128352818720600c90935290862060018181015484546001600160a01b0319166001600160a01b039190911617845583019190915560028201805460ff198116825560078301805464ffffffffff19831660089190911b64ffffffff00169081178455905468ffffffffffffffffff199092161760289190911b68ffffffff00000000001617905590426006820155600282015463ffffffff600784015416926105888483613600565b8415610ba9576105978561363c565b92895b868110610b5757505060038401556007015460201c63ffffffff16875b8463ffffffff821610610afb57505060018060a01b0382541687526011602052600435604088205560018060a01b038254166002830154907f55939e2a4adb2163c21eb3bb2c850e8e82136aed8a9e5971f705f1188d05865e60038501549260068601549363ffffffff604051926106328460ff8316612f54565b60281c166020830152604082015260a0606082015261065760a0820160048801613682565b93608082015280600435940390a3865b838110610ad657505050506004358452600c6020526040842060018060a01b0360018201541690600281015482875260076020526106aa604088209182546131de565b90556106bc6002820154600a546131de565b600a556106cf6002820154600b54613542565b600b5581865260086020908152604080882042905560038301805460ff60401b1916680300000000000000001790556002830154905163a9059cbb60e01b81526001600160a01b038516600482015260248101919091529081806044810103818a7f00000000000000000000000000000000000000000000000000000000000000006001600160a01b03165af1908115610acb578791610a9c575b5015610a8a576004358652601260205260046040872001805415610a745760005260206000205460025460043588526003602052806040892055604051916107b1836133f9565b60043583528460208401526040830152876060830152600160401b811015610a60578060016107e39201600255613194565b919091610a4c577feae9cfbc77fdd40ca899f36b608256063b2bc9d8178b0220f7ad513e178d67309261086360409360036060856002965184556001840160018060a01b036020830151166bffffffffffffffffffffffff60a01b82541617905587810151878501550151151591019060ff801983541691151516179055565b015483885260076020528188205482519182526020820152a27f17f13fd3f7c4712af33f1770ebcb822dd20a2dbc00850eab48d786623d97b9596020600a54604051908152a16000805160206138558339815191526020600b54604051908152a16004357f9e71d2fb732e68272b7e74ecfd14638673c1d77e19a5d390a3ffff054d57c44b8580a25b600154604051636adf462560e11b81526001600160a01b0390911692602082600481875afa918215610a41578692610a0a575b5063ffffffff1660030b9060030b028060030b9081036109f65790829185933b156109f2576064849283600a95604051968795869463533dfa3560e01b865260048601520560030b6024840152600160448401525af180156109e7576109cf575b505068056bc75e2d6310000068056bc75e2d630fffff604051920104815233907f86b47e6e6c03d769c0bc5ffd06c682ea7d07089576d59230ec18ff64e71bffe7602060043592a36001815580f35b6109d8906133e5565b6109e3578138610980565b5080fd5b6040513d84823e3d90fd5b8380fd5b634e487b7160e01b85526011600452602485fd5b63ffffffff919250610a339060203d602011610a3a575b610a2b8183613415565b81019061358a565b919061091f565b503d610a21565b6040513d88823e3d90fd5b634e487b7160e01b88526004889052602488fd5b634e487b7160e01b88526041600452602488fd5b634e487b7160e01b600052603260045260246000fd5b604051637a97d71f60e01b8152600490fd5b610abe915060203d602011610ac4575b610ab68183613415565b8101906134d8565b3861076a565b503d610aac565b6040513d89823e3d90fd5b80610af1610ae7610af6938561366e565b51600586016135a3565b6131eb565b610667565b610b28610b1f610b1963ffffffff610b12856135d8565b16856135ed565b426131de565b600486016135a3565b63ffffffff80821614610b435763ffffffff166001016105b7565b634e487b7160e01b89526011600452602489fd5b868206811015610b9a5760018301808411610b865790610b8191610b7b828861366e565b526131eb565b61059a565b634e487b7160e01b8c52601160045260248cfd5b8083610b7b610b81938861366e565b634e487b7160e01b89526012600452602489fd5b610bdf915060203d602011610be5575b610bd78183613415565b810190613620565b386104bc565b503d610bcd565b6040513d87823e3d90fd5b600160401b60039168ff00000000000000001916179101556108ec565b6005810154600160401b811015610c5c57806001610c3b920160058401556005830161317c565b81546001600160a01b0360039290921b91821b19163390911b17905561040a565b634e487b7160e01b86526041600452602486fd5b634e487b7160e01b600052601160045260246000fd5b604051636044d4dd60e01b8152600490fd5b84526012602052610caf60066040862001546131ce565b4210610cbb57386102df565b6040516301bf0a1560e41b8152600490fd5b6040516311d9355160e01b8152600490fd5b60405163393e690960e11b8152600490fd5b6001915014153861029d565b634e487b7160e01b86526021600452602486fd5b6040516307314f9160e21b8152600490fd5b604051632819760f60e01b8152600490fd5b50606463ffffffff821611610254565b60405163584daf2560e01b8152600490fd5b50600154604051632cc52b1560e11b815233600482015290602090829060249082906001600160a01b03165afa908115610db7578491610d99575b5015610241565b610db1915060203d8111610ac457610ab68183613415565b38610d92565b6040513d86823e3d90fd5b80fd5b5034610dc25760209081600319360112610dc257604482610de4612f28565b604051636eb1769f60e11b81526001600160a01b03918216600482015230602482015292839182907f0000000000000000000000000000000000000000000000000000000000000000165afa918215610e785791610e46575b50604051908152f35b90508181813d8311610e71575b610e5d8183613415565b81010312610e6c575138610e3d565b600080fd5b503d610e53565b604051903d90823e3d90fd5b5034610dc2576020366003190112610dc257610e9e61335c565b610ea96004356131fa565b6001815580f35b5034610dc2576040366003190112610dc25760043563ffffffff610ed2613036565b16158015611052575b610d4557801561104157610eed61335c565b6040516323b872dd60e01b8152336004820152306024820152604481018290526020908181606481876001600160a01b037f0000000000000000000000000000000000000000000000000000000000000000165af1908115610db7578491611024575b5015610a8a576000805160206138558339815191529033845260068152604084207fdc6e73d4b36e22ab95945bd8833a5af96c950eb29d8d75c4aecffc987637aaab8282549580870184558060095401908160095580600b54019485600b5554604051918252838201527f4928895ba6723e8e27b15f32e4c3054a1b6c7f8c03f133558d6fa42b3928d14c60403392a2604051908152a1604051908152a115610ffa576001815580f35b337f072dafb6aabe3f02118bc607efbeaaa104d6b2009720c7b130f24ba418689c4b8280a2610ea9565b61103b9150823d8411610ac457610ab68183613415565b38610f50565b60405162d84c0f60e41b8152600490fd5b50600154604051632cc52b1560e11b815233600482015290602090829060249082906001600160a01b03165afa9081156110b2578391611094575b5015610edb565b6110ac915060203d8111610ac457610ab68183613415565b3861108d565b6040513d85823e3d90fd5b5034610dc2576020366003190112610dc2576110d7612f28565b60015460405163c269014b60e01b81526001600160a01b0392831660048201529160209183916024918391165afa9081156109e75760209291611124575b5063ffffffff60405191168152f35b61113b9150823d8111610be557610bd78183613415565b38611115565b5034610dc2576020366003190112610dc25760043590600254821015610dc257608061116c83613194565b5080549060018060a01b036001820154169060ff6003600283015492015416916040519384526020840152604083015215156060820152f35b5034610dc2576020366003190112610dc2576020906040906001600160a01b036111cd612f28565b168152600783522054604051908152f35b5034610dc2576040366003190112610dc2576111f8612f3e565b600435825260126020526040822080546001600160a01b03928316921691909114908161124c575b6020925081611235575b506040519015158152f35b63ffffffff91506002015460281c1615153861122a565b905060ff600282015416600381101561126a57602092501590611220565b634e487b7160e01b83526021600452602483fd5b5034610dc25780600319360112610dc2576040517f00000000000000000000000000000000000000000000000000000000000000006001600160a01b03168152602090f35b5034610dc2576020366003190112610dc25760206112e260043561344f565b6040519015158152f35b5034610dc2576040366003190112610dc257611306612f28565b6001600160a01b03168152600e6020526040812080546024359290831015610dc2576020611334848461317c565b90546040519160031b1c8152f35b5034610dc2576040366003190112610dc25760209061135f612f28565b9060243591821515928361140a575b50826113cf575b82611387575b50506040519015158152f35b6001600160a01b03168082526008845260408220549092506113a8906131ce565b42119182156113bb575b5050388061137b565b6040925081526007835220541538806113b2565b6001600160a01b0381168252600684526040822054909250620f4240118015906113fa575b91611375565b50600783526040812054156113f4565b600b54101592503861136e565b6130d7565b5034610dc2576020366003190112610dc25761147d9061146290611469906040906001600160a01b0361144d612f28565b168152600e6020522060405192838092613682565b0382613415565b604051918291602083526020830190612f77565b0390f35b5034610dc2576060366003190112610dc25763ffffffff6114a0613049565b1680158015611c30575b610d455760043582526012602052604082203383526007602052604083205415611c0a578054336001600160a01b0390911603611c0a576002015460ff81166003811015611c1c57611c0a5760281c63ffffffff1615611c0a5761150c61335c565b6024351561104157600435825260126020526040822061154b611542600283015463ffffffff808260281c169160081c16613506565b6004830161317c565b90549060031b1c600435845260036020528361156a6040822054613194565b5093824211600014611b125760015460405163a5118bf160e01b81526001600160a01b039091169190602081600481865afa908115610db7578491611af3575b50823b156109f2576064849283604051958694859363533dfa3560e01b8552600485015260030b60248401528160448401525af180156109e757611adf575b505060038301805460ff811615611a9d575b5050505b600381015460243503611041576040516323b872dd60e01b815233600482015230602480830191909152356044820152602081606481876001600160a01b037f0000000000000000000000000000000000000000000000000000000000000000165af1908115610db7578491611a7e575b5015610a8a5733835260076020526040832061168f6024358254613542565b905561169f602435600a54613542565b600a556116b0602435600b546131de565b600b556004358352600c6020526040832090600282015490845b60058401548110156117a557806116e7611728926005870161317c565b60018060a01b0391549060031b1c16806000526006860160205261171b856117166040600020546024356135ed565b613600565b8061172d575b50506131eb565b6116ca565b818952600f60205260408920805480831161179d575b8261174d91613542565b90558189526006602052604089206117668282546131de565b90556040519081527fe3e6ae1e05f069d410556743894aacbb190c1431962422ebe8fcc642a467dd16602060043592a33880611721565b915081611743565b8582866117e96117c163ffffffff600285015460281c166134f0565b600284019068ffffffff000000000082549160281b169068ffffffff00000000001916179055565b600282015463ffffffff8160281c16908115600014611a4057505050600260ff1981830154161760028201556004357f02ca5489b37dd363d1302bac719e8ee40e540ffbe8c12253570fea63e11cad718380a260043582526003602052604082205460025460001991908281019081116109f65780820361199d575b50506002548015611989570161187a81613194565b611975579160029184600385600063ffffffff97558260018201556000868201550155825560043584526003602052600060408520555b3384526007602052604084205460405190602435825260208201527f1b8cd61ed43bec7c6bdad3a18ffee613f99c853d16c50678d248d879e1b4343860403392a2015460281c166040519081527f406356ef25520b09e2ef87c5225167b4161ea4ab691e9434d6ee29eafcc83fc2602060043592a27f17f13fd3f7c4712af33f1770ebcb822dd20a2dbc00850eab48d786623d97b9596020600a54604051908152a16000805160206138558339815191526020600b54604051908152a16001815580f35b634e487b7160e01b84526004849052602484fd5b634e487b7160e01b84526031600452602484fd5b6119a690613194565b506119b082613194565b611a2c578181036119d1575b50548452600360205260408420558380611865565b611a2690825481556001810160018060a01b036001850154166bffffffffffffffffffffffff60a01b82541617905560028301546002820155600360ff818501541691019060ff801983541691151516179055565b856119bc565b634e487b7160e01b86526004869052602486fd5b600292611a66611a5d63ffffffff96948760039560081c16613506565b6004850161317c565b905490831b1c8185015501805460ff191690556118b1565b611a97915060203d602011610ac457610ab68183613415565b38611670565b60019060ff191617905560405190815233907fcf08cfd581ae48e3e5053c3ddad657750a872d827972a57ca253b1ab4748b0bc602060043592a33880806115fb565b611ae8906133e5565b6109f25783386115e9565b611b0c915060203d602011610a3a57610a2b8183613415565b386115aa565b600154604051634e5ecf1360e01b81529293506001600160a01b031691602081600481865afa908115610db7578491611beb575b50823b156109f2576064849283604051958694859363533dfa3560e01b8552600485015260030b6024840152600160448401525af180156109e757611bd3575b505060038201805460ff8116611b9e575b50506115ff565b60ff19169055336004357fedc092ccdf255fa12deee6517dd8e7f4e52f4194ef2112a5351a691c8daacc748580a33880611b97565b611bdc906133e5565b611be7578238611b86565b8280fd5b611c04915060203d602011610a3a57610a2b8183613415565b38611b46565b60405163c4967cf360e01b8152600490fd5b634e487b7160e01b84526021600452602484fd5b50600154604051632cc52b1560e11b815233600482015290602090829060249082906001600160a01b03165afa9081156110b2578391611c72575b50156114aa565b611c8a915060203d8111610ac457610ab68183613415565b38611c6b565b5034610dc2576020366003190112610dc257611cbe6005604061147d936004358152600c60205220016137fc565b60405191829160208352602083019061307c565b5034610dc25780600319360112610dc2576020600d54604051908152f35b5034610dc2576020366003190112610dc2576020611d14611d0f612f28565b61354f565b604051908152f35b5034610dc2576020366003190112610dc2576020906040906001600160a01b03611d44612f28565b168152600f83522054604051908152f35b5034610dc2576020366003190112610dc257611d6f61305c565b600154604051632076c8a160e21b815263ffffffff929092166004830152602090829060249082906001600160a01b03165afa9081156109e75760209291611dbe575b506040519060030b8152f35b611dd59150823d8111610a3a57610a2b8183613415565b38611db2565b6130b9565b5034610dc2576020366003190112610dc2576114626114696004604061147d94823581526012602052200160405192838092613682565b5034610dc25780600319360112610dc2576020600954604051908152f35b5034610dc25780600319360112610dc25760206040516213c6808152f35b5034610dc25780600319360112610dc2576001546040516001600160a01b039091168152602090f35b5034610dc2576020366003190112610dc2576020906040906001600160a01b03611ea4612f28565b168152600883522054604051908152f35b5034610dc2576020366003190112610dc2576040611ed46004356137ab565b825191825215156020820152f35b5034610dc2576040366003190112610dc25760043563ffffffff611f04613036565b1615801561207e575b610d4557801561104157611f1f61335c565b611f283361354f565b811161206c5733825260206006815260408320611f46838254613542565b9055611f5482600954613542565b600955611f6382600b54613542565b600b5560405163a9059cbb60e01b8152336004820152602481018390528181604481876001600160a01b037f0000000000000000000000000000000000000000000000000000000000000000165af1908115610db757849161204f575b5015610a8a5760008051602061385583398151915291338452600682526040842054604051918252828201527f92ccf450a286a957af52509bc1c9939d1a6a481783e142e41e2499f0bb66ebc660403392a27fdc6e73d4b36e22ab95945bd8833a5af96c950eb29d8d75c4aecffc987637aaab81600954604051908152a1600b54604051908152a16001815580f35b6120669150823d8411610ac457610ab68183613415565b38611fc0565b60405163dbee9d4f60e01b8152600490fd5b50600154604051632cc52b1560e11b815233600482015290602090829060249082906001600160a01b03165afa9081156110b25783916120c0575b5015611f0d565b6120d8915060203d8111610ac457610ab68183613415565b386120b9565b5034610dc2576020366003190112610dc2576120f8612f28565b600154604051632cc52b1560e11b81526001600160a01b0392831660048201529160209183916024918391165afa9081156109e7576020929161214057506040519015158152f35b6121579150823d8111610ac457610ab68183613415565b3861122a565b5034610dc25780600319360112610dc2576020600454604051908152f35b5034610dc25780600319360112610dc2576020600554604051908152f35b5034610dc2576040366003190112610dc257600660406121b7612f3e565b926004358152600c60205220019060018060a01b03166000526020526020604060002054604051908152f35b5034610dc2576020366003190112610dc2576020906040906001600160a01b0361220b612f28565b168152600683522054604051908152f35b5034610dc2576020366003190112610dc257612250604061147d9261223f6136bf565b506004358152601260205220613706565b604051918291602083526020830190612fab565b5034610dc25780600319360112610dc257600280549061228382613437565b6122906040519182613415565b82815260209283820180938087527f405787fa12a823e0f2b7631cc41b3ba8828b3321ca811111fa75cd3aa3bb5ace9087925b8484106123315750505050506040519280840191818552518092526040840192945b8281106122f25784840385f35b855180518552808301516001600160a01b03168584015260408082015190860152606090810151151590850152948101946080909301926001016122e5565b60048860019260409b9a98999b51612348816133f9565b86548152848060a01b0385880154168382015285870154604082015260ff6003880154161515606082015281520193019301929197959496976122c3565b5034610dc2576020366003190112610dc2576004358152601260205260408120600c602052604082209060028101549160ff83166003811015612445579360a0941580612433575b1561241a5750600363ffffffff809460281c169201549260076123f185856135ed565b949392015416906001925b60405194855260208501526040840152606083015215156080820152f35b60079091015490925082915063ffffffff1681806123fc565b5063ffffffff8460281c1615156123ce565b634e487b7160e01b85526021600452602485fd5b5034610dc2576020366003190112610dc257604060e091600435815260126020522060018060a01b03815416906001810154906002810154600660038301549201549260405194855260208501526124b76040850160ff8316612f54565b63ffffffff90818160081c16606086015260281c16608084015260a083015260c0820152f35b5034610dc2576040366003190112610dc2576124f761305c565b81612500612f3e565b60015490926001600160a01b0391821690813b156109f2578360449263ffffffff94604051978896879563086ecc7960e21b87521660048601521660248401525af180156109e757612550575080f35b612559906133e5565b80f35b5034610dc25760a0366003190112610dc2576004359061257a613036565b91612583613049565b60643563ffffffff93848216809203610dc2576084359480861691828703610dc25783815260209760108952600383604084205416101561280d57841580156127af575b610d4557861561104157821693604685118015906127a5575b610d23578286169360018510801561279b575b61278957601e1061277757600b54871161276557889733835260118952604083205480612731575b509260407f8ba1d57fc445f76a3bc884cc60cc8f95f647f54b02d9b1bf1be78ba0b0bfa768969361265c9896936126e060ff97600c600d549e8f9d8e6131eb565b600d558d8652528484206001810180546001600160a01b03191633179055600281018e905560038101805468ffffffffffffffffff19169099178955426004820155600781018054918e905567ffffffff000000001990981667ffffffffffffffff199091161760209190911b67ffffffff00000000161790955563ffffffff1994565b338252600e8d526126f38a8484206135a3565b815260108c5220918254916127098184166135d8565b1691161790555460401c169061272660405192839233978461351c565b0390a3604051908152f35b90969491939850829592526012895261275060066040872001546131ce565b4210610cbb579294918897923895929561261b565b604051633e285ff160e21b8152600490fd5b604051633631f31d60e01b8152600490fd5b60405163053ec95560e11b8152600490fd5b50600c85116125f3565b50606485116125e0565b50600154604051632cc52b1560e11b8152336004820152908a90829060249082906001600160a01b03165afa9081156110b25783916127f0575b50156125c7565b61280791508a3d8c11610ac457610ab68183613415565b386127e9565b6040516370c9ad1b60e11b8152600490fd5b5034610dc2576020366003190112610dc25780610100604051612841816133b2565b8281528260208201528260408201528260608201528260808201528260a08201528260c0820152606060e082015201526004358152600c602052604081209081549160018060a01b036001820154169160028201549060038301549063ffffffff60ff8360401c16926004860154948260078801541697604051996128c58b6133b2565b8a5260208a01526040890152818116606089015260201c16608087015260078210156129a5575060a085015260c0840152612902906005016137fc565b60e08301526101008201526040518091602082528051602083015260018060a01b0360208201511660408301526040810151606083015263ffffffff606082015116608083015263ffffffff60808201511660a083015261296b60a082015160c084019061306f565b60c081015160e083015260e081015163ffffffff61010061299961012093848388015261014087019061307c565b93015116908301520390f35b634e487b7160e01b81526021600452602490fd5b5034610dc2576040366003190112610dc2576129d3613036565b906129dc61335c565b63ffffffff8216158015612c04575b610d45576004358152600c602052604081206003810154606463ffffffff8260201c1614612bf2576001820154336001600160a01b0390911603612be05760401c60ff16600781101561126a5760038114908115612bd5575b50612bc3578190825b6005820154811015612b1157612a66816005840161317c565b905460039190911b1c6001600160a01b03168085526006830160205260408520549081612a9e575b5050612a99906131eb565b612a4d565b612acb82612a99949396600f602052604089208281540390556006602052604089208281540190556131de565b94818752600685016020528660408120556040519081527f03290469b25240cb85db34af1f3d3117d889b712a22ac0988f554f4f8e0ed919602060043592a39038612a8e565b5060209260019163ffffffff861682526010855260408220805463ffffffff612b3b8183166134f0565b169063ffffffff19161790556806000000000000000068ffffffffff0000000019600383015416178060038301557f8ba1d57fc445f76a3bc884cc60cc8f95f647f54b02d9b1bf1be78ba0b0bfa768612bb763ffffffff600760028601549501541693604051918291339660ff6004359760401c16918461351c565b0390a355604051908152f35b604051637023a7c560e11b8152600490fd5b600691501438612a44565b60405163c671f07960e01b8152600490fd5b6040516307d43ae160e31b8152600490fd5b50600154604051632cc52b1560e11b815233600482015290602090829060249082906001600160a01b03165afa9081156109e7578291612c46575b50156129eb565b612c5e915060203d8111610ac457610ab68183613415565b38612c3f565b5034610dc2576020806003193601126109e3576001600160a01b03919082612c8a612f28565b16808352600e8252604083208054849291835b828110612e635750612cae84613437565b93612cbc6040519586613415565b808552601f19612ccb82613437565b01875b818110612e44575050612ce09061363c565b968693875b848110612d645750505050505060405193849260408401604085528351809152606085018260608360051b880101950196905b828210612d34575050508361147d949550830390850152612f77565b9193955091938480612d52600193605f198c82030186528a51612fab565b98019201920187959391969492612d18565b612d7381859b99989a9b61317c565b9054600391821b1c8b52601288528960408c2084868254161480612e14575b80612dfe575b612db3575b505050612da9906131eb565b9897959698612ce5565b918891612dd0612da9959a612dca612df596613706565b9261366e565b52612ddb828d61366e565b50612de6898861317c565b9054911b1c610b7b828c61366e565b95908938612d9d565b5063ffffffff600282015460281c161515612d98565b50905060ff60028201541682811015612e3057908b9115612d92565b634e487b7160e01b8d52602160045260248dfd5b968096989997612e526136bf565b82828c010152019897959698612cce565b612e728183999796989961317c565b9054600391821b1c895260128652604089208588825416149182612edd575b5081612ec6575b50612eb1575b612ea7906131eb565b9695939496612c9d565b95612ebe612ea7916131eb565b969050612e9e565b63ffffffff91506002015460281c16151538612e98565b90915060ff60028301541690811015612ef857159038612e91565b634e487b7160e01b8a52602160045260248afd5b9050346109e357816003193601126109e357602090600a548152f35b600435906001600160a01b0382168203610e6c57565b602435906001600160a01b0382168203610e6c57565b906003821015612f615752565b634e487b7160e01b600052602160045260246000fd5b90815180825260208080930193019160005b828110612f97575050505090565b835185529381019392810192600101612f89565b9060018060a01b03825116815260208201516020820152612fd460408301516040830190612f54565b63ffffffff806060840151166060830152608083015116608082015260a082015160a082015261302861301660c08401516101208060c0860152840190612f77565b60e084015183820360e0850152612f77565b916101008091015191015290565b6024359063ffffffff82168203610e6c57565b6044359063ffffffff82168203610e6c57565b6004359063ffffffff82168203610e6c57565b906007821015612f615752565b90815180825260208080930193019160005b82811061309c575050505090565b83516001600160a01b03168552938101939281019260010161308e565b34610e6c576000366003190112610e6c576020600b54604051908152f35b34610e6c57600080600319360112610dc2576040516370a0823160e01b81523060048201526020816024817f00000000000000000000000000000000000000000000000000000000000000006001600160a01b03165afa9081156109e7578291613147575b602082604051908152f35b90506020813d8211613174575b8161316160209383613415565b810103126109e35760209150513861313c565b3d9150613154565b8054821015610a745760005260206000200190600090565b600254811015610a7457600260005260021b7f405787fa12a823e0f2b7631cc41b3ba8828b3321ca811111fa75cd3aa3bb5ace0190600090565b9062278d008201809211610c7057565b91908201809211610c7057565b6000198114610c705760010190565b600291825492831561335657600554916213c6808301809311610c7057600492835415908161334b575b5061333a57600094855b85871080613330575b156132e15761327961327f9161324d8754613194565b506003810180549060ff821615806132d5575b613285575b50505061327287546131eb565b87556131eb565b966131eb565b9561322e565b6001809260ff19161790557fcf08cfd581ae48e3e5053c3ddad657750a872d827972a57ca253b1ab4748b0bc60208984549360018060a01b039086015416940154604051908152a3388080613265565b50888301544211613260565b92506040939195507fb8ee613246caed01f690aebbf94b750e593f665c039c5b937631201512b63b97945081541015613323575b5482519182526020820152a1565b6000815542600555613315565b5081855410613237565b604051636410c90760e01b81528390fd5b905042111538613224565b50915050565b60026000541461336d576002600055565b60405162461bcd60e51b815260206004820152601f60248201527f5265656e7472616e637947756172643a207265656e7472616e742063616c6c006044820152606490fd5b610120810190811067ffffffffffffffff8211176133cf57604052565b634e487b7160e01b600052604160045260246000fd5b67ffffffffffffffff81116133cf57604052565b6080810190811067ffffffffffffffff8211176133cf57604052565b90601f8019910116810190811067ffffffffffffffff8211176133cf57604052565b67ffffffffffffffff81116133cf5760051b60200190565b600254158015613485575b61347f57600052600360205260ff6003613478604060002054613194565b5001541690565b50600090565b8160005260036020526040600020541590816134a2575b5061345a565b9050610a74576002600052807f405787fa12a823e0f2b7631cc41b3ba8828b3321ca811111fa75cd3aa3bb5ace5414153861349c565b90816020910312610e6c57518015158103610e6c5790565b63ffffffff9081166000190191908211610c7057565b63ffffffff9182169082160391908211610c7057565b60409063ffffffff613540949695939660608301978352166020820152019061306f565b565b91908203918211610c7057565b60018060a01b03166000526006602052604060002054600f60205260406000205480821161357e575050600090565b61358791613542565b90565b90816020910312610e6c57518060030b8103610e6c5790565b8054600160401b8110156133cf576135c09160018201815561317c565b819291549060031b91821b91600019901b1916179055565b90600163ffffffff80931601918211610c7057565b81810292918115918404141715610c7057565b811561360a570490565b634e487b7160e01b600052601260045260246000fd5b90816020910312610e6c575163ffffffff81168103610e6c5790565b9061364682613437565b6136536040519182613415565b8281528092613664601f1991613437565b0190602036910137565b8051821015610a745760209160051b010190565b90815480825260208092019260005281600020916000905b8282106136a8575050505090565b83548552938401936001938401939091019061369a565b604051906136cc826133b2565b816101006000918281528260208201528260408201528260608201528260808201528260a0820152606060c0820152606060e08201520152565b90604051613713816133b2565b82546001600160a01b03168152600183015460208201526002830154909283919060ff8216906003821015612f615761010092600692604086015263ffffffff90818160081c16606087015260281c166080850152600381015460a0850152604051613786816114628160048601613682565b60c085015260405161379f816114628160058601613682565b60e08501520154910152565b906000918252601260205260408220600281015460ff81166003811015612445571590816137e9575b506137de57508190565b600301549150600190565b63ffffffff915060281c161515386137d4565b9060405191828154918282526020928383019160005283600020936000905b8282106138315750505061354092500383613415565b85546001600160a01b03168452600195860195889550938101939091019061381b56fe8b094cca6f83d49402ce208cc0c224b76625ffc58636df56ae28024e704c5868a26469706673582212204d1c17e3e5bc0dfdec4a4e52db080042fa1a8185afc6788889062dfa2f1d553764736f6c63430008130033",
  "linkReferences": {},
  "deployedLinkReferences": {}
}