{
  "_format": "hh-sol-artifact-1",
  "contractName": "LoanMachine",
  "sourceName": "contracts/LoanMachine.sol",
  "abi": [
    {
      "inputs": [
        {
          "internalType": "address",
          "name": "_usdtToken",
          "type": "address"
        },
        {
          "internalType": "address",
          "name": "_reputationSystem",
          "type": "address"
        }
      ],
      "stateMutability": "nonpayable",
      "type": "constructor"
    },
    {
      "inputs": [],
      "name": "LoanMachine_BorrowNotExpired",
      "type": "error"
    },
    {
      "inputs": [],
      "name": "LoanMachine_CheckIntervalNotYetPassed",
      "type": "error"
    },
    {
      "inputs": [],
      "name": "LoanMachine_ExcessiveDonation",
      "type": "error"
    },
    {
      "inputs": [],
      "name": "LoanMachine_InsufficientDonationBalance",
      "type": "error"
    },
    {
      "inputs": [],
      "name": "LoanMachine_InsufficientFunds",
      "type": "error"
    },
    {
      "inputs": [],
      "name": "LoanMachine_InsufficientWithdrawableBalance",
      "type": "error"
    },
    {
      "inputs": [],
      "name": "LoanMachine_IntervalOfPaymentAboveLimit",
      "type": "error"
    },
    {
      "inputs": [],
      "name": "LoanMachine_InvalidAmount",
      "type": "error"
    },
    {
      "inputs": [],
      "name": "LoanMachine_InvalidCoveragePercentage",
      "type": "error"
    },
    {
      "inputs": [],
      "name": "LoanMachine_InvalidParcelsCount",
      "type": "error"
    },
    {
      "inputs": [],
      "name": "LoanMachine_LoanNotAvailable",
      "type": "error"
    },
    {
      "inputs": [],
      "name": "LoanMachine_MaxLoanRequisitionPendingReached",
      "type": "error"
    },
    {
      "inputs": [],
      "name": "LoanMachine_MemberIdOrWalletInvalid",
      "type": "error"
    },
    {
      "inputs": [],
      "name": "LoanMachine_MinimumDonationRequired",
      "type": "error"
    },
    {
      "inputs": [],
      "name": "LoanMachine_MinimumPercentageCover",
      "type": "error"
    },
    {
      "inputs": [],
      "name": "LoanMachine_NoActiveBorrowing",
      "type": "error"
    },
    {
      "inputs": [],
      "name": "LoanMachine_NotLoanRequisitionCreator",
      "type": "error"
    },
    {
      "inputs": [],
      "name": "LoanMachine_OnlyBorrowerCanCancelRequisition",
      "type": "error"
    },
    {
      "inputs": [],
      "name": "LoanMachine_OverCoverage",
      "type": "error"
    },
    {
      "inputs": [],
      "name": "LoanMachine_ParcelAlreadyPaid",
      "type": "error"
    },
    {
      "inputs": [],
      "name": "LoanMachine_RepaymentExceedsBorrowed",
      "type": "error"
    },
    {
      "inputs": [],
      "name": "LoanMachine_RequisitionAlreadyActive",
      "type": "error"
    },
    {
      "inputs": [],
      "name": "LoanMachine_RequisitionAlreadyFullyCovered",
      "type": "error"
    },
    {
      "inputs": [],
      "name": "LoanMachine_RequisitionNotCancellable",
      "type": "error"
    },
    {
      "inputs": [],
      "name": "LoanMachine_RequisitionNotFound",
      "type": "error"
    },
    {
      "inputs": [],
      "name": "LoanMachine_TokenTransferFailed",
      "type": "error"
    },
    {
      "inputs": [],
      "name": "LoanMachine_WalletAlreadyVinculated",
      "type": "error"
    },
    {
      "anonymous": false,
      "inputs": [
        {
          "indexed": false,
          "internalType": "uint256",
          "name": "total",
          "type": "uint256"
        }
      ],
      "name": "AvailableBalanceUpdated",
      "type": "event"
    },
    {
      "anonymous": false,
      "inputs": [
        {
          "indexed": true,
          "internalType": "address",
          "name": "borrower",
          "type": "address"
        }
      ],
      "name": "BorrowLimitReached",
      "type": "event"
    },
    {
      "anonymous": false,
      "inputs": [
        {
          "indexed": true,
          "internalType": "address",
          "name": "borrower",
          "type": "address"
        },
        {
          "indexed": false,
          "internalType": "uint256",
          "name": "amount",
          "type": "uint256"
        },
        {
          "indexed": false,
          "internalType": "uint256",
          "name": "totalBorrowing",
          "type": "uint256"
        }
      ],
      "name": "Borrowed",
      "type": "event"
    },
    {
      "anonymous": false,
      "inputs": [
        {
          "indexed": true,
          "internalType": "uint256",
          "name": "requisitionId",
          "type": "uint256"
        },
        {
          "indexed": true,
          "internalType": "address",
          "name": "borrower",
          "type": "address"
        }
      ],
      "name": "BorrowerDebtSettled",
      "type": "event"
    },
    {
      "anonymous": false,
      "inputs": [
        {
          "indexed": true,
          "internalType": "uint256",
          "name": "requisitionId",
          "type": "uint256"
        },
        {
          "indexed": true,
          "internalType": "address",
          "name": "borrower",
          "type": "address"
        },
        {
          "indexed": false,
          "internalType": "uint256",
          "name": "dueDate",
          "type": "uint256"
        }
      ],
      "name": "BorrowerOverdue",
      "type": "event"
    },
    {
      "anonymous": false,
      "inputs": [
        {
          "indexed": true,
          "internalType": "address",
          "name": "donor",
          "type": "address"
        },
        {
          "indexed": false,
          "internalType": "uint256",
          "name": "amount",
          "type": "uint256"
        },
        {
          "indexed": false,
          "internalType": "uint256",
          "name": "totalDonation",
          "type": "uint256"
        }
      ],
      "name": "Donated",
      "type": "event"
    },
    {
      "anonymous": false,
      "inputs": [
        {
          "indexed": true,
          "internalType": "uint256",
          "name": "requisitionId",
          "type": "uint256"
        },
        {
          "indexed": true,
          "internalType": "address",
          "name": "lender",
          "type": "address"
        },
        {
          "indexed": false,
          "internalType": "uint256",
          "name": "amount",
          "type": "uint256"
        }
      ],
      "name": "LenderRepaid",
      "type": "event"
    },
    {
      "anonymous": false,
      "inputs": [
        {
          "indexed": true,
          "internalType": "uint256",
          "name": "requisitionId",
          "type": "uint256"
        }
      ],
      "name": "LoanCompleted",
      "type": "event"
    },
    {
      "anonymous": false,
      "inputs": [
        {
          "indexed": true,
          "internalType": "address",
          "name": "walletAddress",
          "type": "address"
        },
        {
          "indexed": true,
          "internalType": "uint256",
          "name": "requisitionId",
          "type": "uint256"
        },
        {
          "indexed": false,
          "internalType": "enum ILoanMachine.ContractStatus",
          "name": "status",
          "type": "uint8"
        },
        {
          "indexed": false,
          "internalType": "uint32",
          "name": "parcelsPending",
          "type": "uint32"
        },
        {
          "indexed": false,
          "internalType": "uint256",
          "name": "parcelsValues",
          "type": "uint256"
        },
        {
          "indexed": false,
          "internalType": "uint256[]",
          "name": "paymentDates",
          "type": "uint256[]"
        },
        {
          "indexed": false,
          "internalType": "uint256",
          "name": "creationTime",
          "type": "uint256"
        }
      ],
      "name": "LoanContractGenerated",
      "type": "event"
    },
    {
      "anonymous": false,
      "inputs": [
        {
          "indexed": true,
          "internalType": "uint256",
          "name": "requisitionId",
          "type": "uint256"
        },
        {
          "indexed": true,
          "internalType": "address",
          "name": "lender",
          "type": "address"
        },
        {
          "indexed": false,
          "internalType": "uint256",
          "name": "coverageAmount",
          "type": "uint256"
        }
      ],
      "name": "LoanCovered",
      "type": "event"
    },
    {
      "anonymous": false,
      "inputs": [
        {
          "indexed": true,
          "internalType": "uint256",
          "name": "requisitionId",
          "type": "uint256"
        }
      ],
      "name": "LoanFunded",
      "type": "event"
    },
    {
      "anonymous": false,
      "inputs": [
        {
          "indexed": true,
          "internalType": "uint256",
          "name": "requisitionId",
          "type": "uint256"
        },
        {
          "indexed": true,
          "internalType": "address",
          "name": "borrower",
          "type": "address"
        },
        {
          "indexed": false,
          "internalType": "uint256",
          "name": "amount",
          "type": "uint256"
        },
        {
          "indexed": false,
          "internalType": "uint32",
          "name": "parcelsCount",
          "type": "uint32"
        },
        {
          "indexed": false,
          "internalType": "enum ILoanMachine.BorrowStatus",
          "name": "status",
          "type": "uint8"
        }
      ],
      "name": "LoanRequisitionCreatedCancelled",
      "type": "event"
    },
    {
      "anonymous": false,
      "inputs": [
        {
          "indexed": true,
          "internalType": "uint256",
          "name": "requisitionId",
          "type": "uint256"
        },
        {
          "indexed": true,
          "internalType": "address",
          "name": "lender",
          "type": "address"
        },
        {
          "indexed": false,
          "internalType": "uint256",
          "name": "amountReturnedToLender",
          "type": "uint256"
        }
      ],
      "name": "LoanUncovered",
      "type": "event"
    },
    {
      "anonymous": false,
      "inputs": [
        {
          "indexed": true,
          "internalType": "address",
          "name": "borrower",
          "type": "address"
        }
      ],
      "name": "NewBorrower",
      "type": "event"
    },
    {
      "anonymous": false,
      "inputs": [
        {
          "indexed": true,
          "internalType": "address",
          "name": "donor",
          "type": "address"
        }
      ],
      "name": "NewDonor",
      "type": "event"
    },
    {
      "anonymous": false,
      "inputs": [
        {
          "indexed": true,
          "internalType": "uint256",
          "name": "requisitionId",
          "type": "uint256"
        },
        {
          "indexed": false,
          "internalType": "uint256",
          "name": "parcelsRemaining",
          "type": "uint256"
        }
      ],
      "name": "ParcelPaid",
      "type": "event"
    },
    {
      "anonymous": false,
      "inputs": [
        {
          "indexed": false,
          "internalType": "uint256",
          "name": "itemsChecked",
          "type": "uint256"
        },
        {
          "indexed": false,
          "internalType": "uint256",
          "name": "nextIndex",
          "type": "uint256"
        }
      ],
      "name": "PeriodicCheckRun",
      "type": "event"
    },
    {
      "anonymous": false,
      "inputs": [
        {
          "indexed": true,
          "internalType": "address",
          "name": "borrower",
          "type": "address"
        },
        {
          "indexed": false,
          "internalType": "uint256",
          "name": "amount",
          "type": "uint256"
        },
        {
          "indexed": false,
          "internalType": "uint256",
          "name": "remainingDebt",
          "type": "uint256"
        }
      ],
      "name": "Repaid",
      "type": "event"
    },
    {
      "anonymous": false,
      "inputs": [
        {
          "indexed": false,
          "internalType": "uint256",
          "name": "total",
          "type": "uint256"
        }
      ],
      "name": "TotalBorrowedUpdated",
      "type": "event"
    },
    {
      "anonymous": false,
      "inputs": [
        {
          "indexed": false,
          "internalType": "uint256",
          "name": "total",
          "type": "uint256"
        }
      ],
      "name": "TotalDonationsUpdated",
      "type": "event"
    },
    {
      "anonymous": false,
      "inputs": [
        {
          "indexed": true,
          "internalType": "address",
          "name": "donor",
          "type": "address"
        },
        {
          "indexed": false,
          "internalType": "uint256",
          "name": "amount",
          "type": "uint256"
        },
        {
          "indexed": false,
          "internalType": "uint256",
          "name": "donations",
          "type": "uint256"
        }
      ],
      "name": "Withdrawn",
      "type": "event"
    },
    {
      "inputs": [],
      "name": "CHECK_INTERVAL",
      "outputs": [
        {
          "internalType": "uint256",
          "name": "",
          "type": "uint256"
        }
      ],
      "stateMutability": "view",
      "type": "function"
    },
    {
      "inputs": [
        {
          "internalType": "address",
          "name": "",
          "type": "address"
        },
        {
          "internalType": "uint256",
          "name": "",
          "type": "uint256"
        }
      ],
      "name": "borrowerRequisitions",
      "outputs": [
        {
          "internalType": "uint256",
          "name": "",
          "type": "uint256"
        }
      ],
      "stateMutability": "view",
      "type": "function"
    },
    {
      "inputs": [
        {
          "internalType": "uint256",
          "name": "requisitionId",
          "type": "uint256"
        },
        {
          "internalType": "address",
          "name": "borrower",
          "type": "address"
        }
      ],
      "name": "canPayRequisition",
      "outputs": [
        {
          "internalType": "bool",
          "name": "",
          "type": "bool"
        }
      ],
      "stateMutability": "view",
      "type": "function"
    },
    {
      "inputs": [
        {
          "internalType": "address",
          "name": "_user",
          "type": "address"
        },
        {
          "internalType": "uint256",
          "name": "_amount",
          "type": "uint256"
        }
      ],
      "name": "canUserBorrow",
      "outputs": [
        {
          "internalType": "bool",
          "name": "",
          "type": "bool"
        }
      ],
      "stateMutability": "view",
      "type": "function"
    },
    {
      "inputs": [
        {
          "internalType": "uint256",
          "name": "requisitionId",
          "type": "uint256"
        },
        {
          "internalType": "uint32",
          "name": "memberId",
          "type": "uint32"
        }
      ],
      "name": "cancelLoanRequisition",
      "outputs": [
        {
          "internalType": "uint256",
          "name": "totalUncoveredAmount",
          "type": "uint256"
        }
      ],
      "stateMutability": "nonpayable",
      "type": "function"
    },
    {
      "inputs": [
        {
          "internalType": "uint256",
          "name": "requisitionId",
          "type": "uint256"
        },
        {
          "internalType": "uint32",
          "name": "coveragePercentage",
          "type": "uint32"
        },
        {
          "internalType": "uint32",
          "name": "memberId",
          "type": "uint32"
        }
      ],
      "name": "coverLoan",
      "outputs": [],
      "stateMutability": "nonpayable",
      "type": "function"
    },
    {
      "inputs": [
        {
          "internalType": "uint256",
          "name": "amount",
          "type": "uint256"
        },
        {
          "internalType": "uint32",
          "name": "minimumCoverage",
          "type": "uint32"
        },
        {
          "internalType": "uint32",
          "name": "parcelscount",
          "type": "uint32"
        },
        {
          "internalType": "uint32",
          "name": "memberId",
          "type": "uint32"
        },
        {
          "internalType": "uint32",
          "name": "daysIntervalOfPayment",
          "type": "uint32"
        }
      ],
      "name": "createLoanRequisition",
      "outputs": [
        {
          "internalType": "uint256",
          "name": "",
          "type": "uint256"
        }
      ],
      "stateMutability": "nonpayable",
      "type": "function"
    },
    {
      "inputs": [
        {
          "internalType": "uint256",
          "name": "",
          "type": "uint256"
        }
      ],
      "name": "debtWatchlist",
      "outputs": [
        {
          "internalType": "uint256",
          "name": "requisitionId",
          "type": "uint256"
        },
        {
          "internalType": "address",
          "name": "borrower",
          "type": "address"
        },
        {
          "internalType": "uint256",
          "name": "nextDueDate",
          "type": "uint256"
        },
        {
          "internalType": "bool",
          "name": "isOverdue",
          "type": "bool"
        }
      ],
      "stateMutability": "view",
      "type": "function"
    },
    {
      "inputs": [
        {
          "internalType": "uint256",
          "name": "amount",
          "type": "uint256"
        },
        {
          "internalType": "uint32",
          "name": "memberId",
          "type": "uint32"
        }
      ],
      "name": "donate",
      "outputs": [],
      "stateMutability": "nonpayable",
      "type": "function"
    },
    {
      "inputs": [
        {
          "internalType": "address",
          "name": "borrower",
          "type": "address"
        }
      ],
      "name": "getActiveLoans",
      "outputs": [
        {
          "components": [
            {
              "internalType": "address",
              "name": "walletAddress",
              "type": "address"
            },
            {
              "internalType": "uint256",
              "name": "requisitionId",
              "type": "uint256"
            },
            {
              "internalType": "enum ILoanMachine.ContractStatus",
              "name": "status",
              "type": "uint8"
            },
            {
              "internalType": "uint32",
              "name": "parcelsCount",
              "type": "uint32"
            },
            {
              "internalType": "uint32",
              "name": "parcelsPending",
              "type": "uint32"
            },
            {
              "internalType": "uint256",
              "name": "parcelsValues",
              "type": "uint256"
            },
            {
              "internalType": "uint256[]",
              "name": "paymentDates",
              "type": "uint256[]"
            },
            {
              "internalType": "uint256[]",
              "name": "parcelsAmounts",
              "type": "uint256[]"
            },
            {
              "internalType": "uint256",
              "name": "creationTime",
              "type": "uint256"
            }
          ],
          "internalType": "struct ILoanMachine.LoanContract[]",
          "name": "activeLoans",
          "type": "tuple[]"
        },
        {
          "internalType": "uint256[]",
          "name": "requisitionIds",
          "type": "uint256[]"
        }
      ],
      "stateMutability": "view",
      "type": "function"
    },
    {
      "inputs": [
        {
          "internalType": "address",
          "name": "user",
          "type": "address"
        }
      ],
      "name": "getAllowance",
      "outputs": [
        {
          "internalType": "uint256",
          "name": "",
          "type": "uint256"
        }
      ],
      "stateMutability": "view",
      "type": "function"
    },
    {
      "inputs": [],
      "name": "getAvailableBalance",
      "outputs": [
        {
          "internalType": "uint256",
          "name": "",
          "type": "uint256"
        }
      ],
      "stateMutability": "view",
      "type": "function"
    },
    {
      "inputs": [],
      "name": "getAvailableBorrowAmount",
      "outputs": [
        {
          "internalType": "uint256",
          "name": "",
          "type": "uint256"
        }
      ],
      "stateMutability": "view",
      "type": "function"
    },
    {
      "inputs": [
        {
          "internalType": "address",
          "name": "borrower",
          "type": "address"
        }
      ],
      "name": "getBorrowerRequisitions",
      "outputs": [
        {
          "internalType": "uint256[]",
          "name": "",
          "type": "uint256[]"
        }
      ],
      "stateMutability": "view",
      "type": "function"
    },
    {
      "inputs": [
        {
          "internalType": "address",
          "name": "_user",
          "type": "address"
        }
      ],
      "name": "getBorrowing",
      "outputs": [
        {
          "internalType": "uint256",
          "name": "",
          "type": "uint256"
        }
      ],
      "stateMutability": "view",
      "type": "function"
    },
    {
      "inputs": [],
      "name": "getContractBalance",
      "outputs": [
        {
          "internalType": "uint256",
          "name": "",
          "type": "uint256"
        }
      ],
      "stateMutability": "view",
      "type": "function"
    },
    {
      "inputs": [
        {
          "internalType": "uint256",
          "name": "requisitionId",
          "type": "uint256"
        }
      ],
      "name": "getCoveringLenders",
      "outputs": [
        {
          "internalType": "address[]",
          "name": "",
          "type": "address[]"
        }
      ],
      "stateMutability": "view",
      "type": "function"
    },
    {
      "inputs": [],
      "name": "getDebtWatchlist",
      "outputs": [
        {
          "components": [
            {
              "internalType": "uint256",
              "name": "requisitionId",
              "type": "uint256"
            },
            {
              "internalType": "address",
              "name": "borrower",
              "type": "address"
            },
            {
              "internalType": "uint256",
              "name": "nextDueDate",
              "type": "uint256"
            },
            {
              "internalType": "bool",
              "name": "isOverdue",
              "type": "bool"
            }
          ],
          "internalType": "struct LoanMachine.DebtWatchItem[]",
          "name": "",
          "type": "tuple[]"
        }
      ],
      "stateMutability": "view",
      "type": "function"
    },
    {
      "inputs": [
        {
          "internalType": "address",
          "name": "_user",
          "type": "address"
        }
      ],
      "name": "getDonation",
      "outputs": [
        {
          "internalType": "uint256",
          "name": "",
          "type": "uint256"
        }
      ],
      "stateMutability": "view",
      "type": "function"
    },
    {
      "inputs": [
        {
          "internalType": "address",
          "name": "lender",
          "type": "address"
        }
      ],
      "name": "getDonationsInCoverage",
      "outputs": [
        {
          "internalType": "uint256",
          "name": "",
          "type": "uint256"
        }
      ],
      "stateMutability": "view",
      "type": "function"
    },
    {
      "inputs": [
        {
          "internalType": "address",
          "name": "_user",
          "type": "address"
        }
      ],
      "name": "getLastBorrowTime",
      "outputs": [
        {
          "internalType": "uint256",
          "name": "",
          "type": "uint256"
        }
      ],
      "stateMutability": "view",
      "type": "function"
    },
    {
      "inputs": [
        {
          "internalType": "uint256",
          "name": "requisitionId",
          "type": "uint256"
        },
        {
          "internalType": "address",
          "name": "lender",
          "type": "address"
        }
      ],
      "name": "getLenderCoverage",
      "outputs": [
        {
          "internalType": "uint256",
          "name": "",
          "type": "uint256"
        }
      ],
      "stateMutability": "view",
      "type": "function"
    },
    {
      "inputs": [
        {
          "internalType": "uint256",
          "name": "requisitionId",
          "type": "uint256"
        }
      ],
      "name": "getLoanContract",
      "outputs": [
        {
          "components": [
            {
              "internalType": "address",
              "name": "walletAddress",
              "type": "address"
            },
            {
              "internalType": "uint256",
              "name": "requisitionId",
              "type": "uint256"
            },
            {
              "internalType": "enum ILoanMachine.ContractStatus",
              "name": "status",
              "type": "uint8"
            },
            {
              "internalType": "uint32",
              "name": "parcelsCount",
              "type": "uint32"
            },
            {
              "internalType": "uint32",
              "name": "parcelsPending",
              "type": "uint32"
            },
            {
              "internalType": "uint256",
              "name": "parcelsValues",
              "type": "uint256"
            },
            {
              "internalType": "uint256[]",
              "name": "paymentDates",
              "type": "uint256[]"
            },
            {
              "internalType": "uint256[]",
              "name": "parcelsAmounts",
              "type": "uint256[]"
            },
            {
              "internalType": "uint256",
              "name": "creationTime",
              "type": "uint256"
            }
          ],
          "internalType": "struct ILoanMachine.LoanContract",
          "name": "",
          "type": "tuple"
        }
      ],
      "stateMutability": "view",
      "type": "function"
    },
    {
      "inputs": [
        {
          "internalType": "address",
          "name": "wallet",
          "type": "address"
        }
      ],
      "name": "getMemberId",
      "outputs": [
        {
          "internalType": "uint32",
          "name": "",
          "type": "uint32"
        }
      ],
      "stateMutability": "view",
      "type": "function"
    },
    {
      "inputs": [
        {
          "internalType": "uint256",
          "name": "requisitionId",
          "type": "uint256"
        }
      ],
      "name": "getNextPaymentAmount",
      "outputs": [
        {
          "internalType": "uint256",
          "name": "paymentAmount",
          "type": "uint256"
        },
        {
          "internalType": "bool",
          "name": "canPay",
          "type": "bool"
        }
      ],
      "stateMutability": "view",
      "type": "function"
    },
    {
      "inputs": [
        {
          "internalType": "uint256",
          "name": "requisitionId",
          "type": "uint256"
        }
      ],
      "name": "getPaymentDates",
      "outputs": [
        {
          "internalType": "uint256[]",
          "name": "",
          "type": "uint256[]"
        }
      ],
      "stateMutability": "view",
      "type": "function"
    },
    {
      "inputs": [
        {
          "internalType": "uint256",
          "name": "requisitionId",
          "type": "uint256"
        }
      ],
      "name": "getRepaymentSummary",
      "outputs": [
        {
          "internalType": "uint256",
          "name": "totalRemainingDebt",
          "type": "uint256"
        },
        {
          "internalType": "uint256",
          "name": "nextPaymentAmount",
          "type": "uint256"
        },
        {
          "internalType": "uint256",
          "name": "parcelsRemaining",
          "type": "uint256"
        },
        {
          "internalType": "uint256",
          "name": "totalParcels",
          "type": "uint256"
        },
        {
          "internalType": "bool",
          "name": "isActive",
          "type": "bool"
        }
      ],
      "stateMutability": "view",
      "type": "function"
    },
    {
      "inputs": [
        {
          "internalType": "uint32",
          "name": "memberId",
          "type": "uint32"
        }
      ],
      "name": "getReputation",
      "outputs": [
        {
          "internalType": "int32",
          "name": "",
          "type": "int32"
        }
      ],
      "stateMutability": "view",
      "type": "function"
    },
    {
      "inputs": [
        {
          "internalType": "uint256",
          "name": "requisitionId",
          "type": "uint256"
        }
      ],
      "name": "getRequisitionInfo",
      "outputs": [
        {
          "components": [
            {
              "internalType": "uint256",
              "name": "requisitionId",
              "type": "uint256"
            },
            {
              "internalType": "address",
              "name": "borrower",
              "type": "address"
            },
            {
              "internalType": "uint256",
              "name": "amount",
              "type": "uint256"
            },
            {
              "internalType": "uint32",
              "name": "minimumCoverage",
              "type": "uint32"
            },
            {
              "internalType": "uint32",
              "name": "currentCoverage",
              "type": "uint32"
            },
            {
              "internalType": "enum ILoanMachine.BorrowStatus",
              "name": "status",
              "type": "uint8"
            },
            {
              "internalType": "uint256",
              "name": "creationTime",
              "type": "uint256"
            },
            {
              "internalType": "address[]",
              "name": "coveringLenders",
              "type": "address[]"
            },
            {
              "internalType": "uint32",
              "name": "parcelsCount",
              "type": "uint32"
            }
          ],
          "internalType": "struct ILoanMachine.RequisitionInfo",
          "name": "",
          "type": "tuple"
        }
      ],
      "stateMutability": "view",
      "type": "function"
    },
    {
      "inputs": [],
      "name": "getTotalBorrowed",
      "outputs": [
        {
          "internalType": "uint256",
          "name": "",
          "type": "uint256"
        }
      ],
      "stateMutability": "view",
      "type": "function"
    },
    {
      "inputs": [],
      "name": "getTotalDonations",
      "outputs": [
        {
          "internalType": "uint256",
          "name": "",
          "type": "uint256"
        }
      ],
      "stateMutability": "view",
      "type": "function"
    },
    {
      "inputs": [],
      "name": "getUSDTBalance",
      "outputs": [
        {
          "internalType": "uint256",
          "name": "",
          "type": "uint256"
        }
      ],
      "stateMutability": "view",
      "type": "function"
    },
    {
      "inputs": [
        {
          "internalType": "address",
          "name": "user",
          "type": "address"
        }
      ],
      "name": "getWithdrawableBalance",
      "outputs": [
        {
          "internalType": "uint256",
          "name": "",
          "type": "uint256"
        }
      ],
      "stateMutability": "view",
      "type": "function"
    },
    {
      "inputs": [
        {
          "internalType": "uint256",
          "name": "requisitionId",
          "type": "uint256"
        }
      ],
      "name": "isBorrowerOverdue",
      "outputs": [
        {
          "internalType": "bool",
          "name": "",
          "type": "bool"
        }
      ],
      "stateMutability": "view",
      "type": "function"
    },
    {
      "inputs": [
        {
          "internalType": "address",
          "name": "wallet",
          "type": "address"
        }
      ],
      "name": "isWalletVinculated",
      "outputs": [
        {
          "internalType": "bool",
          "name": "",
          "type": "bool"
        }
      ],
      "stateMutability": "view",
      "type": "function"
    },
    {
      "inputs": [],
      "name": "lastPeriodicCheckTimestamp",
      "outputs": [
        {
          "internalType": "uint256",
          "name": "",
          "type": "uint256"
        }
      ],
      "stateMutability": "view",
      "type": "function"
    },
    {
      "inputs": [
        {
          "internalType": "uint256",
          "name": "",
          "type": "uint256"
        }
      ],
      "name": "loanContracts",
      "outputs": [
        {
          "internalType": "address",
          "name": "walletAddress",
          "type": "address"
        },
        {
          "internalType": "uint256",
          "name": "requisitionId",
          "type": "uint256"
        },
        {
          "internalType": "enum ILoanMachine.ContractStatus",
          "name": "status",
          "type": "uint8"
        },
        {
          "internalType": "uint32",
          "name": "parcelsCount",
          "type": "uint32"
        },
        {
          "internalType": "uint32",
          "name": "parcelsPending",
          "type": "uint32"
        },
        {
          "internalType": "uint256",
          "name": "parcelsValues",
          "type": "uint256"
        },
        {
          "internalType": "uint256",
          "name": "creationTime",
          "type": "uint256"
        }
      ],
      "stateMutability": "view",
      "type": "function"
    },
    {
      "inputs": [],
      "name": "nextCheckIndex",
      "outputs": [
        {
          "internalType": "uint256",
          "name": "",
          "type": "uint256"
        }
      ],
      "stateMutability": "view",
      "type": "function"
    },
    {
      "inputs": [
        {
          "internalType": "uint256",
          "name": "batchSize",
          "type": "uint256"
        }
      ],
      "name": "performPeriodicDebtCheck",
      "outputs": [],
      "stateMutability": "nonpayable",
      "type": "function"
    },
    {
      "inputs": [
        {
          "internalType": "uint256",
          "name": "requisitionId",
          "type": "uint256"
        },
        {
          "internalType": "uint256",
          "name": "amount",
          "type": "uint256"
        },
        {
          "internalType": "uint32",
          "name": "memberId",
          "type": "uint32"
        }
      ],
      "name": "repay",
      "outputs": [],
      "stateMutability": "nonpayable",
      "type": "function"
    },
    {
      "inputs": [],
      "name": "reputationSystem",
      "outputs": [
        {
          "internalType": "contract ReputationSystem",
          "name": "",
          "type": "address"
        }
      ],
      "stateMutability": "view",
      "type": "function"
    },
    {
      "inputs": [],
      "name": "requisitionCounter",
      "outputs": [
        {
          "internalType": "uint256",
          "name": "",
          "type": "uint256"
        }
      ],
      "stateMutability": "view",
      "type": "function"
    },
    {
      "inputs": [],
      "name": "usdtToken",
      "outputs": [
        {
          "internalType": "address",
          "name": "",
          "type": "address"
        }
      ],
      "stateMutability": "view",
      "type": "function"
    },
    {
      "inputs": [
        {
          "internalType": "uint32",
          "name": "memberId",
          "type": "uint32"
        },
        {
          "internalType": "address",
          "name": "wallet",
          "type": "address"
        }
      ],
      "name": "vinculationMemberToWallet",
      "outputs": [],
      "stateMutability": "nonpayable",
      "type": "function"
    },
    {
      "inputs": [
        {
          "internalType": "uint256",
          "name": "amount",
          "type": "uint256"
        },
        {
          "internalType": "uint32",
          "name": "memberId",
          "type": "uint32"
        }
      ],
      "name": "withdraw",
      "outputs": [],
      "stateMutability": "nonpayable",
      "type": "function"
    }
  ],
  "bytecode": "0x60a034620000c957601f62003a1738819003918201601f19168301916001600160401b03831184841017620000ce578084926040948552833981010312620000c9576200005a60206200005283620000e4565b9201620000e4565b60016000819055600d81905560809290925281546001600160a01b0319166001600160a01b0390911617905560405161391d9081620000fa823960805181818161074801528181610e3a01528181610f4c015281816112e00152818161168c01528181611fdc01526131770152f35b600080fd5b634e487b7160e01b600052604160045260246000fd5b51906001600160a01b0382168203620000c95756fe608080604052600436101561001357600080fd5b600090813560e01c9081630307c4a114612f7f5750806303d1a1a114612cd7578063140c9ac414612a055780631b70ba3e1461286b5780631beeafa5146125a857806321bb31e414612529578063232869fa146124a5578063291c31a714611e275780632b31c022146123d25780632f3b1458146122b0578063383ab2ef14612268578063410a1d321461222f5780634e51c7df146121e557806350c9677f146121c757806355c67616146121a9578063598a562a1461212a5780636145d1b714611f2e5780636509a71014611f01578063657eb03114611ec85780636587eda114611e9f5780636ea33ceb14611e815780636f9fb98a14611463578063777c658f14611e635780637d52437a14611e2c578063809dab6a14611e2757806381db228414611da1578063827cc0e514611d68578063843592d314611d3c57806384ddf5ea14611d1e5780638a914a6314611cdc5780639059f9ca146114cd5780639730872a146114685780639785fac81461146357806397c335191461138e5780639e93201114611338578063a4aace0f1461130f578063a98ad46c146112ca578063adceb1011461122a578063be5eb580146111f1578063be7df8ed1461118d578063c269014b14611109578063e276392414610edc578063e5a0bde414610eb0578063eb5a662e14610df15763ecb18b341461021057600080fd5b34610dee576060366003190112610dee576102296130a9565b63ffffffff6102366130bc565b169081158015610d83575b610d715763ffffffff8116158015610d61575b610d4f57600963ffffffff82161115610d3d5761026f6133cf565b6004358352600c6020526040832091600383015460ff8160401c166007811015610d29578015159081610d1d575b50610d0b576102ba60649163ffffffff8086169160201c16613251565b11610cf95760018301546001600160a01b031684526011602052604084205480610cc4575b506102f463ffffffff83166002850154613660565b92670de0b6b3a764000093848102948186041490151715610a0c5768056bc75e2d630fffff84018411610c9c57338552600660205268056bc75e2d6310000068056bc75e2d630fffff850104604086205410610cb25733855260066020526040852061037768056bc75e2d6310000068056bc75e2d630fffff8701048254613563565b9055338552600f602052604085206103a668056bc75e2d6310000068056bc75e2d630fffff8701048254613251565b905563ffffffff831663ffffffff600383015460201c160163ffffffff8111610c9c576103f390600383019067ffffffff0000000082549160201b169067ffffffff000000001916179055565b336000526006810160205260406000205415610c40575b3360005260068101602052604060002061043b68056bc75e2d6310000068056bc75e2d630fffff8701048254613251565b9055600381015463ffffffff811663ffffffff8260201c161015600014610c23575060038101805460ff60401b19166802000000000000000017905560018054910154604051634698c2d560e01b81526001600160a01b0391821660048201529160209183916024918391165afa8015610c185763ffffffff918691610be9575b50168452601060209081526040808620805463ffffffff1916905560043580875260128352818720600c90935290862060018181015484546001600160a01b0319166001600160a01b039190911617845583019190915560028201805460ff198116825560078301805464ffffffffff19831660089190911b64ffffffff00169081178455905468ffffffffffffffffff199092161760289190911b68ffffffff00000000001617905590426006820155600282015463ffffffff600784015416926105888483613673565b8415610bd557610597856136af565b92895b868110610b83575050600384015560070154620151809060201c63ffffffff16801582820282900483141715610b6f57885b8563ffffffff821610610b115750505060018060a01b0382541687526011602052600435604088205560018060a01b038254166002830154907f55939e2a4adb2163c21eb3bb2c850e8e82136aed8a9e5971f705f1188d05865e60038501549260068601549363ffffffff604051926106488460ff8316612fc7565b60281c166020830152604082015260a0606082015261066d60a08201600488016136f5565b93608082015280600435940390a3865b838110610aec57505050506004358452600c6020526040842060018060a01b0360018201541690600281015482875260076020526106c060408820918254613251565b90556106d26002820154600a54613251565b600a556106e56002820154600b54613563565b600b5581865260086020908152604080882042905560038301805460ff60401b1916680300000000000000001790556002830154905163a9059cbb60e01b81526001600160a01b038516600482015260248101919091529081806044810103818a7f00000000000000000000000000000000000000000000000000000000000000006001600160a01b03165af1908115610ae1578791610ab2575b5015610aa0576004358652601260205260046040872001805415610a8a5760005260206000205460025460043588526003602052806040892055604051916107c78361346c565b60043583528460208401526040830152876060830152600160401b811015610a76578060016107f99201600255613207565b919091610a62577feae9cfbc77fdd40ca899f36b608256063b2bc9d8178b0220f7ad513e178d67309261087960409360036060856002965184556001840160018060a01b036020830151166bffffffffffffffffffffffff60a01b82541617905587810151878501550151151591019060ff801983541691151516179055565b015483885260076020528188205482519182526020820152a27f17f13fd3f7c4712af33f1770ebcb822dd20a2dbc00850eab48d786623d97b9596020600a54604051908152a16000805160206138c88339815191526020600b54604051908152a16004357f9e71d2fb732e68272b7e74ecfd14638673c1d77e19a5d390a3ffff054d57c44b8580a25b600154604051636adf462560e11b81526001600160a01b0390911692602082600481875afa918215610a57578692610a20575b5063ffffffff1660030b9060030b028060030b908103610a0c5790829185933b15610a08576064849283600a95604051968795869463533dfa3560e01b865260048601520560030b6024840152600160448401525af180156109fd576109e5575b505068056bc75e2d6310000068056bc75e2d630fffff604051920104815233907f86b47e6e6c03d769c0bc5ffd06c682ea7d07089576d59230ec18ff64e71bffe7602060043592a36001815580f35b6109ee90613458565b6109f9578138610996565b5080fd5b6040513d84823e3d90fd5b8380fd5b634e487b7160e01b85526011600452602485fd5b63ffffffff919250610a499060203d602011610a50575b610a418183613488565b8101906135fd565b9190610935565b503d610a37565b6040513d88823e3d90fd5b634e487b7160e01b88526004889052602488fd5b634e487b7160e01b88526041600452602488fd5b634e487b7160e01b600052603260045260246000fd5b604051637a97d71f60e01b8152600490fd5b610ad4915060203d602011610ada575b610acc8183613488565b81019061354b565b38610780565b503d610ac2565b6040513d89823e3d90fd5b80610b07610afd610b0c93856136e1565b5160058601613616565b61325e565b61067d565b610b40610b37610b3163ffffffff610b288561364b565b16868602613660565b42613251565b60048701613616565b63ffffffff80821614610b5b5763ffffffff166001016105cc565b634e487b7160e01b8a52601160045260248afd5b634e487b7160e01b89526011600452602489fd5b868206811015610bc65760018301808411610bb25790610bad91610ba782886136e1565b5261325e565b61059a565b634e487b7160e01b8c52601160045260248cfd5b8083610ba7610bad93886136e1565b634e487b7160e01b89526012600452602489fd5b610c0b915060203d602011610c11575b610c038183613488565b810190613693565b386104bc565b503d610bf9565b6040513d87823e3d90fd5b600160401b60039168ff0000000000000000191617910155610902565b6005810154600160401b811015610c8857806001610c6792016005840155600583016131ef565b81546001600160a01b0360039290921b91821b19163390911b17905561040a565b634e487b7160e01b86526041600452602486fd5b634e487b7160e01b600052601160045260246000fd5b604051636044d4dd60e01b8152600490fd5b84526012602052610cdb6006604086200154613241565b4210610ce757386102df565b6040516301bf0a1560e41b8152600490fd5b6040516311d9355160e01b8152600490fd5b60405163393e690960e11b8152600490fd5b6001915014153861029d565b634e487b7160e01b86526021600452602486fd5b6040516307314f9160e21b8152600490fd5b604051632819760f60e01b8152600490fd5b50606463ffffffff821611610254565b60405163584daf2560e01b8152600490fd5b50600154604051632cc52b1560e11b815233600482015290602090829060249082906001600160a01b03165afa908115610de3578491610dc5575b5015610241565b610ddd915060203d8111610ada57610acc8183613488565b38610dbe565b6040513d86823e3d90fd5b80fd5b5034610dee5760209081600319360112610dee57604482610e10612f9b565b604051636eb1769f60e11b81526001600160a01b03918216600482015230602482015292839182907f0000000000000000000000000000000000000000000000000000000000000000165afa918215610ea45791610e72575b50604051908152f35b90508181813d8311610e9d575b610e898183613488565b81010312610e98575138610e69565b600080fd5b503d610e7f565b604051903d90823e3d90fd5b5034610dee576020366003190112610dee57610eca6133cf565b610ed560043561326d565b6001815580f35b5034610dee576040366003190112610dee5760043563ffffffff610efe6130a9565b1615801561109e575b610d7157801561108d57610f196133cf565b6040516323b872dd60e01b8152336004820152306024820152604481018290526020908181606481876001600160a01b037f0000000000000000000000000000000000000000000000000000000000000000165af1908115610de3578491611070575b5015610aa0576000805160206138c883398151915290338452600681526040842092835493610fab8286613251565b90557fdc6e73d4b36e22ab95945bd8833a5af96c950eb29d8d75c4aecffc987637aaab82610fdb83600954613251565b80600955610feb84600b54613251565b9384600b55338952600683526040892054604051918252838201527f4928895ba6723e8e27b15f32e4c3054a1b6c7f8c03f133558d6fa42b3928d14c60403392a2604051908152a1604051908152a115611046576001815580f35b337f072dafb6aabe3f02118bc607efbeaaa104d6b2009720c7b130f24ba418689c4b8280a2610ed5565b6110879150823d8411610ada57610acc8183613488565b38610f7c565b60405162d84c0f60e41b8152600490fd5b50600154604051632cc52b1560e11b815233600482015290602090829060249082906001600160a01b03165afa9081156110fe5783916110e0575b5015610f07565b6110f8915060203d8111610ada57610acc8183613488565b386110d9565b6040513d85823e3d90fd5b5034610dee576020366003190112610dee57611123612f9b565b60015460405163c269014b60e01b81526001600160a01b0392831660048201529160209183916024918391165afa9081156109fd5760209291611170575b5063ffffffff60405191168152f35b6111879150823d8111610c1157610c038183613488565b38611161565b5034610dee576020366003190112610dee5760043590600254821015610dee5760806111b883613207565b5080549060018060a01b036001820154169060ff6003600283015492015416916040519384526020840152604083015215156060820152f35b5034610dee576020366003190112610dee576020906040906001600160a01b03611219612f9b565b168152600783522054604051908152f35b5034610dee576040366003190112610dee57611244612fb1565b600435825260126020526040822080546001600160a01b039283169216919091149081611298575b6020925081611281575b506040519015158152f35b63ffffffff91506002015460281c16151538611276565b905060ff60028201541660038110156112b65760209250159061126c565b634e487b7160e01b83526021600452602483fd5b5034610dee5780600319360112610dee576040517f00000000000000000000000000000000000000000000000000000000000000006001600160a01b03168152602090f35b5034610dee576020366003190112610dee57602061132e6004356134c2565b6040519015158152f35b5034610dee576040366003190112610dee57611352612f9b565b6001600160a01b03168152600e6020526040812080546024359290831015610dee57602061138084846131ef565b90546040519160031b1c8152f35b5034610dee576040366003190112610dee576020906113ab612f9b565b90602435918215159283611456575b508261141b575b826113d3575b50506040519015158152f35b6001600160a01b03168082526008845260408220549092506113f490613241565b4211918215611407575b505038806113c7565b6040925081526007835220541538806113fe565b6001600160a01b0381168252600684526040822054909250620f424011801590611446575b916113c1565b5060078352604081205415611440565b600b5410159250386113ba565b61314a565b5034610dee576020366003190112610dee576114c9906114ae906114b5906040906001600160a01b03611499612f9b565b168152600e60205220604051928380926136f5565b0382613488565b604051918291602083526020830190612fea565b0390f35b5034610dee576060366003190112610dee5763ffffffff6114ec6130bc565b1680158015611c7c575b610d715760043582526012602052604082203383526007602052604083205415611c56578054336001600160a01b0390911603611c56576002015460ff81166003811015611c6857611c565760281c63ffffffff1615611c56576115586133cf565b6024351561108d57600435825260126020526040822061159761158e600283015463ffffffff808260281c169160081c16613586565b600483016131ef565b90549060031b1c60043584526003602052836115b66040822054613207565b5093824211600014611b5e5760015460405163a5118bf160e01b81526001600160a01b039091169190602081600481865afa908115610de3578491611b3f575b50823b15610a08576064849283604051958694859363533dfa3560e01b8552600485015260030b60248401528160448401525af180156109fd57611b2b575b505060038301805460ff811615611ae9575b5050505b60038101546024350361108d576040516323b872dd60e01b815233600482015230602480830191909152356044820152602081606481876001600160a01b037f0000000000000000000000000000000000000000000000000000000000000000165af1908115610de3578491611aca575b5015610aa0573383526007602052604083206116db6024358254613563565b90556116eb602435600a54613563565b600a556116fc602435600b54613251565b600b556004358352600c6020526040832090600282015490845b60058401548110156117f1578061173361177492600587016131ef565b60018060a01b0391549060031b1c16806000526006860160205261176785611762604060002054602435613660565b613673565b80611779575b505061325e565b611716565b818952600f6020526040892080548083116117e9575b8261179991613563565b90558189526006602052604089206117b2828254613251565b90556040519081527fe3e6ae1e05f069d410556743894aacbb190c1431962422ebe8fcc642a467dd16602060043592a3388061176d565b91508161178f565b85828661183561180d63ffffffff600285015460281c16613570565b600284019068ffffffff000000000082549160281b169068ffffffff00000000001916179055565b600282015463ffffffff8160281c16908115600014611a8c57505050600260ff1981830154161760028201556004357f02ca5489b37dd363d1302bac719e8ee40e540ffbe8c12253570fea63e11cad718380a26004358252600360205260408220546002546000199190828101908111610a0c578082036119e9575b505060025480156119d557016118c681613207565b6119c1579160029184600385600063ffffffff97558260018201556000868201550155825560043584526003602052600060408520555b3384526007602052604084205460405190602435825260208201527f1b8cd61ed43bec7c6bdad3a18ffee613f99c853d16c50678d248d879e1b4343860403392a2015460281c166040519081527f406356ef25520b09e2ef87c5225167b4161ea4ab691e9434d6ee29eafcc83fc2602060043592a27f17f13fd3f7c4712af33f1770ebcb822dd20a2dbc00850eab48d786623d97b9596020600a54604051908152a16000805160206138c88339815191526020600b54604051908152a16001815580f35b634e487b7160e01b84526004849052602484fd5b634e487b7160e01b84526031600452602484fd5b6119f290613207565b506119fc82613207565b611a7857818103611a1d575b505484526003602052604084205583806118b1565b611a7290825481556001810160018060a01b036001850154166bffffffffffffffffffffffff60a01b82541617905560028301546002820155600360ff818501541691019060ff801983541691151516179055565b85611a08565b634e487b7160e01b86526004869052602486fd5b600292611ab2611aa963ffffffff96948760039560081c16613586565b600485016131ef565b905490831b1c8185015501805460ff191690556118fd565b611ae3915060203d602011610ada57610acc8183613488565b386116bc565b60019060ff191617905560405190815233907fcf08cfd581ae48e3e5053c3ddad657750a872d827972a57ca253b1ab4748b0bc602060043592a3388080611647565b611b3490613458565b610a08578338611635565b611b58915060203d602011610a5057610a418183613488565b386115f6565b600154604051634e5ecf1360e01b81529293506001600160a01b031691602081600481865afa908115610de3578491611c37575b50823b15610a08576064849283604051958694859363533dfa3560e01b8552600485015260030b6024840152600160448401525af180156109fd57611c1f575b505060038201805460ff8116611bea575b505061164b565b60ff19169055336004357fedc092ccdf255fa12deee6517dd8e7f4e52f4194ef2112a5351a691c8daacc748580a33880611be3565b611c2890613458565b611c33578238611bd2565b8280fd5b611c50915060203d602011610a5057610a418183613488565b38611b92565b60405163c4967cf360e01b8152600490fd5b634e487b7160e01b84526021600452602484fd5b50600154604051632cc52b1560e11b815233600482015290602090829060249082906001600160a01b03165afa9081156110fe578391611cbe575b50156114f6565b611cd6915060203d8111610ada57610acc8183613488565b38611cb7565b5034610dee576020366003190112610dee57611d0a600560406114c9936004358152600c602052200161386f565b6040519182916020835260208301906130ef565b5034610dee5780600319360112610dee576020600d54604051908152f35b5034610dee576020366003190112610dee576020611d60611d5b612f9b565b6135c2565b604051908152f35b5034610dee576020366003190112610dee576020906040906001600160a01b03611d90612f9b565b168152600f83522054604051908152f35b5034610dee576020366003190112610dee57611dbb6130cf565b600154604051632076c8a160e21b815263ffffffff929092166004830152602090829060249082906001600160a01b03165afa9081156109fd5760209291611e0a575b506040519060030b8152f35b611e219150823d8111610a5057610a418183613488565b38611dfe565b61312c565b5034610dee576020366003190112610dee576114ae6114b5600460406114c9948235815260126020522001604051928380926136f5565b5034610dee5780600319360112610dee576020600954604051908152f35b5034610dee5780600319360112610dee5760206040516213c6808152f35b5034610dee5780600319360112610dee576001546040516001600160a01b039091168152602090f35b5034610dee576020366003190112610dee576020906040906001600160a01b03611ef0612f9b565b168152600883522054604051908152f35b5034610dee576020366003190112610dee576040611f2060043561381e565b825191825215156020820152f35b5034610dee576040366003190112610dee5760043563ffffffff611f506130a9565b161580156120ca575b610d7157801561108d57611f6b6133cf565b611f74336135c2565b81116120b85733825260206006815260408320611f92838254613563565b9055611fa082600954613563565b600955611faf82600b54613563565b600b5560405163a9059cbb60e01b8152336004820152602481018390528181604481876001600160a01b037f0000000000000000000000000000000000000000000000000000000000000000165af1908115610de357849161209b575b5015610aa0576000805160206138c883398151915291338452600682526040842054604051918252828201527f92ccf450a286a957af52509bc1c9939d1a6a481783e142e41e2499f0bb66ebc660403392a27fdc6e73d4b36e22ab95945bd8833a5af96c950eb29d8d75c4aecffc987637aaab81600954604051908152a1600b54604051908152a16001815580f35b6120b29150823d8411610ada57610acc8183613488565b3861200c565b60405163dbee9d4f60e01b8152600490fd5b50600154604051632cc52b1560e11b815233600482015290602090829060249082906001600160a01b03165afa9081156110fe57839161210c575b5015611f59565b612124915060203d8111610ada57610acc8183613488565b38612105565b5034610dee576020366003190112610dee57612144612f9b565b600154604051632cc52b1560e11b81526001600160a01b0392831660048201529160209183916024918391165afa9081156109fd576020929161218c57506040519015158152f35b6121a39150823d8111610ada57610acc8183613488565b38611276565b5034610dee5780600319360112610dee576020600454604051908152f35b5034610dee5780600319360112610dee576020600554604051908152f35b5034610dee576040366003190112610dee5760066040612203612fb1565b926004358152600c60205220019060018060a01b03166000526020526020604060002054604051908152f35b5034610dee576020366003190112610dee576020906040906001600160a01b03612257612f9b565b168152600683522054604051908152f35b5034610dee576020366003190112610dee5761229c60406114c99261228b613732565b506004358152601260205220613779565b60405191829160208352602083019061301e565b5034610dee5780600319360112610dee5760028054906122cf826134aa565b6122dc6040519182613488565b82815260209283820180938087527f405787fa12a823e0f2b7631cc41b3ba8828b3321ca811111fa75cd3aa3bb5ace9087925b84841061237d5750505050506040519280840191818552518092526040840192945b82811061233e5784840385f35b855180518552808301516001600160a01b0316858401526040808201519086015260609081015115159085015294810194608090930192600101612331565b60048860019260409b9a98999b516123948161346c565b86548152848060a01b0385880154168382015285870154604082015260ff60038801541615156060820152815201930193019291979594969761230f565b5034610dee576020366003190112610dee576004358152601260205260408120600c602052604082209060028101549160ff83166003811015612491579360a094158061247f575b156124665750600363ffffffff809460281c1692015492600761243d8585613660565b949392015416906001925b60405194855260208501526040840152606083015215156080820152f35b60079091015490925082915063ffffffff168180612448565b5063ffffffff8460281c16151561241a565b634e487b7160e01b85526021600452602485fd5b5034610dee576020366003190112610dee57604060e091600435815260126020522060018060a01b03815416906001810154906002810154600660038301549201549260405194855260208501526125036040850160ff8316612fc7565b63ffffffff90818160081c16606086015260281c16608084015260a083015260c0820152f35b5034610dee576040366003190112610dee576125436130cf565b8161254c612fb1565b60015490926001600160a01b0391821690813b15610a08578360449263ffffffff94604051978896879563086ecc7960e21b87521660048601521660248401525af180156109fd5761259c575080f35b6125a590613458565b80f35b5034610dee5760a0366003190112610dee57600435906125c66130a9565b916125cf6130bc565b60643563ffffffff93848216809203610dee576084359480861691828703610dee5783815260209760108952600383604084205416101561285957841580156127fb575b610d7157861561108d57821693604685118015906127f1575b610d4f57828616936001851080156127e7575b6127d557601e106127c357600b5487116127b15788973383526011895260408320548061277d575b509260407f8ba1d57fc445f76a3bc884cc60cc8f95f647f54b02d9b1bf1be78ba0b0bfa76896936126a898969361272c60ff97600c600d549e8f9d8e61325e565b600d558d8652528484206001810180546001600160a01b03191633179055600281018e905560038101805468ffffffffffffffffff19169099178955426004820155600781018054918e905567ffffffff000000001990981667ffffffffffffffff199091161760209190911b67ffffffff00000000161790955563ffffffff1994565b338252600e8d5261273f8a848420613616565b815260108c52209182549161275581841661364b565b1691161790555460401c169061277260405192839233978461359c565b0390a3604051908152f35b90969491939850829592526012895261279c6006604087200154613241565b4210610ce75792949188979238959295612667565b604051633e285ff160e21b8152600490fd5b604051633631f31d60e01b8152600490fd5b60405163053ec95560e11b8152600490fd5b50600c851161263f565b506064851161262c565b50600154604051632cc52b1560e11b8152336004820152908a90829060249082906001600160a01b03165afa9081156110fe57839161283c575b5015612613565b61285391508a3d8c11610ada57610acc8183613488565b38612835565b6040516370c9ad1b60e11b8152600490fd5b5034610dee576020366003190112610dee578061010060405161288d81613425565b8281528260208201528260408201528260608201528260808201528260a08201528260c0820152606060e082015201526004358152600c602052604081209081549160018060a01b036001820154169160028201549060038301549063ffffffff60ff8360401c16926004860154948260078801541697604051996129118b613425565b8a5260208a01526040890152818116606089015260201c16608087015260078210156129f1575060a085015260c084015261294e9060050161386f565b60e08301526101008201526040518091602082528051602083015260018060a01b0360208201511660408301526040810151606083015263ffffffff606082015116608083015263ffffffff60808201511660a08301526129b760a082015160c08401906130e2565b60c081015160e083015260e081015163ffffffff6101006129e56101209384838801526101408701906130ef565b93015116908301520390f35b634e487b7160e01b81526021600452602490fd5b5034610dee576040366003190112610dee57612a1f6130a9565b90612a286133cf565b63ffffffff8216158015612c77575b610d71576004358152600c602052604081206003810154606463ffffffff8260201c1614612c65576001820154336001600160a01b0390911603612c535760401c60ff1660078110156112b65760038114908115612c48575b50612c36578190825b6005820154811015612b6e57612ab281600584016131ef565b905460039190911b1c6001600160a01b03168085526006830160205260408520549081612aea575b5050612ae59061325e565b612a99565b612b2882612ae5949396600f60205260408920612b08838254613563565b9055838952600660205260408920612b21838254613251565b9055613251565b94818752600685016020528660408120556040519081527f03290469b25240cb85db34af1f3d3117d889b712a22ac0988f554f4f8e0ed919602060043592a39038612ada565b5060209260019163ffffffff861682526010855260408220805463ffffffff811680612c14575b5050506806000000000000000068ffffffffff0000000019600383015416178060038301557f8ba1d57fc445f76a3bc884cc60cc8f95f647f54b02d9b1bf1be78ba0b0bfa768612c0863ffffffff600760028601549501541693604051918291339660ff6004359760401c16918461359c565b0390a355604051908152f35b612c2263ffffffff91613570565b169063ffffffff1916179055858080612b95565b604051637023a7c560e11b8152600490fd5b600691501438612a90565b60405163c671f07960e01b8152600490fd5b6040516307d43ae160e31b8152600490fd5b50600154604051632cc52b1560e11b815233600482015290602090829060249082906001600160a01b03165afa9081156109fd578291612cb9575b5015612a37565b612cd1915060203d8111610ada57610acc8183613488565b38612cb2565b5034610dee576020806003193601126109f9576001600160a01b03919082612cfd612f9b565b16808352600e8252604083208054849291835b828110612ed65750612d21846134aa565b93612d2f6040519586613488565b808552601f19612d3e826134aa565b01875b818110612eb7575050612d53906136af565b968693875b848110612dd75750505050505060405193849260408401604085528351809152606085018260608360051b880101950196905b828210612da757505050836114c9949550830390850152612fea565b9193955091938480612dc5600193605f198c82030186528a5161301e565b98019201920187959391969492612d8b565b612de681859b99989a9b6131ef565b9054600391821b1c8b52601288528960408c2084868254161480612e87575b80612e71575b612e26575b505050612e1c9061325e565b9897959698612d58565b918891612e43612e1c959a612e3d612e6896613779565b926136e1565b52612e4e828d6136e1565b50612e5989886131ef565b9054911b1c610ba7828c6136e1565b95908938612e10565b5063ffffffff600282015460281c161515612e0b565b50905060ff60028201541682811015612ea357908b9115612e05565b634e487b7160e01b8d52602160045260248dfd5b968096989997612ec5613732565b82828c010152019897959698612d41565b612ee5818399979698996131ef565b9054600391821b1c895260128652604089208588825416149182612f50575b5081612f39575b50612f24575b612f1a9061325e565b9695939496612d10565b95612f31612f1a9161325e565b969050612f11565b63ffffffff91506002015460281c16151538612f0b565b90915060ff60028301541690811015612f6b57159038612f04565b634e487b7160e01b8a52602160045260248afd5b9050346109f957816003193601126109f957602090600a548152f35b600435906001600160a01b0382168203610e9857565b602435906001600160a01b0382168203610e9857565b906003821015612fd45752565b634e487b7160e01b600052602160045260246000fd5b90815180825260208080930193019160005b82811061300a575050505090565b835185529381019392810192600101612ffc565b9060018060a01b0382511681526020820151602082015261304760408301516040830190612fc7565b63ffffffff806060840151166060830152608083015116608082015260a082015160a082015261309b61308960c08401516101208060c0860152840190612fea565b60e084015183820360e0850152612fea565b916101008091015191015290565b6024359063ffffffff82168203610e9857565b6044359063ffffffff82168203610e9857565b6004359063ffffffff82168203610e9857565b906007821015612fd45752565b90815180825260208080930193019160005b82811061310f575050505090565b83516001600160a01b031685529381019392810192600101613101565b34610e98576000366003190112610e98576020600b54604051908152f35b34610e9857600080600319360112610dee576040516370a0823160e01b81523060048201526020816024817f00000000000000000000000000000000000000000000000000000000000000006001600160a01b03165afa9081156109fd5782916131ba575b602082604051908152f35b90506020813d82116131e7575b816131d460209383613488565b810103126109f9576020915051386131af565b3d91506131c7565b8054821015610a8a5760005260206000200190600090565b600254811015610a8a57600260005260021b7f405787fa12a823e0f2b7631cc41b3ba8828b3321ca811111fa75cd3aa3bb5ace0190600090565b9062278d008201809211610c9c57565b91908201809211610c9c57565b6000198114610c9c5760010190565b60029182549283156133c957600554916213c6808301809311610c9c5760049283541590816133be575b506133ad57600094855b858710806133a3575b15613354576132ec6132f2916132c08754613207565b506003810180549060ff82161580613348575b6132f8575b5050506132e5875461325e565b875561325e565b9661325e565b956132a1565b6001809260ff19161790557fcf08cfd581ae48e3e5053c3ddad657750a872d827972a57ca253b1ab4748b0bc60208984549360018060a01b039086015416940154604051908152a33880806132d8565b508883015442116132d3565b92506040939195507fb8ee613246caed01f690aebbf94b750e593f665c039c5b937631201512b63b97945081541015613396575b5482519182526020820152a1565b6000815542600555613388565b50818554106132aa565b604051636410c90760e01b81528390fd5b905042111538613297565b50915050565b6002600054146133e0576002600055565b60405162461bcd60e51b815260206004820152601f60248201527f5265656e7472616e637947756172643a207265656e7472616e742063616c6c006044820152606490fd5b610120810190811067ffffffffffffffff82111761344257604052565b634e487b7160e01b600052604160045260246000fd5b67ffffffffffffffff811161344257604052565b6080810190811067ffffffffffffffff82111761344257604052565b90601f8019910116810190811067ffffffffffffffff82111761344257604052565b67ffffffffffffffff81116134425760051b60200190565b6002541580156134f8575b6134f257600052600360205260ff60036134eb604060002054613207565b5001541690565b50600090565b816000526003602052604060002054159081613515575b506134cd565b9050610a8a576002600052807f405787fa12a823e0f2b7631cc41b3ba8828b3321ca811111fa75cd3aa3bb5ace5414153861350f565b90816020910312610e9857518015158103610e985790565b91908203918211610c9c57565b63ffffffff9081166000190191908211610c9c57565b63ffffffff9182169082160391908211610c9c57565b60409063ffffffff6135c094969593966060830197835216602082015201906130e2565b565b60018060a01b03166000526006602052604060002054600f6020526040600020548082116135f1575050600090565b6135fa91613563565b90565b90816020910312610e9857518060030b8103610e985790565b8054600160401b81101561344257613633916001820181556131ef565b819291549060031b91821b91600019901b1916179055565b90600163ffffffff80931601918211610c9c57565b81810292918115918404141715610c9c57565b811561367d570490565b634e487b7160e01b600052601260045260246000fd5b90816020910312610e98575163ffffffff81168103610e985790565b906136b9826134aa565b6136c66040519182613488565b82815280926136d7601f19916134aa565b0190602036910137565b8051821015610a8a5760209160051b010190565b90815480825260208092019260005281600020916000905b82821061371b575050505090565b83548552938401936001938401939091019061370d565b6040519061373f82613425565b816101006000918281528260208201528260408201528260608201528260808201528260a0820152606060c0820152606060e08201520152565b9060405161378681613425565b82546001600160a01b03168152600183015460208201526002830154909283919060ff8216906003821015612fd45761010092600692604086015263ffffffff90818160081c16606087015260281c166080850152600381015460a08501526040516137f9816114ae81600486016136f5565b60c0850152604051613812816114ae81600586016136f5565b60e08501520154910152565b906000918252601260205260408220600281015460ff811660038110156124915715908161385c575b5061385157508190565b600301549150600190565b63ffffffff915060281c16151538613847565b9060405191828154918282526020928383019160005283600020936000905b8282106138a4575050506135c092500383613488565b85546001600160a01b03168452600195860195889550938101939091019061388e56fe8b094cca6f83d49402ce208cc0c224b76625ffc58636df56ae28024e704c5868a264697066735822122074895dc59299f9f0f5b20d8a39b26c8903bf5f6fa0662adcdb820d2672669bdd64736f6c63430008130033",
  "linkReferences": {},
  "deployedLinkReferences": {}
}