{
  "_format": "hh-sol-artifact-1",
  "contractName": "LoanMachine",
  "sourceName": "contracts/LoanMachine.sol",
  "abi": [
    {
      "inputs": [
        {
          "internalType": "address",
          "name": "_usdtToken",
          "type": "address"
        },
        {
          "internalType": "address",
          "name": "_reputationSystem",
          "type": "address"
        }
      ],
      "stateMutability": "nonpayable",
      "type": "constructor"
    },
    {
      "inputs": [],
      "name": "BorrowNotExpired",
      "type": "error"
    },
    {
      "inputs": [],
      "name": "ExcessiveDonation",
      "type": "error"
    },
    {
      "inputs": [],
      "name": "InsufficientDonationBalance",
      "type": "error"
    },
    {
      "inputs": [],
      "name": "InsufficientFunds",
      "type": "error"
    },
    {
      "inputs": [],
      "name": "InvalidAmount",
      "type": "error"
    },
    {
      "inputs": [],
      "name": "InvalidCoveragePercentage",
      "type": "error"
    },
    {
      "inputs": [],
      "name": "InvalidParcelsCount",
      "type": "error"
    },
    {
      "inputs": [],
      "name": "LoanNotAvailable",
      "type": "error"
    },
    {
      "inputs": [],
      "name": "MaxLoanRequisitionPendingReached",
      "type": "error"
    },
    {
      "inputs": [],
      "name": "MemberIdOrWalletInvalid",
      "type": "error"
    },
    {
      "inputs": [],
      "name": "MinimumDonationRequired",
      "type": "error"
    },
    {
      "inputs": [],
      "name": "NoActiveBorrowing",
      "type": "error"
    },
    {
      "inputs": [],
      "name": "OverCoverage",
      "type": "error"
    },
    {
      "inputs": [],
      "name": "ParcelAlreadyPaid",
      "type": "error"
    },
    {
      "inputs": [],
      "name": "RepaymentExceedsBorrowed",
      "type": "error"
    },
    {
      "inputs": [],
      "name": "TokenTransferFailed",
      "type": "error"
    },
    {
      "inputs": [],
      "name": "WalletAlreadyVinculated",
      "type": "error"
    },
    {
      "anonymous": false,
      "inputs": [
        {
          "indexed": false,
          "internalType": "uint256",
          "name": "total",
          "type": "uint256"
        }
      ],
      "name": "AvailableBalanceUpdated",
      "type": "event"
    },
    {
      "anonymous": false,
      "inputs": [
        {
          "indexed": true,
          "internalType": "address",
          "name": "borrower",
          "type": "address"
        }
      ],
      "name": "BorrowLimitReached",
      "type": "event"
    },
    {
      "anonymous": false,
      "inputs": [
        {
          "indexed": true,
          "internalType": "address",
          "name": "borrower",
          "type": "address"
        },
        {
          "indexed": false,
          "internalType": "uint256",
          "name": "amount",
          "type": "uint256"
        },
        {
          "indexed": false,
          "internalType": "uint256",
          "name": "totalBorrowing",
          "type": "uint256"
        }
      ],
      "name": "Borrowed",
      "type": "event"
    },
    {
      "anonymous": false,
      "inputs": [
        {
          "indexed": true,
          "internalType": "address",
          "name": "borrower",
          "type": "address"
        },
        {
          "indexed": false,
          "internalType": "enum DebtTracker.DebtStatus",
          "name": "newStatus",
          "type": "uint8"
        }
      ],
      "name": "BorrowerStatusUpdated",
      "type": "event"
    },
    {
      "anonymous": false,
      "inputs": [
        {
          "indexed": true,
          "internalType": "address",
          "name": "borrower",
          "type": "address"
        }
      ],
      "name": "DebtorAdded",
      "type": "event"
    },
    {
      "anonymous": false,
      "inputs": [
        {
          "indexed": true,
          "internalType": "address",
          "name": "borrower",
          "type": "address"
        }
      ],
      "name": "DebtorRemoved",
      "type": "event"
    },
    {
      "anonymous": false,
      "inputs": [
        {
          "indexed": true,
          "internalType": "address",
          "name": "donor",
          "type": "address"
        },
        {
          "indexed": false,
          "internalType": "uint256",
          "name": "amount",
          "type": "uint256"
        },
        {
          "indexed": false,
          "internalType": "uint256",
          "name": "totalDonation",
          "type": "uint256"
        }
      ],
      "name": "Donated",
      "type": "event"
    },
    {
      "anonymous": false,
      "inputs": [
        {
          "indexed": true,
          "internalType": "uint256",
          "name": "requisitionId",
          "type": "uint256"
        },
        {
          "indexed": true,
          "internalType": "address",
          "name": "lender",
          "type": "address"
        },
        {
          "indexed": false,
          "internalType": "uint256",
          "name": "amount",
          "type": "uint256"
        }
      ],
      "name": "LenderRepaid",
      "type": "event"
    },
    {
      "anonymous": false,
      "inputs": [
        {
          "indexed": true,
          "internalType": "uint256",
          "name": "requisitionId",
          "type": "uint256"
        }
      ],
      "name": "LoanCompleted",
      "type": "event"
    },
    {
      "anonymous": false,
      "inputs": [
        {
          "indexed": true,
          "internalType": "address",
          "name": "walletAddress",
          "type": "address"
        },
        {
          "indexed": true,
          "internalType": "uint256",
          "name": "requisitionId",
          "type": "uint256"
        },
        {
          "indexed": false,
          "internalType": "enum ILoanMachine.ContractStatus",
          "name": "status",
          "type": "uint8"
        },
        {
          "indexed": false,
          "internalType": "uint32",
          "name": "parcelsPending",
          "type": "uint32"
        },
        {
          "indexed": false,
          "internalType": "uint256",
          "name": "parcelsValues",
          "type": "uint256"
        },
        {
          "indexed": false,
          "internalType": "uint256[]",
          "name": "paymentDates",
          "type": "uint256[]"
        }
      ],
      "name": "LoanContractGenerated",
      "type": "event"
    },
    {
      "anonymous": false,
      "inputs": [
        {
          "indexed": true,
          "internalType": "uint256",
          "name": "requisitionId",
          "type": "uint256"
        },
        {
          "indexed": true,
          "internalType": "address",
          "name": "lender",
          "type": "address"
        },
        {
          "indexed": false,
          "internalType": "uint256",
          "name": "coverageAmount",
          "type": "uint256"
        }
      ],
      "name": "LoanCovered",
      "type": "event"
    },
    {
      "anonymous": false,
      "inputs": [
        {
          "indexed": true,
          "internalType": "uint256",
          "name": "requisitionId",
          "type": "uint256"
        }
      ],
      "name": "LoanFunded",
      "type": "event"
    },
    {
      "anonymous": false,
      "inputs": [
        {
          "indexed": true,
          "internalType": "uint256",
          "name": "requisitionId",
          "type": "uint256"
        },
        {
          "indexed": true,
          "internalType": "address",
          "name": "borrower",
          "type": "address"
        },
        {
          "indexed": false,
          "internalType": "uint256",
          "name": "amount",
          "type": "uint256"
        },
        {
          "indexed": false,
          "internalType": "uint32",
          "name": "parcelsCount",
          "type": "uint32"
        }
      ],
      "name": "LoanRequisitionCreated",
      "type": "event"
    },
    {
      "anonymous": false,
      "inputs": [
        {
          "indexed": false,
          "internalType": "uint256",
          "name": "timestamp",
          "type": "uint256"
        }
      ],
      "name": "MonthlyUpdateTriggered",
      "type": "event"
    },
    {
      "anonymous": false,
      "inputs": [
        {
          "indexed": true,
          "internalType": "address",
          "name": "borrower",
          "type": "address"
        }
      ],
      "name": "NewBorrower",
      "type": "event"
    },
    {
      "anonymous": false,
      "inputs": [
        {
          "indexed": true,
          "internalType": "address",
          "name": "donor",
          "type": "address"
        }
      ],
      "name": "NewDonor",
      "type": "event"
    },
    {
      "anonymous": false,
      "inputs": [
        {
          "indexed": true,
          "internalType": "uint256",
          "name": "requisitionId",
          "type": "uint256"
        },
        {
          "indexed": false,
          "internalType": "uint256",
          "name": "parcelsRemaining",
          "type": "uint256"
        }
      ],
      "name": "ParcelPaid",
      "type": "event"
    },
    {
      "anonymous": false,
      "inputs": [
        {
          "indexed": true,
          "internalType": "address",
          "name": "borrower",
          "type": "address"
        },
        {
          "indexed": false,
          "internalType": "uint256",
          "name": "amount",
          "type": "uint256"
        },
        {
          "indexed": false,
          "internalType": "uint256",
          "name": "remainingDebt",
          "type": "uint256"
        }
      ],
      "name": "Repaid",
      "type": "event"
    },
    {
      "anonymous": false,
      "inputs": [
        {
          "indexed": false,
          "internalType": "uint256",
          "name": "total",
          "type": "uint256"
        }
      ],
      "name": "TotalBorrowedUpdated",
      "type": "event"
    },
    {
      "anonymous": false,
      "inputs": [
        {
          "indexed": false,
          "internalType": "uint256",
          "name": "total",
          "type": "uint256"
        }
      ],
      "name": "TotalDonationsUpdated",
      "type": "event"
    },
    {
      "inputs": [
        {
          "internalType": "address[]",
          "name": "borrowers",
          "type": "address[]"
        }
      ],
      "name": "batchUpdateDebtStatus",
      "outputs": [],
      "stateMutability": "nonpayable",
      "type": "function"
    },
    {
      "inputs": [
        {
          "internalType": "address",
          "name": "",
          "type": "address"
        },
        {
          "internalType": "uint256",
          "name": "",
          "type": "uint256"
        }
      ],
      "name": "borrowerRequisitions",
      "outputs": [
        {
          "internalType": "uint256",
          "name": "",
          "type": "uint256"
        }
      ],
      "stateMutability": "view",
      "type": "function"
    },
    {
      "inputs": [
        {
          "internalType": "uint256",
          "name": "requisitionId",
          "type": "uint256"
        },
        {
          "internalType": "address",
          "name": "borrower",
          "type": "address"
        }
      ],
      "name": "canPayRequisition",
      "outputs": [
        {
          "internalType": "bool",
          "name": "",
          "type": "bool"
        }
      ],
      "stateMutability": "view",
      "type": "function"
    },
    {
      "inputs": [
        {
          "internalType": "address",
          "name": "_user",
          "type": "address"
        },
        {
          "internalType": "uint256",
          "name": "_amount",
          "type": "uint256"
        }
      ],
      "name": "canUserBorrow",
      "outputs": [
        {
          "internalType": "bool",
          "name": "",
          "type": "bool"
        }
      ],
      "stateMutability": "view",
      "type": "function"
    },
    {
      "inputs": [
        {
          "internalType": "uint256",
          "name": "requisitionId",
          "type": "uint256"
        },
        {
          "internalType": "uint32",
          "name": "coveragePercentage",
          "type": "uint32"
        },
        {
          "internalType": "uint32",
          "name": "memberId",
          "type": "uint32"
        }
      ],
      "name": "coverLoan",
      "outputs": [],
      "stateMutability": "nonpayable",
      "type": "function"
    },
    {
      "inputs": [
        {
          "internalType": "uint256",
          "name": "amount",
          "type": "uint256"
        },
        {
          "internalType": "uint32",
          "name": "minimumCoverage",
          "type": "uint32"
        },
        {
          "internalType": "uint256",
          "name": "durationDays",
          "type": "uint256"
        },
        {
          "internalType": "uint32",
          "name": "parcelscount",
          "type": "uint32"
        },
        {
          "internalType": "uint32",
          "name": "memberId",
          "type": "uint32"
        }
      ],
      "name": "createLoanRequisition",
      "outputs": [
        {
          "internalType": "uint256",
          "name": "",
          "type": "uint256"
        }
      ],
      "stateMutability": "nonpayable",
      "type": "function"
    },
    {
      "inputs": [
        {
          "internalType": "uint256",
          "name": "amount",
          "type": "uint256"
        },
        {
          "internalType": "uint32",
          "name": "memberId",
          "type": "uint32"
        }
      ],
      "name": "donate",
      "outputs": [],
      "stateMutability": "nonpayable",
      "type": "function"
    },
    {
      "inputs": [
        {
          "internalType": "address",
          "name": "borrower",
          "type": "address"
        }
      ],
      "name": "getActiveLoans",
      "outputs": [
        {
          "components": [
            {
              "internalType": "address",
              "name": "walletAddress",
              "type": "address"
            },
            {
              "internalType": "uint256",
              "name": "requisitionId",
              "type": "uint256"
            },
            {
              "internalType": "enum ILoanMachine.ContractStatus",
              "name": "status",
              "type": "uint8"
            },
            {
              "internalType": "uint32",
              "name": "parcelsCount",
              "type": "uint32"
            },
            {
              "internalType": "uint32",
              "name": "parcelsPending",
              "type": "uint32"
            },
            {
              "internalType": "uint256",
              "name": "parcelsValues",
              "type": "uint256"
            },
            {
              "internalType": "uint256[]",
              "name": "paymentDates",
              "type": "uint256[]"
            }
          ],
          "internalType": "struct ILoanMachine.LoanContract[]",
          "name": "activeLoans",
          "type": "tuple[]"
        },
        {
          "internalType": "uint256[]",
          "name": "requisitionIds",
          "type": "uint256[]"
        }
      ],
      "stateMutability": "view",
      "type": "function"
    },
    {
      "inputs": [
        {
          "internalType": "address",
          "name": "user",
          "type": "address"
        }
      ],
      "name": "getAllowance",
      "outputs": [
        {
          "internalType": "uint256",
          "name": "",
          "type": "uint256"
        }
      ],
      "stateMutability": "view",
      "type": "function"
    },
    {
      "inputs": [],
      "name": "getAvailableBalance",
      "outputs": [
        {
          "internalType": "uint256",
          "name": "",
          "type": "uint256"
        }
      ],
      "stateMutability": "view",
      "type": "function"
    },
    {
      "inputs": [],
      "name": "getAvailableBorrowAmount",
      "outputs": [
        {
          "internalType": "uint256",
          "name": "",
          "type": "uint256"
        }
      ],
      "stateMutability": "view",
      "type": "function"
    },
    {
      "inputs": [
        {
          "internalType": "address",
          "name": "borrower",
          "type": "address"
        }
      ],
      "name": "getBorrowerDebtStatus",
      "outputs": [
        {
          "internalType": "enum DebtTracker.DebtStatus",
          "name": "",
          "type": "uint8"
        }
      ],
      "stateMutability": "view",
      "type": "function"
    },
    {
      "inputs": [
        {
          "internalType": "address",
          "name": "borrower",
          "type": "address"
        }
      ],
      "name": "getBorrowerRequisitions",
      "outputs": [
        {
          "internalType": "uint256[]",
          "name": "",
          "type": "uint256[]"
        }
      ],
      "stateMutability": "view",
      "type": "function"
    },
    {
      "inputs": [],
      "name": "getBorrowersWithDebt",
      "outputs": [
        {
          "internalType": "address[]",
          "name": "",
          "type": "address[]"
        }
      ],
      "stateMutability": "view",
      "type": "function"
    },
    {
      "inputs": [],
      "name": "getBorrowersWithoutDebt",
      "outputs": [
        {
          "internalType": "address[]",
          "name": "",
          "type": "address[]"
        }
      ],
      "stateMutability": "view",
      "type": "function"
    },
    {
      "inputs": [
        {
          "internalType": "address",
          "name": "_user",
          "type": "address"
        }
      ],
      "name": "getBorrowing",
      "outputs": [
        {
          "internalType": "uint256",
          "name": "",
          "type": "uint256"
        }
      ],
      "stateMutability": "view",
      "type": "function"
    },
    {
      "inputs": [],
      "name": "getContractBalance",
      "outputs": [
        {
          "internalType": "uint256",
          "name": "",
          "type": "uint256"
        }
      ],
      "stateMutability": "view",
      "type": "function"
    },
    {
      "inputs": [
        {
          "internalType": "uint256",
          "name": "requisitionId",
          "type": "uint256"
        }
      ],
      "name": "getCoveringLenders",
      "outputs": [
        {
          "internalType": "address[]",
          "name": "",
          "type": "address[]"
        }
      ],
      "stateMutability": "view",
      "type": "function"
    },
    {
      "inputs": [
        {
          "internalType": "address",
          "name": "_user",
          "type": "address"
        }
      ],
      "name": "getDonation",
      "outputs": [
        {
          "internalType": "uint256",
          "name": "",
          "type": "uint256"
        }
      ],
      "stateMutability": "view",
      "type": "function"
    },
    {
      "inputs": [
        {
          "internalType": "address",
          "name": "lender",
          "type": "address"
        }
      ],
      "name": "getDonationsInCoverage",
      "outputs": [
        {
          "internalType": "uint256",
          "name": "",
          "type": "uint256"
        }
      ],
      "stateMutability": "view",
      "type": "function"
    },
    {
      "inputs": [
        {
          "internalType": "address",
          "name": "_user",
          "type": "address"
        }
      ],
      "name": "getLastBorrowTime",
      "outputs": [
        {
          "internalType": "uint256",
          "name": "",
          "type": "uint256"
        }
      ],
      "stateMutability": "view",
      "type": "function"
    },
    {
      "inputs": [
        {
          "internalType": "uint256",
          "name": "requisitionId",
          "type": "uint256"
        },
        {
          "internalType": "address",
          "name": "lender",
          "type": "address"
        }
      ],
      "name": "getLenderCoverage",
      "outputs": [
        {
          "internalType": "uint256",
          "name": "",
          "type": "uint256"
        }
      ],
      "stateMutability": "view",
      "type": "function"
    },
    {
      "inputs": [
        {
          "internalType": "uint256",
          "name": "requisitionId",
          "type": "uint256"
        }
      ],
      "name": "getLoanContract",
      "outputs": [
        {
          "components": [
            {
              "internalType": "address",
              "name": "walletAddress",
              "type": "address"
            },
            {
              "internalType": "uint256",
              "name": "requisitionId",
              "type": "uint256"
            },
            {
              "internalType": "enum ILoanMachine.ContractStatus",
              "name": "status",
              "type": "uint8"
            },
            {
              "internalType": "uint32",
              "name": "parcelsCount",
              "type": "uint32"
            },
            {
              "internalType": "uint32",
              "name": "parcelsPending",
              "type": "uint32"
            },
            {
              "internalType": "uint256",
              "name": "parcelsValues",
              "type": "uint256"
            },
            {
              "internalType": "uint256[]",
              "name": "paymentDates",
              "type": "uint256[]"
            }
          ],
          "internalType": "struct ILoanMachine.LoanContract",
          "name": "",
          "type": "tuple"
        }
      ],
      "stateMutability": "view",
      "type": "function"
    },
    {
      "inputs": [
        {
          "internalType": "address",
          "name": "wallet",
          "type": "address"
        }
      ],
      "name": "getMemberId",
      "outputs": [
        {
          "internalType": "uint32",
          "name": "",
          "type": "uint32"
        }
      ],
      "stateMutability": "view",
      "type": "function"
    },
    {
      "inputs": [
        {
          "internalType": "uint256",
          "name": "requisitionId",
          "type": "uint256"
        }
      ],
      "name": "getNextPaymentAmount",
      "outputs": [
        {
          "internalType": "uint256",
          "name": "paymentAmount",
          "type": "uint256"
        },
        {
          "internalType": "bool",
          "name": "canPay",
          "type": "bool"
        }
      ],
      "stateMutability": "view",
      "type": "function"
    },
    {
      "inputs": [
        {
          "internalType": "uint256",
          "name": "requisitionId",
          "type": "uint256"
        }
      ],
      "name": "getPaymentDates",
      "outputs": [
        {
          "internalType": "uint256[]",
          "name": "",
          "type": "uint256[]"
        }
      ],
      "stateMutability": "view",
      "type": "function"
    },
    {
      "inputs": [
        {
          "internalType": "uint256",
          "name": "requisitionId",
          "type": "uint256"
        }
      ],
      "name": "getRepaymentSummary",
      "outputs": [
        {
          "internalType": "uint256",
          "name": "totalRemainingDebt",
          "type": "uint256"
        },
        {
          "internalType": "uint256",
          "name": "nextPaymentAmount",
          "type": "uint256"
        },
        {
          "internalType": "uint256",
          "name": "parcelsRemaining",
          "type": "uint256"
        },
        {
          "internalType": "uint256",
          "name": "totalParcels",
          "type": "uint256"
        },
        {
          "internalType": "bool",
          "name": "isActive",
          "type": "bool"
        }
      ],
      "stateMutability": "view",
      "type": "function"
    },
    {
      "inputs": [
        {
          "internalType": "uint32",
          "name": "memberId",
          "type": "uint32"
        }
      ],
      "name": "getReputation",
      "outputs": [
        {
          "internalType": "int32",
          "name": "",
          "type": "int32"
        }
      ],
      "stateMutability": "view",
      "type": "function"
    },
    {
      "inputs": [
        {
          "internalType": "uint256",
          "name": "requisitionId",
          "type": "uint256"
        }
      ],
      "name": "getRequisitionInfo",
      "outputs": [
        {
          "components": [
            {
              "internalType": "uint256",
              "name": "requisitionId",
              "type": "uint256"
            },
            {
              "internalType": "address",
              "name": "borrower",
              "type": "address"
            },
            {
              "internalType": "uint256",
              "name": "amount",
              "type": "uint256"
            },
            {
              "internalType": "uint32",
              "name": "minimumCoverage",
              "type": "uint32"
            },
            {
              "internalType": "uint32",
              "name": "currentCoverage",
              "type": "uint32"
            },
            {
              "internalType": "enum ILoanMachine.BorrowStatus",
              "name": "status",
              "type": "uint8"
            },
            {
              "internalType": "uint256",
              "name": "durationDays",
              "type": "uint256"
            },
            {
              "internalType": "uint256",
              "name": "creationTime",
              "type": "uint256"
            },
            {
              "internalType": "address[]",
              "name": "coveringLenders",
              "type": "address[]"
            },
            {
              "internalType": "uint32",
              "name": "parcelsCount",
              "type": "uint32"
            }
          ],
          "internalType": "struct ILoanMachine.RequisitionInfo",
          "name": "",
          "type": "tuple"
        }
      ],
      "stateMutability": "view",
      "type": "function"
    },
    {
      "inputs": [],
      "name": "getTotalBorrowed",
      "outputs": [
        {
          "internalType": "uint256",
          "name": "",
          "type": "uint256"
        }
      ],
      "stateMutability": "view",
      "type": "function"
    },
    {
      "inputs": [],
      "name": "getTotalDonations",
      "outputs": [
        {
          "internalType": "uint256",
          "name": "",
          "type": "uint256"
        }
      ],
      "stateMutability": "view",
      "type": "function"
    },
    {
      "inputs": [],
      "name": "getUSDTBalance",
      "outputs": [
        {
          "internalType": "uint256",
          "name": "",
          "type": "uint256"
        }
      ],
      "stateMutability": "view",
      "type": "function"
    },
    {
      "inputs": [
        {
          "internalType": "address",
          "name": "borrower",
          "type": "address"
        }
      ],
      "name": "hasActiveDebt",
      "outputs": [
        {
          "internalType": "bool",
          "name": "",
          "type": "bool"
        }
      ],
      "stateMutability": "view",
      "type": "function"
    },
    {
      "inputs": [
        {
          "internalType": "address",
          "name": "borrower",
          "type": "address"
        }
      ],
      "name": "hasOverdueDebt",
      "outputs": [
        {
          "internalType": "bool",
          "name": "",
          "type": "bool"
        }
      ],
      "stateMutability": "view",
      "type": "function"
    },
    {
      "inputs": [
        {
          "internalType": "address",
          "name": "wallet",
          "type": "address"
        }
      ],
      "name": "isWalletVinculated",
      "outputs": [
        {
          "internalType": "bool",
          "name": "",
          "type": "bool"
        }
      ],
      "stateMutability": "view",
      "type": "function"
    },
    {
      "inputs": [
        {
          "internalType": "uint256",
          "name": "",
          "type": "uint256"
        }
      ],
      "name": "loanContracts",
      "outputs": [
        {
          "internalType": "address",
          "name": "walletAddress",
          "type": "address"
        },
        {
          "internalType": "uint256",
          "name": "requisitionId",
          "type": "uint256"
        },
        {
          "internalType": "enum ILoanMachine.ContractStatus",
          "name": "status",
          "type": "uint8"
        },
        {
          "internalType": "uint32",
          "name": "parcelsCount",
          "type": "uint32"
        },
        {
          "internalType": "uint32",
          "name": "parcelsPending",
          "type": "uint32"
        },
        {
          "internalType": "uint256",
          "name": "parcelsValues",
          "type": "uint256"
        }
      ],
      "stateMutability": "view",
      "type": "function"
    },
    {
      "inputs": [],
      "name": "nextMonthlyUpdate",
      "outputs": [
        {
          "internalType": "uint256",
          "name": "",
          "type": "uint256"
        }
      ],
      "stateMutability": "view",
      "type": "function"
    },
    {
      "inputs": [
        {
          "internalType": "uint256",
          "name": "requisitionId",
          "type": "uint256"
        },
        {
          "internalType": "uint256",
          "name": "amount",
          "type": "uint256"
        },
        {
          "internalType": "uint32",
          "name": "memberId",
          "type": "uint32"
        }
      ],
      "name": "repay",
      "outputs": [],
      "stateMutability": "nonpayable",
      "type": "function"
    },
    {
      "inputs": [],
      "name": "reputationSystem",
      "outputs": [
        {
          "internalType": "contract ReputationSystem",
          "name": "",
          "type": "address"
        }
      ],
      "stateMutability": "view",
      "type": "function"
    },
    {
      "inputs": [],
      "name": "requisitionCounter",
      "outputs": [
        {
          "internalType": "uint256",
          "name": "",
          "type": "uint256"
        }
      ],
      "stateMutability": "view",
      "type": "function"
    },
    {
      "inputs": [],
      "name": "shouldTriggerUpdate",
      "outputs": [
        {
          "internalType": "bool",
          "name": "",
          "type": "bool"
        }
      ],
      "stateMutability": "view",
      "type": "function"
    },
    {
      "inputs": [],
      "name": "triggerMonthlyUpdate",
      "outputs": [],
      "stateMutability": "nonpayable",
      "type": "function"
    },
    {
      "inputs": [
        {
          "internalType": "address",
          "name": "borrower",
          "type": "address"
        }
      ],
      "name": "updateBorrowerDebtStatus",
      "outputs": [],
      "stateMutability": "nonpayable",
      "type": "function"
    },
    {
      "inputs": [],
      "name": "usdtToken",
      "outputs": [
        {
          "internalType": "address",
          "name": "",
          "type": "address"
        }
      ],
      "stateMutability": "view",
      "type": "function"
    },
    {
      "inputs": [
        {
          "internalType": "uint32",
          "name": "memberId",
          "type": "uint32"
        },
        {
          "internalType": "address",
          "name": "wallet",
          "type": "address"
        }
      ],
      "name": "vinculationMemberToWallet",
      "outputs": [],
      "stateMutability": "nonpayable",
      "type": "function"
    }
  ],
  "bytecode": "0x60a034620000c857601f6200328338819003918201601f19168301916001600160401b03831184841017620000cd578084926040948552833981010312620000c8576200005a60206200005283620000e3565b9201620000e3565b6001600081905560809290925281546001600160a01b0319166001600160a01b0390911617905562278d006008554260075560405161318a9081620000f982396080518181816107c301528181610ca601528181610dca01528181611293015281816116d80152612bf70152f35b600080fd5b634e487b7160e01b600052604160045260246000fd5b51906001600160a01b0382168203620000c85756fe608060405260048036101561001357600080fd5b60003560e01c8063016c704f146129285780630307c4a11461290a57806303d1a1a1146126715780630bc2185314612609578063182d94b5146123b25780631b70ba3e146121f957806321bb31e414612186578063232869fa14612109578063291c31a714611d605780632b31c0221461204d5780633403c25d14611fd7578063383ab2ef14611f8f578063410a1d3214611f555780634e51c7df14611f0a578063598a562a14611ea75780636509a71014611e7b578063657eb03114611e415780636587eda114611e185780636f9fb98a146114a3578063777c658f14611dfa5780637910340014611d9d5780637d52437a14611d65578063809dab6a14611d6057806381db228414611cd9578063827cc0e514611c9f578063830efd3b14611c1357806384ddf5ea14611bf55780638a914a6314611bb35780639059f9ca1461150b5780639730872a146114a85780639785fac8146114a357806397c33519146113ad5780639e93201114611355578063a7af6947146112c2578063a98ad46c1461127d578063adceb101146111fa578063b9f0fec41461116d578063be5eb58014611133578063c269014b14611092578063ccdce44e14610fc4578063e276392414610d0d578063eb5a662e14610c5b578063ecb18b341461035c578063f0853e1d146102a95763f947a8a91461020c57600080fd5b3461029057600036600319011261029057600260405191636ecf807360e11b835282015260208160248173__$8a3883123a2a1b05b37447bdbb3fdcf5d3$__5af4801561029d57600090610266575b602090604051908152f35b506020813d8211610295575b8161027f60209383612d12565b81010312610290576020905161025b565b600080fd5b3d9150610272565b6040513d6000823e3d90fd5b50346102905760209081600319360112610290576102c5612a1d565b6040516315ffae5b60e21b81526002928101929092526001600160a01b03166024820152818160448173__$8a3883123a2a1b05b37447bdbb3fdcf5d3$__5af490811561029d57600091610326575b506040519061032281612a49565b8152f35b90508181813d8311610355575b61033d8183612d12565b81010312610290575160038110156102905738610314565b503d610333565b503461029057606036600319011261029057610376612b73565b63ffffffff610383612b99565b169081158015610bfb575b610bea5763ffffffff169081158015610be0575b610bcf576103ae612e1a565b8235600052601160205260406000206003810190815460ff8160401c166006811015610bba578015159081610bae575b50610b9d576103f88563ffffffff60649360201c16612e0d565b11610b8c5761040b846002830154612ec9565b670de0b6b3a764000090818102918183041490151715610adf5768056bc75e2d630fffff8101809111610adf5768056bc75e2d6310000090049333600052600b6020528460406000205410610b7b5733600052600b6020526040600020610473868254612dea565b9055336000526014602052604060002061048e868254612e0d565b905582549063ffffffff8260201c160163ffffffff8111610af45767ffffffff000000009060201b169067ffffffff0000000019161782556007810190336000528160205260406000205415610b22575b503360005260205260406000206104f7848254612e0d565b9055805463ffffffff811663ffffffff8260201c161015600014610b0957506802000000000000000060ff60401b19825416179055806000526015602052604060002063ffffffff19815416905582356000526016602052604060002060116020526105f8604060002060018060a01b036001820154166bffffffffffffffffffffffff60a01b8454161783558535600184015563ffffffff6002808501549260ff19841682870155600881019364ffffffff00855460081b169064ffffffffff191617828701556105ed838554168388019068ffffffff000000000082549160281b169068ffffffff00000000001916179055565b015491541690612edc565b60038201558335600052601160205263ffffffff6008604060002001541660005b8163ffffffff821610610a9157505060018060a01b038154167f5215406e88f26eed4728b9cdfc5d85cea75799101cb9387b528451e6e0878dec600283015460ff81169063ffffffff6003860154916040519361067581612a49565b845260281c1660208301526040820152608060608201528061069f88359589608084019101612efc565b0390a382356000526011602052604060002060018060a01b036001820154169081600052600a60205260ff60406000205416156109f9575b600360028201918254600c6020526106f56040600020918254612e0d565b90556107048354600f54612e0d565b600f556107148354601054612dea565b60105583600052600d60205242604060002055016803000000000000000060ff60401b1982541617905573__$8a3883123a2a1b05b37447bdbb3fdcf5d3$__803b156102905760006064916040519283809263e63dd53160e01b825260028b8301528760248301526303d1a1a13060201b1760401b60448301525af4801561029d576109ea575b50805460405163a9059cbb60e01b8152868101849052602481019190915260208160448160007f00000000000000000000000000000000000000000000000000000000000000006001600160a01b03165af190811561029d576000916109bb575b50156109aa5760407feae9cfbc77fdd40ca899f36b608256063b2bc9d8178b0220f7ad513e178d6730915483600052600c602052816000205482519182526020820152a27f17f13fd3f7c4712af33f1770ebcb822dd20a2dbc00850eab48d786623d97b9596020600f54604051908152a17f8b094cca6f83d49402ce208cc0c224b76625ffc58636df56ae28024e704c58686020601054604051908152a182357f9e71d2fb732e68272b7e74ecfd14638673c1d77e19a5d390a3ffff054d57c44b600080a25b600154604051636adf462560e11b81526001600160a01b0390911691906020818681865afa90811561029d5760009161097b575b50823b1561029057606460009283604051958694859363533dfa3560e01b85528a85015260030b6024840152600160448401525af1801561029d5761096c575b506040519081527f86b47e6e6c03d769c0bc5ffd06c682ea7d07089576d59230ec18ff64e71bffe7602033933592a36001600055005b61097590612caf565b38610936565b61099d915060203d6020116109a3575b6109958183612d12565b810190612dd1565b386108f6565b503d61098b565b60405163022e258160e11b81528590fd5b6109dd915060203d6020116109e3575b6109d58183612d12565b810190612d34565b386107fc565b503d6109cb565b6109f390612caf565b3861079b565b600954600160401b811015610a7c576001810180600955811015610a67577f6e1540171b6c0c960b71a7020d9f60077f6af931a8bbf590da0223dacf75c7af0180546001600160a01b031916831790556000828152600a60205260409020805460ff191660011790556106d7565b603286634e487b7160e01b6000525260246000fd5b604186634e487b7160e01b6000525260246000fd5b63ffffffff610a9f82612eb4565b1662278d009080820291820403610af45790610acb610ac363ffffffff9342612e0d565b888601612e7f565b1663ffffffff8114610adf57600101610619565b601186634e487b7160e01b6000525260246000fd5b601187634e487b7160e01b6000525260246000fd5b68ff00000000000000001916600160401b1790556108c2565b600601805490600160401b821015610b665790610b4491600182018155612c81565b81546001600160a01b0360039290921b91821b19163390911b179055386104df565b604187634e487b7160e01b6000525260246000fd5b604051630391acf160e61b81528690fd5b60405163955f95ad60e01b81528590fd5b6040516380b9cb0960e01b81528690fd5b600191501415386103de565b602187634e487b7160e01b6000525260246000fd5b60405163d1e95ed560e01b81528390fd5b50606482116103a2565b604051630cff23e760e01b81528390fd5b50600154604051632cc52b1560e11b8152338582015290602090829060249082906001600160a01b03165afa90811561029d57600091610c3d575b501561038e565b610c55915060203d81116109e3576109d58183612d12565b38610c36565b503461029057602090816003193601126102905781610c78612a1d565b604051636eb1769f60e11b81526001600160a01b0391821693810193909352306024840152829060449082907f0000000000000000000000000000000000000000000000000000000000000000165afa90811561029d57600091610ce0575b50604051908152f35b90508181813d8311610d06575b610cf78183612d12565b81010312610290575138610cd7565b503d610ced565b50346102905760403660031901126102905780359063ffffffff610d2f612b73565b16158015610f64575b610f55578115610f4657610d4a612e1a565b604051630c47ab3d60e21b815260209190828180610d6a30868301612d4c565b038173__$8a3883123a2a1b05b37447bdbb3fdcf5d3$__5af4801561029d57610f29575b50624c4b408311610f1a57604080516323b872dd60e01b81523383820190815230602082015291820185905290839082908190606001038160007f00000000000000000000000000000000000000000000000000000000000000006001600160a01b03165af190811561029d57600091610efd575b5015610eee57507f8b094cca6f83d49402ce208cc0c224b76625ffc58636df56ae28024e704c58689033600052600b815260406000207fdc6e73d4b36e22ab95945bd8833a5af96c950eb29d8d75c4aecffc987637aaab82825495808701845580600e54019081600e558060105401948560105554604051918252838201527f4928895ba6723e8e27b15f32e4c3054a1b6c7f8c03f133558d6fa42b3928d14c60403392a2604051908152a1604051908152a115610ec3575b6001600055005b337f072dafb6aabe3f02118bc607efbeaaa104d6b2009720c7b130f24ba418689c4b600080a2610ebc565b60405163022e258160e11b8152fd5b610f149150833d85116109e3576109d58183612d12565b38610e03565b6040516330fdf8db60e11b8152fd5b610f3f90833d85116109e3576109d58183612d12565b5038610d8e565b60405163162908e360e11b8152fd5b604051630cff23e760e01b8152fd5b50600154604051632cc52b1560e11b8152338382015290602090829060249082906001600160a01b03165afa90811561029d57600091610fa6575b5015610d38565b610fbe915060203d81116109e3576109d58183612d12565b38610f9f565b503461029057600036600319011261029057610fde612e1a565b604051630c47ab3d60e21b815260208180610ffb30868301612d4c565b038173__$8a3883123a2a1b05b37447bdbb3fdcf5d3$__5af490811561029d57600091611074575b5015611030576001600055005b60649060206040519162461bcd60e51b8352820152601a60248201527f4d6f6e74686c7920757064617465206e6f7420647565207965740000000000006044820152fd5b61108c915060203d81116109e3576109d58183612d12565b38611023565b5034610290576020908160031936011261029057816110af612a1d565b60015460405163c269014b60e01b81526001600160a01b039283169481019490945283916024918391165afa90811561029d576000916110f9575b5063ffffffff60405191168152f35b90508181813d831161112c575b6111108183612d12565b81010312610290575163ffffffff8116810361029057386110ea565b503d611106565b34610290576020366003190112610290576001600160a01b03611154612a1d565b16600052600c6020526020604060002054604051908152f35b503461029057602036600319011261029057611187612a1d565b9073__$8a3883123a2a1b05b37447bdbb3fdcf5d3$__90813b15610290576064600291600093604051958694859363e63dd53160e01b855284015260018060a01b031660248301526303d1a1a13060201b1760401b60448301525af4801561029d576111ef57005b6111f890612caf565b005b503461029057604036600319011261029057602090611217612a33565b90356000526016825260406000209060018060a01b03808354169116149081611263575b8161124c575b506040519015158152f35b63ffffffff91506002015460281c16151538611241565b905060ff60028201541661127681612a49565b159061123b565b34610290576000366003190112610290576040517f00000000000000000000000000000000000000000000000000000000000000006001600160a01b03168152602090f35b5034610290576020366003190112610290576112dc612a1d565b604051632de5e9bf60e01b81526002928101929092526001600160a01b0316602482015260208160448173__$8a3883123a2a1b05b37447bdbb3fdcf5d3$__5af4801561029d5760209160009161133857506040519015158152f35b61134f9150823d81116109e3576109d58183612d12565b38611241565b346102905760403660031901126102905761136e612a1d565b6001600160a01b03166000908152601360205260409020805460243591908210156102905760209161139f91612c81565b90546040519160031b1c8152f35b5034610290576040366003190112610290576113c7612a1d565b602435908115159182611496575b5081611458575b816113ef575b6020826040519015158152f35b6001600160a01b03166000818152600d6020526040902054909262093a808201925090821061144357504211801561142c575b60209150386113e2565b50600052600c602052602060406000205415611422565b601190634e487b7160e01b6000525260246000fd5b905060018060a01b038116600052600b602052620f424060406000205410801590611484575b906113dc565b50600c6020526040600020541561147e565b60105410159150386113d5565b612bca565b34610290576020366003190112610290576001600160a01b036114c9612a1d565b1660005260136020526115076114ec6114f3604060002060405192838092612efc565b0382612d12565b604051918291602083526020830190612b02565b0390f35b50346102905760603660031901126102905780359060249081359163ffffffff9182611535612b99565b169384158015611b54575b611b4457856000526020926016845260406000209033600052600c855260406000205415611b225781546001600160a01b0392903390841603611b33576002015460ff811661158e81612a49565b611b335760281c861615611b22576115a4612e1a565b604051630c47ab3d60e21b815273__$8a3883123a2a1b05b37447bdbb3fdcf5d3$__94908681806115d730828701612d4c565b0381895af4801561029d57611b05575b508315610f465788600052601686526040600020916002830198895489808260281c169160081c1603898111611af15761162390848601612c81565b905460039591861b1c421115611a555785600154169160405163a5118bf160e01b81528a818781875afa90811561029d57600091611a38575b50833b1561029057606460009283604051968794859363533dfa3560e01b85528b8501528b0b898401528160448401525af191821561029d578592611a29575b505b01548503611a1957604080516323b872dd60e01b8152338482019081523060208201529182018790529088908290819060600103816000897f0000000000000000000000000000000000000000000000000000000000000000165af190811561029d576000916119fc575b50156119ec5797969733600052600c8752604060002061172a868254612dea565b905561173885600f54612dea565b600f5561174785601054612e0d565b601055896000526011875260406000209160028301549660009960076006860195019a5b855481101561183a57808c8f8d6117ae8e6117a98f8f8f8f6117be9b61179091612c81565b9054911b1c169687600052855260406000205490612ec9565b612edc565b90816117c3575b50505050612e70565b61176b565b7fe3e6ae1e05f069d410556743894aacbb190c1431962422ebe8fcc642a467dd1691846000526014825260406000208054808311611832575b8261180691612dea565b905584600052600b82526040600020611820828254612e0d565b9055604051908152a3388f818e6117b5565b9150816117fc565b508c8a918d8a33600052600c8552604060002054604051918252858201527f1b8cd61ed43bec7c6bdad3a18ffee613f99c853d16c50678d248d879e1b4343860403392a280825460281c16837f406356ef25520b09e2ef87c5225167b4161ea4ab691e9434d6ee29eafcc83fc286604051848152a27f17f13fd3f7c4712af33f1770ebcb822dd20a2dbc00850eab48d786623d97b95985600f54604051908152a17f8b094cca6f83d49402ce208cc0c224b76625ffc58636df56ae28024e704c586885601054604051908152a1600019018181116119d857825468ffffffff0000000000191660289190911b68ffffffff0000000000161782558154908160281c16156119a2575b505050813b15610290576000926002926303d1a1a1606493604051978896879563e63dd53160e01b8752860152339085015230901b1760401b60448301525af4801561029d57611993576001600055005b61199c90612caf565b80610ebc565b60ff191660021790557f02ca5489b37dd363d1302bac719e8ee40e540ffbe8c12253570fea63e11cad71600080a2848080611942565b87601188634e487b7160e01b600052526000fd5b5060405163022e258160e11b8152fd5b611a139150883d8a116109e3576109d58183612d12565b38611709565b5060405163162908e360e11b8152fd5b611a3290612caf565b3861169c565b611a4f91508b3d8d116109a3576109958183612d12565b3861165c565b856001541691604051634e5ecf1360e01b81528a818781875afa90811561029d57600091611ad4575b50833b1561029057606460009283604051968794859363533dfa3560e01b85528b8501528b0b89840152600160448401525af191821561029d578592611ac5575b5061169e565b611ace90612caf565b38611abf565b611aeb91508b3d8d116109a3576109958183612d12565b38611a7e565b82601185634e487b7160e01b600052526000fd5b611b1b90873d89116109e3576109d58183612d12565b50386115e7565b604051630b5ab5bf60e41b81528490fd5b604051630b5ab5bf60e41b81528590fd5b50604051630cff23e760e01b8152fd5b50600154604051632cc52b1560e11b81523384820152906020908290869082906001600160a01b03165afa90811561029d57600091611b95575b5015611540565b611bad915060203d81116109e3576109d58183612d12565b38611b8e565b503461029057602036600319011261029057356000526011602052611507611be160066040600020016130fa565b604051918291602083526020830190612b36565b34610290576000366003190112610290576020601254604051908152f35b50346102905760003660031901126102905760026040519163404b48bf60e01b835282015260008160248173__$8a3883123a2a1b05b37447bdbb3fdcf5d3$__5af4801561029d5761150791600091611c7c575b50604051918291602083526020830190612b36565b611c9991503d806000833e611c918183612d12565b810190612f51565b38611c67565b34610290576020366003190112610290576001600160a01b03611cc0612a1d565b1660005260146020526020604060002054604051908152f35b503461029057602036600319011261029057602063ffffffff6024611cfc612b86565b600154604051632076c8a160e21b81529190931694810194909452839182906001600160a01b03165afa801561029d57602091600091611d43575b506040519060030b8152f35b611d5a9150823d81116109a3576109958183612d12565b38611d37565b612bac565b5034610290576020366003190112610290576114ec6114f3826115079335600052601660205260406000200160405192838092612efc565b50346102905760003660031901126102905760026040519163f28e2c2f60e01b835282015260208160248173__$8a3883123a2a1b05b37447bdbb3fdcf5d3$__5af4801561029d5760209160009161133857506040519015158152f35b34610290576000366003190112610290576020600e54604051908152f35b34610290576000366003190112610290576001546040516001600160a01b039091168152602090f35b34610290576020366003190112610290576001600160a01b03611e62612a1d565b16600052600d6020526020604060002054604051908152f35b503461029057602036600319011261029057611e99604091356130a8565b825191825215156020820152f35b5034610290576020366003190112610290576020611ec3612a1d565b600154604051632cc52b1560e11b81526001600160a01b039283169481019490945283916024918391165afa801561029d5760209160009161133857506040519015158152f35b503461029057604036600319011261029057611f24612a33565b9035600052601160205260076040600020019060018060a01b03166000526020526020604060002054604051908152f35b34610290576020366003190112610290576001600160a01b03611f76612a1d565b16600052600b6020526020604060002054604051908152f35b503461029057602036600319011261029057611fa9612fdb565b50356000526016602052611507611fc36040600020613026565b604051918291602083526020830190612a69565b503461029057602036600319011261029057611ff1612a1d565b604051630b79b0a160e21b81526002928101929092526001600160a01b0316602482015260208160448173__$8a3883123a2a1b05b37447bdbb3fdcf5d3$__5af4801561029d5760209160009161133857506040519015158152f35b50346102905760203660031901126102905735600052601660205260a06040600020601160205260406000209060028101549160ff831661208d81612a49565b15806120f7575b156120df57600363ffffffff809460281c169201549260086120b68585612ec9565b949392015416906001925b60405194855260208501526040840152606083015215156080820152f35b600801546000925082915063ffffffff1681806120c1565b5063ffffffff8360281c161515612094565b50346102905760203660031901126102905735600052601660205260c0604060002060018060a01b0381541690600181015490600281015490600360ff831691015492604051948552602085015261216081612a49565b604084015263ffffffff90818160081c16606085015260281c16608083015260a0820152f35b5034610290576040366003190112610290576121a0612b86565b6121a8612a33565b60015490916001600160a01b039182169190823b1561029057600063ffffffff936044938296604051988997889663086ecc7960e21b885216908601521660248401525af1801561029d576111ef57005b503461029057602036600319011261029057600061012060405161221c81612cd9565b8281528260208201528260408201528260608201528260808201528260a08201528260c08201528260e08201526060610100820152015280356000526011602052604060002080549060018060a01b03600182015416906002810154600382015460ff8160401c1663ffffffff87850154926005860154948260088801541697604051996122a98b612cd9565b8a5260208a01526040890152818116606089015260201c1660808701526006811015610bba5760a086015260c085015260e08401526122ea906006016130fa565b61010083015261012082015260405190602082528051602083015260018060a01b0360208201511660408301526040810151606083015263ffffffff606082015116608083015263ffffffff60808201511660a083015260a0810151600681101561239d5782935060c083015260c081015160e083015260e081015161010083015261010081015163ffffffff610120612391610140938483880152610160870190612b36565b93015116908301520390f35b602184634e487b7160e01b6000525260246000fd5b50346102905760a0366003190112610290578035906123cf612b73565b9160643563ffffffff80821680920361029057608435908082168092036102905781600052602095601587526003826040600020541610156125f8578215801561259a575b612589578415612578578116916046831180159061256e575b61255d57600184108015612553575b612542576010548511612531576012549561245687612e70565b601255866000526011885260406000209360018501336bffffffffffffffffffffffff60a01b825416179055866002860155600385019068ffffffffffffffffff198254161790556044359084015542600584015585600884019363ffffffff199486868254161790555533600052601387526124d7866040600020612e7f565b600052601586526040600020918254916124f2818416612eb4565b16911617905560405191825283820152817fde3b47cf7da95a3cc41b86cf8717ead8d56a76ee1590481c5c4dc4d8804c40c460403393a3604051908152f35b60405163356680b760e01b81528690fd5b60405163524eff2760e01b81528690fd5b50600c841161243c565b60405163d1e95ed560e01b81528690fd5b506064831161242d565b60405163162908e360e11b81528690fd5b604051630cff23e760e01b81528690fd5b50600154604051632cc52b1560e11b81523388820152908890829060249082906001600160a01b03165afa90811561029d576000916125db575b5015612414565b6125f29150883d8a116109e3576109d58183612d12565b386125d4565b604051635aad290f60e01b81528690fd5b503461029057600036600319011261029057600260405191637fd5e70b60e01b835282015260008160248173__$8a3883123a2a1b05b37447bdbb3fdcf5d3$__5af4801561029d5761150791600091611c7c5750604051918291602083526020830190612b36565b3461029057602080600319360112610290576001600160a01b039081612695612a1d565b16806000526013825260406000206000916000918054925b83811061287a57506126be84612f39565b956126cc6040519788612d12565b848752601f19806126dc87612f39565b0160005b81811061285f57505061270b6126f587612f39565b966127036040519889612d12565b808852612f39565b01368787013760009260005b85811061279757888888604051928391604083019360408452825180955260608401948160608260051b8701019401956000905b8282106127675750505083611507949550830390850152612b02565b9193955091938480612785600193605f198c82030186528a51612a69565b9801920192018795939196949261274b565b6127a481859a999a612c81565b9054600391821b1c60005260168a52604060002083858254161480612847575b80612831575b6127e2575b50506127da90612e70565b979697612717565b95612829916127f46127da9498613026565b6127fe838d613012565b52612809828c613012565b506128148888612c81565b9054911b1c612823828b613012565b52612e70565b94908a6127cf565b5063ffffffff600282015460281c1615156127ca565b5060ff60028201541661285981612a49565b156127c4565b9780999861286b612fdb565b82828c010152019897986126e0565b6128878183989798612c81565b90549060031b1c60005260168752604060002083878254161490816128f0575b816128d9575b506128c4575b6128bc90612e70565b9594956126ad565b936128d16128bc91612e70565b9490506128b3565b63ffffffff91506002015460281c161515886128ad565b905060ff60028201541661290381612a49565b15906128a7565b34610290576000366003190112610290576020600f54604051908152f35b50346102905760203660031901126102905767ffffffffffffffff9080358281116102905736602382011215610290578082013592831161029057602492600592368583861b850101116102905760009391939173__$8a3883123a2a1b05b37447bdbb3fdcf5d3$__936303d1a1a13060201b1760401b935b8681106129aa57005b80831b82018801356001600160a01b038116919082900361029057863b15610290576040519163e63dd53160e01b8352600286840152898301528560448301526000826064818a5af491821561029d57612a0992612a0e575b50612e70565b6129a1565b612a1790612caf565b38612a03565b600435906001600160a01b038216820361029057565b602435906001600160a01b038216820361029057565b60031115612a5357565b634e487b7160e01b600052602160045260246000fd5b80516001600160a01b03168252602080820151818401526040820151909160e084019183916101009160c09190612a9f81612a49565b604088015263ffffffff806060830151166060890152608082015116608088015260a081015160a088015201519460e060c082015285518094520193019160005b828110612aee575050505090565b835185529381019392810192600101612ae0565b90815180825260208080930193019160005b828110612b22575050505090565b835185529381019392810192600101612b14565b90815180825260208080930193019160005b828110612b56575050505090565b83516001600160a01b031685529381019392810192600101612b48565b6024359063ffffffff8216820361029057565b6004359063ffffffff8216820361029057565b6044359063ffffffff8216820361029057565b34610290576000366003190112610290576020601054604051908152f35b3461029057600080600319360112612c7e576040516370a0823160e01b81523060048201526020816024817f00000000000000000000000000000000000000000000000000000000000000006001600160a01b03165afa908115612c73578291612c3a575b602082604051908152f35b90506020813d8211612c6b575b81612c5460209383612d12565b81010312612c6757602091505138612c2f565b5080fd5b3d9150612c47565b6040513d84823e3d90fd5b80fd5b8054821015612c995760005260206000200190600090565b634e487b7160e01b600052603260045260246000fd5b67ffffffffffffffff8111612cc357604052565b634e487b7160e01b600052604160045260246000fd5b610140810190811067ffffffffffffffff821117612cc357604052565b60e0810190811067ffffffffffffffff821117612cc357604052565b90601f8019910116810190811067ffffffffffffffff821117612cc357604052565b90816020910312610290575180151581036102905790565b919091606081019260028252602093606085840152600954809152608083019060096000527f6e1540171b6c0c960b71a7020d9f60077f6af931a8bbf590da0223dacf75c7af9060005b87828210612db45750505050931b6303d1a1a117604090811b910152565b83546001600160a01b031685529093019260019283019201612d96565b9081602091031261029057518060030b81036102905790565b91908203918211612df757565b634e487b7160e01b600052601160045260246000fd5b91908201809211612df757565b600260005414612e2b576002600055565b60405162461bcd60e51b815260206004820152601f60248201527f5265656e7472616e637947756172643a207265656e7472616e742063616c6c006044820152606490fd5b6000198114612df75760010190565b8054600160401b811015612cc357612e9c91600182018155612c81565b819291549060031b91821b91600019901b1916179055565b90600163ffffffff80931601918211612df757565b81810292918115918404141715612df757565b8115612ee6570490565b634e487b7160e01b600052601260045260246000fd5b90815480825260208092019260005281600020916000905b828210612f22575050505090565b835485529384019360019384019390910190612f14565b67ffffffffffffffff8111612cc35760051b60200190565b60209081818403126102905780519067ffffffffffffffff821161029057019180601f84011215610290578251612f8781612f39565b93612f956040519586612d12565b818552838086019260051b820101928311610290578301905b828210612fbc575050505090565b81516001600160a01b0381168103610290578152908301908301612fae565b60405190612fe882612cf6565b606060c0836000808252806020830152806040830152808483015280608083015260a08201520152565b8051821015612c995760209160051b010190565b90600460c060405161303781612cf6565b6130a4819560018060a01b03815416835260018101546020840152600281015460ff811661306481612a49565b604085015263ffffffff90818160081c16606086015260281c166080840152600381015460a084015261309d6040518096819301612efc565b0384612d12565b0152565b60005260166020526040600020600281015460ff81166130c781612a49565b1590816130e7575b506130dd5750600090600090565b6003015490600190565b63ffffffff915060281c161515386130cf565b9060405191828154918282526020928383019160005283600020936000905b8282106131315750505061312f92500383612d12565b565b85546001600160a01b03168452600195860195889550938101939091019061311956fea2646970667358221220700a3e019f737bb4890f806b2a6b0115ebbe73b83a4405f8bf4278023c376c7964736f6c63430008130033",
  "linkReferences": {
    "contracts/libraries/DebtTracker.sol": {
      "DebtTracker": [
        {
          "length": 20,
          "start": 817
        },
        {
          "length": 20,
          "start": 1001
        },
        {
          "length": 20,
          "start": 2105
        },
        {
          "length": 20,
          "start": 3687
        },
        {
          "length": 20,
          "start": 4344
        },
        {
          "length": 20,
          "start": 4739
        },
        {
          "length": 20,
          "start": 5121
        },
        {
          "length": 20,
          "start": 5804
        },
        {
          "length": 20,
          "start": 7481
        },
        {
          "length": 20,
          "start": 7875
        },
        {
          "length": 20,
          "start": 8470
        },
        {
          "length": 20,
          "start": 10031
        },
        {
          "length": 20,
          "start": 10871
        }
      ]
    }
  },
  "deployedLinkReferences": {
    "contracts/libraries/DebtTracker.sol": {
      "DebtTracker": [
        {
          "length": 20,
          "start": 568
        },
        {
          "length": 20,
          "start": 752
        },
        {
          "length": 20,
          "start": 1856
        },
        {
          "length": 20,
          "start": 3438
        },
        {
          "length": 20,
          "start": 4095
        },
        {
          "length": 20,
          "start": 4490
        },
        {
          "length": 20,
          "start": 4872
        },
        {
          "length": 20,
          "start": 5555
        },
        {
          "length": 20,
          "start": 7232
        },
        {
          "length": 20,
          "start": 7626
        },
        {
          "length": 20,
          "start": 8221
        },
        {
          "length": 20,
          "start": 9782
        },
        {
          "length": 20,
          "start": 10622
        }
      ]
    }
  }
}