{
  "_format": "hh-sol-artifact-1",
  "contractName": "LoanMachine",
  "sourceName": "contracts/LoanMachine.sol",
  "abi": [
    {
      "inputs": [
        {
          "internalType": "address",
          "name": "_usdtToken",
          "type": "address"
        },
        {
          "internalType": "address",
          "name": "_reputationSystem",
          "type": "address"
        }
      ],
      "stateMutability": "nonpayable",
      "type": "constructor"
    },
    {
      "inputs": [],
      "name": "BorrowNotExpired",
      "type": "error"
    },
    {
      "inputs": [],
      "name": "ExcessiveDonation",
      "type": "error"
    },
    {
      "inputs": [],
      "name": "InsufficientDonationBalance",
      "type": "error"
    },
    {
      "inputs": [],
      "name": "InsufficientFunds",
      "type": "error"
    },
    {
      "inputs": [],
      "name": "InvalidAmount",
      "type": "error"
    },
    {
      "inputs": [],
      "name": "InvalidCoveragePercentage",
      "type": "error"
    },
    {
      "inputs": [],
      "name": "InvalidParcelsCount",
      "type": "error"
    },
    {
      "inputs": [],
      "name": "LoanNotAvailable",
      "type": "error"
    },
    {
      "inputs": [],
      "name": "MaxLoanRequisitionPendingReached",
      "type": "error"
    },
    {
      "inputs": [],
      "name": "MemberIdOrWalletInvalid",
      "type": "error"
    },
    {
      "inputs": [],
      "name": "MinimumDonationRequired",
      "type": "error"
    },
    {
      "inputs": [],
      "name": "MinimumPercentageCover",
      "type": "error"
    },
    {
      "inputs": [],
      "name": "NoActiveBorrowing",
      "type": "error"
    },
    {
      "inputs": [],
      "name": "OverCoverage",
      "type": "error"
    },
    {
      "inputs": [],
      "name": "ParcelAlreadyPaid",
      "type": "error"
    },
    {
      "inputs": [],
      "name": "RepaymentExceedsBorrowed",
      "type": "error"
    },
    {
      "inputs": [],
      "name": "TokenTransferFailed",
      "type": "error"
    },
    {
      "inputs": [],
      "name": "WalletAlreadyVinculated",
      "type": "error"
    },
    {
      "anonymous": false,
      "inputs": [
        {
          "indexed": false,
          "internalType": "uint256",
          "name": "total",
          "type": "uint256"
        }
      ],
      "name": "AvailableBalanceUpdated",
      "type": "event"
    },
    {
      "anonymous": false,
      "inputs": [
        {
          "indexed": true,
          "internalType": "address",
          "name": "borrower",
          "type": "address"
        }
      ],
      "name": "BorrowLimitReached",
      "type": "event"
    },
    {
      "anonymous": false,
      "inputs": [
        {
          "indexed": true,
          "internalType": "address",
          "name": "borrower",
          "type": "address"
        },
        {
          "indexed": false,
          "internalType": "uint256",
          "name": "amount",
          "type": "uint256"
        },
        {
          "indexed": false,
          "internalType": "uint256",
          "name": "totalBorrowing",
          "type": "uint256"
        }
      ],
      "name": "Borrowed",
      "type": "event"
    },
    {
      "anonymous": false,
      "inputs": [
        {
          "indexed": true,
          "internalType": "address",
          "name": "borrower",
          "type": "address"
        },
        {
          "indexed": false,
          "internalType": "enum DebtTracker.DebtStatus",
          "name": "newStatus",
          "type": "uint8"
        }
      ],
      "name": "BorrowerStatusUpdated",
      "type": "event"
    },
    {
      "anonymous": false,
      "inputs": [
        {
          "indexed": true,
          "internalType": "address",
          "name": "borrower",
          "type": "address"
        }
      ],
      "name": "DebtorAdded",
      "type": "event"
    },
    {
      "anonymous": false,
      "inputs": [
        {
          "indexed": true,
          "internalType": "address",
          "name": "borrower",
          "type": "address"
        }
      ],
      "name": "DebtorRemoved",
      "type": "event"
    },
    {
      "anonymous": false,
      "inputs": [
        {
          "indexed": true,
          "internalType": "address",
          "name": "donor",
          "type": "address"
        },
        {
          "indexed": false,
          "internalType": "uint256",
          "name": "amount",
          "type": "uint256"
        },
        {
          "indexed": false,
          "internalType": "uint256",
          "name": "totalDonation",
          "type": "uint256"
        }
      ],
      "name": "Donated",
      "type": "event"
    },
    {
      "anonymous": false,
      "inputs": [
        {
          "indexed": true,
          "internalType": "uint256",
          "name": "requisitionId",
          "type": "uint256"
        },
        {
          "indexed": true,
          "internalType": "address",
          "name": "lender",
          "type": "address"
        },
        {
          "indexed": false,
          "internalType": "uint256",
          "name": "amount",
          "type": "uint256"
        }
      ],
      "name": "LenderRepaid",
      "type": "event"
    },
    {
      "anonymous": false,
      "inputs": [
        {
          "indexed": true,
          "internalType": "uint256",
          "name": "requisitionId",
          "type": "uint256"
        }
      ],
      "name": "LoanCompleted",
      "type": "event"
    },
    {
      "anonymous": false,
      "inputs": [
        {
          "indexed": true,
          "internalType": "address",
          "name": "walletAddress",
          "type": "address"
        },
        {
          "indexed": true,
          "internalType": "uint256",
          "name": "requisitionId",
          "type": "uint256"
        },
        {
          "indexed": false,
          "internalType": "enum ILoanMachine.ContractStatus",
          "name": "status",
          "type": "uint8"
        },
        {
          "indexed": false,
          "internalType": "uint32",
          "name": "parcelsPending",
          "type": "uint32"
        },
        {
          "indexed": false,
          "internalType": "uint256",
          "name": "parcelsValues",
          "type": "uint256"
        },
        {
          "indexed": false,
          "internalType": "uint256[]",
          "name": "paymentDates",
          "type": "uint256[]"
        }
      ],
      "name": "LoanContractGenerated",
      "type": "event"
    },
    {
      "anonymous": false,
      "inputs": [
        {
          "indexed": true,
          "internalType": "uint256",
          "name": "requisitionId",
          "type": "uint256"
        },
        {
          "indexed": true,
          "internalType": "address",
          "name": "lender",
          "type": "address"
        },
        {
          "indexed": false,
          "internalType": "uint256",
          "name": "coverageAmount",
          "type": "uint256"
        }
      ],
      "name": "LoanCovered",
      "type": "event"
    },
    {
      "anonymous": false,
      "inputs": [
        {
          "indexed": true,
          "internalType": "uint256",
          "name": "requisitionId",
          "type": "uint256"
        }
      ],
      "name": "LoanFunded",
      "type": "event"
    },
    {
      "anonymous": false,
      "inputs": [
        {
          "indexed": true,
          "internalType": "uint256",
          "name": "requisitionId",
          "type": "uint256"
        },
        {
          "indexed": true,
          "internalType": "address",
          "name": "borrower",
          "type": "address"
        },
        {
          "indexed": false,
          "internalType": "uint256",
          "name": "amount",
          "type": "uint256"
        },
        {
          "indexed": false,
          "internalType": "uint32",
          "name": "parcelsCount",
          "type": "uint32"
        }
      ],
      "name": "LoanRequisitionCreated",
      "type": "event"
    },
    {
      "anonymous": false,
      "inputs": [
        {
          "indexed": false,
          "internalType": "uint256",
          "name": "timestamp",
          "type": "uint256"
        }
      ],
      "name": "MonthlyUpdateTriggered",
      "type": "event"
    },
    {
      "anonymous": false,
      "inputs": [
        {
          "indexed": true,
          "internalType": "address",
          "name": "borrower",
          "type": "address"
        }
      ],
      "name": "NewBorrower",
      "type": "event"
    },
    {
      "anonymous": false,
      "inputs": [
        {
          "indexed": true,
          "internalType": "address",
          "name": "donor",
          "type": "address"
        }
      ],
      "name": "NewDonor",
      "type": "event"
    },
    {
      "anonymous": false,
      "inputs": [
        {
          "indexed": true,
          "internalType": "uint256",
          "name": "requisitionId",
          "type": "uint256"
        },
        {
          "indexed": false,
          "internalType": "uint256",
          "name": "parcelsRemaining",
          "type": "uint256"
        }
      ],
      "name": "ParcelPaid",
      "type": "event"
    },
    {
      "anonymous": false,
      "inputs": [
        {
          "indexed": true,
          "internalType": "address",
          "name": "borrower",
          "type": "address"
        },
        {
          "indexed": false,
          "internalType": "uint256",
          "name": "amount",
          "type": "uint256"
        },
        {
          "indexed": false,
          "internalType": "uint256",
          "name": "remainingDebt",
          "type": "uint256"
        }
      ],
      "name": "Repaid",
      "type": "event"
    },
    {
      "anonymous": false,
      "inputs": [
        {
          "indexed": false,
          "internalType": "uint256",
          "name": "total",
          "type": "uint256"
        }
      ],
      "name": "TotalBorrowedUpdated",
      "type": "event"
    },
    {
      "anonymous": false,
      "inputs": [
        {
          "indexed": false,
          "internalType": "uint256",
          "name": "total",
          "type": "uint256"
        }
      ],
      "name": "TotalDonationsUpdated",
      "type": "event"
    },
    {
      "inputs": [
        {
          "internalType": "address[]",
          "name": "borrowers",
          "type": "address[]"
        }
      ],
      "name": "batchUpdateDebtStatus",
      "outputs": [],
      "stateMutability": "nonpayable",
      "type": "function"
    },
    {
      "inputs": [
        {
          "internalType": "address",
          "name": "",
          "type": "address"
        },
        {
          "internalType": "uint256",
          "name": "",
          "type": "uint256"
        }
      ],
      "name": "borrowerRequisitions",
      "outputs": [
        {
          "internalType": "uint256",
          "name": "",
          "type": "uint256"
        }
      ],
      "stateMutability": "view",
      "type": "function"
    },
    {
      "inputs": [
        {
          "internalType": "uint256",
          "name": "requisitionId",
          "type": "uint256"
        },
        {
          "internalType": "address",
          "name": "borrower",
          "type": "address"
        }
      ],
      "name": "canPayRequisition",
      "outputs": [
        {
          "internalType": "bool",
          "name": "",
          "type": "bool"
        }
      ],
      "stateMutability": "view",
      "type": "function"
    },
    {
      "inputs": [
        {
          "internalType": "address",
          "name": "_user",
          "type": "address"
        },
        {
          "internalType": "uint256",
          "name": "_amount",
          "type": "uint256"
        }
      ],
      "name": "canUserBorrow",
      "outputs": [
        {
          "internalType": "bool",
          "name": "",
          "type": "bool"
        }
      ],
      "stateMutability": "view",
      "type": "function"
    },
    {
      "inputs": [
        {
          "internalType": "uint256",
          "name": "requisitionId",
          "type": "uint256"
        },
        {
          "internalType": "uint32",
          "name": "coveragePercentage",
          "type": "uint32"
        },
        {
          "internalType": "uint32",
          "name": "memberId",
          "type": "uint32"
        }
      ],
      "name": "coverLoan",
      "outputs": [],
      "stateMutability": "nonpayable",
      "type": "function"
    },
    {
      "inputs": [
        {
          "internalType": "uint256",
          "name": "amount",
          "type": "uint256"
        },
        {
          "internalType": "uint32",
          "name": "minimumCoverage",
          "type": "uint32"
        },
        {
          "internalType": "uint256",
          "name": "durationDays",
          "type": "uint256"
        },
        {
          "internalType": "uint32",
          "name": "parcelscount",
          "type": "uint32"
        },
        {
          "internalType": "uint32",
          "name": "memberId",
          "type": "uint32"
        }
      ],
      "name": "createLoanRequisition",
      "outputs": [
        {
          "internalType": "uint256",
          "name": "",
          "type": "uint256"
        }
      ],
      "stateMutability": "nonpayable",
      "type": "function"
    },
    {
      "inputs": [
        {
          "internalType": "uint256",
          "name": "amount",
          "type": "uint256"
        },
        {
          "internalType": "uint32",
          "name": "memberId",
          "type": "uint32"
        }
      ],
      "name": "donate",
      "outputs": [],
      "stateMutability": "nonpayable",
      "type": "function"
    },
    {
      "inputs": [
        {
          "internalType": "address",
          "name": "borrower",
          "type": "address"
        }
      ],
      "name": "getActiveLoans",
      "outputs": [
        {
          "components": [
            {
              "internalType": "address",
              "name": "walletAddress",
              "type": "address"
            },
            {
              "internalType": "uint256",
              "name": "requisitionId",
              "type": "uint256"
            },
            {
              "internalType": "enum ILoanMachine.ContractStatus",
              "name": "status",
              "type": "uint8"
            },
            {
              "internalType": "uint32",
              "name": "parcelsCount",
              "type": "uint32"
            },
            {
              "internalType": "uint32",
              "name": "parcelsPending",
              "type": "uint32"
            },
            {
              "internalType": "uint256",
              "name": "parcelsValues",
              "type": "uint256"
            },
            {
              "internalType": "uint256[]",
              "name": "paymentDates",
              "type": "uint256[]"
            }
          ],
          "internalType": "struct ILoanMachine.LoanContract[]",
          "name": "activeLoans",
          "type": "tuple[]"
        },
        {
          "internalType": "uint256[]",
          "name": "requisitionIds",
          "type": "uint256[]"
        }
      ],
      "stateMutability": "view",
      "type": "function"
    },
    {
      "inputs": [
        {
          "internalType": "address",
          "name": "user",
          "type": "address"
        }
      ],
      "name": "getAllowance",
      "outputs": [
        {
          "internalType": "uint256",
          "name": "",
          "type": "uint256"
        }
      ],
      "stateMutability": "view",
      "type": "function"
    },
    {
      "inputs": [],
      "name": "getAvailableBalance",
      "outputs": [
        {
          "internalType": "uint256",
          "name": "",
          "type": "uint256"
        }
      ],
      "stateMutability": "view",
      "type": "function"
    },
    {
      "inputs": [],
      "name": "getAvailableBorrowAmount",
      "outputs": [
        {
          "internalType": "uint256",
          "name": "",
          "type": "uint256"
        }
      ],
      "stateMutability": "view",
      "type": "function"
    },
    {
      "inputs": [
        {
          "internalType": "address",
          "name": "borrower",
          "type": "address"
        }
      ],
      "name": "getBorrowerDebtStatus",
      "outputs": [
        {
          "internalType": "enum DebtTracker.DebtStatus",
          "name": "",
          "type": "uint8"
        }
      ],
      "stateMutability": "view",
      "type": "function"
    },
    {
      "inputs": [
        {
          "internalType": "address",
          "name": "borrower",
          "type": "address"
        }
      ],
      "name": "getBorrowerRequisitions",
      "outputs": [
        {
          "internalType": "uint256[]",
          "name": "",
          "type": "uint256[]"
        }
      ],
      "stateMutability": "view",
      "type": "function"
    },
    {
      "inputs": [],
      "name": "getBorrowersWithDebt",
      "outputs": [
        {
          "internalType": "address[]",
          "name": "",
          "type": "address[]"
        }
      ],
      "stateMutability": "view",
      "type": "function"
    },
    {
      "inputs": [],
      "name": "getBorrowersWithoutDebt",
      "outputs": [
        {
          "internalType": "address[]",
          "name": "",
          "type": "address[]"
        }
      ],
      "stateMutability": "view",
      "type": "function"
    },
    {
      "inputs": [
        {
          "internalType": "address",
          "name": "_user",
          "type": "address"
        }
      ],
      "name": "getBorrowing",
      "outputs": [
        {
          "internalType": "uint256",
          "name": "",
          "type": "uint256"
        }
      ],
      "stateMutability": "view",
      "type": "function"
    },
    {
      "inputs": [],
      "name": "getContractBalance",
      "outputs": [
        {
          "internalType": "uint256",
          "name": "",
          "type": "uint256"
        }
      ],
      "stateMutability": "view",
      "type": "function"
    },
    {
      "inputs": [
        {
          "internalType": "uint256",
          "name": "requisitionId",
          "type": "uint256"
        }
      ],
      "name": "getCoveringLenders",
      "outputs": [
        {
          "internalType": "address[]",
          "name": "",
          "type": "address[]"
        }
      ],
      "stateMutability": "view",
      "type": "function"
    },
    {
      "inputs": [
        {
          "internalType": "address",
          "name": "_user",
          "type": "address"
        }
      ],
      "name": "getDonation",
      "outputs": [
        {
          "internalType": "uint256",
          "name": "",
          "type": "uint256"
        }
      ],
      "stateMutability": "view",
      "type": "function"
    },
    {
      "inputs": [
        {
          "internalType": "address",
          "name": "lender",
          "type": "address"
        }
      ],
      "name": "getDonationsInCoverage",
      "outputs": [
        {
          "internalType": "uint256",
          "name": "",
          "type": "uint256"
        }
      ],
      "stateMutability": "view",
      "type": "function"
    },
    {
      "inputs": [
        {
          "internalType": "address",
          "name": "_user",
          "type": "address"
        }
      ],
      "name": "getLastBorrowTime",
      "outputs": [
        {
          "internalType": "uint256",
          "name": "",
          "type": "uint256"
        }
      ],
      "stateMutability": "view",
      "type": "function"
    },
    {
      "inputs": [
        {
          "internalType": "uint256",
          "name": "requisitionId",
          "type": "uint256"
        },
        {
          "internalType": "address",
          "name": "lender",
          "type": "address"
        }
      ],
      "name": "getLenderCoverage",
      "outputs": [
        {
          "internalType": "uint256",
          "name": "",
          "type": "uint256"
        }
      ],
      "stateMutability": "view",
      "type": "function"
    },
    {
      "inputs": [
        {
          "internalType": "uint256",
          "name": "requisitionId",
          "type": "uint256"
        }
      ],
      "name": "getLoanContract",
      "outputs": [
        {
          "components": [
            {
              "internalType": "address",
              "name": "walletAddress",
              "type": "address"
            },
            {
              "internalType": "uint256",
              "name": "requisitionId",
              "type": "uint256"
            },
            {
              "internalType": "enum ILoanMachine.ContractStatus",
              "name": "status",
              "type": "uint8"
            },
            {
              "internalType": "uint32",
              "name": "parcelsCount",
              "type": "uint32"
            },
            {
              "internalType": "uint32",
              "name": "parcelsPending",
              "type": "uint32"
            },
            {
              "internalType": "uint256",
              "name": "parcelsValues",
              "type": "uint256"
            },
            {
              "internalType": "uint256[]",
              "name": "paymentDates",
              "type": "uint256[]"
            }
          ],
          "internalType": "struct ILoanMachine.LoanContract",
          "name": "",
          "type": "tuple"
        }
      ],
      "stateMutability": "view",
      "type": "function"
    },
    {
      "inputs": [
        {
          "internalType": "address",
          "name": "wallet",
          "type": "address"
        }
      ],
      "name": "getMemberId",
      "outputs": [
        {
          "internalType": "uint32",
          "name": "",
          "type": "uint32"
        }
      ],
      "stateMutability": "view",
      "type": "function"
    },
    {
      "inputs": [
        {
          "internalType": "uint256",
          "name": "requisitionId",
          "type": "uint256"
        }
      ],
      "name": "getNextPaymentAmount",
      "outputs": [
        {
          "internalType": "uint256",
          "name": "paymentAmount",
          "type": "uint256"
        },
        {
          "internalType": "bool",
          "name": "canPay",
          "type": "bool"
        }
      ],
      "stateMutability": "view",
      "type": "function"
    },
    {
      "inputs": [
        {
          "internalType": "uint256",
          "name": "requisitionId",
          "type": "uint256"
        }
      ],
      "name": "getPaymentDates",
      "outputs": [
        {
          "internalType": "uint256[]",
          "name": "",
          "type": "uint256[]"
        }
      ],
      "stateMutability": "view",
      "type": "function"
    },
    {
      "inputs": [
        {
          "internalType": "uint256",
          "name": "requisitionId",
          "type": "uint256"
        }
      ],
      "name": "getRepaymentSummary",
      "outputs": [
        {
          "internalType": "uint256",
          "name": "totalRemainingDebt",
          "type": "uint256"
        },
        {
          "internalType": "uint256",
          "name": "nextPaymentAmount",
          "type": "uint256"
        },
        {
          "internalType": "uint256",
          "name": "parcelsRemaining",
          "type": "uint256"
        },
        {
          "internalType": "uint256",
          "name": "totalParcels",
          "type": "uint256"
        },
        {
          "internalType": "bool",
          "name": "isActive",
          "type": "bool"
        }
      ],
      "stateMutability": "view",
      "type": "function"
    },
    {
      "inputs": [
        {
          "internalType": "uint32",
          "name": "memberId",
          "type": "uint32"
        }
      ],
      "name": "getReputation",
      "outputs": [
        {
          "internalType": "int32",
          "name": "",
          "type": "int32"
        }
      ],
      "stateMutability": "view",
      "type": "function"
    },
    {
      "inputs": [
        {
          "internalType": "uint256",
          "name": "requisitionId",
          "type": "uint256"
        }
      ],
      "name": "getRequisitionInfo",
      "outputs": [
        {
          "components": [
            {
              "internalType": "uint256",
              "name": "requisitionId",
              "type": "uint256"
            },
            {
              "internalType": "address",
              "name": "borrower",
              "type": "address"
            },
            {
              "internalType": "uint256",
              "name": "amount",
              "type": "uint256"
            },
            {
              "internalType": "uint32",
              "name": "minimumCoverage",
              "type": "uint32"
            },
            {
              "internalType": "uint32",
              "name": "currentCoverage",
              "type": "uint32"
            },
            {
              "internalType": "enum ILoanMachine.BorrowStatus",
              "name": "status",
              "type": "uint8"
            },
            {
              "internalType": "uint256",
              "name": "durationDays",
              "type": "uint256"
            },
            {
              "internalType": "uint256",
              "name": "creationTime",
              "type": "uint256"
            },
            {
              "internalType": "address[]",
              "name": "coveringLenders",
              "type": "address[]"
            },
            {
              "internalType": "uint32",
              "name": "parcelsCount",
              "type": "uint32"
            }
          ],
          "internalType": "struct ILoanMachine.RequisitionInfo",
          "name": "",
          "type": "tuple"
        }
      ],
      "stateMutability": "view",
      "type": "function"
    },
    {
      "inputs": [],
      "name": "getTotalBorrowed",
      "outputs": [
        {
          "internalType": "uint256",
          "name": "",
          "type": "uint256"
        }
      ],
      "stateMutability": "view",
      "type": "function"
    },
    {
      "inputs": [],
      "name": "getTotalDonations",
      "outputs": [
        {
          "internalType": "uint256",
          "name": "",
          "type": "uint256"
        }
      ],
      "stateMutability": "view",
      "type": "function"
    },
    {
      "inputs": [],
      "name": "getUSDTBalance",
      "outputs": [
        {
          "internalType": "uint256",
          "name": "",
          "type": "uint256"
        }
      ],
      "stateMutability": "view",
      "type": "function"
    },
    {
      "inputs": [
        {
          "internalType": "address",
          "name": "borrower",
          "type": "address"
        }
      ],
      "name": "hasActiveDebt",
      "outputs": [
        {
          "internalType": "bool",
          "name": "",
          "type": "bool"
        }
      ],
      "stateMutability": "view",
      "type": "function"
    },
    {
      "inputs": [
        {
          "internalType": "address",
          "name": "borrower",
          "type": "address"
        }
      ],
      "name": "hasOverdueDebt",
      "outputs": [
        {
          "internalType": "bool",
          "name": "",
          "type": "bool"
        }
      ],
      "stateMutability": "view",
      "type": "function"
    },
    {
      "inputs": [
        {
          "internalType": "address",
          "name": "wallet",
          "type": "address"
        }
      ],
      "name": "isWalletVinculated",
      "outputs": [
        {
          "internalType": "bool",
          "name": "",
          "type": "bool"
        }
      ],
      "stateMutability": "view",
      "type": "function"
    },
    {
      "inputs": [
        {
          "internalType": "uint256",
          "name": "",
          "type": "uint256"
        }
      ],
      "name": "loanContracts",
      "outputs": [
        {
          "internalType": "address",
          "name": "walletAddress",
          "type": "address"
        },
        {
          "internalType": "uint256",
          "name": "requisitionId",
          "type": "uint256"
        },
        {
          "internalType": "enum ILoanMachine.ContractStatus",
          "name": "status",
          "type": "uint8"
        },
        {
          "internalType": "uint32",
          "name": "parcelsCount",
          "type": "uint32"
        },
        {
          "internalType": "uint32",
          "name": "parcelsPending",
          "type": "uint32"
        },
        {
          "internalType": "uint256",
          "name": "parcelsValues",
          "type": "uint256"
        }
      ],
      "stateMutability": "view",
      "type": "function"
    },
    {
      "inputs": [],
      "name": "nextMonthlyUpdate",
      "outputs": [
        {
          "internalType": "uint256",
          "name": "",
          "type": "uint256"
        }
      ],
      "stateMutability": "view",
      "type": "function"
    },
    {
      "inputs": [
        {
          "internalType": "uint256",
          "name": "requisitionId",
          "type": "uint256"
        },
        {
          "internalType": "uint256",
          "name": "amount",
          "type": "uint256"
        },
        {
          "internalType": "uint32",
          "name": "memberId",
          "type": "uint32"
        }
      ],
      "name": "repay",
      "outputs": [],
      "stateMutability": "nonpayable",
      "type": "function"
    },
    {
      "inputs": [],
      "name": "reputationSystem",
      "outputs": [
        {
          "internalType": "contract ReputationSystem",
          "name": "",
          "type": "address"
        }
      ],
      "stateMutability": "view",
      "type": "function"
    },
    {
      "inputs": [],
      "name": "requisitionCounter",
      "outputs": [
        {
          "internalType": "uint256",
          "name": "",
          "type": "uint256"
        }
      ],
      "stateMutability": "view",
      "type": "function"
    },
    {
      "inputs": [],
      "name": "shouldTriggerUpdate",
      "outputs": [
        {
          "internalType": "bool",
          "name": "",
          "type": "bool"
        }
      ],
      "stateMutability": "view",
      "type": "function"
    },
    {
      "inputs": [],
      "name": "triggerMonthlyUpdate",
      "outputs": [],
      "stateMutability": "nonpayable",
      "type": "function"
    },
    {
      "inputs": [
        {
          "internalType": "address",
          "name": "borrower",
          "type": "address"
        }
      ],
      "name": "updateBorrowerDebtStatus",
      "outputs": [],
      "stateMutability": "nonpayable",
      "type": "function"
    },
    {
      "inputs": [],
      "name": "usdtToken",
      "outputs": [
        {
          "internalType": "address",
          "name": "",
          "type": "address"
        }
      ],
      "stateMutability": "view",
      "type": "function"
    },
    {
      "inputs": [
        {
          "internalType": "uint32",
          "name": "memberId",
          "type": "uint32"
        },
        {
          "internalType": "address",
          "name": "wallet",
          "type": "address"
        }
      ],
      "name": "vinculationMemberToWallet",
      "outputs": [],
      "stateMutability": "nonpayable",
      "type": "function"
    }
  ],
  "bytecode": "0x60a034620000c857601f620031b738819003918201601f19168301916001600160401b03831184841017620000cd578084926040948552833981010312620000c8576200005a60206200005283620000e3565b9201620000e3565b6001600081905560809290925281546001600160a01b0319166001600160a01b0390911617905562278d00600855426007556040516130be9081620000f9823960805181818161080601528181610d1101528181610e34015281816112de015281816116f60152612b6d0152f35b600080fd5b634e487b7160e01b600052604160045260246000fd5b51906001600160a01b0382168203620000c85756fe6080604052600436101561001257600080fd5b60003560e01c8063016c704f146128b75780630307c4a11461289957806303d1a1a1146126005780630bc2185314612598578063182d94b51461236e5780631b70ba3e146121c657806321bb31e414612154578063232869fa146120d6578063291c31a714611d2c5780632b31c022146120195780633403c25d14611fa4578063383ab2ef14611f5b578063410a1d3214611f215780634e51c7df14611ed6578063598a562a14611e745780636509a71014611e48578063657eb03114611e0e5780636587eda114611de55780636f9fb98a146114ca578063777c658f14611dc75780637910340014611d6a5780637d52437a14611d31578063809dab6a14611d2c57806381db228414611ca6578063827cc0e514611c6c578063830efd3b14611be057806384ddf5ea14611bc25780638a914a6314611b7f5780639059f9ca146115325780639730872a146114cf5780639785fac8146114ca57806397c33519146113f75780639e9320111461139f578063a7af69471461130d578063a98ad46c146112c8578063adceb10114611246578063b9f0fec4146111b6578063be5eb5801461117c578063c269014b146110dd578063ccdce44e1461100e578063e276392414610d78578063eb5a662e14610cca578063ecb18b341461035a578063f0853e1d146102a95763f947a8a91461020b57600080fd5b3461029057600036600319011261029057604051636ecf807360e11b81526002600482015260208160248173__$8a3883123a2a1b05b37447bdbb3fdcf5d3$__5af4801561029d57600090610266575b602090604051908152f35b506020813d8211610295575b8161027f60209383612c5c565b81010312610290576020905161025b565b600080fd5b3d9150610272565b6040513d6000823e3d90fd5b3461029057602080600319360112610290576102c36129a9565b6040516315ffae5b60e21b8152600260048201526001600160a01b039091166024820152818160448173__$8a3883123a2a1b05b37447bdbb3fdcf5d3$__5af490811561029d57600091610324575b5060405190610320816129d5565b8152f35b90508181813d8311610353575b61033b8183612c5c565b81010312610290575160038110156102905782610312565b503d610331565b3461029057606036600319011261029057610373612ae9565b63ffffffff610380612b0f565b169081158015610c69575b610c575763ffffffff8116158015610c47575b610c3557600963ffffffff82161115610c23576103b9612d4e565b600435600052601160205260406000209160038301805460ff8160401c166006811015610c0d578015159081610c01575b50610bef5761040760649163ffffffff8087169160201c16612d41565b11610bdd5761042063ffffffff84166002860154612dfd565b93670de0b6b3a7640000948581029581870414901517156109ea5768056bc75e2d630fffff85018095116109ea5733600052600b60205268056bc75e2d63100000850460406000205410610bcb5733600052600b602052604060002061049268056bc75e2d6310000087048254612d34565b905533600052601460205260406000206104b868056bc75e2d6310000087048254612d41565b9055815463ffffffff851663ffffffff8260201c160163ffffffff81116109ea5767ffffffff000000009060201b169067ffffffff0000000019161782556007810190336000528160205260406000205415610b89575b5033600052602052604060002061053268056bc75e2d6310000086048254612d41565b9055805463ffffffff811663ffffffff8260201c161015600014610b7057506802000000000000000060ff60401b19825416179055806000526015602052604060002063ffffffff198154169055600435600052601660205260406000206011602052610635604060002060018060a01b036001820154166bffffffffffffffffffffffff60a01b845416178355600435600184015563ffffffff6002808501549260ff19841682870155600881019364ffffffff00855460081b169064ffffffffff1916178287015561062a838554168388019068ffffffff000000000082549160281b169068ffffffff00000000001916179055565b015491541690612e10565b6003820155600435600052601160205263ffffffff6008604060002001541660005b8163ffffffff821610610b2157505060018060a01b038154167f5215406e88f26eed4728b9cdfc5d85cea75799101cb9387b528451e6e0878dec600283015460ff81169063ffffffff600386015491604051936106b3816129d5565b845260281c166020830152604082015260806060820152806106df600435956004608084019101612e30565b0390a36004356000526011602052604060002060018060a01b036001820154169081600052600a60205260ff6040600020541615610a87575b600360028201918254600c6020526107366040600020918254612d41565b90556107458354600f54612d41565b600f556107558354601054612d34565b60105583600052600d60205242604060002055016803000000000000000060ff60401b1982541617905573__$8a3883123a2a1b05b37447bdbb3fdcf5d3$__803b156102905760006064916040519283809263e63dd53160e01b8252600260048301528760248301526303d1a1a13060201b1760401b60448301525af4801561029d57610a78575b50805460405163a9059cbb60e01b815260048101849052602481019190915260208160448160007f00000000000000000000000000000000000000000000000000000000000000006001600160a01b03165af190811561029d57600091610a49575b5015610a375760407feae9cfbc77fdd40ca899f36b608256063b2bc9d8178b0220f7ad513e178d6730915483600052600c602052816000205482519182526020820152a27f17f13fd3f7c4712af33f1770ebcb822dd20a2dbc00850eab48d786623d97b9596020600f54604051908152a17f8b094cca6f83d49402ce208cc0c224b76625ffc58636df56ae28024e704c58686020601054604051908152a16004357f9e71d2fb732e68272b7e74ecfd14638673c1d77e19a5d390a3ffff054d57c44b600080a25b600154604051636adf462560e11b81526001600160a01b0390911692602082600481875afa91821561029d57600092610a00575b5063ffffffff1660030b9060030b028060030b9081036109ea57823b1561029057606460009283600a95604051968795869463533dfa3560e01b865260048601520560030b6024840152600160448401525af1801561029d576109db575b5068056bc75e2d631000006040519104815233907f86b47e6e6c03d769c0bc5ffd06c682ea7d07089576d59230ec18ff64e71bffe7602060043592a36001600055005b6109e490612c0f565b81610998565b634e487b7160e01b600052601160045260246000fd5b63ffffffff919250610a299060203d602011610a30575b610a218183612c5c565b810190612d1b565b919061093a565b503d610a17565b60405163022e258160e11b8152600490fd5b610a6b915060203d602011610a71575b610a638183612c5c565b810190612c7e565b8661083f565b503d610a59565b610a8190612c0f565b856107dd565b600954600160401b811015610b0b576001810180600955811015610af5577f6e1540171b6c0c960b71a7020d9f60077f6af931a8bbf590da0223dacf75c7af0180546001600160a01b031916831790556000828152600a60205260409020805460ff19166001179055610718565b634e487b7160e01b600052603260045260246000fd5b634e487b7160e01b600052604160045260246000fd5b63ffffffff610b2f82612de8565b169062278d0091808302928304036109ea57610b5c610b5363ffffffff9342612d41565b60048601612db3565b1663ffffffff81146109ea57600101610657565b68ff00000000000000001916600160401b179055610906565b6006018054600160401b811015610b0b57610ba991600182018155612bf7565b81546001600160a01b0360039290921b91821b19163390911b1790558561050f565b604051630391acf160e61b8152600490fd5b60405163955f95ad60e01b8152600490fd5b6040516380b9cb0960e01b8152600490fd5b600191501415866103ea565b634e487b7160e01b600052602160045260246000fd5b60405163f556155f60e01b8152600490fd5b60405163d1e95ed560e01b8152600490fd5b50606463ffffffff82161161039e565b604051630cff23e760e01b8152600490fd5b50600154604051632cc52b1560e11b815233600482015290602090829060249082906001600160a01b03165afa90811561029d57600091610cac575b501561038b565b610cc4915060203d8111610a7157610a638183612c5c565b83610ca5565b346102905760208060031936011261029057604481610ce76129a9565b604051636eb1769f60e11b81526001600160a01b03918216600482015230602482015292839182907f0000000000000000000000000000000000000000000000000000000000000000165afa90811561029d57600091610d4b575b50604051908152f35b90508181813d8311610d71575b610d628183612c5c565b81010312610290575182610d42565b503d610d58565b346102905760403660031901126102905760043563ffffffff610d99612ae9565b16158015610fad575b610c57578015610f9b57610db4612d4e565b604051630c47ab3d60e21b8152602090818180610dd43060048301612c96565b038173__$8a3883123a2a1b05b37447bdbb3fdcf5d3$__5af4801561029d57610f7e575b50624c4b408211610f6c576040516323b872dd60e01b815233600482015230602482015260448101839052818160648160006001600160a01b037f0000000000000000000000000000000000000000000000000000000000000000165af190811561029d57600091610f4f575b5015610a37577f8b094cca6f83d49402ce208cc0c224b76625ffc58636df56ae28024e704c58689033600052600b815260406000207fdc6e73d4b36e22ab95945bd8833a5af96c950eb29d8d75c4aecffc987637aaab82825495808701845580600e54019081600e558060105401948560105554604051918252838201527f4928895ba6723e8e27b15f32e4c3054a1b6c7f8c03f133558d6fa42b3928d14c60403392a2604051908152a1604051908152a115610f24575b6001600055005b337f072dafb6aabe3f02118bc607efbeaaa104d6b2009720c7b130f24ba418689c4b600080a2610f1d565b610f669150823d8411610a7157610a638183612c5c565b83610e65565b6040516330fdf8db60e11b8152600490fd5b610f9490823d8411610a7157610a638183612c5c565b5082610df8565b60405163162908e360e11b8152600490fd5b50600154604051632cc52b1560e11b815233600482015290602090829060249082906001600160a01b03165afa90811561029d57600091610ff0575b5015610da2565b611008915060203d8111610a7157610a638183612c5c565b82610fe9565b3461029057600036600319011261029057611027612d4e565b604051630c47ab3d60e21b8152602081806110453060048301612c96565b038173__$8a3883123a2a1b05b37447bdbb3fdcf5d3$__5af490811561029d576000916110bf575b501561107a576001600055005b60405162461bcd60e51b815260206004820152601a60248201527f4d6f6e74686c7920757064617465206e6f7420647565207965740000000000006044820152606490fd5b6110d7915060203d8111610a7157610a638183612c5c565b8161106d565b3461029057602080600319360112610290576110f76129a9565b60015460405163c269014b60e01b81526001600160a01b03928316600482015291839183916024918391165afa90811561029d57600091611142575b5063ffffffff60405191168152f35b90508181813d8311611175575b6111598183612c5c565b81010312610290575163ffffffff811681036102905782611133565b503d61114f565b34610290576020366003190112610290576001600160a01b0361119d6129a9565b16600052600c6020526020604060002054604051908152f35b34610290576020366003190112610290576111cf6129a9565b73__$8a3883123a2a1b05b37447bdbb3fdcf5d3$__90813b15610290576040805163e63dd53160e01b8152600260048201526001600160a01b0390921660248301523060201b6303d1a1a117901b604482015290600090829060649082905af4801561029d5761123b57005b61124490612c0f565b005b346102905760403660031901126102905760206112616129bf565b6004356000526016825260406000209060018060a01b038083541691161490816112ae575b81611297575b506040519015158152f35b63ffffffff91506002015460281c1615158261128c565b905060ff6002820154166112c1816129d5565b1590611286565b34610290576000366003190112610290576040517f00000000000000000000000000000000000000000000000000000000000000006001600160a01b03168152602090f35b34610290576020366003190112610290576113266129a9565b604051632de5e9bf60e01b8152600260048201526001600160a01b03909116602482015260208160448173__$8a3883123a2a1b05b37447bdbb3fdcf5d3$__5af4801561029d5760209160009161138257506040519015158152f35b6113999150823d8111610a7157610a638183612c5c565b8261128c565b34610290576040366003190112610290576113b86129a9565b6001600160a01b0316600090815260136020526040902080546024359190821015610290576020916113e991612bf7565b90546040519160031b1c8152f35b34610290576040366003190112610290576114106129a9565b60243580151590816114bd575b5080611486575b80611437575b6020906040519015158152f35b506001600160a01b03166000818152600d602052604090205462093a8081019081106109ea574211801561146f575b6020915061142a565b50600052600c602052602060406000205415611466565b506001600160a01b0381166000908152600b6020526040902054620f42401115806114245750600c60205260406000205415611424565b905060105410158261141d565b612b40565b34610290576020366003190112610290576001600160a01b036114f06129a9565b16600052601360205261152e61151361151a604060002060405192838092612e30565b0382612c5c565b604051918291602083526020830190612a78565b0390f35b3461029057606036600319011261029057602480359063ffffffff60043581611559612b0f565b169283158015611b1f575b610c5757816000526020906016825260406000209533600052600c835260406000205415611b0d5786546001600160a01b0397903390891603611b0d576002015460ff81166115b2816129d5565b611b0d5760281c851615611b0d576115c8612d4e565b604051630c47ab3d60e21b815273__$8a3883123a2a1b05b37447bdbb3fdcf5d3$__908481806115fb3060048301612c96565b0381855af4801561029d57611af0575b508115610f9b5784600052601684526040600020906002820197885488808260281c169160081c16038881116119f4576116489060048501612bf7565b905460039491851b1c421115611a52578a600154169160405163a5118bf160e01b81528881600481875afa90811561029d57600091611a35575b50833b1561029057606460009283604051968794859363533dfa3560e01b855260048501528a0b8c8401528160448401525af191821561029d578492611a26575b505b01548303610f9b576040516323b872dd60e01b815233600482015230602482015260448101849052858160648160007f00000000000000000000000000000000000000000000000000000000000000008f165af190811561029d57600091611a09575b5015610a375796959633600052600c85526040600020611749848254612d34565b905561175783600f54612d34565b600f5561176683601054612d41565b60105585600052601185526040600020906002820154946000986007600685019401995b845481101561185557808d6117a26117d99388612bf7565b905490891b1c16806000528c8b528b6117c98b6117c46040600020548d612dfd565b612e10565b8c816117de575b50505050612da4565b61178a565b7fe3e6ae1e05f069d410556743894aacbb190c1431962422ebe8fcc642a467dd169184600052601482526040600020805480831161184d575b8261182191612d34565b905584600052600b8252604060002061183b828254612d41565b9055604051908152a38e8b818c6117d0565b915081611817565b508888918c8833600052600c8552604060002054604051918252858201527f1b8cd61ed43bec7c6bdad3a18ffee613f99c853d16c50678d248d879e1b4343860403392a280825460281c16837f406356ef25520b09e2ef87c5225167b4161ea4ab691e9434d6ee29eafcc83fc286604051848152a27f17f13fd3f7c4712af33f1770ebcb822dd20a2dbc00850eab48d786623d97b95985600f54604051908152a17f8b094cca6f83d49402ce208cc0c224b76625ffc58636df56ae28024e704c586885601054604051908152a1600019018181116119f457825468ffffffff0000000000191660289190911b68ffffffff0000000000161782558154908160281c16156119be575b505050823b156102905760646000926303d1a1a194604051958694859363e63dd53160e01b855260026004860152339085015230901b1760401b60448301525af4801561029d576119af576001600055005b6119b890612c0f565b80610f1d565b60ff191660021790557f02ca5489b37dd363d1302bac719e8ee40e540ffbe8c12253570fea63e11cad71600080a283808061195d565b85634e487b7160e01b60005260116004526000fd5b611a209150863d8811610a7157610a638183612c5c565b8a611728565b611a2f90612c0f565b8b6116c3565b611a4c9150893d8b11610a3057610a218183612c5c565b8d611682565b8a6001541691604051634e5ecf1360e01b81528881600481875afa90811561029d57600091611ad3575b50833b1561029057606460009283604051968794859363533dfa3560e01b855260048501528a0b8c840152600160448401525af191821561029d578492611ac4575b506116c5565b611acd90612c0f565b8b611abe565b611aea9150893d8b11610a3057610a218183612c5c565b8d611a7c565b611b0690853d8711610a7157610a638183612c5c565b508861160b565b604051630b5ab5bf60e41b8152600490fd5b50600154604051632cc52b1560e11b8152336004820152906020908290849082906001600160a01b03165afa90811561029d57600091611b61575b5015611564565b611b79915060203d8111610a7157610a638183612c5c565b86611b5a565b3461029057602036600319011261029057600435600052601160205261152e611bae600660406000200161302e565b604051918291602083526020830190612aac565b34610290576000366003190112610290576020601254604051908152f35b346102905760003660031901126102905760405163404b48bf60e01b81526002600482015260008160248173__$8a3883123a2a1b05b37447bdbb3fdcf5d3$__5af4801561029d5761152e91600091611c49575b50604051918291602083526020830190612aac565b611c6691503d806000833e611c5e8183612c5c565b810190612e85565b82611c34565b34610290576020366003190112610290576001600160a01b03611c8d6129a9565b1660005260146020526020604060002054604051908152f35b3461029057602036600319011261029057611cbf612afc565b600154604051632076c8a160e21b815263ffffffff929092166004830152602090829060249082906001600160a01b03165afa801561029d57602091600091611d0f575b506040519060030b8152f35b611d269150823d8111610a3057610a218183612c5c565b82611d03565b612b22565b3461029057602036600319011261029057600435600052601660205261152e61151361151a600460406000200160405192838092612e30565b346102905760003660031901126102905760405163f28e2c2f60e01b81526002600482015260208160248173__$8a3883123a2a1b05b37447bdbb3fdcf5d3$__5af4801561029d5760209160009161138257506040519015158152f35b34610290576000366003190112610290576020600e54604051908152f35b34610290576000366003190112610290576001546040516001600160a01b039091168152602090f35b34610290576020366003190112610290576001600160a01b03611e2f6129a9565b16600052600d6020526020604060002054604051908152f35b34610290576020366003190112610290576040611e66600435612fdc565b825191825215156020820152f35b3461029057602036600319011261029057611e8d6129a9565b600154604051632cc52b1560e11b81526001600160a01b0392831660048201529160209183916024918391165afa801561029d5760209160009161138257506040519015158152f35b3461029057604036600319011261029057611eef6129bf565b600435600052601160205260076040600020019060018060a01b03166000526020526020604060002054604051908152f35b34610290576020366003190112610290576001600160a01b03611f426129a9565b16600052600b6020526020604060002054604051908152f35b3461029057602036600319011261029057611f74612f0f565b50600435600052601660205261152e611f906040600020612f5a565b6040519182916020835260208301906129df565b3461029057602036600319011261029057611fbd6129a9565b604051630b79b0a160e21b8152600260048201526001600160a01b03909116602482015260208160448173__$8a3883123a2a1b05b37447bdbb3fdcf5d3$__5af4801561029d5760209160009161138257506040519015158152f35b3461029057602036600319011261029057600435600052601660205260a06040600020601160205260406000209060028101549160ff831661205a816129d5565b15806120c4575b156120ac57600363ffffffff809460281c169201549260086120838585612dfd565b949392015416906001925b60405194855260208501526040840152606083015215156080820152f35b600801546000925082915063ffffffff16818061208e565b5063ffffffff8360281c161515612061565b3461029057602036600319011261029057600435600052601660205260c0604060002060018060a01b0381541690600181015490600281015490600360ff831691015492604051948552602085015261212e816129d5565b604084015263ffffffff90818160081c16606085015260281c16608083015260a0820152f35b346102905760403660031901126102905761216d612afc565b6121756129bf565b6001549091906001600160a01b03908116803b15610290576000928360449263ffffffff94604051978896879563086ecc7960e21b87521660048601521660248401525af1801561029d5761123b57005b346102905760203660031901126102905760006101206040516121e881612c23565b8281528260208201528260408201528260608201528260808201528260a08201528260c08201528260e0820152606061010082015201526004356000526011602052604060002080549060018060a01b0360018201541690600281015460038201549160ff8360401c169163ffffffff6004830154946005840154928260088601541697604051996122798b612c23565b8a5260208a01526040890152818116606089015260201c1660808701526006831015610c0d576122bb9360069360a088015260c087015260e08601520161302e565b61010083015261012082015260405190602082528051602083015260018060a01b0360208201511660408301526040810151606083015263ffffffff606082015116608083015263ffffffff60808201511660a083015260a0810151906006821015610c0d57829160c083015260c081015160e083015260e081015161010083015261010081015163ffffffff610120612362610140938483880152610160870190612aac565b93015116908301520390f35b346102905760a03660031901126102905760043561238a612ae9565b906064359063ffffffff9182811680910361029057608435928084168094036102905783600052602094601586526003826040600020541610156125865784158015612527575b610c57578315610f9b578116906046821180159061251d575b610c3557600183108015612513575b6125015760105484116124ef576012549461241386612da4565b601255856000526011875260406000209260018401336bffffffffffffffffffffffff60a01b825416179055856002850155600384019068ffffffffffffffffff19825416179055604435600484015542600584015585600884019363ffffffff19948686825416179055553360005260138752612495866040600020612db3565b600052601586526040600020918254916124b0818416612de8565b16911617905560405191825283820152817fde3b47cf7da95a3cc41b86cf8717ead8d56a76ee1590481c5c4dc4d8804c40c460403393a3604051908152f35b60405163356680b760e01b8152600490fd5b60405163524eff2760e01b8152600490fd5b50600c83116123f9565b50606482116123ea565b50600154604051632cc52b1560e11b8152336004820152908790829060249082906001600160a01b03165afa90811561029d57600091612569575b50156123d1565b6125809150873d8911610a7157610a638183612c5c565b87612562565b604051635aad290f60e01b8152600490fd5b3461029057600036600319011261029057604051637fd5e70b60e01b81526002600482015260008160248173__$8a3883123a2a1b05b37447bdbb3fdcf5d3$__5af4801561029d5761152e91600091611c495750604051918291602083526020830190612aac565b3461029057602080600319360112610290576001600160a01b0390816126246129a9565b16806000526013825260406000206000916000918054925b838110612809575061264d84612e6d565b9561265b6040519788612c5c565b848752601f198061266b87612e6d565b0160005b8181106127ee57505061269a61268487612e6d565b966126926040519889612c5c565b808852612e6d565b01368787013760009260005b85811061272657888888604051928391604083019360408452825180955260608401948160608260051b8701019401956000905b8282106126f6575050508361152e949550830390850152612a78565b9193955091938480612714600193605f198c82030186528a516129df565b980192019201879593919694926126da565b61273381859a999a612bf7565b9054600391821b1c60005260168a526040600020838582541614806127d6575b806127c0575b612771575b505061276990612da4565b9796976126a6565b956127b8916127836127699498612f5a565b61278d838d612f46565b52612798828c612f46565b506127a38888612bf7565b9054911b1c6127b2828b612f46565b52612da4565b94908a61275e565b5063ffffffff600282015460281c161515612759565b5060ff6002820154166127e8816129d5565b15612753565b978099986127fa612f0f565b82828c0101520198979861266f565b6128168183989798612bf7565b90549060031b1c600052601687526040600020838782541614908161287f575b81612868575b50612853575b61284b90612da4565b95949561263c565b9361286061284b91612da4565b949050612842565b63ffffffff91506002015460281c1615158861283c565b905060ff600282015416612892816129d5565b1590612836565b34610290576000366003190112610290576020600f54604051908152f35b346102905760203660031901126102905767ffffffffffffffff6004358181116102905736602382011215610290578060040135918211610290576024600591368285851b83010111610290573060201b6303d1a1a11760401b939273__$8a3883123a2a1b05b37447bdbb3fdcf5d3$__9160005b85811061293557005b80831b82018501356001600160a01b038116919082900361029057843b15610290576040519163e63dd53160e01b83526002600484015286830152876044830152600082606481885af491821561029d576129959261299a575b50612da4565b61292c565b6129a390612c0f565b8861298f565b600435906001600160a01b038216820361029057565b602435906001600160a01b038216820361029057565b60031115610c0d57565b80516001600160a01b03168252602080820151818401526040820151909160e084019183916101009160c09190612a15816129d5565b604088015263ffffffff806060830151166060890152608082015116608088015260a081015160a088015201519460e060c082015285518094520193019160005b828110612a64575050505090565b835185529381019392810192600101612a56565b90815180825260208080930193019160005b828110612a98575050505090565b835185529381019392810192600101612a8a565b90815180825260208080930193019160005b828110612acc575050505090565b83516001600160a01b031685529381019392810192600101612abe565b6024359063ffffffff8216820361029057565b6004359063ffffffff8216820361029057565b6044359063ffffffff8216820361029057565b34610290576000366003190112610290576020601054604051908152f35b3461029057600080600319360112612bf4576040516370a0823160e01b81523060048201526020816024817f00000000000000000000000000000000000000000000000000000000000000006001600160a01b03165afa908115612be9578291612bb0575b602082604051908152f35b90506020813d8211612be1575b81612bca60209383612c5c565b81010312612bdd57602091505138612ba5565b5080fd5b3d9150612bbd565b6040513d84823e3d90fd5b80fd5b8054821015610af55760005260206000200190600090565b67ffffffffffffffff8111610b0b57604052565b610140810190811067ffffffffffffffff821117610b0b57604052565b60e0810190811067ffffffffffffffff821117610b0b57604052565b90601f8019910116810190811067ffffffffffffffff821117610b0b57604052565b90816020910312610290575180151581036102905790565b919091606081019260028252602093606085840152600954809152608083019060096000527f6e1540171b6c0c960b71a7020d9f60077f6af931a8bbf590da0223dacf75c7af9060005b87828210612cfe5750505050931b6303d1a1a117604090811b910152565b83546001600160a01b031685529093019260019283019201612ce0565b9081602091031261029057518060030b81036102905790565b919082039182116109ea57565b919082018092116109ea57565b600260005414612d5f576002600055565b60405162461bcd60e51b815260206004820152601f60248201527f5265656e7472616e637947756172643a207265656e7472616e742063616c6c006044820152606490fd5b60001981146109ea5760010190565b8054600160401b811015610b0b57612dd091600182018155612bf7565b819291549060031b91821b91600019901b1916179055565b90600163ffffffff809316019182116109ea57565b818102929181159184041417156109ea57565b8115612e1a570490565b634e487b7160e01b600052601260045260246000fd5b90815480825260208092019260005281600020916000905b828210612e56575050505090565b835485529384019360019384019390910190612e48565b67ffffffffffffffff8111610b0b5760051b60200190565b60209081818403126102905780519067ffffffffffffffff821161029057019180601f84011215610290578251612ebb81612e6d565b93612ec96040519586612c5c565b818552838086019260051b820101928311610290578301905b828210612ef0575050505090565b81516001600160a01b0381168103610290578152908301908301612ee2565b60405190612f1c82612c40565b606060c0836000808252806020830152806040830152808483015280608083015260a08201520152565b8051821015610af55760209160051b010190565b90600460c0604051612f6b81612c40565b612fd8819560018060a01b03815416835260018101546020840152600281015460ff8116612f98816129d5565b604085015263ffffffff90818160081c16606086015260281c166080840152600381015460a0840152612fd16040518096819301612e30565b0384612c5c565b0152565b60005260166020526040600020600281015460ff8116612ffb816129d5565b15908161301b575b506130115750600090600090565b6003015490600190565b63ffffffff915060281c16151538613003565b9060405191828154918282526020928383019160005283600020936000905b8282106130655750505061306392500383612c5c565b565b85546001600160a01b03168452600195860195889550938101939091019061304d56fea264697066735822122065815221dc027a0224a15899a509b039d393c6d668ecb805ea863172eb73f38764736f6c63430008130033",
  "linkReferences": {
    "contracts/libraries/DebtTracker.sol": {
      "DebtTracker": [
        {
          "length": 20,
          "start": 817
        },
        {
          "length": 20,
          "start": 999
        },
        {
          "length": 20,
          "start": 2170
        },
        {
          "length": 20,
          "start": 3793
        },
        {
          "length": 20,
          "start": 4418
        },
        {
          "length": 20,
          "start": 4810
        },
        {
          "length": 20,
          "start": 5195
        },
        {
          "length": 20,
          "start": 5840
        },
        {
          "length": 20,
          "start": 7430
        },
        {
          "length": 20,
          "start": 7824
        },
        {
          "length": 20,
          "start": 8418
        },
        {
          "length": 20,
          "start": 9918
        },
        {
          "length": 20,
          "start": 10766
        }
      ]
    }
  },
  "deployedLinkReferences": {
    "contracts/libraries/DebtTracker.sol": {
      "DebtTracker": [
        {
          "length": 20,
          "start": 568
        },
        {
          "length": 20,
          "start": 750
        },
        {
          "length": 20,
          "start": 1921
        },
        {
          "length": 20,
          "start": 3544
        },
        {
          "length": 20,
          "start": 4169
        },
        {
          "length": 20,
          "start": 4561
        },
        {
          "length": 20,
          "start": 4946
        },
        {
          "length": 20,
          "start": 5591
        },
        {
          "length": 20,
          "start": 7181
        },
        {
          "length": 20,
          "start": 7575
        },
        {
          "length": 20,
          "start": 8169
        },
        {
          "length": 20,
          "start": 9669
        },
        {
          "length": 20,
          "start": 10517
        }
      ]
    }
  }
}