{
  "_format": "hh-sol-artifact-1",
  "contractName": "LoanMachine",
  "sourceName": "contracts/LoanMachine.sol",
  "abi": [
    {
      "inputs": [],
      "name": "BorrowNotExpired",
      "type": "error"
    },
    {
      "inputs": [],
      "name": "InsufficientDonationBalance",
      "type": "error"
    },
    {
      "inputs": [],
      "name": "InsufficientFunds",
      "type": "error"
    },
    {
      "inputs": [],
      "name": "InvalidAmount",
      "type": "error"
    },
    {
      "inputs": [],
      "name": "InvalidCoveragePercentage",
      "type": "error"
    },
    {
      "inputs": [],
      "name": "InvalidParcelsCount",
      "type": "error"
    },
    {
      "inputs": [],
      "name": "LoanNotAvailable",
      "type": "error"
    },
    {
      "inputs": [],
      "name": "MinimumDonationRequired",
      "type": "error"
    },
    {
      "inputs": [],
      "name": "NoActiveBorrowing",
      "type": "error"
    },
    {
      "inputs": [],
      "name": "OverCoverage",
      "type": "error"
    },
    {
      "inputs": [],
      "name": "RepaymentExceedsBorrowed",
      "type": "error"
    },
    {
      "anonymous": false,
      "inputs": [
        {
          "indexed": false,
          "internalType": "uint256",
          "name": "total",
          "type": "uint256"
        }
      ],
      "name": "AvailableBalanceUpdated",
      "type": "event"
    },
    {
      "anonymous": false,
      "inputs": [
        {
          "indexed": true,
          "internalType": "address",
          "name": "borrower",
          "type": "address"
        }
      ],
      "name": "BorrowLimitReached",
      "type": "event"
    },
    {
      "anonymous": false,
      "inputs": [
        {
          "indexed": true,
          "internalType": "address",
          "name": "borrower",
          "type": "address"
        },
        {
          "indexed": false,
          "internalType": "uint256",
          "name": "amount",
          "type": "uint256"
        },
        {
          "indexed": false,
          "internalType": "uint256",
          "name": "totalBorrowing",
          "type": "uint256"
        }
      ],
      "name": "Borrowed",
      "type": "event"
    },
    {
      "anonymous": false,
      "inputs": [
        {
          "indexed": true,
          "internalType": "address",
          "name": "donor",
          "type": "address"
        },
        {
          "indexed": false,
          "internalType": "uint256",
          "name": "amount",
          "type": "uint256"
        },
        {
          "indexed": false,
          "internalType": "uint256",
          "name": "totalDonation",
          "type": "uint256"
        }
      ],
      "name": "Donated",
      "type": "event"
    },
    {
      "anonymous": false,
      "inputs": [
        {
          "indexed": true,
          "internalType": "uint256",
          "name": "requisitionId",
          "type": "uint256"
        },
        {
          "indexed": true,
          "internalType": "address",
          "name": "lender",
          "type": "address"
        },
        {
          "indexed": false,
          "internalType": "uint256",
          "name": "amount",
          "type": "uint256"
        }
      ],
      "name": "LenderRepaid",
      "type": "event"
    },
    {
      "anonymous": false,
      "inputs": [
        {
          "indexed": true,
          "internalType": "uint256",
          "name": "requisitionId",
          "type": "uint256"
        }
      ],
      "name": "LoanCompleted",
      "type": "event"
    },
    {
      "anonymous": false,
      "inputs": [
        {
          "indexed": true,
          "internalType": "address",
          "name": "walletAddress",
          "type": "address"
        },
        {
          "indexed": true,
          "internalType": "uint256",
          "name": "requisitionId",
          "type": "uint256"
        },
        {
          "indexed": false,
          "internalType": "enum ILoanMachine.ContractStatus",
          "name": "status",
          "type": "uint8"
        },
        {
          "indexed": false,
          "internalType": "uint32",
          "name": "parcelsPending",
          "type": "uint32"
        },
        {
          "indexed": false,
          "internalType": "uint256",
          "name": "parcelsValues",
          "type": "uint256"
        },
        {
          "indexed": false,
          "internalType": "uint256[]",
          "name": "paymentDates",
          "type": "uint256[]"
        }
      ],
      "name": "LoanContractGenerated",
      "type": "event"
    },
    {
      "anonymous": false,
      "inputs": [
        {
          "indexed": true,
          "internalType": "uint256",
          "name": "requisitionId",
          "type": "uint256"
        },
        {
          "indexed": true,
          "internalType": "address",
          "name": "lender",
          "type": "address"
        },
        {
          "indexed": false,
          "internalType": "uint256",
          "name": "coverageAmount",
          "type": "uint256"
        }
      ],
      "name": "LoanCovered",
      "type": "event"
    },
    {
      "anonymous": false,
      "inputs": [
        {
          "indexed": true,
          "internalType": "uint256",
          "name": "requisitionId",
          "type": "uint256"
        }
      ],
      "name": "LoanFunded",
      "type": "event"
    },
    {
      "anonymous": false,
      "inputs": [
        {
          "indexed": true,
          "internalType": "uint256",
          "name": "requisitionId",
          "type": "uint256"
        },
        {
          "indexed": true,
          "internalType": "address",
          "name": "borrower",
          "type": "address"
        },
        {
          "indexed": false,
          "internalType": "uint256",
          "name": "amount",
          "type": "uint256"
        },
        {
          "indexed": false,
          "internalType": "uint32",
          "name": "parcelsCount",
          "type": "uint32"
        }
      ],
      "name": "LoanRequisitionCreated",
      "type": "event"
    },
    {
      "anonymous": false,
      "inputs": [
        {
          "indexed": true,
          "internalType": "address",
          "name": "borrower",
          "type": "address"
        }
      ],
      "name": "NewBorrower",
      "type": "event"
    },
    {
      "anonymous": false,
      "inputs": [
        {
          "indexed": true,
          "internalType": "address",
          "name": "donor",
          "type": "address"
        }
      ],
      "name": "NewDonor",
      "type": "event"
    },
    {
      "anonymous": false,
      "inputs": [
        {
          "indexed": true,
          "internalType": "uint256",
          "name": "requisitionId",
          "type": "uint256"
        },
        {
          "indexed": false,
          "internalType": "uint256",
          "name": "parcelsRemaining",
          "type": "uint256"
        }
      ],
      "name": "ParcelPaid",
      "type": "event"
    },
    {
      "anonymous": false,
      "inputs": [
        {
          "indexed": true,
          "internalType": "address",
          "name": "borrower",
          "type": "address"
        },
        {
          "indexed": false,
          "internalType": "uint256",
          "name": "amount",
          "type": "uint256"
        },
        {
          "indexed": false,
          "internalType": "uint256",
          "name": "remainingDebt",
          "type": "uint256"
        }
      ],
      "name": "Repaid",
      "type": "event"
    },
    {
      "anonymous": false,
      "inputs": [
        {
          "indexed": false,
          "internalType": "uint256",
          "name": "total",
          "type": "uint256"
        }
      ],
      "name": "TotalBorrowedUpdated",
      "type": "event"
    },
    {
      "anonymous": false,
      "inputs": [
        {
          "indexed": false,
          "internalType": "uint256",
          "name": "total",
          "type": "uint256"
        }
      ],
      "name": "TotalDonationsUpdated",
      "type": "event"
    },
    {
      "inputs": [
        {
          "internalType": "uint256",
          "name": "_amount",
          "type": "uint256"
        }
      ],
      "name": "borrow",
      "outputs": [],
      "stateMutability": "nonpayable",
      "type": "function"
    },
    {
      "inputs": [
        {
          "internalType": "address",
          "name": "",
          "type": "address"
        },
        {
          "internalType": "uint256",
          "name": "",
          "type": "uint256"
        }
      ],
      "name": "borrowerRequisitions",
      "outputs": [
        {
          "internalType": "uint256",
          "name": "",
          "type": "uint256"
        }
      ],
      "stateMutability": "view",
      "type": "function"
    },
    {
      "inputs": [
        {
          "internalType": "uint256",
          "name": "requisitionId",
          "type": "uint256"
        },
        {
          "internalType": "address",
          "name": "borrower",
          "type": "address"
        }
      ],
      "name": "canPayRequisition",
      "outputs": [
        {
          "internalType": "bool",
          "name": "",
          "type": "bool"
        }
      ],
      "stateMutability": "view",
      "type": "function"
    },
    {
      "inputs": [
        {
          "internalType": "address",
          "name": "_user",
          "type": "address"
        },
        {
          "internalType": "uint256",
          "name": "_amount",
          "type": "uint256"
        }
      ],
      "name": "canUserBorrow",
      "outputs": [
        {
          "internalType": "bool",
          "name": "",
          "type": "bool"
        }
      ],
      "stateMutability": "view",
      "type": "function"
    },
    {
      "inputs": [
        {
          "internalType": "uint256",
          "name": "requisitionId",
          "type": "uint256"
        },
        {
          "internalType": "uint32",
          "name": "coveragePercentage",
          "type": "uint32"
        }
      ],
      "name": "coverLoan",
      "outputs": [],
      "stateMutability": "nonpayable",
      "type": "function"
    },
    {
      "inputs": [
        {
          "internalType": "uint256",
          "name": "_amount",
          "type": "uint256"
        },
        {
          "internalType": "uint32",
          "name": "_minimumCoverage",
          "type": "uint32"
        },
        {
          "internalType": "uint256",
          "name": "_durationDays",
          "type": "uint256"
        },
        {
          "internalType": "uint32",
          "name": "parcelscount",
          "type": "uint32"
        }
      ],
      "name": "createLoanRequisition",
      "outputs": [
        {
          "internalType": "uint256",
          "name": "",
          "type": "uint256"
        }
      ],
      "stateMutability": "nonpayable",
      "type": "function"
    },
    {
      "inputs": [],
      "name": "donate",
      "outputs": [],
      "stateMutability": "payable",
      "type": "function"
    },
    {
      "inputs": [
        {
          "internalType": "address",
          "name": "borrower",
          "type": "address"
        }
      ],
      "name": "getActiveLoans",
      "outputs": [
        {
          "components": [
            {
              "internalType": "address",
              "name": "walletAddress",
              "type": "address"
            },
            {
              "internalType": "uint256",
              "name": "requisitionId",
              "type": "uint256"
            },
            {
              "internalType": "enum ILoanMachine.ContractStatus",
              "name": "status",
              "type": "uint8"
            },
            {
              "internalType": "uint32",
              "name": "parcelsPending",
              "type": "uint32"
            },
            {
              "internalType": "uint256",
              "name": "parcelsValues",
              "type": "uint256"
            },
            {
              "internalType": "uint256[]",
              "name": "paymentDates",
              "type": "uint256[]"
            }
          ],
          "internalType": "struct ILoanMachine.LoanContract[]",
          "name": "activeLoans",
          "type": "tuple[]"
        },
        {
          "internalType": "uint256[]",
          "name": "requisitionIds",
          "type": "uint256[]"
        }
      ],
      "stateMutability": "view",
      "type": "function"
    },
    {
      "inputs": [],
      "name": "getAvailableBalance",
      "outputs": [
        {
          "internalType": "uint256",
          "name": "",
          "type": "uint256"
        }
      ],
      "stateMutability": "view",
      "type": "function"
    },
    {
      "inputs": [],
      "name": "getAvailableBorrowAmount",
      "outputs": [
        {
          "internalType": "uint256",
          "name": "",
          "type": "uint256"
        }
      ],
      "stateMutability": "view",
      "type": "function"
    },
    {
      "inputs": [
        {
          "internalType": "address",
          "name": "borrower",
          "type": "address"
        }
      ],
      "name": "getBorrowerRequisitions",
      "outputs": [
        {
          "internalType": "uint256[]",
          "name": "",
          "type": "uint256[]"
        }
      ],
      "stateMutability": "view",
      "type": "function"
    },
    {
      "inputs": [
        {
          "internalType": "address",
          "name": "_user",
          "type": "address"
        }
      ],
      "name": "getBorrowing",
      "outputs": [
        {
          "internalType": "uint256",
          "name": "",
          "type": "uint256"
        }
      ],
      "stateMutability": "view",
      "type": "function"
    },
    {
      "inputs": [],
      "name": "getContractBalance",
      "outputs": [
        {
          "internalType": "uint256",
          "name": "",
          "type": "uint256"
        }
      ],
      "stateMutability": "view",
      "type": "function"
    },
    {
      "inputs": [
        {
          "internalType": "uint256",
          "name": "requisitionId",
          "type": "uint256"
        }
      ],
      "name": "getCoveringLenders",
      "outputs": [
        {
          "internalType": "address[]",
          "name": "",
          "type": "address[]"
        }
      ],
      "stateMutability": "view",
      "type": "function"
    },
    {
      "inputs": [
        {
          "internalType": "address",
          "name": "_user",
          "type": "address"
        }
      ],
      "name": "getDonation",
      "outputs": [
        {
          "internalType": "uint256",
          "name": "",
          "type": "uint256"
        }
      ],
      "stateMutability": "view",
      "type": "function"
    },
    {
      "inputs": [
        {
          "internalType": "address",
          "name": "lender",
          "type": "address"
        }
      ],
      "name": "getDonationsInCoverage",
      "outputs": [
        {
          "internalType": "uint256",
          "name": "",
          "type": "uint256"
        }
      ],
      "stateMutability": "view",
      "type": "function"
    },
    {
      "inputs": [
        {
          "internalType": "address",
          "name": "_user",
          "type": "address"
        }
      ],
      "name": "getLastBorrowTime",
      "outputs": [
        {
          "internalType": "uint256",
          "name": "",
          "type": "uint256"
        }
      ],
      "stateMutability": "view",
      "type": "function"
    },
    {
      "inputs": [
        {
          "internalType": "uint256",
          "name": "requisitionId",
          "type": "uint256"
        },
        {
          "internalType": "address",
          "name": "lender",
          "type": "address"
        }
      ],
      "name": "getLenderCoverage",
      "outputs": [
        {
          "internalType": "uint256",
          "name": "",
          "type": "uint256"
        }
      ],
      "stateMutability": "view",
      "type": "function"
    },
    {
      "inputs": [
        {
          "internalType": "uint256",
          "name": "requisitionId",
          "type": "uint256"
        }
      ],
      "name": "getLoanContract",
      "outputs": [
        {
          "components": [
            {
              "internalType": "address",
              "name": "walletAddress",
              "type": "address"
            },
            {
              "internalType": "uint256",
              "name": "requisitionId",
              "type": "uint256"
            },
            {
              "internalType": "enum ILoanMachine.ContractStatus",
              "name": "status",
              "type": "uint8"
            },
            {
              "internalType": "uint32",
              "name": "parcelsPending",
              "type": "uint32"
            },
            {
              "internalType": "uint256",
              "name": "parcelsValues",
              "type": "uint256"
            },
            {
              "internalType": "uint256[]",
              "name": "paymentDates",
              "type": "uint256[]"
            }
          ],
          "internalType": "struct ILoanMachine.LoanContract",
          "name": "",
          "type": "tuple"
        }
      ],
      "stateMutability": "view",
      "type": "function"
    },
    {
      "inputs": [
        {
          "internalType": "uint256",
          "name": "requisitionId",
          "type": "uint256"
        }
      ],
      "name": "getNextPaymentAmount",
      "outputs": [
        {
          "internalType": "uint256",
          "name": "paymentAmount",
          "type": "uint256"
        },
        {
          "internalType": "bool",
          "name": "canPay",
          "type": "bool"
        }
      ],
      "stateMutability": "view",
      "type": "function"
    },
    {
      "inputs": [
        {
          "internalType": "uint256",
          "name": "requisitionId",
          "type": "uint256"
        }
      ],
      "name": "getPaymentDates",
      "outputs": [
        {
          "internalType": "uint256[]",
          "name": "",
          "type": "uint256[]"
        }
      ],
      "stateMutability": "view",
      "type": "function"
    },
    {
      "inputs": [
        {
          "internalType": "uint256",
          "name": "requisitionId",
          "type": "uint256"
        }
      ],
      "name": "getRepaymentSummary",
      "outputs": [
        {
          "internalType": "uint256",
          "name": "totalRemainingDebt",
          "type": "uint256"
        },
        {
          "internalType": "uint256",
          "name": "nextPaymentAmount",
          "type": "uint256"
        },
        {
          "internalType": "uint256",
          "name": "parcelsRemaining",
          "type": "uint256"
        },
        {
          "internalType": "uint256",
          "name": "totalParcels",
          "type": "uint256"
        },
        {
          "internalType": "bool",
          "name": "isActive",
          "type": "bool"
        }
      ],
      "stateMutability": "view",
      "type": "function"
    },
    {
      "inputs": [
        {
          "internalType": "uint256",
          "name": "requisitionId",
          "type": "uint256"
        }
      ],
      "name": "getRequisitionInfo",
      "outputs": [
        {
          "components": [
            {
              "internalType": "uint256",
              "name": "requisitionId",
              "type": "uint256"
            },
            {
              "internalType": "address",
              "name": "borrower",
              "type": "address"
            },
            {
              "internalType": "uint256",
              "name": "amount",
              "type": "uint256"
            },
            {
              "internalType": "uint32",
              "name": "minimumCoverage",
              "type": "uint32"
            },
            {
              "internalType": "uint32",
              "name": "currentCoverage",
              "type": "uint32"
            },
            {
              "internalType": "enum ILoanMachine.BorrowStatus",
              "name": "status",
              "type": "uint8"
            },
            {
              "internalType": "uint256",
              "name": "durationDays",
              "type": "uint256"
            },
            {
              "internalType": "uint256",
              "name": "creationTime",
              "type": "uint256"
            },
            {
              "internalType": "address[]",
              "name": "coveringLenders",
              "type": "address[]"
            },
            {
              "internalType": "uint32",
              "name": "parcelsCount",
              "type": "uint32"
            }
          ],
          "internalType": "struct ILoanMachine.RequisitionInfo",
          "name": "",
          "type": "tuple"
        }
      ],
      "stateMutability": "view",
      "type": "function"
    },
    {
      "inputs": [],
      "name": "getTotalBorrowed",
      "outputs": [
        {
          "internalType": "uint256",
          "name": "",
          "type": "uint256"
        }
      ],
      "stateMutability": "view",
      "type": "function"
    },
    {
      "inputs": [],
      "name": "getTotalDonations",
      "outputs": [
        {
          "internalType": "uint256",
          "name": "",
          "type": "uint256"
        }
      ],
      "stateMutability": "view",
      "type": "function"
    },
    {
      "inputs": [
        {
          "internalType": "uint256",
          "name": "",
          "type": "uint256"
        }
      ],
      "name": "loanContracts",
      "outputs": [
        {
          "internalType": "address",
          "name": "walletAddress",
          "type": "address"
        },
        {
          "internalType": "uint256",
          "name": "requisitionId",
          "type": "uint256"
        },
        {
          "internalType": "enum ILoanMachine.ContractStatus",
          "name": "status",
          "type": "uint8"
        },
        {
          "internalType": "uint32",
          "name": "parcelsPending",
          "type": "uint32"
        },
        {
          "internalType": "uint256",
          "name": "parcelsValues",
          "type": "uint256"
        }
      ],
      "stateMutability": "view",
      "type": "function"
    },
    {
      "inputs": [
        {
          "internalType": "uint256",
          "name": "requisitionId",
          "type": "uint256"
        }
      ],
      "name": "repay",
      "outputs": [],
      "stateMutability": "payable",
      "type": "function"
    },
    {
      "inputs": [],
      "name": "requisitionCounter",
      "outputs": [
        {
          "internalType": "uint256",
          "name": "",
          "type": "uint256"
        }
      ],
      "stateMutability": "view",
      "type": "function"
    }
  ],
  "bytecode": "0x608060405234801561001057600080fd5b506001600055612676806100256000396000f3fe6080604052600436106101b75760003560e01c8063777c658f116100ec57806397c335191161008a578063adceb10111610064578063adceb10114610589578063be5eb580146105a9578063c5ebeaec146105df578063ed88c68e146105ff57600080fd5b806397c33519146105195780639e93201114610549578063a648bf751461056957600080fd5b8063827cc0e5116100c6578063827cc0e51461048057806384ddf5ea146104b65780638a914a63146104cc5780639730872a146104f957600080fd5b8063777c658f1461043e5780637d52437a14610453578063809dab6a146102cb57600080fd5b8063371fd8e6116101595780634e51c7df116101335780634e51c7df146103a05780636509a710146103c0578063657eb031146103f55780636f9fb98a1461042b57600080fd5b8063371fd8e61461032a578063383ab2ef1461033d578063410a1d321461036a57600080fd5b8063232869fa11610195578063232869fa1461023b5780632485a314146102a9578063291c31a7146102cb5780632b31c022146102e057600080fd5b80630307c4a1146101bc57806303d1a1a1146101e05780631b70ba3e1461020e575b600080fd5b3480156101c857600080fd5b506005545b6040519081526020015b60405180910390f35b3480156101ec57600080fd5b506102006101fb3660046120a1565b610607565b6040516101d79291906121b7565b34801561021a57600080fd5b5061022e61022936600461222d565b61099e565b6040516101d7919061228f565b34801561024757600080fd5b5061029861025636600461222d565b600b6020526000908152604090208054600182015460028301546003909301546001600160a01b0390921692909160ff821691610100900463ffffffff169085565b6040516101d795949392919061234b565b3480156102b557600080fd5b506102c96102c436600461239c565b610b02565b005b3480156102d757600080fd5b506006546101cd565b3480156102ec57600080fd5b506103006102fb36600461222d565b610df4565b6040805195865260208601949094529284019190915260608301521515608082015260a0016101d7565b6102c961033836600461222d565b610ec3565b34801561034957600080fd5b5061035d61035836600461222d565b6111ce565b6040516101d791906123c8565b34801561037657600080fd5b506101cd6103853660046120a1565b6001600160a01b031660009081526001602052604090205490565b3480156103ac57600080fd5b506101cd6103bb3660046123db565b6112fb565b3480156103cc57600080fd5b506103e06103db36600461222d565b611327565b604080519283529015156020830152016101d7565b34801561040157600080fd5b506101cd6104103660046120a1565b6001600160a01b031660009081526003602052604090205490565b34801561043757600080fd5b50476101cd565b34801561044a57600080fd5b506004546101cd565b34801561045f57600080fd5b5061047361046e36600461222d565b61138b565b6040516101d791906123fe565b34801561048c57600080fd5b506101cd61049b3660046120a1565b6001600160a01b03166000908152600a602052604090205490565b3480156104c257600080fd5b506101cd60085481565b3480156104d857600080fd5b506104ec6104e736600461222d565b6113f0565b6040516101d79190612411565b34801561050557600080fd5b506104736105143660046120a1565b61145e565b34801561052557600080fd5b50610539610534366004612424565b6114c8565b60405190151581526020016101d7565b34801561055557600080fd5b506101cd610564366004612424565b611580565b34801561057557600080fd5b506101cd61058436600461244e565b6115b1565b34801561059557600080fd5b506105396105a43660046123db565b611786565b3480156105b557600080fd5b506101cd6105c43660046120a1565b6001600160a01b031660009081526002602052604090205490565b3480156105eb57600080fd5b506102c96105fa36600461222d565b6117ea565b6102c9611a25565b6001600160a01b0381166000908152600960205260408120606091829190805b82548110156106db576000600b600085848154811061064857610648612494565b60009182526020808320909101548352820192909252604001902080549091506001600160a01b0390811690881614801561069b5750600060028083015460ff1690811115610699576106996120bc565b145b80156106b557506002810154610100900463ffffffff1615155b156106c857826106c4816124c0565b9350505b50806106d3816124c0565b915050610627565b508067ffffffffffffffff8111156106f5576106f56124d9565b60405190808252806020026020018201604052801561075d57816020015b61074a6040805160c08101825260008082526020820181905290918201908152600060208201819052604082015260609081015290565b8152602001906001900390816107135790505b5093508067ffffffffffffffff811115610779576107796124d9565b6040519080825280602002602001820160405280156107a2578160200160208202803683370190505b5092506000805b8354811015610995576000600b60008684815481106107ca576107ca612494565b60009182526020808320909101548352820192909252604001902080549091506001600160a01b0390811690891614801561081d5750600060028083015460ff169081111561081b5761081b6120bc565b145b801561083757506002810154610100900463ffffffff1615155b15610982576040805160c08101825282546001600160a01b0316815260018301546020820152600280840154919284929084019160ff90911690811115610880576108806120bc565b6002811115610891576108916120bc565b81526020016002820160019054906101000a900463ffffffff1663ffffffff1663ffffffff168152602001600382015481526020016004820180548060200260200160405190810160405280929190818152602001828054801561091457602002820191906000526020600020905b815481526020019060010190808311610900575b50505050508152505087848151811061092f5761092f612494565b602002602001018190525084828154811061094c5761094c612494565b906000526020600020015486848151811061096957610969612494565b60209081029190910101528261097e816124c0565b9350505b508061098d816124c0565b9150506107a9565b50505050915091565b604080516101408101825260008082526020820181905291810182905260608082018390526080820183905260a0820183905260c0820183905260e082018390526101008201526101208101919091526000828152600760209081526040918290208251610140810184528154815260018201546001600160a01b031692810192909252600281015492820192909252600382015463ffffffff8082166060840152640100000000820416608083015260a0820190600160401b900460ff166005811115610a6e57610a6e6120bc565b8152602001826004015481526020018260050154815260200182600601805480602002602001604051908101604052809291908181526020018280548015610adf57602002820191906000526020600020905b81546001600160a01b03168152600190910190602001808311610ac1575b505050918352505060089092015463ffffffff1660209092019190915292915050565b8063ffffffff81161580610b1c575060648163ffffffff16115b15610b3a5760405163d1e95ed560e01b815260040160405180910390fd5b610b42611b58565b6000838152600760205260408120906003820154600160401b900460ff166005811115610b7157610b716120bc565b14158015610b9f575060016003820154600160401b900460ff166005811115610b9c57610b9c6120bc565b14155b15610bbd576040516380b9cb0960e01b815260040160405180910390fd5b6003810154606490610be09063ffffffff808716916401000000009004166124ef565b1115610bff5760405163955f95ad60e01b815260040160405180910390fd5b600060648463ffffffff168360020154610c199190612502565b610c239190612519565b33600090815260016020526040902054909150811115610c5657604051630391acf160e61b815260040160405180910390fd5b3360009081526001602052604081208054839290610c7590849061253b565b9091555050336000908152600a602052604081208054839290610c999084906124ef565b9091555050600382018054859190600490610cc3908490640100000000900463ffffffff1661254e565b825463ffffffff9182166101009390930a9283029190920219909116179055503360009081526007830160205260408120549003610d2357600682018054600181018255600091825260209091200180546001600160a01b031916331790555b33600090815260078301602052604081208054839290610d449084906124ef565b9091555050600382015463ffffffff8082166401000000009092041610610d965760038201805460ff60401b191668020000000000000000179055610d8885611bb5565b610d9185611cc7565b610dac565b60038201805460ff60401b1916600160401b1790555b604051818152339086907f86b47e6e6c03d769c0bc5ffd06c682ea7d07089576d59230ec18ff64e71bffe79060200160405180910390a35050610def6001600055565b505050565b6000818152600b602090815260408083206007909252822082918291829182918260028084015460ff1690811115610e2e57610e2e6120bc565b148015610e4957506002820154610100900463ffffffff1615155b15610e9d5760038201546002830154610e6d9190610100900463ffffffff16612502565b60038301546002840154600884015492995090975063ffffffff6101009091048116965016935060019250610eb8565b60088101546000975087965086955063ffffffff1693508492505b505091939590929450565b610ecb611b58565b34600003610eec5760405163162908e360e11b815260040160405180910390fd5b336000908152600260205260408120549003610f1b57604051630b5ab5bf60e41b815260040160405180910390fd5b6000818152600b6020526040902080546001600160a01b03163314610f5357604051630b5ab5bf60e41b815260040160405180910390fd5b600060028083015460ff1690811115610f6e57610f6e6120bc565b14610f8c57604051630b5ab5bf60e41b815260040160405180910390fd5b6002810154610100900463ffffffff16600003610fbc57604051630b5ab5bf60e41b815260040160405180910390fd5b80600301543414610fe05760405163162908e360e11b815260040160405180910390fd5b60018160020160018282829054906101000a900463ffffffff166110049190612572565b825463ffffffff91821661010093840a908102908302199091161790925560028401540416600003905061106e576002818101805460ff1916909117905560405182907f02ca5489b37dd363d1302bac719e8ee40e540ffbe8c12253570fea63e11cad7190600090a25b336000908152600260205260408120805434929061108d90849061253b565b9250508190555034600560008282546110a6919061253b565b9250508190555034600660008282546110bf91906124ef565b909155506110cf90508234611ea4565b33600081815260026020908152604091829020548251348152918201527f1b8cd61ed43bec7c6bdad3a18ffee613f99c853d16c50678d248d879e1b43438910160405180910390a2600281015460405161010090910463ffffffff16815282907f406356ef25520b09e2ef87c5225167b4161ea4ab691e9434d6ee29eafcc83fc29060200160405180910390a27f17f13fd3f7c4712af33f1770ebcb822dd20a2dbc00850eab48d786623d97b95960055460405161118f91815260200190565b60405180910390a16000805160206126218339815191526006546040516111b891815260200190565b60405180910390a1506111cb6001600055565b50565b6112056040805160c08101825260008082526020820181905290918201908152600060208201819052604082015260609081015290565b6000828152600b60209081526040808320815160c08101835281546001600160a01b03168152600182015493810193909352600280820154919284019160ff1690811115611255576112556120bc565b6002811115611266576112666120bc565b81526020016002820160019054906101000a900463ffffffff1663ffffffff1663ffffffff16815260200160038201548152602001600482018054806020026020016040519081016040528092919081815260200182805480156112e957602002820191906000526020600020905b8154815260200190600101908083116112d5575b50505091909252509195945050505050565b60008281526007602081815260408084206001600160a01b038616855290920190529020545b92915050565b6000818152600b6020526040812081908160028083015460ff1690811115611351576113516120bc565b14801561136c57506002810154610100900463ffffffff1615155b1561137f57600301549360019350915050565b50600093849350915050565b6000818152600b60209081526040918290206004018054835181840281018401909452808452606093928301828280156113e457602002820191906000526020600020905b8154815260200190600101908083116113d0575b50505050509050919050565b6000818152600760209081526040918290206006018054835181840281018401909452808452606093928301828280156113e457602002820191906000526020600020905b81546001600160a01b031681526001909101906020018083116114355750505050509050919050565b6001600160a01b0381166000908152600960209081526040918290208054835181840281018401909452808452606093928301828280156113e457602002820191906000526020600020908154815260200190600101908083116113d05750505050509050919050565b600080821180156114db57506006548211155b801561152757506001600160a01b03831660009081526001602052604090205467016345785d8a000011158061152757506001600160a01b038316600090815260026020526040902054155b801561157957506001600160a01b03831660009081526003602052604090205442906115579062093a80906124ef565b108061157957506001600160a01b038316600090815260026020526040902054155b9392505050565b6009602052816000526040600020818154811061159c57600080fd5b90600052602060002001600091509150505481565b600084806000036115d55760405163162908e360e11b815260040160405180910390fd5b8463ffffffff166046811115806115ec5750606481115b1561160a5760405163d1e95ed560e01b815260040160405180910390fd5b8360018163ffffffff1610806116265750600c8163ffffffff16115b156116445760405163524eff2760e01b815260040160405180910390fd5b6006548811156116675760405163356680b760e01b815260040160405180910390fd5b6008805460009182611678836124c0565b9091555060008181526007602052604081206001810180546001600160a01b03191633179055600281018c905560038101805467ffffffffffffffff19811663ffffffff8e1690811783559495509193909168ffffffffffffffffff191617600160401b8302179055506004810188905542600582015560088101805463ffffffff891663ffffffff19909116179055818155336000818152600960209081526040808320805460018101825590845291909220018490555183907fde3b47cf7da95a3cc41b86cf8717ead8d56a76ee1590481c5c4dc4d8804c40c490611771908e908c9091825263ffffffff16602082015260400190565b60405180910390a35098975050505050505050565b6000828152600b6020526040812080546001600160a01b0384811691161480156117c85750600060028083015460ff16908111156117c6576117c66120bc565b145b80156117e257506002810154610100900463ffffffff1615155b949350505050565b808060000361180c5760405163162908e360e11b815260040160405180910390fd5b816006548111156118305760405163356680b760e01b815260040160405180910390fd5b3360009081526001602052604090205467016345785d8a000011801561186457503360009081526002602052604090205415155b156118825760405163b4ff2ab760e01b815260040160405180910390fd5b3360009081526003602052604090205442906118a29062093a80906124ef565b101580156118be57503360009081526002602052604090205415155b156118dc5760405163c6061c8560e01b815260040160405180910390fd5b6118e4611b58565b33600081815260026020818152604080842080548981018255600580548b019055600680548b9003905560038452948290204290559282529154825188815291820152911592917feae9cfbc77fdd40ca899f36b608256063b2bc9d8178b0220f7ad513e178d6730910160405180910390a27f17f13fd3f7c4712af33f1770ebcb822dd20a2dbc00850eab48d786623d97b95960055460405161198991815260200190565b60405180910390a16000805160206126218339815191526006546040516119b291815260200190565b60405180910390a180156119ec5760405133907fdd6d577a01057a7ca4e715ae2c9f196a0a25d8e9d1ddd9376047869ce6fe56c790600090a25b604051339085156108fc029086906000818181858888f19350505050158015611a19573d6000803e3d6000fd5b5050610def6001600055565b3480600003611a475760405163162908e360e11b815260040160405180910390fd5b611a4f611b58565b336000818152600160209081526040918290208054348082018355600480548201905560068054820190559154845192835292820192909252901592917f4928895ba6723e8e27b15f32e4c3054a1b6c7f8c03f133558d6fa42b3928d14c910160405180910390a27fdc6e73d4b36e22ab95945bd8833a5af96c950eb29d8d75c4aecffc987637aaab600454604051611aea91815260200190565b60405180910390a1600080516020612621833981519152600654604051611b1391815260200190565b60405180910390a18015611b4d5760405133907f072dafb6aabe3f02118bc607efbeaaa104d6b2009720c7b130f24ba418689c4b90600090a25b506111cb6001600055565b600260005403611bae5760405162461bcd60e51b815260206004820152601f60248201527f5265656e7472616e637947756172643a207265656e7472616e742063616c6c00604482015260640160405180910390fd5b6002600055565b6000818152600b60209081526040808320600790925290912060018082015483546001600160a01b0319166001600160a01b0390911617835582018390556002808301805460ff198116825560088401805464ffffffffff1990921661010063ffffffff938416021790925590549190920154611c36929190911690612519565b6003820155600082815260076020526040902060080154611c5e90829063ffffffff16612017565b80546002820154600383015460405185936001600160a01b0316927f5215406e88f26eed4728b9cdfc5d85cea75799101cb9387b528451e6e0878dec92611cbb9260ff831692610100900463ffffffff169190600489019061258f565b60405180910390a35050565b600081815260076020908152604080832060028082015460018301546001600160a01b031686529352908320805491939091611d049084906124ef565b9091555050600281015460058054600090611d209084906124ef565b9091555050600281015460068054600090611d3c90849061253b565b90915550506001810180546001600160a01b039081166000908152600360208190526040808320429055908501805460ff60401b19166803000000000000000017905592546002850154935192169280156108fc02929091818181858888f19350505050158015611db1573d6000803e3d6000fd5b5060018101546002808301546001600160a01b039092166000818152602092835260409081902054815194855292840192909252917feae9cfbc77fdd40ca899f36b608256063b2bc9d8178b0220f7ad513e178d6730910160405180910390a27f17f13fd3f7c4712af33f1770ebcb822dd20a2dbc00850eab48d786623d97b959600554604051611e4491815260200190565b60405180910390a1600080516020612621833981519152600654604051611e6d91815260200190565b60405180910390a160405182907f9e71d2fb732e68272b7e74ecfd14638673c1d77e19a5d390a3ffff054d57c44b90600090a25050565b6000828152600760205260408120600281015490915b6006830154811015612010576000836006018281548110611edd57611edd612494565b60009182526020808320909101546001600160a01b03168083526007870190915260408220549092509084611f128389612502565b611f1c9190612519565b90508015611ffa576001600160a01b0383166000908152600a6020526040902054811115611f5f57506001600160a01b0382166000908152600a60205260409020545b6001600160a01b0383166000908152600a602052604081208054839290611f8790849061253b565b90915550506001600160a01b03831660009081526001602052604081208054839290611fb49084906124ef565b90915550506040518181526001600160a01b0384169089907fe3e6ae1e05f069d410556743894aacbb190c1431962422ebe8fcc642a467dd169060200160405180910390a35b5050508080612008906124c0565b915050611eba565b5050505050565b4262278d0060005b8363ffffffff168163ffffffff16101561201057600061204082600161254e565b6120509063ffffffff1684612502565b61205a90856124ef565b600487018054600181018255600091825260209091200155508061207d816125fd565b91505061201f565b80356001600160a01b038116811461209c57600080fd5b919050565b6000602082840312156120b357600080fd5b61157982612085565b634e487b7160e01b600052602160045260246000fd5b600381106120e2576120e26120bc565b9052565b600060c0830160018060a01b03835116845260208084015181860152604084015161211460408701826120d2565b5063ffffffff60608501511660608601526080840151608086015260a084015160c060a087015282815180855260e0880191508383019450600092505b808310156121715784518252938301936001929092019190830190612151565b509695505050505050565b600081518084526020808501945080840160005b838110156121ac57815187529582019590820190600101612190565b509495945050505050565b6000604082016040835280855180835260608501915060608160051b8601019250602080880160005b8381101561220e57605f198887030185526121fc8683516120e6565b955093820193908201906001016121e0565b505085840381870152505050612224818561217c565b95945050505050565b60006020828403121561223f57600080fd5b5035919050565b600681106120e2576120e26120bc565b600081518084526020808501945080840160005b838110156121ac5781516001600160a01b03168752958201959082019060010161226a565b6020815281516020820152600060208301516122b660408401826001600160a01b03169052565b506040830151606083015260608301516122d8608084018263ffffffff169052565b50608083015163ffffffff811660a08401525060a08301516122fd60c0840182612246565b5060c083015160e083015260e08301516101008181850152808501519150506101406101208181860152612335610160860184612256565b95015163ffffffff169301929092525090919050565b6001600160a01b03861681526020810185905260a0810161236f60408301866120d2565b63ffffffff939093166060820152608001529392505050565b803563ffffffff8116811461209c57600080fd5b600080604083850312156123af57600080fd5b823591506123bf60208401612388565b90509250929050565b60208152600061157960208301846120e6565b600080604083850312156123ee57600080fd5b823591506123bf60208401612085565b602081526000611579602083018461217c565b6020815260006115796020830184612256565b6000806040838503121561243757600080fd5b61244083612085565b946020939093013593505050565b6000806000806080858703121561246457600080fd5b8435935061247460208601612388565b92506040850135915061248960608601612388565b905092959194509250565b634e487b7160e01b600052603260045260246000fd5b634e487b7160e01b600052601160045260246000fd5b6000600182016124d2576124d26124aa565b5060010190565b634e487b7160e01b600052604160045260246000fd5b80820180821115611321576113216124aa565b8082028115828204841417611321576113216124aa565b60008261253657634e487b7160e01b600052601260045260246000fd5b500490565b81810381811115611321576113216124aa565b63ffffffff81811683821601908082111561256b5761256b6124aa565b5092915050565b63ffffffff82811682821603908082111561256b5761256b6124aa565b60006080820161259f83886120d2565b602063ffffffff8716818501528560408501526080606085015281855480845260a0860191508660005282600020935060005b818110156125ee578454835260019485019492840192016125d2565b50909998505050505050505050565b600063ffffffff808316818103612616576126166124aa565b600101939250505056fe8b094cca6f83d49402ce208cc0c224b76625ffc58636df56ae28024e704c5868a2646970667358221220a0b45b4b0b1c8dffe51f0f89831da778e9477a0c72b1a0ccaf921fc684c4f4b464736f6c63430008130033",
  "linkReferences": {},
  "deployedLinkReferences": {}
}