{
  "_format": "hh-sol-artifact-1",
  "contractName": "LoanMachine",
  "sourceName": "contracts/LoanMachine.sol",
  "abi": [
    {
      "inputs": [
        {
          "internalType": "address",
          "name": "_usdtToken",
          "type": "address"
        },
        {
          "internalType": "address",
          "name": "_reputationSystem",
          "type": "address"
        }
      ],
      "stateMutability": "nonpayable",
      "type": "constructor"
    },
    {
      "inputs": [],
      "name": "BorrowNotExpired",
      "type": "error"
    },
    {
      "inputs": [],
      "name": "ExcessiveDonation",
      "type": "error"
    },
    {
      "inputs": [],
      "name": "InsufficientDonationBalance",
      "type": "error"
    },
    {
      "inputs": [],
      "name": "InsufficientFunds",
      "type": "error"
    },
    {
      "inputs": [],
      "name": "InsufficientWithdrawableBalance",
      "type": "error"
    },
    {
      "inputs": [],
      "name": "InvalidAmount",
      "type": "error"
    },
    {
      "inputs": [],
      "name": "InvalidCoveragePercentage",
      "type": "error"
    },
    {
      "inputs": [],
      "name": "InvalidParcelsCount",
      "type": "error"
    },
    {
      "inputs": [],
      "name": "LoanNotAvailable",
      "type": "error"
    },
    {
      "inputs": [],
      "name": "MaxLoanRequisitionPendingReached",
      "type": "error"
    },
    {
      "inputs": [],
      "name": "MemberIdOrWalletInvalid",
      "type": "error"
    },
    {
      "inputs": [],
      "name": "MinimumDonationRequired",
      "type": "error"
    },
    {
      "inputs": [],
      "name": "MinimumPercentageCover",
      "type": "error"
    },
    {
      "inputs": [],
      "name": "NoActiveBorrowing",
      "type": "error"
    },
    {
      "inputs": [],
      "name": "OverCoverage",
      "type": "error"
    },
    {
      "inputs": [],
      "name": "ParcelAlreadyPaid",
      "type": "error"
    },
    {
      "inputs": [],
      "name": "RepaymentExceedsBorrowed",
      "type": "error"
    },
    {
      "inputs": [],
      "name": "TokenTransferFailed",
      "type": "error"
    },
    {
      "inputs": [],
      "name": "WalletAlreadyVinculated",
      "type": "error"
    },
    {
      "anonymous": false,
      "inputs": [
        {
          "indexed": false,
          "internalType": "uint256",
          "name": "total",
          "type": "uint256"
        }
      ],
      "name": "AvailableBalanceUpdated",
      "type": "event"
    },
    {
      "anonymous": false,
      "inputs": [
        {
          "indexed": true,
          "internalType": "address",
          "name": "borrower",
          "type": "address"
        }
      ],
      "name": "BorrowLimitReached",
      "type": "event"
    },
    {
      "anonymous": false,
      "inputs": [
        {
          "indexed": true,
          "internalType": "address",
          "name": "borrower",
          "type": "address"
        },
        {
          "indexed": false,
          "internalType": "uint256",
          "name": "amount",
          "type": "uint256"
        },
        {
          "indexed": false,
          "internalType": "uint256",
          "name": "totalBorrowing",
          "type": "uint256"
        }
      ],
      "name": "Borrowed",
      "type": "event"
    },
    {
      "anonymous": false,
      "inputs": [
        {
          "indexed": true,
          "internalType": "address",
          "name": "borrower",
          "type": "address"
        },
        {
          "indexed": false,
          "internalType": "enum DebtTracker.DebtStatus",
          "name": "newStatus",
          "type": "uint8"
        }
      ],
      "name": "BorrowerStatusUpdated",
      "type": "event"
    },
    {
      "anonymous": false,
      "inputs": [
        {
          "indexed": true,
          "internalType": "address",
          "name": "borrower",
          "type": "address"
        }
      ],
      "name": "DebtorAdded",
      "type": "event"
    },
    {
      "anonymous": false,
      "inputs": [
        {
          "indexed": true,
          "internalType": "address",
          "name": "borrower",
          "type": "address"
        }
      ],
      "name": "DebtorRemoved",
      "type": "event"
    },
    {
      "anonymous": false,
      "inputs": [
        {
          "indexed": true,
          "internalType": "address",
          "name": "donor",
          "type": "address"
        },
        {
          "indexed": false,
          "internalType": "uint256",
          "name": "amount",
          "type": "uint256"
        },
        {
          "indexed": false,
          "internalType": "uint256",
          "name": "totalDonation",
          "type": "uint256"
        }
      ],
      "name": "Donated",
      "type": "event"
    },
    {
      "anonymous": false,
      "inputs": [
        {
          "indexed": true,
          "internalType": "uint256",
          "name": "requisitionId",
          "type": "uint256"
        },
        {
          "indexed": true,
          "internalType": "address",
          "name": "lender",
          "type": "address"
        },
        {
          "indexed": false,
          "internalType": "uint256",
          "name": "amount",
          "type": "uint256"
        }
      ],
      "name": "LenderRepaid",
      "type": "event"
    },
    {
      "anonymous": false,
      "inputs": [
        {
          "indexed": true,
          "internalType": "uint256",
          "name": "requisitionId",
          "type": "uint256"
        }
      ],
      "name": "LoanCompleted",
      "type": "event"
    },
    {
      "anonymous": false,
      "inputs": [
        {
          "indexed": true,
          "internalType": "address",
          "name": "walletAddress",
          "type": "address"
        },
        {
          "indexed": true,
          "internalType": "uint256",
          "name": "requisitionId",
          "type": "uint256"
        },
        {
          "indexed": false,
          "internalType": "enum ILoanMachine.ContractStatus",
          "name": "status",
          "type": "uint8"
        },
        {
          "indexed": false,
          "internalType": "uint32",
          "name": "parcelsPending",
          "type": "uint32"
        },
        {
          "indexed": false,
          "internalType": "uint256",
          "name": "parcelsValues",
          "type": "uint256"
        },
        {
          "indexed": false,
          "internalType": "uint256[]",
          "name": "paymentDates",
          "type": "uint256[]"
        }
      ],
      "name": "LoanContractGenerated",
      "type": "event"
    },
    {
      "anonymous": false,
      "inputs": [
        {
          "indexed": true,
          "internalType": "uint256",
          "name": "requisitionId",
          "type": "uint256"
        },
        {
          "indexed": true,
          "internalType": "address",
          "name": "lender",
          "type": "address"
        },
        {
          "indexed": false,
          "internalType": "uint256",
          "name": "coverageAmount",
          "type": "uint256"
        }
      ],
      "name": "LoanCovered",
      "type": "event"
    },
    {
      "anonymous": false,
      "inputs": [
        {
          "indexed": true,
          "internalType": "uint256",
          "name": "requisitionId",
          "type": "uint256"
        }
      ],
      "name": "LoanFunded",
      "type": "event"
    },
    {
      "anonymous": false,
      "inputs": [
        {
          "indexed": true,
          "internalType": "uint256",
          "name": "requisitionId",
          "type": "uint256"
        },
        {
          "indexed": true,
          "internalType": "address",
          "name": "borrower",
          "type": "address"
        },
        {
          "indexed": false,
          "internalType": "uint256",
          "name": "amount",
          "type": "uint256"
        },
        {
          "indexed": false,
          "internalType": "uint32",
          "name": "parcelsCount",
          "type": "uint32"
        }
      ],
      "name": "LoanRequisitionCreated",
      "type": "event"
    },
    {
      "anonymous": false,
      "inputs": [
        {
          "indexed": false,
          "internalType": "uint256",
          "name": "timestamp",
          "type": "uint256"
        }
      ],
      "name": "MonthlyUpdateTriggered",
      "type": "event"
    },
    {
      "anonymous": false,
      "inputs": [
        {
          "indexed": true,
          "internalType": "address",
          "name": "borrower",
          "type": "address"
        }
      ],
      "name": "NewBorrower",
      "type": "event"
    },
    {
      "anonymous": false,
      "inputs": [
        {
          "indexed": true,
          "internalType": "address",
          "name": "donor",
          "type": "address"
        }
      ],
      "name": "NewDonor",
      "type": "event"
    },
    {
      "anonymous": false,
      "inputs": [
        {
          "indexed": true,
          "internalType": "uint256",
          "name": "requisitionId",
          "type": "uint256"
        },
        {
          "indexed": false,
          "internalType": "uint256",
          "name": "parcelsRemaining",
          "type": "uint256"
        }
      ],
      "name": "ParcelPaid",
      "type": "event"
    },
    {
      "anonymous": false,
      "inputs": [
        {
          "indexed": true,
          "internalType": "address",
          "name": "borrower",
          "type": "address"
        },
        {
          "indexed": false,
          "internalType": "uint256",
          "name": "amount",
          "type": "uint256"
        },
        {
          "indexed": false,
          "internalType": "uint256",
          "name": "remainingDebt",
          "type": "uint256"
        }
      ],
      "name": "Repaid",
      "type": "event"
    },
    {
      "anonymous": false,
      "inputs": [
        {
          "indexed": false,
          "internalType": "uint256",
          "name": "total",
          "type": "uint256"
        }
      ],
      "name": "TotalBorrowedUpdated",
      "type": "event"
    },
    {
      "anonymous": false,
      "inputs": [
        {
          "indexed": false,
          "internalType": "uint256",
          "name": "total",
          "type": "uint256"
        }
      ],
      "name": "TotalDonationsUpdated",
      "type": "event"
    },
    {
      "anonymous": false,
      "inputs": [
        {
          "indexed": true,
          "internalType": "address",
          "name": "donor",
          "type": "address"
        },
        {
          "indexed": false,
          "internalType": "uint256",
          "name": "amount",
          "type": "uint256"
        },
        {
          "indexed": false,
          "internalType": "uint256",
          "name": "donations",
          "type": "uint256"
        }
      ],
      "name": "Withdrawn",
      "type": "event"
    },
    {
      "inputs": [
        {
          "internalType": "address[]",
          "name": "borrowers",
          "type": "address[]"
        }
      ],
      "name": "batchUpdateDebtStatus",
      "outputs": [],
      "stateMutability": "nonpayable",
      "type": "function"
    },
    {
      "inputs": [
        {
          "internalType": "address",
          "name": "",
          "type": "address"
        },
        {
          "internalType": "uint256",
          "name": "",
          "type": "uint256"
        }
      ],
      "name": "borrowerRequisitions",
      "outputs": [
        {
          "internalType": "uint256",
          "name": "",
          "type": "uint256"
        }
      ],
      "stateMutability": "view",
      "type": "function"
    },
    {
      "inputs": [
        {
          "internalType": "uint256",
          "name": "requisitionId",
          "type": "uint256"
        },
        {
          "internalType": "address",
          "name": "borrower",
          "type": "address"
        }
      ],
      "name": "canPayRequisition",
      "outputs": [
        {
          "internalType": "bool",
          "name": "",
          "type": "bool"
        }
      ],
      "stateMutability": "view",
      "type": "function"
    },
    {
      "inputs": [
        {
          "internalType": "address",
          "name": "_user",
          "type": "address"
        },
        {
          "internalType": "uint256",
          "name": "_amount",
          "type": "uint256"
        }
      ],
      "name": "canUserBorrow",
      "outputs": [
        {
          "internalType": "bool",
          "name": "",
          "type": "bool"
        }
      ],
      "stateMutability": "view",
      "type": "function"
    },
    {
      "inputs": [
        {
          "internalType": "uint256",
          "name": "requisitionId",
          "type": "uint256"
        },
        {
          "internalType": "uint32",
          "name": "coveragePercentage",
          "type": "uint32"
        },
        {
          "internalType": "uint32",
          "name": "memberId",
          "type": "uint32"
        }
      ],
      "name": "coverLoan",
      "outputs": [],
      "stateMutability": "nonpayable",
      "type": "function"
    },
    {
      "inputs": [
        {
          "internalType": "uint256",
          "name": "amount",
          "type": "uint256"
        },
        {
          "internalType": "uint32",
          "name": "minimumCoverage",
          "type": "uint32"
        },
        {
          "internalType": "uint256",
          "name": "durationDays",
          "type": "uint256"
        },
        {
          "internalType": "uint32",
          "name": "parcelscount",
          "type": "uint32"
        },
        {
          "internalType": "uint32",
          "name": "memberId",
          "type": "uint32"
        }
      ],
      "name": "createLoanRequisition",
      "outputs": [
        {
          "internalType": "uint256",
          "name": "",
          "type": "uint256"
        }
      ],
      "stateMutability": "nonpayable",
      "type": "function"
    },
    {
      "inputs": [
        {
          "internalType": "uint256",
          "name": "amount",
          "type": "uint256"
        },
        {
          "internalType": "uint32",
          "name": "memberId",
          "type": "uint32"
        }
      ],
      "name": "donate",
      "outputs": [],
      "stateMutability": "nonpayable",
      "type": "function"
    },
    {
      "inputs": [
        {
          "internalType": "address",
          "name": "borrower",
          "type": "address"
        }
      ],
      "name": "getActiveLoans",
      "outputs": [
        {
          "components": [
            {
              "internalType": "address",
              "name": "walletAddress",
              "type": "address"
            },
            {
              "internalType": "uint256",
              "name": "requisitionId",
              "type": "uint256"
            },
            {
              "internalType": "enum ILoanMachine.ContractStatus",
              "name": "status",
              "type": "uint8"
            },
            {
              "internalType": "uint32",
              "name": "parcelsCount",
              "type": "uint32"
            },
            {
              "internalType": "uint32",
              "name": "parcelsPending",
              "type": "uint32"
            },
            {
              "internalType": "uint256",
              "name": "parcelsValues",
              "type": "uint256"
            },
            {
              "internalType": "uint256[]",
              "name": "paymentDates",
              "type": "uint256[]"
            },
            {
              "internalType": "uint256[]",
              "name": "parcelsAmounts",
              "type": "uint256[]"
            }
          ],
          "internalType": "struct ILoanMachine.LoanContract[]",
          "name": "activeLoans",
          "type": "tuple[]"
        },
        {
          "internalType": "uint256[]",
          "name": "requisitionIds",
          "type": "uint256[]"
        }
      ],
      "stateMutability": "view",
      "type": "function"
    },
    {
      "inputs": [
        {
          "internalType": "address",
          "name": "user",
          "type": "address"
        }
      ],
      "name": "getAllowance",
      "outputs": [
        {
          "internalType": "uint256",
          "name": "",
          "type": "uint256"
        }
      ],
      "stateMutability": "view",
      "type": "function"
    },
    {
      "inputs": [],
      "name": "getAvailableBalance",
      "outputs": [
        {
          "internalType": "uint256",
          "name": "",
          "type": "uint256"
        }
      ],
      "stateMutability": "view",
      "type": "function"
    },
    {
      "inputs": [],
      "name": "getAvailableBorrowAmount",
      "outputs": [
        {
          "internalType": "uint256",
          "name": "",
          "type": "uint256"
        }
      ],
      "stateMutability": "view",
      "type": "function"
    },
    {
      "inputs": [
        {
          "internalType": "address",
          "name": "borrower",
          "type": "address"
        }
      ],
      "name": "getBorrowerDebtStatus",
      "outputs": [
        {
          "internalType": "enum DebtTracker.DebtStatus",
          "name": "",
          "type": "uint8"
        }
      ],
      "stateMutability": "view",
      "type": "function"
    },
    {
      "inputs": [
        {
          "internalType": "address",
          "name": "borrower",
          "type": "address"
        }
      ],
      "name": "getBorrowerRequisitions",
      "outputs": [
        {
          "internalType": "uint256[]",
          "name": "",
          "type": "uint256[]"
        }
      ],
      "stateMutability": "view",
      "type": "function"
    },
    {
      "inputs": [],
      "name": "getBorrowersWithDebt",
      "outputs": [
        {
          "internalType": "address[]",
          "name": "",
          "type": "address[]"
        }
      ],
      "stateMutability": "view",
      "type": "function"
    },
    {
      "inputs": [],
      "name": "getBorrowersWithoutDebt",
      "outputs": [
        {
          "internalType": "address[]",
          "name": "",
          "type": "address[]"
        }
      ],
      "stateMutability": "view",
      "type": "function"
    },
    {
      "inputs": [
        {
          "internalType": "address",
          "name": "_user",
          "type": "address"
        }
      ],
      "name": "getBorrowing",
      "outputs": [
        {
          "internalType": "uint256",
          "name": "",
          "type": "uint256"
        }
      ],
      "stateMutability": "view",
      "type": "function"
    },
    {
      "inputs": [],
      "name": "getContractBalance",
      "outputs": [
        {
          "internalType": "uint256",
          "name": "",
          "type": "uint256"
        }
      ],
      "stateMutability": "view",
      "type": "function"
    },
    {
      "inputs": [
        {
          "internalType": "uint256",
          "name": "requisitionId",
          "type": "uint256"
        }
      ],
      "name": "getCoveringLenders",
      "outputs": [
        {
          "internalType": "address[]",
          "name": "",
          "type": "address[]"
        }
      ],
      "stateMutability": "view",
      "type": "function"
    },
    {
      "inputs": [
        {
          "internalType": "address",
          "name": "_user",
          "type": "address"
        }
      ],
      "name": "getDonation",
      "outputs": [
        {
          "internalType": "uint256",
          "name": "",
          "type": "uint256"
        }
      ],
      "stateMutability": "view",
      "type": "function"
    },
    {
      "inputs": [
        {
          "internalType": "address",
          "name": "lender",
          "type": "address"
        }
      ],
      "name": "getDonationsInCoverage",
      "outputs": [
        {
          "internalType": "uint256",
          "name": "",
          "type": "uint256"
        }
      ],
      "stateMutability": "view",
      "type": "function"
    },
    {
      "inputs": [
        {
          "internalType": "address",
          "name": "_user",
          "type": "address"
        }
      ],
      "name": "getLastBorrowTime",
      "outputs": [
        {
          "internalType": "uint256",
          "name": "",
          "type": "uint256"
        }
      ],
      "stateMutability": "view",
      "type": "function"
    },
    {
      "inputs": [
        {
          "internalType": "uint256",
          "name": "requisitionId",
          "type": "uint256"
        },
        {
          "internalType": "address",
          "name": "lender",
          "type": "address"
        }
      ],
      "name": "getLenderCoverage",
      "outputs": [
        {
          "internalType": "uint256",
          "name": "",
          "type": "uint256"
        }
      ],
      "stateMutability": "view",
      "type": "function"
    },
    {
      "inputs": [
        {
          "internalType": "uint256",
          "name": "requisitionId",
          "type": "uint256"
        }
      ],
      "name": "getLoanContract",
      "outputs": [
        {
          "components": [
            {
              "internalType": "address",
              "name": "walletAddress",
              "type": "address"
            },
            {
              "internalType": "uint256",
              "name": "requisitionId",
              "type": "uint256"
            },
            {
              "internalType": "enum ILoanMachine.ContractStatus",
              "name": "status",
              "type": "uint8"
            },
            {
              "internalType": "uint32",
              "name": "parcelsCount",
              "type": "uint32"
            },
            {
              "internalType": "uint32",
              "name": "parcelsPending",
              "type": "uint32"
            },
            {
              "internalType": "uint256",
              "name": "parcelsValues",
              "type": "uint256"
            },
            {
              "internalType": "uint256[]",
              "name": "paymentDates",
              "type": "uint256[]"
            },
            {
              "internalType": "uint256[]",
              "name": "parcelsAmounts",
              "type": "uint256[]"
            }
          ],
          "internalType": "struct ILoanMachine.LoanContract",
          "name": "",
          "type": "tuple"
        }
      ],
      "stateMutability": "view",
      "type": "function"
    },
    {
      "inputs": [
        {
          "internalType": "address",
          "name": "wallet",
          "type": "address"
        }
      ],
      "name": "getMemberId",
      "outputs": [
        {
          "internalType": "uint32",
          "name": "",
          "type": "uint32"
        }
      ],
      "stateMutability": "view",
      "type": "function"
    },
    {
      "inputs": [
        {
          "internalType": "uint256",
          "name": "requisitionId",
          "type": "uint256"
        }
      ],
      "name": "getNextPaymentAmount",
      "outputs": [
        {
          "internalType": "uint256",
          "name": "paymentAmount",
          "type": "uint256"
        },
        {
          "internalType": "bool",
          "name": "canPay",
          "type": "bool"
        }
      ],
      "stateMutability": "view",
      "type": "function"
    },
    {
      "inputs": [
        {
          "internalType": "uint256",
          "name": "requisitionId",
          "type": "uint256"
        }
      ],
      "name": "getPaymentDates",
      "outputs": [
        {
          "internalType": "uint256[]",
          "name": "",
          "type": "uint256[]"
        }
      ],
      "stateMutability": "view",
      "type": "function"
    },
    {
      "inputs": [
        {
          "internalType": "uint256",
          "name": "requisitionId",
          "type": "uint256"
        }
      ],
      "name": "getRepaymentSummary",
      "outputs": [
        {
          "internalType": "uint256",
          "name": "totalRemainingDebt",
          "type": "uint256"
        },
        {
          "internalType": "uint256",
          "name": "nextPaymentAmount",
          "type": "uint256"
        },
        {
          "internalType": "uint256",
          "name": "parcelsRemaining",
          "type": "uint256"
        },
        {
          "internalType": "uint256",
          "name": "totalParcels",
          "type": "uint256"
        },
        {
          "internalType": "bool",
          "name": "isActive",
          "type": "bool"
        }
      ],
      "stateMutability": "view",
      "type": "function"
    },
    {
      "inputs": [
        {
          "internalType": "uint32",
          "name": "memberId",
          "type": "uint32"
        }
      ],
      "name": "getReputation",
      "outputs": [
        {
          "internalType": "int32",
          "name": "",
          "type": "int32"
        }
      ],
      "stateMutability": "view",
      "type": "function"
    },
    {
      "inputs": [
        {
          "internalType": "uint256",
          "name": "requisitionId",
          "type": "uint256"
        }
      ],
      "name": "getRequisitionInfo",
      "outputs": [
        {
          "components": [
            {
              "internalType": "uint256",
              "name": "requisitionId",
              "type": "uint256"
            },
            {
              "internalType": "address",
              "name": "borrower",
              "type": "address"
            },
            {
              "internalType": "uint256",
              "name": "amount",
              "type": "uint256"
            },
            {
              "internalType": "uint32",
              "name": "minimumCoverage",
              "type": "uint32"
            },
            {
              "internalType": "uint32",
              "name": "currentCoverage",
              "type": "uint32"
            },
            {
              "internalType": "enum ILoanMachine.BorrowStatus",
              "name": "status",
              "type": "uint8"
            },
            {
              "internalType": "uint256",
              "name": "durationDays",
              "type": "uint256"
            },
            {
              "internalType": "uint256",
              "name": "creationTime",
              "type": "uint256"
            },
            {
              "internalType": "address[]",
              "name": "coveringLenders",
              "type": "address[]"
            },
            {
              "internalType": "uint32",
              "name": "parcelsCount",
              "type": "uint32"
            }
          ],
          "internalType": "struct ILoanMachine.RequisitionInfo",
          "name": "",
          "type": "tuple"
        }
      ],
      "stateMutability": "view",
      "type": "function"
    },
    {
      "inputs": [],
      "name": "getTotalBorrowed",
      "outputs": [
        {
          "internalType": "uint256",
          "name": "",
          "type": "uint256"
        }
      ],
      "stateMutability": "view",
      "type": "function"
    },
    {
      "inputs": [],
      "name": "getTotalDonations",
      "outputs": [
        {
          "internalType": "uint256",
          "name": "",
          "type": "uint256"
        }
      ],
      "stateMutability": "view",
      "type": "function"
    },
    {
      "inputs": [],
      "name": "getUSDTBalance",
      "outputs": [
        {
          "internalType": "uint256",
          "name": "",
          "type": "uint256"
        }
      ],
      "stateMutability": "view",
      "type": "function"
    },
    {
      "inputs": [
        {
          "internalType": "address",
          "name": "user",
          "type": "address"
        }
      ],
      "name": "getWithdrawableBalance",
      "outputs": [
        {
          "internalType": "uint256",
          "name": "",
          "type": "uint256"
        }
      ],
      "stateMutability": "view",
      "type": "function"
    },
    {
      "inputs": [
        {
          "internalType": "address",
          "name": "borrower",
          "type": "address"
        }
      ],
      "name": "hasActiveDebt",
      "outputs": [
        {
          "internalType": "bool",
          "name": "",
          "type": "bool"
        }
      ],
      "stateMutability": "view",
      "type": "function"
    },
    {
      "inputs": [
        {
          "internalType": "address",
          "name": "borrower",
          "type": "address"
        }
      ],
      "name": "hasOverdueDebt",
      "outputs": [
        {
          "internalType": "bool",
          "name": "",
          "type": "bool"
        }
      ],
      "stateMutability": "view",
      "type": "function"
    },
    {
      "inputs": [
        {
          "internalType": "address",
          "name": "wallet",
          "type": "address"
        }
      ],
      "name": "isWalletVinculated",
      "outputs": [
        {
          "internalType": "bool",
          "name": "",
          "type": "bool"
        }
      ],
      "stateMutability": "view",
      "type": "function"
    },
    {
      "inputs": [
        {
          "internalType": "uint256",
          "name": "",
          "type": "uint256"
        }
      ],
      "name": "loanContracts",
      "outputs": [
        {
          "internalType": "address",
          "name": "walletAddress",
          "type": "address"
        },
        {
          "internalType": "uint256",
          "name": "requisitionId",
          "type": "uint256"
        },
        {
          "internalType": "enum ILoanMachine.ContractStatus",
          "name": "status",
          "type": "uint8"
        },
        {
          "internalType": "uint32",
          "name": "parcelsCount",
          "type": "uint32"
        },
        {
          "internalType": "uint32",
          "name": "parcelsPending",
          "type": "uint32"
        },
        {
          "internalType": "uint256",
          "name": "parcelsValues",
          "type": "uint256"
        }
      ],
      "stateMutability": "view",
      "type": "function"
    },
    {
      "inputs": [],
      "name": "nextMonthlyUpdate",
      "outputs": [
        {
          "internalType": "uint256",
          "name": "",
          "type": "uint256"
        }
      ],
      "stateMutability": "view",
      "type": "function"
    },
    {
      "inputs": [
        {
          "internalType": "uint256",
          "name": "requisitionId",
          "type": "uint256"
        },
        {
          "internalType": "uint256",
          "name": "amount",
          "type": "uint256"
        },
        {
          "internalType": "uint32",
          "name": "memberId",
          "type": "uint32"
        }
      ],
      "name": "repay",
      "outputs": [],
      "stateMutability": "nonpayable",
      "type": "function"
    },
    {
      "inputs": [],
      "name": "reputationSystem",
      "outputs": [
        {
          "internalType": "contract ReputationSystem",
          "name": "",
          "type": "address"
        }
      ],
      "stateMutability": "view",
      "type": "function"
    },
    {
      "inputs": [],
      "name": "requisitionCounter",
      "outputs": [
        {
          "internalType": "uint256",
          "name": "",
          "type": "uint256"
        }
      ],
      "stateMutability": "view",
      "type": "function"
    },
    {
      "inputs": [],
      "name": "shouldTriggerUpdate",
      "outputs": [
        {
          "internalType": "bool",
          "name": "",
          "type": "bool"
        }
      ],
      "stateMutability": "view",
      "type": "function"
    },
    {
      "inputs": [],
      "name": "triggerMonthlyUpdate",
      "outputs": [],
      "stateMutability": "nonpayable",
      "type": "function"
    },
    {
      "inputs": [
        {
          "internalType": "address",
          "name": "borrower",
          "type": "address"
        }
      ],
      "name": "updateBorrowerDebtStatus",
      "outputs": [],
      "stateMutability": "nonpayable",
      "type": "function"
    },
    {
      "inputs": [],
      "name": "usdtToken",
      "outputs": [
        {
          "internalType": "address",
          "name": "",
          "type": "address"
        }
      ],
      "stateMutability": "view",
      "type": "function"
    },
    {
      "inputs": [
        {
          "internalType": "uint32",
          "name": "memberId",
          "type": "uint32"
        },
        {
          "internalType": "address",
          "name": "wallet",
          "type": "address"
        }
      ],
      "name": "vinculationMemberToWallet",
      "outputs": [],
      "stateMutability": "nonpayable",
      "type": "function"
    },
    {
      "inputs": [
        {
          "internalType": "uint256",
          "name": "amount",
          "type": "uint256"
        },
        {
          "internalType": "uint32",
          "name": "memberId",
          "type": "uint32"
        }
      ],
      "name": "withdraw",
      "outputs": [],
      "stateMutability": "nonpayable",
      "type": "function"
    }
  ],
  "bytecode": "0x60a034620000cf57601f6200351e38819003918201601f19168301916001600160401b03831184841017620000d4578084926040948552833981010312620000cf576200005a60206200005283620000ea565b9201620000ea565b6001600081905560809290925281546001600160a01b0319166001600160a01b0390911617905562278d006008554260075560405161341e908162000100823960805181818161083b01528181610dad01528181610ed001528181611368015281816117800152818161200a0152612e390152f35b600080fd5b634e487b7160e01b600052604160045260246000fd5b51906001600160a01b0382168203620000cf5756fe6080604052600436101561001257600080fd5b60003560e01c8063016c704f14612b985780630307c4a114612b7a57806303d1a1a1146129055780630bc218531461289d578063182d94b5146126735780631b70ba3e146124cb57806321bb31e414612459578063232869fa146123db578063291c31a714611dcf5780632b31c0221461231e5780633403c25d146122a9578063383ab2ef14612260578063410a1d32146122265780634e51c7df146121db578063598a562a146121795780636145d1b714611f175780636509a71014611eeb578063657eb03114611eb15780636587eda114611e885780636f9fb98a14611554578063777c658f14611e6a5780637910340014611e0d5780637d52437a14611dd4578063809dab6a14611dcf57806381db228414611d49578063827cc0e514611d0f578063830efd3b14611c83578063843592d314611c5857806384ddf5ea14611c3a5780638a914a6314611bf75780639059f9ca146115bc5780639730872a146115595780639785fac81461155457806397c33519146114815780639e93201114611429578063a7af694714611397578063a98ad46c14611352578063adceb101146112d0578063b9f0fec414611240578063be5eb58014611206578063c269014b14611167578063ccdce44e14611098578063e276392414610e14578063eb5a662e14610d66578063ecb18b3414610370578063f0853e1d146102bf5763f947a8a91461022157600080fd5b346102a65760003660031901126102a657604051636ecf807360e11b81526002600482015260208160248173__$8a3883123a2a1b05b37447bdbb3fdcf5d3$__5af480156102b35760009061027c575b602090604051908152f35b506020813d82116102ab575b8161029560209383612f29565b810103126102a65760209051610271565b600080fd5b3d9150610288565b6040513d6000823e3d90fd5b346102a6576020806003193601126102a6576102d9612c8a565b6040516315ffae5b60e21b8152600260048201526001600160a01b039091166024820152818160448173__$8a3883123a2a1b05b37447bdbb3fdcf5d3$__5af49081156102b35760009161033a575b506040519061033681612cb6565b8152f35b90508181813d8311610369575b6103518183612f29565b810103126102a6575160038110156102a65782610328565b503d610347565b346102a65760603660031901126102a657610389612db5565b63ffffffff610396612ddb565b169081158015610d05575b610cf35763ffffffff8116158015610ce3575b610cd157600963ffffffff82161115610cbf576103cf612ff5565b600435600052601160205260406000209160038301805460ff8160401c166006811015610ca9578015159081610c9d575b50610c8b5761041d60649163ffffffff8087169160201c1661309c565b11610c795761043663ffffffff84166002860154613102565b93670de0b6b3a764000094858102958187041490151715610a0d5768056bc75e2d630fffff8501809511610a0d5733600052600b60205268056bc75e2d63100000850460406000205410610c675733600052600b60205260406000206104a868056bc75e2d6310000087048254612fe8565b905533600052601460205260406000206104ce68056bc75e2d631000008704825461309c565b9055815463ffffffff851663ffffffff8260201c160163ffffffff8111610a0d5767ffffffff000000009060201b169067ffffffff0000000019161782556007810190336000528160205260406000205415610c25575b5033600052602052604060002061054868056bc75e2d631000008604825461309c565b9055805463ffffffff811663ffffffff8260201c161015600014610c0c57506802000000000000000060ff60401b19825416179055806000526015602052604060002063ffffffff19815416905560043560005260166020526040600020601160205260406000209060018060a01b036001830154166bffffffffffffffffffffffff60a01b825416178155600435600182015563ffffffff6002808301549360ff19851682850155600881019464ffffffff00865460081b169064ffffffffff1916178285015561063e838654168386019068ffffffff000000000082549160281b169068ffffffff00000000001916179055565b01549254169161064e8382613115565b8315610bf65761065d84613137565b9160005b858110610bb8575050600383015560005b8363ffffffff821610610b695750815460028301546003840154604051926001600160a01b03169163ffffffff9060ff81166106ad81612cb6565b855260281c1660208401526040830152608060608301527f5215406e88f26eed4728b9cdfc5d85cea75799101cb9387b528451e6e0878dec60043592806106fa608082016004890161317d565b0390a360005b838110610b4457505050506004356000526011602052604060002060018060a01b036001820154169081600052600a60205260ff6040600020541615610aaa575b600360028201918254600c60205261075f604060002091825461309c565b905561076e8354600f5461309c565b600f5561077e8354601054612fe8565b60105583600052600d60205242604060002055016803000000000000000060ff60401b1982541617905573__$8a3883123a2a1b05b37447bdbb3fdcf5d3$__803b156102a65760006064916040519283809263e63dd53160e01b8252600260048301528760248301526303d1a1a13060201b1760401b60448301525af480156102b357610a9b575b50805460405163a9059cbb60e01b81526001600160a01b038416600482015260248101919091526020818060448101038160007f00000000000000000000000000000000000000000000000000000000000000006001600160a01b03165af19081156102b357600091610a6c575b5015610a5a5760407feae9cfbc77fdd40ca899f36b608256063b2bc9d8178b0220f7ad513e178d6730915483600052600c602052816000205482519182526020820152a27f17f13fd3f7c4712af33f1770ebcb822dd20a2dbc00850eab48d786623d97b9596020600f54604051908152a16000805160206133c98339815191526020601054604051908152a16004357f9e71d2fb732e68272b7e74ecfd14638673c1d77e19a5d390a3ffff054d57c44b600080a25b600154604051636adf462560e11b81526001600160a01b0390911692602082600481875afa9182156102b357600092610a23575b5063ffffffff1660030b9060030b028060030b908103610a0d57823b156102a657606460009283600a95604051968795869463533dfa3560e01b865260048601520560030b6024840152600160448401525af180156102b3576109fe575b5068056bc75e2d631000006040519104815233907f86b47e6e6c03d769c0bc5ffd06c682ea7d07089576d59230ec18ff64e71bffe7602060043592a36001600055005b610a0790612edb565b816109bb565b634e487b7160e01b600052601160045260246000fd5b63ffffffff919250610a4c9060203d602011610a53575b610a448183612f29565b810190613083565b919061095d565b503d610a3a565b60405163022e258160e11b8152600490fd5b610a8e915060203d602011610a94575b610a868183612f29565b810190612f4b565b86610874565b503d610a7c565b610aa490612edb565b85610806565b600954600160401b811015610b2e576001810180600955811015610b18577f6e1540171b6c0c960b71a7020d9f60077f6af931a8bbf590da0223dacf75c7af0180546001600160a01b031916831790556000828152600a60205260409020805460ff19166001179055610741565b634e487b7160e01b600052603260045260246000fd5b634e487b7160e01b600052604160045260246000fd5b80610b5f610b55610b649385613169565b51600586016130b8565b6130a9565b610700565b63ffffffff610b77826130ed565b169062278d009180830292830403610a0d57610ba4610b9b63ffffffff934261309c565b600486016130b8565b1663ffffffff8114610a0d57600101610672565b858206811015610be7576001830190818411610a0d57610be291610bdc8287613169565b526130a9565b610661565b8083610bdc610be29387613169565b634e487b7160e01b600052601260045260246000fd5b68ff00000000000000001916600160401b179055610929565b6006018054600160401b811015610b2e57610c4591600182018155612ec3565b81546001600160a01b0360039290921b91821b19163390911b17905585610525565b604051630391acf160e61b8152600490fd5b60405163955f95ad60e01b8152600490fd5b6040516380b9cb0960e01b8152600490fd5b60019150141586610400565b634e487b7160e01b600052602160045260246000fd5b60405163f556155f60e01b8152600490fd5b60405163d1e95ed560e01b8152600490fd5b50606463ffffffff8216116103b4565b604051630cff23e760e01b8152600490fd5b50600154604051632cc52b1560e11b815233600482015290602090829060249082906001600160a01b03165afa9081156102b357600091610d48575b50156103a1565b610d60915060203d8111610a9457610a868183612f29565b83610d41565b346102a6576020806003193601126102a657604481610d83612c8a565b604051636eb1769f60e11b81526001600160a01b03918216600482015230602482015292839182907f0000000000000000000000000000000000000000000000000000000000000000165afa9081156102b357600091610de7575b50604051908152f35b90508181813d8311610e0d575b610dfe8183612f29565b810103126102a6575182610dde565b503d610df4565b346102a65760403660031901126102a65760043563ffffffff610e35612db5565b16158015611037575b610cf357801561102557610e50612ff5565b604051630c47ab3d60e21b8152602090818180610e703060048301612f63565b038173__$8a3883123a2a1b05b37447bdbb3fdcf5d3$__5af480156102b357611008575b50624c4b408211610ff6576040516323b872dd60e01b815233600482015230602482015260448101839052818160648160006001600160a01b037f0000000000000000000000000000000000000000000000000000000000000000165af19081156102b357600091610fd9575b5015610a5a576000805160206133c98339815191529033600052600b815260406000207fdc6e73d4b36e22ab95945bd8833a5af96c950eb29d8d75c4aecffc987637aaab82825495808701845580600e54019081600e558060105401948560105554604051918252838201527f4928895ba6723e8e27b15f32e4c3054a1b6c7f8c03f133558d6fa42b3928d14c60403392a2604051908152a1604051908152a115610fae575b6001600055005b337f072dafb6aabe3f02118bc607efbeaaa104d6b2009720c7b130f24ba418689c4b600080a2610fa7565b610ff09150823d8411610a9457610a868183612f29565b83610f01565b6040516330fdf8db60e11b8152600490fd5b61101e90823d8411610a9457610a868183612f29565b5082610e94565b60405163162908e360e11b8152600490fd5b50600154604051632cc52b1560e11b815233600482015290602090829060249082906001600160a01b03165afa9081156102b35760009161107a575b5015610e3e565b611092915060203d8111610a9457610a868183612f29565b82611073565b346102a65760003660031901126102a6576110b1612ff5565b604051630c47ab3d60e21b8152602081806110cf3060048301612f63565b038173__$8a3883123a2a1b05b37447bdbb3fdcf5d3$__5af49081156102b357600091611149575b5015611104576001600055005b60405162461bcd60e51b815260206004820152601a60248201527f4d6f6e74686c7920757064617465206e6f7420647565207965740000000000006044820152606490fd5b611161915060203d8111610a9457610a868183612f29565b816110f7565b346102a6576020806003193601126102a657611181612c8a565b60015460405163c269014b60e01b81526001600160a01b03928316600482015291839183916024918391165afa9081156102b3576000916111cc575b5063ffffffff60405191168152f35b90508181813d83116111ff575b6111e38183612f29565b810103126102a6575163ffffffff811681036102a657826111bd565b503d6111d9565b346102a65760203660031901126102a6576001600160a01b03611227612c8a565b16600052600c6020526020604060002054604051908152f35b346102a65760203660031901126102a657611259612c8a565b73__$8a3883123a2a1b05b37447bdbb3fdcf5d3$__90813b156102a6576040805163e63dd53160e01b8152600260048201526001600160a01b0390921660248301523060201b6303d1a1a117901b604482015290600090829060649082905af480156102b3576112c557005b6112ce90612edb565b005b346102a65760403660031901126102a65760206112eb612ca0565b6004356000526016825260406000209060018060a01b03808354169116149081611338575b81611321575b506040519015158152f35b63ffffffff91506002015460281c16151582611316565b905060ff60028201541661134b81612cb6565b1590611310565b346102a65760003660031901126102a6576040517f00000000000000000000000000000000000000000000000000000000000000006001600160a01b03168152602090f35b346102a65760203660031901126102a6576113b0612c8a565b604051632de5e9bf60e01b8152600260048201526001600160a01b03909116602482015260208160448173__$8a3883123a2a1b05b37447bdbb3fdcf5d3$__5af480156102b35760209160009161140c57506040519015158152f35b6114239150823d8111610a9457610a868183612f29565b82611316565b346102a65760403660031901126102a657611442612c8a565b6001600160a01b03166000908152601360205260409020805460243591908210156102a65760209161147391612ec3565b90546040519160031b1c8152f35b346102a65760403660031901126102a65761149a612c8a565b6024358015159081611547575b5080611510575b806114c1575b6020906040519015158152f35b506001600160a01b03166000818152600d602052604090205462093a808101908110610a0d57421180156114f9575b602091506114b4565b50600052600c6020526020604060002054156114f0565b506001600160a01b0381166000908152600b6020526040902054620f42401115806114ae5750600c602052604060002054156114ae565b90506010541015826114a7565b612e0c565b346102a65760203660031901126102a6576001600160a01b0361157a612c8a565b1660005260136020526115b861159d6115a460406000206040519283809261317d565b0382612f29565b604051918291602083526020830190612cc0565b0390f35b346102a65760603660031901126102a657602480359063ffffffff600435816115e3612ddb565b169283158015611b97575b610cf357816000526020906016825260406000209533600052600c835260406000205415611b855786546001600160a01b0397903390891603611b85576002015460ff811661163c81612cb6565b611b855760281c851615611b8557611652612ff5565b604051630c47ab3d60e21b815273__$8a3883123a2a1b05b37447bdbb3fdcf5d3$__908481806116853060048301612f63565b0381855af480156102b357611b68575b5081156110255784600052601684526040600020906002820197885488808260281c169160081c1603888111611a6c576116d29060048501612ec3565b905460039491851b1c421115611aca578a600154169160405163a5118bf160e01b81528881600481875afa9081156102b357600091611aad575b50833b156102a657606460009283604051968794859363533dfa3560e01b855260048501528a0b8c8401528160448401525af19182156102b3578492611a9e575b505b01548303611025576040516323b872dd60e01b815233600482015230602482015260448101849052858160648160007f00000000000000000000000000000000000000000000000000000000000000008f165af19081156102b357600091611a81575b5015610a5a5796959633600052600c855260406000206117d3848254612fe8565b90556117e183600f54612fe8565b600f556117f08360105461309c565b60105585600052601185526040600020906002820154946000986007600685019401995b84548110156118df57808d61182c6118639388612ec3565b905490891b1c16806000528c8b528b6118538b61184e6040600020548d613102565b613115565b8c81611868575b505050506130a9565b611814565b7fe3e6ae1e05f069d410556743894aacbb190c1431962422ebe8fcc642a467dd16918460005260148252604060002080548083116118d7575b826118ab91612fe8565b905584600052600b825260406000206118c582825461309c565b9055604051908152a38e8b818c61185a565b9150816118a1565b508888918c8833600052600c8552604060002054604051918252858201527f1b8cd61ed43bec7c6bdad3a18ffee613f99c853d16c50678d248d879e1b4343860403392a280825460281c16837f406356ef25520b09e2ef87c5225167b4161ea4ab691e9434d6ee29eafcc83fc286604051848152a27f17f13fd3f7c4712af33f1770ebcb822dd20a2dbc00850eab48d786623d97b95985600f54604051908152a16000805160206133c983398151915285601054604051908152a160001901818111611a6c57825468ffffffff0000000000191660289190911b68ffffffff0000000000161782558154908160281c1615611a36575b505050823b156102a65760646000926303d1a1a194604051958694859363e63dd53160e01b855260026004860152339085015230901b1760401b60448301525af480156102b357611a27576001600055005b611a3090612edb565b80610fa7565b60ff191660021790557f02ca5489b37dd363d1302bac719e8ee40e540ffbe8c12253570fea63e11cad71600080a28380806119d5565b85634e487b7160e01b60005260116004526000fd5b611a989150863d8811610a9457610a868183612f29565b8a6117b2565b611aa790612edb565b8b61174d565b611ac49150893d8b11610a5357610a448183612f29565b8d61170c565b8a6001541691604051634e5ecf1360e01b81528881600481875afa9081156102b357600091611b4b575b50833b156102a657606460009283604051968794859363533dfa3560e01b855260048501528a0b8c840152600160448401525af19182156102b3578492611b3c575b5061174f565b611b4590612edb565b8b611b36565b611b629150893d8b11610a5357610a448183612f29565b8d611af4565b611b7e90853d8711610a9457610a868183612f29565b5088611695565b604051630b5ab5bf60e41b8152600490fd5b50600154604051632cc52b1560e11b8152336004820152906020908290849082906001600160a01b03165afa9081156102b357600091611bd9575b50156115ee565b611bf1915060203d8111610a9457610a868183612f29565b86611bd2565b346102a65760203660031901126102a65760043560005260116020526115b8611c26600660406000200161336e565b604051918291602083526020830190612d78565b346102a65760003660031901126102a6576020601254604051908152f35b346102a65760203660031901126102a6576020611c7b611c76612c8a565b61304b565b604051908152f35b346102a65760003660031901126102a65760405163404b48bf60e01b81526002600482015260008160248173__$8a3883123a2a1b05b37447bdbb3fdcf5d3$__5af480156102b3576115b891600091611cec575b50604051918291602083526020830190612d78565b611d0991503d806000833e611d018183612f29565b8101906131ba565b82611cd7565b346102a65760203660031901126102a6576001600160a01b03611d30612c8a565b1660005260146020526020604060002054604051908152f35b346102a65760203660031901126102a657611d62612dc8565b600154604051632076c8a160e21b815263ffffffff929092166004830152602090829060249082906001600160a01b03165afa80156102b357602091600091611db2575b506040519060030b8152f35b611dc99150823d8111610a5357610a448183612f29565b82611da6565b612dee565b346102a65760203660031901126102a65760043560005260166020526115b861159d6115a460046040600020016040519283809261317d565b346102a65760003660031901126102a65760405163f28e2c2f60e01b81526002600482015260208160248173__$8a3883123a2a1b05b37447bdbb3fdcf5d3$__5af480156102b35760209160009161140c57506040519015158152f35b346102a65760003660031901126102a6576020600e54604051908152f35b346102a65760003660031901126102a6576001546040516001600160a01b039091168152602090f35b346102a65760203660031901126102a6576001600160a01b03611ed2612c8a565b16600052600d6020526020604060002054604051908152f35b346102a65760203660031901126102a6576040611f0960043561331c565b825191825215156020820152f35b346102a65760403660031901126102a65760043563ffffffff611f38612db5565b16158015612118575b610cf357801561102557611f53612ff5565b604051630c47ab3d60e21b8152602090818180611f733060048301612f63565b038173__$8a3883123a2a1b05b37447bdbb3fdcf5d3$__5af480156102b3576120fb575b50611fa13361304b565b82116120e95733600052600b81526040600020611fbf838254612fe8565b9055611fcd82600e54612fe8565b600e55611fdc82601054612fe8565b60105560405163a9059cbb60e01b815233600482015260248101839052818160448160006001600160a01b037f0000000000000000000000000000000000000000000000000000000000000000165af19081156102b3576000916120cc575b5015610a5a576000805160206133c98339815191529133600052600b8252604060002054604051918252828201527f92ccf450a286a957af52509bc1c9939d1a6a481783e142e41e2499f0bb66ebc660403392a27fdc6e73d4b36e22ab95945bd8833a5af96c950eb29d8d75c4aecffc987637aaab81600e54604051908152a1601054604051908152a16001600055005b6120e39150823d8411610a9457610a868183612f29565b8361203b565b6040516302c6f54760e21b8152600490fd5b61211190823d8411610a9457610a868183612f29565b5082611f97565b50600154604051632cc52b1560e11b815233600482015290602090829060249082906001600160a01b03165afa9081156102b35760009161215b575b5015611f41565b612173915060203d8111610a9457610a868183612f29565b82612154565b346102a65760203660031901126102a657612192612c8a565b600154604051632cc52b1560e11b81526001600160a01b0392831660048201529160209183916024918391165afa80156102b35760209160009161140c57506040519015158152f35b346102a65760403660031901126102a6576121f4612ca0565b600435600052601160205260076040600020019060018060a01b03166000526020526020604060002054604051908152f35b346102a65760203660031901126102a6576001600160a01b03612247612c8a565b16600052600b6020526020604060002054604051908152f35b346102a65760203660031901126102a657612279613244565b5060043560005260166020526115b86122956040600020613281565b604051918291602083526020830190612cf4565b346102a65760203660031901126102a6576122c2612c8a565b604051630b79b0a160e21b8152600260048201526001600160a01b03909116602482015260208160448173__$8a3883123a2a1b05b37447bdbb3fdcf5d3$__5af480156102b35760209160009161140c57506040519015158152f35b346102a65760203660031901126102a657600435600052601660205260a06040600020601160205260406000209060028101549160ff831661235f81612cb6565b15806123c9575b156123b157600363ffffffff809460281c169201549260086123888585613102565b949392015416906001925b60405194855260208501526040840152606083015215156080820152f35b600801546000925082915063ffffffff168180612393565b5063ffffffff8360281c161515612366565b346102a65760203660031901126102a657600435600052601660205260c0604060002060018060a01b0381541690600181015490600281015490600360ff831691015492604051948552602085015261243381612cb6565b604084015263ffffffff90818160081c16606085015260281c16608083015260a0820152f35b346102a65760403660031901126102a657612472612dc8565b61247a612ca0565b6001549091906001600160a01b03908116803b156102a6576000928360449263ffffffff94604051978896879563086ecc7960e21b87521660048601521660248401525af180156102b3576112c557005b346102a65760203660031901126102a65760006101206040516124ed81612eef565b8281528260208201528260408201528260608201528260808201528260a08201528260c08201528260e0820152606061010082015201526004356000526011602052604060002080549060018060a01b0360018201541690600281015460038201549160ff8360401c169163ffffffff60048301549460058401549282600886015416976040519961257e8b612eef565b8a5260208a01526040890152818116606089015260201c1660808701526006831015610ca9576125c09360069360a088015260c087015260e08601520161336e565b61010083015261012082015260405190602082528051602083015260018060a01b0360208201511660408301526040810151606083015263ffffffff606082015116608083015263ffffffff60808201511660a083015260a0810151906006821015610ca957829160c083015260c081015160e083015260e081015161010083015261010081015163ffffffff610120612667610140938483880152610160870190612d78565b93015116908301520390f35b346102a65760a03660031901126102a65760043561268f612db5565b906064359063ffffffff918281168091036102a657608435928084168094036102a657836000526020946015865260038260406000205416101561288b578415801561282c575b610cf35783156110255781169060468211801590612822575b610cd157600183108015612818575b6128065760105484116127f45760125494612718866130a9565b601255856000526011875260406000209260018401336bffffffffffffffffffffffff60a01b825416179055856002850155600384019068ffffffffffffffffff19825416179055604435600484015542600584015585600884019363ffffffff1994868682541617905555336000526013875261279a8660406000206130b8565b600052601586526040600020918254916127b58184166130ed565b16911617905560405191825283820152817fde3b47cf7da95a3cc41b86cf8717ead8d56a76ee1590481c5c4dc4d8804c40c460403393a3604051908152f35b60405163356680b760e01b8152600490fd5b60405163524eff2760e01b8152600490fd5b50600c83116126fe565b50606482116126ef565b50600154604051632cc52b1560e11b8152336004820152908790829060249082906001600160a01b03165afa9081156102b35760009161286e575b50156126d6565b6128859150873d8911610a9457610a868183612f29565b87612867565b604051635aad290f60e01b8152600490fd5b346102a65760003660031901126102a657604051637fd5e70b60e01b81526002600482015260008160248173__$8a3883123a2a1b05b37447bdbb3fdcf5d3$__5af480156102b3576115b891600091611cec5750604051918291602083526020830190612d78565b346102a6576020806003193601126102a6576001600160a01b039081612929612c8a565b1691826000526013825260406000206000936000918054925b838110612aea57506129538661311f565b956129616040519788612f29565b808752601f196129708261311f565b0160005b818110612acf57505061298690613137565b9360009260005b858110612a0d57888888604051928391604083019360408452825180955260608401948160608260051b8701019401956000905b8282106129dd57505050836115b8949550830390850152612cc0565b91939550919384806129fb600193605f198c82030186528a51612cf4565b980192019201879593919694926129c1565b612a1a81859a999a612ec3565b9054600391821b1c60005260168a52604060002083858254161480612ab7575b80612aa1575b612a58575b5050612a50906130a9565b97969761298d565b95612a9991612a6a612a509498613281565b612a74838d613169565b52612a7f828c613169565b50612a8a8888612ec3565b9054911b1c610bdc828b613169565b94908a612a45565b5063ffffffff600282015460281c161515612a40565b5060ff600282015416612ac981612cb6565b15612a3a565b96809897612adb613244565b82828b01015201979697612974565b612af78183989798612ec3565b90549060031b1c6000526016875260406000208386825416149081612b60575b81612b49575b50612b34575b612b2c906130a9565b959495612942565b94612b41612b2c916130a9565b959050612b23565b63ffffffff91506002015460281c16151588612b1d565b905060ff600282015416612b7381612cb6565b1590612b17565b346102a65760003660031901126102a6576020600f54604051908152f35b346102a65760203660031901126102a65767ffffffffffffffff6004358181116102a657366023820112156102a65780600401359182116102a6576024600591368285851b830101116102a6573060201b6303d1a1a11760401b939273__$8a3883123a2a1b05b37447bdbb3fdcf5d3$__9160005b858110612c1657005b80831b82018501356001600160a01b03811691908290036102a657843b156102a6576040519163e63dd53160e01b83526002600484015286830152876044830152600082606481885af49182156102b357612c7692612c7b575b506130a9565b612c0d565b612c8490612edb565b88612c70565b600435906001600160a01b03821682036102a657565b602435906001600160a01b03821682036102a657565b60031115610ca957565b90815180825260208080930193019160005b828110612ce0575050505090565b835185529381019392810192600101612cd2565b80516001600160a01b03168252602080820151908301526040810151612d759290612d1e81612cb6565b604082015263ffffffff806060840151166060830152608083015116608082015260a082015160a082015260e0612d6460c08401516101008060c0860152840190612cc0565b9201519060e0818403910152612cc0565b90565b90815180825260208080930193019160005b828110612d98575050505090565b83516001600160a01b031685529381019392810192600101612d8a565b6024359063ffffffff821682036102a657565b6004359063ffffffff821682036102a657565b6044359063ffffffff821682036102a657565b346102a65760003660031901126102a6576020601054604051908152f35b346102a657600080600319360112612ec0576040516370a0823160e01b81523060048201526020816024817f00000000000000000000000000000000000000000000000000000000000000006001600160a01b03165afa908115612eb5578291612e7c575b602082604051908152f35b90506020813d8211612ead575b81612e9660209383612f29565b81010312612ea957602091505138612e71565b5080fd5b3d9150612e89565b6040513d84823e3d90fd5b80fd5b8054821015610b185760005260206000200190600090565b67ffffffffffffffff8111610b2e57604052565b610140810190811067ffffffffffffffff821117610b2e57604052565b610100810190811067ffffffffffffffff821117610b2e57604052565b90601f8019910116810190811067ffffffffffffffff821117610b2e57604052565b908160209103126102a6575180151581036102a65790565b919091606081019260028252602093606085840152600954809152608083019060096000527f6e1540171b6c0c960b71a7020d9f60077f6af931a8bbf590da0223dacf75c7af9060005b87828210612fcb5750505050931b6303d1a1a117604090811b910152565b83546001600160a01b031685529093019260019283019201612fad565b91908203918211610a0d57565b600260005414613006576002600055565b60405162461bcd60e51b815260206004820152601f60248201527f5265656e7472616e637947756172643a207265656e7472616e742063616c6c006044820152606490fd5b60018060a01b0316600052600b602052604060002054601460205260406000205480821161307a575050600090565b612d7591612fe8565b908160209103126102a657518060030b81036102a65790565b91908201809211610a0d57565b6000198114610a0d5760010190565b8054600160401b811015610b2e576130d591600182018155612ec3565b819291549060031b91821b91600019901b1916179055565b90600163ffffffff80931601918211610a0d57565b81810292918115918404141715610a0d57565b8115610bf6570490565b67ffffffffffffffff8111610b2e5760051b60200190565b906131418261311f565b61314e6040519182612f29565b828152809261315f601f199161311f565b0190602036910137565b8051821015610b185760209160051b010190565b90815480825260208092019260005281600020916000905b8282106131a3575050505090565b835485529384019360019384019390910190613195565b60209081818403126102a65780519067ffffffffffffffff82116102a657019180601f840112156102a65782516131f08161311f565b936131fe6040519586612f29565b818552838086019260051b8201019283116102a6578301905b828210613225575050505090565b81516001600160a01b03811681036102a6578152908301908301613217565b6040519061325182612f0c565b606060e0836000808252806020830152806040830152808483015280608083015260a08201528260c08201520152565b90600560e060405161329281612f0c565b613318819560018060a01b03815416835260018101546020840152600281015460ff81166132bf81612cb6565b604085015263ffffffff90818160081c16606086015260281c166080840152600381015460a08401526040516132fc8161159d816004860161317d565b60c0840152613311604051809681930161317d565b0384612f29565b0152565b60005260166020526040600020600281015460ff811661333b81612cb6565b15908161335b575b506133515750600090600090565b6003015490600190565b63ffffffff915060281c16151538613343565b9060405191828154918282526020928383019160005283600020936000905b8282106133a5575050506133a392500383612f29565b565b85546001600160a01b03168452600195860195889550938101939091019061338d56fe8b094cca6f83d49402ce208cc0c224b76625ffc58636df56ae28024e704c5868a2646970667358221220756412ce8919e06b9dd210635bba5722af5c6566aacd76b4e7b9776b76ba705464736f6c63430008130033",
  "linkReferences": {
    "contracts/libraries/DebtTracker.sol": {
      "DebtTracker": [
        {
          "length": 20,
          "start": 846
        },
        {
          "length": 20,
          "start": 1028
        },
        {
          "length": 20,
          "start": 2218
        },
        {
          "length": 20,
          "start": 3956
        },
        {
          "length": 20,
          "start": 4563
        },
        {
          "length": 20,
          "start": 4955
        },
        {
          "length": 20,
          "start": 5340
        },
        {
          "length": 20,
          "start": 5985
        },
        {
          "length": 20,
          "start": 7600
        },
        {
          "length": 20,
          "start": 7994
        },
        {
          "length": 20,
          "start": 8311
        },
        {
          "length": 20,
          "start": 9198
        },
        {
          "length": 20,
          "start": 10698
        },
        {
          "length": 20,
          "start": 11510
        }
      ]
    }
  },
  "deployedLinkReferences": {
    "contracts/libraries/DebtTracker.sol": {
      "DebtTracker": [
        {
          "length": 20,
          "start": 590
        },
        {
          "length": 20,
          "start": 772
        },
        {
          "length": 20,
          "start": 1962
        },
        {
          "length": 20,
          "start": 3700
        },
        {
          "length": 20,
          "start": 4307
        },
        {
          "length": 20,
          "start": 4699
        },
        {
          "length": 20,
          "start": 5084
        },
        {
          "length": 20,
          "start": 5729
        },
        {
          "length": 20,
          "start": 7344
        },
        {
          "length": 20,
          "start": 7738
        },
        {
          "length": 20,
          "start": 8055
        },
        {
          "length": 20,
          "start": 8942
        },
        {
          "length": 20,
          "start": 10442
        },
        {
          "length": 20,
          "start": 11254
        }
      ]
    }
  }
}