{
  "_format": "hh-sol-artifact-1",
  "contractName": "LoanMachine",
  "sourceName": "contracts/LoanMachine.sol",
  "abi": [
    {
      "inputs": [
        {
          "internalType": "address",
          "name": "_usdtToken",
          "type": "address"
        }
      ],
      "stateMutability": "nonpayable",
      "type": "constructor"
    },
    {
      "inputs": [],
      "name": "BorrowNotExpired",
      "type": "error"
    },
    {
      "inputs": [],
      "name": "ExcessiveDonation",
      "type": "error"
    },
    {
      "inputs": [],
      "name": "InsufficientDonationBalance",
      "type": "error"
    },
    {
      "inputs": [],
      "name": "InsufficientFunds",
      "type": "error"
    },
    {
      "inputs": [],
      "name": "InvalidAmount",
      "type": "error"
    },
    {
      "inputs": [],
      "name": "InvalidCoveragePercentage",
      "type": "error"
    },
    {
      "inputs": [],
      "name": "InvalidParcelsCount",
      "type": "error"
    },
    {
      "inputs": [],
      "name": "LoanNotAvailable",
      "type": "error"
    },
    {
      "inputs": [],
      "name": "MemberIdOrWalletInvalid",
      "type": "error"
    },
    {
      "inputs": [],
      "name": "MinimumDonationRequired",
      "type": "error"
    },
    {
      "inputs": [],
      "name": "NoActiveBorrowing",
      "type": "error"
    },
    {
      "inputs": [],
      "name": "OverCoverage",
      "type": "error"
    },
    {
      "inputs": [],
      "name": "ParcelAlreadyPaid",
      "type": "error"
    },
    {
      "inputs": [],
      "name": "RepaymentExceedsBorrowed",
      "type": "error"
    },
    {
      "inputs": [],
      "name": "TokenTransferFailed",
      "type": "error"
    },
    {
      "inputs": [],
      "name": "WalletAlreadyVinculated",
      "type": "error"
    },
    {
      "anonymous": false,
      "inputs": [
        {
          "indexed": false,
          "internalType": "uint256",
          "name": "total",
          "type": "uint256"
        }
      ],
      "name": "AvailableBalanceUpdated",
      "type": "event"
    },
    {
      "anonymous": false,
      "inputs": [
        {
          "indexed": true,
          "internalType": "address",
          "name": "borrower",
          "type": "address"
        }
      ],
      "name": "BorrowLimitReached",
      "type": "event"
    },
    {
      "anonymous": false,
      "inputs": [
        {
          "indexed": true,
          "internalType": "address",
          "name": "borrower",
          "type": "address"
        },
        {
          "indexed": false,
          "internalType": "uint256",
          "name": "amount",
          "type": "uint256"
        },
        {
          "indexed": false,
          "internalType": "uint256",
          "name": "totalBorrowing",
          "type": "uint256"
        }
      ],
      "name": "Borrowed",
      "type": "event"
    },
    {
      "anonymous": false,
      "inputs": [
        {
          "indexed": true,
          "internalType": "address",
          "name": "donor",
          "type": "address"
        },
        {
          "indexed": false,
          "internalType": "uint256",
          "name": "amount",
          "type": "uint256"
        },
        {
          "indexed": false,
          "internalType": "uint256",
          "name": "totalDonation",
          "type": "uint256"
        }
      ],
      "name": "Donated",
      "type": "event"
    },
    {
      "anonymous": false,
      "inputs": [
        {
          "indexed": true,
          "internalType": "uint256",
          "name": "requisitionId",
          "type": "uint256"
        },
        {
          "indexed": true,
          "internalType": "address",
          "name": "lender",
          "type": "address"
        },
        {
          "indexed": false,
          "internalType": "uint256",
          "name": "amount",
          "type": "uint256"
        }
      ],
      "name": "LenderRepaid",
      "type": "event"
    },
    {
      "anonymous": false,
      "inputs": [
        {
          "indexed": true,
          "internalType": "uint256",
          "name": "requisitionId",
          "type": "uint256"
        }
      ],
      "name": "LoanCompleted",
      "type": "event"
    },
    {
      "anonymous": false,
      "inputs": [
        {
          "indexed": true,
          "internalType": "address",
          "name": "walletAddress",
          "type": "address"
        },
        {
          "indexed": true,
          "internalType": "uint256",
          "name": "requisitionId",
          "type": "uint256"
        },
        {
          "indexed": false,
          "internalType": "enum ILoanMachine.ContractStatus",
          "name": "status",
          "type": "uint8"
        },
        {
          "indexed": false,
          "internalType": "uint32",
          "name": "parcelsPending",
          "type": "uint32"
        },
        {
          "indexed": false,
          "internalType": "uint256",
          "name": "parcelsValues",
          "type": "uint256"
        },
        {
          "indexed": false,
          "internalType": "uint256[]",
          "name": "paymentDates",
          "type": "uint256[]"
        }
      ],
      "name": "LoanContractGenerated",
      "type": "event"
    },
    {
      "anonymous": false,
      "inputs": [
        {
          "indexed": true,
          "internalType": "uint256",
          "name": "requisitionId",
          "type": "uint256"
        },
        {
          "indexed": true,
          "internalType": "address",
          "name": "lender",
          "type": "address"
        },
        {
          "indexed": false,
          "internalType": "uint256",
          "name": "coverageAmount",
          "type": "uint256"
        }
      ],
      "name": "LoanCovered",
      "type": "event"
    },
    {
      "anonymous": false,
      "inputs": [
        {
          "indexed": true,
          "internalType": "uint256",
          "name": "requisitionId",
          "type": "uint256"
        }
      ],
      "name": "LoanFunded",
      "type": "event"
    },
    {
      "anonymous": false,
      "inputs": [
        {
          "indexed": true,
          "internalType": "uint256",
          "name": "requisitionId",
          "type": "uint256"
        },
        {
          "indexed": true,
          "internalType": "address",
          "name": "borrower",
          "type": "address"
        },
        {
          "indexed": false,
          "internalType": "uint256",
          "name": "amount",
          "type": "uint256"
        },
        {
          "indexed": false,
          "internalType": "uint32",
          "name": "parcelsCount",
          "type": "uint32"
        }
      ],
      "name": "LoanRequisitionCreated",
      "type": "event"
    },
    {
      "anonymous": false,
      "inputs": [
        {
          "indexed": true,
          "internalType": "uint32",
          "name": "memberId",
          "type": "uint32"
        },
        {
          "indexed": true,
          "internalType": "address",
          "name": "wallet",
          "type": "address"
        },
        {
          "indexed": false,
          "internalType": "uint256",
          "name": "timestamp",
          "type": "uint256"
        }
      ],
      "name": "MemberToWalletVinculation",
      "type": "event"
    },
    {
      "anonymous": false,
      "inputs": [
        {
          "indexed": true,
          "internalType": "address",
          "name": "borrower",
          "type": "address"
        }
      ],
      "name": "NewBorrower",
      "type": "event"
    },
    {
      "anonymous": false,
      "inputs": [
        {
          "indexed": true,
          "internalType": "address",
          "name": "donor",
          "type": "address"
        }
      ],
      "name": "NewDonor",
      "type": "event"
    },
    {
      "anonymous": false,
      "inputs": [
        {
          "indexed": true,
          "internalType": "uint256",
          "name": "requisitionId",
          "type": "uint256"
        },
        {
          "indexed": false,
          "internalType": "uint256",
          "name": "parcelsRemaining",
          "type": "uint256"
        }
      ],
      "name": "ParcelPaid",
      "type": "event"
    },
    {
      "anonymous": false,
      "inputs": [
        {
          "indexed": true,
          "internalType": "address",
          "name": "borrower",
          "type": "address"
        },
        {
          "indexed": false,
          "internalType": "uint256",
          "name": "amount",
          "type": "uint256"
        },
        {
          "indexed": false,
          "internalType": "uint256",
          "name": "remainingDebt",
          "type": "uint256"
        }
      ],
      "name": "Repaid",
      "type": "event"
    },
    {
      "anonymous": false,
      "inputs": [
        {
          "indexed": true,
          "internalType": "uint32",
          "name": "memberId",
          "type": "uint32"
        },
        {
          "indexed": false,
          "internalType": "int32",
          "name": "points",
          "type": "int32"
        },
        {
          "indexed": false,
          "internalType": "bool",
          "name": "increase",
          "type": "bool"
        },
        {
          "indexed": false,
          "internalType": "int32",
          "name": "newReputation",
          "type": "int32"
        },
        {
          "indexed": false,
          "internalType": "uint256",
          "name": "timestamp",
          "type": "uint256"
        }
      ],
      "name": "ReputationChanged",
      "type": "event"
    },
    {
      "anonymous": false,
      "inputs": [
        {
          "indexed": false,
          "internalType": "uint256",
          "name": "total",
          "type": "uint256"
        }
      ],
      "name": "TotalBorrowedUpdated",
      "type": "event"
    },
    {
      "anonymous": false,
      "inputs": [
        {
          "indexed": false,
          "internalType": "uint256",
          "name": "total",
          "type": "uint256"
        }
      ],
      "name": "TotalDonationsUpdated",
      "type": "event"
    },
    {
      "inputs": [
        {
          "internalType": "address",
          "name": "",
          "type": "address"
        },
        {
          "internalType": "uint256",
          "name": "",
          "type": "uint256"
        }
      ],
      "name": "borrowerRequisitions",
      "outputs": [
        {
          "internalType": "uint256",
          "name": "",
          "type": "uint256"
        }
      ],
      "stateMutability": "view",
      "type": "function"
    },
    {
      "inputs": [
        {
          "internalType": "uint256",
          "name": "requisitionId",
          "type": "uint256"
        },
        {
          "internalType": "address",
          "name": "borrower",
          "type": "address"
        }
      ],
      "name": "canPayRequisition",
      "outputs": [
        {
          "internalType": "bool",
          "name": "",
          "type": "bool"
        }
      ],
      "stateMutability": "view",
      "type": "function"
    },
    {
      "inputs": [
        {
          "internalType": "address",
          "name": "_user",
          "type": "address"
        },
        {
          "internalType": "uint256",
          "name": "_amount",
          "type": "uint256"
        }
      ],
      "name": "canUserBorrow",
      "outputs": [
        {
          "internalType": "bool",
          "name": "",
          "type": "bool"
        }
      ],
      "stateMutability": "view",
      "type": "function"
    },
    {
      "inputs": [
        {
          "internalType": "uint256",
          "name": "requisitionId",
          "type": "uint256"
        },
        {
          "internalType": "uint32",
          "name": "coveragePercentage",
          "type": "uint32"
        }
      ],
      "name": "coverLoan",
      "outputs": [],
      "stateMutability": "nonpayable",
      "type": "function"
    },
    {
      "inputs": [
        {
          "internalType": "uint256",
          "name": "_amount",
          "type": "uint256"
        },
        {
          "internalType": "uint32",
          "name": "_minimumCoverage",
          "type": "uint32"
        },
        {
          "internalType": "uint256",
          "name": "_durationDays",
          "type": "uint256"
        },
        {
          "internalType": "uint32",
          "name": "parcelscount",
          "type": "uint32"
        }
      ],
      "name": "createLoanRequisition",
      "outputs": [
        {
          "internalType": "uint256",
          "name": "",
          "type": "uint256"
        }
      ],
      "stateMutability": "nonpayable",
      "type": "function"
    },
    {
      "inputs": [
        {
          "internalType": "uint256",
          "name": "amount",
          "type": "uint256"
        }
      ],
      "name": "donate",
      "outputs": [],
      "stateMutability": "nonpayable",
      "type": "function"
    },
    {
      "inputs": [
        {
          "internalType": "address",
          "name": "borrower",
          "type": "address"
        }
      ],
      "name": "getActiveLoans",
      "outputs": [
        {
          "components": [
            {
              "internalType": "address",
              "name": "walletAddress",
              "type": "address"
            },
            {
              "internalType": "uint256",
              "name": "requisitionId",
              "type": "uint256"
            },
            {
              "internalType": "enum ILoanMachine.ContractStatus",
              "name": "status",
              "type": "uint8"
            },
            {
              "internalType": "uint32",
              "name": "parcelsCount",
              "type": "uint32"
            },
            {
              "internalType": "uint32",
              "name": "parcelsPending",
              "type": "uint32"
            },
            {
              "internalType": "uint256",
              "name": "parcelsValues",
              "type": "uint256"
            },
            {
              "internalType": "uint256[]",
              "name": "paymentDates",
              "type": "uint256[]"
            }
          ],
          "internalType": "struct ILoanMachine.LoanContract[]",
          "name": "activeLoans",
          "type": "tuple[]"
        },
        {
          "internalType": "uint256[]",
          "name": "requisitionIds",
          "type": "uint256[]"
        }
      ],
      "stateMutability": "view",
      "type": "function"
    },
    {
      "inputs": [
        {
          "internalType": "address",
          "name": "user",
          "type": "address"
        }
      ],
      "name": "getAllowance",
      "outputs": [
        {
          "internalType": "uint256",
          "name": "",
          "type": "uint256"
        }
      ],
      "stateMutability": "view",
      "type": "function"
    },
    {
      "inputs": [],
      "name": "getAvailableBalance",
      "outputs": [
        {
          "internalType": "uint256",
          "name": "",
          "type": "uint256"
        }
      ],
      "stateMutability": "view",
      "type": "function"
    },
    {
      "inputs": [],
      "name": "getAvailableBorrowAmount",
      "outputs": [
        {
          "internalType": "uint256",
          "name": "",
          "type": "uint256"
        }
      ],
      "stateMutability": "view",
      "type": "function"
    },
    {
      "inputs": [
        {
          "internalType": "address",
          "name": "borrower",
          "type": "address"
        }
      ],
      "name": "getBorrowerRequisitions",
      "outputs": [
        {
          "internalType": "uint256[]",
          "name": "",
          "type": "uint256[]"
        }
      ],
      "stateMutability": "view",
      "type": "function"
    },
    {
      "inputs": [
        {
          "internalType": "address",
          "name": "_user",
          "type": "address"
        }
      ],
      "name": "getBorrowing",
      "outputs": [
        {
          "internalType": "uint256",
          "name": "",
          "type": "uint256"
        }
      ],
      "stateMutability": "view",
      "type": "function"
    },
    {
      "inputs": [],
      "name": "getContractBalance",
      "outputs": [
        {
          "internalType": "uint256",
          "name": "",
          "type": "uint256"
        }
      ],
      "stateMutability": "view",
      "type": "function"
    },
    {
      "inputs": [
        {
          "internalType": "uint256",
          "name": "requisitionId",
          "type": "uint256"
        }
      ],
      "name": "getCoveringLenders",
      "outputs": [
        {
          "internalType": "address[]",
          "name": "",
          "type": "address[]"
        }
      ],
      "stateMutability": "view",
      "type": "function"
    },
    {
      "inputs": [
        {
          "internalType": "address",
          "name": "_user",
          "type": "address"
        }
      ],
      "name": "getDonation",
      "outputs": [
        {
          "internalType": "uint256",
          "name": "",
          "type": "uint256"
        }
      ],
      "stateMutability": "view",
      "type": "function"
    },
    {
      "inputs": [
        {
          "internalType": "address",
          "name": "lender",
          "type": "address"
        }
      ],
      "name": "getDonationsInCoverage",
      "outputs": [
        {
          "internalType": "uint256",
          "name": "",
          "type": "uint256"
        }
      ],
      "stateMutability": "view",
      "type": "function"
    },
    {
      "inputs": [
        {
          "internalType": "address",
          "name": "_user",
          "type": "address"
        }
      ],
      "name": "getLastBorrowTime",
      "outputs": [
        {
          "internalType": "uint256",
          "name": "",
          "type": "uint256"
        }
      ],
      "stateMutability": "view",
      "type": "function"
    },
    {
      "inputs": [
        {
          "internalType": "uint256",
          "name": "requisitionId",
          "type": "uint256"
        },
        {
          "internalType": "address",
          "name": "lender",
          "type": "address"
        }
      ],
      "name": "getLenderCoverage",
      "outputs": [
        {
          "internalType": "uint256",
          "name": "",
          "type": "uint256"
        }
      ],
      "stateMutability": "view",
      "type": "function"
    },
    {
      "inputs": [
        {
          "internalType": "uint256",
          "name": "requisitionId",
          "type": "uint256"
        }
      ],
      "name": "getLoanContract",
      "outputs": [
        {
          "components": [
            {
              "internalType": "address",
              "name": "walletAddress",
              "type": "address"
            },
            {
              "internalType": "uint256",
              "name": "requisitionId",
              "type": "uint256"
            },
            {
              "internalType": "enum ILoanMachine.ContractStatus",
              "name": "status",
              "type": "uint8"
            },
            {
              "internalType": "uint32",
              "name": "parcelsCount",
              "type": "uint32"
            },
            {
              "internalType": "uint32",
              "name": "parcelsPending",
              "type": "uint32"
            },
            {
              "internalType": "uint256",
              "name": "parcelsValues",
              "type": "uint256"
            },
            {
              "internalType": "uint256[]",
              "name": "paymentDates",
              "type": "uint256[]"
            }
          ],
          "internalType": "struct ILoanMachine.LoanContract",
          "name": "",
          "type": "tuple"
        }
      ],
      "stateMutability": "view",
      "type": "function"
    },
    {
      "inputs": [
        {
          "internalType": "uint256",
          "name": "requisitionId",
          "type": "uint256"
        }
      ],
      "name": "getNextPaymentAmount",
      "outputs": [
        {
          "internalType": "uint256",
          "name": "paymentAmount",
          "type": "uint256"
        },
        {
          "internalType": "bool",
          "name": "canPay",
          "type": "bool"
        }
      ],
      "stateMutability": "view",
      "type": "function"
    },
    {
      "inputs": [
        {
          "internalType": "uint256",
          "name": "requisitionId",
          "type": "uint256"
        }
      ],
      "name": "getPaymentDates",
      "outputs": [
        {
          "internalType": "uint256[]",
          "name": "",
          "type": "uint256[]"
        }
      ],
      "stateMutability": "view",
      "type": "function"
    },
    {
      "inputs": [
        {
          "internalType": "uint256",
          "name": "requisitionId",
          "type": "uint256"
        }
      ],
      "name": "getRepaymentSummary",
      "outputs": [
        {
          "internalType": "uint256",
          "name": "totalRemainingDebt",
          "type": "uint256"
        },
        {
          "internalType": "uint256",
          "name": "nextPaymentAmount",
          "type": "uint256"
        },
        {
          "internalType": "uint256",
          "name": "parcelsRemaining",
          "type": "uint256"
        },
        {
          "internalType": "uint256",
          "name": "totalParcels",
          "type": "uint256"
        },
        {
          "internalType": "bool",
          "name": "isActive",
          "type": "bool"
        }
      ],
      "stateMutability": "view",
      "type": "function"
    },
    {
      "inputs": [
        {
          "internalType": "uint256",
          "name": "requisitionId",
          "type": "uint256"
        }
      ],
      "name": "getRequisitionInfo",
      "outputs": [
        {
          "components": [
            {
              "internalType": "uint256",
              "name": "requisitionId",
              "type": "uint256"
            },
            {
              "internalType": "address",
              "name": "borrower",
              "type": "address"
            },
            {
              "internalType": "uint256",
              "name": "amount",
              "type": "uint256"
            },
            {
              "internalType": "uint32",
              "name": "minimumCoverage",
              "type": "uint32"
            },
            {
              "internalType": "uint32",
              "name": "currentCoverage",
              "type": "uint32"
            },
            {
              "internalType": "enum ILoanMachine.BorrowStatus",
              "name": "status",
              "type": "uint8"
            },
            {
              "internalType": "uint256",
              "name": "durationDays",
              "type": "uint256"
            },
            {
              "internalType": "uint256",
              "name": "creationTime",
              "type": "uint256"
            },
            {
              "internalType": "address[]",
              "name": "coveringLenders",
              "type": "address[]"
            },
            {
              "internalType": "uint32",
              "name": "parcelsCount",
              "type": "uint32"
            }
          ],
          "internalType": "struct ILoanMachine.RequisitionInfo",
          "name": "",
          "type": "tuple"
        }
      ],
      "stateMutability": "view",
      "type": "function"
    },
    {
      "inputs": [],
      "name": "getTotalBorrowed",
      "outputs": [
        {
          "internalType": "uint256",
          "name": "",
          "type": "uint256"
        }
      ],
      "stateMutability": "view",
      "type": "function"
    },
    {
      "inputs": [],
      "name": "getTotalDonations",
      "outputs": [
        {
          "internalType": "uint256",
          "name": "",
          "type": "uint256"
        }
      ],
      "stateMutability": "view",
      "type": "function"
    },
    {
      "inputs": [],
      "name": "getUSDTBalance",
      "outputs": [
        {
          "internalType": "uint256",
          "name": "",
          "type": "uint256"
        }
      ],
      "stateMutability": "view",
      "type": "function"
    },
    {
      "inputs": [
        {
          "internalType": "uint256",
          "name": "",
          "type": "uint256"
        }
      ],
      "name": "loanContracts",
      "outputs": [
        {
          "internalType": "address",
          "name": "walletAddress",
          "type": "address"
        },
        {
          "internalType": "uint256",
          "name": "requisitionId",
          "type": "uint256"
        },
        {
          "internalType": "enum ILoanMachine.ContractStatus",
          "name": "status",
          "type": "uint8"
        },
        {
          "internalType": "uint32",
          "name": "parcelsCount",
          "type": "uint32"
        },
        {
          "internalType": "uint32",
          "name": "parcelsPending",
          "type": "uint32"
        },
        {
          "internalType": "uint256",
          "name": "parcelsValues",
          "type": "uint256"
        }
      ],
      "stateMutability": "view",
      "type": "function"
    },
    {
      "inputs": [
        {
          "internalType": "uint256",
          "name": "requisitionId",
          "type": "uint256"
        },
        {
          "internalType": "uint256",
          "name": "amount",
          "type": "uint256"
        }
      ],
      "name": "repay",
      "outputs": [],
      "stateMutability": "nonpayable",
      "type": "function"
    },
    {
      "inputs": [],
      "name": "requisitionCounter",
      "outputs": [
        {
          "internalType": "uint256",
          "name": "",
          "type": "uint256"
        }
      ],
      "stateMutability": "view",
      "type": "function"
    },
    {
      "inputs": [],
      "name": "usdtToken",
      "outputs": [
        {
          "internalType": "address",
          "name": "",
          "type": "address"
        }
      ],
      "stateMutability": "view",
      "type": "function"
    },
    {
      "inputs": [
        {
          "internalType": "uint32",
          "name": "memberId",
          "type": "uint32"
        },
        {
          "internalType": "address",
          "name": "wallet",
          "type": "address"
        }
      ],
      "name": "vinculationMemberToWallet",
      "outputs": [],
      "stateMutability": "nonpayable",
      "type": "function"
    }
  ],
  "bytecode": "0x60a06040523480156200001157600080fd5b5060405162002c0838038062002c0883398101604081905262000034916200004b565b60016000556001600160a01b03166080526200007d565b6000602082840312156200005e57600080fd5b81516001600160a01b03811681146200007657600080fd5b9392505050565b608051612b4c620000bc600039600081816104ac015281816110e9015281816117b801528181611a8f01528181611b6f0152611fa70152612b4c6000f3fe608060405234801561001057600080fd5b50600436106101e55760003560e01c80637d52437a1161010f5780639e932011116100a2578063be5eb58011610071578063be5eb580146104f9578063d8aed14514610522578063eb5a662e14610535578063f14faf6f1461054857600080fd5b80639e93201114610481578063a648bf7514610494578063a98ad46c146104a7578063adceb101146104e657600080fd5b80638a914a63116100de5780638a914a631461042b5780639730872a1461044b5780639785fac8146103c957806397c335191461045e57600080fd5b80637d52437a146103d9578063809dab6a146102d7578063827cc0e5146103f957806384ddf5ea1461042257600080fd5b80632b31c022116101875780636509a710116101565780636509a71014610378578063657eb031146103a05780636f9fb98a146103c9578063777c658f146103d157600080fd5b80632b31c022146102df578063383ab2ef1461031c578063410a1d321461033c5780634e51c7df1461036557600080fd5b806321bb31e4116101c357806321bb31e414610242578063232869fa146102575780632485a314146102c4578063291c31a7146102d757600080fd5b80630307c4a1146101ea57806303d1a1a1146102015780631b70ba3e14610222575b600080fd5b6007545b6040519081526020015b60405180910390f35b61021461020f3660046124a4565b61055b565b6040516101f89291906125cb565b610235610230366004612641565b6108cb565b6040516101f891906126a3565b610255610250366004612773565b610a2f565b005b6102b2610265366004612641565b600d6020526000908152604090208054600182015460028301546003909301546001600160a01b0390921692909160ff82169163ffffffff6101008204811692600160281b909204169086565b6040516101f8969594939291906127a6565b6102556102d23660046127f0565b610b0e565b6008546101ee565b6102f26102ed366004612641565b610e67565b6040805195865260208601949094529284019190915260608301521515608082015260a0016101f8565b61032f61032a366004612641565b610f3c565b6040516101f89190612813565b6101ee61034a3660046124a4565b6001600160a01b031660009081526003602052604090205490565b6101ee610373366004612826565b61103e565b61038b610386366004612641565b61106b565b604080519283529015156020830152016101f8565b6101ee6103ae3660046124a4565b6001600160a01b031660009081526005602052604090205490565b6101ee6110d1565b6006546101ee565b6103ec6103e7366004612641565b611161565b6040516101f89190612849565b6101ee6104073660046124a4565b6001600160a01b03166000908152600c602052604090205490565b6101ee600a5481565b61043e610439366004612641565b6111c6565b6040516101f8919061285c565b6103ec6104593660046124a4565b611234565b61047161046c36600461286f565b61129e565b60405190151581526020016101f8565b6101ee61048f36600461286f565b611351565b6101ee6104a2366004612899565b611382565b6104ce7f000000000000000000000000000000000000000000000000000000000000000081565b6040516001600160a01b0390911681526020016101f8565b6104716104f4366004612826565b611557565b6101ee6105073660046124a4565b6001600160a01b031660009081526004602052604090205490565b6102556105303660046128df565b6115bd565b6101ee6105433660046124a4565b611a67565b610255610556366004612641565b611afc565b6001600160a01b0381166000908152600b60205260408120606091829190805b8254811015610631576000600d600085848154811061059c5761059c612901565b60009182526020808320909101548352820192909252604001902080549091506001600160a01b039081169088161480156105ef5750600060028083015460ff16908111156105ed576105ed6124bf565b145b801561060b57506002810154600160281b900463ffffffff1615155b1561061e578261061a8161292d565b9350505b50806106298161292d565b91505061057b565b508067ffffffffffffffff81111561064b5761064b612946565b60405190808252806020026020018201604052801561068457816020015b61067161243f565b8152602001906001900390816106695790505b5093508067ffffffffffffffff8111156106a0576106a0612946565b6040519080825280602002602001820160405280156106c9578160200160208202803683370190505b5092506000805b83548110156108c2576000600d60008684815481106106f1576106f1612901565b60009182526020808320909101548352820192909252604001902080549091506001600160a01b039081169089161480156107445750600060028083015460ff1690811115610742576107426124bf565b145b801561076057506002810154600160281b900463ffffffff1615155b156108af576040805160e08101825282546001600160a01b0316815260018301546020820152600280840154919284929084019160ff909116908111156107a9576107a96124bf565b60028111156107ba576107ba6124bf565b8152600282015463ffffffff61010082048116602080850191909152600160281b9092041660408084019190915260038401546060840152600484018054825181850281018501909352808352608090940193919290919083018282801561084157602002820191906000526020600020905b81548152602001906001019080831161082d575b50505050508152505087848151811061085c5761085c612901565b602002602001018190525084828154811061087957610879612901565b906000526020600020015486848151811061089657610896612901565b6020908102919091010152826108ab8161292d565b9350505b50806108ba8161292d565b9150506106d0565b50505050915091565b604080516101408101825260008082526020820181905291810182905260608082018390526080820183905260a0820183905260c0820183905260e082018390526101008201526101208101919091526000828152600960209081526040918290208251610140810184528154815260018201546001600160a01b031692810192909252600281015492820192909252600382015463ffffffff8082166060840152640100000000820416608083015260a0820190600160401b900460ff16600581111561099b5761099b6124bf565b8152602001826004015481526020018260050154815260200182600601805480602002602001604051908101604052809291908181526020018280548015610a0c57602002820191906000526020600020905b81546001600160a01b031681526001909101906020018083116109ee575b505050918352505060089092015463ffffffff1660209092019190915292915050565b818163ffffffff82161580610a4b57506001600160a01b038116155b15610a6957604051630cff23e760e01b815260040160405180910390fd5b6001600160a01b03811660009081526001602052604090205463ffffffff1615610aa6576040516377030a8760e11b815260040160405180910390fd5b6001600160a01b038316600081815260016020908152604091829020805463ffffffff191663ffffffff891690811790915591514281527f605181a3cca1307ae9b2df54d6592ddf8f82c3570c6938f36d61cd23b6b57a8d910160405180910390a350505050565b8063ffffffff81161580610b28575060648163ffffffff16115b15610b465760405163d1e95ed560e01b815260040160405180910390fd5b610b4e611d1f565b6000838152600960205260408120906003820154600160401b900460ff166005811115610b7d57610b7d6124bf565b14158015610bab575060016003820154600160401b900460ff166005811115610ba857610ba86124bf565b14155b15610bc9576040516380b9cb0960e01b815260040160405180910390fd5b6003810154606490610bec9063ffffffff8087169164010000000090041661295c565b1115610c0b5760405163955f95ad60e01b815260040160405180910390fd5b670de0b6b3a76400006000610c2182606461296f565b6001610c2e84606461296f565b610c389190612986565b838763ffffffff168660020154610c4f919061296f565b610c59919061296f565b610c63919061295c565b610c6d9190612999565b33600090815260036020526040902054909150811115610ca057604051630391acf160e61b815260040160405180910390fd5b3360009081526003602052604081208054839290610cbf908490612986565b9091555050336000908152600c602052604081208054839290610ce390849061295c565b9091555050600383018054869190600490610d0d908490640100000000900463ffffffff166129bb565b825463ffffffff9182166101009390930a9283029190920219909116179055503360009081526007840160205260408120549003610d6d57600683018054600181018255600091825260209091200180546001600160a01b031916331790555b33600090815260078401602052604081208054839290610d8e90849061295c565b9091555050600383015463ffffffff8082166401000000009092041610610de05760038301805460ff60401b191668020000000000000000179055610dd286611d7c565b610ddb86611ebf565b610df6565b60038301805460ff60401b1916600160401b1790555b33600090815260016020819052604090912054610e1e9163ffffffff90911690600290612138565b604051818152339087907f86b47e6e6c03d769c0bc5ffd06c682ea7d07089576d59230ec18ff64e71bffe79060200160405180910390a3505050610e626001600055565b505050565b6000818152600d602090815260408083206009909252822082918291829182918260028084015460ff1690811115610ea157610ea16124bf565b148015610ebe57506002820154600160281b900463ffffffff1615155b15610f165760038201546002830154610ee49190600160281b900463ffffffff1661296f565b60038301546002840154600884015492995090975063ffffffff600160281b9091048116965016935060019250610f31565b60088101546000975087965086955063ffffffff1693508492505b505091939590929450565b610f4461243f565b6000828152600d60209081526040808320815160e08101835281546001600160a01b03168152600182015493810193909352600280820154919284019160ff1690811115610f9457610f946124bf565b6002811115610fa557610fa56124bf565b8152600282015463ffffffff61010082048116602080850191909152600160281b9092041660408084019190915260038401546060840152600484018054825181850281018501909352808352608090940193919290919083018282801561102c57602002820191906000526020600020905b815481526020019060010190808311611018575b50505091909252509195945050505050565b60008281526009602090815260408083206001600160a01b03851684526007019091529020545b92915050565b6000818152600d6020526040812081908160028083015460ff1690811115611095576110956124bf565b1480156110b257506002810154600160281b900463ffffffff1615155b156110c557600301549360019350915050565b50600093849350915050565b6040516370a0823160e01b81523060048201526000907f00000000000000000000000000000000000000000000000000000000000000006001600160a01b0316906370a0823190602401602060405180830381865afa158015611138573d6000803e3d6000fd5b505050506040513d601f19601f8201168201806040525081019061115c91906129df565b905090565b6000818152600d60209081526040918290206004018054835181840281018401909452808452606093928301828280156111ba57602002820191906000526020600020905b8154815260200190600101908083116111a6575b50505050509050919050565b6000818152600960209081526040918290206006018054835181840281018401909452808452606093928301828280156111ba57602002820191906000526020600020905b81546001600160a01b0316815260019091019060200180831161120b5750505050509050919050565b6001600160a01b0381166000908152600b60209081526040918290208054835181840281018401909452808452606093928301828280156111ba57602002820191906000526020600020908154815260200190600101908083116111a65750505050509050919050565b600080821180156112b157506008548211155b80156112f857506001600160a01b038316600090815260036020526040902054620f42401115806112f857506001600160a01b038316600090815260046020526040902054155b801561134a57506001600160a01b03831660009081526005602052604090205442906113289062093a809061295c565b108061134a57506001600160a01b038316600090815260046020526040902054155b9392505050565b600b602052816000526040600020818154811061136d57600080fd5b90600052602060002001600091509150505481565b600084806000036113a65760405163162908e360e11b815260040160405180910390fd5b8463ffffffff166046811115806113bd5750606481115b156113db5760405163d1e95ed560e01b815260040160405180910390fd5b8360018163ffffffff1610806113f75750600c8163ffffffff16115b156114155760405163524eff2760e01b815260040160405180910390fd5b6008548811156114385760405163356680b760e01b815260040160405180910390fd5b600a8054600091826114498361292d565b9091555060008181526009602052604081206001810180546001600160a01b03191633179055600281018c905560038101805467ffffffffffffffff19811663ffffffff8e1690811783559495509193909168ffffffffffffffffff191617600160401b8302179055506004810188905542600582015560088101805463ffffffff891663ffffffff19909116179055818155336000818152600b60209081526040808320805460018101825590845291909220018490555183907fde3b47cf7da95a3cc41b86cf8717ead8d56a76ee1590481c5c4dc4d8804c40c490611542908e908c9091825263ffffffff16602082015260400190565b60405180910390a35098975050505050505050565b6000828152600d6020526040812080546001600160a01b0384811691161480156115995750600060028083015460ff1690811115611597576115976124bf565b145b80156115b557506002810154600160281b900463ffffffff1615155b949350505050565b6000828152600d6020908152604080832033845260049092528220548492036115f957604051630b5ab5bf60e41b815260040160405180910390fd5b80546001600160a01b0316331461162357604051630b5ab5bf60e41b815260040160405180910390fd5b600060028083015460ff169081111561163e5761163e6124bf565b1461165c57604051630b5ab5bf60e41b815260040160405180910390fd5b6002810154600160281b900463ffffffff1660000361168e57604051630b5ab5bf60e41b815260040160405180910390fd5b611696611d1f565b826000036116b75760405163162908e360e11b815260040160405180910390fd5b6000848152600d6020526040812060028101549091906116eb9063ffffffff600160281b82048116916101009004166129f8565b90506000826004018263ffffffff168154811061170a5761170a612901565b906000526020600020015490508042111561174957336000908152600160205260408120546117449163ffffffff90911690600390612138565b61176f565b3360009081526001602081905260409091205461176f9163ffffffff9091169080612138565b826003015486146117935760405163162908e360e11b815260040160405180910390fd5b6040516323b872dd60e01b8152336004820152306024820152604481018790526000907f00000000000000000000000000000000000000000000000000000000000000006001600160a01b0316906323b872dd906064016020604051808303816000875af1158015611809573d6000803e3d6000fd5b505050506040513d601f19601f8201168201806040525081019061182d9190612a15565b90508061184d5760405163022e258160e11b815260040160405180910390fd5b336000908152600460205260408120805489929061186c908490612986565b9250508190555086600760008282546118859190612986565b92505081905550866008600082825461189e919061295c565b909155506118ae9050888861225e565b336000818152600460209081526040918290205482518b8152918201527f1b8cd61ed43bec7c6bdad3a18ffee613f99c853d16c50678d248d879e1b43438910160405180910390a26002840154604051600160281b90910463ffffffff16815288907f406356ef25520b09e2ef87c5225167b4161ea4ab691e9434d6ee29eafcc83fc29060200160405180910390a27f17f13fd3f7c4712af33f1770ebcb822dd20a2dbc00850eab48d786623d97b95960075460405161197091815260200190565b60405180910390a17f8b094cca6f83d49402ce208cc0c224b76625ffc58636df56ae28024e704c58686008546040516119ab91815260200190565b60405180910390a160018460020160058282829054906101000a900463ffffffff166119d791906129f8565b92506101000a81548163ffffffff021916908363ffffffff1602179055508360020160059054906101000a900463ffffffff1663ffffffff16600003611a53576002848101805460ff1916909117905560405188907f02ca5489b37dd363d1302bac719e8ee40e540ffbe8c12253570fea63e11cad7190600090a25b50505050611a616001600055565b50505050565b604051636eb1769f60e11b81526001600160a01b0382811660048301523060248301526000917f00000000000000000000000000000000000000000000000000000000000000009091169063dd62ed3e90604401602060405180830381865afa158015611ad8573d6000803e3d6000fd5b505050506040513d601f19601f8201168201806040525081019061106591906129df565b8080600003611b1e5760405163162908e360e11b815260040160405180910390fd5b611b26611d1f565b624c4b40821115611b4a576040516330fdf8db60e11b815260040160405180910390fd5b6040516323b872dd60e01b8152336004820152306024820152604481018390526000907f00000000000000000000000000000000000000000000000000000000000000006001600160a01b0316906323b872dd906064016020604051808303816000875af1158015611bc0573d6000803e3d6000fd5b505050506040513d601f19601f82011682018060405250810190611be49190612a15565b905080611c045760405163022e258160e11b815260040160405180910390fd5b33600081815260036020908152604091829020805487810182556006805489019055600880548901905590548351888152928301521592917f4928895ba6723e8e27b15f32e4c3054a1b6c7f8c03f133558d6fa42b3928d14c910160405180910390a27fdc6e73d4b36e22ab95945bd8833a5af96c950eb29d8d75c4aecffc987637aaab600654604051611c9a91815260200190565b60405180910390a17f8b094cca6f83d49402ce208cc0c224b76625ffc58636df56ae28024e704c5868600854604051611cd591815260200190565b60405180910390a18015611d0f5760405133907f072dafb6aabe3f02118bc607efbeaaa104d6b2009720c7b130f24ba418689c4b90600090a25b5050611d1b6001600055565b5050565b600260005403611d755760405162461bcd60e51b815260206004820152601f60248201527f5265656e7472616e637947756172643a207265656e7472616e742063616c6c00604482015260640160405180910390fd5b6002600055565b6000818152600d60209081526040808320600990925290912060018082015483546001600160a01b0319166001600160a01b0390911617835582018390556002808301805460ff198116825560088401805464ffffffffff19831661010063ffffffff928316029081178555825468ffffffffffffffffff1990941668ffffffff00000000001990911617928116600160281b029290921790925590549190920154611e2c929190911690612999565b6003820155600082815260096020526040902060080154611e5490829063ffffffff166123d1565b80546002820154600383015460405185936001600160a01b0316927f5215406e88f26eed4728b9cdfc5d85cea75799101cb9387b528451e6e0878dec92611eb39260ff831692600160281b900463ffffffff1691906004890190612a37565b60405180910390a35050565b6000818152600960209081526040808320600281015460018201546001600160a01b031685526004909352908320805491939091611efe90849061295c565b9091555050600281015460078054600090611f1a90849061295c565b9091555050600281015460088054600090611f36908490612986565b909155505060018101546001600160a01b031660009081526005602052604090204290556003808201805460ff60401b1916600160401b8302179055506001810154600282015460405163a9059cbb60e01b81526001600160a01b03928316600482015260248101919091526000917f0000000000000000000000000000000000000000000000000000000000000000169063a9059cbb906044016020604051808303816000875af1158015611ff0573d6000803e3d6000fd5b505050506040513d601f19601f820116820180604052508101906120149190612a15565b9050806120345760405163022e258160e11b815260040160405180910390fd5b600182015460028301546001600160a01b039091166000818152600460209081526040918290205482519485529084015290917feae9cfbc77fdd40ca899f36b608256063b2bc9d8178b0220f7ad513e178d6730910160405180910390a27f17f13fd3f7c4712af33f1770ebcb822dd20a2dbc00850eab48d786623d97b9596007546040516120c591815260200190565b60405180910390a17f8b094cca6f83d49402ce208cc0c224b76625ffc58636df56ae28024e704c586860085460405161210091815260200190565b60405180910390a160405183907f9e71d2fb732e68272b7e74ecfd14638673c1d77e19a5d390a3ffff054d57c44b90600090a2505050565b823363ffffffff8216158061216e57506001600160a01b03811660009081526001602052604090205463ffffffff838116911614155b1561218c57604051630cff23e760e01b815260040160405180910390fd5b63ffffffff851660009081526002602052604081205460030b9084156121bd576121b68683612aa5565b90506121d9565b6121c78683612acc565b905060008160030b12156121d9575060005b63ffffffff878116600081815260026020908152604091829020805463ffffffff191694861694909417909355805160038a810b8252891515948201949094529284900b90830152426060830152907f72194f756300fff6bfc1d45660da70048be350dc1aad864b9280fa75c3ff696c9060800160405180910390a250505050505050565b6000828152600960205260408120600281015490915b60068301548110156123ca57600083600601828154811061229757612297612901565b60009182526020808320909101546001600160a01b031680835260078701909152604082205490925090846122cc838961296f565b6122d69190612999565b905080156123b4576001600160a01b0383166000908152600c602052604090205481111561231957506001600160a01b0382166000908152600c60205260409020545b6001600160a01b0383166000908152600c602052604081208054839290612341908490612986565b90915550506001600160a01b0383166000908152600360205260408120805483929061236e90849061295c565b90915550506040518181526001600160a01b0384169089907fe3e6ae1e05f069d410556743894aacbb190c1431962422ebe8fcc642a467dd169060200160405180910390a35b50505080806123c29061292d565b915050612274565b5050505050565b4262278d0060005b8363ffffffff168163ffffffff1610156123ca5760006123fa8260016129bb565b61240a9063ffffffff168461296f565b612414908561295c565b600487018054600181018255600091825260209091200155508061243781612af3565b9150506123d9565b6040805160e08101825260008082526020820181905290918201908152602001600063ffffffff168152602001600063ffffffff16815260200160008152602001606081525090565b80356001600160a01b038116811461249f57600080fd5b919050565b6000602082840312156124b657600080fd5b61134a82612488565b634e487b7160e01b600052602160045260246000fd5b600381106124e5576124e56124bf565b9052565b600060e0830160018060a01b03835116845260208084015181860152604084015161251760408701826124d5565b50606084015163ffffffff8082166060880152806080870151166080880152505060a084015160a086015260c084015160e060c0870152828151808552610100880191508383019450600092505b808310156125855784518252938301936001929092019190830190612565565b509695505050505050565b600081518084526020808501945080840160005b838110156125c0578151875295820195908201906001016125a4565b509495945050505050565b6000604082016040835280855180835260608501915060608160051b8601019250602080880160005b8381101561262257605f198887030185526126108683516124e9565b955093820193908201906001016125f4565b5050858403818701525050506126388185612590565b95945050505050565b60006020828403121561265357600080fd5b5035919050565b600681106124e5576124e56124bf565b600081518084526020808501945080840160005b838110156125c05781516001600160a01b03168752958201959082019060010161267e565b6020815281516020820152600060208301516126ca60408401826001600160a01b03169052565b506040830151606083015260608301516126ec608084018263ffffffff169052565b50608083015163ffffffff811660a08401525060a083015161271160c084018261265a565b5060c083015160e083015260e0830151610100818185015280850151915050610140610120818186015261274961016086018461266a565b95015163ffffffff169301929092525090919050565b803563ffffffff8116811461249f57600080fd5b6000806040838503121561278657600080fd5b61278f8361275f565b915061279d60208401612488565b90509250929050565b6001600160a01b03871681526020810186905260c081016127ca60408301876124d5565b63ffffffff948516606083015292909316608084015260a0909201919091529392505050565b6000806040838503121561280357600080fd5b8235915061279d6020840161275f565b60208152600061134a60208301846124e9565b6000806040838503121561283957600080fd5b8235915061279d60208401612488565b60208152600061134a6020830184612590565b60208152600061134a602083018461266a565b6000806040838503121561288257600080fd5b61288b83612488565b946020939093013593505050565b600080600080608085870312156128af57600080fd5b843593506128bf6020860161275f565b9250604085013591506128d46060860161275f565b905092959194509250565b600080604083850312156128f257600080fd5b50508035926020909101359150565b634e487b7160e01b600052603260045260246000fd5b634e487b7160e01b600052601160045260246000fd5b60006001820161293f5761293f612917565b5060010190565b634e487b7160e01b600052604160045260246000fd5b8082018082111561106557611065612917565b808202811582820484141761106557611065612917565b8181038181111561106557611065612917565b6000826129b657634e487b7160e01b600052601260045260246000fd5b500490565b63ffffffff8181168382160190808211156129d8576129d8612917565b5092915050565b6000602082840312156129f157600080fd5b5051919050565b63ffffffff8281168282160390808211156129d8576129d8612917565b600060208284031215612a2757600080fd5b8151801515811461134a57600080fd5b600060808201612a4783886124d5565b602063ffffffff8716818501528560408501526080606085015281855480845260a0860191508660005282600020935060005b81811015612a9657845483526001948501949284019201612a7a565b50909998505050505050505050565b600381810b9083900b01637fffffff8113637fffffff198212171561106557611065612917565b600382810b9082900b03637fffffff198112637fffffff8213171561106557611065612917565b600063ffffffff808316818103612b0c57612b0c612917565b600101939250505056fea264697066735822122064bc56b81d468a8d257ca0292cc42fddc46f6d882c1eadf1dbf4492424e8f8a564736f6c63430008130033",
  "linkReferences": {},
  "deployedLinkReferences": {}
}