{
  "_format": "hh-sol-artifact-1",
  "contractName": "ReputationSystem",
  "sourceName": "contracts/ReputationSystem.sol",
  "abi": [
    {
      "inputs": [],
      "stateMutability": "nonpayable",
      "type": "constructor"
    },
    {
      "inputs": [],
      "name": "ActiveElectionExists",
      "type": "error"
    },
    {
      "inputs": [],
      "name": "ElectionExpired",
      "type": "error"
    },
    {
      "inputs": [],
      "name": "ElectionNotActive",
      "type": "error"
    },
    {
      "inputs": [],
      "name": "InvalidCandidate",
      "type": "error"
    },
    {
      "inputs": [],
      "name": "MemberAlreadyVoted",
      "type": "error"
    },
    {
      "inputs": [],
      "name": "MemberIdOrWalletInvalid",
      "type": "error"
    },
    {
      "inputs": [],
      "name": "NoCandidates",
      "type": "error"
    },
    {
      "inputs": [],
      "name": "UnauthorizedCaller",
      "type": "error"
    },
    {
      "inputs": [],
      "name": "WalletAlreadyLinkedToAnotherMember",
      "type": "error"
    },
    {
      "inputs": [],
      "name": "WalletAlreadyVinculated",
      "type": "error"
    },
    {
      "anonymous": false,
      "inputs": [
        {
          "indexed": true,
          "internalType": "address",
          "name": "caller",
          "type": "address"
        },
        {
          "indexed": false,
          "internalType": "bool",
          "name": "authorized",
          "type": "bool"
        }
      ],
      "name": "AuthorizedCallerUpdated",
      "type": "event"
    },
    {
      "anonymous": false,
      "inputs": [
        {
          "indexed": true,
          "internalType": "uint32",
          "name": "electionId",
          "type": "uint32"
        },
        {
          "indexed": true,
          "internalType": "uint32",
          "name": "candidateId",
          "type": "uint32"
        }
      ],
      "name": "CandidateAdded",
      "type": "event"
    },
    {
      "anonymous": false,
      "inputs": [
        {
          "indexed": true,
          "internalType": "uint32",
          "name": "electionId",
          "type": "uint32"
        },
        {
          "indexed": true,
          "internalType": "uint32",
          "name": "winnerId",
          "type": "uint32"
        },
        {
          "indexed": false,
          "internalType": "int32",
          "name": "winningVotes",
          "type": "int32"
        }
      ],
      "name": "ElectionClosed",
      "type": "event"
    },
    {
      "anonymous": false,
      "inputs": [
        {
          "indexed": true,
          "internalType": "uint32",
          "name": "electionId",
          "type": "uint32"
        },
        {
          "indexed": true,
          "internalType": "uint32",
          "name": "candidateId",
          "type": "uint32"
        },
        {
          "indexed": false,
          "internalType": "uint256",
          "name": "startTime",
          "type": "uint256"
        },
        {
          "indexed": false,
          "internalType": "uint256",
          "name": "endTime",
          "type": "uint256"
        }
      ],
      "name": "ElectionOpened",
      "type": "event"
    },
    {
      "anonymous": false,
      "inputs": [
        {
          "indexed": true,
          "internalType": "uint32",
          "name": "memberId",
          "type": "uint32"
        },
        {
          "indexed": true,
          "internalType": "address",
          "name": "wallet",
          "type": "address"
        },
        {
          "indexed": false,
          "internalType": "uint256",
          "name": "timestamp",
          "type": "uint256"
        }
      ],
      "name": "MemberToWalletVinculation",
      "type": "event"
    },
    {
      "anonymous": false,
      "inputs": [
        {
          "indexed": true,
          "internalType": "address",
          "name": "previousOwner",
          "type": "address"
        },
        {
          "indexed": true,
          "internalType": "address",
          "name": "newOwner",
          "type": "address"
        }
      ],
      "name": "OwnershipTransferred",
      "type": "event"
    },
    {
      "anonymous": false,
      "inputs": [
        {
          "indexed": true,
          "internalType": "uint32",
          "name": "memberId",
          "type": "uint32"
        },
        {
          "indexed": false,
          "internalType": "int32",
          "name": "points",
          "type": "int32"
        },
        {
          "indexed": false,
          "internalType": "bool",
          "name": "increase",
          "type": "bool"
        },
        {
          "indexed": false,
          "internalType": "int32",
          "name": "newReputation",
          "type": "int32"
        },
        {
          "indexed": false,
          "internalType": "uint256",
          "name": "timestamp",
          "type": "uint256"
        }
      ],
      "name": "ReputationChanged",
      "type": "event"
    },
    {
      "anonymous": false,
      "inputs": [
        {
          "indexed": true,
          "internalType": "uint32",
          "name": "electionId",
          "type": "uint32"
        },
        {
          "indexed": true,
          "internalType": "uint32",
          "name": "winnerId",
          "type": "uint32"
        },
        {
          "indexed": false,
          "internalType": "int32",
          "name": "winningVotes",
          "type": "int32"
        }
      ],
      "name": "UnbeatableMajorityReached",
      "type": "event"
    },
    {
      "anonymous": false,
      "inputs": [
        {
          "indexed": true,
          "internalType": "uint32",
          "name": "electionId",
          "type": "uint32"
        },
        {
          "indexed": true,
          "internalType": "uint32",
          "name": "candidateId",
          "type": "uint32"
        },
        {
          "indexed": true,
          "internalType": "uint32",
          "name": "memberId",
          "type": "uint32"
        },
        {
          "indexed": false,
          "internalType": "int32",
          "name": "voteWeight",
          "type": "int32"
        }
      ],
      "name": "VoteCast",
      "type": "event"
    },
    {
      "inputs": [],
      "name": "REPUTATION_GAIN_BY_COVERING_LOAN",
      "outputs": [
        {
          "internalType": "int32",
          "name": "",
          "type": "int32"
        }
      ],
      "stateMutability": "view",
      "type": "function"
    },
    {
      "inputs": [],
      "name": "REPUTATION_GAIN_BY_REPAYNG_DEBT",
      "outputs": [
        {
          "internalType": "int32",
          "name": "",
          "type": "int32"
        }
      ],
      "stateMutability": "view",
      "type": "function"
    },
    {
      "inputs": [],
      "name": "REPUTATION_LOSS_BY_DEBT_NOT_PAYD",
      "outputs": [
        {
          "internalType": "int32",
          "name": "",
          "type": "int32"
        }
      ],
      "stateMutability": "view",
      "type": "function"
    },
    {
      "inputs": [
        {
          "internalType": "uint32",
          "name": "electionId",
          "type": "uint32"
        },
        {
          "internalType": "uint32",
          "name": "candidateId",
          "type": "uint32"
        }
      ],
      "name": "addCandidate",
      "outputs": [],
      "stateMutability": "nonpayable",
      "type": "function"
    },
    {
      "inputs": [
        {
          "internalType": "address",
          "name": "",
          "type": "address"
        }
      ],
      "name": "authorizedCallers",
      "outputs": [
        {
          "internalType": "bool",
          "name": "",
          "type": "bool"
        }
      ],
      "stateMutability": "view",
      "type": "function"
    },
    {
      "inputs": [
        {
          "internalType": "uint32",
          "name": "electionId",
          "type": "uint32"
        }
      ],
      "name": "checkUnbeatableMajority",
      "outputs": [
        {
          "internalType": "bool",
          "name": "isUnbeatable",
          "type": "bool"
        },
        {
          "internalType": "uint32",
          "name": "leadingCandidate",
          "type": "uint32"
        },
        {
          "internalType": "int32",
          "name": "leadingVotes",
          "type": "int32"
        },
        {
          "internalType": "uint32",
          "name": "secondCandidate",
          "type": "uint32"
        },
        {
          "internalType": "int32",
          "name": "secondVotes",
          "type": "int32"
        }
      ],
      "stateMutability": "view",
      "type": "function"
    },
    {
      "inputs": [
        {
          "internalType": "uint32",
          "name": "electionId",
          "type": "uint32"
        }
      ],
      "name": "closeElection",
      "outputs": [],
      "stateMutability": "nonpayable",
      "type": "function"
    },
    {
      "inputs": [
        {
          "internalType": "uint256",
          "name": "",
          "type": "uint256"
        }
      ],
      "name": "elections",
      "outputs": [
        {
          "internalType": "uint32",
          "name": "id",
          "type": "uint32"
        },
        {
          "internalType": "uint256",
          "name": "startTime",
          "type": "uint256"
        },
        {
          "internalType": "uint256",
          "name": "endTime",
          "type": "uint256"
        },
        {
          "internalType": "bool",
          "name": "active",
          "type": "bool"
        },
        {
          "internalType": "uint32",
          "name": "winnerId",
          "type": "uint32"
        },
        {
          "internalType": "int32",
          "name": "winningVotes",
          "type": "int32"
        },
        {
          "internalType": "int32",
          "name": "totalVotesCast",
          "type": "int32"
        },
        {
          "internalType": "int32",
          "name": "potentialRemainingVotes",
          "type": "int32"
        }
      ],
      "stateMutability": "view",
      "type": "function"
    },
    {
      "inputs": [],
      "name": "getActiveMemberCount",
      "outputs": [
        {
          "internalType": "uint32",
          "name": "",
          "type": "uint32"
        }
      ],
      "stateMutability": "view",
      "type": "function"
    },
    {
      "inputs": [],
      "name": "getAverageReputation",
      "outputs": [
        {
          "internalType": "int32",
          "name": "",
          "type": "int32"
        }
      ],
      "stateMutability": "view",
      "type": "function"
    },
    {
      "inputs": [
        {
          "internalType": "uint32",
          "name": "candidateId",
          "type": "uint32"
        }
      ],
      "name": "getCandidateVotes",
      "outputs": [
        {
          "internalType": "int32",
          "name": "",
          "type": "int32"
        }
      ],
      "stateMutability": "view",
      "type": "function"
    },
    {
      "inputs": [],
      "name": "getCurrentElectionId",
      "outputs": [
        {
          "internalType": "int32",
          "name": "",
          "type": "int32"
        }
      ],
      "stateMutability": "view",
      "type": "function"
    },
    {
      "inputs": [
        {
          "internalType": "uint32",
          "name": "electionId",
          "type": "uint32"
        }
      ],
      "name": "getElectionInfo",
      "outputs": [
        {
          "internalType": "uint32",
          "name": "id",
          "type": "uint32"
        },
        {
          "internalType": "uint32[]",
          "name": "candidates",
          "type": "uint32[]"
        },
        {
          "internalType": "uint256",
          "name": "startTime",
          "type": "uint256"
        },
        {
          "internalType": "uint256",
          "name": "endTime",
          "type": "uint256"
        },
        {
          "internalType": "bool",
          "name": "active",
          "type": "bool"
        },
        {
          "internalType": "uint32",
          "name": "winnerId",
          "type": "uint32"
        },
        {
          "internalType": "int32",
          "name": "winningVotes",
          "type": "int32"
        },
        {
          "internalType": "int32",
          "name": "totalVotesCast",
          "type": "int32"
        }
      ],
      "stateMutability": "view",
      "type": "function"
    },
    {
      "inputs": [
        {
          "internalType": "address",
          "name": "wallet",
          "type": "address"
        }
      ],
      "name": "getMemberId",
      "outputs": [
        {
          "internalType": "uint32",
          "name": "",
          "type": "uint32"
        }
      ],
      "stateMutability": "view",
      "type": "function"
    },
    {
      "inputs": [
        {
          "internalType": "uint32",
          "name": "memberId",
          "type": "uint32"
        }
      ],
      "name": "getReputation",
      "outputs": [
        {
          "internalType": "int32",
          "name": "",
          "type": "int32"
        }
      ],
      "stateMutability": "view",
      "type": "function"
    },
    {
      "inputs": [
        {
          "internalType": "uint32",
          "name": "electionId",
          "type": "uint32"
        },
        {
          "internalType": "uint32",
          "name": "memberId",
          "type": "uint32"
        }
      ],
      "name": "hasMemberVoted",
      "outputs": [
        {
          "internalType": "bool",
          "name": "",
          "type": "bool"
        }
      ],
      "stateMutability": "view",
      "type": "function"
    },
    {
      "inputs": [
        {
          "internalType": "uint32",
          "name": "",
          "type": "uint32"
        },
        {
          "internalType": "uint32",
          "name": "",
          "type": "uint32"
        }
      ],
      "name": "hasVotedInElection",
      "outputs": [
        {
          "internalType": "bool",
          "name": "",
          "type": "bool"
        }
      ],
      "stateMutability": "view",
      "type": "function"
    },
    {
      "inputs": [
        {
          "internalType": "uint32",
          "name": "memberId",
          "type": "uint32"
        }
      ],
      "name": "isMemberActive",
      "outputs": [
        {
          "internalType": "bool",
          "name": "",
          "type": "bool"
        }
      ],
      "stateMutability": "view",
      "type": "function"
    },
    {
      "inputs": [
        {
          "internalType": "uint32",
          "name": "",
          "type": "uint32"
        }
      ],
      "name": "isModerator",
      "outputs": [
        {
          "internalType": "bool",
          "name": "",
          "type": "bool"
        }
      ],
      "stateMutability": "view",
      "type": "function"
    },
    {
      "inputs": [
        {
          "internalType": "address",
          "name": "wallet",
          "type": "address"
        }
      ],
      "name": "isWalletVinculated",
      "outputs": [
        {
          "internalType": "bool",
          "name": "",
          "type": "bool"
        }
      ],
      "stateMutability": "view",
      "type": "function"
    },
    {
      "inputs": [
        {
          "internalType": "uint32",
          "name": "",
          "type": "uint32"
        }
      ],
      "name": "memberReputation",
      "outputs": [
        {
          "internalType": "int32",
          "name": "",
          "type": "int32"
        }
      ],
      "stateMutability": "view",
      "type": "function"
    },
    {
      "inputs": [
        {
          "internalType": "uint32",
          "name": "",
          "type": "uint32"
        }
      ],
      "name": "moderatorVotesReceived",
      "outputs": [
        {
          "internalType": "int32",
          "name": "",
          "type": "int32"
        }
      ],
      "stateMutability": "view",
      "type": "function"
    },
    {
      "inputs": [
        {
          "internalType": "uint32",
          "name": "candidateId",
          "type": "uint32"
        }
      ],
      "name": "openElection",
      "outputs": [],
      "stateMutability": "nonpayable",
      "type": "function"
    },
    {
      "inputs": [],
      "name": "owner",
      "outputs": [
        {
          "internalType": "address",
          "name": "",
          "type": "address"
        }
      ],
      "stateMutability": "view",
      "type": "function"
    },
    {
      "inputs": [],
      "name": "renounceOwnership",
      "outputs": [],
      "stateMutability": "nonpayable",
      "type": "function"
    },
    {
      "inputs": [
        {
          "internalType": "uint32",
          "name": "memberId",
          "type": "uint32"
        },
        {
          "internalType": "int32",
          "name": "points",
          "type": "int32"
        },
        {
          "internalType": "bool",
          "name": "increase",
          "type": "bool"
        }
      ],
      "name": "reputationChange",
      "outputs": [],
      "stateMutability": "nonpayable",
      "type": "function"
    },
    {
      "inputs": [
        {
          "internalType": "address",
          "name": "caller",
          "type": "address"
        },
        {
          "internalType": "bool",
          "name": "authorized",
          "type": "bool"
        }
      ],
      "name": "setAuthorizedCaller",
      "outputs": [],
      "stateMutability": "nonpayable",
      "type": "function"
    },
    {
      "inputs": [],
      "name": "totalPotentialVotes",
      "outputs": [
        {
          "internalType": "int32",
          "name": "",
          "type": "int32"
        }
      ],
      "stateMutability": "view",
      "type": "function"
    },
    {
      "inputs": [
        {
          "internalType": "address",
          "name": "newOwner",
          "type": "address"
        }
      ],
      "name": "transferOwnership",
      "outputs": [],
      "stateMutability": "nonpayable",
      "type": "function"
    },
    {
      "inputs": [
        {
          "internalType": "uint32",
          "name": "memberId",
          "type": "uint32"
        },
        {
          "internalType": "address",
          "name": "wallet",
          "type": "address"
        }
      ],
      "name": "vinculationMemberToWallet",
      "outputs": [],
      "stateMutability": "nonpayable",
      "type": "function"
    },
    {
      "inputs": [
        {
          "internalType": "uint32",
          "name": "electionId",
          "type": "uint32"
        },
        {
          "internalType": "uint32",
          "name": "candidateId",
          "type": "uint32"
        },
        {
          "internalType": "uint32",
          "name": "memberId",
          "type": "uint32"
        }
      ],
      "name": "voteForModerator",
      "outputs": [],
      "stateMutability": "nonpayable",
      "type": "function"
    },
    {
      "inputs": [
        {
          "internalType": "address",
          "name": "",
          "type": "address"
        }
      ],
      "name": "walletToMemberId",
      "outputs": [
        {
          "internalType": "uint32",
          "name": "",
          "type": "uint32"
        }
      ],
      "stateMutability": "view",
      "type": "function"
    }
  ],
  "bytecode": "0x6080806040523461007757600160008181558154336001600160a01b0319821681179093556001600160a01b0316907f8be0079c531659141344cd1fd0a4f28419497f9722a3daafe3b4186f6b6457e09080a33360005260026020526040600020600160ff19825416179055611c7f908161007d8239f35b600080fdfe6080604052600436101561001257600080fd5b60003560e01c80630fc19c78146117735780631f7f505c146102cc57806321bb31e41461165057806322faa41f1461162c578063232775c314611386578063244ad967146110db578063315f776014611079578063454bbd2914610ff15780634698c2d51461028c5780634a57c6d01461089e5780634b45e00f14610e665780634e5ecf1314610e4a578063533dfa3514610b34578063536fff6c14610af5578063598a562a14610ab35780635d090176146109c65780635e6fef011461093557806370574c4b146103fe578063715018a6146108d857806381db22841461089e5780638249dea6146104385780638450a681146103fe5780638da5cb5b146103d55780639734ed6214610399578063a5118bf11461037d578063a6f587ac1461035c578063b1cc1f8f14610320578063b3f8df40146102cc578063c269014b1461028c578063d5be8c4a14610270578063f2fde38b146101a75763fe2b536b1461017c57600080fd5b346101a25760003660031901126101a2576020610197611923565b6040519060030b8152f35b600080fd5b346101a25760203660031901126101a2576101c06117b4565b6101c8611805565b6001600160a01b0390811690811561021c57600154826bffffffffffffffffffffffff60a01b821617600155167f8be0079c531659141344cd1fd0a4f28419497f9722a3daafe3b4186f6b6457e0600080a3005b60405162461bcd60e51b815260206004820152602660248201527f4f776e61626c653a206e6577206f776e657220697320746865207a65726f206160448201526564647265737360d01b6064820152608490fd5b346101a25760003660031901126101a257602060405160028152f35b346101a25760203660031901126101a2576001600160a01b036102ad6117b4565b166000526004602052602063ffffffff60406000205416604051908152f35b346101a25760403660031901126101a2576102e561178e565b6102ed6117a1565b9063ffffffff809116600052600b60205260406000209116600052602052602060ff604060002054166040519015158152f35b346101a25760203660031901126101a25763ffffffff61033e61178e565b166000526009602052602060ff604060002054166040519015158152f35b346101a25760003660031901126101a257602060065460030b604051908152f35b346101a25760003660031901126101a257602060405160038152f35b346101a25760203660031901126101a25763ffffffff6103b761178e565b166000526007602052602060ff604060002054166040519015158152f35b346101a25760003660031901126101a2576001546040516001600160a01b039091168152602090f35b346101a25760203660031901126101a25763ffffffff61041c61178e565b16600052600a602052602060406000205460030b604051908152f35b346101a25760203660031901126101a25761045161178e565b600d548015158061087b575b6108695760405191610120830183811067ffffffffffffffff821117610811576040526000835260606020840152600060408401526000606084015260006080840152600060a0840152600060c0840152600060e08401526000610100840152600c5463ffffffff8082161461083d578063ffffffff60018180941601168219821617600c5516835260405180604081011067ffffffffffffffff6040830111176108115760408101604052600181526020368183013780602085015280511561085357602063ffffffff831691015242604084015262278d004201421161083d5762278d004201606084015260016080840152600060e084015260065460030b610100840152600160401b9182811015610811578060016105829201600d556117ca565b9290926108275763ffffffff84511663ffffffff19845416178355602084015180519167ffffffffffffffff83116108115782116108115760018401548260018601558083106107a8575b50602001906001840160005260206000209060005b8160031c81106107655750600719811681036106e8575b505050604063ffffffff7f4610b24bbfb857173e063b234e3a2475409bf5921c3f541f435eb016c5aad89f928183870151968760028801556106d660046060830151988960038201550161065f60808401511515829060ff801983541691151516179055565b60a0830151815460c085015160e086015161010087015160681b63ffffffff60681b1660489190911b63ffffffff60481b1660289290921b68ffffffff00000000001693881660081b64ffffffff001670ffffffffffffffffffffffffffffffff0019909316929092179290921791909117179055565b511694835196875260208701521693a3005b60009260005b60071983168303811061072f57505060031c0155604063ffffffff7f4610b24bbfb857173e063b234e3a2475409bf5921c3f541f435eb016c5aad89f6105f9565b9093602061075c60019263ffffffff885116908560021b60031b9163ffffffff809116831b921b19161790565b950191016106ee565b6000805b6008811061077e5750838201556001016105e2565b855190959160019160209163ffffffff60058a901b81811b199092169216901b1792019501610769565b600185016000526020600020601c8460021b16806107ee575b506007840160031c81015b6007830160031c820181106107e25750506105cd565b600081556001016107cc565b60001990816007870160031c8401019182549160200360031b1c169055876107c1565b634e487b7160e01b600052604160045260246000fd5b634e487b7160e01b600052600060045260246000fd5b634e487b7160e01b600052601160045260246000fd5b634e487b7160e01b600052603260045260246000fd5b60405163eca8873760e01b8152600490fd5b50600019810181811161083d57600461089560ff926117ca565b5001541661045d565b346101a25760203660031901126101a25763ffffffff6108bc61178e565b166000526005602052602060406000205460030b604051908152f35b346101a25760003660031901126101a2576108f1611805565b600180546001600160a01b031981169091556000906001600160a01b03167f8be0079c531659141344cd1fd0a4f28419497f9722a3daafe3b4186f6b6457e08280a3005b346101a25760203660031901126101a257600435600d548110156101a25761095f610100916117ca565b5063ffffffff90818154169160028201549160046003820154910154926040519485526020850152604084015260ff8216151560608401528160081c1660808301528060281c60030b60a08301528060481c60030b60c083015260681c60030b60e0820152f35b346101a25760403660031901126101a2576109df61178e565b6109e76117a1565b600d549063ffffffff9283811692831015610a9157610a05816117ca565b5060038101544211908115610aa3575b50610a9157610a256001916117ca565b5001805490600160401b8210156108115781610a49916001610a68940181556118f1565b94909216809483549060031b9163ffffffff809116831b921b19161790565b90557f2497edd456da400fdf8e24a5943faebba37fc1a396be5ff9ef6105aede63e26b600080a3005b604051638744898560e01b8152600490fd5b60ff915060040154161585610a15565b346101a25760203660031901126101a2576001600160a01b03610ad46117b4565b166000526004602052602063ffffffff604060002054161515604051908152f35b346101a25760203660031901126101a2576001600160a01b03610b166117b4565b166000526002602052602060ff604060002054166040519015158152f35b346101a25760603660031901126101a257610b4d61178e565b602480359160039083820b918285036101a25760443591821515918284036101a257336000526020916002835260ff6040600020541615610e385763ffffffff809116978860005260058452604060002054830b95600014610e2957610bb3908661187c565b60008613958615610e2057925b81810b96610bda600089139586600014610e19578461185d565b94610bea6006549687850b61187c565b851663ffffffff1980971617600655811580610e12575b15610cc4575050509091929394959688600052600785526040600020600160ff1982541617905560085490600160401b821015610cb0575091600080516020611c2a8339815191529795939189610c80610c6586600160809c9a98016008556118b1565b819391549060031b9163ffffffff809116831b921b19161790565b90555b896000526005845260406000209283541691161790556040519384528301526040820152426060820152a2005b634e487b7160e01b60009081526041600452fd5b81610e09575b50610cf0575b50600080516020611c2a8339815191529750906080969594939291610c83565b60008a81526007865260408120805460ff191690555b6008805480831015610de6578c86610d1d856118b1565b905490871b1c1614610d39575050610d3490611914565b610d06565b9160009b91939495969798999a9b1992838101908111610dd157610c6588610d63610d70936118b1565b905490891b1c16926118b1565b90558254908115610dbd5750918560809a98969492600080516020611c2a8339815191529c9a9896940192610da4846118b1565b81939154921b1b19169055555b90919293949596610cd0565b634e487b7160e01b60009081526031600452fd5b82634e487b7160e01b60005260116004526000fd5b50505050600080516020611c2a8339815191529750906080969594939291610db1565b9050158b610cca565b5080610c01565b600061185d565b50600092610bc0565b610e33908661185d565b610bb3565b604051635c427cd960e01b8152600490fd5b346101a25760003660031901126101a257602060405160018152f35b346101a2576020806003193601126101a257610e8061178e565b90600d5463ffffffff9283811691821015610a9157610ea690610ea1611805565b6117ca565b5091600483019384549360ff851615610a9157600101948554908115610fdf5760ff19958616815582610ed88861189c565b949054600395861b1c169081600052600a93848752604060002054860b9460015b828110610f9557505050928092610f67837f2b056a7f2ae4dfec88dc5458429e82a178c97e5019b817058ae7dcd455da9e85989796610f8b95169a8b600052600989526001604060002091825416179055829064ffffffff0082549160081b169064ffffffff001916179055565b9081549060281b68ffffffff0000000000169068ffffffff00000000001916179055565b604051910b8152a3005b83610fa0828e6118f1565b9054908a1b1c1680600052828a52604060002054890b90888a0b8213610fd1575b5050610fcc90611914565b610ef9565b9097509450610fcc8d610fc1565b604051633941064160e21b8152600490fd5b346101a25760403660031901126101a25761100a6117b4565b60243590811515908183036101a2577fad857fa38c9319cb80848f1ef2f924383b90297eb5d71755738ff037d100faa191611070602092611049611805565b60018060a01b031694856000526002845260406000209060ff801983541691151516179055565b604051908152a2005b346101a25760203660031901126101a25761109261178e565b600d5463ffffffff908183161015610a9157806110b060a093611bcb565b9493959092604051961515875216602086015260030b604085015216606083015260030b6080820152f35b346101a25760603660031901126101a2576110f461178e565b6110fc6117a1565b6044359163ffffffff928381168091036101a25780158015611361575b61134f57600d549284831693841015610a9157611135836117ca565b509360039485810154421190811561133f575b50610a9157611156846117ca565b5095816000526020600b8152604060002085600052815260ff6040600020541661132e57600096600094600190818b018581549216975b8281106112f7575b5050509091929394959697156112e55761129a987f01918cd6e2704e854c925442ca2caa9ef7187126224a112077220e8316519d66948860005260058552604060002054840b92600084126112dc575b916004916112689389600052600b885260406000208c600052885260406000209060ff1982541617905589600052600a875260406000209081549061122c87838a0b61187c565b169063ffffffff19161790550161124983825460481c860b61187c565b81549060481b63ffffffff60481b169063ffffffff60481b1916179055565b611271886117ca565b508760005260058452604060002054830b6000811361129c575b5050604051910b8152a46119bd565b005b6112b360046112d5930191825460681c860b61185d565b815460689190911b63ffffffff60681b1663ffffffff60681b19909116179055565b898061128b565b600093506111e5565b60405163e66ea08f60e01b8152600490fd5b888761130383856118f1565b905490881b1c161461131d5761131890611914565b61118d565b509199508991508b90508080611195565b60405162b14d3b60e61b8152600490fd5b60ff915060040154161587611148565b604051630cff23e760e01b8152600490fd5b5080600052600360205260406000203360005260205260ff6040600020541615611119565b346101a25760203660031901126101a25761139f61178e565b600d5463ffffffff82161015610a91576113b8906117ca565b5063ffffffff81541690600281015490600381015460048201549060405193846020600186015491828152019060018296016000526020600020906000915b8160078401106115ab575491818110611594575b81811061157b575b818110611561575b818110611547575b81811061152d575b818110611513575b8181106114f9575b106114eb575b50859003601f01601f191685019467ffffffffffffffff86118187101761081157856040526101008087019787526020870152518096526101208501936000965b8088106114cd5750508495506040850152606084015260ff81161515608084015263ffffffff8160081c1660a08401528060281c60030b60c084015260481c60030b60e08301520390f35b909460208060019263ffffffff895116815201960197019690611482565b60e01c815260200187611441565b92602060019163ffffffff8560c01c16815201930161143b565b92602060019163ffffffff8560a01c168152019301611433565b92602060019163ffffffff8560801c16815201930161142b565b92602060019163ffffffff8560601c168152019301611423565b92602060019163ffffffff8560401c16815201930161141b565b92602060019163ffffffff85831c168152019301611413565b92602060019163ffffffff8516815201930161140b565b926001610100600892865463ffffffff8116825263ffffffff8160201c16602083015263ffffffff8160401c166040830152606063ffffffff82821c1690830152608063ffffffff82821c169083015260a063ffffffff82821c169083015260c063ffffffff82821c169083015260e01c60e08201520194019201916113f7565b346101a25760003660031901126101a257602063ffffffff60085416604051908152f35b346101a25760403660031901126101a25761166961178e565b6024356001600160a01b03811691908290036101a25763ffffffff809116908115801561176b575b61134f578160005260209060038252604060002084600052825260ff604060002054166117595783600052600482526040600020541682811515918261174e575b505061173c577f605181a3cca1307ae9b2df54d6592ddf8f82c3570c6938f36d61cd23b6b57a8d90826000526003815260406000208460005281526040600020600160ff198254161790556004815260406000208363ffffffff19825416179055604051428152a3005b6040516319a52a5960e31b8152600490fd5b1415905082856116d2565b6040516377030a8760e11b8152600490fd5b508215611691565b346101a25760003660031901126101a257602061019761196b565b6004359063ffffffff821682036101a257565b6024359063ffffffff821682036101a257565b600435906001600160a01b03821682036101a257565b600d5481101561085357600590600d600052027fd7b6990105719101dabeb77144f2a3385c8033acd3af97e9423a695e81ad1eb50190600090565b6001546001600160a01b0316330361181957565b606460405162461bcd60e51b815260206004820152602060248201527f4f776e61626c653a2063616c6c6572206973206e6f7420746865206f776e65726044820152fd5b600391820b910b0390637fffffff198212637fffffff83131761083d57565b9060030b9060030b0190637fffffff198212637fffffff83131761083d57565b80541561085357600052602060002090600090565b90600854821015610853576008600052601c8260031c7ff3f7a9fe364faab93b216da50a3214154f22a0a2b415b23a84c8169e8b636ee3019260021b1690565b919091805483101561085357600052601c60206000208360031c019260021b1690565b600019811461083d5760010190565b600d548015611964576000199080820190811161083d57611943906117ca565b50600481015460ff16156119605763ffffffff9150541660030b90565b5090565b5060001990565b63ffffffff6008541680156119b75760065460030b9060030b9081156119a157637fffffff19811460001983141661083d570590565b634e487b7160e01b600052601260045260246000fd5b50600090565b6119c6816117ca565b50906002600183015410611acf576119dd81611ad3565b919293905063ffffffff90818516958615611ac65760040192611a098454918260681c60030b9061187c565b60030b958560030b968713611a23575b5050505050505050565b64ffffffffff1990911660089190911b64ffffffff00161783557f2b056a7f2ae4dfec88dc5458429e82a178c97e5019b817058ae7dcd455da9e859360209360ff1991611a6f91610f67565b86600052600984526001604060002091825416179055169284847f6fb21c4c14810ceb320306eda3d07c6738412088c17a66604afe100ae599b18284604051858152a3604051908152a33880808080808080611a19565b50505050505050565b5050565b611ade6001916117ca565b50018054908115611bbb57611af58193929361189c565b92909163ffffffff809354600395861b1c1690600095828752600a9560208781526040808a2054830b99809981996001975b878910611b3d5750505050505050505093929190565b90919293949596979c9b988c99838f611b5690856118f1565b9054908b1b1c169c8d8752858952878720548a0b9b8a0b8c13600014611b92575050611b85909c9b999d611914565b9796959493929190611b27565b9c9d9e919a909d8d8a0b8213611bae575b5050611b8590611914565b9d509b50611b8538611ba3565b5050600090600090600090600090565b611bd4816117ca565b50906002600183015410611c165790611c0792611bf2600493611ad3565b93929691959094015460681c60030b8361187c565b60030b8460030b139493929190565b505060009060009060009060009060009056fe72194f756300fff6bfc1d45660da70048be350dc1aad864b9280fa75c3ff696ca26469706673582212208d1a07bb11785e455622feac4060d9e727646e3c1a817b41168e52bed59e2ee164736f6c63430008130033",
  "linkReferences": {},
  "deployedLinkReferences": {}
}