{
  "_format": "hh-sol-artifact-1",
  "contractName": "ReputationSystem",
  "sourceName": "contracts/ReputationSystem.sol",
  "abi": [
    {
      "inputs": [],
      "stateMutability": "nonpayable",
      "type": "constructor"
    },
    {
      "inputs": [],
      "name": "ActiveElectionExists",
      "type": "error"
    },
    {
      "inputs": [],
      "name": "ElectionExpired",
      "type": "error"
    },
    {
      "inputs": [],
      "name": "ElectionNotActive",
      "type": "error"
    },
    {
      "inputs": [],
      "name": "InvalidCandidate",
      "type": "error"
    },
    {
      "inputs": [],
      "name": "MemberAlreadyVoted",
      "type": "error"
    },
    {
      "inputs": [],
      "name": "MemberIdOrWalletInvalid",
      "type": "error"
    },
    {
      "inputs": [],
      "name": "NoCandidates",
      "type": "error"
    },
    {
      "inputs": [],
      "name": "UnauthorizedCaller",
      "type": "error"
    },
    {
      "inputs": [],
      "name": "WalletAlreadyLinkedToAnotherMember",
      "type": "error"
    },
    {
      "inputs": [],
      "name": "WalletAlreadyVinculated",
      "type": "error"
    },
    {
      "anonymous": false,
      "inputs": [
        {
          "indexed": true,
          "internalType": "address",
          "name": "caller",
          "type": "address"
        },
        {
          "indexed": false,
          "internalType": "bool",
          "name": "authorized",
          "type": "bool"
        }
      ],
      "name": "AuthorizedCallerUpdated",
      "type": "event"
    },
    {
      "anonymous": false,
      "inputs": [
        {
          "indexed": true,
          "internalType": "uint32",
          "name": "electionId",
          "type": "uint32"
        },
        {
          "indexed": true,
          "internalType": "uint32",
          "name": "candidateId",
          "type": "uint32"
        }
      ],
      "name": "CandidateAdded",
      "type": "event"
    },
    {
      "anonymous": false,
      "inputs": [
        {
          "indexed": true,
          "internalType": "uint32",
          "name": "electionId",
          "type": "uint32"
        },
        {
          "indexed": true,
          "internalType": "uint32",
          "name": "winnerId",
          "type": "uint32"
        },
        {
          "indexed": false,
          "internalType": "int32",
          "name": "winningVotes",
          "type": "int32"
        }
      ],
      "name": "ElectionClosed",
      "type": "event"
    },
    {
      "anonymous": false,
      "inputs": [
        {
          "indexed": true,
          "internalType": "uint32",
          "name": "electionId",
          "type": "uint32"
        },
        {
          "indexed": true,
          "internalType": "uint32",
          "name": "candidateId",
          "type": "uint32"
        },
        {
          "indexed": false,
          "internalType": "uint256",
          "name": "startTime",
          "type": "uint256"
        },
        {
          "indexed": false,
          "internalType": "uint256",
          "name": "endTime",
          "type": "uint256"
        }
      ],
      "name": "ElectionOpened",
      "type": "event"
    },
    {
      "anonymous": false,
      "inputs": [
        {
          "indexed": true,
          "internalType": "uint32",
          "name": "memberId",
          "type": "uint32"
        },
        {
          "indexed": true,
          "internalType": "address",
          "name": "wallet",
          "type": "address"
        },
        {
          "indexed": false,
          "internalType": "address[]",
          "name": "walletVinculated",
          "type": "address[]"
        },
        {
          "indexed": false,
          "internalType": "uint256",
          "name": "timestamp",
          "type": "uint256"
        }
      ],
      "name": "MemberToWalletVinculation",
      "type": "event"
    },
    {
      "anonymous": false,
      "inputs": [
        {
          "indexed": true,
          "internalType": "uint32",
          "name": "memberId",
          "type": "uint32"
        },
        {
          "indexed": false,
          "internalType": "uint32",
          "name": "electionId",
          "type": "uint32"
        }
      ],
      "name": "NewModerator",
      "type": "event"
    },
    {
      "anonymous": false,
      "inputs": [
        {
          "indexed": true,
          "internalType": "address",
          "name": "previousOwner",
          "type": "address"
        },
        {
          "indexed": true,
          "internalType": "address",
          "name": "newOwner",
          "type": "address"
        }
      ],
      "name": "OwnershipTransferred",
      "type": "event"
    },
    {
      "anonymous": false,
      "inputs": [
        {
          "indexed": true,
          "internalType": "uint32",
          "name": "memberId",
          "type": "uint32"
        },
        {
          "indexed": false,
          "internalType": "int32",
          "name": "points",
          "type": "int32"
        },
        {
          "indexed": false,
          "internalType": "bool",
          "name": "increase",
          "type": "bool"
        },
        {
          "indexed": false,
          "internalType": "int32",
          "name": "newReputation",
          "type": "int32"
        },
        {
          "indexed": false,
          "internalType": "uint256",
          "name": "timestamp",
          "type": "uint256"
        }
      ],
      "name": "ReputationChanged",
      "type": "event"
    },
    {
      "anonymous": false,
      "inputs": [
        {
          "indexed": true,
          "internalType": "uint32",
          "name": "electionId",
          "type": "uint32"
        },
        {
          "indexed": true,
          "internalType": "uint32",
          "name": "winnerId",
          "type": "uint32"
        },
        {
          "indexed": false,
          "internalType": "int32",
          "name": "winningVotes",
          "type": "int32"
        }
      ],
      "name": "UnbeatableMajorityReached",
      "type": "event"
    },
    {
      "anonymous": false,
      "inputs": [
        {
          "indexed": true,
          "internalType": "uint32",
          "name": "electionId",
          "type": "uint32"
        },
        {
          "indexed": true,
          "internalType": "uint32",
          "name": "candidateId",
          "type": "uint32"
        },
        {
          "indexed": true,
          "internalType": "uint32",
          "name": "memberId",
          "type": "uint32"
        },
        {
          "indexed": false,
          "internalType": "int32",
          "name": "voteWeight",
          "type": "int32"
        }
      ],
      "name": "VoteCast",
      "type": "event"
    },
    {
      "inputs": [],
      "name": "REPUTATION_GAIN_BY_COVERING_LOAN",
      "outputs": [
        {
          "internalType": "int32",
          "name": "",
          "type": "int32"
        }
      ],
      "stateMutability": "view",
      "type": "function"
    },
    {
      "inputs": [],
      "name": "REPUTATION_GAIN_BY_REPAYNG_DEBT",
      "outputs": [
        {
          "internalType": "int32",
          "name": "",
          "type": "int32"
        }
      ],
      "stateMutability": "view",
      "type": "function"
    },
    {
      "inputs": [],
      "name": "REPUTATION_LOSS_BY_DEBT_NOT_PAYD",
      "outputs": [
        {
          "internalType": "int32",
          "name": "",
          "type": "int32"
        }
      ],
      "stateMutability": "view",
      "type": "function"
    },
    {
      "inputs": [
        {
          "internalType": "uint32",
          "name": "electionId",
          "type": "uint32"
        },
        {
          "internalType": "uint32",
          "name": "candidateId",
          "type": "uint32"
        }
      ],
      "name": "addCandidate",
      "outputs": [],
      "stateMutability": "nonpayable",
      "type": "function"
    },
    {
      "inputs": [
        {
          "internalType": "address",
          "name": "",
          "type": "address"
        }
      ],
      "name": "authorizedCallers",
      "outputs": [
        {
          "internalType": "bool",
          "name": "",
          "type": "bool"
        }
      ],
      "stateMutability": "view",
      "type": "function"
    },
    {
      "inputs": [
        {
          "internalType": "uint32",
          "name": "electionId",
          "type": "uint32"
        }
      ],
      "name": "checkUnbeatableMajority",
      "outputs": [
        {
          "internalType": "bool",
          "name": "isUnbeatable",
          "type": "bool"
        },
        {
          "internalType": "uint32",
          "name": "leadingCandidate",
          "type": "uint32"
        },
        {
          "internalType": "int32",
          "name": "leadingVotes",
          "type": "int32"
        },
        {
          "internalType": "uint32",
          "name": "secondCandidate",
          "type": "uint32"
        },
        {
          "internalType": "int32",
          "name": "secondVotes",
          "type": "int32"
        }
      ],
      "stateMutability": "view",
      "type": "function"
    },
    {
      "inputs": [
        {
          "internalType": "uint32",
          "name": "electionId",
          "type": "uint32"
        }
      ],
      "name": "closeElection",
      "outputs": [],
      "stateMutability": "nonpayable",
      "type": "function"
    },
    {
      "inputs": [
        {
          "internalType": "uint256",
          "name": "",
          "type": "uint256"
        }
      ],
      "name": "elections",
      "outputs": [
        {
          "internalType": "uint32",
          "name": "id",
          "type": "uint32"
        },
        {
          "internalType": "uint256",
          "name": "startTime",
          "type": "uint256"
        },
        {
          "internalType": "uint256",
          "name": "endTime",
          "type": "uint256"
        },
        {
          "internalType": "bool",
          "name": "active",
          "type": "bool"
        },
        {
          "internalType": "uint32",
          "name": "winnerId",
          "type": "uint32"
        },
        {
          "internalType": "int32",
          "name": "winningVotes",
          "type": "int32"
        },
        {
          "internalType": "int32",
          "name": "totalVotesCast",
          "type": "int32"
        },
        {
          "internalType": "int32",
          "name": "potentialRemainingVotes",
          "type": "int32"
        }
      ],
      "stateMutability": "view",
      "type": "function"
    },
    {
      "inputs": [],
      "name": "getActiveMemberCount",
      "outputs": [
        {
          "internalType": "uint32",
          "name": "",
          "type": "uint32"
        }
      ],
      "stateMutability": "view",
      "type": "function"
    },
    {
      "inputs": [],
      "name": "getAverageReputation",
      "outputs": [
        {
          "internalType": "int32",
          "name": "",
          "type": "int32"
        }
      ],
      "stateMutability": "view",
      "type": "function"
    },
    {
      "inputs": [
        {
          "internalType": "uint32",
          "name": "candidateId",
          "type": "uint32"
        }
      ],
      "name": "getCandidateVotes",
      "outputs": [
        {
          "internalType": "int32",
          "name": "",
          "type": "int32"
        }
      ],
      "stateMutability": "view",
      "type": "function"
    },
    {
      "inputs": [],
      "name": "getCurrentElectionId",
      "outputs": [
        {
          "internalType": "int32",
          "name": "",
          "type": "int32"
        }
      ],
      "stateMutability": "view",
      "type": "function"
    },
    {
      "inputs": [
        {
          "internalType": "uint32",
          "name": "electionId",
          "type": "uint32"
        }
      ],
      "name": "getElectionInfo",
      "outputs": [
        {
          "internalType": "uint32",
          "name": "id",
          "type": "uint32"
        },
        {
          "internalType": "uint32[]",
          "name": "candidates",
          "type": "uint32[]"
        },
        {
          "internalType": "uint256",
          "name": "startTime",
          "type": "uint256"
        },
        {
          "internalType": "uint256",
          "name": "endTime",
          "type": "uint256"
        },
        {
          "internalType": "bool",
          "name": "active",
          "type": "bool"
        },
        {
          "internalType": "uint32",
          "name": "winnerId",
          "type": "uint32"
        },
        {
          "internalType": "int32",
          "name": "winningVotes",
          "type": "int32"
        },
        {
          "internalType": "int32",
          "name": "totalVotesCast",
          "type": "int32"
        }
      ],
      "stateMutability": "view",
      "type": "function"
    },
    {
      "inputs": [
        {
          "internalType": "address",
          "name": "wallet",
          "type": "address"
        }
      ],
      "name": "getMemberId",
      "outputs": [
        {
          "internalType": "uint32",
          "name": "",
          "type": "uint32"
        }
      ],
      "stateMutability": "view",
      "type": "function"
    },
    {
      "inputs": [
        {
          "internalType": "uint32",
          "name": "memberId",
          "type": "uint32"
        }
      ],
      "name": "getReputation",
      "outputs": [
        {
          "internalType": "int32",
          "name": "",
          "type": "int32"
        }
      ],
      "stateMutability": "view",
      "type": "function"
    },
    {
      "inputs": [
        {
          "internalType": "uint32",
          "name": "electionId",
          "type": "uint32"
        },
        {
          "internalType": "uint32",
          "name": "memberId",
          "type": "uint32"
        }
      ],
      "name": "hasMemberVoted",
      "outputs": [
        {
          "internalType": "bool",
          "name": "",
          "type": "bool"
        }
      ],
      "stateMutability": "view",
      "type": "function"
    },
    {
      "inputs": [
        {
          "internalType": "uint32",
          "name": "",
          "type": "uint32"
        },
        {
          "internalType": "uint32",
          "name": "",
          "type": "uint32"
        }
      ],
      "name": "hasVotedInElection",
      "outputs": [
        {
          "internalType": "bool",
          "name": "",
          "type": "bool"
        }
      ],
      "stateMutability": "view",
      "type": "function"
    },
    {
      "inputs": [
        {
          "internalType": "uint32",
          "name": "memberId",
          "type": "uint32"
        }
      ],
      "name": "isMemberActive",
      "outputs": [
        {
          "internalType": "bool",
          "name": "",
          "type": "bool"
        }
      ],
      "stateMutability": "view",
      "type": "function"
    },
    {
      "inputs": [
        {
          "internalType": "uint32",
          "name": "",
          "type": "uint32"
        }
      ],
      "name": "isModerator",
      "outputs": [
        {
          "internalType": "bool",
          "name": "",
          "type": "bool"
        }
      ],
      "stateMutability": "view",
      "type": "function"
    },
    {
      "inputs": [
        {
          "internalType": "address",
          "name": "wallet",
          "type": "address"
        }
      ],
      "name": "isWalletVinculated",
      "outputs": [
        {
          "internalType": "bool",
          "name": "",
          "type": "bool"
        }
      ],
      "stateMutability": "view",
      "type": "function"
    },
    {
      "inputs": [
        {
          "internalType": "uint32",
          "name": "",
          "type": "uint32"
        }
      ],
      "name": "memberReputation",
      "outputs": [
        {
          "internalType": "int32",
          "name": "",
          "type": "int32"
        }
      ],
      "stateMutability": "view",
      "type": "function"
    },
    {
      "inputs": [
        {
          "internalType": "uint32",
          "name": "",
          "type": "uint32"
        }
      ],
      "name": "moderatorVotesReceived",
      "outputs": [
        {
          "internalType": "int32",
          "name": "",
          "type": "int32"
        }
      ],
      "stateMutability": "view",
      "type": "function"
    },
    {
      "inputs": [
        {
          "internalType": "uint32",
          "name": "candidateId",
          "type": "uint32"
        },
        {
          "internalType": "uint32",
          "name": "oponent",
          "type": "uint32"
        }
      ],
      "name": "openElection",
      "outputs": [],
      "stateMutability": "nonpayable",
      "type": "function"
    },
    {
      "inputs": [],
      "name": "owner",
      "outputs": [
        {
          "internalType": "address",
          "name": "",
          "type": "address"
        }
      ],
      "stateMutability": "view",
      "type": "function"
    },
    {
      "inputs": [],
      "name": "renounceOwnership",
      "outputs": [],
      "stateMutability": "nonpayable",
      "type": "function"
    },
    {
      "inputs": [
        {
          "internalType": "uint32",
          "name": "memberId",
          "type": "uint32"
        },
        {
          "internalType": "int32",
          "name": "points",
          "type": "int32"
        },
        {
          "internalType": "bool",
          "name": "increase",
          "type": "bool"
        }
      ],
      "name": "reputationChange",
      "outputs": [],
      "stateMutability": "nonpayable",
      "type": "function"
    },
    {
      "inputs": [
        {
          "internalType": "address",
          "name": "caller",
          "type": "address"
        },
        {
          "internalType": "bool",
          "name": "authorized",
          "type": "bool"
        }
      ],
      "name": "setAuthorizedCaller",
      "outputs": [],
      "stateMutability": "nonpayable",
      "type": "function"
    },
    {
      "inputs": [],
      "name": "totalPotentialVotes",
      "outputs": [
        {
          "internalType": "int32",
          "name": "",
          "type": "int32"
        }
      ],
      "stateMutability": "view",
      "type": "function"
    },
    {
      "inputs": [
        {
          "internalType": "address",
          "name": "newOwner",
          "type": "address"
        }
      ],
      "name": "transferOwnership",
      "outputs": [],
      "stateMutability": "nonpayable",
      "type": "function"
    },
    {
      "inputs": [
        {
          "internalType": "uint32",
          "name": "memberId",
          "type": "uint32"
        },
        {
          "internalType": "address",
          "name": "wallet",
          "type": "address"
        }
      ],
      "name": "vinculationMemberToWallet",
      "outputs": [],
      "stateMutability": "nonpayable",
      "type": "function"
    },
    {
      "inputs": [
        {
          "internalType": "uint32",
          "name": "electionId",
          "type": "uint32"
        },
        {
          "internalType": "uint32",
          "name": "candidateId",
          "type": "uint32"
        },
        {
          "internalType": "uint32",
          "name": "memberId",
          "type": "uint32"
        }
      ],
      "name": "voteForModerator",
      "outputs": [],
      "stateMutability": "nonpayable",
      "type": "function"
    },
    {
      "inputs": [
        {
          "internalType": "address",
          "name": "",
          "type": "address"
        }
      ],
      "name": "walletToMemberId",
      "outputs": [
        {
          "internalType": "uint32",
          "name": "",
          "type": "uint32"
        }
      ],
      "stateMutability": "view",
      "type": "function"
    },
    {
      "inputs": [
        {
          "internalType": "uint32",
          "name": "",
          "type": "uint32"
        },
        {
          "internalType": "uint256",
          "name": "",
          "type": "uint256"
        }
      ],
      "name": "walletsOfMember",
      "outputs": [
        {
          "internalType": "address",
          "name": "",
          "type": "address"
        }
      ],
      "stateMutability": "view",
      "type": "function"
    }
  ],
  "bytecode": "0x6080806040523461007757600160008181558154336001600160a01b0319821681179093556001600160a01b0316907f8be0079c531659141344cd1fd0a4f28419497f9722a3daafe3b4186f6b6457e09080a33360005260026020526040600020600160ff19825416179055611eea908161007d8239f35b600080fdfe6080604052600436101561001257600080fd5b60003560e01c80630fc19c78146119645780631f7f505c1461033557806321bb31e41461173557806322faa41f14611711578063232775c31461147a578063244ad967146111c2578063315f776014611160578063454bbd29146110d85780634698c2d5146102f55780634a57c6d0146104a15780634b45e00f14610f515780634e5ecf1314610f35578063533dfa3514610c1f5780635346ee191461074d578063536fff6c1461070e578063598a562a146106cc5780635d090176146105c95780635e6fef011461053857806370574c4b14610467578063715018a6146104db57806381db2284146104a15780638450a681146104675780638da5cb5b1461043e5780639734ed6214610402578063a5118bf1146103e6578063a6f587ac146103c5578063b1cc1f8f14610389578063b3f8df4014610335578063c269014b146102f5578063d5be8c4a146102d9578063df91be181461027b578063f2fde38b146101b25763fe2b536b1461018757600080fd5b346101ad5760003660031901126101ad5760206101a2611b4e565b6040519060030b8152f35b600080fd5b346101ad5760203660031901126101ad576101cb6119a5565b6101d3611a0e565b6001600160a01b0390811690811561022757600154826bffffffffffffffffffffffff60a01b821617600155167f8be0079c531659141344cd1fd0a4f28419497f9722a3daafe3b4186f6b6457e0600080a3005b60405162461bcd60e51b815260206004820152602660248201527f4f776e61626c653a206e6577206f776e657220697320746865207a65726f206160448201526564647265737360d01b6064820152608490fd5b346101ad5760403660031901126101ad5761029461197f565b63ffffffff60243591166000526005602052604060002080548210156101ad576020916102c0916119f6565b905460405160039290921b1c6001600160a01b03168152f35b346101ad5760003660031901126101ad57602060405160028152f35b346101ad5760203660031901126101ad576001600160a01b036103166119a5565b166000526004602052602063ffffffff60406000205416604051908152f35b346101ad5760403660031901126101ad5761034e61197f565b610356611992565b9063ffffffff809116600052600c60205260406000209116600052602052602060ff604060002054166040519015158152f35b346101ad5760203660031901126101ad5763ffffffff6103a761197f565b16600052600a602052602060ff604060002054166040519015158152f35b346101ad5760003660031901126101ad57602060075460030b604051908152f35b346101ad5760003660031901126101ad57602060405160038152f35b346101ad5760203660031901126101ad5763ffffffff61042061197f565b166000526008602052602060ff604060002054166040519015158152f35b346101ad5760003660031901126101ad576001546040516001600160a01b039091168152602090f35b346101ad5760203660031901126101ad5763ffffffff61048561197f565b16600052600b602052602060406000205460030b604051908152f35b346101ad5760203660031901126101ad5763ffffffff6104bf61197f565b166000526006602052602060406000205460030b604051908152f35b346101ad5760003660031901126101ad576104f4611a0e565b600180546001600160a01b031981169091556000906001600160a01b03167f8be0079c531659141344cd1fd0a4f28419497f9722a3daafe3b4186f6b6457e08280a3005b346101ad5760203660031901126101ad57600435600e548110156101ad57610562610100916119bb565b5063ffffffff90818154169160028201549160046003820154910154926040519485526020850152604084015260ff8216151560608401528160081c1660808301528060281c60030b60a08301528060481c60030b60c083015260681c60030b60e0820152f35b346101ad5760403660031901126101ad576105e261197f565b6105ea611992565b600e549063ffffffff92838116928310156106aa57610608816119bb565b50600381015442119081156106bc575b506106aa576106286001916119bb565b5001805490600160401b821015610694578161064c91600161066b94018155611b2b565b94909216809483549060031b9163ffffffff809116831b921b19161790565b90557f2497edd456da400fdf8e24a5943faebba37fc1a396be5ff9ef6105aede63e26b600080a3005b634e487b7160e01b600052604160045260246000fd5b604051638744898560e01b8152600490fd5b60ff915060040154161585610618565b346101ad5760203660031901126101ad576001600160a01b036106ed6119a5565b166000526004602052602063ffffffff604060002054161515604051908152f35b346101ad5760203660031901126101ad576001600160a01b0361072f6119a5565b166000526002602052602060ff604060002054166040519015158152f35b346101ad5760403660031901126101ad5761076661197f565b61076e611992565b90600e5480151580610bfc575b610bea5763ffffffff82166000908152600360205260409020546001600160a01b0390811615908115610bd0575b50610bbe5760405192610120840184811067ffffffffffffffff821117610694576040526000845260606020850152600060408501526000606085015260006080850152600060a0850152600060c0850152600060e08501526000610100850152600d5463ffffffff80821614610b92578063ffffffff60018180941601168219821617600d5516845260405180606081011067ffffffffffffffff6060830111176106945760608101604052600281526040366020830137806020860152805115610ba857602063ffffffff8516910152602084015190815160011015610ba85763ffffffff6040911691015242604084015262278d0042014211610b925762278d004201606084015260016080840152600060e084015260075460030b610100840152600160401b811015610694578060016108ea9201600e556119bb565b919091610b7c5763ffffffff83511663ffffffff19835416178255602083015180519067ffffffffffffffff821161069457600160401b8211610694576001840154826001860155808310610b13575b50602001906001840160005260206000209060005b8160031c8110610ad0575060071981168103610a53575b505050604063ffffffff7f4610b24bbfb857173e063b234e3a2475409bf5921c3f541f435eb016c5aad89f92818387015196876002880155610a416004606083015198896003820155016109cc60808401511515829060ff801983541691151516179055565b60a0830151815460c085015160e086015161010087015160681b63ffffffff60681b1660489190911b63ffffffff60481b1660289290921b63ffffffff60281b1693881660081b64ffffffff001670ffffffffffffffffffffffffffffffff0019909316929092179290921791909117179055565b511694835196875260208701521693a3005b60009260005b600719831683038110610a9a57505060031c0155604063ffffffff7f4610b24bbfb857173e063b234e3a2475409bf5921c3f541f435eb016c5aad89f610966565b90936020610ac760019263ffffffff885116908560021b60031b9163ffffffff809116831b921b19161790565b95019101610a59565b6000805b60088110610ae957508382015560010161094f565b855190959160019160209163ffffffff60058a901b81811b199092169216901b1792019501610ad4565b600185016000526020600020601c8460021b1680610b59575b506007840160031c81015b6007830160031c82018110610b4d57505061093a565b60008155600101610b37565b60001990816007870160031c8401019182549160200360031b1c16905587610b2c565b634e487b7160e01b600052600060045260246000fd5b634e487b7160e01b600052601160045260246000fd5b634e487b7160e01b600052603260045260246000fd5b60405163e66ea08f60e01b8152600490fd5b905063ffffffff84166000526040600020541615846107a9565b60405163eca8873760e01b8152600490fd5b506000198101818111610b92576004610c1660ff926119bb565b5001541661077b565b346101ad5760603660031901126101ad57610c3861197f565b602480359160039083820b918285036101ad5760443591821515918284036101ad57336000526020916002835260ff6040600020541615610f235763ffffffff809116978860005260068452604060002054830b95600014610f1457610c9e9086611ab6565b60008613958615610f0b57925b81810b96610cc5600089139586600014610f045784611a97565b94610cd56007549687850b611ab6565b851663ffffffff1980971617600755811580610efd575b15610daf575050509091929394959688600052600885526040600020600160ff1982541617905560095490600160401b821015610d9b575091600080516020611e958339815191529795939189610d6b610d5086600160809c9a9801600955611aeb565b819391549060031b9163ffffffff809116831b921b19161790565b90555b896000526006845260406000209283541691161790556040519384528301526040820152426060820152a2005b634e487b7160e01b60009081526041600452fd5b81610ef4575b50610ddb575b50600080516020611e958339815191529750906080969594939291610d6e565b60008a81526008865260408120805460ff191690555b6009805480831015610ed1578c86610e0885611aeb565b905490871b1c1614610e24575050610e1f90611a66565b610df1565b9160009b91939495969798999a9b1992838101908111610ebc57610d5088610e4e610e5b93611aeb565b905490891b1c1692611aeb565b90558254908115610ea85750918560809a98969492600080516020611e958339815191529c9a9896940192610e8f84611aeb565b81939154921b1b19169055555b90919293949596610dbb565b634e487b7160e01b60009081526031600452fd5b82634e487b7160e01b60005260116004526000fd5b50505050600080516020611e958339815191529750906080969594939291610e9c565b9050158b610db5565b5080610cec565b6000611a97565b50600092610cab565b610f1e9086611a97565b610c9e565b604051635c427cd960e01b8152600490fd5b346101ad5760003660031901126101ad57602060405160018152f35b346101ad576020806003193601126101ad57610f6b61197f565b90600e5463ffffffff92838116918210156106aa57610f9190610f8c611a0e565b6119bb565b5091600483019384549360ff8516156106aa576001019485549081156110c65760ff19958616815582610fc388611ad6565b949054600395861b1c169081600052600b93848752604060002054860b9460015b82811061107c57505050928092611052837f2b056a7f2ae4dfec88dc5458429e82a178c97e5019b817058ae7dcd455da9e8598979661107295169a8b600052600a89526001604060002091825416179055829064ffffffff0082549160081b169064ffffffff001916179055565b9081549060281b63ffffffff60281b169063ffffffff60281b1916179055565b604051910b8152a3005b83611087828e611b2b565b9054908a1b1c1680600052828a52604060002054890b90888a0b82136110b8575b50506110b390611a66565b610fe4565b90975094506110b38d6110a8565b604051633941064160e21b8152600490fd5b346101ad5760403660031901126101ad576110f16119a5565b60243590811515908183036101ad577fad857fa38c9319cb80848f1ef2f924383b90297eb5d71755738ff037d100faa191611157602092611130611a0e565b60018060a01b031694856000526002845260406000209060ff801983541691151516179055565b604051908152a2005b346101ad5760203660031901126101ad5761117961197f565b600e5463ffffffff9081831610156106aa578061119760a093611e36565b9493959092604051961515875216602086015260030b604085015216606083015260030b6080820152f35b346101ad5760603660031901126101ad576111db61197f565b6111e3611992565b6044359163ffffffff928381168091036101ad578015808115918261145b575b6114315790611443575b61143157600e5492848316938410156106aa57611229836119bb565b5093600394858101544211908115611421575b506106aa5761124a846119bb565b5095816000526020600c8152604060002085600052815260ff6040600020541661141057600096600094600190818b018581549216975b8281106113d9575b505050909192939495969715610bbe5761138e987f01918cd6e2704e854c925442ca2caa9ef7187126224a112077220e8316519d66948860005260068552604060002054840b92600084126113d0575b9160049161135c9389600052600c885260406000208c600052885260406000209060ff1982541617905589600052600b875260406000209081549061132087838a0b611ab6565b169063ffffffff19161790550161133d83825460481c860b611ab6565b81549060481b63ffffffff60481b169063ffffffff60481b1916179055565b611365886119bb565b508760005260068452604060002054830b60008113611390575b5050604051910b8152a4611be8565b005b6113a760046113c9930191825460681c860b611a97565b815460689190911b63ffffffff60681b1663ffffffff60681b19909116179055565b898061137f565b600093506112d9565b88876113e58385611b2b565b905490881b1c16146113ff576113fa90611a66565b611281565b509199508991508b90508080611289565b60405162b14d3b60e61b8152600490fd5b60ff91506004015416158761123c565b604051630cff23e760e01b8152600490fd5b5033600052600460205283604060002054161561120d565b506000838152600360205260409020546001600160a01b031615611203565b346101ad5760203660031901126101ad5761149361197f565b600e5463ffffffff821610156106aa576114ac906119bb565b5063ffffffff81541690600281015490600381015460048201549060405193848560206001870154928381520160018197016000526020600020926000905b80600783011061168a57611541945491818110611673575b81811061165a575b818110611640575b818110611626575b81811061160c575b8181106115f2575b8181106115d8575b106115ca575b500386611a75565b604051946101008087019787526020870152518096526101208501936000965b8088106115ac5750508495506040850152606084015260ff81161515608084015263ffffffff8160081c1660a08401528060281c60030b60c084015260481c60030b60e08301520390f35b909460208060019263ffffffff895116815201960197019690611561565b60e01c815260200189611539565b92602060019163ffffffff8560c01c168152019301611533565b92602060019163ffffffff8560a01c16815201930161152b565b92602060019163ffffffff8560801c168152019301611523565b92602060019163ffffffff8560601c16815201930161151b565b92602060019163ffffffff8560401c168152019301611513565b92602060019163ffffffff85831c16815201930161150b565b92602060019163ffffffff85168152019301611503565b916008919350610100600191865463ffffffff8116825263ffffffff8160201c16602083015263ffffffff8160401c166040830152606063ffffffff82821c1690830152608063ffffffff82821c169083015260a063ffffffff82821c169083015260c063ffffffff82821c169083015260e01c60e08201520194019201889293916114eb565b346101ad5760003660031901126101ad57602063ffffffff60095416604051908152f35b346101ad5760403660031901126101ad5761174e61197f565b6024356001600160a01b03818116918290036101ad5763ffffffff809316928315801561195c575b61143157826000526020906004825260406000205416848115159182611951575b505061193f5760009392935b8360005260058252604060002080548210156117f75794836117c7838397986119f6565b90549060031b1c16146117e5576117dd90611a66565b9392936117a3565b6040516377030a8760e11b8152600490fd5b5050826000526003815260406000208481548481161561192a575b5090506000526004815260406000208363ffffffff1982541617905582600052600581526040600020908154600160401b8110156106945761185c906001949385820181556119f6565b81549060031b908488831b921b1916179055836000526005815260406000209160405193848385549182815201908195600052846000209060005b81811061191557505050856118ad910386611a75565b60405194604086019060408752518091526060860194926000905b8282106118fe57428689015289897f504c1b327c80c9d798b28a7007229c5354eb1631358603afc867608554e3e9378a8a038ba3005b8451811687529585019593850193908301906118c8565b82548616845292860192918401918401611897565b6001600160a01b031916179055848481611812565b6040516319a52a5960e31b8152600490fd5b141590508486611797565b508215611776565b346101ad5760003660031901126101ad5760206101a2611b96565b6004359063ffffffff821682036101ad57565b6024359063ffffffff821682036101ad57565b600435906001600160a01b03821682036101ad57565b600e54811015610ba857600590600e600052027fbb7b4a454dc3493923482f07822329ed19e8244eff582cc204f8554c3620c3fd0190600090565b8054821015610ba85760005260206000200190600090565b6001546001600160a01b03163303611a2257565b606460405162461bcd60e51b815260206004820152602060248201527f4f776e61626c653a2063616c6c6572206973206e6f7420746865206f776e65726044820152fd5b6000198114610b925760010190565b90601f8019910116810190811067ffffffffffffffff82111761069457604052565b600391820b910b0390637fffffff198212637fffffff831317610b9257565b9060030b9060030b0190637fffffff198212637fffffff831317610b9257565b805415610ba857600052602060002090600090565b90600954821015610ba8576009600052601c8260031c7f6e1540171b6c0c960b71a7020d9f60077f6af931a8bbf590da0223dacf75c7af019260021b1690565b9190918054831015610ba857600052601c60206000208360031c019260021b1690565b600e548015611b8f5760001990808201908111610b9257611b6e906119bb565b50600481015460ff1615611b8b5763ffffffff9150541660030b90565b5090565b5060001990565b63ffffffff600954168015611be25760075460030b9060030b908115611bcc57637fffffff198114600019831416610b92570590565b634e487b7160e01b600052601260045260246000fd5b50600090565b611bf1816119bb565b50906002600183015410611d3a57611c0881611d3e565b9192905063ffffffff808216958615611d315760040192611c328454918260681c60030b90611ab6565b60030b928560030b938413611c4c575b5050505050505050565b60289590951b63ffffffff60281b1660089590951b64ffffffff001668ffffffffffffffffff1991909116179390931782557f2b056a7f2ae4dfec88dc5458429e82a178c97e5019b817058ae7dcd455da9e85926020927f927c9e56334fb93dd5737ae42e2909ddfb6632a711a67ae5dea72da99a35219d908490839060ff198a600052600a845260016040600020918254161790555460081c1692604051971696878152a284847f6fb21c4c14810ceb320306eda3d07c6738412088c17a66604afe100ae599b18284604051858152a3604051908152a33880808080808080611c42565b50505050505050565b5050565b611d496001916119bb565b50018054908115611e2657611d6081939293611ad6565b92909163ffffffff809354600395861b1c1690600095828752600b9560208781526040808a2054830b99809981996001975b878910611da85750505050505050505093929190565b90919293949596979c9b988c99838f611dc19085611b2b565b9054908b1b1c169c8d8752858952878720548a0b9b8a0b8c13600014611dfd575050611df0909c9b999d611a66565b9796959493929190611d92565b9c9d9e919a909d8d8a0b8213611e19575b5050611df090611a66565b9d509b50611df038611e0e565b5050600090600090600090600090565b611e3f816119bb565b50906002600183015410611e815790611e7292611e5d600493611d3e565b93929691959094015460681c60030b83611ab6565b60030b8460030b139493929190565b505060009060009060009060009060009056fe72194f756300fff6bfc1d45660da70048be350dc1aad864b9280fa75c3ff696ca26469706673582212209fb92bab2f6108ca22906f4f2a923aa47a5969ab884229c969aace248bff36f364736f6c63430008130033",
  "linkReferences": {},
  "deployedLinkReferences": {}
}