{
  "_format": "hh-sol-artifact-1",
  "contractName": "ReputationSystem",
  "sourceName": "contracts/ReputationSystem.sol",
  "abi": [
    {
      "inputs": [],
      "stateMutability": "nonpayable",
      "type": "constructor"
    },
    {
      "inputs": [],
      "name": "ActiveElectionExists",
      "type": "error"
    },
    {
      "inputs": [],
      "name": "ElectionExpired",
      "type": "error"
    },
    {
      "inputs": [],
      "name": "ElectionNotActive",
      "type": "error"
    },
    {
      "inputs": [],
      "name": "InvalidCandidate",
      "type": "error"
    },
    {
      "inputs": [],
      "name": "MemberAlreadyVoted",
      "type": "error"
    },
    {
      "inputs": [],
      "name": "MemberIdOrWalletInvalid",
      "type": "error"
    },
    {
      "inputs": [],
      "name": "NoCandidates",
      "type": "error"
    },
    {
      "inputs": [],
      "name": "UnauthorizedCaller",
      "type": "error"
    },
    {
      "inputs": [],
      "name": "WalletAlreadyLinkedToAnotherMember",
      "type": "error"
    },
    {
      "inputs": [],
      "name": "WalletAlreadyVinculated",
      "type": "error"
    },
    {
      "anonymous": false,
      "inputs": [
        {
          "indexed": true,
          "internalType": "address",
          "name": "caller",
          "type": "address"
        },
        {
          "indexed": false,
          "internalType": "bool",
          "name": "authorized",
          "type": "bool"
        }
      ],
      "name": "AuthorizedCallerUpdated",
      "type": "event"
    },
    {
      "anonymous": false,
      "inputs": [
        {
          "indexed": true,
          "internalType": "uint32",
          "name": "electionId",
          "type": "uint32"
        },
        {
          "indexed": true,
          "internalType": "uint32",
          "name": "candidateId",
          "type": "uint32"
        }
      ],
      "name": "CandidateAdded",
      "type": "event"
    },
    {
      "anonymous": false,
      "inputs": [
        {
          "indexed": true,
          "internalType": "uint32",
          "name": "electionId",
          "type": "uint32"
        },
        {
          "indexed": true,
          "internalType": "uint32",
          "name": "winnerId",
          "type": "uint32"
        },
        {
          "indexed": false,
          "internalType": "int32",
          "name": "winningVotes",
          "type": "int32"
        }
      ],
      "name": "ElectionClosed",
      "type": "event"
    },
    {
      "anonymous": false,
      "inputs": [
        {
          "indexed": true,
          "internalType": "uint32",
          "name": "electionId",
          "type": "uint32"
        },
        {
          "indexed": true,
          "internalType": "uint32",
          "name": "candidateId",
          "type": "uint32"
        },
        {
          "indexed": false,
          "internalType": "uint256",
          "name": "startTime",
          "type": "uint256"
        },
        {
          "indexed": false,
          "internalType": "uint256",
          "name": "endTime",
          "type": "uint256"
        }
      ],
      "name": "ElectionOpened",
      "type": "event"
    },
    {
      "anonymous": false,
      "inputs": [
        {
          "indexed": true,
          "internalType": "uint32",
          "name": "memberId",
          "type": "uint32"
        },
        {
          "indexed": true,
          "internalType": "address",
          "name": "wallet",
          "type": "address"
        },
        {
          "indexed": false,
          "internalType": "address[]",
          "name": "walletVinculated",
          "type": "address[]"
        },
        {
          "indexed": false,
          "internalType": "uint256",
          "name": "timestamp",
          "type": "uint256"
        }
      ],
      "name": "MemberToWalletVinculation",
      "type": "event"
    },
    {
      "anonymous": false,
      "inputs": [
        {
          "indexed": true,
          "internalType": "address",
          "name": "previousOwner",
          "type": "address"
        },
        {
          "indexed": true,
          "internalType": "address",
          "name": "newOwner",
          "type": "address"
        }
      ],
      "name": "OwnershipTransferred",
      "type": "event"
    },
    {
      "anonymous": false,
      "inputs": [
        {
          "indexed": true,
          "internalType": "uint32",
          "name": "memberId",
          "type": "uint32"
        },
        {
          "indexed": false,
          "internalType": "int32",
          "name": "points",
          "type": "int32"
        },
        {
          "indexed": false,
          "internalType": "bool",
          "name": "increase",
          "type": "bool"
        },
        {
          "indexed": false,
          "internalType": "int32",
          "name": "newReputation",
          "type": "int32"
        },
        {
          "indexed": false,
          "internalType": "uint256",
          "name": "timestamp",
          "type": "uint256"
        }
      ],
      "name": "ReputationChanged",
      "type": "event"
    },
    {
      "anonymous": false,
      "inputs": [
        {
          "indexed": true,
          "internalType": "uint32",
          "name": "electionId",
          "type": "uint32"
        },
        {
          "indexed": true,
          "internalType": "uint32",
          "name": "winnerId",
          "type": "uint32"
        },
        {
          "indexed": false,
          "internalType": "int32",
          "name": "winningVotes",
          "type": "int32"
        }
      ],
      "name": "UnbeatableMajorityReached",
      "type": "event"
    },
    {
      "anonymous": false,
      "inputs": [
        {
          "indexed": true,
          "internalType": "uint32",
          "name": "electionId",
          "type": "uint32"
        },
        {
          "indexed": true,
          "internalType": "uint32",
          "name": "candidateId",
          "type": "uint32"
        },
        {
          "indexed": true,
          "internalType": "uint32",
          "name": "memberId",
          "type": "uint32"
        },
        {
          "indexed": false,
          "internalType": "int32",
          "name": "voteWeight",
          "type": "int32"
        }
      ],
      "name": "VoteCast",
      "type": "event"
    },
    {
      "inputs": [],
      "name": "REPUTATION_GAIN_BY_COVERING_LOAN",
      "outputs": [
        {
          "internalType": "int32",
          "name": "",
          "type": "int32"
        }
      ],
      "stateMutability": "view",
      "type": "function"
    },
    {
      "inputs": [],
      "name": "REPUTATION_GAIN_BY_REPAYNG_DEBT",
      "outputs": [
        {
          "internalType": "int32",
          "name": "",
          "type": "int32"
        }
      ],
      "stateMutability": "view",
      "type": "function"
    },
    {
      "inputs": [],
      "name": "REPUTATION_LOSS_BY_DEBT_NOT_PAYD",
      "outputs": [
        {
          "internalType": "int32",
          "name": "",
          "type": "int32"
        }
      ],
      "stateMutability": "view",
      "type": "function"
    },
    {
      "inputs": [
        {
          "internalType": "uint32",
          "name": "electionId",
          "type": "uint32"
        },
        {
          "internalType": "uint32",
          "name": "candidateId",
          "type": "uint32"
        }
      ],
      "name": "addCandidate",
      "outputs": [],
      "stateMutability": "nonpayable",
      "type": "function"
    },
    {
      "inputs": [
        {
          "internalType": "address",
          "name": "",
          "type": "address"
        }
      ],
      "name": "authorizedCallers",
      "outputs": [
        {
          "internalType": "bool",
          "name": "",
          "type": "bool"
        }
      ],
      "stateMutability": "view",
      "type": "function"
    },
    {
      "inputs": [
        {
          "internalType": "uint32",
          "name": "electionId",
          "type": "uint32"
        }
      ],
      "name": "checkUnbeatableMajority",
      "outputs": [
        {
          "internalType": "bool",
          "name": "isUnbeatable",
          "type": "bool"
        },
        {
          "internalType": "uint32",
          "name": "leadingCandidate",
          "type": "uint32"
        },
        {
          "internalType": "int32",
          "name": "leadingVotes",
          "type": "int32"
        },
        {
          "internalType": "uint32",
          "name": "secondCandidate",
          "type": "uint32"
        },
        {
          "internalType": "int32",
          "name": "secondVotes",
          "type": "int32"
        }
      ],
      "stateMutability": "view",
      "type": "function"
    },
    {
      "inputs": [
        {
          "internalType": "uint32",
          "name": "electionId",
          "type": "uint32"
        }
      ],
      "name": "closeElection",
      "outputs": [],
      "stateMutability": "nonpayable",
      "type": "function"
    },
    {
      "inputs": [
        {
          "internalType": "uint256",
          "name": "",
          "type": "uint256"
        }
      ],
      "name": "elections",
      "outputs": [
        {
          "internalType": "uint32",
          "name": "id",
          "type": "uint32"
        },
        {
          "internalType": "uint256",
          "name": "startTime",
          "type": "uint256"
        },
        {
          "internalType": "uint256",
          "name": "endTime",
          "type": "uint256"
        },
        {
          "internalType": "bool",
          "name": "active",
          "type": "bool"
        },
        {
          "internalType": "uint32",
          "name": "winnerId",
          "type": "uint32"
        },
        {
          "internalType": "int32",
          "name": "winningVotes",
          "type": "int32"
        },
        {
          "internalType": "int32",
          "name": "totalVotesCast",
          "type": "int32"
        },
        {
          "internalType": "int32",
          "name": "potentialRemainingVotes",
          "type": "int32"
        }
      ],
      "stateMutability": "view",
      "type": "function"
    },
    {
      "inputs": [],
      "name": "getActiveMemberCount",
      "outputs": [
        {
          "internalType": "uint32",
          "name": "",
          "type": "uint32"
        }
      ],
      "stateMutability": "view",
      "type": "function"
    },
    {
      "inputs": [],
      "name": "getAverageReputation",
      "outputs": [
        {
          "internalType": "int32",
          "name": "",
          "type": "int32"
        }
      ],
      "stateMutability": "view",
      "type": "function"
    },
    {
      "inputs": [
        {
          "internalType": "uint32",
          "name": "candidateId",
          "type": "uint32"
        }
      ],
      "name": "getCandidateVotes",
      "outputs": [
        {
          "internalType": "int32",
          "name": "",
          "type": "int32"
        }
      ],
      "stateMutability": "view",
      "type": "function"
    },
    {
      "inputs": [],
      "name": "getCurrentElectionId",
      "outputs": [
        {
          "internalType": "int32",
          "name": "",
          "type": "int32"
        }
      ],
      "stateMutability": "view",
      "type": "function"
    },
    {
      "inputs": [
        {
          "internalType": "uint32",
          "name": "electionId",
          "type": "uint32"
        }
      ],
      "name": "getElectionInfo",
      "outputs": [
        {
          "internalType": "uint32",
          "name": "id",
          "type": "uint32"
        },
        {
          "internalType": "uint32[]",
          "name": "candidates",
          "type": "uint32[]"
        },
        {
          "internalType": "uint256",
          "name": "startTime",
          "type": "uint256"
        },
        {
          "internalType": "uint256",
          "name": "endTime",
          "type": "uint256"
        },
        {
          "internalType": "bool",
          "name": "active",
          "type": "bool"
        },
        {
          "internalType": "uint32",
          "name": "winnerId",
          "type": "uint32"
        },
        {
          "internalType": "int32",
          "name": "winningVotes",
          "type": "int32"
        },
        {
          "internalType": "int32",
          "name": "totalVotesCast",
          "type": "int32"
        }
      ],
      "stateMutability": "view",
      "type": "function"
    },
    {
      "inputs": [
        {
          "internalType": "address",
          "name": "wallet",
          "type": "address"
        }
      ],
      "name": "getMemberId",
      "outputs": [
        {
          "internalType": "uint32",
          "name": "",
          "type": "uint32"
        }
      ],
      "stateMutability": "view",
      "type": "function"
    },
    {
      "inputs": [
        {
          "internalType": "uint32",
          "name": "memberId",
          "type": "uint32"
        }
      ],
      "name": "getReputation",
      "outputs": [
        {
          "internalType": "int32",
          "name": "",
          "type": "int32"
        }
      ],
      "stateMutability": "view",
      "type": "function"
    },
    {
      "inputs": [
        {
          "internalType": "uint32",
          "name": "electionId",
          "type": "uint32"
        },
        {
          "internalType": "uint32",
          "name": "memberId",
          "type": "uint32"
        }
      ],
      "name": "hasMemberVoted",
      "outputs": [
        {
          "internalType": "bool",
          "name": "",
          "type": "bool"
        }
      ],
      "stateMutability": "view",
      "type": "function"
    },
    {
      "inputs": [
        {
          "internalType": "uint32",
          "name": "",
          "type": "uint32"
        },
        {
          "internalType": "uint32",
          "name": "",
          "type": "uint32"
        }
      ],
      "name": "hasVotedInElection",
      "outputs": [
        {
          "internalType": "bool",
          "name": "",
          "type": "bool"
        }
      ],
      "stateMutability": "view",
      "type": "function"
    },
    {
      "inputs": [
        {
          "internalType": "uint32",
          "name": "memberId",
          "type": "uint32"
        }
      ],
      "name": "isMemberActive",
      "outputs": [
        {
          "internalType": "bool",
          "name": "",
          "type": "bool"
        }
      ],
      "stateMutability": "view",
      "type": "function"
    },
    {
      "inputs": [
        {
          "internalType": "uint32",
          "name": "",
          "type": "uint32"
        }
      ],
      "name": "isModerator",
      "outputs": [
        {
          "internalType": "bool",
          "name": "",
          "type": "bool"
        }
      ],
      "stateMutability": "view",
      "type": "function"
    },
    {
      "inputs": [
        {
          "internalType": "address",
          "name": "wallet",
          "type": "address"
        }
      ],
      "name": "isWalletVinculated",
      "outputs": [
        {
          "internalType": "bool",
          "name": "",
          "type": "bool"
        }
      ],
      "stateMutability": "view",
      "type": "function"
    },
    {
      "inputs": [
        {
          "internalType": "uint32",
          "name": "",
          "type": "uint32"
        }
      ],
      "name": "memberReputation",
      "outputs": [
        {
          "internalType": "int32",
          "name": "",
          "type": "int32"
        }
      ],
      "stateMutability": "view",
      "type": "function"
    },
    {
      "inputs": [
        {
          "internalType": "uint32",
          "name": "",
          "type": "uint32"
        }
      ],
      "name": "moderatorVotesReceived",
      "outputs": [
        {
          "internalType": "int32",
          "name": "",
          "type": "int32"
        }
      ],
      "stateMutability": "view",
      "type": "function"
    },
    {
      "inputs": [
        {
          "internalType": "uint32",
          "name": "candidateId",
          "type": "uint32"
        }
      ],
      "name": "openElection",
      "outputs": [],
      "stateMutability": "nonpayable",
      "type": "function"
    },
    {
      "inputs": [],
      "name": "owner",
      "outputs": [
        {
          "internalType": "address",
          "name": "",
          "type": "address"
        }
      ],
      "stateMutability": "view",
      "type": "function"
    },
    {
      "inputs": [],
      "name": "renounceOwnership",
      "outputs": [],
      "stateMutability": "nonpayable",
      "type": "function"
    },
    {
      "inputs": [
        {
          "internalType": "uint32",
          "name": "memberId",
          "type": "uint32"
        },
        {
          "internalType": "int32",
          "name": "points",
          "type": "int32"
        },
        {
          "internalType": "bool",
          "name": "increase",
          "type": "bool"
        }
      ],
      "name": "reputationChange",
      "outputs": [],
      "stateMutability": "nonpayable",
      "type": "function"
    },
    {
      "inputs": [
        {
          "internalType": "address",
          "name": "caller",
          "type": "address"
        },
        {
          "internalType": "bool",
          "name": "authorized",
          "type": "bool"
        }
      ],
      "name": "setAuthorizedCaller",
      "outputs": [],
      "stateMutability": "nonpayable",
      "type": "function"
    },
    {
      "inputs": [],
      "name": "totalPotentialVotes",
      "outputs": [
        {
          "internalType": "int32",
          "name": "",
          "type": "int32"
        }
      ],
      "stateMutability": "view",
      "type": "function"
    },
    {
      "inputs": [
        {
          "internalType": "address",
          "name": "newOwner",
          "type": "address"
        }
      ],
      "name": "transferOwnership",
      "outputs": [],
      "stateMutability": "nonpayable",
      "type": "function"
    },
    {
      "inputs": [
        {
          "internalType": "uint32",
          "name": "memberId",
          "type": "uint32"
        },
        {
          "internalType": "address",
          "name": "wallet",
          "type": "address"
        }
      ],
      "name": "vinculationMemberToWallet",
      "outputs": [],
      "stateMutability": "nonpayable",
      "type": "function"
    },
    {
      "inputs": [
        {
          "internalType": "uint32",
          "name": "electionId",
          "type": "uint32"
        },
        {
          "internalType": "uint32",
          "name": "candidateId",
          "type": "uint32"
        },
        {
          "internalType": "uint32",
          "name": "memberId",
          "type": "uint32"
        }
      ],
      "name": "voteForModerator",
      "outputs": [],
      "stateMutability": "nonpayable",
      "type": "function"
    },
    {
      "inputs": [
        {
          "internalType": "address",
          "name": "",
          "type": "address"
        }
      ],
      "name": "walletToMemberId",
      "outputs": [
        {
          "internalType": "uint32",
          "name": "",
          "type": "uint32"
        }
      ],
      "stateMutability": "view",
      "type": "function"
    },
    {
      "inputs": [
        {
          "internalType": "uint32",
          "name": "",
          "type": "uint32"
        },
        {
          "internalType": "uint256",
          "name": "",
          "type": "uint256"
        }
      ],
      "name": "walletsOfMember",
      "outputs": [
        {
          "internalType": "address",
          "name": "",
          "type": "address"
        }
      ],
      "stateMutability": "view",
      "type": "function"
    }
  ],
  "bytecode": "0x6080806040523461007757600160008181558154336001600160a01b0319821681179093556001600160a01b0316907f8be0079c531659141344cd1fd0a4f28419497f9722a3daafe3b4186f6b6457e09080a33360005260026020526040600020600160ff19825416179055611e3e908161007d8239f35b600080fdfe6080604052600436101561001257600080fd5b60003560e01c80630fc19c78146118f85780631f7f505c1461033557806321bb31e4146116c957806322faa41f146116a5578063232775c31461140e578063244ad96714611144578063315f7760146110e2578063454bbd291461105a5780634698c2d5146102f55780634a57c6d0146109075780634b45e00f14610ecf5780634e5ecf1314610eb3578063533dfa3514610b9d578063536fff6c14610b5e578063598a562a14610b1c5780635d09017614610a2f5780635e6fef011461099e57806370574c4b14610467578063715018a61461094157806381db2284146109075780638249dea6146104a15780638450a681146104675780638da5cb5b1461043e5780639734ed6214610402578063a5118bf1146103e6578063a6f587ac146103c5578063b1cc1f8f14610389578063b3f8df4014610335578063c269014b146102f5578063d5be8c4a146102d9578063df91be181461027b578063f2fde38b146101b25763fe2b536b1461018757600080fd5b346101ad5760003660031901126101ad5760206101a2611ae2565b6040519060030b8152f35b600080fd5b346101ad5760203660031901126101ad576101cb611939565b6101d36119a2565b6001600160a01b0390811690811561022757600154826bffffffffffffffffffffffff60a01b821617600155167f8be0079c531659141344cd1fd0a4f28419497f9722a3daafe3b4186f6b6457e0600080a3005b60405162461bcd60e51b815260206004820152602660248201527f4f776e61626c653a206e6577206f776e657220697320746865207a65726f206160448201526564647265737360d01b6064820152608490fd5b346101ad5760403660031901126101ad57610294611913565b63ffffffff60243591166000526005602052604060002080548210156101ad576020916102c09161198a565b905460405160039290921b1c6001600160a01b03168152f35b346101ad5760003660031901126101ad57602060405160028152f35b346101ad5760203660031901126101ad576001600160a01b03610316611939565b166000526004602052602063ffffffff60406000205416604051908152f35b346101ad5760403660031901126101ad5761034e611913565b610356611926565b9063ffffffff809116600052600c60205260406000209116600052602052602060ff604060002054166040519015158152f35b346101ad5760203660031901126101ad5763ffffffff6103a7611913565b16600052600a602052602060ff604060002054166040519015158152f35b346101ad5760003660031901126101ad57602060075460030b604051908152f35b346101ad5760003660031901126101ad57602060405160038152f35b346101ad5760203660031901126101ad5763ffffffff610420611913565b166000526008602052602060ff604060002054166040519015158152f35b346101ad5760003660031901126101ad576001546040516001600160a01b039091168152602090f35b346101ad5760203660031901126101ad5763ffffffff610485611913565b16600052600b602052602060406000205460030b604051908152f35b346101ad5760203660031901126101ad576104ba611913565b600e54801515806108e4575b6108d25760405191610120830183811067ffffffffffffffff82111761087a576040526000835260606020840152600060408401526000606084015260006080840152600060a0840152600060c0840152600060e08401526000610100840152600d5463ffffffff808216146108a6578063ffffffff60018180941601168219821617600d5516835260405180604081011067ffffffffffffffff60408301111761087a576040810160405260018152602036818301378060208501528051156108bc57602063ffffffff831691015242604084015262278d00420142116108a65762278d004201606084015260016080840152600060e084015260075460030b610100840152600160401b918281101561087a578060016105eb9201600e5561194f565b9290926108905763ffffffff84511663ffffffff19845416178355602084015180519167ffffffffffffffff831161087a57821161087a576001840154826001860155808310610811575b50602001906001840160005260206000209060005b8160031c81106107ce575060071981168103610751575b505050604063ffffffff7f4610b24bbfb857173e063b234e3a2475409bf5921c3f541f435eb016c5aad89f9281838701519687600288015561073f6004606083015198896003820155016106c860808401511515829060ff801983541691151516179055565b60a0830151815460c085015160e086015161010087015160681b63ffffffff60681b1660489190911b63ffffffff60481b1660289290921b68ffffffff00000000001693881660081b64ffffffff001670ffffffffffffffffffffffffffffffff0019909316929092179290921791909117179055565b511694835196875260208701521693a3005b60009260005b60071983168303811061079857505060031c0155604063ffffffff7f4610b24bbfb857173e063b234e3a2475409bf5921c3f541f435eb016c5aad89f610662565b909360206107c560019263ffffffff885116908560021b60031b9163ffffffff809116831b921b19161790565b95019101610757565b6000805b600881106107e757508382015560010161064b565b855190959160019160209163ffffffff60058a901b81811b199092169216901b17920195016107d2565b600185016000526020600020601c8460021b1680610857575b506007840160031c81015b6007830160031c8201811061084b575050610636565b60008155600101610835565b60001990816007870160031c8401019182549160200360031b1c1690558761082a565b634e487b7160e01b600052604160045260246000fd5b634e487b7160e01b600052600060045260246000fd5b634e487b7160e01b600052601160045260246000fd5b634e487b7160e01b600052603260045260246000fd5b60405163eca8873760e01b8152600490fd5b5060001981018181116108a65760046108fe60ff9261194f565b500154166104c6565b346101ad5760203660031901126101ad5763ffffffff610925611913565b166000526006602052602060406000205460030b604051908152f35b346101ad5760003660031901126101ad5761095a6119a2565b600180546001600160a01b031981169091556000906001600160a01b03167f8be0079c531659141344cd1fd0a4f28419497f9722a3daafe3b4186f6b6457e08280a3005b346101ad5760203660031901126101ad57600435600e548110156101ad576109c86101009161194f565b5063ffffffff90818154169160028201549160046003820154910154926040519485526020850152604084015260ff8216151560608401528160081c1660808301528060281c60030b60a08301528060481c60030b60c083015260681c60030b60e0820152f35b346101ad5760403660031901126101ad57610a48611913565b610a50611926565b600e549063ffffffff9283811692831015610afa57610a6e8161194f565b5060038101544211908115610b0c575b50610afa57610a8e60019161194f565b5001805490600160401b82101561087a5781610ab2916001610ad194018155611abf565b94909216809483549060031b9163ffffffff809116831b921b19161790565b90557f2497edd456da400fdf8e24a5943faebba37fc1a396be5ff9ef6105aede63e26b600080a3005b604051638744898560e01b8152600490fd5b60ff915060040154161585610a7e565b346101ad5760203660031901126101ad576001600160a01b03610b3d611939565b166000526004602052602063ffffffff604060002054161515604051908152f35b346101ad5760203660031901126101ad576001600160a01b03610b7f611939565b166000526002602052602060ff604060002054166040519015158152f35b346101ad5760603660031901126101ad57610bb6611913565b602480359160039083820b918285036101ad5760443591821515918284036101ad57336000526020916002835260ff6040600020541615610ea15763ffffffff809116978860005260068452604060002054830b95600014610e9257610c1c9086611a4a565b60008613958615610e8957925b81810b96610c43600089139586600014610e825784611a2b565b94610c536007549687850b611a4a565b851663ffffffff1980971617600755811580610e7b575b15610d2d575050509091929394959688600052600885526040600020600160ff1982541617905560095490600160401b821015610d19575091600080516020611de98339815191529795939189610ce9610cce86600160809c9a9801600955611a7f565b819391549060031b9163ffffffff809116831b921b19161790565b90555b896000526006845260406000209283541691161790556040519384528301526040820152426060820152a2005b634e487b7160e01b60009081526041600452fd5b81610e72575b50610d59575b50600080516020611de98339815191529750906080969594939291610cec565b60008a81526008865260408120805460ff191690555b6009805480831015610e4f578c86610d8685611a7f565b905490871b1c1614610da2575050610d9d906119fa565b610d6f565b9160009b91939495969798999a9b1992838101908111610e3a57610cce88610dcc610dd993611a7f565b905490891b1c1692611a7f565b90558254908115610e265750918560809a98969492600080516020611de98339815191529c9a9896940192610e0d84611a7f565b81939154921b1b19169055555b90919293949596610d39565b634e487b7160e01b60009081526031600452fd5b82634e487b7160e01b60005260116004526000fd5b50505050600080516020611de98339815191529750906080969594939291610e1a565b9050158b610d33565b5080610c6a565b6000611a2b565b50600092610c29565b610e9c9086611a2b565b610c1c565b604051635c427cd960e01b8152600490fd5b346101ad5760003660031901126101ad57602060405160018152f35b346101ad576020806003193601126101ad57610ee9611913565b90600e5463ffffffff9283811691821015610afa57610f0f90610f0a6119a2565b61194f565b5091600483019384549360ff851615610afa576001019485549081156110485760ff19958616815582610f4188611a6a565b949054600395861b1c169081600052600b93848752604060002054860b9460015b828110610ffe57505050928092610fd0837f2b056a7f2ae4dfec88dc5458429e82a178c97e5019b817058ae7dcd455da9e85989796610ff495169a8b600052600a89526001604060002091825416179055829064ffffffff0082549160081b169064ffffffff001916179055565b9081549060281b68ffffffff0000000000169068ffffffff00000000001916179055565b604051910b8152a3005b83611009828e611abf565b9054908a1b1c1680600052828a52604060002054890b90888a0b821361103a575b5050611035906119fa565b610f62565b90975094506110358d61102a565b604051633941064160e21b8152600490fd5b346101ad5760403660031901126101ad57611073611939565b60243590811515908183036101ad577fad857fa38c9319cb80848f1ef2f924383b90297eb5d71755738ff037d100faa1916110d96020926110b26119a2565b60018060a01b031694856000526002845260406000209060ff801983541691151516179055565b604051908152a2005b346101ad5760203660031901126101ad576110fb611913565b600e5463ffffffff908183161015610afa578061111960a093611d8a565b9493959092604051961515875216602086015260030b604085015216606083015260030b6080820152f35b346101ad5760603660031901126101ad5761115d611913565b611165611926565b6044359163ffffffff928381168091036101ad57801580811591826113ef575b6113c557906113d7575b6113c557600e549284831693841015610afa576111ab8361194f565b50936003948581015442119081156113b5575b50610afa576111cc8461194f565b5095816000526020600c8152604060002085600052815260ff604060002054166113a457600096600094600190818b018581549216975b82811061136d575b50505090919293949596971561135b57611310987f01918cd6e2704e854c925442ca2caa9ef7187126224a112077220e8316519d66948860005260068552604060002054840b9260008412611352575b916004916112de9389600052600c885260406000208c600052885260406000209060ff1982541617905589600052600b87526040600020908154906112a287838a0b611a4a565b169063ffffffff1916179055016112bf83825460481c860b611a4a565b81549060481b63ffffffff60481b169063ffffffff60481b1916179055565b6112e78861194f565b508760005260068452604060002054830b60008113611312575b5050604051910b8152a4611b7c565b005b611329600461134b930191825460681c860b611a2b565b815460689190911b63ffffffff60681b1663ffffffff60681b19909116179055565b8980611301565b6000935061125b565b60405163e66ea08f60e01b8152600490fd5b88876113798385611abf565b905490881b1c16146113935761138e906119fa565b611203565b509199508991508b9050808061120b565b60405162b14d3b60e61b8152600490fd5b60ff9150600401541615876111be565b604051630cff23e760e01b8152600490fd5b5033600052600460205283604060002054161561118f565b506000838152600360205260409020546001600160a01b031615611185565b346101ad5760203660031901126101ad57611427611913565b600e5463ffffffff82161015610afa576114409061194f565b5063ffffffff81541690600281015490600381015460048201549060405193848560206001870154928381520160018197016000526020600020926000905b80600783011061161e576114d5945491818110611607575b8181106115ee575b8181106115d4575b8181106115ba575b8181106115a0575b818110611586575b81811061156c575b1061155e575b500386611a09565b604051946101008087019787526020870152518096526101208501936000965b8088106115405750508495506040850152606084015260ff81161515608084015263ffffffff8160081c1660a08401528060281c60030b60c084015260481c60030b60e08301520390f35b909460208060019263ffffffff8951168152019601970196906114f5565b60e01c8152602001896114cd565b92602060019163ffffffff8560c01c1681520193016114c7565b92602060019163ffffffff8560a01c1681520193016114bf565b92602060019163ffffffff8560801c1681520193016114b7565b92602060019163ffffffff8560601c1681520193016114af565b92602060019163ffffffff8560401c1681520193016114a7565b92602060019163ffffffff85831c16815201930161149f565b92602060019163ffffffff85168152019301611497565b916008919350610100600191865463ffffffff8116825263ffffffff8160201c16602083015263ffffffff8160401c166040830152606063ffffffff82821c1690830152608063ffffffff82821c169083015260a063ffffffff82821c169083015260c063ffffffff82821c169083015260e01c60e082015201940192018892939161147f565b346101ad5760003660031901126101ad57602063ffffffff60095416604051908152f35b346101ad5760403660031901126101ad576116e2611913565b6024356001600160a01b03818116918290036101ad5763ffffffff80931692831580156118f0575b6113c5578260005260209060048252604060002054168481151591826118e5575b50506118d35760009392935b83600052600582526040600020805482101561178b57948361175b8383979861198a565b90549060031b1c161461177957611771906119fa565b939293611737565b6040516377030a8760e11b8152600490fd5b505082600052600381526040600020848154848116156118be575b5090506000526004815260406000208363ffffffff1982541617905582600052600581526040600020908154600160401b81101561087a576117f09060019493858201815561198a565b81549060031b908488831b921b1916179055836000526005815260406000209160405193848385549182815201908195600052846000209060005b8181106118a95750505085611841910386611a09565b60405194604086019060408752518091526060860194926000905b82821061189257428689015289897f504c1b327c80c9d798b28a7007229c5354eb1631358603afc867608554e3e9378a8a038ba3005b84518116875295850195938501939083019061185c565b8254861684529286019291840191840161182b565b6001600160a01b0319161790558484816117a6565b6040516319a52a5960e31b8152600490fd5b14159050848661172b565b50821561170a565b346101ad5760003660031901126101ad5760206101a2611b2a565b6004359063ffffffff821682036101ad57565b6024359063ffffffff821682036101ad57565b600435906001600160a01b03821682036101ad57565b600e548110156108bc57600590600e600052027fbb7b4a454dc3493923482f07822329ed19e8244eff582cc204f8554c3620c3fd0190600090565b80548210156108bc5760005260206000200190600090565b6001546001600160a01b031633036119b657565b606460405162461bcd60e51b815260206004820152602060248201527f4f776e61626c653a2063616c6c6572206973206e6f7420746865206f776e65726044820152fd5b60001981146108a65760010190565b90601f8019910116810190811067ffffffffffffffff82111761087a57604052565b600391820b910b0390637fffffff198212637fffffff8313176108a657565b9060030b9060030b0190637fffffff198212637fffffff8313176108a657565b8054156108bc57600052602060002090600090565b906009548210156108bc576009600052601c8260031c7f6e1540171b6c0c960b71a7020d9f60077f6af931a8bbf590da0223dacf75c7af019260021b1690565b91909180548310156108bc57600052601c60206000208360031c019260021b1690565b600e548015611b2357600019908082019081116108a657611b029061194f565b50600481015460ff1615611b1f5763ffffffff9150541660030b90565b5090565b5060001990565b63ffffffff600954168015611b765760075460030b9060030b908115611b6057637fffffff1981146000198314166108a6570590565b634e487b7160e01b600052601260045260246000fd5b50600090565b611b858161194f565b50906002600183015410611c8e57611b9c81611c92565b919293905063ffffffff90818516958615611c855760040192611bc88454918260681c60030b90611a4a565b60030b958560030b968713611be2575b5050505050505050565b64ffffffffff1990911660089190911b64ffffffff00161783557f2b056a7f2ae4dfec88dc5458429e82a178c97e5019b817058ae7dcd455da9e859360209360ff1991611c2e91610fd0565b86600052600a84526001604060002091825416179055169284847f6fb21c4c14810ceb320306eda3d07c6738412088c17a66604afe100ae599b18284604051858152a3604051908152a33880808080808080611bd8565b50505050505050565b5050565b611c9d60019161194f565b50018054908115611d7a57611cb481939293611a6a565b92909163ffffffff809354600395861b1c1690600095828752600b9560208781526040808a2054830b99809981996001975b878910611cfc5750505050505050505093929190565b90919293949596979c9b988c99838f611d159085611abf565b9054908b1b1c169c8d8752858952878720548a0b9b8a0b8c13600014611d51575050611d44909c9b999d6119fa565b9796959493929190611ce6565b9c9d9e919a909d8d8a0b8213611d6d575b5050611d44906119fa565b9d509b50611d4438611d62565b5050600090600090600090600090565b611d938161194f565b50906002600183015410611dd55790611dc692611db1600493611c92565b93929691959094015460681c60030b83611a4a565b60030b8460030b139493929190565b505060009060009060009060009060009056fe72194f756300fff6bfc1d45660da70048be350dc1aad864b9280fa75c3ff696ca26469706673582212201138802e522703c54733dfa44f77d2520bcd0bfe355f44bf15f479d4cc831a4964736f6c63430008130033",
  "linkReferences": {},
  "deployedLinkReferences": {}
}