{
  "_format": "hh-sol-artifact-1",
  "contractName": "ReputationSystem",
  "sourceName": "contracts/ReputationSystem.sol",
  "abi": [
    {
      "inputs": [],
      "stateMutability": "nonpayable",
      "type": "constructor"
    },
    {
      "inputs": [],
      "name": "ActiveElectionExists",
      "type": "error"
    },
    {
      "inputs": [],
      "name": "ElectionExpired",
      "type": "error"
    },
    {
      "inputs": [],
      "name": "ElectionNotActive",
      "type": "error"
    },
    {
      "inputs": [],
      "name": "InvalidCandidate",
      "type": "error"
    },
    {
      "inputs": [],
      "name": "MemberAlreadyVoted",
      "type": "error"
    },
    {
      "inputs": [],
      "name": "MemberIdOrWalletInvalid",
      "type": "error"
    },
    {
      "inputs": [],
      "name": "NoCandidates",
      "type": "error"
    },
    {
      "inputs": [],
      "name": "UnauthorizedCaller",
      "type": "error"
    },
    {
      "inputs": [],
      "name": "WalletAlreadyVinculated",
      "type": "error"
    },
    {
      "anonymous": false,
      "inputs": [
        {
          "indexed": true,
          "internalType": "address",
          "name": "caller",
          "type": "address"
        },
        {
          "indexed": false,
          "internalType": "bool",
          "name": "authorized",
          "type": "bool"
        }
      ],
      "name": "AuthorizedCallerUpdated",
      "type": "event"
    },
    {
      "anonymous": false,
      "inputs": [
        {
          "indexed": true,
          "internalType": "uint32",
          "name": "electionId",
          "type": "uint32"
        },
        {
          "indexed": true,
          "internalType": "uint32",
          "name": "candidateId",
          "type": "uint32"
        }
      ],
      "name": "CandidateAdded",
      "type": "event"
    },
    {
      "anonymous": false,
      "inputs": [
        {
          "indexed": true,
          "internalType": "uint32",
          "name": "electionId",
          "type": "uint32"
        },
        {
          "indexed": true,
          "internalType": "uint32",
          "name": "winnerId",
          "type": "uint32"
        },
        {
          "indexed": false,
          "internalType": "int32",
          "name": "winningVotes",
          "type": "int32"
        }
      ],
      "name": "ElectionClosed",
      "type": "event"
    },
    {
      "anonymous": false,
      "inputs": [
        {
          "indexed": true,
          "internalType": "uint32",
          "name": "electionId",
          "type": "uint32"
        },
        {
          "indexed": true,
          "internalType": "uint32",
          "name": "candidateId",
          "type": "uint32"
        },
        {
          "indexed": false,
          "internalType": "uint256",
          "name": "startTime",
          "type": "uint256"
        },
        {
          "indexed": false,
          "internalType": "uint256",
          "name": "endTime",
          "type": "uint256"
        }
      ],
      "name": "ElectionOpened",
      "type": "event"
    },
    {
      "anonymous": false,
      "inputs": [
        {
          "indexed": true,
          "internalType": "uint32",
          "name": "memberId",
          "type": "uint32"
        },
        {
          "indexed": true,
          "internalType": "address",
          "name": "wallet",
          "type": "address"
        },
        {
          "indexed": false,
          "internalType": "uint256",
          "name": "timestamp",
          "type": "uint256"
        }
      ],
      "name": "MemberToWalletVinculation",
      "type": "event"
    },
    {
      "anonymous": false,
      "inputs": [
        {
          "indexed": true,
          "internalType": "address",
          "name": "previousOwner",
          "type": "address"
        },
        {
          "indexed": true,
          "internalType": "address",
          "name": "newOwner",
          "type": "address"
        }
      ],
      "name": "OwnershipTransferred",
      "type": "event"
    },
    {
      "anonymous": false,
      "inputs": [
        {
          "indexed": true,
          "internalType": "uint32",
          "name": "memberId",
          "type": "uint32"
        },
        {
          "indexed": false,
          "internalType": "int32",
          "name": "points",
          "type": "int32"
        },
        {
          "indexed": false,
          "internalType": "bool",
          "name": "increase",
          "type": "bool"
        },
        {
          "indexed": false,
          "internalType": "int32",
          "name": "newReputation",
          "type": "int32"
        },
        {
          "indexed": false,
          "internalType": "uint256",
          "name": "timestamp",
          "type": "uint256"
        }
      ],
      "name": "ReputationChanged",
      "type": "event"
    },
    {
      "anonymous": false,
      "inputs": [
        {
          "indexed": true,
          "internalType": "uint32",
          "name": "electionId",
          "type": "uint32"
        },
        {
          "indexed": true,
          "internalType": "uint32",
          "name": "winnerId",
          "type": "uint32"
        },
        {
          "indexed": false,
          "internalType": "int32",
          "name": "winningVotes",
          "type": "int32"
        }
      ],
      "name": "UnbeatableMajorityReached",
      "type": "event"
    },
    {
      "anonymous": false,
      "inputs": [
        {
          "indexed": true,
          "internalType": "uint32",
          "name": "electionId",
          "type": "uint32"
        },
        {
          "indexed": true,
          "internalType": "uint32",
          "name": "candidateId",
          "type": "uint32"
        },
        {
          "indexed": true,
          "internalType": "uint32",
          "name": "memberId",
          "type": "uint32"
        },
        {
          "indexed": false,
          "internalType": "int32",
          "name": "voteWeight",
          "type": "int32"
        }
      ],
      "name": "VoteCast",
      "type": "event"
    },
    {
      "inputs": [],
      "name": "REPUTATION_GAIN_BY_COVERING_LOAN",
      "outputs": [
        {
          "internalType": "int32",
          "name": "",
          "type": "int32"
        }
      ],
      "stateMutability": "view",
      "type": "function"
    },
    {
      "inputs": [],
      "name": "REPUTATION_GAIN_BY_REPAYNG_DEBT",
      "outputs": [
        {
          "internalType": "int32",
          "name": "",
          "type": "int32"
        }
      ],
      "stateMutability": "view",
      "type": "function"
    },
    {
      "inputs": [],
      "name": "REPUTATION_LOSS_BY_DEBT_NOT_PAYD",
      "outputs": [
        {
          "internalType": "int32",
          "name": "",
          "type": "int32"
        }
      ],
      "stateMutability": "view",
      "type": "function"
    },
    {
      "inputs": [
        {
          "internalType": "uint32",
          "name": "electionId",
          "type": "uint32"
        },
        {
          "internalType": "uint32",
          "name": "candidateId",
          "type": "uint32"
        }
      ],
      "name": "addCandidate",
      "outputs": [],
      "stateMutability": "nonpayable",
      "type": "function"
    },
    {
      "inputs": [
        {
          "internalType": "address",
          "name": "",
          "type": "address"
        }
      ],
      "name": "authorizedCallers",
      "outputs": [
        {
          "internalType": "bool",
          "name": "",
          "type": "bool"
        }
      ],
      "stateMutability": "view",
      "type": "function"
    },
    {
      "inputs": [
        {
          "internalType": "uint32",
          "name": "electionId",
          "type": "uint32"
        }
      ],
      "name": "checkUnbeatableMajority",
      "outputs": [
        {
          "internalType": "bool",
          "name": "isUnbeatable",
          "type": "bool"
        },
        {
          "internalType": "uint32",
          "name": "leadingCandidate",
          "type": "uint32"
        },
        {
          "internalType": "int32",
          "name": "leadingVotes",
          "type": "int32"
        },
        {
          "internalType": "uint32",
          "name": "secondCandidate",
          "type": "uint32"
        },
        {
          "internalType": "int32",
          "name": "secondVotes",
          "type": "int32"
        }
      ],
      "stateMutability": "view",
      "type": "function"
    },
    {
      "inputs": [
        {
          "internalType": "uint32",
          "name": "electionId",
          "type": "uint32"
        }
      ],
      "name": "closeElection",
      "outputs": [],
      "stateMutability": "nonpayable",
      "type": "function"
    },
    {
      "inputs": [
        {
          "internalType": "uint256",
          "name": "",
          "type": "uint256"
        }
      ],
      "name": "elections",
      "outputs": [
        {
          "internalType": "uint32",
          "name": "id",
          "type": "uint32"
        },
        {
          "internalType": "uint256",
          "name": "startTime",
          "type": "uint256"
        },
        {
          "internalType": "uint256",
          "name": "endTime",
          "type": "uint256"
        },
        {
          "internalType": "bool",
          "name": "active",
          "type": "bool"
        },
        {
          "internalType": "uint32",
          "name": "winnerId",
          "type": "uint32"
        },
        {
          "internalType": "int32",
          "name": "winningVotes",
          "type": "int32"
        },
        {
          "internalType": "int32",
          "name": "totalVotesCast",
          "type": "int32"
        },
        {
          "internalType": "int32",
          "name": "potentialRemainingVotes",
          "type": "int32"
        }
      ],
      "stateMutability": "view",
      "type": "function"
    },
    {
      "inputs": [
        {
          "internalType": "uint32",
          "name": "candidateId",
          "type": "uint32"
        }
      ],
      "name": "getCandidateVotes",
      "outputs": [
        {
          "internalType": "int32",
          "name": "",
          "type": "int32"
        }
      ],
      "stateMutability": "view",
      "type": "function"
    },
    {
      "inputs": [],
      "name": "getCurrentElectionId",
      "outputs": [
        {
          "internalType": "int32",
          "name": "",
          "type": "int32"
        }
      ],
      "stateMutability": "view",
      "type": "function"
    },
    {
      "inputs": [
        {
          "internalType": "uint32",
          "name": "electionId",
          "type": "uint32"
        }
      ],
      "name": "getElectionInfo",
      "outputs": [
        {
          "internalType": "uint32",
          "name": "id",
          "type": "uint32"
        },
        {
          "internalType": "uint32[]",
          "name": "candidates",
          "type": "uint32[]"
        },
        {
          "internalType": "uint256",
          "name": "startTime",
          "type": "uint256"
        },
        {
          "internalType": "uint256",
          "name": "endTime",
          "type": "uint256"
        },
        {
          "internalType": "bool",
          "name": "active",
          "type": "bool"
        },
        {
          "internalType": "uint32",
          "name": "winnerId",
          "type": "uint32"
        },
        {
          "internalType": "int32",
          "name": "winningVotes",
          "type": "int32"
        },
        {
          "internalType": "int32",
          "name": "totalVotesCast",
          "type": "int32"
        }
      ],
      "stateMutability": "view",
      "type": "function"
    },
    {
      "inputs": [
        {
          "internalType": "address",
          "name": "wallet",
          "type": "address"
        }
      ],
      "name": "getMemberId",
      "outputs": [
        {
          "internalType": "uint32",
          "name": "",
          "type": "uint32"
        }
      ],
      "stateMutability": "view",
      "type": "function"
    },
    {
      "inputs": [
        {
          "internalType": "uint32",
          "name": "memberId",
          "type": "uint32"
        }
      ],
      "name": "getReputation",
      "outputs": [
        {
          "internalType": "int32",
          "name": "",
          "type": "int32"
        }
      ],
      "stateMutability": "view",
      "type": "function"
    },
    {
      "inputs": [
        {
          "internalType": "uint32",
          "name": "electionId",
          "type": "uint32"
        },
        {
          "internalType": "uint32",
          "name": "memberId",
          "type": "uint32"
        }
      ],
      "name": "hasMemberVoted",
      "outputs": [
        {
          "internalType": "bool",
          "name": "",
          "type": "bool"
        }
      ],
      "stateMutability": "view",
      "type": "function"
    },
    {
      "inputs": [
        {
          "internalType": "uint32",
          "name": "",
          "type": "uint32"
        },
        {
          "internalType": "uint32",
          "name": "",
          "type": "uint32"
        }
      ],
      "name": "hasVotedInElection",
      "outputs": [
        {
          "internalType": "bool",
          "name": "",
          "type": "bool"
        }
      ],
      "stateMutability": "view",
      "type": "function"
    },
    {
      "inputs": [
        {
          "internalType": "uint32",
          "name": "",
          "type": "uint32"
        }
      ],
      "name": "isModerator",
      "outputs": [
        {
          "internalType": "bool",
          "name": "",
          "type": "bool"
        }
      ],
      "stateMutability": "view",
      "type": "function"
    },
    {
      "inputs": [
        {
          "internalType": "address",
          "name": "wallet",
          "type": "address"
        }
      ],
      "name": "isWalletVinculated",
      "outputs": [
        {
          "internalType": "bool",
          "name": "",
          "type": "bool"
        }
      ],
      "stateMutability": "view",
      "type": "function"
    },
    {
      "inputs": [
        {
          "internalType": "uint32",
          "name": "",
          "type": "uint32"
        }
      ],
      "name": "moderatorVotesReceived",
      "outputs": [
        {
          "internalType": "int32",
          "name": "",
          "type": "int32"
        }
      ],
      "stateMutability": "view",
      "type": "function"
    },
    {
      "inputs": [
        {
          "internalType": "uint32",
          "name": "candidateId",
          "type": "uint32"
        }
      ],
      "name": "openElection",
      "outputs": [],
      "stateMutability": "nonpayable",
      "type": "function"
    },
    {
      "inputs": [],
      "name": "owner",
      "outputs": [
        {
          "internalType": "address",
          "name": "",
          "type": "address"
        }
      ],
      "stateMutability": "view",
      "type": "function"
    },
    {
      "inputs": [],
      "name": "renounceOwnership",
      "outputs": [],
      "stateMutability": "nonpayable",
      "type": "function"
    },
    {
      "inputs": [
        {
          "internalType": "uint32",
          "name": "memberId",
          "type": "uint32"
        },
        {
          "internalType": "int32",
          "name": "points",
          "type": "int32"
        },
        {
          "internalType": "bool",
          "name": "increase",
          "type": "bool"
        }
      ],
      "name": "reputationChange",
      "outputs": [],
      "stateMutability": "nonpayable",
      "type": "function"
    },
    {
      "inputs": [
        {
          "internalType": "address",
          "name": "caller",
          "type": "address"
        },
        {
          "internalType": "bool",
          "name": "authorized",
          "type": "bool"
        }
      ],
      "name": "setAuthorizedCaller",
      "outputs": [],
      "stateMutability": "nonpayable",
      "type": "function"
    },
    {
      "inputs": [
        {
          "internalType": "address",
          "name": "newOwner",
          "type": "address"
        }
      ],
      "name": "transferOwnership",
      "outputs": [],
      "stateMutability": "nonpayable",
      "type": "function"
    },
    {
      "inputs": [
        {
          "internalType": "uint32",
          "name": "memberId",
          "type": "uint32"
        },
        {
          "internalType": "address",
          "name": "wallet",
          "type": "address"
        }
      ],
      "name": "vinculationMemberToWallet",
      "outputs": [],
      "stateMutability": "nonpayable",
      "type": "function"
    },
    {
      "inputs": [
        {
          "internalType": "uint32",
          "name": "electionId",
          "type": "uint32"
        },
        {
          "internalType": "uint32",
          "name": "candidateId",
          "type": "uint32"
        },
        {
          "internalType": "uint32",
          "name": "memberId",
          "type": "uint32"
        }
      ],
      "name": "voteForModerator",
      "outputs": [],
      "stateMutability": "nonpayable",
      "type": "function"
    }
  ],
  "bytecode": "0x608060405234801561001057600080fd5b50600160005561001f3361003e565b336000908152600260205260409020805460ff19166001179055610090565b600180546001600160a01b038381166001600160a01b0319831681179093556040519116919082907f8be0079c531659141344cd1fd0a4f28419497f9722a3daafe3b4186f6b6457e090600090a35050565b611cf78061009f6000396000f3fe608060405234801561001057600080fd5b506004361061018e5760003560e01c806370574c4b116100de578063a5118bf111610097578063c269014b11610071578063c269014b14610470578063d5be8c4a146104b4578063f2fde38b146104bc578063fe2b536b146104cf57600080fd5b8063a5118bf114610417578063b1cc1f8f1461041f578063b3f8df401461044257600080fd5b806370574c4b1461036c578063715018a61461039557806381db22841461039d5780638249dea6146103c65780638450a681146103d95780638da5cb5b146103fc57600080fd5b80634b45e00f1161014b578063536fff6c11610125578063536fff6c146102a5578063598a562a146102c85780635d090176146102f95780635e6fef011461030c57600080fd5b80634b45e00f146102645780634e5ecf1314610277578063533dfa351461029257600080fd5b80631f7f505c1461019357806321bb31e4146101bb578063232775c3146101d0578063244ad967146101f7578063315f77601461020a578063454bbd2914610251575b600080fd5b6101a66101a13660046119bd565b6104d7565b60405190151581526020015b60405180910390f35b6101ce6101c9366004611a07565b610504565b005b6101e36101de366004611a31565b6105e3565b6040516101b2989796959493929190611a53565b6101ce610205366004611af2565b610728565b61021d610218366004611a31565b610a3d565b60408051951515865263ffffffff9485166020870152600393840b90860152921660608401520b608082015260a0016101b2565b6101ce61025f366004611b45565b610b06565b6101ce610272366004611a31565b610b6d565b61027f600181565b60405160039190910b81526020016101b2565b6101ce6102a0366004611b6f565b610d95565b6101a66102b3366004611bb1565b60026020526000908152604090205460ff1681565b6101a66102d6366004611bb1565b6001600160a01b031660009081526003602052604090205463ffffffff16151590565b6101ce6103073660046119bd565b610edc565b61031f61031a366004611bcc565b611005565b6040805163ffffffff998a1681526020810198909852870195909552921515606086015294166080840152600393840b60a0840152830b60c083015290910b60e0820152610100016101b2565b61027f61037a366004611a31565b63ffffffff1660009081526006602052604090205460030b90565b6101ce611074565b61027f6103ab366004611a31565b63ffffffff1660009081526004602052604090205460030b90565b6101ce6103d4366004611a31565b611088565b61027f6103e7366004611a31565b60066020526000908152604090205460030b81565b6001546040516001600160a01b0390911681526020016101b2565b61027f600381565b6101a661042d366004611a31565b60056020526000908152604090205460ff1681565b6101a66104503660046119bd565b600760209081526000928352604080842090915290825290205460ff1681565b61049f61047e366004611bb1565b6001600160a01b031660009081526003602052604090205463ffffffff1690565b60405163ffffffff90911681526020016101b2565b61027f600281565b6101ce6104ca366004611bb1565b611383565b61027f611401565b63ffffffff80831660009081526007602090815260408083209385168352929052205460ff165b92915050565b818163ffffffff8216158061052057506001600160a01b038116155b1561053e57604051630cff23e760e01b815260040160405180910390fd5b6001600160a01b03811660009081526003602052604090205463ffffffff161561057b576040516377030a8760e11b815260040160405180910390fd5b6001600160a01b038316600081815260036020908152604091829020805463ffffffff191663ffffffff891690811790915591514281527f605181a3cca1307ae9b2df54d6592ddf8f82c3570c6938f36d61cd23b6b57a8d910160405180910390a350505050565b60006060600080600080600080886009805490508163ffffffff161061061c57604051638744898560e01b815260040160405180910390fd5b600060098b63ffffffff168154811061063757610637611be5565b600091825260209182902060059091020180546002820154600380840154600485015460018601805460408051828b0281018b0190915281815297995063ffffffff9687169891979596939560ff841695610100850490951694600160281b8504810b94600160481b9004900b929091899183018282801561070457602002820191906000526020600020906000905b82829054906101000a900463ffffffff1663ffffffff16815260200190600401906020826003010492830192600103820291508084116106c75790505b50505050509650995099509950995099509950995099505050919395975091939597565b803363ffffffff8216158061075e57506001600160a01b03811660009081526003602052604090205463ffffffff838116911614155b1561077c57604051630cff23e760e01b815260040160405180910390fd5b600954859063ffffffff8216106107a657604051638744898560e01b815260040160405180910390fd5b85600060098263ffffffff16815481106107c2576107c2611be5565b9060005260206000209060050201905080600301544211806107e95750600481015460ff16155b1561080757604051638744898560e01b815260040160405180910390fd5b600060098963ffffffff168154811061082257610822611be5565b6000918252602080832063ffffffff808e168552600783526040808620918d16865292529220546005909102909101915060ff16156108735760405162b14d3b60e61b815260040160405180910390fd5b6000805b60018301548110156108e3578963ffffffff1683600101828154811061089f5761089f611be5565b6000918252602090912060088204015460079091166004026101000a900463ffffffff16036108d157600191506108e3565b806108db81611c11565b915050610877565b50806109025760405163e66ea08f60e01b815260040160405180910390fd5b63ffffffff881660009081526004602052604081205460030b90811215610927575060005b63ffffffff808c1660009081526007602090815260408083208d851684528252808320805460ff19166001179055928d16825260069052908120805483929061097490849060030b611c2a565b92506101000a81548163ffffffff021916908360030b63ffffffff160217905550808360040160098282829054906101000a900460030b6109b59190611c2a565b92506101000a81548163ffffffff021916908360030b63ffffffff1602179055506109e08b8a61146e565b604051600382900b815263ffffffff808b16918c8216918e16907f01918cd6e2704e854c925442ca2caa9ef7187126224a112077220e8316519d669060200160405180910390a4610a308b611502565b5050505050505050505050565b6000806000806000856009805490508163ffffffff1610610a7157604051638744898560e01b815260040160405180910390fd5b600060098863ffffffff1681548110610a8c57610a8c611be5565b90600052602060002090600502019050600281600101805490501015610ac45760008060008060009650965096509650965050610afc565b610acd8861166b565b600485015493995091975095509350610af090600160681b900460030b84611c2a565b60030b8560030b139650505b5091939590929450565b610b0e6117c4565b6001600160a01b038216600081815260026020908152604091829020805460ff191685151590811790915591519182527fad857fa38c9319cb80848f1ef2f924383b90297eb5d71755738ff037d100faa1910160405180910390a25050565b600954819063ffffffff821610610b9757604051638744898560e01b815260040160405180910390fd5b610b9f6117c4565b600060098363ffffffff1681548110610bba57610bba611be5565b60009182526020909120600590910201600481015490915060ff16610bf257604051638744898560e01b815260040160405180910390fd5b6001810154600003610c1757604051633941064160e21b815260040160405180910390fd5b60048101805460ff19169055600181018054600091908290610c3b57610c3b611be5565b6000918252602080832060088304015460079092166004026101000a90910463ffffffff16808352600690915260409091205490915060030b60015b6001840154811015610cfc576000846001018281548110610c9a57610c9a611be5565b6000918252602080832060088304015460079092166004026101000a90910463ffffffff168083526006909152604090912054909150600390810b9084900b811315610ce7578194508093505b50508080610cf490611c11565b915050610c77565b5063ffffffff8281166000818152600560209081526040918290208054600160ff1990911617905560048701805468ffffffffffffffff001916610100850268ffffffff0000000000191617600160281b878716021790559051600385900b815291928816917f2b056a7f2ae4dfec88dc5458429e82a178c97e5019b817058ae7dcd455da9e8591015b60405180910390a35050505050565b3360009081526002602052604090205460ff16610dc557604051635c427cd960e01b815260040160405180910390fd5b823363ffffffff82161580610dfb57506001600160a01b03811660009081526003602052604090205463ffffffff838116911614155b15610e1957604051630cff23e760e01b815260040160405180910390fd5b63ffffffff851660009081526004602052604081205460030b908415610e4a57610e438683611c2a565b9050610e57565b610e548683611c51565b90505b63ffffffff878116600081815260046020908152604091829020805463ffffffff191694861694909417909355805160038a810b8252891515948201949094529284900b90830152426060830152907f72194f756300fff6bfc1d45660da70048be350dc1aad864b9280fa75c3ff696c9060800160405180910390a250505050505050565b600954829063ffffffff821610610f0657604051638744898560e01b815260040160405180910390fd5b82600060098263ffffffff1681548110610f2257610f22611be5565b906000526020600020906005020190508060030154421180610f495750600481015460ff16155b15610f6757604051638744898560e01b815260040160405180910390fd5b600060098663ffffffff1681548110610f8257610f82611be5565b6000918252602080832060059290920290910160018181018054918201815584529183206008830401805460079093166004026101000a63ffffffff818102199094168a85169182021790915560405191945092918916917f2497edd456da400fdf8e24a5943faebba37fc1a396be5ff9ef6105aede63e26b91a3505050505050565b6009818154811061101557600080fd5b600091825260209091206005909102018054600282015460038084015460049094015463ffffffff938416955091939260ff831692610100810490911691600160281b8204810b91600160481b8104820b91600160681b909104900b88565b61107c6117c4565b611086600061181e565b565b600954158015906110cc5750600980546110a490600190611c78565b815481106110b4576110b4611be5565b600091825260209091206004600590920201015460ff165b156110ea5760405163eca8873760e01b815260040160405180910390fd5b604080516101208101825260008082526060602083018190529282018190529181018290526080810182905260a0810182905260c0810182905260e081018290526101008101919091526008805463ffffffff1690600061114a83611c8b565b82546101009290920a63ffffffff81810219909316918316021790915516815260408051600180825281830190925290602080830190803683375050506020820181905280518391906000906111a2576111a2611be5565b63ffffffff9092166020928302919091019091015242604082018190526111cc9062278d00611cae565b606082015260016080820152600060e08201526111e7611870565b60030b6101008201526009805460018101825560009190915281517f6e1540171b6c0c960b71a7020d9f60077f6af931a8bbf590da0223dacf75c7af6005909202918201805463ffffffff191663ffffffff9092169190911781556020808401518051859461127c937f6e1540171b6c0c960b71a7020d9f60077f6af931a8bbf590da0223dacf75c7b09091019201906118e0565b506040828101516002830155606080840151600384015560808401516004909301805460a086015160c087015160e08801516101009889015164ffffffffff1990941697151564ffffffff0019169790971763ffffffff928316909802979097176cffffffffffffffff00000000001916600160281b978216979097026cffffffff000000000000000000191696909617600160481b958716959095029490941763ffffffff60681b1916600160681b948616949094029390931790925583518482015192850151825193845260208401528584169316917f4610b24bbfb857173e063b234e3a2475409bf5921c3f541f435eb016c5aad89f910160405180910390a35050565b61138b6117c4565b6001600160a01b0381166113f55760405162461bcd60e51b815260206004820152602660248201527f4f776e61626c653a206e6577206f776e657220697320746865207a65726f206160448201526564647265737360d01b60648201526084015b60405180910390fd5b6113fe8161181e565b50565b6009546000908103611414575060001990565b600980546000919061142890600190611c78565b8154811061143857611438611be5565b60009182526020909120600590910201600481015490915060ff1661145f57600019611468565b805463ffffffff165b91505090565b600060098363ffffffff168154811061148957611489611be5565b6000918252602080832063ffffffff8616845260049091526040832054600590920201925060030b908113156114fc57600482018054829190600d906114da908490600160681b900460030b611c51565b92506101000a81548163ffffffff021916908360030b63ffffffff1602179055505b50505050565b600060098263ffffffff168154811061151d5761151d611be5565b90600052602060002090600502019050600281600101805490501015611541575050565b600080600061154f8561166b565b935050925092508263ffffffff1660000361156b575050505050565b600484015461158490600160681b900460030b82611c2a565b60030b8260030b13156116645760048401805468ffffffffffffffffff191661010063ffffffff86811691820268ffffffff0000000000191692909217600160281b8684160217909255600082815260056020908152604091829020805460ff191660011790559051600386900b8152918816917f6fb21c4c14810ceb320306eda3d07c6738412088c17a66604afe100ae599b182910160405180910390a3604051600383900b815263ffffffff80851691908716907f2b056a7f2ae4dfec88dc5458429e82a178c97e5019b817058ae7dcd455da9e8590602001610d86565b5050505050565b600080600080600060098663ffffffff168154811061168c5761168c611be5565b9060005260206000209060050201905080600101805490506000036116bf576000806000809450945094509450506117bd565b806001016000815481106116d5576116d5611be5565b6000918252602080832060088304015460079092166004026101000a90910463ffffffff168083526006909152604082205490965060030b9450925082915060015b60018201548110156117ba57600082600101828154811061173a5761173a611be5565b6000918252602080832060088304015460079092166004026101000a90910463ffffffff168083526006909152604090912054909150600390810b9087900b8113156117905790969095909450925085856117a5565b8460030b8160030b13156117a5578195508094505b505080806117b290611c11565b915050611717565b50505b9193509193565b6001546001600160a01b031633146110865760405162461bcd60e51b815260206004820181905260248201527f4f776e61626c653a2063616c6c6572206973206e6f7420746865206f776e657260448201526064016113ec565b600180546001600160a01b038381166001600160a01b0319831681179093556040519116919082907f8be0079c531659141344cd1fd0a4f28419497f9722a3daafe3b4186f6b6457e090600090a35050565b60008060015b63ffffffff818116116118da5763ffffffff811660009081526004602052604081205460030b13156118c85763ffffffff81166000908152600460205260409020546118c59060030b83611c2a565b91505b806118d281611c8b565b915050611876565b50919050565b8280548282559060005260206000209060070160089004810192821561197f5791602002820160005b8382111561194d57835183826101000a81548163ffffffff021916908363ffffffff1602179055509260200192600401602081600301049283019260010302611909565b801561197d5782816101000a81549063ffffffff021916905560040160208160030104928301926001030261194d565b505b5061198b92915061198f565b5090565b5b8082111561198b5760008155600101611990565b803563ffffffff811681146119b857600080fd5b919050565b600080604083850312156119d057600080fd5b6119d9836119a4565b91506119e7602084016119a4565b90509250929050565b80356001600160a01b03811681146119b857600080fd5b60008060408385031215611a1a57600080fd5b611a23836119a4565b91506119e7602084016119f0565b600060208284031215611a4357600080fd5b611a4c826119a4565b9392505050565b63ffffffff898116825261010060208084018290528a519184018290526000926101208501928c83019290855b81811015611a9e578451841686529482019493820193600101611a80565b505050505060408301899052606083018890528615156080840152905063ffffffff851660a0830152611ad660c083018560030b9052565b611ae560e083018460030b9052565b9998505050505050505050565b600080600060608486031215611b0757600080fd5b611b10846119a4565b9250611b1e602085016119a4565b9150611b2c604085016119a4565b90509250925092565b803580151581146119b857600080fd5b60008060408385031215611b5857600080fd5b611b61836119f0565b91506119e760208401611b35565b600080600060608486031215611b8457600080fd5b611b8d846119a4565b925060208401358060030b8114611ba357600080fd5b9150611b2c60408501611b35565b600060208284031215611bc357600080fd5b611a4c826119f0565b600060208284031215611bde57600080fd5b5035919050565b634e487b7160e01b600052603260045260246000fd5b634e487b7160e01b600052601160045260246000fd5b600060018201611c2357611c23611bfb565b5060010190565b600381810b9083900b01637fffffff8113637fffffff19821217156104fe576104fe611bfb565b600382810b9082900b03637fffffff198112637fffffff821317156104fe576104fe611bfb565b818103818111156104fe576104fe611bfb565b600063ffffffff808316818103611ca457611ca4611bfb565b6001019392505050565b808201808211156104fe576104fe611bfb56fea2646970667358221220bd2e27443978714762e6d4f61c8d5e14d89900146ae99378d6074c8d3ccfb28964736f6c63430008130033",
  "linkReferences": {},
  "deployedLinkReferences": {}
}