{
  "_format": "hh-sol-artifact-1",
  "contractName": "ReputationSystem",
  "sourceName": "contracts/ReputationSystem.sol",
  "abi": [
    {
      "inputs": [],
      "stateMutability": "nonpayable",
      "type": "constructor"
    },
    {
      "inputs": [],
      "name": "ActiveElectionExists",
      "type": "error"
    },
    {
      "inputs": [],
      "name": "ElectionExpired",
      "type": "error"
    },
    {
      "inputs": [],
      "name": "ElectionNotActive",
      "type": "error"
    },
    {
      "inputs": [],
      "name": "InvalidCandidate",
      "type": "error"
    },
    {
      "inputs": [],
      "name": "MemberAlreadyVoted",
      "type": "error"
    },
    {
      "inputs": [],
      "name": "MemberIdOrWalletInvalid",
      "type": "error"
    },
    {
      "inputs": [],
      "name": "NoCandidates",
      "type": "error"
    },
    {
      "inputs": [],
      "name": "UnauthorizedCaller",
      "type": "error"
    },
    {
      "inputs": [],
      "name": "WalletAlreadyVinculated",
      "type": "error"
    },
    {
      "anonymous": false,
      "inputs": [
        {
          "indexed": true,
          "internalType": "address",
          "name": "caller",
          "type": "address"
        },
        {
          "indexed": false,
          "internalType": "bool",
          "name": "authorized",
          "type": "bool"
        }
      ],
      "name": "AuthorizedCallerUpdated",
      "type": "event"
    },
    {
      "anonymous": false,
      "inputs": [
        {
          "indexed": true,
          "internalType": "uint32",
          "name": "electionId",
          "type": "uint32"
        },
        {
          "indexed": true,
          "internalType": "uint32",
          "name": "candidateId",
          "type": "uint32"
        }
      ],
      "name": "CandidateAdded",
      "type": "event"
    },
    {
      "anonymous": false,
      "inputs": [
        {
          "indexed": true,
          "internalType": "uint32",
          "name": "electionId",
          "type": "uint32"
        },
        {
          "indexed": true,
          "internalType": "uint32",
          "name": "winnerId",
          "type": "uint32"
        },
        {
          "indexed": false,
          "internalType": "int32",
          "name": "winningVotes",
          "type": "int32"
        }
      ],
      "name": "ElectionClosed",
      "type": "event"
    },
    {
      "anonymous": false,
      "inputs": [
        {
          "indexed": true,
          "internalType": "uint32",
          "name": "electionId",
          "type": "uint32"
        },
        {
          "indexed": true,
          "internalType": "uint32",
          "name": "candidateId",
          "type": "uint32"
        },
        {
          "indexed": false,
          "internalType": "uint256",
          "name": "startTime",
          "type": "uint256"
        },
        {
          "indexed": false,
          "internalType": "uint256",
          "name": "endTime",
          "type": "uint256"
        }
      ],
      "name": "ElectionOpened",
      "type": "event"
    },
    {
      "anonymous": false,
      "inputs": [
        {
          "indexed": true,
          "internalType": "uint32",
          "name": "memberId",
          "type": "uint32"
        },
        {
          "indexed": true,
          "internalType": "address",
          "name": "wallet",
          "type": "address"
        },
        {
          "indexed": false,
          "internalType": "uint256",
          "name": "timestamp",
          "type": "uint256"
        }
      ],
      "name": "MemberToWalletVinculation",
      "type": "event"
    },
    {
      "anonymous": false,
      "inputs": [
        {
          "indexed": true,
          "internalType": "address",
          "name": "previousOwner",
          "type": "address"
        },
        {
          "indexed": true,
          "internalType": "address",
          "name": "newOwner",
          "type": "address"
        }
      ],
      "name": "OwnershipTransferred",
      "type": "event"
    },
    {
      "anonymous": false,
      "inputs": [
        {
          "indexed": true,
          "internalType": "uint32",
          "name": "memberId",
          "type": "uint32"
        },
        {
          "indexed": false,
          "internalType": "int32",
          "name": "points",
          "type": "int32"
        },
        {
          "indexed": false,
          "internalType": "bool",
          "name": "increase",
          "type": "bool"
        },
        {
          "indexed": false,
          "internalType": "int32",
          "name": "newReputation",
          "type": "int32"
        },
        {
          "indexed": false,
          "internalType": "uint256",
          "name": "timestamp",
          "type": "uint256"
        }
      ],
      "name": "ReputationChanged",
      "type": "event"
    },
    {
      "anonymous": false,
      "inputs": [
        {
          "indexed": true,
          "internalType": "uint32",
          "name": "electionId",
          "type": "uint32"
        },
        {
          "indexed": true,
          "internalType": "uint32",
          "name": "winnerId",
          "type": "uint32"
        },
        {
          "indexed": false,
          "internalType": "int32",
          "name": "winningVotes",
          "type": "int32"
        }
      ],
      "name": "UnbeatableMajorityReached",
      "type": "event"
    },
    {
      "anonymous": false,
      "inputs": [
        {
          "indexed": true,
          "internalType": "uint32",
          "name": "electionId",
          "type": "uint32"
        },
        {
          "indexed": true,
          "internalType": "uint32",
          "name": "candidateId",
          "type": "uint32"
        },
        {
          "indexed": true,
          "internalType": "uint32",
          "name": "memberId",
          "type": "uint32"
        },
        {
          "indexed": false,
          "internalType": "int32",
          "name": "voteWeight",
          "type": "int32"
        }
      ],
      "name": "VoteCast",
      "type": "event"
    },
    {
      "inputs": [],
      "name": "REPUTATION_GAIN_BY_COVERING_LOAN",
      "outputs": [
        {
          "internalType": "int32",
          "name": "",
          "type": "int32"
        }
      ],
      "stateMutability": "view",
      "type": "function"
    },
    {
      "inputs": [],
      "name": "REPUTATION_GAIN_BY_REPAYNG_DEBT",
      "outputs": [
        {
          "internalType": "int32",
          "name": "",
          "type": "int32"
        }
      ],
      "stateMutability": "view",
      "type": "function"
    },
    {
      "inputs": [],
      "name": "REPUTATION_LOSS_BY_DEBT_NOT_PAYD",
      "outputs": [
        {
          "internalType": "int32",
          "name": "",
          "type": "int32"
        }
      ],
      "stateMutability": "view",
      "type": "function"
    },
    {
      "inputs": [
        {
          "internalType": "uint32",
          "name": "electionId",
          "type": "uint32"
        },
        {
          "internalType": "uint32",
          "name": "candidateId",
          "type": "uint32"
        }
      ],
      "name": "addCandidate",
      "outputs": [],
      "stateMutability": "nonpayable",
      "type": "function"
    },
    {
      "inputs": [
        {
          "internalType": "address",
          "name": "",
          "type": "address"
        }
      ],
      "name": "authorizedCallers",
      "outputs": [
        {
          "internalType": "bool",
          "name": "",
          "type": "bool"
        }
      ],
      "stateMutability": "view",
      "type": "function"
    },
    {
      "inputs": [
        {
          "internalType": "uint32",
          "name": "electionId",
          "type": "uint32"
        }
      ],
      "name": "checkUnbeatableMajority",
      "outputs": [
        {
          "internalType": "bool",
          "name": "isUnbeatable",
          "type": "bool"
        },
        {
          "internalType": "uint32",
          "name": "leadingCandidate",
          "type": "uint32"
        },
        {
          "internalType": "int32",
          "name": "leadingVotes",
          "type": "int32"
        },
        {
          "internalType": "uint32",
          "name": "secondCandidate",
          "type": "uint32"
        },
        {
          "internalType": "int32",
          "name": "secondVotes",
          "type": "int32"
        }
      ],
      "stateMutability": "view",
      "type": "function"
    },
    {
      "inputs": [
        {
          "internalType": "uint32",
          "name": "electionId",
          "type": "uint32"
        }
      ],
      "name": "closeElection",
      "outputs": [],
      "stateMutability": "nonpayable",
      "type": "function"
    },
    {
      "inputs": [
        {
          "internalType": "uint256",
          "name": "",
          "type": "uint256"
        }
      ],
      "name": "elections",
      "outputs": [
        {
          "internalType": "uint32",
          "name": "id",
          "type": "uint32"
        },
        {
          "internalType": "uint256",
          "name": "startTime",
          "type": "uint256"
        },
        {
          "internalType": "uint256",
          "name": "endTime",
          "type": "uint256"
        },
        {
          "internalType": "bool",
          "name": "active",
          "type": "bool"
        },
        {
          "internalType": "uint32",
          "name": "winnerId",
          "type": "uint32"
        },
        {
          "internalType": "int32",
          "name": "winningVotes",
          "type": "int32"
        },
        {
          "internalType": "int32",
          "name": "totalVotesCast",
          "type": "int32"
        },
        {
          "internalType": "int32",
          "name": "potentialRemainingVotes",
          "type": "int32"
        }
      ],
      "stateMutability": "view",
      "type": "function"
    },
    {
      "inputs": [
        {
          "internalType": "uint32",
          "name": "candidateId",
          "type": "uint32"
        }
      ],
      "name": "getCandidateVotes",
      "outputs": [
        {
          "internalType": "int32",
          "name": "",
          "type": "int32"
        }
      ],
      "stateMutability": "view",
      "type": "function"
    },
    {
      "inputs": [],
      "name": "getCurrentElectionId",
      "outputs": [
        {
          "internalType": "int32",
          "name": "",
          "type": "int32"
        }
      ],
      "stateMutability": "view",
      "type": "function"
    },
    {
      "inputs": [
        {
          "internalType": "uint32",
          "name": "electionId",
          "type": "uint32"
        }
      ],
      "name": "getElectionInfo",
      "outputs": [
        {
          "internalType": "uint32",
          "name": "id",
          "type": "uint32"
        },
        {
          "internalType": "uint32[]",
          "name": "candidates",
          "type": "uint32[]"
        },
        {
          "internalType": "uint256",
          "name": "startTime",
          "type": "uint256"
        },
        {
          "internalType": "uint256",
          "name": "endTime",
          "type": "uint256"
        },
        {
          "internalType": "bool",
          "name": "active",
          "type": "bool"
        },
        {
          "internalType": "uint32",
          "name": "winnerId",
          "type": "uint32"
        },
        {
          "internalType": "int32",
          "name": "winningVotes",
          "type": "int32"
        },
        {
          "internalType": "int32",
          "name": "totalVotesCast",
          "type": "int32"
        }
      ],
      "stateMutability": "view",
      "type": "function"
    },
    {
      "inputs": [
        {
          "internalType": "address",
          "name": "wallet",
          "type": "address"
        }
      ],
      "name": "getMemberId",
      "outputs": [
        {
          "internalType": "uint32",
          "name": "",
          "type": "uint32"
        }
      ],
      "stateMutability": "view",
      "type": "function"
    },
    {
      "inputs": [
        {
          "internalType": "uint32",
          "name": "memberId",
          "type": "uint32"
        }
      ],
      "name": "getReputation",
      "outputs": [
        {
          "internalType": "int32",
          "name": "",
          "type": "int32"
        }
      ],
      "stateMutability": "view",
      "type": "function"
    },
    {
      "inputs": [
        {
          "internalType": "uint32",
          "name": "electionId",
          "type": "uint32"
        },
        {
          "internalType": "uint32",
          "name": "memberId",
          "type": "uint32"
        }
      ],
      "name": "hasMemberVoted",
      "outputs": [
        {
          "internalType": "bool",
          "name": "",
          "type": "bool"
        }
      ],
      "stateMutability": "view",
      "type": "function"
    },
    {
      "inputs": [
        {
          "internalType": "uint32",
          "name": "",
          "type": "uint32"
        },
        {
          "internalType": "uint32",
          "name": "",
          "type": "uint32"
        }
      ],
      "name": "hasVotedInElection",
      "outputs": [
        {
          "internalType": "bool",
          "name": "",
          "type": "bool"
        }
      ],
      "stateMutability": "view",
      "type": "function"
    },
    {
      "inputs": [
        {
          "internalType": "uint32",
          "name": "",
          "type": "uint32"
        }
      ],
      "name": "isModerator",
      "outputs": [
        {
          "internalType": "bool",
          "name": "",
          "type": "bool"
        }
      ],
      "stateMutability": "view",
      "type": "function"
    },
    {
      "inputs": [
        {
          "internalType": "address",
          "name": "wallet",
          "type": "address"
        }
      ],
      "name": "isWalletVinculated",
      "outputs": [
        {
          "internalType": "bool",
          "name": "",
          "type": "bool"
        }
      ],
      "stateMutability": "view",
      "type": "function"
    },
    {
      "inputs": [
        {
          "internalType": "uint32",
          "name": "",
          "type": "uint32"
        }
      ],
      "name": "moderatorVotesReceived",
      "outputs": [
        {
          "internalType": "int32",
          "name": "",
          "type": "int32"
        }
      ],
      "stateMutability": "view",
      "type": "function"
    },
    {
      "inputs": [
        {
          "internalType": "uint32",
          "name": "candidateId",
          "type": "uint32"
        }
      ],
      "name": "openElection",
      "outputs": [],
      "stateMutability": "nonpayable",
      "type": "function"
    },
    {
      "inputs": [],
      "name": "owner",
      "outputs": [
        {
          "internalType": "address",
          "name": "",
          "type": "address"
        }
      ],
      "stateMutability": "view",
      "type": "function"
    },
    {
      "inputs": [
        {
          "internalType": "uint32",
          "name": "memberId",
          "type": "uint32"
        }
      ],
      "name": "removeModerator",
      "outputs": [],
      "stateMutability": "nonpayable",
      "type": "function"
    },
    {
      "inputs": [],
      "name": "renounceOwnership",
      "outputs": [],
      "stateMutability": "nonpayable",
      "type": "function"
    },
    {
      "inputs": [
        {
          "internalType": "uint32",
          "name": "memberId",
          "type": "uint32"
        },
        {
          "internalType": "int32",
          "name": "points",
          "type": "int32"
        },
        {
          "internalType": "bool",
          "name": "increase",
          "type": "bool"
        }
      ],
      "name": "reputationChange",
      "outputs": [],
      "stateMutability": "nonpayable",
      "type": "function"
    },
    {
      "inputs": [
        {
          "internalType": "address",
          "name": "caller",
          "type": "address"
        },
        {
          "internalType": "bool",
          "name": "authorized",
          "type": "bool"
        }
      ],
      "name": "setAuthorizedCaller",
      "outputs": [],
      "stateMutability": "nonpayable",
      "type": "function"
    },
    {
      "inputs": [
        {
          "internalType": "address",
          "name": "newOwner",
          "type": "address"
        }
      ],
      "name": "transferOwnership",
      "outputs": [],
      "stateMutability": "nonpayable",
      "type": "function"
    },
    {
      "inputs": [
        {
          "internalType": "uint32",
          "name": "memberId",
          "type": "uint32"
        },
        {
          "internalType": "address",
          "name": "wallet",
          "type": "address"
        }
      ],
      "name": "vinculationMemberToWallet",
      "outputs": [],
      "stateMutability": "nonpayable",
      "type": "function"
    },
    {
      "inputs": [
        {
          "internalType": "uint32",
          "name": "electionId",
          "type": "uint32"
        },
        {
          "internalType": "uint32",
          "name": "candidateId",
          "type": "uint32"
        },
        {
          "internalType": "uint32",
          "name": "memberId",
          "type": "uint32"
        }
      ],
      "name": "voteForModerator",
      "outputs": [],
      "stateMutability": "nonpayable",
      "type": "function"
    }
  ],
  "bytecode": "0x608060405234801561001057600080fd5b50600160005561001f3361003e565b336000908152600260205260409020805460ff19166001179055610090565b600180546001600160a01b038381166001600160a01b0319831681179093556040519116919082907f8be0079c531659141344cd1fd0a4f28419497f9722a3daafe3b4186f6b6457e090600090a35050565b611d5a8061009f6000396000f3fe608060405234801561001057600080fd5b50600436106101a95760003560e01c80636f53c3d8116100f9578063a5118bf111610097578063c269014b11610071578063c269014b1461049e578063d5be8c4a146104e2578063f2fde38b146104ea578063fe2b536b146104fd57600080fd5b8063a5118bf114610445578063b1cc1f8f1461044d578063b3f8df401461047057600080fd5b806381db2284116100d357806381db2284146103cb5780638249dea6146103f45780638450a681146104075780638da5cb5b1461042a57600080fd5b80636f53c3d81461038757806370574c4b1461039a578063715018a6146103c357600080fd5b80634b45e00f11610166578063536fff6c11610140578063536fff6c146102c0578063598a562a146102e35780635d090176146103145780635e6fef011461032757600080fd5b80634b45e00f1461027f5780634e5ecf1314610292578063533dfa35146102ad57600080fd5b80631f7f505c146101ae57806321bb31e4146101d6578063232775c3146101eb578063244ad96714610212578063315f776014610225578063454bbd291461026c575b600080fd5b6101c16101bc366004611a20565b610505565b60405190151581526020015b60405180910390f35b6101e96101e4366004611a6a565b610532565b005b6101fe6101f9366004611a94565b610611565b6040516101cd989796959493929190611ab6565b6101e9610220366004611b55565b610756565b610238610233366004611a94565b610a6b565b60408051951515865263ffffffff9485166020870152600393840b90860152921660608401520b608082015260a0016101cd565b6101e961027a366004611ba8565b610b34565b6101e961028d366004611a94565b610b9b565b61029a600181565b60405160039190910b81526020016101cd565b6101e96102bb366004611bd2565b610dc3565b6101c16102ce366004611c14565b60026020526000908152604090205460ff1681565b6101c16102f1366004611c14565b6001600160a01b031660009081526003602052604090205463ffffffff16151590565b6101e9610322366004611a20565b610f19565b61033a610335366004611c2f565b611042565b6040805163ffffffff998a1681526020810198909852870195909552921515606086015294166080840152600393840b60a0840152830b60c083015290910b60e0820152610100016101cd565b6101e9610395366004611a94565b6110b1565b61029a6103a8366004611a94565b63ffffffff1660009081526006602052604090205460030b90565b6101e96110d7565b61029a6103d9366004611a94565b63ffffffff1660009081526004602052604090205460030b90565b6101e9610402366004611a94565b6110eb565b61029a610415366004611a94565b60066020526000908152604090205460030b81565b6001546040516001600160a01b0390911681526020016101cd565b61029a600381565b6101c161045b366004611a94565b60056020526000908152604090205460ff1681565b6101c161047e366004611a20565b600760209081526000928352604080842090915290825290205460ff1681565b6104cd6104ac366004611c14565b6001600160a01b031660009081526003602052604090205463ffffffff1690565b60405163ffffffff90911681526020016101cd565b61029a600281565b6101e96104f8366004611c14565b6113e6565b61029a611464565b63ffffffff80831660009081526007602090815260408083209385168352929052205460ff165b92915050565b818163ffffffff8216158061054e57506001600160a01b038116155b1561056c57604051630cff23e760e01b815260040160405180910390fd5b6001600160a01b03811660009081526003602052604090205463ffffffff16156105a9576040516377030a8760e11b815260040160405180910390fd5b6001600160a01b038316600081815260036020908152604091829020805463ffffffff191663ffffffff891690811790915591514281527f605181a3cca1307ae9b2df54d6592ddf8f82c3570c6938f36d61cd23b6b57a8d910160405180910390a350505050565b60006060600080600080600080886009805490508163ffffffff161061064a57604051638744898560e01b815260040160405180910390fd5b600060098b63ffffffff168154811061066557610665611c48565b600091825260209182902060059091020180546002820154600380840154600485015460018601805460408051828b0281018b0190915281815297995063ffffffff9687169891979596939560ff841695610100850490951694600160281b8504810b94600160481b9004900b929091899183018282801561073257602002820191906000526020600020906000905b82829054906101000a900463ffffffff1663ffffffff16815260200190600401906020826003010492830192600103820291508084116106f55790505b50505050509650995099509950995099509950995099505050919395975091939597565b803363ffffffff8216158061078c57506001600160a01b03811660009081526003602052604090205463ffffffff838116911614155b156107aa57604051630cff23e760e01b815260040160405180910390fd5b600954859063ffffffff8216106107d457604051638744898560e01b815260040160405180910390fd5b85600060098263ffffffff16815481106107f0576107f0611c48565b9060005260206000209060050201905080600301544211806108175750600481015460ff16155b1561083557604051638744898560e01b815260040160405180910390fd5b600060098963ffffffff168154811061085057610850611c48565b6000918252602080832063ffffffff808e168552600783526040808620918d16865292529220546005909102909101915060ff16156108a15760405162b14d3b60e61b815260040160405180910390fd5b6000805b6001830154811015610911578963ffffffff168360010182815481106108cd576108cd611c48565b6000918252602090912060088204015460079091166004026101000a900463ffffffff16036108ff5760019150610911565b8061090981611c74565b9150506108a5565b50806109305760405163e66ea08f60e01b815260040160405180910390fd5b63ffffffff881660009081526004602052604081205460030b90811215610955575060005b63ffffffff808c1660009081526007602090815260408083208d851684528252808320805460ff19166001179055928d1682526006905290812080548392906109a290849060030b611c8d565b92506101000a81548163ffffffff021916908360030b63ffffffff160217905550808360040160098282829054906101000a900460030b6109e39190611c8d565b92506101000a81548163ffffffff021916908360030b63ffffffff160217905550610a0e8b8a6114d1565b604051600382900b815263ffffffff808b16918c8216918e16907f01918cd6e2704e854c925442ca2caa9ef7187126224a112077220e8316519d669060200160405180910390a4610a5e8b611565565b5050505050505050505050565b6000806000806000856009805490508163ffffffff1610610a9f57604051638744898560e01b815260040160405180910390fd5b600060098863ffffffff1681548110610aba57610aba611c48565b90600052602060002090600502019050600281600101805490501015610af25760008060008060009650965096509650965050610b2a565b610afb886116ce565b600485015493995091975095509350610b1e90600160681b900460030b84611c8d565b60030b8560030b139650505b5091939590929450565b610b3c611827565b6001600160a01b038216600081815260026020908152604091829020805460ff191685151590811790915591519182527fad857fa38c9319cb80848f1ef2f924383b90297eb5d71755738ff037d100faa1910160405180910390a25050565b600954819063ffffffff821610610bc557604051638744898560e01b815260040160405180910390fd5b610bcd611827565b600060098363ffffffff1681548110610be857610be8611c48565b60009182526020909120600590910201600481015490915060ff16610c2057604051638744898560e01b815260040160405180910390fd5b6001810154600003610c4557604051633941064160e21b815260040160405180910390fd5b60048101805460ff19169055600181018054600091908290610c6957610c69611c48565b6000918252602080832060088304015460079092166004026101000a90910463ffffffff16808352600690915260409091205490915060030b60015b6001840154811015610d2a576000846001018281548110610cc857610cc8611c48565b6000918252602080832060088304015460079092166004026101000a90910463ffffffff168083526006909152604090912054909150600390810b9084900b811315610d15578194508093505b50508080610d2290611c74565b915050610ca5565b5063ffffffff8281166000818152600560209081526040918290208054600160ff1990911617905560048701805468ffffffffffffffff001916610100850268ffffffff0000000000191617600160281b878716021790559051600385900b815291928816917f2b056a7f2ae4dfec88dc5458429e82a178c97e5019b817058ae7dcd455da9e8591015b60405180910390a35050505050565b3360009081526002602052604090205460ff16610df357604051635c427cd960e01b815260040160405180910390fd5b823363ffffffff82161580610e2957506001600160a01b03811660009081526003602052604090205463ffffffff838116911614155b15610e4757604051630cff23e760e01b815260040160405180910390fd5b63ffffffff851660009081526004602052604081205460030b908415610e7857610e718683611c8d565b9050610e94565b610e828683611cb4565b905060008160030b1215610e94575060005b63ffffffff878116600081815260046020908152604091829020805463ffffffff191694861694909417909355805160038a810b8252891515948201949094529284900b90830152426060830152907f72194f756300fff6bfc1d45660da70048be350dc1aad864b9280fa75c3ff696c9060800160405180910390a250505050505050565b600954829063ffffffff821610610f4357604051638744898560e01b815260040160405180910390fd5b82600060098263ffffffff1681548110610f5f57610f5f611c48565b906000526020600020906005020190508060030154421180610f865750600481015460ff16155b15610fa457604051638744898560e01b815260040160405180910390fd5b600060098663ffffffff1681548110610fbf57610fbf611c48565b6000918252602080832060059290920290910160018181018054918201815584529183206008830401805460079093166004026101000a63ffffffff818102199094168a85169182021790915560405191945092918916917f2497edd456da400fdf8e24a5943faebba37fc1a396be5ff9ef6105aede63e26b91a3505050505050565b6009818154811061105257600080fd5b600091825260209091206005909102018054600282015460038084015460049094015463ffffffff938416955091939260ff831692610100810490911691600160281b8204810b91600160481b8104820b91600160681b909104900b88565b6110b9611827565b63ffffffff166000908152600560205260409020805460ff19169055565b6110df611827565b6110e96000611881565b565b6009541580159061112f57506009805461110790600190611cdb565b8154811061111757611117611c48565b600091825260209091206004600590920201015460ff165b1561114d5760405163eca8873760e01b815260040160405180910390fd5b604080516101208101825260008082526060602083018190529282018190529181018290526080810182905260a0810182905260c0810182905260e081018290526101008101919091526008805463ffffffff169060006111ad83611cee565b82546101009290920a63ffffffff818102199093169183160217909155168152604080516001808252818301909252906020808301908036833750505060208201819052805183919060009061120557611205611c48565b63ffffffff90921660209283029190910190910152426040820181905261122f9062278d00611d11565b606082015260016080820152600060e082015261124a6118d3565b60030b6101008201526009805460018101825560009190915281517f6e1540171b6c0c960b71a7020d9f60077f6af931a8bbf590da0223dacf75c7af6005909202918201805463ffffffff191663ffffffff909216919091178155602080840151805185946112df937f6e1540171b6c0c960b71a7020d9f60077f6af931a8bbf590da0223dacf75c7b0909101920190611943565b506040828101516002830155606080840151600384015560808401516004909301805460a086015160c087015160e08801516101009889015164ffffffffff1990941697151564ffffffff0019169790971763ffffffff928316909802979097176cffffffffffffffff00000000001916600160281b978216979097026cffffffff000000000000000000191696909617600160481b958716959095029490941763ffffffff60681b1916600160681b948616949094029390931790925583518482015192850151825193845260208401528584169316917f4610b24bbfb857173e063b234e3a2475409bf5921c3f541f435eb016c5aad89f910160405180910390a35050565b6113ee611827565b6001600160a01b0381166114585760405162461bcd60e51b815260206004820152602660248201527f4f776e61626c653a206e6577206f776e657220697320746865207a65726f206160448201526564647265737360d01b60648201526084015b60405180910390fd5b61146181611881565b50565b6009546000908103611477575060001990565b600980546000919061148b90600190611cdb565b8154811061149b5761149b611c48565b60009182526020909120600590910201600481015490915060ff166114c2576000196114cb565b805463ffffffff165b91505090565b600060098363ffffffff16815481106114ec576114ec611c48565b6000918252602080832063ffffffff8616845260049091526040832054600590920201925060030b9081131561155f57600482018054829190600d9061153d908490600160681b900460030b611cb4565b92506101000a81548163ffffffff021916908360030b63ffffffff1602179055505b50505050565b600060098263ffffffff168154811061158057611580611c48565b906000526020600020906005020190506002816001018054905010156115a4575050565b60008060006115b2856116ce565b935050925092508263ffffffff166000036115ce575050505050565b60048401546115e790600160681b900460030b82611c8d565b60030b8260030b13156116c75760048401805468ffffffffffffffffff191661010063ffffffff86811691820268ffffffff0000000000191692909217600160281b8684160217909255600082815260056020908152604091829020805460ff191660011790559051600386900b8152918816917f6fb21c4c14810ceb320306eda3d07c6738412088c17a66604afe100ae599b182910160405180910390a3604051600383900b815263ffffffff80851691908716907f2b056a7f2ae4dfec88dc5458429e82a178c97e5019b817058ae7dcd455da9e8590602001610db4565b5050505050565b600080600080600060098663ffffffff16815481106116ef576116ef611c48565b90600052602060002090600502019050806001018054905060000361172257600080600080945094509450945050611820565b8060010160008154811061173857611738611c48565b6000918252602080832060088304015460079092166004026101000a90910463ffffffff168083526006909152604082205490965060030b9450925082915060015b600182015481101561181d57600082600101828154811061179d5761179d611c48565b6000918252602080832060088304015460079092166004026101000a90910463ffffffff168083526006909152604090912054909150600390810b9087900b8113156117f3579096909590945092508585611808565b8460030b8160030b1315611808578195508094505b5050808061181590611c74565b91505061177a565b50505b9193509193565b6001546001600160a01b031633146110e95760405162461bcd60e51b815260206004820181905260248201527f4f776e61626c653a2063616c6c6572206973206e6f7420746865206f776e6572604482015260640161144f565b600180546001600160a01b038381166001600160a01b0319831681179093556040519116919082907f8be0079c531659141344cd1fd0a4f28419497f9722a3daafe3b4186f6b6457e090600090a35050565b60008060015b63ffffffff8181161161193d5763ffffffff811660009081526004602052604081205460030b131561192b5763ffffffff81166000908152600460205260409020546119289060030b83611c8d565b91505b8061193581611cee565b9150506118d9565b50919050565b828054828255906000526020600020906007016008900481019282156119e25791602002820160005b838211156119b057835183826101000a81548163ffffffff021916908363ffffffff160217905550926020019260040160208160030104928301926001030261196c565b80156119e05782816101000a81549063ffffffff02191690556004016020816003010492830192600103026119b0565b505b506119ee9291506119f2565b5090565b5b808211156119ee57600081556001016119f3565b803563ffffffff81168114611a1b57600080fd5b919050565b60008060408385031215611a3357600080fd5b611a3c83611a07565b9150611a4a60208401611a07565b90509250929050565b80356001600160a01b0381168114611a1b57600080fd5b60008060408385031215611a7d57600080fd5b611a8683611a07565b9150611a4a60208401611a53565b600060208284031215611aa657600080fd5b611aaf82611a07565b9392505050565b63ffffffff898116825261010060208084018290528a519184018290526000926101208501928c83019290855b81811015611b01578451841686529482019493820193600101611ae3565b505050505060408301899052606083018890528615156080840152905063ffffffff851660a0830152611b3960c083018560030b9052565b611b4860e083018460030b9052565b9998505050505050505050565b600080600060608486031215611b6a57600080fd5b611b7384611a07565b9250611b8160208501611a07565b9150611b8f60408501611a07565b90509250925092565b80358015158114611a1b57600080fd5b60008060408385031215611bbb57600080fd5b611bc483611a53565b9150611a4a60208401611b98565b600080600060608486031215611be757600080fd5b611bf084611a07565b925060208401358060030b8114611c0657600080fd5b9150611b8f60408501611b98565b600060208284031215611c2657600080fd5b611aaf82611a53565b600060208284031215611c4157600080fd5b5035919050565b634e487b7160e01b600052603260045260246000fd5b634e487b7160e01b600052601160045260246000fd5b600060018201611c8657611c86611c5e565b5060010190565b600381810b9083900b01637fffffff8113637fffffff198212171561052c5761052c611c5e565b600382810b9082900b03637fffffff198112637fffffff8213171561052c5761052c611c5e565b8181038181111561052c5761052c611c5e565b600063ffffffff808316818103611d0757611d07611c5e565b6001019392505050565b8082018082111561052c5761052c611c5e56fea2646970667358221220f1ce1639f40dc4bab52a6e6b10b327bad19c8d44f0d25e01d8dee7254fa6e07964736f6c63430008130033",
  "linkReferences": {},
  "deployedLinkReferences": {}
}