{"contracts/ReputationSystem.sol":{"ReputationSystem":{"abi":[{"inputs":[],"stateMutability":"nonpayable","type":"constructor"},{"inputs":[],"name":"ReputationSystem_ActiveElectionExists","type":"error"},{"inputs":[],"name":"ReputationSystem_ElectionExpired","type":"error"},{"inputs":[],"name":"ReputationSystem_ElectionNotActive","type":"error"},{"inputs":[],"name":"ReputationSystem_InvalidCandidate","type":"error"},{"inputs":[],"name":"ReputationSystem_MemberAlreadyVoted","type":"error"},{"inputs":[],"name":"ReputationSystem_MemberIdOrWalletInvalid","type":"error"},{"inputs":[],"name":"ReputationSystem_NoCandidates","type":"error"},{"inputs":[],"name":"ReputationSystem_UnauthorizedCaller","type":"error"},{"inputs":[],"name":"ReputationSystem_WalletAlreadyLinkedToAnotherMember","type":"error"},{"inputs":[],"name":"ReputationSystem_WalletAlreadyVinculated","type":"error"},{"anonymous":false,"inputs":[{"indexed":true,"internalType":"address","name":"caller","type":"address"},{"indexed":false,"internalType":"bool","name":"authorized","type":"bool"}],"name":"AuthorizedCallerUpdated","type":"event"},{"anonymous":false,"inputs":[{"indexed":true,"internalType":"uint32","name":"electionId","type":"uint32"},{"indexed":true,"internalType":"uint32","name":"candidateId","type":"uint32"}],"name":"CandidateAdded","type":"event"},{"anonymous":false,"inputs":[{"indexed":true,"internalType":"uint32","name":"electionId","type":"uint32"},{"indexed":true,"internalType":"uint32","name":"winnerId","type":"uint32"},{"indexed":false,"internalType":"int32","name":"winningVotes","type":"int32"}],"name":"ElectionClosed","type":"event"},{"anonymous":false,"inputs":[{"indexed":true,"internalType":"uint32","name":"electionId","type":"uint32"},{"indexed":true,"internalType":"uint32","name":"candidateId","type":"uint32"},{"indexed":false,"internalType":"uint256","name":"startTime","type":"uint256"},{"indexed":false,"internalType":"uint256","name":"endTime","type":"uint256"}],"name":"ElectionOpened","type":"event"},{"anonymous":false,"inputs":[{"indexed":true,"internalType":"uint32","name":"memberId","type":"uint32"},{"indexed":true,"internalType":"address","name":"wallet","type":"address"},{"indexed":false,"internalType":"address[]","name":"walletVinculated","type":"address[]"},{"indexed":false,"internalType":"uint256","name":"timestamp","type":"uint256"}],"name":"MemberToWalletVinculation","type":"event"},{"anonymous":false,"inputs":[{"indexed":true,"internalType":"uint32","name":"memberId","type":"uint32"},{"indexed":false,"internalType":"uint32","name":"electionId","type":"uint32"}],"name":"NewModerator","type":"event"},{"anonymous":false,"inputs":[{"indexed":true,"internalType":"address","name":"previousOwner","type":"address"},{"indexed":true,"internalType":"address","name":"newOwner","type":"address"}],"name":"OwnershipTransferred","type":"event"},{"anonymous":false,"inputs":[{"indexed":true,"internalType":"uint32","name":"memberId","type":"uint32"},{"indexed":false,"internalType":"int32","name":"points","type":"int32"},{"indexed":false,"internalType":"bool","name":"increase","type":"bool"},{"indexed":false,"internalType":"int32","name":"newReputation","type":"int32"},{"indexed":false,"internalType":"uint256","name":"timestamp","type":"uint256"}],"name":"ReputationChanged","type":"event"},{"anonymous":false,"inputs":[{"indexed":true,"internalType":"uint32","name":"electionId","type":"uint32"},{"indexed":true,"internalType":"uint32","name":"winnerId","type":"uint32"},{"indexed":false,"internalType":"int32","name":"winningVotes","type":"int32"}],"name":"UnbeatableMajorityReached","type":"event"},{"anonymous":false,"inputs":[{"indexed":true,"internalType":"uint32","name":"electionId","type":"uint32"},{"indexed":true,"internalType":"uint32","name":"candidateId","type":"uint32"},{"indexed":true,"internalType":"uint32","name":"memberId","type":"uint32"},{"indexed":false,"internalType":"int32","name":"voteWeight","type":"int32"}],"name":"VoteCast","type":"event"},{"inputs":[],"name":"REPUTATION_GAIN_BY_COVERING_LOAN","outputs":[{"internalType":"int32","name":"","type":"int32"}],"stateMutability":"view","type":"function"},{"inputs":[],"name":"REPUTATION_GAIN_BY_REPAYNG_DEBT","outputs":[{"internalType":"int32","name":"","type":"int32"}],"stateMutability":"view","type":"function"},{"inputs":[],"name":"REPUTATION_LOSS_BY_DEBT_NOT_PAYD","outputs":[{"internalType":"int32","name":"","type":"int32"}],"stateMutability":"view","type":"function"},{"inputs":[{"internalType":"uint32","name":"electionId","type":"uint32"},{"internalType":"uint32","name":"candidateId","type":"uint32"}],"name":"addCandidate","outputs":[],"stateMutability":"nonpayable","type":"function"},{"inputs":[{"internalType":"address","name":"","type":"address"}],"name":"authorizedCallers","outputs":[{"internalType":"bool","name":"","type":"bool"}],"stateMutability":"view","type":"function"},{"inputs":[{"internalType":"uint32","name":"electionId","type":"uint32"}],"name":"checkUnbeatableMajority","outputs":[{"internalType":"bool","name":"isUnbeatable","type":"bool"},{"internalType":"uint32","name":"leadingCandidate","type":"uint32"},{"internalType":"int32","name":"leadingVotes","type":"int32"},{"internalType":"uint32","name":"secondCandidate","type":"uint32"},{"internalType":"int32","name":"secondVotes","type":"int32"}],"stateMutability":"view","type":"function"},{"inputs":[{"internalType":"uint32","name":"electionId","type":"uint32"}],"name":"closeElection","outputs":[],"stateMutability":"nonpayable","type":"function"},{"inputs":[{"internalType":"uint256","name":"","type":"uint256"}],"name":"elections","outputs":[{"internalType":"uint32","name":"id","type":"uint32"},{"internalType":"uint256","name":"startTime","type":"uint256"},{"internalType":"uint256","name":"endTime","type":"uint256"},{"internalType":"bool","name":"active","type":"bool"},{"internalType":"uint32","name":"winnerId","type":"uint32"},{"internalType":"int32","name":"winningVotes","type":"int32"},{"internalType":"int32","name":"totalVotesCast","type":"int32"},{"internalType":"int32","name":"potentialRemainingVotes","type":"int32"}],"stateMutability":"view","type":"function"},{"inputs":[],"name":"getActiveMemberCount","outputs":[{"internalType":"uint32","name":"","type":"uint32"}],"stateMutability":"view","type":"function"},{"inputs":[],"name":"getAverageReputation","outputs":[{"internalType":"int32","name":"","type":"int32"}],"stateMutability":"view","type":"function"},{"inputs":[{"internalType":"uint32","name":"candidateId","type":"uint32"}],"name":"getCandidateVotes","outputs":[{"internalType":"int32","name":"","type":"int32"}],"stateMutability":"view","type":"function"},{"inputs":[],"name":"getCurrentElectionId","outputs":[{"internalType":"int32","name":"","type":"int32"}],"stateMutability":"view","type":"function"},{"inputs":[{"internalType":"uint32","name":"electionId","type":"uint32"}],"name":"getElectionInfo","outputs":[{"internalType":"uint32","name":"id","type":"uint32"},{"internalType":"uint32[]","name":"candidates","type":"uint32[]"},{"internalType":"uint256","name":"startTime","type":"uint256"},{"internalType":"uint256","name":"endTime","type":"uint256"},{"internalType":"bool","name":"active","type":"bool"},{"internalType":"uint32","name":"winnerId","type":"uint32"},{"internalType":"int32","name":"winningVotes","type":"int32"},{"internalType":"int32","name":"totalVotesCast","type":"int32"}],"stateMutability":"view","type":"function"},{"inputs":[{"internalType":"address","name":"wallet","type":"address"}],"name":"getMemberId","outputs":[{"internalType":"uint32","name":"","type":"uint32"}],"stateMutability":"view","type":"function"},{"inputs":[{"internalType":"uint32","name":"memberId","type":"uint32"}],"name":"getReputation","outputs":[{"internalType":"int32","name":"","type":"int32"}],"stateMutability":"view","type":"function"},{"inputs":[{"internalType":"uint32","name":"electionId","type":"uint32"},{"internalType":"uint32","name":"memberId","type":"uint32"}],"name":"hasMemberVoted","outputs":[{"internalType":"bool","name":"","type":"bool"}],"stateMutability":"view","type":"function"},{"inputs":[{"internalType":"uint32","name":"","type":"uint32"},{"internalType":"uint32","name":"","type":"uint32"}],"name":"hasVotedInElection","outputs":[{"internalType":"bool","name":"","type":"bool"}],"stateMutability":"view","type":"function"},{"inputs":[{"internalType":"uint32","name":"memberId","type":"uint32"}],"name":"isMemberActive","outputs":[{"internalType":"bool","name":"","type":"bool"}],"stateMutability":"view","type":"function"},{"inputs":[{"internalType":"uint32","name":"","type":"uint32"}],"name":"isModerator","outputs":[{"internalType":"bool","name":"","type":"bool"}],"stateMutability":"view","type":"function"},{"inputs":[{"internalType":"address","name":"wallet","type":"address"}],"name":"isWalletVinculated","outputs":[{"internalType":"bool","name":"","type":"bool"}],"stateMutability":"view","type":"function"},{"inputs":[{"internalType":"uint32","name":"","type":"uint32"}],"name":"memberReputation","outputs":[{"internalType":"int32","name":"","type":"int32"}],"stateMutability":"view","type":"function"},{"inputs":[{"internalType":"uint32","name":"","type":"uint32"}],"name":"moderatorVotesReceived","outputs":[{"internalType":"int32","name":"","type":"int32"}],"stateMutability":"view","type":"function"},{"inputs":[{"internalType":"uint32","name":"candidateId","type":"uint32"},{"internalType":"uint32","name":"oponent","type":"uint32"}],"name":"openElection","outputs":[],"stateMutability":"nonpayable","type":"function"},{"inputs":[],"name":"owner","outputs":[{"internalType":"address","name":"","type":"address"}],"stateMutability":"view","type":"function"},{"inputs":[],"name":"renounceOwnership","outputs":[],"stateMutability":"nonpayable","type":"function"},{"inputs":[{"internalType":"uint32","name":"memberId","type":"uint32"},{"internalType":"int32","name":"points","type":"int32"},{"internalType":"bool","name":"increase","type":"bool"}],"name":"reputationChange","outputs":[],"stateMutability":"nonpayable","type":"function"},{"inputs":[{"internalType":"address","name":"caller","type":"address"},{"internalType":"bool","name":"authorized","type":"bool"}],"name":"setAuthorizedCaller","outputs":[],"stateMutability":"nonpayable","type":"function"},{"inputs":[],"name":"totalPotentialVotes","outputs":[{"internalType":"int32","name":"","type":"int32"}],"stateMutability":"view","type":"function"},{"inputs":[{"internalType":"address","name":"newOwner","type":"address"}],"name":"transferOwnership","outputs":[],"stateMutability":"nonpayable","type":"function"},{"inputs":[{"internalType":"uint32","name":"memberId","type":"uint32"},{"internalType":"address","name":"wallet","type":"address"}],"name":"vinculationMemberToWallet","outputs":[],"stateMutability":"nonpayable","type":"function"},{"inputs":[{"internalType":"uint32","name":"electionId","type":"uint32"},{"internalType":"uint32","name":"candidateId","type":"uint32"},{"internalType":"uint32","name":"memberId","type":"uint32"}],"name":"voteForModerator","outputs":[],"stateMutability":"nonpayable","type":"function"},{"inputs":[{"internalType":"address","name":"","type":"address"}],"name":"walletToMemberId","outputs":[{"internalType":"uint32","name":"","type":"uint32"}],"stateMutability":"view","type":"function"},{"inputs":[{"internalType":"uint32","name":"","type":"uint32"},{"internalType":"uint256","name":"","type":"uint256"}],"name":"walletsOfMember","outputs":[{"internalType":"address","name":"","type":"address"}],"stateMutability":"view","type":"function"}],"evm":{"bytecode":{"linkReferences":{},"object":"6080806040523461007757600160008181558154336001600160a01b0319821681179093556001600160a01b0316907f8be0079c531659141344cd1fd0a4f28419497f9722a3daafe3b4186f6b6457e09080a33360005260026020526040600020600160ff19825416179055611eeb908161007d8239f35b600080fdfe6080604052600436101561001257600080fd5b60003560e01c80630fc19c78146119655780631f7f505c1461033557806321bb31e41461173657806322faa41f14611712578063232775c31461147b578063244ad967146111c2578063315f776014611160578063454bbd29146110d85780634698c2d5146102f55780634a57c6d0146104a15780634b45e00f14610f515780634e5ecf1314610f35578063533dfa3514610c1f5780635346ee191461074d578063536fff6c1461070e578063598a562a146106cc5780635d090176146105c95780635e6fef011461053857806370574c4b14610467578063715018a6146104db57806381db2284146104a15780638450a681146104675780638da5cb5b1461043e5780639734ed6214610402578063a5118bf1146103e6578063a6f587ac146103c5578063b1cc1f8f14610389578063b3f8df4014610335578063c269014b146102f5578063d5be8c4a146102d9578063df91be181461027b578063f2fde38b146101b25763fe2b536b1461018757600080fd5b346101ad5760003660031901126101ad5760206101a2611b4f565b6040519060030b8152f35b600080fd5b346101ad5760203660031901126101ad576101cb6119a6565b6101d3611a0f565b6001600160a01b0390811690811561022757600154826bffffffffffffffffffffffff60a01b821617600155167f8be0079c531659141344cd1fd0a4f28419497f9722a3daafe3b4186f6b6457e0600080a3005b60405162461bcd60e51b815260206004820152602660248201527f4f776e61626c653a206e6577206f776e657220697320746865207a65726f206160448201526564647265737360d01b6064820152608490fd5b346101ad5760403660031901126101ad57610294611980565b63ffffffff60243591166000526005602052604060002080548210156101ad576020916102c0916119f7565b905460405160039290921b1c6001600160a01b03168152f35b346101ad5760003660031901126101ad57602060405160028152f35b346101ad5760203660031901126101ad576001600160a01b036103166119a6565b166000526004602052602063ffffffff60406000205416604051908152f35b346101ad5760403660031901126101ad5761034e611980565b610356611993565b9063ffffffff809116600052600c60205260406000209116600052602052602060ff604060002054166040519015158152f35b346101ad5760203660031901126101ad5763ffffffff6103a7611980565b16600052600a602052602060ff604060002054166040519015158152f35b346101ad5760003660031901126101ad57602060075460030b604051908152f35b346101ad5760003660031901126101ad57602060405160038152f35b346101ad5760203660031901126101ad5763ffffffff610420611980565b166000526008602052602060ff604060002054166040519015158152f35b346101ad5760003660031901126101ad576001546040516001600160a01b039091168152602090f35b346101ad5760203660031901126101ad5763ffffffff610485611980565b16600052600b602052602060406000205460030b604051908152f35b346101ad5760203660031901126101ad5763ffffffff6104bf611980565b166000526006602052602060406000205460030b604051908152f35b346101ad5760003660031901126101ad576104f4611a0f565b600180546001600160a01b031981169091556000906001600160a01b03167f8be0079c531659141344cd1fd0a4f28419497f9722a3daafe3b4186f6b6457e08280a3005b346101ad5760203660031901126101ad57600435600e548110156101ad57610562610100916119bc565b5063ffffffff90818154169160028201549160046003820154910154926040519485526020850152604084015260ff8216151560608401528160081c1660808301528060281c60030b60a08301528060481c60030b60c083015260681c60030b60e0820152f35b346101ad5760403660031901126101ad576105e2611980565b6105ea611993565b600e549063ffffffff92838116928310156106aa57610608816119bc565b50600381015442119081156106bc575b506106aa576106286001916119bc565b5001805490600160401b821015610694578161064c91600161066b94018155611b2c565b94909216809483549060031b9163ffffffff809116831b921b19161790565b90557f2497edd456da400fdf8e24a5943faebba37fc1a396be5ff9ef6105aede63e26b600080a3005b634e487b7160e01b600052604160045260246000fd5b6040516304dde37360e31b8152600490fd5b60ff915060040154161585610618565b346101ad5760203660031901126101ad576001600160a01b036106ed6119a6565b166000526004602052602063ffffffff604060002054161515604051908152f35b346101ad5760203660031901126101ad576001600160a01b0361072f6119a6565b166000526002602052602060ff604060002054166040519015158152f35b346101ad5760403660031901126101ad57610766611980565b61076e611993565b90600e5480151580610bfc575b610bea5763ffffffff82166000908152600360205260409020546001600160a01b0390811615908115610bd0575b50610bbe5760405192610120840184811067ffffffffffffffff821117610694576040526000845260606020850152600060408501526000606085015260006080850152600060a0850152600060c0850152600060e08501526000610100850152600d5463ffffffff80821614610b92578063ffffffff60018180941601168219821617600d5516845260405180606081011067ffffffffffffffff6060830111176106945760608101604052600281526040366020830137806020860152805115610ba857602063ffffffff8516910152602084015190815160011015610ba85763ffffffff6040911691015242604084015262278d0042014211610b925762278d004201606084015260016080840152600060e084015260075460030b610100840152600160401b811015610694578060016108ea9201600e556119bc565b919091610b7c5763ffffffff83511663ffffffff19835416178255602083015180519067ffffffffffffffff821161069457600160401b8211610694576001840154826001860155808310610b13575b50602001906001840160005260206000209060005b8160031c8110610ad0575060071981168103610a53575b505050604063ffffffff7f4610b24bbfb857173e063b234e3a2475409bf5921c3f541f435eb016c5aad89f92818387015196876002880155610a416004606083015198896003820155016109cc60808401511515829060ff801983541691151516179055565b60a0830151815460c085015160e086015161010087015160681b63ffffffff60681b1660489190911b63ffffffff60481b1660289290921b63ffffffff60281b1693881660081b64ffffffff001670ffffffffffffffffffffffffffffffff0019909316929092179290921791909117179055565b511694835196875260208701521693a3005b60009260005b600719831683038110610a9a57505060031c0155604063ffffffff7f4610b24bbfb857173e063b234e3a2475409bf5921c3f541f435eb016c5aad89f610966565b90936020610ac760019263ffffffff885116908560021b60031b9163ffffffff809116831b921b19161790565b95019101610a59565b6000805b60088110610ae957508382015560010161094f565b855190959160019160209163ffffffff60058a901b81811b199092169216901b1792019501610ad4565b600185016000526020600020601c8460021b1680610b59575b506007840160031c81015b6007830160031c82018110610b4d57505061093a565b60008155600101610b37565b60001990816007870160031c8401019182549160200360031b1c16905587610b2c565b634e487b7160e01b600052600060045260246000fd5b634e487b7160e01b600052601160045260246000fd5b634e487b7160e01b600052603260045260246000fd5b60405163184b491960e11b8152600490fd5b905063ffffffff84166000526040600020541615846107a9565b6040516338fbebd760e01b8152600490fd5b506000198101818111610b92576004610c1660ff926119bc565b5001541661077b565b346101ad5760603660031901126101ad57610c38611980565b602480359160039083820b918285036101ad5760443591821515918284036101ad57336000526020916002835260ff6040600020541615610f235763ffffffff809116978860005260068452604060002054830b95600014610f1457610c9e9086611ab7565b60008613958615610f0b57925b81810b96610cc5600089139586600014610f045784611a98565b94610cd56007549687850b611ab7565b851663ffffffff1980971617600755811580610efd575b15610daf575050509091929394959688600052600885526040600020600160ff1982541617905560095490600160401b821015610d9b575091600080516020611e968339815191529795939189610d6b610d5086600160809c9a9801600955611aec565b819391549060031b9163ffffffff809116831b921b19161790565b90555b896000526006845260406000209283541691161790556040519384528301526040820152426060820152a2005b634e487b7160e01b60009081526041600452fd5b81610ef4575b50610ddb575b50600080516020611e968339815191529750906080969594939291610d6e565b60008a81526008865260408120805460ff191690555b6009805480831015610ed1578c86610e0885611aec565b905490871b1c1614610e24575050610e1f90611a67565b610df1565b9160009b91939495969798999a9b1992838101908111610ebc57610d5088610e4e610e5b93611aec565b905490891b1c1692611aec565b90558254908115610ea85750918560809a98969492600080516020611e968339815191529c9a9896940192610e8f84611aec565b81939154921b1b19169055555b90919293949596610dbb565b634e487b7160e01b60009081526031600452fd5b82634e487b7160e01b60005260116004526000fd5b50505050600080516020611e968339815191529750906080969594939291610e9c565b9050158b610db5565b5080610cec565b6000611a98565b50600092610cab565b610f1e9086611a98565b610c9e565b60405163ab598a7d60e01b8152600490fd5b346101ad5760003660031901126101ad57602060405160018152f35b346101ad576020806003193601126101ad57610f6b611980565b90600e5463ffffffff92838116918210156106aa57610f9190610f8c611a0f565b6119bc565b5091600483019384549360ff8516156106aa576001019485549081156110c65760ff19958616815582610fc388611ad7565b949054600395861b1c169081600052600b93848752604060002054860b9460015b82811061107c57505050928092611052837f2b056a7f2ae4dfec88dc5458429e82a178c97e5019b817058ae7dcd455da9e8598979661107295169a8b600052600a89526001604060002091825416179055829064ffffffff0082549160081b169064ffffffff001916179055565b9081549060281b63ffffffff60281b169063ffffffff60281b1916179055565b604051910b8152a3005b83611087828e611b2c565b9054908a1b1c1680600052828a52604060002054890b90888a0b82136110b8575b50506110b390611a67565b610fe4565b90975094506110b38d6110a8565b60405163c27fb72360e01b8152600490fd5b346101ad5760403660031901126101ad576110f16119a6565b60243590811515908183036101ad577fad857fa38c9319cb80848f1ef2f924383b90297eb5d71755738ff037d100faa191611157602092611130611a0f565b60018060a01b031694856000526002845260406000209060ff801983541691151516179055565b604051908152a2005b346101ad5760203660031901126101ad57611179611980565b600e5463ffffffff9081831610156106aa578061119760a093611e37565b9493959092604051961515875216602086015260030b604085015216606083015260030b6080820152f35b346101ad5760603660031901126101ad576111db611980565b6111e3611993565b6044359163ffffffff928381168091036101ad578015808115918261145c575b6114325790611444575b61143257600e5492848316938410156106aa57611229836119bc565b5093600394858101544211908115611422575b506106aa5761124a846119bc565b5095816000526020600c8152604060002085600052815260ff6040600020541661141057600096600094600190818b018581549216975b8281106113d9575b505050909192939495969715610bbe5761138e987f01918cd6e2704e854c925442ca2caa9ef7187126224a112077220e8316519d66948860005260068552604060002054840b92600084126113d0575b9160049161135c9389600052600c885260406000208c600052885260406000209060ff1982541617905589600052600b875260406000209081549061132087838a0b611ab7565b169063ffffffff19161790550161133d83825460481c860b611ab7565b81549060481b63ffffffff60481b169063ffffffff60481b1916179055565b611365886119bc565b508760005260068452604060002054830b60008113611390575b5050604051910b8152a4611be9565b005b6113a760046113c9930191825460681c860b611a98565b815460689190911b63ffffffff60681b1663ffffffff60681b19909116179055565b898061137f565b600093506112d9565b88876113e58385611b2c565b905490881b1c16146113ff576113fa90611a67565b611281565b509199508991508b90508080611289565b604051632cea4a9160e11b8152600490fd5b60ff91506004015416158761123c565b604051634217947b60e01b8152600490fd5b5033600052600460205283604060002054161561120d565b506000838152600360205260409020546001600160a01b031615611203565b346101ad5760203660031901126101ad57611494611980565b600e5463ffffffff821610156106aa576114ad906119bc565b5063ffffffff81541690600281015490600381015460048201549060405193848560206001870154928381520160018197016000526020600020926000905b80600783011061168b57611542945491818110611674575b81811061165b575b818110611641575b818110611627575b81811061160d575b8181106115f3575b8181106115d9575b106115cb575b500386611a76565b604051946101008087019787526020870152518096526101208501936000965b8088106115ad5750508495506040850152606084015260ff81161515608084015263ffffffff8160081c1660a08401528060281c60030b60c084015260481c60030b60e08301520390f35b909460208060019263ffffffff895116815201960197019690611562565b60e01c81526020018961153a565b92602060019163ffffffff8560c01c168152019301611534565b92602060019163ffffffff8560a01c16815201930161152c565b92602060019163ffffffff8560801c168152019301611524565b92602060019163ffffffff8560601c16815201930161151c565b92602060019163ffffffff8560401c168152019301611514565b92602060019163ffffffff85831c16815201930161150c565b92602060019163ffffffff85168152019301611504565b916008919350610100600191865463ffffffff8116825263ffffffff8160201c16602083015263ffffffff8160401c166040830152606063ffffffff82821c1690830152608063ffffffff82821c169083015260a063ffffffff82821c169083015260c063ffffffff82821c169083015260e01c60e08201520194019201889293916114ec565b346101ad5760003660031901126101ad57602063ffffffff60095416604051908152f35b346101ad5760403660031901126101ad5761174f611980565b6024356001600160a01b03818116918290036101ad5763ffffffff809316928315801561195d575b61143257826000526020906004825260406000205416848115159182611952575b50506119405760009392935b8360005260058252604060002080548210156117f85794836117c8838397986119f7565b90549060031b1c16146117e6576117de90611a67565b9392936117a4565b60405163dbc2010160e01b8152600490fd5b5050826000526003815260406000208481548481161561192b575b5090506000526004815260406000208363ffffffff1982541617905582600052600581526040600020908154600160401b8110156106945761185d906001949385820181556119f7565b81549060031b908488831b921b1916179055836000526005815260406000209160405193848385549182815201908195600052846000209060005b81811061191657505050856118ae910386611a76565b60405194604086019060408752518091526060860194926000905b8282106118ff57428689015289897f504c1b327c80c9d798b28a7007229c5354eb1631358603afc867608554e3e9378a8a038ba3005b8451811687529585019593850193908301906118c9565b82548616845292860192918401918401611898565b6001600160a01b031916179055848481611813565b60405163248fc32d60e11b8152600490fd5b141590508486611798565b508215611777565b346101ad5760003660031901126101ad5760206101a2611b97565b6004359063ffffffff821682036101ad57565b6024359063ffffffff821682036101ad57565b600435906001600160a01b03821682036101ad57565b600e54811015610ba857600590600e600052027fbb7b4a454dc3493923482f07822329ed19e8244eff582cc204f8554c3620c3fd0190600090565b8054821015610ba85760005260206000200190600090565b6001546001600160a01b03163303611a2357565b606460405162461bcd60e51b815260206004820152602060248201527f4f776e61626c653a2063616c6c6572206973206e6f7420746865206f776e65726044820152fd5b6000198114610b925760010190565b90601f8019910116810190811067ffffffffffffffff82111761069457604052565b600391820b910b0390637fffffff198212637fffffff831317610b9257565b9060030b9060030b0190637fffffff198212637fffffff831317610b9257565b805415610ba857600052602060002090600090565b90600954821015610ba8576009600052601c8260031c7f6e1540171b6c0c960b71a7020d9f60077f6af931a8bbf590da0223dacf75c7af019260021b1690565b9190918054831015610ba857600052601c60206000208360031c019260021b1690565b600e548015611b905760001990808201908111610b9257611b6f906119bc565b50600481015460ff1615611b8c5763ffffffff9150541660030b90565b5090565b5060001990565b63ffffffff600954168015611be35760075460030b9060030b908115611bcd57637fffffff198114600019831416610b92570590565b634e487b7160e01b600052601260045260246000fd5b50600090565b611bf2816119bc565b50906002600183015410611d3b57611c0981611d3f565b9192905063ffffffff808216958615611d325760040192611c338454918260681c60030b90611ab7565b60030b928560030b938413611c4d575b5050505050505050565b60289590951b63ffffffff60281b1660089590951b64ffffffff001668ffffffffffffffffff1991909116179390931782557f2b056a7f2ae4dfec88dc5458429e82a178c97e5019b817058ae7dcd455da9e85926020927f927c9e56334fb93dd5737ae42e2909ddfb6632a711a67ae5dea72da99a35219d908490839060ff198a600052600a845260016040600020918254161790555460081c1692604051971696878152a284847f6fb21c4c14810ceb320306eda3d07c6738412088c17a66604afe100ae599b18284604051858152a3604051908152a33880808080808080611c43565b50505050505050565b5050565b611d4a6001916119bc565b50018054908115611e2757611d6181939293611ad7565b92909163ffffffff809354600395861b1c1690600095828752600b9560208781526040808a2054830b99809981996001975b878910611da95750505050505050505093929190565b90919293949596979c9b988c99838f611dc29085611b2c565b9054908b1b1c169c8d8752858952878720548a0b9b8a0b8c13600014611dfe575050611df1909c9b999d611a67565b9796959493929190611d93565b9c9d9e919a909d8d8a0b8213611e1a575b5050611df190611a67565b9d509b50611df138611e0f565b5050600090600090600090600090565b611e40816119bc565b50906002600183015410611e825790611e7392611e5e600493611d3f565b93929691959094015460681c60030b83611ab7565b60030b8460030b139493929190565b505060009060009060009060009060009056fe72194f756300fff6bfc1d45660da70048be350dc1aad864b9280fa75c3ff696ca264697066735822122098cbf30f3be4e6ad2901d9e019b384f1e9fe915793be0fe3a4142a6fca5c4fca64736f6c63430008130033","opcodes":"PUSH1 0x80 DUP1 PUSH1 0x40 MSTORE CALLVALUE PUSH2 0x77 JUMPI PUSH1 0x1 PUSH1 0x0 DUP2 DUP2 SSTORE DUP2 SLOAD CALLER PUSH1 0x1 PUSH1 0x1 PUSH1 0xA0 SHL SUB NOT DUP3 AND DUP2 OR SWAP1 SWAP4 SSTORE PUSH1 0x1 PUSH1 0x1 PUSH1 0xA0 SHL SUB AND SWAP1 PUSH32 0x8BE0079C531659141344CD1FD0A4F28419497F9722A3DAAFE3B4186F6B6457E0 SWAP1 DUP1 LOG3 CALLER PUSH1 0x0 MSTORE PUSH1 0x2 PUSH1 0x20 MSTORE PUSH1 0x40 PUSH1 0x0 KECCAK256 PUSH1 0x1 PUSH1 0xFF NOT DUP3 SLOAD AND OR SWAP1 SSTORE PUSH2 0x1EEB SWAP1 DUP2 PUSH2 0x7D DUP3 CODECOPY RETURN JUMPDEST PUSH1 0x0 DUP1 REVERT INVALID PUSH1 0x80 PUSH1 0x40 MSTORE PUSH1 0x4 CALLDATASIZE LT ISZERO PUSH2 0x12 JUMPI PUSH1 0x0 DUP1 REVERT JUMPDEST PUSH1 0x0 CALLDATALOAD PUSH1 0xE0 SHR DUP1 PUSH4 0xFC19C78 EQ PUSH2 0x1965 JUMPI DUP1 PUSH4 0x1F7F505C EQ PUSH2 0x335 JUMPI DUP1 PUSH4 0x21BB31E4 EQ PUSH2 0x1736 JUMPI DUP1 PUSH4 0x22FAA41F EQ PUSH2 0x1712 JUMPI DUP1 PUSH4 0x232775C3 EQ PUSH2 0x147B JUMPI DUP1 PUSH4 0x244AD967 EQ PUSH2 0x11C2 JUMPI DUP1 PUSH4 0x315F7760 EQ PUSH2 0x1160 JUMPI DUP1 PUSH4 0x454BBD29 EQ PUSH2 0x10D8 JUMPI DUP1 PUSH4 0x4698C2D5 EQ PUSH2 0x2F5 JUMPI DUP1 PUSH4 0x4A57C6D0 EQ PUSH2 0x4A1 JUMPI DUP1 PUSH4 0x4B45E00F EQ PUSH2 0xF51 JUMPI DUP1 PUSH4 0x4E5ECF13 EQ PUSH2 0xF35 JUMPI DUP1 PUSH4 0x533DFA35 EQ PUSH2 0xC1F JUMPI DUP1 PUSH4 0x5346EE19 EQ PUSH2 0x74D JUMPI DUP1 PUSH4 0x536FFF6C EQ PUSH2 0x70E JUMPI DUP1 PUSH4 0x598A562A EQ PUSH2 0x6CC JUMPI DUP1 PUSH4 0x5D090176 EQ PUSH2 0x5C9 JUMPI DUP1 PUSH4 0x5E6FEF01 EQ PUSH2 0x538 JUMPI DUP1 PUSH4 0x70574C4B EQ PUSH2 0x467 JUMPI DUP1 PUSH4 0x715018A6 EQ PUSH2 0x4DB JUMPI DUP1 PUSH4 0x81DB2284 EQ PUSH2 0x4A1 JUMPI DUP1 PUSH4 0x8450A681 EQ PUSH2 0x467 JUMPI DUP1 PUSH4 0x8DA5CB5B EQ PUSH2 0x43E JUMPI DUP1 PUSH4 0x9734ED62 EQ PUSH2 0x402 JUMPI DUP1 PUSH4 0xA5118BF1 EQ PUSH2 0x3E6 JUMPI DUP1 PUSH4 0xA6F587AC EQ PUSH2 0x3C5 JUMPI DUP1 PUSH4 0xB1CC1F8F EQ PUSH2 0x389 JUMPI DUP1 PUSH4 0xB3F8DF40 EQ PUSH2 0x335 JUMPI DUP1 PUSH4 0xC269014B EQ PUSH2 0x2F5 JUMPI DUP1 PUSH4 0xD5BE8C4A EQ PUSH2 0x2D9 JUMPI DUP1 PUSH4 0xDF91BE18 EQ PUSH2 0x27B JUMPI DUP1 PUSH4 0xF2FDE38B EQ PUSH2 0x1B2 JUMPI PUSH4 0xFE2B536B EQ PUSH2 0x187 JUMPI PUSH1 0x0 DUP1 REVERT JUMPDEST CALLVALUE PUSH2 0x1AD JUMPI PUSH1 0x0 CALLDATASIZE PUSH1 0x3 NOT ADD SLT PUSH2 0x1AD JUMPI PUSH1 0x20 PUSH2 0x1A2 PUSH2 0x1B4F JUMP JUMPDEST PUSH1 0x40 MLOAD SWAP1 PUSH1 0x3 SIGNEXTEND DUP2 MSTORE RETURN JUMPDEST PUSH1 0x0 DUP1 REVERT JUMPDEST CALLVALUE PUSH2 0x1AD JUMPI PUSH1 0x20 CALLDATASIZE PUSH1 0x3 NOT ADD SLT PUSH2 0x1AD JUMPI PUSH2 0x1CB PUSH2 0x19A6 JUMP JUMPDEST PUSH2 0x1D3 PUSH2 0x1A0F JUMP JUMPDEST PUSH1 0x1 PUSH1 0x1 PUSH1 0xA0 SHL SUB SWAP1 DUP2 AND SWAP1 DUP2 ISZERO PUSH2 0x227 JUMPI PUSH1 0x1 SLOAD DUP3 PUSH12 0xFFFFFFFFFFFFFFFFFFFFFFFF PUSH1 0xA0 SHL DUP3 AND OR PUSH1 0x1 SSTORE AND PUSH32 0x8BE0079C531659141344CD1FD0A4F28419497F9722A3DAAFE3B4186F6B6457E0 PUSH1 0x0 DUP1 LOG3 STOP JUMPDEST PUSH1 0x40 MLOAD PUSH3 0x461BCD PUSH1 0xE5 SHL DUP2 MSTORE PUSH1 0x20 PUSH1 0x4 DUP3 ADD MSTORE PUSH1 0x26 PUSH1 0x24 DUP3 ADD MSTORE PUSH32 0x4F776E61626C653A206E6577206F776E657220697320746865207A65726F2061 PUSH1 0x44 DUP3 ADD MSTORE PUSH6 0x646472657373 PUSH1 0xD0 SHL PUSH1 0x64 DUP3 ADD MSTORE PUSH1 0x84 SWAP1 REVERT JUMPDEST CALLVALUE PUSH2 0x1AD JUMPI PUSH1 0x40 CALLDATASIZE PUSH1 0x3 NOT ADD SLT PUSH2 0x1AD JUMPI PUSH2 0x294 PUSH2 0x1980 JUMP JUMPDEST PUSH4 0xFFFFFFFF PUSH1 0x24 CALLDATALOAD SWAP2 AND PUSH1 0x0 MSTORE PUSH1 0x5 PUSH1 0x20 MSTORE PUSH1 0x40 PUSH1 0x0 KECCAK256 DUP1 SLOAD DUP3 LT ISZERO PUSH2 0x1AD JUMPI PUSH1 0x20 SWAP2 PUSH2 0x2C0 SWAP2 PUSH2 0x19F7 JUMP JUMPDEST SWAP1 SLOAD PUSH1 0x40 MLOAD PUSH1 0x3 SWAP3 SWAP1 SWAP3 SHL SHR PUSH1 0x1 PUSH1 0x1 PUSH1 0xA0 SHL SUB AND DUP2 MSTORE RETURN JUMPDEST CALLVALUE PUSH2 0x1AD JUMPI PUSH1 0x0 CALLDATASIZE PUSH1 0x3 NOT ADD SLT PUSH2 0x1AD JUMPI PUSH1 0x20 PUSH1 0x40 MLOAD PUSH1 0x2 DUP2 MSTORE RETURN JUMPDEST CALLVALUE PUSH2 0x1AD JUMPI PUSH1 0x20 CALLDATASIZE PUSH1 0x3 NOT ADD SLT PUSH2 0x1AD JUMPI PUSH1 0x1 PUSH1 0x1 PUSH1 0xA0 SHL SUB PUSH2 0x316 PUSH2 0x19A6 JUMP JUMPDEST AND PUSH1 0x0 MSTORE PUSH1 0x4 PUSH1 0x20 MSTORE PUSH1 0x20 PUSH4 0xFFFFFFFF PUSH1 0x40 PUSH1 0x0 KECCAK256 SLOAD AND PUSH1 0x40 MLOAD SWAP1 DUP2 MSTORE RETURN JUMPDEST CALLVALUE PUSH2 0x1AD JUMPI PUSH1 0x40 CALLDATASIZE PUSH1 0x3 NOT ADD SLT PUSH2 0x1AD JUMPI PUSH2 0x34E PUSH2 0x1980 JUMP JUMPDEST PUSH2 0x356 PUSH2 0x1993 JUMP JUMPDEST SWAP1 PUSH4 0xFFFFFFFF DUP1 SWAP2 AND PUSH1 0x0 MSTORE PUSH1 0xC PUSH1 0x20 MSTORE PUSH1 0x40 PUSH1 0x0 KECCAK256 SWAP2 AND PUSH1 0x0 MSTORE PUSH1 0x20 MSTORE PUSH1 0x20 PUSH1 0xFF PUSH1 0x40 PUSH1 0x0 KECCAK256 SLOAD AND PUSH1 0x40 MLOAD SWAP1 ISZERO ISZERO DUP2 MSTORE RETURN JUMPDEST CALLVALUE PUSH2 0x1AD JUMPI PUSH1 0x20 CALLDATASIZE PUSH1 0x3 NOT ADD SLT PUSH2 0x1AD JUMPI PUSH4 0xFFFFFFFF PUSH2 0x3A7 PUSH2 0x1980 JUMP JUMPDEST AND PUSH1 0x0 MSTORE PUSH1 0xA PUSH1 0x20 MSTORE PUSH1 0x20 PUSH1 0xFF PUSH1 0x40 PUSH1 0x0 KECCAK256 SLOAD AND PUSH1 0x40 MLOAD SWAP1 ISZERO ISZERO DUP2 MSTORE RETURN JUMPDEST CALLVALUE PUSH2 0x1AD JUMPI PUSH1 0x0 CALLDATASIZE PUSH1 0x3 NOT ADD SLT PUSH2 0x1AD JUMPI PUSH1 0x20 PUSH1 0x7 SLOAD PUSH1 0x3 SIGNEXTEND PUSH1 0x40 MLOAD SWAP1 DUP2 MSTORE RETURN JUMPDEST CALLVALUE PUSH2 0x1AD JUMPI PUSH1 0x0 CALLDATASIZE PUSH1 0x3 NOT ADD SLT PUSH2 0x1AD JUMPI PUSH1 0x20 PUSH1 0x40 MLOAD PUSH1 0x3 DUP2 MSTORE RETURN JUMPDEST CALLVALUE PUSH2 0x1AD JUMPI PUSH1 0x20 CALLDATASIZE PUSH1 0x3 NOT ADD SLT PUSH2 0x1AD JUMPI PUSH4 0xFFFFFFFF PUSH2 0x420 PUSH2 0x1980 JUMP JUMPDEST AND PUSH1 0x0 MSTORE PUSH1 0x8 PUSH1 0x20 MSTORE PUSH1 0x20 PUSH1 0xFF PUSH1 0x40 PUSH1 0x0 KECCAK256 SLOAD AND PUSH1 0x40 MLOAD SWAP1 ISZERO ISZERO DUP2 MSTORE RETURN JUMPDEST CALLVALUE PUSH2 0x1AD JUMPI PUSH1 0x0 CALLDATASIZE PUSH1 0x3 NOT ADD SLT PUSH2 0x1AD JUMPI PUSH1 0x1 SLOAD PUSH1 0x40 MLOAD PUSH1 0x1 PUSH1 0x1 PUSH1 0xA0 SHL SUB SWAP1 SWAP2 AND DUP2 MSTORE PUSH1 0x20 SWAP1 RETURN JUMPDEST CALLVALUE PUSH2 0x1AD JUMPI PUSH1 0x20 CALLDATASIZE PUSH1 0x3 NOT ADD SLT PUSH2 0x1AD JUMPI PUSH4 0xFFFFFFFF PUSH2 0x485 PUSH2 0x1980 JUMP JUMPDEST AND PUSH1 0x0 MSTORE PUSH1 0xB PUSH1 0x20 MSTORE PUSH1 0x20 PUSH1 0x40 PUSH1 0x0 KECCAK256 SLOAD PUSH1 0x3 SIGNEXTEND PUSH1 0x40 MLOAD SWAP1 DUP2 MSTORE RETURN JUMPDEST CALLVALUE PUSH2 0x1AD JUMPI PUSH1 0x20 CALLDATASIZE PUSH1 0x3 NOT ADD SLT PUSH2 0x1AD JUMPI PUSH4 0xFFFFFFFF PUSH2 0x4BF PUSH2 0x1980 JUMP JUMPDEST AND PUSH1 0x0 MSTORE PUSH1 0x6 PUSH1 0x20 MSTORE PUSH1 0x20 PUSH1 0x40 PUSH1 0x0 KECCAK256 SLOAD PUSH1 0x3 SIGNEXTEND PUSH1 0x40 MLOAD SWAP1 DUP2 MSTORE RETURN JUMPDEST CALLVALUE PUSH2 0x1AD JUMPI PUSH1 0x0 CALLDATASIZE PUSH1 0x3 NOT ADD SLT PUSH2 0x1AD JUMPI PUSH2 0x4F4 PUSH2 0x1A0F JUMP JUMPDEST PUSH1 0x1 DUP1 SLOAD PUSH1 0x1 PUSH1 0x1 PUSH1 0xA0 SHL SUB NOT DUP2 AND SWAP1 SWAP2 SSTORE PUSH1 0x0 SWAP1 PUSH1 0x1 PUSH1 0x1 PUSH1 0xA0 SHL SUB AND PUSH32 0x8BE0079C531659141344CD1FD0A4F28419497F9722A3DAAFE3B4186F6B6457E0 DUP3 DUP1 LOG3 STOP JUMPDEST CALLVALUE PUSH2 0x1AD JUMPI PUSH1 0x20 CALLDATASIZE PUSH1 0x3 NOT ADD SLT PUSH2 0x1AD JUMPI PUSH1 0x4 CALLDATALOAD PUSH1 0xE SLOAD DUP2 LT ISZERO PUSH2 0x1AD JUMPI PUSH2 0x562 PUSH2 0x100 SWAP2 PUSH2 0x19BC JUMP JUMPDEST POP PUSH4 0xFFFFFFFF SWAP1 DUP2 DUP2 SLOAD AND SWAP2 PUSH1 0x2 DUP3 ADD SLOAD SWAP2 PUSH1 0x4 PUSH1 0x3 DUP3 ADD SLOAD SWAP2 ADD SLOAD SWAP3 PUSH1 0x40 MLOAD SWAP5 DUP6 MSTORE PUSH1 0x20 DUP6 ADD MSTORE PUSH1 0x40 DUP5 ADD MSTORE PUSH1 0xFF DUP3 AND ISZERO ISZERO PUSH1 0x60 DUP5 ADD MSTORE DUP2 PUSH1 0x8 SHR AND PUSH1 0x80 DUP4 ADD MSTORE DUP1 PUSH1 0x28 SHR PUSH1 0x3 SIGNEXTEND PUSH1 0xA0 DUP4 ADD MSTORE DUP1 PUSH1 0x48 SHR PUSH1 0x3 SIGNEXTEND PUSH1 0xC0 DUP4 ADD MSTORE PUSH1 0x68 SHR PUSH1 0x3 SIGNEXTEND PUSH1 0xE0 DUP3 ADD MSTORE RETURN JUMPDEST CALLVALUE PUSH2 0x1AD JUMPI PUSH1 0x40 CALLDATASIZE PUSH1 0x3 NOT ADD SLT PUSH2 0x1AD JUMPI PUSH2 0x5E2 PUSH2 0x1980 JUMP JUMPDEST PUSH2 0x5EA PUSH2 0x1993 JUMP JUMPDEST PUSH1 0xE SLOAD SWAP1 PUSH4 0xFFFFFFFF SWAP3 DUP4 DUP2 AND SWAP3 DUP4 LT ISZERO PUSH2 0x6AA JUMPI PUSH2 0x608 DUP2 PUSH2 0x19BC JUMP JUMPDEST POP PUSH1 0x3 DUP2 ADD SLOAD TIMESTAMP GT SWAP1 DUP2 ISZERO PUSH2 0x6BC JUMPI JUMPDEST POP PUSH2 0x6AA JUMPI PUSH2 0x628 PUSH1 0x1 SWAP2 PUSH2 0x19BC JUMP JUMPDEST POP ADD DUP1 SLOAD SWAP1 PUSH1 0x1 PUSH1 0x40 SHL DUP3 LT ISZERO PUSH2 0x694 JUMPI DUP2 PUSH2 0x64C SWAP2 PUSH1 0x1 PUSH2 0x66B SWAP5 ADD DUP2 SSTORE PUSH2 0x1B2C JUMP JUMPDEST SWAP5 SWAP1 SWAP3 AND DUP1 SWAP5 DUP4 SLOAD SWAP1 PUSH1 0x3 SHL SWAP2 PUSH4 0xFFFFFFFF DUP1 SWAP2 AND DUP4 SHL SWAP3 SHL NOT AND OR SWAP1 JUMP JUMPDEST SWAP1 SSTORE PUSH32 0x2497EDD456DA400FDF8E24A5943FAEBBA37FC1A396BE5FF9EF6105AEDE63E26B PUSH1 0x0 DUP1 LOG3 STOP JUMPDEST PUSH4 0x4E487B71 PUSH1 0xE0 SHL PUSH1 0x0 MSTORE PUSH1 0x41 PUSH1 0x4 MSTORE PUSH1 0x24 PUSH1 0x0 REVERT JUMPDEST PUSH1 0x40 MLOAD PUSH4 0x4DDE373 PUSH1 0xE3 SHL DUP2 MSTORE PUSH1 0x4 SWAP1 REVERT JUMPDEST PUSH1 0xFF SWAP2 POP PUSH1 0x4 ADD SLOAD AND ISZERO DUP6 PUSH2 0x618 JUMP JUMPDEST CALLVALUE PUSH2 0x1AD JUMPI PUSH1 0x20 CALLDATASIZE PUSH1 0x3 NOT ADD SLT PUSH2 0x1AD JUMPI PUSH1 0x1 PUSH1 0x1 PUSH1 0xA0 SHL SUB PUSH2 0x6ED PUSH2 0x19A6 JUMP JUMPDEST AND PUSH1 0x0 MSTORE PUSH1 0x4 PUSH1 0x20 MSTORE PUSH1 0x20 PUSH4 0xFFFFFFFF PUSH1 0x40 PUSH1 0x0 KECCAK256 SLOAD AND ISZERO ISZERO PUSH1 0x40 MLOAD SWAP1 DUP2 MSTORE RETURN JUMPDEST CALLVALUE PUSH2 0x1AD JUMPI PUSH1 0x20 CALLDATASIZE PUSH1 0x3 NOT ADD SLT PUSH2 0x1AD JUMPI PUSH1 0x1 PUSH1 0x1 PUSH1 0xA0 SHL SUB PUSH2 0x72F PUSH2 0x19A6 JUMP JUMPDEST AND PUSH1 0x0 MSTORE PUSH1 0x2 PUSH1 0x20 MSTORE PUSH1 0x20 PUSH1 0xFF PUSH1 0x40 PUSH1 0x0 KECCAK256 SLOAD AND PUSH1 0x40 MLOAD SWAP1 ISZERO ISZERO DUP2 MSTORE RETURN JUMPDEST CALLVALUE PUSH2 0x1AD JUMPI PUSH1 0x40 CALLDATASIZE PUSH1 0x3 NOT ADD SLT PUSH2 0x1AD JUMPI PUSH2 0x766 PUSH2 0x1980 JUMP JUMPDEST PUSH2 0x76E PUSH2 0x1993 JUMP JUMPDEST SWAP1 PUSH1 0xE SLOAD DUP1 ISZERO ISZERO DUP1 PUSH2 0xBFC JUMPI JUMPDEST PUSH2 0xBEA JUMPI PUSH4 0xFFFFFFFF DUP3 AND PUSH1 0x0 SWAP1 DUP2 MSTORE PUSH1 0x3 PUSH1 0x20 MSTORE PUSH1 0x40 SWAP1 KECCAK256 SLOAD PUSH1 0x1 PUSH1 0x1 PUSH1 0xA0 SHL SUB SWAP1 DUP2 AND ISZERO SWAP1 DUP2 ISZERO PUSH2 0xBD0 JUMPI JUMPDEST POP PUSH2 0xBBE JUMPI PUSH1 0x40 MLOAD SWAP3 PUSH2 0x120 DUP5 ADD DUP5 DUP2 LT PUSH8 0xFFFFFFFFFFFFFFFF DUP3 GT OR PUSH2 0x694 JUMPI PUSH1 0x40 MSTORE PUSH1 0x0 DUP5 MSTORE PUSH1 0x60 PUSH1 0x20 DUP6 ADD MSTORE PUSH1 0x0 PUSH1 0x40 DUP6 ADD MSTORE PUSH1 0x0 PUSH1 0x60 DUP6 ADD MSTORE PUSH1 0x0 PUSH1 0x80 DUP6 ADD MSTORE PUSH1 0x0 PUSH1 0xA0 DUP6 ADD MSTORE PUSH1 0x0 PUSH1 0xC0 DUP6 ADD MSTORE PUSH1 0x0 PUSH1 0xE0 DUP6 ADD MSTORE PUSH1 0x0 PUSH2 0x100 DUP6 ADD MSTORE PUSH1 0xD SLOAD PUSH4 0xFFFFFFFF DUP1 DUP3 AND EQ PUSH2 0xB92 JUMPI DUP1 PUSH4 0xFFFFFFFF PUSH1 0x1 DUP2 DUP1 SWAP5 AND ADD AND DUP3 NOT DUP3 AND OR PUSH1 0xD SSTORE AND DUP5 MSTORE PUSH1 0x40 MLOAD DUP1 PUSH1 0x60 DUP2 ADD LT PUSH8 0xFFFFFFFFFFFFFFFF PUSH1 0x60 DUP4 ADD GT OR PUSH2 0x694 JUMPI PUSH1 0x60 DUP2 ADD PUSH1 0x40 MSTORE PUSH1 0x2 DUP2 MSTORE PUSH1 0x40 CALLDATASIZE PUSH1 0x20 DUP4 ADD CALLDATACOPY DUP1 PUSH1 0x20 DUP7 ADD MSTORE DUP1 MLOAD ISZERO PUSH2 0xBA8 JUMPI PUSH1 0x20 PUSH4 0xFFFFFFFF DUP6 AND SWAP2 ADD MSTORE PUSH1 0x20 DUP5 ADD MLOAD SWAP1 DUP2 MLOAD PUSH1 0x1 LT ISZERO PUSH2 0xBA8 JUMPI PUSH4 0xFFFFFFFF PUSH1 0x40 SWAP2 AND SWAP2 ADD MSTORE TIMESTAMP PUSH1 0x40 DUP5 ADD MSTORE PUSH3 0x278D00 TIMESTAMP ADD TIMESTAMP GT PUSH2 0xB92 JUMPI PUSH3 0x278D00 TIMESTAMP ADD PUSH1 0x60 DUP5 ADD MSTORE PUSH1 0x1 PUSH1 0x80 DUP5 ADD MSTORE PUSH1 0x0 PUSH1 0xE0 DUP5 ADD MSTORE PUSH1 0x7 SLOAD PUSH1 0x3 SIGNEXTEND PUSH2 0x100 DUP5 ADD MSTORE PUSH1 0x1 PUSH1 0x40 SHL DUP2 LT ISZERO PUSH2 0x694 JUMPI DUP1 PUSH1 0x1 PUSH2 0x8EA SWAP3 ADD PUSH1 0xE SSTORE PUSH2 0x19BC JUMP JUMPDEST SWAP2 SWAP1 SWAP2 PUSH2 0xB7C JUMPI PUSH4 0xFFFFFFFF DUP4 MLOAD AND PUSH4 0xFFFFFFFF NOT DUP4 SLOAD AND OR DUP3 SSTORE PUSH1 0x20 DUP4 ADD MLOAD DUP1 MLOAD SWAP1 PUSH8 0xFFFFFFFFFFFFFFFF DUP3 GT PUSH2 0x694 JUMPI PUSH1 0x1 PUSH1 0x40 SHL DUP3 GT PUSH2 0x694 JUMPI PUSH1 0x1 DUP5 ADD SLOAD DUP3 PUSH1 0x1 DUP7 ADD SSTORE DUP1 DUP4 LT PUSH2 0xB13 JUMPI JUMPDEST POP PUSH1 0x20 ADD SWAP1 PUSH1 0x1 DUP5 ADD PUSH1 0x0 MSTORE PUSH1 0x20 PUSH1 0x0 KECCAK256 SWAP1 PUSH1 0x0 JUMPDEST DUP2 PUSH1 0x3 SHR DUP2 LT PUSH2 0xAD0 JUMPI POP PUSH1 0x7 NOT DUP2 AND DUP2 SUB PUSH2 0xA53 JUMPI JUMPDEST POP POP POP PUSH1 0x40 PUSH4 0xFFFFFFFF PUSH32 0x4610B24BBFB857173E063B234E3A2475409BF5921C3F541F435EB016C5AAD89F SWAP3 DUP2 DUP4 DUP8 ADD MLOAD SWAP7 DUP8 PUSH1 0x2 DUP9 ADD SSTORE PUSH2 0xA41 PUSH1 0x4 PUSH1 0x60 DUP4 ADD MLOAD SWAP9 DUP10 PUSH1 0x3 DUP3 ADD SSTORE ADD PUSH2 0x9CC PUSH1 0x80 DUP5 ADD MLOAD ISZERO ISZERO DUP3 SWAP1 PUSH1 0xFF DUP1 NOT DUP4 SLOAD AND SWAP2 ISZERO ISZERO AND OR SWAP1 SSTORE JUMP JUMPDEST PUSH1 0xA0 DUP4 ADD MLOAD DUP2 SLOAD PUSH1 0xC0 DUP6 ADD MLOAD PUSH1 0xE0 DUP7 ADD MLOAD PUSH2 0x100 DUP8 ADD MLOAD PUSH1 0x68 SHL PUSH4 0xFFFFFFFF PUSH1 0x68 SHL AND PUSH1 0x48 SWAP2 SWAP1 SWAP2 SHL PUSH4 0xFFFFFFFF PUSH1 0x48 SHL AND PUSH1 0x28 SWAP3 SWAP1 SWAP3 SHL PUSH4 0xFFFFFFFF PUSH1 0x28 SHL AND SWAP4 DUP9 AND PUSH1 0x8 SHL PUSH5 0xFFFFFFFF00 AND PUSH17 0xFFFFFFFFFFFFFFFFFFFFFFFFFFFFFFFF00 NOT SWAP1 SWAP4 AND SWAP3 SWAP1 SWAP3 OR SWAP3 SWAP1 SWAP3 OR SWAP2 SWAP1 SWAP2 OR OR SWAP1 SSTORE JUMP JUMPDEST MLOAD AND SWAP5 DUP4 MLOAD SWAP7 DUP8 MSTORE PUSH1 0x20 DUP8 ADD MSTORE AND SWAP4 LOG3 STOP JUMPDEST PUSH1 0x0 SWAP3 PUSH1 0x0 JUMPDEST PUSH1 0x7 NOT DUP4 AND DUP4 SUB DUP2 LT PUSH2 0xA9A JUMPI POP POP PUSH1 0x3 SHR ADD SSTORE PUSH1 0x40 PUSH4 0xFFFFFFFF PUSH32 0x4610B24BBFB857173E063B234E3A2475409BF5921C3F541F435EB016C5AAD89F PUSH2 0x966 JUMP JUMPDEST SWAP1 SWAP4 PUSH1 0x20 PUSH2 0xAC7 PUSH1 0x1 SWAP3 PUSH4 0xFFFFFFFF DUP9 MLOAD AND SWAP1 DUP6 PUSH1 0x2 SHL PUSH1 0x3 SHL SWAP2 PUSH4 0xFFFFFFFF DUP1 SWAP2 AND DUP4 SHL SWAP3 SHL NOT AND OR SWAP1 JUMP JUMPDEST SWAP6 ADD SWAP2 ADD PUSH2 0xA59 JUMP JUMPDEST PUSH1 0x0 DUP1 JUMPDEST PUSH1 0x8 DUP2 LT PUSH2 0xAE9 JUMPI POP DUP4 DUP3 ADD SSTORE PUSH1 0x1 ADD PUSH2 0x94F JUMP JUMPDEST DUP6 MLOAD SWAP1 SWAP6 SWAP2 PUSH1 0x1 SWAP2 PUSH1 0x20 SWAP2 PUSH4 0xFFFFFFFF PUSH1 0x5 DUP11 SWAP1 SHL DUP2 DUP2 SHL NOT SWAP1 SWAP3 AND SWAP3 AND SWAP1 SHL OR SWAP3 ADD SWAP6 ADD PUSH2 0xAD4 JUMP JUMPDEST PUSH1 0x1 DUP6 ADD PUSH1 0x0 MSTORE PUSH1 0x20 PUSH1 0x0 KECCAK256 PUSH1 0x1C DUP5 PUSH1 0x2 SHL AND DUP1 PUSH2 0xB59 JUMPI JUMPDEST POP PUSH1 0x7 DUP5 ADD PUSH1 0x3 SHR DUP2 ADD JUMPDEST PUSH1 0x7 DUP4 ADD PUSH1 0x3 SHR DUP3 ADD DUP2 LT PUSH2 0xB4D JUMPI POP POP PUSH2 0x93A JUMP JUMPDEST PUSH1 0x0 DUP2 SSTORE PUSH1 0x1 ADD PUSH2 0xB37 JUMP JUMPDEST PUSH1 0x0 NOT SWAP1 DUP2 PUSH1 0x7 DUP8 ADD PUSH1 0x3 SHR DUP5 ADD ADD SWAP2 DUP3 SLOAD SWAP2 PUSH1 0x20 SUB PUSH1 0x3 SHL SHR AND SWAP1 SSTORE DUP8 PUSH2 0xB2C JUMP JUMPDEST PUSH4 0x4E487B71 PUSH1 0xE0 SHL PUSH1 0x0 MSTORE PUSH1 0x0 PUSH1 0x4 MSTORE PUSH1 0x24 PUSH1 0x0 REVERT JUMPDEST PUSH4 0x4E487B71 PUSH1 0xE0 SHL PUSH1 0x0 MSTORE PUSH1 0x11 PUSH1 0x4 MSTORE PUSH1 0x24 PUSH1 0x0 REVERT JUMPDEST PUSH4 0x4E487B71 PUSH1 0xE0 SHL PUSH1 0x0 MSTORE PUSH1 0x32 PUSH1 0x4 MSTORE PUSH1 0x24 PUSH1 0x0 REVERT JUMPDEST PUSH1 0x40 MLOAD PUSH4 0x184B4919 PUSH1 0xE1 SHL DUP2 MSTORE PUSH1 0x4 SWAP1 REVERT JUMPDEST SWAP1 POP PUSH4 0xFFFFFFFF DUP5 AND PUSH1 0x0 MSTORE PUSH1 0x40 PUSH1 0x0 KECCAK256 SLOAD AND ISZERO DUP5 PUSH2 0x7A9 JUMP JUMPDEST PUSH1 0x40 MLOAD PUSH4 0x38FBEBD7 PUSH1 0xE0 SHL DUP2 MSTORE PUSH1 0x4 SWAP1 REVERT JUMPDEST POP PUSH1 0x0 NOT DUP2 ADD DUP2 DUP2 GT PUSH2 0xB92 JUMPI PUSH1 0x4 PUSH2 0xC16 PUSH1 0xFF SWAP3 PUSH2 0x19BC JUMP JUMPDEST POP ADD SLOAD AND PUSH2 0x77B JUMP JUMPDEST CALLVALUE PUSH2 0x1AD JUMPI PUSH1 0x60 CALLDATASIZE PUSH1 0x3 NOT ADD SLT PUSH2 0x1AD JUMPI PUSH2 0xC38 PUSH2 0x1980 JUMP JUMPDEST PUSH1 0x24 DUP1 CALLDATALOAD SWAP2 PUSH1 0x3 SWAP1 DUP4 DUP3 SIGNEXTEND SWAP2 DUP3 DUP6 SUB PUSH2 0x1AD JUMPI PUSH1 0x44 CALLDATALOAD SWAP2 DUP3 ISZERO ISZERO SWAP2 DUP3 DUP5 SUB PUSH2 0x1AD JUMPI CALLER PUSH1 0x0 MSTORE PUSH1 0x20 SWAP2 PUSH1 0x2 DUP4 MSTORE PUSH1 0xFF PUSH1 0x40 PUSH1 0x0 KECCAK256 SLOAD AND ISZERO PUSH2 0xF23 JUMPI PUSH4 0xFFFFFFFF DUP1 SWAP2 AND SWAP8 DUP9 PUSH1 0x0 MSTORE PUSH1 0x6 DUP5 MSTORE PUSH1 0x40 PUSH1 0x0 KECCAK256 SLOAD DUP4 SIGNEXTEND SWAP6 PUSH1 0x0 EQ PUSH2 0xF14 JUMPI PUSH2 0xC9E SWAP1 DUP7 PUSH2 0x1AB7 JUMP JUMPDEST PUSH1 0x0 DUP7 SGT SWAP6 DUP7 ISZERO PUSH2 0xF0B JUMPI SWAP3 JUMPDEST DUP2 DUP2 SIGNEXTEND SWAP7 PUSH2 0xCC5 PUSH1 0x0 DUP10 SGT SWAP6 DUP7 PUSH1 0x0 EQ PUSH2 0xF04 JUMPI DUP5 PUSH2 0x1A98 JUMP JUMPDEST SWAP5 PUSH2 0xCD5 PUSH1 0x7 SLOAD SWAP7 DUP8 DUP6 SIGNEXTEND PUSH2 0x1AB7 JUMP JUMPDEST DUP6 AND PUSH4 0xFFFFFFFF NOT DUP1 SWAP8 AND OR PUSH1 0x7 SSTORE DUP2 ISZERO DUP1 PUSH2 0xEFD JUMPI JUMPDEST ISZERO PUSH2 0xDAF JUMPI POP POP POP SWAP1 SWAP2 SWAP3 SWAP4 SWAP5 SWAP6 SWAP7 DUP9 PUSH1 0x0 MSTORE PUSH1 0x8 DUP6 MSTORE PUSH1 0x40 PUSH1 0x0 KECCAK256 PUSH1 0x1 PUSH1 0xFF NOT DUP3 SLOAD AND OR SWAP1 SSTORE PUSH1 0x9 SLOAD SWAP1 PUSH1 0x1 PUSH1 0x40 SHL DUP3 LT ISZERO PUSH2 0xD9B JUMPI POP SWAP2 PUSH1 0x0 DUP1 MLOAD PUSH1 0x20 PUSH2 0x1E96 DUP4 CODECOPY DUP2 MLOAD SWAP2 MSTORE SWAP8 SWAP6 SWAP4 SWAP2 DUP10 PUSH2 0xD6B PUSH2 0xD50 DUP7 PUSH1 0x1 PUSH1 0x80 SWAP13 SWAP11 SWAP9 ADD PUSH1 0x9 SSTORE PUSH2 0x1AEC JUMP JUMPDEST DUP2 SWAP4 SWAP2 SLOAD SWAP1 PUSH1 0x3 SHL SWAP2 PUSH4 0xFFFFFFFF DUP1 SWAP2 AND DUP4 SHL SWAP3 SHL NOT AND OR SWAP1 JUMP JUMPDEST SWAP1 SSTORE JUMPDEST DUP10 PUSH1 0x0 MSTORE PUSH1 0x6 DUP5 MSTORE PUSH1 0x40 PUSH1 0x0 KECCAK256 SWAP3 DUP4 SLOAD AND SWAP2 AND OR SWAP1 SSTORE PUSH1 0x40 MLOAD SWAP4 DUP5 MSTORE DUP4 ADD MSTORE PUSH1 0x40 DUP3 ADD MSTORE TIMESTAMP PUSH1 0x60 DUP3 ADD MSTORE LOG2 STOP JUMPDEST PUSH4 0x4E487B71 PUSH1 0xE0 SHL PUSH1 0x0 SWAP1 DUP2 MSTORE PUSH1 0x41 PUSH1 0x4 MSTORE REVERT JUMPDEST DUP2 PUSH2 0xEF4 JUMPI JUMPDEST POP PUSH2 0xDDB JUMPI JUMPDEST POP PUSH1 0x0 DUP1 MLOAD PUSH1 0x20 PUSH2 0x1E96 DUP4 CODECOPY DUP2 MLOAD SWAP2 MSTORE SWAP8 POP SWAP1 PUSH1 0x80 SWAP7 SWAP6 SWAP5 SWAP4 SWAP3 SWAP2 PUSH2 0xD6E JUMP JUMPDEST PUSH1 0x0 DUP11 DUP2 MSTORE PUSH1 0x8 DUP7 MSTORE PUSH1 0x40 DUP2 KECCAK256 DUP1 SLOAD PUSH1 0xFF NOT AND SWAP1 SSTORE JUMPDEST PUSH1 0x9 DUP1 SLOAD DUP1 DUP4 LT ISZERO PUSH2 0xED1 JUMPI DUP13 DUP7 PUSH2 0xE08 DUP6 PUSH2 0x1AEC JUMP JUMPDEST SWAP1 SLOAD SWAP1 DUP8 SHL SHR AND EQ PUSH2 0xE24 JUMPI POP POP PUSH2 0xE1F SWAP1 PUSH2 0x1A67 JUMP JUMPDEST PUSH2 0xDF1 JUMP JUMPDEST SWAP2 PUSH1 0x0 SWAP12 SWAP2 SWAP4 SWAP5 SWAP6 SWAP7 SWAP8 SWAP9 SWAP10 SWAP11 SWAP12 NOT SWAP3 DUP4 DUP2 ADD SWAP1 DUP2 GT PUSH2 0xEBC JUMPI PUSH2 0xD50 DUP9 PUSH2 0xE4E PUSH2 0xE5B SWAP4 PUSH2 0x1AEC JUMP JUMPDEST SWAP1 SLOAD SWAP1 DUP10 SHL SHR AND SWAP3 PUSH2 0x1AEC JUMP JUMPDEST SWAP1 SSTORE DUP3 SLOAD SWAP1 DUP2 ISZERO PUSH2 0xEA8 JUMPI POP SWAP2 DUP6 PUSH1 0x80 SWAP11 SWAP9 SWAP7 SWAP5 SWAP3 PUSH1 0x0 DUP1 MLOAD PUSH1 0x20 PUSH2 0x1E96 DUP4 CODECOPY DUP2 MLOAD SWAP2 MSTORE SWAP13 SWAP11 SWAP9 SWAP7 SWAP5 ADD SWAP3 PUSH2 0xE8F DUP5 PUSH2 0x1AEC JUMP JUMPDEST DUP2 SWAP4 SWAP2 SLOAD SWAP3 SHL SHL NOT AND SWAP1 SSTORE SSTORE JUMPDEST SWAP1 SWAP2 SWAP3 SWAP4 SWAP5 SWAP6 SWAP7 PUSH2 0xDBB JUMP JUMPDEST PUSH4 0x4E487B71 PUSH1 0xE0 SHL PUSH1 0x0 SWAP1 DUP2 MSTORE PUSH1 0x31 PUSH1 0x4 MSTORE REVERT JUMPDEST DUP3 PUSH4 0x4E487B71 PUSH1 0xE0 SHL PUSH1 0x0 MSTORE PUSH1 0x11 PUSH1 0x4 MSTORE PUSH1 0x0 REVERT JUMPDEST POP POP POP POP PUSH1 0x0 DUP1 MLOAD PUSH1 0x20 PUSH2 0x1E96 DUP4 CODECOPY DUP2 MLOAD SWAP2 MSTORE SWAP8 POP SWAP1 PUSH1 0x80 SWAP7 SWAP6 SWAP5 SWAP4 SWAP3 SWAP2 PUSH2 0xE9C JUMP JUMPDEST SWAP1 POP ISZERO DUP12 PUSH2 0xDB5 JUMP JUMPDEST POP DUP1 PUSH2 0xCEC JUMP JUMPDEST PUSH1 0x0 PUSH2 0x1A98 JUMP JUMPDEST POP PUSH1 0x0 SWAP3 PUSH2 0xCAB JUMP JUMPDEST PUSH2 0xF1E SWAP1 DUP7 PUSH2 0x1A98 JUMP JUMPDEST PUSH2 0xC9E JUMP JUMPDEST PUSH1 0x40 MLOAD PUSH4 0xAB598A7D PUSH1 0xE0 SHL DUP2 MSTORE PUSH1 0x4 SWAP1 REVERT JUMPDEST CALLVALUE PUSH2 0x1AD JUMPI PUSH1 0x0 CALLDATASIZE PUSH1 0x3 NOT ADD SLT PUSH2 0x1AD JUMPI PUSH1 0x20 PUSH1 0x40 MLOAD PUSH1 0x1 DUP2 MSTORE RETURN JUMPDEST CALLVALUE PUSH2 0x1AD JUMPI PUSH1 0x20 DUP1 PUSH1 0x3 NOT CALLDATASIZE ADD SLT PUSH2 0x1AD JUMPI PUSH2 0xF6B PUSH2 0x1980 JUMP JUMPDEST SWAP1 PUSH1 0xE SLOAD PUSH4 0xFFFFFFFF SWAP3 DUP4 DUP2 AND SWAP2 DUP3 LT ISZERO PUSH2 0x6AA JUMPI PUSH2 0xF91 SWAP1 PUSH2 0xF8C PUSH2 0x1A0F JUMP JUMPDEST PUSH2 0x19BC JUMP JUMPDEST POP SWAP2 PUSH1 0x4 DUP4 ADD SWAP4 DUP5 SLOAD SWAP4 PUSH1 0xFF DUP6 AND ISZERO PUSH2 0x6AA JUMPI PUSH1 0x1 ADD SWAP5 DUP6 SLOAD SWAP1 DUP2 ISZERO PUSH2 0x10C6 JUMPI PUSH1 0xFF NOT SWAP6 DUP7 AND DUP2 SSTORE DUP3 PUSH2 0xFC3 DUP9 PUSH2 0x1AD7 JUMP JUMPDEST SWAP5 SWAP1 SLOAD PUSH1 0x3 SWAP6 DUP7 SHL SHR AND SWAP1 DUP2 PUSH1 0x0 MSTORE PUSH1 0xB SWAP4 DUP5 DUP8 MSTORE PUSH1 0x40 PUSH1 0x0 KECCAK256 SLOAD DUP7 SIGNEXTEND SWAP5 PUSH1 0x1 JUMPDEST DUP3 DUP2 LT PUSH2 0x107C JUMPI POP POP POP SWAP3 DUP1 SWAP3 PUSH2 0x1052 DUP4 PUSH32 0x2B056A7F2AE4DFEC88DC5458429E82A178C97E5019B817058AE7DCD455DA9E85 SWAP9 SWAP8 SWAP7 PUSH2 0x1072 SWAP6 AND SWAP11 DUP12 PUSH1 0x0 MSTORE PUSH1 0xA DUP10 MSTORE PUSH1 0x1 PUSH1 0x40 PUSH1 0x0 KECCAK256 SWAP2 DUP3 SLOAD AND OR SWAP1 SSTORE DUP3 SWAP1 PUSH5 0xFFFFFFFF00 DUP3 SLOAD SWAP2 PUSH1 0x8 SHL AND SWAP1 PUSH5 0xFFFFFFFF00 NOT AND OR SWAP1 SSTORE JUMP JUMPDEST SWAP1 DUP2 SLOAD SWAP1 PUSH1 0x28 SHL PUSH4 0xFFFFFFFF PUSH1 0x28 SHL AND SWAP1 PUSH4 0xFFFFFFFF PUSH1 0x28 SHL NOT AND OR SWAP1 SSTORE JUMP JUMPDEST PUSH1 0x40 MLOAD SWAP2 SIGNEXTEND DUP2 MSTORE LOG3 STOP JUMPDEST DUP4 PUSH2 0x1087 DUP3 DUP15 PUSH2 0x1B2C JUMP JUMPDEST SWAP1 SLOAD SWAP1 DUP11 SHL SHR AND DUP1 PUSH1 0x0 MSTORE DUP3 DUP11 MSTORE PUSH1 0x40 PUSH1 0x0 KECCAK256 SLOAD DUP10 SIGNEXTEND SWAP1 DUP9 DUP11 SIGNEXTEND DUP3 SGT PUSH2 0x10B8 JUMPI JUMPDEST POP POP PUSH2 0x10B3 SWAP1 PUSH2 0x1A67 JUMP JUMPDEST PUSH2 0xFE4 JUMP JUMPDEST SWAP1 SWAP8 POP SWAP5 POP PUSH2 0x10B3 DUP14 PUSH2 0x10A8 JUMP JUMPDEST PUSH1 0x40 MLOAD PUSH4 0xC27FB723 PUSH1 0xE0 SHL DUP2 MSTORE PUSH1 0x4 SWAP1 REVERT JUMPDEST CALLVALUE PUSH2 0x1AD JUMPI PUSH1 0x40 CALLDATASIZE PUSH1 0x3 NOT ADD SLT PUSH2 0x1AD JUMPI PUSH2 0x10F1 PUSH2 0x19A6 JUMP JUMPDEST PUSH1 0x24 CALLDATALOAD SWAP1 DUP2 ISZERO ISZERO SWAP1 DUP2 DUP4 SUB PUSH2 0x1AD JUMPI PUSH32 0xAD857FA38C9319CB80848F1EF2F924383B90297EB5D71755738FF037D100FAA1 SWAP2 PUSH2 0x1157 PUSH1 0x20 SWAP3 PUSH2 0x1130 PUSH2 0x1A0F JUMP JUMPDEST PUSH1 0x1 DUP1 PUSH1 0xA0 SHL SUB AND SWAP5 DUP6 PUSH1 0x0 MSTORE PUSH1 0x2 DUP5 MSTORE PUSH1 0x40 PUSH1 0x0 KECCAK256 SWAP1 PUSH1 0xFF DUP1 NOT DUP4 SLOAD AND SWAP2 ISZERO ISZERO AND OR SWAP1 SSTORE JUMP JUMPDEST PUSH1 0x40 MLOAD SWAP1 DUP2 MSTORE LOG2 STOP JUMPDEST CALLVALUE PUSH2 0x1AD JUMPI PUSH1 0x20 CALLDATASIZE PUSH1 0x3 NOT ADD SLT PUSH2 0x1AD JUMPI PUSH2 0x1179 PUSH2 0x1980 JUMP JUMPDEST PUSH1 0xE SLOAD PUSH4 0xFFFFFFFF SWAP1 DUP2 DUP4 AND LT ISZERO PUSH2 0x6AA JUMPI DUP1 PUSH2 0x1197 PUSH1 0xA0 SWAP4 PUSH2 0x1E37 JUMP JUMPDEST SWAP5 SWAP4 SWAP6 SWAP1 SWAP3 PUSH1 0x40 MLOAD SWAP7 ISZERO ISZERO DUP8 MSTORE AND PUSH1 0x20 DUP7 ADD MSTORE PUSH1 0x3 SIGNEXTEND PUSH1 0x40 DUP6 ADD MSTORE AND PUSH1 0x60 DUP4 ADD MSTORE PUSH1 0x3 SIGNEXTEND PUSH1 0x80 DUP3 ADD MSTORE RETURN JUMPDEST CALLVALUE PUSH2 0x1AD JUMPI PUSH1 0x60 CALLDATASIZE PUSH1 0x3 NOT ADD SLT PUSH2 0x1AD JUMPI PUSH2 0x11DB PUSH2 0x1980 JUMP JUMPDEST PUSH2 0x11E3 PUSH2 0x1993 JUMP JUMPDEST PUSH1 0x44 CALLDATALOAD SWAP2 PUSH4 0xFFFFFFFF SWAP3 DUP4 DUP2 AND DUP1 SWAP2 SUB PUSH2 0x1AD JUMPI DUP1 ISZERO DUP1 DUP2 ISZERO SWAP2 DUP3 PUSH2 0x145C JUMPI JUMPDEST PUSH2 0x1432 JUMPI SWAP1 PUSH2 0x1444 JUMPI JUMPDEST PUSH2 0x1432 JUMPI PUSH1 0xE SLOAD SWAP3 DUP5 DUP4 AND SWAP4 DUP5 LT ISZERO PUSH2 0x6AA JUMPI PUSH2 0x1229 DUP4 PUSH2 0x19BC JUMP JUMPDEST POP SWAP4 PUSH1 0x3 SWAP5 DUP6 DUP2 ADD SLOAD TIMESTAMP GT SWAP1 DUP2 ISZERO PUSH2 0x1422 JUMPI JUMPDEST POP PUSH2 0x6AA JUMPI PUSH2 0x124A DUP5 PUSH2 0x19BC JUMP JUMPDEST POP SWAP6 DUP2 PUSH1 0x0 MSTORE PUSH1 0x20 PUSH1 0xC DUP2 MSTORE PUSH1 0x40 PUSH1 0x0 KECCAK256 DUP6 PUSH1 0x0 MSTORE DUP2 MSTORE PUSH1 0xFF PUSH1 0x40 PUSH1 0x0 KECCAK256 SLOAD AND PUSH2 0x1410 JUMPI PUSH1 0x0 SWAP7 PUSH1 0x0 SWAP5 PUSH1 0x1 SWAP1 DUP2 DUP12 ADD DUP6 DUP2 SLOAD SWAP3 AND SWAP8 JUMPDEST DUP3 DUP2 LT PUSH2 0x13D9 JUMPI JUMPDEST POP POP POP SWAP1 SWAP2 SWAP3 SWAP4 SWAP5 SWAP6 SWAP7 SWAP8 ISZERO PUSH2 0xBBE JUMPI PUSH2 0x138E SWAP9 PUSH32 0x1918CD6E2704E854C925442CA2CAA9EF7187126224A112077220E8316519D66 SWAP5 DUP9 PUSH1 0x0 MSTORE PUSH1 0x6 DUP6 MSTORE PUSH1 0x40 PUSH1 0x0 KECCAK256 SLOAD DUP5 SIGNEXTEND SWAP3 PUSH1 0x0 DUP5 SLT PUSH2 0x13D0 JUMPI JUMPDEST SWAP2 PUSH1 0x4 SWAP2 PUSH2 0x135C SWAP4 DUP10 PUSH1 0x0 MSTORE PUSH1 0xC DUP9 MSTORE PUSH1 0x40 PUSH1 0x0 KECCAK256 DUP13 PUSH1 0x0 MSTORE DUP9 MSTORE PUSH1 0x40 PUSH1 0x0 KECCAK256 SWAP1 PUSH1 0xFF NOT DUP3 SLOAD AND OR SWAP1 SSTORE DUP10 PUSH1 0x0 MSTORE PUSH1 0xB DUP8 MSTORE PUSH1 0x40 PUSH1 0x0 KECCAK256 SWAP1 DUP2 SLOAD SWAP1 PUSH2 0x1320 DUP8 DUP4 DUP11 SIGNEXTEND PUSH2 0x1AB7 JUMP JUMPDEST AND SWAP1 PUSH4 0xFFFFFFFF NOT AND OR SWAP1 SSTORE ADD PUSH2 0x133D DUP4 DUP3 SLOAD PUSH1 0x48 SHR DUP7 SIGNEXTEND PUSH2 0x1AB7 JUMP JUMPDEST DUP2 SLOAD SWAP1 PUSH1 0x48 SHL PUSH4 0xFFFFFFFF PUSH1 0x48 SHL AND SWAP1 PUSH4 0xFFFFFFFF PUSH1 0x48 SHL NOT AND OR SWAP1 SSTORE JUMP JUMPDEST PUSH2 0x1365 DUP9 PUSH2 0x19BC JUMP JUMPDEST POP DUP8 PUSH1 0x0 MSTORE PUSH1 0x6 DUP5 MSTORE PUSH1 0x40 PUSH1 0x0 KECCAK256 SLOAD DUP4 SIGNEXTEND PUSH1 0x0 DUP2 SGT PUSH2 0x1390 JUMPI JUMPDEST POP POP PUSH1 0x40 MLOAD SWAP2 SIGNEXTEND DUP2 MSTORE LOG4 PUSH2 0x1BE9 JUMP JUMPDEST STOP JUMPDEST PUSH2 0x13A7 PUSH1 0x4 PUSH2 0x13C9 SWAP4 ADD SWAP2 DUP3 SLOAD PUSH1 0x68 SHR DUP7 SIGNEXTEND PUSH2 0x1A98 JUMP JUMPDEST DUP2 SLOAD PUSH1 0x68 SWAP2 SWAP1 SWAP2 SHL PUSH4 0xFFFFFFFF PUSH1 0x68 SHL AND PUSH4 0xFFFFFFFF PUSH1 0x68 SHL NOT SWAP1 SWAP2 AND OR SWAP1 SSTORE JUMP JUMPDEST DUP10 DUP1 PUSH2 0x137F JUMP JUMPDEST PUSH1 0x0 SWAP4 POP PUSH2 0x12D9 JUMP JUMPDEST DUP9 DUP8 PUSH2 0x13E5 DUP4 DUP6 PUSH2 0x1B2C JUMP JUMPDEST SWAP1 SLOAD SWAP1 DUP9 SHL SHR AND EQ PUSH2 0x13FF JUMPI PUSH2 0x13FA SWAP1 PUSH2 0x1A67 JUMP JUMPDEST PUSH2 0x1281 JUMP JUMPDEST POP SWAP2 SWAP10 POP DUP10 SWAP2 POP DUP12 SWAP1 POP DUP1 DUP1 PUSH2 0x1289 JUMP JUMPDEST PUSH1 0x40 MLOAD PUSH4 0x2CEA4A91 PUSH1 0xE1 SHL DUP2 MSTORE PUSH1 0x4 SWAP1 REVERT JUMPDEST PUSH1 0xFF SWAP2 POP PUSH1 0x4 ADD SLOAD AND ISZERO DUP8 PUSH2 0x123C JUMP JUMPDEST PUSH1 0x40 MLOAD PUSH4 0x4217947B PUSH1 0xE0 SHL DUP2 MSTORE PUSH1 0x4 SWAP1 REVERT JUMPDEST POP CALLER PUSH1 0x0 MSTORE PUSH1 0x4 PUSH1 0x20 MSTORE DUP4 PUSH1 0x40 PUSH1 0x0 KECCAK256 SLOAD AND ISZERO PUSH2 0x120D JUMP JUMPDEST POP PUSH1 0x0 DUP4 DUP2 MSTORE PUSH1 0x3 PUSH1 0x20 MSTORE PUSH1 0x40 SWAP1 KECCAK256 SLOAD PUSH1 0x1 PUSH1 0x1 PUSH1 0xA0 SHL SUB AND ISZERO PUSH2 0x1203 JUMP JUMPDEST CALLVALUE PUSH2 0x1AD JUMPI PUSH1 0x20 CALLDATASIZE PUSH1 0x3 NOT ADD SLT PUSH2 0x1AD JUMPI PUSH2 0x1494 PUSH2 0x1980 JUMP JUMPDEST PUSH1 0xE SLOAD PUSH4 0xFFFFFFFF DUP3 AND LT ISZERO PUSH2 0x6AA JUMPI PUSH2 0x14AD SWAP1 PUSH2 0x19BC JUMP JUMPDEST POP PUSH4 0xFFFFFFFF DUP2 SLOAD AND SWAP1 PUSH1 0x2 DUP2 ADD SLOAD SWAP1 PUSH1 0x3 DUP2 ADD SLOAD PUSH1 0x4 DUP3 ADD SLOAD SWAP1 PUSH1 0x40 MLOAD SWAP4 DUP5 DUP6 PUSH1 0x20 PUSH1 0x1 DUP8 ADD SLOAD SWAP3 DUP4 DUP2 MSTORE ADD PUSH1 0x1 DUP2 SWAP8 ADD PUSH1 0x0 MSTORE PUSH1 0x20 PUSH1 0x0 KECCAK256 SWAP3 PUSH1 0x0 SWAP1 JUMPDEST DUP1 PUSH1 0x7 DUP4 ADD LT PUSH2 0x168B JUMPI PUSH2 0x1542 SWAP5 SLOAD SWAP2 DUP2 DUP2 LT PUSH2 0x1674 JUMPI JUMPDEST DUP2 DUP2 LT PUSH2 0x165B JUMPI JUMPDEST DUP2 DUP2 LT PUSH2 0x1641 JUMPI JUMPDEST DUP2 DUP2 LT PUSH2 0x1627 JUMPI JUMPDEST DUP2 DUP2 LT PUSH2 0x160D JUMPI JUMPDEST DUP2 DUP2 LT PUSH2 0x15F3 JUMPI JUMPDEST DUP2 DUP2 LT PUSH2 0x15D9 JUMPI JUMPDEST LT PUSH2 0x15CB JUMPI JUMPDEST POP SUB DUP7 PUSH2 0x1A76 JUMP JUMPDEST PUSH1 0x40 MLOAD SWAP5 PUSH2 0x100 DUP1 DUP8 ADD SWAP8 DUP8 MSTORE PUSH1 0x20 DUP8 ADD MSTORE MLOAD DUP1 SWAP7 MSTORE PUSH2 0x120 DUP6 ADD SWAP4 PUSH1 0x0 SWAP7 JUMPDEST DUP1 DUP9 LT PUSH2 0x15AD JUMPI POP POP DUP5 SWAP6 POP PUSH1 0x40 DUP6 ADD MSTORE PUSH1 0x60 DUP5 ADD MSTORE PUSH1 0xFF DUP2 AND ISZERO ISZERO PUSH1 0x80 DUP5 ADD MSTORE PUSH4 0xFFFFFFFF DUP2 PUSH1 0x8 SHR AND PUSH1 0xA0 DUP5 ADD MSTORE DUP1 PUSH1 0x28 SHR PUSH1 0x3 SIGNEXTEND PUSH1 0xC0 DUP5 ADD MSTORE PUSH1 0x48 SHR PUSH1 0x3 SIGNEXTEND PUSH1 0xE0 DUP4 ADD MSTORE SUB SWAP1 RETURN JUMPDEST SWAP1 SWAP5 PUSH1 0x20 DUP1 PUSH1 0x1 SWAP3 PUSH4 0xFFFFFFFF DUP10 MLOAD AND DUP2 MSTORE ADD SWAP7 ADD SWAP8 ADD SWAP7 SWAP1 PUSH2 0x1562 JUMP JUMPDEST PUSH1 0xE0 SHR DUP2 MSTORE PUSH1 0x20 ADD DUP10 PUSH2 0x153A JUMP JUMPDEST SWAP3 PUSH1 0x20 PUSH1 0x1 SWAP2 PUSH4 0xFFFFFFFF DUP6 PUSH1 0xC0 SHR AND DUP2 MSTORE ADD SWAP4 ADD PUSH2 0x1534 JUMP JUMPDEST SWAP3 PUSH1 0x20 PUSH1 0x1 SWAP2 PUSH4 0xFFFFFFFF DUP6 PUSH1 0xA0 SHR AND DUP2 MSTORE ADD SWAP4 ADD PUSH2 0x152C JUMP JUMPDEST SWAP3 PUSH1 0x20 PUSH1 0x1 SWAP2 PUSH4 0xFFFFFFFF DUP6 PUSH1 0x80 SHR AND DUP2 MSTORE ADD SWAP4 ADD PUSH2 0x1524 JUMP JUMPDEST SWAP3 PUSH1 0x20 PUSH1 0x1 SWAP2 PUSH4 0xFFFFFFFF DUP6 PUSH1 0x60 SHR AND DUP2 MSTORE ADD SWAP4 ADD PUSH2 0x151C JUMP JUMPDEST SWAP3 PUSH1 0x20 PUSH1 0x1 SWAP2 PUSH4 0xFFFFFFFF DUP6 PUSH1 0x40 SHR AND DUP2 MSTORE ADD SWAP4 ADD PUSH2 0x1514 JUMP JUMPDEST SWAP3 PUSH1 0x20 PUSH1 0x1 SWAP2 PUSH4 0xFFFFFFFF DUP6 DUP4 SHR AND DUP2 MSTORE ADD SWAP4 ADD PUSH2 0x150C JUMP JUMPDEST SWAP3 PUSH1 0x20 PUSH1 0x1 SWAP2 PUSH4 0xFFFFFFFF DUP6 AND DUP2 MSTORE ADD SWAP4 ADD PUSH2 0x1504 JUMP JUMPDEST SWAP2 PUSH1 0x8 SWAP2 SWAP4 POP PUSH2 0x100 PUSH1 0x1 SWAP2 DUP7 SLOAD PUSH4 0xFFFFFFFF DUP2 AND DUP3 MSTORE PUSH4 0xFFFFFFFF DUP2 PUSH1 0x20 SHR AND PUSH1 0x20 DUP4 ADD MSTORE PUSH4 0xFFFFFFFF DUP2 PUSH1 0x40 SHR AND PUSH1 0x40 DUP4 ADD MSTORE PUSH1 0x60 PUSH4 0xFFFFFFFF DUP3 DUP3 SHR AND SWAP1 DUP4 ADD MSTORE PUSH1 0x80 PUSH4 0xFFFFFFFF DUP3 DUP3 SHR AND SWAP1 DUP4 ADD MSTORE PUSH1 0xA0 PUSH4 0xFFFFFFFF DUP3 DUP3 SHR AND SWAP1 DUP4 ADD MSTORE PUSH1 0xC0 PUSH4 0xFFFFFFFF DUP3 DUP3 SHR AND SWAP1 DUP4 ADD MSTORE PUSH1 0xE0 SHR PUSH1 0xE0 DUP3 ADD MSTORE ADD SWAP5 ADD SWAP3 ADD DUP9 SWAP3 SWAP4 SWAP2 PUSH2 0x14EC JUMP JUMPDEST CALLVALUE PUSH2 0x1AD JUMPI PUSH1 0x0 CALLDATASIZE PUSH1 0x3 NOT ADD SLT PUSH2 0x1AD JUMPI PUSH1 0x20 PUSH4 0xFFFFFFFF PUSH1 0x9 SLOAD AND PUSH1 0x40 MLOAD SWAP1 DUP2 MSTORE RETURN JUMPDEST CALLVALUE PUSH2 0x1AD JUMPI PUSH1 0x40 CALLDATASIZE PUSH1 0x3 NOT ADD SLT PUSH2 0x1AD JUMPI PUSH2 0x174F PUSH2 0x1980 JUMP JUMPDEST PUSH1 0x24 CALLDATALOAD PUSH1 0x1 PUSH1 0x1 PUSH1 0xA0 SHL SUB DUP2 DUP2 AND SWAP2 DUP3 SWAP1 SUB PUSH2 0x1AD JUMPI PUSH4 0xFFFFFFFF DUP1 SWAP4 AND SWAP3 DUP4 ISZERO DUP1 ISZERO PUSH2 0x195D JUMPI JUMPDEST PUSH2 0x1432 JUMPI DUP3 PUSH1 0x0 MSTORE PUSH1 0x20 SWAP1 PUSH1 0x4 DUP3 MSTORE PUSH1 0x40 PUSH1 0x0 KECCAK256 SLOAD AND DUP5 DUP2 ISZERO ISZERO SWAP2 DUP3 PUSH2 0x1952 JUMPI JUMPDEST POP POP PUSH2 0x1940 JUMPI PUSH1 0x0 SWAP4 SWAP3 SWAP4 JUMPDEST DUP4 PUSH1 0x0 MSTORE PUSH1 0x5 DUP3 MSTORE PUSH1 0x40 PUSH1 0x0 KECCAK256 DUP1 SLOAD DUP3 LT ISZERO PUSH2 0x17F8 JUMPI SWAP5 DUP4 PUSH2 0x17C8 DUP4 DUP4 SWAP8 SWAP9 PUSH2 0x19F7 JUMP JUMPDEST SWAP1 SLOAD SWAP1 PUSH1 0x3 SHL SHR AND EQ PUSH2 0x17E6 JUMPI PUSH2 0x17DE SWAP1 PUSH2 0x1A67 JUMP JUMPDEST SWAP4 SWAP3 SWAP4 PUSH2 0x17A4 JUMP JUMPDEST PUSH1 0x40 MLOAD PUSH4 0xDBC20101 PUSH1 0xE0 SHL DUP2 MSTORE PUSH1 0x4 SWAP1 REVERT JUMPDEST POP POP DUP3 PUSH1 0x0 MSTORE PUSH1 0x3 DUP2 MSTORE PUSH1 0x40 PUSH1 0x0 KECCAK256 DUP5 DUP2 SLOAD DUP5 DUP2 AND ISZERO PUSH2 0x192B JUMPI JUMPDEST POP SWAP1 POP PUSH1 0x0 MSTORE PUSH1 0x4 DUP2 MSTORE PUSH1 0x40 PUSH1 0x0 KECCAK256 DUP4 PUSH4 0xFFFFFFFF NOT DUP3 SLOAD AND OR SWAP1 SSTORE DUP3 PUSH1 0x0 MSTORE PUSH1 0x5 DUP2 MSTORE PUSH1 0x40 PUSH1 0x0 KECCAK256 SWAP1 DUP2 SLOAD PUSH1 0x1 PUSH1 0x40 SHL DUP2 LT ISZERO PUSH2 0x694 JUMPI PUSH2 0x185D SWAP1 PUSH1 0x1 SWAP5 SWAP4 DUP6 DUP3 ADD DUP2 SSTORE PUSH2 0x19F7 JUMP JUMPDEST DUP2 SLOAD SWAP1 PUSH1 0x3 SHL SWAP1 DUP5 DUP9 DUP4 SHL SWAP3 SHL NOT AND OR SWAP1 SSTORE DUP4 PUSH1 0x0 MSTORE PUSH1 0x5 DUP2 MSTORE PUSH1 0x40 PUSH1 0x0 KECCAK256 SWAP2 PUSH1 0x40 MLOAD SWAP4 DUP5 DUP4 DUP6 SLOAD SWAP2 DUP3 DUP2 MSTORE ADD SWAP1 DUP2 SWAP6 PUSH1 0x0 MSTORE DUP5 PUSH1 0x0 KECCAK256 SWAP1 PUSH1 0x0 JUMPDEST DUP2 DUP2 LT PUSH2 0x1916 JUMPI POP POP POP DUP6 PUSH2 0x18AE SWAP2 SUB DUP7 PUSH2 0x1A76 JUMP JUMPDEST PUSH1 0x40 MLOAD SWAP5 PUSH1 0x40 DUP7 ADD SWAP1 PUSH1 0x40 DUP8 MSTORE MLOAD DUP1 SWAP2 MSTORE PUSH1 0x60 DUP7 ADD SWAP5 SWAP3 PUSH1 0x0 SWAP1 JUMPDEST DUP3 DUP3 LT PUSH2 0x18FF JUMPI TIMESTAMP DUP7 DUP10 ADD MSTORE DUP10 DUP10 PUSH32 0x504C1B327C80C9D798B28A7007229C5354EB1631358603AFC867608554E3E937 DUP11 DUP11 SUB DUP12 LOG3 STOP JUMPDEST DUP5 MLOAD DUP2 AND DUP8 MSTORE SWAP6 DUP6 ADD SWAP6 SWAP4 DUP6 ADD SWAP4 SWAP1 DUP4 ADD SWAP1 PUSH2 0x18C9 JUMP JUMPDEST DUP3 SLOAD DUP7 AND DUP5 MSTORE SWAP3 DUP7 ADD SWAP3 SWAP2 DUP5 ADD SWAP2 DUP5 ADD PUSH2 0x1898 JUMP JUMPDEST PUSH1 0x1 PUSH1 0x1 PUSH1 0xA0 SHL SUB NOT AND OR SWAP1 SSTORE DUP5 DUP5 DUP2 PUSH2 0x1813 JUMP JUMPDEST PUSH1 0x40 MLOAD PUSH4 0x248FC32D PUSH1 0xE1 SHL DUP2 MSTORE PUSH1 0x4 SWAP1 REVERT JUMPDEST EQ ISZERO SWAP1 POP DUP5 DUP7 PUSH2 0x1798 JUMP JUMPDEST POP DUP3 ISZERO PUSH2 0x1777 JUMP JUMPDEST CALLVALUE PUSH2 0x1AD JUMPI PUSH1 0x0 CALLDATASIZE PUSH1 0x3 NOT ADD SLT PUSH2 0x1AD JUMPI PUSH1 0x20 PUSH2 0x1A2 PUSH2 0x1B97 JUMP JUMPDEST PUSH1 0x4 CALLDATALOAD SWAP1 PUSH4 0xFFFFFFFF DUP3 AND DUP3 SUB PUSH2 0x1AD JUMPI JUMP JUMPDEST PUSH1 0x24 CALLDATALOAD SWAP1 PUSH4 0xFFFFFFFF DUP3 AND DUP3 SUB PUSH2 0x1AD JUMPI JUMP JUMPDEST PUSH1 0x4 CALLDATALOAD SWAP1 PUSH1 0x1 PUSH1 0x1 PUSH1 0xA0 SHL SUB DUP3 AND DUP3 SUB PUSH2 0x1AD JUMPI JUMP JUMPDEST PUSH1 0xE SLOAD DUP2 LT ISZERO PUSH2 0xBA8 JUMPI PUSH1 0x5 SWAP1 PUSH1 0xE PUSH1 0x0 MSTORE MUL PUSH32 0xBB7B4A454DC3493923482F07822329ED19E8244EFF582CC204F8554C3620C3FD ADD SWAP1 PUSH1 0x0 SWAP1 JUMP JUMPDEST DUP1 SLOAD DUP3 LT ISZERO PUSH2 0xBA8 JUMPI PUSH1 0x0 MSTORE PUSH1 0x20 PUSH1 0x0 KECCAK256 ADD SWAP1 PUSH1 0x0 SWAP1 JUMP JUMPDEST PUSH1 0x1 SLOAD PUSH1 0x1 PUSH1 0x1 PUSH1 0xA0 SHL SUB AND CALLER SUB PUSH2 0x1A23 JUMPI JUMP JUMPDEST PUSH1 0x64 PUSH1 0x40 MLOAD PUSH3 0x461BCD PUSH1 0xE5 SHL DUP2 MSTORE PUSH1 0x20 PUSH1 0x4 DUP3 ADD MSTORE PUSH1 0x20 PUSH1 0x24 DUP3 ADD MSTORE PUSH32 0x4F776E61626C653A2063616C6C6572206973206E6F7420746865206F776E6572 PUSH1 0x44 DUP3 ADD MSTORE REVERT JUMPDEST PUSH1 0x0 NOT DUP2 EQ PUSH2 0xB92 JUMPI PUSH1 0x1 ADD SWAP1 JUMP JUMPDEST SWAP1 PUSH1 0x1F DUP1 NOT SWAP2 ADD AND DUP2 ADD SWAP1 DUP2 LT PUSH8 0xFFFFFFFFFFFFFFFF DUP3 GT OR PUSH2 0x694 JUMPI PUSH1 0x40 MSTORE JUMP JUMPDEST PUSH1 0x3 SWAP2 DUP3 SIGNEXTEND SWAP2 SIGNEXTEND SUB SWAP1 PUSH4 0x7FFFFFFF NOT DUP3 SLT PUSH4 0x7FFFFFFF DUP4 SGT OR PUSH2 0xB92 JUMPI JUMP JUMPDEST SWAP1 PUSH1 0x3 SIGNEXTEND SWAP1 PUSH1 0x3 SIGNEXTEND ADD SWAP1 PUSH4 0x7FFFFFFF NOT DUP3 SLT PUSH4 0x7FFFFFFF DUP4 SGT OR PUSH2 0xB92 JUMPI JUMP JUMPDEST DUP1 SLOAD ISZERO PUSH2 0xBA8 JUMPI PUSH1 0x0 MSTORE PUSH1 0x20 PUSH1 0x0 KECCAK256 SWAP1 PUSH1 0x0 SWAP1 JUMP JUMPDEST SWAP1 PUSH1 0x9 SLOAD DUP3 LT ISZERO PUSH2 0xBA8 JUMPI PUSH1 0x9 PUSH1 0x0 MSTORE PUSH1 0x1C DUP3 PUSH1 0x3 SHR PUSH32 0x6E1540171B6C0C960B71A7020D9F60077F6AF931A8BBF590DA0223DACF75C7AF ADD SWAP3 PUSH1 0x2 SHL AND SWAP1 JUMP JUMPDEST SWAP2 SWAP1 SWAP2 DUP1 SLOAD DUP4 LT ISZERO PUSH2 0xBA8 JUMPI PUSH1 0x0 MSTORE PUSH1 0x1C PUSH1 0x20 PUSH1 0x0 KECCAK256 DUP4 PUSH1 0x3 SHR ADD SWAP3 PUSH1 0x2 SHL AND SWAP1 JUMP JUMPDEST PUSH1 0xE SLOAD DUP1 ISZERO PUSH2 0x1B90 JUMPI PUSH1 0x0 NOT SWAP1 DUP1 DUP3 ADD SWAP1 DUP2 GT PUSH2 0xB92 JUMPI PUSH2 0x1B6F SWAP1 PUSH2 0x19BC JUMP JUMPDEST POP PUSH1 0x4 DUP2 ADD SLOAD PUSH1 0xFF AND ISZERO PUSH2 0x1B8C JUMPI PUSH4 0xFFFFFFFF SWAP2 POP SLOAD AND PUSH1 0x3 SIGNEXTEND SWAP1 JUMP JUMPDEST POP SWAP1 JUMP JUMPDEST POP PUSH1 0x0 NOT SWAP1 JUMP JUMPDEST PUSH4 0xFFFFFFFF PUSH1 0x9 SLOAD AND DUP1 ISZERO PUSH2 0x1BE3 JUMPI PUSH1 0x7 SLOAD PUSH1 0x3 SIGNEXTEND SWAP1 PUSH1 0x3 SIGNEXTEND SWAP1 DUP2 ISZERO PUSH2 0x1BCD JUMPI PUSH4 0x7FFFFFFF NOT DUP2 EQ PUSH1 0x0 NOT DUP4 EQ AND PUSH2 0xB92 JUMPI SDIV SWAP1 JUMP JUMPDEST PUSH4 0x4E487B71 PUSH1 0xE0 SHL PUSH1 0x0 MSTORE PUSH1 0x12 PUSH1 0x4 MSTORE PUSH1 0x24 PUSH1 0x0 REVERT JUMPDEST POP PUSH1 0x0 SWAP1 JUMP JUMPDEST PUSH2 0x1BF2 DUP2 PUSH2 0x19BC JUMP JUMPDEST POP SWAP1 PUSH1 0x2 PUSH1 0x1 DUP4 ADD SLOAD LT PUSH2 0x1D3B JUMPI PUSH2 0x1C09 DUP2 PUSH2 0x1D3F JUMP JUMPDEST SWAP2 SWAP3 SWAP1 POP PUSH4 0xFFFFFFFF DUP1 DUP3 AND SWAP6 DUP7 ISZERO PUSH2 0x1D32 JUMPI PUSH1 0x4 ADD SWAP3 PUSH2 0x1C33 DUP5 SLOAD SWAP2 DUP3 PUSH1 0x68 SHR PUSH1 0x3 SIGNEXTEND SWAP1 PUSH2 0x1AB7 JUMP JUMPDEST PUSH1 0x3 SIGNEXTEND SWAP3 DUP6 PUSH1 0x3 SIGNEXTEND SWAP4 DUP5 SGT PUSH2 0x1C4D JUMPI JUMPDEST POP POP POP POP POP POP POP POP JUMP JUMPDEST PUSH1 0x28 SWAP6 SWAP1 SWAP6 SHL PUSH4 0xFFFFFFFF PUSH1 0x28 SHL AND PUSH1 0x8 SWAP6 SWAP1 SWAP6 SHL PUSH5 0xFFFFFFFF00 AND PUSH9 0xFFFFFFFFFFFFFFFFFF NOT SWAP2 SWAP1 SWAP2 AND OR SWAP4 SWAP1 SWAP4 OR DUP3 SSTORE PUSH32 0x2B056A7F2AE4DFEC88DC5458429E82A178C97E5019B817058AE7DCD455DA9E85 SWAP3 PUSH1 0x20 SWAP3 PUSH32 0x927C9E56334FB93DD5737AE42E2909DDFB6632A711A67AE5DEA72DA99A35219D SWAP1 DUP5 SWAP1 DUP4 SWAP1 PUSH1 0xFF NOT DUP11 PUSH1 0x0 MSTORE PUSH1 0xA DUP5 MSTORE PUSH1 0x1 PUSH1 0x40 PUSH1 0x0 KECCAK256 SWAP2 DUP3 SLOAD AND OR SWAP1 SSTORE SLOAD PUSH1 0x8 SHR AND SWAP3 PUSH1 0x40 MLOAD SWAP8 AND SWAP7 DUP8 DUP2 MSTORE LOG2 DUP5 DUP5 PUSH32 0x6FB21C4C14810CEB320306EDA3D07C6738412088C17A66604AFE100AE599B182 DUP5 PUSH1 0x40 MLOAD DUP6 DUP2 MSTORE LOG3 PUSH1 0x40 MLOAD SWAP1 DUP2 MSTORE LOG3 CODESIZE DUP1 DUP1 DUP1 DUP1 DUP1 DUP1 DUP1 PUSH2 0x1C43 JUMP JUMPDEST POP POP POP POP POP POP POP JUMP JUMPDEST POP POP JUMP JUMPDEST PUSH2 0x1D4A PUSH1 0x1 SWAP2 PUSH2 0x19BC JUMP JUMPDEST POP ADD DUP1 SLOAD SWAP1 DUP2 ISZERO PUSH2 0x1E27 JUMPI PUSH2 0x1D61 DUP2 SWAP4 SWAP3 SWAP4 PUSH2 0x1AD7 JUMP JUMPDEST SWAP3 SWAP1 SWAP2 PUSH4 0xFFFFFFFF DUP1 SWAP4 SLOAD PUSH1 0x3 SWAP6 DUP7 SHL SHR AND SWAP1 PUSH1 0x0 SWAP6 DUP3 DUP8 MSTORE PUSH1 0xB SWAP6 PUSH1 0x20 DUP8 DUP2 MSTORE PUSH1 0x40 DUP1 DUP11 KECCAK256 SLOAD DUP4 SIGNEXTEND SWAP10 DUP1 SWAP10 DUP2 SWAP10 PUSH1 0x1 SWAP8 JUMPDEST DUP8 DUP10 LT PUSH2 0x1DA9 JUMPI POP POP POP POP POP POP POP POP POP SWAP4 SWAP3 SWAP2 SWAP1 JUMP JUMPDEST SWAP1 SWAP2 SWAP3 SWAP4 SWAP5 SWAP6 SWAP7 SWAP8 SWAP13 SWAP12 SWAP9 DUP13 SWAP10 DUP4 DUP16 PUSH2 0x1DC2 SWAP1 DUP6 PUSH2 0x1B2C JUMP JUMPDEST SWAP1 SLOAD SWAP1 DUP12 SHL SHR AND SWAP13 DUP14 DUP8 MSTORE DUP6 DUP10 MSTORE DUP8 DUP8 KECCAK256 SLOAD DUP11 SIGNEXTEND SWAP12 DUP11 SIGNEXTEND DUP13 SGT PUSH1 0x0 EQ PUSH2 0x1DFE JUMPI POP POP PUSH2 0x1DF1 SWAP1 SWAP13 SWAP12 SWAP10 SWAP14 PUSH2 0x1A67 JUMP JUMPDEST SWAP8 SWAP7 SWAP6 SWAP5 SWAP4 SWAP3 SWAP2 SWAP1 PUSH2 0x1D93 JUMP JUMPDEST SWAP13 SWAP14 SWAP15 SWAP2 SWAP11 SWAP1 SWAP14 DUP14 DUP11 SIGNEXTEND DUP3 SGT PUSH2 0x1E1A JUMPI JUMPDEST POP POP PUSH2 0x1DF1 SWAP1 PUSH2 0x1A67 JUMP JUMPDEST SWAP14 POP SWAP12 POP PUSH2 0x1DF1 CODESIZE PUSH2 0x1E0F JUMP JUMPDEST POP POP PUSH1 0x0 SWAP1 PUSH1 0x0 SWAP1 PUSH1 0x0 SWAP1 PUSH1 0x0 SWAP1 JUMP JUMPDEST PUSH2 0x1E40 DUP2 PUSH2 0x19BC JUMP JUMPDEST POP SWAP1 PUSH1 0x2 PUSH1 0x1 DUP4 ADD SLOAD LT PUSH2 0x1E82 JUMPI SWAP1 PUSH2 0x1E73 SWAP3 PUSH2 0x1E5E PUSH1 0x4 SWAP4 PUSH2 0x1D3F JUMP JUMPDEST SWAP4 SWAP3 SWAP7 SWAP2 SWAP6 SWAP1 SWAP5 ADD SLOAD PUSH1 0x68 SHR PUSH1 0x3 SIGNEXTEND DUP4 PUSH2 0x1AB7 JUMP JUMPDEST PUSH1 0x3 SIGNEXTEND DUP5 PUSH1 0x3 SIGNEXTEND SGT SWAP5 SWAP4 SWAP3 SWAP2 SWAP1 JUMP JUMPDEST POP POP PUSH1 0x0 SWAP1 PUSH1 0x0 SWAP1 PUSH1 0x0 SWAP1 PUSH1 0x0 SWAP1 PUSH1 0x0 SWAP1 JUMP INVALID PUSH19 0x194F756300FFF6BFC1D45660DA70048BE350DC BYTE 0xAD DUP7 0x4B SWAP3 DUP1 STATICCALL PUSH22 0xC3FF696CA264697066735822122098CBF30F3BE4E6AD 0x29 ADD 0xD9 0xE0 NOT 0xB3 DUP5 CALL 0xE9 INVALID SWAP2 JUMPI SWAP4 0xBE 0xF 0xE3 LOG4 EQ 0x2A PUSH16 0xCA5C4FCA64736F6C6343000813003300 "},"methodIdentifiers":{"REPUTATION_GAIN_BY_COVERING_LOAN()":"d5be8c4a","REPUTATION_GAIN_BY_REPAYNG_DEBT()":"4e5ecf13","REPUTATION_LOSS_BY_DEBT_NOT_PAYD()":"a5118bf1","addCandidate(uint32,uint32)":"5d090176","authorizedCallers(address)":"536fff6c","checkUnbeatableMajority(uint32)":"315f7760","closeElection(uint32)":"4b45e00f","elections(uint256)":"5e6fef01","getActiveMemberCount()":"22faa41f","getAverageReputation()":"0fc19c78","getCandidateVotes(uint32)":"70574c4b","getCurrentElectionId()":"fe2b536b","getElectionInfo(uint32)":"232775c3","getMemberId(address)":"c269014b","getReputation(uint32)":"81db2284","hasMemberVoted(uint32,uint32)":"1f7f505c","hasVotedInElection(uint32,uint32)":"b3f8df40","isMemberActive(uint32)":"9734ed62","isModerator(uint32)":"b1cc1f8f","isWalletVinculated(address)":"598a562a","memberReputation(uint32)":"4a57c6d0","moderatorVotesReceived(uint32)":"8450a681","openElection(uint32,uint32)":"5346ee19","owner()":"8da5cb5b","renounceOwnership()":"715018a6","reputationChange(uint32,int32,bool)":"533dfa35","setAuthorizedCaller(address,bool)":"454bbd29","totalPotentialVotes()":"a6f587ac","transferOwnership(address)":"f2fde38b","vinculationMemberToWallet(uint32,address)":"21bb31e4","voteForModerator(uint32,uint32,uint32)":"244ad967","walletToMemberId(address)":"4698c2d5","walletsOfMember(uint32,uint256)":"df91be18"}}}}}