{"contracts/LoanMachine.sol":{"LoanMachine":{"abi":[{"inputs":[{"internalType":"address","name":"_usdtToken","type":"address"},{"internalType":"address","name":"_reputationSystem","type":"address"}],"stateMutability":"nonpayable","type":"constructor"},{"inputs":[],"name":"LoanMachine_BorrowNotExpired","type":"error"},{"inputs":[],"name":"LoanMachine_CheckIntervalNotYetPassed","type":"error"},{"inputs":[],"name":"LoanMachine_ExcessiveDonation","type":"error"},{"inputs":[],"name":"LoanMachine_InsufficientDonationBalance","type":"error"},{"inputs":[],"name":"LoanMachine_InsufficientFunds","type":"error"},{"inputs":[],"name":"LoanMachine_InsufficientWithdrawableBalance","type":"error"},{"inputs":[],"name":"LoanMachine_IntervalOfPaymentAboveLimit","type":"error"},{"inputs":[],"name":"LoanMachine_InvalidAmount","type":"error"},{"inputs":[],"name":"LoanMachine_InvalidCoveragePercentage","type":"error"},{"inputs":[],"name":"LoanMachine_InvalidParcelsCount","type":"error"},{"inputs":[],"name":"LoanMachine_LoanNotAvailable","type":"error"},{"inputs":[],"name":"LoanMachine_MaxLoanRequisitionPendingReached","type":"error"},{"inputs":[],"name":"LoanMachine_MemberIdOrWalletInvalid","type":"error"},{"inputs":[],"name":"LoanMachine_MinimumDonationRequired","type":"error"},{"inputs":[],"name":"LoanMachine_MinimumPercentageCover","type":"error"},{"inputs":[],"name":"LoanMachine_NoActiveBorrowing","type":"error"},{"inputs":[],"name":"LoanMachine_NotLoanRequisitionCreator","type":"error"},{"inputs":[],"name":"LoanMachine_OnlyBorrowerCanCancelRequisition","type":"error"},{"inputs":[],"name":"LoanMachine_OverCoverage","type":"error"},{"inputs":[],"name":"LoanMachine_ParcelAlreadyPaid","type":"error"},{"inputs":[],"name":"LoanMachine_RepaymentExceedsBorrowed","type":"error"},{"inputs":[],"name":"LoanMachine_RequisitionAlreadyActive","type":"error"},{"inputs":[],"name":"LoanMachine_RequisitionAlreadyFullyCovered","type":"error"},{"inputs":[],"name":"LoanMachine_RequisitionNotCancellable","type":"error"},{"inputs":[],"name":"LoanMachine_RequisitionNotFound","type":"error"},{"inputs":[],"name":"LoanMachine_TokenTransferFailed","type":"error"},{"inputs":[],"name":"LoanMachine_WalletAlreadyVinculated","type":"error"},{"anonymous":false,"inputs":[{"indexed":false,"internalType":"uint256","name":"total","type":"uint256"}],"name":"AvailableBalanceUpdated","type":"event"},{"anonymous":false,"inputs":[{"indexed":true,"internalType":"address","name":"borrower","type":"address"}],"name":"BorrowLimitReached","type":"event"},{"anonymous":false,"inputs":[{"indexed":true,"internalType":"address","name":"borrower","type":"address"},{"indexed":false,"internalType":"uint256","name":"amount","type":"uint256"},{"indexed":false,"internalType":"uint256","name":"totalBorrowing","type":"uint256"}],"name":"Borrowed","type":"event"},{"anonymous":false,"inputs":[{"indexed":true,"internalType":"uint256","name":"requisitionId","type":"uint256"},{"indexed":true,"internalType":"address","name":"borrower","type":"address"}],"name":"BorrowerDebtSettled","type":"event"},{"anonymous":false,"inputs":[{"indexed":true,"internalType":"uint256","name":"requisitionId","type":"uint256"},{"indexed":true,"internalType":"address","name":"borrower","type":"address"},{"indexed":false,"internalType":"uint256","name":"dueDate","type":"uint256"}],"name":"BorrowerOverdue","type":"event"},{"anonymous":false,"inputs":[{"indexed":true,"internalType":"address","name":"donor","type":"address"},{"indexed":false,"internalType":"uint256","name":"amount","type":"uint256"},{"indexed":false,"internalType":"uint256","name":"totalDonation","type":"uint256"}],"name":"Donated","type":"event"},{"anonymous":false,"inputs":[{"indexed":true,"internalType":"uint256","name":"requisitionId","type":"uint256"},{"indexed":true,"internalType":"address","name":"lender","type":"address"},{"indexed":false,"internalType":"uint256","name":"amount","type":"uint256"}],"name":"LenderRepaid","type":"event"},{"anonymous":false,"inputs":[{"indexed":true,"internalType":"uint256","name":"requisitionId","type":"uint256"}],"name":"LoanCompleted","type":"event"},{"anonymous":false,"inputs":[{"indexed":true,"internalType":"address","name":"walletAddress","type":"address"},{"indexed":true,"internalType":"uint256","name":"requisitionId","type":"uint256"},{"indexed":false,"internalType":"enum ILoanMachine.ContractStatus","name":"status","type":"uint8"},{"indexed":false,"internalType":"uint32","name":"parcelsPending","type":"uint32"},{"indexed":false,"internalType":"uint256","name":"parcelsValues","type":"uint256"},{"indexed":false,"internalType":"uint256[]","name":"paymentDates","type":"uint256[]"},{"indexed":false,"internalType":"uint256","name":"creationTime","type":"uint256"}],"name":"LoanContractGenerated","type":"event"},{"anonymous":false,"inputs":[{"indexed":true,"internalType":"uint256","name":"requisitionId","type":"uint256"},{"indexed":true,"internalType":"address","name":"lender","type":"address"},{"indexed":false,"internalType":"uint256","name":"coverageAmount","type":"uint256"}],"name":"LoanCovered","type":"event"},{"anonymous":false,"inputs":[{"indexed":true,"internalType":"uint256","name":"requisitionId","type":"uint256"}],"name":"LoanFunded","type":"event"},{"anonymous":false,"inputs":[{"indexed":true,"internalType":"uint256","name":"requisitionId","type":"uint256"},{"indexed":true,"internalType":"address","name":"borrower","type":"address"},{"indexed":false,"internalType":"uint256","name":"amount","type":"uint256"},{"indexed":false,"internalType":"uint32","name":"parcelsCount","type":"uint32"},{"indexed":false,"internalType":"enum ILoanMachine.BorrowStatus","name":"status","type":"uint8"}],"name":"LoanRequisitionCreatedCancelled","type":"event"},{"anonymous":false,"inputs":[{"indexed":true,"internalType":"uint256","name":"requisitionId","type":"uint256"},{"indexed":true,"internalType":"address","name":"lender","type":"address"},{"indexed":false,"internalType":"uint256","name":"amountReturnedToLender","type":"uint256"}],"name":"LoanUncovered","type":"event"},{"anonymous":false,"inputs":[{"indexed":true,"internalType":"address","name":"borrower","type":"address"}],"name":"NewBorrower","type":"event"},{"anonymous":false,"inputs":[{"indexed":true,"internalType":"address","name":"donor","type":"address"}],"name":"NewDonor","type":"event"},{"anonymous":false,"inputs":[{"indexed":true,"internalType":"uint256","name":"requisitionId","type":"uint256"},{"indexed":false,"internalType":"uint256","name":"parcelsRemaining","type":"uint256"}],"name":"ParcelPaid","type":"event"},{"anonymous":false,"inputs":[{"indexed":false,"internalType":"uint256","name":"itemsChecked","type":"uint256"},{"indexed":false,"internalType":"uint256","name":"nextIndex","type":"uint256"}],"name":"PeriodicCheckRun","type":"event"},{"anonymous":false,"inputs":[{"indexed":true,"internalType":"address","name":"borrower","type":"address"},{"indexed":false,"internalType":"uint256","name":"amount","type":"uint256"},{"indexed":false,"internalType":"uint256","name":"remainingDebt","type":"uint256"}],"name":"Repaid","type":"event"},{"anonymous":false,"inputs":[{"indexed":false,"internalType":"uint256","name":"total","type":"uint256"}],"name":"TotalBorrowedUpdated","type":"event"},{"anonymous":false,"inputs":[{"indexed":false,"internalType":"uint256","name":"total","type":"uint256"}],"name":"TotalDonationsUpdated","type":"event"},{"anonymous":false,"inputs":[{"indexed":true,"internalType":"address","name":"donor","type":"address"},{"indexed":false,"internalType":"uint256","name":"amount","type":"uint256"},{"indexed":false,"internalType":"uint256","name":"donations","type":"uint256"}],"name":"Withdrawn","type":"event"},{"inputs":[],"name":"CHECK_INTERVAL","outputs":[{"internalType":"uint256","name":"","type":"uint256"}],"stateMutability":"view","type":"function"},{"inputs":[{"internalType":"address","name":"","type":"address"},{"internalType":"uint256","name":"","type":"uint256"}],"name":"borrowerRequisitions","outputs":[{"internalType":"uint256","name":"","type":"uint256"}],"stateMutability":"view","type":"function"},{"inputs":[{"internalType":"uint256","name":"requisitionId","type":"uint256"},{"internalType":"address","name":"borrower","type":"address"}],"name":"canPayRequisition","outputs":[{"internalType":"bool","name":"","type":"bool"}],"stateMutability":"view","type":"function"},{"inputs":[{"internalType":"address","name":"_user","type":"address"},{"internalType":"uint256","name":"_amount","type":"uint256"}],"name":"canUserBorrow","outputs":[{"internalType":"bool","name":"","type":"bool"}],"stateMutability":"view","type":"function"},{"inputs":[{"internalType":"uint256","name":"requisitionId","type":"uint256"},{"internalType":"uint32","name":"memberId","type":"uint32"}],"name":"cancelLoanRequisition","outputs":[{"internalType":"uint256","name":"totalUncoveredAmount","type":"uint256"}],"stateMutability":"nonpayable","type":"function"},{"inputs":[{"internalType":"uint256","name":"requisitionId","type":"uint256"},{"internalType":"uint32","name":"coveragePercentage","type":"uint32"},{"internalType":"uint32","name":"memberId","type":"uint32"}],"name":"coverLoan","outputs":[],"stateMutability":"nonpayable","type":"function"},{"inputs":[{"internalType":"uint256","name":"amount","type":"uint256"},{"internalType":"uint32","name":"minimumCoverage","type":"uint32"},{"internalType":"uint32","name":"parcelscount","type":"uint32"},{"internalType":"uint32","name":"memberId","type":"uint32"},{"internalType":"uint32","name":"daysIntervalOfPayment","type":"uint32"}],"name":"createLoanRequisition","outputs":[{"internalType":"uint256","name":"","type":"uint256"}],"stateMutability":"nonpayable","type":"function"},{"inputs":[{"internalType":"uint256","name":"","type":"uint256"}],"name":"debtWatchlist","outputs":[{"internalType":"uint256","name":"requisitionId","type":"uint256"},{"internalType":"address","name":"borrower","type":"address"},{"internalType":"uint256","name":"nextDueDate","type":"uint256"},{"internalType":"bool","name":"isOverdue","type":"bool"}],"stateMutability":"view","type":"function"},{"inputs":[{"internalType":"uint256","name":"amount","type":"uint256"},{"internalType":"uint32","name":"memberId","type":"uint32"}],"name":"donate","outputs":[],"stateMutability":"nonpayable","type":"function"},{"inputs":[{"internalType":"address","name":"borrower","type":"address"}],"name":"getActiveLoans","outputs":[{"components":[{"internalType":"address","name":"walletAddress","type":"address"},{"internalType":"uint256","name":"requisitionId","type":"uint256"},{"internalType":"enum ILoanMachine.ContractStatus","name":"status","type":"uint8"},{"internalType":"uint32","name":"parcelsCount","type":"uint32"},{"internalType":"uint32","name":"parcelsPending","type":"uint32"},{"internalType":"uint256","name":"parcelsValues","type":"uint256"},{"internalType":"uint256[]","name":"paymentDates","type":"uint256[]"},{"internalType":"uint256[]","name":"parcelsAmounts","type":"uint256[]"},{"internalType":"uint256","name":"creationTime","type":"uint256"}],"internalType":"struct ILoanMachine.LoanContract[]","name":"activeLoans","type":"tuple[]"},{"internalType":"uint256[]","name":"requisitionIds","type":"uint256[]"}],"stateMutability":"view","type":"function"},{"inputs":[{"internalType":"address","name":"user","type":"address"}],"name":"getAllowance","outputs":[{"internalType":"uint256","name":"","type":"uint256"}],"stateMutability":"view","type":"function"},{"inputs":[],"name":"getAvailableBalance","outputs":[{"internalType":"uint256","name":"","type":"uint256"}],"stateMutability":"view","type":"function"},{"inputs":[],"name":"getAvailableBorrowAmount","outputs":[{"internalType":"uint256","name":"","type":"uint256"}],"stateMutability":"view","type":"function"},{"inputs":[{"internalType":"address","name":"borrower","type":"address"}],"name":"getBorrowerRequisitions","outputs":[{"internalType":"uint256[]","name":"","type":"uint256[]"}],"stateMutability":"view","type":"function"},{"inputs":[{"internalType":"address","name":"_user","type":"address"}],"name":"getBorrowing","outputs":[{"internalType":"uint256","name":"","type":"uint256"}],"stateMutability":"view","type":"function"},{"inputs":[],"name":"getContractBalance","outputs":[{"internalType":"uint256","name":"","type":"uint256"}],"stateMutability":"view","type":"function"},{"inputs":[{"internalType":"uint256","name":"requisitionId","type":"uint256"}],"name":"getCoveringLenders","outputs":[{"internalType":"address[]","name":"","type":"address[]"}],"stateMutability":"view","type":"function"},{"inputs":[],"name":"getDebtWatchlist","outputs":[{"components":[{"internalType":"uint256","name":"requisitionId","type":"uint256"},{"internalType":"address","name":"borrower","type":"address"},{"internalType":"uint256","name":"nextDueDate","type":"uint256"},{"internalType":"bool","name":"isOverdue","type":"bool"}],"internalType":"struct LoanMachine.DebtWatchItem[]","name":"","type":"tuple[]"}],"stateMutability":"view","type":"function"},{"inputs":[{"internalType":"address","name":"_user","type":"address"}],"name":"getDonation","outputs":[{"internalType":"uint256","name":"","type":"uint256"}],"stateMutability":"view","type":"function"},{"inputs":[{"internalType":"address","name":"lender","type":"address"}],"name":"getDonationsInCoverage","outputs":[{"internalType":"uint256","name":"","type":"uint256"}],"stateMutability":"view","type":"function"},{"inputs":[{"internalType":"address","name":"_user","type":"address"}],"name":"getLastBorrowTime","outputs":[{"internalType":"uint256","name":"","type":"uint256"}],"stateMutability":"view","type":"function"},{"inputs":[{"internalType":"uint256","name":"requisitionId","type":"uint256"},{"internalType":"address","name":"lender","type":"address"}],"name":"getLenderCoverage","outputs":[{"internalType":"uint256","name":"","type":"uint256"}],"stateMutability":"view","type":"function"},{"inputs":[{"internalType":"uint256","name":"requisitionId","type":"uint256"}],"name":"getLoanContract","outputs":[{"components":[{"internalType":"address","name":"walletAddress","type":"address"},{"internalType":"uint256","name":"requisitionId","type":"uint256"},{"internalType":"enum ILoanMachine.ContractStatus","name":"status","type":"uint8"},{"internalType":"uint32","name":"parcelsCount","type":"uint32"},{"internalType":"uint32","name":"parcelsPending","type":"uint32"},{"internalType":"uint256","name":"parcelsValues","type":"uint256"},{"internalType":"uint256[]","name":"paymentDates","type":"uint256[]"},{"internalType":"uint256[]","name":"parcelsAmounts","type":"uint256[]"},{"internalType":"uint256","name":"creationTime","type":"uint256"}],"internalType":"struct ILoanMachine.LoanContract","name":"","type":"tuple"}],"stateMutability":"view","type":"function"},{"inputs":[{"internalType":"address","name":"wallet","type":"address"}],"name":"getMemberId","outputs":[{"internalType":"uint32","name":"","type":"uint32"}],"stateMutability":"view","type":"function"},{"inputs":[{"internalType":"uint256","name":"requisitionId","type":"uint256"}],"name":"getNextPaymentAmount","outputs":[{"internalType":"uint256","name":"paymentAmount","type":"uint256"},{"internalType":"bool","name":"canPay","type":"bool"}],"stateMutability":"view","type":"function"},{"inputs":[{"internalType":"uint256","name":"requisitionId","type":"uint256"}],"name":"getPaymentDates","outputs":[{"internalType":"uint256[]","name":"","type":"uint256[]"}],"stateMutability":"view","type":"function"},{"inputs":[{"internalType":"uint256","name":"requisitionId","type":"uint256"}],"name":"getRepaymentSummary","outputs":[{"internalType":"uint256","name":"totalRemainingDebt","type":"uint256"},{"internalType":"uint256","name":"nextPaymentAmount","type":"uint256"},{"internalType":"uint256","name":"parcelsRemaining","type":"uint256"},{"internalType":"uint256","name":"totalParcels","type":"uint256"},{"internalType":"bool","name":"isActive","type":"bool"}],"stateMutability":"view","type":"function"},{"inputs":[{"internalType":"uint32","name":"memberId","type":"uint32"}],"name":"getReputation","outputs":[{"internalType":"int32","name":"","type":"int32"}],"stateMutability":"view","type":"function"},{"inputs":[{"internalType":"uint256","name":"requisitionId","type":"uint256"}],"name":"getRequisitionInfo","outputs":[{"components":[{"internalType":"uint256","name":"requisitionId","type":"uint256"},{"internalType":"address","name":"borrower","type":"address"},{"internalType":"uint256","name":"amount","type":"uint256"},{"internalType":"uint32","name":"minimumCoverage","type":"uint32"},{"internalType":"uint32","name":"currentCoverage","type":"uint32"},{"internalType":"enum ILoanMachine.BorrowStatus","name":"status","type":"uint8"},{"internalType":"uint256","name":"creationTime","type":"uint256"},{"internalType":"address[]","name":"coveringLenders","type":"address[]"},{"internalType":"uint32","name":"parcelsCount","type":"uint32"}],"internalType":"struct ILoanMachine.RequisitionInfo","name":"","type":"tuple"}],"stateMutability":"view","type":"function"},{"inputs":[],"name":"getTotalBorrowed","outputs":[{"internalType":"uint256","name":"","type":"uint256"}],"stateMutability":"view","type":"function"},{"inputs":[],"name":"getTotalDonations","outputs":[{"internalType":"uint256","name":"","type":"uint256"}],"stateMutability":"view","type":"function"},{"inputs":[],"name":"getUSDTBalance","outputs":[{"internalType":"uint256","name":"","type":"uint256"}],"stateMutability":"view","type":"function"},{"inputs":[{"internalType":"address","name":"user","type":"address"}],"name":"getWithdrawableBalance","outputs":[{"internalType":"uint256","name":"","type":"uint256"}],"stateMutability":"view","type":"function"},{"inputs":[{"internalType":"uint256","name":"requisitionId","type":"uint256"}],"name":"isBorrowerOverdue","outputs":[{"internalType":"bool","name":"","type":"bool"}],"stateMutability":"view","type":"function"},{"inputs":[{"internalType":"address","name":"wallet","type":"address"}],"name":"isWalletVinculated","outputs":[{"internalType":"bool","name":"","type":"bool"}],"stateMutability":"view","type":"function"},{"inputs":[],"name":"lastPeriodicCheckTimestamp","outputs":[{"internalType":"uint256","name":"","type":"uint256"}],"stateMutability":"view","type":"function"},{"inputs":[{"internalType":"uint256","name":"","type":"uint256"}],"name":"loanContracts","outputs":[{"internalType":"address","name":"walletAddress","type":"address"},{"internalType":"uint256","name":"requisitionId","type":"uint256"},{"internalType":"enum ILoanMachine.ContractStatus","name":"status","type":"uint8"},{"internalType":"uint32","name":"parcelsCount","type":"uint32"},{"internalType":"uint32","name":"parcelsPending","type":"uint32"},{"internalType":"uint256","name":"parcelsValues","type":"uint256"},{"internalType":"uint256","name":"creationTime","type":"uint256"}],"stateMutability":"view","type":"function"},{"inputs":[],"name":"nextCheckIndex","outputs":[{"internalType":"uint256","name":"","type":"uint256"}],"stateMutability":"view","type":"function"},{"inputs":[{"internalType":"uint256","name":"batchSize","type":"uint256"}],"name":"performPeriodicDebtCheck","outputs":[],"stateMutability":"nonpayable","type":"function"},{"inputs":[{"internalType":"uint256","name":"requisitionId","type":"uint256"},{"internalType":"uint256","name":"amount","type":"uint256"},{"internalType":"uint32","name":"memberId","type":"uint32"}],"name":"repay","outputs":[],"stateMutability":"nonpayable","type":"function"},{"inputs":[],"name":"reputationSystem","outputs":[{"internalType":"contract ReputationSystem","name":"","type":"address"}],"stateMutability":"view","type":"function"},{"inputs":[],"name":"requisitionCounter","outputs":[{"internalType":"uint256","name":"","type":"uint256"}],"stateMutability":"view","type":"function"},{"inputs":[],"name":"usdtToken","outputs":[{"internalType":"address","name":"","type":"address"}],"stateMutability":"view","type":"function"},{"inputs":[{"internalType":"uint32","name":"memberId","type":"uint32"},{"internalType":"address","name":"wallet","type":"address"}],"name":"vinculationMemberToWallet","outputs":[],"stateMutability":"nonpayable","type":"function"},{"inputs":[{"internalType":"uint256","name":"amount","type":"uint256"},{"internalType":"uint32","name":"memberId","type":"uint32"}],"name":"withdraw","outputs":[],"stateMutability":"nonpayable","type":"function"}],"evm":{"bytecode":{"linkReferences":{},"object":"60a034620000c957601f620039a438819003918201601f19168301916001600160401b03831184841017620000ce578084926040948552833981010312620000c9576200005a60206200005283620000e4565b9201620000e4565b60016000819055600d81905560809290925281546001600160a01b0319166001600160a01b039091161790556040516138aa9081620000fa823960805181818161073201528181610e0e01528181610f20015281816112940152818161164001528181611f9001526131040152f35b600080fd5b634e487b7160e01b600052604160045260246000fd5b51906001600160a01b0382168203620000c95756fe608080604052600436101561001357600080fd5b600090813560e01c9081630307c4a114612f0c5750806303d1a1a114612c64578063140c9ac4146129b95780631b70ba3e1461281f5780631beeafa51461255c57806321bb31e4146124dd578063232869fa14612459578063291c31a714611ddb5780632b31c022146123865780632f3b145814612264578063383ab2ef1461221c578063410a1d32146121e35780634e51c7df1461219957806350c9677f1461217b57806355c676161461215d578063598a562a146120de5780636145d1b714611ee25780636509a71014611eb5578063657eb03114611e7c5780636587eda114611e535780636ea33ceb14611e355780636f9fb98a14611417578063777c658f14611e175780637d52437a14611de0578063809dab6a14611ddb57806381db228414611d55578063827cc0e514611d1c578063843592d314611cf057806384ddf5ea14611cd25780638a914a6314611c905780639059f9ca146114815780639730872a1461141c5780639785fac81461141757806397c33519146113425780639e932011146112ec578063a4aace0f146112c3578063a98ad46c1461127e578063adceb101146111de578063be5eb580146111a5578063be7df8ed14611141578063c269014b146110bd578063e276392414610eb0578063e5a0bde414610e84578063eb5a662e14610dc55763ecb18b341461021057600080fd5b34610dc2576060366003190112610dc257610229613036565b63ffffffff610236613049565b169081158015610d57575b610d455763ffffffff8116158015610d35575b610d2357600963ffffffff82161115610d115761026f61335c565b6004358352600c6020526040832091600383015460ff8160401c166007811015610cfd578015159081610cf1575b50610cdf576102ba60649163ffffffff8086169160201c166131de565b11610ccd5760018301546001600160a01b031684526011602052604084205480610c98575b506102f463ffffffff831660028501546135ed565b92670de0b6b3a7640000938481029481860414901517156109f65768056bc75e2d630fffff84018411610c7057338552600660205268056bc75e2d6310000068056bc75e2d630fffff850104604086205410610c865733855260066020526040852061037768056bc75e2d6310000068056bc75e2d630fffff8701048254613542565b9055338552600f602052604085206103a668056bc75e2d6310000068056bc75e2d630fffff87010482546131de565b905563ffffffff831663ffffffff600383015460201c160163ffffffff8111610c70576103f390600383019067ffffffff0000000082549160201b169067ffffffff000000001916179055565b336000526006810160205260406000205415610c14575b3360005260068101602052604060002061043b68056bc75e2d6310000068056bc75e2d630fffff87010482546131de565b9055600381015463ffffffff811663ffffffff8260201c161015600014610bf7575060038101805460ff60401b19166802000000000000000017905560018054910154604051634698c2d560e01b81526001600160a01b0391821660048201529160209183916024918391165afa8015610bec5763ffffffff918691610bbd575b50168452601060209081526040808620805463ffffffff1916905560043580875260128352818720600c90935290862060018181015484546001600160a01b0319166001600160a01b039190911617845583019190915560028201805460ff198116825560078301805464ffffffffff19831660089190911b64ffffffff00169081178455905468ffffffffffffffffff199092161760289190911b68ffffffff00000000001617905590426006820155600282015463ffffffff600784015416926105888483613600565b8415610ba9576105978561363c565b92895b868110610b5757505060038401556007015460201c63ffffffff16875b8463ffffffff821610610afb57505060018060a01b0382541687526011602052600435604088205560018060a01b038254166002830154907f55939e2a4adb2163c21eb3bb2c850e8e82136aed8a9e5971f705f1188d05865e60038501549260068601549363ffffffff604051926106328460ff8316612f54565b60281c166020830152604082015260a0606082015261065760a0820160048801613682565b93608082015280600435940390a3865b838110610ad657505050506004358452600c6020526040842060018060a01b0360018201541690600281015482875260076020526106aa604088209182546131de565b90556106bc6002820154600a546131de565b600a556106cf6002820154600b54613542565b600b5581865260086020908152604080882042905560038301805460ff60401b1916680300000000000000001790556002830154905163a9059cbb60e01b81526001600160a01b038516600482015260248101919091529081806044810103818a7f00000000000000000000000000000000000000000000000000000000000000006001600160a01b03165af1908115610acb578791610a9c575b5015610a8a576004358652601260205260046040872001805415610a745760005260206000205460025460043588526003602052806040892055604051916107b1836133f9565b60043583528460208401526040830152876060830152600160401b811015610a60578060016107e39201600255613194565b919091610a4c577feae9cfbc77fdd40ca899f36b608256063b2bc9d8178b0220f7ad513e178d67309261086360409360036060856002965184556001840160018060a01b036020830151166bffffffffffffffffffffffff60a01b82541617905587810151878501550151151591019060ff801983541691151516179055565b015483885260076020528188205482519182526020820152a27f17f13fd3f7c4712af33f1770ebcb822dd20a2dbc00850eab48d786623d97b9596020600a54604051908152a16000805160206138558339815191526020600b54604051908152a16004357f9e71d2fb732e68272b7e74ecfd14638673c1d77e19a5d390a3ffff054d57c44b8580a25b600154604051636adf462560e11b81526001600160a01b0390911692602082600481875afa918215610a41578692610a0a575b5063ffffffff1660030b9060030b028060030b9081036109f65790829185933b156109f2576064849283600a95604051968795869463533dfa3560e01b865260048601520560030b6024840152600160448401525af180156109e7576109cf575b505068056bc75e2d6310000068056bc75e2d630fffff604051920104815233907f86b47e6e6c03d769c0bc5ffd06c682ea7d07089576d59230ec18ff64e71bffe7602060043592a36001815580f35b6109d8906133e5565b6109e3578138610980565b5080fd5b6040513d84823e3d90fd5b8380fd5b634e487b7160e01b85526011600452602485fd5b63ffffffff919250610a339060203d602011610a3a575b610a2b8183613415565b81019061358a565b919061091f565b503d610a21565b6040513d88823e3d90fd5b634e487b7160e01b88526004889052602488fd5b634e487b7160e01b88526041600452602488fd5b634e487b7160e01b600052603260045260246000fd5b604051637a97d71f60e01b8152600490fd5b610abe915060203d602011610ac4575b610ab68183613415565b8101906134d8565b3861076a565b503d610aac565b6040513d89823e3d90fd5b80610af1610ae7610af6938561366e565b51600586016135a3565b6131eb565b610667565b610b28610b1f610b1963ffffffff610b12856135d8565b16856135ed565b426131de565b600486016135a3565b63ffffffff80821614610b435763ffffffff166001016105b7565b634e487b7160e01b89526011600452602489fd5b868206811015610b9a5760018301808411610b865790610b8191610b7b828861366e565b526131eb565b61059a565b634e487b7160e01b8c52601160045260248cfd5b8083610b7b610b81938861366e565b634e487b7160e01b89526012600452602489fd5b610bdf915060203d602011610be5575b610bd78183613415565b810190613620565b386104bc565b503d610bcd565b6040513d87823e3d90fd5b600160401b60039168ff00000000000000001916179101556108ec565b6005810154600160401b811015610c5c57806001610c3b920160058401556005830161317c565b81546001600160a01b0360039290921b91821b19163390911b17905561040a565b634e487b7160e01b86526041600452602486fd5b634e487b7160e01b600052601160045260246000fd5b604051636044d4dd60e01b8152600490fd5b84526012602052610caf60066040862001546131ce565b4210610cbb57386102df565b6040516301bf0a1560e41b8152600490fd5b6040516311d9355160e01b8152600490fd5b60405163393e690960e11b8152600490fd5b6001915014153861029d565b634e487b7160e01b86526021600452602486fd5b6040516307314f9160e21b8152600490fd5b604051632819760f60e01b8152600490fd5b50606463ffffffff821611610254565b60405163584daf2560e01b8152600490fd5b50600154604051632cc52b1560e11b815233600482015290602090829060249082906001600160a01b03165afa908115610db7578491610d99575b5015610241565b610db1915060203d8111610ac457610ab68183613415565b38610d92565b6040513d86823e3d90fd5b80fd5b5034610dc25760209081600319360112610dc257604482610de4612f28565b604051636eb1769f60e11b81526001600160a01b03918216600482015230602482015292839182907f0000000000000000000000000000000000000000000000000000000000000000165afa918215610e785791610e46575b50604051908152f35b90508181813d8311610e71575b610e5d8183613415565b81010312610e6c575138610e3d565b600080fd5b503d610e53565b604051903d90823e3d90fd5b5034610dc2576020366003190112610dc257610e9e61335c565b610ea96004356131fa565b6001815580f35b5034610dc2576040366003190112610dc25760043563ffffffff610ed2613036565b16158015611052575b610d4557801561104157610eed61335c565b6040516323b872dd60e01b8152336004820152306024820152604481018290526020908181606481876001600160a01b037f0000000000000000000000000000000000000000000000000000000000000000165af1908115610db7578491611024575b5015610a8a576000805160206138558339815191529033845260068152604084207fdc6e73d4b36e22ab95945bd8833a5af96c950eb29d8d75c4aecffc987637aaab8282549580870184558060095401908160095580600b54019485600b5554604051918252838201527f4928895ba6723e8e27b15f32e4c3054a1b6c7f8c03f133558d6fa42b3928d14c60403392a2604051908152a1604051908152a115610ffa576001815580f35b337f072dafb6aabe3f02118bc607efbeaaa104d6b2009720c7b130f24ba418689c4b8280a2610ea9565b61103b9150823d8411610ac457610ab68183613415565b38610f50565b60405162d84c0f60e41b8152600490fd5b50600154604051632cc52b1560e11b815233600482015290602090829060249082906001600160a01b03165afa9081156110b2578391611094575b5015610edb565b6110ac915060203d8111610ac457610ab68183613415565b3861108d565b6040513d85823e3d90fd5b5034610dc2576020366003190112610dc2576110d7612f28565b60015460405163c269014b60e01b81526001600160a01b0392831660048201529160209183916024918391165afa9081156109e75760209291611124575b5063ffffffff60405191168152f35b61113b9150823d8111610be557610bd78183613415565b38611115565b5034610dc2576020366003190112610dc25760043590600254821015610dc257608061116c83613194565b5080549060018060a01b036001820154169060ff6003600283015492015416916040519384526020840152604083015215156060820152f35b5034610dc2576020366003190112610dc2576020906040906001600160a01b036111cd612f28565b168152600783522054604051908152f35b5034610dc2576040366003190112610dc2576111f8612f3e565b600435825260126020526040822080546001600160a01b03928316921691909114908161124c575b6020925081611235575b506040519015158152f35b63ffffffff91506002015460281c1615153861122a565b905060ff600282015416600381101561126a57602092501590611220565b634e487b7160e01b83526021600452602483fd5b5034610dc25780600319360112610dc2576040517f00000000000000000000000000000000000000000000000000000000000000006001600160a01b03168152602090f35b5034610dc2576020366003190112610dc25760206112e260043561344f565b6040519015158152f35b5034610dc2576040366003190112610dc257611306612f28565b6001600160a01b03168152600e6020526040812080546024359290831015610dc2576020611334848461317c565b90546040519160031b1c8152f35b5034610dc2576040366003190112610dc25760209061135f612f28565b9060243591821515928361140a575b50826113cf575b82611387575b50506040519015158152f35b6001600160a01b03168082526008845260408220549092506113a8906131ce565b42119182156113bb575b5050388061137b565b6040925081526007835220541538806113b2565b6001600160a01b0381168252600684526040822054909250620f4240118015906113fa575b91611375565b50600783526040812054156113f4565b600b54101592503861136e565b6130d7565b5034610dc2576020366003190112610dc25761147d9061146290611469906040906001600160a01b0361144d612f28565b168152600e6020522060405192838092613682565b0382613415565b604051918291602083526020830190612f77565b0390f35b5034610dc2576060366003190112610dc25763ffffffff6114a0613049565b1680158015611c30575b610d455760043582526012602052604082203383526007602052604083205415611c0a578054336001600160a01b0390911603611c0a576002015460ff81166003811015611c1c57611c0a5760281c63ffffffff1615611c0a5761150c61335c565b6024351561104157600435825260126020526040822061154b611542600283015463ffffffff808260281c169160081c16613506565b6004830161317c565b90549060031b1c600435845260036020528361156a6040822054613194565b5093824211600014611b125760015460405163a5118bf160e01b81526001600160a01b039091169190602081600481865afa908115610db7578491611af3575b50823b156109f2576064849283604051958694859363533dfa3560e01b8552600485015260030b60248401528160448401525af180156109e757611adf575b505060038301805460ff811615611a9d575b5050505b600381015460243503611041576040516323b872dd60e01b815233600482015230602480830191909152356044820152602081606481876001600160a01b037f0000000000000000000000000000000000000000000000000000000000000000165af1908115610db7578491611a7e575b5015610a8a5733835260076020526040832061168f6024358254613542565b905561169f602435600a54613542565b600a556116b0602435600b546131de565b600b556004358352600c6020526040832090600282015490845b60058401548110156117a557806116e7611728926005870161317c565b60018060a01b0391549060031b1c16806000526006860160205261171b856117166040600020546024356135ed565b613600565b8061172d575b50506131eb565b6116ca565b818952600f60205260408920805480831161179d575b8261174d91613542565b90558189526006602052604089206117668282546131de565b90556040519081527fe3e6ae1e05f069d410556743894aacbb190c1431962422ebe8fcc642a467dd16602060043592a33880611721565b915081611743565b8582866117e96117c163ffffffff600285015460281c166134f0565b600284019068ffffffff000000000082549160281b169068ffffffff00000000001916179055565b600282015463ffffffff8160281c16908115600014611a4057505050600260ff1981830154161760028201556004357f02ca5489b37dd363d1302bac719e8ee40e540ffbe8c12253570fea63e11cad718380a260043582526003602052604082205460025460001991908281019081116109f65780820361199d575b50506002548015611989570161187a81613194565b611975579160029184600385600063ffffffff97558260018201556000868201550155825560043584526003602052600060408520555b3384526007602052604084205460405190602435825260208201527f1b8cd61ed43bec7c6bdad3a18ffee613f99c853d16c50678d248d879e1b4343860403392a2015460281c166040519081527f406356ef25520b09e2ef87c5225167b4161ea4ab691e9434d6ee29eafcc83fc2602060043592a27f17f13fd3f7c4712af33f1770ebcb822dd20a2dbc00850eab48d786623d97b9596020600a54604051908152a16000805160206138558339815191526020600b54604051908152a16001815580f35b634e487b7160e01b84526004849052602484fd5b634e487b7160e01b84526031600452602484fd5b6119a690613194565b506119b082613194565b611a2c578181036119d1575b50548452600360205260408420558380611865565b611a2690825481556001810160018060a01b036001850154166bffffffffffffffffffffffff60a01b82541617905560028301546002820155600360ff818501541691019060ff801983541691151516179055565b856119bc565b634e487b7160e01b86526004869052602486fd5b600292611a66611a5d63ffffffff96948760039560081c16613506565b6004850161317c565b905490831b1c8185015501805460ff191690556118b1565b611a97915060203d602011610ac457610ab68183613415565b38611670565b60019060ff191617905560405190815233907fcf08cfd581ae48e3e5053c3ddad657750a872d827972a57ca253b1ab4748b0bc602060043592a33880806115fb565b611ae8906133e5565b6109f25783386115e9565b611b0c915060203d602011610a3a57610a2b8183613415565b386115aa565b600154604051634e5ecf1360e01b81529293506001600160a01b031691602081600481865afa908115610db7578491611beb575b50823b156109f2576064849283604051958694859363533dfa3560e01b8552600485015260030b6024840152600160448401525af180156109e757611bd3575b505060038201805460ff8116611b9e575b50506115ff565b60ff19169055336004357fedc092ccdf255fa12deee6517dd8e7f4e52f4194ef2112a5351a691c8daacc748580a33880611b97565b611bdc906133e5565b611be7578238611b86565b8280fd5b611c04915060203d602011610a3a57610a2b8183613415565b38611b46565b60405163c4967cf360e01b8152600490fd5b634e487b7160e01b84526021600452602484fd5b50600154604051632cc52b1560e11b815233600482015290602090829060249082906001600160a01b03165afa9081156110b2578391611c72575b50156114aa565b611c8a915060203d8111610ac457610ab68183613415565b38611c6b565b5034610dc2576020366003190112610dc257611cbe6005604061147d936004358152600c60205220016137fc565b60405191829160208352602083019061307c565b5034610dc25780600319360112610dc2576020600d54604051908152f35b5034610dc2576020366003190112610dc2576020611d14611d0f612f28565b61354f565b604051908152f35b5034610dc2576020366003190112610dc2576020906040906001600160a01b03611d44612f28565b168152600f83522054604051908152f35b5034610dc2576020366003190112610dc257611d6f61305c565b600154604051632076c8a160e21b815263ffffffff929092166004830152602090829060249082906001600160a01b03165afa9081156109e75760209291611dbe575b506040519060030b8152f35b611dd59150823d8111610a3a57610a2b8183613415565b38611db2565b6130b9565b5034610dc2576020366003190112610dc2576114626114696004604061147d94823581526012602052200160405192838092613682565b5034610dc25780600319360112610dc2576020600954604051908152f35b5034610dc25780600319360112610dc25760206040516213c6808152f35b5034610dc25780600319360112610dc2576001546040516001600160a01b039091168152602090f35b5034610dc2576020366003190112610dc2576020906040906001600160a01b03611ea4612f28565b168152600883522054604051908152f35b5034610dc2576020366003190112610dc2576040611ed46004356137ab565b825191825215156020820152f35b5034610dc2576040366003190112610dc25760043563ffffffff611f04613036565b1615801561207e575b610d4557801561104157611f1f61335c565b611f283361354f565b811161206c5733825260206006815260408320611f46838254613542565b9055611f5482600954613542565b600955611f6382600b54613542565b600b5560405163a9059cbb60e01b8152336004820152602481018390528181604481876001600160a01b037f0000000000000000000000000000000000000000000000000000000000000000165af1908115610db757849161204f575b5015610a8a5760008051602061385583398151915291338452600682526040842054604051918252828201527f92ccf450a286a957af52509bc1c9939d1a6a481783e142e41e2499f0bb66ebc660403392a27fdc6e73d4b36e22ab95945bd8833a5af96c950eb29d8d75c4aecffc987637aaab81600954604051908152a1600b54604051908152a16001815580f35b6120669150823d8411610ac457610ab68183613415565b38611fc0565b60405163dbee9d4f60e01b8152600490fd5b50600154604051632cc52b1560e11b815233600482015290602090829060249082906001600160a01b03165afa9081156110b25783916120c0575b5015611f0d565b6120d8915060203d8111610ac457610ab68183613415565b386120b9565b5034610dc2576020366003190112610dc2576120f8612f28565b600154604051632cc52b1560e11b81526001600160a01b0392831660048201529160209183916024918391165afa9081156109e7576020929161214057506040519015158152f35b6121579150823d8111610ac457610ab68183613415565b3861122a565b5034610dc25780600319360112610dc2576020600454604051908152f35b5034610dc25780600319360112610dc2576020600554604051908152f35b5034610dc2576040366003190112610dc257600660406121b7612f3e565b926004358152600c60205220019060018060a01b03166000526020526020604060002054604051908152f35b5034610dc2576020366003190112610dc2576020906040906001600160a01b0361220b612f28565b168152600683522054604051908152f35b5034610dc2576020366003190112610dc257612250604061147d9261223f6136bf565b506004358152601260205220613706565b604051918291602083526020830190612fab565b5034610dc25780600319360112610dc257600280549061228382613437565b6122906040519182613415565b82815260209283820180938087527f405787fa12a823e0f2b7631cc41b3ba8828b3321ca811111fa75cd3aa3bb5ace9087925b8484106123315750505050506040519280840191818552518092526040840192945b8281106122f25784840385f35b855180518552808301516001600160a01b03168584015260408082015190860152606090810151151590850152948101946080909301926001016122e5565b60048860019260409b9a98999b51612348816133f9565b86548152848060a01b0385880154168382015285870154604082015260ff6003880154161515606082015281520193019301929197959496976122c3565b5034610dc2576020366003190112610dc2576004358152601260205260408120600c602052604082209060028101549160ff83166003811015612445579360a0941580612433575b1561241a5750600363ffffffff809460281c169201549260076123f185856135ed565b949392015416906001925b60405194855260208501526040840152606083015215156080820152f35b60079091015490925082915063ffffffff1681806123fc565b5063ffffffff8460281c1615156123ce565b634e487b7160e01b85526021600452602485fd5b5034610dc2576020366003190112610dc257604060e091600435815260126020522060018060a01b03815416906001810154906002810154600660038301549201549260405194855260208501526124b76040850160ff8316612f54565b63ffffffff90818160081c16606086015260281c16608084015260a083015260c0820152f35b5034610dc2576040366003190112610dc2576124f761305c565b81612500612f3e565b60015490926001600160a01b0391821690813b156109f2578360449263ffffffff94604051978896879563086ecc7960e21b87521660048601521660248401525af180156109e757612550575080f35b612559906133e5565b80f35b5034610dc25760a0366003190112610dc2576004359061257a613036565b91612583613049565b60643563ffffffff93848216809203610dc2576084359480861691828703610dc25783815260209760108952600383604084205416101561280d57841580156127af575b610d4557861561104157821693604685118015906127a5575b610d23578286169360018510801561279b575b61278957601e1061277757600b54871161276557889733835260118952604083205480612731575b509260407f8ba1d57fc445f76a3bc884cc60cc8f95f647f54b02d9b1bf1be78ba0b0bfa768969361265c9896936126e060ff97600c600d549e8f9d8e6131eb565b600d558d8652528484206001810180546001600160a01b03191633179055600281018e905560038101805468ffffffffffffffffff19169099178955426004820155600781018054918e905567ffffffff000000001990981667ffffffffffffffff199091161760209190911b67ffffffff00000000161790955563ffffffff1994565b338252600e8d526126f38a8484206135a3565b815260108c5220918254916127098184166135d8565b1691161790555460401c169061272660405192839233978461351c565b0390a3604051908152f35b90969491939850829592526012895261275060066040872001546131ce565b4210610cbb579294918897923895929561261b565b604051633e285ff160e21b8152600490fd5b604051633631f31d60e01b8152600490fd5b60405163053ec95560e11b8152600490fd5b50600c85116125f3565b50606485116125e0565b50600154604051632cc52b1560e11b8152336004820152908a90829060249082906001600160a01b03165afa9081156110b25783916127f0575b50156125c7565b61280791508a3d8c11610ac457610ab68183613415565b386127e9565b6040516370c9ad1b60e11b8152600490fd5b5034610dc2576020366003190112610dc25780610100604051612841816133b2565b8281528260208201528260408201528260608201528260808201528260a08201528260c0820152606060e082015201526004358152600c602052604081209081549160018060a01b036001820154169160028201549060038301549063ffffffff60ff8360401c16926004860154948260078801541697604051996128c58b6133b2565b8a5260208a01526040890152818116606089015260201c16608087015260078210156129a5575060a085015260c0840152612902906005016137fc565b60e08301526101008201526040518091602082528051602083015260018060a01b0360208201511660408301526040810151606083015263ffffffff606082015116608083015263ffffffff60808201511660a083015261296b60a082015160c084019061306f565b60c081015160e083015260e081015163ffffffff61010061299961012093848388015261014087019061307c565b93015116908301520390f35b634e487b7160e01b81526021600452602490fd5b5034610dc2576040366003190112610dc2576129d3613036565b906129dc61335c565b63ffffffff8216158015612c04575b610d45576004358152600c602052604081206003810154606463ffffffff8260201c1614612bf2576001820154336001600160a01b0390911603612be05760401c60ff16600781101561126a5760038114908115612bd5575b50612bc3578190825b6005820154811015612b1157612a66816005840161317c565b905460039190911b1c6001600160a01b03168085526006830160205260408520549081612a9e575b5050612a99906131eb565b612a4d565b612acb82612a99949396600f602052604089208281540390556006602052604089208281540190556131de565b94818752600685016020528660408120556040519081527f03290469b25240cb85db34af1f3d3117d889b712a22ac0988f554f4f8e0ed919602060043592a39038612a8e565b5060209260019163ffffffff861682526010855260408220805463ffffffff612b3b8183166134f0565b169063ffffffff19161790556806000000000000000068ffffffffff0000000019600383015416178060038301557f8ba1d57fc445f76a3bc884cc60cc8f95f647f54b02d9b1bf1be78ba0b0bfa768612bb763ffffffff600760028601549501541693604051918291339660ff6004359760401c16918461351c565b0390a355604051908152f35b604051637023a7c560e11b8152600490fd5b600691501438612a44565b60405163c671f07960e01b8152600490fd5b6040516307d43ae160e31b8152600490fd5b50600154604051632cc52b1560e11b815233600482015290602090829060249082906001600160a01b03165afa9081156109e7578291612c46575b50156129eb565b612c5e915060203d8111610ac457610ab68183613415565b38612c3f565b5034610dc2576020806003193601126109e3576001600160a01b03919082612c8a612f28565b16808352600e8252604083208054849291835b828110612e635750612cae84613437565b93612cbc6040519586613415565b808552601f19612ccb82613437565b01875b818110612e44575050612ce09061363c565b968693875b848110612d645750505050505060405193849260408401604085528351809152606085018260608360051b880101950196905b828210612d34575050508361147d949550830390850152612f77565b9193955091938480612d52600193605f198c82030186528a51612fab565b98019201920187959391969492612d18565b612d7381859b99989a9b61317c565b9054600391821b1c8b52601288528960408c2084868254161480612e14575b80612dfe575b612db3575b505050612da9906131eb565b9897959698612ce5565b918891612dd0612da9959a612dca612df596613706565b9261366e565b52612ddb828d61366e565b50612de6898861317c565b9054911b1c610b7b828c61366e565b95908938612d9d565b5063ffffffff600282015460281c161515612d98565b50905060ff60028201541682811015612e3057908b9115612d92565b634e487b7160e01b8d52602160045260248dfd5b968096989997612e526136bf565b82828c010152019897959698612cce565b612e728183999796989961317c565b9054600391821b1c895260128652604089208588825416149182612edd575b5081612ec6575b50612eb1575b612ea7906131eb565b9695939496612c9d565b95612ebe612ea7916131eb565b969050612e9e565b63ffffffff91506002015460281c16151538612e98565b90915060ff60028301541690811015612ef857159038612e91565b634e487b7160e01b8a52602160045260248afd5b9050346109e357816003193601126109e357602090600a548152f35b600435906001600160a01b0382168203610e6c57565b602435906001600160a01b0382168203610e6c57565b906003821015612f615752565b634e487b7160e01b600052602160045260246000fd5b90815180825260208080930193019160005b828110612f97575050505090565b835185529381019392810192600101612f89565b9060018060a01b03825116815260208201516020820152612fd460408301516040830190612f54565b63ffffffff806060840151166060830152608083015116608082015260a082015160a082015261302861301660c08401516101208060c0860152840190612f77565b60e084015183820360e0850152612f77565b916101008091015191015290565b6024359063ffffffff82168203610e6c57565b6044359063ffffffff82168203610e6c57565b6004359063ffffffff82168203610e6c57565b906007821015612f615752565b90815180825260208080930193019160005b82811061309c575050505090565b83516001600160a01b03168552938101939281019260010161308e565b34610e6c576000366003190112610e6c576020600b54604051908152f35b34610e6c57600080600319360112610dc2576040516370a0823160e01b81523060048201526020816024817f00000000000000000000000000000000000000000000000000000000000000006001600160a01b03165afa9081156109e7578291613147575b602082604051908152f35b90506020813d8211613174575b8161316160209383613415565b810103126109e35760209150513861313c565b3d9150613154565b8054821015610a745760005260206000200190600090565b600254811015610a7457600260005260021b7f405787fa12a823e0f2b7631cc41b3ba8828b3321ca811111fa75cd3aa3bb5ace0190600090565b9062278d008201809211610c7057565b91908201809211610c7057565b6000198114610c705760010190565b600291825492831561335657600554916213c6808301809311610c7057600492835415908161334b575b5061333a57600094855b85871080613330575b156132e15761327961327f9161324d8754613194565b506003810180549060ff821615806132d5575b613285575b50505061327287546131eb565b87556131eb565b966131eb565b9561322e565b6001809260ff19161790557fcf08cfd581ae48e3e5053c3ddad657750a872d827972a57ca253b1ab4748b0bc60208984549360018060a01b039086015416940154604051908152a3388080613265565b50888301544211613260565b92506040939195507fb8ee613246caed01f690aebbf94b750e593f665c039c5b937631201512b63b97945081541015613323575b5482519182526020820152a1565b6000815542600555613315565b5081855410613237565b604051636410c90760e01b81528390fd5b905042111538613224565b50915050565b60026000541461336d576002600055565b60405162461bcd60e51b815260206004820152601f60248201527f5265656e7472616e637947756172643a207265656e7472616e742063616c6c006044820152606490fd5b610120810190811067ffffffffffffffff8211176133cf57604052565b634e487b7160e01b600052604160045260246000fd5b67ffffffffffffffff81116133cf57604052565b6080810190811067ffffffffffffffff8211176133cf57604052565b90601f8019910116810190811067ffffffffffffffff8211176133cf57604052565b67ffffffffffffffff81116133cf5760051b60200190565b600254158015613485575b61347f57600052600360205260ff6003613478604060002054613194565b5001541690565b50600090565b8160005260036020526040600020541590816134a2575b5061345a565b9050610a74576002600052807f405787fa12a823e0f2b7631cc41b3ba8828b3321ca811111fa75cd3aa3bb5ace5414153861349c565b90816020910312610e6c57518015158103610e6c5790565b63ffffffff9081166000190191908211610c7057565b63ffffffff9182169082160391908211610c7057565b60409063ffffffff613540949695939660608301978352166020820152019061306f565b565b91908203918211610c7057565b60018060a01b03166000526006602052604060002054600f60205260406000205480821161357e575050600090565b61358791613542565b90565b90816020910312610e6c57518060030b8103610e6c5790565b8054600160401b8110156133cf576135c09160018201815561317c565b819291549060031b91821b91600019901b1916179055565b90600163ffffffff80931601918211610c7057565b81810292918115918404141715610c7057565b811561360a570490565b634e487b7160e01b600052601260045260246000fd5b90816020910312610e6c575163ffffffff81168103610e6c5790565b9061364682613437565b6136536040519182613415565b8281528092613664601f1991613437565b0190602036910137565b8051821015610a745760209160051b010190565b90815480825260208092019260005281600020916000905b8282106136a8575050505090565b83548552938401936001938401939091019061369a565b604051906136cc826133b2565b816101006000918281528260208201528260408201528260608201528260808201528260a0820152606060c0820152606060e08201520152565b90604051613713816133b2565b82546001600160a01b03168152600183015460208201526002830154909283919060ff8216906003821015612f615761010092600692604086015263ffffffff90818160081c16606087015260281c166080850152600381015460a0850152604051613786816114628160048601613682565b60c085015260405161379f816114628160058601613682565b60e08501520154910152565b906000918252601260205260408220600281015460ff81166003811015612445571590816137e9575b506137de57508190565b600301549150600190565b63ffffffff915060281c161515386137d4565b9060405191828154918282526020928383019160005283600020936000905b8282106138315750505061354092500383613415565b85546001600160a01b03168452600195860195889550938101939091019061381b56fe8b094cca6f83d49402ce208cc0c224b76625ffc58636df56ae28024e704c5868a26469706673582212204d1c17e3e5bc0dfdec4a4e52db080042fa1a8185afc6788889062dfa2f1d553764736f6c63430008130033","opcodes":"PUSH1 0xA0 CALLVALUE PUSH3 0xC9 JUMPI PUSH1 0x1F PUSH3 0x39A4 CODESIZE DUP2 SWAP1 SUB SWAP2 DUP3 ADD PUSH1 0x1F NOT AND DUP4 ADD SWAP2 PUSH1 0x1 PUSH1 0x1 PUSH1 0x40 SHL SUB DUP4 GT DUP5 DUP5 LT OR PUSH3 0xCE JUMPI DUP1 DUP5 SWAP3 PUSH1 0x40 SWAP5 DUP6 MSTORE DUP4 CODECOPY DUP2 ADD SUB SLT PUSH3 0xC9 JUMPI PUSH3 0x5A PUSH1 0x20 PUSH3 0x52 DUP4 PUSH3 0xE4 JUMP JUMPDEST SWAP3 ADD PUSH3 0xE4 JUMP JUMPDEST PUSH1 0x1 PUSH1 0x0 DUP2 SWAP1 SSTORE PUSH1 0xD DUP2 SWAP1 SSTORE PUSH1 0x80 SWAP3 SWAP1 SWAP3 MSTORE DUP2 SLOAD PUSH1 0x1 PUSH1 0x1 PUSH1 0xA0 SHL SUB NOT AND PUSH1 0x1 PUSH1 0x1 PUSH1 0xA0 SHL SUB SWAP1 SWAP2 AND OR SWAP1 SSTORE PUSH1 0x40 MLOAD PUSH2 0x38AA SWAP1 DUP2 PUSH3 0xFA DUP3 CODECOPY PUSH1 0x80 MLOAD DUP2 DUP2 DUP2 PUSH2 0x732 ADD MSTORE DUP2 DUP2 PUSH2 0xE0E ADD MSTORE DUP2 DUP2 PUSH2 0xF20 ADD MSTORE DUP2 DUP2 PUSH2 0x1294 ADD MSTORE DUP2 DUP2 PUSH2 0x1640 ADD MSTORE DUP2 DUP2 PUSH2 0x1F90 ADD MSTORE PUSH2 0x3104 ADD MSTORE RETURN JUMPDEST PUSH1 0x0 DUP1 REVERT JUMPDEST PUSH4 0x4E487B71 PUSH1 0xE0 SHL PUSH1 0x0 MSTORE PUSH1 0x41 PUSH1 0x4 MSTORE PUSH1 0x24 PUSH1 0x0 REVERT JUMPDEST MLOAD SWAP1 PUSH1 0x1 PUSH1 0x1 PUSH1 0xA0 SHL SUB DUP3 AND DUP3 SUB PUSH3 0xC9 JUMPI JUMP INVALID PUSH1 0x80 DUP1 PUSH1 0x40 MSTORE PUSH1 0x4 CALLDATASIZE LT ISZERO PUSH2 0x13 JUMPI PUSH1 0x0 DUP1 REVERT JUMPDEST PUSH1 0x0 SWAP1 DUP2 CALLDATALOAD PUSH1 0xE0 SHR SWAP1 DUP2 PUSH4 0x307C4A1 EQ PUSH2 0x2F0C JUMPI POP DUP1 PUSH4 0x3D1A1A1 EQ PUSH2 0x2C64 JUMPI DUP1 PUSH4 0x140C9AC4 EQ PUSH2 0x29B9 JUMPI DUP1 PUSH4 0x1B70BA3E EQ PUSH2 0x281F JUMPI DUP1 PUSH4 0x1BEEAFA5 EQ PUSH2 0x255C JUMPI DUP1 PUSH4 0x21BB31E4 EQ PUSH2 0x24DD JUMPI DUP1 PUSH4 0x232869FA EQ PUSH2 0x2459 JUMPI DUP1 PUSH4 0x291C31A7 EQ PUSH2 0x1DDB JUMPI DUP1 PUSH4 0x2B31C022 EQ PUSH2 0x2386 JUMPI DUP1 PUSH4 0x2F3B1458 EQ PUSH2 0x2264 JUMPI DUP1 PUSH4 0x383AB2EF EQ PUSH2 0x221C JUMPI DUP1 PUSH4 0x410A1D32 EQ PUSH2 0x21E3 JUMPI DUP1 PUSH4 0x4E51C7DF EQ PUSH2 0x2199 JUMPI DUP1 PUSH4 0x50C9677F EQ PUSH2 0x217B JUMPI DUP1 PUSH4 0x55C67616 EQ PUSH2 0x215D JUMPI DUP1 PUSH4 0x598A562A EQ PUSH2 0x20DE JUMPI DUP1 PUSH4 0x6145D1B7 EQ PUSH2 0x1EE2 JUMPI DUP1 PUSH4 0x6509A710 EQ PUSH2 0x1EB5 JUMPI DUP1 PUSH4 0x657EB031 EQ PUSH2 0x1E7C JUMPI DUP1 PUSH4 0x6587EDA1 EQ PUSH2 0x1E53 JUMPI DUP1 PUSH4 0x6EA33CEB EQ PUSH2 0x1E35 JUMPI DUP1 PUSH4 0x6F9FB98A EQ PUSH2 0x1417 JUMPI DUP1 PUSH4 0x777C658F EQ PUSH2 0x1E17 JUMPI DUP1 PUSH4 0x7D52437A EQ PUSH2 0x1DE0 JUMPI DUP1 PUSH4 0x809DAB6A EQ PUSH2 0x1DDB JUMPI DUP1 PUSH4 0x81DB2284 EQ PUSH2 0x1D55 JUMPI DUP1 PUSH4 0x827CC0E5 EQ PUSH2 0x1D1C JUMPI DUP1 PUSH4 0x843592D3 EQ PUSH2 0x1CF0 JUMPI DUP1 PUSH4 0x84DDF5EA EQ PUSH2 0x1CD2 JUMPI DUP1 PUSH4 0x8A914A63 EQ PUSH2 0x1C90 JUMPI DUP1 PUSH4 0x9059F9CA EQ PUSH2 0x1481 JUMPI DUP1 PUSH4 0x9730872A EQ PUSH2 0x141C JUMPI DUP1 PUSH4 0x9785FAC8 EQ PUSH2 0x1417 JUMPI DUP1 PUSH4 0x97C33519 EQ PUSH2 0x1342 JUMPI DUP1 PUSH4 0x9E932011 EQ PUSH2 0x12EC JUMPI DUP1 PUSH4 0xA4AACE0F EQ PUSH2 0x12C3 JUMPI DUP1 PUSH4 0xA98AD46C EQ PUSH2 0x127E JUMPI DUP1 PUSH4 0xADCEB101 EQ PUSH2 0x11DE JUMPI DUP1 PUSH4 0xBE5EB580 EQ PUSH2 0x11A5 JUMPI DUP1 PUSH4 0xBE7DF8ED EQ PUSH2 0x1141 JUMPI DUP1 PUSH4 0xC269014B EQ PUSH2 0x10BD JUMPI DUP1 PUSH4 0xE2763924 EQ PUSH2 0xEB0 JUMPI DUP1 PUSH4 0xE5A0BDE4 EQ PUSH2 0xE84 JUMPI DUP1 PUSH4 0xEB5A662E EQ PUSH2 0xDC5 JUMPI PUSH4 0xECB18B34 EQ PUSH2 0x210 JUMPI PUSH1 0x0 DUP1 REVERT JUMPDEST CALLVALUE PUSH2 0xDC2 JUMPI PUSH1 0x60 CALLDATASIZE PUSH1 0x3 NOT ADD SLT PUSH2 0xDC2 JUMPI PUSH2 0x229 PUSH2 0x3036 JUMP JUMPDEST PUSH4 0xFFFFFFFF PUSH2 0x236 PUSH2 0x3049 JUMP JUMPDEST AND SWAP1 DUP2 ISZERO DUP1 ISZERO PUSH2 0xD57 JUMPI JUMPDEST PUSH2 0xD45 JUMPI PUSH4 0xFFFFFFFF DUP2 AND ISZERO DUP1 ISZERO PUSH2 0xD35 JUMPI JUMPDEST PUSH2 0xD23 JUMPI PUSH1 0x9 PUSH4 0xFFFFFFFF DUP3 AND GT ISZERO PUSH2 0xD11 JUMPI PUSH2 0x26F PUSH2 0x335C JUMP JUMPDEST PUSH1 0x4 CALLDATALOAD DUP4 MSTORE PUSH1 0xC PUSH1 0x20 MSTORE PUSH1 0x40 DUP4 KECCAK256 SWAP2 PUSH1 0x3 DUP4 ADD SLOAD PUSH1 0xFF DUP2 PUSH1 0x40 SHR AND PUSH1 0x7 DUP2 LT ISZERO PUSH2 0xCFD JUMPI DUP1 ISZERO ISZERO SWAP1 DUP2 PUSH2 0xCF1 JUMPI JUMPDEST POP PUSH2 0xCDF JUMPI PUSH2 0x2BA PUSH1 0x64 SWAP2 PUSH4 0xFFFFFFFF DUP1 DUP7 AND SWAP2 PUSH1 0x20 SHR AND PUSH2 0x31DE JUMP JUMPDEST GT PUSH2 0xCCD JUMPI PUSH1 0x1 DUP4 ADD SLOAD PUSH1 0x1 PUSH1 0x1 PUSH1 0xA0 SHL SUB AND DUP5 MSTORE PUSH1 0x11 PUSH1 0x20 MSTORE PUSH1 0x40 DUP5 KECCAK256 SLOAD DUP1 PUSH2 0xC98 JUMPI JUMPDEST POP PUSH2 0x2F4 PUSH4 0xFFFFFFFF DUP4 AND PUSH1 0x2 DUP6 ADD SLOAD PUSH2 0x35ED JUMP JUMPDEST SWAP3 PUSH8 0xDE0B6B3A7640000 SWAP4 DUP5 DUP2 MUL SWAP5 DUP2 DUP7 DIV EQ SWAP1 ISZERO OR ISZERO PUSH2 0x9F6 JUMPI PUSH9 0x56BC75E2D630FFFFF DUP5 ADD DUP5 GT PUSH2 0xC70 JUMPI CALLER DUP6 MSTORE PUSH1 0x6 PUSH1 0x20 MSTORE PUSH9 0x56BC75E2D63100000 PUSH9 0x56BC75E2D630FFFFF DUP6 ADD DIV PUSH1 0x40 DUP7 KECCAK256 SLOAD LT PUSH2 0xC86 JUMPI CALLER DUP6 MSTORE PUSH1 0x6 PUSH1 0x20 MSTORE PUSH1 0x40 DUP6 KECCAK256 PUSH2 0x377 PUSH9 0x56BC75E2D63100000 PUSH9 0x56BC75E2D630FFFFF DUP8 ADD DIV DUP3 SLOAD PUSH2 0x3542 JUMP JUMPDEST SWAP1 SSTORE CALLER DUP6 MSTORE PUSH1 0xF PUSH1 0x20 MSTORE PUSH1 0x40 DUP6 KECCAK256 PUSH2 0x3A6 PUSH9 0x56BC75E2D63100000 PUSH9 0x56BC75E2D630FFFFF DUP8 ADD DIV DUP3 SLOAD PUSH2 0x31DE JUMP JUMPDEST SWAP1 SSTORE PUSH4 0xFFFFFFFF DUP4 AND PUSH4 0xFFFFFFFF PUSH1 0x3 DUP4 ADD SLOAD PUSH1 0x20 SHR AND ADD PUSH4 0xFFFFFFFF DUP2 GT PUSH2 0xC70 JUMPI PUSH2 0x3F3 SWAP1 PUSH1 0x3 DUP4 ADD SWAP1 PUSH8 0xFFFFFFFF00000000 DUP3 SLOAD SWAP2 PUSH1 0x20 SHL AND SWAP1 PUSH8 0xFFFFFFFF00000000 NOT AND OR SWAP1 SSTORE JUMP JUMPDEST CALLER PUSH1 0x0 MSTORE PUSH1 0x6 DUP2 ADD PUSH1 0x20 MSTORE PUSH1 0x40 PUSH1 0x0 KECCAK256 SLOAD ISZERO PUSH2 0xC14 JUMPI JUMPDEST CALLER PUSH1 0x0 MSTORE PUSH1 0x6 DUP2 ADD PUSH1 0x20 MSTORE PUSH1 0x40 PUSH1 0x0 KECCAK256 PUSH2 0x43B PUSH9 0x56BC75E2D63100000 PUSH9 0x56BC75E2D630FFFFF DUP8 ADD DIV DUP3 SLOAD PUSH2 0x31DE JUMP JUMPDEST SWAP1 SSTORE PUSH1 0x3 DUP2 ADD SLOAD PUSH4 0xFFFFFFFF DUP2 AND PUSH4 0xFFFFFFFF DUP3 PUSH1 0x20 SHR AND LT ISZERO PUSH1 0x0 EQ PUSH2 0xBF7 JUMPI POP PUSH1 0x3 DUP2 ADD DUP1 SLOAD PUSH1 0xFF PUSH1 0x40 SHL NOT AND PUSH9 0x20000000000000000 OR SWAP1 SSTORE PUSH1 0x1 DUP1 SLOAD SWAP2 ADD SLOAD PUSH1 0x40 MLOAD PUSH4 0x4698C2D5 PUSH1 0xE0 SHL DUP2 MSTORE PUSH1 0x1 PUSH1 0x1 PUSH1 0xA0 SHL SUB SWAP2 DUP3 AND PUSH1 0x4 DUP3 ADD MSTORE SWAP2 PUSH1 0x20 SWAP2 DUP4 SWAP2 PUSH1 0x24 SWAP2 DUP4 SWAP2 AND GAS STATICCALL DUP1 ISZERO PUSH2 0xBEC JUMPI PUSH4 0xFFFFFFFF SWAP2 DUP7 SWAP2 PUSH2 0xBBD JUMPI JUMPDEST POP AND DUP5 MSTORE PUSH1 0x10 PUSH1 0x20 SWAP1 DUP2 MSTORE PUSH1 0x40 DUP1 DUP7 KECCAK256 DUP1 SLOAD PUSH4 0xFFFFFFFF NOT AND SWAP1 SSTORE PUSH1 0x4 CALLDATALOAD DUP1 DUP8 MSTORE PUSH1 0x12 DUP4 MSTORE DUP2 DUP8 KECCAK256 PUSH1 0xC SWAP1 SWAP4 MSTORE SWAP1 DUP7 KECCAK256 PUSH1 0x1 DUP2 DUP2 ADD SLOAD DUP5 SLOAD PUSH1 0x1 PUSH1 0x1 PUSH1 0xA0 SHL SUB NOT AND PUSH1 0x1 PUSH1 0x1 PUSH1 0xA0 SHL SUB SWAP2 SWAP1 SWAP2 AND OR DUP5 SSTORE DUP4 ADD SWAP2 SWAP1 SWAP2 SSTORE PUSH1 0x2 DUP3 ADD DUP1 SLOAD PUSH1 0xFF NOT DUP2 AND DUP3 SSTORE PUSH1 0x7 DUP4 ADD DUP1 SLOAD PUSH5 0xFFFFFFFFFF NOT DUP4 AND PUSH1 0x8 SWAP2 SWAP1 SWAP2 SHL PUSH5 0xFFFFFFFF00 AND SWAP1 DUP2 OR DUP5 SSTORE SWAP1 SLOAD PUSH9 0xFFFFFFFFFFFFFFFFFF NOT SWAP1 SWAP3 AND OR PUSH1 0x28 SWAP2 SWAP1 SWAP2 SHL PUSH9 0xFFFFFFFF0000000000 AND OR SWAP1 SSTORE SWAP1 TIMESTAMP PUSH1 0x6 DUP3 ADD SSTORE PUSH1 0x2 DUP3 ADD SLOAD PUSH4 0xFFFFFFFF PUSH1 0x7 DUP5 ADD SLOAD AND SWAP3 PUSH2 0x588 DUP5 DUP4 PUSH2 0x3600 JUMP JUMPDEST DUP5 ISZERO PUSH2 0xBA9 JUMPI PUSH2 0x597 DUP6 PUSH2 0x363C JUMP JUMPDEST SWAP3 DUP10 JUMPDEST DUP7 DUP2 LT PUSH2 0xB57 JUMPI POP POP PUSH1 0x3 DUP5 ADD SSTORE PUSH1 0x7 ADD SLOAD PUSH1 0x20 SHR PUSH4 0xFFFFFFFF AND DUP8 JUMPDEST DUP5 PUSH4 0xFFFFFFFF DUP3 AND LT PUSH2 0xAFB JUMPI POP POP PUSH1 0x1 DUP1 PUSH1 0xA0 SHL SUB DUP3 SLOAD AND DUP8 MSTORE PUSH1 0x11 PUSH1 0x20 MSTORE PUSH1 0x4 CALLDATALOAD PUSH1 0x40 DUP9 KECCAK256 SSTORE PUSH1 0x1 DUP1 PUSH1 0xA0 SHL SUB DUP3 SLOAD AND PUSH1 0x2 DUP4 ADD SLOAD SWAP1 PUSH32 0x55939E2A4ADB2163C21EB3BB2C850E8E82136AED8A9E5971F705F1188D05865E PUSH1 0x3 DUP6 ADD SLOAD SWAP3 PUSH1 0x6 DUP7 ADD SLOAD SWAP4 PUSH4 0xFFFFFFFF PUSH1 0x40 MLOAD SWAP3 PUSH2 0x632 DUP5 PUSH1 0xFF DUP4 AND PUSH2 0x2F54 JUMP JUMPDEST PUSH1 0x28 SHR AND PUSH1 0x20 DUP4 ADD MSTORE PUSH1 0x40 DUP3 ADD MSTORE PUSH1 0xA0 PUSH1 0x60 DUP3 ADD MSTORE PUSH2 0x657 PUSH1 0xA0 DUP3 ADD PUSH1 0x4 DUP9 ADD PUSH2 0x3682 JUMP JUMPDEST SWAP4 PUSH1 0x80 DUP3 ADD MSTORE DUP1 PUSH1 0x4 CALLDATALOAD SWAP5 SUB SWAP1 LOG3 DUP7 JUMPDEST DUP4 DUP2 LT PUSH2 0xAD6 JUMPI POP POP POP POP PUSH1 0x4 CALLDATALOAD DUP5 MSTORE PUSH1 0xC PUSH1 0x20 MSTORE PUSH1 0x40 DUP5 KECCAK256 PUSH1 0x1 DUP1 PUSH1 0xA0 SHL SUB PUSH1 0x1 DUP3 ADD SLOAD AND SWAP1 PUSH1 0x2 DUP2 ADD SLOAD DUP3 DUP8 MSTORE PUSH1 0x7 PUSH1 0x20 MSTORE PUSH2 0x6AA PUSH1 0x40 DUP9 KECCAK256 SWAP2 DUP3 SLOAD PUSH2 0x31DE JUMP JUMPDEST SWAP1 SSTORE PUSH2 0x6BC PUSH1 0x2 DUP3 ADD SLOAD PUSH1 0xA SLOAD PUSH2 0x31DE JUMP JUMPDEST PUSH1 0xA SSTORE PUSH2 0x6CF PUSH1 0x2 DUP3 ADD SLOAD PUSH1 0xB SLOAD PUSH2 0x3542 JUMP JUMPDEST PUSH1 0xB SSTORE DUP2 DUP7 MSTORE PUSH1 0x8 PUSH1 0x20 SWAP1 DUP2 MSTORE PUSH1 0x40 DUP1 DUP9 KECCAK256 TIMESTAMP SWAP1 SSTORE PUSH1 0x3 DUP4 ADD DUP1 SLOAD PUSH1 0xFF PUSH1 0x40 SHL NOT AND PUSH9 0x30000000000000000 OR SWAP1 SSTORE PUSH1 0x2 DUP4 ADD SLOAD SWAP1 MLOAD PUSH4 0xA9059CBB PUSH1 0xE0 SHL DUP2 MSTORE PUSH1 0x1 PUSH1 0x1 PUSH1 0xA0 SHL SUB DUP6 AND PUSH1 0x4 DUP3 ADD MSTORE PUSH1 0x24 DUP2 ADD SWAP2 SWAP1 SWAP2 MSTORE SWAP1 DUP2 DUP1 PUSH1 0x44 DUP2 ADD SUB DUP2 DUP11 PUSH32 0x0 PUSH1 0x1 PUSH1 0x1 PUSH1 0xA0 SHL SUB AND GAS CALL SWAP1 DUP2 ISZERO PUSH2 0xACB JUMPI DUP8 SWAP2 PUSH2 0xA9C JUMPI JUMPDEST POP ISZERO PUSH2 0xA8A JUMPI PUSH1 0x4 CALLDATALOAD DUP7 MSTORE PUSH1 0x12 PUSH1 0x20 MSTORE PUSH1 0x4 PUSH1 0x40 DUP8 KECCAK256 ADD DUP1 SLOAD ISZERO PUSH2 0xA74 JUMPI PUSH1 0x0 MSTORE PUSH1 0x20 PUSH1 0x0 KECCAK256 SLOAD PUSH1 0x2 SLOAD PUSH1 0x4 CALLDATALOAD DUP9 MSTORE PUSH1 0x3 PUSH1 0x20 MSTORE DUP1 PUSH1 0x40 DUP10 KECCAK256 SSTORE PUSH1 0x40 MLOAD SWAP2 PUSH2 0x7B1 DUP4 PUSH2 0x33F9 JUMP JUMPDEST PUSH1 0x4 CALLDATALOAD DUP4 MSTORE DUP5 PUSH1 0x20 DUP5 ADD MSTORE PUSH1 0x40 DUP4 ADD MSTORE DUP8 PUSH1 0x60 DUP4 ADD MSTORE PUSH1 0x1 PUSH1 0x40 SHL DUP2 LT ISZERO PUSH2 0xA60 JUMPI DUP1 PUSH1 0x1 PUSH2 0x7E3 SWAP3 ADD PUSH1 0x2 SSTORE PUSH2 0x3194 JUMP JUMPDEST SWAP2 SWAP1 SWAP2 PUSH2 0xA4C JUMPI PUSH32 0xEAE9CFBC77FDD40CA899F36B608256063B2BC9D8178B0220F7AD513E178D6730 SWAP3 PUSH2 0x863 PUSH1 0x40 SWAP4 PUSH1 0x3 PUSH1 0x60 DUP6 PUSH1 0x2 SWAP7 MLOAD DUP5 SSTORE PUSH1 0x1 DUP5 ADD PUSH1 0x1 DUP1 PUSH1 0xA0 SHL SUB PUSH1 0x20 DUP4 ADD MLOAD AND PUSH12 0xFFFFFFFFFFFFFFFFFFFFFFFF PUSH1 0xA0 SHL DUP3 SLOAD AND OR SWAP1 SSTORE DUP8 DUP2 ADD MLOAD DUP8 DUP6 ADD SSTORE ADD MLOAD ISZERO ISZERO SWAP2 ADD SWAP1 PUSH1 0xFF DUP1 NOT DUP4 SLOAD AND SWAP2 ISZERO ISZERO AND OR SWAP1 SSTORE JUMP JUMPDEST ADD SLOAD DUP4 DUP9 MSTORE PUSH1 0x7 PUSH1 0x20 MSTORE DUP2 DUP9 KECCAK256 SLOAD DUP3 MLOAD SWAP2 DUP3 MSTORE PUSH1 0x20 DUP3 ADD MSTORE LOG2 PUSH32 0x17F13FD3F7C4712AF33F1770EBCB822DD20A2DBC00850EAB48D786623D97B959 PUSH1 0x20 PUSH1 0xA SLOAD PUSH1 0x40 MLOAD SWAP1 DUP2 MSTORE LOG1 PUSH1 0x0 DUP1 MLOAD PUSH1 0x20 PUSH2 0x3855 DUP4 CODECOPY DUP2 MLOAD SWAP2 MSTORE PUSH1 0x20 PUSH1 0xB SLOAD PUSH1 0x40 MLOAD SWAP1 DUP2 MSTORE LOG1 PUSH1 0x4 CALLDATALOAD PUSH32 0x9E71D2FB732E68272B7E74ECFD14638673C1D77E19A5D390A3FFFF054D57C44B DUP6 DUP1 LOG2 JUMPDEST PUSH1 0x1 SLOAD PUSH1 0x40 MLOAD PUSH4 0x6ADF4625 PUSH1 0xE1 SHL DUP2 MSTORE PUSH1 0x1 PUSH1 0x1 PUSH1 0xA0 SHL SUB SWAP1 SWAP2 AND SWAP3 PUSH1 0x20 DUP3 PUSH1 0x4 DUP2 DUP8 GAS STATICCALL SWAP2 DUP3 ISZERO PUSH2 0xA41 JUMPI DUP7 SWAP3 PUSH2 0xA0A JUMPI JUMPDEST POP PUSH4 0xFFFFFFFF AND PUSH1 0x3 SIGNEXTEND SWAP1 PUSH1 0x3 SIGNEXTEND MUL DUP1 PUSH1 0x3 SIGNEXTEND SWAP1 DUP2 SUB PUSH2 0x9F6 JUMPI SWAP1 DUP3 SWAP2 DUP6 SWAP4 EXTCODESIZE ISZERO PUSH2 0x9F2 JUMPI PUSH1 0x64 DUP5 SWAP3 DUP4 PUSH1 0xA SWAP6 PUSH1 0x40 MLOAD SWAP7 DUP8 SWAP6 DUP7 SWAP5 PUSH4 0x533DFA35 PUSH1 0xE0 SHL DUP7 MSTORE PUSH1 0x4 DUP7 ADD MSTORE SDIV PUSH1 0x3 SIGNEXTEND PUSH1 0x24 DUP5 ADD MSTORE PUSH1 0x1 PUSH1 0x44 DUP5 ADD MSTORE GAS CALL DUP1 ISZERO PUSH2 0x9E7 JUMPI PUSH2 0x9CF JUMPI JUMPDEST POP POP PUSH9 0x56BC75E2D63100000 PUSH9 0x56BC75E2D630FFFFF PUSH1 0x40 MLOAD SWAP3 ADD DIV DUP2 MSTORE CALLER SWAP1 PUSH32 0x86B47E6E6C03D769C0BC5FFD06C682EA7D07089576D59230EC18FF64E71BFFE7 PUSH1 0x20 PUSH1 0x4 CALLDATALOAD SWAP3 LOG3 PUSH1 0x1 DUP2 SSTORE DUP1 RETURN JUMPDEST PUSH2 0x9D8 SWAP1 PUSH2 0x33E5 JUMP JUMPDEST PUSH2 0x9E3 JUMPI DUP2 CODESIZE PUSH2 0x980 JUMP JUMPDEST POP DUP1 REVERT JUMPDEST PUSH1 0x40 MLOAD RETURNDATASIZE DUP5 DUP3 RETURNDATACOPY RETURNDATASIZE SWAP1 REVERT JUMPDEST DUP4 DUP1 REVERT JUMPDEST PUSH4 0x4E487B71 PUSH1 0xE0 SHL DUP6 MSTORE PUSH1 0x11 PUSH1 0x4 MSTORE PUSH1 0x24 DUP6 REVERT JUMPDEST PUSH4 0xFFFFFFFF SWAP2 SWAP3 POP PUSH2 0xA33 SWAP1 PUSH1 0x20 RETURNDATASIZE PUSH1 0x20 GT PUSH2 0xA3A JUMPI JUMPDEST PUSH2 0xA2B DUP2 DUP4 PUSH2 0x3415 JUMP JUMPDEST DUP2 ADD SWAP1 PUSH2 0x358A JUMP JUMPDEST SWAP2 SWAP1 PUSH2 0x91F JUMP JUMPDEST POP RETURNDATASIZE PUSH2 0xA21 JUMP JUMPDEST PUSH1 0x40 MLOAD RETURNDATASIZE DUP9 DUP3 RETURNDATACOPY RETURNDATASIZE SWAP1 REVERT JUMPDEST PUSH4 0x4E487B71 PUSH1 0xE0 SHL DUP9 MSTORE PUSH1 0x4 DUP9 SWAP1 MSTORE PUSH1 0x24 DUP9 REVERT JUMPDEST PUSH4 0x4E487B71 PUSH1 0xE0 SHL DUP9 MSTORE PUSH1 0x41 PUSH1 0x4 MSTORE PUSH1 0x24 DUP9 REVERT JUMPDEST PUSH4 0x4E487B71 PUSH1 0xE0 SHL PUSH1 0x0 MSTORE PUSH1 0x32 PUSH1 0x4 MSTORE PUSH1 0x24 PUSH1 0x0 REVERT JUMPDEST PUSH1 0x40 MLOAD PUSH4 0x7A97D71F PUSH1 0xE0 SHL DUP2 MSTORE PUSH1 0x4 SWAP1 REVERT JUMPDEST PUSH2 0xABE SWAP2 POP PUSH1 0x20 RETURNDATASIZE PUSH1 0x20 GT PUSH2 0xAC4 JUMPI JUMPDEST PUSH2 0xAB6 DUP2 DUP4 PUSH2 0x3415 JUMP JUMPDEST DUP2 ADD SWAP1 PUSH2 0x34D8 JUMP JUMPDEST CODESIZE PUSH2 0x76A JUMP JUMPDEST POP RETURNDATASIZE PUSH2 0xAAC JUMP JUMPDEST PUSH1 0x40 MLOAD RETURNDATASIZE DUP10 DUP3 RETURNDATACOPY RETURNDATASIZE SWAP1 REVERT JUMPDEST DUP1 PUSH2 0xAF1 PUSH2 0xAE7 PUSH2 0xAF6 SWAP4 DUP6 PUSH2 0x366E JUMP JUMPDEST MLOAD PUSH1 0x5 DUP7 ADD PUSH2 0x35A3 JUMP JUMPDEST PUSH2 0x31EB JUMP JUMPDEST PUSH2 0x667 JUMP JUMPDEST PUSH2 0xB28 PUSH2 0xB1F PUSH2 0xB19 PUSH4 0xFFFFFFFF PUSH2 0xB12 DUP6 PUSH2 0x35D8 JUMP JUMPDEST AND DUP6 PUSH2 0x35ED JUMP JUMPDEST TIMESTAMP PUSH2 0x31DE JUMP JUMPDEST PUSH1 0x4 DUP7 ADD PUSH2 0x35A3 JUMP JUMPDEST PUSH4 0xFFFFFFFF DUP1 DUP3 AND EQ PUSH2 0xB43 JUMPI PUSH4 0xFFFFFFFF AND PUSH1 0x1 ADD PUSH2 0x5B7 JUMP JUMPDEST PUSH4 0x4E487B71 PUSH1 0xE0 SHL DUP10 MSTORE PUSH1 0x11 PUSH1 0x4 MSTORE PUSH1 0x24 DUP10 REVERT JUMPDEST DUP7 DUP3 MOD DUP2 LT ISZERO PUSH2 0xB9A JUMPI PUSH1 0x1 DUP4 ADD DUP1 DUP5 GT PUSH2 0xB86 JUMPI SWAP1 PUSH2 0xB81 SWAP2 PUSH2 0xB7B DUP3 DUP9 PUSH2 0x366E JUMP JUMPDEST MSTORE PUSH2 0x31EB JUMP JUMPDEST PUSH2 0x59A JUMP JUMPDEST PUSH4 0x4E487B71 PUSH1 0xE0 SHL DUP13 MSTORE PUSH1 0x11 PUSH1 0x4 MSTORE PUSH1 0x24 DUP13 REVERT JUMPDEST DUP1 DUP4 PUSH2 0xB7B PUSH2 0xB81 SWAP4 DUP9 PUSH2 0x366E JUMP JUMPDEST PUSH4 0x4E487B71 PUSH1 0xE0 SHL DUP10 MSTORE PUSH1 0x12 PUSH1 0x4 MSTORE PUSH1 0x24 DUP10 REVERT JUMPDEST PUSH2 0xBDF SWAP2 POP PUSH1 0x20 RETURNDATASIZE PUSH1 0x20 GT PUSH2 0xBE5 JUMPI JUMPDEST PUSH2 0xBD7 DUP2 DUP4 PUSH2 0x3415 JUMP JUMPDEST DUP2 ADD SWAP1 PUSH2 0x3620 JUMP JUMPDEST CODESIZE PUSH2 0x4BC JUMP JUMPDEST POP RETURNDATASIZE PUSH2 0xBCD JUMP JUMPDEST PUSH1 0x40 MLOAD RETURNDATASIZE DUP8 DUP3 RETURNDATACOPY RETURNDATASIZE SWAP1 REVERT JUMPDEST PUSH1 0x1 PUSH1 0x40 SHL PUSH1 0x3 SWAP2 PUSH9 0xFF0000000000000000 NOT AND OR SWAP2 ADD SSTORE PUSH2 0x8EC JUMP JUMPDEST PUSH1 0x5 DUP2 ADD SLOAD PUSH1 0x1 PUSH1 0x40 SHL DUP2 LT ISZERO PUSH2 0xC5C JUMPI DUP1 PUSH1 0x1 PUSH2 0xC3B SWAP3 ADD PUSH1 0x5 DUP5 ADD SSTORE PUSH1 0x5 DUP4 ADD PUSH2 0x317C JUMP JUMPDEST DUP2 SLOAD PUSH1 0x1 PUSH1 0x1 PUSH1 0xA0 SHL SUB PUSH1 0x3 SWAP3 SWAP1 SWAP3 SHL SWAP2 DUP3 SHL NOT AND CALLER SWAP1 SWAP2 SHL OR SWAP1 SSTORE PUSH2 0x40A JUMP JUMPDEST PUSH4 0x4E487B71 PUSH1 0xE0 SHL DUP7 MSTORE PUSH1 0x41 PUSH1 0x4 MSTORE PUSH1 0x24 DUP7 REVERT JUMPDEST PUSH4 0x4E487B71 PUSH1 0xE0 SHL PUSH1 0x0 MSTORE PUSH1 0x11 PUSH1 0x4 MSTORE PUSH1 0x24 PUSH1 0x0 REVERT JUMPDEST PUSH1 0x40 MLOAD PUSH4 0x6044D4DD PUSH1 0xE0 SHL DUP2 MSTORE PUSH1 0x4 SWAP1 REVERT JUMPDEST DUP5 MSTORE PUSH1 0x12 PUSH1 0x20 MSTORE PUSH2 0xCAF PUSH1 0x6 PUSH1 0x40 DUP7 KECCAK256 ADD SLOAD PUSH2 0x31CE JUMP JUMPDEST TIMESTAMP LT PUSH2 0xCBB JUMPI CODESIZE PUSH2 0x2DF JUMP JUMPDEST PUSH1 0x40 MLOAD PUSH4 0x1BF0A15 PUSH1 0xE4 SHL DUP2 MSTORE PUSH1 0x4 SWAP1 REVERT JUMPDEST PUSH1 0x40 MLOAD PUSH4 0x11D93551 PUSH1 0xE0 SHL DUP2 MSTORE PUSH1 0x4 SWAP1 REVERT JUMPDEST PUSH1 0x40 MLOAD PUSH4 0x393E6909 PUSH1 0xE1 SHL DUP2 MSTORE PUSH1 0x4 SWAP1 REVERT JUMPDEST PUSH1 0x1 SWAP2 POP EQ ISZERO CODESIZE PUSH2 0x29D JUMP JUMPDEST PUSH4 0x4E487B71 PUSH1 0xE0 SHL DUP7 MSTORE PUSH1 0x21 PUSH1 0x4 MSTORE PUSH1 0x24 DUP7 REVERT JUMPDEST PUSH1 0x40 MLOAD PUSH4 0x7314F91 PUSH1 0xE2 SHL DUP2 MSTORE PUSH1 0x4 SWAP1 REVERT JUMPDEST PUSH1 0x40 MLOAD PUSH4 0x2819760F PUSH1 0xE0 SHL DUP2 MSTORE PUSH1 0x4 SWAP1 REVERT JUMPDEST POP PUSH1 0x64 PUSH4 0xFFFFFFFF DUP3 AND GT PUSH2 0x254 JUMP JUMPDEST PUSH1 0x40 MLOAD PUSH4 0x584DAF25 PUSH1 0xE0 SHL DUP2 MSTORE PUSH1 0x4 SWAP1 REVERT JUMPDEST POP PUSH1 0x1 SLOAD PUSH1 0x40 MLOAD PUSH4 0x2CC52B15 PUSH1 0xE1 SHL DUP2 MSTORE CALLER PUSH1 0x4 DUP3 ADD MSTORE SWAP1 PUSH1 0x20 SWAP1 DUP3 SWAP1 PUSH1 0x24 SWAP1 DUP3 SWAP1 PUSH1 0x1 PUSH1 0x1 PUSH1 0xA0 SHL SUB AND GAS STATICCALL SWAP1 DUP2 ISZERO PUSH2 0xDB7 JUMPI DUP5 SWAP2 PUSH2 0xD99 JUMPI JUMPDEST POP ISZERO PUSH2 0x241 JUMP JUMPDEST PUSH2 0xDB1 SWAP2 POP PUSH1 0x20 RETURNDATASIZE DUP2 GT PUSH2 0xAC4 JUMPI PUSH2 0xAB6 DUP2 DUP4 PUSH2 0x3415 JUMP JUMPDEST CODESIZE PUSH2 0xD92 JUMP JUMPDEST PUSH1 0x40 MLOAD RETURNDATASIZE DUP7 DUP3 RETURNDATACOPY RETURNDATASIZE SWAP1 REVERT JUMPDEST DUP1 REVERT JUMPDEST POP CALLVALUE PUSH2 0xDC2 JUMPI PUSH1 0x20 SWAP1 DUP2 PUSH1 0x3 NOT CALLDATASIZE ADD SLT PUSH2 0xDC2 JUMPI PUSH1 0x44 DUP3 PUSH2 0xDE4 PUSH2 0x2F28 JUMP JUMPDEST PUSH1 0x40 MLOAD PUSH4 0x6EB1769F PUSH1 0xE1 SHL DUP2 MSTORE PUSH1 0x1 PUSH1 0x1 PUSH1 0xA0 SHL SUB SWAP2 DUP3 AND PUSH1 0x4 DUP3 ADD MSTORE ADDRESS PUSH1 0x24 DUP3 ADD MSTORE SWAP3 DUP4 SWAP2 DUP3 SWAP1 PUSH32 0x0 AND GAS STATICCALL SWAP2 DUP3 ISZERO PUSH2 0xE78 JUMPI SWAP2 PUSH2 0xE46 JUMPI JUMPDEST POP PUSH1 0x40 MLOAD SWAP1 DUP2 MSTORE RETURN JUMPDEST SWAP1 POP DUP2 DUP2 DUP2 RETURNDATASIZE DUP4 GT PUSH2 0xE71 JUMPI JUMPDEST PUSH2 0xE5D DUP2 DUP4 PUSH2 0x3415 JUMP JUMPDEST DUP2 ADD SUB SLT PUSH2 0xE6C JUMPI MLOAD CODESIZE PUSH2 0xE3D JUMP JUMPDEST PUSH1 0x0 DUP1 REVERT JUMPDEST POP RETURNDATASIZE PUSH2 0xE53 JUMP JUMPDEST PUSH1 0x40 MLOAD SWAP1 RETURNDATASIZE SWAP1 DUP3 RETURNDATACOPY RETURNDATASIZE SWAP1 REVERT JUMPDEST POP CALLVALUE PUSH2 0xDC2 JUMPI PUSH1 0x20 CALLDATASIZE PUSH1 0x3 NOT ADD SLT PUSH2 0xDC2 JUMPI PUSH2 0xE9E PUSH2 0x335C JUMP JUMPDEST PUSH2 0xEA9 PUSH1 0x4 CALLDATALOAD PUSH2 0x31FA JUMP JUMPDEST PUSH1 0x1 DUP2 SSTORE DUP1 RETURN JUMPDEST POP CALLVALUE PUSH2 0xDC2 JUMPI PUSH1 0x40 CALLDATASIZE PUSH1 0x3 NOT ADD SLT PUSH2 0xDC2 JUMPI PUSH1 0x4 CALLDATALOAD PUSH4 0xFFFFFFFF PUSH2 0xED2 PUSH2 0x3036 JUMP JUMPDEST AND ISZERO DUP1 ISZERO PUSH2 0x1052 JUMPI JUMPDEST PUSH2 0xD45 JUMPI DUP1 ISZERO PUSH2 0x1041 JUMPI PUSH2 0xEED PUSH2 0x335C JUMP JUMPDEST PUSH1 0x40 MLOAD PUSH4 0x23B872DD PUSH1 0xE0 SHL DUP2 MSTORE CALLER PUSH1 0x4 DUP3 ADD MSTORE ADDRESS PUSH1 0x24 DUP3 ADD MSTORE PUSH1 0x44 DUP2 ADD DUP3 SWAP1 MSTORE PUSH1 0x20 SWAP1 DUP2 DUP2 PUSH1 0x64 DUP2 DUP8 PUSH1 0x1 PUSH1 0x1 PUSH1 0xA0 SHL SUB PUSH32 0x0 AND GAS CALL SWAP1 DUP2 ISZERO PUSH2 0xDB7 JUMPI DUP5 SWAP2 PUSH2 0x1024 JUMPI JUMPDEST POP ISZERO PUSH2 0xA8A JUMPI PUSH1 0x0 DUP1 MLOAD PUSH1 0x20 PUSH2 0x3855 DUP4 CODECOPY DUP2 MLOAD SWAP2 MSTORE SWAP1 CALLER DUP5 MSTORE PUSH1 0x6 DUP2 MSTORE PUSH1 0x40 DUP5 KECCAK256 PUSH32 0xDC6E73D4B36E22AB95945BD8833A5AF96C950EB29D8D75C4AECFFC987637AAAB DUP3 DUP3 SLOAD SWAP6 DUP1 DUP8 ADD DUP5 SSTORE DUP1 PUSH1 0x9 SLOAD ADD SWAP1 DUP2 PUSH1 0x9 SSTORE DUP1 PUSH1 0xB SLOAD ADD SWAP5 DUP6 PUSH1 0xB SSTORE SLOAD PUSH1 0x40 MLOAD SWAP2 DUP3 MSTORE DUP4 DUP3 ADD MSTORE PUSH32 0x4928895BA6723E8E27B15F32E4C3054A1B6C7F8C03F133558D6FA42B3928D14C PUSH1 0x40 CALLER SWAP3 LOG2 PUSH1 0x40 MLOAD SWAP1 DUP2 MSTORE LOG1 PUSH1 0x40 MLOAD SWAP1 DUP2 MSTORE LOG1 ISZERO PUSH2 0xFFA JUMPI PUSH1 0x1 DUP2 SSTORE DUP1 RETURN JUMPDEST CALLER PUSH32 0x72DAFB6AABE3F02118BC607EFBEAAA104D6B2009720C7B130F24BA418689C4B DUP3 DUP1 LOG2 PUSH2 0xEA9 JUMP JUMPDEST PUSH2 0x103B SWAP2 POP DUP3 RETURNDATASIZE DUP5 GT PUSH2 0xAC4 JUMPI PUSH2 0xAB6 DUP2 DUP4 PUSH2 0x3415 JUMP JUMPDEST CODESIZE PUSH2 0xF50 JUMP JUMPDEST PUSH1 0x40 MLOAD PUSH3 0xD84C0F PUSH1 0xE4 SHL DUP2 MSTORE PUSH1 0x4 SWAP1 REVERT JUMPDEST POP PUSH1 0x1 SLOAD PUSH1 0x40 MLOAD PUSH4 0x2CC52B15 PUSH1 0xE1 SHL DUP2 MSTORE CALLER PUSH1 0x4 DUP3 ADD MSTORE SWAP1 PUSH1 0x20 SWAP1 DUP3 SWAP1 PUSH1 0x24 SWAP1 DUP3 SWAP1 PUSH1 0x1 PUSH1 0x1 PUSH1 0xA0 SHL SUB AND GAS STATICCALL SWAP1 DUP2 ISZERO PUSH2 0x10B2 JUMPI DUP4 SWAP2 PUSH2 0x1094 JUMPI JUMPDEST POP ISZERO PUSH2 0xEDB JUMP JUMPDEST PUSH2 0x10AC SWAP2 POP PUSH1 0x20 RETURNDATASIZE DUP2 GT PUSH2 0xAC4 JUMPI PUSH2 0xAB6 DUP2 DUP4 PUSH2 0x3415 JUMP JUMPDEST CODESIZE PUSH2 0x108D JUMP JUMPDEST PUSH1 0x40 MLOAD RETURNDATASIZE DUP6 DUP3 RETURNDATACOPY RETURNDATASIZE SWAP1 REVERT JUMPDEST POP CALLVALUE PUSH2 0xDC2 JUMPI PUSH1 0x20 CALLDATASIZE PUSH1 0x3 NOT ADD SLT PUSH2 0xDC2 JUMPI PUSH2 0x10D7 PUSH2 0x2F28 JUMP JUMPDEST PUSH1 0x1 SLOAD PUSH1 0x40 MLOAD PUSH4 0xC269014B PUSH1 0xE0 SHL DUP2 MSTORE PUSH1 0x1 PUSH1 0x1 PUSH1 0xA0 SHL SUB SWAP3 DUP4 AND PUSH1 0x4 DUP3 ADD MSTORE SWAP2 PUSH1 0x20 SWAP2 DUP4 SWAP2 PUSH1 0x24 SWAP2 DUP4 SWAP2 AND GAS STATICCALL SWAP1 DUP2 ISZERO PUSH2 0x9E7 JUMPI PUSH1 0x20 SWAP3 SWAP2 PUSH2 0x1124 JUMPI JUMPDEST POP PUSH4 0xFFFFFFFF PUSH1 0x40 MLOAD SWAP2 AND DUP2 MSTORE RETURN JUMPDEST PUSH2 0x113B SWAP2 POP DUP3 RETURNDATASIZE DUP2 GT PUSH2 0xBE5 JUMPI PUSH2 0xBD7 DUP2 DUP4 PUSH2 0x3415 JUMP JUMPDEST CODESIZE PUSH2 0x1115 JUMP JUMPDEST POP CALLVALUE PUSH2 0xDC2 JUMPI PUSH1 0x20 CALLDATASIZE PUSH1 0x3 NOT ADD SLT PUSH2 0xDC2 JUMPI PUSH1 0x4 CALLDATALOAD SWAP1 PUSH1 0x2 SLOAD DUP3 LT ISZERO PUSH2 0xDC2 JUMPI PUSH1 0x80 PUSH2 0x116C DUP4 PUSH2 0x3194 JUMP JUMPDEST POP DUP1 SLOAD SWAP1 PUSH1 0x1 DUP1 PUSH1 0xA0 SHL SUB PUSH1 0x1 DUP3 ADD SLOAD AND SWAP1 PUSH1 0xFF PUSH1 0x3 PUSH1 0x2 DUP4 ADD SLOAD SWAP3 ADD SLOAD AND SWAP2 PUSH1 0x40 MLOAD SWAP4 DUP5 MSTORE PUSH1 0x20 DUP5 ADD MSTORE PUSH1 0x40 DUP4 ADD MSTORE ISZERO ISZERO PUSH1 0x60 DUP3 ADD MSTORE RETURN JUMPDEST POP CALLVALUE PUSH2 0xDC2 JUMPI PUSH1 0x20 CALLDATASIZE PUSH1 0x3 NOT ADD SLT PUSH2 0xDC2 JUMPI PUSH1 0x20 SWAP1 PUSH1 0x40 SWAP1 PUSH1 0x1 PUSH1 0x1 PUSH1 0xA0 SHL SUB PUSH2 0x11CD PUSH2 0x2F28 JUMP JUMPDEST AND DUP2 MSTORE PUSH1 0x7 DUP4 MSTORE KECCAK256 SLOAD PUSH1 0x40 MLOAD SWAP1 DUP2 MSTORE RETURN JUMPDEST POP CALLVALUE PUSH2 0xDC2 JUMPI PUSH1 0x40 CALLDATASIZE PUSH1 0x3 NOT ADD SLT PUSH2 0xDC2 JUMPI PUSH2 0x11F8 PUSH2 0x2F3E JUMP JUMPDEST PUSH1 0x4 CALLDATALOAD DUP3 MSTORE PUSH1 0x12 PUSH1 0x20 MSTORE PUSH1 0x40 DUP3 KECCAK256 DUP1 SLOAD PUSH1 0x1 PUSH1 0x1 PUSH1 0xA0 SHL SUB SWAP3 DUP4 AND SWAP3 AND SWAP2 SWAP1 SWAP2 EQ SWAP1 DUP2 PUSH2 0x124C JUMPI JUMPDEST PUSH1 0x20 SWAP3 POP DUP2 PUSH2 0x1235 JUMPI JUMPDEST POP PUSH1 0x40 MLOAD SWAP1 ISZERO ISZERO DUP2 MSTORE RETURN JUMPDEST PUSH4 0xFFFFFFFF SWAP2 POP PUSH1 0x2 ADD SLOAD PUSH1 0x28 SHR AND ISZERO ISZERO CODESIZE PUSH2 0x122A JUMP JUMPDEST SWAP1 POP PUSH1 0xFF PUSH1 0x2 DUP3 ADD SLOAD AND PUSH1 0x3 DUP2 LT ISZERO PUSH2 0x126A JUMPI PUSH1 0x20 SWAP3 POP ISZERO SWAP1 PUSH2 0x1220 JUMP JUMPDEST PUSH4 0x4E487B71 PUSH1 0xE0 SHL DUP4 MSTORE PUSH1 0x21 PUSH1 0x4 MSTORE PUSH1 0x24 DUP4 REVERT JUMPDEST POP CALLVALUE PUSH2 0xDC2 JUMPI DUP1 PUSH1 0x3 NOT CALLDATASIZE ADD SLT PUSH2 0xDC2 JUMPI PUSH1 0x40 MLOAD PUSH32 0x0 PUSH1 0x1 PUSH1 0x1 PUSH1 0xA0 SHL SUB AND DUP2 MSTORE PUSH1 0x20 SWAP1 RETURN JUMPDEST POP CALLVALUE PUSH2 0xDC2 JUMPI PUSH1 0x20 CALLDATASIZE PUSH1 0x3 NOT ADD SLT PUSH2 0xDC2 JUMPI PUSH1 0x20 PUSH2 0x12E2 PUSH1 0x4 CALLDATALOAD PUSH2 0x344F JUMP JUMPDEST PUSH1 0x40 MLOAD SWAP1 ISZERO ISZERO DUP2 MSTORE RETURN JUMPDEST POP CALLVALUE PUSH2 0xDC2 JUMPI PUSH1 0x40 CALLDATASIZE PUSH1 0x3 NOT ADD SLT PUSH2 0xDC2 JUMPI PUSH2 0x1306 PUSH2 0x2F28 JUMP JUMPDEST PUSH1 0x1 PUSH1 0x1 PUSH1 0xA0 SHL SUB AND DUP2 MSTORE PUSH1 0xE PUSH1 0x20 MSTORE PUSH1 0x40 DUP2 KECCAK256 DUP1 SLOAD PUSH1 0x24 CALLDATALOAD SWAP3 SWAP1 DUP4 LT ISZERO PUSH2 0xDC2 JUMPI PUSH1 0x20 PUSH2 0x1334 DUP5 DUP5 PUSH2 0x317C JUMP JUMPDEST SWAP1 SLOAD PUSH1 0x40 MLOAD SWAP2 PUSH1 0x3 SHL SHR DUP2 MSTORE RETURN JUMPDEST POP CALLVALUE PUSH2 0xDC2 JUMPI PUSH1 0x40 CALLDATASIZE PUSH1 0x3 NOT ADD SLT PUSH2 0xDC2 JUMPI PUSH1 0x20 SWAP1 PUSH2 0x135F PUSH2 0x2F28 JUMP JUMPDEST SWAP1 PUSH1 0x24 CALLDATALOAD SWAP2 DUP3 ISZERO ISZERO SWAP3 DUP4 PUSH2 0x140A JUMPI JUMPDEST POP DUP3 PUSH2 0x13CF JUMPI JUMPDEST DUP3 PUSH2 0x1387 JUMPI JUMPDEST POP POP PUSH1 0x40 MLOAD SWAP1 ISZERO ISZERO DUP2 MSTORE RETURN JUMPDEST PUSH1 0x1 PUSH1 0x1 PUSH1 0xA0 SHL SUB AND DUP1 DUP3 MSTORE PUSH1 0x8 DUP5 MSTORE PUSH1 0x40 DUP3 KECCAK256 SLOAD SWAP1 SWAP3 POP PUSH2 0x13A8 SWAP1 PUSH2 0x31CE JUMP JUMPDEST TIMESTAMP GT SWAP2 DUP3 ISZERO PUSH2 0x13BB JUMPI JUMPDEST POP POP CODESIZE DUP1 PUSH2 0x137B JUMP JUMPDEST PUSH1 0x40 SWAP3 POP DUP2 MSTORE PUSH1 0x7 DUP4 MSTORE KECCAK256 SLOAD ISZERO CODESIZE DUP1 PUSH2 0x13B2 JUMP JUMPDEST PUSH1 0x1 PUSH1 0x1 PUSH1 0xA0 SHL SUB DUP2 AND DUP3 MSTORE PUSH1 0x6 DUP5 MSTORE PUSH1 0x40 DUP3 KECCAK256 SLOAD SWAP1 SWAP3 POP PUSH3 0xF4240 GT DUP1 ISZERO SWAP1 PUSH2 0x13FA JUMPI JUMPDEST SWAP2 PUSH2 0x1375 JUMP JUMPDEST POP PUSH1 0x7 DUP4 MSTORE PUSH1 0x40 DUP2 KECCAK256 SLOAD ISZERO PUSH2 0x13F4 JUMP JUMPDEST PUSH1 0xB SLOAD LT ISZERO SWAP3 POP CODESIZE PUSH2 0x136E JUMP JUMPDEST PUSH2 0x30D7 JUMP JUMPDEST POP CALLVALUE PUSH2 0xDC2 JUMPI PUSH1 0x20 CALLDATASIZE PUSH1 0x3 NOT ADD SLT PUSH2 0xDC2 JUMPI PUSH2 0x147D SWAP1 PUSH2 0x1462 SWAP1 PUSH2 0x1469 SWAP1 PUSH1 0x40 SWAP1 PUSH1 0x1 PUSH1 0x1 PUSH1 0xA0 SHL SUB PUSH2 0x144D PUSH2 0x2F28 JUMP JUMPDEST AND DUP2 MSTORE PUSH1 0xE PUSH1 0x20 MSTORE KECCAK256 PUSH1 0x40 MLOAD SWAP3 DUP4 DUP1 SWAP3 PUSH2 0x3682 JUMP JUMPDEST SUB DUP3 PUSH2 0x3415 JUMP JUMPDEST PUSH1 0x40 MLOAD SWAP2 DUP3 SWAP2 PUSH1 0x20 DUP4 MSTORE PUSH1 0x20 DUP4 ADD SWAP1 PUSH2 0x2F77 JUMP JUMPDEST SUB SWAP1 RETURN JUMPDEST POP CALLVALUE PUSH2 0xDC2 JUMPI PUSH1 0x60 CALLDATASIZE PUSH1 0x3 NOT ADD SLT PUSH2 0xDC2 JUMPI PUSH4 0xFFFFFFFF PUSH2 0x14A0 PUSH2 0x3049 JUMP JUMPDEST AND DUP1 ISZERO DUP1 ISZERO PUSH2 0x1C30 JUMPI JUMPDEST PUSH2 0xD45 JUMPI PUSH1 0x4 CALLDATALOAD DUP3 MSTORE PUSH1 0x12 PUSH1 0x20 MSTORE PUSH1 0x40 DUP3 KECCAK256 CALLER DUP4 MSTORE PUSH1 0x7 PUSH1 0x20 MSTORE PUSH1 0x40 DUP4 KECCAK256 SLOAD ISZERO PUSH2 0x1C0A JUMPI DUP1 SLOAD CALLER PUSH1 0x1 PUSH1 0x1 PUSH1 0xA0 SHL SUB SWAP1 SWAP2 AND SUB PUSH2 0x1C0A JUMPI PUSH1 0x2 ADD SLOAD PUSH1 0xFF DUP2 AND PUSH1 0x3 DUP2 LT ISZERO PUSH2 0x1C1C JUMPI PUSH2 0x1C0A JUMPI PUSH1 0x28 SHR PUSH4 0xFFFFFFFF AND ISZERO PUSH2 0x1C0A JUMPI PUSH2 0x150C PUSH2 0x335C JUMP JUMPDEST PUSH1 0x24 CALLDATALOAD ISZERO PUSH2 0x1041 JUMPI PUSH1 0x4 CALLDATALOAD DUP3 MSTORE PUSH1 0x12 PUSH1 0x20 MSTORE PUSH1 0x40 DUP3 KECCAK256 PUSH2 0x154B PUSH2 0x1542 PUSH1 0x2 DUP4 ADD SLOAD PUSH4 0xFFFFFFFF DUP1 DUP3 PUSH1 0x28 SHR AND SWAP2 PUSH1 0x8 SHR AND PUSH2 0x3506 JUMP JUMPDEST PUSH1 0x4 DUP4 ADD PUSH2 0x317C JUMP JUMPDEST SWAP1 SLOAD SWAP1 PUSH1 0x3 SHL SHR PUSH1 0x4 CALLDATALOAD DUP5 MSTORE PUSH1 0x3 PUSH1 0x20 MSTORE DUP4 PUSH2 0x156A PUSH1 0x40 DUP3 KECCAK256 SLOAD PUSH2 0x3194 JUMP JUMPDEST POP SWAP4 DUP3 TIMESTAMP GT PUSH1 0x0 EQ PUSH2 0x1B12 JUMPI PUSH1 0x1 SLOAD PUSH1 0x40 MLOAD PUSH4 0xA5118BF1 PUSH1 0xE0 SHL DUP2 MSTORE PUSH1 0x1 PUSH1 0x1 PUSH1 0xA0 SHL SUB SWAP1 SWAP2 AND SWAP2 SWAP1 PUSH1 0x20 DUP2 PUSH1 0x4 DUP2 DUP7 GAS STATICCALL SWAP1 DUP2 ISZERO PUSH2 0xDB7 JUMPI DUP5 SWAP2 PUSH2 0x1AF3 JUMPI JUMPDEST POP DUP3 EXTCODESIZE ISZERO PUSH2 0x9F2 JUMPI PUSH1 0x64 DUP5 SWAP3 DUP4 PUSH1 0x40 MLOAD SWAP6 DUP7 SWAP5 DUP6 SWAP4 PUSH4 0x533DFA35 PUSH1 0xE0 SHL DUP6 MSTORE PUSH1 0x4 DUP6 ADD MSTORE PUSH1 0x3 SIGNEXTEND PUSH1 0x24 DUP5 ADD MSTORE DUP2 PUSH1 0x44 DUP5 ADD MSTORE GAS CALL DUP1 ISZERO PUSH2 0x9E7 JUMPI PUSH2 0x1ADF JUMPI JUMPDEST POP POP PUSH1 0x3 DUP4 ADD DUP1 SLOAD PUSH1 0xFF DUP2 AND ISZERO PUSH2 0x1A9D JUMPI JUMPDEST POP POP POP JUMPDEST PUSH1 0x3 DUP2 ADD SLOAD PUSH1 0x24 CALLDATALOAD SUB PUSH2 0x1041 JUMPI PUSH1 0x40 MLOAD PUSH4 0x23B872DD PUSH1 0xE0 SHL DUP2 MSTORE CALLER PUSH1 0x4 DUP3 ADD MSTORE ADDRESS PUSH1 0x24 DUP1 DUP4 ADD SWAP2 SWAP1 SWAP2 MSTORE CALLDATALOAD PUSH1 0x44 DUP3 ADD MSTORE PUSH1 0x20 DUP2 PUSH1 0x64 DUP2 DUP8 PUSH1 0x1 PUSH1 0x1 PUSH1 0xA0 SHL SUB PUSH32 0x0 AND GAS CALL SWAP1 DUP2 ISZERO PUSH2 0xDB7 JUMPI DUP5 SWAP2 PUSH2 0x1A7E JUMPI JUMPDEST POP ISZERO PUSH2 0xA8A JUMPI CALLER DUP4 MSTORE PUSH1 0x7 PUSH1 0x20 MSTORE PUSH1 0x40 DUP4 KECCAK256 PUSH2 0x168F PUSH1 0x24 CALLDATALOAD DUP3 SLOAD PUSH2 0x3542 JUMP JUMPDEST SWAP1 SSTORE PUSH2 0x169F PUSH1 0x24 CALLDATALOAD PUSH1 0xA SLOAD PUSH2 0x3542 JUMP JUMPDEST PUSH1 0xA SSTORE PUSH2 0x16B0 PUSH1 0x24 CALLDATALOAD PUSH1 0xB SLOAD PUSH2 0x31DE JUMP JUMPDEST PUSH1 0xB SSTORE PUSH1 0x4 CALLDATALOAD DUP4 MSTORE PUSH1 0xC PUSH1 0x20 MSTORE PUSH1 0x40 DUP4 KECCAK256 SWAP1 PUSH1 0x2 DUP3 ADD SLOAD SWAP1 DUP5 JUMPDEST PUSH1 0x5 DUP5 ADD SLOAD DUP2 LT ISZERO PUSH2 0x17A5 JUMPI DUP1 PUSH2 0x16E7 PUSH2 0x1728 SWAP3 PUSH1 0x5 DUP8 ADD PUSH2 0x317C JUMP JUMPDEST PUSH1 0x1 DUP1 PUSH1 0xA0 SHL SUB SWAP2 SLOAD SWAP1 PUSH1 0x3 SHL SHR AND DUP1 PUSH1 0x0 MSTORE PUSH1 0x6 DUP7 ADD PUSH1 0x20 MSTORE PUSH2 0x171B DUP6 PUSH2 0x1716 PUSH1 0x40 PUSH1 0x0 KECCAK256 SLOAD PUSH1 0x24 CALLDATALOAD PUSH2 0x35ED JUMP JUMPDEST PUSH2 0x3600 JUMP JUMPDEST DUP1 PUSH2 0x172D JUMPI JUMPDEST POP POP PUSH2 0x31EB JUMP JUMPDEST PUSH2 0x16CA JUMP JUMPDEST DUP2 DUP10 MSTORE PUSH1 0xF PUSH1 0x20 MSTORE PUSH1 0x40 DUP10 KECCAK256 DUP1 SLOAD DUP1 DUP4 GT PUSH2 0x179D JUMPI JUMPDEST DUP3 PUSH2 0x174D SWAP2 PUSH2 0x3542 JUMP JUMPDEST SWAP1 SSTORE DUP2 DUP10 MSTORE PUSH1 0x6 PUSH1 0x20 MSTORE PUSH1 0x40 DUP10 KECCAK256 PUSH2 0x1766 DUP3 DUP3 SLOAD PUSH2 0x31DE JUMP JUMPDEST SWAP1 SSTORE PUSH1 0x40 MLOAD SWAP1 DUP2 MSTORE PUSH32 0xE3E6AE1E05F069D410556743894AACBB190C1431962422EBE8FCC642A467DD16 PUSH1 0x20 PUSH1 0x4 CALLDATALOAD SWAP3 LOG3 CODESIZE DUP1 PUSH2 0x1721 JUMP JUMPDEST SWAP2 POP DUP2 PUSH2 0x1743 JUMP JUMPDEST DUP6 DUP3 DUP7 PUSH2 0x17E9 PUSH2 0x17C1 PUSH4 0xFFFFFFFF PUSH1 0x2 DUP6 ADD SLOAD PUSH1 0x28 SHR AND PUSH2 0x34F0 JUMP JUMPDEST PUSH1 0x2 DUP5 ADD SWAP1 PUSH9 0xFFFFFFFF0000000000 DUP3 SLOAD SWAP2 PUSH1 0x28 SHL AND SWAP1 PUSH9 0xFFFFFFFF0000000000 NOT AND OR SWAP1 SSTORE JUMP JUMPDEST PUSH1 0x2 DUP3 ADD SLOAD PUSH4 0xFFFFFFFF DUP2 PUSH1 0x28 SHR AND SWAP1 DUP2 ISZERO PUSH1 0x0 EQ PUSH2 0x1A40 JUMPI POP POP POP PUSH1 0x2 PUSH1 0xFF NOT DUP2 DUP4 ADD SLOAD AND OR PUSH1 0x2 DUP3 ADD SSTORE PUSH1 0x4 CALLDATALOAD PUSH32 0x2CA5489B37DD363D1302BAC719E8EE40E540FFBE8C12253570FEA63E11CAD71 DUP4 DUP1 LOG2 PUSH1 0x4 CALLDATALOAD DUP3 MSTORE PUSH1 0x3 PUSH1 0x20 MSTORE PUSH1 0x40 DUP3 KECCAK256 SLOAD PUSH1 0x2 SLOAD PUSH1 0x0 NOT SWAP2 SWAP1 DUP3 DUP2 ADD SWAP1 DUP2 GT PUSH2 0x9F6 JUMPI DUP1 DUP3 SUB PUSH2 0x199D JUMPI JUMPDEST POP POP PUSH1 0x2 SLOAD DUP1 ISZERO PUSH2 0x1989 JUMPI ADD PUSH2 0x187A DUP2 PUSH2 0x3194 JUMP JUMPDEST PUSH2 0x1975 JUMPI SWAP2 PUSH1 0x2 SWAP2 DUP5 PUSH1 0x3 DUP6 PUSH1 0x0 PUSH4 0xFFFFFFFF SWAP8 SSTORE DUP3 PUSH1 0x1 DUP3 ADD SSTORE PUSH1 0x0 DUP7 DUP3 ADD SSTORE ADD SSTORE DUP3 SSTORE PUSH1 0x4 CALLDATALOAD DUP5 MSTORE PUSH1 0x3 PUSH1 0x20 MSTORE PUSH1 0x0 PUSH1 0x40 DUP6 KECCAK256 SSTORE JUMPDEST CALLER DUP5 MSTORE PUSH1 0x7 PUSH1 0x20 MSTORE PUSH1 0x40 DUP5 KECCAK256 SLOAD PUSH1 0x40 MLOAD SWAP1 PUSH1 0x24 CALLDATALOAD DUP3 MSTORE PUSH1 0x20 DUP3 ADD MSTORE PUSH32 0x1B8CD61ED43BEC7C6BDAD3A18FFEE613F99C853D16C50678D248D879E1B43438 PUSH1 0x40 CALLER SWAP3 LOG2 ADD SLOAD PUSH1 0x28 SHR AND PUSH1 0x40 MLOAD SWAP1 DUP2 MSTORE PUSH32 0x406356EF25520B09E2EF87C5225167B4161EA4AB691E9434D6EE29EAFCC83FC2 PUSH1 0x20 PUSH1 0x4 CALLDATALOAD SWAP3 LOG2 PUSH32 0x17F13FD3F7C4712AF33F1770EBCB822DD20A2DBC00850EAB48D786623D97B959 PUSH1 0x20 PUSH1 0xA SLOAD PUSH1 0x40 MLOAD SWAP1 DUP2 MSTORE LOG1 PUSH1 0x0 DUP1 MLOAD PUSH1 0x20 PUSH2 0x3855 DUP4 CODECOPY DUP2 MLOAD SWAP2 MSTORE PUSH1 0x20 PUSH1 0xB SLOAD PUSH1 0x40 MLOAD SWAP1 DUP2 MSTORE LOG1 PUSH1 0x1 DUP2 SSTORE DUP1 RETURN JUMPDEST PUSH4 0x4E487B71 PUSH1 0xE0 SHL DUP5 MSTORE PUSH1 0x4 DUP5 SWAP1 MSTORE PUSH1 0x24 DUP5 REVERT JUMPDEST PUSH4 0x4E487B71 PUSH1 0xE0 SHL DUP5 MSTORE PUSH1 0x31 PUSH1 0x4 MSTORE PUSH1 0x24 DUP5 REVERT JUMPDEST PUSH2 0x19A6 SWAP1 PUSH2 0x3194 JUMP JUMPDEST POP PUSH2 0x19B0 DUP3 PUSH2 0x3194 JUMP JUMPDEST PUSH2 0x1A2C JUMPI DUP2 DUP2 SUB PUSH2 0x19D1 JUMPI JUMPDEST POP SLOAD DUP5 MSTORE PUSH1 0x3 PUSH1 0x20 MSTORE PUSH1 0x40 DUP5 KECCAK256 SSTORE DUP4 DUP1 PUSH2 0x1865 JUMP JUMPDEST PUSH2 0x1A26 SWAP1 DUP3 SLOAD DUP2 SSTORE PUSH1 0x1 DUP2 ADD PUSH1 0x1 DUP1 PUSH1 0xA0 SHL SUB PUSH1 0x1 DUP6 ADD SLOAD AND PUSH12 0xFFFFFFFFFFFFFFFFFFFFFFFF PUSH1 0xA0 SHL DUP3 SLOAD AND OR SWAP1 SSTORE PUSH1 0x2 DUP4 ADD SLOAD PUSH1 0x2 DUP3 ADD SSTORE PUSH1 0x3 PUSH1 0xFF DUP2 DUP6 ADD SLOAD AND SWAP2 ADD SWAP1 PUSH1 0xFF DUP1 NOT DUP4 SLOAD AND SWAP2 ISZERO ISZERO AND OR SWAP1 SSTORE JUMP JUMPDEST DUP6 PUSH2 0x19BC JUMP JUMPDEST PUSH4 0x4E487B71 PUSH1 0xE0 SHL DUP7 MSTORE PUSH1 0x4 DUP7 SWAP1 MSTORE PUSH1 0x24 DUP7 REVERT JUMPDEST PUSH1 0x2 SWAP3 PUSH2 0x1A66 PUSH2 0x1A5D PUSH4 0xFFFFFFFF SWAP7 SWAP5 DUP8 PUSH1 0x3 SWAP6 PUSH1 0x8 SHR AND PUSH2 0x3506 JUMP JUMPDEST PUSH1 0x4 DUP6 ADD PUSH2 0x317C JUMP JUMPDEST SWAP1 SLOAD SWAP1 DUP4 SHL SHR DUP2 DUP6 ADD SSTORE ADD DUP1 SLOAD PUSH1 0xFF NOT AND SWAP1 SSTORE PUSH2 0x18B1 JUMP JUMPDEST PUSH2 0x1A97 SWAP2 POP PUSH1 0x20 RETURNDATASIZE PUSH1 0x20 GT PUSH2 0xAC4 JUMPI PUSH2 0xAB6 DUP2 DUP4 PUSH2 0x3415 JUMP JUMPDEST CODESIZE PUSH2 0x1670 JUMP JUMPDEST PUSH1 0x1 SWAP1 PUSH1 0xFF NOT AND OR SWAP1 SSTORE PUSH1 0x40 MLOAD SWAP1 DUP2 MSTORE CALLER SWAP1 PUSH32 0xCF08CFD581AE48E3E5053C3DDAD657750A872D827972A57CA253B1AB4748B0BC PUSH1 0x20 PUSH1 0x4 CALLDATALOAD SWAP3 LOG3 CODESIZE DUP1 DUP1 PUSH2 0x15FB JUMP JUMPDEST PUSH2 0x1AE8 SWAP1 PUSH2 0x33E5 JUMP JUMPDEST PUSH2 0x9F2 JUMPI DUP4 CODESIZE PUSH2 0x15E9 JUMP JUMPDEST PUSH2 0x1B0C SWAP2 POP PUSH1 0x20 RETURNDATASIZE PUSH1 0x20 GT PUSH2 0xA3A JUMPI PUSH2 0xA2B DUP2 DUP4 PUSH2 0x3415 JUMP JUMPDEST CODESIZE PUSH2 0x15AA JUMP JUMPDEST PUSH1 0x1 SLOAD PUSH1 0x40 MLOAD PUSH4 0x4E5ECF13 PUSH1 0xE0 SHL DUP2 MSTORE SWAP3 SWAP4 POP PUSH1 0x1 PUSH1 0x1 PUSH1 0xA0 SHL SUB AND SWAP2 PUSH1 0x20 DUP2 PUSH1 0x4 DUP2 DUP7 GAS STATICCALL SWAP1 DUP2 ISZERO PUSH2 0xDB7 JUMPI DUP5 SWAP2 PUSH2 0x1BEB JUMPI JUMPDEST POP DUP3 EXTCODESIZE ISZERO PUSH2 0x9F2 JUMPI PUSH1 0x64 DUP5 SWAP3 DUP4 PUSH1 0x40 MLOAD SWAP6 DUP7 SWAP5 DUP6 SWAP4 PUSH4 0x533DFA35 PUSH1 0xE0 SHL DUP6 MSTORE PUSH1 0x4 DUP6 ADD MSTORE PUSH1 0x3 SIGNEXTEND PUSH1 0x24 DUP5 ADD MSTORE PUSH1 0x1 PUSH1 0x44 DUP5 ADD MSTORE GAS CALL DUP1 ISZERO PUSH2 0x9E7 JUMPI PUSH2 0x1BD3 JUMPI JUMPDEST POP POP PUSH1 0x3 DUP3 ADD DUP1 SLOAD PUSH1 0xFF DUP2 AND PUSH2 0x1B9E JUMPI JUMPDEST POP POP PUSH2 0x15FF JUMP JUMPDEST PUSH1 0xFF NOT AND SWAP1 SSTORE CALLER PUSH1 0x4 CALLDATALOAD PUSH32 0xEDC092CCDF255FA12DEEE6517DD8E7F4E52F4194EF2112A5351A691C8DAACC74 DUP6 DUP1 LOG3 CODESIZE DUP1 PUSH2 0x1B97 JUMP JUMPDEST PUSH2 0x1BDC SWAP1 PUSH2 0x33E5 JUMP JUMPDEST PUSH2 0x1BE7 JUMPI DUP3 CODESIZE PUSH2 0x1B86 JUMP JUMPDEST DUP3 DUP1 REVERT JUMPDEST PUSH2 0x1C04 SWAP2 POP PUSH1 0x20 RETURNDATASIZE PUSH1 0x20 GT PUSH2 0xA3A JUMPI PUSH2 0xA2B DUP2 DUP4 PUSH2 0x3415 JUMP JUMPDEST CODESIZE PUSH2 0x1B46 JUMP JUMPDEST PUSH1 0x40 MLOAD PUSH4 0xC4967CF3 PUSH1 0xE0 SHL DUP2 MSTORE PUSH1 0x4 SWAP1 REVERT JUMPDEST PUSH4 0x4E487B71 PUSH1 0xE0 SHL DUP5 MSTORE PUSH1 0x21 PUSH1 0x4 MSTORE PUSH1 0x24 DUP5 REVERT JUMPDEST POP PUSH1 0x1 SLOAD PUSH1 0x40 MLOAD PUSH4 0x2CC52B15 PUSH1 0xE1 SHL DUP2 MSTORE CALLER PUSH1 0x4 DUP3 ADD MSTORE SWAP1 PUSH1 0x20 SWAP1 DUP3 SWAP1 PUSH1 0x24 SWAP1 DUP3 SWAP1 PUSH1 0x1 PUSH1 0x1 PUSH1 0xA0 SHL SUB AND GAS STATICCALL SWAP1 DUP2 ISZERO PUSH2 0x10B2 JUMPI DUP4 SWAP2 PUSH2 0x1C72 JUMPI JUMPDEST POP ISZERO PUSH2 0x14AA JUMP JUMPDEST PUSH2 0x1C8A SWAP2 POP PUSH1 0x20 RETURNDATASIZE DUP2 GT PUSH2 0xAC4 JUMPI PUSH2 0xAB6 DUP2 DUP4 PUSH2 0x3415 JUMP JUMPDEST CODESIZE PUSH2 0x1C6B JUMP JUMPDEST POP CALLVALUE PUSH2 0xDC2 JUMPI PUSH1 0x20 CALLDATASIZE PUSH1 0x3 NOT ADD SLT PUSH2 0xDC2 JUMPI PUSH2 0x1CBE PUSH1 0x5 PUSH1 0x40 PUSH2 0x147D SWAP4 PUSH1 0x4 CALLDATALOAD DUP2 MSTORE PUSH1 0xC PUSH1 0x20 MSTORE KECCAK256 ADD PUSH2 0x37FC JUMP JUMPDEST PUSH1 0x40 MLOAD SWAP2 DUP3 SWAP2 PUSH1 0x20 DUP4 MSTORE PUSH1 0x20 DUP4 ADD SWAP1 PUSH2 0x307C JUMP JUMPDEST POP CALLVALUE PUSH2 0xDC2 JUMPI DUP1 PUSH1 0x3 NOT CALLDATASIZE ADD SLT PUSH2 0xDC2 JUMPI PUSH1 0x20 PUSH1 0xD SLOAD PUSH1 0x40 MLOAD SWAP1 DUP2 MSTORE RETURN JUMPDEST POP CALLVALUE PUSH2 0xDC2 JUMPI PUSH1 0x20 CALLDATASIZE PUSH1 0x3 NOT ADD SLT PUSH2 0xDC2 JUMPI PUSH1 0x20 PUSH2 0x1D14 PUSH2 0x1D0F PUSH2 0x2F28 JUMP JUMPDEST PUSH2 0x354F JUMP JUMPDEST PUSH1 0x40 MLOAD SWAP1 DUP2 MSTORE RETURN JUMPDEST POP CALLVALUE PUSH2 0xDC2 JUMPI PUSH1 0x20 CALLDATASIZE PUSH1 0x3 NOT ADD SLT PUSH2 0xDC2 JUMPI PUSH1 0x20 SWAP1 PUSH1 0x40 SWAP1 PUSH1 0x1 PUSH1 0x1 PUSH1 0xA0 SHL SUB PUSH2 0x1D44 PUSH2 0x2F28 JUMP JUMPDEST AND DUP2 MSTORE PUSH1 0xF DUP4 MSTORE KECCAK256 SLOAD PUSH1 0x40 MLOAD SWAP1 DUP2 MSTORE RETURN JUMPDEST POP CALLVALUE PUSH2 0xDC2 JUMPI PUSH1 0x20 CALLDATASIZE PUSH1 0x3 NOT ADD SLT PUSH2 0xDC2 JUMPI PUSH2 0x1D6F PUSH2 0x305C JUMP JUMPDEST PUSH1 0x1 SLOAD PUSH1 0x40 MLOAD PUSH4 0x2076C8A1 PUSH1 0xE2 SHL DUP2 MSTORE PUSH4 0xFFFFFFFF SWAP3 SWAP1 SWAP3 AND PUSH1 0x4 DUP4 ADD MSTORE PUSH1 0x20 SWAP1 DUP3 SWAP1 PUSH1 0x24 SWAP1 DUP3 SWAP1 PUSH1 0x1 PUSH1 0x1 PUSH1 0xA0 SHL SUB AND GAS STATICCALL SWAP1 DUP2 ISZERO PUSH2 0x9E7 JUMPI PUSH1 0x20 SWAP3 SWAP2 PUSH2 0x1DBE JUMPI JUMPDEST POP PUSH1 0x40 MLOAD SWAP1 PUSH1 0x3 SIGNEXTEND DUP2 MSTORE RETURN JUMPDEST PUSH2 0x1DD5 SWAP2 POP DUP3 RETURNDATASIZE DUP2 GT PUSH2 0xA3A JUMPI PUSH2 0xA2B DUP2 DUP4 PUSH2 0x3415 JUMP JUMPDEST CODESIZE PUSH2 0x1DB2 JUMP JUMPDEST PUSH2 0x30B9 JUMP JUMPDEST POP CALLVALUE PUSH2 0xDC2 JUMPI PUSH1 0x20 CALLDATASIZE PUSH1 0x3 NOT ADD SLT PUSH2 0xDC2 JUMPI PUSH2 0x1462 PUSH2 0x1469 PUSH1 0x4 PUSH1 0x40 PUSH2 0x147D SWAP5 DUP3 CALLDATALOAD DUP2 MSTORE PUSH1 0x12 PUSH1 0x20 MSTORE KECCAK256 ADD PUSH1 0x40 MLOAD SWAP3 DUP4 DUP1 SWAP3 PUSH2 0x3682 JUMP JUMPDEST POP CALLVALUE PUSH2 0xDC2 JUMPI DUP1 PUSH1 0x3 NOT CALLDATASIZE ADD SLT PUSH2 0xDC2 JUMPI PUSH1 0x20 PUSH1 0x9 SLOAD PUSH1 0x40 MLOAD SWAP1 DUP2 MSTORE RETURN JUMPDEST POP CALLVALUE PUSH2 0xDC2 JUMPI DUP1 PUSH1 0x3 NOT CALLDATASIZE ADD SLT PUSH2 0xDC2 JUMPI PUSH1 0x20 PUSH1 0x40 MLOAD PUSH3 0x13C680 DUP2 MSTORE RETURN JUMPDEST POP CALLVALUE PUSH2 0xDC2 JUMPI DUP1 PUSH1 0x3 NOT CALLDATASIZE ADD SLT PUSH2 0xDC2 JUMPI PUSH1 0x1 SLOAD PUSH1 0x40 MLOAD PUSH1 0x1 PUSH1 0x1 PUSH1 0xA0 SHL SUB SWAP1 SWAP2 AND DUP2 MSTORE PUSH1 0x20 SWAP1 RETURN JUMPDEST POP CALLVALUE PUSH2 0xDC2 JUMPI PUSH1 0x20 CALLDATASIZE PUSH1 0x3 NOT ADD SLT PUSH2 0xDC2 JUMPI PUSH1 0x20 SWAP1 PUSH1 0x40 SWAP1 PUSH1 0x1 PUSH1 0x1 PUSH1 0xA0 SHL SUB PUSH2 0x1EA4 PUSH2 0x2F28 JUMP JUMPDEST AND DUP2 MSTORE PUSH1 0x8 DUP4 MSTORE KECCAK256 SLOAD PUSH1 0x40 MLOAD SWAP1 DUP2 MSTORE RETURN JUMPDEST POP CALLVALUE PUSH2 0xDC2 JUMPI PUSH1 0x20 CALLDATASIZE PUSH1 0x3 NOT ADD SLT PUSH2 0xDC2 JUMPI PUSH1 0x40 PUSH2 0x1ED4 PUSH1 0x4 CALLDATALOAD PUSH2 0x37AB JUMP JUMPDEST DUP3 MLOAD SWAP2 DUP3 MSTORE ISZERO ISZERO PUSH1 0x20 DUP3 ADD MSTORE RETURN JUMPDEST POP CALLVALUE PUSH2 0xDC2 JUMPI PUSH1 0x40 CALLDATASIZE PUSH1 0x3 NOT ADD SLT PUSH2 0xDC2 JUMPI PUSH1 0x4 CALLDATALOAD PUSH4 0xFFFFFFFF PUSH2 0x1F04 PUSH2 0x3036 JUMP JUMPDEST AND ISZERO DUP1 ISZERO PUSH2 0x207E JUMPI JUMPDEST PUSH2 0xD45 JUMPI DUP1 ISZERO PUSH2 0x1041 JUMPI PUSH2 0x1F1F PUSH2 0x335C JUMP JUMPDEST PUSH2 0x1F28 CALLER PUSH2 0x354F JUMP JUMPDEST DUP2 GT PUSH2 0x206C JUMPI CALLER DUP3 MSTORE PUSH1 0x20 PUSH1 0x6 DUP2 MSTORE PUSH1 0x40 DUP4 KECCAK256 PUSH2 0x1F46 DUP4 DUP3 SLOAD PUSH2 0x3542 JUMP JUMPDEST SWAP1 SSTORE PUSH2 0x1F54 DUP3 PUSH1 0x9 SLOAD PUSH2 0x3542 JUMP JUMPDEST PUSH1 0x9 SSTORE PUSH2 0x1F63 DUP3 PUSH1 0xB SLOAD PUSH2 0x3542 JUMP JUMPDEST PUSH1 0xB SSTORE PUSH1 0x40 MLOAD PUSH4 0xA9059CBB PUSH1 0xE0 SHL DUP2 MSTORE CALLER PUSH1 0x4 DUP3 ADD MSTORE PUSH1 0x24 DUP2 ADD DUP4 SWAP1 MSTORE DUP2 DUP2 PUSH1 0x44 DUP2 DUP8 PUSH1 0x1 PUSH1 0x1 PUSH1 0xA0 SHL SUB PUSH32 0x0 AND GAS CALL SWAP1 DUP2 ISZERO PUSH2 0xDB7 JUMPI DUP5 SWAP2 PUSH2 0x204F JUMPI JUMPDEST POP ISZERO PUSH2 0xA8A JUMPI PUSH1 0x0 DUP1 MLOAD PUSH1 0x20 PUSH2 0x3855 DUP4 CODECOPY DUP2 MLOAD SWAP2 MSTORE SWAP2 CALLER DUP5 MSTORE PUSH1 0x6 DUP3 MSTORE PUSH1 0x40 DUP5 KECCAK256 SLOAD PUSH1 0x40 MLOAD SWAP2 DUP3 MSTORE DUP3 DUP3 ADD MSTORE PUSH32 0x92CCF450A286A957AF52509BC1C9939D1A6A481783E142E41E2499F0BB66EBC6 PUSH1 0x40 CALLER SWAP3 LOG2 PUSH32 0xDC6E73D4B36E22AB95945BD8833A5AF96C950EB29D8D75C4AECFFC987637AAAB DUP2 PUSH1 0x9 SLOAD PUSH1 0x40 MLOAD SWAP1 DUP2 MSTORE LOG1 PUSH1 0xB SLOAD PUSH1 0x40 MLOAD SWAP1 DUP2 MSTORE LOG1 PUSH1 0x1 DUP2 SSTORE DUP1 RETURN JUMPDEST PUSH2 0x2066 SWAP2 POP DUP3 RETURNDATASIZE DUP5 GT PUSH2 0xAC4 JUMPI PUSH2 0xAB6 DUP2 DUP4 PUSH2 0x3415 JUMP JUMPDEST CODESIZE PUSH2 0x1FC0 JUMP JUMPDEST PUSH1 0x40 MLOAD PUSH4 0xDBEE9D4F PUSH1 0xE0 SHL DUP2 MSTORE PUSH1 0x4 SWAP1 REVERT JUMPDEST POP PUSH1 0x1 SLOAD PUSH1 0x40 MLOAD PUSH4 0x2CC52B15 PUSH1 0xE1 SHL DUP2 MSTORE CALLER PUSH1 0x4 DUP3 ADD MSTORE SWAP1 PUSH1 0x20 SWAP1 DUP3 SWAP1 PUSH1 0x24 SWAP1 DUP3 SWAP1 PUSH1 0x1 PUSH1 0x1 PUSH1 0xA0 SHL SUB AND GAS STATICCALL SWAP1 DUP2 ISZERO PUSH2 0x10B2 JUMPI DUP4 SWAP2 PUSH2 0x20C0 JUMPI JUMPDEST POP ISZERO PUSH2 0x1F0D JUMP JUMPDEST PUSH2 0x20D8 SWAP2 POP PUSH1 0x20 RETURNDATASIZE DUP2 GT PUSH2 0xAC4 JUMPI PUSH2 0xAB6 DUP2 DUP4 PUSH2 0x3415 JUMP JUMPDEST CODESIZE PUSH2 0x20B9 JUMP JUMPDEST POP CALLVALUE PUSH2 0xDC2 JUMPI PUSH1 0x20 CALLDATASIZE PUSH1 0x3 NOT ADD SLT PUSH2 0xDC2 JUMPI PUSH2 0x20F8 PUSH2 0x2F28 JUMP JUMPDEST PUSH1 0x1 SLOAD PUSH1 0x40 MLOAD PUSH4 0x2CC52B15 PUSH1 0xE1 SHL DUP2 MSTORE PUSH1 0x1 PUSH1 0x1 PUSH1 0xA0 SHL SUB SWAP3 DUP4 AND PUSH1 0x4 DUP3 ADD MSTORE SWAP2 PUSH1 0x20 SWAP2 DUP4 SWAP2 PUSH1 0x24 SWAP2 DUP4 SWAP2 AND GAS STATICCALL SWAP1 DUP2 ISZERO PUSH2 0x9E7 JUMPI PUSH1 0x20 SWAP3 SWAP2 PUSH2 0x2140 JUMPI POP PUSH1 0x40 MLOAD SWAP1 ISZERO ISZERO DUP2 MSTORE RETURN JUMPDEST PUSH2 0x2157 SWAP2 POP DUP3 RETURNDATASIZE DUP2 GT PUSH2 0xAC4 JUMPI PUSH2 0xAB6 DUP2 DUP4 PUSH2 0x3415 JUMP JUMPDEST CODESIZE PUSH2 0x122A JUMP JUMPDEST POP CALLVALUE PUSH2 0xDC2 JUMPI DUP1 PUSH1 0x3 NOT CALLDATASIZE ADD SLT PUSH2 0xDC2 JUMPI PUSH1 0x20 PUSH1 0x4 SLOAD PUSH1 0x40 MLOAD SWAP1 DUP2 MSTORE RETURN JUMPDEST POP CALLVALUE PUSH2 0xDC2 JUMPI DUP1 PUSH1 0x3 NOT CALLDATASIZE ADD SLT PUSH2 0xDC2 JUMPI PUSH1 0x20 PUSH1 0x5 SLOAD PUSH1 0x40 MLOAD SWAP1 DUP2 MSTORE RETURN JUMPDEST POP CALLVALUE PUSH2 0xDC2 JUMPI PUSH1 0x40 CALLDATASIZE PUSH1 0x3 NOT ADD SLT PUSH2 0xDC2 JUMPI PUSH1 0x6 PUSH1 0x40 PUSH2 0x21B7 PUSH2 0x2F3E JUMP JUMPDEST SWAP3 PUSH1 0x4 CALLDATALOAD DUP2 MSTORE PUSH1 0xC PUSH1 0x20 MSTORE KECCAK256 ADD SWAP1 PUSH1 0x1 DUP1 PUSH1 0xA0 SHL SUB AND PUSH1 0x0 MSTORE PUSH1 0x20 MSTORE PUSH1 0x20 PUSH1 0x40 PUSH1 0x0 KECCAK256 SLOAD PUSH1 0x40 MLOAD SWAP1 DUP2 MSTORE RETURN JUMPDEST POP CALLVALUE PUSH2 0xDC2 JUMPI PUSH1 0x20 CALLDATASIZE PUSH1 0x3 NOT ADD SLT PUSH2 0xDC2 JUMPI PUSH1 0x20 SWAP1 PUSH1 0x40 SWAP1 PUSH1 0x1 PUSH1 0x1 PUSH1 0xA0 SHL SUB PUSH2 0x220B PUSH2 0x2F28 JUMP JUMPDEST AND DUP2 MSTORE PUSH1 0x6 DUP4 MSTORE KECCAK256 SLOAD PUSH1 0x40 MLOAD SWAP1 DUP2 MSTORE RETURN JUMPDEST POP CALLVALUE PUSH2 0xDC2 JUMPI PUSH1 0x20 CALLDATASIZE PUSH1 0x3 NOT ADD SLT PUSH2 0xDC2 JUMPI PUSH2 0x2250 PUSH1 0x40 PUSH2 0x147D SWAP3 PUSH2 0x223F PUSH2 0x36BF JUMP JUMPDEST POP PUSH1 0x4 CALLDATALOAD DUP2 MSTORE PUSH1 0x12 PUSH1 0x20 MSTORE KECCAK256 PUSH2 0x3706 JUMP JUMPDEST PUSH1 0x40 MLOAD SWAP2 DUP3 SWAP2 PUSH1 0x20 DUP4 MSTORE PUSH1 0x20 DUP4 ADD SWAP1 PUSH2 0x2FAB JUMP JUMPDEST POP CALLVALUE PUSH2 0xDC2 JUMPI DUP1 PUSH1 0x3 NOT CALLDATASIZE ADD SLT PUSH2 0xDC2 JUMPI PUSH1 0x2 DUP1 SLOAD SWAP1 PUSH2 0x2283 DUP3 PUSH2 0x3437 JUMP JUMPDEST PUSH2 0x2290 PUSH1 0x40 MLOAD SWAP2 DUP3 PUSH2 0x3415 JUMP JUMPDEST DUP3 DUP2 MSTORE PUSH1 0x20 SWAP3 DUP4 DUP3 ADD DUP1 SWAP4 DUP1 DUP8 MSTORE PUSH32 0x405787FA12A823E0F2B7631CC41B3BA8828B3321CA811111FA75CD3AA3BB5ACE SWAP1 DUP8 SWAP3 JUMPDEST DUP5 DUP5 LT PUSH2 0x2331 JUMPI POP POP POP POP POP PUSH1 0x40 MLOAD SWAP3 DUP1 DUP5 ADD SWAP2 DUP2 DUP6 MSTORE MLOAD DUP1 SWAP3 MSTORE PUSH1 0x40 DUP5 ADD SWAP3 SWAP5 JUMPDEST DUP3 DUP2 LT PUSH2 0x22F2 JUMPI DUP5 DUP5 SUB DUP6 RETURN JUMPDEST DUP6 MLOAD DUP1 MLOAD DUP6 MSTORE DUP1 DUP4 ADD MLOAD PUSH1 0x1 PUSH1 0x1 PUSH1 0xA0 SHL SUB AND DUP6 DUP5 ADD MSTORE PUSH1 0x40 DUP1 DUP3 ADD MLOAD SWAP1 DUP7 ADD MSTORE PUSH1 0x60 SWAP1 DUP2 ADD MLOAD ISZERO ISZERO SWAP1 DUP6 ADD MSTORE SWAP5 DUP2 ADD SWAP5 PUSH1 0x80 SWAP1 SWAP4 ADD SWAP3 PUSH1 0x1 ADD PUSH2 0x22E5 JUMP JUMPDEST PUSH1 0x4 DUP9 PUSH1 0x1 SWAP3 PUSH1 0x40 SWAP12 SWAP11 SWAP9 SWAP10 SWAP12 MLOAD PUSH2 0x2348 DUP2 PUSH2 0x33F9 JUMP JUMPDEST DUP7 SLOAD DUP2 MSTORE DUP5 DUP1 PUSH1 0xA0 SHL SUB DUP6 DUP9 ADD SLOAD AND DUP4 DUP3 ADD MSTORE DUP6 DUP8 ADD SLOAD PUSH1 0x40 DUP3 ADD MSTORE PUSH1 0xFF PUSH1 0x3 DUP9 ADD SLOAD AND ISZERO ISZERO PUSH1 0x60 DUP3 ADD MSTORE DUP2 MSTORE ADD SWAP4 ADD SWAP4 ADD SWAP3 SWAP2 SWAP8 SWAP6 SWAP5 SWAP7 SWAP8 PUSH2 0x22C3 JUMP JUMPDEST POP CALLVALUE PUSH2 0xDC2 JUMPI PUSH1 0x20 CALLDATASIZE PUSH1 0x3 NOT ADD SLT PUSH2 0xDC2 JUMPI PUSH1 0x4 CALLDATALOAD DUP2 MSTORE PUSH1 0x12 PUSH1 0x20 MSTORE PUSH1 0x40 DUP2 KECCAK256 PUSH1 0xC PUSH1 0x20 MSTORE PUSH1 0x40 DUP3 KECCAK256 SWAP1 PUSH1 0x2 DUP2 ADD SLOAD SWAP2 PUSH1 0xFF DUP4 AND PUSH1 0x3 DUP2 LT ISZERO PUSH2 0x2445 JUMPI SWAP4 PUSH1 0xA0 SWAP5 ISZERO DUP1 PUSH2 0x2433 JUMPI JUMPDEST ISZERO PUSH2 0x241A JUMPI POP PUSH1 0x3 PUSH4 0xFFFFFFFF DUP1 SWAP5 PUSH1 0x28 SHR AND SWAP3 ADD SLOAD SWAP3 PUSH1 0x7 PUSH2 0x23F1 DUP6 DUP6 PUSH2 0x35ED JUMP JUMPDEST SWAP5 SWAP4 SWAP3 ADD SLOAD AND SWAP1 PUSH1 0x1 SWAP3 JUMPDEST PUSH1 0x40 MLOAD SWAP5 DUP6 MSTORE PUSH1 0x20 DUP6 ADD MSTORE PUSH1 0x40 DUP5 ADD MSTORE PUSH1 0x60 DUP4 ADD MSTORE ISZERO ISZERO PUSH1 0x80 DUP3 ADD MSTORE RETURN JUMPDEST PUSH1 0x7 SWAP1 SWAP2 ADD SLOAD SWAP1 SWAP3 POP DUP3 SWAP2 POP PUSH4 0xFFFFFFFF AND DUP2 DUP1 PUSH2 0x23FC JUMP JUMPDEST POP PUSH4 0xFFFFFFFF DUP5 PUSH1 0x28 SHR AND ISZERO ISZERO PUSH2 0x23CE JUMP JUMPDEST PUSH4 0x4E487B71 PUSH1 0xE0 SHL DUP6 MSTORE PUSH1 0x21 PUSH1 0x4 MSTORE PUSH1 0x24 DUP6 REVERT JUMPDEST POP CALLVALUE PUSH2 0xDC2 JUMPI PUSH1 0x20 CALLDATASIZE PUSH1 0x3 NOT ADD SLT PUSH2 0xDC2 JUMPI PUSH1 0x40 PUSH1 0xE0 SWAP2 PUSH1 0x4 CALLDATALOAD DUP2 MSTORE PUSH1 0x12 PUSH1 0x20 MSTORE KECCAK256 PUSH1 0x1 DUP1 PUSH1 0xA0 SHL SUB DUP2 SLOAD AND SWAP1 PUSH1 0x1 DUP2 ADD SLOAD SWAP1 PUSH1 0x2 DUP2 ADD SLOAD PUSH1 0x6 PUSH1 0x3 DUP4 ADD SLOAD SWAP3 ADD SLOAD SWAP3 PUSH1 0x40 MLOAD SWAP5 DUP6 MSTORE PUSH1 0x20 DUP6 ADD MSTORE PUSH2 0x24B7 PUSH1 0x40 DUP6 ADD PUSH1 0xFF DUP4 AND PUSH2 0x2F54 JUMP JUMPDEST PUSH4 0xFFFFFFFF SWAP1 DUP2 DUP2 PUSH1 0x8 SHR AND PUSH1 0x60 DUP7 ADD MSTORE PUSH1 0x28 SHR AND PUSH1 0x80 DUP5 ADD MSTORE PUSH1 0xA0 DUP4 ADD MSTORE PUSH1 0xC0 DUP3 ADD MSTORE RETURN JUMPDEST POP CALLVALUE PUSH2 0xDC2 JUMPI PUSH1 0x40 CALLDATASIZE PUSH1 0x3 NOT ADD SLT PUSH2 0xDC2 JUMPI PUSH2 0x24F7 PUSH2 0x305C JUMP JUMPDEST DUP2 PUSH2 0x2500 PUSH2 0x2F3E JUMP JUMPDEST PUSH1 0x1 SLOAD SWAP1 SWAP3 PUSH1 0x1 PUSH1 0x1 PUSH1 0xA0 SHL SUB SWAP2 DUP3 AND SWAP1 DUP2 EXTCODESIZE ISZERO PUSH2 0x9F2 JUMPI DUP4 PUSH1 0x44 SWAP3 PUSH4 0xFFFFFFFF SWAP5 PUSH1 0x40 MLOAD SWAP8 DUP9 SWAP7 DUP8 SWAP6 PUSH4 0x86ECC79 PUSH1 0xE2 SHL DUP8 MSTORE AND PUSH1 0x4 DUP7 ADD MSTORE AND PUSH1 0x24 DUP5 ADD MSTORE GAS CALL DUP1 ISZERO PUSH2 0x9E7 JUMPI PUSH2 0x2550 JUMPI POP DUP1 RETURN JUMPDEST PUSH2 0x2559 SWAP1 PUSH2 0x33E5 JUMP JUMPDEST DUP1 RETURN JUMPDEST POP CALLVALUE PUSH2 0xDC2 JUMPI PUSH1 0xA0 CALLDATASIZE PUSH1 0x3 NOT ADD SLT PUSH2 0xDC2 JUMPI PUSH1 0x4 CALLDATALOAD SWAP1 PUSH2 0x257A PUSH2 0x3036 JUMP JUMPDEST SWAP2 PUSH2 0x2583 PUSH2 0x3049 JUMP JUMPDEST PUSH1 0x64 CALLDATALOAD PUSH4 0xFFFFFFFF SWAP4 DUP5 DUP3 AND DUP1 SWAP3 SUB PUSH2 0xDC2 JUMPI PUSH1 0x84 CALLDATALOAD SWAP5 DUP1 DUP7 AND SWAP2 DUP3 DUP8 SUB PUSH2 0xDC2 JUMPI DUP4 DUP2 MSTORE PUSH1 0x20 SWAP8 PUSH1 0x10 DUP10 MSTORE PUSH1 0x3 DUP4 PUSH1 0x40 DUP5 KECCAK256 SLOAD AND LT ISZERO PUSH2 0x280D JUMPI DUP5 ISZERO DUP1 ISZERO PUSH2 0x27AF JUMPI JUMPDEST PUSH2 0xD45 JUMPI DUP7 ISZERO PUSH2 0x1041 JUMPI DUP3 AND SWAP4 PUSH1 0x46 DUP6 GT DUP1 ISZERO SWAP1 PUSH2 0x27A5 JUMPI JUMPDEST PUSH2 0xD23 JUMPI DUP3 DUP7 AND SWAP4 PUSH1 0x1 DUP6 LT DUP1 ISZERO PUSH2 0x279B JUMPI JUMPDEST PUSH2 0x2789 JUMPI PUSH1 0x1E LT PUSH2 0x2777 JUMPI PUSH1 0xB SLOAD DUP8 GT PUSH2 0x2765 JUMPI DUP9 SWAP8 CALLER DUP4 MSTORE PUSH1 0x11 DUP10 MSTORE PUSH1 0x40 DUP4 KECCAK256 SLOAD DUP1 PUSH2 0x2731 JUMPI JUMPDEST POP SWAP3 PUSH1 0x40 PUSH32 0x8BA1D57FC445F76A3BC884CC60CC8F95F647F54B02D9B1BF1BE78BA0B0BFA768 SWAP7 SWAP4 PUSH2 0x265C SWAP9 SWAP7 SWAP4 PUSH2 0x26E0 PUSH1 0xFF SWAP8 PUSH1 0xC PUSH1 0xD SLOAD SWAP15 DUP16 SWAP14 DUP15 PUSH2 0x31EB JUMP JUMPDEST PUSH1 0xD SSTORE DUP14 DUP7 MSTORE MSTORE DUP5 DUP5 KECCAK256 PUSH1 0x1 DUP2 ADD DUP1 SLOAD PUSH1 0x1 PUSH1 0x1 PUSH1 0xA0 SHL SUB NOT AND CALLER OR SWAP1 SSTORE PUSH1 0x2 DUP2 ADD DUP15 SWAP1 SSTORE PUSH1 0x3 DUP2 ADD DUP1 SLOAD PUSH9 0xFFFFFFFFFFFFFFFFFF NOT AND SWAP1 SWAP10 OR DUP10 SSTORE TIMESTAMP PUSH1 0x4 DUP3 ADD SSTORE PUSH1 0x7 DUP2 ADD DUP1 SLOAD SWAP2 DUP15 SWAP1 SSTORE PUSH8 0xFFFFFFFF00000000 NOT SWAP1 SWAP9 AND PUSH8 0xFFFFFFFFFFFFFFFF NOT SWAP1 SWAP2 AND OR PUSH1 0x20 SWAP2 SWAP1 SWAP2 SHL PUSH8 0xFFFFFFFF00000000 AND OR SWAP1 SWAP6 SSTORE PUSH4 0xFFFFFFFF NOT SWAP5 JUMP JUMPDEST CALLER DUP3 MSTORE PUSH1 0xE DUP14 MSTORE PUSH2 0x26F3 DUP11 DUP5 DUP5 KECCAK256 PUSH2 0x35A3 JUMP JUMPDEST DUP2 MSTORE PUSH1 0x10 DUP13 MSTORE KECCAK256 SWAP2 DUP3 SLOAD SWAP2 PUSH2 0x2709 DUP2 DUP5 AND PUSH2 0x35D8 JUMP JUMPDEST AND SWAP2 AND OR SWAP1 SSTORE SLOAD PUSH1 0x40 SHR AND SWAP1 PUSH2 0x2726 PUSH1 0x40 MLOAD SWAP3 DUP4 SWAP3 CALLER SWAP8 DUP5 PUSH2 0x351C JUMP JUMPDEST SUB SWAP1 LOG3 PUSH1 0x40 MLOAD SWAP1 DUP2 MSTORE RETURN JUMPDEST SWAP1 SWAP7 SWAP5 SWAP2 SWAP4 SWAP9 POP DUP3 SWAP6 SWAP3 MSTORE PUSH1 0x12 DUP10 MSTORE PUSH2 0x2750 PUSH1 0x6 PUSH1 0x40 DUP8 KECCAK256 ADD SLOAD PUSH2 0x31CE JUMP JUMPDEST TIMESTAMP LT PUSH2 0xCBB JUMPI SWAP3 SWAP5 SWAP2 DUP9 SWAP8 SWAP3 CODESIZE SWAP6 SWAP3 SWAP6 PUSH2 0x261B JUMP JUMPDEST PUSH1 0x40 MLOAD PUSH4 0x3E285FF1 PUSH1 0xE2 SHL DUP2 MSTORE PUSH1 0x4 SWAP1 REVERT JUMPDEST PUSH1 0x40 MLOAD PUSH4 0x3631F31D PUSH1 0xE0 SHL DUP2 MSTORE PUSH1 0x4 SWAP1 REVERT JUMPDEST PUSH1 0x40 MLOAD PUSH4 0x53EC955 PUSH1 0xE1 SHL DUP2 MSTORE PUSH1 0x4 SWAP1 REVERT JUMPDEST POP PUSH1 0xC DUP6 GT PUSH2 0x25F3 JUMP JUMPDEST POP PUSH1 0x64 DUP6 GT PUSH2 0x25E0 JUMP JUMPDEST POP PUSH1 0x1 SLOAD PUSH1 0x40 MLOAD PUSH4 0x2CC52B15 PUSH1 0xE1 SHL DUP2 MSTORE CALLER PUSH1 0x4 DUP3 ADD MSTORE SWAP1 DUP11 SWAP1 DUP3 SWAP1 PUSH1 0x24 SWAP1 DUP3 SWAP1 PUSH1 0x1 PUSH1 0x1 PUSH1 0xA0 SHL SUB AND GAS STATICCALL SWAP1 DUP2 ISZERO PUSH2 0x10B2 JUMPI DUP4 SWAP2 PUSH2 0x27F0 JUMPI JUMPDEST POP ISZERO PUSH2 0x25C7 JUMP JUMPDEST PUSH2 0x2807 SWAP2 POP DUP11 RETURNDATASIZE DUP13 GT PUSH2 0xAC4 JUMPI PUSH2 0xAB6 DUP2 DUP4 PUSH2 0x3415 JUMP JUMPDEST CODESIZE PUSH2 0x27E9 JUMP JUMPDEST PUSH1 0x40 MLOAD PUSH4 0x70C9AD1B PUSH1 0xE1 SHL DUP2 MSTORE PUSH1 0x4 SWAP1 REVERT JUMPDEST POP CALLVALUE PUSH2 0xDC2 JUMPI PUSH1 0x20 CALLDATASIZE PUSH1 0x3 NOT ADD SLT PUSH2 0xDC2 JUMPI DUP1 PUSH2 0x100 PUSH1 0x40 MLOAD PUSH2 0x2841 DUP2 PUSH2 0x33B2 JUMP JUMPDEST DUP3 DUP2 MSTORE DUP3 PUSH1 0x20 DUP3 ADD MSTORE DUP3 PUSH1 0x40 DUP3 ADD MSTORE DUP3 PUSH1 0x60 DUP3 ADD MSTORE DUP3 PUSH1 0x80 DUP3 ADD MSTORE DUP3 PUSH1 0xA0 DUP3 ADD MSTORE DUP3 PUSH1 0xC0 DUP3 ADD MSTORE PUSH1 0x60 PUSH1 0xE0 DUP3 ADD MSTORE ADD MSTORE PUSH1 0x4 CALLDATALOAD DUP2 MSTORE PUSH1 0xC PUSH1 0x20 MSTORE PUSH1 0x40 DUP2 KECCAK256 SWAP1 DUP2 SLOAD SWAP2 PUSH1 0x1 DUP1 PUSH1 0xA0 SHL SUB PUSH1 0x1 DUP3 ADD SLOAD AND SWAP2 PUSH1 0x2 DUP3 ADD SLOAD SWAP1 PUSH1 0x3 DUP4 ADD SLOAD SWAP1 PUSH4 0xFFFFFFFF PUSH1 0xFF DUP4 PUSH1 0x40 SHR AND SWAP3 PUSH1 0x4 DUP7 ADD SLOAD SWAP5 DUP3 PUSH1 0x7 DUP9 ADD SLOAD AND SWAP8 PUSH1 0x40 MLOAD SWAP10 PUSH2 0x28C5 DUP12 PUSH2 0x33B2 JUMP JUMPDEST DUP11 MSTORE PUSH1 0x20 DUP11 ADD MSTORE PUSH1 0x40 DUP10 ADD MSTORE DUP2 DUP2 AND PUSH1 0x60 DUP10 ADD MSTORE PUSH1 0x20 SHR AND PUSH1 0x80 DUP8 ADD MSTORE PUSH1 0x7 DUP3 LT ISZERO PUSH2 0x29A5 JUMPI POP PUSH1 0xA0 DUP6 ADD MSTORE PUSH1 0xC0 DUP5 ADD MSTORE PUSH2 0x2902 SWAP1 PUSH1 0x5 ADD PUSH2 0x37FC JUMP JUMPDEST PUSH1 0xE0 DUP4 ADD MSTORE PUSH2 0x100 DUP3 ADD MSTORE PUSH1 0x40 MLOAD DUP1 SWAP2 PUSH1 0x20 DUP3 MSTORE DUP1 MLOAD PUSH1 0x20 DUP4 ADD MSTORE PUSH1 0x1 DUP1 PUSH1 0xA0 SHL SUB PUSH1 0x20 DUP3 ADD MLOAD AND PUSH1 0x40 DUP4 ADD MSTORE PUSH1 0x40 DUP2 ADD MLOAD PUSH1 0x60 DUP4 ADD MSTORE PUSH4 0xFFFFFFFF PUSH1 0x60 DUP3 ADD MLOAD AND PUSH1 0x80 DUP4 ADD MSTORE PUSH4 0xFFFFFFFF PUSH1 0x80 DUP3 ADD MLOAD AND PUSH1 0xA0 DUP4 ADD MSTORE PUSH2 0x296B PUSH1 0xA0 DUP3 ADD MLOAD PUSH1 0xC0 DUP5 ADD SWAP1 PUSH2 0x306F JUMP JUMPDEST PUSH1 0xC0 DUP2 ADD MLOAD PUSH1 0xE0 DUP4 ADD MSTORE PUSH1 0xE0 DUP2 ADD MLOAD PUSH4 0xFFFFFFFF PUSH2 0x100 PUSH2 0x2999 PUSH2 0x120 SWAP4 DUP5 DUP4 DUP9 ADD MSTORE PUSH2 0x140 DUP8 ADD SWAP1 PUSH2 0x307C JUMP JUMPDEST SWAP4 ADD MLOAD AND SWAP1 DUP4 ADD MSTORE SUB SWAP1 RETURN JUMPDEST PUSH4 0x4E487B71 PUSH1 0xE0 SHL DUP2 MSTORE PUSH1 0x21 PUSH1 0x4 MSTORE PUSH1 0x24 SWAP1 REVERT JUMPDEST POP CALLVALUE PUSH2 0xDC2 JUMPI PUSH1 0x40 CALLDATASIZE PUSH1 0x3 NOT ADD SLT PUSH2 0xDC2 JUMPI PUSH2 0x29D3 PUSH2 0x3036 JUMP JUMPDEST SWAP1 PUSH2 0x29DC PUSH2 0x335C JUMP JUMPDEST PUSH4 0xFFFFFFFF DUP3 AND ISZERO DUP1 ISZERO PUSH2 0x2C04 JUMPI JUMPDEST PUSH2 0xD45 JUMPI PUSH1 0x4 CALLDATALOAD DUP2 MSTORE PUSH1 0xC PUSH1 0x20 MSTORE PUSH1 0x40 DUP2 KECCAK256 PUSH1 0x3 DUP2 ADD SLOAD PUSH1 0x64 PUSH4 0xFFFFFFFF DUP3 PUSH1 0x20 SHR AND EQ PUSH2 0x2BF2 JUMPI PUSH1 0x1 DUP3 ADD SLOAD CALLER PUSH1 0x1 PUSH1 0x1 PUSH1 0xA0 SHL SUB SWAP1 SWAP2 AND SUB PUSH2 0x2BE0 JUMPI PUSH1 0x40 SHR PUSH1 0xFF AND PUSH1 0x7 DUP2 LT ISZERO PUSH2 0x126A JUMPI PUSH1 0x3 DUP2 EQ SWAP1 DUP2 ISZERO PUSH2 0x2BD5 JUMPI JUMPDEST POP PUSH2 0x2BC3 JUMPI DUP2 SWAP1 DUP3 JUMPDEST PUSH1 0x5 DUP3 ADD SLOAD DUP2 LT ISZERO PUSH2 0x2B11 JUMPI PUSH2 0x2A66 DUP2 PUSH1 0x5 DUP5 ADD PUSH2 0x317C JUMP JUMPDEST SWAP1 SLOAD PUSH1 0x3 SWAP2 SWAP1 SWAP2 SHL SHR PUSH1 0x1 PUSH1 0x1 PUSH1 0xA0 SHL SUB AND DUP1 DUP6 MSTORE PUSH1 0x6 DUP4 ADD PUSH1 0x20 MSTORE PUSH1 0x40 DUP6 KECCAK256 SLOAD SWAP1 DUP2 PUSH2 0x2A9E JUMPI JUMPDEST POP POP PUSH2 0x2A99 SWAP1 PUSH2 0x31EB JUMP JUMPDEST PUSH2 0x2A4D JUMP JUMPDEST PUSH2 0x2ACB DUP3 PUSH2 0x2A99 SWAP5 SWAP4 SWAP7 PUSH1 0xF PUSH1 0x20 MSTORE PUSH1 0x40 DUP10 KECCAK256 DUP3 DUP2 SLOAD SUB SWAP1 SSTORE PUSH1 0x6 PUSH1 0x20 MSTORE PUSH1 0x40 DUP10 KECCAK256 DUP3 DUP2 SLOAD ADD SWAP1 SSTORE PUSH2 0x31DE JUMP JUMPDEST SWAP5 DUP2 DUP8 MSTORE PUSH1 0x6 DUP6 ADD PUSH1 0x20 MSTORE DUP7 PUSH1 0x40 DUP2 KECCAK256 SSTORE PUSH1 0x40 MLOAD SWAP1 DUP2 MSTORE PUSH32 0x3290469B25240CB85DB34AF1F3D3117D889B712A22AC0988F554F4F8E0ED919 PUSH1 0x20 PUSH1 0x4 CALLDATALOAD SWAP3 LOG3 SWAP1 CODESIZE PUSH2 0x2A8E JUMP JUMPDEST POP PUSH1 0x20 SWAP3 PUSH1 0x1 SWAP2 PUSH4 0xFFFFFFFF DUP7 AND DUP3 MSTORE PUSH1 0x10 DUP6 MSTORE PUSH1 0x40 DUP3 KECCAK256 DUP1 SLOAD PUSH4 0xFFFFFFFF PUSH2 0x2B3B DUP2 DUP4 AND PUSH2 0x34F0 JUMP JUMPDEST AND SWAP1 PUSH4 0xFFFFFFFF NOT AND OR SWAP1 SSTORE PUSH9 0x60000000000000000 PUSH9 0xFFFFFFFFFF00000000 NOT PUSH1 0x3 DUP4 ADD SLOAD AND OR DUP1 PUSH1 0x3 DUP4 ADD SSTORE PUSH32 0x8BA1D57FC445F76A3BC884CC60CC8F95F647F54B02D9B1BF1BE78BA0B0BFA768 PUSH2 0x2BB7 PUSH4 0xFFFFFFFF PUSH1 0x7 PUSH1 0x2 DUP7 ADD SLOAD SWAP6 ADD SLOAD AND SWAP4 PUSH1 0x40 MLOAD SWAP2 DUP3 SWAP2 CALLER SWAP7 PUSH1 0xFF PUSH1 0x4 CALLDATALOAD SWAP8 PUSH1 0x40 SHR AND SWAP2 DUP5 PUSH2 0x351C JUMP JUMPDEST SUB SWAP1 LOG3 SSTORE PUSH1 0x40 MLOAD SWAP1 DUP2 MSTORE RETURN JUMPDEST PUSH1 0x40 MLOAD PUSH4 0x7023A7C5 PUSH1 0xE1 SHL DUP2 MSTORE PUSH1 0x4 SWAP1 REVERT JUMPDEST PUSH1 0x6 SWAP2 POP EQ CODESIZE PUSH2 0x2A44 JUMP JUMPDEST PUSH1 0x40 MLOAD PUSH4 0xC671F079 PUSH1 0xE0 SHL DUP2 MSTORE PUSH1 0x4 SWAP1 REVERT JUMPDEST PUSH1 0x40 MLOAD PUSH4 0x7D43AE1 PUSH1 0xE3 SHL DUP2 MSTORE PUSH1 0x4 SWAP1 REVERT JUMPDEST POP PUSH1 0x1 SLOAD PUSH1 0x40 MLOAD PUSH4 0x2CC52B15 PUSH1 0xE1 SHL DUP2 MSTORE CALLER PUSH1 0x4 DUP3 ADD MSTORE SWAP1 PUSH1 0x20 SWAP1 DUP3 SWAP1 PUSH1 0x24 SWAP1 DUP3 SWAP1 PUSH1 0x1 PUSH1 0x1 PUSH1 0xA0 SHL SUB AND GAS STATICCALL SWAP1 DUP2 ISZERO PUSH2 0x9E7 JUMPI DUP3 SWAP2 PUSH2 0x2C46 JUMPI JUMPDEST POP ISZERO PUSH2 0x29EB JUMP JUMPDEST PUSH2 0x2C5E SWAP2 POP PUSH1 0x20 RETURNDATASIZE DUP2 GT PUSH2 0xAC4 JUMPI PUSH2 0xAB6 DUP2 DUP4 PUSH2 0x3415 JUMP JUMPDEST CODESIZE PUSH2 0x2C3F JUMP JUMPDEST POP CALLVALUE PUSH2 0xDC2 JUMPI PUSH1 0x20 DUP1 PUSH1 0x3 NOT CALLDATASIZE ADD SLT PUSH2 0x9E3 JUMPI PUSH1 0x1 PUSH1 0x1 PUSH1 0xA0 SHL SUB SWAP2 SWAP1 DUP3 PUSH2 0x2C8A PUSH2 0x2F28 JUMP JUMPDEST AND DUP1 DUP4 MSTORE PUSH1 0xE DUP3 MSTORE PUSH1 0x40 DUP4 KECCAK256 DUP1 SLOAD DUP5 SWAP3 SWAP2 DUP4 JUMPDEST DUP3 DUP2 LT PUSH2 0x2E63 JUMPI POP PUSH2 0x2CAE DUP5 PUSH2 0x3437 JUMP JUMPDEST SWAP4 PUSH2 0x2CBC PUSH1 0x40 MLOAD SWAP6 DUP7 PUSH2 0x3415 JUMP JUMPDEST DUP1 DUP6 MSTORE PUSH1 0x1F NOT PUSH2 0x2CCB DUP3 PUSH2 0x3437 JUMP JUMPDEST ADD DUP8 JUMPDEST DUP2 DUP2 LT PUSH2 0x2E44 JUMPI POP POP PUSH2 0x2CE0 SWAP1 PUSH2 0x363C JUMP JUMPDEST SWAP7 DUP7 SWAP4 DUP8 JUMPDEST DUP5 DUP2 LT PUSH2 0x2D64 JUMPI POP POP POP POP POP POP PUSH1 0x40 MLOAD SWAP4 DUP5 SWAP3 PUSH1 0x40 DUP5 ADD PUSH1 0x40 DUP6 MSTORE DUP4 MLOAD DUP1 SWAP2 MSTORE PUSH1 0x60 DUP6 ADD DUP3 PUSH1 0x60 DUP4 PUSH1 0x5 SHL DUP9 ADD ADD SWAP6 ADD SWAP7 SWAP1 JUMPDEST DUP3 DUP3 LT PUSH2 0x2D34 JUMPI POP POP POP DUP4 PUSH2 0x147D SWAP5 SWAP6 POP DUP4 SUB SWAP1 DUP6 ADD MSTORE PUSH2 0x2F77 JUMP JUMPDEST SWAP2 SWAP4 SWAP6 POP SWAP2 SWAP4 DUP5 DUP1 PUSH2 0x2D52 PUSH1 0x1 SWAP4 PUSH1 0x5F NOT DUP13 DUP3 SUB ADD DUP7 MSTORE DUP11 MLOAD PUSH2 0x2FAB JUMP JUMPDEST SWAP9 ADD SWAP3 ADD SWAP3 ADD DUP8 SWAP6 SWAP4 SWAP2 SWAP7 SWAP5 SWAP3 PUSH2 0x2D18 JUMP JUMPDEST PUSH2 0x2D73 DUP2 DUP6 SWAP12 SWAP10 SWAP9 SWAP11 SWAP12 PUSH2 0x317C JUMP JUMPDEST SWAP1 SLOAD PUSH1 0x3 SWAP2 DUP3 SHL SHR DUP12 MSTORE PUSH1 0x12 DUP9 MSTORE DUP10 PUSH1 0x40 DUP13 KECCAK256 DUP5 DUP7 DUP3 SLOAD AND EQ DUP1 PUSH2 0x2E14 JUMPI JUMPDEST DUP1 PUSH2 0x2DFE JUMPI JUMPDEST PUSH2 0x2DB3 JUMPI JUMPDEST POP POP POP PUSH2 0x2DA9 SWAP1 PUSH2 0x31EB JUMP JUMPDEST SWAP9 SWAP8 SWAP6 SWAP7 SWAP9 PUSH2 0x2CE5 JUMP JUMPDEST SWAP2 DUP9 SWAP2 PUSH2 0x2DD0 PUSH2 0x2DA9 SWAP6 SWAP11 PUSH2 0x2DCA PUSH2 0x2DF5 SWAP7 PUSH2 0x3706 JUMP JUMPDEST SWAP3 PUSH2 0x366E JUMP JUMPDEST MSTORE PUSH2 0x2DDB DUP3 DUP14 PUSH2 0x366E JUMP JUMPDEST POP PUSH2 0x2DE6 DUP10 DUP9 PUSH2 0x317C JUMP JUMPDEST SWAP1 SLOAD SWAP2 SHL SHR PUSH2 0xB7B DUP3 DUP13 PUSH2 0x366E JUMP JUMPDEST SWAP6 SWAP1 DUP10 CODESIZE PUSH2 0x2D9D JUMP JUMPDEST POP PUSH4 0xFFFFFFFF PUSH1 0x2 DUP3 ADD SLOAD PUSH1 0x28 SHR AND ISZERO ISZERO PUSH2 0x2D98 JUMP JUMPDEST POP SWAP1 POP PUSH1 0xFF PUSH1 0x2 DUP3 ADD SLOAD AND DUP3 DUP2 LT ISZERO PUSH2 0x2E30 JUMPI SWAP1 DUP12 SWAP2 ISZERO PUSH2 0x2D92 JUMP JUMPDEST PUSH4 0x4E487B71 PUSH1 0xE0 SHL DUP14 MSTORE PUSH1 0x21 PUSH1 0x4 MSTORE PUSH1 0x24 DUP14 REVERT JUMPDEST SWAP7 DUP1 SWAP7 SWAP9 SWAP10 SWAP8 PUSH2 0x2E52 PUSH2 0x36BF JUMP JUMPDEST DUP3 DUP3 DUP13 ADD ADD MSTORE ADD SWAP9 SWAP8 SWAP6 SWAP7 SWAP9 PUSH2 0x2CCE JUMP JUMPDEST PUSH2 0x2E72 DUP2 DUP4 SWAP10 SWAP8 SWAP7 SWAP9 SWAP10 PUSH2 0x317C JUMP JUMPDEST SWAP1 SLOAD PUSH1 0x3 SWAP2 DUP3 SHL SHR DUP10 MSTORE PUSH1 0x12 DUP7 MSTORE PUSH1 0x40 DUP10 KECCAK256 DUP6 DUP9 DUP3 SLOAD AND EQ SWAP2 DUP3 PUSH2 0x2EDD JUMPI JUMPDEST POP DUP2 PUSH2 0x2EC6 JUMPI JUMPDEST POP PUSH2 0x2EB1 JUMPI JUMPDEST PUSH2 0x2EA7 SWAP1 PUSH2 0x31EB JUMP JUMPDEST SWAP7 SWAP6 SWAP4 SWAP5 SWAP7 PUSH2 0x2C9D JUMP JUMPDEST SWAP6 PUSH2 0x2EBE PUSH2 0x2EA7 SWAP2 PUSH2 0x31EB JUMP JUMPDEST SWAP7 SWAP1 POP PUSH2 0x2E9E JUMP JUMPDEST PUSH4 0xFFFFFFFF SWAP2 POP PUSH1 0x2 ADD SLOAD PUSH1 0x28 SHR AND ISZERO ISZERO CODESIZE PUSH2 0x2E98 JUMP JUMPDEST SWAP1 SWAP2 POP PUSH1 0xFF PUSH1 0x2 DUP4 ADD SLOAD AND SWAP1 DUP2 LT ISZERO PUSH2 0x2EF8 JUMPI ISZERO SWAP1 CODESIZE PUSH2 0x2E91 JUMP JUMPDEST PUSH4 0x4E487B71 PUSH1 0xE0 SHL DUP11 MSTORE PUSH1 0x21 PUSH1 0x4 MSTORE PUSH1 0x24 DUP11 REVERT JUMPDEST SWAP1 POP CALLVALUE PUSH2 0x9E3 JUMPI DUP2 PUSH1 0x3 NOT CALLDATASIZE ADD SLT PUSH2 0x9E3 JUMPI PUSH1 0x20 SWAP1 PUSH1 0xA SLOAD DUP2 MSTORE RETURN JUMPDEST PUSH1 0x4 CALLDATALOAD SWAP1 PUSH1 0x1 PUSH1 0x1 PUSH1 0xA0 SHL SUB DUP3 AND DUP3 SUB PUSH2 0xE6C JUMPI JUMP JUMPDEST PUSH1 0x24 CALLDATALOAD SWAP1 PUSH1 0x1 PUSH1 0x1 PUSH1 0xA0 SHL SUB DUP3 AND DUP3 SUB PUSH2 0xE6C JUMPI JUMP JUMPDEST SWAP1 PUSH1 0x3 DUP3 LT ISZERO PUSH2 0x2F61 JUMPI MSTORE JUMP JUMPDEST PUSH4 0x4E487B71 PUSH1 0xE0 SHL PUSH1 0x0 MSTORE PUSH1 0x21 PUSH1 0x4 MSTORE PUSH1 0x24 PUSH1 0x0 REVERT JUMPDEST SWAP1 DUP2 MLOAD DUP1 DUP3 MSTORE PUSH1 0x20 DUP1 DUP1 SWAP4 ADD SWAP4 ADD SWAP2 PUSH1 0x0 JUMPDEST DUP3 DUP2 LT PUSH2 0x2F97 JUMPI POP POP POP POP SWAP1 JUMP JUMPDEST DUP4 MLOAD DUP6 MSTORE SWAP4 DUP2 ADD SWAP4 SWAP3 DUP2 ADD SWAP3 PUSH1 0x1 ADD PUSH2 0x2F89 JUMP JUMPDEST SWAP1 PUSH1 0x1 DUP1 PUSH1 0xA0 SHL SUB DUP3 MLOAD AND DUP2 MSTORE PUSH1 0x20 DUP3 ADD MLOAD PUSH1 0x20 DUP3 ADD MSTORE PUSH2 0x2FD4 PUSH1 0x40 DUP4 ADD MLOAD PUSH1 0x40 DUP4 ADD SWAP1 PUSH2 0x2F54 JUMP JUMPDEST PUSH4 0xFFFFFFFF DUP1 PUSH1 0x60 DUP5 ADD MLOAD AND PUSH1 0x60 DUP4 ADD MSTORE PUSH1 0x80 DUP4 ADD MLOAD AND PUSH1 0x80 DUP3 ADD MSTORE PUSH1 0xA0 DUP3 ADD MLOAD PUSH1 0xA0 DUP3 ADD MSTORE PUSH2 0x3028 PUSH2 0x3016 PUSH1 0xC0 DUP5 ADD MLOAD PUSH2 0x120 DUP1 PUSH1 0xC0 DUP7 ADD MSTORE DUP5 ADD SWAP1 PUSH2 0x2F77 JUMP JUMPDEST PUSH1 0xE0 DUP5 ADD MLOAD DUP4 DUP3 SUB PUSH1 0xE0 DUP6 ADD MSTORE PUSH2 0x2F77 JUMP JUMPDEST SWAP2 PUSH2 0x100 DUP1 SWAP2 ADD MLOAD SWAP2 ADD MSTORE SWAP1 JUMP JUMPDEST PUSH1 0x24 CALLDATALOAD SWAP1 PUSH4 0xFFFFFFFF DUP3 AND DUP3 SUB PUSH2 0xE6C JUMPI JUMP JUMPDEST PUSH1 0x44 CALLDATALOAD SWAP1 PUSH4 0xFFFFFFFF DUP3 AND DUP3 SUB PUSH2 0xE6C JUMPI JUMP JUMPDEST PUSH1 0x4 CALLDATALOAD SWAP1 PUSH4 0xFFFFFFFF DUP3 AND DUP3 SUB PUSH2 0xE6C JUMPI JUMP JUMPDEST SWAP1 PUSH1 0x7 DUP3 LT ISZERO PUSH2 0x2F61 JUMPI MSTORE JUMP JUMPDEST SWAP1 DUP2 MLOAD DUP1 DUP3 MSTORE PUSH1 0x20 DUP1 DUP1 SWAP4 ADD SWAP4 ADD SWAP2 PUSH1 0x0 JUMPDEST DUP3 DUP2 LT PUSH2 0x309C JUMPI POP POP POP POP SWAP1 JUMP JUMPDEST DUP4 MLOAD PUSH1 0x1 PUSH1 0x1 PUSH1 0xA0 SHL SUB AND DUP6 MSTORE SWAP4 DUP2 ADD SWAP4 SWAP3 DUP2 ADD SWAP3 PUSH1 0x1 ADD PUSH2 0x308E JUMP JUMPDEST CALLVALUE PUSH2 0xE6C JUMPI PUSH1 0x0 CALLDATASIZE PUSH1 0x3 NOT ADD SLT PUSH2 0xE6C JUMPI PUSH1 0x20 PUSH1 0xB SLOAD PUSH1 0x40 MLOAD SWAP1 DUP2 MSTORE RETURN JUMPDEST CALLVALUE PUSH2 0xE6C JUMPI PUSH1 0x0 DUP1 PUSH1 0x3 NOT CALLDATASIZE ADD SLT PUSH2 0xDC2 JUMPI PUSH1 0x40 MLOAD PUSH4 0x70A08231 PUSH1 0xE0 SHL DUP2 MSTORE ADDRESS PUSH1 0x4 DUP3 ADD MSTORE PUSH1 0x20 DUP2 PUSH1 0x24 DUP2 PUSH32 0x0 PUSH1 0x1 PUSH1 0x1 PUSH1 0xA0 SHL SUB AND GAS STATICCALL SWAP1 DUP2 ISZERO PUSH2 0x9E7 JUMPI DUP3 SWAP2 PUSH2 0x3147 JUMPI JUMPDEST PUSH1 0x20 DUP3 PUSH1 0x40 MLOAD SWAP1 DUP2 MSTORE RETURN JUMPDEST SWAP1 POP PUSH1 0x20 DUP2 RETURNDATASIZE DUP3 GT PUSH2 0x3174 JUMPI JUMPDEST DUP2 PUSH2 0x3161 PUSH1 0x20 SWAP4 DUP4 PUSH2 0x3415 JUMP JUMPDEST DUP2 ADD SUB SLT PUSH2 0x9E3 JUMPI PUSH1 0x20 SWAP2 POP MLOAD CODESIZE PUSH2 0x313C JUMP JUMPDEST RETURNDATASIZE SWAP2 POP PUSH2 0x3154 JUMP JUMPDEST DUP1 SLOAD DUP3 LT ISZERO PUSH2 0xA74 JUMPI PUSH1 0x0 MSTORE PUSH1 0x20 PUSH1 0x0 KECCAK256 ADD SWAP1 PUSH1 0x0 SWAP1 JUMP JUMPDEST PUSH1 0x2 SLOAD DUP2 LT ISZERO PUSH2 0xA74 JUMPI PUSH1 0x2 PUSH1 0x0 MSTORE PUSH1 0x2 SHL PUSH32 0x405787FA12A823E0F2B7631CC41B3BA8828B3321CA811111FA75CD3AA3BB5ACE ADD SWAP1 PUSH1 0x0 SWAP1 JUMP JUMPDEST SWAP1 PUSH3 0x278D00 DUP3 ADD DUP1 SWAP3 GT PUSH2 0xC70 JUMPI JUMP JUMPDEST SWAP2 SWAP1 DUP3 ADD DUP1 SWAP3 GT PUSH2 0xC70 JUMPI JUMP JUMPDEST PUSH1 0x0 NOT DUP2 EQ PUSH2 0xC70 JUMPI PUSH1 0x1 ADD SWAP1 JUMP JUMPDEST PUSH1 0x2 SWAP2 DUP3 SLOAD SWAP3 DUP4 ISZERO PUSH2 0x3356 JUMPI PUSH1 0x5 SLOAD SWAP2 PUSH3 0x13C680 DUP4 ADD DUP1 SWAP4 GT PUSH2 0xC70 JUMPI PUSH1 0x4 SWAP3 DUP4 SLOAD ISZERO SWAP1 DUP2 PUSH2 0x334B JUMPI JUMPDEST POP PUSH2 0x333A JUMPI PUSH1 0x0 SWAP5 DUP6 JUMPDEST DUP6 DUP8 LT DUP1 PUSH2 0x3330 JUMPI JUMPDEST ISZERO PUSH2 0x32E1 JUMPI PUSH2 0x3279 PUSH2 0x327F SWAP2 PUSH2 0x324D DUP8 SLOAD PUSH2 0x3194 JUMP JUMPDEST POP PUSH1 0x3 DUP2 ADD DUP1 SLOAD SWAP1 PUSH1 0xFF DUP3 AND ISZERO DUP1 PUSH2 0x32D5 JUMPI JUMPDEST PUSH2 0x3285 JUMPI JUMPDEST POP POP POP PUSH2 0x3272 DUP8 SLOAD PUSH2 0x31EB JUMP JUMPDEST DUP8 SSTORE PUSH2 0x31EB JUMP JUMPDEST SWAP7 PUSH2 0x31EB JUMP JUMPDEST SWAP6 PUSH2 0x322E JUMP JUMPDEST PUSH1 0x1 DUP1 SWAP3 PUSH1 0xFF NOT AND OR SWAP1 SSTORE PUSH32 0xCF08CFD581AE48E3E5053C3DDAD657750A872D827972A57CA253B1AB4748B0BC PUSH1 0x20 DUP10 DUP5 SLOAD SWAP4 PUSH1 0x1 DUP1 PUSH1 0xA0 SHL SUB SWAP1 DUP7 ADD SLOAD AND SWAP5 ADD SLOAD PUSH1 0x40 MLOAD SWAP1 DUP2 MSTORE LOG3 CODESIZE DUP1 DUP1 PUSH2 0x3265 JUMP JUMPDEST POP DUP9 DUP4 ADD SLOAD TIMESTAMP GT PUSH2 0x3260 JUMP JUMPDEST SWAP3 POP PUSH1 0x40 SWAP4 SWAP2 SWAP6 POP PUSH32 0xB8EE613246CAED01F690AEBBF94B750E593F665C039C5B937631201512B63B97 SWAP5 POP DUP2 SLOAD LT ISZERO PUSH2 0x3323 JUMPI JUMPDEST SLOAD DUP3 MLOAD SWAP2 DUP3 MSTORE PUSH1 0x20 DUP3 ADD MSTORE LOG1 JUMP JUMPDEST PUSH1 0x0 DUP2 SSTORE TIMESTAMP PUSH1 0x5 SSTORE PUSH2 0x3315 JUMP JUMPDEST POP DUP2 DUP6 SLOAD LT PUSH2 0x3237 JUMP JUMPDEST PUSH1 0x40 MLOAD PUSH4 0x6410C907 PUSH1 0xE0 SHL DUP2 MSTORE DUP4 SWAP1 REVERT JUMPDEST SWAP1 POP TIMESTAMP GT ISZERO CODESIZE PUSH2 0x3224 JUMP JUMPDEST POP SWAP2 POP POP JUMP JUMPDEST PUSH1 0x2 PUSH1 0x0 SLOAD EQ PUSH2 0x336D JUMPI PUSH1 0x2 PUSH1 0x0 SSTORE JUMP JUMPDEST PUSH1 0x40 MLOAD PUSH3 0x461BCD PUSH1 0xE5 SHL DUP2 MSTORE PUSH1 0x20 PUSH1 0x4 DUP3 ADD MSTORE PUSH1 0x1F PUSH1 0x24 DUP3 ADD MSTORE PUSH32 0x5265656E7472616E637947756172643A207265656E7472616E742063616C6C00 PUSH1 0x44 DUP3 ADD MSTORE PUSH1 0x64 SWAP1 REVERT JUMPDEST PUSH2 0x120 DUP2 ADD SWAP1 DUP2 LT PUSH8 0xFFFFFFFFFFFFFFFF DUP3 GT OR PUSH2 0x33CF JUMPI PUSH1 0x40 MSTORE JUMP JUMPDEST PUSH4 0x4E487B71 PUSH1 0xE0 SHL PUSH1 0x0 MSTORE PUSH1 0x41 PUSH1 0x4 MSTORE PUSH1 0x24 PUSH1 0x0 REVERT JUMPDEST PUSH8 0xFFFFFFFFFFFFFFFF DUP2 GT PUSH2 0x33CF JUMPI PUSH1 0x40 MSTORE JUMP JUMPDEST PUSH1 0x80 DUP2 ADD SWAP1 DUP2 LT PUSH8 0xFFFFFFFFFFFFFFFF DUP3 GT OR PUSH2 0x33CF JUMPI PUSH1 0x40 MSTORE JUMP JUMPDEST SWAP1 PUSH1 0x1F DUP1 NOT SWAP2 ADD AND DUP2 ADD SWAP1 DUP2 LT PUSH8 0xFFFFFFFFFFFFFFFF DUP3 GT OR PUSH2 0x33CF JUMPI PUSH1 0x40 MSTORE JUMP JUMPDEST PUSH8 0xFFFFFFFFFFFFFFFF DUP2 GT PUSH2 0x33CF JUMPI PUSH1 0x5 SHL PUSH1 0x20 ADD SWAP1 JUMP JUMPDEST PUSH1 0x2 SLOAD ISZERO DUP1 ISZERO PUSH2 0x3485 JUMPI JUMPDEST PUSH2 0x347F JUMPI PUSH1 0x0 MSTORE PUSH1 0x3 PUSH1 0x20 MSTORE PUSH1 0xFF PUSH1 0x3 PUSH2 0x3478 PUSH1 0x40 PUSH1 0x0 KECCAK256 SLOAD PUSH2 0x3194 JUMP JUMPDEST POP ADD SLOAD AND SWAP1 JUMP JUMPDEST POP PUSH1 0x0 SWAP1 JUMP JUMPDEST DUP2 PUSH1 0x0 MSTORE PUSH1 0x3 PUSH1 0x20 MSTORE PUSH1 0x40 PUSH1 0x0 KECCAK256 SLOAD ISZERO SWAP1 DUP2 PUSH2 0x34A2 JUMPI JUMPDEST POP PUSH2 0x345A JUMP JUMPDEST SWAP1 POP PUSH2 0xA74 JUMPI PUSH1 0x2 PUSH1 0x0 MSTORE DUP1 PUSH32 0x405787FA12A823E0F2B7631CC41B3BA8828B3321CA811111FA75CD3AA3BB5ACE SLOAD EQ ISZERO CODESIZE PUSH2 0x349C JUMP JUMPDEST SWAP1 DUP2 PUSH1 0x20 SWAP2 SUB SLT PUSH2 0xE6C JUMPI MLOAD DUP1 ISZERO ISZERO DUP2 SUB PUSH2 0xE6C JUMPI SWAP1 JUMP JUMPDEST PUSH4 0xFFFFFFFF SWAP1 DUP2 AND PUSH1 0x0 NOT ADD SWAP2 SWAP1 DUP3 GT PUSH2 0xC70 JUMPI JUMP JUMPDEST PUSH4 0xFFFFFFFF SWAP2 DUP3 AND SWAP1 DUP3 AND SUB SWAP2 SWAP1 DUP3 GT PUSH2 0xC70 JUMPI JUMP JUMPDEST PUSH1 0x40 SWAP1 PUSH4 0xFFFFFFFF PUSH2 0x3540 SWAP5 SWAP7 SWAP6 SWAP4 SWAP7 PUSH1 0x60 DUP4 ADD SWAP8 DUP4 MSTORE AND PUSH1 0x20 DUP3 ADD MSTORE ADD SWAP1 PUSH2 0x306F JUMP JUMPDEST JUMP JUMPDEST SWAP2 SWAP1 DUP3 SUB SWAP2 DUP3 GT PUSH2 0xC70 JUMPI JUMP JUMPDEST PUSH1 0x1 DUP1 PUSH1 0xA0 SHL SUB AND PUSH1 0x0 MSTORE PUSH1 0x6 PUSH1 0x20 MSTORE PUSH1 0x40 PUSH1 0x0 KECCAK256 SLOAD PUSH1 0xF PUSH1 0x20 MSTORE PUSH1 0x40 PUSH1 0x0 KECCAK256 SLOAD DUP1 DUP3 GT PUSH2 0x357E JUMPI POP POP PUSH1 0x0 SWAP1 JUMP JUMPDEST PUSH2 0x3587 SWAP2 PUSH2 0x3542 JUMP JUMPDEST SWAP1 JUMP JUMPDEST SWAP1 DUP2 PUSH1 0x20 SWAP2 SUB SLT PUSH2 0xE6C JUMPI MLOAD DUP1 PUSH1 0x3 SIGNEXTEND DUP2 SUB PUSH2 0xE6C JUMPI SWAP1 JUMP JUMPDEST DUP1 SLOAD PUSH1 0x1 PUSH1 0x40 SHL DUP2 LT ISZERO PUSH2 0x33CF JUMPI PUSH2 0x35C0 SWAP2 PUSH1 0x1 DUP3 ADD DUP2 SSTORE PUSH2 0x317C JUMP JUMPDEST DUP2 SWAP3 SWAP2 SLOAD SWAP1 PUSH1 0x3 SHL SWAP2 DUP3 SHL SWAP2 PUSH1 0x0 NOT SWAP1 SHL NOT AND OR SWAP1 SSTORE JUMP JUMPDEST SWAP1 PUSH1 0x1 PUSH4 0xFFFFFFFF DUP1 SWAP4 AND ADD SWAP2 DUP3 GT PUSH2 0xC70 JUMPI JUMP JUMPDEST DUP2 DUP2 MUL SWAP3 SWAP2 DUP2 ISZERO SWAP2 DUP5 DIV EQ OR ISZERO PUSH2 0xC70 JUMPI JUMP JUMPDEST DUP2 ISZERO PUSH2 0x360A JUMPI DIV SWAP1 JUMP JUMPDEST PUSH4 0x4E487B71 PUSH1 0xE0 SHL PUSH1 0x0 MSTORE PUSH1 0x12 PUSH1 0x4 MSTORE PUSH1 0x24 PUSH1 0x0 REVERT JUMPDEST SWAP1 DUP2 PUSH1 0x20 SWAP2 SUB SLT PUSH2 0xE6C JUMPI MLOAD PUSH4 0xFFFFFFFF DUP2 AND DUP2 SUB PUSH2 0xE6C JUMPI SWAP1 JUMP JUMPDEST SWAP1 PUSH2 0x3646 DUP3 PUSH2 0x3437 JUMP JUMPDEST PUSH2 0x3653 PUSH1 0x40 MLOAD SWAP2 DUP3 PUSH2 0x3415 JUMP JUMPDEST DUP3 DUP2 MSTORE DUP1 SWAP3 PUSH2 0x3664 PUSH1 0x1F NOT SWAP2 PUSH2 0x3437 JUMP JUMPDEST ADD SWAP1 PUSH1 0x20 CALLDATASIZE SWAP2 ADD CALLDATACOPY JUMP JUMPDEST DUP1 MLOAD DUP3 LT ISZERO PUSH2 0xA74 JUMPI PUSH1 0x20 SWAP2 PUSH1 0x5 SHL ADD ADD SWAP1 JUMP JUMPDEST SWAP1 DUP2 SLOAD DUP1 DUP3 MSTORE PUSH1 0x20 DUP1 SWAP3 ADD SWAP3 PUSH1 0x0 MSTORE DUP2 PUSH1 0x0 KECCAK256 SWAP2 PUSH1 0x0 SWAP1 JUMPDEST DUP3 DUP3 LT PUSH2 0x36A8 JUMPI POP POP POP POP SWAP1 JUMP JUMPDEST DUP4 SLOAD DUP6 MSTORE SWAP4 DUP5 ADD SWAP4 PUSH1 0x1 SWAP4 DUP5 ADD SWAP4 SWAP1 SWAP2 ADD SWAP1 PUSH2 0x369A JUMP JUMPDEST PUSH1 0x40 MLOAD SWAP1 PUSH2 0x36CC DUP3 PUSH2 0x33B2 JUMP JUMPDEST DUP2 PUSH2 0x100 PUSH1 0x0 SWAP2 DUP3 DUP2 MSTORE DUP3 PUSH1 0x20 DUP3 ADD MSTORE DUP3 PUSH1 0x40 DUP3 ADD MSTORE DUP3 PUSH1 0x60 DUP3 ADD MSTORE DUP3 PUSH1 0x80 DUP3 ADD MSTORE DUP3 PUSH1 0xA0 DUP3 ADD MSTORE PUSH1 0x60 PUSH1 0xC0 DUP3 ADD MSTORE PUSH1 0x60 PUSH1 0xE0 DUP3 ADD MSTORE ADD MSTORE JUMP JUMPDEST SWAP1 PUSH1 0x40 MLOAD PUSH2 0x3713 DUP2 PUSH2 0x33B2 JUMP JUMPDEST DUP3 SLOAD PUSH1 0x1 PUSH1 0x1 PUSH1 0xA0 SHL SUB AND DUP2 MSTORE PUSH1 0x1 DUP4 ADD SLOAD PUSH1 0x20 DUP3 ADD MSTORE PUSH1 0x2 DUP4 ADD SLOAD SWAP1 SWAP3 DUP4 SWAP2 SWAP1 PUSH1 0xFF DUP3 AND SWAP1 PUSH1 0x3 DUP3 LT ISZERO PUSH2 0x2F61 JUMPI PUSH2 0x100 SWAP3 PUSH1 0x6 SWAP3 PUSH1 0x40 DUP7 ADD MSTORE PUSH4 0xFFFFFFFF SWAP1 DUP2 DUP2 PUSH1 0x8 SHR AND PUSH1 0x60 DUP8 ADD MSTORE PUSH1 0x28 SHR AND PUSH1 0x80 DUP6 ADD MSTORE PUSH1 0x3 DUP2 ADD SLOAD PUSH1 0xA0 DUP6 ADD MSTORE PUSH1 0x40 MLOAD PUSH2 0x3786 DUP2 PUSH2 0x1462 DUP2 PUSH1 0x4 DUP7 ADD PUSH2 0x3682 JUMP JUMPDEST PUSH1 0xC0 DUP6 ADD MSTORE PUSH1 0x40 MLOAD PUSH2 0x379F DUP2 PUSH2 0x1462 DUP2 PUSH1 0x5 DUP7 ADD PUSH2 0x3682 JUMP JUMPDEST PUSH1 0xE0 DUP6 ADD MSTORE ADD SLOAD SWAP2 ADD MSTORE JUMP JUMPDEST SWAP1 PUSH1 0x0 SWAP2 DUP3 MSTORE PUSH1 0x12 PUSH1 0x20 MSTORE PUSH1 0x40 DUP3 KECCAK256 PUSH1 0x2 DUP2 ADD SLOAD PUSH1 0xFF DUP2 AND PUSH1 0x3 DUP2 LT ISZERO PUSH2 0x2445 JUMPI ISZERO SWAP1 DUP2 PUSH2 0x37E9 JUMPI JUMPDEST POP PUSH2 0x37DE JUMPI POP DUP2 SWAP1 JUMP JUMPDEST PUSH1 0x3 ADD SLOAD SWAP2 POP PUSH1 0x1 SWAP1 JUMP JUMPDEST PUSH4 0xFFFFFFFF SWAP2 POP PUSH1 0x28 SHR AND ISZERO ISZERO CODESIZE PUSH2 0x37D4 JUMP JUMPDEST SWAP1 PUSH1 0x40 MLOAD SWAP2 DUP3 DUP2 SLOAD SWAP2 DUP3 DUP3 MSTORE PUSH1 0x20 SWAP3 DUP4 DUP4 ADD SWAP2 PUSH1 0x0 MSTORE DUP4 PUSH1 0x0 KECCAK256 SWAP4 PUSH1 0x0 SWAP1 JUMPDEST DUP3 DUP3 LT PUSH2 0x3831 JUMPI POP POP POP PUSH2 0x3540 SWAP3 POP SUB DUP4 PUSH2 0x3415 JUMP JUMPDEST DUP6 SLOAD PUSH1 0x1 PUSH1 0x1 PUSH1 0xA0 SHL SUB AND DUP5 MSTORE PUSH1 0x1 SWAP6 DUP7 ADD SWAP6 DUP9 SWAP6 POP SWAP4 DUP2 ADD SWAP4 SWAP1 SWAP2 ADD SWAP1 PUSH2 0x381B JUMP INVALID DUP12 MULMOD 0x4C 0xCA PUSH16 0x83D49402CE208CC0C224B76625FFC586 CALLDATASIZE 0xDF JUMP 0xAE 0x28 MUL 0x4E PUSH17 0x4C5868A26469706673582212204D1C17E3 0xE5 0xBC 0xD REVERT 0xEC 0x4A 0x4E MSTORE 0xDB ADDMOD STOP TIMESTAMP STATICCALL BYTE DUP2 DUP6 0xAF 0xC6 PUSH25 0x8889062DFA2F1D553764736F6C634300081300330000000000 "},"methodIdentifiers":{"CHECK_INTERVAL()":"6ea33ceb","borrowerRequisitions(address,uint256)":"9e932011","canPayRequisition(uint256,address)":"adceb101","canUserBorrow(address,uint256)":"97c33519","cancelLoanRequisition(uint256,uint32)":"140c9ac4","coverLoan(uint256,uint32,uint32)":"ecb18b34","createLoanRequisition(uint256,uint32,uint32,uint32,uint32)":"1beeafa5","debtWatchlist(uint256)":"be7df8ed","donate(uint256,uint32)":"e2763924","getActiveLoans(address)":"03d1a1a1","getAllowance(address)":"eb5a662e","getAvailableBalance()":"809dab6a","getAvailableBorrowAmount()":"291c31a7","getBorrowerRequisitions(address)":"9730872a","getBorrowing(address)":"be5eb580","getContractBalance()":"6f9fb98a","getCoveringLenders(uint256)":"8a914a63","getDebtWatchlist()":"2f3b1458","getDonation(address)":"410a1d32","getDonationsInCoverage(address)":"827cc0e5","getLastBorrowTime(address)":"657eb031","getLenderCoverage(uint256,address)":"4e51c7df","getLoanContract(uint256)":"383ab2ef","getMemberId(address)":"c269014b","getNextPaymentAmount(uint256)":"6509a710","getPaymentDates(uint256)":"7d52437a","getRepaymentSummary(uint256)":"2b31c022","getReputation(uint32)":"81db2284","getRequisitionInfo(uint256)":"1b70ba3e","getTotalBorrowed()":"0307c4a1","getTotalDonations()":"777c658f","getUSDTBalance()":"9785fac8","getWithdrawableBalance(address)":"843592d3","isBorrowerOverdue(uint256)":"a4aace0f","isWalletVinculated(address)":"598a562a","lastPeriodicCheckTimestamp()":"50c9677f","loanContracts(uint256)":"232869fa","nextCheckIndex()":"55c67616","performPeriodicDebtCheck(uint256)":"e5a0bde4","repay(uint256,uint256,uint32)":"9059f9ca","reputationSystem()":"6587eda1","requisitionCounter()":"84ddf5ea","usdtToken()":"a98ad46c","vinculationMemberToWallet(uint32,address)":"21bb31e4","withdraw(uint256,uint32)":"6145d1b7"}}}}}