{"contracts/LoanMachine.sol":{"LoanMachine":{"abi":[{"inputs":[{"internalType":"address","name":"_usdtToken","type":"address"},{"internalType":"address","name":"_reputationSystem","type":"address"}],"stateMutability":"nonpayable","type":"constructor"},{"inputs":[],"name":"LoanMachine_BorrowNotExpired","type":"error"},{"inputs":[],"name":"LoanMachine_CheckIntervalNotYetPassed","type":"error"},{"inputs":[],"name":"LoanMachine_ExcessiveDonation","type":"error"},{"inputs":[],"name":"LoanMachine_InsufficientDonationBalance","type":"error"},{"inputs":[],"name":"LoanMachine_InsufficientFunds","type":"error"},{"inputs":[],"name":"LoanMachine_InsufficientWithdrawableBalance","type":"error"},{"inputs":[],"name":"LoanMachine_IntervalOfPaymentAboveLimit","type":"error"},{"inputs":[],"name":"LoanMachine_InvalidAmount","type":"error"},{"inputs":[],"name":"LoanMachine_InvalidCoveragePercentage","type":"error"},{"inputs":[],"name":"LoanMachine_InvalidParcelsCount","type":"error"},{"inputs":[],"name":"LoanMachine_LoanNotAvailable","type":"error"},{"inputs":[],"name":"LoanMachine_MaxLoanRequisitionPendingReached","type":"error"},{"inputs":[],"name":"LoanMachine_MemberIdOrWalletInvalid","type":"error"},{"inputs":[],"name":"LoanMachine_MinimumDonationRequired","type":"error"},{"inputs":[],"name":"LoanMachine_MinimumPercentageCover","type":"error"},{"inputs":[],"name":"LoanMachine_NoActiveBorrowing","type":"error"},{"inputs":[],"name":"LoanMachine_NotLoanRequisitionCreator","type":"error"},{"inputs":[],"name":"LoanMachine_OnlyBorrowerCanCancelRequisition","type":"error"},{"inputs":[],"name":"LoanMachine_OverCoverage","type":"error"},{"inputs":[],"name":"LoanMachine_ParcelAlreadyPaid","type":"error"},{"inputs":[],"name":"LoanMachine_RepaymentExceedsBorrowed","type":"error"},{"inputs":[],"name":"LoanMachine_RequisitionAlreadyActive","type":"error"},{"inputs":[],"name":"LoanMachine_RequisitionAlreadyFullyCovered","type":"error"},{"inputs":[],"name":"LoanMachine_RequisitionNotCancellable","type":"error"},{"inputs":[],"name":"LoanMachine_RequisitionNotFound","type":"error"},{"inputs":[],"name":"LoanMachine_TokenTransferFailed","type":"error"},{"inputs":[],"name":"LoanMachine_WalletAlreadyVinculated","type":"error"},{"anonymous":false,"inputs":[{"indexed":false,"internalType":"uint256","name":"total","type":"uint256"}],"name":"AvailableBalanceUpdated","type":"event"},{"anonymous":false,"inputs":[{"indexed":true,"internalType":"address","name":"borrower","type":"address"}],"name":"BorrowLimitReached","type":"event"},{"anonymous":false,"inputs":[{"indexed":true,"internalType":"address","name":"borrower","type":"address"},{"indexed":false,"internalType":"uint256","name":"amount","type":"uint256"},{"indexed":false,"internalType":"uint256","name":"totalBorrowing","type":"uint256"}],"name":"Borrowed","type":"event"},{"anonymous":false,"inputs":[{"indexed":true,"internalType":"uint256","name":"requisitionId","type":"uint256"},{"indexed":true,"internalType":"address","name":"borrower","type":"address"}],"name":"BorrowerDebtSettled","type":"event"},{"anonymous":false,"inputs":[{"indexed":true,"internalType":"uint256","name":"requisitionId","type":"uint256"},{"indexed":true,"internalType":"address","name":"borrower","type":"address"},{"indexed":false,"internalType":"uint256","name":"dueDate","type":"uint256"}],"name":"BorrowerOverdue","type":"event"},{"anonymous":false,"inputs":[{"indexed":true,"internalType":"address","name":"donor","type":"address"},{"indexed":false,"internalType":"uint256","name":"amount","type":"uint256"},{"indexed":false,"internalType":"uint256","name":"totalDonation","type":"uint256"}],"name":"Donated","type":"event"},{"anonymous":false,"inputs":[{"indexed":true,"internalType":"uint256","name":"requisitionId","type":"uint256"},{"indexed":true,"internalType":"address","name":"lender","type":"address"},{"indexed":false,"internalType":"uint256","name":"amount","type":"uint256"}],"name":"LenderRepaid","type":"event"},{"anonymous":false,"inputs":[{"indexed":true,"internalType":"uint256","name":"requisitionId","type":"uint256"}],"name":"LoanCompleted","type":"event"},{"anonymous":false,"inputs":[{"indexed":true,"internalType":"address","name":"walletAddress","type":"address"},{"indexed":true,"internalType":"uint256","name":"requisitionId","type":"uint256"},{"indexed":false,"internalType":"enum ILoanMachine.ContractStatus","name":"status","type":"uint8"},{"indexed":false,"internalType":"uint32","name":"parcelsPending","type":"uint32"},{"indexed":false,"internalType":"uint256","name":"parcelsValues","type":"uint256"},{"indexed":false,"internalType":"uint256[]","name":"paymentDates","type":"uint256[]"},{"indexed":false,"internalType":"uint256","name":"creationTime","type":"uint256"}],"name":"LoanContractGenerated","type":"event"},{"anonymous":false,"inputs":[{"indexed":true,"internalType":"uint256","name":"requisitionId","type":"uint256"},{"indexed":true,"internalType":"address","name":"lender","type":"address"},{"indexed":false,"internalType":"uint256","name":"coverageAmount","type":"uint256"}],"name":"LoanCovered","type":"event"},{"anonymous":false,"inputs":[{"indexed":true,"internalType":"uint256","name":"requisitionId","type":"uint256"}],"name":"LoanFunded","type":"event"},{"anonymous":false,"inputs":[{"indexed":true,"internalType":"uint256","name":"requisitionId","type":"uint256"},{"indexed":true,"internalType":"address","name":"borrower","type":"address"},{"indexed":false,"internalType":"uint256","name":"amount","type":"uint256"},{"indexed":false,"internalType":"uint32","name":"parcelsCount","type":"uint32"},{"indexed":false,"internalType":"enum ILoanMachine.BorrowStatus","name":"status","type":"uint8"}],"name":"LoanRequisitionCreatedCancelled","type":"event"},{"anonymous":false,"inputs":[{"indexed":true,"internalType":"uint256","name":"requisitionId","type":"uint256"},{"indexed":true,"internalType":"address","name":"lender","type":"address"},{"indexed":false,"internalType":"uint256","name":"amountReturnedToLender","type":"uint256"}],"name":"LoanUncovered","type":"event"},{"anonymous":false,"inputs":[{"indexed":true,"internalType":"address","name":"borrower","type":"address"}],"name":"NewBorrower","type":"event"},{"anonymous":false,"inputs":[{"indexed":true,"internalType":"address","name":"donor","type":"address"}],"name":"NewDonor","type":"event"},{"anonymous":false,"inputs":[{"indexed":true,"internalType":"uint256","name":"requisitionId","type":"uint256"},{"indexed":false,"internalType":"uint256","name":"parcelsRemaining","type":"uint256"}],"name":"ParcelPaid","type":"event"},{"anonymous":false,"inputs":[{"indexed":false,"internalType":"uint256","name":"itemsChecked","type":"uint256"},{"indexed":false,"internalType":"uint256","name":"nextIndex","type":"uint256"}],"name":"PeriodicCheckRun","type":"event"},{"anonymous":false,"inputs":[{"indexed":true,"internalType":"address","name":"borrower","type":"address"},{"indexed":false,"internalType":"uint256","name":"amount","type":"uint256"},{"indexed":false,"internalType":"uint256","name":"remainingDebt","type":"uint256"}],"name":"Repaid","type":"event"},{"anonymous":false,"inputs":[{"indexed":false,"internalType":"uint256","name":"total","type":"uint256"}],"name":"TotalBorrowedUpdated","type":"event"},{"anonymous":false,"inputs":[{"indexed":false,"internalType":"uint256","name":"total","type":"uint256"}],"name":"TotalDonationsUpdated","type":"event"},{"anonymous":false,"inputs":[{"indexed":true,"internalType":"address","name":"donor","type":"address"},{"indexed":false,"internalType":"uint256","name":"amount","type":"uint256"},{"indexed":false,"internalType":"uint256","name":"donations","type":"uint256"}],"name":"Withdrawn","type":"event"},{"inputs":[],"name":"CHECK_INTERVAL","outputs":[{"internalType":"uint256","name":"","type":"uint256"}],"stateMutability":"view","type":"function"},{"inputs":[{"internalType":"address","name":"","type":"address"},{"internalType":"uint256","name":"","type":"uint256"}],"name":"borrowerRequisitions","outputs":[{"internalType":"uint256","name":"","type":"uint256"}],"stateMutability":"view","type":"function"},{"inputs":[{"internalType":"uint256","name":"requisitionId","type":"uint256"},{"internalType":"address","name":"borrower","type":"address"}],"name":"canPayRequisition","outputs":[{"internalType":"bool","name":"","type":"bool"}],"stateMutability":"view","type":"function"},{"inputs":[{"internalType":"address","name":"_user","type":"address"},{"internalType":"uint256","name":"_amount","type":"uint256"}],"name":"canUserBorrow","outputs":[{"internalType":"bool","name":"","type":"bool"}],"stateMutability":"view","type":"function"},{"inputs":[{"internalType":"uint256","name":"requisitionId","type":"uint256"},{"internalType":"uint32","name":"memberId","type":"uint32"}],"name":"cancelLoanRequisition","outputs":[{"internalType":"uint256","name":"totalUncoveredAmount","type":"uint256"}],"stateMutability":"nonpayable","type":"function"},{"inputs":[{"internalType":"uint256","name":"requisitionId","type":"uint256"},{"internalType":"uint32","name":"coveragePercentage","type":"uint32"},{"internalType":"uint32","name":"memberId","type":"uint32"}],"name":"coverLoan","outputs":[],"stateMutability":"nonpayable","type":"function"},{"inputs":[{"internalType":"uint256","name":"amount","type":"uint256"},{"internalType":"uint32","name":"minimumCoverage","type":"uint32"},{"internalType":"uint32","name":"parcelscount","type":"uint32"},{"internalType":"uint32","name":"memberId","type":"uint32"},{"internalType":"uint32","name":"daysIntervalOfPayment","type":"uint32"}],"name":"createLoanRequisition","outputs":[{"internalType":"uint256","name":"","type":"uint256"}],"stateMutability":"nonpayable","type":"function"},{"inputs":[{"internalType":"uint256","name":"","type":"uint256"}],"name":"debtWatchlist","outputs":[{"internalType":"uint256","name":"requisitionId","type":"uint256"},{"internalType":"address","name":"borrower","type":"address"},{"internalType":"uint256","name":"nextDueDate","type":"uint256"},{"internalType":"bool","name":"isOverdue","type":"bool"}],"stateMutability":"view","type":"function"},{"inputs":[{"internalType":"uint256","name":"amount","type":"uint256"},{"internalType":"uint32","name":"memberId","type":"uint32"}],"name":"donate","outputs":[],"stateMutability":"nonpayable","type":"function"},{"inputs":[{"internalType":"address","name":"borrower","type":"address"}],"name":"getActiveLoans","outputs":[{"components":[{"internalType":"address","name":"walletAddress","type":"address"},{"internalType":"uint256","name":"requisitionId","type":"uint256"},{"internalType":"enum ILoanMachine.ContractStatus","name":"status","type":"uint8"},{"internalType":"uint32","name":"parcelsCount","type":"uint32"},{"internalType":"uint32","name":"parcelsPending","type":"uint32"},{"internalType":"uint256","name":"parcelsValues","type":"uint256"},{"internalType":"uint256[]","name":"paymentDates","type":"uint256[]"},{"internalType":"uint256[]","name":"parcelsAmounts","type":"uint256[]"},{"internalType":"uint256","name":"creationTime","type":"uint256"}],"internalType":"struct ILoanMachine.LoanContract[]","name":"activeLoans","type":"tuple[]"},{"internalType":"uint256[]","name":"requisitionIds","type":"uint256[]"}],"stateMutability":"view","type":"function"},{"inputs":[{"internalType":"address","name":"user","type":"address"}],"name":"getAllowance","outputs":[{"internalType":"uint256","name":"","type":"uint256"}],"stateMutability":"view","type":"function"},{"inputs":[],"name":"getAvailableBalance","outputs":[{"internalType":"uint256","name":"","type":"uint256"}],"stateMutability":"view","type":"function"},{"inputs":[],"name":"getAvailableBorrowAmount","outputs":[{"internalType":"uint256","name":"","type":"uint256"}],"stateMutability":"view","type":"function"},{"inputs":[{"internalType":"address","name":"borrower","type":"address"}],"name":"getBorrowerRequisitions","outputs":[{"internalType":"uint256[]","name":"","type":"uint256[]"}],"stateMutability":"view","type":"function"},{"inputs":[{"internalType":"address","name":"_user","type":"address"}],"name":"getBorrowing","outputs":[{"internalType":"uint256","name":"","type":"uint256"}],"stateMutability":"view","type":"function"},{"inputs":[],"name":"getContractBalance","outputs":[{"internalType":"uint256","name":"","type":"uint256"}],"stateMutability":"view","type":"function"},{"inputs":[{"internalType":"uint256","name":"requisitionId","type":"uint256"}],"name":"getCoveringLenders","outputs":[{"internalType":"address[]","name":"","type":"address[]"}],"stateMutability":"view","type":"function"},{"inputs":[],"name":"getDebtWatchlist","outputs":[{"components":[{"internalType":"uint256","name":"requisitionId","type":"uint256"},{"internalType":"address","name":"borrower","type":"address"},{"internalType":"uint256","name":"nextDueDate","type":"uint256"},{"internalType":"bool","name":"isOverdue","type":"bool"}],"internalType":"struct LoanMachine.DebtWatchItem[]","name":"","type":"tuple[]"}],"stateMutability":"view","type":"function"},{"inputs":[{"internalType":"address","name":"_user","type":"address"}],"name":"getDonation","outputs":[{"internalType":"uint256","name":"","type":"uint256"}],"stateMutability":"view","type":"function"},{"inputs":[{"internalType":"address","name":"lender","type":"address"}],"name":"getDonationsInCoverage","outputs":[{"internalType":"uint256","name":"","type":"uint256"}],"stateMutability":"view","type":"function"},{"inputs":[{"internalType":"address","name":"_user","type":"address"}],"name":"getLastBorrowTime","outputs":[{"internalType":"uint256","name":"","type":"uint256"}],"stateMutability":"view","type":"function"},{"inputs":[{"internalType":"uint256","name":"requisitionId","type":"uint256"},{"internalType":"address","name":"lender","type":"address"}],"name":"getLenderCoverage","outputs":[{"internalType":"uint256","name":"","type":"uint256"}],"stateMutability":"view","type":"function"},{"inputs":[{"internalType":"uint256","name":"requisitionId","type":"uint256"}],"name":"getLoanContract","outputs":[{"components":[{"internalType":"address","name":"walletAddress","type":"address"},{"internalType":"uint256","name":"requisitionId","type":"uint256"},{"internalType":"enum ILoanMachine.ContractStatus","name":"status","type":"uint8"},{"internalType":"uint32","name":"parcelsCount","type":"uint32"},{"internalType":"uint32","name":"parcelsPending","type":"uint32"},{"internalType":"uint256","name":"parcelsValues","type":"uint256"},{"internalType":"uint256[]","name":"paymentDates","type":"uint256[]"},{"internalType":"uint256[]","name":"parcelsAmounts","type":"uint256[]"},{"internalType":"uint256","name":"creationTime","type":"uint256"}],"internalType":"struct ILoanMachine.LoanContract","name":"","type":"tuple"}],"stateMutability":"view","type":"function"},{"inputs":[{"internalType":"address","name":"wallet","type":"address"}],"name":"getMemberId","outputs":[{"internalType":"uint32","name":"","type":"uint32"}],"stateMutability":"view","type":"function"},{"inputs":[{"internalType":"uint256","name":"requisitionId","type":"uint256"}],"name":"getNextPaymentAmount","outputs":[{"internalType":"uint256","name":"paymentAmount","type":"uint256"},{"internalType":"bool","name":"canPay","type":"bool"}],"stateMutability":"view","type":"function"},{"inputs":[{"internalType":"uint256","name":"requisitionId","type":"uint256"}],"name":"getPaymentDates","outputs":[{"internalType":"uint256[]","name":"","type":"uint256[]"}],"stateMutability":"view","type":"function"},{"inputs":[{"internalType":"uint256","name":"requisitionId","type":"uint256"}],"name":"getRepaymentSummary","outputs":[{"internalType":"uint256","name":"totalRemainingDebt","type":"uint256"},{"internalType":"uint256","name":"nextPaymentAmount","type":"uint256"},{"internalType":"uint256","name":"parcelsRemaining","type":"uint256"},{"internalType":"uint256","name":"totalParcels","type":"uint256"},{"internalType":"bool","name":"isActive","type":"bool"}],"stateMutability":"view","type":"function"},{"inputs":[{"internalType":"uint32","name":"memberId","type":"uint32"}],"name":"getReputation","outputs":[{"internalType":"int32","name":"","type":"int32"}],"stateMutability":"view","type":"function"},{"inputs":[{"internalType":"uint256","name":"requisitionId","type":"uint256"}],"name":"getRequisitionInfo","outputs":[{"components":[{"internalType":"uint256","name":"requisitionId","type":"uint256"},{"internalType":"address","name":"borrower","type":"address"},{"internalType":"uint256","name":"amount","type":"uint256"},{"internalType":"uint32","name":"minimumCoverage","type":"uint32"},{"internalType":"uint32","name":"currentCoverage","type":"uint32"},{"internalType":"enum ILoanMachine.BorrowStatus","name":"status","type":"uint8"},{"internalType":"uint256","name":"creationTime","type":"uint256"},{"internalType":"address[]","name":"coveringLenders","type":"address[]"},{"internalType":"uint32","name":"parcelsCount","type":"uint32"}],"internalType":"struct ILoanMachine.RequisitionInfo","name":"","type":"tuple"}],"stateMutability":"view","type":"function"},{"inputs":[],"name":"getTotalBorrowed","outputs":[{"internalType":"uint256","name":"","type":"uint256"}],"stateMutability":"view","type":"function"},{"inputs":[],"name":"getTotalDonations","outputs":[{"internalType":"uint256","name":"","type":"uint256"}],"stateMutability":"view","type":"function"},{"inputs":[],"name":"getUSDTBalance","outputs":[{"internalType":"uint256","name":"","type":"uint256"}],"stateMutability":"view","type":"function"},{"inputs":[{"internalType":"address","name":"user","type":"address"}],"name":"getWithdrawableBalance","outputs":[{"internalType":"uint256","name":"","type":"uint256"}],"stateMutability":"view","type":"function"},{"inputs":[{"internalType":"uint256","name":"requisitionId","type":"uint256"}],"name":"isBorrowerOverdue","outputs":[{"internalType":"bool","name":"","type":"bool"}],"stateMutability":"view","type":"function"},{"inputs":[{"internalType":"address","name":"wallet","type":"address"}],"name":"isWalletVinculated","outputs":[{"internalType":"bool","name":"","type":"bool"}],"stateMutability":"view","type":"function"},{"inputs":[],"name":"lastPeriodicCheckTimestamp","outputs":[{"internalType":"uint256","name":"","type":"uint256"}],"stateMutability":"view","type":"function"},{"inputs":[{"internalType":"uint256","name":"","type":"uint256"}],"name":"loanContracts","outputs":[{"internalType":"address","name":"walletAddress","type":"address"},{"internalType":"uint256","name":"requisitionId","type":"uint256"},{"internalType":"enum ILoanMachine.ContractStatus","name":"status","type":"uint8"},{"internalType":"uint32","name":"parcelsCount","type":"uint32"},{"internalType":"uint32","name":"parcelsPending","type":"uint32"},{"internalType":"uint256","name":"parcelsValues","type":"uint256"},{"internalType":"uint256","name":"creationTime","type":"uint256"}],"stateMutability":"view","type":"function"},{"inputs":[],"name":"nextCheckIndex","outputs":[{"internalType":"uint256","name":"","type":"uint256"}],"stateMutability":"view","type":"function"},{"inputs":[{"internalType":"uint256","name":"batchSize","type":"uint256"}],"name":"performPeriodicDebtCheck","outputs":[],"stateMutability":"nonpayable","type":"function"},{"inputs":[{"internalType":"uint256","name":"requisitionId","type":"uint256"},{"internalType":"uint256","name":"amount","type":"uint256"},{"internalType":"uint32","name":"memberId","type":"uint32"}],"name":"repay","outputs":[],"stateMutability":"nonpayable","type":"function"},{"inputs":[],"name":"reputationSystem","outputs":[{"internalType":"contract ReputationSystem","name":"","type":"address"}],"stateMutability":"view","type":"function"},{"inputs":[],"name":"requisitionCounter","outputs":[{"internalType":"uint256","name":"","type":"uint256"}],"stateMutability":"view","type":"function"},{"inputs":[],"name":"usdtToken","outputs":[{"internalType":"address","name":"","type":"address"}],"stateMutability":"view","type":"function"},{"inputs":[{"internalType":"uint32","name":"memberId","type":"uint32"},{"internalType":"address","name":"wallet","type":"address"}],"name":"vinculationMemberToWallet","outputs":[],"stateMutability":"nonpayable","type":"function"},{"inputs":[{"internalType":"uint256","name":"amount","type":"uint256"},{"internalType":"uint32","name":"memberId","type":"uint32"}],"name":"withdraw","outputs":[],"stateMutability":"nonpayable","type":"function"}],"evm":{"bytecode":{"linkReferences":{},"object":"60a034620000c957601f62003a1738819003918201601f19168301916001600160401b03831184841017620000ce578084926040948552833981010312620000c9576200005a60206200005283620000e4565b9201620000e4565b60016000819055600d81905560809290925281546001600160a01b0319166001600160a01b0390911617905560405161391d9081620000fa823960805181818161074801528181610e3a01528181610f4c015281816112e00152818161168c01528181611fdc01526131770152f35b600080fd5b634e487b7160e01b600052604160045260246000fd5b51906001600160a01b0382168203620000c95756fe608080604052600436101561001357600080fd5b600090813560e01c9081630307c4a114612f7f5750806303d1a1a114612cd7578063140c9ac414612a055780631b70ba3e1461286b5780631beeafa5146125a857806321bb31e414612529578063232869fa146124a5578063291c31a714611e275780632b31c022146123d25780632f3b1458146122b0578063383ab2ef14612268578063410a1d321461222f5780634e51c7df146121e557806350c9677f146121c757806355c67616146121a9578063598a562a1461212a5780636145d1b714611f2e5780636509a71014611f01578063657eb03114611ec85780636587eda114611e9f5780636ea33ceb14611e815780636f9fb98a14611463578063777c658f14611e635780637d52437a14611e2c578063809dab6a14611e2757806381db228414611da1578063827cc0e514611d68578063843592d314611d3c57806384ddf5ea14611d1e5780638a914a6314611cdc5780639059f9ca146114cd5780639730872a146114685780639785fac81461146357806397c335191461138e5780639e93201114611338578063a4aace0f1461130f578063a98ad46c146112ca578063adceb1011461122a578063be5eb580146111f1578063be7df8ed1461118d578063c269014b14611109578063e276392414610edc578063e5a0bde414610eb0578063eb5a662e14610df15763ecb18b341461021057600080fd5b34610dee576060366003190112610dee576102296130a9565b63ffffffff6102366130bc565b169081158015610d83575b610d715763ffffffff8116158015610d61575b610d4f57600963ffffffff82161115610d3d5761026f6133cf565b6004358352600c6020526040832091600383015460ff8160401c166007811015610d29578015159081610d1d575b50610d0b576102ba60649163ffffffff8086169160201c16613251565b11610cf95760018301546001600160a01b031684526011602052604084205480610cc4575b506102f463ffffffff83166002850154613660565b92670de0b6b3a764000093848102948186041490151715610a0c5768056bc75e2d630fffff84018411610c9c57338552600660205268056bc75e2d6310000068056bc75e2d630fffff850104604086205410610cb25733855260066020526040852061037768056bc75e2d6310000068056bc75e2d630fffff8701048254613563565b9055338552600f602052604085206103a668056bc75e2d6310000068056bc75e2d630fffff8701048254613251565b905563ffffffff831663ffffffff600383015460201c160163ffffffff8111610c9c576103f390600383019067ffffffff0000000082549160201b169067ffffffff000000001916179055565b336000526006810160205260406000205415610c40575b3360005260068101602052604060002061043b68056bc75e2d6310000068056bc75e2d630fffff8701048254613251565b9055600381015463ffffffff811663ffffffff8260201c161015600014610c23575060038101805460ff60401b19166802000000000000000017905560018054910154604051634698c2d560e01b81526001600160a01b0391821660048201529160209183916024918391165afa8015610c185763ffffffff918691610be9575b50168452601060209081526040808620805463ffffffff1916905560043580875260128352818720600c90935290862060018181015484546001600160a01b0319166001600160a01b039190911617845583019190915560028201805460ff198116825560078301805464ffffffffff19831660089190911b64ffffffff00169081178455905468ffffffffffffffffff199092161760289190911b68ffffffff00000000001617905590426006820155600282015463ffffffff600784015416926105888483613673565b8415610bd557610597856136af565b92895b868110610b83575050600384015560070154620151809060201c63ffffffff16801582820282900483141715610b6f57885b8563ffffffff821610610b115750505060018060a01b0382541687526011602052600435604088205560018060a01b038254166002830154907f55939e2a4adb2163c21eb3bb2c850e8e82136aed8a9e5971f705f1188d05865e60038501549260068601549363ffffffff604051926106488460ff8316612fc7565b60281c166020830152604082015260a0606082015261066d60a08201600488016136f5565b93608082015280600435940390a3865b838110610aec57505050506004358452600c6020526040842060018060a01b0360018201541690600281015482875260076020526106c060408820918254613251565b90556106d26002820154600a54613251565b600a556106e56002820154600b54613563565b600b5581865260086020908152604080882042905560038301805460ff60401b1916680300000000000000001790556002830154905163a9059cbb60e01b81526001600160a01b038516600482015260248101919091529081806044810103818a7f00000000000000000000000000000000000000000000000000000000000000006001600160a01b03165af1908115610ae1578791610ab2575b5015610aa0576004358652601260205260046040872001805415610a8a5760005260206000205460025460043588526003602052806040892055604051916107c78361346c565b60043583528460208401526040830152876060830152600160401b811015610a76578060016107f99201600255613207565b919091610a62577feae9cfbc77fdd40ca899f36b608256063b2bc9d8178b0220f7ad513e178d67309261087960409360036060856002965184556001840160018060a01b036020830151166bffffffffffffffffffffffff60a01b82541617905587810151878501550151151591019060ff801983541691151516179055565b015483885260076020528188205482519182526020820152a27f17f13fd3f7c4712af33f1770ebcb822dd20a2dbc00850eab48d786623d97b9596020600a54604051908152a16000805160206138c88339815191526020600b54604051908152a16004357f9e71d2fb732e68272b7e74ecfd14638673c1d77e19a5d390a3ffff054d57c44b8580a25b600154604051636adf462560e11b81526001600160a01b0390911692602082600481875afa918215610a57578692610a20575b5063ffffffff1660030b9060030b028060030b908103610a0c5790829185933b15610a08576064849283600a95604051968795869463533dfa3560e01b865260048601520560030b6024840152600160448401525af180156109fd576109e5575b505068056bc75e2d6310000068056bc75e2d630fffff604051920104815233907f86b47e6e6c03d769c0bc5ffd06c682ea7d07089576d59230ec18ff64e71bffe7602060043592a36001815580f35b6109ee90613458565b6109f9578138610996565b5080fd5b6040513d84823e3d90fd5b8380fd5b634e487b7160e01b85526011600452602485fd5b63ffffffff919250610a499060203d602011610a50575b610a418183613488565b8101906135fd565b9190610935565b503d610a37565b6040513d88823e3d90fd5b634e487b7160e01b88526004889052602488fd5b634e487b7160e01b88526041600452602488fd5b634e487b7160e01b600052603260045260246000fd5b604051637a97d71f60e01b8152600490fd5b610ad4915060203d602011610ada575b610acc8183613488565b81019061354b565b38610780565b503d610ac2565b6040513d89823e3d90fd5b80610b07610afd610b0c93856136e1565b5160058601613616565b61325e565b61067d565b610b40610b37610b3163ffffffff610b288561364b565b16868602613660565b42613251565b60048701613616565b63ffffffff80821614610b5b5763ffffffff166001016105cc565b634e487b7160e01b8a52601160045260248afd5b634e487b7160e01b89526011600452602489fd5b868206811015610bc65760018301808411610bb25790610bad91610ba782886136e1565b5261325e565b61059a565b634e487b7160e01b8c52601160045260248cfd5b8083610ba7610bad93886136e1565b634e487b7160e01b89526012600452602489fd5b610c0b915060203d602011610c11575b610c038183613488565b810190613693565b386104bc565b503d610bf9565b6040513d87823e3d90fd5b600160401b60039168ff0000000000000000191617910155610902565b6005810154600160401b811015610c8857806001610c6792016005840155600583016131ef565b81546001600160a01b0360039290921b91821b19163390911b17905561040a565b634e487b7160e01b86526041600452602486fd5b634e487b7160e01b600052601160045260246000fd5b604051636044d4dd60e01b8152600490fd5b84526012602052610cdb6006604086200154613241565b4210610ce757386102df565b6040516301bf0a1560e41b8152600490fd5b6040516311d9355160e01b8152600490fd5b60405163393e690960e11b8152600490fd5b6001915014153861029d565b634e487b7160e01b86526021600452602486fd5b6040516307314f9160e21b8152600490fd5b604051632819760f60e01b8152600490fd5b50606463ffffffff821611610254565b60405163584daf2560e01b8152600490fd5b50600154604051632cc52b1560e11b815233600482015290602090829060249082906001600160a01b03165afa908115610de3578491610dc5575b5015610241565b610ddd915060203d8111610ada57610acc8183613488565b38610dbe565b6040513d86823e3d90fd5b80fd5b5034610dee5760209081600319360112610dee57604482610e10612f9b565b604051636eb1769f60e11b81526001600160a01b03918216600482015230602482015292839182907f0000000000000000000000000000000000000000000000000000000000000000165afa918215610ea45791610e72575b50604051908152f35b90508181813d8311610e9d575b610e898183613488565b81010312610e98575138610e69565b600080fd5b503d610e7f565b604051903d90823e3d90fd5b5034610dee576020366003190112610dee57610eca6133cf565b610ed560043561326d565b6001815580f35b5034610dee576040366003190112610dee5760043563ffffffff610efe6130a9565b1615801561109e575b610d7157801561108d57610f196133cf565b6040516323b872dd60e01b8152336004820152306024820152604481018290526020908181606481876001600160a01b037f0000000000000000000000000000000000000000000000000000000000000000165af1908115610de3578491611070575b5015610aa0576000805160206138c883398151915290338452600681526040842092835493610fab8286613251565b90557fdc6e73d4b36e22ab95945bd8833a5af96c950eb29d8d75c4aecffc987637aaab82610fdb83600954613251565b80600955610feb84600b54613251565b9384600b55338952600683526040892054604051918252838201527f4928895ba6723e8e27b15f32e4c3054a1b6c7f8c03f133558d6fa42b3928d14c60403392a2604051908152a1604051908152a115611046576001815580f35b337f072dafb6aabe3f02118bc607efbeaaa104d6b2009720c7b130f24ba418689c4b8280a2610ed5565b6110879150823d8411610ada57610acc8183613488565b38610f7c565b60405162d84c0f60e41b8152600490fd5b50600154604051632cc52b1560e11b815233600482015290602090829060249082906001600160a01b03165afa9081156110fe5783916110e0575b5015610f07565b6110f8915060203d8111610ada57610acc8183613488565b386110d9565b6040513d85823e3d90fd5b5034610dee576020366003190112610dee57611123612f9b565b60015460405163c269014b60e01b81526001600160a01b0392831660048201529160209183916024918391165afa9081156109fd5760209291611170575b5063ffffffff60405191168152f35b6111879150823d8111610c1157610c038183613488565b38611161565b5034610dee576020366003190112610dee5760043590600254821015610dee5760806111b883613207565b5080549060018060a01b036001820154169060ff6003600283015492015416916040519384526020840152604083015215156060820152f35b5034610dee576020366003190112610dee576020906040906001600160a01b03611219612f9b565b168152600783522054604051908152f35b5034610dee576040366003190112610dee57611244612fb1565b600435825260126020526040822080546001600160a01b039283169216919091149081611298575b6020925081611281575b506040519015158152f35b63ffffffff91506002015460281c16151538611276565b905060ff60028201541660038110156112b65760209250159061126c565b634e487b7160e01b83526021600452602483fd5b5034610dee5780600319360112610dee576040517f00000000000000000000000000000000000000000000000000000000000000006001600160a01b03168152602090f35b5034610dee576020366003190112610dee57602061132e6004356134c2565b6040519015158152f35b5034610dee576040366003190112610dee57611352612f9b565b6001600160a01b03168152600e6020526040812080546024359290831015610dee57602061138084846131ef565b90546040519160031b1c8152f35b5034610dee576040366003190112610dee576020906113ab612f9b565b90602435918215159283611456575b508261141b575b826113d3575b50506040519015158152f35b6001600160a01b03168082526008845260408220549092506113f490613241565b4211918215611407575b505038806113c7565b6040925081526007835220541538806113fe565b6001600160a01b0381168252600684526040822054909250620f424011801590611446575b916113c1565b5060078352604081205415611440565b600b5410159250386113ba565b61314a565b5034610dee576020366003190112610dee576114c9906114ae906114b5906040906001600160a01b03611499612f9b565b168152600e60205220604051928380926136f5565b0382613488565b604051918291602083526020830190612fea565b0390f35b5034610dee576060366003190112610dee5763ffffffff6114ec6130bc565b1680158015611c7c575b610d715760043582526012602052604082203383526007602052604083205415611c56578054336001600160a01b0390911603611c56576002015460ff81166003811015611c6857611c565760281c63ffffffff1615611c56576115586133cf565b6024351561108d57600435825260126020526040822061159761158e600283015463ffffffff808260281c169160081c16613586565b600483016131ef565b90549060031b1c60043584526003602052836115b66040822054613207565b5093824211600014611b5e5760015460405163a5118bf160e01b81526001600160a01b039091169190602081600481865afa908115610de3578491611b3f575b50823b15610a08576064849283604051958694859363533dfa3560e01b8552600485015260030b60248401528160448401525af180156109fd57611b2b575b505060038301805460ff811615611ae9575b5050505b60038101546024350361108d576040516323b872dd60e01b815233600482015230602480830191909152356044820152602081606481876001600160a01b037f0000000000000000000000000000000000000000000000000000000000000000165af1908115610de3578491611aca575b5015610aa0573383526007602052604083206116db6024358254613563565b90556116eb602435600a54613563565b600a556116fc602435600b54613251565b600b556004358352600c6020526040832090600282015490845b60058401548110156117f1578061173361177492600587016131ef565b60018060a01b0391549060031b1c16806000526006860160205261176785611762604060002054602435613660565b613673565b80611779575b505061325e565b611716565b818952600f6020526040892080548083116117e9575b8261179991613563565b90558189526006602052604089206117b2828254613251565b90556040519081527fe3e6ae1e05f069d410556743894aacbb190c1431962422ebe8fcc642a467dd16602060043592a3388061176d565b91508161178f565b85828661183561180d63ffffffff600285015460281c16613570565b600284019068ffffffff000000000082549160281b169068ffffffff00000000001916179055565b600282015463ffffffff8160281c16908115600014611a8c57505050600260ff1981830154161760028201556004357f02ca5489b37dd363d1302bac719e8ee40e540ffbe8c12253570fea63e11cad718380a26004358252600360205260408220546002546000199190828101908111610a0c578082036119e9575b505060025480156119d557016118c681613207565b6119c1579160029184600385600063ffffffff97558260018201556000868201550155825560043584526003602052600060408520555b3384526007602052604084205460405190602435825260208201527f1b8cd61ed43bec7c6bdad3a18ffee613f99c853d16c50678d248d879e1b4343860403392a2015460281c166040519081527f406356ef25520b09e2ef87c5225167b4161ea4ab691e9434d6ee29eafcc83fc2602060043592a27f17f13fd3f7c4712af33f1770ebcb822dd20a2dbc00850eab48d786623d97b9596020600a54604051908152a16000805160206138c88339815191526020600b54604051908152a16001815580f35b634e487b7160e01b84526004849052602484fd5b634e487b7160e01b84526031600452602484fd5b6119f290613207565b506119fc82613207565b611a7857818103611a1d575b505484526003602052604084205583806118b1565b611a7290825481556001810160018060a01b036001850154166bffffffffffffffffffffffff60a01b82541617905560028301546002820155600360ff818501541691019060ff801983541691151516179055565b85611a08565b634e487b7160e01b86526004869052602486fd5b600292611ab2611aa963ffffffff96948760039560081c16613586565b600485016131ef565b905490831b1c8185015501805460ff191690556118fd565b611ae3915060203d602011610ada57610acc8183613488565b386116bc565b60019060ff191617905560405190815233907fcf08cfd581ae48e3e5053c3ddad657750a872d827972a57ca253b1ab4748b0bc602060043592a3388080611647565b611b3490613458565b610a08578338611635565b611b58915060203d602011610a5057610a418183613488565b386115f6565b600154604051634e5ecf1360e01b81529293506001600160a01b031691602081600481865afa908115610de3578491611c37575b50823b15610a08576064849283604051958694859363533dfa3560e01b8552600485015260030b6024840152600160448401525af180156109fd57611c1f575b505060038201805460ff8116611bea575b505061164b565b60ff19169055336004357fedc092ccdf255fa12deee6517dd8e7f4e52f4194ef2112a5351a691c8daacc748580a33880611be3565b611c2890613458565b611c33578238611bd2565b8280fd5b611c50915060203d602011610a5057610a418183613488565b38611b92565b60405163c4967cf360e01b8152600490fd5b634e487b7160e01b84526021600452602484fd5b50600154604051632cc52b1560e11b815233600482015290602090829060249082906001600160a01b03165afa9081156110fe578391611cbe575b50156114f6565b611cd6915060203d8111610ada57610acc8183613488565b38611cb7565b5034610dee576020366003190112610dee57611d0a600560406114c9936004358152600c602052200161386f565b6040519182916020835260208301906130ef565b5034610dee5780600319360112610dee576020600d54604051908152f35b5034610dee576020366003190112610dee576020611d60611d5b612f9b565b6135c2565b604051908152f35b5034610dee576020366003190112610dee576020906040906001600160a01b03611d90612f9b565b168152600f83522054604051908152f35b5034610dee576020366003190112610dee57611dbb6130cf565b600154604051632076c8a160e21b815263ffffffff929092166004830152602090829060249082906001600160a01b03165afa9081156109fd5760209291611e0a575b506040519060030b8152f35b611e219150823d8111610a5057610a418183613488565b38611dfe565b61312c565b5034610dee576020366003190112610dee576114ae6114b5600460406114c9948235815260126020522001604051928380926136f5565b5034610dee5780600319360112610dee576020600954604051908152f35b5034610dee5780600319360112610dee5760206040516213c6808152f35b5034610dee5780600319360112610dee576001546040516001600160a01b039091168152602090f35b5034610dee576020366003190112610dee576020906040906001600160a01b03611ef0612f9b565b168152600883522054604051908152f35b5034610dee576020366003190112610dee576040611f2060043561381e565b825191825215156020820152f35b5034610dee576040366003190112610dee5760043563ffffffff611f506130a9565b161580156120ca575b610d7157801561108d57611f6b6133cf565b611f74336135c2565b81116120b85733825260206006815260408320611f92838254613563565b9055611fa082600954613563565b600955611faf82600b54613563565b600b5560405163a9059cbb60e01b8152336004820152602481018390528181604481876001600160a01b037f0000000000000000000000000000000000000000000000000000000000000000165af1908115610de357849161209b575b5015610aa0576000805160206138c883398151915291338452600682526040842054604051918252828201527f92ccf450a286a957af52509bc1c9939d1a6a481783e142e41e2499f0bb66ebc660403392a27fdc6e73d4b36e22ab95945bd8833a5af96c950eb29d8d75c4aecffc987637aaab81600954604051908152a1600b54604051908152a16001815580f35b6120b29150823d8411610ada57610acc8183613488565b3861200c565b60405163dbee9d4f60e01b8152600490fd5b50600154604051632cc52b1560e11b815233600482015290602090829060249082906001600160a01b03165afa9081156110fe57839161210c575b5015611f59565b612124915060203d8111610ada57610acc8183613488565b38612105565b5034610dee576020366003190112610dee57612144612f9b565b600154604051632cc52b1560e11b81526001600160a01b0392831660048201529160209183916024918391165afa9081156109fd576020929161218c57506040519015158152f35b6121a39150823d8111610ada57610acc8183613488565b38611276565b5034610dee5780600319360112610dee576020600454604051908152f35b5034610dee5780600319360112610dee576020600554604051908152f35b5034610dee576040366003190112610dee5760066040612203612fb1565b926004358152600c60205220019060018060a01b03166000526020526020604060002054604051908152f35b5034610dee576020366003190112610dee576020906040906001600160a01b03612257612f9b565b168152600683522054604051908152f35b5034610dee576020366003190112610dee5761229c60406114c99261228b613732565b506004358152601260205220613779565b60405191829160208352602083019061301e565b5034610dee5780600319360112610dee5760028054906122cf826134aa565b6122dc6040519182613488565b82815260209283820180938087527f405787fa12a823e0f2b7631cc41b3ba8828b3321ca811111fa75cd3aa3bb5ace9087925b84841061237d5750505050506040519280840191818552518092526040840192945b82811061233e5784840385f35b855180518552808301516001600160a01b0316858401526040808201519086015260609081015115159085015294810194608090930192600101612331565b60048860019260409b9a98999b516123948161346c565b86548152848060a01b0385880154168382015285870154604082015260ff60038801541615156060820152815201930193019291979594969761230f565b5034610dee576020366003190112610dee576004358152601260205260408120600c602052604082209060028101549160ff83166003811015612491579360a094158061247f575b156124665750600363ffffffff809460281c1692015492600761243d8585613660565b949392015416906001925b60405194855260208501526040840152606083015215156080820152f35b60079091015490925082915063ffffffff168180612448565b5063ffffffff8460281c16151561241a565b634e487b7160e01b85526021600452602485fd5b5034610dee576020366003190112610dee57604060e091600435815260126020522060018060a01b03815416906001810154906002810154600660038301549201549260405194855260208501526125036040850160ff8316612fc7565b63ffffffff90818160081c16606086015260281c16608084015260a083015260c0820152f35b5034610dee576040366003190112610dee576125436130cf565b8161254c612fb1565b60015490926001600160a01b0391821690813b15610a08578360449263ffffffff94604051978896879563086ecc7960e21b87521660048601521660248401525af180156109fd5761259c575080f35b6125a590613458565b80f35b5034610dee5760a0366003190112610dee57600435906125c66130a9565b916125cf6130bc565b60643563ffffffff93848216809203610dee576084359480861691828703610dee5783815260209760108952600383604084205416101561285957841580156127fb575b610d7157861561108d57821693604685118015906127f1575b610d4f57828616936001851080156127e7575b6127d557601e106127c357600b5487116127b15788973383526011895260408320548061277d575b509260407f8ba1d57fc445f76a3bc884cc60cc8f95f647f54b02d9b1bf1be78ba0b0bfa76896936126a898969361272c60ff97600c600d549e8f9d8e61325e565b600d558d8652528484206001810180546001600160a01b03191633179055600281018e905560038101805468ffffffffffffffffff19169099178955426004820155600781018054918e905567ffffffff000000001990981667ffffffffffffffff199091161760209190911b67ffffffff00000000161790955563ffffffff1994565b338252600e8d5261273f8a848420613616565b815260108c52209182549161275581841661364b565b1691161790555460401c169061277260405192839233978461359c565b0390a3604051908152f35b90969491939850829592526012895261279c6006604087200154613241565b4210610ce75792949188979238959295612667565b604051633e285ff160e21b8152600490fd5b604051633631f31d60e01b8152600490fd5b60405163053ec95560e11b8152600490fd5b50600c851161263f565b506064851161262c565b50600154604051632cc52b1560e11b8152336004820152908a90829060249082906001600160a01b03165afa9081156110fe57839161283c575b5015612613565b61285391508a3d8c11610ada57610acc8183613488565b38612835565b6040516370c9ad1b60e11b8152600490fd5b5034610dee576020366003190112610dee578061010060405161288d81613425565b8281528260208201528260408201528260608201528260808201528260a08201528260c0820152606060e082015201526004358152600c602052604081209081549160018060a01b036001820154169160028201549060038301549063ffffffff60ff8360401c16926004860154948260078801541697604051996129118b613425565b8a5260208a01526040890152818116606089015260201c16608087015260078210156129f1575060a085015260c084015261294e9060050161386f565b60e08301526101008201526040518091602082528051602083015260018060a01b0360208201511660408301526040810151606083015263ffffffff606082015116608083015263ffffffff60808201511660a08301526129b760a082015160c08401906130e2565b60c081015160e083015260e081015163ffffffff6101006129e56101209384838801526101408701906130ef565b93015116908301520390f35b634e487b7160e01b81526021600452602490fd5b5034610dee576040366003190112610dee57612a1f6130a9565b90612a286133cf565b63ffffffff8216158015612c77575b610d71576004358152600c602052604081206003810154606463ffffffff8260201c1614612c65576001820154336001600160a01b0390911603612c535760401c60ff1660078110156112b65760038114908115612c48575b50612c36578190825b6005820154811015612b6e57612ab281600584016131ef565b905460039190911b1c6001600160a01b03168085526006830160205260408520549081612aea575b5050612ae59061325e565b612a99565b612b2882612ae5949396600f60205260408920612b08838254613563565b9055838952600660205260408920612b21838254613251565b9055613251565b94818752600685016020528660408120556040519081527f03290469b25240cb85db34af1f3d3117d889b712a22ac0988f554f4f8e0ed919602060043592a39038612ada565b5060209260019163ffffffff861682526010855260408220805463ffffffff811680612c14575b5050506806000000000000000068ffffffffff0000000019600383015416178060038301557f8ba1d57fc445f76a3bc884cc60cc8f95f647f54b02d9b1bf1be78ba0b0bfa768612c0863ffffffff600760028601549501541693604051918291339660ff6004359760401c16918461359c565b0390a355604051908152f35b612c2263ffffffff91613570565b169063ffffffff1916179055858080612b95565b604051637023a7c560e11b8152600490fd5b600691501438612a90565b60405163c671f07960e01b8152600490fd5b6040516307d43ae160e31b8152600490fd5b50600154604051632cc52b1560e11b815233600482015290602090829060249082906001600160a01b03165afa9081156109fd578291612cb9575b5015612a37565b612cd1915060203d8111610ada57610acc8183613488565b38612cb2565b5034610dee576020806003193601126109f9576001600160a01b03919082612cfd612f9b565b16808352600e8252604083208054849291835b828110612ed65750612d21846134aa565b93612d2f6040519586613488565b808552601f19612d3e826134aa565b01875b818110612eb7575050612d53906136af565b968693875b848110612dd75750505050505060405193849260408401604085528351809152606085018260608360051b880101950196905b828210612da757505050836114c9949550830390850152612fea565b9193955091938480612dc5600193605f198c82030186528a5161301e565b98019201920187959391969492612d8b565b612de681859b99989a9b6131ef565b9054600391821b1c8b52601288528960408c2084868254161480612e87575b80612e71575b612e26575b505050612e1c9061325e565b9897959698612d58565b918891612e43612e1c959a612e3d612e6896613779565b926136e1565b52612e4e828d6136e1565b50612e5989886131ef565b9054911b1c610ba7828c6136e1565b95908938612e10565b5063ffffffff600282015460281c161515612e0b565b50905060ff60028201541682811015612ea357908b9115612e05565b634e487b7160e01b8d52602160045260248dfd5b968096989997612ec5613732565b82828c010152019897959698612d41565b612ee5818399979698996131ef565b9054600391821b1c895260128652604089208588825416149182612f50575b5081612f39575b50612f24575b612f1a9061325e565b9695939496612d10565b95612f31612f1a9161325e565b969050612f11565b63ffffffff91506002015460281c16151538612f0b565b90915060ff60028301541690811015612f6b57159038612f04565b634e487b7160e01b8a52602160045260248afd5b9050346109f957816003193601126109f957602090600a548152f35b600435906001600160a01b0382168203610e9857565b602435906001600160a01b0382168203610e9857565b906003821015612fd45752565b634e487b7160e01b600052602160045260246000fd5b90815180825260208080930193019160005b82811061300a575050505090565b835185529381019392810192600101612ffc565b9060018060a01b0382511681526020820151602082015261304760408301516040830190612fc7565b63ffffffff806060840151166060830152608083015116608082015260a082015160a082015261309b61308960c08401516101208060c0860152840190612fea565b60e084015183820360e0850152612fea565b916101008091015191015290565b6024359063ffffffff82168203610e9857565b6044359063ffffffff82168203610e9857565b6004359063ffffffff82168203610e9857565b906007821015612fd45752565b90815180825260208080930193019160005b82811061310f575050505090565b83516001600160a01b031685529381019392810192600101613101565b34610e98576000366003190112610e98576020600b54604051908152f35b34610e9857600080600319360112610dee576040516370a0823160e01b81523060048201526020816024817f00000000000000000000000000000000000000000000000000000000000000006001600160a01b03165afa9081156109fd5782916131ba575b602082604051908152f35b90506020813d82116131e7575b816131d460209383613488565b810103126109f9576020915051386131af565b3d91506131c7565b8054821015610a8a5760005260206000200190600090565b600254811015610a8a57600260005260021b7f405787fa12a823e0f2b7631cc41b3ba8828b3321ca811111fa75cd3aa3bb5ace0190600090565b9062278d008201809211610c9c57565b91908201809211610c9c57565b6000198114610c9c5760010190565b60029182549283156133c957600554916213c6808301809311610c9c5760049283541590816133be575b506133ad57600094855b858710806133a3575b15613354576132ec6132f2916132c08754613207565b506003810180549060ff82161580613348575b6132f8575b5050506132e5875461325e565b875561325e565b9661325e565b956132a1565b6001809260ff19161790557fcf08cfd581ae48e3e5053c3ddad657750a872d827972a57ca253b1ab4748b0bc60208984549360018060a01b039086015416940154604051908152a33880806132d8565b508883015442116132d3565b92506040939195507fb8ee613246caed01f690aebbf94b750e593f665c039c5b937631201512b63b97945081541015613396575b5482519182526020820152a1565b6000815542600555613388565b50818554106132aa565b604051636410c90760e01b81528390fd5b905042111538613297565b50915050565b6002600054146133e0576002600055565b60405162461bcd60e51b815260206004820152601f60248201527f5265656e7472616e637947756172643a207265656e7472616e742063616c6c006044820152606490fd5b610120810190811067ffffffffffffffff82111761344257604052565b634e487b7160e01b600052604160045260246000fd5b67ffffffffffffffff811161344257604052565b6080810190811067ffffffffffffffff82111761344257604052565b90601f8019910116810190811067ffffffffffffffff82111761344257604052565b67ffffffffffffffff81116134425760051b60200190565b6002541580156134f8575b6134f257600052600360205260ff60036134eb604060002054613207565b5001541690565b50600090565b816000526003602052604060002054159081613515575b506134cd565b9050610a8a576002600052807f405787fa12a823e0f2b7631cc41b3ba8828b3321ca811111fa75cd3aa3bb5ace5414153861350f565b90816020910312610e9857518015158103610e985790565b91908203918211610c9c57565b63ffffffff9081166000190191908211610c9c57565b63ffffffff9182169082160391908211610c9c57565b60409063ffffffff6135c094969593966060830197835216602082015201906130e2565b565b60018060a01b03166000526006602052604060002054600f6020526040600020548082116135f1575050600090565b6135fa91613563565b90565b90816020910312610e9857518060030b8103610e985790565b8054600160401b81101561344257613633916001820181556131ef565b819291549060031b91821b91600019901b1916179055565b90600163ffffffff80931601918211610c9c57565b81810292918115918404141715610c9c57565b811561367d570490565b634e487b7160e01b600052601260045260246000fd5b90816020910312610e98575163ffffffff81168103610e985790565b906136b9826134aa565b6136c66040519182613488565b82815280926136d7601f19916134aa565b0190602036910137565b8051821015610a8a5760209160051b010190565b90815480825260208092019260005281600020916000905b82821061371b575050505090565b83548552938401936001938401939091019061370d565b6040519061373f82613425565b816101006000918281528260208201528260408201528260608201528260808201528260a0820152606060c0820152606060e08201520152565b9060405161378681613425565b82546001600160a01b03168152600183015460208201526002830154909283919060ff8216906003821015612fd45761010092600692604086015263ffffffff90818160081c16606087015260281c166080850152600381015460a08501526040516137f9816114ae81600486016136f5565b60c0850152604051613812816114ae81600586016136f5565b60e08501520154910152565b906000918252601260205260408220600281015460ff811660038110156124915715908161385c575b5061385157508190565b600301549150600190565b63ffffffff915060281c16151538613847565b9060405191828154918282526020928383019160005283600020936000905b8282106138a4575050506135c092500383613488565b85546001600160a01b03168452600195860195889550938101939091019061388e56fe8b094cca6f83d49402ce208cc0c224b76625ffc58636df56ae28024e704c5868a264697066735822122074895dc59299f9f0f5b20d8a39b26c8903bf5f6fa0662adcdb820d2672669bdd64736f6c63430008130033","opcodes":"PUSH1 0xA0 CALLVALUE PUSH3 0xC9 JUMPI PUSH1 0x1F PUSH3 0x3A17 CODESIZE DUP2 SWAP1 SUB SWAP2 DUP3 ADD PUSH1 0x1F NOT AND DUP4 ADD SWAP2 PUSH1 0x1 PUSH1 0x1 PUSH1 0x40 SHL SUB DUP4 GT DUP5 DUP5 LT OR PUSH3 0xCE JUMPI DUP1 DUP5 SWAP3 PUSH1 0x40 SWAP5 DUP6 MSTORE DUP4 CODECOPY DUP2 ADD SUB SLT PUSH3 0xC9 JUMPI PUSH3 0x5A PUSH1 0x20 PUSH3 0x52 DUP4 PUSH3 0xE4 JUMP JUMPDEST SWAP3 ADD PUSH3 0xE4 JUMP JUMPDEST PUSH1 0x1 PUSH1 0x0 DUP2 SWAP1 SSTORE PUSH1 0xD DUP2 SWAP1 SSTORE PUSH1 0x80 SWAP3 SWAP1 SWAP3 MSTORE DUP2 SLOAD PUSH1 0x1 PUSH1 0x1 PUSH1 0xA0 SHL SUB NOT AND PUSH1 0x1 PUSH1 0x1 PUSH1 0xA0 SHL SUB SWAP1 SWAP2 AND OR SWAP1 SSTORE PUSH1 0x40 MLOAD PUSH2 0x391D SWAP1 DUP2 PUSH3 0xFA DUP3 CODECOPY PUSH1 0x80 MLOAD DUP2 DUP2 DUP2 PUSH2 0x748 ADD MSTORE DUP2 DUP2 PUSH2 0xE3A ADD MSTORE DUP2 DUP2 PUSH2 0xF4C ADD MSTORE DUP2 DUP2 PUSH2 0x12E0 ADD MSTORE DUP2 DUP2 PUSH2 0x168C ADD MSTORE DUP2 DUP2 PUSH2 0x1FDC ADD MSTORE PUSH2 0x3177 ADD MSTORE RETURN JUMPDEST PUSH1 0x0 DUP1 REVERT JUMPDEST PUSH4 0x4E487B71 PUSH1 0xE0 SHL PUSH1 0x0 MSTORE PUSH1 0x41 PUSH1 0x4 MSTORE PUSH1 0x24 PUSH1 0x0 REVERT JUMPDEST MLOAD SWAP1 PUSH1 0x1 PUSH1 0x1 PUSH1 0xA0 SHL SUB DUP3 AND DUP3 SUB PUSH3 0xC9 JUMPI JUMP INVALID PUSH1 0x80 DUP1 PUSH1 0x40 MSTORE PUSH1 0x4 CALLDATASIZE LT ISZERO PUSH2 0x13 JUMPI PUSH1 0x0 DUP1 REVERT JUMPDEST PUSH1 0x0 SWAP1 DUP2 CALLDATALOAD PUSH1 0xE0 SHR SWAP1 DUP2 PUSH4 0x307C4A1 EQ PUSH2 0x2F7F JUMPI POP DUP1 PUSH4 0x3D1A1A1 EQ PUSH2 0x2CD7 JUMPI DUP1 PUSH4 0x140C9AC4 EQ PUSH2 0x2A05 JUMPI DUP1 PUSH4 0x1B70BA3E EQ PUSH2 0x286B JUMPI DUP1 PUSH4 0x1BEEAFA5 EQ PUSH2 0x25A8 JUMPI DUP1 PUSH4 0x21BB31E4 EQ PUSH2 0x2529 JUMPI DUP1 PUSH4 0x232869FA EQ PUSH2 0x24A5 JUMPI DUP1 PUSH4 0x291C31A7 EQ PUSH2 0x1E27 JUMPI DUP1 PUSH4 0x2B31C022 EQ PUSH2 0x23D2 JUMPI DUP1 PUSH4 0x2F3B1458 EQ PUSH2 0x22B0 JUMPI DUP1 PUSH4 0x383AB2EF EQ PUSH2 0x2268 JUMPI DUP1 PUSH4 0x410A1D32 EQ PUSH2 0x222F JUMPI DUP1 PUSH4 0x4E51C7DF EQ PUSH2 0x21E5 JUMPI DUP1 PUSH4 0x50C9677F EQ PUSH2 0x21C7 JUMPI DUP1 PUSH4 0x55C67616 EQ PUSH2 0x21A9 JUMPI DUP1 PUSH4 0x598A562A EQ PUSH2 0x212A JUMPI DUP1 PUSH4 0x6145D1B7 EQ PUSH2 0x1F2E JUMPI DUP1 PUSH4 0x6509A710 EQ PUSH2 0x1F01 JUMPI DUP1 PUSH4 0x657EB031 EQ PUSH2 0x1EC8 JUMPI DUP1 PUSH4 0x6587EDA1 EQ PUSH2 0x1E9F JUMPI DUP1 PUSH4 0x6EA33CEB EQ PUSH2 0x1E81 JUMPI DUP1 PUSH4 0x6F9FB98A EQ PUSH2 0x1463 JUMPI DUP1 PUSH4 0x777C658F EQ PUSH2 0x1E63 JUMPI DUP1 PUSH4 0x7D52437A EQ PUSH2 0x1E2C JUMPI DUP1 PUSH4 0x809DAB6A EQ PUSH2 0x1E27 JUMPI DUP1 PUSH4 0x81DB2284 EQ PUSH2 0x1DA1 JUMPI DUP1 PUSH4 0x827CC0E5 EQ PUSH2 0x1D68 JUMPI DUP1 PUSH4 0x843592D3 EQ PUSH2 0x1D3C JUMPI DUP1 PUSH4 0x84DDF5EA EQ PUSH2 0x1D1E JUMPI DUP1 PUSH4 0x8A914A63 EQ PUSH2 0x1CDC JUMPI DUP1 PUSH4 0x9059F9CA EQ PUSH2 0x14CD JUMPI DUP1 PUSH4 0x9730872A EQ PUSH2 0x1468 JUMPI DUP1 PUSH4 0x9785FAC8 EQ PUSH2 0x1463 JUMPI DUP1 PUSH4 0x97C33519 EQ PUSH2 0x138E JUMPI DUP1 PUSH4 0x9E932011 EQ PUSH2 0x1338 JUMPI DUP1 PUSH4 0xA4AACE0F EQ PUSH2 0x130F JUMPI DUP1 PUSH4 0xA98AD46C EQ PUSH2 0x12CA JUMPI DUP1 PUSH4 0xADCEB101 EQ PUSH2 0x122A JUMPI DUP1 PUSH4 0xBE5EB580 EQ PUSH2 0x11F1 JUMPI DUP1 PUSH4 0xBE7DF8ED EQ PUSH2 0x118D JUMPI DUP1 PUSH4 0xC269014B EQ PUSH2 0x1109 JUMPI DUP1 PUSH4 0xE2763924 EQ PUSH2 0xEDC JUMPI DUP1 PUSH4 0xE5A0BDE4 EQ PUSH2 0xEB0 JUMPI DUP1 PUSH4 0xEB5A662E EQ PUSH2 0xDF1 JUMPI PUSH4 0xECB18B34 EQ PUSH2 0x210 JUMPI PUSH1 0x0 DUP1 REVERT JUMPDEST CALLVALUE PUSH2 0xDEE JUMPI PUSH1 0x60 CALLDATASIZE PUSH1 0x3 NOT ADD SLT PUSH2 0xDEE JUMPI PUSH2 0x229 PUSH2 0x30A9 JUMP JUMPDEST PUSH4 0xFFFFFFFF PUSH2 0x236 PUSH2 0x30BC JUMP JUMPDEST AND SWAP1 DUP2 ISZERO DUP1 ISZERO PUSH2 0xD83 JUMPI JUMPDEST PUSH2 0xD71 JUMPI PUSH4 0xFFFFFFFF DUP2 AND ISZERO DUP1 ISZERO PUSH2 0xD61 JUMPI JUMPDEST PUSH2 0xD4F JUMPI PUSH1 0x9 PUSH4 0xFFFFFFFF DUP3 AND GT ISZERO PUSH2 0xD3D JUMPI PUSH2 0x26F PUSH2 0x33CF JUMP JUMPDEST PUSH1 0x4 CALLDATALOAD DUP4 MSTORE PUSH1 0xC PUSH1 0x20 MSTORE PUSH1 0x40 DUP4 KECCAK256 SWAP2 PUSH1 0x3 DUP4 ADD SLOAD PUSH1 0xFF DUP2 PUSH1 0x40 SHR AND PUSH1 0x7 DUP2 LT ISZERO PUSH2 0xD29 JUMPI DUP1 ISZERO ISZERO SWAP1 DUP2 PUSH2 0xD1D JUMPI JUMPDEST POP PUSH2 0xD0B JUMPI PUSH2 0x2BA PUSH1 0x64 SWAP2 PUSH4 0xFFFFFFFF DUP1 DUP7 AND SWAP2 PUSH1 0x20 SHR AND PUSH2 0x3251 JUMP JUMPDEST GT PUSH2 0xCF9 JUMPI PUSH1 0x1 DUP4 ADD SLOAD PUSH1 0x1 PUSH1 0x1 PUSH1 0xA0 SHL SUB AND DUP5 MSTORE PUSH1 0x11 PUSH1 0x20 MSTORE PUSH1 0x40 DUP5 KECCAK256 SLOAD DUP1 PUSH2 0xCC4 JUMPI JUMPDEST POP PUSH2 0x2F4 PUSH4 0xFFFFFFFF DUP4 AND PUSH1 0x2 DUP6 ADD SLOAD PUSH2 0x3660 JUMP JUMPDEST SWAP3 PUSH8 0xDE0B6B3A7640000 SWAP4 DUP5 DUP2 MUL SWAP5 DUP2 DUP7 DIV EQ SWAP1 ISZERO OR ISZERO PUSH2 0xA0C JUMPI PUSH9 0x56BC75E2D630FFFFF DUP5 ADD DUP5 GT PUSH2 0xC9C JUMPI CALLER DUP6 MSTORE PUSH1 0x6 PUSH1 0x20 MSTORE PUSH9 0x56BC75E2D63100000 PUSH9 0x56BC75E2D630FFFFF DUP6 ADD DIV PUSH1 0x40 DUP7 KECCAK256 SLOAD LT PUSH2 0xCB2 JUMPI CALLER DUP6 MSTORE PUSH1 0x6 PUSH1 0x20 MSTORE PUSH1 0x40 DUP6 KECCAK256 PUSH2 0x377 PUSH9 0x56BC75E2D63100000 PUSH9 0x56BC75E2D630FFFFF DUP8 ADD DIV DUP3 SLOAD PUSH2 0x3563 JUMP JUMPDEST SWAP1 SSTORE CALLER DUP6 MSTORE PUSH1 0xF PUSH1 0x20 MSTORE PUSH1 0x40 DUP6 KECCAK256 PUSH2 0x3A6 PUSH9 0x56BC75E2D63100000 PUSH9 0x56BC75E2D630FFFFF DUP8 ADD DIV DUP3 SLOAD PUSH2 0x3251 JUMP JUMPDEST SWAP1 SSTORE PUSH4 0xFFFFFFFF DUP4 AND PUSH4 0xFFFFFFFF PUSH1 0x3 DUP4 ADD SLOAD PUSH1 0x20 SHR AND ADD PUSH4 0xFFFFFFFF DUP2 GT PUSH2 0xC9C JUMPI PUSH2 0x3F3 SWAP1 PUSH1 0x3 DUP4 ADD SWAP1 PUSH8 0xFFFFFFFF00000000 DUP3 SLOAD SWAP2 PUSH1 0x20 SHL AND SWAP1 PUSH8 0xFFFFFFFF00000000 NOT AND OR SWAP1 SSTORE JUMP JUMPDEST CALLER PUSH1 0x0 MSTORE PUSH1 0x6 DUP2 ADD PUSH1 0x20 MSTORE PUSH1 0x40 PUSH1 0x0 KECCAK256 SLOAD ISZERO PUSH2 0xC40 JUMPI JUMPDEST CALLER PUSH1 0x0 MSTORE PUSH1 0x6 DUP2 ADD PUSH1 0x20 MSTORE PUSH1 0x40 PUSH1 0x0 KECCAK256 PUSH2 0x43B PUSH9 0x56BC75E2D63100000 PUSH9 0x56BC75E2D630FFFFF DUP8 ADD DIV DUP3 SLOAD PUSH2 0x3251 JUMP JUMPDEST SWAP1 SSTORE PUSH1 0x3 DUP2 ADD SLOAD PUSH4 0xFFFFFFFF DUP2 AND PUSH4 0xFFFFFFFF DUP3 PUSH1 0x20 SHR AND LT ISZERO PUSH1 0x0 EQ PUSH2 0xC23 JUMPI POP PUSH1 0x3 DUP2 ADD DUP1 SLOAD PUSH1 0xFF PUSH1 0x40 SHL NOT AND PUSH9 0x20000000000000000 OR SWAP1 SSTORE PUSH1 0x1 DUP1 SLOAD SWAP2 ADD SLOAD PUSH1 0x40 MLOAD PUSH4 0x4698C2D5 PUSH1 0xE0 SHL DUP2 MSTORE PUSH1 0x1 PUSH1 0x1 PUSH1 0xA0 SHL SUB SWAP2 DUP3 AND PUSH1 0x4 DUP3 ADD MSTORE SWAP2 PUSH1 0x20 SWAP2 DUP4 SWAP2 PUSH1 0x24 SWAP2 DUP4 SWAP2 AND GAS STATICCALL DUP1 ISZERO PUSH2 0xC18 JUMPI PUSH4 0xFFFFFFFF SWAP2 DUP7 SWAP2 PUSH2 0xBE9 JUMPI JUMPDEST POP AND DUP5 MSTORE PUSH1 0x10 PUSH1 0x20 SWAP1 DUP2 MSTORE PUSH1 0x40 DUP1 DUP7 KECCAK256 DUP1 SLOAD PUSH4 0xFFFFFFFF NOT AND SWAP1 SSTORE PUSH1 0x4 CALLDATALOAD DUP1 DUP8 MSTORE PUSH1 0x12 DUP4 MSTORE DUP2 DUP8 KECCAK256 PUSH1 0xC SWAP1 SWAP4 MSTORE SWAP1 DUP7 KECCAK256 PUSH1 0x1 DUP2 DUP2 ADD SLOAD DUP5 SLOAD PUSH1 0x1 PUSH1 0x1 PUSH1 0xA0 SHL SUB NOT AND PUSH1 0x1 PUSH1 0x1 PUSH1 0xA0 SHL SUB SWAP2 SWAP1 SWAP2 AND OR DUP5 SSTORE DUP4 ADD SWAP2 SWAP1 SWAP2 SSTORE PUSH1 0x2 DUP3 ADD DUP1 SLOAD PUSH1 0xFF NOT DUP2 AND DUP3 SSTORE PUSH1 0x7 DUP4 ADD DUP1 SLOAD PUSH5 0xFFFFFFFFFF NOT DUP4 AND PUSH1 0x8 SWAP2 SWAP1 SWAP2 SHL PUSH5 0xFFFFFFFF00 AND SWAP1 DUP2 OR DUP5 SSTORE SWAP1 SLOAD PUSH9 0xFFFFFFFFFFFFFFFFFF NOT SWAP1 SWAP3 AND OR PUSH1 0x28 SWAP2 SWAP1 SWAP2 SHL PUSH9 0xFFFFFFFF0000000000 AND OR SWAP1 SSTORE SWAP1 TIMESTAMP PUSH1 0x6 DUP3 ADD SSTORE PUSH1 0x2 DUP3 ADD SLOAD PUSH4 0xFFFFFFFF PUSH1 0x7 DUP5 ADD SLOAD AND SWAP3 PUSH2 0x588 DUP5 DUP4 PUSH2 0x3673 JUMP JUMPDEST DUP5 ISZERO PUSH2 0xBD5 JUMPI PUSH2 0x597 DUP6 PUSH2 0x36AF JUMP JUMPDEST SWAP3 DUP10 JUMPDEST DUP7 DUP2 LT PUSH2 0xB83 JUMPI POP POP PUSH1 0x3 DUP5 ADD SSTORE PUSH1 0x7 ADD SLOAD PUSH3 0x15180 SWAP1 PUSH1 0x20 SHR PUSH4 0xFFFFFFFF AND DUP1 ISZERO DUP3 DUP3 MUL DUP3 SWAP1 DIV DUP4 EQ OR ISZERO PUSH2 0xB6F JUMPI DUP9 JUMPDEST DUP6 PUSH4 0xFFFFFFFF DUP3 AND LT PUSH2 0xB11 JUMPI POP POP POP PUSH1 0x1 DUP1 PUSH1 0xA0 SHL SUB DUP3 SLOAD AND DUP8 MSTORE PUSH1 0x11 PUSH1 0x20 MSTORE PUSH1 0x4 CALLDATALOAD PUSH1 0x40 DUP9 KECCAK256 SSTORE PUSH1 0x1 DUP1 PUSH1 0xA0 SHL SUB DUP3 SLOAD AND PUSH1 0x2 DUP4 ADD SLOAD SWAP1 PUSH32 0x55939E2A4ADB2163C21EB3BB2C850E8E82136AED8A9E5971F705F1188D05865E PUSH1 0x3 DUP6 ADD SLOAD SWAP3 PUSH1 0x6 DUP7 ADD SLOAD SWAP4 PUSH4 0xFFFFFFFF PUSH1 0x40 MLOAD SWAP3 PUSH2 0x648 DUP5 PUSH1 0xFF DUP4 AND PUSH2 0x2FC7 JUMP JUMPDEST PUSH1 0x28 SHR AND PUSH1 0x20 DUP4 ADD MSTORE PUSH1 0x40 DUP3 ADD MSTORE PUSH1 0xA0 PUSH1 0x60 DUP3 ADD MSTORE PUSH2 0x66D PUSH1 0xA0 DUP3 ADD PUSH1 0x4 DUP9 ADD PUSH2 0x36F5 JUMP JUMPDEST SWAP4 PUSH1 0x80 DUP3 ADD MSTORE DUP1 PUSH1 0x4 CALLDATALOAD SWAP5 SUB SWAP1 LOG3 DUP7 JUMPDEST DUP4 DUP2 LT PUSH2 0xAEC JUMPI POP POP POP POP PUSH1 0x4 CALLDATALOAD DUP5 MSTORE PUSH1 0xC PUSH1 0x20 MSTORE PUSH1 0x40 DUP5 KECCAK256 PUSH1 0x1 DUP1 PUSH1 0xA0 SHL SUB PUSH1 0x1 DUP3 ADD SLOAD AND SWAP1 PUSH1 0x2 DUP2 ADD SLOAD DUP3 DUP8 MSTORE PUSH1 0x7 PUSH1 0x20 MSTORE PUSH2 0x6C0 PUSH1 0x40 DUP9 KECCAK256 SWAP2 DUP3 SLOAD PUSH2 0x3251 JUMP JUMPDEST SWAP1 SSTORE PUSH2 0x6D2 PUSH1 0x2 DUP3 ADD SLOAD PUSH1 0xA SLOAD PUSH2 0x3251 JUMP JUMPDEST PUSH1 0xA SSTORE PUSH2 0x6E5 PUSH1 0x2 DUP3 ADD SLOAD PUSH1 0xB SLOAD PUSH2 0x3563 JUMP JUMPDEST PUSH1 0xB SSTORE DUP2 DUP7 MSTORE PUSH1 0x8 PUSH1 0x20 SWAP1 DUP2 MSTORE PUSH1 0x40 DUP1 DUP9 KECCAK256 TIMESTAMP SWAP1 SSTORE PUSH1 0x3 DUP4 ADD DUP1 SLOAD PUSH1 0xFF PUSH1 0x40 SHL NOT AND PUSH9 0x30000000000000000 OR SWAP1 SSTORE PUSH1 0x2 DUP4 ADD SLOAD SWAP1 MLOAD PUSH4 0xA9059CBB PUSH1 0xE0 SHL DUP2 MSTORE PUSH1 0x1 PUSH1 0x1 PUSH1 0xA0 SHL SUB DUP6 AND PUSH1 0x4 DUP3 ADD MSTORE PUSH1 0x24 DUP2 ADD SWAP2 SWAP1 SWAP2 MSTORE SWAP1 DUP2 DUP1 PUSH1 0x44 DUP2 ADD SUB DUP2 DUP11 PUSH32 0x0 PUSH1 0x1 PUSH1 0x1 PUSH1 0xA0 SHL SUB AND GAS CALL SWAP1 DUP2 ISZERO PUSH2 0xAE1 JUMPI DUP8 SWAP2 PUSH2 0xAB2 JUMPI JUMPDEST POP ISZERO PUSH2 0xAA0 JUMPI PUSH1 0x4 CALLDATALOAD DUP7 MSTORE PUSH1 0x12 PUSH1 0x20 MSTORE PUSH1 0x4 PUSH1 0x40 DUP8 KECCAK256 ADD DUP1 SLOAD ISZERO PUSH2 0xA8A JUMPI PUSH1 0x0 MSTORE PUSH1 0x20 PUSH1 0x0 KECCAK256 SLOAD PUSH1 0x2 SLOAD PUSH1 0x4 CALLDATALOAD DUP9 MSTORE PUSH1 0x3 PUSH1 0x20 MSTORE DUP1 PUSH1 0x40 DUP10 KECCAK256 SSTORE PUSH1 0x40 MLOAD SWAP2 PUSH2 0x7C7 DUP4 PUSH2 0x346C JUMP JUMPDEST PUSH1 0x4 CALLDATALOAD DUP4 MSTORE DUP5 PUSH1 0x20 DUP5 ADD MSTORE PUSH1 0x40 DUP4 ADD MSTORE DUP8 PUSH1 0x60 DUP4 ADD MSTORE PUSH1 0x1 PUSH1 0x40 SHL DUP2 LT ISZERO PUSH2 0xA76 JUMPI DUP1 PUSH1 0x1 PUSH2 0x7F9 SWAP3 ADD PUSH1 0x2 SSTORE PUSH2 0x3207 JUMP JUMPDEST SWAP2 SWAP1 SWAP2 PUSH2 0xA62 JUMPI PUSH32 0xEAE9CFBC77FDD40CA899F36B608256063B2BC9D8178B0220F7AD513E178D6730 SWAP3 PUSH2 0x879 PUSH1 0x40 SWAP4 PUSH1 0x3 PUSH1 0x60 DUP6 PUSH1 0x2 SWAP7 MLOAD DUP5 SSTORE PUSH1 0x1 DUP5 ADD PUSH1 0x1 DUP1 PUSH1 0xA0 SHL SUB PUSH1 0x20 DUP4 ADD MLOAD AND PUSH12 0xFFFFFFFFFFFFFFFFFFFFFFFF PUSH1 0xA0 SHL DUP3 SLOAD AND OR SWAP1 SSTORE DUP8 DUP2 ADD MLOAD DUP8 DUP6 ADD SSTORE ADD MLOAD ISZERO ISZERO SWAP2 ADD SWAP1 PUSH1 0xFF DUP1 NOT DUP4 SLOAD AND SWAP2 ISZERO ISZERO AND OR SWAP1 SSTORE JUMP JUMPDEST ADD SLOAD DUP4 DUP9 MSTORE PUSH1 0x7 PUSH1 0x20 MSTORE DUP2 DUP9 KECCAK256 SLOAD DUP3 MLOAD SWAP2 DUP3 MSTORE PUSH1 0x20 DUP3 ADD MSTORE LOG2 PUSH32 0x17F13FD3F7C4712AF33F1770EBCB822DD20A2DBC00850EAB48D786623D97B959 PUSH1 0x20 PUSH1 0xA SLOAD PUSH1 0x40 MLOAD SWAP1 DUP2 MSTORE LOG1 PUSH1 0x0 DUP1 MLOAD PUSH1 0x20 PUSH2 0x38C8 DUP4 CODECOPY DUP2 MLOAD SWAP2 MSTORE PUSH1 0x20 PUSH1 0xB SLOAD PUSH1 0x40 MLOAD SWAP1 DUP2 MSTORE LOG1 PUSH1 0x4 CALLDATALOAD PUSH32 0x9E71D2FB732E68272B7E74ECFD14638673C1D77E19A5D390A3FFFF054D57C44B DUP6 DUP1 LOG2 JUMPDEST PUSH1 0x1 SLOAD PUSH1 0x40 MLOAD PUSH4 0x6ADF4625 PUSH1 0xE1 SHL DUP2 MSTORE PUSH1 0x1 PUSH1 0x1 PUSH1 0xA0 SHL SUB SWAP1 SWAP2 AND SWAP3 PUSH1 0x20 DUP3 PUSH1 0x4 DUP2 DUP8 GAS STATICCALL SWAP2 DUP3 ISZERO PUSH2 0xA57 JUMPI DUP7 SWAP3 PUSH2 0xA20 JUMPI JUMPDEST POP PUSH4 0xFFFFFFFF AND PUSH1 0x3 SIGNEXTEND SWAP1 PUSH1 0x3 SIGNEXTEND MUL DUP1 PUSH1 0x3 SIGNEXTEND SWAP1 DUP2 SUB PUSH2 0xA0C JUMPI SWAP1 DUP3 SWAP2 DUP6 SWAP4 EXTCODESIZE ISZERO PUSH2 0xA08 JUMPI PUSH1 0x64 DUP5 SWAP3 DUP4 PUSH1 0xA SWAP6 PUSH1 0x40 MLOAD SWAP7 DUP8 SWAP6 DUP7 SWAP5 PUSH4 0x533DFA35 PUSH1 0xE0 SHL DUP7 MSTORE PUSH1 0x4 DUP7 ADD MSTORE SDIV PUSH1 0x3 SIGNEXTEND PUSH1 0x24 DUP5 ADD MSTORE PUSH1 0x1 PUSH1 0x44 DUP5 ADD MSTORE GAS CALL DUP1 ISZERO PUSH2 0x9FD JUMPI PUSH2 0x9E5 JUMPI JUMPDEST POP POP PUSH9 0x56BC75E2D63100000 PUSH9 0x56BC75E2D630FFFFF PUSH1 0x40 MLOAD SWAP3 ADD DIV DUP2 MSTORE CALLER SWAP1 PUSH32 0x86B47E6E6C03D769C0BC5FFD06C682EA7D07089576D59230EC18FF64E71BFFE7 PUSH1 0x20 PUSH1 0x4 CALLDATALOAD SWAP3 LOG3 PUSH1 0x1 DUP2 SSTORE DUP1 RETURN JUMPDEST PUSH2 0x9EE SWAP1 PUSH2 0x3458 JUMP JUMPDEST PUSH2 0x9F9 JUMPI DUP2 CODESIZE PUSH2 0x996 JUMP JUMPDEST POP DUP1 REVERT JUMPDEST PUSH1 0x40 MLOAD RETURNDATASIZE DUP5 DUP3 RETURNDATACOPY RETURNDATASIZE SWAP1 REVERT JUMPDEST DUP4 DUP1 REVERT JUMPDEST PUSH4 0x4E487B71 PUSH1 0xE0 SHL DUP6 MSTORE PUSH1 0x11 PUSH1 0x4 MSTORE PUSH1 0x24 DUP6 REVERT JUMPDEST PUSH4 0xFFFFFFFF SWAP2 SWAP3 POP PUSH2 0xA49 SWAP1 PUSH1 0x20 RETURNDATASIZE PUSH1 0x20 GT PUSH2 0xA50 JUMPI JUMPDEST PUSH2 0xA41 DUP2 DUP4 PUSH2 0x3488 JUMP JUMPDEST DUP2 ADD SWAP1 PUSH2 0x35FD JUMP JUMPDEST SWAP2 SWAP1 PUSH2 0x935 JUMP JUMPDEST POP RETURNDATASIZE PUSH2 0xA37 JUMP JUMPDEST PUSH1 0x40 MLOAD RETURNDATASIZE DUP9 DUP3 RETURNDATACOPY RETURNDATASIZE SWAP1 REVERT JUMPDEST PUSH4 0x4E487B71 PUSH1 0xE0 SHL DUP9 MSTORE PUSH1 0x4 DUP9 SWAP1 MSTORE PUSH1 0x24 DUP9 REVERT JUMPDEST PUSH4 0x4E487B71 PUSH1 0xE0 SHL DUP9 MSTORE PUSH1 0x41 PUSH1 0x4 MSTORE PUSH1 0x24 DUP9 REVERT JUMPDEST PUSH4 0x4E487B71 PUSH1 0xE0 SHL PUSH1 0x0 MSTORE PUSH1 0x32 PUSH1 0x4 MSTORE PUSH1 0x24 PUSH1 0x0 REVERT JUMPDEST PUSH1 0x40 MLOAD PUSH4 0x7A97D71F PUSH1 0xE0 SHL DUP2 MSTORE PUSH1 0x4 SWAP1 REVERT JUMPDEST PUSH2 0xAD4 SWAP2 POP PUSH1 0x20 RETURNDATASIZE PUSH1 0x20 GT PUSH2 0xADA JUMPI JUMPDEST PUSH2 0xACC DUP2 DUP4 PUSH2 0x3488 JUMP JUMPDEST DUP2 ADD SWAP1 PUSH2 0x354B JUMP JUMPDEST CODESIZE PUSH2 0x780 JUMP JUMPDEST POP RETURNDATASIZE PUSH2 0xAC2 JUMP JUMPDEST PUSH1 0x40 MLOAD RETURNDATASIZE DUP10 DUP3 RETURNDATACOPY RETURNDATASIZE SWAP1 REVERT JUMPDEST DUP1 PUSH2 0xB07 PUSH2 0xAFD PUSH2 0xB0C SWAP4 DUP6 PUSH2 0x36E1 JUMP JUMPDEST MLOAD PUSH1 0x5 DUP7 ADD PUSH2 0x3616 JUMP JUMPDEST PUSH2 0x325E JUMP JUMPDEST PUSH2 0x67D JUMP JUMPDEST PUSH2 0xB40 PUSH2 0xB37 PUSH2 0xB31 PUSH4 0xFFFFFFFF PUSH2 0xB28 DUP6 PUSH2 0x364B JUMP JUMPDEST AND DUP7 DUP7 MUL PUSH2 0x3660 JUMP JUMPDEST TIMESTAMP PUSH2 0x3251 JUMP JUMPDEST PUSH1 0x4 DUP8 ADD PUSH2 0x3616 JUMP JUMPDEST PUSH4 0xFFFFFFFF DUP1 DUP3 AND EQ PUSH2 0xB5B JUMPI PUSH4 0xFFFFFFFF AND PUSH1 0x1 ADD PUSH2 0x5CC JUMP JUMPDEST PUSH4 0x4E487B71 PUSH1 0xE0 SHL DUP11 MSTORE PUSH1 0x11 PUSH1 0x4 MSTORE PUSH1 0x24 DUP11 REVERT JUMPDEST PUSH4 0x4E487B71 PUSH1 0xE0 SHL DUP10 MSTORE PUSH1 0x11 PUSH1 0x4 MSTORE PUSH1 0x24 DUP10 REVERT JUMPDEST DUP7 DUP3 MOD DUP2 LT ISZERO PUSH2 0xBC6 JUMPI PUSH1 0x1 DUP4 ADD DUP1 DUP5 GT PUSH2 0xBB2 JUMPI SWAP1 PUSH2 0xBAD SWAP2 PUSH2 0xBA7 DUP3 DUP9 PUSH2 0x36E1 JUMP JUMPDEST MSTORE PUSH2 0x325E JUMP JUMPDEST PUSH2 0x59A JUMP JUMPDEST PUSH4 0x4E487B71 PUSH1 0xE0 SHL DUP13 MSTORE PUSH1 0x11 PUSH1 0x4 MSTORE PUSH1 0x24 DUP13 REVERT JUMPDEST DUP1 DUP4 PUSH2 0xBA7 PUSH2 0xBAD SWAP4 DUP9 PUSH2 0x36E1 JUMP JUMPDEST PUSH4 0x4E487B71 PUSH1 0xE0 SHL DUP10 MSTORE PUSH1 0x12 PUSH1 0x4 MSTORE PUSH1 0x24 DUP10 REVERT JUMPDEST PUSH2 0xC0B SWAP2 POP PUSH1 0x20 RETURNDATASIZE PUSH1 0x20 GT PUSH2 0xC11 JUMPI JUMPDEST PUSH2 0xC03 DUP2 DUP4 PUSH2 0x3488 JUMP JUMPDEST DUP2 ADD SWAP1 PUSH2 0x3693 JUMP JUMPDEST CODESIZE PUSH2 0x4BC JUMP JUMPDEST POP RETURNDATASIZE PUSH2 0xBF9 JUMP JUMPDEST PUSH1 0x40 MLOAD RETURNDATASIZE DUP8 DUP3 RETURNDATACOPY RETURNDATASIZE SWAP1 REVERT JUMPDEST PUSH1 0x1 PUSH1 0x40 SHL PUSH1 0x3 SWAP2 PUSH9 0xFF0000000000000000 NOT AND OR SWAP2 ADD SSTORE PUSH2 0x902 JUMP JUMPDEST PUSH1 0x5 DUP2 ADD SLOAD PUSH1 0x1 PUSH1 0x40 SHL DUP2 LT ISZERO PUSH2 0xC88 JUMPI DUP1 PUSH1 0x1 PUSH2 0xC67 SWAP3 ADD PUSH1 0x5 DUP5 ADD SSTORE PUSH1 0x5 DUP4 ADD PUSH2 0x31EF JUMP JUMPDEST DUP2 SLOAD PUSH1 0x1 PUSH1 0x1 PUSH1 0xA0 SHL SUB PUSH1 0x3 SWAP3 SWAP1 SWAP3 SHL SWAP2 DUP3 SHL NOT AND CALLER SWAP1 SWAP2 SHL OR SWAP1 SSTORE PUSH2 0x40A JUMP JUMPDEST PUSH4 0x4E487B71 PUSH1 0xE0 SHL DUP7 MSTORE PUSH1 0x41 PUSH1 0x4 MSTORE PUSH1 0x24 DUP7 REVERT JUMPDEST PUSH4 0x4E487B71 PUSH1 0xE0 SHL PUSH1 0x0 MSTORE PUSH1 0x11 PUSH1 0x4 MSTORE PUSH1 0x24 PUSH1 0x0 REVERT JUMPDEST PUSH1 0x40 MLOAD PUSH4 0x6044D4DD PUSH1 0xE0 SHL DUP2 MSTORE PUSH1 0x4 SWAP1 REVERT JUMPDEST DUP5 MSTORE PUSH1 0x12 PUSH1 0x20 MSTORE PUSH2 0xCDB PUSH1 0x6 PUSH1 0x40 DUP7 KECCAK256 ADD SLOAD PUSH2 0x3241 JUMP JUMPDEST TIMESTAMP LT PUSH2 0xCE7 JUMPI CODESIZE PUSH2 0x2DF JUMP JUMPDEST PUSH1 0x40 MLOAD PUSH4 0x1BF0A15 PUSH1 0xE4 SHL DUP2 MSTORE PUSH1 0x4 SWAP1 REVERT JUMPDEST PUSH1 0x40 MLOAD PUSH4 0x11D93551 PUSH1 0xE0 SHL DUP2 MSTORE PUSH1 0x4 SWAP1 REVERT JUMPDEST PUSH1 0x40 MLOAD PUSH4 0x393E6909 PUSH1 0xE1 SHL DUP2 MSTORE PUSH1 0x4 SWAP1 REVERT JUMPDEST PUSH1 0x1 SWAP2 POP EQ ISZERO CODESIZE PUSH2 0x29D JUMP JUMPDEST PUSH4 0x4E487B71 PUSH1 0xE0 SHL DUP7 MSTORE PUSH1 0x21 PUSH1 0x4 MSTORE PUSH1 0x24 DUP7 REVERT JUMPDEST PUSH1 0x40 MLOAD PUSH4 0x7314F91 PUSH1 0xE2 SHL DUP2 MSTORE PUSH1 0x4 SWAP1 REVERT JUMPDEST PUSH1 0x40 MLOAD PUSH4 0x2819760F PUSH1 0xE0 SHL DUP2 MSTORE PUSH1 0x4 SWAP1 REVERT JUMPDEST POP PUSH1 0x64 PUSH4 0xFFFFFFFF DUP3 AND GT PUSH2 0x254 JUMP JUMPDEST PUSH1 0x40 MLOAD PUSH4 0x584DAF25 PUSH1 0xE0 SHL DUP2 MSTORE PUSH1 0x4 SWAP1 REVERT JUMPDEST POP PUSH1 0x1 SLOAD PUSH1 0x40 MLOAD PUSH4 0x2CC52B15 PUSH1 0xE1 SHL DUP2 MSTORE CALLER PUSH1 0x4 DUP3 ADD MSTORE SWAP1 PUSH1 0x20 SWAP1 DUP3 SWAP1 PUSH1 0x24 SWAP1 DUP3 SWAP1 PUSH1 0x1 PUSH1 0x1 PUSH1 0xA0 SHL SUB AND GAS STATICCALL SWAP1 DUP2 ISZERO PUSH2 0xDE3 JUMPI DUP5 SWAP2 PUSH2 0xDC5 JUMPI JUMPDEST POP ISZERO PUSH2 0x241 JUMP JUMPDEST PUSH2 0xDDD SWAP2 POP PUSH1 0x20 RETURNDATASIZE DUP2 GT PUSH2 0xADA JUMPI PUSH2 0xACC DUP2 DUP4 PUSH2 0x3488 JUMP JUMPDEST CODESIZE PUSH2 0xDBE JUMP JUMPDEST PUSH1 0x40 MLOAD RETURNDATASIZE DUP7 DUP3 RETURNDATACOPY RETURNDATASIZE SWAP1 REVERT JUMPDEST DUP1 REVERT JUMPDEST POP CALLVALUE PUSH2 0xDEE JUMPI PUSH1 0x20 SWAP1 DUP2 PUSH1 0x3 NOT CALLDATASIZE ADD SLT PUSH2 0xDEE JUMPI PUSH1 0x44 DUP3 PUSH2 0xE10 PUSH2 0x2F9B JUMP JUMPDEST PUSH1 0x40 MLOAD PUSH4 0x6EB1769F PUSH1 0xE1 SHL DUP2 MSTORE PUSH1 0x1 PUSH1 0x1 PUSH1 0xA0 SHL SUB SWAP2 DUP3 AND PUSH1 0x4 DUP3 ADD MSTORE ADDRESS PUSH1 0x24 DUP3 ADD MSTORE SWAP3 DUP4 SWAP2 DUP3 SWAP1 PUSH32 0x0 AND GAS STATICCALL SWAP2 DUP3 ISZERO PUSH2 0xEA4 JUMPI SWAP2 PUSH2 0xE72 JUMPI JUMPDEST POP PUSH1 0x40 MLOAD SWAP1 DUP2 MSTORE RETURN JUMPDEST SWAP1 POP DUP2 DUP2 DUP2 RETURNDATASIZE DUP4 GT PUSH2 0xE9D JUMPI JUMPDEST PUSH2 0xE89 DUP2 DUP4 PUSH2 0x3488 JUMP JUMPDEST DUP2 ADD SUB SLT PUSH2 0xE98 JUMPI MLOAD CODESIZE PUSH2 0xE69 JUMP JUMPDEST PUSH1 0x0 DUP1 REVERT JUMPDEST POP RETURNDATASIZE PUSH2 0xE7F JUMP JUMPDEST PUSH1 0x40 MLOAD SWAP1 RETURNDATASIZE SWAP1 DUP3 RETURNDATACOPY RETURNDATASIZE SWAP1 REVERT JUMPDEST POP CALLVALUE PUSH2 0xDEE JUMPI PUSH1 0x20 CALLDATASIZE PUSH1 0x3 NOT ADD SLT PUSH2 0xDEE JUMPI PUSH2 0xECA PUSH2 0x33CF JUMP JUMPDEST PUSH2 0xED5 PUSH1 0x4 CALLDATALOAD PUSH2 0x326D JUMP JUMPDEST PUSH1 0x1 DUP2 SSTORE DUP1 RETURN JUMPDEST POP CALLVALUE PUSH2 0xDEE JUMPI PUSH1 0x40 CALLDATASIZE PUSH1 0x3 NOT ADD SLT PUSH2 0xDEE JUMPI PUSH1 0x4 CALLDATALOAD PUSH4 0xFFFFFFFF PUSH2 0xEFE PUSH2 0x30A9 JUMP JUMPDEST AND ISZERO DUP1 ISZERO PUSH2 0x109E JUMPI JUMPDEST PUSH2 0xD71 JUMPI DUP1 ISZERO PUSH2 0x108D JUMPI PUSH2 0xF19 PUSH2 0x33CF JUMP JUMPDEST PUSH1 0x40 MLOAD PUSH4 0x23B872DD PUSH1 0xE0 SHL DUP2 MSTORE CALLER PUSH1 0x4 DUP3 ADD MSTORE ADDRESS PUSH1 0x24 DUP3 ADD MSTORE PUSH1 0x44 DUP2 ADD DUP3 SWAP1 MSTORE PUSH1 0x20 SWAP1 DUP2 DUP2 PUSH1 0x64 DUP2 DUP8 PUSH1 0x1 PUSH1 0x1 PUSH1 0xA0 SHL SUB PUSH32 0x0 AND GAS CALL SWAP1 DUP2 ISZERO PUSH2 0xDE3 JUMPI DUP5 SWAP2 PUSH2 0x1070 JUMPI JUMPDEST POP ISZERO PUSH2 0xAA0 JUMPI PUSH1 0x0 DUP1 MLOAD PUSH1 0x20 PUSH2 0x38C8 DUP4 CODECOPY DUP2 MLOAD SWAP2 MSTORE SWAP1 CALLER DUP5 MSTORE PUSH1 0x6 DUP2 MSTORE PUSH1 0x40 DUP5 KECCAK256 SWAP3 DUP4 SLOAD SWAP4 PUSH2 0xFAB DUP3 DUP7 PUSH2 0x3251 JUMP JUMPDEST SWAP1 SSTORE PUSH32 0xDC6E73D4B36E22AB95945BD8833A5AF96C950EB29D8D75C4AECFFC987637AAAB DUP3 PUSH2 0xFDB DUP4 PUSH1 0x9 SLOAD PUSH2 0x3251 JUMP JUMPDEST DUP1 PUSH1 0x9 SSTORE PUSH2 0xFEB DUP5 PUSH1 0xB SLOAD PUSH2 0x3251 JUMP JUMPDEST SWAP4 DUP5 PUSH1 0xB SSTORE CALLER DUP10 MSTORE PUSH1 0x6 DUP4 MSTORE PUSH1 0x40 DUP10 KECCAK256 SLOAD PUSH1 0x40 MLOAD SWAP2 DUP3 MSTORE DUP4 DUP3 ADD MSTORE PUSH32 0x4928895BA6723E8E27B15F32E4C3054A1B6C7F8C03F133558D6FA42B3928D14C PUSH1 0x40 CALLER SWAP3 LOG2 PUSH1 0x40 MLOAD SWAP1 DUP2 MSTORE LOG1 PUSH1 0x40 MLOAD SWAP1 DUP2 MSTORE LOG1 ISZERO PUSH2 0x1046 JUMPI PUSH1 0x1 DUP2 SSTORE DUP1 RETURN JUMPDEST CALLER PUSH32 0x72DAFB6AABE3F02118BC607EFBEAAA104D6B2009720C7B130F24BA418689C4B DUP3 DUP1 LOG2 PUSH2 0xED5 JUMP JUMPDEST PUSH2 0x1087 SWAP2 POP DUP3 RETURNDATASIZE DUP5 GT PUSH2 0xADA JUMPI PUSH2 0xACC DUP2 DUP4 PUSH2 0x3488 JUMP JUMPDEST CODESIZE PUSH2 0xF7C JUMP JUMPDEST PUSH1 0x40 MLOAD PUSH3 0xD84C0F PUSH1 0xE4 SHL DUP2 MSTORE PUSH1 0x4 SWAP1 REVERT JUMPDEST POP PUSH1 0x1 SLOAD PUSH1 0x40 MLOAD PUSH4 0x2CC52B15 PUSH1 0xE1 SHL DUP2 MSTORE CALLER PUSH1 0x4 DUP3 ADD MSTORE SWAP1 PUSH1 0x20 SWAP1 DUP3 SWAP1 PUSH1 0x24 SWAP1 DUP3 SWAP1 PUSH1 0x1 PUSH1 0x1 PUSH1 0xA0 SHL SUB AND GAS STATICCALL SWAP1 DUP2 ISZERO PUSH2 0x10FE JUMPI DUP4 SWAP2 PUSH2 0x10E0 JUMPI JUMPDEST POP ISZERO PUSH2 0xF07 JUMP JUMPDEST PUSH2 0x10F8 SWAP2 POP PUSH1 0x20 RETURNDATASIZE DUP2 GT PUSH2 0xADA JUMPI PUSH2 0xACC DUP2 DUP4 PUSH2 0x3488 JUMP JUMPDEST CODESIZE PUSH2 0x10D9 JUMP JUMPDEST PUSH1 0x40 MLOAD RETURNDATASIZE DUP6 DUP3 RETURNDATACOPY RETURNDATASIZE SWAP1 REVERT JUMPDEST POP CALLVALUE PUSH2 0xDEE JUMPI PUSH1 0x20 CALLDATASIZE PUSH1 0x3 NOT ADD SLT PUSH2 0xDEE JUMPI PUSH2 0x1123 PUSH2 0x2F9B JUMP JUMPDEST PUSH1 0x1 SLOAD PUSH1 0x40 MLOAD PUSH4 0xC269014B PUSH1 0xE0 SHL DUP2 MSTORE PUSH1 0x1 PUSH1 0x1 PUSH1 0xA0 SHL SUB SWAP3 DUP4 AND PUSH1 0x4 DUP3 ADD MSTORE SWAP2 PUSH1 0x20 SWAP2 DUP4 SWAP2 PUSH1 0x24 SWAP2 DUP4 SWAP2 AND GAS STATICCALL SWAP1 DUP2 ISZERO PUSH2 0x9FD JUMPI PUSH1 0x20 SWAP3 SWAP2 PUSH2 0x1170 JUMPI JUMPDEST POP PUSH4 0xFFFFFFFF PUSH1 0x40 MLOAD SWAP2 AND DUP2 MSTORE RETURN JUMPDEST PUSH2 0x1187 SWAP2 POP DUP3 RETURNDATASIZE DUP2 GT PUSH2 0xC11 JUMPI PUSH2 0xC03 DUP2 DUP4 PUSH2 0x3488 JUMP JUMPDEST CODESIZE PUSH2 0x1161 JUMP JUMPDEST POP CALLVALUE PUSH2 0xDEE JUMPI PUSH1 0x20 CALLDATASIZE PUSH1 0x3 NOT ADD SLT PUSH2 0xDEE JUMPI PUSH1 0x4 CALLDATALOAD SWAP1 PUSH1 0x2 SLOAD DUP3 LT ISZERO PUSH2 0xDEE JUMPI PUSH1 0x80 PUSH2 0x11B8 DUP4 PUSH2 0x3207 JUMP JUMPDEST POP DUP1 SLOAD SWAP1 PUSH1 0x1 DUP1 PUSH1 0xA0 SHL SUB PUSH1 0x1 DUP3 ADD SLOAD AND SWAP1 PUSH1 0xFF PUSH1 0x3 PUSH1 0x2 DUP4 ADD SLOAD SWAP3 ADD SLOAD AND SWAP2 PUSH1 0x40 MLOAD SWAP4 DUP5 MSTORE PUSH1 0x20 DUP5 ADD MSTORE PUSH1 0x40 DUP4 ADD MSTORE ISZERO ISZERO PUSH1 0x60 DUP3 ADD MSTORE RETURN JUMPDEST POP CALLVALUE PUSH2 0xDEE JUMPI PUSH1 0x20 CALLDATASIZE PUSH1 0x3 NOT ADD SLT PUSH2 0xDEE JUMPI PUSH1 0x20 SWAP1 PUSH1 0x40 SWAP1 PUSH1 0x1 PUSH1 0x1 PUSH1 0xA0 SHL SUB PUSH2 0x1219 PUSH2 0x2F9B JUMP JUMPDEST AND DUP2 MSTORE PUSH1 0x7 DUP4 MSTORE KECCAK256 SLOAD PUSH1 0x40 MLOAD SWAP1 DUP2 MSTORE RETURN JUMPDEST POP CALLVALUE PUSH2 0xDEE JUMPI PUSH1 0x40 CALLDATASIZE PUSH1 0x3 NOT ADD SLT PUSH2 0xDEE JUMPI PUSH2 0x1244 PUSH2 0x2FB1 JUMP JUMPDEST PUSH1 0x4 CALLDATALOAD DUP3 MSTORE PUSH1 0x12 PUSH1 0x20 MSTORE PUSH1 0x40 DUP3 KECCAK256 DUP1 SLOAD PUSH1 0x1 PUSH1 0x1 PUSH1 0xA0 SHL SUB SWAP3 DUP4 AND SWAP3 AND SWAP2 SWAP1 SWAP2 EQ SWAP1 DUP2 PUSH2 0x1298 JUMPI JUMPDEST PUSH1 0x20 SWAP3 POP DUP2 PUSH2 0x1281 JUMPI JUMPDEST POP PUSH1 0x40 MLOAD SWAP1 ISZERO ISZERO DUP2 MSTORE RETURN JUMPDEST PUSH4 0xFFFFFFFF SWAP2 POP PUSH1 0x2 ADD SLOAD PUSH1 0x28 SHR AND ISZERO ISZERO CODESIZE PUSH2 0x1276 JUMP JUMPDEST SWAP1 POP PUSH1 0xFF PUSH1 0x2 DUP3 ADD SLOAD AND PUSH1 0x3 DUP2 LT ISZERO PUSH2 0x12B6 JUMPI PUSH1 0x20 SWAP3 POP ISZERO SWAP1 PUSH2 0x126C JUMP JUMPDEST PUSH4 0x4E487B71 PUSH1 0xE0 SHL DUP4 MSTORE PUSH1 0x21 PUSH1 0x4 MSTORE PUSH1 0x24 DUP4 REVERT JUMPDEST POP CALLVALUE PUSH2 0xDEE JUMPI DUP1 PUSH1 0x3 NOT CALLDATASIZE ADD SLT PUSH2 0xDEE JUMPI PUSH1 0x40 MLOAD PUSH32 0x0 PUSH1 0x1 PUSH1 0x1 PUSH1 0xA0 SHL SUB AND DUP2 MSTORE PUSH1 0x20 SWAP1 RETURN JUMPDEST POP CALLVALUE PUSH2 0xDEE JUMPI PUSH1 0x20 CALLDATASIZE PUSH1 0x3 NOT ADD SLT PUSH2 0xDEE JUMPI PUSH1 0x20 PUSH2 0x132E PUSH1 0x4 CALLDATALOAD PUSH2 0x34C2 JUMP JUMPDEST PUSH1 0x40 MLOAD SWAP1 ISZERO ISZERO DUP2 MSTORE RETURN JUMPDEST POP CALLVALUE PUSH2 0xDEE JUMPI PUSH1 0x40 CALLDATASIZE PUSH1 0x3 NOT ADD SLT PUSH2 0xDEE JUMPI PUSH2 0x1352 PUSH2 0x2F9B JUMP JUMPDEST PUSH1 0x1 PUSH1 0x1 PUSH1 0xA0 SHL SUB AND DUP2 MSTORE PUSH1 0xE PUSH1 0x20 MSTORE PUSH1 0x40 DUP2 KECCAK256 DUP1 SLOAD PUSH1 0x24 CALLDATALOAD SWAP3 SWAP1 DUP4 LT ISZERO PUSH2 0xDEE JUMPI PUSH1 0x20 PUSH2 0x1380 DUP5 DUP5 PUSH2 0x31EF JUMP JUMPDEST SWAP1 SLOAD PUSH1 0x40 MLOAD SWAP2 PUSH1 0x3 SHL SHR DUP2 MSTORE RETURN JUMPDEST POP CALLVALUE PUSH2 0xDEE JUMPI PUSH1 0x40 CALLDATASIZE PUSH1 0x3 NOT ADD SLT PUSH2 0xDEE JUMPI PUSH1 0x20 SWAP1 PUSH2 0x13AB PUSH2 0x2F9B JUMP JUMPDEST SWAP1 PUSH1 0x24 CALLDATALOAD SWAP2 DUP3 ISZERO ISZERO SWAP3 DUP4 PUSH2 0x1456 JUMPI JUMPDEST POP DUP3 PUSH2 0x141B JUMPI JUMPDEST DUP3 PUSH2 0x13D3 JUMPI JUMPDEST POP POP PUSH1 0x40 MLOAD SWAP1 ISZERO ISZERO DUP2 MSTORE RETURN JUMPDEST PUSH1 0x1 PUSH1 0x1 PUSH1 0xA0 SHL SUB AND DUP1 DUP3 MSTORE PUSH1 0x8 DUP5 MSTORE PUSH1 0x40 DUP3 KECCAK256 SLOAD SWAP1 SWAP3 POP PUSH2 0x13F4 SWAP1 PUSH2 0x3241 JUMP JUMPDEST TIMESTAMP GT SWAP2 DUP3 ISZERO PUSH2 0x1407 JUMPI JUMPDEST POP POP CODESIZE DUP1 PUSH2 0x13C7 JUMP JUMPDEST PUSH1 0x40 SWAP3 POP DUP2 MSTORE PUSH1 0x7 DUP4 MSTORE KECCAK256 SLOAD ISZERO CODESIZE DUP1 PUSH2 0x13FE JUMP JUMPDEST PUSH1 0x1 PUSH1 0x1 PUSH1 0xA0 SHL SUB DUP2 AND DUP3 MSTORE PUSH1 0x6 DUP5 MSTORE PUSH1 0x40 DUP3 KECCAK256 SLOAD SWAP1 SWAP3 POP PUSH3 0xF4240 GT DUP1 ISZERO SWAP1 PUSH2 0x1446 JUMPI JUMPDEST SWAP2 PUSH2 0x13C1 JUMP JUMPDEST POP PUSH1 0x7 DUP4 MSTORE PUSH1 0x40 DUP2 KECCAK256 SLOAD ISZERO PUSH2 0x1440 JUMP JUMPDEST PUSH1 0xB SLOAD LT ISZERO SWAP3 POP CODESIZE PUSH2 0x13BA JUMP JUMPDEST PUSH2 0x314A JUMP JUMPDEST POP CALLVALUE PUSH2 0xDEE JUMPI PUSH1 0x20 CALLDATASIZE PUSH1 0x3 NOT ADD SLT PUSH2 0xDEE JUMPI PUSH2 0x14C9 SWAP1 PUSH2 0x14AE SWAP1 PUSH2 0x14B5 SWAP1 PUSH1 0x40 SWAP1 PUSH1 0x1 PUSH1 0x1 PUSH1 0xA0 SHL SUB PUSH2 0x1499 PUSH2 0x2F9B JUMP JUMPDEST AND DUP2 MSTORE PUSH1 0xE PUSH1 0x20 MSTORE KECCAK256 PUSH1 0x40 MLOAD SWAP3 DUP4 DUP1 SWAP3 PUSH2 0x36F5 JUMP JUMPDEST SUB DUP3 PUSH2 0x3488 JUMP JUMPDEST PUSH1 0x40 MLOAD SWAP2 DUP3 SWAP2 PUSH1 0x20 DUP4 MSTORE PUSH1 0x20 DUP4 ADD SWAP1 PUSH2 0x2FEA JUMP JUMPDEST SUB SWAP1 RETURN JUMPDEST POP CALLVALUE PUSH2 0xDEE JUMPI PUSH1 0x60 CALLDATASIZE PUSH1 0x3 NOT ADD SLT PUSH2 0xDEE JUMPI PUSH4 0xFFFFFFFF PUSH2 0x14EC PUSH2 0x30BC JUMP JUMPDEST AND DUP1 ISZERO DUP1 ISZERO PUSH2 0x1C7C JUMPI JUMPDEST PUSH2 0xD71 JUMPI PUSH1 0x4 CALLDATALOAD DUP3 MSTORE PUSH1 0x12 PUSH1 0x20 MSTORE PUSH1 0x40 DUP3 KECCAK256 CALLER DUP4 MSTORE PUSH1 0x7 PUSH1 0x20 MSTORE PUSH1 0x40 DUP4 KECCAK256 SLOAD ISZERO PUSH2 0x1C56 JUMPI DUP1 SLOAD CALLER PUSH1 0x1 PUSH1 0x1 PUSH1 0xA0 SHL SUB SWAP1 SWAP2 AND SUB PUSH2 0x1C56 JUMPI PUSH1 0x2 ADD SLOAD PUSH1 0xFF DUP2 AND PUSH1 0x3 DUP2 LT ISZERO PUSH2 0x1C68 JUMPI PUSH2 0x1C56 JUMPI PUSH1 0x28 SHR PUSH4 0xFFFFFFFF AND ISZERO PUSH2 0x1C56 JUMPI PUSH2 0x1558 PUSH2 0x33CF JUMP JUMPDEST PUSH1 0x24 CALLDATALOAD ISZERO PUSH2 0x108D JUMPI PUSH1 0x4 CALLDATALOAD DUP3 MSTORE PUSH1 0x12 PUSH1 0x20 MSTORE PUSH1 0x40 DUP3 KECCAK256 PUSH2 0x1597 PUSH2 0x158E PUSH1 0x2 DUP4 ADD SLOAD PUSH4 0xFFFFFFFF DUP1 DUP3 PUSH1 0x28 SHR AND SWAP2 PUSH1 0x8 SHR AND PUSH2 0x3586 JUMP JUMPDEST PUSH1 0x4 DUP4 ADD PUSH2 0x31EF JUMP JUMPDEST SWAP1 SLOAD SWAP1 PUSH1 0x3 SHL SHR PUSH1 0x4 CALLDATALOAD DUP5 MSTORE PUSH1 0x3 PUSH1 0x20 MSTORE DUP4 PUSH2 0x15B6 PUSH1 0x40 DUP3 KECCAK256 SLOAD PUSH2 0x3207 JUMP JUMPDEST POP SWAP4 DUP3 TIMESTAMP GT PUSH1 0x0 EQ PUSH2 0x1B5E JUMPI PUSH1 0x1 SLOAD PUSH1 0x40 MLOAD PUSH4 0xA5118BF1 PUSH1 0xE0 SHL DUP2 MSTORE PUSH1 0x1 PUSH1 0x1 PUSH1 0xA0 SHL SUB SWAP1 SWAP2 AND SWAP2 SWAP1 PUSH1 0x20 DUP2 PUSH1 0x4 DUP2 DUP7 GAS STATICCALL SWAP1 DUP2 ISZERO PUSH2 0xDE3 JUMPI DUP5 SWAP2 PUSH2 0x1B3F JUMPI JUMPDEST POP DUP3 EXTCODESIZE ISZERO PUSH2 0xA08 JUMPI PUSH1 0x64 DUP5 SWAP3 DUP4 PUSH1 0x40 MLOAD SWAP6 DUP7 SWAP5 DUP6 SWAP4 PUSH4 0x533DFA35 PUSH1 0xE0 SHL DUP6 MSTORE PUSH1 0x4 DUP6 ADD MSTORE PUSH1 0x3 SIGNEXTEND PUSH1 0x24 DUP5 ADD MSTORE DUP2 PUSH1 0x44 DUP5 ADD MSTORE GAS CALL DUP1 ISZERO PUSH2 0x9FD JUMPI PUSH2 0x1B2B JUMPI JUMPDEST POP POP PUSH1 0x3 DUP4 ADD DUP1 SLOAD PUSH1 0xFF DUP2 AND ISZERO PUSH2 0x1AE9 JUMPI JUMPDEST POP POP POP JUMPDEST PUSH1 0x3 DUP2 ADD SLOAD PUSH1 0x24 CALLDATALOAD SUB PUSH2 0x108D JUMPI PUSH1 0x40 MLOAD PUSH4 0x23B872DD PUSH1 0xE0 SHL DUP2 MSTORE CALLER PUSH1 0x4 DUP3 ADD MSTORE ADDRESS PUSH1 0x24 DUP1 DUP4 ADD SWAP2 SWAP1 SWAP2 MSTORE CALLDATALOAD PUSH1 0x44 DUP3 ADD MSTORE PUSH1 0x20 DUP2 PUSH1 0x64 DUP2 DUP8 PUSH1 0x1 PUSH1 0x1 PUSH1 0xA0 SHL SUB PUSH32 0x0 AND GAS CALL SWAP1 DUP2 ISZERO PUSH2 0xDE3 JUMPI DUP5 SWAP2 PUSH2 0x1ACA JUMPI JUMPDEST POP ISZERO PUSH2 0xAA0 JUMPI CALLER DUP4 MSTORE PUSH1 0x7 PUSH1 0x20 MSTORE PUSH1 0x40 DUP4 KECCAK256 PUSH2 0x16DB PUSH1 0x24 CALLDATALOAD DUP3 SLOAD PUSH2 0x3563 JUMP JUMPDEST SWAP1 SSTORE PUSH2 0x16EB PUSH1 0x24 CALLDATALOAD PUSH1 0xA SLOAD PUSH2 0x3563 JUMP JUMPDEST PUSH1 0xA SSTORE PUSH2 0x16FC PUSH1 0x24 CALLDATALOAD PUSH1 0xB SLOAD PUSH2 0x3251 JUMP JUMPDEST PUSH1 0xB SSTORE PUSH1 0x4 CALLDATALOAD DUP4 MSTORE PUSH1 0xC PUSH1 0x20 MSTORE PUSH1 0x40 DUP4 KECCAK256 SWAP1 PUSH1 0x2 DUP3 ADD SLOAD SWAP1 DUP5 JUMPDEST PUSH1 0x5 DUP5 ADD SLOAD DUP2 LT ISZERO PUSH2 0x17F1 JUMPI DUP1 PUSH2 0x1733 PUSH2 0x1774 SWAP3 PUSH1 0x5 DUP8 ADD PUSH2 0x31EF JUMP JUMPDEST PUSH1 0x1 DUP1 PUSH1 0xA0 SHL SUB SWAP2 SLOAD SWAP1 PUSH1 0x3 SHL SHR AND DUP1 PUSH1 0x0 MSTORE PUSH1 0x6 DUP7 ADD PUSH1 0x20 MSTORE PUSH2 0x1767 DUP6 PUSH2 0x1762 PUSH1 0x40 PUSH1 0x0 KECCAK256 SLOAD PUSH1 0x24 CALLDATALOAD PUSH2 0x3660 JUMP JUMPDEST PUSH2 0x3673 JUMP JUMPDEST DUP1 PUSH2 0x1779 JUMPI JUMPDEST POP POP PUSH2 0x325E JUMP JUMPDEST PUSH2 0x1716 JUMP JUMPDEST DUP2 DUP10 MSTORE PUSH1 0xF PUSH1 0x20 MSTORE PUSH1 0x40 DUP10 KECCAK256 DUP1 SLOAD DUP1 DUP4 GT PUSH2 0x17E9 JUMPI JUMPDEST DUP3 PUSH2 0x1799 SWAP2 PUSH2 0x3563 JUMP JUMPDEST SWAP1 SSTORE DUP2 DUP10 MSTORE PUSH1 0x6 PUSH1 0x20 MSTORE PUSH1 0x40 DUP10 KECCAK256 PUSH2 0x17B2 DUP3 DUP3 SLOAD PUSH2 0x3251 JUMP JUMPDEST SWAP1 SSTORE PUSH1 0x40 MLOAD SWAP1 DUP2 MSTORE PUSH32 0xE3E6AE1E05F069D410556743894AACBB190C1431962422EBE8FCC642A467DD16 PUSH1 0x20 PUSH1 0x4 CALLDATALOAD SWAP3 LOG3 CODESIZE DUP1 PUSH2 0x176D JUMP JUMPDEST SWAP2 POP DUP2 PUSH2 0x178F JUMP JUMPDEST DUP6 DUP3 DUP7 PUSH2 0x1835 PUSH2 0x180D PUSH4 0xFFFFFFFF PUSH1 0x2 DUP6 ADD SLOAD PUSH1 0x28 SHR AND PUSH2 0x3570 JUMP JUMPDEST PUSH1 0x2 DUP5 ADD SWAP1 PUSH9 0xFFFFFFFF0000000000 DUP3 SLOAD SWAP2 PUSH1 0x28 SHL AND SWAP1 PUSH9 0xFFFFFFFF0000000000 NOT AND OR SWAP1 SSTORE JUMP JUMPDEST PUSH1 0x2 DUP3 ADD SLOAD PUSH4 0xFFFFFFFF DUP2 PUSH1 0x28 SHR AND SWAP1 DUP2 ISZERO PUSH1 0x0 EQ PUSH2 0x1A8C JUMPI POP POP POP PUSH1 0x2 PUSH1 0xFF NOT DUP2 DUP4 ADD SLOAD AND OR PUSH1 0x2 DUP3 ADD SSTORE PUSH1 0x4 CALLDATALOAD PUSH32 0x2CA5489B37DD363D1302BAC719E8EE40E540FFBE8C12253570FEA63E11CAD71 DUP4 DUP1 LOG2 PUSH1 0x4 CALLDATALOAD DUP3 MSTORE PUSH1 0x3 PUSH1 0x20 MSTORE PUSH1 0x40 DUP3 KECCAK256 SLOAD PUSH1 0x2 SLOAD PUSH1 0x0 NOT SWAP2 SWAP1 DUP3 DUP2 ADD SWAP1 DUP2 GT PUSH2 0xA0C JUMPI DUP1 DUP3 SUB PUSH2 0x19E9 JUMPI JUMPDEST POP POP PUSH1 0x2 SLOAD DUP1 ISZERO PUSH2 0x19D5 JUMPI ADD PUSH2 0x18C6 DUP2 PUSH2 0x3207 JUMP JUMPDEST PUSH2 0x19C1 JUMPI SWAP2 PUSH1 0x2 SWAP2 DUP5 PUSH1 0x3 DUP6 PUSH1 0x0 PUSH4 0xFFFFFFFF SWAP8 SSTORE DUP3 PUSH1 0x1 DUP3 ADD SSTORE PUSH1 0x0 DUP7 DUP3 ADD SSTORE ADD SSTORE DUP3 SSTORE PUSH1 0x4 CALLDATALOAD DUP5 MSTORE PUSH1 0x3 PUSH1 0x20 MSTORE PUSH1 0x0 PUSH1 0x40 DUP6 KECCAK256 SSTORE JUMPDEST CALLER DUP5 MSTORE PUSH1 0x7 PUSH1 0x20 MSTORE PUSH1 0x40 DUP5 KECCAK256 SLOAD PUSH1 0x40 MLOAD SWAP1 PUSH1 0x24 CALLDATALOAD DUP3 MSTORE PUSH1 0x20 DUP3 ADD MSTORE PUSH32 0x1B8CD61ED43BEC7C6BDAD3A18FFEE613F99C853D16C50678D248D879E1B43438 PUSH1 0x40 CALLER SWAP3 LOG2 ADD SLOAD PUSH1 0x28 SHR AND PUSH1 0x40 MLOAD SWAP1 DUP2 MSTORE PUSH32 0x406356EF25520B09E2EF87C5225167B4161EA4AB691E9434D6EE29EAFCC83FC2 PUSH1 0x20 PUSH1 0x4 CALLDATALOAD SWAP3 LOG2 PUSH32 0x17F13FD3F7C4712AF33F1770EBCB822DD20A2DBC00850EAB48D786623D97B959 PUSH1 0x20 PUSH1 0xA SLOAD PUSH1 0x40 MLOAD SWAP1 DUP2 MSTORE LOG1 PUSH1 0x0 DUP1 MLOAD PUSH1 0x20 PUSH2 0x38C8 DUP4 CODECOPY DUP2 MLOAD SWAP2 MSTORE PUSH1 0x20 PUSH1 0xB SLOAD PUSH1 0x40 MLOAD SWAP1 DUP2 MSTORE LOG1 PUSH1 0x1 DUP2 SSTORE DUP1 RETURN JUMPDEST PUSH4 0x4E487B71 PUSH1 0xE0 SHL DUP5 MSTORE PUSH1 0x4 DUP5 SWAP1 MSTORE PUSH1 0x24 DUP5 REVERT JUMPDEST PUSH4 0x4E487B71 PUSH1 0xE0 SHL DUP5 MSTORE PUSH1 0x31 PUSH1 0x4 MSTORE PUSH1 0x24 DUP5 REVERT JUMPDEST PUSH2 0x19F2 SWAP1 PUSH2 0x3207 JUMP JUMPDEST POP PUSH2 0x19FC DUP3 PUSH2 0x3207 JUMP JUMPDEST PUSH2 0x1A78 JUMPI DUP2 DUP2 SUB PUSH2 0x1A1D JUMPI JUMPDEST POP SLOAD DUP5 MSTORE PUSH1 0x3 PUSH1 0x20 MSTORE PUSH1 0x40 DUP5 KECCAK256 SSTORE DUP4 DUP1 PUSH2 0x18B1 JUMP JUMPDEST PUSH2 0x1A72 SWAP1 DUP3 SLOAD DUP2 SSTORE PUSH1 0x1 DUP2 ADD PUSH1 0x1 DUP1 PUSH1 0xA0 SHL SUB PUSH1 0x1 DUP6 ADD SLOAD AND PUSH12 0xFFFFFFFFFFFFFFFFFFFFFFFF PUSH1 0xA0 SHL DUP3 SLOAD AND OR SWAP1 SSTORE PUSH1 0x2 DUP4 ADD SLOAD PUSH1 0x2 DUP3 ADD SSTORE PUSH1 0x3 PUSH1 0xFF DUP2 DUP6 ADD SLOAD AND SWAP2 ADD SWAP1 PUSH1 0xFF DUP1 NOT DUP4 SLOAD AND SWAP2 ISZERO ISZERO AND OR SWAP1 SSTORE JUMP JUMPDEST DUP6 PUSH2 0x1A08 JUMP JUMPDEST PUSH4 0x4E487B71 PUSH1 0xE0 SHL DUP7 MSTORE PUSH1 0x4 DUP7 SWAP1 MSTORE PUSH1 0x24 DUP7 REVERT JUMPDEST PUSH1 0x2 SWAP3 PUSH2 0x1AB2 PUSH2 0x1AA9 PUSH4 0xFFFFFFFF SWAP7 SWAP5 DUP8 PUSH1 0x3 SWAP6 PUSH1 0x8 SHR AND PUSH2 0x3586 JUMP JUMPDEST PUSH1 0x4 DUP6 ADD PUSH2 0x31EF JUMP JUMPDEST SWAP1 SLOAD SWAP1 DUP4 SHL SHR DUP2 DUP6 ADD SSTORE ADD DUP1 SLOAD PUSH1 0xFF NOT AND SWAP1 SSTORE PUSH2 0x18FD JUMP JUMPDEST PUSH2 0x1AE3 SWAP2 POP PUSH1 0x20 RETURNDATASIZE PUSH1 0x20 GT PUSH2 0xADA JUMPI PUSH2 0xACC DUP2 DUP4 PUSH2 0x3488 JUMP JUMPDEST CODESIZE PUSH2 0x16BC JUMP JUMPDEST PUSH1 0x1 SWAP1 PUSH1 0xFF NOT AND OR SWAP1 SSTORE PUSH1 0x40 MLOAD SWAP1 DUP2 MSTORE CALLER SWAP1 PUSH32 0xCF08CFD581AE48E3E5053C3DDAD657750A872D827972A57CA253B1AB4748B0BC PUSH1 0x20 PUSH1 0x4 CALLDATALOAD SWAP3 LOG3 CODESIZE DUP1 DUP1 PUSH2 0x1647 JUMP JUMPDEST PUSH2 0x1B34 SWAP1 PUSH2 0x3458 JUMP JUMPDEST PUSH2 0xA08 JUMPI DUP4 CODESIZE PUSH2 0x1635 JUMP JUMPDEST PUSH2 0x1B58 SWAP2 POP PUSH1 0x20 RETURNDATASIZE PUSH1 0x20 GT PUSH2 0xA50 JUMPI PUSH2 0xA41 DUP2 DUP4 PUSH2 0x3488 JUMP JUMPDEST CODESIZE PUSH2 0x15F6 JUMP JUMPDEST PUSH1 0x1 SLOAD PUSH1 0x40 MLOAD PUSH4 0x4E5ECF13 PUSH1 0xE0 SHL DUP2 MSTORE SWAP3 SWAP4 POP PUSH1 0x1 PUSH1 0x1 PUSH1 0xA0 SHL SUB AND SWAP2 PUSH1 0x20 DUP2 PUSH1 0x4 DUP2 DUP7 GAS STATICCALL SWAP1 DUP2 ISZERO PUSH2 0xDE3 JUMPI DUP5 SWAP2 PUSH2 0x1C37 JUMPI JUMPDEST POP DUP3 EXTCODESIZE ISZERO PUSH2 0xA08 JUMPI PUSH1 0x64 DUP5 SWAP3 DUP4 PUSH1 0x40 MLOAD SWAP6 DUP7 SWAP5 DUP6 SWAP4 PUSH4 0x533DFA35 PUSH1 0xE0 SHL DUP6 MSTORE PUSH1 0x4 DUP6 ADD MSTORE PUSH1 0x3 SIGNEXTEND PUSH1 0x24 DUP5 ADD MSTORE PUSH1 0x1 PUSH1 0x44 DUP5 ADD MSTORE GAS CALL DUP1 ISZERO PUSH2 0x9FD JUMPI PUSH2 0x1C1F JUMPI JUMPDEST POP POP PUSH1 0x3 DUP3 ADD DUP1 SLOAD PUSH1 0xFF DUP2 AND PUSH2 0x1BEA JUMPI JUMPDEST POP POP PUSH2 0x164B JUMP JUMPDEST PUSH1 0xFF NOT AND SWAP1 SSTORE CALLER PUSH1 0x4 CALLDATALOAD PUSH32 0xEDC092CCDF255FA12DEEE6517DD8E7F4E52F4194EF2112A5351A691C8DAACC74 DUP6 DUP1 LOG3 CODESIZE DUP1 PUSH2 0x1BE3 JUMP JUMPDEST PUSH2 0x1C28 SWAP1 PUSH2 0x3458 JUMP JUMPDEST PUSH2 0x1C33 JUMPI DUP3 CODESIZE PUSH2 0x1BD2 JUMP JUMPDEST DUP3 DUP1 REVERT JUMPDEST PUSH2 0x1C50 SWAP2 POP PUSH1 0x20 RETURNDATASIZE PUSH1 0x20 GT PUSH2 0xA50 JUMPI PUSH2 0xA41 DUP2 DUP4 PUSH2 0x3488 JUMP JUMPDEST CODESIZE PUSH2 0x1B92 JUMP JUMPDEST PUSH1 0x40 MLOAD PUSH4 0xC4967CF3 PUSH1 0xE0 SHL DUP2 MSTORE PUSH1 0x4 SWAP1 REVERT JUMPDEST PUSH4 0x4E487B71 PUSH1 0xE0 SHL DUP5 MSTORE PUSH1 0x21 PUSH1 0x4 MSTORE PUSH1 0x24 DUP5 REVERT JUMPDEST POP PUSH1 0x1 SLOAD PUSH1 0x40 MLOAD PUSH4 0x2CC52B15 PUSH1 0xE1 SHL DUP2 MSTORE CALLER PUSH1 0x4 DUP3 ADD MSTORE SWAP1 PUSH1 0x20 SWAP1 DUP3 SWAP1 PUSH1 0x24 SWAP1 DUP3 SWAP1 PUSH1 0x1 PUSH1 0x1 PUSH1 0xA0 SHL SUB AND GAS STATICCALL SWAP1 DUP2 ISZERO PUSH2 0x10FE JUMPI DUP4 SWAP2 PUSH2 0x1CBE JUMPI JUMPDEST POP ISZERO PUSH2 0x14F6 JUMP JUMPDEST PUSH2 0x1CD6 SWAP2 POP PUSH1 0x20 RETURNDATASIZE DUP2 GT PUSH2 0xADA JUMPI PUSH2 0xACC DUP2 DUP4 PUSH2 0x3488 JUMP JUMPDEST CODESIZE PUSH2 0x1CB7 JUMP JUMPDEST POP CALLVALUE PUSH2 0xDEE JUMPI PUSH1 0x20 CALLDATASIZE PUSH1 0x3 NOT ADD SLT PUSH2 0xDEE JUMPI PUSH2 0x1D0A PUSH1 0x5 PUSH1 0x40 PUSH2 0x14C9 SWAP4 PUSH1 0x4 CALLDATALOAD DUP2 MSTORE PUSH1 0xC PUSH1 0x20 MSTORE KECCAK256 ADD PUSH2 0x386F JUMP JUMPDEST PUSH1 0x40 MLOAD SWAP2 DUP3 SWAP2 PUSH1 0x20 DUP4 MSTORE PUSH1 0x20 DUP4 ADD SWAP1 PUSH2 0x30EF JUMP JUMPDEST POP CALLVALUE PUSH2 0xDEE JUMPI DUP1 PUSH1 0x3 NOT CALLDATASIZE ADD SLT PUSH2 0xDEE JUMPI PUSH1 0x20 PUSH1 0xD SLOAD PUSH1 0x40 MLOAD SWAP1 DUP2 MSTORE RETURN JUMPDEST POP CALLVALUE PUSH2 0xDEE JUMPI PUSH1 0x20 CALLDATASIZE PUSH1 0x3 NOT ADD SLT PUSH2 0xDEE JUMPI PUSH1 0x20 PUSH2 0x1D60 PUSH2 0x1D5B PUSH2 0x2F9B JUMP JUMPDEST PUSH2 0x35C2 JUMP JUMPDEST PUSH1 0x40 MLOAD SWAP1 DUP2 MSTORE RETURN JUMPDEST POP CALLVALUE PUSH2 0xDEE JUMPI PUSH1 0x20 CALLDATASIZE PUSH1 0x3 NOT ADD SLT PUSH2 0xDEE JUMPI PUSH1 0x20 SWAP1 PUSH1 0x40 SWAP1 PUSH1 0x1 PUSH1 0x1 PUSH1 0xA0 SHL SUB PUSH2 0x1D90 PUSH2 0x2F9B JUMP JUMPDEST AND DUP2 MSTORE PUSH1 0xF DUP4 MSTORE KECCAK256 SLOAD PUSH1 0x40 MLOAD SWAP1 DUP2 MSTORE RETURN JUMPDEST POP CALLVALUE PUSH2 0xDEE JUMPI PUSH1 0x20 CALLDATASIZE PUSH1 0x3 NOT ADD SLT PUSH2 0xDEE JUMPI PUSH2 0x1DBB PUSH2 0x30CF JUMP JUMPDEST PUSH1 0x1 SLOAD PUSH1 0x40 MLOAD PUSH4 0x2076C8A1 PUSH1 0xE2 SHL DUP2 MSTORE PUSH4 0xFFFFFFFF SWAP3 SWAP1 SWAP3 AND PUSH1 0x4 DUP4 ADD MSTORE PUSH1 0x20 SWAP1 DUP3 SWAP1 PUSH1 0x24 SWAP1 DUP3 SWAP1 PUSH1 0x1 PUSH1 0x1 PUSH1 0xA0 SHL SUB AND GAS STATICCALL SWAP1 DUP2 ISZERO PUSH2 0x9FD JUMPI PUSH1 0x20 SWAP3 SWAP2 PUSH2 0x1E0A JUMPI JUMPDEST POP PUSH1 0x40 MLOAD SWAP1 PUSH1 0x3 SIGNEXTEND DUP2 MSTORE RETURN JUMPDEST PUSH2 0x1E21 SWAP2 POP DUP3 RETURNDATASIZE DUP2 GT PUSH2 0xA50 JUMPI PUSH2 0xA41 DUP2 DUP4 PUSH2 0x3488 JUMP JUMPDEST CODESIZE PUSH2 0x1DFE JUMP JUMPDEST PUSH2 0x312C JUMP JUMPDEST POP CALLVALUE PUSH2 0xDEE JUMPI PUSH1 0x20 CALLDATASIZE PUSH1 0x3 NOT ADD SLT PUSH2 0xDEE JUMPI PUSH2 0x14AE PUSH2 0x14B5 PUSH1 0x4 PUSH1 0x40 PUSH2 0x14C9 SWAP5 DUP3 CALLDATALOAD DUP2 MSTORE PUSH1 0x12 PUSH1 0x20 MSTORE KECCAK256 ADD PUSH1 0x40 MLOAD SWAP3 DUP4 DUP1 SWAP3 PUSH2 0x36F5 JUMP JUMPDEST POP CALLVALUE PUSH2 0xDEE JUMPI DUP1 PUSH1 0x3 NOT CALLDATASIZE ADD SLT PUSH2 0xDEE JUMPI PUSH1 0x20 PUSH1 0x9 SLOAD PUSH1 0x40 MLOAD SWAP1 DUP2 MSTORE RETURN JUMPDEST POP CALLVALUE PUSH2 0xDEE JUMPI DUP1 PUSH1 0x3 NOT CALLDATASIZE ADD SLT PUSH2 0xDEE JUMPI PUSH1 0x20 PUSH1 0x40 MLOAD PUSH3 0x13C680 DUP2 MSTORE RETURN JUMPDEST POP CALLVALUE PUSH2 0xDEE JUMPI DUP1 PUSH1 0x3 NOT CALLDATASIZE ADD SLT PUSH2 0xDEE JUMPI PUSH1 0x1 SLOAD PUSH1 0x40 MLOAD PUSH1 0x1 PUSH1 0x1 PUSH1 0xA0 SHL SUB SWAP1 SWAP2 AND DUP2 MSTORE PUSH1 0x20 SWAP1 RETURN JUMPDEST POP CALLVALUE PUSH2 0xDEE JUMPI PUSH1 0x20 CALLDATASIZE PUSH1 0x3 NOT ADD SLT PUSH2 0xDEE JUMPI PUSH1 0x20 SWAP1 PUSH1 0x40 SWAP1 PUSH1 0x1 PUSH1 0x1 PUSH1 0xA0 SHL SUB PUSH2 0x1EF0 PUSH2 0x2F9B JUMP JUMPDEST AND DUP2 MSTORE PUSH1 0x8 DUP4 MSTORE KECCAK256 SLOAD PUSH1 0x40 MLOAD SWAP1 DUP2 MSTORE RETURN JUMPDEST POP CALLVALUE PUSH2 0xDEE JUMPI PUSH1 0x20 CALLDATASIZE PUSH1 0x3 NOT ADD SLT PUSH2 0xDEE JUMPI PUSH1 0x40 PUSH2 0x1F20 PUSH1 0x4 CALLDATALOAD PUSH2 0x381E JUMP JUMPDEST DUP3 MLOAD SWAP2 DUP3 MSTORE ISZERO ISZERO PUSH1 0x20 DUP3 ADD MSTORE RETURN JUMPDEST POP CALLVALUE PUSH2 0xDEE JUMPI PUSH1 0x40 CALLDATASIZE PUSH1 0x3 NOT ADD SLT PUSH2 0xDEE JUMPI PUSH1 0x4 CALLDATALOAD PUSH4 0xFFFFFFFF PUSH2 0x1F50 PUSH2 0x30A9 JUMP JUMPDEST AND ISZERO DUP1 ISZERO PUSH2 0x20CA JUMPI JUMPDEST PUSH2 0xD71 JUMPI DUP1 ISZERO PUSH2 0x108D JUMPI PUSH2 0x1F6B PUSH2 0x33CF JUMP JUMPDEST PUSH2 0x1F74 CALLER PUSH2 0x35C2 JUMP JUMPDEST DUP2 GT PUSH2 0x20B8 JUMPI CALLER DUP3 MSTORE PUSH1 0x20 PUSH1 0x6 DUP2 MSTORE PUSH1 0x40 DUP4 KECCAK256 PUSH2 0x1F92 DUP4 DUP3 SLOAD PUSH2 0x3563 JUMP JUMPDEST SWAP1 SSTORE PUSH2 0x1FA0 DUP3 PUSH1 0x9 SLOAD PUSH2 0x3563 JUMP JUMPDEST PUSH1 0x9 SSTORE PUSH2 0x1FAF DUP3 PUSH1 0xB SLOAD PUSH2 0x3563 JUMP JUMPDEST PUSH1 0xB SSTORE PUSH1 0x40 MLOAD PUSH4 0xA9059CBB PUSH1 0xE0 SHL DUP2 MSTORE CALLER PUSH1 0x4 DUP3 ADD MSTORE PUSH1 0x24 DUP2 ADD DUP4 SWAP1 MSTORE DUP2 DUP2 PUSH1 0x44 DUP2 DUP8 PUSH1 0x1 PUSH1 0x1 PUSH1 0xA0 SHL SUB PUSH32 0x0 AND GAS CALL SWAP1 DUP2 ISZERO PUSH2 0xDE3 JUMPI DUP5 SWAP2 PUSH2 0x209B JUMPI JUMPDEST POP ISZERO PUSH2 0xAA0 JUMPI PUSH1 0x0 DUP1 MLOAD PUSH1 0x20 PUSH2 0x38C8 DUP4 CODECOPY DUP2 MLOAD SWAP2 MSTORE SWAP2 CALLER DUP5 MSTORE PUSH1 0x6 DUP3 MSTORE PUSH1 0x40 DUP5 KECCAK256 SLOAD PUSH1 0x40 MLOAD SWAP2 DUP3 MSTORE DUP3 DUP3 ADD MSTORE PUSH32 0x92CCF450A286A957AF52509BC1C9939D1A6A481783E142E41E2499F0BB66EBC6 PUSH1 0x40 CALLER SWAP3 LOG2 PUSH32 0xDC6E73D4B36E22AB95945BD8833A5AF96C950EB29D8D75C4AECFFC987637AAAB DUP2 PUSH1 0x9 SLOAD PUSH1 0x40 MLOAD SWAP1 DUP2 MSTORE LOG1 PUSH1 0xB SLOAD PUSH1 0x40 MLOAD SWAP1 DUP2 MSTORE LOG1 PUSH1 0x1 DUP2 SSTORE DUP1 RETURN JUMPDEST PUSH2 0x20B2 SWAP2 POP DUP3 RETURNDATASIZE DUP5 GT PUSH2 0xADA JUMPI PUSH2 0xACC DUP2 DUP4 PUSH2 0x3488 JUMP JUMPDEST CODESIZE PUSH2 0x200C JUMP JUMPDEST PUSH1 0x40 MLOAD PUSH4 0xDBEE9D4F PUSH1 0xE0 SHL DUP2 MSTORE PUSH1 0x4 SWAP1 REVERT JUMPDEST POP PUSH1 0x1 SLOAD PUSH1 0x40 MLOAD PUSH4 0x2CC52B15 PUSH1 0xE1 SHL DUP2 MSTORE CALLER PUSH1 0x4 DUP3 ADD MSTORE SWAP1 PUSH1 0x20 SWAP1 DUP3 SWAP1 PUSH1 0x24 SWAP1 DUP3 SWAP1 PUSH1 0x1 PUSH1 0x1 PUSH1 0xA0 SHL SUB AND GAS STATICCALL SWAP1 DUP2 ISZERO PUSH2 0x10FE JUMPI DUP4 SWAP2 PUSH2 0x210C JUMPI JUMPDEST POP ISZERO PUSH2 0x1F59 JUMP JUMPDEST PUSH2 0x2124 SWAP2 POP PUSH1 0x20 RETURNDATASIZE DUP2 GT PUSH2 0xADA JUMPI PUSH2 0xACC DUP2 DUP4 PUSH2 0x3488 JUMP JUMPDEST CODESIZE PUSH2 0x2105 JUMP JUMPDEST POP CALLVALUE PUSH2 0xDEE JUMPI PUSH1 0x20 CALLDATASIZE PUSH1 0x3 NOT ADD SLT PUSH2 0xDEE JUMPI PUSH2 0x2144 PUSH2 0x2F9B JUMP JUMPDEST PUSH1 0x1 SLOAD PUSH1 0x40 MLOAD PUSH4 0x2CC52B15 PUSH1 0xE1 SHL DUP2 MSTORE PUSH1 0x1 PUSH1 0x1 PUSH1 0xA0 SHL SUB SWAP3 DUP4 AND PUSH1 0x4 DUP3 ADD MSTORE SWAP2 PUSH1 0x20 SWAP2 DUP4 SWAP2 PUSH1 0x24 SWAP2 DUP4 SWAP2 AND GAS STATICCALL SWAP1 DUP2 ISZERO PUSH2 0x9FD JUMPI PUSH1 0x20 SWAP3 SWAP2 PUSH2 0x218C JUMPI POP PUSH1 0x40 MLOAD SWAP1 ISZERO ISZERO DUP2 MSTORE RETURN JUMPDEST PUSH2 0x21A3 SWAP2 POP DUP3 RETURNDATASIZE DUP2 GT PUSH2 0xADA JUMPI PUSH2 0xACC DUP2 DUP4 PUSH2 0x3488 JUMP JUMPDEST CODESIZE PUSH2 0x1276 JUMP JUMPDEST POP CALLVALUE PUSH2 0xDEE JUMPI DUP1 PUSH1 0x3 NOT CALLDATASIZE ADD SLT PUSH2 0xDEE JUMPI PUSH1 0x20 PUSH1 0x4 SLOAD PUSH1 0x40 MLOAD SWAP1 DUP2 MSTORE RETURN JUMPDEST POP CALLVALUE PUSH2 0xDEE JUMPI DUP1 PUSH1 0x3 NOT CALLDATASIZE ADD SLT PUSH2 0xDEE JUMPI PUSH1 0x20 PUSH1 0x5 SLOAD PUSH1 0x40 MLOAD SWAP1 DUP2 MSTORE RETURN JUMPDEST POP CALLVALUE PUSH2 0xDEE JUMPI PUSH1 0x40 CALLDATASIZE PUSH1 0x3 NOT ADD SLT PUSH2 0xDEE JUMPI PUSH1 0x6 PUSH1 0x40 PUSH2 0x2203 PUSH2 0x2FB1 JUMP JUMPDEST SWAP3 PUSH1 0x4 CALLDATALOAD DUP2 MSTORE PUSH1 0xC PUSH1 0x20 MSTORE KECCAK256 ADD SWAP1 PUSH1 0x1 DUP1 PUSH1 0xA0 SHL SUB AND PUSH1 0x0 MSTORE PUSH1 0x20 MSTORE PUSH1 0x20 PUSH1 0x40 PUSH1 0x0 KECCAK256 SLOAD PUSH1 0x40 MLOAD SWAP1 DUP2 MSTORE RETURN JUMPDEST POP CALLVALUE PUSH2 0xDEE JUMPI PUSH1 0x20 CALLDATASIZE PUSH1 0x3 NOT ADD SLT PUSH2 0xDEE JUMPI PUSH1 0x20 SWAP1 PUSH1 0x40 SWAP1 PUSH1 0x1 PUSH1 0x1 PUSH1 0xA0 SHL SUB PUSH2 0x2257 PUSH2 0x2F9B JUMP JUMPDEST AND DUP2 MSTORE PUSH1 0x6 DUP4 MSTORE KECCAK256 SLOAD PUSH1 0x40 MLOAD SWAP1 DUP2 MSTORE RETURN JUMPDEST POP CALLVALUE PUSH2 0xDEE JUMPI PUSH1 0x20 CALLDATASIZE PUSH1 0x3 NOT ADD SLT PUSH2 0xDEE JUMPI PUSH2 0x229C PUSH1 0x40 PUSH2 0x14C9 SWAP3 PUSH2 0x228B PUSH2 0x3732 JUMP JUMPDEST POP PUSH1 0x4 CALLDATALOAD DUP2 MSTORE PUSH1 0x12 PUSH1 0x20 MSTORE KECCAK256 PUSH2 0x3779 JUMP JUMPDEST PUSH1 0x40 MLOAD SWAP2 DUP3 SWAP2 PUSH1 0x20 DUP4 MSTORE PUSH1 0x20 DUP4 ADD SWAP1 PUSH2 0x301E JUMP JUMPDEST POP CALLVALUE PUSH2 0xDEE JUMPI DUP1 PUSH1 0x3 NOT CALLDATASIZE ADD SLT PUSH2 0xDEE JUMPI PUSH1 0x2 DUP1 SLOAD SWAP1 PUSH2 0x22CF DUP3 PUSH2 0x34AA JUMP JUMPDEST PUSH2 0x22DC PUSH1 0x40 MLOAD SWAP2 DUP3 PUSH2 0x3488 JUMP JUMPDEST DUP3 DUP2 MSTORE PUSH1 0x20 SWAP3 DUP4 DUP3 ADD DUP1 SWAP4 DUP1 DUP8 MSTORE PUSH32 0x405787FA12A823E0F2B7631CC41B3BA8828B3321CA811111FA75CD3AA3BB5ACE SWAP1 DUP8 SWAP3 JUMPDEST DUP5 DUP5 LT PUSH2 0x237D JUMPI POP POP POP POP POP PUSH1 0x40 MLOAD SWAP3 DUP1 DUP5 ADD SWAP2 DUP2 DUP6 MSTORE MLOAD DUP1 SWAP3 MSTORE PUSH1 0x40 DUP5 ADD SWAP3 SWAP5 JUMPDEST DUP3 DUP2 LT PUSH2 0x233E JUMPI DUP5 DUP5 SUB DUP6 RETURN JUMPDEST DUP6 MLOAD DUP1 MLOAD DUP6 MSTORE DUP1 DUP4 ADD MLOAD PUSH1 0x1 PUSH1 0x1 PUSH1 0xA0 SHL SUB AND DUP6 DUP5 ADD MSTORE PUSH1 0x40 DUP1 DUP3 ADD MLOAD SWAP1 DUP7 ADD MSTORE PUSH1 0x60 SWAP1 DUP2 ADD MLOAD ISZERO ISZERO SWAP1 DUP6 ADD MSTORE SWAP5 DUP2 ADD SWAP5 PUSH1 0x80 SWAP1 SWAP4 ADD SWAP3 PUSH1 0x1 ADD PUSH2 0x2331 JUMP JUMPDEST PUSH1 0x4 DUP9 PUSH1 0x1 SWAP3 PUSH1 0x40 SWAP12 SWAP11 SWAP9 SWAP10 SWAP12 MLOAD PUSH2 0x2394 DUP2 PUSH2 0x346C JUMP JUMPDEST DUP7 SLOAD DUP2 MSTORE DUP5 DUP1 PUSH1 0xA0 SHL SUB DUP6 DUP9 ADD SLOAD AND DUP4 DUP3 ADD MSTORE DUP6 DUP8 ADD SLOAD PUSH1 0x40 DUP3 ADD MSTORE PUSH1 0xFF PUSH1 0x3 DUP9 ADD SLOAD AND ISZERO ISZERO PUSH1 0x60 DUP3 ADD MSTORE DUP2 MSTORE ADD SWAP4 ADD SWAP4 ADD SWAP3 SWAP2 SWAP8 SWAP6 SWAP5 SWAP7 SWAP8 PUSH2 0x230F JUMP JUMPDEST POP CALLVALUE PUSH2 0xDEE JUMPI PUSH1 0x20 CALLDATASIZE PUSH1 0x3 NOT ADD SLT PUSH2 0xDEE JUMPI PUSH1 0x4 CALLDATALOAD DUP2 MSTORE PUSH1 0x12 PUSH1 0x20 MSTORE PUSH1 0x40 DUP2 KECCAK256 PUSH1 0xC PUSH1 0x20 MSTORE PUSH1 0x40 DUP3 KECCAK256 SWAP1 PUSH1 0x2 DUP2 ADD SLOAD SWAP2 PUSH1 0xFF DUP4 AND PUSH1 0x3 DUP2 LT ISZERO PUSH2 0x2491 JUMPI SWAP4 PUSH1 0xA0 SWAP5 ISZERO DUP1 PUSH2 0x247F JUMPI JUMPDEST ISZERO PUSH2 0x2466 JUMPI POP PUSH1 0x3 PUSH4 0xFFFFFFFF DUP1 SWAP5 PUSH1 0x28 SHR AND SWAP3 ADD SLOAD SWAP3 PUSH1 0x7 PUSH2 0x243D DUP6 DUP6 PUSH2 0x3660 JUMP JUMPDEST SWAP5 SWAP4 SWAP3 ADD SLOAD AND SWAP1 PUSH1 0x1 SWAP3 JUMPDEST PUSH1 0x40 MLOAD SWAP5 DUP6 MSTORE PUSH1 0x20 DUP6 ADD MSTORE PUSH1 0x40 DUP5 ADD MSTORE PUSH1 0x60 DUP4 ADD MSTORE ISZERO ISZERO PUSH1 0x80 DUP3 ADD MSTORE RETURN JUMPDEST PUSH1 0x7 SWAP1 SWAP2 ADD SLOAD SWAP1 SWAP3 POP DUP3 SWAP2 POP PUSH4 0xFFFFFFFF AND DUP2 DUP1 PUSH2 0x2448 JUMP JUMPDEST POP PUSH4 0xFFFFFFFF DUP5 PUSH1 0x28 SHR AND ISZERO ISZERO PUSH2 0x241A JUMP JUMPDEST PUSH4 0x4E487B71 PUSH1 0xE0 SHL DUP6 MSTORE PUSH1 0x21 PUSH1 0x4 MSTORE PUSH1 0x24 DUP6 REVERT JUMPDEST POP CALLVALUE PUSH2 0xDEE JUMPI PUSH1 0x20 CALLDATASIZE PUSH1 0x3 NOT ADD SLT PUSH2 0xDEE JUMPI PUSH1 0x40 PUSH1 0xE0 SWAP2 PUSH1 0x4 CALLDATALOAD DUP2 MSTORE PUSH1 0x12 PUSH1 0x20 MSTORE KECCAK256 PUSH1 0x1 DUP1 PUSH1 0xA0 SHL SUB DUP2 SLOAD AND SWAP1 PUSH1 0x1 DUP2 ADD SLOAD SWAP1 PUSH1 0x2 DUP2 ADD SLOAD PUSH1 0x6 PUSH1 0x3 DUP4 ADD SLOAD SWAP3 ADD SLOAD SWAP3 PUSH1 0x40 MLOAD SWAP5 DUP6 MSTORE PUSH1 0x20 DUP6 ADD MSTORE PUSH2 0x2503 PUSH1 0x40 DUP6 ADD PUSH1 0xFF DUP4 AND PUSH2 0x2FC7 JUMP JUMPDEST PUSH4 0xFFFFFFFF SWAP1 DUP2 DUP2 PUSH1 0x8 SHR AND PUSH1 0x60 DUP7 ADD MSTORE PUSH1 0x28 SHR AND PUSH1 0x80 DUP5 ADD MSTORE PUSH1 0xA0 DUP4 ADD MSTORE PUSH1 0xC0 DUP3 ADD MSTORE RETURN JUMPDEST POP CALLVALUE PUSH2 0xDEE JUMPI PUSH1 0x40 CALLDATASIZE PUSH1 0x3 NOT ADD SLT PUSH2 0xDEE JUMPI PUSH2 0x2543 PUSH2 0x30CF JUMP JUMPDEST DUP2 PUSH2 0x254C PUSH2 0x2FB1 JUMP JUMPDEST PUSH1 0x1 SLOAD SWAP1 SWAP3 PUSH1 0x1 PUSH1 0x1 PUSH1 0xA0 SHL SUB SWAP2 DUP3 AND SWAP1 DUP2 EXTCODESIZE ISZERO PUSH2 0xA08 JUMPI DUP4 PUSH1 0x44 SWAP3 PUSH4 0xFFFFFFFF SWAP5 PUSH1 0x40 MLOAD SWAP8 DUP9 SWAP7 DUP8 SWAP6 PUSH4 0x86ECC79 PUSH1 0xE2 SHL DUP8 MSTORE AND PUSH1 0x4 DUP7 ADD MSTORE AND PUSH1 0x24 DUP5 ADD MSTORE GAS CALL DUP1 ISZERO PUSH2 0x9FD JUMPI PUSH2 0x259C JUMPI POP DUP1 RETURN JUMPDEST PUSH2 0x25A5 SWAP1 PUSH2 0x3458 JUMP JUMPDEST DUP1 RETURN JUMPDEST POP CALLVALUE PUSH2 0xDEE JUMPI PUSH1 0xA0 CALLDATASIZE PUSH1 0x3 NOT ADD SLT PUSH2 0xDEE JUMPI PUSH1 0x4 CALLDATALOAD SWAP1 PUSH2 0x25C6 PUSH2 0x30A9 JUMP JUMPDEST SWAP2 PUSH2 0x25CF PUSH2 0x30BC JUMP JUMPDEST PUSH1 0x64 CALLDATALOAD PUSH4 0xFFFFFFFF SWAP4 DUP5 DUP3 AND DUP1 SWAP3 SUB PUSH2 0xDEE JUMPI PUSH1 0x84 CALLDATALOAD SWAP5 DUP1 DUP7 AND SWAP2 DUP3 DUP8 SUB PUSH2 0xDEE JUMPI DUP4 DUP2 MSTORE PUSH1 0x20 SWAP8 PUSH1 0x10 DUP10 MSTORE PUSH1 0x3 DUP4 PUSH1 0x40 DUP5 KECCAK256 SLOAD AND LT ISZERO PUSH2 0x2859 JUMPI DUP5 ISZERO DUP1 ISZERO PUSH2 0x27FB JUMPI JUMPDEST PUSH2 0xD71 JUMPI DUP7 ISZERO PUSH2 0x108D JUMPI DUP3 AND SWAP4 PUSH1 0x46 DUP6 GT DUP1 ISZERO SWAP1 PUSH2 0x27F1 JUMPI JUMPDEST PUSH2 0xD4F JUMPI DUP3 DUP7 AND SWAP4 PUSH1 0x1 DUP6 LT DUP1 ISZERO PUSH2 0x27E7 JUMPI JUMPDEST PUSH2 0x27D5 JUMPI PUSH1 0x1E LT PUSH2 0x27C3 JUMPI PUSH1 0xB SLOAD DUP8 GT PUSH2 0x27B1 JUMPI DUP9 SWAP8 CALLER DUP4 MSTORE PUSH1 0x11 DUP10 MSTORE PUSH1 0x40 DUP4 KECCAK256 SLOAD DUP1 PUSH2 0x277D JUMPI JUMPDEST POP SWAP3 PUSH1 0x40 PUSH32 0x8BA1D57FC445F76A3BC884CC60CC8F95F647F54B02D9B1BF1BE78BA0B0BFA768 SWAP7 SWAP4 PUSH2 0x26A8 SWAP9 SWAP7 SWAP4 PUSH2 0x272C PUSH1 0xFF SWAP8 PUSH1 0xC PUSH1 0xD SLOAD SWAP15 DUP16 SWAP14 DUP15 PUSH2 0x325E JUMP JUMPDEST PUSH1 0xD SSTORE DUP14 DUP7 MSTORE MSTORE DUP5 DUP5 KECCAK256 PUSH1 0x1 DUP2 ADD DUP1 SLOAD PUSH1 0x1 PUSH1 0x1 PUSH1 0xA0 SHL SUB NOT AND CALLER OR SWAP1 SSTORE PUSH1 0x2 DUP2 ADD DUP15 SWAP1 SSTORE PUSH1 0x3 DUP2 ADD DUP1 SLOAD PUSH9 0xFFFFFFFFFFFFFFFFFF NOT AND SWAP1 SWAP10 OR DUP10 SSTORE TIMESTAMP PUSH1 0x4 DUP3 ADD SSTORE PUSH1 0x7 DUP2 ADD DUP1 SLOAD SWAP2 DUP15 SWAP1 SSTORE PUSH8 0xFFFFFFFF00000000 NOT SWAP1 SWAP9 AND PUSH8 0xFFFFFFFFFFFFFFFF NOT SWAP1 SWAP2 AND OR PUSH1 0x20 SWAP2 SWAP1 SWAP2 SHL PUSH8 0xFFFFFFFF00000000 AND OR SWAP1 SWAP6 SSTORE PUSH4 0xFFFFFFFF NOT SWAP5 JUMP JUMPDEST CALLER DUP3 MSTORE PUSH1 0xE DUP14 MSTORE PUSH2 0x273F DUP11 DUP5 DUP5 KECCAK256 PUSH2 0x3616 JUMP JUMPDEST DUP2 MSTORE PUSH1 0x10 DUP13 MSTORE KECCAK256 SWAP2 DUP3 SLOAD SWAP2 PUSH2 0x2755 DUP2 DUP5 AND PUSH2 0x364B JUMP JUMPDEST AND SWAP2 AND OR SWAP1 SSTORE SLOAD PUSH1 0x40 SHR AND SWAP1 PUSH2 0x2772 PUSH1 0x40 MLOAD SWAP3 DUP4 SWAP3 CALLER SWAP8 DUP5 PUSH2 0x359C JUMP JUMPDEST SUB SWAP1 LOG3 PUSH1 0x40 MLOAD SWAP1 DUP2 MSTORE RETURN JUMPDEST SWAP1 SWAP7 SWAP5 SWAP2 SWAP4 SWAP9 POP DUP3 SWAP6 SWAP3 MSTORE PUSH1 0x12 DUP10 MSTORE PUSH2 0x279C PUSH1 0x6 PUSH1 0x40 DUP8 KECCAK256 ADD SLOAD PUSH2 0x3241 JUMP JUMPDEST TIMESTAMP LT PUSH2 0xCE7 JUMPI SWAP3 SWAP5 SWAP2 DUP9 SWAP8 SWAP3 CODESIZE SWAP6 SWAP3 SWAP6 PUSH2 0x2667 JUMP JUMPDEST PUSH1 0x40 MLOAD PUSH4 0x3E285FF1 PUSH1 0xE2 SHL DUP2 MSTORE PUSH1 0x4 SWAP1 REVERT JUMPDEST PUSH1 0x40 MLOAD PUSH4 0x3631F31D PUSH1 0xE0 SHL DUP2 MSTORE PUSH1 0x4 SWAP1 REVERT JUMPDEST PUSH1 0x40 MLOAD PUSH4 0x53EC955 PUSH1 0xE1 SHL DUP2 MSTORE PUSH1 0x4 SWAP1 REVERT JUMPDEST POP PUSH1 0xC DUP6 GT PUSH2 0x263F JUMP JUMPDEST POP PUSH1 0x64 DUP6 GT PUSH2 0x262C JUMP JUMPDEST POP PUSH1 0x1 SLOAD PUSH1 0x40 MLOAD PUSH4 0x2CC52B15 PUSH1 0xE1 SHL DUP2 MSTORE CALLER PUSH1 0x4 DUP3 ADD MSTORE SWAP1 DUP11 SWAP1 DUP3 SWAP1 PUSH1 0x24 SWAP1 DUP3 SWAP1 PUSH1 0x1 PUSH1 0x1 PUSH1 0xA0 SHL SUB AND GAS STATICCALL SWAP1 DUP2 ISZERO PUSH2 0x10FE JUMPI DUP4 SWAP2 PUSH2 0x283C JUMPI JUMPDEST POP ISZERO PUSH2 0x2613 JUMP JUMPDEST PUSH2 0x2853 SWAP2 POP DUP11 RETURNDATASIZE DUP13 GT PUSH2 0xADA JUMPI PUSH2 0xACC DUP2 DUP4 PUSH2 0x3488 JUMP JUMPDEST CODESIZE PUSH2 0x2835 JUMP JUMPDEST PUSH1 0x40 MLOAD PUSH4 0x70C9AD1B PUSH1 0xE1 SHL DUP2 MSTORE PUSH1 0x4 SWAP1 REVERT JUMPDEST POP CALLVALUE PUSH2 0xDEE JUMPI PUSH1 0x20 CALLDATASIZE PUSH1 0x3 NOT ADD SLT PUSH2 0xDEE JUMPI DUP1 PUSH2 0x100 PUSH1 0x40 MLOAD PUSH2 0x288D DUP2 PUSH2 0x3425 JUMP JUMPDEST DUP3 DUP2 MSTORE DUP3 PUSH1 0x20 DUP3 ADD MSTORE DUP3 PUSH1 0x40 DUP3 ADD MSTORE DUP3 PUSH1 0x60 DUP3 ADD MSTORE DUP3 PUSH1 0x80 DUP3 ADD MSTORE DUP3 PUSH1 0xA0 DUP3 ADD MSTORE DUP3 PUSH1 0xC0 DUP3 ADD MSTORE PUSH1 0x60 PUSH1 0xE0 DUP3 ADD MSTORE ADD MSTORE PUSH1 0x4 CALLDATALOAD DUP2 MSTORE PUSH1 0xC PUSH1 0x20 MSTORE PUSH1 0x40 DUP2 KECCAK256 SWAP1 DUP2 SLOAD SWAP2 PUSH1 0x1 DUP1 PUSH1 0xA0 SHL SUB PUSH1 0x1 DUP3 ADD SLOAD AND SWAP2 PUSH1 0x2 DUP3 ADD SLOAD SWAP1 PUSH1 0x3 DUP4 ADD SLOAD SWAP1 PUSH4 0xFFFFFFFF PUSH1 0xFF DUP4 PUSH1 0x40 SHR AND SWAP3 PUSH1 0x4 DUP7 ADD SLOAD SWAP5 DUP3 PUSH1 0x7 DUP9 ADD SLOAD AND SWAP8 PUSH1 0x40 MLOAD SWAP10 PUSH2 0x2911 DUP12 PUSH2 0x3425 JUMP JUMPDEST DUP11 MSTORE PUSH1 0x20 DUP11 ADD MSTORE PUSH1 0x40 DUP10 ADD MSTORE DUP2 DUP2 AND PUSH1 0x60 DUP10 ADD MSTORE PUSH1 0x20 SHR AND PUSH1 0x80 DUP8 ADD MSTORE PUSH1 0x7 DUP3 LT ISZERO PUSH2 0x29F1 JUMPI POP PUSH1 0xA0 DUP6 ADD MSTORE PUSH1 0xC0 DUP5 ADD MSTORE PUSH2 0x294E SWAP1 PUSH1 0x5 ADD PUSH2 0x386F JUMP JUMPDEST PUSH1 0xE0 DUP4 ADD MSTORE PUSH2 0x100 DUP3 ADD MSTORE PUSH1 0x40 MLOAD DUP1 SWAP2 PUSH1 0x20 DUP3 MSTORE DUP1 MLOAD PUSH1 0x20 DUP4 ADD MSTORE PUSH1 0x1 DUP1 PUSH1 0xA0 SHL SUB PUSH1 0x20 DUP3 ADD MLOAD AND PUSH1 0x40 DUP4 ADD MSTORE PUSH1 0x40 DUP2 ADD MLOAD PUSH1 0x60 DUP4 ADD MSTORE PUSH4 0xFFFFFFFF PUSH1 0x60 DUP3 ADD MLOAD AND PUSH1 0x80 DUP4 ADD MSTORE PUSH4 0xFFFFFFFF PUSH1 0x80 DUP3 ADD MLOAD AND PUSH1 0xA0 DUP4 ADD MSTORE PUSH2 0x29B7 PUSH1 0xA0 DUP3 ADD MLOAD PUSH1 0xC0 DUP5 ADD SWAP1 PUSH2 0x30E2 JUMP JUMPDEST PUSH1 0xC0 DUP2 ADD MLOAD PUSH1 0xE0 DUP4 ADD MSTORE PUSH1 0xE0 DUP2 ADD MLOAD PUSH4 0xFFFFFFFF PUSH2 0x100 PUSH2 0x29E5 PUSH2 0x120 SWAP4 DUP5 DUP4 DUP9 ADD MSTORE PUSH2 0x140 DUP8 ADD SWAP1 PUSH2 0x30EF JUMP JUMPDEST SWAP4 ADD MLOAD AND SWAP1 DUP4 ADD MSTORE SUB SWAP1 RETURN JUMPDEST PUSH4 0x4E487B71 PUSH1 0xE0 SHL DUP2 MSTORE PUSH1 0x21 PUSH1 0x4 MSTORE PUSH1 0x24 SWAP1 REVERT JUMPDEST POP CALLVALUE PUSH2 0xDEE JUMPI PUSH1 0x40 CALLDATASIZE PUSH1 0x3 NOT ADD SLT PUSH2 0xDEE JUMPI PUSH2 0x2A1F PUSH2 0x30A9 JUMP JUMPDEST SWAP1 PUSH2 0x2A28 PUSH2 0x33CF JUMP JUMPDEST PUSH4 0xFFFFFFFF DUP3 AND ISZERO DUP1 ISZERO PUSH2 0x2C77 JUMPI JUMPDEST PUSH2 0xD71 JUMPI PUSH1 0x4 CALLDATALOAD DUP2 MSTORE PUSH1 0xC PUSH1 0x20 MSTORE PUSH1 0x40 DUP2 KECCAK256 PUSH1 0x3 DUP2 ADD SLOAD PUSH1 0x64 PUSH4 0xFFFFFFFF DUP3 PUSH1 0x20 SHR AND EQ PUSH2 0x2C65 JUMPI PUSH1 0x1 DUP3 ADD SLOAD CALLER PUSH1 0x1 PUSH1 0x1 PUSH1 0xA0 SHL SUB SWAP1 SWAP2 AND SUB PUSH2 0x2C53 JUMPI PUSH1 0x40 SHR PUSH1 0xFF AND PUSH1 0x7 DUP2 LT ISZERO PUSH2 0x12B6 JUMPI PUSH1 0x3 DUP2 EQ SWAP1 DUP2 ISZERO PUSH2 0x2C48 JUMPI JUMPDEST POP PUSH2 0x2C36 JUMPI DUP2 SWAP1 DUP3 JUMPDEST PUSH1 0x5 DUP3 ADD SLOAD DUP2 LT ISZERO PUSH2 0x2B6E JUMPI PUSH2 0x2AB2 DUP2 PUSH1 0x5 DUP5 ADD PUSH2 0x31EF JUMP JUMPDEST SWAP1 SLOAD PUSH1 0x3 SWAP2 SWAP1 SWAP2 SHL SHR PUSH1 0x1 PUSH1 0x1 PUSH1 0xA0 SHL SUB AND DUP1 DUP6 MSTORE PUSH1 0x6 DUP4 ADD PUSH1 0x20 MSTORE PUSH1 0x40 DUP6 KECCAK256 SLOAD SWAP1 DUP2 PUSH2 0x2AEA JUMPI JUMPDEST POP POP PUSH2 0x2AE5 SWAP1 PUSH2 0x325E JUMP JUMPDEST PUSH2 0x2A99 JUMP JUMPDEST PUSH2 0x2B28 DUP3 PUSH2 0x2AE5 SWAP5 SWAP4 SWAP7 PUSH1 0xF PUSH1 0x20 MSTORE PUSH1 0x40 DUP10 KECCAK256 PUSH2 0x2B08 DUP4 DUP3 SLOAD PUSH2 0x3563 JUMP JUMPDEST SWAP1 SSTORE DUP4 DUP10 MSTORE PUSH1 0x6 PUSH1 0x20 MSTORE PUSH1 0x40 DUP10 KECCAK256 PUSH2 0x2B21 DUP4 DUP3 SLOAD PUSH2 0x3251 JUMP JUMPDEST SWAP1 SSTORE PUSH2 0x3251 JUMP JUMPDEST SWAP5 DUP2 DUP8 MSTORE PUSH1 0x6 DUP6 ADD PUSH1 0x20 MSTORE DUP7 PUSH1 0x40 DUP2 KECCAK256 SSTORE PUSH1 0x40 MLOAD SWAP1 DUP2 MSTORE PUSH32 0x3290469B25240CB85DB34AF1F3D3117D889B712A22AC0988F554F4F8E0ED919 PUSH1 0x20 PUSH1 0x4 CALLDATALOAD SWAP3 LOG3 SWAP1 CODESIZE PUSH2 0x2ADA JUMP JUMPDEST POP PUSH1 0x20 SWAP3 PUSH1 0x1 SWAP2 PUSH4 0xFFFFFFFF DUP7 AND DUP3 MSTORE PUSH1 0x10 DUP6 MSTORE PUSH1 0x40 DUP3 KECCAK256 DUP1 SLOAD PUSH4 0xFFFFFFFF DUP2 AND DUP1 PUSH2 0x2C14 JUMPI JUMPDEST POP POP POP PUSH9 0x60000000000000000 PUSH9 0xFFFFFFFFFF00000000 NOT PUSH1 0x3 DUP4 ADD SLOAD AND OR DUP1 PUSH1 0x3 DUP4 ADD SSTORE PUSH32 0x8BA1D57FC445F76A3BC884CC60CC8F95F647F54B02D9B1BF1BE78BA0B0BFA768 PUSH2 0x2C08 PUSH4 0xFFFFFFFF PUSH1 0x7 PUSH1 0x2 DUP7 ADD SLOAD SWAP6 ADD SLOAD AND SWAP4 PUSH1 0x40 MLOAD SWAP2 DUP3 SWAP2 CALLER SWAP7 PUSH1 0xFF PUSH1 0x4 CALLDATALOAD SWAP8 PUSH1 0x40 SHR AND SWAP2 DUP5 PUSH2 0x359C JUMP JUMPDEST SUB SWAP1 LOG3 SSTORE PUSH1 0x40 MLOAD SWAP1 DUP2 MSTORE RETURN JUMPDEST PUSH2 0x2C22 PUSH4 0xFFFFFFFF SWAP2 PUSH2 0x3570 JUMP JUMPDEST AND SWAP1 PUSH4 0xFFFFFFFF NOT AND OR SWAP1 SSTORE DUP6 DUP1 DUP1 PUSH2 0x2B95 JUMP JUMPDEST PUSH1 0x40 MLOAD PUSH4 0x7023A7C5 PUSH1 0xE1 SHL DUP2 MSTORE PUSH1 0x4 SWAP1 REVERT JUMPDEST PUSH1 0x6 SWAP2 POP EQ CODESIZE PUSH2 0x2A90 JUMP JUMPDEST PUSH1 0x40 MLOAD PUSH4 0xC671F079 PUSH1 0xE0 SHL DUP2 MSTORE PUSH1 0x4 SWAP1 REVERT JUMPDEST PUSH1 0x40 MLOAD PUSH4 0x7D43AE1 PUSH1 0xE3 SHL DUP2 MSTORE PUSH1 0x4 SWAP1 REVERT JUMPDEST POP PUSH1 0x1 SLOAD PUSH1 0x40 MLOAD PUSH4 0x2CC52B15 PUSH1 0xE1 SHL DUP2 MSTORE CALLER PUSH1 0x4 DUP3 ADD MSTORE SWAP1 PUSH1 0x20 SWAP1 DUP3 SWAP1 PUSH1 0x24 SWAP1 DUP3 SWAP1 PUSH1 0x1 PUSH1 0x1 PUSH1 0xA0 SHL SUB AND GAS STATICCALL SWAP1 DUP2 ISZERO PUSH2 0x9FD JUMPI DUP3 SWAP2 PUSH2 0x2CB9 JUMPI JUMPDEST POP ISZERO PUSH2 0x2A37 JUMP JUMPDEST PUSH2 0x2CD1 SWAP2 POP PUSH1 0x20 RETURNDATASIZE DUP2 GT PUSH2 0xADA JUMPI PUSH2 0xACC DUP2 DUP4 PUSH2 0x3488 JUMP JUMPDEST CODESIZE PUSH2 0x2CB2 JUMP JUMPDEST POP CALLVALUE PUSH2 0xDEE JUMPI PUSH1 0x20 DUP1 PUSH1 0x3 NOT CALLDATASIZE ADD SLT PUSH2 0x9F9 JUMPI PUSH1 0x1 PUSH1 0x1 PUSH1 0xA0 SHL SUB SWAP2 SWAP1 DUP3 PUSH2 0x2CFD PUSH2 0x2F9B JUMP JUMPDEST AND DUP1 DUP4 MSTORE PUSH1 0xE DUP3 MSTORE PUSH1 0x40 DUP4 KECCAK256 DUP1 SLOAD DUP5 SWAP3 SWAP2 DUP4 JUMPDEST DUP3 DUP2 LT PUSH2 0x2ED6 JUMPI POP PUSH2 0x2D21 DUP5 PUSH2 0x34AA JUMP JUMPDEST SWAP4 PUSH2 0x2D2F PUSH1 0x40 MLOAD SWAP6 DUP7 PUSH2 0x3488 JUMP JUMPDEST DUP1 DUP6 MSTORE PUSH1 0x1F NOT PUSH2 0x2D3E DUP3 PUSH2 0x34AA JUMP JUMPDEST ADD DUP8 JUMPDEST DUP2 DUP2 LT PUSH2 0x2EB7 JUMPI POP POP PUSH2 0x2D53 SWAP1 PUSH2 0x36AF JUMP JUMPDEST SWAP7 DUP7 SWAP4 DUP8 JUMPDEST DUP5 DUP2 LT PUSH2 0x2DD7 JUMPI POP POP POP POP POP POP PUSH1 0x40 MLOAD SWAP4 DUP5 SWAP3 PUSH1 0x40 DUP5 ADD PUSH1 0x40 DUP6 MSTORE DUP4 MLOAD DUP1 SWAP2 MSTORE PUSH1 0x60 DUP6 ADD DUP3 PUSH1 0x60 DUP4 PUSH1 0x5 SHL DUP9 ADD ADD SWAP6 ADD SWAP7 SWAP1 JUMPDEST DUP3 DUP3 LT PUSH2 0x2DA7 JUMPI POP POP POP DUP4 PUSH2 0x14C9 SWAP5 SWAP6 POP DUP4 SUB SWAP1 DUP6 ADD MSTORE PUSH2 0x2FEA JUMP JUMPDEST SWAP2 SWAP4 SWAP6 POP SWAP2 SWAP4 DUP5 DUP1 PUSH2 0x2DC5 PUSH1 0x1 SWAP4 PUSH1 0x5F NOT DUP13 DUP3 SUB ADD DUP7 MSTORE DUP11 MLOAD PUSH2 0x301E JUMP JUMPDEST SWAP9 ADD SWAP3 ADD SWAP3 ADD DUP8 SWAP6 SWAP4 SWAP2 SWAP7 SWAP5 SWAP3 PUSH2 0x2D8B JUMP JUMPDEST PUSH2 0x2DE6 DUP2 DUP6 SWAP12 SWAP10 SWAP9 SWAP11 SWAP12 PUSH2 0x31EF JUMP JUMPDEST SWAP1 SLOAD PUSH1 0x3 SWAP2 DUP3 SHL SHR DUP12 MSTORE PUSH1 0x12 DUP9 MSTORE DUP10 PUSH1 0x40 DUP13 KECCAK256 DUP5 DUP7 DUP3 SLOAD AND EQ DUP1 PUSH2 0x2E87 JUMPI JUMPDEST DUP1 PUSH2 0x2E71 JUMPI JUMPDEST PUSH2 0x2E26 JUMPI JUMPDEST POP POP POP PUSH2 0x2E1C SWAP1 PUSH2 0x325E JUMP JUMPDEST SWAP9 SWAP8 SWAP6 SWAP7 SWAP9 PUSH2 0x2D58 JUMP JUMPDEST SWAP2 DUP9 SWAP2 PUSH2 0x2E43 PUSH2 0x2E1C SWAP6 SWAP11 PUSH2 0x2E3D PUSH2 0x2E68 SWAP7 PUSH2 0x3779 JUMP JUMPDEST SWAP3 PUSH2 0x36E1 JUMP JUMPDEST MSTORE PUSH2 0x2E4E DUP3 DUP14 PUSH2 0x36E1 JUMP JUMPDEST POP PUSH2 0x2E59 DUP10 DUP9 PUSH2 0x31EF JUMP JUMPDEST SWAP1 SLOAD SWAP2 SHL SHR PUSH2 0xBA7 DUP3 DUP13 PUSH2 0x36E1 JUMP JUMPDEST SWAP6 SWAP1 DUP10 CODESIZE PUSH2 0x2E10 JUMP JUMPDEST POP PUSH4 0xFFFFFFFF PUSH1 0x2 DUP3 ADD SLOAD PUSH1 0x28 SHR AND ISZERO ISZERO PUSH2 0x2E0B JUMP JUMPDEST POP SWAP1 POP PUSH1 0xFF PUSH1 0x2 DUP3 ADD SLOAD AND DUP3 DUP2 LT ISZERO PUSH2 0x2EA3 JUMPI SWAP1 DUP12 SWAP2 ISZERO PUSH2 0x2E05 JUMP JUMPDEST PUSH4 0x4E487B71 PUSH1 0xE0 SHL DUP14 MSTORE PUSH1 0x21 PUSH1 0x4 MSTORE PUSH1 0x24 DUP14 REVERT JUMPDEST SWAP7 DUP1 SWAP7 SWAP9 SWAP10 SWAP8 PUSH2 0x2EC5 PUSH2 0x3732 JUMP JUMPDEST DUP3 DUP3 DUP13 ADD ADD MSTORE ADD SWAP9 SWAP8 SWAP6 SWAP7 SWAP9 PUSH2 0x2D41 JUMP JUMPDEST PUSH2 0x2EE5 DUP2 DUP4 SWAP10 SWAP8 SWAP7 SWAP9 SWAP10 PUSH2 0x31EF JUMP JUMPDEST SWAP1 SLOAD PUSH1 0x3 SWAP2 DUP3 SHL SHR DUP10 MSTORE PUSH1 0x12 DUP7 MSTORE PUSH1 0x40 DUP10 KECCAK256 DUP6 DUP9 DUP3 SLOAD AND EQ SWAP2 DUP3 PUSH2 0x2F50 JUMPI JUMPDEST POP DUP2 PUSH2 0x2F39 JUMPI JUMPDEST POP PUSH2 0x2F24 JUMPI JUMPDEST PUSH2 0x2F1A SWAP1 PUSH2 0x325E JUMP JUMPDEST SWAP7 SWAP6 SWAP4 SWAP5 SWAP7 PUSH2 0x2D10 JUMP JUMPDEST SWAP6 PUSH2 0x2F31 PUSH2 0x2F1A SWAP2 PUSH2 0x325E JUMP JUMPDEST SWAP7 SWAP1 POP PUSH2 0x2F11 JUMP JUMPDEST PUSH4 0xFFFFFFFF SWAP2 POP PUSH1 0x2 ADD SLOAD PUSH1 0x28 SHR AND ISZERO ISZERO CODESIZE PUSH2 0x2F0B JUMP JUMPDEST SWAP1 SWAP2 POP PUSH1 0xFF PUSH1 0x2 DUP4 ADD SLOAD AND SWAP1 DUP2 LT ISZERO PUSH2 0x2F6B JUMPI ISZERO SWAP1 CODESIZE PUSH2 0x2F04 JUMP JUMPDEST PUSH4 0x4E487B71 PUSH1 0xE0 SHL DUP11 MSTORE PUSH1 0x21 PUSH1 0x4 MSTORE PUSH1 0x24 DUP11 REVERT JUMPDEST SWAP1 POP CALLVALUE PUSH2 0x9F9 JUMPI DUP2 PUSH1 0x3 NOT CALLDATASIZE ADD SLT PUSH2 0x9F9 JUMPI PUSH1 0x20 SWAP1 PUSH1 0xA SLOAD DUP2 MSTORE RETURN JUMPDEST PUSH1 0x4 CALLDATALOAD SWAP1 PUSH1 0x1 PUSH1 0x1 PUSH1 0xA0 SHL SUB DUP3 AND DUP3 SUB PUSH2 0xE98 JUMPI JUMP JUMPDEST PUSH1 0x24 CALLDATALOAD SWAP1 PUSH1 0x1 PUSH1 0x1 PUSH1 0xA0 SHL SUB DUP3 AND DUP3 SUB PUSH2 0xE98 JUMPI JUMP JUMPDEST SWAP1 PUSH1 0x3 DUP3 LT ISZERO PUSH2 0x2FD4 JUMPI MSTORE JUMP JUMPDEST PUSH4 0x4E487B71 PUSH1 0xE0 SHL PUSH1 0x0 MSTORE PUSH1 0x21 PUSH1 0x4 MSTORE PUSH1 0x24 PUSH1 0x0 REVERT JUMPDEST SWAP1 DUP2 MLOAD DUP1 DUP3 MSTORE PUSH1 0x20 DUP1 DUP1 SWAP4 ADD SWAP4 ADD SWAP2 PUSH1 0x0 JUMPDEST DUP3 DUP2 LT PUSH2 0x300A JUMPI POP POP POP POP SWAP1 JUMP JUMPDEST DUP4 MLOAD DUP6 MSTORE SWAP4 DUP2 ADD SWAP4 SWAP3 DUP2 ADD SWAP3 PUSH1 0x1 ADD PUSH2 0x2FFC JUMP JUMPDEST SWAP1 PUSH1 0x1 DUP1 PUSH1 0xA0 SHL SUB DUP3 MLOAD AND DUP2 MSTORE PUSH1 0x20 DUP3 ADD MLOAD PUSH1 0x20 DUP3 ADD MSTORE PUSH2 0x3047 PUSH1 0x40 DUP4 ADD MLOAD PUSH1 0x40 DUP4 ADD SWAP1 PUSH2 0x2FC7 JUMP JUMPDEST PUSH4 0xFFFFFFFF DUP1 PUSH1 0x60 DUP5 ADD MLOAD AND PUSH1 0x60 DUP4 ADD MSTORE PUSH1 0x80 DUP4 ADD MLOAD AND PUSH1 0x80 DUP3 ADD MSTORE PUSH1 0xA0 DUP3 ADD MLOAD PUSH1 0xA0 DUP3 ADD MSTORE PUSH2 0x309B PUSH2 0x3089 PUSH1 0xC0 DUP5 ADD MLOAD PUSH2 0x120 DUP1 PUSH1 0xC0 DUP7 ADD MSTORE DUP5 ADD SWAP1 PUSH2 0x2FEA JUMP JUMPDEST PUSH1 0xE0 DUP5 ADD MLOAD DUP4 DUP3 SUB PUSH1 0xE0 DUP6 ADD MSTORE PUSH2 0x2FEA JUMP JUMPDEST SWAP2 PUSH2 0x100 DUP1 SWAP2 ADD MLOAD SWAP2 ADD MSTORE SWAP1 JUMP JUMPDEST PUSH1 0x24 CALLDATALOAD SWAP1 PUSH4 0xFFFFFFFF DUP3 AND DUP3 SUB PUSH2 0xE98 JUMPI JUMP JUMPDEST PUSH1 0x44 CALLDATALOAD SWAP1 PUSH4 0xFFFFFFFF DUP3 AND DUP3 SUB PUSH2 0xE98 JUMPI JUMP JUMPDEST PUSH1 0x4 CALLDATALOAD SWAP1 PUSH4 0xFFFFFFFF DUP3 AND DUP3 SUB PUSH2 0xE98 JUMPI JUMP JUMPDEST SWAP1 PUSH1 0x7 DUP3 LT ISZERO PUSH2 0x2FD4 JUMPI MSTORE JUMP JUMPDEST SWAP1 DUP2 MLOAD DUP1 DUP3 MSTORE PUSH1 0x20 DUP1 DUP1 SWAP4 ADD SWAP4 ADD SWAP2 PUSH1 0x0 JUMPDEST DUP3 DUP2 LT PUSH2 0x310F JUMPI POP POP POP POP SWAP1 JUMP JUMPDEST DUP4 MLOAD PUSH1 0x1 PUSH1 0x1 PUSH1 0xA0 SHL SUB AND DUP6 MSTORE SWAP4 DUP2 ADD SWAP4 SWAP3 DUP2 ADD SWAP3 PUSH1 0x1 ADD PUSH2 0x3101 JUMP JUMPDEST CALLVALUE PUSH2 0xE98 JUMPI PUSH1 0x0 CALLDATASIZE PUSH1 0x3 NOT ADD SLT PUSH2 0xE98 JUMPI PUSH1 0x20 PUSH1 0xB SLOAD PUSH1 0x40 MLOAD SWAP1 DUP2 MSTORE RETURN JUMPDEST CALLVALUE PUSH2 0xE98 JUMPI PUSH1 0x0 DUP1 PUSH1 0x3 NOT CALLDATASIZE ADD SLT PUSH2 0xDEE JUMPI PUSH1 0x40 MLOAD PUSH4 0x70A08231 PUSH1 0xE0 SHL DUP2 MSTORE ADDRESS PUSH1 0x4 DUP3 ADD MSTORE PUSH1 0x20 DUP2 PUSH1 0x24 DUP2 PUSH32 0x0 PUSH1 0x1 PUSH1 0x1 PUSH1 0xA0 SHL SUB AND GAS STATICCALL SWAP1 DUP2 ISZERO PUSH2 0x9FD JUMPI DUP3 SWAP2 PUSH2 0x31BA JUMPI JUMPDEST PUSH1 0x20 DUP3 PUSH1 0x40 MLOAD SWAP1 DUP2 MSTORE RETURN JUMPDEST SWAP1 POP PUSH1 0x20 DUP2 RETURNDATASIZE DUP3 GT PUSH2 0x31E7 JUMPI JUMPDEST DUP2 PUSH2 0x31D4 PUSH1 0x20 SWAP4 DUP4 PUSH2 0x3488 JUMP JUMPDEST DUP2 ADD SUB SLT PUSH2 0x9F9 JUMPI PUSH1 0x20 SWAP2 POP MLOAD CODESIZE PUSH2 0x31AF JUMP JUMPDEST RETURNDATASIZE SWAP2 POP PUSH2 0x31C7 JUMP JUMPDEST DUP1 SLOAD DUP3 LT ISZERO PUSH2 0xA8A JUMPI PUSH1 0x0 MSTORE PUSH1 0x20 PUSH1 0x0 KECCAK256 ADD SWAP1 PUSH1 0x0 SWAP1 JUMP JUMPDEST PUSH1 0x2 SLOAD DUP2 LT ISZERO PUSH2 0xA8A JUMPI PUSH1 0x2 PUSH1 0x0 MSTORE PUSH1 0x2 SHL PUSH32 0x405787FA12A823E0F2B7631CC41B3BA8828B3321CA811111FA75CD3AA3BB5ACE ADD SWAP1 PUSH1 0x0 SWAP1 JUMP JUMPDEST SWAP1 PUSH3 0x278D00 DUP3 ADD DUP1 SWAP3 GT PUSH2 0xC9C JUMPI JUMP JUMPDEST SWAP2 SWAP1 DUP3 ADD DUP1 SWAP3 GT PUSH2 0xC9C JUMPI JUMP JUMPDEST PUSH1 0x0 NOT DUP2 EQ PUSH2 0xC9C JUMPI PUSH1 0x1 ADD SWAP1 JUMP JUMPDEST PUSH1 0x2 SWAP2 DUP3 SLOAD SWAP3 DUP4 ISZERO PUSH2 0x33C9 JUMPI PUSH1 0x5 SLOAD SWAP2 PUSH3 0x13C680 DUP4 ADD DUP1 SWAP4 GT PUSH2 0xC9C JUMPI PUSH1 0x4 SWAP3 DUP4 SLOAD ISZERO SWAP1 DUP2 PUSH2 0x33BE JUMPI JUMPDEST POP PUSH2 0x33AD JUMPI PUSH1 0x0 SWAP5 DUP6 JUMPDEST DUP6 DUP8 LT DUP1 PUSH2 0x33A3 JUMPI JUMPDEST ISZERO PUSH2 0x3354 JUMPI PUSH2 0x32EC PUSH2 0x32F2 SWAP2 PUSH2 0x32C0 DUP8 SLOAD PUSH2 0x3207 JUMP JUMPDEST POP PUSH1 0x3 DUP2 ADD DUP1 SLOAD SWAP1 PUSH1 0xFF DUP3 AND ISZERO DUP1 PUSH2 0x3348 JUMPI JUMPDEST PUSH2 0x32F8 JUMPI JUMPDEST POP POP POP PUSH2 0x32E5 DUP8 SLOAD PUSH2 0x325E JUMP JUMPDEST DUP8 SSTORE PUSH2 0x325E JUMP JUMPDEST SWAP7 PUSH2 0x325E JUMP JUMPDEST SWAP6 PUSH2 0x32A1 JUMP JUMPDEST PUSH1 0x1 DUP1 SWAP3 PUSH1 0xFF NOT AND OR SWAP1 SSTORE PUSH32 0xCF08CFD581AE48E3E5053C3DDAD657750A872D827972A57CA253B1AB4748B0BC PUSH1 0x20 DUP10 DUP5 SLOAD SWAP4 PUSH1 0x1 DUP1 PUSH1 0xA0 SHL SUB SWAP1 DUP7 ADD SLOAD AND SWAP5 ADD SLOAD PUSH1 0x40 MLOAD SWAP1 DUP2 MSTORE LOG3 CODESIZE DUP1 DUP1 PUSH2 0x32D8 JUMP JUMPDEST POP DUP9 DUP4 ADD SLOAD TIMESTAMP GT PUSH2 0x32D3 JUMP JUMPDEST SWAP3 POP PUSH1 0x40 SWAP4 SWAP2 SWAP6 POP PUSH32 0xB8EE613246CAED01F690AEBBF94B750E593F665C039C5B937631201512B63B97 SWAP5 POP DUP2 SLOAD LT ISZERO PUSH2 0x3396 JUMPI JUMPDEST SLOAD DUP3 MLOAD SWAP2 DUP3 MSTORE PUSH1 0x20 DUP3 ADD MSTORE LOG1 JUMP JUMPDEST PUSH1 0x0 DUP2 SSTORE TIMESTAMP PUSH1 0x5 SSTORE PUSH2 0x3388 JUMP JUMPDEST POP DUP2 DUP6 SLOAD LT PUSH2 0x32AA JUMP JUMPDEST PUSH1 0x40 MLOAD PUSH4 0x6410C907 PUSH1 0xE0 SHL DUP2 MSTORE DUP4 SWAP1 REVERT JUMPDEST SWAP1 POP TIMESTAMP GT ISZERO CODESIZE PUSH2 0x3297 JUMP JUMPDEST POP SWAP2 POP POP JUMP JUMPDEST PUSH1 0x2 PUSH1 0x0 SLOAD EQ PUSH2 0x33E0 JUMPI PUSH1 0x2 PUSH1 0x0 SSTORE JUMP JUMPDEST PUSH1 0x40 MLOAD PUSH3 0x461BCD PUSH1 0xE5 SHL DUP2 MSTORE PUSH1 0x20 PUSH1 0x4 DUP3 ADD MSTORE PUSH1 0x1F PUSH1 0x24 DUP3 ADD MSTORE PUSH32 0x5265656E7472616E637947756172643A207265656E7472616E742063616C6C00 PUSH1 0x44 DUP3 ADD MSTORE PUSH1 0x64 SWAP1 REVERT JUMPDEST PUSH2 0x120 DUP2 ADD SWAP1 DUP2 LT PUSH8 0xFFFFFFFFFFFFFFFF DUP3 GT OR PUSH2 0x3442 JUMPI PUSH1 0x40 MSTORE JUMP JUMPDEST PUSH4 0x4E487B71 PUSH1 0xE0 SHL PUSH1 0x0 MSTORE PUSH1 0x41 PUSH1 0x4 MSTORE PUSH1 0x24 PUSH1 0x0 REVERT JUMPDEST PUSH8 0xFFFFFFFFFFFFFFFF DUP2 GT PUSH2 0x3442 JUMPI PUSH1 0x40 MSTORE JUMP JUMPDEST PUSH1 0x80 DUP2 ADD SWAP1 DUP2 LT PUSH8 0xFFFFFFFFFFFFFFFF DUP3 GT OR PUSH2 0x3442 JUMPI PUSH1 0x40 MSTORE JUMP JUMPDEST SWAP1 PUSH1 0x1F DUP1 NOT SWAP2 ADD AND DUP2 ADD SWAP1 DUP2 LT PUSH8 0xFFFFFFFFFFFFFFFF DUP3 GT OR PUSH2 0x3442 JUMPI PUSH1 0x40 MSTORE JUMP JUMPDEST PUSH8 0xFFFFFFFFFFFFFFFF DUP2 GT PUSH2 0x3442 JUMPI PUSH1 0x5 SHL PUSH1 0x20 ADD SWAP1 JUMP JUMPDEST PUSH1 0x2 SLOAD ISZERO DUP1 ISZERO PUSH2 0x34F8 JUMPI JUMPDEST PUSH2 0x34F2 JUMPI PUSH1 0x0 MSTORE PUSH1 0x3 PUSH1 0x20 MSTORE PUSH1 0xFF PUSH1 0x3 PUSH2 0x34EB PUSH1 0x40 PUSH1 0x0 KECCAK256 SLOAD PUSH2 0x3207 JUMP JUMPDEST POP ADD SLOAD AND SWAP1 JUMP JUMPDEST POP PUSH1 0x0 SWAP1 JUMP JUMPDEST DUP2 PUSH1 0x0 MSTORE PUSH1 0x3 PUSH1 0x20 MSTORE PUSH1 0x40 PUSH1 0x0 KECCAK256 SLOAD ISZERO SWAP1 DUP2 PUSH2 0x3515 JUMPI JUMPDEST POP PUSH2 0x34CD JUMP JUMPDEST SWAP1 POP PUSH2 0xA8A JUMPI PUSH1 0x2 PUSH1 0x0 MSTORE DUP1 PUSH32 0x405787FA12A823E0F2B7631CC41B3BA8828B3321CA811111FA75CD3AA3BB5ACE SLOAD EQ ISZERO CODESIZE PUSH2 0x350F JUMP JUMPDEST SWAP1 DUP2 PUSH1 0x20 SWAP2 SUB SLT PUSH2 0xE98 JUMPI MLOAD DUP1 ISZERO ISZERO DUP2 SUB PUSH2 0xE98 JUMPI SWAP1 JUMP JUMPDEST SWAP2 SWAP1 DUP3 SUB SWAP2 DUP3 GT PUSH2 0xC9C JUMPI JUMP JUMPDEST PUSH4 0xFFFFFFFF SWAP1 DUP2 AND PUSH1 0x0 NOT ADD SWAP2 SWAP1 DUP3 GT PUSH2 0xC9C JUMPI JUMP JUMPDEST PUSH4 0xFFFFFFFF SWAP2 DUP3 AND SWAP1 DUP3 AND SUB SWAP2 SWAP1 DUP3 GT PUSH2 0xC9C JUMPI JUMP JUMPDEST PUSH1 0x40 SWAP1 PUSH4 0xFFFFFFFF PUSH2 0x35C0 SWAP5 SWAP7 SWAP6 SWAP4 SWAP7 PUSH1 0x60 DUP4 ADD SWAP8 DUP4 MSTORE AND PUSH1 0x20 DUP3 ADD MSTORE ADD SWAP1 PUSH2 0x30E2 JUMP JUMPDEST JUMP JUMPDEST PUSH1 0x1 DUP1 PUSH1 0xA0 SHL SUB AND PUSH1 0x0 MSTORE PUSH1 0x6 PUSH1 0x20 MSTORE PUSH1 0x40 PUSH1 0x0 KECCAK256 SLOAD PUSH1 0xF PUSH1 0x20 MSTORE PUSH1 0x40 PUSH1 0x0 KECCAK256 SLOAD DUP1 DUP3 GT PUSH2 0x35F1 JUMPI POP POP PUSH1 0x0 SWAP1 JUMP JUMPDEST PUSH2 0x35FA SWAP2 PUSH2 0x3563 JUMP JUMPDEST SWAP1 JUMP JUMPDEST SWAP1 DUP2 PUSH1 0x20 SWAP2 SUB SLT PUSH2 0xE98 JUMPI MLOAD DUP1 PUSH1 0x3 SIGNEXTEND DUP2 SUB PUSH2 0xE98 JUMPI SWAP1 JUMP JUMPDEST DUP1 SLOAD PUSH1 0x1 PUSH1 0x40 SHL DUP2 LT ISZERO PUSH2 0x3442 JUMPI PUSH2 0x3633 SWAP2 PUSH1 0x1 DUP3 ADD DUP2 SSTORE PUSH2 0x31EF JUMP JUMPDEST DUP2 SWAP3 SWAP2 SLOAD SWAP1 PUSH1 0x3 SHL SWAP2 DUP3 SHL SWAP2 PUSH1 0x0 NOT SWAP1 SHL NOT AND OR SWAP1 SSTORE JUMP JUMPDEST SWAP1 PUSH1 0x1 PUSH4 0xFFFFFFFF DUP1 SWAP4 AND ADD SWAP2 DUP3 GT PUSH2 0xC9C JUMPI JUMP JUMPDEST DUP2 DUP2 MUL SWAP3 SWAP2 DUP2 ISZERO SWAP2 DUP5 DIV EQ OR ISZERO PUSH2 0xC9C JUMPI JUMP JUMPDEST DUP2 ISZERO PUSH2 0x367D JUMPI DIV SWAP1 JUMP JUMPDEST PUSH4 0x4E487B71 PUSH1 0xE0 SHL PUSH1 0x0 MSTORE PUSH1 0x12 PUSH1 0x4 MSTORE PUSH1 0x24 PUSH1 0x0 REVERT JUMPDEST SWAP1 DUP2 PUSH1 0x20 SWAP2 SUB SLT PUSH2 0xE98 JUMPI MLOAD PUSH4 0xFFFFFFFF DUP2 AND DUP2 SUB PUSH2 0xE98 JUMPI SWAP1 JUMP JUMPDEST SWAP1 PUSH2 0x36B9 DUP3 PUSH2 0x34AA JUMP JUMPDEST PUSH2 0x36C6 PUSH1 0x40 MLOAD SWAP2 DUP3 PUSH2 0x3488 JUMP JUMPDEST DUP3 DUP2 MSTORE DUP1 SWAP3 PUSH2 0x36D7 PUSH1 0x1F NOT SWAP2 PUSH2 0x34AA JUMP JUMPDEST ADD SWAP1 PUSH1 0x20 CALLDATASIZE SWAP2 ADD CALLDATACOPY JUMP JUMPDEST DUP1 MLOAD DUP3 LT ISZERO PUSH2 0xA8A JUMPI PUSH1 0x20 SWAP2 PUSH1 0x5 SHL ADD ADD SWAP1 JUMP JUMPDEST SWAP1 DUP2 SLOAD DUP1 DUP3 MSTORE PUSH1 0x20 DUP1 SWAP3 ADD SWAP3 PUSH1 0x0 MSTORE DUP2 PUSH1 0x0 KECCAK256 SWAP2 PUSH1 0x0 SWAP1 JUMPDEST DUP3 DUP3 LT PUSH2 0x371B JUMPI POP POP POP POP SWAP1 JUMP JUMPDEST DUP4 SLOAD DUP6 MSTORE SWAP4 DUP5 ADD SWAP4 PUSH1 0x1 SWAP4 DUP5 ADD SWAP4 SWAP1 SWAP2 ADD SWAP1 PUSH2 0x370D JUMP JUMPDEST PUSH1 0x40 MLOAD SWAP1 PUSH2 0x373F DUP3 PUSH2 0x3425 JUMP JUMPDEST DUP2 PUSH2 0x100 PUSH1 0x0 SWAP2 DUP3 DUP2 MSTORE DUP3 PUSH1 0x20 DUP3 ADD MSTORE DUP3 PUSH1 0x40 DUP3 ADD MSTORE DUP3 PUSH1 0x60 DUP3 ADD MSTORE DUP3 PUSH1 0x80 DUP3 ADD MSTORE DUP3 PUSH1 0xA0 DUP3 ADD MSTORE PUSH1 0x60 PUSH1 0xC0 DUP3 ADD MSTORE PUSH1 0x60 PUSH1 0xE0 DUP3 ADD MSTORE ADD MSTORE JUMP JUMPDEST SWAP1 PUSH1 0x40 MLOAD PUSH2 0x3786 DUP2 PUSH2 0x3425 JUMP JUMPDEST DUP3 SLOAD PUSH1 0x1 PUSH1 0x1 PUSH1 0xA0 SHL SUB AND DUP2 MSTORE PUSH1 0x1 DUP4 ADD SLOAD PUSH1 0x20 DUP3 ADD MSTORE PUSH1 0x2 DUP4 ADD SLOAD SWAP1 SWAP3 DUP4 SWAP2 SWAP1 PUSH1 0xFF DUP3 AND SWAP1 PUSH1 0x3 DUP3 LT ISZERO PUSH2 0x2FD4 JUMPI PUSH2 0x100 SWAP3 PUSH1 0x6 SWAP3 PUSH1 0x40 DUP7 ADD MSTORE PUSH4 0xFFFFFFFF SWAP1 DUP2 DUP2 PUSH1 0x8 SHR AND PUSH1 0x60 DUP8 ADD MSTORE PUSH1 0x28 SHR AND PUSH1 0x80 DUP6 ADD MSTORE PUSH1 0x3 DUP2 ADD SLOAD PUSH1 0xA0 DUP6 ADD MSTORE PUSH1 0x40 MLOAD PUSH2 0x37F9 DUP2 PUSH2 0x14AE DUP2 PUSH1 0x4 DUP7 ADD PUSH2 0x36F5 JUMP JUMPDEST PUSH1 0xC0 DUP6 ADD MSTORE PUSH1 0x40 MLOAD PUSH2 0x3812 DUP2 PUSH2 0x14AE DUP2 PUSH1 0x5 DUP7 ADD PUSH2 0x36F5 JUMP JUMPDEST PUSH1 0xE0 DUP6 ADD MSTORE ADD SLOAD SWAP2 ADD MSTORE JUMP JUMPDEST SWAP1 PUSH1 0x0 SWAP2 DUP3 MSTORE PUSH1 0x12 PUSH1 0x20 MSTORE PUSH1 0x40 DUP3 KECCAK256 PUSH1 0x2 DUP2 ADD SLOAD PUSH1 0xFF DUP2 AND PUSH1 0x3 DUP2 LT ISZERO PUSH2 0x2491 JUMPI ISZERO SWAP1 DUP2 PUSH2 0x385C JUMPI JUMPDEST POP PUSH2 0x3851 JUMPI POP DUP2 SWAP1 JUMP JUMPDEST PUSH1 0x3 ADD SLOAD SWAP2 POP PUSH1 0x1 SWAP1 JUMP JUMPDEST PUSH4 0xFFFFFFFF SWAP2 POP PUSH1 0x28 SHR AND ISZERO ISZERO CODESIZE PUSH2 0x3847 JUMP JUMPDEST SWAP1 PUSH1 0x40 MLOAD SWAP2 DUP3 DUP2 SLOAD SWAP2 DUP3 DUP3 MSTORE PUSH1 0x20 SWAP3 DUP4 DUP4 ADD SWAP2 PUSH1 0x0 MSTORE DUP4 PUSH1 0x0 KECCAK256 SWAP4 PUSH1 0x0 SWAP1 JUMPDEST DUP3 DUP3 LT PUSH2 0x38A4 JUMPI POP POP POP PUSH2 0x35C0 SWAP3 POP SUB DUP4 PUSH2 0x3488 JUMP JUMPDEST DUP6 SLOAD PUSH1 0x1 PUSH1 0x1 PUSH1 0xA0 SHL SUB AND DUP5 MSTORE PUSH1 0x1 SWAP6 DUP7 ADD SWAP6 DUP9 SWAP6 POP SWAP4 DUP2 ADD SWAP4 SWAP1 SWAP2 ADD SWAP1 PUSH2 0x388E JUMP INVALID DUP12 MULMOD 0x4C 0xCA PUSH16 0x83D49402CE208CC0C224B76625FFC586 CALLDATASIZE 0xDF JUMP 0xAE 0x28 MUL 0x4E PUSH17 0x4C5868A264697066735822122074895DC5 SWAP3 SWAP10 0xF9 CREATE CREATE2 0xB2 0xD DUP11 CODECOPY 0xB2 PUSH13 0x8903BF5F6FA0662ADCDB820D26 PUSH19 0x669BDD64736F6C634300081300330000000000 "},"methodIdentifiers":{"CHECK_INTERVAL()":"6ea33ceb","borrowerRequisitions(address,uint256)":"9e932011","canPayRequisition(uint256,address)":"adceb101","canUserBorrow(address,uint256)":"97c33519","cancelLoanRequisition(uint256,uint32)":"140c9ac4","coverLoan(uint256,uint32,uint32)":"ecb18b34","createLoanRequisition(uint256,uint32,uint32,uint32,uint32)":"1beeafa5","debtWatchlist(uint256)":"be7df8ed","donate(uint256,uint32)":"e2763924","getActiveLoans(address)":"03d1a1a1","getAllowance(address)":"eb5a662e","getAvailableBalance()":"809dab6a","getAvailableBorrowAmount()":"291c31a7","getBorrowerRequisitions(address)":"9730872a","getBorrowing(address)":"be5eb580","getContractBalance()":"6f9fb98a","getCoveringLenders(uint256)":"8a914a63","getDebtWatchlist()":"2f3b1458","getDonation(address)":"410a1d32","getDonationsInCoverage(address)":"827cc0e5","getLastBorrowTime(address)":"657eb031","getLenderCoverage(uint256,address)":"4e51c7df","getLoanContract(uint256)":"383ab2ef","getMemberId(address)":"c269014b","getNextPaymentAmount(uint256)":"6509a710","getPaymentDates(uint256)":"7d52437a","getRepaymentSummary(uint256)":"2b31c022","getReputation(uint32)":"81db2284","getRequisitionInfo(uint256)":"1b70ba3e","getTotalBorrowed()":"0307c4a1","getTotalDonations()":"777c658f","getUSDTBalance()":"9785fac8","getWithdrawableBalance(address)":"843592d3","isBorrowerOverdue(uint256)":"a4aace0f","isWalletVinculated(address)":"598a562a","lastPeriodicCheckTimestamp()":"50c9677f","loanContracts(uint256)":"232869fa","nextCheckIndex()":"55c67616","performPeriodicDebtCheck(uint256)":"e5a0bde4","repay(uint256,uint256,uint32)":"9059f9ca","reputationSystem()":"6587eda1","requisitionCounter()":"84ddf5ea","usdtToken()":"a98ad46c","vinculationMemberToWallet(uint32,address)":"21bb31e4","withdraw(uint256,uint32)":"6145d1b7"}}}}}